120120201PAGO FACIL               090060246FABIAN NORBERTO D´ERAMO                                                              
320120201000001FABIAN NORBERTO D´ERAMO                                                                                          
50000110201201312012020129070316166016       PES0000010000A111052012013111590035                                                
6024600010000120332907031616601600000000084                                                                                     
7PESE                                                                                000000000010000                            
50000210201201312012020129070320428689       PES0000010000A112712012013121220013                                                
6024600010000120332907032042868900000000015                                                                                     
7PESE                                                                                000000000010000                            
50000310201201312012020129070416403064       PES0000010000M600852012013112150109                                                
6024600010000120332907041640306400000000021                                                                                     
7PESE                                                                                000000000010000                            
50000410201201312012020129070816685633       PES0000010000A090842012013110440040                                                
6024600010000120332907081668563300000000021                                                                                     
7PESE                                                                                000000000010000                            
50000510201201312012020100600422824969       PES0000025000A099242012013117510316                                                
6024600025000120310060042282496900040007642                                                                                     
7PESE                                                                                000000000025000                            
50000610201201312012020100600423362363       PES0000025000A071202012013114310001                                                
6024600025000120310060042336236300040007621                                                                                     
7PESE                                                                                000000000025000                            
50000710201201312012020100600424999568       PES0000025000A088692012013118020052                                                
6024600025000120310060042499956800040007121                                                                                     
7PESE                                                                                000000000025000                            
50000810201201312012020100600617881249       PES0000025000A601092012013111530061                                                
6024600025000120310060061788124900040007242                                                                                     
7PESE                                                                                000000000025000                            
50000910201201312012020100601423153621       PES0000025000A071202012013114320002                                                
6024600025000120310060142315362100040007642                                                                                     
7PESE                                                                                000000000025000                            
50001010201201312012020199030233914097       PES0000037000A097172012013112220058                                                
6024600037000120389903023391409700035000042                                                                                     
7PESE                                                                                000000000037000                            
50001110201201312012020123060231499323       PES0000121600A081352012013116150185                                                
6024600121600120312306023149932300000000015                                                                                     
7PESE                                                                                000000000121600                            
50001210201201312012020123060325300029       PES0000121600A106392012013118280064                                                
6024600121600120312306032530002900000000042                                                                                     
7PESE                                                                                000000000121600                            
50001310201201312012020123060514897246       PES0000121600A091912012013116470121                                                
6024600121600120312306051489724600000000000                                                                                     
7PESE                                                                                000000000121600                            
50001410201201312012020123060832641751       PES0000121600A076552012013117590123                                                
6024600121600120312306083264175100000000000                                                                                     
7PESE                                                                                000000000121600                            
50001510201201312012020123060835664976       PES0000121600A613832012013109360045                                                
6024600121600120312306083566497600000000042                                                                                     
7PESE                                                                                000000000121600                            
50001610201201312012020123060837666980       PES0000121600M740042012013111180057                                                
6024600121600120312306083766698000000000063                                                                                     
7PESE                                                                                000000000121600                            
50001710201201312012020123061028063094       PES0000121600A055102012013111590062                                                
6024600121600120312306102806309400000000000                                                                                     
7PESE                                                                                000000000121600                            
50001810201201312012020123061029191425       PES0000121600A047792012013109410031                                                
6024600121600120312306102919142500000000078                                                                                     
7PESE                                                                                000000000121600                            
50001910201201312012020123061328579700       PES0000136600A053302012013114190074                                                
6024600136600120312306132857970000000000036                                                                                     
7PESE                                                                                000000000136600                            
50002010201201312012020123061329772668       PES0000136600A093392012013118150037                                                
6024600136600120312306132977266800000000000                                                                                     
7PESE                                                                                000000000136600                            
50002110201201312012020123061331349025       PES0000136600M601642012013117030053                                                
6024600136600120312306133134902500000000084                                                                                     
7PESE                                                                                000000000136600                            
50002210201201312012020123061740186925       PES0000136600A092042012013111470110                                                
6024600136600120312306174018692500000000042                                                                                     
7PESE                                                                                000000000136600                            
50002310201201312012020123061742320419       PES0000136600A080682012013116540033                                                
6024600136600120312306174232041900000000063                                                                                     
7PESE                                                                                000000000136600                            
50002410201201312012020123061835863552       PES0000136600A081982012013118560239                                                
6024600136600120312306183586355200000000000                                                                                     
7PESE                                                                                000000000136600                            
50002510201201312012020123061836903851       PES0000136600A081982012013118530237                                                
6024600136600120312306183690385100000000021                                                                                     
7PESE                                                                                000000000136600                            
50002610201201312012020123061840535962       PES0000136600A080682012013116540034                                                
6024600136600120312306184053596200000000058                                                                                     
7PESE                                                                                000000000136600                            
50002710201201312012020123061922992591       PES0000136600A620952012013109050002                                                
6024600136600120312306192299259100000000042                                                                                     
7PESE                                                                                000000000136600                            
82012020100000100000270000024042000000000000000000000000000000000000000000027                                                   
9201202010000010000027000002404200000000000000000000000000000000000000000000027                                                 
