120110901PAGO FACIL               090060246FABIAN NORBERTO D´ERAMO                                                              
320110901000001FABIAN NORBERTO D´ERAMO                                                                                          
50000110201108312011090117020235953354       PES0000016000A042632011083111100047                                                
6024600016000112431702023595335400040007657                                                                                     
7PESE                                                                                000000000016000                            
50000210201108312011090117020326379722       PES0000016000M640352011083111500009                                                
6024600016000112431702032637972200040007500                                                                                     
7PESE                                                                                000000000016000                            
50000310201108312011090117020327510106       PES0000016000A068532011083119520075                                                
6024600016000112431702032751010600040007342                                                                                     
7PESE                                                                                000000000016000                            
50000410201108312011090117020329173515       PES0000016000A037782011083111250016                                                
6024600016000112431702032917351500040007600                                                                                     
7PESE                                                                                000000000016000                            
50000510201108312011090117020329487334       PES0000016000A083092011083113040105                                                
6024600016000112431702032948733400040007590                                                                                     
7PESE                                                                                000000000016000                            
50000610201108312011090117020426276882       PES0000016000A064792011083117150006                                                
6024600016000112431702042627688200040007684                                                                                     
7PESE                                                                                000000000016000                            
50000710201108312011090117020426602309       PES0000016000A108012011083110370015                                                
6024600016000112431702042660230900040007658                                                                                     
7PESE                                                                                000000000016000                            
50000810201108312011090117020426799002       PES0000016000A068532011083119520076                                                
6024600016000112431702042679900200040007321                                                                                     
7PESE                                                                                000000000016000                            
50000910201108312011090117020426925373       PES0000016000A640242011083111320062                                                
6024600016000112431702042692537300040007615                                                                                     
7PESE                                                                                000000000016000                            
50001010201108312011090117020427109188       PES0000016000M660232011083117470225                                                
6024600016000112431702042710918800040007542                                                                                     
7PESE                                                                                000000000016000                            
50001110201108312011090117020428022293       PES0000016000A108292011083117280032                                                
6024600016000112431702042802229300040000063                                                                                     
7PESE                                                                                000000000016000                            
50001210201108312011090117020521720979       PES0000016000A037782011083110480011                                                
6024600016000112431702052172097900040007284                                                                                     
7PESE                                                                                000000000016000                            
50001310201108312011090117020522539355       PES0000016000L071222011083119006037                                                
6024600016000112431702052253935500040007542                                                                                     
7PESE                                                                                000000000016000                            
50001410201108312011090117020522654577       PES0000016000A052322011083108460026                                                
6024600016000112431702052265457700040007500                                                                                     
7PESE                                                                                000000000016000                            
50001510201108312011090117020522861309       PES0000016000A089782011083111240056                                                
6024600016000112431702052286130900040007642                                                                                     
7PESE                                                                                000000000016000                            
50001610201108312011090117020522953523       PES0000016000A077082011083117100021                                                
6024600016000112431702052295352300040007542                                                                                     
7PESE                                                                                000000000016000                            
50001710201108312011090117020523711417       PES0000016000A640172011083110440017                                                
6024600016000112431702052371141700040000079                                                                                     
7PESE                                                                                000000000016000                            
50001810201108312011090117020523884768       PES0000016000A620302011083111120045                                                
6024600016000112431702052388476800040007421                                                                                     
7PESE                                                                                000000000016000                            
50001910201108312011090117020523991151       PES0000016000A047282011083118140008                                                
6024600016000112431702052399115100040007663                                                                                     
7PESE                                                                                000000000016000                            
50002010201108312011090117020524684169       PES0000016000A042632011083107450003                                                
6024600016000112431702052468416900040007358                                                                                     
7PESE                                                                                000000000016000                            
50002110201108312011090117020618096078       PES0000016000A107592011083120250091                                                
6024600016000112431702061809607800040007684                                                                                     
7PESE                                                                                000000000016000                            
50002210201108312011090117020620309951       PES0000016000M620132011083111210021                                                
6024600016000112431702062030995100040007684                                                                                     
7PESE                                                                                000000000016000                            
50002310201108312011090117020621786204       PES0000016000A042632011083111030045                                                
6024600016000112431702062178620400040007058                                                                                     
7PESE                                                                                000000000016000                            
50002410201108312011090117020621878522       PES0000016000A107592011083118570081                                                
6024600016000112431702062187852200040007163                                                                                     
7PESE                                                                                000000000016000                            
50002510201108312011090117020621898113       PES0000016000A077082011083117100022                                                
6024600016000112431702062189811300040007584                                                                                     
7PESE                                                                                000000000016000                            
50002610201108312011090117020622095063       PES0000016000A640742011083109440018                                                
6024600016000112431702062209506300040007678                                                                                     
7PESE                                                                                000000000016000                            
50002710201108312011090117020622123464       PES0000016000A099632011083110110045                                                
6024600016000112431702062212346400040007515                                                                                     
7PESE                                                                                000000000016000                            
50002810201108312011090117020622223615       PES0000016000M660232011083117450224                                                
6024600016000112431702062222361500040007563                                                                                     
7PESE                                                                                000000000016000                            
50002910201108312011090117020716303687       PES0000016000L071222011083117416025                                                
6024600016000112431702071630368700040007558                                                                                     
7PESE                                                                                000000000016000                            
50003010201108312011090117020716336878       PES0000016000A102662011083111580035                                                
6024600016000112431702071633687800040007537                                                                                     
7PESE                                                                                000000000016000                            
50003110201108312011090117020717440324       PES0000016000A055922011083119330100                                                
6024600016000112431702071744032400040007642                                                                                     
7PESE                                                                                000000000016000                            
50003210201108312011090117020812865671       PES0000016000A055922011083119330101                                                
6024600016000112431702081286567100040007663                                                                                     
7PESE                                                                                000000000016000                            
50003310201108312011090117020813502378       PES0000016000A108292011083117280033                                                
6024600016000112431702081350237800040000063                                                                                     
7PESE                                                                                000000000016000                            
50003410201108312011090117020910920426       PES0000016000A077082011083117090019                                                
6024600016000112431702091092042600040007563                                                                                     
7PESE                                                                                000000000016000                            
50003510201108312011090117020912650133       PES0000016000A047282011083110390032                                                
6024600016000112431702091265013300040007621                                                                                     
7PESE                                                                                000000000016000                            
50003610201108312011090117021006297945       PES0000016000A077082011083117090017                                                
6024600016000112431702100629794500040007537                                                                                     
7PESE                                                                                000000000016000                            
50003710201108312011090117021006610779       PES0000016000A083092011083121550296                                                
6024600016000112431702100661077900040007642                                                                                     
7PESE                                                                                000000000016000                            
50003810201108312011090117021008599796       PES0000016000A068532011083119520077                                                
6024600016000112431702100859979600040007384                                                                                     
7PESE                                                                                000000000016000                            
50003910201108312011090117021131022257       PES0000016000A083092011083121550295                                                
6024600016000112431702113102225700040007642                                                                                     
7PESE                                                                                000000000016000                            
50004010201108312011090117021131593572       PES0000016000A077082011083117090018                                                
6024600016000112431702113159357200040007537                                                                                     
7PESE                                                                                000000000016000                            
50004110201108312011090117021137482627       PES0000016000A102662011083111590036                                                
6024600016000112431702113748262700040007521                                                                                     
7PESE                                                                                000000000016000                            
50004210201108312011090117021221720954       PES0000016000A037782011083111240015                                                
6024600016000112431702122172095400040007579                                                                                     
7PESE                                                                                000000000016000                            
50004310201108312011090117021222647497       PES0000016000A077082011083117090016                                                
6024600016000112431702122264749700040007515                                                                                     
7PESE                                                                                000000000016000                            
50004410201108312011090117021224055984       PES0000016000A077082011083117090015                                                
6024600016000112431702122405598400040007637                                                                                     
7PESE                                                                                000000000016000                            
50004510201108312011090117021224173732       PES0000016000A099632011083119210219                                                
6024600016000112431702122417373200040007616                                                                                     
7PESE                                                                                000000000016000                            
50004610201108312011090117021224522483       PES0000016000A077082011083117100023                                                
6024600016000112431702122452248300040007415                                                                                     
7PESE                                                                                000000000016000                            
50004710201108312011090117021226309057       PES0000016000A077082011083117110024                                                
6024600016000112431702122630905700040007442                                                                                     
7PESE                                                                                000000000016000                            
50004810201108312011090117021226309348       PES0000016000A077082011083117090014                                                
6024600016000112431702122630934800040007521                                                                                     
7PESE                                                                                000000000016000                            
50004910201108312011090117021228055570       PES0000016000M640352011083111500008                                                
6024600016000112431702122805557000040007584                                                                                     
7PESE                                                                                000000000016000                            
50005010201108312011090117021317963871       PES0000016000L071232011083120324487                                                
6024600016000112431702131796387100040007616                                                                                     
7PESE                                                                                000000000016000                            
50005110201108312011090117021317963871       PES0000016000L071232011083120304485                                                
6024600016000112431702131796387100040007616                                                                                     
7PESE                                                                                000000000016000                            
50005210201108312011090117021321986466       PES0000016000M620132011083111220023                                                
6024600016000112431702132198646600040007663                                                                                     
7PESE                                                                                000000000016000                            
50005310201108312011090117021413521779       PES0000016000A077082011083117100020                                                
6024600016000112431702141352177900040007557                                                                                     
7PESE                                                                                000000000016000                            
50005410201108312011090117021506417681       PES0000016000A084002011083109470022                                                
6024600016000112431702150641768100040007484                                                                                     
7PESE                                                                                000000000016000                            
50005510201108312011090117021513224752       PES0000016000L071222011083118226032                                                
6024600016000112431702151322475200040007663                                                                                     
7PESE                                                                                000000000016000                            
50005610201108312011090117021527499556       PES0000016000A099632011083110100044                                                
6024600016000112431702152749955600040007537                                                                                     
7PESE                                                                                000000000016000                            
50005710201108312011090117021540969731       PES0000016000A640742011083109450019                                                
6024600016000112431702154096973100040007663                                                                                     
7PESE                                                                                000000000016000                            
50005810201108312011090100500237078158       PES0000019500A083262011083116520016                                                
6024600019500112430050023707815800050007678                                                                                     
7PESE                                                                                000000000019500                            
50005910201108312011090100500432190489       PES0000019500A020722011083114450086                                                
6024600019500112430050043219048900050007079                                                                                     
7PESE                                                                                000000000019500                            
50006010201108312011090100501334134136       PES0000019500A055192011083114430006                                                
6024600019500112430050133413413600050007678                                                                                     
7PESE                                                                                000000000019500                            
50006110201108312011090100501429623153       PES0000019500A105472011083118530125                                                
6024600019500112430050142962315300050007521                                                                                     
7PESE                                                                                000000000019500                            
50006210201108312011090100501431033536       PES0000019500A046692011083114010166                                                
6024600019500112430050143103353600050007699                                                                                     
7PESE                                                                                000000000019500                            
50006310201108312011090100501431452271       PES0000019500L120212011083113518507                                                
6024600019500112430050143145227100050007663                                                                                     
7PESE                                                                                000000000019500                            
50006410201108312011090100501431565598       PES0000019500A055192011083114430005                                                
6024600019500112430050143156559800050007657                                                                                     
7PESE                                                                                000000000019500                            
50006510201108312011090100501622644482       PES0000019500A026032011083112100170                                                
6024600019500112430050162264448200050000042                                                                                     
7PESE                                                                                000000000019500                            
50006610201108312011090100501624662835       PES0000019500A074212011083111050052                                                
6024600019500112430050162466283500050007684                                                                                     
7PESE                                                                                000000000019500                            
50006710201108312011090100501720009433       PES0000019500A043482011083120140257                                                
6024600019500112430050172000943300050007600                                                                                     
7PESE                                                                                000000000019500                            
50006810201108312011090100501816450668       PES0000019500A102152011083119460082                                                
6024600019500112430050181645066800050007558                                                                                     
7PESE                                                                                000000000019500                            
50006910201108312011090100502330641882       PES0000019500D000032011083114340083                                                
6024600019500112430050233064188200050007699                                                                                     
7PESE                                                                                000000000019500                            
50007010201108312011090100502425960561       PES0000019500A045372011083113200114                                                
6024600019500112430050242596056100050007542                                                                                     
7PESE                                                                                000000000019500                            
50007110201108312011090100502426517608       PES0000019500A105302011083116200076                                                
6024600019500112430050242651760800050007579                                                                                     
7PESE                                                                                000000000019500                            
50007210201108312011090100502426517634       PES0000019500A077712011083109390019                                                
6024600019500112430050242651763400050007484                                                                                     
7PESE                                                                                000000000019500                            
50007310201108312011090100502427334654       PES0000019500A077712011083109170007                                                
6024600019500112430050242733465400050007479                                                                                     
7PESE                                                                                000000000019500                            
50007410201108312011090100502523463697       PES0000019500A021442011083110540180                                                
6024600019500112430050252346369700050007415                                                                                     
7PESE                                                                                000000000019500                            
50007510201108312011090100502523585004       PES0000019500A077712011083109390018                                                
6024600019500112430050252358500400050007463                                                                                     
7PESE                                                                                000000000019500                            
50007610201108312011090100502524152442       PES0000019500A060922011083119410221                                                
6024600019500112430050252415244200050007590                                                                                     
7PESE                                                                                000000000019500                            
50007710201108312011090100502618183558       PES0000019500A045372011083112110085                                                
6024600019500112430050261818355800050007316                                                                                     
7PESE                                                                                000000000019500                            
50007810201108312011090100502620256855       PES0000019500A105252011083120080397                                                
6024600019500112430050262025685500050007600                                                                                     
7PESE                                                                                000000000019500                            
50007910201108312011090100502621328565       PES0000019500A106642011083118440063                                                
6024600019500112430050262132856500050007163                                                                                     
7PESE                                                                                000000000019500                            
50008010201108312011090100502621338228       PES0000019500A064522011083117160174                                                
6024600019500112430050262133822800050007642                                                                                     
7PESE                                                                                000000000019500                            
50008110201108312011090100502622183018       PES0000019500M601012011083111420041                                                
6024600019500112430050262218301800050007121                                                                                     
7PESE                                                                                000000000019500                            
50008210201108312011090100502716223785       PES0000019500A049072011083117280019                                                
6024600019500112430050271622378500050007415                                                                                     
7PESE                                                                                000000000019500                            
50008310201108312011090100502716236928       PES0000019500A089652011083118250189                                                
6024600019500112430050271623692800050007684                                                                                     
7PESE                                                                                000000000019500                            
50008410201108312011090100502716595496       PES0000019500A068912011083110340054                                                
6024600019500112430050271659549600050007063                                                                                     
7PESE                                                                                000000000019500                            
50008510201108312011090100502717099343       PES0000019500M640432011083110160075                                                
6024600019500112430050271709934300050007699                                                                                     
7PESE                                                                                000000000019500                            
50008610201108312011090100502717570085       PES0000019500D000532011083115280149                                                
6024600019500112430050271757008500050007542                                                                                     
7PESE                                                                                000000000019500                            
50008710201108312011090100502717747436       PES0000019500A044222011083119360276                                                
6024600019500112430050271774743600050007578                                                                                     
7PESE                                                                                000000000019500                            
50008810201108312011090100502812577297       PES0000019500A060922011083116550090                                                
6024600019500112430050281257729700050007679                                                                                     
7PESE                                                                                000000000019500                            
50008910201108312011090100503225119162       PES0000019500M680002011083118180095                                                
6024600019500112430050322511916200050007658                                                                                     
7PESE                                                                                000000000019500                            
50009010201108312011090100503325927763       PES0000019500M680002011083118180096                                                
6024600019500112430050332592776300050007657                                                                                     
7PESE                                                                                000000000019500                            
50009110201108312011090100503439653799       PES0000019500A030152011083117250055                                                
6024600019500112430050343965379900050007063                                                                                     
7PESE                                                                                000000000019500                            
50009210201108312011090100503538151282       PES0000019500A028072011083112350013                                                
6024600019500112430050353815128200050007563                                                                                     
7PESE                                                                                000000000019500                            
50009310201108312011090100503633459181       PES0000019500D000562011083114360097                                                
6024600019500112430050363345918100050007657                                                                                     
7PESE                                                                                000000000019500                            
50009410201108312011090100503725822650       PES0000019500A106782011083113020121                                                
6024600019500112430050372582265000050000042                                                                                     
7PESE                                                                                000000000019500                            
50009510201108312011090100503729583234       PES0000019500A085922011083114050012                                                
6024600019500112430050372958323400050007637                                                                                     
7PESE                                                                                000000000019500                            
50009610201108312011090100503912456012       PES0000019500A096932011083114340144                                                
6024600019500112430050391245601200050007684                                                                                     
7PESE                                                                                000000000019500                            
50009710201108312011090100504041005507       PES0000019500A083002011083110030005                                                
6024600019500112430050404100550700050007515                                                                                     
7PESE                                                                                000000000019500                            
50009810201108312011090100504326429059       PES0000019500A620812011083108080004                                                
6024600019500112430050432642905900050007458                                                                                     
7PESE                                                                                000000000019500                            
50009910201108312011090100504326942664       PES0000019500A091692011083112320159                                                
6024600019500112430050432694266400050007663                                                                                     
7PESE                                                                                000000000019500                            
50010010201108312011090100504328984010       PES0000019500A058062011083111410087                                                
6024600019500112430050432898401000050007379                                                                                     
7PESE                                                                                000000000019500                            
50010110201108312011090100504329521702       PES0000019500A040552011083115280211                                                
6024600019500112430050432952170200050007521                                                                                     
7PESE                                                                                000000000019500                            
50010210201108312011090100504330340934       PES0000019500A085922011083117440084                                                
6024600019500112430050433034093400050007663                                                                                     
7PESE                                                                                000000000019500                            
50010310201108312011090100504420403904       PES0000019500A072782011083114370222                                                
6024600019500112430050442040390400050007599                                                                                     
7PESE                                                                                000000000019500                            
50010410201108312011090100504422795269       PES0000019500A058512011083110390057                                                
6024600019500112430050442279526900050007042                                                                                     
7PESE                                                                                000000000019500                            
50010510201108312011090100504425006488       PES0000019500A033862011083109170014                                                
6024600019500112430050442500648800050007699                                                                                     
7PESE                                                                                000000000019500                            
50010610201108312011090100504513277664       PES0000019500A085922011083114050011                                                
6024600019500112430050451327766400050007699                                                                                     
7PESE                                                                                000000000019500                            
50010710201108312011090100520429118793       PES0000026500A095502011083113370245                                                
6024600026500112440052042911879300005000216                                                                                     
7PESE                                                                                000000000026500                            
50010810201108312011090100530713994786       PES0000038500M601962011083110580016                                                
6024600035000112420053071399478600035007384                                                                                     
7PESE                                                                                000000000038500                            
50010910201108312011090101280521431554       PES0000036500A601902011083111260023                                                
6024600036500112430128052143155400000000042                                                                                     
7PESE                                                                                000000000036500                            
50011010201108312011090101280522138869       PES0000036500A040462011083109060045                                                
6024600036500112430128052213886900000000063                                                                                     
7PESE                                                                                000000000036500                            
50011110201108312011090101282430394271       PES0000036500A090752011083119350247                                                
6024600036500112430128243039427100000000090                                                                                     
7PESE                                                                                000000000036500                            
50011210201108312011090101280133026621       PES0000036500A036192011083119340185                                                
6024600036500112440128013302662100000000021                                                                                     
7PESE                                                                                000000000036500                            
50011310201108312011090101280713227104       PES0000036500A046592011083115510040                                                
6024600036500112440128071322710400000000099                                                                                     
7PESE                                                                                000000000036500                            
50011410201108312011090101280811650865       PES0000036500A090562011083115050058                                                
6024600036500112440128081165086500000000042                                                                                     
7PESE                                                                                000000000036500                            
50011510201108312011090101280422965560       PES0000036500A050122011083114470022                                                
6024600036500112480128042296556000000000099                                                                                     
7PESE                                                                                000000000036500                            
50011610201108312011090101280424512291       PES0000036500A620812011083111200083                                                
6024600036500112500128042451229100000000000                                                                                     
7PESE                                                                                000000000036500                            
50011710201108312011090101280717901826       PES0000036500M600092011083112020073                                                
6024600036500112500128071790182600000000063                                                                                     
7PESE                                                                                000000000036500                            
50011810201108312011090101282216273076       PES0000036500A084182011083110270077                                                
6024600036500112500128221627307600000000084                                                                                     
7PESE                                                                                000000000036500                            
82011090100000100001180000022975000000000000000000000000000000000000000000118                                                   
9201109010000010000118000002297500000000000000000000000000000000000000000000118                                                 
