120120702PAGO FACIL               090060246FABIAN NORBERTO D´ERAMO                                                              
320120702000001FABIAN NORBERTO D´ERAMO                                                                                          
50000110201206292012070299030127689479       PES0000049000A085222012062909540011                                                
6024600049000121829903012768947900000000079                                                                                     
7PESE                                                                                000000000049000                            
50000210201206292012070299020220442739       PES0000022000A077612012062919010075                                                
6024600022000121889902022044273900000000021                                                                                     
7PESE                                                                                000000000022000                            
82012070200000100000020000000710000000000000000000000000000000000000000000002                                                   
9201207020000010000002000000071000000000000000000000000000000000000000000000002                                                 
