120110802PAGO FACIL               090060246FABIAN NORBERTO D´ERAMO                                                              
320110802000001FABIAN NORBERTO D´ERAMO                                                                                          
50000110201108012011080200502137281343       PES0000019500A106072011080118070012                                                
6024600019500112130050213728134300050000042                                                                                     
7PESE                                                                                000000000019500                            
50000210201108012011080200502621694293       PES0000019500M810002011080109590080                                                
6024600019500112130050262169429300050000084                                                                                     
7PESE                                                                                000000000019500                            
50000310201108012011080200500729550684       PES0000019500A082002011080111110041                                                
6024600019500112200050072955068400050000079                                                                                     
7PESE                                                                                000000000019500                            
50000410201108012011080200502011181481       PES0000019500A071862011080112180091                                                
6024600019500112200050201118148100050000021                                                                                     
7PESE                                                                                000000000019500                            
50000510201108012011080200502330565933       PES0000019500A099222011080117540008                                                
6024600019500112200050233056593300050000078                                                                                     
7PESE                                                                                000000000019500                            
50000610201108012011080200502621463334       PES0000019500M620082011080111240036                                                
6024600019500112200050262146333400050000021                                                                                     
7PESE                                                                                000000000019500                            
50000710201108012011080200502716639678       PES0000019500M600822011080112250164                                                
6024600019500112200050271663967800050000000                                                                                     
7PESE                                                                                000000000019500                            
50000810201108012011080200502717147693       PES0000019500A003892011080109000004                                                
6024600019500112200050271714769300050000036                                                                                     
7PESE                                                                                000000000019500                            
50000910201108012011080200502814825474       PES0000019500A100052011080114580045                                                
6024600019500112200050281482547400050000015                                                                                     
7PESE                                                                                000000000019500                            
50001010201108012011080200503726709744       PES0000019500A098582011080115370007                                                
6024600019500112200050372670974400050000099                                                                                     
7PESE                                                                                000000000019500                            
50001110201108012011080200503917962239       PES0000019500M600212011080116130120                                                
6024600019500112200050391796223900050000078                                                                                     
7PESE                                                                                000000000019500                            
50001210201108012011080200504420005451       PES0000019500M601102011080113340139                                                
6024600019500112200050442000545100050000021                                                                                     
7PESE                                                                                000000000019500                            
50001310201108012011080200540235359341       PES0000027000A085892011080118260259                                                
6024600027000112130054023535934100015000042                                                                                     
7PESE                                                                                000000000027000                            
50001410201108012011080299030233259978       PES0000035000A089832011080114270049                                                
6024600035000112199903023325997800035000178                                                                                     
7PESE                                                                                000000000035000                            
82011080200000100000140000002960000000000000000000000000000000000000000000014                                                   
9201108020000010000014000000296000000000000000000000000000000000000000000000014                                                 
