120111202PAGO FACIL               090060246FABIAN NORBERTO D´ERAMO                                                              
320111202000001FABIAN NORBERTO D´ERAMO                                                                                          
50000110201112012011120229060133664692       PES0000010000A079712011113020470263                                                
6024600010000113342906013366469200030007100                                                                                     
7PESE                                                                                000000000010000                            
50000210201112012011120229060134020470       PES0000010000A079712011113020470264                                                
6024600010000113342906013402047000030007157                                                                                     
7PESE                                                                                000000000010000                            
50000310201112012011120200583108093434       PES0000022500A100962011113017410235                                                
6024600022500113340058310809343400025007621                                                                                     
7PESE                                                                                000000000022500                            
50000410201112012011120288880000000020       PES0000001500A007492011120110460051                                                
6024600001500113418888000000002000000000078                                                                                     
7PESE                                                                                000000000001500                            
50000510201112012011120288880000000020       PES0000001500A007492011120110460050                                                
6024600001500113418888000000002000000000078                                                                                     
7PESE                                                                                000000000001500                            
50000610201112012011120200584741544945       PES0000008500A082602011120109400040                                                
6024600007000113340058474154494500015007621                                                                                     
7PESE                                                                                000000000008500                            
50000710201112012011120246071816262078       PES0000014000A056902011120111070023                                                
6024600012000113334607181626207800020007715                                                                                     
7PESE                                                                                000000000014000                            
50000810201112012011120218350717345988       PES0000020000A602192011120109070002                                                
6024600020000113401835071734598800000000000                                                                                     
7PESE                                                                                000000000020000                            
50000910201112012011120218350522840928       PES0000020000M620412011120110150010                                                
6024600020000113411835052284092800000000016                                                                                     
7PESE                                                                                000000000020000                            
50001010201112012011120200584418405415       PES0000025000A095702011120118080093                                                
6024600022500113340058441840541500025007516                                                                                     
7PESE                                                                                000000000025000                            
50001110201112012011120200581526512878       PES0000025000A070622011120116540108                                                
6024600025000113420058152651287800000000057                                                                                     
7PESE                                                                                000000000025000                            
50001210201112012011120201301333247408       PES0000040000A060582011120121080067                                                
6024600040000113350130133324740800000000063                                                                                     
7PESE                                                                                000000000040000                            
50001310201112012011120201301429771488       PES0000040000A620962011120110080038                                                
6024600040000113350130142977148800000000084                                                                                     
7PESE                                                                                000000000040000                            
50001410201112012011120201301818131346       PES0000040000A044482011120115580124                                                
6024600040000113360130181813134600000000000                                                                                     
7PESE                                                                                000000000040000                            
50001510201112012011120201301913724109       PES0000040000A017122011120118160136                                                
6024600040000113360130191372410900000000090                                                                                     
7PESE                                                                                000000000040000                            
50001610201112012011120201301722470212       PES0000040000A109822011120113200184                                                
6024600040000113390130172247021200000000090                                                                                     
7PESE                                                                                000000000040000                            
50001710201112012011120201301624405502       PES0000040000M600852011120116050182                                                
6024600040000113400130162440550200000000015                                                                                     
7PESE                                                                                000000000040000                            
50001810201112012011120223060420737048       PES0000076800A092102011120109420041                                                
6024600076800113412306042073704800192000037                                                                                     
7PESE                                                                                000000000076800                            
50001910201112012011120223060512543813       PES0000076800A085552011120110580076                                                
6024600076800113412306051254381300192000063                                                                                     
7PESE                                                                                000000000076800                            
50002010201112012011120223060512892474       PES0000076800A085552011120110580077                                                
6024600076800113412306051289247400192000036                                                                                     
7PESE                                                                                000000000076800                            
50002110201112012011120223060518354598       PES0000076800M620062011120109550007                                                
6024600076800113412306051835459800192000078                                                                                     
7PESE                                                                                000000000076800                            
50002210201112012011120223061520891126       PES0000085400M601012011120113200084                                                
6024600085400113422306152089112600234000000                                                                                     
7PESE                                                                                000000000085400                            
82011120200000100000220000007906000000000000000000000000000000000000000000022                                                   
9201112020000010000022000000790600000000000000000000000000000000000000000000022                                                 
