120120802PAGO FACIL               090060246FABIAN NORBERTO D´ERAMO                                                              
320120802000001FABIAN NORBERTO D´ERAMO                                                                                          
50000110201208012012080257000321716129       PES0000014000A620572012080108150003                                                
6024600014000122195700032171612900000000000                                                                                     
7PESE                                                                                000000000014000                            
50000210201208012012080259000420245864       PES0000016000M620162012080110140007                                                
6024600016000122185900042024586400000000099                                                                                     
7PESE                                                                                000000000016000                            
50000310201208012012080259001226086042       PES0000016000A620812012080109260048                                                
6024600016000122215900122608604200000000015                                                                                     
7PESE                                                                                000000000016000                            
50000410201208012012080200723421141848       PES0000021000A069512012080117160182                                                
6024600021000122210072342114184800140000079                                                                                     
7PESE                                                                                000000000021000                            
50000510201208012012080200712235103620       PES0000023500A058512012080110350059                                                
6024600023500122210071223510362000055000084                                                                                     
7PESE                                                                                000000000023500                            
50000610201208012012080200712333363303       PES0000023500A064252012080110360017                                                
6024600023500122210071233336330300055000000                                                                                     
7PESE                                                                                000000000023500                            
50000710201208012012080200712430143231       PES0000023500A018312012080109090071                                                
6024600023500122210071243014323100055000063                                                                                     
7PESE                                                                                000000000023500                            
50000810201208012012080200712525230811       PES0000023500A080102012080117110068                                                
6024600023500122210071252523081100055000000                                                                                     
7PESE                                                                                000000000023500                            
50000910201208012012080200712621748781       PES0000023500A017262012080111580033                                                
6024600023500122210071262174878100055000099                                                                                     
7PESE                                                                                000000000023500                            
50001010201208012012080200712623104526       PES0000023500A115412012080117190041                                                
6024600023500122210071262310452600055000090                                                                                     
7PESE                                                                                000000000023500                            
50001110201208012012080200713822519993       PES0000023500A097372012080117400268                                                
6024600023500122210071382251999300055000084                                                                                     
7PESE                                                                                000000000023500                            
50001210201208012012080217030914397431       PES0000025000A082792012080118060018                                                
6024600025000122191703091439743100050000058                                                                                     
7PESE                                                                                000000000025000                            
50001310201208012012080217030914760863       PES0000025000A082792012080118060017                                                
6024600025000122191703091476086300050000078                                                                                     
7PESE                                                                                000000000025000                            
50001410201208012012080217031331609584       PES0000025000A078202012080111250079                                                
6024600025000122211703133160958400050000016                                                                                     
7PESE                                                                                000000000025000                            
50001510201208012012080202390525856384       PES0000030000A076112012080117210013                                                
6024600030000122210239052585638400030000057                                                                                     
7PESE                                                                                000000000030000                            
50001610201208012012080202390814240593       PES0000030000A076112012080117210012                                                
6024600030000122210239081424059300030000000                                                                                     
7PESE                                                                                000000000030000                            
50001710201208012012080299030133104324       PES0000043000A064852012080112140236                                                
6024600043000122209903013310432400035000179                                                                                     
7PESE                                                                                000000000043000                            
50001810201208012012080299030138071739       PES0000043000A100712012080110230047                                                
6024600043000122209903013807173900035000042                                                                                     
7PESE                                                                                000000000043000                            
82012080200000100000180000004525000000000000000000000000000000000000000000018                                                   
9201208020000010000018000000452500000000000000000000000000000000000000000000018                                                 
