120110602PAGO FACIL               090060246FABIAN NORBERTO D´ERAMO                                                              
320110602000001FABIAN NORBERTO D´ERAMO                                                                                          
50000110201106012011060248010929424705       PES0000020000A042282011060119060150                                                
6024600020000111574801092942470500000000084                                                                                     
7PESE                                                                                000000000020000                            
50000210201106012011060248011217111179       PES0000020000A092512011060112180011                                                
6024600020000111574801121711117900000000058                                                                                     
7PESE                                                                                000000000020000                            
50000310201106012011060299040127313266       PES0000023500A101362011060117490242                                                
6024600023500111589904012731326600015000090                                                                                     
7PESE                                                                                000000000023500                            
50000410201106012011060299030132269383       PES0000028000A014732011060119430091                                                
6024600028000111589903013226938300030000142                                                                                     
7PESE                                                                                000000000028000                            
50000510201106012011060299030234722750       PES0000035000A103582011060113240124                                                
6024600035000111589903023472275000035000121                                                                                     
7PESE                                                                                000000000035000                            
50000610201106012011060299030236399286       PES0000035000A028382011060117230220                                                
6024600035000111589903023639928600035000000                                                                                     
7PESE                                                                                000000000035000                            
82011060200000100000060000001615000000000000000000000000000000000000000000006                                                   
9201106020000010000006000000161500000000000000000000000000000000000000000000006                                                 
