120120502PAGO FACIL               090060246FABIAN NORBERTO D´ERAMO                                                              
320120502000001FABIAN NORBERTO D´ERAMO                                                                                          
50000110201204272012050202353531049304       PES0000020000A058512012042610480017                                                
6024600020000121180235353104930400000000058                                                                                     
7PESE                                                                                000000000020000                            
50000210201204272012050202350137896242       PES0000033000A620572012042711200001                                                
6024600033000121180235013789624200000000058                                                                                     
7PESE                                                                                000000000033000                            
50000310201204272012050202351331363888       PES0000020000A055192012042710480093                                                
6024600020000121180235133136388800000000000                                                                                     
7PESE                                                                                000000000020000                            
50000410201204272012050202353917362374       PES0000020000A091792012042717480526                                                
6024600020000121180235391736237400000000015                                                                                     
7PESE                                                                                000000000020000                            
50000510201204272012050202353724150407       PES0000020000A096982012042716230255                                                
6024600020000121180235372415040700000000057                                                                                     
7PESE                                                                                000000000020000                            
50000610201204272012050202350426401820       PES0000033000D001472012042718040144                                                
6024600033000121180235042640182000000000084                                                                                     
7PESE                                                                                000000000033000                            
50000710201204272012050299020136256413       PES0000019000A060602012042718260145                                                
6024600019000121259902013625641300000000063                                                                                     
7PESE                                                                                000000000019000                            
50000810201204272012050202360523995076       PES0000025000M601012012042711360033                                                
6024600025000121200236052399507600050000079                                                                                     
7PESE                                                                                000000000025000                            
50000910201204272012050202350332195650       PES0000033000L120212012042714212613                                                
6024600033000121180235033219565000000000084                                                                                     
7PESE                                                                                000000000033000                            
82012050200000100000090000002230000000000000000000000000000000000000000000009                                                   
9201205020000010000009000000223000000000000000000000000000000000000000000000009                                                 
