120120503PAGO FACIL               090060246FABIAN NORBERTO D´ERAMO                                                              
320120503000001FABIAN NORBERTO D´ERAMO                                                                                          
50000110201205022012050399020129159494       PES0000019000D000972012050210350042                                                
6024600019000121289902012915949400000000163                                                                                     
7PESE                                                                                000000000019000                            
50000210201205022012050399040133989486       PES0000029000A088072012050211500127                                                
6024600029000121289904013398948600015000184                                                                                     
7PESE                                                                                000000000029000                            
50000310201205022012050399030128361121       PES0000037000A043162012050215030023                                                
6024600037000121289903012836112100035000299                                                                                     
7PESE                                                                                000000000037000                            
50000410201205022012050399030236808106       PES0000043000A092052012050209100024                                                
6024600043000121239903023680810600035000084                                                                                     
7PESE                                                                                000000000043000                            
50000510201205022012050399030231624287       PES0000043000A080692012050213540085                                                
6024600043000121289903023162428700035000221                                                                                     
7PESE                                                                                000000000043000                            
50000610201205022012050399030236996669       PES0000043000A044382012050212290196                                                
6024600043000121289903023699666900035000100                                                                                     
7PESE                                                                                000000000043000                            
82012050300000100000060000002140000000000000000000000000000000000000000000006                                                   
9201205030000010000006000000214000000000000000000000000000000000000000000000006                                                 
