120120103PAGO FACIL               090060246FABIAN NORBERTO D´ERAMO                                                              
320120103000001FABIAN NORBERTO D´ERAMO                                                                                          
50000110201201022012010300612620391760       PES0000014000A093342012010212150014                                                
6024600012000113600061262039176000020008858                                                                                     
7PESE                                                                                000000000014000                            
50000210201201022012010300622525144420       PES0000012000A018912012010213400295                                                
6024600012000120040062252514442000020000084                                                                                     
7PESE                                                                                000000000012000                            
50000310201201022012010329060130594089       PES0000013000A037602012010215170028                                                
6024600013000120032906013059408900000000063                                                                                     
7PESE                                                                                000000000013000                            
50000410201201022012010329060133666027       PES0000013000A037602012010215170029                                                
6024600013000120032906013366602700000000063                                                                                     
7PESE                                                                                000000000013000                            
50000510201201022012010329060223799433       PES0000013000A081352012010212000046                                                
6024600013000120032906022379943300000000042                                                                                     
7PESE                                                                                000000000013000                            
50000610201201022012010329060225262505       PES0000013000A058112012010211030119                                                
6024600013000120032906022526250500000000099                                                                                     
7PESE                                                                                000000000013000                            
50000710201201022012010329060226849214       PES0000013000A075022012010216380374                                                
6024600013000120032906022684921400000000079                                                                                     
7PESE                                                                                000000000013000                            
50000810201201022012010300590228060869       PES0000016000A075232012010221360417                                                
6024600016000120040059022806086900020000037                                                                                     
7PESE                                                                                000000000016000                            
50000910201201022012010318360332554625       PES0000020000A093772012010212590140                                                
6024600020000120031836033255462500000000042                                                                                     
7PESE                                                                                000000000020000                            
50001010201201022012010318361334517298       PES0000020000A093772012010212580139                                                
6024600020000120031836133451729800000000058                                                                                     
7PESE                                                                                000000000020000                            
50001110201201022012010318360524827861       PES0000020000A063642012010215450017                                                
6024600020000120051836052482786100000000063                                                                                     
7PESE                                                                                000000000020000                            
50001210201201022012010302320426114644       PES0000025000A092232012010212220196                                                
6024600025000120090232042611464400030000084                                                                                     
7PESE                                                                                000000000025000                            
50001310201201022012010399030235755195       PES0000037000A051312012010211540217                                                
6024600037000120079903023575519500035000258                                                                                     
7PESE                                                                                000000000037000                            
50001410201201022012010323061031709428       PES0000108800A099482012010211560009                                                
6024600108800120092306103170942800128000042                                                                                     
7PESE                                                                                000000000108800                            
50001510201201022012010323061128925421       PES0000121600A086482012010216450024                                                
6024600121600120072306112892542100150000042                                                                                     
7PESE                                                                                000000000121600                            
50001610201201022012010323061840164659       PES0000121600A103882012010218350008                                                
6024600121600120092306184016465900150000090                                                                                     
7PESE                                                                                000000000121600                            
82012010300000100000160000005810000000000000000000000000000000000000000000016                                                   
9201201030000010000016000000581000000000000000000000000000000000000000000000016                                                 
