120120703PAGO FACIL               090060246FABIAN NORBERTO D´ERAMO                                                              
320120703000001FABIAN NORBERTO D´ERAMO                                                                                          
50000110201207022012070359000516715824       PES0000016000A055102012070210590091                                                
6024600016000121855900051671582400000000079                                                                                     
7PESE                                                                                000000000016000                            
50000210201207022012070359000517673761       PES0000016000A060572012070210300083                                                
6024600016000121855900051767376100000000021                                                                                     
7PESE                                                                                000000000016000                            
50000310201207022012070399040133989486       PES0000029000A088072012070212120053                                                
6024600029000121899904013398948600015000279                                                                                     
7PESE                                                                                000000000029000                            
50000410201207022012070359002226892774       PES0000032000L071032012070210536610                                                
6024600032000121885900222689277400000000036                                                                                     
7PESE                                                                                000000000032000                            
50000510201207022012070359002317360565       PES0000032000A055102012070213120214                                                
6024600032000121895900231736056500000000015                                                                                     
7PESE                                                                                000000000032000                            
82012070300000100000050000001250000000000000000000000000000000000000000000005                                                   
9201207030000010000005000000125000000000000000000000000000000000000000000000005                                                 
