120110803PAGO FACIL               090060246FABIAN NORBERTO D´ERAMO                                                              
320110803000001FABIAN NORBERTO D´ERAMO                                                                                          
50000110201108022011080317020622025111       PES0000016000A046102011080118460205                                                
6024600016000112151702062202511100040000016                                                                                     
7PESE                                                                                000000000016000                            
50000210201108022011080300504742681097       PES0000007000A086862011080214560325                                                
6024600007000112200050474268109700015000015                                                                                     
7PESE                                                                                000000000007000                            
50000310201108022011080397000228167382       PES0000010000L120232011080217322720                                                
6024600010000112139700022816738200000000700                                                                                     
7PESE                                                                                000000000010000                            
50000410201108022011080317020523909593       PES0000016000A061232011080218270282                                                
6024600016000112171702052390959300040000000                                                                                     
7PESE                                                                                000000000016000                            
50000510201108022011080317020814973856       PES0000016000W001212011080215121066                                                
6024600016000112171702081497385600040000000                                                                                     
7PESE                                                                                000000000016000                            
50000610201108022011080317021316817236       PES0000016000W001212011080215121067                                                
6024600016000112171702131681723600040000058                                                                                     
7PESE                                                                                000000000016000                            
50000710201108022011080300502427556040       PES0000019500A028602011080218000027                                                
6024600019500112200050242755604000050000021                                                                                     
7PESE                                                                                000000000019500                            
50000810201108022011080300502814287612       PES0000019500A106072011080216560060                                                
6024600019500112200050281428761200050000099                                                                                     
7PESE                                                                                000000000019500                            
50000910201108022011080300501528986275       PES0000019500A096062011080212270202                                                
6024600019500112210050152898627500050000016                                                                                     
7PESE                                                                                000000000019500                            
50001010201108022011080300501625006928       PES0000019500L120272011080216497565                                                
6024600019500112210050162500692800050000084                                                                                     
7PESE                                                                                000000000019500                            
50001110201108022011080300502523594547       PES0000019500D000302011080215020272                                                
6024600019500112210050252359454700050000042                                                                                     
7PESE                                                                                000000000019500                            
50001210201108022011080300502620366649       PES0000019500A045152011080213340318                                                
6024600019500112210050262036664900050000099                                                                                     
7PESE                                                                                000000000019500                            
50001310201108022011080399040136846689       PES0000023500A600472011080210430002                                                
6024600023500112199904013684668900015000199                                                                                     
7PESE                                                                                000000000023500                            
50001410201108022011080399030228361121       PES0000035000A043162011080216040032                                                
6024600035000112199903022836112100035000242                                                                                     
7PESE                                                                                000000000035000                            
82011080300000100000140000002565000000000000000000000000000000000000000000014                                                   
9201108030000010000014000000256500000000000000000000000000000000000000000000014                                                 
