120101203PAGO FACIL               090060246FABIAN NORBERTO D´ERAMO                                                              
320101203000001FABIAN NORBERTO D´ERAMO                                                                                          
50000110201012022010120346021714585030       PES0000010000A043162010120210160024                                                
6024600010000103364602171458503000020000021                                                                                     
7PESE                                                                                000000000010000                            
50000210201012022010120346022622337631       PES0000010000A092112010120214270248                                                
6024600010000103364602262233763100020000063                                                                                     
7PESE                                                                                000000000010000                            
50000310201012022010120346021813807067       PES0000010000A073412010120211330122                                                
6024600010000103374602181380706700020000558                                                                                     
7PESE                                                                                000000000010000                            
50000410201012022010120300431622157307       PES0000013000M600172010120213010098                                                
6024600013000103370043162215730700020000090                                                                                     
7PESE                                                                                000000000013000                            
50000510201012022010120300432618532531       PES0000013000M600732010120214470102                                                
6024600013000103370043261853253100020000063                                                                                     
7PESE                                                                                000000000013000                            
50000610201012022010120300434331583874       PES0000013000A085182010120213100100                                                
6024600013000103400043433158387400020000021                                                                                     
7PESE                                                                                000000000013000                            
50000710201012022010120300432235168462       PES0000013000A079422010120219040094                                                
6024600013000103430043223516846200020000000                                                                                     
7PESE                                                                                000000000013000                            
50000810201012022010120300434233669512       PES0000013000A028202010120210180073                                                
6024600013000103430043423366951200020000021                                                                                     
7PESE                                                                                000000000013000                            
50000910201012022010120318260135944996       PES0000017000N000572010120217470120                                                
6024600017000103361826013594499600000000063                                                                                     
7PESE                                                                                000000000017000                            
50001010201012022010120318260523081145       PES0000017000A091142010120217530464                                                
6024600017000103361826052308114500000000037                                                                                     
7PESE                                                                                000000000017000                            
50001110201012022010120318260714555121       PES0000017000N050152010120215330290                                                
6024600017000103361826071455512100000000000                                                                                     
7PESE                                                                                000000000017000                            
50001210201012022010120318260717163780       PES0000017000A016702010120220070104                                                
6024600017000103361826071716378000000000078                                                                                     
7PESE                                                                                000000000017000                            
50001310201012022010120318262720646825       PES0000017000A092162010120217180203                                                
6024600017000103361826272064682500000000036                                                                                     
7PESE                                                                                000000000017000                            
50001410201012022010120346020233741417       PES0000020000M600532010120218550474                                                
6024600020000103374602023374141700040000663                                                                                     
7PESE                                                                                000000000020000                            
50001510201012022010120346020830653143       PES0000020000A076782010120217040173                                                
6024600020000103374602083065314300040000663                                                                                     
7PESE                                                                                000000000020000                            
50001610201012022010120301240718336564       PES0000027500A098212010120211270106                                                
6024600027500103410124071833656400000000090                                                                                     
7PESE                                                                                000000000027500                            
50001710201012022010120301241526920813       PES0000027500A081062010120212580093                                                
6024600027500103410124152692081300000000090                                                                                     
7PESE                                                                                000000000027500                            
50001810201012022010120399030328151382       PES0000028000A051082010120216220221                                                
6024600028000103419903032815138200030000163                                                                                     
7PESE                                                                                000000000028000                            
50001910201012022010120399030330780255       PES0000028000M600402010120214120186                                                
6024600028000103419903033078025500030000158                                                                                     
7PESE                                                                                000000000028000                            
50002010201012022010120399030332997762       PES0000028000M600672010120211540029                                                
6024600028000103419903033299776200030000242                                                                                     
7PESE                                                                                000000000028000                            
50002110201012022010120301251527207943       PES0000038500A092112010120214190241                                                
6024600038500103370125152720794300000000084                                                                                     
7PESE                                                                                000000000038500                            
50002210201012022010120301251332554625       PES0000038500A054272010120218580148                                                
6024600038500103410125133255462500000000058                                                                                     
7PESE                                                                                000000000038500                            
50002310201012022010120301251429599699       PES0000038500A049022010120220260222                                                
6024600038500103410125142959969900000000042                                                                                     
7PESE                                                                                000000000038500                            
50002410201012022010120301251718065580       PES0000038500A100062010120213030129                                                
6024600038500103410125171806558000000000063                                                                                     
7PESE                                                                                000000000038500                            
82010120300000100000240000005130000000000000000000000000000000000000000000024                                                   
9201012030000010000024000000513000000000000000000000000000000000000000000000024                                                 
