120110704PAGO FACIL               090060246FABIAN NORBERTO D´ERAMO                                                              
320110704000001FABIAN NORBERTO D´ERAMO                                                                                          
50000110201107012011070417020617783419       PES0000016000A072322011070112150064                                                
6024600016000111891702061778341900040000021                                                                                     
7PESE                                                                                000000000016000                            
50000210201107012011070402290813900160       PES0000024500A620812011070112430146                                                
6024600024500111820229081390016000000000084                                                                                     
7PESE                                                                                000000000024500                            
50000310201107012011070417020618107330       PES0000016000A103322011070109390029                                                
6024600016000111821702061810733000040000063                                                                                     
7PESE                                                                                000000000016000                            
50000410201107022011070499030234151454       PES0000035000D000342011070210410035                                                
6024600035000111889903023415145400035000142                                                                                     
7PESE                                                                                000000000035000                            
50000510201107022011070417020426383377       PES0000016000L071152011070220136287                                                
6024600016000111891702042638337700040000000                                                                                     
7PESE                                                                                000000000016000                            
50000610201107022011070417020329287289       PES0000016000L071152011070220136288                                                
6024600016000111891702032928728900040000058                                                                                     
7PESE                                                                                000000000016000                            
82011070400000100000060000001235000000000000000000000000000000000000000000006                                                   
9201107040000010000006000000123500000000000000000000000000000000000000000000006                                                 
