120120504PAGO FACIL               090060246FABIAN NORBERTO D´ERAMO                                                              
320120504000001FABIAN NORBERTO D´ERAMO                                                                                          
50000110201205032012050499030133896263       PES0000037000A091062012050315370472                                                
6024600037000121289903013389626300035000284                                                                                     
7PESE                                                                                000000000037000                            
50000210201205032012050499030134222869       PES0000037000A076812012050313080115                                                
6024600037000121289903013422286900035000379                                                                                     
7PESE                                                                                000000000037000                            
50000310201205032012050499030135755195       PES0000037000A051312012050311370070                                                
6024600037000121289903013575519500035000278                                                                                     
7PESE                                                                                000000000037000                            
50000410201205032012050499030221558279       PES0000043000L120282012050315427147                                                
6024600043000121289903022155827900035000199                                                                                     
7PESE                                                                                000000000043000                            
50000510201205032012050499030236070637       PES0000043000A028072012050315450189                                                
6024600043000121289903023607063700035000384                                                                                     
7PESE                                                                                000000000043000                            
50000610201205032012050499030240497077       PES0000043000A085972012050313180042                                                
6024600043000121289903024049707700035000263                                                                                     
7PESE                                                                                000000000043000                            
82012050400000100000060000002400000000000000000000000000000000000000000000006                                                   
9201205040000010000006000000240000000000000000000000000000000000000000000000006                                                 
