120111104PAGO FACIL               090060246FABIAN NORBERTO D´ERAMO                                                              
320111104000001FABIAN NORBERTO D´ERAMO                                                                                          
50000110201111032011110452001626491009       PES0000009000A095792011110317390224                                                
6024600008000113045200162649100900010007600                                                                                     
7PESE                                                                                000000000009000                            
50000210201111032011110499040218317913       PES0000015000A093092011110311570058                                                
6024600015000113119904021831791300025000342                                                                                     
7PESE                                                                                000000000015000                            
50000310201111032011110446070317992322       PES0000020000A017262011110311050103                                                
6024600020000113084607031799232200060000057                                                                                     
7PESE                                                                                000000000020000                            
50000410201111032011110499040136846689       PES0000023500M600472011110316510096                                                
6024600023500113119904013684668900015000321                                                                                     
7PESE                                                                                000000000023500                            
50000510201111032011110400532337375562       PES0000031000A065952011110318400086                                                
6024600031000113070053233737556200000000037                                                                                     
7PESE                                                                                000000000031000                            
50000610201111032011110400532621957336       PES0000031000M601632011110313110170                                                
6024600031000113070053262195733600000000084                                                                                     
7PESE                                                                                000000000031000                            
50000710201111032011110400534016995525       PES0000031000A043992011110314300088                                                
6024600031000113070053401699552500000000036                                                                                     
7PESE                                                                                000000000031000                            
50000810201111032011110499030216975364       PES0000035000A081572011110311110110                                                
6024600035000113119903021697536400035000263                                                                                     
7PESE                                                                                000000000035000                            
50000910201111032011110499030227340271       PES0000035000A063922011110316510038                                                
6024600035000113119903022734027100035000337                                                                                     
7PESE                                                                                000000000035000                            
50001010201111032011110499030237040715       PES0000035000A042822011110320190121                                                
6024600035000113119903023704071500035000363                                                                                     
7PESE                                                                                000000000035000                            
50001110201111032011110400530138247844       PES0000039500M680132011110309020023                                                
6024600039500113070053013824784400000000078                                                                                     
7PESE                                                                                000000000039500                            
50001210201111032011110400530326626270       PES0000039500A095352011110316370076                                                
6024600039500113070053032662627000000000042                                                                                     
7PESE                                                                                000000000039500                            
50001310201111032011110400530327627501       PES0000039500A101722011110312520123                                                
6024600039500113070053032762750100000000084                                                                                     
7PESE                                                                                000000000039500                            
50001410201111032011110400530425119162       PES0000039500M680132011110309020024                                                
6024600039500113070053042511916200000000021                                                                                     
7PESE                                                                                000000000039500                            
50001510201111032011110400530521338228       PES0000039500M680132011110309030025                                                
6024600039500113070053052133822800000000042                                                                                     
7PESE                                                                                000000000039500                            
50001610201111032011110400530522436248       PES0000039500A097732011110317390370                                                
6024600039500113070053052243624800000000063                                                                                     
7PESE                                                                                000000000039500                            
50001710201111032011110400530617181652       PES0000039500A038092011110320110292                                                
6024600039500113070053061718165200000000036                                                                                     
7PESE                                                                                000000000039500                            
82011110400000100000170000005420000000000000000000000000000000000000000000017                                                   
9201111040000010000017000000542000000000000000000000000000000000000000000000017                                                 
