120120104PAGO FACIL               090060246FABIAN NORBERTO D´ERAMO                                                              
320120104000001FABIAN NORBERTO D´ERAMO                                                                                          
50000110201201032012010423061840356376       PES0000121600L120022011122912005708                                                
6024600121600120052306184035637600150000015                                                                                     
7PESE                                                                                000000000121600                            
50000210201201032012010429060317375704       PES0000013000L120212012010216087199                                                
6024600013000120022906031737570400000000037                                                                                     
7PESE                                                                                000000000013000                            
50000310201201032012010429060316760907       PES0000013000A107512012010215240028                                                
6024600013000120032906031676090700000000063                                                                                     
7PESE                                                                                000000000013000                            
50000410201201032012010453000518057046       PES0000011000A009132012010310130084                                                
6024600011000120045300051805704600000000021                                                                                     
7PESE                                                                                000000000011000                            
50000510201201032012010400623008529149       PES0000012000A001552012010312270173                                                
6024600012000120030062300852914900020000000                                                                                     
7PESE                                                                                000000000012000                            
50000610201201032012010400622813751268       PES0000012000A055792012010321440031                                                
6024600012000120100062281375126800020000078                                                                                     
7PESE                                                                                000000000012000                            
50000710201201032012010429060130267203       PES0000013000A092672012010311580035                                                
6024600013000120032906013026720300000000063                                                                                     
7PESE                                                                                000000000013000                            
50000810201201032012010429060131616750       PES0000013000A037752012010320590441                                                
6024600013000120032906013161675000000000037                                                                                     
7PESE                                                                                000000000013000                            
50000910201201032012010429060137608307       PES0000013000A079752012010318010231                                                
6024600013000120032906013760830700000000078                                                                                     
7PESE                                                                                000000000013000                            
50001010201201032012010429060222533526       PES0000013000A008222012010316280193                                                
6024600013000120032906022253352600000000016                                                                                     
7PESE                                                                                000000000013000                            
50001110201201032012010429060223903794       PES0000013000A024232012010310310017                                                
6024600013000120032906022390379400000000099                                                                                     
7PESE                                                                                000000000013000                            
50001210201201032012010429060224371170       PES0000013000A080522012010319090133                                                
6024600013000120032906022437117000000000057                                                                                     
7PESE                                                                                000000000013000                            
50001310201201032012010429060224914383       PES0000013000M620092012010315580211                                                
6024600013000120032906022491438300000000079                                                                                     
7PESE                                                                                000000000013000                            
50001410201201032012010429060224999568       PES0000013000A092672012010311580036                                                
6024600013000120032906022499956800000000037                                                                                     
7PESE                                                                                000000000013000                            
50001510201201032012010429060227228614       PES0000013000A092672012010311580037                                                
6024600013000120032906022722861400000000021                                                                                     
7PESE                                                                                000000000013000                            
50001610201201032012010429060228648801       PES0000013000A093702012010319440092                                                
6024600013000120032906022864880100000000084                                                                                     
7PESE                                                                                000000000013000                            
50001710201201032012010429060228776857       PES0000013000A044382012010315340262                                                
6024600013000120032906022877685700000000021                                                                                     
7PESE                                                                                000000000013000                            
50001810201201032012010429060316025751       PES0000013000A621032012010308340006                                                
6024600013000120032906031602575100000000063                                                                                     
7PESE                                                                                000000000013000                            
50001910201201032012010429060316184859       PES0000013000M620732012010312430158                                                
6024600013000120032906031618485900000000042                                                                                     
7PESE                                                                                000000000013000                            
50002010201201032012010429060316208453       PES0000013000M620902012010310260056                                                
6024600013000120032906031620845300000000063                                                                                     
7PESE                                                                                000000000013000                            
50002110201201032012010429060316590398       PES0000013000A085582012010316160230                                                
6024600013000120032906031659039800000000090                                                                                     
7PESE                                                                                000000000013000                            
50002210201201032012010429060317918719       PES0000013000A108952012010320220127                                                
6024600013000120032906031791871900000000063                                                                                     
7PESE                                                                                000000000013000                            
50002310201201032012010429060318488437       PES0000013000A101212012010312430071                                                
6024600013000120032906031848843700000000058                                                                                     
7PESE                                                                                000000000013000                            
50002410201201032012010429060320047260       PES0000013000M620732012010314370174                                                
6024600013000120032906032004726000000000016                                                                                     
7PESE                                                                                000000000013000                            
50002510201201032012010429060320519052       PES0000013000A075232012010318310238                                                
6024600013000120032906032051905200000000036                                                                                     
7PESE                                                                                000000000013000                            
50002610201201032012010429060322229076       PES0000013000A109842012010313030318                                                
6024600013000120032906032222907600000000036                                                                                     
7PESE                                                                                000000000013000                            
50002710201201032012010429060322471524       PES0000013000M601572012010311550049                                                
6024600013000120032906032247152400000000000                                                                                     
7PESE                                                                                000000000013000                            
50002810201201032012010429060410113940       PES0000013000A093702012010311250309                                                
6024600013000120032906041011394000000000099                                                                                     
7PESE                                                                                000000000013000                            
50002910201201032012010429060411938045       PES0000013000D001502012010313410175                                                
6024600013000120032906041193804500000000000                                                                                     
7PESE                                                                                000000000013000                            
50003010201201032012010429060412609144       PES0000013000A051302012010312050200                                                
6024600013000120032906041260914400000000084                                                                                     
7PESE                                                                                000000000013000                            
50003110201201032012010429060413887296       PES0000013000A080522012010314150024                                                
6024600013000120032906041388729600000000058                                                                                     
7PESE                                                                                000000000013000                            
50003210201201032012010429060414156395       PES0000013000A091652012010313030281                                                
6024600013000120032906041415639500000000000                                                                                     
7PESE                                                                                000000000013000                            
50003310201201032012010429060630924558       PES0000013000L020012012010315221014                                                
6024600013000120032906063092455800000000021                                                                                     
7PESE                                                                                000000000013000                            
50003410201201032012010429060631710012       PES0000013000M620902012010310480085                                                
6024600013000120032906063171001200000000042                                                                                     
7PESE                                                                                000000000013000                            
50003510201201032012010429060632236446       PES0000013000A091052012010316560191                                                
6024600013000120032906063223644600000000090                                                                                     
7PESE                                                                                000000000013000                            
50003610201201032012010429060632831768       PES0000013000A028172012010315110109                                                
6024600013000120032906063283176800000000021                                                                                     
7PESE                                                                                000000000013000                            
50003710201201032012010429060634778047       PES0000013000M620902012010310290060                                                
6024600013000120032906063477804700000000079                                                                                     
7PESE                                                                                000000000013000                            
50003810201201032012010429060703908612       PES0000013000A024232012010318450120                                                
6024600013000120032906070390861200000000000                                                                                     
7PESE                                                                                000000000013000                            
50003910201201032012010429060722922721       PES0000013000M601572012010311540048                                                
6024600013000120032906072292272100000000000                                                                                     
7PESE                                                                                000000000013000                            
50004010201201032012010429060724529319       PES0000013000L020012012010315211013                                                
6024600013000120032906072452931900000000084                                                                                     
7PESE                                                                                000000000013000                            
50004110201201032012010429060725358305       PES0000013000A028172012010315120110                                                
6024600013000120032906072535830500000000021                                                                                     
7PESE                                                                                000000000013000                            
50004210201201032012010429060725441385       PES0000013000A107772012010317520015                                                
6024600013000120032906072544138500000000099                                                                                     
7PESE                                                                                000000000013000                            
50004310201201032012010429060726053207       PES0000013000A109992012010318280202                                                
6024600013000120032906072605320700000000058                                                                                     
7PESE                                                                                000000000013000                            
50004410201201032012010429060816193883       PES0000013000M620902012010310270058                                                
6024600013000120032906081619388300000000057                                                                                     
7PESE                                                                                000000000013000                            
50004510201201032012010429060817477311       PES0000013000A085582012010316160231                                                
6024600013000120032906081747731100000000057                                                                                     
7PESE                                                                                000000000013000                            
50004610201201032012010429060817684077       PES0000013000A070602012010319110305                                                
6024600013000120032906081768407700000000000                                                                                     
7PESE                                                                                000000000013000                            
50004710201201032012010429060820806552       PES0000013000A089832012010318090154                                                
6024600013000120032906082080655200000000090                                                                                     
7PESE                                                                                000000000013000                            
50004810201201032012010429060822078732       PES0000013000A103862012010317060142                                                
6024600013000120032906082207873200000000078                                                                                     
7PESE                                                                                000000000013000                            
50004910201201032012010429060822323782       PES0000013000A008222012010316280192                                                
6024600013000120032906082232378200000000099                                                                                     
7PESE                                                                                000000000013000                            
50005010201201032012010400611238894660       PES0000014000A039972012010316100006                                                
6024600014000120030061123889466000000000090                                                                                     
7PESE                                                                                000000000014000                            
50005110201201032012010400612523473190       PES0000014000A109832012010314310164                                                
6024600014000120030061252347319000000000000                                                                                     
7PESE                                                                                000000000014000                            
50005210201201032012010400612718148089       PES0000014000D000282012010315310431                                                
6024600014000120040061271814808900000000000                                                                                     
7PESE                                                                                000000000014000                            
50005310201201032012010400612716977641       PES0000014000A072902012010316270041                                                
6024600014000120050061271697764100000000036                                                                                     
7PESE                                                                                000000000014000                            
50005410201201032012010400590135203934       PES0000016000A109842012010311060166                                                
6024600016000120040059013520393400020000078                                                                                     
7PESE                                                                                000000000016000                            
50005510201201032012010400590227859022       PES0000016000A101582012010312020097                                                
6024600016000120050059022785902200020000521                                                                                     
7PESE                                                                                000000000016000                            
50005610201201032012010400590426318083       PES0000016000A101582012010312010096                                                
6024600016000120050059042631808300020000537                                                                                     
7PESE                                                                                000000000016000                            
50005710201201032012010499030235775683       PES0000018500A097042012010309020001                                                
6024600018500120079903023577568300017500099                                                                                     
7PESE                                                                                000000000018500                            
50005810201201032012010400600616918262       PES0000019000A620302012010311420072                                                
6024600019000120050060061691826200060000063                                                                                     
7PESE                                                                                000000000019000                            
50005910201201032012010418360138045988       PES0000020000A062272012010317520017                                                
6024600020000120051836013804598800000000099                                                                                     
7PESE                                                                                000000000020000                            
50006010201201032012010418360232537882       PES0000020000A107712012010317040047                                                
6024600020000120051836023253788200000000078                                                                                     
7PESE                                                                                000000000020000                            
50006110201201032012010418360330120709       PES0000020000D000572012010312200093                                                
6024600020000120051836033012070900000000084                                                                                     
7PESE                                                                                000000000020000                            
50006210201201032012010418360524424705       PES0000020000A104982012010316160183                                                
6024600020000120051836052442470500000000063                                                                                     
7PESE                                                                                000000000020000                            
50006310201201032012010418360525248455       PES0000020000A068902012010315580157                                                
6024600020000120051836052524845500000000015                                                                                     
7PESE                                                                                000000000020000                            
50006410201201032012010418360620702367       PES0000020000A105252012010319530325                                                
6024600020000120051836062070236700000000090                                                                                     
7PESE                                                                                000000000020000                            
50006510201201032012010418361527416187       PES0000020000M620092012010311140098                                                
6024600020000120051836152741618700000000063                                                                                     
7PESE                                                                                000000000020000                            
50006610201201032012010418361722501146       PES0000020000A022842012010315230065                                                
6024600020000120051836172250114600000000016                                                                                     
7PESE                                                                                000000000020000                            
50006710201201032012010418362431164215       PES0000020000A097652012010311580037                                                
6024600020000120051836243116421500000000016                                                                                     
7PESE                                                                                000000000020000                            
50006810201201032012010418363216379521       PES0000020000A022842012010315230066                                                
6024600020000120051836321637952100000000016                                                                                     
7PESE                                                                                000000000020000                            
50006910201201032012010402320523995076       PES0000025000A049632012010312040181                                                
6024600025000120070232052399507600030000063                                                                                     
7PESE                                                                                000000000025000                            
50007010201201032012010499030230289341       PES0000037000A082952012010318320228                                                
6024600037000120079903023028934100035000284                                                                                     
7PESE                                                                                000000000037000                            
50007110201201032012010423061329196304       PES0000121600A033952012010310170097                                                
6024600121600120032306132919630400150000042                                                                                     
7PESE                                                                                000000000121600                            
50007210201201032012010423061324536899       PES0000121600M620752012010309420023                                                
6024600121600120042306132453689900150000063                                                                                     
7PESE                                                                                000000000121600                            
50007310201201032012010423061234304080       PES0000121600A077352012010311250003                                                
6024600121600120102306123430408000150000057                                                                                     
7PESE                                                                                000000000121600                            
82012010400000100000730000015099000000000000000000000000000000000000000000073                                                   
9201201040000010000073000001509900000000000000000000000000000000000000000000073                                                 
