120120305PAGO FACIL               090060246FABIAN NORBERTO D´ERAMO                                                              
320120305000001FABIAN NORBERTO D´ERAMO                                                                                          
50000110201203022012030502330233118797       PES0000025000A044382012030209190005                                                
6024600025000120660233023311879700030000099                                                                                     
7PESE                                                                                000000000025000                            
50000210201203022012030502330426927364       PES0000025000A033052012030211510198                                                
6024600025000120670233042692736400030000090                                                                                     
7PESE                                                                                000000000025000                            
50000310201203022012030500684425430045       PES0000023000A035412012030212170283                                                
6024600023000120680068442543004500000000037                                                                                     
7PESE                                                                                000000000023000                            
50000410201203022012030553011439161591       PES0000006000A620682012030210540054                                                
6024600006000120635301143916159100015000037                                                                                     
7PESE                                                                                000000000006000                            
50000510201203022012030599030231075840       PES0000037000A028582012030209270020                                                
6024600037000120679903023107584000035000115                                                                                     
7PESE                                                                                000000000037000                            
50000610201203022012030546081525144420       PES0000014000A018912012030214540297                                                
6024600014000120624608152514442000020000663                                                                                     
7PESE                                                                                000000000014000                            
50000710201203022012030502331007620834       PES0000025000A085602012030212590111                                                
6024600025000120660233100762083400030000036                                                                                     
7PESE                                                                                000000000025000                            
50000810201203022012030553010524435801       PES0000006000D000102012030217170369                                                
6024600006000120685301052443580100015000021                                                                                     
7PESE                                                                                000000000006000                            
50000910201203022012030500682911293360       PES0000023000A091652012030215300352                                                
6024600023000120680068291129336000000000084                                                                                     
7PESE                                                                                000000000023000                            
50001010201203022012030546080704646598       PES0000026000A017262012030217320266                                                
6024600026000120624608070464659800040000784                                                                                     
7PESE                                                                                000000000026000                            
50001110201203022012030500694514051282       PES0000020000A044382012030217030318                                                
6024600020000120650069451405128200020000000                                                                                     
7PESE                                                                                000000000020000                            
50001210201203022012030546080227739235       PES0000026000A088692012030210440032                                                
6024600026000120624608022773923500040000763                                                                                     
7PESE                                                                                000000000026000                            
50001310201203022012030546082334928669       PES0000014000A017262012030218550020                                                
6024600014000120624608233492866900020000737                                                                                     
7PESE                                                                                000000000014000                            
50001410201203022012030599030234750212       PES0000037000A016682012030211250050                                                
6024600037000120679903023475021200035000290                                                                                     
7PESE                                                                                000000000037000                            
50001510201203022012030546080233410547       PES0000026000A057152012030218410100                                                
6024600026000120624608023341054700040000363                                                                                     
7PESE                                                                                000000000026000                            
50001610201203022012030502330428686874       PES0000025000A073132012030211190034                                                
6024600025000120670233042868687400030000090                                                                                     
7PESE                                                                                000000000025000                            
50001710201203022012030502330813824861       PES0000025000A073132012030219110110                                                
6024600025000120630233081382486100030000079                                                                                     
7PESE                                                                                000000000025000                            
50001810201203022012030553010318191821       PES0000006000B030932012030217316248                                                
6024600006000120685301031819182100015000015                                                                                     
7PESE                                                                                000000000006000                            
50001910201203032012030500684422032441       PES0000023000A071862012030311260045                                                
6024600023000120680068442203244100000000099                                                                                     
7PESE                                                                                000000000023000                            
50002010201203032012030500681332674311       PES0000023000A086812012030312350094                                                
6024600023000120680068133267431100000000021                                                                                     
7PESE                                                                                000000000023000                            
50002110201203032012030500683914011599       PES0000023000A086812012030312350095                                                
6024600023000120680068391401159900000000099                                                                                     
7PESE                                                                                000000000023000                            
50002210201203032012030500682911802118       PES0000023000A086812012030312350096                                                
6024600023000120680068291180211800000000042                                                                                     
7PESE                                                                                000000000023000                            
50002310201203042012030553010225878072       PES0000006000A094892012030411520045                                                
6024600006000120685301022587807200015000336                                                                                     
7PESE                                                                                000000000006000                            
50002410201203042012030500692813751268       PES0000008000A016362012030411450071                                                
6024600008000120670069281375126800008000042                                                                                     
7PESE                                                                                000000000008000                            
50002510201203042012030599030237040715       PES0000037000D001472012030421050333                                                
6024600037000120679903023704071500035000200                                                                                     
7PESE                                                                                000000000037000                            
82012030500000100000250000005320000000000000000000000000000000000000000000025                                                   
9201203050000010000025000000532000000000000000000000000000000000000000000000025                                                 
