120111205PAGO FACIL               090060246FABIAN NORBERTO D´ERAMO                                                              
320111205000001FABIAN NORBERTO D´ERAMO                                                                                          
50000110201112022011120599030234229591       PES0000035000A085372011120210120047                                                
6024600035000113419903023422959100035000221                                                                                     
7PESE                                                                                000000000035000                            
50000210201112022011120599030237040715       PES0000035000A042822011120211100060                                                
6024600035000113419903023704071500035000236                                                                                     
7PESE                                                                                000000000035000                            
50000310201112022011120500582714876045       PES0000025000A085592011120210170076                                                
6024600025000113420058271487604500000000042                                                                                     
7PESE                                                                                000000000025000                            
50000410201112022011120501301623669037       PES0000040000A108442011120214500054                                                
6024600040000113400130162366903700000000036                                                                                     
7PESE                                                                                000000000040000                            
50000510201112022011120599030235398990       PES0000035000A090542011120213230128                                                
6024600035000113419903023539899000035000279                                                                                     
7PESE                                                                                000000000035000                            
50000610201112022011120518350233367963       PES0000020000A062492011120217170023                                                
6024600020000113411835023336796300000000079                                                                                     
7PESE                                                                                000000000020000                            
50000710201112022011120599030226735116       PES0000035000A048292011120217200016                                                
6024600035000113419903022673511600035000263                                                                                     
7PESE                                                                                000000000035000                            
50000810201112022011120500582813687935       PES0000025000A106052011120216580209                                                
6024600022500113340058281368793500025007784                                                                                     
7PESE                                                                                000000000025000                            
50000910201112022011120518352430460535       PES0000020000A111412011120217160019                                                
6024600020000113411835243046053500000000016                                                                                     
7PESE                                                                                000000000020000                            
50001010201112022011120518350331271700       PES0000020000A066582011120217570043                                                
6024600020000113411835033127170000000000058                                                                                     
7PESE                                                                                000000000020000                            
50001110201112022011120518350329492142       PES0000020000A066582011120217570044                                                
6024600020000113411835032949214200000000037                                                                                     
7PESE                                                                                000000000020000                            
50001210201112022011120518352624901906       PES0000020000A046092011120217380141                                                
6024600020000113411835262490190600000000036                                                                                     
7PESE                                                                                000000000020000                            
50001310201112022011120546071337039322       PES0000014000A065092011120217040065                                                
6024600014000113414607133703932200000000016                                                                                     
7PESE                                                                                000000000014000                            
50001410201112022011120523061926165226       PES0000085400A097692011120215170006                                                
6024600085400113422306192616522600234000084                                                                                     
7PESE                                                                                000000000085400                            
50001510201112022011120500581526534726       PES0000025000A038942011120215420019                                                
6024600025000113420058152653472600000000000                                                                                     
7PESE                                                                                000000000025000                            
50001610201112022011120599030293925151       PES0000035000L020222011120214160380                                                
6024600035000113419903029392515100035000215                                                                                     
7PESE                                                                                000000000035000                            
50001710201112022011120518350329741620       PES0000020000M620132011120210590056                                                
6024600020000113401835032974162000000000021                                                                                     
7PESE                                                                                000000000020000                            
50001810201112022011120599040136846689       PES0000023500M600112011120212520107                                                
6024600023500113419904013684668900025000221                                                                                     
7PESE                                                                                000000000023500                            
50001910201112032011120599030216975364       PES0000035000A091592011120310240092                                                
6024600035000113419903021697536400035000278                                                                                     
7PESE                                                                                000000000035000                            
50002010201112032011120523061028102634       PES0000076800A101062011120310560102                                                
6024600076800113422306102810263400192000078                                                                                     
7PESE                                                                                000000000076800                            
50002110201112032011120500584743870886       PES0000008500A090762011120311550301                                                
6024600008500113420058474387088600000000015                                                                                     
7PESE                                                                                000000000008500                            
50002210201112032011120523060836790342       PES0000076800A015292011120312570183                                                
6024600076800113442306083679034200192000063                                                                                     
7PESE                                                                                000000000076800                            
50002310201112032011120523061331636691       PES0000085400M810002011120309380061                                                
6024600085400113432306133163669100234000084                                                                                     
7PESE                                                                                000000000085400                            
82011120500000100000230000008154000000000000000000000000000000000000000000023                                                   
9201112050000010000023000000815400000000000000000000000000000000000000000000023                                                 
