120130205PAGO FACIL               090060246FABIAN NORBERTO D´ERAMO                                                              
320130205000001FABIAN NORBERTO D´ERAMO                                                                                          
50000110201302042013020588880000000094       PES0000001500M640382013020410260014                                                
6024600001500130368888000000009400000000021                                                                                     
7PESE                                                                                000000000001500                            
50000210201302042013020573010635580863       PES0000012000A100812013020416480286                                                
6024600010000130287301063558086300020007637                                                                                     
7PESE                                                                                000000000012000                            
50000310201302042013020573011325723004       PES0000010000A113632013020417160093                                                
6024600010000130357301132572300400020000458                                                                                     
7PESE                                                                                000000000010000                            
50000410201302042013020573011329922239       PES0000010000A113632013020420200235                                                
6024600010000130357301132992223900020000499                                                                                     
7PESE                                                                                000000000010000                            
50000510201302042013020573011330738810       PES0000010000A061692013020420160122                                                
6024600010000130357301133073881000020000442                                                                                     
7PESE                                                                                000000000010000                            
50000610201302042013020573011418402422       PES0000010000A113632013020417160092                                                
6024600010000130357301141840242200020000415                                                                                     
7PESE                                                                                000000000010000                            
50000710201302042013020573011424270610       PES0000010000A113632013020417160095                                                
6024600010000130357301142427061000020000463                                                                                     
7PESE                                                                                000000000010000                            
50000810201302042013020573011428407523       PES0000010000A096832013020419560030                                                
6024600010000130357301142840752300020000499                                                                                     
7PESE                                                                                000000000010000                            
50000910201302042013020573011428850010       PES0000010000A113632013020417160094                                                
6024600010000130357301142885001000020000416                                                                                     
7PESE                                                                                000000000010000                            
50001010201302042013020573010231405280       PES0000012000A113632013020420200237                                                
6024600012000130357301023140528000020000315                                                                                     
7PESE                                                                                000000000012000                            
50001110201302042013020573010322233038       PES0000012000M660032013020411380288                                                
6024600012000130357301032223303800020000499                                                                                     
7PESE                                                                                000000000012000                            
50001210201302042013020573010631843777       PES0000012000A113632013020417160096                                                
6024600012000130357301063184377700020000421                                                                                     
7PESE                                                                                000000000012000                            
50001310201302042013020573010632280928       PES0000012000A113632013020414530034                                                
6024600012000130357301063228092800020000415                                                                                     
7PESE                                                                                000000000012000                            
50001410201302042013020573010636860480       PES0000012000A113632013020412190091                                                
6024600012000130357301063686048000020000490                                                                                     
7PESE                                                                                000000000012000                            
50001510201302042013020573010726672645       PES0000012000A081512013020418330200                                                
6024600012000130357301072667264500020000237                                                                                     
7PESE                                                                                000000000012000                            
50001610201302042013020573010728178251       PES0000012000A113632013020420200236                                                
6024600012000130357301072817825100020000336                                                                                     
7PESE                                                                                000000000012000                            
50001710201302042013020573010922889070       PES0000012000A118492013020410290027                                                
6024600012000130357301092288907000020000399                                                                                     
7PESE                                                                                000000000012000                            
50001810201302042013020573011016650681       PES0000012000M660032013020411380289                                                
6024600012000130357301101665068100020000457                                                                                     
7PESE                                                                                000000000012000                            
50001910201302042013020573011208250280       PES0000012000A111592013020409370050                                                
6024600012000130357301120825028000020000499                                                                                     
7PESE                                                                                000000000012000                            
50002010201302042013020529090226891120       PES0000015000A093012013020414100369                                                
6024600015000130352909022689112000000000021                                                                                     
7PESE                                                                                000000000015000                            
50002110201302042013020529090631877711       PES0000015000A093012013020414100370                                                
6024600015000130352909063187771100000000079                                                                                     
7PESE                                                                                000000000015000                            
50002210201302042013020529090322290304       PES0000015000A117722013020413010146                                                
6024600015000130362909032229030400000000057                                                                                     
7PESE                                                                                000000000015000                            
50002310201302042013020529090322818633       PES0000015000A117722013020413010145                                                
6024600015000130362909032281863300000000079                                                                                     
7PESE                                                                                000000000015000                            
50002410201302042013020529090131752233       PES0000015000A008222013020412220071                                                
6024600015000130382909013175223300000000000                                                                                     
7PESE                                                                                000000000015000                            
50002510201302042013020529090316325865       PES0000015000A097442013020412400067                                                
6024600015000130382909031632586500000000042                                                                                     
7PESE                                                                                000000000015000                            
50002610201302042013020529090724587178       PES0000015000A008222013020412220072                                                
6024600015000130382909072458717800000000015                                                                                     
7PESE                                                                                000000000015000                            
50002710201302042013020529090817083459       PES0000015000A115342013020412190186                                                
6024600015000130382909081708345900000000057                                                                                     
7PESE                                                                                000000000015000                            
50002810201302042013020500784040796866       PES0000022500A112752013020415090140                                                
6024600019500130310078404079686600030007563                                                                                     
7PESE                                                                                000000000022500                            
50002910201302042013020502432435874888       PES0000030000M640432013020410210112                                                
6024600030000130360243243587488800050000178                                                                                     
7PESE                                                                                000000000030000                            
50003010201302042013020502432527000113       PES0000030000D000502013020413350315                                                
6024600030000130360243252700011300050000178                                                                                     
7PESE                                                                                000000000030000                            
50003110201302042013020502432714518436       PES0000030000M600392013020414110192                                                
6024600030000130360243271451843600050000037                                                                                     
7PESE                                                                                000000000030000                            
50003210201302042013020502430425578594       PES0000040000L071192013020416152023                                                
6024600040000130350243042557859400075000063                                                                                     
7PESE                                                                                000000000040000                            
50003310201302042013020502433725248843       PES0000040000A088382013020418090013                                                
6024600040000130350243372524884300075000090                                                                                     
7PESE                                                                                000000000040000                            
50003410201302042013020502430137597042       PES0000040000A002372013020416160108                                                
6024600040000130360243013759704200075000299                                                                                     
7PESE                                                                                000000000040000                            
50003510201302042013020502430326909751       PES0000040000A107512013020415240226                                                
6024600040000130360243032690975100075000615                                                                                     
7PESE                                                                                000000000040000                            
50003610201302042013020502430617504696       PES0000040000A085192013020411030060                                                
6024600040000130360243061750469600075000600                                                                                     
7PESE                                                                                000000000040000                            
50003710201302042013020502430617684750       PES0000040000A110612013020417080211                                                
6024600040000130360243061768475000075000179                                                                                     
7PESE                                                                                000000000040000                            
50003810201302042013020502430811154803       PES0000040000A111852013020415480067                                                
6024600040000130360243081115480300075000284                                                                                     
7PESE                                                                                000000000040000                            
50003910201302042013020502430813169697       PES0000040000A085192013020411030059                                                
6024600040000130360243081316969700075000057                                                                                     
7PESE                                                                                000000000040000                            
50004010201302042013020502431618057211       PES0000040000A090002013020417050086                                                
6024600040000130360243161805721100075000699                                                                                     
7PESE                                                                                000000000040000                            
50004110201302042013020502433630575088       PES0000040000A040542013020413060083                                                
6024600040000130360243363057508800075000100                                                                                     
7PESE                                                                                000000000040000                            
50004210201302042013020599030136808106       PES0000047500D001692013020410270107                                                
6024600047500130369903013680810600035000079                                                                                     
7PESE                                                                                000000000047500                            
50004310201302042013020599030126562585       PES0000047500A022842013020412140065                                                
6024600047500130389903012656258500035000442                                                                                     
7PESE                                                                                000000000047500                            
50004410201302042013020599030131773438       PES0000047500A121202013020411270145                                                
6024600047500130389903013177343800035000363                                                                                     
7PESE                                                                                000000000047500                            
50004510201302042013020599030133036717       PES0000047500A036692013020412120096                                                
6024600047500130389903013303671700035000290                                                                                     
7PESE                                                                                000000000047500                            
50004610201302042013020599030136359657       PES0000047500A081582013020411170146                                                
6024600047500130389903013635965700035000242                                                                                     
7PESE                                                                                000000000047500                            
50004710201302042013020599030136806018       PES0000047500A100912013020411380129                                                
6024600047500130389903013680601800035000157                                                                                     
7PESE                                                                                000000000047500                            
50004810201302042013020599030138071739       PES0000047500A100712013020414450061                                                
6024600047500130389903013807173900035000363                                                                                     
7PESE                                                                                000000000047500                            
50004910201302042013020501341328283827       PES0000135000D000882013020417340639                                                
6024600135000130350134132828382700150000084                                                                                     
7PESE                                                                                000000000135000                            
50005010201302042013020501341328361448       PES0000135000A120732013020412450027                                                
6024600135000130350134132836144800150000058                                                                                     
7PESE                                                                                000000000135000                            
50005110201302042013020501341423781013       PES0000135000A036182013020418450272                                                
6024600135000130350134142378101300150000016                                                                                     
7PESE                                                                                000000000135000                            
50005210201302042013020501341424099508       PES0000135000A108702013020415560147                                                
6024600135000130350134142409950800150000090                                                                                     
7PESE                                                                                000000000135000                            
50005310201302042013020501341523330696       PES0000135000A046692013020411000143                                                
6024600135000130360134152333069600150000036                                                                                     
7PESE                                                                                000000000135000                            
50005410201302042013020501341616602152       PES0000135000A105142013020411540152                                                
6024600135000130360134161660215200150000015                                                                                     
7PESE                                                                                000000000135000                            
50005510201302042013020501341617723563       PES0000135000M740022013020410280044                                                
6024600135000130360134161772356300150000079                                                                                     
7PESE                                                                                000000000135000                            
50005610201302042013020501341326185150       PES0000135000A024232013020413420153                                                
6024600135000130400134132618515000150000016                                                                                     
7PESE                                                                                000000000135000                            
50005710201302042013020501341424901906       PES0000135000D001432013020412400140                                                
6024600135000130410134142490190600150000142                                                                                     
7PESE                                                                                000000000135000                            
50005810201302042013020501341426311658       PES0000135000A085552013020411360142                                                
6024600135000130410134142631165800150000021                                                                                     
7PESE                                                                                000000000135000                            
50005910201302042013020501341520066830       PES0000135000L070142013020416572287                                                
6024600135000130410134152006683000150000136                                                                                     
7PESE                                                                                000000000135000                            
50006010201302042013020501341713963055       PES0000135000A108012013020411280044                                                
6024600135000130410134171396305500150000078                                                                                     
7PESE                                                                                000000000135000                            
82013020500000100000600000027885000000000000000000000000000000000000000000060                                                   
9201302050000010000060000002788500000000000000000000000000000000000000000000060                                                 
