120121105PAGO FACIL               090060246FABIAN NORBERTO D´ERAMO                                                              
320121105000001FABIAN NORBERTO D´ERAMO                                                                                          
50000110201211022012110565000610868562       PES0000013000A090922012110117120116                                                
6024600013000123076500061086856200000000099                                                                                     
7PESE                                                                                000000000013000                            
50000210201211022012110565000216915388       PES0000013000A038942012110118420050                                                
6024600013000123076500021691538800000000037                                                                                     
7PESE                                                                                000000000013000                            
50000310201211022012110501331713236329       PES0000052000A096062012110210420100                                                
6024600052000123080133171323632900080000042                                                                                     
7PESE                                                                                000000000052000                            
50000410201211022012110565000312789305       PES0000013000A085512012110209120014                                                
6024600013000123096500031278930500000000236                                                                                     
7PESE                                                                                000000000013000                            
50000510201211022012110501331522500015       PES0000052000A097712012110209210060                                                
6024600052000123140133152250001500080000057                                                                                     
7PESE                                                                                000000000052000                            
50000610201211022012110565000222229625       PES0000013000A109822012110214210126                                                
6024600013000123076500022222962500000000021                                                                                     
7PESE                                                                                000000000013000                            
50000710201211022012110599030133104324       PES0000043000A064852012110213290034                                                
6024600043000123129903013310432400035000158                                                                                     
7PESE                                                                                000000000043000                            
50000810201211022012110565000130963726       PES0000013000A036192012110212040217                                                
6024600013000123076500013096372600000000000                                                                                     
7PESE                                                                                000000000013000                            
50000910201211022012110565000130105567       PES0000013000A036192012110212040218                                                
6024600013000123076500013010556700000000000                                                                                     
7PESE                                                                                000000000013000                            
50001010201211022012110501331425095179       PES0000052000A620992012110214230008                                                
6024600052000123130133142509517900080000079                                                                                     
7PESE                                                                                000000000052000                            
50001110201211022012110500751721486027       PES0000024500A601292012110211510058                                                
6024600024500123130075172148602700000000037                                                                                     
7PESE                                                                                000000000024500                            
50001210201211022012110500751722278682       PES0000024500A601292012110211510059                                                
6024600024500123130075172227868200000000036                                                                                     
7PESE                                                                                000000000024500                            
50001310201211022012110565000517998792       PES0000013000A048412012110214100009                                                
6024600013000123076500051799879200000000000                                                                                     
7PESE                                                                                000000000013000                            
50001410201211022012110565000521668709       PES0000013000A048412012110214110010                                                
6024600013000123076500052166870900000000099                                                                                     
7PESE                                                                                000000000013000                            
50001510201211022012110501331618361744       PES0000052000A063902012110215140085                                                
6024600052000123100133161836174400080000021                                                                                     
7PESE                                                                                000000000052000                            
50001610201211022012110518411528037626       PES0000020000A091772012110211480181                                                
6024600020000123071841152803762600050000657                                                                                     
7PESE                                                                                000000000020000                            
50001710201211022012110501331423678849       PES0000052000A099972012110209130006                                                
6024600052000123140133142367884900080000042                                                                                     
7PESE                                                                                000000000052000                            
50001810201211022012110518410427216869       PES0000020000A116182012110217040036                                                
6024600020000123071841042721686900050000778                                                                                     
7PESE                                                                                000000000020000                            
50001910201211022012110501331426047930       PES0000052000A099462012110217250214                                                
6024600052000123090133142604793000080000079                                                                                     
7PESE                                                                                000000000052000                            
50002010201211022012110565000139627450       PES0000013000A063662012110213350085                                                
6024600013000123076500013962745000000000063                                                                                     
7PESE                                                                                000000000013000                            
50002110201211022012110518410524365292       PES0000020000A051152012110215040217                                                
6024600020000123071841052436529200050000636                                                                                     
7PESE                                                                                000000000020000                            
50002210201211022012110565000131380817       PES0000013000A110382012110217330049                                                
6024600013000123076500013138081700000000063                                                                                     
7PESE                                                                                000000000013000                            
50002310201211022012110599040128324126       PES0000029000A097222012110211580010                                                
6024600029000123129904012832412600015000216                                                                                     
7PESE                                                                                000000000029000                            
50002410201211022012110565000525638597       PES0000013000A084192012110211470044                                                
6024600013000123076500052563859700000000099                                                                                     
7PESE                                                                                000000000013000                            
50002510201211022012110565000221713945       PES0000013000A084192012110211470045                                                
6024600013000123076500022171394500000000084                                                                                     
7PESE                                                                                000000000013000                            
50002610201211022012110501331616262078       PES0000052000A109842012110211240056                                                
6024600052000123070133161626207800080000063                                                                                     
7PESE                                                                                000000000052000                            
50002710201211022012110501331426080563       PES0000052000A109842012110214230213                                                
6024600052000123130133142608056300080000037                                                                                     
7PESE                                                                                000000000052000                            
50002810201211022012110501331617212947       PES0000052000A086862012110215530002                                                
6024600052000123070133161721294700080000016                                                                                     
7PESE                                                                                000000000052000                            
50002910201211022012110501331232922912       PES0000052000A099212012110218380119                                                
6024600052000123080133123292291200080000063                                                                                     
7PESE                                                                                000000000052000                            
50003010201211022012110565000432288844       PES0000013000A108712012110218580180                                                
6024600013000123076500043228884400000000016                                                                                     
7PESE                                                                                000000000013000                            
50003110201211022012110565000229767295       PES0000013000A058062012110217380070                                                
6024600013000123076500022976729500000000063                                                                                     
7PESE                                                                                000000000013000                            
50003210201211022012110518412432868978       PES0000020000A034222012110216300046                                                
6024600020000123071841243286897800050000736                                                                                     
7PESE                                                                                000000000020000                            
50003310201211022012110565000138662181       PES0000013000A113032012110216160014                                                
6024600013000123076500013866218100000000084                                                                                     
7PESE                                                                                000000000013000                            
50003410201211022012110565000225914888       PES0000013000A038942012110216580103                                                
6024600013000123076500022591488800000000016                                                                                     
7PESE                                                                                000000000013000                            
50003510201211022012110565000612362809       PES0000013000A104162012110218450118                                                
6024600013000123076500061236280900000000016                                                                                     
7PESE                                                                                000000000013000                            
50003610201211022012110501331328532819       PES0000052000A104702012110210000040                                                
6024600052000123100133132853281900080000090                                                                                     
7PESE                                                                                000000000052000                            
50003710201211022012110518410620502863       PES0000020000A085792012110216390008                                                
6024600020000123071841062050286300050000436                                                                                     
7PESE                                                                                000000000020000                            
50003810201211022012110565000518473287       PES0000013000A014642012110215450141                                                
6024600013000123076500051847328700000000037                                                                                     
7PESE                                                                                000000000013000                            
50003910201211022012110501331328101531       PES0000052000D001392012110220210111                                                
6024600052000123110133132810153100080000063                                                                                     
7PESE                                                                                000000000052000                            
50004010201211022012110518410718300986       PES0000020000A045372012110216320088                                                
6024600020000123071841071830098600050000737                                                                                     
7PESE                                                                                000000000020000                            
50004110201211022012110565000221161276       PES0000013000A049072012110218490128                                                
6024600013000123076500022116127600000000000                                                                                     
7PESE                                                                                000000000013000                            
50004210201211022012110565000221463717       PES0000013000A049072012110218490129                                                
6024600013000123076500022146371700000000079                                                                                     
7PESE                                                                                000000000013000                            
50004310201211022012110501331326737419       PES0000052000A086272012110219220157                                                
6024600052000123140133132673741900080000015                                                                                     
7PESE                                                                                000000000052000                            
50004410201211022012110501331520294421       PES0000052000A026442012110221090353                                                
6024600052000123070133152029442100080000079                                                                                     
7PESE                                                                                000000000052000                            
50004510201211022012110501331233060854       PES0000052000L070542012110209443039                                                
6024600052000123070133123306085400080000021                                                                                     
7PESE                                                                                000000000052000                            
50004610201211022012110501331138014828       PES0000052000A103902012110220500338                                                
6024600052000123100133113801482800080000016                                                                                     
7PESE                                                                                000000000052000                            
50004710201211022012110518410429165491       PES0000020000M600372012110212060050                                                
6024600020000123071841042916549100050000536                                                                                     
7PESE                                                                                000000000020000                            
50004810201211022012110599040136087988       PES0000029000M601132012110211580093                                                
6024600029000123129904013608798800015000137                                                                                     
7PESE                                                                                000000000029000                            
50004910201211022012110569014041325380       PES0000017500M620082012110217450059                                                
6024600015000123066901404132538000025000115                                                                                     
7PESE                                                                                000000000017500                            
50005010201211022012110569012913228767       PES0000017500M620032012110214120182                                                
6024600015000123066901291322876700025000716                                                                                     
7PESE                                                                                000000000017500                            
50005110201211022012110518412430460535       PES0000020000M601982012110211365012                                                
6024600020000123071841243046053500050000484                                                                                     
7PESE                                                                                000000000020000                            
50005210201211022012110501331423091883       PES0000052000M600762012110213400066                                                
6024600052000123100133142309188300080000099                                                                                     
7PESE                                                                                000000000052000                            
50005310201211022012110599040137905221       PES0000029000M600102012110214250174                                                
6024600029000123129904013790522100015000163                                                                                     
7PESE                                                                                000000000029000                            
50005410201211022012110501331714569641       PES0000052000M601252012110213380176                                                
6024600052000123130133171456964100080000099                                                                                     
7PESE                                                                                000000000052000                            
50005510201211022012110501331520384672       PES0000052000M600832012110216550111                                                
6024600052000123070133152038467200080000058                                                                                     
7PESE                                                                                000000000052000                            
50005610201211032012110565000132515031       PES0000013000A077412012110221040064                                                
6024600013000123076500013251503100000000058                                                                                     
7PESE                                                                                000000000013000                            
50005710201211032012110571000421438258       PES0000010000D000772012110310170095                                                
6024600010000123157100042143825800000000015                                                                                     
7PESE                                                                                000000000010000                            
50005810201211032012110552010426801175       PES0000011000A085512012110312080099                                                
6024600011000123135201042680117500000000084                                                                                     
7PESE                                                                                000000000011000                            
50005910201211032012110552010717063329       PES0000011000A095852012110309410001                                                
6024600011000123135201071706332900000000084                                                                                     
7PESE                                                                                000000000011000                            
50006010201211032012110501331521551465       PES0000052000A102862012110315240144                                                
6024600052000123090133152155146500080000015                                                                                     
7PESE                                                                                000000000052000                            
50006110201211032012110501331523096059       PES0000052000A083092012110309320042                                                
6024600052000123110133152309605900080000084                                                                                     
7PESE                                                                                000000000052000                            
50006210201211032012110598010225629576       PES0000029500A105812012110319210009                                                
6024600029500123159801022562957600000000063                                                                                     
7PESE                                                                                000000000029500                            
50006310201211032012110501331423961411       PES0000052000M620032012110311400064                                                
6024600052000123080133142396141100080000042                                                                                     
7PESE                                                                                000000000052000                            
50006410201211042012110501331394553877       PES0000052000D000512012110416070008                                                
6024600052000123090133139455387700080000058                                                                                     
7PESE                                                                                000000000052000                            
82012110500000100000640000019045000000000000000000000000000000000000000000064                                                   
9201211050000010000064000001904500000000000000000000000000000000000000000000064                                                 
