120121005PAGO FACIL               090060246FABIAN NORBERTO D´ERAMO                                                              
320121005000001FABIAN NORBERTO D´ERAMO                                                                                          
50000110201210042012100500714744885825       PES0000011500A045312012100415590047                                                
6024600009000122740071474488582500025007499                                                                                     
7PESE                                                                                000000000011500                            
50000210201210042012100500714740252575       PES0000011500L120082012100417237292                                                
6024600011500122850071474025257500000000078                                                                                     
7PESE                                                                                000000000011500                            
50000310201210042012100565000137787510       PES0000013000A049072012100418210068                                                
6024600013000122786500013778751000015000099                                                                                     
7PESE                                                                                000000000013000                            
50000410201210042012100565000223572437       PES0000013000A014602012100418400040                                                
6024600013000122786500022357243700015000036                                                                                     
7PESE                                                                                000000000013000                            
50000510201210042012100565000314386010       PES0000013000A082982012100411000122                                                
6024600013000122786500031438601000015000016                                                                                     
7PESE                                                                                000000000013000                            
50000610201210042012100565000438090014       PES0000013000A049072012100418210069                                                
6024600013000122786500043809001400015000063                                                                                     
7PESE                                                                                000000000013000                            
50000710201210042012100565000516589016       PES0000013000A049072012100418210070                                                
6024600013000122786500051658901600015000042                                                                                     
7PESE                                                                                000000000013000                            
50000810201210042012100565000521535620       PES0000013000A049072012100418210071                                                
6024600013000122806500052153562000015000090                                                                                     
7PESE                                                                                000000000013000                            
50000910201210042012100565000227846775       PES0000013000A108712012100415070141                                                
6024600013000122826500022784677500015000036                                                                                     
7PESE                                                                                000000000013000                            
50001010201210042012100565000228253547       PES0000013000A108712012100418520031                                                
6024600013000122846500022825354700015000015                                                                                     
7PESE                                                                                000000000013000                            
50001110201210042012100565000522228771       PES0000013000A092052012100416240171                                                
6024600013000122856500052222877100015000042                                                                                     
7PESE                                                                                000000000013000                            
50001210201210042012100598010130974014       PES0000015000A085592012100414250016                                                
6024600015000122759801013097401400000000716                                                                                     
7PESE                                                                                000000000015000                            
50001310201210042012100518402336777956       PES0000015000M601842012100414570211                                                
6024600015000122831840233677795600100000042                                                                                     
7PESE                                                                                000000000015000                            
50001410201210042012100598010121466123       PES0000015000A620582012100410390026                                                
6024600015000122849801012146612300000000079                                                                                     
7PESE                                                                                000000000015000                            
50001510201210042012100598010125606401       PES0000015000A601872012100414540208                                                
6024600015000122859801012560640100000000037                                                                                     
7PESE                                                                                000000000015000                            
50001610201210042012100500753728312962       PES0000022500A091682012100416170318                                                
6024600019500122740075372831296200030007700                                                                                     
7PESE                                                                                000000000022500                            
50001710201210042012100500752430135847       PES0000022500A048002012100414100062                                                
6024600022500122830075243013584700020000036                                                                                     
7PESE                                                                                000000000022500                            
50001810201210042012100500751626542181       PES0000022500A092162012100412150301                                                
6024600022500122840075162654218100020000021                                                                                     
7PESE                                                                                000000000022500                            
50001910201210042012100500751433155011       PES0000022500A084922012100416140171                                                
6024600022500122850075143315501100020000037                                                                                     
7PESE                                                                                000000000022500                            
50002010201210042012100599030129708493       PES0000025800A077412012100414090014                                                
6024600025800122819903012970849300021000400                                                                                     
7PESE                                                                                000000000025800                            
50002110201210042012100500712525537152       PES0000032500A051082012100412420027                                                
6024600029000122740071252553715200035007742                                                                                     
7PESE                                                                                000000000032500                            
50002210201210042012100500713010399415       PES0000032500A105442012100411320095                                                
6024600029000122740071301039941500035007542                                                                                     
7PESE                                                                                000000000032500                            
50002310201210042012100500714333145116       PES0000032500A085422012100411550196                                                
6024600029000122740071433314511600035007700                                                                                     
7PESE                                                                                000000000032500                            
50002410201210042012100500713727087525       PES0000032500A092102012100410110054                                                
6024600032500122820071372708752500000000021                                                                                     
7PESE                                                                                000000000032500                            
50002510201210042012100500712814010256       PES0000032500A091122012100417380693                                                
6024600032500122830071281401025600000000021                                                                                     
7PESE                                                                                000000000032500                            
50002610201210042012100500711624881067       PES0000032500A070822012100415500141                                                
6024600032500122840071162488106700000000021                                                                                     
7PESE                                                                                000000000032500                            
50002710201210042012100500712010851755       PES0000032500A058062012100411260142                                                
6024600032500122840071201085175500000000042                                                                                     
7PESE                                                                                000000000032500                            
50002810201210042012100500712235216456       PES0000032500A116332012100415550222                                                
6024600032500122840071223521645600000000063                                                                                     
7PESE                                                                                000000000032500                            
50002910201210042012100500712236678116       PES0000032500A115122012100410390038                                                
6024600032500122840071223667811600000000090                                                                                     
7PESE                                                                                000000000032500                            
50003010201210042012100500713824030097       PES0000032500A116332012100415550221                                                
6024600032500122840071382403009700000000063                                                                                     
7PESE                                                                                000000000032500                            
50003110201210042012100500714326666290       PES0000032500A107662012100411370085                                                
6024600032500122840071432666629000000000037                                                                                     
7PESE                                                                                000000000032500                            
50003210201210042012100500714425422473       PES0000032500A056492012100411350087                                                
6024600032500122840071442542247300000000084                                                                                     
7PESE                                                                                000000000032500                            
50003310201210042012100500714514013093       PES0000032500A091802012100411580198                                                
6024600032500122840071451401309300000000021                                                                                     
7PESE                                                                                000000000032500                            
50003410201210042012100500714518122500       PES0000032500A092072012100415580241                                                
6024600032500122840071451812250000000000021                                                                                     
7PESE                                                                                000000000032500                            
50003510201210042012100500711624036645       PES0000032500A117722012100415500167                                                
6024600032500122850071162403664500000000084                                                                                     
7PESE                                                                                000000000032500                            
50003610201210042012100500712620590155       PES0000032500A088622012100416530122                                                
6024600032500122850071262059015500000000021                                                                                     
7PESE                                                                                000000000032500                            
50003710201210042012100500712720347294       PES0000032500A092062012100413550181                                                
6024600032500122850071272034729400000000021                                                                                     
7PESE                                                                                000000000032500                            
50003810201210042012100500714331641324       PES0000032500A042822012100411480143                                                
6024600032500122850071433164132400000000000                                                                                     
7PESE                                                                                000000000032500                            
50003910201210042012100500714513285071       PES0000032500A016352012100413370328                                                
6024600032500122850071451328507100000000021                                                                                     
7PESE                                                                                000000000032500                            
50004010201210042012100500714518377857       PES0000032500A057002012100417530098                                                
6024600032500122850071451837785700000000084                                                                                     
7PESE                                                                                000000000032500                            
50004110201210042012100500722811162713       PES0000035000A097442012100415020096                                                
6024600035000122790072281116271300025000490                                                                                     
7PESE                                                                                000000000035000                            
50004210201210042012100500723517652349       PES0000035000A016702012100417350101                                                
6024600035000122790072351765234900025000642                                                                                     
7PESE                                                                                000000000035000                            
50004310201210042012100500723728869440       PES0000035000A093312012100416400187                                                
6024600035000122790072372886944000025000699                                                                                     
7PESE                                                                                000000000035000                            
50004410201210042012100500723894763062       PES0000035000L120202012100416574633                                                
6024600035000122790072389476306200025000658                                                                                     
7PESE                                                                                000000000035000                            
50004510201210042012100500724025871780       PES0000035000L120202012100416584634                                                
6024600035000122790072402587178000025000637                                                                                     
7PESE                                                                                000000000035000                            
50004610201210042012100599030131925405       PES0000043000M600742012100413320349                                                
6024600043000122819903013192540500035000499                                                                                     
7PESE                                                                                000000000043000                            
50004710201210042012100599030133104324       PES0000043000A090372012100409480065                                                
6024600043000122819903013310432400035000136                                                                                     
7PESE                                                                                000000000043000                            
50004810201210042012100599030136070637       PES0000043000A028072012100413240138                                                
6024600043000122819903013607063700035000384                                                                                     
7PESE                                                                                000000000043000                            
50004910201210042012100599030136157259       PES0000043000A105602012100412330064                                                
6024600043000122819903013615725900035000121                                                                                     
7PESE                                                                                000000000043000                            
50005010201210042012100500720233667197       PES0000046500M601502012100416550022                                                
6024600046500122790072023366719700010000263                                                                                     
7PESE                                                                                000000000046500                            
50005110201210042012100500720326631567       PES0000046500A092112012100412470279                                                
6024600046500122790072032663156700010000378                                                                                     
7PESE                                                                                000000000046500                            
50005210201210042012100500720423954270       PES0000046500A086812012100412410146                                                
6024600046500122790072042395427000010000678                                                                                     
7PESE                                                                                000000000046500                            
50005310201210042012100500720424717640       PES0000046500A091802012100409230018                                                
6024600046500122790072042471764000010000458                                                                                     
7PESE                                                                                000000000046500                            
50005410201210042012100500720425187832       PES0000046500A065482012100418150115                                                
6024600046500122790072042518783200010000415                                                                                     
7PESE                                                                                000000000046500                            
50005510201210042012100500720426457513       PES0000046500A100692012100416410175                                                
6024600046500122790072042645751300010000484                                                                                     
7PESE                                                                                000000000046500                            
50005610201210042012100500720520827872       PES0000046500A086812012100412420147                                                
6024600046500122790072052082787200010000690                                                                                     
7PESE                                                                                000000000046500                            
50005710201210042012100500720521831336       PES0000046500A116352012100415420210                                                
6024600046500122790072052183133600010000363                                                                                     
7PESE                                                                                000000000046500                            
50005810201210042012100500720521923226       PES0000046500A091652012100410240082                                                
6024600046500122790072052192322600010000537                                                                                     
7PESE                                                                                000000000046500                            
50005910201210042012100500720523127211       PES0000046500A096062012100412450169                                                
6024600046500122790072052312721100010000200                                                                                     
7PESE                                                                                000000000046500                            
50006010201210042012100500720616602152       PES0000046500A046332012100411540114                                                
6024600046500122790072061660215200010000484                                                                                     
7PESE                                                                                000000000046500                            
50006110201210042012100500720620007959       PES0000046500M601282012100416110261                                                
6024600046500122790072062000795900010000500                                                                                     
7PESE                                                                                000000000046500                            
50006210201210042012100500721520910809       PES0000046500M601652012100413140033                                                
6024600046500122790072152091080900010000458                                                                                     
7PESE                                                                                000000000046500                            
50006310201210042012100500721521477171       PES0000046500A055332012100413040214                                                
6024600046500122790072152147717100010000542                                                                                     
7PESE                                                                                000000000046500                            
82012100500000100000630000019638000000000000000000000000000000000000000000063                                                   
9201210050000010000063000001963800000000000000000000000000000000000000000000063                                                 
