120120605PAGO FACIL               090060246FABIAN NORBERTO D´ERAMO                                                              
320120605000001FABIAN NORBERTO D´ERAMO                                                                                          
50000110201206042012060599020231344045       PES0000022000A072152012060412230160                                                
6024600022000121599902023134404500000000278                                                                                     
7PESE                                                                                000000000022000                            
50000210201206042012060599020235178748       PES0000022000L070292012060410503541                                                
6024600022000121599902023517874800000000363                                                                                     
7PESE                                                                                000000000022000                            
50000310201206042012060599020235592295       PES0000022000L070292012060410503540                                                
6024600022000121599902023559229500000000337                                                                                     
7PESE                                                                                000000000022000                            
50000410201206042012060599040130668939       PES0000029000M600372012060411150017                                                
6024600029000121599904013066893900015000363                                                                                     
7PESE                                                                                000000000029000                            
50000510201206042012060599040133989486       PES0000029000A088072012060418110039                                                
6024600029000121599904013398948600015000442                                                                                     
7PESE                                                                                000000000029000                            
50000610201206042012060599030234332391       PES0000036550A091492012060417530114                                                
6024600036550121599903023433239100030250057                                                                                     
7PESE                                                                                000000000036550                            
50000710201206042012060599030128361121       PES0000037000A043162012060415410151                                                
6024600037000121599903012836112100035000415                                                                                     
7PESE                                                                                000000000037000                            
50000810201206042012060599030226562585       PES0000043000A085342012060411480222                                                
6024600043000121599903022656258500035000437                                                                                     
7PESE                                                                                000000000043000                            
50000910201206042012060599030229399057       PES0000043000A048412012060416250071                                                
6024600043000121599903022939905700035000442                                                                                     
7PESE                                                                                000000000043000                            
50001010201206042012060599030229921135       PES0000043000M600202012060412570065                                                
6024600043000121599903022992113500035000300                                                                                     
7PESE                                                                                000000000043000                            
50001110201206042012060599030232431889       PES0000043000D000792012060415300205                                                
6024600043000121599903023243188900035000400                                                                                     
7PESE                                                                                000000000043000                            
50001210201206042012060599030232573807       PES0000043000A090072012060419050153                                                
6024600043000121599903023257380700035000416                                                                                     
7PESE                                                                                000000000043000                            
50001310201206042012060599030233104324       PES0000043000A064852012060410100160                                                
6024600043000121599903023310432400035000184                                                                                     
7PESE                                                                                000000000043000                            
50001410201206042012060599030233597989       PES0000043000D000762012060412320202                                                
6024600043000121599903023359798900035000336                                                                                     
7PESE                                                                                000000000043000                            
82012060500000100000140000004985500000000000000000000000000000000000000000014                                                   
9201206050000010000014000000498550000000000000000000000000000000000000000000014                                                 
