120121205PAGO FACIL               090060246FABIAN NORBERTO D´ERAMO                                                              
320121205000001FABIAN NORBERTO D´ERAMO                                                                                          
50000110201212042012120502421328284530       PES0000032000A000162012120314330269                                                
6024600032000123400242132828453000080000378                                                                                     
7PESE                                                                                000000000032000                            
50000210201212042012120559010226370963       PES0000011000A081392012120310070033                                                
6024600011000123435901022637096300000000078                                                                                     
7PESE                                                                                000000000011000                            
50000310201212042012120500774330264480       PES0000028500A091492012120316160364                                                
6024600028500123450077433026448000000000084                                                                                     
7PESE                                                                                000000000028500                            
50000410201212042012120500774720573432       PES0000008000A090562012120410500140                                                
6024600006500123350077472057343200015007642                                                                                     
7PESE                                                                                000000000008000                            
50000510201212042012120571011625560502       PES0000009000A070622012120411570270                                                
6024600009000123417101162556050200000000016                                                                                     
7PESE                                                                                000000000009000                            
50000610201212042012120571011721561187       PES0000009000A080692012120416380006                                                
6024600009000123417101172156118700000000063                                                                                     
7PESE                                                                                000000000009000                            
50000710201212042012120571011817658261       PES0000009000A109902012120412220227                                                
6024600009000123417101181765826100000000021                                                                                     
7PESE                                                                                000000000009000                            
50000810201212042012120571012010092000       PES0000009000A118612012120409060030                                                
6024600009000123417101201009200000000000016                                                                                     
7PESE                                                                                000000000009000                            
50000910201212042012120559010420750247       PES0000011000L070492012120420064023                                                
6024600011000123395901042075024700000000057                                                                                     
7PESE                                                                                000000000011000                            
50001010201212042012120559011223270172       PES0000011000L070492012120420064024                                                
6024600011000123395901122327017200000000000                                                                                     
7PESE                                                                                000000000011000                            
50001110201212042012120559010132026793       PES0000011000A065832012120413100312                                                
6024600011000123445901013202679300000000042                                                                                     
7PESE                                                                                000000000011000                            
50001210201212042012120559010323871729       PES0000011000A090422012120415490007                                                
6024600011000123445901032387172900000000016                                                                                     
7PESE                                                                                000000000011000                            
50001310201212042012120559010324785083       PES0000011000A090422012120415500008                                                
6024600011000123445901032478508300000000037                                                                                     
7PESE                                                                                000000000011000                            
50001410201212042012120573000125247858       PES0000012000D001372012120410090070                                                
6024600012000123397300012524785800030000015                                                                                     
7PESE                                                                                000000000012000                            
50001510201212042012120573000229995603       PES0000012000A067112012120416460017                                                
6024600012000123397300022999560300030000084                                                                                     
7PESE                                                                                000000000012000                            
50001610201212042012120573000124270610       PES0000012000A098422012120411010072                                                
6024600012000123417300012427061000030000021                                                                                     
7PESE                                                                                000000000012000                            
50001710201212042012120573000131843777       PES0000012000A098422012120411010071                                                
6024600012000123417300013184377700030000057                                                                                     
7PESE                                                                                000000000012000                            
50001810201212042012120573000116770597       PES0000012000A055192012120418510196                                                
6024600012000123427300011677059700030000484                                                                                     
7PESE                                                                                000000000012000                            
50001910201212042012120573000123309944       PES0000012000A098422012120411010070                                                
6024600012000123427300012330994400030000199                                                                                     
7PESE                                                                                000000000012000                            
50002010201212042012120573000134246635       PES0000012000A044782012120412530207                                                
6024600012000123427300013424663500030000121                                                                                     
7PESE                                                                                000000000012000                            
50002110201212042012120573000211238436       PES0000012000A055192012120418510195                                                
6024600012000123427300021123843600030000436                                                                                     
7PESE                                                                                000000000012000                            
50002210201212042012120573000217572651       PES0000012000A093992012120415470001                                                
6024600012000123427300021757265100030000436                                                                                     
7PESE                                                                                000000000012000                            
50002310201212042012120573000224958824       PES0000012000A044782012120412530206                                                
6024600012000123427300022495882400030000163                                                                                     
7PESE                                                                                000000000012000                            
50002410201212042012120573000234441630       PES0000012000A108342012120411490132                                                
6024600012000123427300023444163000030000042                                                                                     
7PESE                                                                                000000000012000                            
50002510201212042012120529080134987740       PES0000018000A048422012120416390068                                                
6024600015000123352908013498774000030007758                                                                                     
7PESE                                                                                000000000018000                            
50002610201212042012120571010327283235       PES0000018000A070622012120419570230                                                
6024600018000123417101032728323500000000000                                                                                     
7PESE                                                                                000000000018000                            
50002710201212042012120529080224379056       PES0000018000D000182012120409070009                                                
6024600018000123442908022437905600000000084                                                                                     
7PESE                                                                                000000000018000                            
50002810201212042012120529080135972701       PES0000018000A048422012120416390067                                                
6024600018000123462908013597270100000000084                                                                                     
7PESE                                                                                000000000018000                            
50002910201212042012120529080411836848       PES0000018000A048422012120416390066                                                
6024600018000123462908041183684800000000016                                                                                     
7PESE                                                                                000000000018000                            
50003010201212042012120529080822644104       PES0000018000A047362012120412410338                                                
6024600018000123462908082264410400000000042                                                                                     
7PESE                                                                                000000000018000                            
50003110201212042012120502422434924074       PES0000022000A032962012120413380026                                                
6024600022000123390242243492407400060000037                                                                                     
7PESE                                                                                000000000022000                            
50003210201212042012120502422532359391       PES0000022000M601652012120412500159                                                
6024600022000123390242253235939100060000021                                                                                     
7PESE                                                                                000000000022000                            
50003310201212042012120502422592884460       PES0000022000A032962012120413380027                                                
6024600022000123390242259288446000060000084                                                                                     
7PESE                                                                                000000000022000                            
50003410201212042012120502422713985029       PES0000022000A068902012120409220017                                                
6024600022000123400242271398502900060000678                                                                                     
7PESE                                                                                000000000022000                            
50003510201212042012120502422717106492       PES0000022000A088632012120419440231                                                
6024600022000123400242271710649200060000542                                                                                     
7PESE                                                                                000000000022000                            
50003610201212042012120502423327768100       PES0000022000A091142012120413030151                                                
6024600022000123400242332776810000060000584                                                                                     
7PESE                                                                                000000000022000                            
50003710201212042012120500773225560502       PES0000028500A070622012120411570271                                                
6024600025500123350077322556050200030007600                                                                                     
7PESE                                                                                000000000028500                            
50003810201212042012120500773916574841       PES0000028500M600172012120414420187                                                
6024600028500123440077391657484100000000084                                                                                     
7PESE                                                                                000000000028500                            
50003910201212042012120500772814105969       PES0000028500A620572012120410310021                                                
6024600028500123450077281410596900000000079                                                                                     
7PESE                                                                                000000000028500                            
50004010201212042012120500774043671205       PES0000028500A082602012120415380010                                                
6024600028500123450077404367120500000000078                                                                                     
7PESE                                                                                000000000028500                            
50004110201212042012120599040118893421       PES0000029000A092242012120417250540                                                
6024600029000123429904011889342100015000342                                                                                     
7PESE                                                                                000000000029000                            
50004210201212042012120599040130663025       PES0000029000A001632012120419400252                                                
6024600029000123429904013066302500015000400                                                                                     
7PESE                                                                                000000000029000                            
50004310201212042012120599040137846112       PES0000029000A034312012120420270275                                                
6024600029000123429904013784611200015000463                                                                                     
7PESE                                                                                000000000029000                            
50004410201212042012120502420423329058       PES0000032000A110382012120418200122                                                
6024600032000123390242042332905800080000063                                                                                     
7PESE                                                                                000000000032000                            
50004510201212042012120502420616602152       PES0000032000A046332012120412020123                                                
6024600032000123390242061660215200080000063                                                                                     
7PESE                                                                                000000000032000                            
50004610201212042012120502420136724164       PES0000032000A089982012120411070128                                                
6024600032000123400242013672416400080000515                                                                                     
7PESE                                                                                000000000032000                            
50004710201212042012120502420326592694       PES0000032000M600302012120414570178                                                
6024600032000123400242032659269400080000300                                                                                     
7PESE                                                                                000000000032000                            
50004810201212042012120502420327216869       PES0000032000A109902012120416200175                                                
6024600032000123400242032721686900080000616                                                                                     
7PESE                                                                                000000000032000                            
50004910201212042012120502420329317826       PES0000032000A105622012120417190150                                                
6024600032000123400242032931782600080000584                                                                                     
7PESE                                                                                000000000032000                            
50005010201212042012120502420329503995       PES0000032000M600852012120410520068                                                
6024600032000123400242032950399500080000579                                                                                     
7PESE                                                                                000000000032000                            
50005110201212042012120502420423599625       PES0000032000A602292012120408070003                                                
6024600032000123400242042359962500080000499                                                                                     
7PESE                                                                                000000000032000                            
50005210201212042012120502420424046361       PES0000032000A091142012120413030152                                                
6024600032000123400242042404636100080000599                                                                                     
7PESE                                                                                000000000032000                            
50005310201212042012120502420425264786       PES0000032000A602292012120408070004                                                
6024600032000123400242042526478600080000442                                                                                     
7PESE                                                                                000000000032000                            
50005410201212042012120502420520244205       PES0000032000A601852012120410460103                                                
6024600032000123400242052024420500080000563                                                                                     
7PESE                                                                                000000000032000                            
50005510201212042012120502420521600874       PES0000032000A076122012120416060011                                                
6024600032000123400242052160087400080000300                                                                                     
7PESE                                                                                000000000032000                            
50005610201212042012120502420616733358       PES0000032000M600562012120413200021                                                
6024600032000123400242061673335800080000663                                                                                     
7PESE                                                                                000000000032000                            
50005710201212042012120502420717901826       PES0000032000M600092012120412530279                                                
6024600032000123400242071790182600080000657                                                                                     
7PESE                                                                                000000000032000                            
50005810201212042012120502421232311273       PES0000032000A092252012120416070361                                                
6024600032000123400242123231127300080000657                                                                                     
7PESE                                                                                000000000032000                            
50005910201212042012120502421328037626       PES0000032000A048012012120412080092                                                
6024600032000123400242132803762600080000600                                                                                     
7PESE                                                                                000000000032000                            
50006010201212042012120502421712966303       PES0000032000M600402012120413120162                                                
6024600032000123400242171296630300080000500                                                                                     
7PESE                                                                                000000000032000                            
50006110201212042012120502423725659534       PES0000032000A092772012120418290091                                                
6024600032000123400242372565953400080000636                                                                                     
7PESE                                                                                000000000032000                            
50006210201212042012120502423727500011       PES0000032000A017262012120412240194                                                
6024600032000123400242372750001100080000500                                                                                     
7PESE                                                                                000000000032000                            
50006310201212042012120599030126562585       PES0000043000A108262012120410300157                                                
6024600043000123429903012656258500035000379                                                                                     
7PESE                                                                                000000000043000                            
50006410201212042012120599030131773438       PES0000043000A109712012120410270096                                                
6024600043000123429903013177343800035000336                                                                                     
7PESE                                                                                000000000043000                            
50006510201212042012120599100131344778       PES0000150000A095702012120419340194                                                
6024600150000123369910013134477800000000657                                                                                     
7PESE                                                                                000000000150000                            
50006610201212042012120599100131773438       PES0000150000A109712012120410270097                                                
6024600150000123459910013177343800000000037                                                                                     
7PESE                                                                                000000000150000                            
50006710201212042012120599100133434151       PES0000150000A112902012120411230028                                                
6024600150000123459910013343415100000000037                                                                                     
7PESE                                                                                000000000150000                            
82012120500000100000670000018875000000000000000000000000000000000000000000067                                                   
9201212050000010000067000001887500000000000000000000000000000000000000000000067                                                 
