120121206PAGO FACIL               090060246FABIAN NORBERTO D´ERAMO                                                              
320121206000001FABIAN NORBERTO D´ERAMO                                                                                          
50000110201212052012120699100135271379       PES0000150000A105992012120415300018                                                
6024600150000123469910013527137900000000058                                                                                     
7PESE                                                                                000000000150000                            
50000210201212052012120688880000000087       PES0000004500A064332012120510290090                                                
6024600004500123448888000000008700000000021                                                                                     
7PESE                                                                                000000000004500                            
50000310201212052012120600774743872048       PES0000008000A092012012120513580343                                                
6024600008000123450077474387204800000000015                                                                                     
7PESE                                                                                000000000008000                            
50000410201212052012120600774743571011       PES0000008000A117122012120512180143                                                
6024600008000123470077474357101100000000000                                                                                     
7PESE                                                                                000000000008000                            
50000510201212052012120673000133270113       PES0000012000A096542012120511100073                                                
6024600012000123417300013327011300030000063                                                                                     
7PESE                                                                                000000000012000                            
50000610201212052012120673000124274226       PES0000012000A075452012120520340178                                                
6024600012000123427300012427422600030000563                                                                                     
7PESE                                                                                000000000012000                            
50000710201212052012120673000124558220       PES0000012000A110492012120512390044                                                
6024600012000123427300012455822000030000242                                                                                     
7PESE                                                                                000000000012000                            
50000810201212052012120673000126336391       PES0000012000A114992012120518220217                                                
6024600012000123427300012633639100030000099                                                                                     
7PESE                                                                                000000000012000                            
50000910201212052012120673000130469634       PES0000012000A114992012120518220216                                                
6024600012000123427300013046963400030000379                                                                                     
7PESE                                                                                000000000012000                            
50001010201212052012120673000130474940       PES0000012000A029442012120517520055                                                
6024600012000123427300013047494000030000542                                                                                     
7PESE                                                                                000000000012000                            
50001110201212052012120673000131188827       PES0000012000A083632012120513270203                                                
6024600012000123427300013118882700030000479                                                                                     
7PESE                                                                                000000000012000                            
50001210201212052012120673000131901712       PES0000012000A098422012120515350100                                                
6024600012000123427300013190171200030000463                                                                                     
7PESE                                                                                000000000012000                            
50001310201212052012120673000133117953       PES0000012000A083632012120513230197                                                
6024600012000123427300013311795300030000584                                                                                     
7PESE                                                                                000000000012000                            
50001410201212052012120673000134131763       PES0000012000A083632012120513270202                                                
6024600012000123427300013413176300030000458                                                                                     
7PESE                                                                                000000000012000                            
50001510201212052012120673000135528958       PES0000012000A101442012120511110141                                                
6024600012000123427300013552895800030000342                                                                                     
7PESE                                                                                000000000012000                            
50001610201212052012120673000194707866       PES0000012000A114992012120518220214                                                
6024600012000123427300019470786600030000415                                                                                     
7PESE                                                                                000000000012000                            
50001710201212052012120673000229952010       PES0000012000A114992012120518220215                                                
6024600012000123427300022995201000030000542                                                                                     
7PESE                                                                                000000000012000                            
50001810201212052012120673000231413882       PES0000012000A029442012120517520054                                                
6024600012000123427300023141388200030000590                                                                                     
7PESE                                                                                000000000012000                            
50001910201212052012120698010136719663       PES0000015000A109902012120514200032                                                
6024600015000123469801013671966300000000021                                                                                     
7PESE                                                                                000000000015000                            
50002010201212052012120698010133471119       PES0000015000A089882012120512580090                                                
6024600015000123479801013347111900000000000                                                                                     
7PESE                                                                                000000000015000                            
50002110201212052012120629080320824714       PES0000018000A098212012120509430044                                                
6024600018000123462908032082471400000000090                                                                                     
7PESE                                                                                000000000018000                            
50002210201212052012120602422433680194       PES0000022000A116902012120510110029                                                
6024600022000123400242243368019400060000700                                                                                     
7PESE                                                                                000000000022000                            
50002310201212052012120602422528768947       PES0000022000M601622012120515200420                                                
6024600022000123400242252876894700060000721                                                                                     
7PESE                                                                                000000000022000                            
50002410201212052012120602422623338269       PES0000022000A074252012120510570167                                                
6024600022000123400242262333826900060000284                                                                                     
7PESE                                                                                000000000022000                            
50002510201212052012120602422624308051       PES0000022000D000252012120517280287                                                
6024600022000123400242262430805100060000721                                                                                     
7PESE                                                                                000000000022000                            
50002610201212052012120602422717323619       PES0000022000A034312012120517380108                                                
6024600022000123400242271732361900060000736                                                                                     
7PESE                                                                                000000000022000                            
50002710201212052012120602423330576728       PES0000022000A029742012120512070099                                                
6024600022000123400242333057672800060000790                                                                                     
7PESE                                                                                000000000022000                            
50002810201212052012120602423424836087       PES0000022000A046802012120512210013                                                
6024600022000123400242342483608700060000157                                                                                     
7PESE                                                                                000000000022000                            
50002910201212052012120600773824836087       PES0000028500A046802012120512210012                                                
6024600025500123350077382483608700030007578                                                                                     
7PESE                                                                                000000000028500                            
50003010201212052012120600774423414061       PES0000028500A025612012120518440033                                                
6024600025500123350077442341406100030007584                                                                                     
7PESE                                                                                000000000028500                            
50003110201212052012120699030129708493       PES0000025800A071232012120513410258                                                
6024600025800123429903012970849300021000390                                                                                     
7PESE                                                                                000000000025800                            
50003210201212052012120600773916315042       PES0000028500A109822012120517090254                                                
6024600028500123430077391631504200000000063                                                                                     
7PESE                                                                                000000000028500                            
50003310201212052012120600773916237013       PES0000028500A064332012120510290089                                                
6024600028500123440077391623701300000000099                                                                                     
7PESE                                                                                000000000028500                            
50003410201212052012120600772912248074       PES0000028500A104232012120517210057                                                
6024600028500123460077291224807400000000063                                                                                     
7PESE                                                                                000000000028500                            
50003510201212052012120600773917958705       PES0000028500A064332012120510280088                                                
6024600028500123460077391795870500000000063                                                                                     
7PESE                                                                                000000000028500                            
50003610201212052012120600772816427373       PES0000028500A109842012120518270285                                                
6024600028500123470077281642737300000000016                                                                                     
7PESE                                                                                000000000028500                            
50003710201212052012120600774329825623       PES0000028500A085512012120518420249                                                
6024600028500123470077432982562300000000042                                                                                     
7PESE                                                                                000000000028500                            
50003810201212052012120699040133989486       PES0000029000A088072012120510110042                                                
6024600029000123429904013398948600015000579                                                                                     
7PESE                                                                                000000000029000                            
50003910201212052012120602420135229160       PES0000032000A046092012120515460037                                                
6024600032000123400242013522916000080000737                                                                                     
7PESE                                                                                000000000032000                            
50004010201212052012120602420135537115       PES0000032000A095852012120517520199                                                
6024600032000123400242013553711500080000516                                                                                     
7PESE                                                                                000000000032000                            
50004110201212052012120602420230877686       PES0000032000A600932012120516210220                                                
6024600032000123400242023087768600080000516                                                                                     
7PESE                                                                                000000000032000                            
50004210201212052012120602420232822895       PES0000032000A046092012120509590026                                                
6024600032000123400242023282289500080000142                                                                                     
7PESE                                                                                000000000032000                            
50004310201212052012120602420233667197       PES0000032000M601102012120513590144                                                
6024600032000123400242023366719700080000642                                                                                     
7PESE                                                                                000000000032000                            
50004410201212052012120602420327408518       PES0000032000A026442012120515020003                                                
6024600032000123400242032740851800080000521                                                                                     
7PESE                                                                                000000000032000                            
50004510201212052012120602420327649385       PES0000032000D000882012120513190324                                                
6024600032000123400242032764938500080000663                                                                                     
7PESE                                                                                000000000032000                            
50004610201212052012120602420327729078       PES0000032000A046092012120518470284                                                
6024600032000123400242032772907800080000784                                                                                     
7PESE                                                                                000000000032000                            
50004710201212052012120602420327779086       PES0000032000A028672012120513380076                                                
6024600032000123400242032777908600080000779                                                                                     
7PESE                                                                                000000000032000                            
50004810201212052012120602420328179070       PES0000032000A110642012120517000088                                                
6024600032000123400242032817907000080000636                                                                                     
7PESE                                                                                000000000032000                            
50004910201212052012120602420328369628       PES0000032000A091672012120517030414                                                
6024600032000123400242032836962800080000763                                                                                     
7PESE                                                                                000000000032000                            
50005010201212052012120602420329199956       PES0000032000A017122012120518150085                                                
6024600032000123400242032919995600080000215                                                                                     
7PESE                                                                                000000000032000                            
50005110201212052012120602420329469123       PES0000032000A046092012120519050310                                                
6024600032000123400242032946912300080000500                                                                                     
7PESE                                                                                000000000032000                            
50005210201212052012120602420392939683       PES0000032000A097392012120515150203                                                
6024600032000123400242039293968300080000721                                                                                     
7PESE                                                                                000000000032000                            
50005310201212052012120602420423787122       PES0000032000M600092012120514330320                                                
6024600032000123400242042378712200080000736                                                                                     
7PESE                                                                                000000000032000                            
50005410201212052012120602420423932096       PES0000032000A091172012120516580152                                                
6024600032000123400242042393209600080000557                                                                                     
7PESE                                                                                000000000032000                            
50005510201212052012120602420424997468       PES0000032000A033992012120514010153                                                
6024600032000123400242042499746800080000500                                                                                     
7PESE                                                                                000000000032000                            
50005610201212052012120602420425186749       PES0000032000A034222012120517090023                                                
6024600032000123400242042518674900080000778                                                                                     
7PESE                                                                                000000000032000                            
50005710201212052012120602420425940323       PES0000032000A090802012120515250082                                                
6024600032000123400242042594032300080000684                                                                                     
7PESE                                                                                000000000032000                            
50005810201212052012120602420426169956       PES0000032000A107772012120518300182                                                
6024600032000123400242042616995600080000700                                                                                     
7PESE                                                                                000000000032000                            
50005910201212052012120602420520364142       PES0000032000D000132012120513330110                                                
6024600032000123400242052036414200080000263                                                                                     
7PESE                                                                                000000000032000                            
50006010201212052012120602420520636671       PES0000032000D000132012120511250024                                                
6024600032000123400242052063667100080000721                                                                                     
7PESE                                                                                000000000032000                            
50006110201212052012120602420521545809       PES0000032000A118502012120514470390                                                
6024600032000123400242052154580900080000721                                                                                     
7PESE                                                                                000000000032000                            
50006210201212052012120602420521957336       PES0000032000M600192012120514070059                                                
6024600032000123400242052195733600080000721                                                                                     
7PESE                                                                                000000000032000                            
50006310201212052012120602420522057144       PES0000032000A060952012120519550185                                                
6024600032000123400242052205714400080000715                                                                                     
7PESE                                                                                000000000032000                            
50006410201212052012120602420522303571       PES0000032000A016362012120516020065                                                
6024600032000123400242052230357100080000742                                                                                     
7PESE                                                                                000000000032000                            
50006510201212052012120602420617123456       PES0000032000A093312012120520040121                                                
6024600032000123400242061712345600080000721                                                                                     
7PESE                                                                                000000000032000                            
50006610201212052012120602420618223360       PES0000032000A059512012120518220042                                                
6024600032000123400242061822336000080000537                                                                                     
7PESE                                                                                000000000032000                            
50006710201212052012120602420618417267       PES0000032000A038202012120517240074                                                
6024600032000123400242061841726700080000784                                                                                     
7PESE                                                                                000000000032000                            
50006810201212052012120602420618486297       PES0000032000A048882012120511050013                                                
6024600032000123400242061848629700080000763                                                                                     
7PESE                                                                                000000000032000                            
50006910201212052012120602420620226257       PES0000032000D001692012120517250478                                                
6024600032000123400242062022625700080000536                                                                                     
7PESE                                                                                000000000032000                            
50007010201212052012120602420713724109       PES0000032000A017122012120511560292                                                
6024600032000123400242071372410900080000763                                                                                     
7PESE                                                                                000000000032000                            
50007110201212052012120602421233118797       PES0000032000A073612012120511570054                                                
6024600032000123400242123311879700080000663                                                                                     
7PESE                                                                                000000000032000                            
50007210201212052012120602421329407258       PES0000032000M600092012120514340321                                                
6024600032000123400242132940725800080000784                                                                                     
7PESE                                                                                000000000032000                            
50007310201212052012120602421423447127       PES0000032000A048882012120511050012                                                
6024600032000123400242142344712700080000721                                                                                     
7PESE                                                                                000000000032000                            
50007410201212052012120602421424448461       PES0000032000A092142012120514060340                                                
6024600032000123400242142444846100080000584                                                                                     
7PESE                                                                                000000000032000                            
50007510201212052012120602421520392836       PES0000032000M600852012120515180324                                                
6024600032000123400242152039283600080000758                                                                                     
7PESE                                                                                000000000032000                            
50007610201212052012120602423723471630       PES0000032000A108702012120511390296                                                
6024600032000123400242372347163000080000599                                                                                     
7PESE                                                                                000000000032000                            
50007710201212052012120602423728869440       PES0000032000A001552012120516570145                                                
6024600032000123400242372886944000080000721                                                                                     
7PESE                                                                                000000000032000                            
50007810201212052012120602424127027638       PES0000032000A075812012120509440035                                                
6024600032000123400242412702763800080000563                                                                                     
7PESE                                                                                000000000032000                            
50007910201212052012120602424223136871       PES0000032000A038202012120517240075                                                
6024600032000123400242422313687100080000758                                                                                     
7PESE                                                                                000000000032000                            
50008010201212052012120699030128506908       PES0000036550A035742012120519350082                                                
6024600036550123429903012850690800030250416                                                                                     
7PESE                                                                                000000000036550                            
50008110201212052012120699030128506908       PES0000036550A035742012120519350081                                                
6024600036550123429903012850690800030250416                                                                                     
7PESE                                                                                000000000036550                            
50008210201212052012120699030136808106       PES0000043000A034162012120509350031                                                
6024600043000123409903013680810600035000042                                                                                     
7PESE                                                                                000000000043000                            
50008310201212052012120699030123723839       PES0000043000M600432012120514100240                                                
6024600043000123429903012372383900035000363                                                                                     
7PESE                                                                                000000000043000                            
50008410201212052012120699030131925405       PES0000043000M600742012120514590460                                                
6024600043000123429903013192540500035000558                                                                                     
7PESE                                                                                000000000043000                            
50008510201212052012120699030132944859       PES0000043000A095132012120513370055                                                
6024600043000123429903013294485900035000578                                                                                     
7PESE                                                                                000000000043000                            
50008610201212052012120699030136352229       PES0000043000A075132012120521060008                                                
6024600043000123429903013635222900035000500                                                                                     
7PESE                                                                                000000000043000                            
50008710201212052012120699100129708493       PES0000150000A071232012120513400257                                                
6024600150000123459910012970849300000000021                                                                                     
7PESE                                                                                000000000150000                            
50008810201212052012120699100134600312       PES0000150000A104232012120516420014                                                
6024600150000123459910013460031200000000057                                                                                     
7PESE                                                                                000000000150000                            
50008910201212052012120699100129317503       PES0000150000A035742012120519370083                                                
6024600150000123469910012931750300000000015                                                                                     
7PESE                                                                                000000000150000                            
50009010201212052012120699100133708869       PES0000150000A035742012120519350080                                                
6024600150000123469910013370886900000000021                                                                                     
7PESE                                                                                000000000150000                            
50009110201212052012120699100135755092       PES0000150000A093212012120511000173                                                
6024600150000123469910013575509200000000042                                                                                     
7PESE                                                                                000000000150000                            
50009210201212052012120699100129399057       PES0000150000A048412012120518080146                                                
6024600150000123479910012939905700000000079                                                                                     
7PESE                                                                                000000000150000                            
50009310201212052012120699100132769266       PES0000150000A009562012120515240349                                                
6024600150000123479910013276926600000000063                                                                                     
7PESE                                                                                000000000150000                            
50009410201212052012120699100136352229       PES0000150000A075132012120521060007                                                
6024600150000123479910013635222900000000021                                                                                     
7PESE                                                                                000000000150000                            
82012120600000100000940000036234000000000000000000000000000000000000000000094                                                   
9201212060000010000094000003623400000000000000000000000000000000000000000000094                                                 
