120120806PAGO FACIL               090060246FABIAN NORBERTO D´ERAMO                                                              
320120806000001FABIAN NORBERTO D´ERAMO                                                                                          
50000110201208032012080600720327688672       PES0000031000A058512012080212330096                                                
6024600031000122210072032768867200155000037                                                                                     
7PESE                                                                                000000000031000                            
50000210201208032012080600720521851864       PES0000031000A058512012080218110156                                                
6024600031000122220072052185186400155000090                                                                                     
7PESE                                                                                000000000031000                            
50000310201208032012080600722241138293       PES0000021000A058512012080218110157                                                
6024600021000122220072224113829300140000021                                                                                     
7PESE                                                                                000000000021000                            
50000410201208032012080602382026411646       PES0000025000A058512012080218470176                                                
6024600020000122120238202641164600050007658                                                                                     
7PESE                                                                                000000000025000                            
50000510201208032012080600724026411646       PES0000021000A058512012080218470177                                                
6024600021000122210072402641164600140000042                                                                                     
7PESE                                                                                000000000021000                            
50000610201208032012080600724026477942       PES0000021000A058512012080218470178                                                
6024600021000122220072402647794200140000084                                                                                     
7PESE                                                                                000000000021000                            
50000710201208032012080657000224289312       PES0000014000A620572012080309100012                                                
6024600014000122215700022428931200000000099                                                                                     
7PESE                                                                                000000000014000                            
50000810201208032012080600714420468123       PES0000023500A008052012080311530068                                                
6024600023500122210071442046812300055000021                                                                                     
7PESE                                                                                000000000023500                            
50000910201208032012080600711913664272       PES0000023500A104982012080310230032                                                
6024600023500122210071191366427200055000084                                                                                     
7PESE                                                                                000000000023500                            
50001010201208032012080600723518093655       PES0000021000A065362012080312400122                                                
6024600021000122210072351809365500140000015                                                                                     
7PESE                                                                                000000000021000                            
50001110201208032012080600720425248455       PES0000031000A068902012080315210274                                                
6024600031000122210072042524845500155000063                                                                                     
7PESE                                                                                000000000031000                            
50001210201208032012080600724024122825       PES0000021000A068902012080315210275                                                
6024600021000122210072402412282500140000000                                                                                     
7PESE                                                                                000000000021000                            
50001310201208032012080600712716940996       PES0000018500A086812012080312420099                                                
6024600018500122160071271694099600105000058                                                                                     
7PESE                                                                                000000000018500                            
50001410201208032012080600723892640896       PES0000021000A065362012080314470014                                                
6024600021000122230072389264089600140000021                                                                                     
7PESE                                                                                000000000021000                            
50001510201208032012080699030123723839       PES0000043000A600432012080313350158                                                
6024600043000122209903012372383900035000242                                                                                     
7PESE                                                                                000000000043000                            
50001610201208032012080600712620366649       PES0000023500A045162012080317200260                                                
6024600023500122220071262036664900055000000                                                                                     
7PESE                                                                                000000000023500                            
50001710201208032012080657001227802425       PES0000014000A045712012080316560016                                                
6024600014000122205700122780242500000000079                                                                                     
7PESE                                                                                000000000014000                            
50001810201208032012080657001631956119       PES0000014000A045712012080316570017                                                
6024600014000122205700163195611900000000078                                                                                     
7PESE                                                                                000000000014000                            
50001910201208032012080600713826033831       PES0000023500A081302012080315040004                                                
6024600023500122210071382603383100055000042                                                                                     
7PESE                                                                                000000000023500                            
50002010201208032012080600712224023235       PES0000023500A081302012080315040005                                                
6024600023500122210071222402323500055000090                                                                                     
7PESE                                                                                000000000023500                            
50002110201208032012080600714741450683       PES0000008000A112852012080314240052                                                
6024600008000122220071474145068300010000078                                                                                     
7PESE                                                                                000000000008000                            
50002210201208032012080699030136931489       PES0000043000A111372012080317220071                                                
6024600043000122209903013693148900035000336                                                                                     
7PESE                                                                                000000000043000                            
50002310201208032012080617030527446719       PES0000025000A104422012080318130138                                                
6024600025000122221703052744671900050000000                                                                                     
7PESE                                                                                000000000025000                            
50002410201208032012080600540237121756       PES0000026000A085512012080318590223                                                
6024600026000122230054023712175600010000000                                                                                     
7PESE                                                                                000000000026000                            
50002510201208032012080659000810359841       PES0000016000A068722012080311510078                                                
6024600016000122215900081035984100000000057                                                                                     
7PESE                                                                                000000000016000                            
50002610201208032012080600540232631425       PES0000026000A063622012080318590043                                                
6024600026000122230054023263142500010000078                                                                                     
7PESE                                                                                000000000026000                            
50002710201208032012080699030132631425       PES0000043000A063622012080319350060                                                
6024600043000122209903013263142500035000316                                                                                     
7PESE                                                                                000000000043000                            
50002810201208032012080602390332537882       PES0000030000A068912012080316000156                                                
6024600030000122220239033253788200030000063                                                                                     
7PESE                                                                                000000000030000                            
50002910201208032012080699030131344778       PES0000043000A095702012080318450143                                                
6024600043000122209903013134477800035000342                                                                                     
7PESE                                                                                000000000043000                            
50003010201208032012080600540331344778       PES0000026000A095702012080318450144                                                
6024600026000122230054033134477800010000021                                                                                     
7PESE                                                                                000000000026000                            
50003110201208032012080657000227802379       PES0000014000A049942012080316150008                                                
6024600014000122185700022780237900000000016                                                                                     
7PESE                                                                                000000000014000                            
50003210201208032012080600711624532215       PES0000018500A037762012080319010218                                                
6024600018500122160071162453221500105000084                                                                                     
7PESE                                                                                000000000018500                            
50003310201208032012080600711817955416       PES0000018500A037762012080319010219                                                
6024600018500122160071181795541600105000063                                                                                     
7PESE                                                                                000000000018500                            
50003410201208032012080600712237676067       PES0000023500A088612012080315070049                                                
6024600023500122210071223767606700055000099                                                                                     
7PESE                                                                                000000000023500                            
50003510201208032012080657000318544335       PES0000014000A105512012080318460019                                                
6024600014000122195700031854433500000000063                                                                                     
7PESE                                                                                000000000014000                            
50003610201208032012080657000694298452       PES0000014000A105512012080318460020                                                
6024600014000122195700069429845200000000058                                                                                     
7PESE                                                                                000000000014000                            
50003710201208032012080600712814876045       PES0000023500M600732012080310150003                                                
6024600023500122220071281487604500055000036                                                                                     
7PESE                                                                                000000000023500                            
50003810201208032012080617031712886260       PES0000025000M620032012080309390016                                                
6024600025000122191703171288626000050000079                                                                                     
7PESE                                                                                000000000025000                            
50003910201208032012080617031731364437       PES0000025000M620032012080309400017                                                
6024600025000122191703173136443700050000021                                                                                     
7PESE                                                                                000000000025000                            
50004010201208032012080657000224062257       PES0000014000M620062012080318400091                                                
6024600014000122215700022406225700000000000                                                                                     
7PESE                                                                                000000000014000                            
50004110201208032012080659000323186571       PES0000016000M750002012080312340042                                                
6024600016000122225900032318657100000000099                                                                                     
7PESE                                                                                000000000016000                            
50004210201208032012080659001321994463       PES0000016000M750002012080312350043                                                
6024600016000122225900132199446300000000084                                                                                     
7PESE                                                                                000000000016000                            
50004310201208032012080659000323972202       PES0000016000M750002012080312360044                                                
6024600016000122225900032397220200000000036                                                                                     
7PESE                                                                                000000000016000                            
50004410201208042012080659001321624982       PES0000016000A097502012080312390045                                                
6024600016000122235900132162498200000000037                                                                                     
7PESE                                                                                000000000016000                            
50004510201208042012080600712621431734       PES0000023500A073842012080411410123                                                
6024600023500122210071262143173400055000079                                                                                     
7PESE                                                                                000000000023500                            
50004610201208042012080659002318128641       PES0000032000A060582012080412010078                                                
6024600032000122225900231812864100000000021                                                                                     
7PESE                                                                                000000000032000                            
50004710201208042012080600713911704590       PES0000023500A113902012080410400031                                                
6024600023500122220071391170459000055000057                                                                                     
7PESE                                                                                000000000023500                            
50004810201208042012080659001512740510       PES0000016000L070492012080414510692                                                
6024600016000122245900151274051000000000036                                                                                     
7PESE                                                                                000000000016000                            
50004910201208042012080659000713095516       PES0000016000L070492012080414510693                                                
6024600016000122245900071309551600000000058                                                                                     
7PESE                                                                                000000000016000                            
50005010201208042012080659000132189113       PES0000016000A113242012080410460023                                                
6024600016000122205900013218911300000000021                                                                                     
7PESE                                                                                000000000016000                            
50005110201208052012080600712525442368       PES0000023500L070532012080515170971                                                
6024600023500122210071252544236800055000058                                                                                     
7PESE                                                                                000000000023500                            
50005210201208052012080699030136157259       PES0000043000A036192012080516250133                                                
6024600043000122209903013615725900035000500                                                                                     
7PESE                                                                                000000000043000                            
82012080600000100000520000011985000000000000000000000000000000000000000000052                                                   
9201208060000010000052000001198500000000000000000000000000000000000000000000052                                                 
