120120906PAGO FACIL               090060246FABIAN NORBERTO D´ERAMO                                                              
320120906000001FABIAN NORBERTO D´ERAMO                                                                                          
50000110201209052012090699030123723839       PES0000043000M600432012090411490119                                                
6024600043000122519903012372383900035000336                                                                                     
7PESE                                                                                000000000043000                            
50000210201209052012090600714741353322       PES0000009000A097442012090513300021                                                
6024600009000122540071474135332200025000057                                                                                     
7PESE                                                                                000000000009000                            
50000310201209052012090657010139278767       PES0000015000A103902012090511320131                                                
6024600015000122515701013927876700000000042                                                                                     
7PESE                                                                                000000000015000                            
50000410201209052012090657011105382192       PES0000015000A103902012090509460052                                                
6024600015000122545701110538219200000000084                                                                                     
7PESE                                                                                000000000015000                            
50000510201209052012090657011123835807       PES0000015000A103902012090509460053                                                
6024600015000122545701112383580700000000021                                                                                     
7PESE                                                                                000000000015000                            
50000610201209052012090699020235178748       PES0000022000A038142012090520220376                                                
6024600022000122519902023517874800000000021                                                                                     
7PESE                                                                                000000000022000                            
50000710201209052012090699020235592295       PES0000022000A038142012090520220377                                                
6024600022000122519902023559229500000000090                                                                                     
7PESE                                                                                000000000022000                            
50000810201209052012090600711528146238       PES0000029000A076762012090518400101                                                
6024600023500122440071152814623800055007678                                                                                     
7PESE                                                                                000000000029000                            
50000910201209052012090600714331763286       PES0000029000A095462012090511030053                                                
6024600023500122440071433176328600055007515                                                                                     
7PESE                                                                                000000000029000                            
50001010201209052012090600714513638695       PES0000029000A092202012090507520008                                                
6024600023500122440071451363869500055007678                                                                                     
7PESE                                                                                000000000029000                            
50001110201209052012090600540434949488       PES0000026000A100712012090516410185                                                
6024600026000122540054043494948800010000079                                                                                     
7PESE                                                                                000000000026000                            
50001210201209052012090600540436996669       PES0000026000A066812012090509540156                                                
6024600026000122540054043699666900010000078                                                                                     
7PESE                                                                                000000000026000                            
50001310201209052012090600540426562585       PES0000026000A108262012090512070031                                                
6024600026000122560054042656258500010000037                                                                                     
7PESE                                                                                000000000026000                            
50001410201209052012090699040127340271       PES0000029000A085232012090515370049                                                
6024600029000122519904012734027100015000557                                                                                     
7PESE                                                                                000000000029000                            
50001510201209052012090699040137905221       PES0000029000A116272012090513540155                                                
6024600029000122519904013790522100015000579                                                                                     
7PESE                                                                                000000000029000                            
50001610201209052012090600712426941438       PES0000029000A640422012090512330013                                                
6024600029000122550071242694143800035000042                                                                                     
7PESE                                                                                000000000029000                            
50001710201209052012090600712717632022       PES0000029000A010922012090513340025                                                
6024600029000122550071271763202200035000057                                                                                     
7PESE                                                                                000000000029000                            
50001810201209052012090600712911825720       PES0000029000A621102012090508480016                                                
6024600029000122550071291182572000035000000                                                                                     
7PESE                                                                                000000000029000                            
50001910201209052012090600714514499127       PES0000029000M620102012090510180014                                                
6024600029000122550071451449912700035000036                                                                                     
7PESE                                                                                000000000029000                            
50002010201209052012090600714326927930       PES0000029000A020722012090515450045                                                
6024600029000122560071432692793000035000084                                                                                     
7PESE                                                                                000000000029000                            
50002110201209052012090617030128015905       PES0000030000A042632012090510190014                                                
6024600030000122551703012801590500000000084                                                                                     
7PESE                                                                                000000000030000                            
50002210201209052012090600723733221480       PES0000031000M600892012090516130190                                                
6024600031000122490072373322148000040000684                                                                                     
7PESE                                                                                000000000031000                            
50002310201209052012090600723821988063       PES0000031000A093192012090516540057                                                
6024600031000122490072382198806300040000642                                                                                     
7PESE                                                                                000000000031000                            
50002410201209052012090600720423903579       PES0000042000A092152012090510460121                                                
6024600042000122490072042390357900045000521                                                                                     
7PESE                                                                                000000000042000                            
50002510201209052012090600720424515512       PES0000042000A088622012090513320234                                                
6024600042000122490072042451551200045000715                                                                                     
7PESE                                                                                000000000042000                            
50002610201209052012090600720424913443       PES0000042000A086812012090515560084                                                
6024600042000122490072042491344300045000721                                                                                     
7PESE                                                                                000000000042000                            
50002710201209052012090600720521433416       PES0000042000A070632012090517010065                                                
6024600042000122490072052143341600045000721                                                                                     
7PESE                                                                                000000000042000                            
50002810201209052012090600720523102924       PES0000042000A090572012090512500082                                                
6024600042000122490072052310292400045000137                                                                                     
7PESE                                                                                000000000042000                            
50002910201209052012090600720523129377       PES0000042000A077352012090515330254                                                
6024600042000122490072052312937700045000721                                                                                     
7PESE                                                                                000000000042000                            
50003010201209052012090600720618287000       PES0000042000A048292012090519330064                                                
6024600042000122490072061828700000045000716                                                                                     
7PESE                                                                                000000000042000                            
50003110201209052012090699030131925405       PES0000043000A088622012090511290126                                                
6024600043000122509903013192540500035000000                                                                                     
7PESE                                                                                000000000043000                            
50003210201209052012090699030126562585       PES0000043000A108262012090512060030                                                
6024600043000122519903012656258500035000515                                                                                     
7PESE                                                                                000000000043000                            
50003310201209052012090699030129921135       PES0000043000M600202012090513320088                                                
6024600043000122519903012992113500035000484                                                                                     
7PESE                                                                                000000000043000                            
50003410201209052012090699030131773438       PES0000043000A109712012090511230125                                                
6024600043000122519903013177343800035000436                                                                                     
7PESE                                                                                000000000043000                            
50003510201209052012090699030134949488       PES0000043000A100712012090516410184                                                
6024600043000122519903013494948800035000378                                                                                     
7PESE                                                                                000000000043000                            
50003610201209052012090699030136996669       PES0000043000A066812012090509540157                                                
6024600043000122519903013699666900035000363                                                                                     
7PESE                                                                                000000000043000                            
50003710201209052012090601320616335987       PES0000045000M613622012090517360203                                                
6024600045000122490132061633598700050000078                                                                                     
7PESE                                                                                000000000045000                            
50003810201209052012090601320713323302       PES0000045000A068722012090519360239                                                
6024600045000122500132071332330200050000084                                                                                     
7PESE                                                                                000000000045000                            
50003910201209052012090601320811220033       PES0000045000A078732012090509160005                                                
6024600045000122530132081122003300050000063                                                                                     
7PESE                                                                                000000000045000                            
50004010201209052012090601320327263883       PES0000045000A620812012090509320076                                                
6024600045000122540132032726388300050000036                                                                                     
7PESE                                                                                000000000045000                            
50004110201209052012090601320425118549       PES0000045000L071512012090516580701                                                
6024600045000122550132042511854900050000000                                                                                     
7PESE                                                                                000000000045000                            
50004210201209052012090601320712536889       PES0000045000A110152012090514280253                                                
6024600045000122560132071253688900050000084                                                                                     
7PESE                                                                                000000000045000                            
50004310201209052012090601320716161034       PES0000045000A111392012090518440060                                                
6024600045000122560132071616103400050000042                                                                                     
7PESE                                                                                000000000045000                            
50004410201209052012090600540129921135       PES0000076000M600202012090513310087                                                
6024600076000122550054012992113500000000078                                                                                     
7PESE                                                                                000000000076000                            
82012090600000100000440000015440000000000000000000000000000000000000000000044                                                   
9201209060000010000044000001544000000000000000000000000000000000000000000000044                                                 
