120120706PAGO FACIL               090060246FABIAN NORBERTO D´ERAMO                                                              
320120706000001FABIAN NORBERTO D´ERAMO                                                                                          
50000110201207052012070657001229317510       PES0000013000A113862012070511400035                                                
6024600013000121875700122931751000010000079                                                                                     
7PESE                                                                                000000000013000                            
50000210201207052012070659000517381389       PES0000016000M750002012070510320019                                                
6024600016000121935900051738138900000000036                                                                                     
7PESE                                                                                000000000016000                            
50000310201207052012070699040130334113       PES0000029000A086982012070518490155                                                
6024600029000121899904013033411300015000542                                                                                     
7PESE                                                                                000000000029000                            
50000410201207052012070699040133259978       PES0000029000A089882012070510540136                                                
6024600029000121899904013325997800015000563                                                                                     
7PESE                                                                                000000000029000                            
50000510201207052012070699040134430590       PES0000029000A089882012070510540137                                                
6024600029000121899904013443059000015000521                                                                                     
7PESE                                                                                000000000029000                            
50000610201207052012070699040137846112       PES0000029000A601932012070511240146                                                
6024600029000121899904013784611200015000500                                                                                     
7PESE                                                                                000000000029000                            
50000710201207052012070699030129064453       PES0000043000D001602012070511410124                                                
6024600043000121899903012906445300035000237                                                                                     
7PESE                                                                                000000000043000                            
50000810201207052012070699030131773438       PES0000043000L020332012070513279636                                                
6024600043000121899903013177343800035000478                                                                                     
7PESE                                                                                000000000043000                            
82012070600000100000080000002310000000000000000000000000000000000000000000008                                                   
9201207060000010000008000000231000000000000000000000000000000000000000000000008                                                 
