120110907PAGO FACIL               090060246FABIAN NORBERTO D´ERAMO                                                              
320110907000001FABIAN NORBERTO D´ERAMO                                                                                          
50000110201109062011090798020227919780       PES0000015000A007192011090610350149                                                
6024600015000112509802022791978000015000221                                                                                     
7PESE                                                                                000000000015000                            
50000210201109062011090700540437483073       PES0000017500A092052011090615240498                                                
6024600017500112540054043748307300015000057                                                                                     
7PESE                                                                                000000000017500                            
50000310201109062011090700540336087988       PES0000019000A103582011090612270210                                                
6024600019000112550054033608798800015000063                                                                                     
7PESE                                                                                000000000019000                            
50000410201109062011090717021008112040       PES0000020000A077712011090611370050                                                
6024600020000112511702100811204000000000063                                                                                     
7PESE                                                                                000000000020000                            
50000510201109062011090799040124361506       PES0000023500A009932011090618380072                                                
6024600023500112509904012436150600015000500                                                                                     
7PESE                                                                                000000000023500                            
50000610201109062011090700502618108182       PES0000024500A077792011090616330071                                                
6024600024500112510050261810818200030000036                                                                                     
7PESE                                                                                000000000024500                            
50000710201109062011090700504514774151       PES0000024500A091882011090613420335                                                
6024600024500112530050451477415100030000000                                                                                     
7PESE                                                                                000000000024500                            
50000810201109062011090700502139120633       PES0000024500A083262011090617140224                                                
6024600024500112560050213912063300030000099                                                                                     
7PESE                                                                                000000000024500                            
50000910201109062011090700502426728873       PES0000024500A092352011090612580035                                                
6024600024500112560050242672887300030000016                                                                                     
7PESE                                                                                000000000024500                            
50001010201109062011090799030236360655       PES0000030100A082952011090619190278                                                
6024600030100112509903023636065500030100663                                                                                     
7PESE                                                                                000000000030100                            
50001110201109062011090799030216975364       PES0000035000A081572011090613070058                                                
6024600035000112509903021697536400035000237                                                                                     
7PESE                                                                                000000000035000                            
50001210201109062011090799030229118464       PES0000035000A042822011090613450172                                                
6024600035000112509903022911846400035000621                                                                                     
7PESE                                                                                000000000035000                            
50001310201109062011090799030231075840       PES0000035000A072152011090615420088                                                
6024600035000112509903023107584000035000684                                                                                     
7PESE                                                                                000000000035000                            
50001410201109062011090799030234142652       PES0000035000A057612011090618230048                                                
6024600035000112509903023414265200035000599                                                                                     
7PESE                                                                                000000000035000                            
50001510201109062011090799030234430590       PES0000035000A097302011090615520128                                                
6024600035000112509903023443059000035000642                                                                                     
7PESE                                                                                000000000035000                            
50001610201109062011090799030234515650       PES0000035000A038672011090618570030                                                
6024600035000112509903023451565000035000663                                                                                     
7PESE                                                                                000000000035000                            
50001710201109062011090799030236087988       PES0000035000A103582011090612280211                                                
6024600035000112509903023608798800035000578                                                                                     
7PESE                                                                                000000000035000                            
50001810201109062011090799030236529254       PES0000035000D001432011090617160017                                                
6024600035000112509903023652925400035000337                                                                                     
7PESE                                                                                000000000035000                            
50001910201109062011090799030236943330       PES0000035000A088552011090614190013                                                
6024600035000112509903023694333000035000658                                                                                     
7PESE                                                                                000000000035000                            
50002010201109062011090799030237483073       PES0000035000A092052011090615240499                                                
6024600035000112509903023748307300035000458                                                                                     
7PESE                                                                                000000000035000                            
50002110201109062011090799030293925151       PES0000035000M600132011090614540476                                                
6024600035000112509903029392515100035000442                                                                                     
7PESE                                                                                000000000035000                            
50002210201109062011090701281326949442       PES0000036500A099242011090610550012                                                
6024600036500112490128132694944200000000078                                                                                     
7PESE                                                                                000000000036500                            
50002310201109062011090701280326540300       PES0000036500L071122011090612493648                                                
6024600036500112500128032654030000000000058                                                                                     
7PESE                                                                                000000000036500                            
50002410201109062011090701280520167362       PES0000036500M620032011090610420037                                                
6024600036500112500128052016736200000000015                                                                                     
7PESE                                                                                000000000036500                            
50002510201109062011090701280617212947       PES0000036500A091082011090609300025                                                
6024600036500112500128061721294700000000090                                                                                     
7PESE                                                                                000000000036500                            
50002610201109062011090701282132381871       PES0000036500A081582011090611000130                                                
6024600036500112520128213238187100000000042                                                                                     
7PESE                                                                                000000000036500                            
50002710201109062011090701280132928918       PES0000036500D000792011090612570304                                                
6024600036500112540128013292891800000000016                                                                                     
7PESE                                                                                000000000036500                            
50002810201109062011090701280228741842       PES0000036500A042592011090608060003                                                
6024600036500112550128022874184200000000042                                                                                     
7PESE                                                                                000000000036500                            
50002910201109062011090701280810377835       PES0000036500M601612011090616080308                                                
6024600036500112550128081037783500000000084                                                                                     
7PESE                                                                                000000000036500                            
50003010201109062011090700530714431708       PES0000038500A023702011090618200228                                                
6024600038500112550053071443170800010000000                                                                                     
7PESE                                                                                000000000038500                            
82011090700000100000300000009386000000000000000000000000000000000000000000030                                                   
9201109070000010000030000000938600000000000000000000000000000000000000000000030                                                 
