120130207PAGO FACIL               090060246FABIAN NORBERTO D´ERAMO                                                              
320130207000001FABIAN NORBERTO D´ERAMO                                                                                          
50000110201302062013020773010631769741       PES0000012000M660002013020417570257                                                
6024600012000130357301063176974100020000478                                                                                     
7PESE                                                                                000000000012000                            
50000210201302062013020702432241213381       PES0000030000A116962013020514500043                                                
6024600030000130360243224121338100050000679                                                                                     
7PESE                                                                                000000000030000                            
50000310201302062013020702430522840928       PES0000040000M620412013020511490015                                                
6024600040000130360243052284092800075000678                                                                                     
7PESE                                                                                000000000040000                            
50000410201302062013020702431424618169       PES0000040000M620142013020511310037                                                
6024600040000130360243142461816900075000784                                                                                     
7PESE                                                                                000000000040000                            
50000510201302062013020729090729805179       PES0000015000M602002013020513560101                                                
6024600015000130382909072980517900000000037                                                                                     
7PESE                                                                                000000000015000                            
50000610201302062013020729091130379034       PES0000025000M620022013020511050034                                                
6024600025000130382909113037903400000000079                                                                                     
7PESE                                                                                000000000025000                            
50000710201302062013020729091226775824       PES0000025000M620022013020511170036                                                
6024600025000130382909122677582400000000000                                                                                     
7PESE                                                                                000000000025000                            
50000810201302062013020701341618287000       PES0000135000M600212013020512530138                                                
6024600135000130360134161828700000150000042                                                                                     
7PESE                                                                                000000000135000                            
50000910201302062013020773010825356364       PES0000014000M660032013020512400288                                                
6024600014000130397301082535636400000000084                                                                                     
7PESE                                                                                000000000014000                            
50001010201302062013020788880000000097       PES0000001500D000332013020610480098                                                
6024600001500130378888000000009700000000042                                                                                     
7PESE                                                                                000000000001500                            
50001110201302062013020773010922521555       PES0000012000A079852013020618270056                                                
6024600010000130287301092252155500020007621                                                                                     
7PESE                                                                                000000000012000                            
50001210201302062013020773010140403116       PES0000014000M660112013020610180032                                                
6024600012000130357301014040311600020000442                                                                                     
7PESE                                                                                000000000014000                            
50001310201302062013020773010231735897       PES0000014000A660392013020609420052                                                
6024600012000130357301023173589700020000421                                                                                     
7PESE                                                                                000000000014000                            
50001410201302062013020773011432239091       PES0000012000A095712013020617260052                                                
6024600012000130397301143223909100000000084                                                                                     
7PESE                                                                                000000000012000                            
50001510201302062013020773010231222890       PES0000014000A119612013020613230069                                                
6024600014000130397301023122289000000000021                                                                                     
7PESE                                                                                000000000014000                            
50001610201302062013020773010324777923       PES0000014000A720102013020610390007                                                
6024600014000130397301032477792300000000042                                                                                     
7PESE                                                                                000000000014000                            
50001710201302062013020773010536186184       PES0000014000M660152013020612080040                                                
6024600014000130397301053618618400000000078                                                                                     
7PESE                                                                                000000000014000                            
50001810201302062013020773010631053522       PES0000014000A076052013020605380030                                                
6024600014000130397301063105352200000000016                                                                                     
7PESE                                                                                000000000014000                            
50001910201302062013020773010631356290       PES0000014000A087252013020619590314                                                
6024600014000130397301063135629000000000084                                                                                     
7PESE                                                                                000000000014000                            
50002010201302062013020773011017509945       PES0000014000A060492013020621590393                                                
6024600014000130397301101750994500000000021                                                                                     
7PESE                                                                                000000000014000                            
50002110201302062013020729090131383807       PES0000015000A074252013020612450079                                                
6024600015000130382909013138380700000000079                                                                                     
7PESE                                                                                000000000015000                            
50002210201302062013020729090223337200       PES0000015000M620732013020610440076                                                
6024600015000130382909022333720000000000021                                                                                     
7PESE                                                                                000000000015000                            
50002310201302062013020729090224722165       PES0000015000A114492013020611040013                                                
6024600015000130382909022472216500000000000                                                                                     
7PESE                                                                                000000000015000                            
50002410201302062013020729090228076781       PES0000015000A075022013020613070022                                                
6024600015000130382909022807678100000000042                                                                                     
7PESE                                                                                000000000015000                            
50002510201302062013020729090229279668       PES0000015000A048422013020618000027                                                
6024600015000130382909022927966800000000021                                                                                     
7PESE                                                                                000000000015000                            
50002610201302062013020729090412906477       PES0000015000A092352013020616300077                                                
6024600015000130382909041290647700000000042                                                                                     
7PESE                                                                                000000000015000                            
50002710201302062013020729090413689296       PES0000015000M640102013020609300020                                                
6024600015000130382909041368929600000000063                                                                                     
7PESE                                                                                000000000015000                            
50002810201302062013020729090416260118       PES0000015000A075232013020616200087                                                
6024600015000130382909041626011800000000063                                                                                     
7PESE                                                                                000000000015000                            
50002910201302062013020729090725031936       PES0000015000A071132013020609560026                                                
6024600015000130382909072503193600000000090                                                                                     
7PESE                                                                                000000000015000                            
50003010201302062013020729090726693746       PES0000015000A107842013020611210191                                                
6024600015000130382909072669374600000000079                                                                                     
7PESE                                                                                000000000015000                            
50003110201302062013020729090820892500       PES0000015000A023312013020612410001                                                
6024600015000130382909082089250000000000021                                                                                     
7PESE                                                                                000000000015000                            
50003210201302062013020729091224650087       PES0000025000A032972013020618340128                                                
6024600025000130382909122465008700000000079                                                                                     
7PESE                                                                                000000000025000                            
50003310201302062013020729091227535718       PES0000025000A080372013020614160178                                                
6024600025000130382909122753571800000000058                                                                                     
7PESE                                                                                000000000025000                            
50003410201302062013020729091414673038       PES0000025000A036192013020612060305                                                
6024600025000130382909141467303800000000090                                                                                     
7PESE                                                                                000000000025000                            
50003510201302062013020799030129708493       PES0000028500A113312013020609430043                                                
6024600028500130389903012970849300021000663                                                                                     
7PESE                                                                                000000000028500                            
50003610201302062013020702430231477915       PES0000047500A038212013020611200062                                                
6024600040000130360243023147791500075000658                                                                                     
7PESE                                                                                000000000047500                            
50003710201302062013020788890000000289       PES0000047500A121942013020614360120                                                
6024600047500130378889000000028900000000158                                                                                     
7PESE                                                                                000000000047500                            
50003810201302062013020799030129247865       PES0000047500A093092013020617400057                                                
6024600047500130389903012924786500035000636                                                                                     
7PESE                                                                                000000000047500                            
50003910201302062013020799030136157259       PES0000047500A105602013020613280268                                                
6024600047500130389903013615725900035000484                                                                                     
7PESE                                                                                000000000047500                            
50004010201302062013020799030137461688       PES0000047500L070292013020613369658                                                
6024600047500130389903013746168800035000663                                                                                     
7PESE                                                                                000000000047500                            
50004110201302062013020702430329033388       PES0000047500A110382013020612060151                                                
6024600047500130440243032903338800000000099                                                                                     
7PESE                                                                                000000000047500                            
50004210201302062013020702430423356433       PES0000047500A061432013020616430108                                                
6024600047500130440243042335643300000000099                                                                                     
7PESE                                                                                000000000047500                            
50004310201302062013020702430521416648       PES0000047500A061432013020616430107                                                
6024600047500130440243052141664800000000078                                                                                     
7PESE                                                                                000000000047500                            
50004410201302062013020702431327420185       PES0000047500A116502013020620540229                                                
6024600047500130440243132742018500000000084                                                                                     
7PESE                                                                                000000000047500                            
50004510201302062013020701340425615310       PES0000135000A024432013020613020128                                                
6024600135000130370134042561531000150000099                                                                                     
7PESE                                                                                000000000135000                            
50004610201302062013020701341424019770       PES0000135000M790002013020613160348                                                
6024600135000130370134142401977000150000084                                                                                     
7PESE                                                                                000000000135000                            
50004710201302062013020701341426080563       PES0000135000A056902013020611030018                                                
6024600135000130380134142608056300150000042                                                                                     
7PESE                                                                                000000000135000                            
50004810201302062013020701341811893460       PES0000135000A092232013020615580375                                                
6024600135000130390134181189346000150000063                                                                                     
7PESE                                                                                000000000135000                            
50004910201302062013020701341327652697       PES0000135000A055532013020616270028                                                
6024600135000130410134132765269700150000363                                                                                     
7PESE                                                                                000000000135000                            
50005010201302062013020701341425732324       PES0000135000A007972013020613540088                                                
6024600135000130410134142573232400150000216                                                                                     
7PESE                                                                                000000000135000                            
50005110201302062013020701341426603008       PES0000135000A110442013020616100087                                                
6024600135000130410134142660300800150000379                                                                                     
7PESE                                                                                000000000135000                            
50005210201302062013020701341521004148       PES0000135000A034672013020618500180                                                
6024600135000130410134152100414800150000158                                                                                     
7PESE                                                                                000000000135000                            
50005310201302062013020701341522743468       PES0000135000A021692013020616160007                                                
6024600135000130410134152274346800150000137                                                                                     
7PESE                                                                                000000000135000                            
50005410201302062013020701341617181652       PES0000135000A038092013020611420081                                                
6024600135000130410134161718165200150000384                                                                                     
7PESE                                                                                000000000135000                            
50005510201302062013020701341713192358       PES0000135000A091652013020614210372                                                
6024600135000130410134171319235800150000278                                                                                     
7PESE                                                                                000000000135000                            
82013020700000100000550000026545000000000000000000000000000000000000000000055                                                   
9201302070000010000055000002654500000000000000000000000000000000000000000000055                                                 
