120120507PAGO FACIL               090060246FABIAN NORBERTO D´ERAMO                                                              
320120507000001FABIAN NORBERTO D´ERAMO                                                                                          
50000110201205042012050799030229064453       PES0000043000A009132012050409300041                                                
6024600043000121289903022906445300035000342                                                                                     
7PESE                                                                                000000000043000                            
50000210201205042012050799030229399057       PES0000043000A099622012050409510016                                                
6024600043000121289903022939905700035000358                                                                                     
7PESE                                                                                000000000043000                            
50000310201205042012050799030230743301       PES0000043000A092732012050408470009                                                
6024600043000121289903023074330100035000321                                                                                     
7PESE                                                                                000000000043000                            
50000410201205042012050799030133897409       PES0000037000A065222012050413520090                                                
6024600037000121289903013389740900035000437                                                                                     
7PESE                                                                                000000000037000                            
50000510201205042012050799030233104324       PES0000043000A064852012050413210353                                                
6024600043000121289903023310432400035000278                                                                                     
7PESE                                                                                000000000043000                            
50000610201205042012050799030234949488       PES0000043000A100712012050414010186                                                
6024600043000121289903023494948800035000416                                                                                     
7PESE                                                                                000000000043000                            
50000710201205042012050799030127340271       PES0000037000A085232012050414340211                                                
6024600037000121289903012734027100035000457                                                                                     
7PESE                                                                                000000000037000                            
50000810201205042012050799030223723839       PES0000043000A600432012050413510142                                                
6024600043000121289903022372383900035000479                                                                                     
7PESE                                                                                000000000043000                            
50000910201205042012050799030233434151       PES0000043000A081272012050412140098                                                
6024600043000121289903023343415100035000300                                                                                     
7PESE                                                                                000000000043000                            
50001010201205042012050799030137483073       PES0000037000A092052012050410120070                                                
6024600037000121289903013748307300035000290                                                                                     
7PESE                                                                                000000000037000                            
50001110201205042012050799040118893421       PES0000029000A092232012050417140397                                                
6024600029000121289904011889342100015000390                                                                                     
7PESE                                                                                000000000029000                            
50001210201205042012050799030135367974       PES0000037000A099242012050418080110                                                
6024600037000121289903013536797400035000484                                                                                     
7PESE                                                                                000000000037000                            
50001310201205042012050799030213120167       PES0000043000A056262012050417500304                                                
6024600043000121289903021312016700035000421                                                                                     
7PESE                                                                                000000000043000                            
50001410201205042012050799030234929847       PES0000043000A090722012050417440078                                                
6024600043000121289903023492984700035000321                                                                                     
7PESE                                                                                000000000043000                            
50001510201205042012050799030236991781       PES0000036550A113032012050414160107                                                
6024600036550121289903023699178100030250363                                                                                     
7PESE                                                                                000000000036550                            
50001610201205042012050799040130663025       PES0000029000A001602012050417230116                                                
6024600029000121289904013066302500015000458                                                                                     
7PESE                                                                                000000000029000                            
50001710201205042012050799030234984988       PES0000043000L120232012050410390659                                                
6024600043000121289903023498498800035000463                                                                                     
7PESE                                                                                000000000043000                            
50001810201205052012050799030136399286       PES0000037000A072612012050511060035                                                
6024600037000121289903013639928600035000257                                                                                     
7PESE                                                                                000000000037000                            
50001910201205052012050799020136692910       PES0000019000A060602012050509530098                                                
6024600019000121289902013669291000000000237                                                                                     
7PESE                                                                                000000000019000                            
50002010201205052012050799040130334113       PES0000029000A063662012050513180312                                                
6024600029000121289904013033411300015000584                                                                                     
7PESE                                                                                000000000029000                            
50002110201205052012050799030237461688       PES0000043000A083222012050517310051                                                
6024600043000121289903023746168800035000578                                                                                     
7PESE                                                                                000000000043000                            
50002210201205052012050702360232973165       PES0000025000A075282012050519390070                                                
6024600025000121270236023297316500050000099                                                                                     
7PESE                                                                                000000000025000                            
50002310201205052012050799040110849285       PES0000029000D000402012050519100260                                                
6024600029000121289904011084928500015000321                                                                                     
7PESE                                                                                000000000029000                            
50002410201205062012050799040132166545       PES0000029000D000502012050618190186                                                
6024600029000121289904013216654500015000436                                                                                     
7PESE                                                                                000000000029000                            
82012050700000100000240000008835500000000000000000000000000000000000000000024                                                   
9201205070000010000024000000883550000000000000000000000000000000000000000000024                                                 
