120120607PAGO FACIL               090060246FABIAN NORBERTO D´ERAMO                                                              
320120607000001FABIAN NORBERTO D´ERAMO                                                                                          
50000110201206062012060798020135732304       PES0000015000A081572012060611170110                                                
6024600015000121599802013573230400010000542                                                                                     
7PESE                                                                                000000000015000                            
50000210201206062012060702373338407880       PES0000017000A017262012060612520159                                                
6024600017000121620237333840788000030000315                                                                                     
7PESE                                                                                000000000017000                            
50000310201206062012060799020231727624       PES0000022000A082642012060616060016                                                
6024600022000121599902023172762400000000642                                                                                     
7PESE                                                                                000000000022000                            
50000410201206062012060799020236692910       PES0000022000A038142012060616300126                                                
6024600022000121599902023669291000000000400                                                                                     
7PESE                                                                                000000000022000                            
50000510201206062012060799020236801243       PES0000022000A056872012060613270391                                                
6024600022000121599902023680124300000000515                                                                                     
7PESE                                                                                000000000022000                            
50000610201206062012060702370523146685       PES0000025000A099522012060619040059                                                
6024600025000121620237052314668500050000300                                                                                     
7PESE                                                                                000000000025000                            
50000710201206062012060702370620384882       PES0000025000D000572012060616430248                                                
6024600025000121620237062038488200050000100                                                                                     
7PESE                                                                                000000000025000                            
50000810201206062012060702372825977215       PES0000025000A067782012060619410153                                                
6024600025000121620237282597721500050000215                                                                                     
7PESE                                                                                000000000025000                            
50000910201206062012060799040110849285       PES0000029000A051152012060615160007                                                
6024600029000121599904011084928500015000542                                                                                     
7PESE                                                                                000000000029000                            
50001010201206062012060799040130663025       PES0000029000A001632012060619530185                                                
6024600029000121599904013066302500015000679                                                                                     
7PESE                                                                                000000000029000                            
50001110201206062012060799040135989576       PES0000029000M601132012060614190284                                                
6024600029000121599904013598957600015000636                                                                                     
7PESE                                                                                000000000029000                            
50001210201206062012060799030236991781       PES0000036550A016702012060618110164                                                
6024600036550121599903023699178100030250584                                                                                     
7PESE                                                                                000000000036550                            
50001310201206062012060799030103729571       PES0000037000A046792012060610030035                                                
6024600037000121599903010372957100035000542                                                                                     
7PESE                                                                                000000000037000                            
50001410201206062012060799030116975364       PES0000037000A081572012060611170112                                                
6024600037000121599903011697536400035000500                                                                                     
7PESE                                                                                000000000037000                            
50001510201206062012060799030127340271       PES0000037000A063922012060611270031                                                
6024600037000121599903012734027100035000537                                                                                     
7PESE                                                                                000000000037000                            
50001610201206062012060799030131075840       PES0000037000A071022012060614070087                                                
6024600037000121599903013107584000035000478                                                                                     
7PESE                                                                                000000000037000                            
50001710201206062012060799030133912987       PES0000037000M600822012060612110136                                                
6024600037000121599903013391298700035000421                                                                                     
7PESE                                                                                000000000037000                            
50001810201206062012060799030133914097       PES0000037000A094052012060615240018                                                
6024600037000121599903013391409700035000678                                                                                     
7PESE                                                                                000000000037000                            
50001910201206062012060799030134617181       PES0000037000A084182012060613540045                                                
6024600037000121599903013461718100035000658                                                                                     
7PESE                                                                                000000000037000                            
50002010201206062012060799030134722750       PES0000037000A094932012060617010070                                                
6024600037000121599903013472275000035000457                                                                                     
7PESE                                                                                000000000037000                            
50002110201206062012060799030193925151       PES0000037000A112842012060617150037                                                
6024600037000121599903019392515100035000679                                                                                     
7PESE                                                                                000000000037000                            
50002210201206062012060799030223723839       PES0000043000D001472012060614270333                                                
6024600043000121599903022372383900035000421                                                                                     
7PESE                                                                                000000000043000                            
50002310201206062012060799030229247865       PES0000043000A091602012060613590275                                                
6024600043000121599903022924786500035000599                                                                                     
7PESE                                                                                000000000043000                            
50002410201206062012060799030230515091       PES0000043000A098562012060611030020                                                
6024600043000121599903023051509100035000642                                                                                     
7PESE                                                                                000000000043000                            
50002510201206062012060799030231773438       PES0000043000A109712012060611300120                                                
6024600043000121599903023177343800035000358                                                                                     
7PESE                                                                                000000000043000                            
50002610201206062012060799030233313046       PES0000043000A081582012060616040076                                                
6024600043000121599903023331304600035000157                                                                                     
7PESE                                                                                000000000043000                            
50002710201206062012060799030233434151       PES0000043000A081272012060610560016                                                
6024600043000121599903023343415100035000521                                                                                     
7PESE                                                                                000000000043000                            
50002810201206062012060799030236931489       PES0000043000A111372012060617430121                                                
6024600043000121599903023693148900035000642                                                                                     
7PESE                                                                                000000000043000                            
82012060700000100000280000009305500000000000000000000000000000000000000000028                                                   
9201206070000010000028000000930550000000000000000000000000000000000000000000028                                                 
