120120207PAGO FACIL               090060246FABIAN NORBERTO D´ERAMO                                                              
320120207000001FABIAN NORBERTO D´ERAMO                                                                                          
50000110201202062012020723060839353492       PES0000121600A043122012020409540010                                                
6024600121600120412306083935349200000000058                                                                                     
7PESE                                                                                000000000121600                            
50000210201202062012020723060816618707       PES0000121600A043122012020409540011                                                
6024600121600120412306081661870700000000090                                                                                     
7PESE                                                                                000000000121600                            
50000310201202062012020700650438700928       PES0000014000A100262012020615520080                                                
6024600014000120410065043870092800000000058                                                                                     
7PESE                                                                                000000000014000                            
50000410201202062012020718373126477942       PES0000020000A110382012020611410147                                                
6024600020000120401837312647794200000000063                                                                                     
7PESE                                                                                000000000020000                            
50000510201202062012020700600422596546       PES0000029000A057532012020611520211                                                
6024600029000120440060042259654600000000021                                                                                     
7PESE                                                                                000000000029000                            
50000610201202062012020799030229118464       PES0000037000A042822012020609470030                                                
6024600037000120389903022911846400035000678                                                                                     
7PESE                                                                                000000000037000                            
50000710201202062012020799030234142652       PES0000037000A057612012020613420193                                                
6024600037000120389903023414265200035000678                                                                                     
7PESE                                                                                000000000037000                            
50000810201202062012020799030236943330       PES0000037000A088552012020611050139                                                
6024600037000120389903023694333000035000600                                                                                     
7PESE                                                                                000000000037000                            
50000910201202062012020701310493608764       PES0000097000A092162012020611150181                                                
6024600097000120390131049360876400000000058                                                                                     
7PESE                                                                                000000000097000                            
50001010201202062012020701310520822317       PES0000097000M640062012020609360167                                                
6024600097000120390131052082231700000000099                                                                                     
7PESE                                                                                000000000097000                            
50001110201202062012020701310617130514       PES0000097000L070532012020618411020                                                
6024600097000120390131061713051400000000063                                                                                     
7PESE                                                                                000000000097000                            
50001210201202062012020701311230810151       PES0000097000A071692012020617270038                                                
6024600097000120390131123081015100000000099                                                                                     
7PESE                                                                                000000000097000                            
50001310201202062012020701311326244066       PES0000097000A071692012020617270037                                                
6024600097000120390131132624406600000000078                                                                                     
7PESE                                                                                000000000097000                            
50001410201202062012020701311422476445       PES0000097000D001462012020611040167                                                
6024600097000120390131142247644500000000016                                                                                     
7PESE                                                                                000000000097000                            
50001510201202062012020701311422614803       PES0000097000A080692012020613480082                                                
6024600097000120390131142261480300000000090                                                                                     
7PESE                                                                                000000000097000                            
50001610201202062012020701311518361628       PES0000097000M640032012020611370085                                                
6024600097000120390131151836162800000000090                                                                                     
7PESE                                                                                000000000097000                            
50001710201202062012020701311518484957       PES0000097000A093992012020612250089                                                
6024600097000120390131151848495700000000021                                                                                     
7PESE                                                                                000000000097000                            
50001810201202062012020701311520012496       PES0000097000A068912012020612330226                                                
6024600097000120390131152001249600000000000                                                                                     
7PESE                                                                                000000000097000                            
50001910201202062012020701311520359526       PES0000097000M640032012020611370086                                                
6024600097000120390131152035952600000000036                                                                                     
7PESE                                                                                000000000097000                            
50002010201202062012020701311520955061       PES0000097000A063662012020611130179                                                
6024600097000120390131152095506100000000099                                                                                     
7PESE                                                                                000000000097000                            
50002110201202062012020701311521721543       PES0000097000A071692012020617270039                                                
6024600097000120390131152172154300000000037                                                                                     
7PESE                                                                                000000000097000                            
50002210201202062012020701311522598249       PES0000097000L120212012020609090720                                                
6024600097000120390131152259824900000000084                                                                                     
7PESE                                                                                000000000097000                            
50002310201202062012020701311614973432       PES0000097000L070532012020618411021                                                
6024600097000120390131161497343200000000000                                                                                     
7PESE                                                                                000000000097000                            
50002410201202062012020701311617673761       PES0000097000A060572012020611380123                                                
6024600097000120390131161767376100000000042                                                                                     
7PESE                                                                                000000000097000                            
50002510201202062012020701311229858651       PES0000097000A102372012020611530045                                                
6024600097000120400131122985865100000000090                                                                                     
7PESE                                                                                000000000097000                            
50002610201202062012020701311423299272       PES0000097000D000492012020610550076                                                
6024600097000120400131142329927200000000090                                                                                     
7PESE                                                                                000000000097000                            
50002710201202062012020701311425069174       PES0000097000A092132012020613450057                                                
6024600097000120430131142506917400000000021                                                                                     
7PESE                                                                                000000000097000                            
50002810201202062012020701311521407297       PES0000097000A054832012020609590098                                                
6024600097000120430131152140729700000000058                                                                                     
7PESE                                                                                000000000097000                            
50002910201202062012020701311617017845       PES0000097000A074942012020613410010                                                
6024600097000120440131161701784500000000078                                                                                     
7PESE                                                                                000000000097000                            
50003010201202062012020723060127466485       PES0000121600A096712012020620390333                                                
6024600121600120422306012746648500000000000                                                                                     
7PESE                                                                                000000000121600                            
50003110201202062012020723061233788949       PES0000136600A074942012020615160078                                                
6024600136600120412306123378894900000000042                                                                                     
7PESE                                                                                000000000136600                            
82012020700000100000310000027124000000000000000000000000000000000000000000031                                                   
9201202070000010000031000002712400000000000000000000000000000000000000000000031                                                 
