120120807PAGO FACIL               090060246FABIAN NORBERTO D´ERAMO                                                              
320120807000001FABIAN NORBERTO D´ERAMO                                                                                          
50000110201208062012080757001321504378       PES0000014000A103902012080616350336                                                
6024600014000122205700132150437800000000063                                                                                     
7PESE                                                                                000000000014000                            
50000210201208062012080757000226208854       PES0000014000A097712012080617300076                                                
6024600014000122215700022620885400000000084                                                                                     
7PESE                                                                                000000000014000                            
50000310201208062012080757000320734570       PES0000014000A110152012080616380341                                                
6024600014000122215700032073457000000000042                                                                                     
7PESE                                                                                000000000014000                            
50000410201208062012080757001131460122       PES0000014000A110152012080619480032                                                
6024600014000122215700113146012200000000078                                                                                     
7PESE                                                                                000000000014000                            
50000510201208062012080757001132869544       PES0000014000A107732012080614460310                                                
6024600014000122215700113286954400000000057                                                                                     
7PESE                                                                                000000000014000                            
50000610201208062012080757001135829201       PES0000014000A103902012080617490018                                                
6024600014000122215700113582920100000000016                                                                                     
7PESE                                                                                000000000014000                            
50000710201208062012080757001224130459       PES0000014000A107732012080614460311                                                
6024600014000122215700122413045900000000036                                                                                     
7PESE                                                                                000000000014000                            
50000810201208062012080757001225495285       PES0000014000A112852012080614210010                                                
6024600014000122215700122549528500000000000                                                                                     
7PESE                                                                                000000000014000                            
50000910201208062012080757001314742245       PES0000014000A103902012080611300135                                                
6024600014000122215700131474224500000000000                                                                                     
7PESE                                                                                000000000014000                            
50001010201208062012080757001820331203       PES0000014000A110152012080614470288                                                
6024600014000122215700182033120300000000057                                                                                     
7PESE                                                                                000000000014000                            
50001110201208062012080759001224546623       PES0000016000A102102012080612060050                                                
6024600016000122195900122454662300000000084                                                                                     
7PESE                                                                                000000000016000                            
50001210201208062012080759001320049283       PES0000016000A055102012080609150014                                                
6024600016000122195900132004928300000000078                                                                                     
7PESE                                                                                000000000016000                            
50001310201208062012080759001417693728       PES0000016000A065532012080610510041                                                
6024600016000122195900141769372800000000042                                                                                     
7PESE                                                                                000000000016000                            
50001410201208062012080759000421618195       PES0000016000A100022012080611560006                                                
6024600016000122205900042161819500000000058                                                                                     
7PESE                                                                                000000000016000                            
50001510201208062012080759000516547502       PES0000016000A055102012080609150013                                                
6024600016000122205900051654750200000000063                                                                                     
7PESE                                                                                000000000016000                            
50001610201208062012080759001223108599       PES0000016000A100022012080611560005                                                
6024600016000122205900122310859900000000099                                                                                     
7PESE                                                                                000000000016000                            
50001710201208062012080759000318802402       PES0000016000A108472012080610150005                                                
6024600016000122225900031880240200000000021                                                                                     
7PESE                                                                                000000000016000                            
50001810201208062012080759000421071565       PES0000016000A076552012080614380208                                                
6024600016000122265900042107156500000000079                                                                                     
7PESE                                                                                000000000016000                            
50001910201208062012080798020216975364       PES0000018500A081572012080611200068                                                
6024600018500122209802021697536400010000321                                                                                     
7PESE                                                                                000000000018500                            
50002010201208062012080700724011181481       PES0000021000D000512012080615130376                                                
6024600021000122210072401118148100140000063                                                                                     
7PESE                                                                                000000000021000                            
50002110201208062012080799020236256413       PES0000022000A038142012080620410380                                                
6024600022000122209902023625641300000000616                                                                                     
7PESE                                                                                000000000022000                            
50002210201208062012080700711431020050       PES0000023500L070562012080620113276                                                
6024600023500122210071143102005000055000042                                                                                     
7PESE                                                                                000000000023500                            
50002310201208062012080700711529955073       PES0000023500A045412012080616580109                                                
6024600023500122220071152995507300055000021                                                                                     
7PESE                                                                                000000000023500                            
50002410201208062012080700712526562740       PES0000023500A036192012080613330350                                                
6024600023500122220071252656274000055000063                                                                                     
7PESE                                                                                000000000023500                            
50002510201208062012080700712622356863       PES0000023500A112512012080611520156                                                
6024600023500122220071262235686300055000042                                                                                     
7PESE                                                                                000000000023500                            
50002610201208062012080700714234435086       PES0000023500A117052012080616470140                                                
6024600023500122220071423443508600055000078                                                                                     
7PESE                                                                                000000000023500                            
50002710201208062012080700711334521076       PES0000023500M600712012080612030100                                                
6024600023500122230071133452107600055000036                                                                                     
7PESE                                                                                000000000023500                            
50002810201208062012080700711817656260       PES0000023500A014602012080617400035                                                
6024600023500122250071181765626000055000000                                                                                     
7PESE                                                                                000000000023500                            
50002910201208062012080700712233907754       PES0000023500L120292012080610549614                                                
6024600023500122260071223390775400055000063                                                                                     
7PESE                                                                                000000000023500                            
50003010201208062012080702383338407880       PES0000025000M601842012080613040219                                                
6024600025000122230238333840788000000000057                                                                                     
7PESE                                                                                000000000025000                            
50003110201208062012080700540233036717       PES0000026000A092732012080612190054                                                
6024600026000122260054023303671700010000000                                                                                     
7PESE                                                                                000000000026000                            
50003210201208062012080700540234318531       PES0000026000A100662012080618370016                                                
6024600026000122260054023431853100010000000                                                                                     
7PESE                                                                                000000000026000                            
50003310201208062012080700540234617181       PES0000026000A084182012080611540198                                                
6024600026000122260054023461718100010000015                                                                                     
7PESE                                                                                000000000026000                            
50003410201208062012080700540333036717       PES0000026000A092732012080612190055                                                
6024600026000122260054033303671700010000036                                                                                     
7PESE                                                                                000000000026000                            
50003510201208062012080700540333708869       PES0000026000A098912012080619040034                                                
6024600026000122260054033370886900010000000                                                                                     
7PESE                                                                                000000000026000                            
50003610201208062012080799040110849285       PES0000029000A045162012080617060366                                                
6024600029000122209904011084928500015000558                                                                                     
7PESE                                                                                000000000029000                            
50003710201208062012080799040130334113       PES0000029000A063662012080619380132                                                
6024600029000122209904013033411300015000684                                                                                     
7PESE                                                                                000000000029000                            
50003810201208062012080799040130663025       PES0000029000A092942012080615210094                                                
6024600029000122209904013066302500015000558                                                                                     
7PESE                                                                                000000000029000                            
50003910201208062012080702391010314783       PES0000030000A023032012080617240041                                                
6024600030000122230239101031478300030000084                                                                                     
7PESE                                                                                000000000030000                            
50004010201208062012080702382822842577       PES0000033000A112382012080614250190                                                
6024600033000122230238282284257700000000015                                                                                     
7PESE                                                                                000000000033000                            
50004110201208062012080799030129247865       PES0000043000A091582012080612430275                                                
6024600043000122209903012924786500035000616                                                                                     
7PESE                                                                                000000000043000                            
50004210201208062012080799030131773438       PES0000043000A109712012080618370102                                                
6024600043000122209903013177343800035000657                                                                                     
7PESE                                                                                000000000043000                            
50004310201208062012080799030132944859       PES0000043000A095132012080611540087                                                
6024600043000122209903013294485900035000621                                                                                     
7PESE                                                                                000000000043000                            
50004410201208062012080799030133036717       PES0000043000A092732012080612190056                                                
6024600043000122209903013303671700035000621                                                                                     
7PESE                                                                                000000000043000                            
50004510201208062012080799030133708869       PES0000043000A098912012080619050035                                                
6024600043000122209903013370886900035000699                                                                                     
7PESE                                                                                000000000043000                            
50004610201208062012080799030134617181       PES0000043000A084182012080611540199                                                
6024600043000122209903013461718100035000621                                                                                     
7PESE                                                                                000000000043000                            
50004710201208062012080799030134750295       PES0000043000D001472012080616310067                                                
6024600043000122209903013475029500035000658                                                                                     
7PESE                                                                                000000000043000                            
50004810201208062012080799030136070637       PES0000043000A028072012080617260001                                                
6024600043000122209903013607063700035000636                                                                                     
7PESE                                                                                000000000043000                            
50004910201208062012080799030136359657       PES0000043000A081582012080618590105                                                
6024600043000122209903013635965700035000678                                                                                     
7PESE                                                                                000000000043000                            
82012080700000100000490000012095000000000000000000000000000000000000000000049                                                   
9201208070000010000049000001209500000000000000000000000000000000000000000000049                                                 
