120130107PAGO FACIL               090060246FABIAN NORBERTO D´ERAMO                                                              
320130107000001FABIAN NORBERTO D´ERAMO                                                                                          
50000110201301042013010702423422229699       PES0000035000A047362013010409370032                                                
6024600035000130040242342222969900000000057                                                                                     
7PESE                                                                                000000000035000                            
50000210201301042013010702422714866537       PES0000035000A047362013010409370033                                                
6024600035000130040242271486653700000000063                                                                                     
7PESE                                                                                000000000035000                            
50000310201301042013010702422240642147       PES0000035000A048602013010411120129                                                
6024600035000130040242224064214700000000084                                                                                     
7PESE                                                                                000000000035000                            
50000410201301042013010702420617366038       PES0000047500A048602013010411120130                                                
6024600047500130040242061736603800000000078                                                                                     
7PESE                                                                                000000000047500                            
50000510201301042013010729080226654379       PES0000018000A034222013010410150116                                                
6024600018000130102908022665437900000000084                                                                                     
7PESE                                                                                000000000018000                            
50000610201301042013010799030136806018       PES0000047500A100912013010412030094                                                
6024600047500130079903013680601800035000400                                                                                     
7PESE                                                                                000000000047500                            
50000710201301042013010729080510113940       PES0000018000A093702013010409580123                                                
6024600018000130082908051011394000000000078                                                                                     
7PESE                                                                                000000000018000                            
50000810201301042013010729080223268875       PES0000018000D000412013010411450115                                                
6024600018000130102908022326887500000000084                                                                                     
7PESE                                                                                000000000018000                            
50000910201301042013010729081411938045       PES0000025000A071272013010415380317                                                
6024600025000130102908141193804500000000042                                                                                     
7PESE                                                                                000000000025000                            
50001010201301042013010729080412596903       PES0000018000A107512013010414460100                                                
6024600018000130102908041259690300000000099                                                                                     
7PESE                                                                                000000000018000                            
50001110201301042013010702420327023466       PES0000047500A057152013010414230148                                                
6024600047500130050242032702346600000000000                                                                                     
7PESE                                                                                000000000047500                            
50001210201301042013010702423822080416       PES0000047500A026032013010410430079                                                
6024600047500130050242382208041600000000016                                                                                     
7PESE                                                                                000000000047500                            
50001310201301042013010772010126224394       PES0000010500A083182013010411380193                                                
6024600010500130047201012622439400000000079                                                                                     
7PESE                                                                                000000000010500                            
50001410201301042013010729080131750602       PES0000018000A092102013010414440349                                                
6024600018000130112908013175060200000000042                                                                                     
7PESE                                                                                000000000018000                            
50001510201301042013010702420523127211       PES0000047500D001662013010417450192                                                
6024600047500130050242052312721100000000037                                                                                     
7PESE                                                                                000000000047500                            
50001610201301042013010702420327778371       PES0000047500A118502013010411230172                                                
6024600047500130050242032777837100000000057                                                                                     
7PESE                                                                                000000000047500                            
50001710201301042013010702422532699637       PES0000035000A095492013010416210215                                                
6024600035000130040242253269963700000000099                                                                                     
7PESE                                                                                000000000035000                            
50001810201301042013010702422240062439       PES0000035000A113952013010412130122                                                
6024600035000130050242224006243900000000058                                                                                     
7PESE                                                                                000000000035000                            
50001910201301042013010702420618339180       PES0000047500A050712013010418310169                                                
6024600047500130040242061833918000000000063                                                                                     
7PESE                                                                                000000000047500                            
50002010201301042013010702420327528384       PES0000047500A037752013010415450056                                                
6024600047500130050242032752838400000000084                                                                                     
7PESE                                                                                000000000047500                            
50002110201301042013010729080728386507       PES0000018000M601122013010411350012                                                
6024600018000130052908072838650700000000021                                                                                     
7PESE                                                                                000000000018000                            
50002210201301042013010702420713888468       PES0000047500M601252013010415050214                                                
6024600047500130040242071388846800000000037                                                                                     
7PESE                                                                                000000000047500                            
50002310201301052013010799030134556684       PES0000047500D001732013010512050177                                                
6024600047500130079903013455668400035000500                                                                                     
7PESE                                                                                000000000047500                            
50002410201301052013010729080410931805       PES0000018000A034222013010518410109                                                
6024600018000130112908041093180500000000084                                                                                     
7PESE                                                                                000000000018000                            
50002510201301052013010729080229182255       PES0000018000A034222013010518410110                                                
6024600018000130112908022918225500000000021                                                                                     
7PESE                                                                                000000000018000                            
50002610201301052013010799030138071739       PES0000047500A046792013010512270205                                                
6024600047500130079903013807173900035000584                                                                                     
7PESE                                                                                000000000047500                            
50002710201301052013010799030137247863       PES0000040375D000492013010518280161                                                
6024600040375130079903013724786300030500463                                                                                     
7PESE                                                                                000000000040375                            
50002810201301052013010799030137461688       PES0000047500M740022013010511390068                                                
6024600047500130079903013746168800035000442                                                                                     
7PESE                                                                                000000000047500                            
50002910201301062013010729080228554870       PES0000018000A050522013010616090083                                                
6024600018000130112908022855487000000000000                                                                                     
7PESE                                                                                000000000018000                            
50003010201301062013010729080504628002       PES0000018000A026442013010621280355                                                
6024600018000130112908050462800200000000090                                                                                     
7PESE                                                                                000000000018000                            
82013010700000100000300000010008750000000000000000000000000000000000000000030                                                   
9201301070000010000030000001000875000000000000000000000000000000000000000000030                                                 
