120121207PAGO FACIL               090060246FABIAN NORBERTO D´ERAMO                                                              
320121207000001FABIAN NORBERTO D´ERAMO                                                                                          
50000110201212062012120702420618024491       PES0000032000A042812012120517460158                                                
6024600032000123400242061802449100080000721                                                                                     
7PESE                                                                                000000000032000                            
50000210201212062012120700774743034953       PES0000008000M600232012120613360059                                                
6024600008000123440077474303495300000000015                                                                                     
7PESE                                                                                000000000008000                            
50000310201212062012120771012327593790       PES0000009000A070622012120616430095                                                
6024600009000123417101232759379000000000000                                                                                     
7PESE                                                                                000000000009000                            
50000410201212062012120759010135775663       PES0000011000A065832012120617010069                                                
6024600011000123445901013577566300000000084                                                                                     
7PESE                                                                                000000000011000                            
50000510201212062012120759010324785290       PES0000011000A090422012120620360046                                                
6024600011000123445901032478529000000000063                                                                                     
7PESE                                                                                000000000011000                            
50000610201212062012120759010325468961       PES0000011000A053762012120617440016                                                
6024600011000123445901032546896100000000016                                                                                     
7PESE                                                                                000000000011000                            
50000710201212062012120759011320196133       PES0000011000L071452012120619375824                                                
6024600011000123445901132019613300000000015                                                                                     
7PESE                                                                                000000000011000                            
50000810201212062012120773000129297216       PES0000012000A044632012120618280090                                                
6024600012000123427300012929721600030000058                                                                                     
7PESE                                                                                000000000012000                            
50000910201212062012120773000134988767       PES0000012000M660002012120615300221                                                
6024600012000123427300013498876700030000442                                                                                     
7PESE                                                                                000000000012000                            
50001010201212062012120771010717382034       PES0000018000A033952012120615330093                                                
6024600018000123417101071738203400000000036                                                                                     
7PESE                                                                                000000000018000                            
50001110201212062012120700774422862620       PES0000028500A091532012120613120341                                                
6024600028500123430077442286262000000000099                                                                                     
7PESE                                                                                000000000028500                            
50001210201212062012120700772330513578       PES0000028500A069092012120617400110                                                
6024600028500123450077233051357800000000063                                                                                     
7PESE                                                                                000000000028500                            
50001310201212062012120700773728166221       PES0000028500D000862012120610230071                                                
6024600028500123480077372816622100000000021                                                                                     
7PESE                                                                                000000000028500                            
50001410201212062012120798010232127389       PES0000029500A057002012120615520035                                                
6024600029500123489801023212738900000000058                                                                                     
7PESE                                                                                000000000029500                            
50001510201212062012120702420232868978       PES0000040000A034222012120610250021                                                
6024600032000123400242023286897800080000758                                                                                     
7PESE                                                                                000000000040000                            
50001610201212062012120702420233505213       PES0000040000A099602012120611180042                                                
6024600040000123480242023350521300075000084                                                                                     
7PESE                                                                                000000000040000                            
50001710201212062012120799030134556684       PES0000043000A085922012120615020095                                                
6024600043000123429903013455668400035000663                                                                                     
7PESE                                                                                000000000043000                            
50001810201212062012120799030136157259       PES0000043000A105602012120613150259                                                
6024600043000123429903013615725900035000321                                                                                     
7PESE                                                                                000000000043000                            
50001910201212062012120799030138071739       PES0000043000D000502012120612060171                                                
6024600043000123429903013807173900035000637                                                                                     
7PESE                                                                                000000000043000                            
82012120700000100000190000004590000000000000000000000000000000000000000000019                                                   
9201212070000010000019000000459000000000000000000000000000000000000000000000019                                                 
