120111207PAGO FACIL               090060246FABIAN NORBERTO D´ERAMO                                                              
320111207000001FABIAN NORBERTO D´ERAMO                                                                                          
50000110201112062011120700584329004645       PES0000025000A022772011120517590100                                                
6024600025000113440058432900464500000000036                                                                                     
7PESE                                                                                000000000025000                            
50000210201112062011120729060225456730       PES0000013000A099032011120610130023                                                
6024600013000113452906022545673000000000037                                                                                     
7PESE                                                                                000000000013000                            
50000310201112062011120729060411048860       PES0000013000A099032011120610130022                                                
6024600013000113462906041104886000000000099                                                                                     
7PESE                                                                                000000000013000                            
50000410201112062011120746070322598213       PES0000026000D000162011120617120291                                                
6024600020000113334607032259821300060007779                                                                                     
7PESE                                                                                000000000026000                            
50000510201112062011120718350428686874       PES0000020000A073132011120618530149                                                
6024600020000113401835042868687400000000021                                                                                     
7PESE                                                                                000000000020000                            
50000610201112062011120718350620636671       PES0000020000A075362011120619070060                                                
6024600020000113401835062063667100000000021                                                                                     
7PESE                                                                                000000000020000                            
50000710201112062011120748020835473512       PES0000020000A073032011120620150173                                                
6024600020000113404802083547351200000000090                                                                                     
7PESE                                                                                000000000020000                            
50000810201112062011120748020929363200       PES0000020000A102282011120618120128                                                
6024600020000113404802092936320000000000021                                                                                     
7PESE                                                                                000000000020000                            
50000910201112062011120718350136849957       PES0000020000A042332011120610340050                                                
6024600020000113411835013684995700000000063                                                                                     
7PESE                                                                                000000000020000                            
50001010201112062011120718350331601334       PES0000020000A080382011120613400221                                                
6024600020000113411835033160133400000000000                                                                                     
7PESE                                                                                000000000020000                            
50001110201112062011120718350427847362       PES0000020000A049072011120617020211                                                
6024600020000113411835042784736200000000000                                                                                     
7PESE                                                                                000000000020000                            
50001210201112062011120718350522815451       PES0000020000A095922011120618590116                                                
6024600020000113411835052281545100000000063                                                                                     
7PESE                                                                                000000000020000                            
50001310201112062011120718350524508573       PES0000020000A089262011120617370073                                                
6024600020000113411835052450857300000000015                                                                                     
7PESE                                                                                000000000020000                            
50001410201112062011120718351333118797       PES0000020000A044382011120618060166                                                
6024600020000113411835133311879700000000057                                                                                     
7PESE                                                                                000000000020000                            
50001510201112062011120718351335155657       PES0000020000A083902011120613360299                                                
6024600020000113411835133515565700000000036                                                                                     
7PESE                                                                                000000000020000                            
50001610201112062011120718351431049304       PES0000020000A049072011120617020210                                                
6024600020000113411835143104930400000000099                                                                                     
7PESE                                                                                000000000020000                            
50001710201112062011120718351625404423       PES0000020000A110092011120614120001                                                
6024600020000113411835162540442300000000021                                                                                     
7PESE                                                                                000000000020000                            
50001810201112062011120718352721666101       PES0000020000A109842011120609430035                                                
6024600020000113411835272166610100000000016                                                                                     
7PESE                                                                                000000000020000                            
50001910201112062011120700583824755647       PES0000025000L120342011120615383390                                                
6024600025000113420058382475564700000000042                                                                                     
7PESE                                                                                000000000025000                            
50002010201112062011120700584331601334       PES0000025000A080382011120613400222                                                
6024600025000113420058433160133400000000021                                                                                     
7PESE                                                                                000000000025000                            
50002110201112062011120700582717668262       PES0000025000A083092011120612110230                                                
6024600025000113430058271766826200000000084                                                                                     
7PESE                                                                                000000000025000                            
50002210201112062011120700581429523176       PES0000025000A072612011120616060049                                                
6024600025000113460058142952317600000000037                                                                                     
7PESE                                                                                000000000025000                            
50002310201112062011120799030236399286       PES0000035000A033992011120609290045                                                
6024600035000113419903023639928600035000142                                                                                     
7PESE                                                                                000000000035000                            
50002410201112062011120701301525797057       PES0000040000A075022011120615450304                                                
6024600040000113400130152579705700000000042                                                                                     
7PESE                                                                                000000000040000                            
50002510201112062011120723061930351831       PES0000085400A090222011120610160042                                                
6024600085400113412306193035183100234000021                                                                                     
7PESE                                                                                000000000085400                            
50002610201112062011120723061932180641       PES0000085400A029932011120610130152                                                
6024600085400113472306193218064100234000021                                                                                     
7PESE                                                                                000000000085400                            
82011120700000100000260000007028000000000000000000000000000000000000000000026                                                   
9201112070000010000026000000702800000000000000000000000000000000000000000000026                                                 
