120110608PAGO FACIL               090060246FABIAN NORBERTO D´ERAMO                                                              
320110608000001FABIAN NORBERTO D´ERAMO                                                                                          
50000110201106072011060899040228385951       PES0000015000A046112011060709170021                                                
6024600015000111589904022838595100025000600                                                                                     
7PESE                                                                                000000000015000                            
50000210201106072011060899030332148577       PES0000021000A017622011060713040074                                                
6024600021000111619903033214857700000000363                                                                                     
7PESE                                                                                000000000021000                            
50000310201106072011060899030333016959       PES0000021000A102072011060719210222                                                
6024600021000111619903033301695900000000484                                                                                     
7PESE                                                                                000000000021000                            
50000410201106072011060899040134998991       PES0000023500A011572011060716460126                                                
6024600023500111589904013499899100015000742                                                                                     
7PESE                                                                                000000000023500                            
50000510201106072011060899030104864178       PES0000028000D000282011060718000305                                                
6024600028000111589903010486417800030000778                                                                                     
7PESE                                                                                000000000028000                            
50000610201106072011060899030126891790       PES0000028000A080992011060712260201                                                
6024600028000111589903012689179000030000700                                                                                     
7PESE                                                                                000000000028000                            
50000710201106072011060899030128151382       PES0000028000M601282011060712570134                                                
6024600028000111589903012815138200030000742                                                                                     
7PESE                                                                                000000000028000                            
50000810201106072011060899030130892513       PES0000028000A088612011060712070180                                                
6024600028000111589903013089251300030000763                                                                                     
7PESE                                                                                000000000028000                            
50000910201106072011060899030132187930       PES0000028000A073822011060718060316                                                
6024600028000111589903013218793000030000737                                                                                     
7PESE                                                                                000000000028000                            
50001010201106072011060899030132997762       PES0000028000M600672011060711290073                                                
6024600028000111589903013299776200030000784                                                                                     
7PESE                                                                                000000000028000                            
50001110201106072011060899030133104488       PES0000028000A081272011060712230146                                                
6024600028000111589903013310448800030000721                                                                                     
7PESE                                                                                000000000028000                            
50001210201106072011060899030133458699       PES0000028000A071542011060712360150                                                
6024600028000111589903013345869900030000158                                                                                     
7PESE                                                                                000000000028000                            
50001310201106072011060899030134672420       PES0000028000A071542011060712360151                                                
6024600028000111589903013467242000030000157                                                                                     
7PESE                                                                                000000000028000                            
50001410201106072011060899030135817679       PES0000028000A024232011060718560336                                                
6024600028000111589903013581767900030000584                                                                                     
7PESE                                                                                000000000028000                            
50001510201106072011060899030135958794       PES0000028000A025662011060713280079                                                
6024600028000111589903013595879400030000757                                                                                     
7PESE                                                                                000000000028000                            
50001610201106072011060899030136184135       PES0000028000A085482011060717470140                                                
6024600028000111589903013618413500030000779                                                                                     
7PESE                                                                                000000000028000                            
50001710201106072011060899030192890994       PES0000028000A077412011060715210111                                                
6024600028000111589903019289099400030000384                                                                                     
7PESE                                                                                000000000028000                            
50001810201106072011060899030225909375       PES0000035000A084182011060716090165                                                
6024600035000111589903022590937500035000600                                                                                     
7PESE                                                                                000000000035000                            
50001910201106072011060899030228324126       PES0000035000A023312011060719440065                                                
6024600035000111589903022832412600035000721                                                                                     
7PESE                                                                                000000000035000                            
50002010201106072011060899030229118464       PES0000035000A042822011060711580174                                                
6024600035000111589903022911846400035000499                                                                                     
7PESE                                                                                000000000035000                            
50002110201106072011060899030230590893       PES0000035000D000392011060717120160                                                
6024600035000111589903023059089300035000190                                                                                     
7PESE                                                                                000000000035000                            
50002210201106072011060899030233017000       PES0000035000A038432011060712120118                                                
6024600035000111589903023301700000035000742                                                                                     
7PESE                                                                                000000000035000                            
50002310201106072011060899030233897409       PES0000035000A045482011060715110157                                                
6024600035000111589903023389740900035000763                                                                                     
7PESE                                                                                000000000035000                            
50002410201106072011060899030234157744       PES0000035000A073592011060719160169                                                
6024600035000111589903023415774400035000779                                                                                     
7PESE                                                                                000000000035000                            
50002510201106072011060899030234430590       PES0000035000A097302011060717220054                                                
6024600035000111589903023443059000035000715                                                                                     
7PESE                                                                                000000000035000                            
50002610201106072011060899030234515650       PES0000035000A084942011060717430023                                                
6024600035000111589903023451565000035000737                                                                                     
7PESE                                                                                000000000035000                            
50002710201106072011060899030235359341       PES0000035000A095202011060717030001                                                
6024600035000111589903023535934100035000636                                                                                     
7PESE                                                                                000000000035000                            
50002810201106072011060899030235400740       PES0000035000A026032011060716530350                                                
6024600035000111589903023540074000035000790                                                                                     
7PESE                                                                                000000000035000                            
50002910201106072011060899030237040715       PES0000035000A042822011060719060198                                                
6024600035000111589903023704071500035000678                                                                                     
7PESE                                                                                000000000035000                            
50003010201106072011060899030293925151       PES0000035000A090012011060713390009                                                
6024600035000111589903029392515100035000657                                                                                     
7PESE                                                                                000000000035000                            
82011060800000100000300000008995000000000000000000000000000000000000000000030                                                   
9201106080000010000030000000899500000000000000000000000000000000000000000000030                                                 
