120120208PAGO FACIL               090060246FABIAN NORBERTO D´ERAMO                                                              
320120208000001FABIAN NORBERTO D´ERAMO                                                                                          
50000110201202072012020801311425240649       PES0000097000A064052012020618200042                                                
6024600097000120440131142524064900000000037                                                                                     
7PESE                                                                                000000000097000                            
50000210201202072012020801311616336308       PES0000097000A079752012020611270033                                                
6024600097000120420131161633630800000000084                                                                                     
7PESE                                                                                000000000097000                            
50000310201202072012020823061238232454       PES0000136600A051462012020618540189                                                
6024600136600120442306123823245400000000063                                                                                     
7PESE                                                                                000000000136600                            
50000410201202072012020801311616960713       PES0000097000A074212012020615340097                                                
6024600097000120400131161696071300000000021                                                                                     
7PESE                                                                                000000000097000                            
50000510201202072012020899030230289341       PES0000037000A082952012020612440049                                                
6024600037000120379903023028934100035000021                                                                                     
7PESE                                                                                000000000037000                            
50000610201202072012020899030236360655       PES0000031820A082952012020618030133                                                
6024600031820120389903023636065500030300600                                                                                     
7PESE                                                                                000000000031820                            
50000710201202072012020899030236360655       PES0000031820A082952012020618050134                                                
6024600031820120389903023636065500030300600                                                                                     
7PESE                                                                                000000000031820                            
50000810201202072012020899030236360655       PES0000031820A082952012020618060135                                                
6024600031820120389903023636065500030300600                                                                                     
7PESE                                                                                000000000031820                            
50000910201202072012020823061138124341       PES0000136600A109452012020617520041                                                
6024600136600120412306113812434100000000090                                                                                     
7PESE                                                                                000000000136600                            
50001010201202072012020853010436526335       PES0000006000A101672012020718230157                                                
6024600006000120435301043652633500015000078                                                                                     
7PESE                                                                                000000000006000                            
50001110201202072012020800682717100275       PES0000019000A089892012020716040015                                                
6024600019000120400068271710027500020000000                                                                                     
7PESE                                                                                000000000019000                            
50001210201202072012020800692717100275       PES0000019000A089892012020716040014                                                
6024600019000120400069271710027500010000021                                                                                     
7PESE                                                                                000000000019000                            
50001310201202072012020899030231075840       PES0000037000A084182012020720150018                                                
6024600037000120389903023107584000035000763                                                                                     
7PESE                                                                                000000000037000                            
50001410201202072012020899030231208574       PES0000037000A087932012020718360315                                                
6024600037000120389903023120857400035000690                                                                                     
7PESE                                                                                000000000037000                            
50001510201202072012020899030234222869       PES0000037000A028582012020713400039                                                
6024600037000120389903023422286900035000757                                                                                     
7PESE                                                                                000000000037000                            
50001610201202072012020899030234515650       PES0000037000A084942012020711140024                                                
6024600037000120389903023451565000035000742                                                                                     
7PESE                                                                                000000000037000                            
50001710201202072012020899030235359341       PES0000037000A110472012020719360083                                                
6024600037000120389903023535934100035000200                                                                                     
7PESE                                                                                000000000037000                            
50001810201202072012020899030235367974       PES0000037000A099242012020717400261                                                
6024600037000120389903023536797400035000557                                                                                     
7PESE                                                                                000000000037000                            
50001910201202072012020899030236090671       PES0000037000A102852012020712490043                                                
6024600037000120389903023609067100035000600                                                                                     
7PESE                                                                                000000000037000                            
50002010201202072012020899030293925151       PES0000037000M600132012020714310347                                                
6024600037000120389903029392515100035000790                                                                                     
7PESE                                                                                000000000037000                            
50002110201202072012020801310229239537       PES0000097000L070612012020717529647                                                
6024600097000120390131022923953700000000021                                                                                     
7PESE                                                                                000000000097000                            
50002210201202072012020801311135585882       PES0000097000A085662012020714320037                                                
6024600097000120390131113558588200000000084                                                                                     
7PESE                                                                                000000000097000                            
50002310201202072012020801311325771330       PES0000097000A091062012020714550091                                                
6024600097000120390131132577133000000000015                                                                                     
7PESE                                                                                000000000097000                            
50002410201202072012020801311328681107       PES0000097000A029572012020721440525                                                
6024600097000120390131132868110700000000090                                                                                     
7PESE                                                                                000000000097000                            
50002510201202072012020801311328759938       PES0000097000A087612012020711450277                                                
6024600097000120390131132875993800000000042                                                                                     
7PESE                                                                                000000000097000                            
50002610201202072012020801311422539112       PES0000097000A102102012020717090056                                                
6024600097000120390131142253911200000000084                                                                                     
7PESE                                                                                000000000097000                            
50002710201202072012020801311423134946       PES0000097000A013222012020717500044                                                
6024600097000120390131142313494600000000090                                                                                     
7PESE                                                                                000000000097000                            
50002810201202072012020801311520663912       PES0000097000A060582012020717540135                                                
6024600097000120390131152066391200000000058                                                                                     
7PESE                                                                                000000000097000                            
50002910201202072012020801311617233780       PES0000097000A035802012020716040441                                                
6024600097000120390131161723378000000000099                                                                                     
7PESE                                                                                000000000097000                            
50003010201202072012020801311618122873       PES0000097000A088622012020720590444                                                
6024600097000120390131161812287300000000063                                                                                     
7PESE                                                                                000000000097000                            
50003110201202072012020801311618225923       PES0000097000A086812012020710420117                                                
6024600097000120390131161822592300000000058                                                                                     
7PESE                                                                                000000000097000                            
50003210201202072012020801311712526166       PES0000097000A085662012020714310036                                                
6024600097000120390131171252616600000000063                                                                                     
7PESE                                                                                000000000097000                            
50003310201202072012020801310327336623       PES0000097000A009562012020718170042                                                
6024600097000120400131032733662300000000021                                                                                     
7PESE                                                                                000000000097000                            
50003410201202072012020801311327332395       PES0000097000A055102012020712360204                                                
6024600097000120400131132733239500000000021                                                                                     
7PESE                                                                                000000000097000                            
50003510201202072012020801311812729428       PES0000097000A105932012020711170149                                                
6024600097000120400131181272942800000000084                                                                                     
7PESE                                                                                000000000097000                            
50003610201202072012020801311520005148       PES0000097000A094782012020718000140                                                
6024600097000120410131152000514800000000090                                                                                     
7PESE                                                                                000000000097000                            
50003710201202072012020801311520332638       PES0000097000A076552012020709480033                                                
6024600097000120410131152033263800000000021                                                                                     
7PESE                                                                                000000000097000                            
50003810201202072012020801311714651937       PES0000097000A081912012020711010018                                                
6024600097000120410131171465193700000000084                                                                                     
7PESE                                                                                000000000097000                            
50003910201202072012020801311617751686       PES0000097000A104202012020719180162                                                
6024600097000120440131161775168600000000063                                                                                     
7PESE                                                                                000000000097000                            
50004010201202072012020801311714789572       PES0000097000A049072012020713520129                                                
6024600097000120440131171478957200000000042                                                                                     
7PESE                                                                                000000000097000                            
50004110201202072012020801311231985861       PES0000097000L070642012020710193617                                                
6024600097000120450131123198586100000000084                                                                                     
7PESE                                                                                000000000097000                            
50004210201202072012020801311232310414       PES0000097000A091882012020713320042                                                
6024600097000120450131123231041400000000015                                                                                     
7PESE                                                                                000000000097000                            
50004310201202072012020801311904752239       PES0000097000A062272012020720060057                                                
6024600097000120450131190475223900000000063                                                                                     
7PESE                                                                                000000000097000                            
50004410201202072012020823060323954875       PES0000121600M660032012020718570360                                                
6024600121600120402306032395487500000000036                                                                                     
7PESE                                                                                000000000121600                            
50004510201202072012020823061833433317       PES0000136600A601862012020709130016                                                
6024600136600120442306183343331700000000021                                                                                     
7PESE                                                                                000000000136600                            
50004610201202072012020823061926726914       PES0000136600A063662012020715370082                                                
6024600136600120452306192672691400000000015                                                                                     
7PESE                                                                                000000000136600                            
82012020800000100000460000036624600000000000000000000000000000000000000000046                                                   
9201202080000010000046000003662460000000000000000000000000000000000000000000046                                                 
