120111108PAGO FACIL               090060246FABIAN NORBERTO D´ERAMO                                                              
320111108000001FABIAN NORBERTO D´ERAMO                                                                                          
50000110201111072011110829060321689467       PES0000010000A105472011110717140078                                                
6024600010000113122906032168946700030000557                                                                                     
7PESE                                                                                000000000010000                            
50000210201111072011110829060724239197       PES0000010000A105472011110717140079                                                
6024600010000113122906072423919700030000515                                                                                     
7PESE                                                                                000000000010000                            
50000310201111072011110898010131012520       PES0000010000A048732011110710260137                                                
6024600010000113159801013101252000000000079                                                                                     
7PESE                                                                                000000000010000                            
50000410201111072011110846070224137649       PES0000020000A001242011110716090156                                                
6024600020000113174607022413764900060000063                                                                                     
7PESE                                                                                000000000020000                            
50000510201111072011110899030226735116       PES0000035000A101132011110719400072                                                
6024600035000113119903022673511600035000121                                                                                     
7PESE                                                                                000000000035000                            
50000610201111072011110899030230219518       PES0000035000A076782011110717580183                                                
6024600035000113119903023021951800035000578                                                                                     
7PESE                                                                                000000000035000                            
50000710201111072011110899030231075840       PES0000035000A093092011110713570181                                                
6024600035000113119903023107584000035000742                                                                                     
7PESE                                                                                000000000035000                            
50000810201111072011110899030233259978       PES0000035000A097302011110719190094                                                
6024600035000113119903023325997800035000742                                                                                     
7PESE                                                                                000000000035000                            
50000910201111072011110899030234142652       PES0000035000A057612011110711580182                                                
6024600035000113119903023414265200035000484                                                                                     
7PESE                                                                                000000000035000                            
50001010201111072011110899030234430590       PES0000035000A097302011110719200095                                                
6024600035000113119903023443059000035000700                                                                                     
7PESE                                                                                000000000035000                            
50001110201111072011110899030236943330       PES0000035000A099762011110717540073                                                
6024600035000113119903023694333000035000721                                                                                     
7PESE                                                                                000000000035000                            
50001210201111072011110899030293925151       PES0000035000M600132011110717210514                                                
6024600035000113119903029392515100035000784                                                                                     
7PESE                                                                                000000000035000                            
50001310201111072011110801290812862198       PES0000037000M620002011110716570430                                                
6024600037000113110129081286219800000000021                                                                                     
7PESE                                                                                000000000037000                            
50001410201111072011110801290813431927       PES0000037000A022082011110709330114                                                
6024600037000113110129081343192700000000021                                                                                     
7PESE                                                                                000000000037000                            
50001510201111072011110801290523343347       PES0000037000A620812011110714470276                                                
6024600037000113120129052334334700000000078                                                                                     
7PESE                                                                                000000000037000                            
50001610201111072011110801290620365060       PES0000037000A099972011110710250008                                                
6024600037000113170129062036506000000000021                                                                                     
7PESE                                                                                000000000037000                            
82011110800000100000160000004780000000000000000000000000000000000000000000016                                                   
9201111080000010000016000000478000000000000000000000000000000000000000000000016                                                 
