120121108PAGO FACIL               090060246FABIAN NORBERTO D´ERAMO                                                              
320121108000001FABIAN NORBERTO D´ERAMO                                                                                          
50000110201211072012110801331714976094       PES0000052000D000762012110616520316                                                
6024600052000123160133171497609400080000084                                                                                     
7PESE                                                                                000000000052000                            
50000210201211072012110801331327180990       PES0000052000A097192012110616200058                                                
6024600052000123110133132718099000080000036                                                                                     
7PESE                                                                                000000000052000                            
50000310201211072012110852010620426793       PES0000011000A033952012110611040146                                                
6024600011000123135201062042679300000000079                                                                                     
7PESE                                                                                000000000011000                            
50000410201211072012110852011723125879       PES0000011000D000762012110716580319                                                
6024600011000123135201172312587900000000037                                                                                     
7PESE                                                                                000000000011000                            
50000510201211072012110852011723403091       PES0000011000A109712012110717060292                                                
6024600011000123135201172340309100000000036                                                                                     
7PESE                                                                                000000000011000                            
50000610201211072012110898010133239205       PES0000015000A065532012110710200010                                                
6024600015000123069801013323920500000000742                                                                                     
7PESE                                                                                000000000015000                            
50000710201211072012110857010135043634       PES0000015000A058662012110719030297                                                
6024600015000123135701013504363400000000099                                                                                     
7PESE                                                                                000000000015000                            
50000810201211072012110898010136497889       PES0000015000L070502012110713535361                                                
6024600015000123179801013649788900000000016                                                                                     
7PESE                                                                                000000000015000                            
50000910201211072012110898010135887624       PES0000015000L070492012110721037053                                                
6024600015000123199801013588762400000000099                                                                                     
7PESE                                                                                000000000015000                            
50001010201211072012110800760222827652       PES0000018000A119862012110709300030                                                
6024600018000123150076022282765200020000200                                                                                     
7PESE                                                                                000000000018000                            
50001110201211072012110872000227921724       PES0000020000L070642012110716095136                                                
6024600020000123147200022792172400000000036                                                                                     
7PESE                                                                                000000000020000                            
50001210201211072012110899030129708493       PES0000025800A058032012110711130163                                                
6024600025800123129903012970849300021000736                                                                                     
7PESE                                                                                000000000025800                            
50001310201211072012110899040130334113       PES0000029000A063662012110719500143                                                
6024600029000123129904013033411300015000536                                                                                     
7PESE                                                                                000000000029000                            
50001410201211072012110899040132166545       PES0000029000A097302012110721410292                                                
6024600029000123129904013216654500015000784                                                                                     
7PESE                                                                                000000000029000                            
50001510201211072012110899040133259978       PES0000029000A102852012110718270001                                                
6024600029000123129904013325997800015000721                                                                                     
7PESE                                                                                000000000029000                            
50001610201211072012110899040134430590       PES0000029000A102852012110718270002                                                
6024600029000123129904013443059000015000784                                                                                     
7PESE                                                                                000000000029000                            
50001710201211072012110899030123723839       PES0000043000M600432012110712220240                                                
6024600043000123129903012372383900035000700                                                                                     
7PESE                                                                                000000000043000                            
50001810201211072012110899030133434151       PES0000043000A081272012110718490160                                                
6024600043000123129903013343415100035000763                                                                                     
7PESE                                                                                000000000043000                            
50001910201211072012110899030134630666       PES0000043000A092142012110716520589                                                
6024600043000123129903013463066600035000590                                                                                     
7PESE                                                                                000000000043000                            
50002010201211072012110899030135271379       PES0000043000A051342012110709050003                                                
6024600043000123129903013527137900035000578                                                                                     
7PESE                                                                                000000000043000                            
50002110201211072012110899030136157259       PES0000043000A105602012110710460041                                                
6024600043000123129903013615725900035000621                                                                                     
7PESE                                                                                000000000043000                            
50002210201211072012110899030136352229       PES0000043000A116102012110716280141                                                
6024600043000123129903013635222900035000763                                                                                     
7PESE                                                                                000000000043000                            
50002310201211072012110899030136808106       PES0000043000A092052012110709020006                                                
6024600043000123129903013680810600035000500                                                                                     
7PESE                                                                                000000000043000                            
50002410201211072012110899030136931489       PES0000043000A089362012110719340131                                                
6024600043000123129903013693148900035000757                                                                                     
7PESE                                                                                000000000043000                            
50002510201211072012110899030137110422       PES0000043000M600282012110714550398                                                
6024600043000123129903013711042200035000558                                                                                     
7PESE                                                                                000000000043000                            
50002610201211072012110899030137461688       PES0000043000L070292012110710404026                                                
6024600043000123129903013746168800035000763                                                                                     
7PESE                                                                                000000000043000                            
50002710201211072012110899030138071739       PES0000043000D000502012110716140006                                                
6024600043000123129903013807173900035000763                                                                                     
7PESE                                                                                000000000043000                            
50002810201211072012110899030140497077       PES0000043000A070612012110721160449                                                
6024600043000123129903014049707700035000584                                                                                     
7PESE                                                                                000000000043000                            
50002910201211072012110801331423091610       PES0000052000D000862012110712120186                                                
6024600052000123120133142309161000080000015                                                                                     
7PESE                                                                                000000000052000                            
50003010201211072012110801331520364142       PES0000052000A091702012110717130380                                                
6024600052000123120133152036414200080000042                                                                                     
7PESE                                                                                000000000052000                            
50003110201211072012110801331422704746       PES0000052000A054762012110712210207                                                
6024600052000123140133142270474600080000084                                                                                     
7PESE                                                                                000000000052000                            
50003210201211072012110801331327727616       PES0000052000A099752012110710480034                                                
6024600052000123160133132772761600080000037                                                                                     
7PESE                                                                                000000000052000                            
50003310201211072012110801331425826849       PES0000052000A098212012110713300282                                                
6024600052000123160133142582684900080000063                                                                                     
7PESE                                                                                000000000052000                            
50003410201211072012110801331522194734       PES0000052000A104782012110719310110                                                
6024600052000123170133152219473400080000015                                                                                     
7PESE                                                                                000000000052000                            
50003510201211072012110801331423352672       PES0000052000A000162012110711120026                                                
6024600052000123180133142335267200080000000                                                                                     
7PESE                                                                                000000000052000                            
50003610201211072012110801331424037008       PES0000052000A082002012110709270015                                                
6024600052000123180133142403700800080000000                                                                                     
7PESE                                                                                000000000052000                            
50003710201211072012110801331425732324       PES0000052000A115822012110714140156                                                
6024600052000123180133142573232400080000042                                                                                     
7PESE                                                                                000000000052000                            
50003810201211072012110801331617673169       PES0000052000A060572012110718320176                                                
6024600052000123180133161767316900080000063                                                                                     
7PESE                                                                                000000000052000                            
50003910201211072012110801331618002702       PES0000052000M620002012110710430103                                                
6024600052000123180133161800270200080000015                                                                                     
7PESE                                                                                000000000052000                            
50004010201211072012110801331232520937       PES0000052000A068902012110715050153                                                
6024600052000123190133123252093700080000078                                                                                     
7PESE                                                                                000000000052000                            
50004110201211072012110801331618563343       PES0000052000A092242012110709570053                                                
6024600052000123190133161856334300080000021                                                                                     
7PESE                                                                                000000000052000                            
82012110800000100000410000015688000000000000000000000000000000000000000000041                                                   
9201211080000010000041000001568800000000000000000000000000000000000000000000041                                                 
