120130108PAGO FACIL               090060246FABIAN NORBERTO D´ERAMO                                                              
320130108000001FABIAN NORBERTO D´ERAMO                                                                                          
50000110201301072013010869020232294608       PES0000010000A054522013010718440144                                                
6024600010000130146902023229460800000000090                                                                                     
7PESE                                                                                000000000010000                            
50000210201301072013010829080320058646       PES0000018000A057152013010712140207                                                
6024600018000130092908032005864600000000079                                                                                     
7PESE                                                                                000000000018000                            
50000310201301072013010829080132092701       PES0000018000B030012013010712376698                                                
6024600018000130102908013209270100000000036                                                                                     
7PESE                                                                                000000000018000                            
50000410201301072013010829080225992008       PES0000018000M620732013010709500033                                                
6024600018000130102908022599200800000000057                                                                                     
7PESE                                                                                000000000018000                            
50000510201301072013010829080226046668       PES0000018000M600392013010715010137                                                
6024600018000130102908022604666800000000037                                                                                     
7PESE                                                                                000000000018000                            
50000610201301072013010829080410601358       PES0000018000A601872013010712170167                                                
6024600018000130102908041060135800000000042                                                                                     
7PESE                                                                                000000000018000                            
50000710201301072013010829080132869765       PES0000018000A043992013010710080020                                                
6024600018000130112908013286976500000000058                                                                                     
7PESE                                                                                000000000018000                            
50000810201301072013010829080316118872       PES0000018000A075282013010718000198                                                
6024600018000130112908031611887200000000037                                                                                     
7PESE                                                                                000000000018000                            
50000910201301072013010829080318402612       PES0000018000A053772013010715110062                                                
6024600018000130112908031840261200000000058                                                                                     
7PESE                                                                                000000000018000                            
50001010201301072013010829080413287252       PES0000018000A075282013010718000197                                                
6024600018000130112908041328725200000000084                                                                                     
7PESE                                                                                000000000018000                            
50001110201301072013010829080725115356       PES0000018000M620132013010712170082                                                
6024600018000130112908072511535600000000063                                                                                     
7PESE                                                                                000000000018000                            
50001210201301072013010829080725668206       PES0000018000A053772013010716010108                                                
6024600018000130112908072566820600000000057                                                                                     
7PESE                                                                                000000000018000                            
50001310201301072013010829080820915069       PES0000018000A075282013010718000199                                                
6024600018000130112908082091506900000000042                                                                                     
7PESE                                                                                000000000018000                            
50001410201301072013010829080914975354       PES0000018000M640032013010713270198                                                
6024600018000130112908091497535400000000058                                                                                     
7PESE                                                                                000000000018000                            
50001510201301072013010829081224406132       PES0000025000M620942013010713280257                                                
6024600025000130102908122440613200000000000                                                                                     
7PESE                                                                                000000000025000                            
50001610201301072013010829081229909877       PES0000025000A114442013010713090190                                                
6024600025000130112908122990987700000000057                                                                                     
7PESE                                                                                000000000025000                            
50001710201301072013010829081724256419       PES0000025000A098932013010709330054                                                
6024600025000130112908172425641900000000042                                                                                     
7PESE                                                                                000000000025000                            
50001810201301072013010899030129708493       PES0000028500A077412013010715330220                                                
6024600028500130079903012970849300021000757                                                                                     
7PESE                                                                                000000000028500                            
50001910201301072013010899030128506908       PES0000040375A100662013010717590014                                                
6024600040375130079903012850690800030500763                                                                                     
7PESE                                                                                000000000040375                            
50002010201301072013010899030103729571       PES0000047500A113672013010718220156                                                
6024600047500130079903010372957100035000757                                                                                     
7PESE                                                                                000000000047500                            
50002110201301072013010899030123723839       PES0000047500A070602013010720040449                                                
6024600047500130079903012372383900035000516                                                                                     
7PESE                                                                                000000000047500                            
50002210201301072013010899030128984843       PES0000047500A022842013010714170116                                                
6024600047500130079903012898484300035000799                                                                                     
7PESE                                                                                000000000047500                            
50002310201301072013010899030129247865       PES0000047500A093092013010717290053                                                
6024600047500130079903012924786500035000716                                                                                     
7PESE                                                                                000000000047500                            
50002410201301072013010899030129317503       PES0000047500D001722013010718090173                                                
6024600047500130079903012931750300035000784                                                                                     
7PESE                                                                                000000000047500                            
50002510201301072013010899030131773438       PES0000047500A121202013010712060203                                                
6024600047500130079903013177343800035000757                                                                                     
7PESE                                                                                000000000047500                            
50002610201301072013010899030132944859       PES0000047500A095132013010713050227                                                
6024600047500130079903013294485900035000721                                                                                     
7PESE                                                                                000000000047500                            
50002710201301072013010899030133104324       PES0000047500A064852013010714370033                                                
6024600047500130079903013310432400035000584                                                                                     
7PESE                                                                                000000000047500                            
50002810201301072013010899030134630666       PES0000047500A092112013010718140623                                                
6024600047500130079903013463066600035000442                                                                                     
7PESE                                                                                000000000047500                            
50002910201301072013010899030134949488       PES0000047500A100712013010715120138                                                
6024600047500130079903013494948800035000558                                                                                     
7PESE                                                                                000000000047500                            
50003010201301072013010899030135271379       PES0000047500A029032013010715550138                                                
6024600047500130079903013527137900035000384                                                                                     
7PESE                                                                                000000000047500                            
50003110201301072013010899030136157259       PES0000047500A105602013010713400014                                                
6024600047500130079903013615725900035000600                                                                                     
7PESE                                                                                000000000047500                            
50003210201301072013010899030136872631       PES0000047500A112442013010717490200                                                
6024600047500130079903013687263100035000778                                                                                     
7PESE                                                                                000000000047500                            
50003310201301072013010899030136931489       PES0000047500A089982013010716130006                                                
6024600047500130079903013693148900035000737                                                                                     
7PESE                                                                                000000000047500                            
50003410201301072013010899030137110422       PES0000047500M600282013010715130426                                                
6024600047500130079903013711042200035000715                                                                                     
7PESE                                                                                000000000047500                            
50003510201301072013010899030137357940       PES0000047500A103002013010712560066                                                
6024600047500130079903013735794000035000799                                                                                     
7PESE                                                                                000000000047500                            
50003610201301072013010899030140497077       PES0000047500A079702013010720010396                                                
6024600047500130079903014049707700035000742                                                                                     
7PESE                                                                                000000000047500                            
50003710201301072013010899030136808106       PES0000047500A102852013010717550216                                                
6024600047500130089903013680810600035000063                                                                                     
7PESE                                                                                000000000047500                            
82013010800000100000370000012428750000000000000000000000000000000000000000037                                                   
9201301080000010000037000001242875000000000000000000000000000000000000000000037                                                 
