120120608PAGO FACIL               090060246FABIAN NORBERTO D´ERAMO                                                              
320120608000001FABIAN NORBERTO D´ERAMO                                                                                          
50000110201206072012060899020132638684       PES0000019000D000592012060714010193                                                
6024600019000121599902013263868400000000542                                                                                     
7PESE                                                                                000000000019000                            
50000210201206072012060899020224599090       PES0000022000A074762012060716300010                                                
6024600022000121599902022459909000000000721                                                                                     
7PESE                                                                                000000000022000                            
50000310201206072012060802370718285690       PES0000025000A099242012060718520308                                                
6024600025000121620237071828569000050000457                                                                                     
7PESE                                                                                000000000025000                            
50000410201206072012060899030229708493       PES0000025800A077412012060709320026                                                
6024600025800121599903022970849300021000763                                                                                     
7PESE                                                                                000000000025800                            
50000510201206072012060899040130334113       PES0000029000A063662012060716210262                                                
6024600029000121599904013033411300015000700                                                                                     
7PESE                                                                                000000000029000                            
50000610201206072012060899040132166545       PES0000029000A097302012060715190005                                                
6024600029000121599904013216654500015000657                                                                                     
7PESE                                                                                000000000029000                            
50000710201206072012060899040134430590       PES0000029000A097302012060715260012                                                
6024600029000121599904013443059000015000784                                                                                     
7PESE                                                                                000000000029000                            
50000810201206072012060899030228506908       PES0000036550A071542012060717020026                                                
6024600036550121599903022850690800030250442                                                                                     
7PESE                                                                                000000000036550                            
50000910201206072012060899030236832667       PES0000036550A091492012060714450089                                                
6024600036550121599903023683266700030250700                                                                                     
7PESE                                                                                000000000036550                            
50001010201206072012060899030237247863       PES0000036550A091492012060714450090                                                
6024600036550121599903023724786300030250742                                                                                     
7PESE                                                                                000000000036550                            
50001110201206072012060899030127925597       PES0000037000A100142012060715000004                                                
6024600037000121599903012792559700035000737                                                                                     
7PESE                                                                                000000000037000                            
50001210201206072012060899030129118464       PES0000037000A042822012060709420016                                                
6024600037000121599903012911846400035000684                                                                                     
7PESE                                                                                000000000037000                            
50001310201206072012060899030131208574       PES0000037000A087932012060717540006                                                
6024600037000121599903013120857400035000615                                                                                     
7PESE                                                                                000000000037000                            
50001410201206072012060899030132638684       PES0000037000D000592012060714010192                                                
6024600037000121599903013263868400035000516                                                                                     
7PESE                                                                                000000000037000                            
50001510201206072012060899030133896263       PES0000037000A091052012060717540499                                                
6024600037000121599903013389626300035000700                                                                                     
7PESE                                                                                000000000037000                            
50001610201206072012060899030134515650       PES0000037000A084942012060717040146                                                
6024600037000121599903013451565000035000763                                                                                     
7PESE                                                                                000000000037000                            
50001710201206072012060899030136943330       PES0000037000A088552012060717100012                                                
6024600037000121599903013694333000035000584                                                                                     
7PESE                                                                                000000000037000                            
50001810201206072012060899030137040715       PES0000037000A042822012060716400181                                                
6024600037000121599903013704071500035000563                                                                                     
7PESE                                                                                000000000037000                            
50001910201206072012060899030131344778       PES0000043000A095702012060718520072                                                
6024600043000121599903013134477800035000763                                                                                     
7PESE                                                                                000000000043000                            
50002010201206072012060899030137542373       PES0000043000A043482012060719330284                                                
6024600043000121599903013754237300035000799                                                                                     
7PESE                                                                                000000000043000                            
50002110201206072012060899030221558279       PES0000043000D001482012060717390077                                                
6024600043000121599903022155827900035000757                                                                                     
7PESE                                                                                000000000043000                            
50002210201206072012060899030221903716       PES0000043000A046092012060719410280                                                
6024600043000121599903022190371600035000778                                                                                     
7PESE                                                                                000000000043000                            
50002310201206072012060899030234378677       PES0000043000A074672012060716280104                                                
6024600043000121599903023437867700035000637                                                                                     
7PESE                                                                                000000000043000                            
50002410201206072012060899030234630666       PES0000043000A092152012060716120173                                                
6024600043000121599903023463066600035000663                                                                                     
7PESE                                                                                000000000043000                            
50002510201206072012060899030234750295       PES0000043000D000502012060717220103                                                
6024600043000121599903023475029500035000700                                                                                     
7PESE                                                                                000000000043000                            
50002610201206072012060899030234984988       PES0000043000A049092012060711420106                                                
6024600043000121599903023498498800035000721                                                                                     
7PESE                                                                                000000000043000                            
50002710201206072012060899030235271379       PES0000043000A091582012060714020374                                                
6024600043000121599903023527137900035000500                                                                                     
7PESE                                                                                000000000043000                            
50002810201206072012060899030235755092       PES0000043000A093212012060718440277                                                
6024600043000121599903023575509200035000758                                                                                     
7PESE                                                                                000000000043000                            
50002910201206072012060899030236157259       PES0000043000A105602012060713100361                                                
6024600043000121599903023615725900035000215                                                                                     
7PESE                                                                                000000000043000                            
50003010201206072012060899030236996669       PES0000043000L120342012060711474158                                                
6024600043000121599903023699666900035000636                                                                                     
7PESE                                                                                000000000043000                            
50003110201206072012060899030238071739       PES0000043000A100712012060712560038                                                
6024600043000121599903023807173900035000521                                                                                     
7PESE                                                                                000000000043000                            
82012060800000100000310000011434500000000000000000000000000000000000000000031                                                   
9201206080000010000031000001143450000000000000000000000000000000000000000000031                                                 
