120121009PAGO FACIL               090060246FABIAN NORBERTO D´ERAMO                                                              
320121009000001FABIAN NORBERTO D´ERAMO                                                                                          
50000110201210052012100920050225771734       PES0000008000A079302012100318200026                                                
6024600008000122822005022577173400000000078                                                                                     
7PESE                                                                                000000000008000                            
50000210201210052012100900720523124661       PES0000046500A000162012100413470149                                                
6024600046500122790072052312466100010000558                                                                                     
7PESE                                                                                000000000046500                            
50000310201210052012100920050217229962       PES0000008000A084622012100511280052                                                
6024600008000122852005021722996200000000021                                                                                     
7PESE                                                                                000000000008000                            
50000410201210052012100918400525186749       PES0000015000A034222012100511160185                                                
6024600015000122851840052518674900100000042                                                                                     
7PESE                                                                                000000000015000                            
50000510201210052012100900722529683156       PES0000035000A100662012100511470039                                                
6024600035000122790072252968315600025000137                                                                                     
7PESE                                                                                000000000035000                            
50000610201210052012100998020116975364       PES0000015000A081572012100510290093                                                
6024600015000122819802011697536400010000179                                                                                     
7PESE                                                                                000000000015000                            
50000710201210052012100900713538151282       PES0000032500A028072012100509280089                                                
6024600032500122850071353815128200000000000                                                                                     
7PESE                                                                                000000000032500                            
50000810201210052012100900720522303571       PES0000046500A013172012100512150259                                                
6024600046500122790072052230357100010000358                                                                                     
7PESE                                                                                000000000046500                            
50000910201210052012100999030132431889       PES0000043000A104162012100512060204                                                
6024600043000122819903013243188900035000442                                                                                     
7PESE                                                                                000000000043000                            
50001010201210052012100900540432431889       PES0000026000A104162012100512060205                                                
6024600026000122850054043243188900010000063                                                                                     
7PESE                                                                                000000000026000                            
50001110201210052012100929080130887385       PES0000015000A075362012100511230175                                                
6024600012000122742908013088738500030007536                                                                                     
7PESE                                                                                000000000015000                            
50001210201210052012100900712426618792       PES0000032500A021692012100511340198                                                
6024600032500122830071242661879200000000000                                                                                     
7PESE                                                                                000000000032500                            
50001310201210052012100999030126562585       PES0000043000A108262012100512370210                                                
6024600043000122819903012656258500035000516                                                                                     
7PESE                                                                                000000000043000                            
50001410201210052012100944020428528437       PES0000008500A022092012100513070358                                                
6024600008500122844402042852843700000000042                                                                                     
7PESE                                                                                000000000008500                            
50001510201210052012100944021330114656       PES0000008500A022092012100513070359                                                
6024600008500122844402133011465600000000084                                                                                     
7PESE                                                                                000000000008500                            
50001610201210052012100944022006295339       PES0000008500A022092012100513070360                                                
6024600008500122844402200629533900000000042                                                                                     
7PESE                                                                                000000000008500                            
50001710201210052012100900714425029728       PES0000032500A111402012100511070070                                                
6024600029000122740071442502972800035007521                                                                                     
7PESE                                                                                000000000032500                            
50001810201210052012100999030135271379       PES0000043000A051342012100514290376                                                
6024600043000122819903013527137900035000379                                                                                     
7PESE                                                                                000000000043000                            
50001910201210052012100900723822410844       PES0000035000A028642012100514470152                                                
6024600035000122790072382241084400025000763                                                                                     
7PESE                                                                                000000000035000                            
50002010201210052012100999030132944859       PES0000043000A095132012100513500064                                                
6024600043000122819903013294485900035000378                                                                                     
7PESE                                                                                000000000043000                            
50002110201210052012100900720523299272       PES0000046500A037762012100510030001                                                
6024600046500122790072052329927200010000584                                                                                     
7PESE                                                                                000000000046500                            
50002210201210052012100965000130289331       PES0000013000A082982012100513020106                                                
6024600013000122836500013028933100015000042                                                                                     
7PESE                                                                                000000000013000                            
50002310201210052012100999030137110422       PES0000043000A010432012100513260206                                                
6024600043000122819903013711042200035000490                                                                                     
7PESE                                                                                000000000043000                            
50002410201210052012100998010132147005       PES0000015000A057152012100516160373                                                
6024600015000122859801013214700500000000016                                                                                     
7PESE                                                                                000000000015000                            
50002510201210052012100900720714186711       PES0000046500A091992012100515460367                                                
6024600046500122790072071418671100010000642                                                                                     
7PESE                                                                                000000000046500                            
50002610201210052012100900711722749814       PES0000032500A091122012100515170277                                                
6024600032500122850071172274981400000000079                                                                                     
7PESE                                                                                000000000032500                            
50002710201210052012100900722716399865       PES0000035000A103032012100513100143                                                
6024600035000122790072271639986500025000721                                                                                     
7PESE                                                                                000000000035000                            
50002810201210052012100900720423463186       PES0000046500A034742012100516120227                                                
6024600046500122790072042346318600010000437                                                                                     
7PESE                                                                                000000000046500                            
50002910201210052012100900724022644959       PES0000035000A034742012100516120228                                                
6024600035000122790072402264495900025000400                                                                                     
7PESE                                                                                000000000035000                            
50003010201210052012100900712235337375       PES0000032500A090002012100516410214                                                
6024600032500122830071223533737500000000084                                                                                     
7PESE                                                                                000000000032500                            
50003110201210052012100900714235962458       PES0000032500A090002012100516420215                                                
6024600032500122860071423596245800000000021                                                                                     
7PESE                                                                                000000000032500                            
50003210201210052012100900714327218080       PES0000032500A091492012100516510382                                                
6024600032500122820071432721808000000000078                                                                                     
7PESE                                                                                000000000032500                            
50003310201210052012100900722433458529       PES0000035000D000712012100516500126                                                
6024600035000122790072243345852900025000158                                                                                     
7PESE                                                                                000000000035000                            
50003410201210052012100900720423458819       PES0000046500A091662012100514060279                                                
6024600046500122790072042345881900010000500                                                                                     
7PESE                                                                                000000000046500                            
50003510201210052012100900713917945926       PES0000032500A090372012100515400404                                                
6024600032500122820071391794592600000000015                                                                                     
7PESE                                                                                000000000032500                            
50003610201210052012100900720716040322       PES0000046500A116382012100510130077                                                
6024600046500122790072071604032200010000536                                                                                     
7PESE                                                                                000000000046500                            
50003710201210052012100900720714976094       PES0000046500D000792012100517480468                                                
6024600046500122790072071497609400010000584                                                                                     
7PESE                                                                                000000000046500                            
50003810201210052012100900712913127347       PES0000032500A092052012100517410510                                                
6024600029000122740071291312734700035007563                                                                                     
7PESE                                                                                000000000032500                            
50003910201210052012100900712427183903       PES0000032500A091032012100517330244                                                
6024600032500122820071242718390300000000015                                                                                     
7PESE                                                                                000000000032500                            
50004010201210052012100999040118893421       PES0000029000D001492012100517250692                                                
6024600029000122819904011889342100015000316                                                                                     
7PESE                                                                                000000000029000                            
50004110201210052012100900723423403378       PES0000035000A046802012100514530031                                                
6024600035000122790072342340337800025000700                                                                                     
7PESE                                                                                000000000035000                            
50004210201210052012100999040127340271       PES0000029000A085232012100513590072                                                
6024600029000122819904012734027100015000558                                                                                     
7PESE                                                                                000000000029000                            
50004310201210052012100900720232554625       PES0000046500A054272012100514120192                                                
6024600046500122790072023255462500010000684                                                                                     
7PESE                                                                                000000000046500                            
50004410201210052012100999030131773438       PES0000043000A109712012100511310070                                                
6024600043000122819903013177343800035000578                                                                                     
7PESE                                                                                000000000043000                            
50004510201210052012100900720423506672       PES0000046500A072902012100517130269                                                
6024600046500122790072042350667200010000416                                                                                     
7PESE                                                                                000000000046500                            
50004610201210052012100900713010866707       PES0000032500A106072012100518290155                                                
6024600029000122740071301086670700035007642                                                                                     
7PESE                                                                                000000000032500                            
50004710201210052012100900714422318536       PES0000032500A077842012100517530098                                                
6024600032500122860071442231853600000000063                                                                                     
7PESE                                                                                000000000032500                            
50004810201210052012100900720618556507       PES0000046500A024232012100514030012                                                
6024600046500122790072061855650700010000763                                                                                     
7PESE                                                                                000000000046500                            
50004910201210052012100900720616557478       PES0000046500A024232012100514030013                                                
6024600046500122790072061655747800010000521                                                                                     
7PESE                                                                                000000000046500                            
50005010201210052012100999030121903716       PES0000043000A024432012100517370119                                                
6024600043000122819903012190371600035000379                                                                                     
7PESE                                                                                000000000043000                            
50005110201210052012100999020124599090       PES0000022000A074762012100510400100                                                
6024600022000122819902012459909000000000500                                                                                     
7PESE                                                                                000000000022000                            
50005210201210052012100999020224599090       PES0000022000A074762012100510410101                                                
6024600022000122819902022459909000000000521                                                                                     
7PESE                                                                                000000000022000                            
50005310201210052012100900753822650059       PES0000022500A031212012100517110004                                                
6024600019500122740075382265005900030007521                                                                                     
7PESE                                                                                000000000022500                            
50005410201210052012100900710729988615       PES0000032500A061472012100519260127                                                
6024600032500122860071072998861500000000057                                                                                     
7PESE                                                                                000000000032500                            
50005510201210052012100900540432631425       PES0000026000A063632012100519560047                                                
6024600026000122860054043263142500010000063                                                                                     
7PESE                                                                                000000000026000                            
50005610201210052012100999030132631425       PES0000043000A063632012100519580048                                                
6024600043000122819903013263142500035000542                                                                                     
7PESE                                                                                000000000043000                            
50005710201210052012100900712523898524       PES0000032500A082002012100520080156                                                
6024600032500122840071252389852400000000021                                                                                     
7PESE                                                                                000000000032500                            
50005810201210052012100998010126918852       PES0000015000M601892012100509570068                                                
6024600015000122859801012691885200000000000                                                                                     
7PESE                                                                                000000000015000                            
50005910201210052012100998010129403241       PES0000015000M601892012100512420239                                                
6024600015000122859801012940324100000000057                                                                                     
7PESE                                                                                000000000015000                            
50006010201210052012100900723728042394       PES0000035000M601272012100512040059                                                
6024600035000122790072372804239400025000600                                                                                     
7PESE                                                                                000000000035000                            
50006110201210052012100900714422216091       PES0000032500M601272012100516150077                                                
6024600032500122860071442221609100000000021                                                                                     
7PESE                                                                                000000000032500                            
50006210201210052012100900720230267203       PES0000046500M620902012100512470055                                                
6024600046500122790072023026720300010000584                                                                                     
7PESE                                                                                000000000046500                            
50006310201210052012100999030136806018       PES0000043000M600072012100516500376                                                
6024600043000122819903013680601800035000536                                                                                     
7PESE                                                                                000000000043000                            
50006410201210052012100900540436806018       PES0000026000M600072012100516500377                                                
6024600026000122860054043680601800010000058                                                                                     
7PESE                                                                                000000000026000                            
50006510201210052012100999030123723839       PES0000043000M600432012100513480286                                                
6024600043000122819903012372383900035000337                                                                                     
7PESE                                                                                000000000043000                            
50006610201210052012100900722529624553       PES0000035000M600552012100510410062                                                
6024600035000122790072252962455300025000563                                                                                     
7PESE                                                                                000000000035000                            
50006710201210062012100900714329564101       PES0000032500A069512012100611070059                                                
6024600032500122830071432956410100000000084                                                                                     
7PESE                                                                                000000000032500                            
50006810201210062012100952010526169147       PES0000010000A089052012100609470009                                                
6024600010000122855201052616914700010000021                                                                                     
7PESE                                                                                000000000010000                            
50006910201210062012100900712718407305       PES0000032500A056262012100610280078                                                
6024600032500122820071271840730500000000063                                                                                     
7PESE                                                                                000000000032500                            
50007010201210062012100999040130334113       PES0000029000A063662012100617540152                                                
6024600029000122819904013033411300015000642                                                                                     
7PESE                                                                                000000000029000                            
50007110201210062012100999040130663025       PES0000029000A001602012100610170024                                                
6024600029000122819904013066302500015000515                                                                                     
7PESE                                                                                000000000029000                            
50007210201210062012100900540434617181       PES0000026000A110622012100618130201                                                
6024600026000122870054043461718100010000016                                                                                     
7PESE                                                                                000000000026000                            
50007310201210062012100999030134617181       PES0000043000A110622012100618130202                                                
6024600043000122819903013461718100035000684                                                                                     
7PESE                                                                                000000000043000                            
50007410201210062012100900714331832520       PES0000032500A099522012100619370119                                                
6024600032500122860071433183252000000000084                                                                                     
7PESE                                                                                000000000032500                            
50007510201210062012100900720135337752       PES0000033300M600132012100610440030                                                
6024600032550122790072013533775200007500416                                                                                     
7PESE                                                                                000000000033300                            
50007610201210062012100969011914541681       PES0000015000L071192012100610319626                                                
6024600015000122866901191454168100025000042                                                                                     
7PESE                                                                                000000000015000                            
50007710201210082012100900540303729571       PES0000026000A113672012100610500048                                                
6024600026000122870054030372957100010000016                                                                                     
7PESE                                                                                000000000026000                            
50007810201210082012100999030103729571       PES0000043000A113672012100610500047                                                
6024600043000122819903010372957100035000600                                                                                     
7PESE                                                                                000000000043000                            
50007910201210072012100900714422910814       PES0000032500A024432012100713380159                                                
6024600032500122870071442291081400000000079                                                                                     
7PESE                                                                                000000000032500                            
50008010201210072012100999030136931489       PES0000043000A063672012100719350355                                                
6024600043000122819903013693148900035000721                                                                                     
7PESE                                                                                000000000043000                            
50008110201210072012100999030134750295       PES0000043000D001472012100715000415                                                
6024600043000122819903013475029500035000442                                                                                     
7PESE                                                                                000000000043000                            
50008210201210072012100900540434750295       PES0000026000D001472012100715010416                                                
6024600026000122880054043475029500010000099                                                                                     
7PESE                                                                                000000000026000                            
50008310201210072012100999040132166545       PES0000029000D001472012100719320802                                                
6024600029000122819904013216654500015000621                                                                                     
7PESE                                                                                000000000029000                            
82012100900000100000830000026743000000000000000000000000000000000000000000083                                                   
9201210090000010000083000002674300000000000000000000000000000000000000000000083                                                 
