120120209PAGO FACIL               090060246FABIAN NORBERTO D´ERAMO                                                              
320120209000001FABIAN NORBERTO D´ERAMO                                                                                          
50000110201202082012020900600713250708       PES0000029000A058122012020718010051                                                
6024600029000120440060071325070800000000037                                                                                     
7PESE                                                                                000000000029000                            
50000210201202082012020901311425597729       PES0000097000A081062012020716260002                                                
6024600097000120390131142559772900000000058                                                                                     
7PESE                                                                                000000000097000                            
50000310201202082012020900650526953471       PES0000014000A034742012020818570141                                                
6024600014000120420065052695347100000000037                                                                                     
7PESE                                                                                000000000014000                            
50000410201202082012020900692716940996       PES0000019000A099492012020816460170                                                
6024600019000120390069271694099600010000042                                                                                     
7PESE                                                                                000000000019000                            
50000510201202082012020900680235345771       PES0000019000A088132012020811410205                                                
6024600019000120460068023534577100020000036                                                                                     
7PESE                                                                                000000000019000                            
50000610201202082012020918370427689613       PES0000020000A080622012020810190035                                                
6024600020000120391837042768961300000000084                                                                                     
7PESE                                                                                000000000020000                            
50000710201202082012020918370620636671       PES0000020000A091692012020816550581                                                
6024600020000120401837062063667100000000058                                                                                     
7PESE                                                                                000000000020000                            
50000810201202082012020918370331532456       PES0000020000A109282012020810580119                                                
6024600020000120461837033153245600000000084                                                                                     
7PESE                                                                                000000000020000                            
50000910201202082012020999030229899852       PES0000040500A080682012020813380103                                                
6024600037000120389903022989985200035000763                                                                                     
7PESE                                                                                000000000040500                            
50001010201202082012020999030228324126       PES0000040500A037762012020818180362                                                
6024600040500120469903022832412600025000000                                                                                     
7PESE                                                                                000000000040500                            
50001110201202082012020901310422569445       PES0000097000A098142012020809100005                                                
6024600097000120390131042256944500000000090                                                                                     
7PESE                                                                                000000000097000                            
50001210201202082012020901310423146685       PES0000097000A091492012020811310111                                                
6024600097000120390131042314668500000000079                                                                                     
7PESE                                                                                000000000097000                            
50001310201202082012020901310424548216       PES0000097000A000162012020810530044                                                
6024600097000120390131042454821600000000099                                                                                     
7PESE                                                                                000000000097000                            
50001410201202082012020901311229360688       PES0000097000A078992012020816030233                                                
6024600097000120390131122936068800000000058                                                                                     
7PESE                                                                                000000000097000                            
50001510201202082012020901311229681341       PES0000097000A014522012020820230283                                                
6024600097000120390131122968134100000000016                                                                                     
7PESE                                                                                000000000097000                            
50001610201202082012020901311230008768       PES0000097000L070632012020812105923                                                
6024600097000120390131123000876800000000084                                                                                     
7PESE                                                                                000000000097000                            
50001710201202082012020901311327689613       PES0000097000A080622012020810190034                                                
6024600097000120390131132768961300000000078                                                                                     
7PESE                                                                                000000000097000                            
50001810201202082012020901311423745885       PES0000097000A103482012020811390033                                                
6024600097000120390131142374588500000000037                                                                                     
7PESE                                                                                000000000097000                            
50001910201202082012020901311424019770       PES0000097000A081782012020812020206                                                
6024600097000120390131142401977000000000058                                                                                     
7PESE                                                                                000000000097000                            
50002010201202082012020901311425397885       PES0000097000M620062012020810060021                                                
6024600097000120390131142539788500000000063                                                                                     
7PESE                                                                                000000000097000                            
50002110201202082012020901311520045080       PES0000097000A082022012020816540322                                                
6024600097000120390131152004508000000000037                                                                                     
7PESE                                                                                000000000097000                            
50002210201202082012020901311520364142       PES0000097000A091662012020816130321                                                
6024600097000120390131152036414200000000036                                                                                     
7PESE                                                                                000000000097000                            
50002310201202082012020901311520365060       PES0000097000D000072012020809470006                                                
6024600097000120390131152036506000000000000                                                                                     
7PESE                                                                                000000000097000                            
50002410201202082012020901311520636671       PES0000097000A091692012020816540580                                                
6024600097000120390131152063667100000000016                                                                                     
7PESE                                                                                000000000097000                            
50002510201202082012020901311617250265       PES0000097000A081792012020817570126                                                
6024600097000120390131161725026500000000000                                                                                     
7PESE                                                                                000000000097000                            
50002610201202082012020901311327028990       PES0000097000D001482012020811580109                                                
6024600097000120400131132702899000000000000                                                                                     
7PESE                                                                                000000000097000                            
50002710201202082012020901311518552187       PES0000097000A077902012020810050110                                                
6024600097000120400131151855218700000000000                                                                                     
7PESE                                                                                000000000097000                            
50002810201202082012020901311520029486       PES0000097000D001472012020817280097                                                
6024600097000120400131152002948600000000084                                                                                     
7PESE                                                                                000000000097000                            
50002910201202082012020901311424919730       PES0000097000L070532012020819532680                                                
6024600097000120410131142491973000000000000                                                                                     
7PESE                                                                                000000000097000                            
50003010201202082012020901311713940501       PES0000097000M601652012020815030337                                                
6024600097000120410131171394050100000000057                                                                                     
7PESE                                                                                000000000097000                            
50003110201202082012020901311714369435       PES0000097000A110172012020812220008                                                
6024600097000120420131171436943500000000016                                                                                     
7PESE                                                                                000000000097000                            
50003210201202082012020901310793580691       PES0000097000A102242012020812000144                                                
6024600097000120430131079358069100000000021                                                                                     
7PESE                                                                                000000000097000                            
50003310201202082012020901311422769864       PES0000097000A047382012020817370180                                                
6024600097000120430131142276986400000000099                                                                                     
7PESE                                                                                000000000097000                            
50003410201202082012020901311326769483       PES0000097000A028382012020809510040                                                
6024600097000120440131132676948300000000016                                                                                     
7PESE                                                                                000000000097000                            
50003510201202082012020901311327379962       PES0000097000A104792012020817460177                                                
6024600097000120440131132737996200000000090                                                                                     
7PESE                                                                                000000000097000                            
50003610201202082012020901311329068077       PES0000097000A091172012020811440125                                                
6024600097000120440131132906807700000000016                                                                                     
7PESE                                                                                000000000097000                            
50003710201202082012020901311425082170       PES0000097000A093492012020812000152                                                
6024600097000120440131142508217000000000078                                                                                     
7PESE                                                                                000000000097000                            
50003810201202082012020901310230688445       PES0000097000A080052012020817400080                                                
6024600097000120450131023068844500000000079                                                                                     
7PESE                                                                                000000000097000                            
50003910201202082012020901311229522296       PES0000097000A037602012020817220138                                                
6024600097000120460131122952229600000000042                                                                                     
7PESE                                                                                000000000097000                            
50004010201202082012020901311326080563       PES0000097000A056902012020810170019                                                
6024600097000120460131132608056300000000057                                                                                     
7PESE                                                                                000000000097000                            
50004110201202082012020901311326243637       PES0000097000A085382012020811080099                                                
6024600097000120460131132624363700000000084                                                                                     
7PESE                                                                                000000000097000                            
50004210201202082012020901311326737419       PES0000097000A047352012020815060017                                                
6024600097000120460131132673741900000000000                                                                                     
7PESE                                                                                000000000097000                            
50004310201202082012020901311423183300       PES0000097000A071652012020814410188                                                
6024600097000120460131142318330000000000000                                                                                     
7PESE                                                                                000000000097000                            
50004410201202082012020901311423390563       PES0000097000A109342012020817340048                                                
6024600097000120460131142339056300000000015                                                                                     
7PESE                                                                                000000000097000                            
50004510201202082012020901311617594124       PES0000097000A106992012020818070005                                                
6024600097000120460131161759412400000000063                                                                                     
7PESE                                                                                000000000097000                            
50004610201202082012020923061018178000       PES0000121600M600852012020818090383                                                
6024600121600120452306101817800000000000063                                                                                     
7PESE                                                                                000000000121600                            
50004710201202082012020923060133177182       PES0000121600A099342012020820070100                                                
6024600121600120462306013317718200000000042                                                                                     
7PESE                                                                                000000000121600                            
50004810201202082012020923061833413991       PES0000136600A081382012020810120078                                                
6024600136600120452306183341399100000000058                                                                                     
7PESE                                                                                000000000136600                            
50004910201202082012020923061835332729       PES0000136600A076442012020817410103                                                
6024600136600120452306183533272900000000057                                                                                     
7PESE                                                                                000000000136600                            
50005010201202082012020923061926774916       PES0000136600M670002012020817290180                                                
6024600136600120452306192677491600000000016                                                                                     
7PESE                                                                                000000000136600                            
50005110201202082012020923061136604107       PES0000136600A087812012020809400123                                                
6024600136600120462306113660410700000000058                                                                                     
7PESE                                                                                000000000136600                            
82012020900000100000510000045036000000000000000000000000000000000000000000051                                                   
9201202090000010000051000004503600000000000000000000000000000000000000000000051                                                 
