120120809PAGO FACIL               090060246FABIAN NORBERTO D´ERAMO                                                              
320120809000001FABIAN NORBERTO D´ERAMO                                                                                          
50000110201208082012080959001926342124       PES0000032000A076552012080716520174                                                
6024600032000122265900192634212400000000078                                                                                     
7PESE                                                                                000000000032000                            
50000210201208082012080999030128506908       PES0000036550A079502012080713370070                                                
6024600036550122209903012850690800030250737                                                                                     
7PESE                                                                                000000000036550                            
50000310201208082012080957002118475500       PES0000011000A103902012080808240016                                                
6024600011000122225700211847550000000000042                                                                                     
7PESE                                                                                000000000011000                            
50000410201208082012080957000131935143       PES0000014000A049942012080812080001                                                
6024600014000122215700013193514300000000084                                                                                     
7PESE                                                                                000000000014000                            
50000510201208082012080957000320425178       PES0000014000A110152012080813360255                                                
6024600014000122215700032042517800000000021                                                                                     
7PESE                                                                                000000000014000                            
50000610201208082012080957000728561209       PES0000014000A111512012080818490196                                                
6024600014000122215700072856120900000000021                                                                                     
7PESE                                                                                000000000014000                            
50000710201208082012080957000820190101       PES0000014000A085792012080810560078                                                
6024600014000122215700082019010100000000021                                                                                     
7PESE                                                                                000000000014000                            
50000810201208082012080957001135172499       PES0000014000A085792012080811350110                                                
6024600014000122215700113517249900000000016                                                                                     
7PESE                                                                                000000000014000                            
50000910201208082012080957001225873755       PES0000014000A103902012080818210078                                                
6024600014000122215700122587375500000000021                                                                                     
7PESE                                                                                000000000014000                            
50001010201208082012080957001314172392       PES0000014000A103902012080818040054                                                
6024600014000122215700131417239200000000036                                                                                     
7PESE                                                                                000000000014000                            
50001110201208082012080957000226497728       PES0000014000A103902012080808240015                                                
6024600014000122225700022649772800000000058                                                                                     
7PESE                                                                                000000000014000                            
50001210201208082012080957000317208353       PES0000014000A103902012080816390379                                                
6024600014000122225700031720835300000000015                                                                                     
7PESE                                                                                000000000014000                            
50001310201208082012080957000318256099       PES0000014000A085792012080811320109                                                
6024600014000122225700031825609900000000084                                                                                     
7PESE                                                                                000000000014000                            
50001410201208082012080957000318487363       PES0000014000A105512012080811080023                                                
6024600014000122225700031848736300000000063                                                                                     
7PESE                                                                                000000000014000                            
50001510201208082012080957000318525722       PES0000014000A103902012080819260143                                                
6024600014000122225700031852572200000000058                                                                                     
7PESE                                                                                000000000014000                            
50001610201208082012080957000322599074       PES0000014000A068722012080812390238                                                
6024600014000122225700032259907400000000042                                                                                     
7PESE                                                                                000000000014000                            
50001710201208082012080957000723647134       PES0000014000A085792012080811320108                                                
6024600014000122225700072364713400000000090                                                                                     
7PESE                                                                                000000000014000                            
50001810201208082012080957001225873511       PES0000014000A103902012080818470105                                                
6024600014000122225700122587351100000000016                                                                                     
7PESE                                                                                000000000014000                            
50001910201208082012080957001316752917       PES0000014000A103902012080818270089                                                
6024600014000122225700131675291700000000084                                                                                     
7PESE                                                                                000000000014000                            
50002010201208082012080957001318517096       PES0000014000A068722012080819540267                                                
6024600014000122225700131851709600000000000                                                                                     
7PESE                                                                                000000000014000                            
50002110201208082012080957001820041939       PES0000014000A103902012080819260145                                                
6024600014000122225700182004193900000000084                                                                                     
7PESE                                                                                000000000014000                            
50002210201208082012080957001821932251       PES0000014000A103902012080819260144                                                
6024600014000122225700182193225100000000099                                                                                     
7PESE                                                                                000000000014000                            
50002310201208082012080959000418503298       PES0000016000A620432012080810080004                                                
6024600016000122275900041850329800000000058                                                                                     
7PESE                                                                                000000000016000                            
50002410201208082012080959000516604513       PES0000016000A620432012080810080003                                                
6024600016000122275900051660451300000000036                                                                                     
7PESE                                                                                000000000016000                            
50002510201208082012080900723422868550       PES0000021000A090592012080812100186                                                
6024600021000122230072342286855000140000436                                                                                     
7PESE                                                                                000000000021000                            
50002610201208082012080999020235178748       PES0000022000A038142012080820080410                                                
6024600022000122289902023517874800000000036                                                                                     
7PESE                                                                                000000000022000                            
50002710201208082012080999020235592295       PES0000022000A038142012080820500472                                                
6024600022000122289902023559229500000000000                                                                                     
7PESE                                                                                000000000022000                            
50002810201208082012080900712523687305       PES0000023500A037752012080815280037                                                
6024600023500122210071252368730500055000000                                                                                     
7PESE                                                                                000000000023500                            
50002910201208082012080900712717674582       PES0000023500A081842012080816560139                                                
6024600023500122210071271767458200055000000                                                                                     
7PESE                                                                                000000000023500                            
50003010201208082012080900711021096216       PES0000023500A075212012080811460182                                                
6024600023500122220071102109621600055000016                                                                                     
7PESE                                                                                000000000023500                            
50003110201208082012080900713235532113       PES0000023500A113852012080817400355                                                
6024600023500122230071323553211300055000021                                                                                     
7PESE                                                                                000000000023500                            
50003210201208082012080900713329970261       PES0000023500A113852012080817400356                                                
6024600023500122230071332997026100055000057                                                                                     
7PESE                                                                                000000000023500                            
50003310201208082012080900714424211374       PES0000023500A077012012080817130128                                                
6024600023500122240071442421137400055000021                                                                                     
7PESE                                                                                000000000023500                            
50003410201208082012080900711816843173       PES0000023500A077012012080817130126                                                
6024600023500122260071181684317300055000042                                                                                     
7PESE                                                                                000000000023500                            
50003510201208082012080900712333872357       PES0000023500L120192012080809090381                                                
6024600023500122260071233387235700055000078                                                                                     
7PESE                                                                                000000000023500                            
50003610201208082012080900713220009162       PES0000023500A034672012080813290034                                                
6024600023500122260071322000916200055000042                                                                                     
7PESE                                                                                000000000023500                            
50003710201208082012080900711118039990       PES0000023500A077012012080817130130                                                
6024600023500122270071111803999000055000084                                                                                     
7PESE                                                                                000000000023500                            
50003810201208082012080900712137860467       PES0000023500L070542012080817450579                                                
6024600023500122270071213786046700055000015                                                                                     
7PESE                                                                                000000000023500                            
50003910201208082012080900712427610791       PES0000023500A077012012080817130127                                                
6024600023500122270071242761079100055000021                                                                                     
7PESE                                                                                000000000023500                            
50004010201208082012080900712718028143       PES0000023500A092032012080809580046                                                
6024600023500122270071271802814300055000036                                                                                     
7PESE                                                                                000000000023500                            
50004110201208082012080900714424211314       PES0000023500A077012012080817130129                                                
6024600023500122270071442421131400055000078                                                                                     
7PESE                                                                                000000000023500                            
50004210201208082012080900714514597984       PES0000023500A064992012080812000069                                                
6024600023500122270071451459798400055000099                                                                                     
7PESE                                                                                000000000023500                            
50004310201208082012080917030623164968       PES0000025000A060922012080811100285                                                
6024600025000122211703062316496800050000084                                                                                     
7PESE                                                                                000000000025000                            
50004410201208082012080902381241315042       PES0000025000A112882012080816220003                                                
6024600025000122220238124131504200000000042                                                                                     
7PESE                                                                                000000000025000                            
50004510201208082012080902381938700928       PES0000025000A112882012080816220004                                                
6024600025000122220238193870092800000000084                                                                                     
7PESE                                                                                000000000025000                            
50004610201208082012080902381717885557       PES0000025000A024632012080812350250                                                
6024600025000122230238171788555700000000099                                                                                     
7PESE                                                                                000000000025000                            
50004710201208082012080917030624339924       PES0000025000A640242012080808270008                                                
6024600025000122271703062433992400050000063                                                                                     
7PESE                                                                                000000000025000                            
50004810201208082012080900540336996669       PES0000026000A066812012080810470242                                                
6024600026000122250054033699666900010000084                                                                                     
7PESE                                                                                000000000026000                            
50004910201208082012080900540329708493       PES0000026000A071232012080812580180                                                
6024600026000122280054032970849300010000042                                                                                     
7PESE                                                                                000000000026000                            
50005010201208082012080999030129708493       PES0000027900A071232012080812580179                                                
6024600027900122289903012970849300015000084                                                                                     
7PESE                                                                                000000000027900                            
50005110201208082012080999040118893421       PES0000030500A092212012080816520453                                                
6024600030500122289904011889342100015000021                                                                                     
7PESE                                                                                000000000030500                            
50005210201208082012080900720326604667       PES0000031000A091162012080812030215                                                
6024600031000122210072032660466700155000063                                                                                     
7PESE                                                                                000000000031000                            
50005310201208082012080900721231684607       PES0000031000A091162012080812030216                                                
6024600031000122210072123168460700155000078                                                                                     
7PESE                                                                                000000000031000                            
50005410201208082012080900720618223360       PES0000031000A075812012080818000010                                                
6024600031000122230072061822336000155000500                                                                                     
7PESE                                                                                000000000031000                            
50005510201208082012080902380235266242       PES0000033000A059512012080810280140                                                
6024600033000122230238023526624200000000090                                                                                     
7PESE                                                                                000000000033000                            
50005610201208082012080998010233506139       PES0000040000A601832012080812190062                                                
6024600040000122269801023350613900000000016                                                                                     
7PESE                                                                                000000000040000                            
50005710201208082012080999030136996669       PES0000046500A066812012080810460241                                                
6024600043000122209903013699666900035000584                                                                                     
7PESE                                                                                000000000046500                            
50005810201208082012080999030132639591       PES0000046500A028662012080817480087                                                
6024600046500122289903013263959100025000084                                                                                     
7PESE                                                                                000000000046500                            
82012080900000100000580000012894500000000000000000000000000000000000000000058                                                   
9201208090000010000058000001289450000000000000000000000000000000000000000000058                                                 
