120120109PAGO FACIL               090060246FABIAN NORBERTO D´ERAMO                                                              
320120109000001FABIAN NORBERTO D´ERAMO                                                                                          
50000110201201062012010929060412468519       PES0000013000A098212012010211460183                                                
6024600013000120032906041246851900000000021                                                                                     
7PESE                                                                                000000000013000                            
50000210201201062012010902321331752925       PES0000025000M601252012010511000047                                                
6024600025000120050232133175292500030000058                                                                                     
7PESE                                                                                000000000025000                            
50000310201201062012010999030225909375       PES0000037000A084182012010612310291                                                
6024600037000120079903022590937500035000663                                                                                     
7PESE                                                                                000000000037000                            
50000410201201062012010902320817901826       PES0000025000A062492012010611120008                                                
6024600025000120100232081790182600030000336                                                                                     
7PESE                                                                                000000000025000                            
50000510201201062012010923060325315377       PES0000108800A065492012010614100173                                                
6024600108800120132306032531537700128000042                                                                                     
7PESE                                                                                000000000108800                            
50000610201201062012010999030235400740       PES0000037000A620952012010612040060                                                
6024600037000120079903023540074000035000621                                                                                     
7PESE                                                                                000000000037000                            
50000710201201062012010999030229899852       PES0000037000A601232012010616250179                                                
6024600037000120079903022989985200035000542                                                                                     
7PESE                                                                                000000000037000                            
50000810201201062012010902320814922747       PES0000025000A092062012010613570347                                                
6024600025000120100232081492274700030000399                                                                                     
7PESE                                                                                000000000025000                            
50000910201201062012010902320621480355       PES0000025000A092062012010613580348                                                
6024600025000120100232062148035500030000336                                                                                     
7PESE                                                                                000000000025000                            
50001010201201062012010999030233897409       PES0000037000A100472012010615150152                                                
6024600037000120079903023389740900035000699                                                                                     
7PESE                                                                                000000000037000                            
50001110201201062012010923061123039436       PES0000121600A097192012010614100212                                                
6024600121600120132306112303943600150000042                                                                                     
7PESE                                                                                000000000121600                            
50001210201201062012010953000324588863       PES0000011000A042822012010620000194                                                
6024600011000120065300032458886300000000021                                                                                     
7PESE                                                                                000000000011000                            
50001310201201062012010999030231208574       PES0000037000A087932012010618450186                                                
6024600037000120079903023120857400035000642                                                                                     
7PESE                                                                                000000000037000                            
50001410201201062012010999030216975364       PES0000037000A081572012010617280083                                                
6024600037000120079903021697536400035000363                                                                                     
7PESE                                                                                000000000037000                            
50001510201201062012010923060421457116       PES0000108800A034222012010616280045                                                
6024600108800120132306042145711600128000063                                                                                     
7PESE                                                                                000000000108800                            
50001610201201062012010923061837525107       PES0000121600A096332012010619400177                                                
6024600121600120122306183752510700150000042                                                                                     
7PESE                                                                                000000000121600                            
50001710201201062012010900622620203179       PES0000012000A045372012010619460004                                                
6024600012000120100062262020317900020000084                                                                                     
7PESE                                                                                000000000012000                            
50001810201201062012010999030233914097       PES0000037000D000392012010617350178                                                
6024600037000120079903023391409700035000600                                                                                     
7PESE                                                                                000000000037000                            
50001910201201062012010999030237040715       PES0000037000D001472012010619110263                                                
6024600037000120069903023704071500035000079                                                                                     
7PESE                                                                                000000000037000                            
50002010201201062012010999030232638684       PES0000037000M620642012010609446504                                                
6024600037000120079903023263868400035000416                                                                                     
7PESE                                                                                000000000037000                            
50002110201201062012010923061839392433       PES0000121600L070772012010616041584                                                
6024600121600120122306183939243300150000057                                                                                     
7PESE                                                                                000000000121600                            
50002210201201072012010923060636842550       PES0000108800M620862012010613369616                                                
6024600108800120122306063684255000128000084                                                                                     
7PESE                                                                                000000000108800                            
50002310201201072012010999030234229591       PES0000037000A085372012010711550240                                                
6024600037000120079903023422959100035000621                                                                                     
7PESE                                                                                000000000037000                            
50002410201201072012010999030227925597       PES0000037000A085372012010712230272                                                
6024600037000120079903022792559700035000637                                                                                     
7PESE                                                                                000000000037000                            
50002510201201072012010999030229118464       PES0000037000A042822012010713220258                                                
6024600037000120079903022911846400035000758                                                                                     
7PESE                                                                                000000000037000                            
50002610201201072012010999030293925151       PES0000037000M600132012010712520192                                                
6024600037000120079903029392515100035000615                                                                                     
7PESE                                                                                000000000037000                            
50002710201201082012010923060129298692       PES0000108800A065492012010815540052                                                
6024600108800120122306012929869200128000058                                                                                     
7PESE                                                                                000000000108800                            
82012010900000100000270000014170000000000000000000000000000000000000000000027                                                   
9201201090000010000027000001417000000000000000000000000000000000000000000000027                                                 
