120120210PAGO FACIL               090060246FABIAN NORBERTO D´ERAMO                                                              
320120210000001FABIAN NORBERTO D´ERAMO                                                                                          
50000110201202092012021053011629118502       PES0000006000A111282012020914360111                                                
6024600006000120455301162911850200015000084                                                                                     
7PESE                                                                                000000000006000                            
50000210201202092012021053011631493470       PES0000006000A111282012020914360112                                                
6024600006000120455301163149347000015000037                                                                                     
7PESE                                                                                000000000006000                            
50000310201202092012021000650625726428       PES0000014000D001512012020913080180                                                
6024600014000120420065062572642800000000016                                                                                     
7PESE                                                                                000000000014000                            
50000410201202092012021000650631624726       PES0000014000A072352012020914330051                                                
6024600014000120420065063162472600000000078                                                                                     
7PESE                                                                                000000000014000                            
50000510201202092012021000682910849285       PES0000019000A602062012020910290059                                                
6024600019000120410068291084928500020000021                                                                                     
7PESE                                                                                000000000019000                            
50000610201202092012021018370622470212       PES0000020000A109822012020914020206                                                
6024600020000120471837062247021200000000079                                                                                     
7PESE                                                                                000000000020000                            
50000710201202092012021000600714739906       PES0000029000L071192012020914000156                                                
6024600029000120440060071473990600000000063                                                                                     
7PESE                                                                                000000000029000                            
50000810201202092012021099030216975364       PES0000040500D000282012020909390031                                                
6024600037000120389903021697536400035000316                                                                                     
7PESE                                                                                000000000040500                            
50000910201202092012021099030237040715       PES0000040500A042822012020912280209                                                
6024600037000120389903023704071500035000542                                                                                     
7PESE                                                                                000000000040500                            
50001010201202092012021099030230590893       PES0000040500A094782012020918210050                                                
6024600040500120469903023059089300025000121                                                                                     
7PESE                                                                                000000000040500                            
50001110201202092012021001311326588755       PES0000097000A048292012020919340040                                                
6024600097000120400131132658875500000000063                                                                                     
7PESE                                                                                000000000097000                            
50001210201202092012021001311327938198       PES0000097000A069142012020910200026                                                
6024600097000120400131132793819800000000000                                                                                     
7PESE                                                                                000000000097000                            
50001310201202092012021001311520330559       PES0000097000A108852012020915500034                                                
6024600097000120400131152033055900000000016                                                                                     
7PESE                                                                                000000000097000                            
50001410201202092012021001311520656463       PES0000097000A110162012020911180060                                                
6024600097000120400131152065646300000000042                                                                                     
7PESE                                                                                000000000097000                            
50001510201202092012021001311713236329       PES0000097000A091052012020916300161                                                
6024600097000120400131171323632900000000021                                                                                     
7PESE                                                                                000000000097000                            
50001610201202092012021001311714081746       PES0000097000A098192012020917480373                                                
6024600097000120400131171408174600000000021                                                                                     
7PESE                                                                                000000000097000                            
50001710201202092012021001311714201584       PES0000097000A060502012020919080183                                                
6024600097000120400131171420158400000000079                                                                                     
7PESE                                                                                000000000097000                            
50001810201202092012021001311907637819       PES0000097000A108312012020919170311                                                
6024600097000120410131190763781900000000078                                                                                     
7PESE                                                                                000000000097000                            
50001910201202092012021001311520022587       PES0000097000A059742012020916100063                                                
6024600097000120440131152002258700000000099                                                                                     
7PESE                                                                                000000000097000                            
50002010201202092012021001311521997024       PES0000097000A056592012020911480289                                                
6024600097000120440131152199702400000000036                                                                                     
7PESE                                                                                000000000097000                            
50002110201202092012021001310229592311       PES0000097000A087052012020910400052                                                
6024600097000120450131022959231100000000058                                                                                     
7PESE                                                                                000000000097000                            
50002210201202092012021001311229647297       PES0000097000A087052012020910400051                                                
6024600097000120450131122964729700000000063                                                                                     
7PESE                                                                                000000000097000                            
50002310201202092012021001311326124201       PES0000097000A028382012020911420097                                                
6024600097000120450131132612420100000000037                                                                                     
7PESE                                                                                000000000097000                            
50002410201202092012021001311521816119       PES0000097000A640522012020909560071                                                
6024600097000120450131152181611900000000084                                                                                     
7PESE                                                                                000000000097000                            
50002510201202092012021001311522434017       PES0000097000A026742012020911450084                                                
6024600097000120450131152243401700000000057                                                                                     
7PESE                                                                                000000000097000                            
50002610201202092012021001311618102157       PES0000097000A105732012020912450190                                                
6024600097000120460131161810215700000000078                                                                                     
7PESE                                                                                000000000097000                            
50002710201202092012021001310712950326       PES0000097000D000512012020917440067                                                
6024600097000120470131071295032600000000057                                                                                     
7PESE                                                                                000000000097000                            
50002810201202092012021001311518429504       PES0000097000M600742012020914590401                                                
6024600097000120470131151842950400000000063                                                                                     
7PESE                                                                                000000000097000                            
50002910201202092012021001311713676024       PES0000097000A090202012020910510046                                                
6024600097000120470131171367602400000000042                                                                                     
7PESE                                                                                000000000097000                            
50003010201202092012021023060724377201       PES0000121600M620152012020916100077                                                
6024600121600120442306072437720100000000042                                                                                     
7PESE                                                                                000000000121600                            
50003110201202092012021023060829866837       PES0000121600A107512012020911560104                                                
6024600121600120452306082986683700000000021                                                                                     
7PESE                                                                                000000000121600                            
50003210201202092012021023061129197268       PES0000136600D000212012020909180001                                                
6024600136600120462306112919726800000000078                                                                                     
7PESE                                                                                000000000136600                            
82012021000000100000320000024523000000000000000000000000000000000000000000032                                                   
9201202100000010000032000002452300000000000000000000000000000000000000000000032                                                 
