120120810PAGO FACIL               090060246FABIAN NORBERTO D´ERAMO                                                              
320120810000001FABIAN NORBERTO D´ERAMO                                                                                          
50000110201208092012081057002117208385       PES0000011000A110152012080910390074                                                
6024600011000122225700211720838500000000057                                                                                     
7PESE                                                                                000000000011000                            
50000210201208092012081057002118021119       PES0000011000A110152012080916370228                                                
6024600011000122225700211802111900000000079                                                                                     
7PESE                                                                                000000000011000                            
50000310201208092012081057002124130011       PES0000011000A110152012080910390075                                                
6024600011000122225700212413001100000000099                                                                                     
7PESE                                                                                000000000011000                            
50000410201208092012081057001130812821       PES0000014000A103902012080921280161                                                
6024600014000122225700113081282100000000063                                                                                     
7PESE                                                                                000000000014000                            
50000510201208092012081057001820331216       PES0000014000A103902012080909000011                                                
6024600014000122225700182033121600000000084                                                                                     
7PESE                                                                                000000000014000                            
50000610201208092012081057001824732009       PES0000014000A110152012080915500210                                                
6024600014000122225700182473200900000000036                                                                                     
7PESE                                                                                000000000014000                            
50000710201208092012081057000316862503       PES0000014000A107732012080913090113                                                
6024600014000122235700031686250300000000058                                                                                     
7PESE                                                                                000000000014000                            
50000810201208092012081057001320412048       PES0000014000A103902012080921310163                                                
6024600014000122235700132041204800000000015                                                                                     
7PESE                                                                                000000000014000                            
50000910201208092012081057001728472248       PES0000014000A103902012080921310162                                                
6024600014000122235700172847224800000000015                                                                                     
7PESE                                                                                000000000014000                            
50001010201208092012081059000226429059       PES0000016000A043132012080909260007                                                
6024600016000122265900022642905900000000021                                                                                     
7PESE                                                                                000000000016000                            
50001110201208092012081059000501857099       PES0000016000A090422012080912080041                                                
6024600016000122265900050185709900000000036                                                                                     
7PESE                                                                                000000000016000                            
50001210201208092012081059001029979716       PES0000016000A098562012080911120004                                                
6024600016000122265900102997971600000000000                                                                                     
7PESE                                                                                000000000016000                            
50001310201208092012081059000421717478       PES0000016000A099542012080911390114                                                
6024600016000122275900042171747800000000036                                                                                     
7PESE                                                                                000000000016000                            
50001410201208092012081000724030576728       PES0000021000L120172012080911045422                                                
6024600021000122230072403057672800140000442                                                                                     
7PESE                                                                                000000000021000                            
50001510201208092012081099020232381986       PES0000022000A028202012080910460139                                                
6024600022000122289902023238198600000000000                                                                                     
7PESE                                                                                000000000022000                            
50001610201208092012081000711625443859       PES0000023500A601492012080911190063                                                
6024600023500122220071162544385900055000084                                                                                     
7PESE                                                                                000000000023500                            
50001710201208092012081000713732531606       PES0000023500A034162012080913070261                                                
6024600023500122220071373253160600055000016                                                                                     
7PESE                                                                                000000000023500                            
50001810201208092012081000712524095029       PES0000023500L120212012080911094562                                                
6024600023500122250071252409502900055000099                                                                                     
7PESE                                                                                000000000023500                            
50001910201208092012081000711529345257       PES0000023500A061482012080914560006                                                
6024600023500122260071152934525700055000057                                                                                     
7PESE                                                                                000000000023500                            
50002010201208092012081000712622836625       PES0000023500A042092012080918010570                                                
6024600023500122260071262283662500055000042                                                                                     
7PESE                                                                                000000000023500                            
50002110201208092012081000713729150728       PES0000023500A112852012080914590217                                                
6024600023500122260071372915072800055000058                                                                                     
7PESE                                                                                000000000023500                            
50002210201208092012081000713822309148       PES0000023500A078732012080910000045                                                
6024600023500122270071382230914800055000099                                                                                     
7PESE                                                                                000000000023500                            
50002310201208092012081000714517717025       PES0000023500A092212012080916040335                                                
6024600023500122270071451771702500055000084                                                                                     
7PESE                                                                                000000000023500                            
50002410201208092012081000710828126563       PES0000023500L070772012080914540701                                                
6024600023500122290071082812656300055000000                                                                                     
7PESE                                                                                000000000023500                            
50002510201208092012081000712622528616       PES0000023500M600712012080913490264                                                
6024600023500122290071262252861600055000099                                                                                     
7PESE                                                                                000000000023500                            
50002610201208092012081002383436070619       PES0000025000A030152012080919080174                                                
6024600025000122220238343607061900000000042                                                                                     
7PESE                                                                                000000000025000                            
50002710201208092012081002390718324344       PES0000030000A076262012080908460002                                                
6024600030000122230239071832434400030000284                                                                                     
7PESE                                                                                000000000030000                            
50002810201208092012081000720330193610       PES0000031000L120172012080911045423                                                
6024600031000122230072033019361000155000421                                                                                     
7PESE                                                                                000000000031000                            
50002910201208092012081059001923424210       PES0000032000M620752012080913140070                                                
6024600032000122295900192342421000000000037                                                                                     
7PESE                                                                                000000000032000                            
50003010201208092012081099030136991781       PES0000039575A109822012080918580057                                                
6024600036550122209903013699178100030250742                                                                                     
7PESE                                                                                000000000039575                            
50003110201208092012081099030129064453       PES0000046500A071762012080909350080                                                
6024600043000122209903012906445300035000721                                                                                     
7PESE                                                                                000000000046500                            
50003210201208092012081099030134949488       PES0000046500A100712012080910590120                                                
6024600043000122209903013494948800035000621                                                                                     
7PESE                                                                                000000000046500                            
82012081000000100000320000007095750000000000000000000000000000000000000000032                                                   
9201208100000010000032000000709575000000000000000000000000000000000000000000032                                                 
