120120410PAGO FACIL               090060246FABIAN NORBERTO D´ERAMO                                                              
320120410000001FABIAN NORBERTO D´ERAMO                                                                                          
50000110201204092012041002351717606099       PES0000017000A098552012040914370216                                                
6024600017000121020235171760609900030000037                                                                                     
7PESE                                                                                000000000017000                            
50000210201204092012041000702811994806       PES0000020000A058512012040910520047                                                
6024600020000120990070281199480600020000299                                                                                     
7PESE                                                                                000000000020000                            
50000310201204092012041002350912143183       PES0000029000A098032012040919090127                                                
6024600029000121070235091214318300040000021                                                                                     
7PESE                                                                                000000000029000                            
50000410201204092012041099030133016959       PES0000040500A070462012040919180220                                                
6024600040500121069903013301695900025000184                                                                                     
7PESE                                                                                000000000040500                            
82012041000000100000040000001065000000000000000000000000000000000000000000004                                                   
9201204100000010000004000000106500000000000000000000000000000000000000000000004                                                 
