120121210PAGO FACIL               090060246FABIAN NORBERTO D´ERAMO                                                              
320121210000001FABIAN NORBERTO D´ERAMO                                                                                          
50000110201212072012121071011722229625       PES0000009000A109712012120610580115                                                
6024600009000123417101172222962500000000021                                                                                     
7PESE                                                                                000000000009000                            
50000210201212072012121071010323322720       PES0000018000A109712012120618210314                                                
6024600018000123417101032332272000000000037                                                                                     
7PESE                                                                                000000000018000                            
50000310201212072012121073000347822532       PES0000009500A660392012120711490046                                                
6024600009500123497300034782253200000000084                                                                                     
7PESE                                                                                000000000009500                            
50000410201212072012121073000130842149       PES0000012000A660392012120711500047                                                
6024600012000123427300013084214900030000790                                                                                     
7PESE                                                                                000000000012000                            
50000510201212072012121000772718026105       PES0000028500A028202012120709460104                                                
6024600028500123480077271802610500000000084                                                                                     
7PESE                                                                                000000000028500                            
50000610201212072012121073000231807862       PES0000012000A660492012120712210371                                                
6024600012000123427300023180786200030000400                                                                                     
7PESE                                                                                000000000012000                            
50000710201212072012121073000232317415       PES0000012000A660492012120712210372                                                
6024600012000123427300023231741500030000699                                                                                     
7PESE                                                                                000000000012000                            
50000810201212072012121029080227593569       PES0000018000A109902012120711110169                                                
6024600018000123482908022759356900000000084                                                                                     
7PESE                                                                                000000000018000                            
50000910201212072012121029080130133267       PES0000018000A109902012120711120170                                                
6024600015000123352908013013326700030007637                                                                                     
7PESE                                                                                000000000018000                            
50001010201212072012121073000131814296       PES0000012000A098422012120711230217                                                
6024600012000123427300013181429600030000784                                                                                     
7PESE                                                                                000000000012000                            
50001110201212072012121099030134949488       PES0000043000A100712012120710290029                                                
6024600043000123429903013494948800035000615                                                                                     
7PESE                                                                                000000000043000                            
50001210201212072012121099030137357940       PES0000043000A089982012120711580043                                                
6024600043000123429903013735794000035000542                                                                                     
7PESE                                                                                000000000043000                            
50001310201212072012121002422339484908       PES0000028000A109842012120714060014                                                
6024600022000123400242233948490800060000484                                                                                     
7PESE                                                                                000000000028000                            
50001410201212072012121029080229670452       PES0000018000A055332012120714250233                                                
6024600018000123452908022967045200000000063                                                                                     
7PESE                                                                                000000000018000                            
50001510201212072012121099030137247863       PES0000036550A090612012120709560070                                                
6024600036550123429903013724786300030250684                                                                                     
7PESE                                                                                000000000036550                            
50001610201212072012121002423516436600       PES0000028000A028642012120715490239                                                
6024600022000123400242351643660000060000621                                                                                     
7PESE                                                                                000000000028000                            
50001710201212072012121099040135174854       PES0000029000A010432012120713330178                                                
6024600029000123429904013517485400015000700                                                                                     
7PESE                                                                                000000000029000                            
50001810201212072012121098030435174854       PES0000024000A010432012120713330179                                                
6024600024000123429803043517485400015000784                                                                                     
7PESE                                                                                000000000024000                            
50001910201212072012121099030136931489       PES0000043000A063672012120712510048                                                
6024600043000123429903013693148900035000621                                                                                     
7PESE                                                                                000000000043000                            
50002010201212072012121099040127340271       PES0000029000A085232012120714460064                                                
6024600029000123429904012734027100015000758                                                                                     
7PESE                                                                                000000000029000                            
50002110201212072012121073000232373366       PES0000012000A083632012120708510031                                                
6024600012000123427300023237336600030000658                                                                                     
7PESE                                                                                000000000012000                            
50002210201212072012121073000230754895       PES0000012000A083642012120714340299                                                
6024600012000123427300023075489500030000521                                                                                     
7PESE                                                                                000000000012000                            
50002310201212072012121000772717020552       PES0000028500A023702012120716410231                                                
6024600028500123480077271702055200000000015                                                                                     
7PESE                                                                                000000000028500                            
50002410201212072012121099030135271379       PES0000043000A049092012120715470217                                                
6024600043000123429903013527137900035000442                                                                                     
7PESE                                                                                000000000043000                            
50002510201212072012121002420330193610       PES0000040000D000762012120714510192                                                
6024600032000123400242033019361000080000763                                                                                     
7PESE                                                                                000000000040000                            
50002610201212072012121000771914108718       PES0000028500A070822012120718030181                                                
6024600028500123470077191410871800000000099                                                                                     
7PESE                                                                                000000000028500                            
50002710201212072012121073000128625814       PES0000012000A660122012120717510013                                                
6024600012000123427300012862581400030000799                                                                                     
7PESE                                                                                000000000012000                            
50002810201212072012121073000229922174       PES0000012000A660122012120717520014                                                
6024600012000123427300022992217400030000779                                                                                     
7PESE                                                                                000000000012000                            
50002910201212072012121073000127360839       PES0000012000A060492012120718040158                                                
6024600012000123427300012736083900030000784                                                                                     
7PESE                                                                                000000000012000                            
50003010201212072012121000772426920552       PES0000028500A065362012120717100170                                                
6024600028500123480077242692055200000000063                                                                                     
7PESE                                                                                000000000028500                            
50003110201212072012121098010134248088       PES0000015000A108712012120718370246                                                
6024600015000123499801013424808800000000016                                                                                     
7PESE                                                                                000000000015000                            
50003210201212072012121029080728729651       PES0000018000A116422012120718450023                                                
6024600015000123352908072872965100030007737                                                                                     
7PESE                                                                                000000000018000                            
50003310201212072012121073000120452715       PES0000012000A117402012120707210017                                                
6024600012000123427300012045271500030000757                                                                                     
7PESE                                                                                000000000012000                            
50003410201212072012121000773440567316       PES0000028500A093422012120719030050                                                
6024600028500123480077344056731600000000015                                                                                     
7PESE                                                                                000000000028500                            
50003510201212072012121099040130334113       PES0000029000A063662012120719250051                                                
6024600029000123429904013033411300015000700                                                                                     
7PESE                                                                                000000000029000                            
50003610201212072012121073000128625966       PES0000012000A115732012120714040030                                                
6024600012000123427300012862596600030000763                                                                                     
7PESE                                                                                000000000012000                            
50003710201212072012121059010133908104       PES0000011000A053762012120718150064                                                
6024600011000123445901013390810400000000063                                                                                     
7PESE                                                                                000000000011000                            
50003810201212072012121073000234335325       PES0000012000A105312012120719250182                                                
6024600012000123427300023433532500030000763                                                                                     
7PESE                                                                                000000000012000                            
50003910201212072012121073000132139777       PES0000012000A076352012120719000077                                                
6024600012000123427300013213977700030000636                                                                                     
7PESE                                                                                000000000012000                            
50004010201212072012121000774424365292       PES0000028500A023312012120714270141                                                
6024600028500123480077442436529200000000015                                                                                     
7PESE                                                                                000000000028500                            
50004110201212072012121000774743803404       PES0000008000A117802012120716510067                                                
6024600008000123480077474380340400000000021                                                                                     
7PESE                                                                                000000000008000                            
50004210201212072012121000774138925915       PES0000028500A117802012120716510068                                                
6024600028500123480077413892591500000000015                                                                                     
7PESE                                                                                000000000028500                            
50004310201212072012121073000136186184       PES0000012000A096012012120718390058                                                
6024600012000123427300013618618400030000737                                                                                     
7PESE                                                                                000000000012000                            
50004410201212072012121073000128981494       PES0000012000A096012012120720150129                                                
6024600012000123427300012898149400030000784                                                                                     
7PESE                                                                                000000000012000                            
50004510201212072012121059011224828939       PES0000011000A060572012120719540377                                                
6024600011000123425901122482893900000000084                                                                                     
7PESE                                                                                000000000011000                            
50004610201212072012121099030140497077       PES0000043000A079702012120719290400                                                
6024600043000123429903014049707700035000621                                                                                     
7PESE                                                                                000000000043000                            
50004710201212072012121099040132166545       PES0000029000A097302012120721470037                                                
6024600029000123429904013216654500015000784                                                                                     
7PESE                                                                                000000000029000                            
50004810201212072012121002420521831336       PES0000040000M600732012120715520091                                                
6024600040000123480242052183133600075000063                                                                                     
7PESE                                                                                000000000040000                            
50004910201212072012121000772813974445       PES0000028500M620162012120709360007                                                
6024600028500123480077281397444500000000078                                                                                     
7PESE                                                                                000000000028500                            
50005010201212072012121059010135066205       PES0000011000A096492012120720520095                                                
6024600011000123445901013506620500000000063                                                                                     
7PESE                                                                                000000000011000                            
50005110201212072012121059010132450056       PES0000011000A096492012120720530096                                                
6024600011000123445901013245005600000000063                                                                                     
7PESE                                                                                000000000011000                            
50005210201212072012121000772523898524       PES0000028500M620102012120712310026                                                
6024600028500123460077252389852400000000000                                                                                     
7PESE                                                                                000000000028500                            
50005310201212072012121099030137461688       PES0000043000L070292012120718183864                                                
6024600043000123429903013746168800035000763                                                                                     
7PESE                                                                                000000000043000                            
50005410201212082012121000771916171175       PES0000028500A081582012120714320027                                                
6024600028500123460077191617117500000000015                                                                                     
7PESE                                                                                000000000028500                            
50005510201212082012121000771117687643       PES0000028500A080682012120811460063                                                
6024600028500123480077111768764300000000084                                                                                     
7PESE                                                                                000000000028500                            
50005610201212082012121059010326100570       PES0000011000A090422012120810210006                                                
6024600011000123445901032610057000000000090                                                                                     
7PESE                                                                                000000000011000                            
50005710201212082012121059010135747029       PES0000011000A099542012120811260076                                                
6024600011000123445901013574702900000000090                                                                                     
7PESE                                                                                000000000011000                            
50005810201212082012121073000234128076       PES0000015000A113632012120815400197                                                
6024600012000123427300023412807600030000200                                                                                     
7PESE                                                                                000000000015000                            
82012121000000100000580000012765500000000000000000000000000000000000000000058                                                   
9201212100000010000058000001276550000000000000000000000000000000000000000000058                                                 
