120120711PAGO FACIL               090060246FABIAN NORBERTO D´ERAMO                                                              
320120711000001FABIAN NORBERTO D´ERAMO                                                                                          
50000110201207102012071157011328219665       PES0000013000A095922012071019490236                                                
6024600013000121975701132821966500010000200                                                                                     
7PESE                                                                                000000000013000                            
50000210201207102012071157011339161451       PES0000013000A095922012071019490237                                                
6024600013000121975701133916145100010000215                                                                                     
7PESE                                                                                000000000013000                            
50000310201207102012071159001322360471       PES0000016000A079082012071012540087                                                
6024600016000121945900132236047100000000090                                                                                     
7PESE                                                                                000000000016000                            
50000410201207102012071197000435978685       PES0000020000A093012012071017110225                                                
6024600020000121959700043597868500000000090                                                                                     
7PESE                                                                                000000000020000                            
50000510201207102012071199020232638684       PES0000022000B030862012071012028142                                                
6024600022000121899902023263868400000000621                                                                                     
7PESE                                                                                000000000022000                            
50000610201207102012071199020235178748       PES0000022000A740092012071011240021                                                
6024600022000121979902023517874800000000142                                                                                     
7PESE                                                                                000000000022000                            
50000710201207102012071199020235592295       PES0000022000A740092012071011240020                                                
6024600022000121979902023559229500000000116                                                                                     
7PESE                                                                                000000000022000                            
50000810201207102012071199030136931489       PES0000046500A111372012071018120130                                                
6024600046500121979903013693148900025000216                                                                                     
7PESE                                                                                000000000046500                            
50000910201207102012071199030138071739       PES0000046500A100712012071012040214                                                
6024600046500121979903013807173900025000190                                                                                     
7PESE                                                                                000000000046500                            
82012071100000100000090000002210000000000000000000000000000000000000000000009                                                   
9201207110000010000009000000221000000000000000000000000000000000000000000000009                                                 
