120120911PAGO FACIL               090060246FABIAN NORBERTO D´ERAMO                                                              
320120911000001FABIAN NORBERTO D´ERAMO                                                                                          
50000110201209102012091100713826353151       PES0000029000A065952012090813120125                                                
6024600029000122560071382635315100035000036                                                                                     
7PESE                                                                                000000000029000                            
50000210201209102012091144020718309801       PES0000007500A112632012091014480018                                                
6024600007500122574402071830980100010000037                                                                                     
7PESE                                                                                000000000007500                            
50000310201209102012091144021718155336       PES0000007500A112632012091014480019                                                
6024600007500122574402171815533600010000057                                                                                     
7PESE                                                                                000000000007500                            
50000410201209102012091165000392228479       PES0000013000A091172012091014200066                                                
6024600013000122576500039222847900015000099                                                                                     
7PESE                                                                                000000000013000                            
50000510201209102012091165000527308888       PES0000013000A091172012091014200065                                                
6024600013000122576500052730888800015000058                                                                                     
7PESE                                                                                000000000013000                            
50000610201209102012091199090218114034       PES0000016000A023232012091015140106                                                
6024600016000122619909021811403400000000063                                                                                     
7PESE                                                                                000000000016000                            
50000710201209102012091102413822129599       PES0000020000A601492012091012140094                                                
6024600020000122540241382212959900050000321                                                                                     
7PESE                                                                                000000000020000                            
50000810201209102012091100540433708869       PES0000026000A064852012091015370279                                                
6024600026000122610054043370886900010000042                                                                                     
7PESE                                                                                000000000026000                            
50000910201209102012091100540435804671       PES0000026000A089892012091013430202                                                
6024600026000122610054043580467100010000036                                                                                     
7PESE                                                                                000000000026000                            
50001010201209102012091102410236405575       PES0000028000M601282012091016210356                                                
6024600028000122540241023640557500050000463                                                                                     
7PESE                                                                                000000000028000                            
50001110201209102012091102412631877063       PES0000028000A113672012091013200268                                                
6024600028000122540241263187706300050000484                                                                                     
7PESE                                                                                000000000028000                            
50001210201209102012091102412822918250       PES0000028000A082602012091015230157                                                
6024600028000122540241282291825000050000442                                                                                     
7PESE                                                                                000000000028000                            
50001310201209102012091100713329523477       PES0000029000A071232012091017450064                                                
6024600029000122540071332952347700035000021                                                                                     
7PESE                                                                                000000000029000                            
50001410201209102012091100714420379157       PES0000029000A112632012091015050042                                                
6024600029000122540071442037915700035000090                                                                                     
7PESE                                                                                000000000029000                            
50001510201209102012091100712234493572       PES0000029000A089012012091018390002                                                
6024600029000122560071223449357200035000063                                                                                     
7PESE                                                                                000000000029000                            
50001610201209102012091100713008637410       PES0000029000A106722012091016500107                                                
6024600029000122560071300863741000035000037                                                                                     
7PESE                                                                                000000000029000                            
50001710201209102012091100713730183175       PES0000029000M620102012091011070009                                                
6024600029000122590071373018317500035000084                                                                                     
7PESE                                                                                000000000029000                            
50001810201209102012091100714326905319       PES0000029000M620102012091011050008                                                
6024600029000122590071432690531900035000021                                                                                     
7PESE                                                                                000000000029000                            
50001910201209102012091100714422475561       PES0000029000A047702012091008120003                                                
6024600029000122590071442247556100035000036                                                                                     
7PESE                                                                                000000000029000                            
50002010201209102012091100714425791270       PES0000029000M620102012091011050007                                                
6024600029000122590071442579127000035000079                                                                                     
7PESE                                                                                000000000029000                            
50002110201209102012091100712237078158       PES0000029000A106072012091017430197                                                
6024600029000122610071223707815800035000015                                                                                     
7PESE                                                                                000000000029000                            
50002210201209102012091117030526986000       PES0000030000A069392012091019280028                                                
6024600030000122531703052698600000000000016                                                                                     
7PESE                                                                                000000000030000                            
50002310201209102012091117030527725079       PES0000030000A075212012091014520277                                                
6024600030000122541703052772507900000000021                                                                                     
7PESE                                                                                000000000030000                            
50002410201209102012091117030526383377       PES0000030000A112232012091019410120                                                
6024600030000122581703052638337700000000063                                                                                     
7PESE                                                                                000000000030000                            
50002510201209102012091199040133259978       PES0000030500A089882012091012350030                                                
6024600030500122599904013325997800015000284                                                                                     
7PESE                                                                                000000000030500                            
50002610201209102012091199040134430590       PES0000030500A102852012091019050076                                                
6024600030500122599904013443059000015000242                                                                                     
7PESE                                                                                000000000030500                            
50002710201209102012091100722527309285       PES0000035000A116972012091013400095                                                
6024600035000122610072252730928500025000042                                                                                     
7PESE                                                                                000000000035000                            
50002810201209102012091101320908599795       PES0000045000A068532012091017250013                                                
6024600045000122540132090859979500050000000                                                                                     
7PESE                                                                                000000000045000                            
50002910201209102012091101322313081913       PES0000045000A085572012091011570136                                                
6024600045000122540132231308191300050000037                                                                                     
7PESE                                                                                000000000045000                            
50003010201209102012091101320617684750       PES0000045000A110612012091017430180                                                
6024600045000122550132061768475000050000090                                                                                     
7PESE                                                                                000000000045000                            
50003110201209102012091101320811956647       PES0000045000L120202012091017056115                                                
6024600045000122550132081195664700050000036                                                                                     
7PESE                                                                                000000000045000                            
50003210201209102012091101320137229430       PES0000045000A601902012091010350037                                                
6024600045000122590132013722943000050000021                                                                                     
7PESE                                                                                000000000045000                            
50003310201209102012091101320327180990       PES0000045000A097192012091014220204                                                
6024600045000122600132032718099000050000137                                                                                     
7PESE                                                                                000000000045000                            
50003410201209102012091101322220408466       PES0000045000A105252012091014340190                                                
6024600045000122600132222040846600050000090                                                                                     
7PESE                                                                                000000000045000                            
50003510201209102012091101322221865215       PES0000045000A105252012091014340189                                                
6024600045000122600132222186521500050000058                                                                                     
7PESE                                                                                000000000045000                            
50003610201209102012091100720424080143       PES0000046500A086882012091012440125                                                
6024600046500122580072042408014300010000079                                                                                     
7PESE                                                                                000000000046500                            
50003710201209102012091199030128984843       PES0000046500A091122012091014530437                                                
6024600046500122599903012898484300025000079                                                                                     
7PESE                                                                                000000000046500                            
50003810201209102012091199030133708869       PES0000046500A064852012091015370278                                                
6024600046500122599903013370886900025000242                                                                                     
7PESE                                                                                000000000046500                            
50003910201209102012091199030135804671       PES0000046500A089892012091013430203                                                
6024600046500122599903013580467100025000237                                                                                     
7PESE                                                                                000000000046500                            
82012091100000100000390000012350000000000000000000000000000000000000000000039                                                   
9201209110000010000039000001235000000000000000000000000000000000000000000000039                                                 
