120120611PAGO FACIL               090060246FABIAN NORBERTO D´ERAMO                                                              
320120611000001FABIAN NORBERTO D´ERAMO                                                                                          
50000110201206082012061199030133897409       PES0000037000A051312012060714300038                                                
6024600037000121599903013389740900035000799                                                                                     
7PESE                                                                                000000000037000                            
50000210201206082012061199030135755195       PES0000037000A051312012060715170105                                                
6024600037000121599903013575519500035000790                                                                                     
7PESE                                                                                000000000037000                            
50000310201206082012061102371622052175       PES0000017000A081582012060808250007                                                
6024600017000121620237162205217500030000200                                                                                     
7PESE                                                                                000000000017000                            
50000410201206082012061199020231070544       PES0000022000A077352012060809360061                                                
6024600022000121599902023107054400000000600                                                                                     
7PESE                                                                                000000000022000                            
50000510201206082012061102371621851864       PES0000017000A084182012060810200079                                                
6024600017000121620237162185186400030000216                                                                                     
7PESE                                                                                000000000017000                            
50000610201206082012061102373241138293       PES0000017000A084182012060810210080                                                
6024600017000121620237324113829300030000258                                                                                     
7PESE                                                                                000000000017000                            
50000710201206082012061102370592307319       PES0000025000A067392012060814110031                                                
6024600025000121620237059230731900050000336                                                                                     
7PESE                                                                                000000000025000                            
50000810201206082012061199030229064453       PES0000046500A071762012060809560113                                                
6024600043000121599903022906445300035000690                                                                                     
7PESE                                                                                000000000046500                            
50000910201206082012061102373916402501       PES0000017000A091072012060811570151                                                
6024600017000121620237391640250100030000436                                                                                     
7PESE                                                                                000000000017000                            
50001010201206082012061199040133259978       PES0000030500A089882012060814550144                                                
6024600030500121679904013325997800015000036                                                                                     
7PESE                                                                                000000000030500                            
50001110201206082012061199020212349411       PES0000022000A009932012060812390384                                                
6024600022000121599902021234941100000000563                                                                                     
7PESE                                                                                000000000022000                            
50001210201206082012061157000316168839       PES0000012000A045692012060811090042                                                
6024600012000121665700031616883900010000079                                                                                     
7PESE                                                                                000000000012000                            
50001310201206082012061199030233708869       PES0000046500A098912012060808130003                                                
6024600043000121599903023370886900035000600                                                                                     
7PESE                                                                                000000000046500                            
50001410201206082012061199030143094644       PES0000046500A080102012060815210170                                                
6024600043000121599903014309464400035000784                                                                                     
7PESE                                                                                000000000046500                            
50001510201206082012061102373017513056       PES0000025000A051862012060812350001                                                
6024600025000121610237301751305600050000015                                                                                     
7PESE                                                                                000000000025000                            
50001610201206082012061199020233903966       PES0000022000A028202012060819230146                                                
6024600022000121599902023390396600000000616                                                                                     
7PESE                                                                                000000000022000                            
50001710201206082012061102373917323619       PES0000017000A046802012060814320041                                                
6024600017000121620237391732361900030000542                                                                                     
7PESE                                                                                000000000017000                            
50001810201206082012061102373339097297       PES0000017000A034222012060815190040                                                
6024600017000121620237333909729700030000515                                                                                     
7PESE                                                                                000000000017000                            
50001910201206082012061199020235359341       PES0000022000A113512012060816270153                                                
6024600022000121599902023535934100000000621                                                                                     
7PESE                                                                                000000000022000                            
50002010201206082012061102370622840735       PES0000025000A104702012060819440171                                                
6024600025000121600237062284073500050000058                                                                                     
7PESE                                                                                000000000025000                            
50002110201206082012061102370622489395       PES0000025000A088612012060818410271                                                
6024600025000121620237062248939500050000284                                                                                     
7PESE                                                                                000000000025000                            
50002210201206082012061199020236421860       PES0000022000L070082012060817092456                                                
6024600022000121679902023642186000000000090                                                                                     
7PESE                                                                                000000000022000                            
50002310201206082012061102370622840928       PES0000025000M620412012060810580010                                                
6024600025000121600237062284092800050000000                                                                                     
7PESE                                                                                000000000025000                            
50002410201206092012061102370718587368       PES0000025000A058122012060910080001                                                
6024600025000121620237071858736800050000521                                                                                     
7PESE                                                                                000000000025000                            
50002510201206092012061102373724421663       PES0000017000A058122012060910090002                                                
6024600017000121620237372442166300030000563                                                                                     
7PESE                                                                                000000000017000                            
50002610201206092012061199030128879956       PES0000046500A109582012060909290025                                                
6024600046500121679903012887995600025000100                                                                                     
7PESE                                                                                000000000046500                            
50002710201206092012061102370332973165       PES0000025000A075282012060911220022                                                
6024600025000121620237033297316500050000384                                                                                     
7PESE                                                                                000000000025000                            
50002810201206092012061102370621986784       PES0000025000L071192012060916225593                                                
6024600025000121620237062198678400050000557                                                                                     
7PESE                                                                                000000000025000                            
82012061100000100000280000007315000000000000000000000000000000000000000000028                                                   
9201206110000010000028000000731500000000000000000000000000000000000000000000028                                                 
