120120511PAGO FACIL               090060246FABIAN NORBERTO D´ERAMO                                                              
320120511000001FABIAN NORBERTO D´ERAMO                                                                                          
50000110201205102012051102361426372898       PES0000017000M750002012051009480013                                                
6024600017000121310236142637289800030000384                                                                                     
7PESE                                                                                000000000017000                            
50000210201205102012051102361620329634       PES0000017000A092492012051010320046                                                
6024600017000121310236162032963400030000615                                                                                     
7PESE                                                                                000000000017000                            
50000310201205102012051102363818024491       PES0000017000A089372012051017390048                                                
6024600017000121310236381802449100030000758                                                                                     
7PESE                                                                                000000000017000                            
50000410201205102012051102363916402501       PES0000017000D000342012051016440427                                                
6024600017000121310236391640250100030000578                                                                                     
7PESE                                                                                000000000017000                            
50000510201205102012051199020131875268       PES0000019000A062612012051013200474                                                
6024600019000121369902013187526800000000163                                                                                     
7PESE                                                                                000000000019000                            
50000610201205102012051102360235359250       PES0000025000A091472012051017420562                                                
6024600025000121310236023535925000050000679                                                                                     
7PESE                                                                                000000000025000                            
50000710201205102012051102360525554778       PES0000025000A048732012051013100060                                                
6024600025000121310236052555477800050000458                                                                                     
7PESE                                                                                000000000025000                            
50000810201205102012051102360716602152       PES0000025000A046332012051011400109                                                
6024600025000121310236071660215200050000658                                                                                     
7PESE                                                                                000000000025000                            
50000910201205102012051102360813114669       PES0000025000A620812012051009320037                                                
6024600025000121310236081311466900050000716                                                                                     
7PESE                                                                                000000000025000                            
50001010201205102012051199030227689479       PES0000046500A028202012051016320102                                                
6024600046500121369903022768947900025000242                                                                                     
7PESE                                                                                000000000046500                            
82012051100000100000100000002335000000000000000000000000000000000000000000010                                                   
9201205110000010000010000000233500000000000000000000000000000000000000000000010                                                 
