120121212PAGO FACIL               090060246FABIAN NORBERTO D´ERAMO                                                              
320121212000001FABIAN NORBERTO D´ERAMO                                                                                          
50000110201212112012121200774743920369       PES0000008000D001692012121112550117                                                
6024600008000123480077474392036900000000058                                                                                     
7PESE                                                                                000000000008000                            
50000210201212112012121273000122374671       PES0000015000A117432012121120420075                                                
6024600012000123427300012237467100030000658                                                                                     
7PESE                                                                                000000000015000                            
50000310201212112012121229080411448933       PES0000018000A107602012121110200057                                                
6024600018000123462908041144893300000000058                                                                                     
7PESE                                                                                000000000018000                            
50000410201212112012121229080730390418       PES0000018000A107842012121118570145                                                
6024600018000123472908073039041800000000000                                                                                     
7PESE                                                                                000000000018000                            
50000510201212112012121229080820375630       PES0000018000A085602012121116120014                                                
6024600018000123512908082037563000000000000                                                                                     
7PESE                                                                                000000000018000                            
50000610201212112012121229081725485756       PES0000025000A109902012121115240118                                                
6024600025000123522908172548575600000000021                                                                                     
7PESE                                                                                000000000025000                            
50000710201212112012121229081504640340       PES0000025000A056252012121116350062                                                
6024600025000123532908150464034000000000016                                                                                     
7PESE                                                                                000000000025000                            
50000810201212112012121202422716914915       PES0000028000A115052012121110070005                                                
6024600028000123520242271691491500070000090                                                                                     
7PESE                                                                                000000000028000                            
50000910201212112012121202422531651296       PES0000028000A011012012121115530295                                                
6024600028000123530242253165129600070000016                                                                                     
7PESE                                                                                000000000028000                            
50001010201212112012121200772429636573       PES0000028500D000492012121116320068                                                
6024600028500123460077242963657300000000057                                                                                     
7PESE                                                                                000000000028500                            
50001110201212112012121200772812706997       PES0000028500A099402012121115370016                                                
6024600028500123460077281270699700000000057                                                                                     
7PESE                                                                                000000000028500                            
50001210201212112012121200772012717770       PES0000028500A091162012121109530084                                                
6024600028500123480077201271777000000000000                                                                                     
7PESE                                                                                000000000028500                            
50001310201212112012121200772137848521       PES0000028500A104982012121118410189                                                
6024600028500123480077213784852100000000015                                                                                     
7PESE                                                                                000000000028500                            
50001410201212112012121200772138834754       PES0000028500A117142012121115480342                                                
6024600028500123480077213883475400000000000                                                                                     
7PESE                                                                                000000000028500                            
50001510201212112012121200772333443047       PES0000028500A047512012121119020228                                                
6024600028500123480077233344304700000000000                                                                                     
7PESE                                                                                000000000028500                            
50001610201212112012121200772429733317       PES0000028500A093412012121111450164                                                
6024600028500123480077242973331700000000078                                                                                     
7PESE                                                                                000000000028500                            
50001710201212112012121200772523907908       PES0000028500A082002012121119080095                                                
6024600028500123480077252390790800000000000                                                                                     
7PESE                                                                                000000000028500                            
50001810201212112012121200772812639378       PES0000028500A107762012121115160057                                                
6024600028500123480077281263937800000000036                                                                                     
7PESE                                                                                000000000028500                            
50001910201212112012121200773918487736       PES0000028500A056262012121111510075                                                
6024600028500123480077391848773600000000037                                                                                     
7PESE                                                                                000000000028500                            
50002010201212112012121200774041216276       PES0000028500A028202012121109170041                                                
6024600028500123480077404121627600000000015                                                                                     
7PESE                                                                                000000000028500                            
50002110201212112012121200774041318123       PES0000028500A108002012121113320172                                                
6024600028500123480077404131812300000000000                                                                                     
7PESE                                                                                000000000028500                            
50002210201212112012121200774042238167       PES0000028500A094482012121108540010                                                
6024600028500123480077404223816700000000042                                                                                     
7PESE                                                                                000000000028500                            
50002310201212112012121200774330736873       PES0000028500A082602012121114040085                                                
6024600028500123480077433073687300000000021                                                                                     
7PESE                                                                                000000000028500                            
50002410201212112012121200774425890274       PES0000028500A025052012121116380006                                                
6024600028500123480077442589027400000000057                                                                                     
7PESE                                                                                000000000028500                            
50002510201212112012121200774513266868       PES0000028500A007492012121116290128                                                
6024600028500123480077451326686800000000057                                                                                     
7PESE                                                                                000000000028500                            
50002610201212112012121200774517302114       PES0000028500A111402012121112060047                                                
6024600028500123480077451730211400000000063                                                                                     
7PESE                                                                                000000000028500                            
50002710201212112012121202420425675265       PES0000040000A091702012121112330202                                                
6024600032000123400242042567526500080000658                                                                                     
7PESE                                                                                000000000040000                            
50002810201212112012121202420522357922       PES0000040000A095462012121111500048                                                
6024600040000123520242052235792200075000015                                                                                     
7PESE                                                                                000000000040000                            
82012121200000100000280000007475000000000000000000000000000000000000000000028                                                   
9201212120000010000028000000747500000000000000000000000000000000000000000000028                                                 
