120120712PAGO FACIL               090060246FABIAN NORBERTO D´ERAMO                                                              
320120712000001FABIAN NORBERTO D´ERAMO                                                                                          
50000110201207112012071257000321504213       PES0000013000A002542012071116400184                                                
6024600013000121965700032150421300010000058                                                                                     
7PESE                                                                                000000000013000                            
50000210201207112012071259001126255384       PES0000016000A047422012071110220091                                                
6024600016000121965900112625538400000000090                                                                                     
7PESE                                                                                000000000016000                            
50000310201207112012071299020236801243       PES0000022000A079392012071114390150                                                
6024600022000121979902023680124300000000399                                                                                     
7PESE                                                                                000000000022000                            
50000410201207112012071200540233708869       PES0000026000A098912012071118040006                                                
6024600026000122000054023370886900010000037                                                                                     
7PESE                                                                                000000000026000                            
50000510201207112012071299040133718964       PES0000030500A088002012071109410023                                                
6024600029000121899904013371896400015000457                                                                                     
7PESE                                                                                000000000030500                            
50000610201207112012071299040132166545       PES0000030500A090072012071115540235                                                
6024600030500121979904013216654500015000136                                                                                     
7PESE                                                                                000000000030500                            
50000710201207112012071299040136087988       PES0000030500M601132012071115520440                                                
6024600030500121979904013608798800015000236                                                                                     
7PESE                                                                                000000000030500                            
50000810201207112012071299030134556684       PES0000046500A099242012071114480199                                                
6024600043000121899903013455668400035000663                                                                                     
7PESE                                                                                000000000046500                            
50000910201207112012071299030136996669       PES0000046500A044382012071111390195                                                
6024600043000121899903013699666900035000615                                                                                     
7PESE                                                                                000000000046500                            
50001010201207112012071299030121903716       PES0000046500A024432012071114230058                                                
6024600046500121979903012190371600025000200                                                                                     
7PESE                                                                                000000000046500                            
50001110201207112012071299030128879956       PES0000046500A109582012071109110010                                                
6024600046500121979903012887995600025000379                                                                                     
7PESE                                                                                000000000046500                            
50001210201207112012071299030132639591       PES0000046500A028662012071119140100                                                
6024600046500121979903013263959100025000363                                                                                     
7PESE                                                                                000000000046500                            
50001310201207112012071299030133380040       PES0000046500A036692012071116210224                                                
6024600046500121979903013338004000025000216                                                                                     
7PESE                                                                                000000000046500                            
50001410201207112012071299030133597989       PES0000046500A085512012071117070077                                                
6024600046500121979903013359798900025000342                                                                                     
7PESE                                                                                000000000046500                            
50001510201207112012071299030133708869       PES0000046500A098912012071118040007                                                
6024600046500121979903013370886900025000300                                                                                     
7PESE                                                                                000000000046500                            
50001610201207112012071299030143094644       PES0000046500A080102012071110230089                                                
6024600046500121979903014309464400025000379                                                                                     
7PESE                                                                                000000000046500                            
82012071200000100000160000005870000000000000000000000000000000000000000000016                                                   
9201207120000010000016000000587000000000000000000000000000000000000000000000016                                                 
