120120412PAGO FACIL               090060246FABIAN NORBERTO D´ERAMO                                                              
320120412000001FABIAN NORBERTO D´ERAMO                                                                                          
50000110201204112012041299050127202983       PES0000008000A102852012041112280186                                                
6024600008000121079905012720298300000000015                                                                                     
7PESE                                                                                000000000008000                            
50000210201204112012041299050127203329       PES0000008000A102852012041112280187                                                
6024600008000121079905012720332900000000037                                                                                     
7PESE                                                                                000000000008000                            
50000310201204112012041299050135139010       PES0000008000A081582012041119340282                                                
6024600008000121079905013513901000000000079                                                                                     
7PESE                                                                                000000000008000                            
50000410201204112012041299050135229351       PES0000008000A081582012041119330281                                                
6024600008000121079905013522935100000000084                                                                                     
7PESE                                                                                000000000008000                            
50000510201204112012041202353627028990       PES0000017000A107892012041111400128                                                
6024600017000121030235362702899000030000036                                                                                     
7PESE                                                                                000000000017000                            
50000610201204112012041200701336397651       PES0000022000A011012012041115440089                                                
6024600022000121030070133639765100000000036                                                                                     
7PESE                                                                                000000000022000                            
50000710201204112012041200702524963426       PES0000022000A097302012041115340125                                                
6024600022000121030070252496342600000000037                                                                                     
7PESE                                                                                000000000022000                            
50000810201204112012041200702813277664       PES0000022000A109482012041117010212                                                
6024600022000121030070281327766400000000099                                                                                     
7PESE                                                                                000000000022000                            
50000910201204112012041200702813974445       PES0000022000M620162012041117390042                                                
6024600022000121030070281397444500000000090                                                                                     
7PESE                                                                                000000000022000                            
50001010201204112012041200702814310065       PES0000022000A088132012041114360338                                                
6024600022000121030070281431006500000000015                                                                                     
7PESE                                                                                000000000022000                            
50001110201204112012041200704422032441       PES0000022000A071862012041113290137                                                
6024600022000121030070442203244100000000015                                                                                     
7PESE                                                                                000000000022000                            
50001210201204112012041299020135271379       PES0000022000A091612012041115090511                                                
6024600022000121069902013527137900000000384                                                                                     
7PESE                                                                                000000000022000                            
50001310201204112012041202352921155399       PES0000029000D000312012041114120143                                                
6024600029000121060235292115539900040000042                                                                                     
7PESE                                                                                000000000029000                            
50001410201204112012041202350524040963       PES0000029000M620412012041110340009                                                
6024600029000121080235052404096300040000000                                                                                     
7PESE                                                                                000000000029000                            
50001510201204112012041202350621433416       PES0000029000A070632012041116570294                                                
6024600029000121080235062143341600040000000                                                                                     
7PESE                                                                                000000000029000                            
50001610201204112012041202350718028143       PES0000029000A092002012041110090080                                                
6024600029000121090235071802814300040000084                                                                                     
7PESE                                                                                000000000029000                            
50001710201204112012041256000525355892       PES0000030000A108702012041109090046                                                
6024600030000121045600052535589200000000063                                                                                     
7PESE                                                                                000000000030000                            
50001810201204112012041256000938258620       PES0000030000A108702012041115500036                                                
6024600030000121045600093825862000000000079                                                                                     
7PESE                                                                                000000000030000                            
50001910201204112012041299030135359341       PES0000040500A113512012041109350033                                                
6024600037000120989903013535934100035000599                                                                                     
7PESE                                                                                000000000040500                            
50002010201204112012041299030132944859       PES0000040500A095132012041113270166                                                
6024600040500121069903013294485900025000300                                                                                     
7PESE                                                                                000000000040500                            
50002110201204112012041299030221903716       PES0000043000A024432012041119260196                                                
6024600043000121029903022190371600035000479                                                                                     
7PESE                                                                                000000000043000                            
50002210201204112012041299030223723839       PES0000043000A600432012041114310214                                                
6024600043000121029903022372383900035000437                                                                                     
7PESE                                                                                000000000043000                            
50002310201204112012041299030233380040       PES0000043000A036692012041118310102                                                
6024600043000121029903023338004000035000484                                                                                     
7PESE                                                                                000000000043000                            
50002410201204112012041299030234949488       PES0000043000A100712012041110410115                                                
6024600043000121029903023494948800035000479                                                                                     
7PESE                                                                                000000000043000                            
50002510201204112012041299030235375809       PES0000043000D001482012041117200108                                                
6024600043000121029903023537580900035000457                                                                                     
7PESE                                                                                000000000043000                            
50002610201204112012041299030235804671       PES0000043000A082952012041119360009                                                
6024600043000121029903023580467100035000436                                                                                     
7PESE                                                                                000000000043000                            
50002710201204112012041299030236070637       PES0000043000A028072012041113570111                                                
6024600043000121029903023607063700035000484                                                                                     
7PESE                                                                                000000000043000                            
50002810201204112012041299030236806018       PES0000043000M600652012041110440011                                                
6024600043000121029903023680601800035000463                                                                                     
7PESE                                                                                000000000043000                            
50002910201204112012041299030237357940       PES0000043000A063672012041110210166                                                
6024600043000121029903023735794000035000442                                                                                     
7PESE                                                                                000000000043000                            
82012041200000100000290000008470000000000000000000000000000000000000000000029                                                   
9201204120000010000029000000847000000000000000000000000000000000000000000000029                                                 
