120110913PAGO FACIL               090060246FABIAN NORBERTO D´ERAMO                                                              
320110913000001FABIAN NORBERTO D´ERAMO                                                                                          
50000110201109122011091300504745236854       PES0000008500A001602011091216160176                                                
6024600008500112560050474523685400015000058                                                                                     
7PESE                                                                                000000000008500                            
50000210201109122011091318320525181249       PES0000015000A099782011091218100141                                                
6024600015000112591832052518124900000000042                                                                                     
7PESE                                                                                000000000015000                            
50000310201109122011091318320332554625       PES0000015000A054272011091212400031                                                
6024600015000112601832033255462500000000063                                                                                     
7PESE                                                                                000000000015000                            
50000410201109122011091300540435775683       PES0000017500A072612011091213410187                                                
6024600017500112570054043577568300015000078                                                                                     
7PESE                                                                                000000000017500                            
50000510201109122011091317020622025556       PES0000020000A064742011091218030190                                                
6024600020000112551702062202555600000000084                                                                                     
7PESE                                                                                000000000020000                            
50000610201109122011091317020523162712       PES0000020000A078592011091214480019                                                
6024600020000112561702052316271200000000099                                                                                     
7PESE                                                                                000000000020000                            
50000710201109122011091317020524198855       PES0000020000A083092011091220500388                                                
6024600020000112561702052419885500000000000                                                                                     
7PESE                                                                                000000000020000                            
50000810201109122011091317020523520140       PES0000020000M640302011091210110006                                                
6024600020000112581702052352014000000000090                                                                                     
7PESE                                                                                000000000020000                            
50000910201109122011091317020621905378       PES0000020000A085052011091211530241                                                
6024600020000112621702062190537800000000016                                                                                     
7PESE                                                                                000000000020000                            
50001010201109122011091300502522528616       PES0000024500A103032011091213310168                                                
6024600024500112570050252252861600030000078                                                                                     
7PESE                                                                                000000000024500                            
50001110201109122011091300500924170434       PES0000024500A028672011091213030059                                                
6024600024500112580050092417043400030000057                                                                                     
7PESE                                                                                000000000024500                            
50001210201109122011091300504331422560       PES0000024500A000882011091209140009                                                
6024600024500112580050433142256000030000042                                                                                     
7PESE                                                                                000000000024500                            
50001310201109122011091300502522712132       PES0000024500A104982011091215430078                                                
6024600024500112590050252271213200030000063                                                                                     
7PESE                                                                                000000000024500                            
50001410201109122011091300502911848670       PES0000024500A028472011091216540073                                                
6024600024500112600050291184867000030000042                                                                                     
7PESE                                                                                000000000024500                            
50001510201109122011091300532718003015       PES0000029000A620832011091211010080                                                
6024600029000112600053271800301500020000042                                                                                     
7PESE                                                                                000000000029000                            
50001610201109122011091300532810889204       PES0000029000A085542011091215250162                                                
6024600029000112600053281088920400020000084                                                                                     
7PESE                                                                                000000000029000                            
50001710201109122011091301280423923684       PES0000036500A014492011091219040235                                                
6024600036500112550128042392368400000000042                                                                                     
7PESE                                                                                000000000036500                            
50001810201109122011091301280714105969       PES0000036500A620572011091212000087                                                
6024600036500112570128071410596900000000042                                                                                     
7PESE                                                                                000000000036500                            
50001910201109122011091301282220492285       PES0000036500A106832011091210190057                                                
6024600036500112570128222049228500000000084                                                                                     
7PESE                                                                                000000000036500                            
50002010201109122011091301280132743409       PES0000036500A103172011091217110080                                                
6024600036500112600128013274340900000000000                                                                                     
7PESE                                                                                000000000036500                            
50002110201109122011091301280132900634       PES0000036500A090422011091209060001                                                
6024600036500112600128013290063400000000037                                                                                     
7PESE                                                                                000000000036500                            
50002210201109122011091301280230648883       PES0000036500M620412011091212410039                                                
6024600036500112600128023064888300000000042                                                                                     
7PESE                                                                                000000000036500                            
50002310201109122011091301280518177748       PES0000036500A104702011091211340067                                                
6024600036500112600128051817774800000000090                                                                                     
7PESE                                                                                000000000036500                            
50002410201109122011091301281521845007       PES0000036500A104702011091211340066                                                
6024600036500112600128152184500700000000099                                                                                     
7PESE                                                                                000000000036500                            
50002510201109122011091300530135537115       PES0000038500A095852011091209420097                                                
6024600038500112570053013553711500010000057                                                                                     
7PESE                                                                                000000000038500                            
82011091300000100000250000006670000000000000000000000000000000000000000000025                                                   
9201109130000010000025000000667000000000000000000000000000000000000000000000025                                                 
