120121113PAGO FACIL               090060246FABIAN NORBERTO D´ERAMO                                                              
320121113000001FABIAN NORBERTO D´ERAMO                                                                                          
50000110201211122012111388880000000078       PES0000001000A058062012111211510207                                                
6024600001000123248888000000007800000000057                                                                                     
7PESE                                                                                000000000001000                            
50000210201211122012111371001320282038       PES0000008000A022092012111219550366                                                
6024600008000123207100132028203800000000058                                                                                     
7PESE                                                                                000000000008000                            
50000310201211122012111371001113805077       PES0000010000A063662012111219250027                                                
6024600010000123177100111380507700000000099                                                                                     
7PESE                                                                                000000000010000                            
50000410201211122012111398020116975364       PES0000016000A081572012111210580112                                                
6024600016000123209802011697536400005000315                                                                                     
7PESE                                                                                000000000016000                            
50000510201211122012111372000121354886       PES0000020000L070632012111214027469                                                
6024600020000123187200012135488600000000099                                                                                     
7PESE                                                                                000000000020000                            
50000610201211122012111300772524424903       PES0000021000A120382012111214120009                                                
6024600021000123200077252442490300045000484                                                                                     
7PESE                                                                                000000000021000                            
50000710201211122012111300774333563478       PES0000021000A075132012111219560112                                                
6024600021000123200077433356347800045000442                                                                                     
7PESE                                                                                000000000021000                            
50000810201211122012111372000324125025       PES0000021200L070632012111214027468                                                
6024600021200123187200032412502500000000000                                                                                     
7PESE                                                                                000000000021200                            
50000910201211122012111329081510144657       PES0000023000M600632012111215230136                                                
6024600023000123182908151014465700020000000                                                                                     
7PESE                                                                                000000000023000                            
50001010201211122012111329081510133187       PES0000023000M600532012111212360217                                                
6024600023000123242908151013318700020000021                                                                                     
7PESE                                                                                000000000023000                            
50001110201211122012111300752426551367       PES0000024500A082642012111216430171                                                
6024600024500123200075242655136700000000063                                                                                     
7PESE                                                                                000000000024500                            
50001210201211122012111399040130668939       PES0000030500A600372012111212190065                                                
6024600030500123209904013066893900015000279                                                                                     
7PESE                                                                                000000000030500                            
50001310201211122012111399030136991781       PES0000039525A109822012111218420015                                                
6024600039525123209903013699178100021500163                                                                                     
7PESE                                                                                000000000039525                            
50001410201211122012111399030137247863       PES0000039525A035802012111219400389                                                
6024600039525123209903013724786300021500463                                                                                     
7PESE                                                                                000000000039525                            
50001510201211122012111301330520575418       PES0000052000A056732012111210180064                                                
6024600052000123170133052057541800080000084                                                                                     
7PESE                                                                                000000000052000                            
50001610201211122012111301331618212585       PES0000052000M601812012111212060111                                                
6024600052000123170133161821258500080000021                                                                                     
7PESE                                                                                000000000052000                            
50001710201211122012111301330521477171       PES0000052000A055332012111213300049                                                
6024600052000123180133052147717100080000015                                                                                     
7PESE                                                                                000000000052000                            
50001810201211122012111301331617478050       PES0000052000M601652012111213530278                                                
6024600052000123190133161747805000080000063                                                                                     
7PESE                                                                                000000000052000                            
50001910201211122012111301331425790725       PES0000052000A002422012111217490028                                                
6024600052000123200133142579072500080000000                                                                                     
7PESE                                                                                000000000052000                            
50002010201211122012111301331521600874       PES0000052000A076122012111212370240                                                
6024600052000123200133152160087400080000000                                                                                     
7PESE                                                                                000000000052000                            
50002110201211122012111301331426124201       PES0000052000A031212012111212170017                                                
6024600052000123210133142612420100080000015                                                                                     
7PESE                                                                                000000000052000                            
50002210201211122012111301331521613347       PES0000052000A010432012111212180071                                                
6024600052000123210133152161334700080000084                                                                                     
7PESE                                                                                000000000052000                            
50002310201211122012111301331620011497       PES0000052000M601262012111211130025                                                
6024600052000123220133162001149700080000063                                                                                     
7PESE                                                                                000000000052000                            
50002410201211122012111301331523009242       PES0000052000M700012012111216530057                                                
6024600052000123240133152300924200080000036                                                                                     
7PESE                                                                                000000000052000                            
82012111300000100000240000008182500000000000000000000000000000000000000000024                                                   
9201211130000010000024000000818250000000000000000000000000000000000000000000024                                                 
