120120813PAGO FACIL               090060246FABIAN NORBERTO D´ERAMO                                                              
320120813000001FABIAN NORBERTO D´ERAMO                                                                                          
50000110201208102012081357001320332422       PES0000014000A620572012080909060013                                                
6024600014000122225700132033242200000000000                                                                                     
7PESE                                                                                000000000014000                            
50000210201208102012081399030135804671       PES0000046500A075692012081009320042                                                
6024600046500122289903013580467100025000157                                                                                     
7PESE                                                                                000000000046500                            
50000310201208102012081300540335804671       PES0000026000A075692012081009320043                                                
6024600026000122290054033580467100010000021                                                                                     
7PESE                                                                                000000000026000                            
50000410201208102012081300712912248074       PES0000023500A064992012081009320034                                                
6024600023500122230071291224807400055000037                                                                                     
7PESE                                                                                000000000023500                            
50000510201208102012081300712525299528       PES0000023500A018912012081012500239                                                
6024600023500122260071252529952800055000057                                                                                     
7PESE                                                                                000000000023500                            
50000610201208102012081300712523642038       PES0000023500A113512012081009240021                                                
6024600023500122270071252364203800055000084                                                                                     
7PESE                                                                                000000000023500                            
50000710201208102012081399020236801243       PES0000022000A080892012081011370020                                                
6024600022000122289902023680124300000000142                                                                                     
7PESE                                                                                000000000022000                            
50000810201208102012081300712812706997       PES0000023500A099402012081008570004                                                
6024600023500122280071281270699700055000057                                                                                     
7PESE                                                                                000000000023500                            
50000910201208102012081300712620948007       PES0000023500A045312012081009490038                                                
6024600023500122280071262094800700055000000                                                                                     
7PESE                                                                                000000000023500                            
50001010201208102012081300540336070637       PES0000026000A028072012081013460196                                                
6024600026000122290054033607063700010000079                                                                                     
7PESE                                                                                000000000026000                            
50001110201208102012081300711913289450       PES0000023500A027802012081014110064                                                
6024600023500122260071191328945000055000084                                                                                     
7PESE                                                                                000000000023500                            
50001210201208102012081300720714569641       PES0000042000A075362012081013580061                                                
6024600042000122300072071456964100045000090                                                                                     
7PESE                                                                                000000000042000                            
50001310201208102012081399040137905221       PES0000030500A116272012081013380138                                                
6024600030500122289904013790522100015000284                                                                                     
7PESE                                                                                000000000030500                            
50001410201208102012081301320521442955       PES0000045000A601492012081010450024                                                
6024600045000122300132052144295500050000058                                                                                     
7PESE                                                                                000000000045000                            
50001510201208102012081300723936153458       PES0000021000A601492012081012360080                                                
6024600021000122230072393615345800140000257                                                                                     
7PESE                                                                                000000000021000                            
50001610201208102012081302390428477487       PES0000030000A107212012081017000015                                                
6024600030000122230239042847748700030000600                                                                                     
7PESE                                                                                000000000030000                            
50001710201208102012081302390330994462       PES0000030000A107212012081017000016                                                
6024600030000122230239033099446200030000621                                                                                     
7PESE                                                                                000000000030000                            
50001810201208102012081399020124599090       PES0000019000A059362012081010540115                                                
6024600019000122289902012459909000000000142                                                                                     
7PESE                                                                                000000000019000                            
50001910201208102012081300712620403904       PES0000023500A600432012081010430023                                                
6024600023500122240071262040390400055000000                                                                                     
7PESE                                                                                000000000023500                            
50002010201208102012081300712428382754       PES0000023500A092232012081015340301                                                
6024600023500122290071242838275400055000079                                                                                     
7PESE                                                                                000000000023500                            
50002110201208102012081399020236692910       PES0000022000D000962012081009110010                                                
6024600022000122289902023669291000000000200                                                                                     
7PESE                                                                                000000000022000                            
50002210201208102012081302390524583358       PES0000030000D000562012081015400113                                                
6024600030000122230239052458335800030000557                                                                                     
7PESE                                                                                000000000030000                            
50002310201208102012081399040133718964       PES0000030500A066012012081016590035                                                
6024600029000122209904013371896400015000590                                                                                     
7PESE                                                                                000000000030500                            
50002410201208102012081300722339097297       PES0000021000A034222012081016580063                                                
6024600021000122230072233909729700140000299                                                                                     
7PESE                                                                                000000000021000                            
50002510201208102012081359001129300035       PES0000016000A071782012081011170048                                                
6024600016000122295900112930003500000000079                                                                                     
7PESE                                                                                000000000016000                            
50002610201208102012081359000132838566       PES0000016000A071782012081011170049                                                
6024600016000122295900013283856600000000000                                                                                     
7PESE                                                                                000000000016000                            
50002710201208102012081300722717659112       PES0000031000A094932012081016320055                                                
6024600031000122300072271765911200040000057                                                                                     
7PESE                                                                                000000000031000                            
50002810201208102012081300714612366415       PES0000023500A086982012081019050110                                                
6024600023500122260071461236641500055000037                                                                                     
7PESE                                                                                000000000023500                            
50002910201208102012081300714425605844       PES0000023500A040462012081016500086                                                
6024600023500122300071442560584400055000084                                                                                     
7PESE                                                                                000000000023500                            
50003010201208102012081399030136352229       PES0000046500A034672012081020030141                                                
6024600046500122289903013635222900025000121                                                                                     
7PESE                                                                                000000000046500                            
50003110201208102012081359000422469369       PES0000016000L070272012081011337901                                                
6024600016000122295900042246936900000000084                                                                                     
7PESE                                                                                000000000016000                            
50003210201208102012081399040130668939       PES0000030500M600372012081011190019                                                
6024600030500122289904013066893900015000215                                                                                     
7PESE                                                                                000000000030500                            
50003310201208102012081359002312195477       PES0000032000M620162012081012520026                                                
6024600032000122305900231219547700000000078                                                                                     
7PESE                                                                                000000000032000                            
50003410201208102012081301320426050433       PES0000045000M620062012081009120016                                                
6024600045000122300132042605043300050000042                                                                                     
7PESE                                                                                000000000045000                            
50003510201208102012081300712717668262       PES0000023500M640092012081014190050                                                
6024600023500122260071271766826200055000084                                                                                     
7PESE                                                                                000000000023500                            
50003610201208102012081360000931636691       PES0000075000M810002012081011210099                                                
6024600075000122306000093163669100050000037                                                                                     
7PESE                                                                                000000000075000                            
50003710201208102012081300711624662835       PES0000023500A099802012081013280039                                                
6024600023500122270071162466283500055000079                                                                                     
7PESE                                                                                000000000023500                            
50003810201208112012081359000137055250       PES0000016000A064442012081110200026                                                
6024600016000122315900013705525000000000036                                                                                     
7PESE                                                                                000000000016000                            
50003910201208112012081300720328751302       PES0000042000A042812012081111090001                                                
6024600042000122300072032875130200045000063                                                                                     
7PESE                                                                                000000000042000                            
50004010201208112012081301320328751302       PES0000045000A042812012081111090002                                                
6024600045000122300132032875130200050000037                                                                                     
7PESE                                                                                000000000045000                            
50004110201208112012081359002223617629       PES0000032000A085792012081113540042                                                
6024600032000122275900222361762900000000016                                                                                     
7PESE                                                                                000000000032000                            
50004210201208112012081359001127021522       PES0000016000M620002012081111290024                                                
6024600016000122275900112702152200000000078                                                                                     
7PESE                                                                                000000000016000                            
50004310201208122012081359000420046149       PES0000016000A078992012081219010005                                                
6024600016000122315900042004614900000000036                                                                                     
7PESE                                                                                000000000016000                            
82012081300000100000430000012125000000000000000000000000000000000000000000043                                                   
9201208130000010000043000001212500000000000000000000000000000000000000000000043                                                 
