120120113PAGO FACIL               090060246FABIAN NORBERTO D´ERAMO                                                              
320120113000001FABIAN NORBERTO D´ERAMO                                                                                          
50000110201201122012011329070225704503       PES0000010000A100672012011211240025                                                
6024600010000120182907022570450300000000000                                                                                     
7PESE                                                                                000000000010000                            
50000210201201122012011329070723811166       PES0000010000A621072012011210540010                                                
6024600010000120182907072381116600000000063                                                                                     
7PESE                                                                                000000000010000                            
50000310201201122012011300630311994806       PES0000017000A058512012011218420178                                                
6024600017000120120063031199480600000000000                                                                                     
7PESE                                                                                000000000017000                            
50000410201201122012011300630622175095       PES0000017000A106102012011211140043                                                
6024600017000120120063062217509500000000078                                                                                     
7PESE                                                                                000000000017000                            
50000510201201122012011302322824872680       PES0000020000M600022012011215280250                                                
6024600020000120180232282487268000000000063                                                                                     
7PESE                                                                                000000000020000                            
50000610201201122012011302323425478208       PES0000020000A099802012011212270038                                                
6024600020000120190232342547820800000000016                                                                                     
7PESE                                                                                000000000020000                            
50000710201201122012011302320426148580       PES0000028000A037602012011216190103                                                
6024600025000120100232042614858000030000799                                                                                     
7PESE                                                                                000000000028000                            
50000810201201122012011302320524220704       PES0000028000M600852012011212410220                                                
6024600025000120100232052422070400030000342                                                                                     
7PESE                                                                                000000000028000                            
50000910201201122012011302320522347515       PES0000028000A031212012011220180068                                                
6024600028000120190232052234751500000000078                                                                                     
7PESE                                                                                000000000028000                            
50001010201201122012011323060223709024       PES0000108800A038552012011218440060                                                
6024600108800120132306022370902400128000016                                                                                     
7PESE                                                                                000000000108800                            
50001110201201122012011323061325345107       PES0000121600A069092012011211560168                                                
6024600121600120122306132534510700150000015                                                                                     
7PESE                                                                                000000000121600                            
50001210201201122012011323061927355167       PES0000121600A110452012011212160020                                                
6024600121600120132306192735516700150000015                                                                                     
7PESE                                                                                000000000121600                            
50001310201201122012011323061323224377       PES0000121600D001502012011212580074                                                
6024600121600120152306132322437700150000184                                                                                     
7PESE                                                                                000000000121600                            
50001410201201122012011323061928300398       PES0000121600L070582012011218514617                                                
6024600121600120152306192830039800150000315                                                                                     
7PESE                                                                                000000000121600                            
82012011300000100000140000007732000000000000000000000000000000000000000000014                                                   
9201201130000010000014000000773200000000000000000000000000000000000000000000014                                                 
