120130213PAGO FACIL               090060246FABIAN NORBERTO D´ERAMO                                                              
320130213000001FABIAN NORBERTO D´ERAMO                                                                                          
50000110201302082013021373010417159238       PES0000014000A096012013020810270066                                                
6024600014000130397301041715923800000000021                                                                                     
7PESE                                                                                000000000014000                            
50000210201302082013021373010727444005       PES0000014000A092662013020811160400                                                
6024600014000130397301072744400500000000063                                                                                     
7PESE                                                                                000000000014000                            
50000310201302082013021302430520332422       PES0000047500A620572013020811130063                                                
6024600047500130440243052033242200000000057                                                                                     
7PESE                                                                                000000000047500                            
50000410201302082013021301341326926945       PES0000135000A122102013020806410027                                                
6024600135000130410134132692694500150000200                                                                                     
7PESE                                                                                000000000135000                            
50000510201302082013021302432594515687       PES0000035000A091122013020814530415                                                
6024600035000130450243259451568700000000042                                                                                     
7PESE                                                                                000000000035000                            
50000610201302082013021301341425121058       PES0000135000A042812013020815360245                                                
6024600135000130410134142512105800150000279                                                                                     
7PESE                                                                                000000000135000                            
50000710201302082013021301341522090793       PES0000135000A085612013020811500021                                                
6024600135000130410134152209079300150000100                                                                                     
7PESE                                                                                000000000135000                            
50000810201302082013021301341134583532       PES0000135000A600182013020815350271                                                
6024600135000130410134113458353200150000216                                                                                     
7PESE                                                                                000000000135000                            
50000910201302082013021301341423621445       PES0000135000A108702013020816150260                                                
6024600135000130410134142362144500150000384                                                                                     
7PESE                                                                                000000000135000                            
50001010201302082013021373010630845070       PES0000014000A117402013020813300225                                                
6024600014000130397301063084507000000000037                                                                                     
7PESE                                                                                000000000014000                            
50001110201302082013021301341523174552       PES0000135000A016922013020814010157                                                
6024600135000130410134152317455200150000521                                                                                     
7PESE                                                                                000000000135000                            
50001210201302082013021359020613836709       PES0000014000A097042013020812140217                                                
6024600014000130435902061383670900000000079                                                                                     
7PESE                                                                                000000000014000                            
50001310201302082013021302430811893460       PES0000047500A092242013020809250008                                                
6024600040000130360243081189346000075000321                                                                                     
7PESE                                                                                000000000047500                            
50001410201302082013021301341594502652       PES0000135000A091672013020812420315                                                
6024600135000130410134159450265200150000437                                                                                     
7PESE                                                                                000000000135000                            
50001510201302082013021301341231454020       PES0000135000A097712013020816100062                                                
6024600135000130410134123145402000150000121                                                                                     
7PESE                                                                                000000000135000                            
50001610201302082013021373011527423710       PES0000014000A102282013020810040027                                                
6024600014000130397301152742371000000000057                                                                                     
7PESE                                                                                000000000014000                            
50001710201302082013021373010321898182       PES0000014000A102282013020810060028                                                
6024600014000130397301032189818200000000015                                                                                     
7PESE                                                                                000000000014000                            
50001810201302082013021301341328984483       PES0000135000A064982013020816510210                                                
6024600135000130410134132898448300150000436                                                                                     
7PESE                                                                                000000000135000                            
50001910201302082013021302430423165076       PES0000047500A015022013020812190025                                                
6024600047500130450243042316507600000000057                                                                                     
7PESE                                                                                000000000047500                            
50002010201302082013021301341618363963       PES0000135000A056902013020817020194                                                
6024600135000130410134161836396300150000358                                                                                     
7PESE                                                                                000000000135000                            
50002110201302082013021301341230575153       PES0000135000A034222013020816170038                                                
6024600135000130410134123057515300150000584                                                                                     
7PESE                                                                                000000000135000                            
50002210201302082013021301341616335987       PES0000135000A613622013020808090003                                                
6024600135000130390134161633598700150000015                                                                                     
7PESE                                                                                000000000135000                            
50002310201302082013021301341425983384       PES0000135000A122142013020815520055                                                
6024600135000130410134142598338400150000500                                                                                     
7PESE                                                                                000000000135000                            
50002410201302082013021373010823825780       PES0000014000A101432013020813240403                                                
6024600014000130397301082382578000000000063                                                                                     
7PESE                                                                                000000000014000                            
50002510201302082013021373010634475054       PES0000014000A072282013020817170487                                                
6024600014000130397301063447505400000000000                                                                                     
7PESE                                                                                000000000014000                            
50002610201302082013021399030133434151       PES0000051000A112902013020811440001                                                
6024600047500130389903013343415100035000700                                                                                     
7PESE                                                                                000000000051000                            
50002710201302082013021373011393856454       PES0000012000A066022013020818270088                                                
6024600012000130397301139385645400000000042                                                                                     
7PESE                                                                                000000000012000                            
50002810201302082013021301341424170434       PES0000135000A065992013020817130055                                                
6024600135000130410134142417043400150000300                                                                                     
7PESE                                                                                000000000135000                            
50002910201302082013021301341423666749       PES0000135000D000982013020820080623                                                
6024600135000130410134142366674900150000263                                                                                     
7PESE                                                                                000000000135000                            
50003010201302082013021301341425082170       PES0000135000A105722013020820100237                                                
6024600135000130410134142508217000150000499                                                                                     
7PESE                                                                                000000000135000                            
50003110201302082013021373011440772798       PES0000012000A076352013020818180084                                                
6024600012000130397301144077279800000000042                                                                                     
7PESE                                                                                000000000012000                            
50003210201302082013021373011438798141       PES0000012000A052412013020820040182                                                
6024600012000130397301143879814100000000015                                                                                     
7PESE                                                                                000000000012000                            
50003310201302082013021301341425578594       PES0000135000A117342013020819340229                                                
6024600135000130400134142557859400150000079                                                                                     
7PESE                                                                                000000000135000                            
50003410201302082013021359021031994291       PES0000014000A120732013020813420065                                                
6024600014000130435902103199429100000000021                                                                                     
7PESE                                                                                000000000014000                            
50003510201302082013021301341520586087       PES0000135000A109792013020818260269                                                
6024600135000130410134152058608700150000584                                                                                     
7PESE                                                                                000000000135000                            
50003610201302082013021301341521052612       PES0000135000A109792013020818260270                                                
6024600135000130410134152105261200150000142                                                                                     
7PESE                                                                                000000000135000                            
50003710201302082013021301341328601825       PES0000135000A062272013020817560038                                                
6024600135000130400134132860182500150000037                                                                                     
7PESE                                                                                000000000135000                            
50003810201302082013021373020824079178       PES0000010000A117632013020814580003                                                
6024600010000130447302082407917800030000021                                                                                     
7PESE                                                                                000000000010000                            
50003910201302082013021373010634684918       PES0000014000A121512013020819440096                                                
6024600014000130397301063468491800000000063                                                                                     
7PESE                                                                                000000000014000                            
50004010201302082013021302430327180990       PES0000047500A097192013020819490094                                                
6024600047500130460243032718099000000000015                                                                                     
7PESE                                                                                000000000047500                            
50004110201302082013021373010230901924       PES0000014000A060512013020816150069                                                
6024600014000130397301023090192400000000042                                                                                     
7PESE                                                                                000000000014000                            
50004210201302082013021373010826350117       PES0000014000A121882013020817410111                                                
6024600014000130397301082635011700000000021                                                                                     
7PESE                                                                                000000000014000                            
50004310201302082013021301340712950326       PES0000135000A070822013020816470036                                                
6024600135000130390134071295032600150000021                                                                                     
7PESE                                                                                000000000135000                            
50004410201302082013021301341328860314       PES0000135000A093212013020819520099                                                
6024600135000130410134132886031400150000400                                                                                     
7PESE                                                                                000000000135000                            
50004510201302082013021301341714459909       PES0000135000M601972013020814190081                                                
6024600135000130410134171445990900150000363                                                                                     
7PESE                                                                                000000000135000                            
50004610201302082013021359021128299890       PES0000014000A082002013020817520143                                                
6024600014000130435902112829989000000000042                                                                                     
7PESE                                                                                000000000014000                            
50004710201302082013021301341617338899       PES0000135000M620182013020814200198                                                
6024600135000130410134161733889900150000490                                                                                     
7PESE                                                                                000000000135000                            
50004810201302082013021301341712047734       PES0000135000L070562013020811063141                                                
6024600135000130410134171204773400150000516                                                                                     
7PESE                                                                                000000000135000                            
50004910201302082013021301341137331394       PES0000135000A068742013020820510152                                                
6024600135000130410134113733139400150000584                                                                                     
7PESE                                                                                000000000135000                            
50005010201302082013021301341522411600       PES0000135000L120242013020818344427                                                
6024600135000130410134152241160000150000584                                                                                     
7PESE                                                                                000000000135000                            
50005110201302082013021301340714504265       PES0000135000L070532013020813273705                                                
6024600135000130410134071450426500150000500                                                                                     
7PESE                                                                                000000000135000                            
50005210201302082013021301341423738347       PES0000135000M640022013020810140150                                                
6024600135000130400134142373834700150000021                                                                                     
7PESE                                                                                000000000135000                            
50005310201302082013021301341811089502       PES0000135000L070532013020816083818                                                
6024600135000130410134181108950200150000442                                                                                     
7PESE                                                                                000000000135000                            
50005410201302082013021373010226797131       PES0000014000M660232013020816590221                                                
6024600014000130397301022679713100000000063                                                                                     
7PESE                                                                                000000000014000                            
50005510201302082013021301340328575841       PES0000135000M640052013020813080163                                                
6024600135000130390134032857584100150000021                                                                                     
7PESE                                                                                000000000135000                            
50005610201302082013021301341327363318       PES0000135000M810032013020809410086                                                
6024600135000130410134132736331800150000357                                                                                     
7PESE                                                                                000000000135000                            
50005710201302092013021359020517837901       PES0000014000A057862013020910110080                                                
6024600014000130435902051783790100000000058                                                                                     
7PESE                                                                                000000000014000                            
50005810201302092013021301341521721543       PES0000135000A071692013020908500018                                                
6024600135000130410134152172154300150000637                                                                                     
7PESE                                                                                000000000135000                            
50005910201302092013021301341329661179       PES0000135000A081982013020911030144                                                
6024600135000130410134132966117900150000642                                                                                     
7PESE                                                                                000000000135000                            
50006010201302092013021301341135266242       PES0000135000A060952013020909070026                                                
6024600135000130410134113526624200150000558                                                                                     
7PESE                                                                                000000000135000                            
50006110201302092013021373020729279890       PES0000010000A046092013020911500039                                                
6024600010000130477302072927989000030000036                                                                                     
7PESE                                                                                000000000010000                            
50006210201302092013021301341328433348       PES0000135000A093382013020913370268                                                
6024600135000130410134132843334800150000684                                                                                     
7PESE                                                                                000000000135000                            
50006310201302092013021301341811259043       PES0000135000A093382013020913380269                                                
6024600135000130410134181125904300150000636                                                                                     
7PESE                                                                                000000000135000                            
50006410201302092013021301341426160431       PES0000135000D001312013020911270142                                                
6024600135000130410134142616043100150000263                                                                                     
7PESE                                                                                000000000135000                            
50006510201302092013021359020712862959       PES0000014000A060582013020911480047                                                
6024600014000130435902071286295900000000058                                                                                     
7PESE                                                                                000000000014000                            
50006610201302092013021301340617657049       PES0000135000A096162013020908370007                                                
6024600135000130410134061765704900150000400                                                                                     
7PESE                                                                                000000000135000                            
50006710201302092013021399030134617181       PES0000051000A025662013020918580265                                                
6024600051000130469903013461718100025000179                                                                                     
7PESE                                                                                000000000051000                            
50006810201302092013021301341424459855       PES0000135000A108562013020911420048                                                
6024600135000130410134142445985500150000357                                                                                     
7PESE                                                                                000000000135000                            
50006910201302092013021301341520330559       PES0000135000A049552013020919460068                                                
6024600135000130410134152033055900150000115                                                                                     
7PESE                                                                                000000000135000                            
50007010201302092013021301341423587351       PES0000135000M620142013020911380030                                                
6024600135000130400134142358735100150000057                                                                                     
7PESE                                                                                000000000135000                            
50007110201302102013021301341424291182       PES0000135000A024432013021011060135                                                
6024600135000130410134142429118200150000121                                                                                     
7PESE                                                                                000000000135000                            
50007210201302102013021359020323595879       PES0000014000A060572013021013250196                                                
6024600014000130435902032359587900000000058                                                                                     
7PESE                                                                                000000000014000                            
50007310201302122013021359020422121910       PES0000014000A120902013021211550027                                                
6024600014000130435902042212191000000000099                                                                                     
7PESE                                                                                000000000014000                            
50007410201302122013021359021038174897       PES0000014000A120902013021211550028                                                
6024600014000130435902103817489700000000099                                                                                     
7PESE                                                                                000000000014000                            
82013021300000100000740000064540000000000000000000000000000000000000000000074                                                   
9201302130000010000074000006454000000000000000000000000000000000000000000000074                                                 
