120120614PAGO FACIL               090060246FABIAN NORBERTO D´ERAMO                                                              
320120614000001FABIAN NORBERTO D´ERAMO                                                                                          
50000110201206132012061402371330098291       PES0000020000A092162012061312510261                                                
6024600020000121670237133009829100000000058                                                                                     
7PESE                                                                                000000000020000                            
50000210201206132012061402373723403378       PES0000020000A046802012061310450056                                                
6024600020000121670237372340337800000000037                                                                                     
7PESE                                                                                000000000020000                            
50000310201206132012061402373726392501       PES0000020000A092162012061312510260                                                
6024600020000121670237372639250100000000058                                                                                     
7PESE                                                                                000000000020000                            
50000410201206132012061499040133718964       PES0000030500A066012012061319030119                                                
6024600029000121599904013371896400015000616                                                                                     
7PESE                                                                                000000000030500                            
50000510201206132012061402370429199956       PES0000030000A088132012061313450181                                                
6024600030000121670237042919995600000000000                                                                                     
7PESE                                                                                000000000030000                            
50000610201206132012061402372727820515       PES0000030000A017122012061312350265                                                
6024600030000121670237272782051500000000063                                                                                     
7PESE                                                                                000000000030000                            
50000710201206132012061499030236087988       PES0000040500M601132012061316260302                                                
6024600040500121679903023608798800025000136                                                                                     
7PESE                                                                                000000000040500                            
50000810201206132012061499030236399887       PES0000046500A043162012061310390149                                                
6024600043000121599903023639988700035000757                                                                                     
7PESE                                                                                000000000046500                            
50000910201206132012061499030236806018       PES0000046500M600652012061310410014                                                
6024600043000121599903023680601800035000621                                                                                     
7PESE                                                                                000000000046500                            
82012061400000100000090000002840000000000000000000000000000000000000000000009                                                   
9201206140000010000009000000284000000000000000000000000000000000000000000000009                                                 
