120120215PAGO FACIL               090060246FABIAN NORBERTO D´ERAMO                                                              
320120215000001FABIAN NORBERTO D´ERAMO                                                                                          
50000110201202142012021500684742720964       PES0000005500D001522012021410350047                                                
6024600005500120460068474272096400015000284                                                                                     
7PESE                                                                                000000000005500                            
50000210201202142012021500684418056670       PES0000019000A080382012021419470213                                                
6024600019000120460068441805667000020000663                                                                                     
7PESE                                                                                000000000019000                            
50000310201202142012021500684422826277       PES0000019000D001522012021410340046                                                
6024600019000120460068442282627700020000221                                                                                     
7PESE                                                                                000000000019000                            
50000410201202142012021500684514051282       PES0000019000A036182012021411010270                                                
6024600019000120460068451405128200020000616                                                                                     
7PESE                                                                                000000000019000                            
50000510201202142012021518370232269383       PES0000020000A620302012021410400058                                                
6024600020000120461837023226938300000000000                                                                                     
7PESE                                                                                000000000020000                            
50000610201202142012021518370331293289       PES0000020000A077582012021416110083                                                
6024600020000120471837033129328900000000090                                                                                     
7PESE                                                                                000000000020000                            
50000710201202142012021518370332378711       PES0000020000A047382012021415540293                                                
6024600020000120471837033237871100000000000                                                                                     
7PESE                                                                                000000000020000                            
50000810201202142012021518370426690649       PES0000020000A109282012021411380124                                                
6024600020000120471837042669064900000000084                                                                                     
7PESE                                                                                000000000020000                            
50000910201202142012021518370522840928       PES0000020000A106392012021418140036                                                
6024600020000120471837052284092800000000016                                                                                     
7PESE                                                                                000000000020000                            
50001010201202142012021518372334416091       PES0000020000L120202012021412476093                                                
6024600020000120471837233441609100000000021                                                                                     
7PESE                                                                                000000000020000                            
50001110201202142012021500600328126552       PES0000029000A060922012021417450038                                                
6024600029000120450060032812655200000000090                                                                                     
7PESE                                                                                000000000029000                            
50001210201202142012021599030234229591       PES0000040500M600742012021412370391                                                
6024600040500120469903023422959100025000684                                                                                     
7PESE                                                                                000000000040500                            
50001310201202142012021599030236087988       PES0000040500A012612012021417470062                                                
6024600040500120469903023608798800025000663                                                                                     
7PESE                                                                                000000000040500                            
50001410201202142012021501311325578594       PES0000097000A075742012021418130183                                                
6024600097000120450131132557859400000000063                                                                                     
7PESE                                                                                000000000097000                            
50001510201202142012021501311423124661       PES0000097000A056212012021412510070                                                
6024600097000120450131142312466100000000090                                                                                     
7PESE                                                                                000000000097000                            
50001610201202142012021501311423265888       PES0000097000A087612012021411520200                                                
6024600097000120450131142326588800000000042                                                                                     
7PESE                                                                                000000000097000                            
50001710201202142012021501310231637665       PES0000097000A062782012021409300009                                                
6024600097000120510131023163766500000000037                                                                                     
7PESE                                                                                000000000097000                            
50001810201202142012021501310521080844       PES0000097000A046092012021419000234                                                
6024600097000120510131052108084400000000000                                                                                     
7PESE                                                                                000000000097000                            
50001910201202142012021501310522053963       PES0000097000A092162012021414030337                                                
6024600097000120510131052205396300000000021                                                                                     
7PESE                                                                                000000000097000                            
50002010201202142012021501311325914780       PES0000097000A620302012021409050020                                                
6024600097000120510131132591478000000000063                                                                                     
7PESE                                                                                000000000097000                            
50002110201202142012021501311520007922       PES0000097000A035852012021418300144                                                
6024600097000120510131152000792200000000084                                                                                     
7PESE                                                                                000000000097000                            
50002210201202142012021501311617173690       PES0000097000A082002012021420170149                                                
6024600097000120510131161717369000000000058                                                                                     
7PESE                                                                                000000000097000                            
50002310201202142012021501310424922837       PES0000097000A039972012021413590113                                                
6024600097000120520131042492283700000000078                                                                                     
7PESE                                                                                000000000097000                            
50002410201202142012021501311425676474       PES0000097000A096252012021417140126                                                
6024600097000120520131142567647400000000058                                                                                     
7PESE                                                                                000000000097000                            
50002510201202142012021501311617181652       PES0000097000A038092012021420210084                                                
6024600097000120520131161718165200000000042                                                                                     
7PESE                                                                                000000000097000                            
50002610201202142012021523060322867793       PES0000121600A106422012021418560081                                                
6024600121600120522306032286779300000000063                                                                                     
7PESE                                                                                000000000121600                            
50002710201202142012021523061029303979       PES0000121600A099492012021411250155                                                
6024600121600120522306102930397900000000063                                                                                     
7PESE                                                                                000000000121600                            
50002810201202142012021523061614341401       PES0000136600A047832012021412070028                                                
6024600136600120472306161434140100000000000                                                                                     
7PESE                                                                                000000000136600                            
82012021500000100000280000018363000000000000000000000000000000000000000000028                                                   
9201202150000010000028000001836300000000000000000000000000000000000000000000028                                                 
