120121015PAGO FACIL               090060246FABIAN NORBERTO D´ERAMO                                                              
320121015000001FABIAN NORBERTO D´ERAMO                                                                                          
50000110201210122012101518402817607849       PES0000015000A017262012101210410091                                                
6024600015000122861840281760784900100000000                                                                                     
7PESE                                                                                000000000015000                            
50000210201210122012101500713726968697       PES0000032500A085662012101210180049                                                
6024600032500122930071372696869700000000084                                                                                     
7PESE                                                                                000000000032500                            
50000310201210122012101500720425186749       PES0000047500A034222012101211010064                                                
6024600047500122930072042518674900000000000                                                                                     
7PESE                                                                                000000000047500                            
50000410201210122012101518402526995968       PES0000015000A034222012101211010065                                                
6024600015000122871840252699596800100000458                                                                                     
7PESE                                                                                000000000015000                            
50000510201210122012101500711431655757       PES0000032500A070822012101211040092                                                
6024600032500122910071143165575700000000000                                                                                     
7PESE                                                                                000000000032500                            
50000610201210122012101500712621715360       PES0000032500A085422012101208460015                                                
6024600032500122920071262171536000000000058                                                                                     
7PESE                                                                                000000000032500                            
50000710201210122012101599030136359657       PES0000046500A081582012101212000084                                                
6024600046500122899903013635965700025000363                                                                                     
7PESE                                                                                000000000046500                            
50000810201210122012101599040135989576       PES0000030500A109902012101210310082                                                
6024600030500122899904013598957600015000221                                                                                     
7PESE                                                                                000000000030500                            
50000910201210122012101518402334517121       PES0000015000A113532012101212280219                                                
6024600015000122871840233451712100100000500                                                                                     
7PESE                                                                                000000000015000                            
50001010201210122012101518402528129022       PES0000015000A056902012101210060010                                                
6024600015000122871840252812902200100000479                                                                                     
7PESE                                                                                000000000015000                            
50001110201210122012101500714328470127       PES0000032500A024432012101211330083                                                
6024600032500122910071432847012700000000037                                                                                     
7PESE                                                                                000000000032500                            
50001210201210122012101500720117256724       PES0000047500A032962012101212590208                                                
6024600047500122910072011725672400000000079                                                                                     
7PESE                                                                                000000000047500                            
50001310201210122012101500721417256724       PES0000047500A032962012101213000209                                                
6024600047500122910072141725672400000000063                                                                                     
7PESE                                                                                000000000047500                            
50001410201210122012101500720317256724       PES0000047500A032962012101213010210                                                
6024600047500122910072031725672400000000021                                                                                     
7PESE                                                                                000000000047500                            
50001510201210122012101500721917256724       PES0000047500A032962012101213020211                                                
6024600047500122910072191725672400000000099                                                                                     
7PESE                                                                                000000000047500                            
50001610201210122012101500712526319367       PES0000032500A640742012101211550058                                                
6024600032500122930071252631936700000000058                                                                                     
7PESE                                                                                000000000032500                            
50001710201210122012101565000523937546       PES0000013000A021692012101212540234                                                
6024600013000122916500052393754600015000036                                                                                     
7PESE                                                                                000000000013000                            
50001810201210122012101518402720244205       PES0000015000A034222012101215460032                                                
6024600015000122871840272024420500100000358                                                                                     
7PESE                                                                                000000000015000                            
50001910201210122012101568000912289493       PES0000016000A096182012101214410205                                                
6024600016000122876800091228949300000000042                                                                                     
7PESE                                                                                000000000016000                            
50002010201210122012101518400333108530       PES0000015000A057152012101216290325                                                
6024600015000122871840033310853000100000684                                                                                     
7PESE                                                                                000000000015000                            
50002110201210122012101500710636477652       PES0000032500A027192012101213060154                                                
6024600032500122930071063647765200000000079                                                                                     
7PESE                                                                                000000000032500                            
50002210201210122012101500720616767160       PES0000047500A101012012101213440195                                                
6024600047500122920072061676716000000000021                                                                                     
7PESE                                                                                000000000047500                            
50002310201210122012101599030134600312       PES0000046500A015942012101216220141                                                
6024600046500122899903013460031200025000490                                                                                     
7PESE                                                                                000000000046500                            
50002410201210122012101500713733586844       PES0000032500A601182012101212150020                                                
6024600032500122900071373358684400000000000                                                                                     
7PESE                                                                                000000000032500                            
50002510201210122012101500713442835806       PES0000032500A104232012101211540079                                                
6024600032500122910071344283580600000000042                                                                                     
7PESE                                                                                000000000032500                            
50002610201210122012101500710636742730       PES0000032500A115122012101211250079                                                
6024600032500122900071063674273000000000000                                                                                     
7PESE                                                                                000000000032500                            
50002710201210122012101529081508503900       PES0000023000A092132012101210450084                                                
6024600023000122912908150850390000020000084                                                                                     
7PESE                                                                                000000000023000                            
50002810201210122012101529081224662631       PES0000023000A092132012101210450085                                                
6024600023000122912908122466263100020000063                                                                                     
7PESE                                                                                000000000023000                            
50002910201210122012101500720618730456       PES0000047500A092052012101209030007                                                
6024600047500122930072061873045600000000015                                                                                     
7PESE                                                                                000000000047500                            
50003010201210122012101518402431089103       PES0000015000D000772012101217310396                                                
6024600015000122871840243108910300100000584                                                                                     
7PESE                                                                                000000000015000                            
50003110201210122012101500540434318531       PES0000026000A048282012101211320050                                                
6024600026000122930054043431853100010000063                                                                                     
7PESE                                                                                000000000026000                            
50003210201210122012101500540334318531       PES0000026000A048282012101211320051                                                
6024600026000122930054033431853100010000042                                                                                     
7PESE                                                                                000000000026000                            
50003310201210122012101500720233026621       PES0000047500A115882012101217320209                                                
6024600047500122900072023302662100000000021                                                                                     
7PESE                                                                                000000000047500                            
50003410201210122012101518401237768494       PES0000015000A108892012101216590041                                                
6024600015000122871840123776849400100000637                                                                                     
7PESE                                                                                000000000015000                            
50003510201210122012101500712716977641       PES0000032500D000562012101213240003                                                
6024600032500122860071271697764100000000090                                                                                     
7PESE                                                                                000000000032500                            
50003610201210122012101500723792731269       PES0000037500A095272012101216060219                                                
6024600037500122910072379273126900000000000                                                                                     
7PESE                                                                                000000000037500                            
50003710201210122012101500720811478442       PES0000047500A069132012101216410069                                                
6024600047500122920072081147844200000000021                                                                                     
7PESE                                                                                000000000047500                            
50003810201210122012101500714327272527       PES0000032500A097372012101218570324                                                
6024600032500122930071432727252700000000000                                                                                     
7PESE                                                                                000000000032500                            
50003910201210122012101500720232520937       PES0000047500A068902012101219020216                                                
6024600047500122930072023252093700000000079                                                                                     
7PESE                                                                                000000000047500                            
50004010201210122012101500714425790571       PES0000032500A077352012101218240092                                                
6024600032500122900071442579057100000000084                                                                                     
7PESE                                                                                000000000032500                            
50004110201210122012101518402432111773       PES0000015000A077352012101219230141                                                
6024600015000122871840243211177300100000690                                                                                     
7PESE                                                                                000000000015000                            
50004210201210122012101568000524465094       PES0000016000A113702012101210510054                                                
6024600016000122876800052446509400000000057                                                                                     
7PESE                                                                                000000000016000                            
50004310201210122012101565000218498817       PES0000013000A016702012101217140162                                                
6024600013000122906500021849881700015000021                                                                                     
7PESE                                                                                000000000013000                            
50004410201210122012101565000518354060       PES0000013000A016702012101217150163                                                
6024600013000122906500051835406000015000084                                                                                     
7PESE                                                                                000000000013000                            
50004510201210122012101500714744361750       PES0000011500A036692012101219460287                                                
6024600011500122910071474436175000000000042                                                                                     
7PESE                                                                                000000000011500                            
50004610201210122012101500714743323944       PES0000011500A024822012101216510005                                                
6024600011500122910071474332394400000000042                                                                                     
7PESE                                                                                000000000011500                            
50004710201210122012101500720329033473       PES0000047500A095862012101220290159                                                
6024600047500122880072032903347300000000063                                                                                     
7PESE                                                                                000000000047500                            
50004810201210122012101518400621957336       PES0000015000A022082012101216420106                                                
6024600015000122871840062195733600100000600                                                                                     
7PESE                                                                                000000000015000                            
50004910201210122012101500712720200375       PES0000032500M601222012101215130104                                                
6024600032500122930071272020037500000000042                                                                                     
7PESE                                                                                000000000032500                            
50005010201210122012101500720232036311       PES0000047500M602162012101215320075                                                
6024600047500122920072023203631100000000042                                                                                     
7PESE                                                                                000000000047500                            
50005110201210122012101518402624336959       PES0000015000M600632012101216240085                                                
6024600015000122871840262433695900100000536                                                                                     
7PESE                                                                                000000000015000                            
50005210201210122012101518402526601058       PES0000015000M601622012101214240204                                                
6024600015000122871840252660105800100000421                                                                                     
7PESE                                                                                000000000015000                            
50005310201210122012101500712813974445       PES0000032500M620162012101209140004                                                
6024600032500122930071281397444500000000099                                                                                     
7PESE                                                                                000000000032500                            
50005410201210122012101500721329151861       PES0000047500L120262012101213255952                                                
6024600046500122790072132915186100010000721                                                                                     
7PESE                                                                                000000000047500                            
50005510201210122012101598010118268323       PES0000015000M620902012101212490060                                                
6024600015000122899801011826832300000000457                                                                                     
7PESE                                                                                000000000015000                            
50005610201210122012101500712813033989       PES0000032500M600522012101215080118                                                
6024600032500122860071281303398900000000000                                                                                     
7PESE                                                                                000000000032500                            
50005710201210122012101500711720812486       PES0000032500L070782012101217111342                                                
6024600032500122930071172081248600000000000                                                                                     
7PESE                                                                                000000000032500                            
50005810201210142012101568001130459349       PES0000016000A109772012101217200055                                                
6024600016000122876800113045934900000000021                                                                                     
7PESE                                                                                000000000016000                            
50005910201210132012101500712428802612       PES0000032500A044382012101310130031                                                
6024600032500122930071242880261200000000063                                                                                     
7PESE                                                                                000000000032500                            
50006010201210132012101500714138938345       PES0000032500A033862012101309440029                                                
6024600032500122930071413893834500000000037                                                                                     
7PESE                                                                                000000000032500                            
50006110201210132012101500714426186653       PES0000032500A028072012101310220086                                                
6024600032500122890071442618665300000000058                                                                                     
7PESE                                                                                000000000032500                            
50006210201210132012101500720520618350       PES0000047500A051312012101310500044                                                
6024600047500122930072052061835000000000084                                                                                     
7PESE                                                                                000000000047500                            
50006310201210132012101500713820206963       PES0000032500A100492012101313350071                                                
6024600032500122880071382020696300000000099                                                                                     
7PESE                                                                                000000000032500                            
50006410201210132012101500714326942664       PES0000032500A017482012101316350234                                                
6024600032500122900071432694266400000000084                                                                                     
7PESE                                                                                000000000032500                            
50006510201210132012101500712716827661       PES0000032500A038202012101319400158                                                
6024600032500122870071271682766100000000036                                                                                     
7PESE                                                                                000000000032500                            
50006610201210132012101570001430825981       PES0000005000M660032012101311390081                                                
6024600005000122897000143082598100000000578                                                                                     
7PESE                                                                                000000000005000                            
50006710201210132012101570001430239921       PES0000005000M660032012101311390082                                                
6024600005000122897000143023992100000000558                                                                                     
7PESE                                                                                000000000005000                            
50006810201210142012101500721327420185       PES0000047500L071482012101419553810                                                
6024600047500122930072132742018500000000058                                                                                     
7PESE                                                                                000000000047500                            
82012101500000100000680000020015000000000000000000000000000000000000000000068                                                   
9201210150000010000068000002001500000000000000000000000000000000000000000000068                                                 
