120120515PAGO FACIL               090060246FABIAN NORBERTO D´ERAMO                                                              
320120515000001FABIAN NORBERTO D´ERAMO                                                                                          
50000110201205142012051599060134229030       PES0000008000A067092012051410560024                                                
6024600008000121369906013422903000000000058                                                                                     
7PESE                                                                                000000000008000                            
50000210201205142012051599040133718964       PES0000030500A066012012051418390098                                                
6024600030500121369904013371896400015000142                                                                                     
7PESE                                                                                000000000030500                            
50000310201205142012051599030135216759       PES0000040500A112032012051409590204                                                
6024600040500121369903013521675900025000690                                                                                     
7PESE                                                                                000000000040500                            
50000410201205142012051599030135398990       PES0000040500A620822012051411050040                                                
6024600040500121369903013539899000025000600                                                                                     
7PESE                                                                                000000000040500                            
50000510201205142012051599030237206177       PES0000043000A057612012051418540118                                                
6024600043000121379903023720617700035000016                                                                                     
7PESE                                                                                000000000043000                            
50000610201205142012051599030220863609       PES0000046500A072902012051410480064                                                
6024600046500121369903022086360900025000284                                                                                     
7PESE                                                                                000000000046500                            
50000710201205142012051599030233036717       PES0000046500A092732012051412350096                                                
6024600046500121369903023303671700025000615                                                                                     
7PESE                                                                                000000000046500                            
50000810201205142012051599030233204730       PES0000046500A091152012051413100331                                                
6024600046500121369903023320473000025000657                                                                                     
7PESE                                                                                000000000046500                            
82012051500000100000080000003020000000000000000000000000000000000000000000008                                                   
9201205150000010000008000000302000000000000000000000000000000000000000000000008                                                 
