120120716PAGO FACIL               090060246FABIAN NORBERTO D´ERAMO                                                              
320120716000001FABIAN NORBERTO D´ERAMO                                                                                          
50000110201207132012071699020224599090       PES0000022000A074762012071309200015                                                
6024600022000121979902022459909000000000478                                                                                     
7PESE                                                                                000000000022000                            
50000210201207132012071657010425095044       PES0000013000A062262012071309280015                                                
6024600013000121975701042509504400010000458                                                                                     
7PESE                                                                                000000000013000                            
50000310201207132012071657010805390572       PES0000013000A062262012071309280016                                                
6024600013000121975701080539057200010000479                                                                                     
7PESE                                                                                000000000013000                            
50000410201207132012071657010812196375       PES0000013000A062262012071309280017                                                
6024600013000121975701081219637500010000442                                                                                     
7PESE                                                                                000000000013000                            
50000510201207132012071699020236692910       PES0000022000A081792012071310080064                                                
6024600022000121979902023669291000000000584                                                                                     
7PESE                                                                                000000000022000                            
50000610201207132012071699030136806018       PES0000046500A112042012071312230240                                                
6024600043000121899903013680601800035000737                                                                                     
7PESE                                                                                000000000046500                            
50000710201207132012071699020231344045       PES0000022000A053092012071315240022                                                
6024600022000121979902023134404500000000521                                                                                     
7PESE                                                                                000000000022000                            
50000810201207132012071699040130663025       PES0000030500A001602012071316570107                                                
6024600030500121979904013066302500015000299                                                                                     
7PESE                                                                                000000000030500                            
50000910201207132012071600540136872631       PES0000076000A073822012071316400273                                                
6024600076000122020054013687263100000000036                                                                                     
7PESE                                                                                000000000076000                            
50001010201207132012071699030134630666       PES0000046500A092112012071314590397                                                
6024600046500121979903013463066600025000537                                                                                     
7PESE                                                                                000000000046500                            
50001110201207132012071600540236996669       PES0000026000A066812012071317020006                                                
6024600026000122010054023699666900010000015                                                                                     
7PESE                                                                                000000000026000                            
50001210201207132012071659001126895492       PES0000016000A090422012071318270014                                                
6024600016000122015900112689549200000000084                                                                                     
7PESE                                                                                000000000016000                            
50001310201207132012071657002126497682       PES0000010000A103902012071316280201                                                
6024600010000121975700212649768200010000357                                                                                     
7PESE                                                                                000000000010000                            
50001410201207132012071699020236421860       PES0000022000L070082012071319096290                                                
6024600022000121979902023642186000000000579                                                                                     
7PESE                                                                                000000000022000                            
50001510201207132012071699030136359657       PES0000046500A081582012071310180072                                                
6024600046500121979903013635965700025000384                                                                                     
7PESE                                                                                000000000046500                            
50001610201207132012071600540136359657       PES0000076000A081582012071310180073                                                
6024600076000122000054013635965700000000042                                                                                     
7PESE                                                                                000000000076000                            
50001710201207142012071699030129317503       PES0000046500D000502012071419230238                                                
6024600046500121979903012931750300025000600                                                                                     
7PESE                                                                                000000000046500                            
50001810201207142012071600540229317503       PES0000026000D000502012071419230239                                                
6024600026000122020054022931750300010000157                                                                                     
7PESE                                                                                000000000026000                            
50001910201207142012071657000132232865       PES0000013000A105512012071417240003                                                
6024600013000121975700013223286500010000563                                                                                     
7PESE                                                                                000000000013000                            
50002010201207142012071657001228070599       PES0000013000A103902012071411570051                                                
6024600013000121975700122807059900010000684                                                                                     
7PESE                                                                                000000000013000                            
50002110201207142012071657000130421729       PES0000013000A103902012071411570052                                                
6024600013000121975700013042172900010000678                                                                                     
7PESE                                                                                000000000013000                            
82012071600000100000210000006125000000000000000000000000000000000000000000021                                                   
9201207160000010000021000000612500000000000000000000000000000000000000000000021                                                 
