120120316PAGO FACIL               090060246FABIAN NORBERTO D´ERAMO                                                              
320120316000001FABIAN NORBERTO D´ERAMO                                                                                          
50000110201203152012031653010317307060       PES0000007500A076892012031509020019                                                
6024600007500120785301031730706000000000015                                                                                     
7PESE                                                                                000000000007500                            
50000210201203152012031653010317479207       PES0000007500A076892012031509040021                                                
6024600007500120785301031747920700000000042                                                                                     
7PESE                                                                                000000000007500                            
50000310201203152012031653011212921419       PES0000007500A076892012031509030020                                                
6024600007500120785301121292141900000000037                                                                                     
7PESE                                                                                000000000007500                            
50000410201203152012031653011216078385       PES0000007500A076892012031509050022                                                
6024600007500120785301121607838500000000015                                                                                     
7PESE                                                                                000000000007500                            
50000510201203152012031699050123626191       PES0000008000A092062012031510260076                                                
6024600008000120819905012362619100000000078                                                                                     
7PESE                                                                                000000000008000                            
50000610201203152012031699050125028385       PES0000008000A029032012031517220005                                                
6024600008000120819905012502838500000000016                                                                                     
7PESE                                                                                000000000008000                            
50000710201203152012031602333111623336       PES0000020000A010432012031511090024                                                
6024600020000120750233311162333600000000078                                                                                     
7PESE                                                                                000000000020000                            
50000810201203152012031602332726939772       PES0000020000A058062012031516060118                                                
6024600020000120760233272693977200000000036                                                                                     
7PESE                                                                                000000000020000                            
50000910201203152012031602332825638739       PES0000020000M600042012031512150060                                                
6024600020000120760233282563873900000000042                                                                                     
7PESE                                                                                000000000020000                            
50001010201203152012031600692794183919       PES0000022000A055332012031515270248                                                
6024600022000120810069279418391900000000084                                                                                     
7PESE                                                                                000000000022000                            
50001110201203152012031602330524721880       PES0000028000A081352012031511300112                                                
6024600028000120750233052472188000000000057                                                                                     
7PESE                                                                                000000000028000                            
50001210201203152012031602330622470212       PES0000028000A110382012031513180228                                                
6024600028000120760233062247021200000000057                                                                                     
7PESE                                                                                000000000028000                            
50001310201203152012031602330717684750       PES0000028000A110612012031510210010                                                
6024600028000120760233071768475000000000090                                                                                     
7PESE                                                                                000000000028000                            
50001410201203152012031602331621666101       PES0000028000A109842012031513420150                                                
6024600028000120760233162166610100000000057                                                                                     
7PESE                                                                                000000000028000                            
50001510201203152012031602331804646598       PES0000028000A601832012031511050057                                                
6024600028000120760233180464659800000000000                                                                                     
7PESE                                                                                000000000028000                            
50001610201203152012031698010233506139       PES0000029500A601832012031509590025                                                
6024600029500120759801023350613900000000757                                                                                     
7PESE                                                                                000000000029500                            
82012031600000100000160000002975000000000000000000000000000000000000000000016                                                   
9201203160000010000016000000297500000000000000000000000000000000000000000000016                                                 
