120111116PAGO FACIL               090060246FABIAN NORBERTO D´ERAMO                                                              
320111116000001FABIAN NORBERTO D´ERAMO                                                                                          
50000110201111152011111601290428692451       PES0000037000A035622011111416260193                                                
6024600037000113180129042869245100000000084                                                                                     
7PESE                                                                                000000000037000                            
50000210201111152011111652000716824785       PES0000009000A039232011111518440209                                                
6024600009000113225200071682478500000000016                                                                                     
7PESE                                                                                000000000009000                            
50000310201111152011111629060222185448       PES0000010000A038202011111519080162                                                
6024600010000113212906022218544800030000063                                                                                     
7PESE                                                                                000000000010000                            
50000410201111152011111646070131422560       PES0000020000A000882011111509420015                                                
6024600020000113194607013142256000060000036                                                                                     
7PESE                                                                                000000000020000                            
50000510201111152011111646070224388517       PES0000020000A056252011111514200136                                                
6024600020000113194607022438851700060000000                                                                                     
7PESE                                                                                000000000020000                            
50000610201111152011111600572428322799       PES0000022000A036192011111510510164                                                
6024600022000113190057242832279900000000063                                                                                     
7PESE                                                                                000000000022000                            
50000710201111152011111600572622252161       PES0000022000M600432011111514340042                                                
6024600022000113210057262225216100000000063                                                                                     
7PESE                                                                                000000000022000                            
50000810201111152011111600572329413861       PES0000022000D000152011111513460109                                                
6024600022000113230057232941386100000000079                                                                                     
7PESE                                                                                000000000022000                            
50000910201111152011111600572618532531       PES0000022000A103032011111512450112                                                
6024600022000113230057261853253100000000021                                                                                     
7PESE                                                                                000000000022000                            
50001010201111152011111600582523687452       PES0000022500A048332011111512150062                                                
6024600022500113220058252368745200025000036                                                                                     
7PESE                                                                                000000000022500                            
50001110201111152011111600582233739749       PES0000022500A109572011111510090057                                                
6024600022500113250058223373974900025000084                                                                                     
7PESE                                                                                000000000022500                            
50001210201111152011111600582618532531       PES0000022500A103032011111512450111                                                
6024600022500113260058261853253100025000000                                                                                     
7PESE                                                                                000000000022500                            
50001310201111152011111600584424909738       PES0000022500A102192011111517130032                                                
6024600022500113260058442490973800025000036                                                                                     
7PESE                                                                                000000000022500                            
50001410201111152011111699040134998991       PES0000026000A033772011111512460085                                                
6024600026000113199904013499899100010000342                                                                                     
7PESE                                                                                000000000026000                            
50001510201111152011111601290232537882       PES0000037000A107712011111519100017                                                
6024600037000113200129023253788200000000037                                                                                     
7PESE                                                                                000000000037000                            
50001610201111152011111601290330575153       PES0000037000A042062011111511150061                                                
6024600037000113200129033057515300000000063                                                                                     
7PESE                                                                                000000000037000                            
50001710201111152011111601290426053543       PES0000037000M602162011111513480059                                                
6024600037000113200129042605354300000000090                                                                                     
7PESE                                                                                000000000037000                            
50001810201111152011111601290525485194       PES0000037000A085182011111511560091                                                
6024600037000113200129052548519400000000000                                                                                     
7PESE                                                                                000000000037000                            
50001910201111152011111601290622434017       PES0000037000A026742011111512080053                                                
6024600037000113200129062243401700000000042                                                                                     
7PESE                                                                                000000000037000                            
50002010201111152011111601301622505784       PES0000040000A065832011111513170242                                                
6024600040000113210130162250578400000000078                                                                                     
7PESE                                                                                000000000040000                            
50002110201111152011111601300425615310       PES0000040000A104162011111511530103                                                
6024600040000113220130042561531000000000042                                                                                     
7PESE                                                                                000000000040000                            
50002210201111152011111601300620403768       PES0000040000A072352011111513520252                                                
6024600040000113220130062040376800000000090                                                                                     
7PESE                                                                                000000000040000                            
50002310201111152011111601301528079567       PES0000040000A091682011111511290149                                                
6024600040000113220130152807956700000000058                                                                                     
7PESE                                                                                000000000040000                            
50002410201111152011111601301625392472       PES0000040000A111392011111509240028                                                
6024600040000113220130162539247200000000042                                                                                     
7PESE                                                                                000000000040000                            
50002510201111152011111601301625567682       PES0000040000A070822011111513280204                                                
6024600040000113220130162556768200000000079                                                                                     
7PESE                                                                                000000000040000                            
50002610201111152011111601301720502863       PES0000040000A085792011111518350194                                                
6024600040000113220130172050286300000000037                                                                                     
7PESE                                                                                000000000040000                            
50002710201111152011111601301814769614       PES0000040000A091682011111511290150                                                
6024600040000113220130181476961400000000099                                                                                     
7PESE                                                                                000000000040000                            
50002810201111152011111601302010895207       PES0000040000A106052011111512210061                                                
6024600040000113220130201089520700000000058                                                                                     
7PESE                                                                                000000000040000                            
50002910201111152011111601301624481822       PES0000040000A033862011111517390087                                                
6024600040000113230130162448182200000000000                                                                                     
7PESE                                                                                000000000040000                            
50003010201111152011111601301526932366       PES0000040000A086622011111514110125                                                
6024600040000113240130152693236600000000036                                                                                     
7PESE                                                                                000000000040000                            
50003110201111152011111601301913227104       PES0000040000A062782011111511380115                                                
6024600040000113240130191322710400000000079                                                                                     
7PESE                                                                                000000000040000                            
50003210201111152011111601301333961405       PES0000040000A055192011111513130164                                                
6024600040000113250130133396140500000000090                                                                                     
7PESE                                                                                000000000040000                            
50003310201111152011111601301334790970       PES0000040000B030202011111510256748                                                
6024600040000113250130133479097000000000058                                                                                     
7PESE                                                                                000000000040000                            
50003410201111152011111601301526172135       PES0000040000A100022011111514190070                                                
6024600040000113250130152617213500000000090                                                                                     
7PESE                                                                                000000000040000                            
50003510201111152011111601301623091883       PES0000040000M600762011111513460046                                                
6024600040000113250130162309188300000000021                                                                                     
7PESE                                                                                000000000040000                            
50003610201111152011111601301718409399       PES0000040000M600402011111512000112                                                
6024600040000113260130171840939900000000042                                                                                     
7PESE                                                                                000000000040000                            
50003710201111152011111601301722434017       PES0000040000A026742011111512080054                                                
6024600040000113260130172243401700000000000                                                                                     
7PESE                                                                                000000000040000                            
50003810201111152011111601301814589515       PES0000040000M600702011111516440236                                                
6024600040000113260130181458951500000000078                                                                                     
7PESE                                                                                000000000040000                            
82011111600000100000380000012450000000000000000000000000000000000000000000038                                                   
9201111160000010000038000001245000000000000000000000000000000000000000000000038                                                 
