120110916PAGO FACIL               090060246FABIAN NORBERTO D´ERAMO                                                              
320110916000001FABIAN NORBERTO D´ERAMO                                                                                          
50000110201109152011091600504742215062       PES0000008500A035802011091513060213                                                
6024600008500112630050474221506200015000042                                                                                     
7PESE                                                                                000000000008500                            
50000210201109152011091629060304976450       PES0000010000A101362011091515350346                                                
6024600010000112652906030497645000030000057                                                                                     
7PESE                                                                                000000000010000                            
50000310201109152011091618320329679371       PES0000015000M620412011091512050022                                                
6024600015000112601832032967937100000000021                                                                                     
7PESE                                                                                000000000015000                            
50000410201109152011091618320621052612       PES0000015000A025172011091510190034                                                
6024600015000112601832062105261200000000021                                                                                     
7PESE                                                                                000000000015000                            
50000510201109152011091617020137490830       PES0000020000A077082011091517420024                                                
6024600020000112641702013749083000000000021                                                                                     
7PESE                                                                                000000000020000                            
50000610201109152011091600504420572378       PES0000024500A075132011091510000114                                                
6024600024500112620050442057237800030000016                                                                                     
7PESE                                                                                000000000024500                            
50000710201109152011091600500633505885       PES0000024500A057152011091511230077                                                
6024600024500112630050063350588500030000016                                                                                     
7PESE                                                                                000000000024500                            
50000810201109152011091600500333606518       PES0000024500A107342011091515180028                                                
6024600024500112640050033360651800030000078                                                                                     
7PESE                                                                                000000000024500                            
50000910201109152011091600500729343288       PES0000024500A057152011091512110118                                                
6024600024500112640050072934328800030000021                                                                                     
7PESE                                                                                000000000024500                            
50001010201109152011091600502426920552       PES0000024500A073592011091516190091                                                
6024600024500112640050242692055200030000021                                                                                     
7PESE                                                                                000000000024500                            
50001110201109152011091600502525146278       PES0000024500A034742011091515000256                                                
6024600024500112640050252514627800030000084                                                                                     
7PESE                                                                                000000000024500                            
50001210201109152011091600504326769908       PES0000024500A078112011091511150068                                                
6024600024500112640050432676990800030000063                                                                                     
7PESE                                                                                000000000024500                            
50001310201109152011091600504512284114       PES0000024500A066532011091509520006                                                
6024600024500112650050451228411400030000000                                                                                     
7PESE                                                                                000000000024500                            
50001410201109152011091601280232362416       PES0000036500A601882011091511300149                                                
6024600036500112580128023236241600000000042                                                                                     
7PESE                                                                                000000000036500                            
50001510201109152011091601280325731586       PES0000036500A080082011091512450099                                                
6024600036500112600128032573158600000000042                                                                                     
7PESE                                                                                000000000036500                            
50001610201109152011091601280422178778       PES0000036500A080712011091518220126                                                
6024600036500112600128042217877800000000016                                                                                     
7PESE                                                                                000000000036500                            
50001710201109152011091601280424040963       PES0000036500M620412011091511570021                                                
6024600036500112600128042404096300000000084                                                                                     
7PESE                                                                                000000000036500                            
50001810201109152011091601280616752601       PES0000036500A103902011091512350052                                                
6024600036500112600128061675260100000000016                                                                                     
7PESE                                                                                000000000036500                            
50001910201109152011091601280907579197       PES0000036500A081812011091510550131                                                
6024600036500112600128090757919700000000021                                                                                     
7PESE                                                                                000000000036500                            
50002010201109152011091601281422401738       PES0000036500A100652011091512060040                                                
6024600036500112600128142240173800000000090                                                                                     
7PESE                                                                                000000000036500                            
82011091600000100000200000005200000000000000000000000000000000000000000000020                                                   
9201109160000010000020000000520000000000000000000000000000000000000000000000020                                                 
