120110516PAGO FACIL               090060246FABIAN NORBERTO D´ERAMO                                                              
320110516000001FABIAN NORBERTO D´ERAMO                                                                                          
50000110201105132011051601270421671185       PES0000020000A068212011051310370047                                                
6024600020000111400127042167118500000000057                                                                                     
7PESE                                                                                000000000020000                            
50000210201105132011051648010412347202       PES0000018000A093302011051308580019                                                
6024600018000111364801041234720200020000315                                                                                     
7PESE                                                                                000000000018000                            
50000310201105132011051618292429083514       PES0000015000A601292011051310400023                                                
6024600015000111331829242908351400040000679                                                                                     
7PESE                                                                                000000000015000                            
50000410201105132011051618292816402501       PES0000015000A086862011051314430232                                                
6024600015000111331829281640250100040000642                                                                                     
7PESE                                                                                000000000015000                            
50000510201105132011051618290718730456       PES0000015000A092032011051310510010                                                
6024600015000111331829071873045600040000684                                                                                     
7PESE                                                                                000000000015000                            
50000610201105132011051601272221614055       PES0000011000A086832011051315350063                                                
6024600011000111380127222161405500000000036                                                                                     
7PESE                                                                                000000000011000                            
50000710201105132011051601270324540472       PES0000020000A086832011051315350064                                                
6024600020000111380127032454047200000000000                                                                                     
7PESE                                                                                000000000020000                            
50000810201105132011051618292622278111       PES0000015000A090502011051311220107                                                
6024600015000111331829262227811100040000637                                                                                     
7PESE                                                                                000000000015000                            
50000910201105132011051618290717299215       PES0000015000A046112011051317010317                                                
6024600015000111331829071729921500040000657                                                                                     
7PESE                                                                                000000000015000                            
50001010201105132011051601270711970595       PES0000020000D000572011051313170085                                                
6024600020000111380127071197059500000000021                                                                                     
7PESE                                                                                000000000020000                            
50001110201105132011051618290618024491       PES0000015000A089372011051315580030                                                
6024600015000111331829061802449100040000600                                                                                     
7PESE                                                                                000000000015000                            
50001210201105132011051618290620054275       PES0000015000A103032011051311170074                                                
6024600015000111331829062005427500040000463                                                                                     
7PESE                                                                                000000000015000                            
50001310201105132011051601271418289189       PES0000020000A106782011051315390211                                                
6024600020000111350127141828918900000000084                                                                                     
7PESE                                                                                000000000020000                            
50001410201105132011051618290233329057       PES0000015000A053122011051315080113                                                
6024600015000111331829023332905700040000715                                                                                     
7PESE                                                                                000000000015000                            
50001510201105132011051601271137520548       PES0000020000A083182011051318090152                                                
6024600020000111400127113752054800000000016                                                                                     
7PESE                                                                                000000000020000                            
50001610201105132011051618290329399297       PES0000015000A046092011051314500166                                                
6024600015000111331829032939929700040000521                                                                                     
7PESE                                                                                000000000015000                            
50001710201105132011051618291526323112       PES0000015000L020342011051312284891                                                
6024600015000111331829152632311200040000616                                                                                     
7PESE                                                                                000000000015000                            
50001810201105132011051601270613361308       PES0000020000M620732011051310320020                                                
6024600020000111390127061336130800000000000                                                                                     
7PESE                                                                                000000000020000                            
50001910201105132011051601270516418072       PES0000020000M620732011051310330021                                                
6024600020000111380127051641807200000000021                                                                                     
7PESE                                                                                000000000020000                            
50002010201105142011051699030235380852       PES0000038500A077352011051412340125                                                
6024600038500111359903023538085200025000290                                                                                     
7PESE                                                                                000000000038500                            
50002110201105142011051601270325628066       PES0000020000L120082011051420085846                                                
6024600020000111370127032562806600000000058                                                                                     
7PESE                                                                                000000000020000                            
50002210201105152011051699030230531074       PES0000038500A088612011051519440217                                                
6024600038500111359903023053107400025000400                                                                                     
7PESE                                                                                000000000038500                            
82011051600000100000220000004160000000000000000000000000000000000000000000022                                                   
9201105160000010000022000000416000000000000000000000000000000000000000000000022                                                 
