120120216PAGO FACIL               090060246FABIAN NORBERTO D´ERAMO                                                              
320120216000001FABIAN NORBERTO D´ERAMO                                                                                          
50000110201202152012021600681624204125       PES0000019000M600152012021511540016                                                
6024600019000120460068162420412500020000242                                                                                     
7PESE                                                                                000000000019000                            
50000210201202152012021600682620948007       PES0000019000A045312012021514260171                                                
6024600019000120460068262094800700020000021                                                                                     
7PESE                                                                                000000000019000                            
50000310201202152012021600683008529149       PES0000019000A018312012021510350031                                                
6024600019000120460068300852914900020000678                                                                                     
7PESE                                                                                000000000019000                            
50000410201202152012021600683726718719       PES0000019000A097172012021514450130                                                
6024600019000120460068372671871900020000584                                                                                     
7PESE                                                                                000000000019000                            
50000510201202152012021600683729150728       PES0000019000M601612012021512180055                                                
6024600019000120460068372915072800020000715                                                                                     
7PESE                                                                                000000000019000                            
50000610201202152012021600684326470258       PES0000019000A108982012021512380156                                                
6024600019000120460068432647025800020000678                                                                                     
7PESE                                                                                000000000019000                            
50000710201202152012021600684423414061       PES0000019000A075132012021519490321                                                
6024600019000120460068442341406100020000563                                                                                     
7PESE                                                                                000000000019000                            
50000810201202152012021600684424909738       PES0000019000A097172012021514450131                                                
6024600019000120460068442490973800020000142                                                                                     
7PESE                                                                                000000000019000                            
50000910201202152012021600695114888484       PES0000019000A076762012021519380111                                                
6024600019000120510069511488848400010000200                                                                                     
7PESE                                                                                000000000019000                            
50001010201202152012021618370138089577       PES0000020000A085352012021518000041                                                
6024600020000120471837013808957700000000084                                                                                     
7PESE                                                                                000000000020000                            
50001110201202152012021618370332743409       PES0000020000A100262012021510180038                                                
6024600020000120471837033274340900000000063                                                                                     
7PESE                                                                                000000000020000                            
50001210201202152012021618370427819491       PES0000020000A056262012021517040208                                                
6024600020000120471837042781949100000000063                                                                                     
7PESE                                                                                000000000020000                            
50001310201202152012021618370429033473       PES0000020000A095862012021518180047                                                
6024600020000120471837042903347300000000099                                                                                     
7PESE                                                                                000000000020000                            
50001410201202152012021618370522840735       PES0000020000A104702012021519090103                                                
6024600020000120471837052284073500000000063                                                                                     
7PESE                                                                                000000000020000                            
50001510201202152012021618370525121058       PES0000020000A042812012021515400084                                                
6024600020000120471837052512105800000000078                                                                                     
7PESE                                                                                000000000020000                            
50001610201202152012021600600714805560       PES0000029000M750002012021509460015                                                
6024600029000120470060071480556000000000058                                                                                     
7PESE                                                                                000000000029000                            
50001710201202152012021699030235174854       PES0000040500D001482012021517550104                                                
6024600040500120469903023517485400025000757                                                                                     
7PESE                                                                                000000000040500                            
50001810201202152012021601311616624018       PES0000097000M600212012021515370177                                                
6024600097000120460131161662401800000000090                                                                                     
7PESE                                                                                000000000097000                            
50001910201202152012021601311232664559       PES0000097000A089322012021511490040                                                
6024600097000120510131123266455900000000000                                                                                     
7PESE                                                                                000000000097000                            
50002010201202152012021601311424037008       PES0000097000A082002012021512030058                                                
6024600097000120510131142403700800000000021                                                                                     
7PESE                                                                                000000000097000                            
50002110201202152012021601311518563343       PES0000097000A100662012021509440015                                                
6024600097000120510131151856334300000000079                                                                                     
7PESE                                                                                000000000097000                            
50002210201202152012021601311522167074       PES0000097000A008222012021511320097                                                
6024600097000120510131152216707400000000058                                                                                     
7PESE                                                                                000000000097000                            
50002310201202152012021601311714284990       PES0000097000A008222012021511320096                                                
6024600097000120510131171428499000000000058                                                                                     
7PESE                                                                                000000000097000                            
50002410201202152012021601311228741842       PES0000097000A042592012021509030013                                                
6024600097000120520131122874184200000000099                                                                                     
7PESE                                                                                000000000097000                            
50002510201202152012021601311518546403       PES0000097000A048462012021516200177                                                
6024600097000120520131151854640300000000063                                                                                     
7PESE                                                                                000000000097000                            
50002610201202152012021601311617366038       PES0000097000A096342012021509590044                                                
6024600097000120520131161736603800000000057                                                                                     
7PESE                                                                                000000000097000                            
50002710201202152012021601311518294991       PES0000097000A108712012021515340250                                                
6024600097000120530131151829499100000000021                                                                                     
7PESE                                                                                000000000097000                            
50002810201202152012021623061838283742       PES0000136600A108852012021513060081                                                
6024600136600120492306183828374200000000063                                                                                     
7PESE                                                                                000000000136600                            
50002910201202152012021623061423527443       PES0000136600A051462012021509220006                                                
6024600136600120512306142352744300000000000                                                                                     
7PESE                                                                                000000000136600                            
50003010201202152012021623061838517037       PES0000136600A102352012021510060070                                                
6024600136600120512306183851703700000000042                                                                                     
7PESE                                                                                000000000136600                            
50003110201202152012021623061614913517       PES0000136600A102692012021511480061                                                
6024600136600120532306161491351700000000057                                                                                     
7PESE                                                                                000000000136600                            
82012021600000100000310000018769000000000000000000000000000000000000000000031                                                   
9201202160000010000031000001876900000000000000000000000000000000000000000000031                                                 
