120121116PAGO FACIL               090060246FABIAN NORBERTO D´ERAMO                                                              
320121116000001FABIAN NORBERTO D´ERAMO                                                                                          
50000110201211152012111600774744677524       PES0000005500M600662012111515560060                                                
6024600005500123200077474467752400010000679                                                                                     
7PESE                                                                                000000000005500                            
50000210201211152012111600774744885825       PES0000005500A045312012111514430202                                                
6024600005500123200077474488582500010000621                                                                                     
7PESE                                                                                000000000005500                            
50000310201211152012111600754744885825       PES0000008000A045312012111514420200                                                
6024600008000123200075474488582500000000058                                                                                     
7PESE                                                                                000000000008000                            
50000410201211152012111672000514643067       PES0000009000A102352012111517010023                                                
6024600009000123267200051464306700000000099                                                                                     
7PESE                                                                                000000000009000                            
50000510201211152012111672000528637167       PES0000009000A102352012111517000022                                                
6024600009000123267200052863716700000000063                                                                                     
7PESE                                                                                000000000009000                            
50000610201211152012111672000528403319       PES0000010000L071292012111519332379                                                
6024600010000123227200052840331900000000037                                                                                     
7PESE                                                                                000000000010000                            
50000710201211152012111672000528636853       PES0000010000L071292012111519322378                                                
6024600010000123227200052863685300000000084                                                                                     
7PESE                                                                                000000000010000                            
50000810201211152012111659010130565427       PES0000011000A078992012111516250126                                                
6024600011000123265901013056542700000000078                                                                                     
7PESE                                                                                000000000011000                            
50000910201211152012111659011031143933       PES0000011000A078992012111516250125                                                
6024600011000123265901103114393300000000063                                                                                     
7PESE                                                                                000000000011000                            
50001010201211152012111659011031697945       PES0000011000A078992012111516250127                                                
6024600011000123265901103169794500000000078                                                                                     
7PESE                                                                                000000000011000                            
50001110201211152012111659011512541621       PES0000011000A114302012111512140145                                                
6024600011000123265901151254162100000000058                                                                                     
7PESE                                                                                000000000011000                            
50001210201211152012111659011516170601       PES0000011000A114302012111512140146                                                
6024600011000123265901151617060100000000084                                                                                     
7PESE                                                                                000000000011000                            
50001310201211152012111698010128386263       PES0000015000A117922012111517070105                                                
6024600015000123209801012838626300000000715                                                                                     
7PESE                                                                                000000000015000                            
50001410201211152012111698010131068052       PES0000015000A117582012111514450122                                                
6024600015000123209801013106805200000000779                                                                                     
7PESE                                                                                000000000015000                            
50001510201211152012111698010136302672       PES0000015000L070522012111518572381                                                
6024600015000123209801013630267200000000784                                                                                     
7PESE                                                                                000000000015000                            
50001610201211152012111698010136850164       PES0000015000A052842012111510450182                                                
6024600015000123209801013685016400000000699                                                                                     
7PESE                                                                                000000000015000                            
50001710201211152012111669012428391234       PES0000017500L070092012111508319978                                                
6024600017500123236901242839123400025000000                                                                                     
7PESE                                                                                000000000017500                            
50001810201211152012111669012524421663       PES0000017500M620042012111509330018                                                
6024600017500123256901252442166300025000084                                                                                     
7PESE                                                                                000000000017500                            
50001910201211152012111669011239810785       PES0000017500M620042012111518510140                                                
6024600017500123276901123981078500025000063                                                                                     
7PESE                                                                                000000000017500                            
50002010201211152012111669011337149140       PES0000017500L070562012111516126248                                                
6024600017500123276901133714914000025000036                                                                                     
7PESE                                                                                000000000017500                            
50002110201211152012111669012525442368       PES0000017500L070532012111519552908                                                
6024600017500123276901252544236800025000099                                                                                     
7PESE                                                                                000000000017500                            
50002210201211152012111672000124929275       PES0000020000L070682012111519483474                                                
6024600020000123267200012492927500000000057                                                                                     
7PESE                                                                                000000000020000                            
50002310201211152012111672000126387302       PES0000020000L070662012111519559991                                                
6024600020000123277200012638730200000000042                                                                                     
7PESE                                                                                000000000020000                            
50002410201211152012111600770523447127       PES0000021000A085332012111519450134                                                
6024600021000123200077052344712700045000742                                                                                     
7PESE                                                                                000000000021000                            
50002510201211152012111600771118486297       PES0000021000A085332012111519450133                                                
6024600021000123200077111848629700045000763                                                                                     
7PESE                                                                                000000000021000                            
50002610201211152012111600771527737931       PES0000021000A112852012111518090105                                                
6024600021000123200077152773793100045000784                                                                                     
7PESE                                                                                000000000021000                            
50002710201211152012111600772332252524       PES0000021000A095212012111518170034                                                
6024600021000123200077233225252400045000737                                                                                     
7PESE                                                                                000000000021000                            
50002810201211152012111600772525433673       PES0000021000A095212012111517560024                                                
6024600021000123200077252543367300045000358                                                                                     
7PESE                                                                                000000000021000                            
50002910201211152012111600772620948007       PES0000021000A045312012111514430201                                                
6024600021000123200077262094800700045000663                                                                                     
7PESE                                                                                000000000021000                            
50003010201211152012111600772718294515       PES0000021000D001642012111513260272                                                
6024600021000123200077271829451500045000684                                                                                     
7PESE                                                                                000000000021000                            
50003110201211152012111600772911293360       PES0000021000A091692012111515000085                                                
6024600021000123200077291129336000045000779                                                                                     
7PESE                                                                                000000000021000                            
50003210201211152012111600773442237928       PES0000021000A109552012111516130004                                                
6024600021000123200077344223792800045000542                                                                                     
7PESE                                                                                000000000021000                            
50003310201211152012111600773442237929       PES0000021000A109552012111516140005                                                
6024600021000123200077344223792900045000578                                                                                     
7PESE                                                                                000000000021000                            
50003410201211152012111600750636742730       PES0000024500A113092012111517040079                                                
6024600024500123200075063674273000000000016                                                                                     
7PESE                                                                                000000000024500                            
50003510201211152012111600750731988438       PES0000024500A036052012111516170226                                                
6024600024500123200075073198843800000000021                                                                                     
7PESE                                                                                000000000024500                            
50003610201211152012111600751817202364       PES0000024500A051082012111514160078                                                
6024600024500123200075181720236400000000042                                                                                     
7PESE                                                                                000000000024500                            
50003710201211152012111600752428483656       PES0000024500M600752012111516560122                                                
6024600024500123200075242848365600000000079                                                                                     
7PESE                                                                                000000000024500                            
50003810201211152012111600752525433673       PES0000024500A095212012111517570025                                                
6024600024500123200075252543367300000000090                                                                                     
7PESE                                                                                000000000024500                            
50003910201211152012111600752525690565       PES0000024500A057152012111514170248                                                
6024600024500123200075252569056500000000063                                                                                     
7PESE                                                                                000000000024500                            
50004010201211152012111600752620948007       PES0000024500A045312012111514420199                                                
6024600024500123200075262094800700000000090                                                                                     
7PESE                                                                                000000000024500                            
50004110201211152012111600752623173770       PES0000024500A116962012111518430071                                                
6024600024500123200075262317377000000000058                                                                                     
7PESE                                                                                000000000024500                            
50004210201211152012111600752814105969       PES0000024500A620572012111509480015                                                
6024600024500123200075281410596900000000015                                                                                     
7PESE                                                                                000000000024500                            
50004310201211152012111699030121558279       PES0000046500A098912012111520020092                                                
6024600046500123209903012155827900025000757                                                                                     
7PESE                                                                                000000000046500                            
50004410201211152012111699030129921135       PES0000046500A090522012111513120215                                                
6024600046500123209903012992113500025000615                                                                                     
7PESE                                                                                000000000046500                            
50004510201211152012111699030131344778       PES0000046500A095702012111518570311                                                
6024600046500123209903013134477800025000799                                                                                     
7PESE                                                                                000000000046500                            
50004610201211152012111699030132769266       PES0000046500A009562012111517300042                                                
6024600046500123209903013276926600025000736                                                                                     
7PESE                                                                                000000000046500                            
50004710201211152012111601331136405575       PES0000052000M601282012111510440022                                                
6024600052000123200133113640557500080000090                                                                                     
7PESE                                                                                000000000052000                            
50004810201211152012111601331233828381       PES0000052000A099432012111511290039                                                
6024600052000123210133123382838100080000078                                                                                     
7PESE                                                                                000000000052000                            
50004910201211152012111601331617799310       PES0000052000A086812012111509070089                                                
6024600052000123210133161779931000080000042                                                                                     
7PESE                                                                                000000000052000                            
50005010201211152012111601331714789697       PES0000052000A046802012111512000099                                                
6024600052000123210133171478969700080000042                                                                                     
7PESE                                                                                000000000052000                            
50005110201211152012111601331618495002       PES0000052000A101652012111514400005                                                
6024600052000123230133161849500200080000090                                                                                     
7PESE                                                                                000000000052000                            
50005210201211152012111601331328456940       PES0000052000A072162012111517170113                                                
6024600052000123250133132845694000080000090                                                                                     
7PESE                                                                                000000000052000                            
50005310201211152012111601331522185215       PES0000052000M601622012111512260113                                                
6024600052000123260133152218521500080000084                                                                                     
7PESE                                                                                000000000052000                            
50005410201211152012111601331620005401       PES0000052000A063662012111509010026                                                
6024600052000123260133162000540100080000079                                                                                     
7PESE                                                                                000000000052000                            
50005510201211152012111601331231439362       PES0000052000A114302012111518530113                                                
6024600052000123270133123143936200080000042                                                                                     
7PESE                                                                                000000000052000                            
82012111600000100000550000013840000000000000000000000000000000000000000000055                                                   
9201211160000010000055000001384000000000000000000000000000000000000000000000055                                                 
