120120516PAGO FACIL               090060246FABIAN NORBERTO D´ERAMO                                                              
320120516000001FABIAN NORBERTO D´ERAMO                                                                                          
50000110201205152012051602364013140445       PES0000020000A081582012051518160124                                                
6024600017000121310236401314044500030000790                                                                                     
7PESE                                                                                000000000020000                            
50000210201205152012051602363338407880       PES0000020000A017262012051512570042                                                
6024600020000121390236333840788000000000016                                                                                     
7PESE                                                                                000000000020000                            
50000310201205152012051602360911478442       PES0000030000A076812012051512250015                                                
6024600025000121310236091147844200050000799                                                                                     
7PESE                                                                                000000000030000                            
50000410201205152012051602362421086193       PES0000030000A091652012051511540154                                                
6024600025000121310236242108619300050000521                                                                                     
7PESE                                                                                000000000030000                            
50000510201205152012051602360716763410       PES0000030000A091652012051511540153                                                
6024600030000121390236071676341000000000016                                                                                     
7PESE                                                                                000000000030000                            
50000610201205152012051699030125909375       PES0000040500A084182012051510350100                                                
6024600040500121369903012590937500025000399                                                                                     
7PESE                                                                                000000000040500                            
50000710201205152012051699030229317503       PES0000046500A081582012051517480102                                                
6024600046500121369903022931750300025000700                                                                                     
7PESE                                                                                000000000046500                            
50000810201205152012051699030235755065       PES0000046500A024632012051515580051                                                
6024600046500121369903023575506500025000763                                                                                     
7PESE                                                                                000000000046500                            
50000910201205152012051699030237110422       PES0000046500M600282012051513370232                                                
6024600046500121369903023711042200025000121                                                                                     
7PESE                                                                                000000000046500                            
82012051600000100000090000003100000000000000000000000000000000000000000000009                                                   
9201205160000010000009000000310000000000000000000000000000000000000000000000009                                                 
