120110817PAGO FACIL               090060246FABIAN NORBERTO D´ERAMO                                                              
320110817000001FABIAN NORBERTO D´ERAMO                                                                                          
50000110201108162011081717020812123025       PES0000016000A640842011081610570063                                                
6024600016000112341702081212302500040000078                                                                                     
7PESE                                                                                000000000016000                            
50000210201108162011081717021414529334       PES0000016000A640842011081616110092                                                
6024600016000112351702141452933400040000016                                                                                     
7PESE                                                                                000000000016000                            
50000310201108162011081700540335359341       PES0000017500A092172011081615240260                                                
6024600017500112320054033535934100015000200                                                                                     
7PESE                                                                                000000000017500                            
50000410201108162011081700502522836625       PES0000019500A044382011081616110228                                                
6024600019500112290050252283662500050000084                                                                                     
7PESE                                                                                000000000019500                            
50000510201108162011081700502331375417       PES0000019500A067782011081617360071                                                
6024600019500112330050233137541700050000021                                                                                     
7PESE                                                                                000000000019500                            
50000610201108162011081700502524784166       PES0000019500A083262011081618060168                                                
6024600019500112330050252478416600050000042                                                                                     
7PESE                                                                                000000000019500                            
50000710201108162011081700503440073013       PES0000019500A065362011081612360037                                                
6024600019500112330050344007301300050000063                                                                                     
7PESE                                                                                000000000019500                            
50000810201108162011081700504042933228       PES0000019500A064992011081615330107                                                
6024600019500112340050404293322800050000079                                                                                     
7PESE                                                                                000000000019500                            
50000910201108162011081700502426060594       PES0000019500A063662011081617440004                                                
6024600019500112350050242606059400050000079                                                                                     
7PESE                                                                                000000000019500                            
50001010201108162011081700502428735532       PES0000019500A024432011081616520024                                                
6024600019500112350050242873553200050000036                                                                                     
7PESE                                                                                000000000019500                            
50001110201108162011081702300427508671       PES0000034500A091962011081613150178                                                
6024600034500112350230042750867100000000037                                                                                     
7PESE                                                                                000000000034500                            
50001210201108162011081702300910892393       PES0000034500A091872011081609560056                                                
6024600034500112350230091089239300000000016                                                                                     
7PESE                                                                                000000000034500                            
50001310201108162011081701280714233152       PES0000036500A108272011081616190010                                                
6024600036500112290128071423315200000000000                                                                                     
7PESE                                                                                000000000036500                            
50001410201108162011081701280325578594       PES0000036500M620132011081612150062                                                
6024600036500112300128032557859400000000021                                                                                     
7PESE                                                                                000000000036500                            
50001510201108162011081701282222966623       PES0000036500A077902011081610290067                                                
6024600036500112300128222296662300000000078                                                                                     
7PESE                                                                                000000000036500                            
50001610201108162011081701281327408696       PES0000036500A042062011081613460088                                                
6024600036500112310128132740869600000000079                                                                                     
7PESE                                                                                000000000036500                            
50001710201108162011081701280133828381       PES0000036500L070092011081611364290                                                
6024600036500112320128013382838100000000042                                                                                     
7PESE                                                                                000000000036500                            
50001810201108162011081701281520207416       PES0000036500A043992011081617220207                                                
6024600036500112320128152020741600000000084                                                                                     
7PESE                                                                                000000000036500                            
50001910201108162011081701280520671027       PES0000036500A108702011081617380030                                                
6024600036500112340128052067102700000000042                                                                                     
7PESE                                                                                000000000036500                            
50002010201108162011081701282220771950       PES0000036500A081222011081609130019                                                
6024600036500112340128222077195000000000084                                                                                     
7PESE                                                                                000000000036500                            
50002110201108162011081701280810892393       PES0000036500A091872011081609560057                                                
6024600036500112350128081089239300000000084                                                                                     
7PESE                                                                                000000000036500                            
82011081700000100000210000005835000000000000000000000000000000000000000000021                                                   
9201108170000010000021000000583500000000000000000000000000000000000000000000021                                                 
