120120517PAGO FACIL               090060246FABIAN NORBERTO D´ERAMO                                                              
320120517000001FABIAN NORBERTO D´ERAMO                                                                                          
50000110201205162012051702363339097297       PES0000020000A034222012051616530058                                                
6024600020000121390236333909729700000000042                                                                                     
7PESE                                                                                000000000020000                            
50000210201205162012051702363725181249       PES0000020000A091122012051615310253                                                
6024600020000121390236372518124900000000084                                                                                     
7PESE                                                                                000000000020000                            
50000310201205162012051702363821156215       PES0000020000A079702012051610520174                                                
6024600020000121390236382115621500000000084                                                                                     
7PESE                                                                                000000000020000                            
50000410201205162012051702362727500011       PES0000030000A017262012051611500083                                                
6024600030000121390236272750001100000000084                                                                                     
7PESE                                                                                000000000030000                            
82012051700000100000040000000900000000000000000000000000000000000000000000004                                                   
9201205170000010000004000000090000000000000000000000000000000000000000000000004                                                 
