120121017PAGO FACIL               090060246FABIAN NORBERTO D´ERAMO                                                              
320121017000001FABIAN NORBERTO D´ERAMO                                                                                          
50000110201210162012101769001723961700       PES0000003000A620792012101616240065                                                
6024600003000122926900172396170000000000057                                                                                     
7PESE                                                                                000000000003000                            
50000210201210162012101700713240670630       PES0000005525A059362012101618290142                                                
6024600005525122970071324067063000000250099                                                                                     
7PESE                                                                                000000000005525                            
50000310201210162012101769000520821109       PES0000006000A620792012101616240066                                                
6024600006000122926900052082110900000000021                                                                                     
7PESE                                                                                000000000006000                            
50000410201210162012101700714742462943       PES0000011500A119042012101612020001                                                
6024600011500122910071474246294300000000058                                                                                     
7PESE                                                                                000000000011500                            
50000510201210162012101700714746108861       PES0000011500A601542012101615320057                                                
6024600011500122910071474610886100000000084                                                                                     
7PESE                                                                                000000000011500                            
50000610201210162012101700714741667530       PES0000011500A028962012101618390209                                                
6024600011500122920071474166753000000000099                                                                                     
7PESE                                                                                000000000011500                            
50000710201210162012101765000823805749       PES0000011700A016702012101618400086                                                
6024600011700122916500082380574900013000058                                                                                     
7PESE                                                                                000000000011700                            
50000810201210162012101770000717485135       PES0000013000M660032012101609400076                                                
6024600013000122897000071748513500000000579                                                                                     
7PESE                                                                                000000000013000                            
50000910201210162012101770000813268708       PES0000013000M660032012101609390075                                                
6024600013000122897000081326870800000000542                                                                                     
7PESE                                                                                000000000013000                            
50001010201210162012101765000131163758       PES0000013000D000832012101613380158                                                
6024600013000122936500013116375800015000037                                                                                     
7PESE                                                                                000000000013000                            
50001110201210162012101765000222913077       PES0000013000D000792012101618000449                                                
6024600013000122946500022291307700000000300                                                                                     
7PESE                                                                                000000000013000                            
50001210201210162012101718400524364614       PES0000025000A071022012101609520013                                                
6024600025000122971840052436461400000000042                                                                                     
7PESE                                                                                000000000025000                            
50001310201210162012101700711720598627       PES0000032500A108532012101611110020                                                
6024600032500122900071172059862700000000058                                                                                     
7PESE                                                                                000000000032500                            
50001410201210162012101700712525848839       PES0000032500A064992012101615530123                                                
6024600032500122920071252584883900000000015                                                                                     
7PESE                                                                                000000000032500                            
50001510201210162012101700712717365889       PES0000032500A048422012101614520168                                                
6024600032500122920071271736588900000000063                                                                                     
7PESE                                                                                000000000032500                            
50001610201210162012101700714138938254       PES0000032500A082642012101610550045                                                
6024600032500122920071413893825400000000037                                                                                     
7PESE                                                                                000000000032500                            
50001710201210162012101700712716580401       PES0000032500A036192012101615070013                                                
6024600032500122960071271658040100000000000                                                                                     
7PESE                                                                                000000000032500                            
50001810201210162012101700714331877373       PES0000032500A109832012101611030126                                                
6024600032500122960071433187737300000000057                                                                                     
7PESE                                                                                000000000032500                            
50001910201210162012101700712235316840       PES0000032500A601492012101616460159                                                
6024600032500122970071223531684000000000063                                                                                     
7PESE                                                                                000000000032500                            
50002010201210162012101700714235142041       PES0000032500A008222012101614190038                                                
6024600032500122970071423514204100000000063                                                                                     
7PESE                                                                                000000000032500                            
50002110201210162012101700714327151275       PES0000032500A031182012101613210162                                                
6024600032500122970071432715127500000000078                                                                                     
7PESE                                                                                000000000032500                            
50002210201210162012101700714425440784       PES0000032500A091482012101616550377                                                
6024600032500122970071442544078400000000000                                                                                     
7PESE                                                                                000000000032500                            
50002310201210162012101700723327902127       PES0000037500A114352012101618550024                                                
6024600037500122900072332790212700000000078                                                                                     
7PESE                                                                                000000000037500                            
50002410201210162012101700724016929329       PES0000037500A076262012101611160218                                                
6024600037500122920072401692932900000000058                                                                                     
7PESE                                                                                000000000037500                            
50002510201210162012101700723826001048       PES0000037500M600202012101611010015                                                
6024600037500122930072382600104800000000021                                                                                     
7PESE                                                                                000000000037500                            
50002610201210162012101799030135755092       PES0000049000A093212012101617570229                                                
6024600046500122899903013575509200025000137                                                                                     
7PESE                                                                                000000000049000                            
50002710201210162012101700720521600874       PES0000047500A601482012101615140150                                                
6024600047500122910072052160087400000000084                                                                                     
7PESE                                                                                000000000047500                            
50002810201210162012101700720617256724       PES0000047500A024432012101616250068                                                
6024600047500122910072061725672400000000000                                                                                     
7PESE                                                                                000000000047500                            
50002910201210162012101700720712321767       PES0000047500A014502012101618280145                                                
6024600047500122920072071232176700000000042                                                                                     
7PESE                                                                                000000000047500                            
50003010201210162012101700720424574154       PES0000047500A640822012101617480165                                                
6024600047500122950072042457415400000000036                                                                                     
7PESE                                                                                000000000047500                            
50003110201210162012101700720232393316       PES0000047500L120212012101614232201                                                
6024600047500122960072023239331600000000037                                                                                     
7PESE                                                                                000000000047500                            
50003210201210162012101700720329343288       PES0000047500L120212012101614222200                                                
6024600047500122960072032934328800000000021                                                                                     
7PESE                                                                                000000000047500                            
50003310201210162012101700720618324344       PES0000047500A063632012101611370070                                                
6024600047500122960072061832434400000000099                                                                                     
7PESE                                                                                000000000047500                            
50003410201210162012101700721328831118       PES0000047500A014492012101611370133                                                
6024600047500122960072132883111800000000021                                                                                     
7PESE                                                                                000000000047500                            
50003510201210162012101700720133562457       PES0000047500M640072012101611390042                                                
6024600047500122970072013356245700000000057                                                                                     
7PESE                                                                                000000000047500                            
50003610201210162012101760001023434511       PES0000085000L070512012101620490163                                                
6024600085000122976000102343451100000000057                                                                                     
7PESE                                                                                000000000085000                            
50003710201210162012101760001340110678       PES0000085000L070512012101620490164                                                
6024600085000122976000134011067800000000037                                                                                     
7PESE                                                                                000000000085000                            
82012101700000100000370000012217250000000000000000000000000000000000000000037                                                   
9201210170000010000037000001221725000000000000000000000000000000000000000000037                                                 
