120120917PAGO FACIL               090060246FABIAN NORBERTO D´ERAMO                                                              
320120917000001FABIAN NORBERTO D´ERAMO                                                                                          
50000110201209142012091700713906389377       PES0000029000A008222012091314170048                                                
6024600029000122620071390638937700035000090                                                                                     
7PESE                                                                                000000000029000                            
50000210201209142012091700714514533134       PES0000029000A040462012091311060194                                                
6024600029000122580071451453313400035000063                                                                                     
7PESE                                                                                000000000029000                            
50000310201209142012091799030135755065       PES0000046500A024632012091408360010                                                
6024600046500122599903013575506500025000463                                                                                     
7PESE                                                                                000000000046500                            
50000410201209142012091701320812729428       PES0000045000A105932012091409230007                                                
6024600045000122600132081272942800050000436                                                                                     
7PESE                                                                                000000000045000                            
50000510201209142012091701320520332422       PES0000045000A620572012091411130037                                                
6024600045000122600132052033242200050000500                                                                                     
7PESE                                                                                000000000045000                            
50000610201209142012091701320521716144       PES0000045000A620572012091411140038                                                
6024600045000122600132052171614400050000542                                                                                     
7PESE                                                                                000000000045000                            
50000710201209142012091701320424289312       PES0000045000A620572012091411140039                                                
6024600045000122600132042428931200050000558                                                                                     
7PESE                                                                                000000000045000                            
50000810201209142012091701320910450072       PES0000045000A620302012091410210046                                                
6024600045000122600132091045007200050000421                                                                                     
7PESE                                                                                000000000045000                            
50000910201209142012091717030334524972       PES0000030000A039172012091408060011                                                
6024600030000122591703033452497200000000063                                                                                     
7PESE                                                                                000000000030000                            
50001010201209142012091701320716204009       PES0000045000A076812012091412240124                                                
6024600045000122600132071620400900050000400                                                                                     
7PESE                                                                                000000000045000                            
50001110201209142012091701320616807661       PES0000045000A601882012091409160028                                                
6024600045000122600132061680766100050000263                                                                                     
7PESE                                                                                000000000045000                            
50001210201209142012091700712814369680       PES0000029000A099222012091414140270                                                
6024600029000122580071281436968000035000063                                                                                     
7PESE                                                                                000000000029000                            
50001310201209142012091798010431173527       PES0000019500D001392012091409580047                                                
6024600019500122649801043117352700000000021                                                                                     
7PESE                                                                                000000000019500                            
50001410201209142012091700720714151815       PES0000046500A095762012091410180157                                                
6024600046500122620072071415181500010000079                                                                                     
7PESE                                                                                000000000046500                            
50001510201209142012091701320617571139       PES0000045000A620442012091410130005                                                
6024600045000122600132061757113900050000563                                                                                     
7PESE                                                                                000000000045000                            
50001610201209142012091700714746817096       PES0000009000A109552012091415460017                                                
6024600009000122650071474681709600025000042                                                                                     
7PESE                                                                                000000000009000                            
50001710201209142012091701320522278111       PES0000045000D000192012091413370126                                                
6024600045000122600132052227811100050000342                                                                                     
7PESE                                                                                000000000045000                            
50001810201209142012091799030135755092       PES0000046500A114352012091413470210                                                
6024600043000122519903013575509200035000790                                                                                     
7PESE                                                                                000000000046500                            
50001910201209142012091744020427729789       PES0000007500D000592012091415040366                                                
6024600007500122614402042772978900010000000                                                                                     
7PESE                                                                                000000000007500                            
50002010201209142012091700714420761584       PES0000029000A100662012091417400030                                                
6024600029000122650071442076158400035000084                                                                                     
7PESE                                                                                000000000029000                            
50002110201209142012091700713636832435       PES0000029000A091472012091415300529                                                
6024600029000122650071363683243500035000000                                                                                     
7PESE                                                                                000000000029000                            
50002210201209142012091717030721412008       PES0000030000A082792012091417140120                                                
6024600030000122651703072141200800000000079                                                                                     
7PESE                                                                                000000000030000                            
50002310201209142012091701320520381341       PES0000045000A046592012091417190068                                                
6024600045000122600132052038134100050000084                                                                                     
7PESE                                                                                000000000045000                            
50002410201209142012091799030136044247       PES0000046500A010562012091415340041                                                
6024600046500122599903013604424700025000621                                                                                     
7PESE                                                                                000000000046500                            
50002510201209142012091701322217225972       PES0000045000A056902012091415330165                                                
6024600045000122600132221722597200050000500                                                                                     
7PESE                                                                                000000000045000                            
50002610201209142012091701322313581859       PES0000045000A056902012091415330166                                                
6024600045000122600132231358185900050000500                                                                                     
7PESE                                                                                000000000045000                            
50002710201209142012091701322314845925       PES0000045000A056902012091415330167                                                
6024600045000122600132231484592500050000537                                                                                     
7PESE                                                                                000000000045000                            
50002810201209142012091700713728829936       PES0000029000A105142012091417230099                                                
6024600029000122580071372882993600035000057                                                                                     
7PESE                                                                                000000000029000                            
50002910201209142012091799030137206177       PES0000046500A057612012091417070162                                                
6024600046500122599903013720617700025000678                                                                                     
7PESE                                                                                000000000046500                            
50003010201209142012091701320425856384       PES0000045000A002542012091410570035                                                
6024600045000122600132042585638400050000263                                                                                     
7PESE                                                                                000000000045000                            
50003110201209142012091701320618048202       PES0000045000A044652012091416400022                                                
6024600045000122600132061804820200050000521                                                                                     
7PESE                                                                                000000000045000                            
50003210201209142012091701320423356433       PES0000045000A083822012091417490212                                                
6024600045000122580132042335643300050000090                                                                                     
7PESE                                                                                000000000045000                            
50003310201209142012091760000931938437       PES0000080000A114302012091417400004                                                
6024600080000122596000093193843700050000000                                                                                     
7PESE                                                                                000000000080000                            
50003410201209142012091701320232478884       PES0000045000A118912012091417170069                                                
6024600045000122600132023247888400050000500                                                                                     
7PESE                                                                                000000000045000                            
50003510201209142012091700714236839198       PES0000029000A043122012091417260324                                                
6024600029000122640071423683919800035000042                                                                                     
7PESE                                                                                000000000029000                            
50003610201209142012091701320616752601       PES0000045000A110152012091413370108                                                
6024600045000122600132061675260100050000200                                                                                     
7PESE                                                                                000000000045000                            
50003710201209142012091765000225056322       PES0000013000A108712012091418330243                                                
6024600013000122646500022505632200015000037                                                                                     
7PESE                                                                                000000000013000                            
50003810201209142012091799030136352229       PES0000046500A068642012091420110162                                                
6024600046500122599903013635222900025000200                                                                                     
7PESE                                                                                000000000046500                            
50003910201209142012091700540436352229       PES0000026000A068642012091420110163                                                
6024600026000122610054043635222900010000000                                                                                     
7PESE                                                                                000000000026000                            
50004010201209142012091701320714371454       PES0000045000A076112012091420220063                                                
6024600045000122600132071437145400050000563                                                                                     
7PESE                                                                                000000000045000                            
50004110201209142012091701320617196516       PES0000045000A056962012091417050017                                                
6024600045000122580132061719651600050000057                                                                                     
7PESE                                                                                000000000045000                            
50004210201209142012091700714333282767       PES0000029000A023152012091415320026                                                
6024600029000122650071433328276700035000078                                                                                     
7PESE                                                                                000000000029000                            
50004310201209142012091701320617459444       PES0000045000A103902012091417160181                                                
6024600045000122600132061745944400050000163                                                                                     
7PESE                                                                                000000000045000                            
50004410201209142012091701320231156078       PES0000045000M620022012091411510030                                                
6024600045000122600132023115607800050000484                                                                                     
7PESE                                                                                000000000045000                            
50004510201209152012091700711433074988       PES0000029000D000832012091510540154                                                
6024600029000122590071143307498800035000058                                                                                     
7PESE                                                                                000000000029000                            
50004610201209152012091701320714588292       PES0000045000A087612012091511240130                                                
6024600045000122600132071458829200050000584                                                                                     
7PESE                                                                                000000000045000                            
50004710201209152012091700722339245496       PES0000035000A046332012091509060018                                                
6024600035000122590072233924549600025000021                                                                                     
7PESE                                                                                000000000035000                            
50004810201209152012091701320522599074       PES0000045000A068722012091518090001                                                
6024600045000122600132052259907400050000563                                                                                     
7PESE                                                                                000000000045000                            
50004910201209152012091700712918364353       PES0000029000A103162012091511210111                                                
6024600029000122660071291836435300035000036                                                                                     
7PESE                                                                                000000000029000                            
50005010201209152012091701320423804236       PES0000045000A099402012091514100001                                                
6024600045000122600132042380423600050000515                                                                                     
7PESE                                                                                000000000045000                            
50005110201209152012091765000313656298       PES0000013000A014522012091519300200                                                
6024600013000122626500031365629800015000042                                                                                     
7PESE                                                                                000000000013000                            
50005210201209152012091701320618546403       PES0000045000D000402012091519240195                                                
6024600045000122600132061854640300050000379                                                                                     
7PESE                                                                                000000000045000                            
50005310201209152012091717030431200179       PES0000030000L071242012091511061205                                                
6024600030000122661703043120017900000000036                                                                                     
7PESE                                                                                000000000030000                            
50005410201209162012091798010228060869       PES0000029500A037752012091517080106                                                
6024600029500122599801022806086900000000116                                                                                     
7PESE                                                                                000000000029500                            
50005510201209162012091701320229940153       PES0000045000L070502012091611222866                                                
6024600045000122600132022994015300050000516                                                                                     
7PESE                                                                                000000000045000                            
50005610201209162012091701320327431482       PES0000045000L070522012091611387916                                                
6024600045000122600132032743148200050000400                                                                                     
7PESE                                                                                000000000045000                            
50005710201209162012091701320423923684       PES0000045000A080382012091618340030                                                
6024600045000122600132042392368400050000542                                                                                     
7PESE                                                                                000000000045000                            
50005810201209162012091701320617362374       PES0000045000A088622012091620160197                                                
6024600045000122600132061736237400050000436                                                                                     
7PESE                                                                                000000000045000                            
50005910201209162012091701320618262756       PES0000045000A088622012091620160198                                                
6024600045000122600132061826275600050000463                                                                                     
7PESE                                                                                000000000045000                            
82012091700000100000590000022865000000000000000000000000000000000000000000059                                                   
9201209170000010000059000002286500000000000000000000000000000000000000000000059                                                 
