120120118PAGO FACIL               090060246FABIAN NORBERTO D´ERAMO                                                              
320120118000001FABIAN NORBERTO D´ERAMO                                                                                          
50000110201201172012011829070317196516       PES0000010000A068722012011710510072                                                
6024600010000120202907031719651600000000058                                                                                     
7PESE                                                                                000000000010000                            
50000210201201172012011829070317580183       PES0000010000A022082012011719060204                                                
6024600010000120232907031758018300000000063                                                                                     
7PESE                                                                                000000000010000                            
50000310201201172012011829070321442955       PES0000010000A049072012011717210137                                                
6024600010000120232907032144295500000000057                                                                                     
7PESE                                                                                000000000010000                            
50000410201201172012011829070321616148       PES0000010000A017262012011716580005                                                
6024600010000120232907032161614800000000042                                                                                     
7PESE                                                                                000000000010000                            
50000510201201172012011829070226796022       PES0000010000M620132012011718110107                                                
6024600010000120242907022679602200000000084                                                                                     
7PESE                                                                                000000000010000                            
50000610201201172012011802323612713588       PES0000020000A048282012011711040277                                                
6024600020000120190232361271358800000000078                                                                                     
7PESE                                                                                000000000020000                            
50000710201201172012011802322539245496       PES0000020000A063972012011716110042                                                
6024600020000120200232253924549600000000037                                                                                     
7PESE                                                                                000000000020000                            
50000810201201172012011802323606272265       PES0000020000A063922012011712420027                                                
6024600020000120200232360627226500000000042                                                                                     
7PESE                                                                                000000000020000                            
50000910201201172012011800600520012496       PES0000025000A620992012011712010108                                                
6024600025000120180060052001249600040000078                                                                                     
7PESE                                                                                000000000025000                            
50001010201201172012011899040135078397       PES0000027000M600632012011711320028                                                
6024600027000120239904013507839700000000000                                                                                     
7PESE                                                                                000000000027000                            
50001110201201172012011802320620955061       PES0000028000A014642012011718160076                                                
6024600028000120180232062095506100000000058                                                                                     
7PESE                                                                                000000000028000                            
50001210201201172012011802320622598249       PES0000028000A002542012011712460025                                                
6024600028000120190232062259824900000000090                                                                                     
7PESE                                                                                000000000028000                            
50001310201201172012011802321621901661       PES0000028000A106782012011714160150                                                
6024600028000120190232162190166100000000063                                                                                     
7PESE                                                                                000000000028000                            
50001410201201172012011802320234555385       PES0000028000A085562012011713020020                                                
6024600028000120200232023455538500000000057                                                                                     
7PESE                                                                                000000000028000                            
50001510201201172012011802320331049304       PES0000028000A049072012011709520044                                                
6024600028000120200232033104930400000000037                                                                                     
7PESE                                                                                000000000028000                            
50001610201201172012011802320427847362       PES0000028000A049072012011709520045                                                
6024600028000120200232042784736200000000084                                                                                     
7PESE                                                                                000000000028000                            
50001710201201172012011802320524283472       PES0000028000D000562012011717530037                                                
6024600028000120200232052428347200000000000                                                                                     
7PESE                                                                                000000000028000                            
50001810201201172012011802320813724109       PES0000028000A017122012011711390184                                                
6024600028000120200232081372410900000000090                                                                                     
7PESE                                                                                000000000028000                            
50001910201201172012011802320911683548       PES0000028000A092542012011710030132                                                
6024600028000120200232091168354800000000042                                                                                     
7PESE                                                                                000000000028000                            
50002010201201172012011802320911893460       PES0000028000A092252012011710230074                                                
6024600028000120200232091189346000000000084                                                                                     
7PESE                                                                                000000000028000                            
50002110201201172012011802321426693719       PES0000028000A092332012011716560006                                                
6024600028000120200232142669371900000000099                                                                                     
7PESE                                                                                000000000028000                            
50002210201201172012011899030235078397       PES0000043000M600632012011711320027                                                
6024600043000120239903023507839700000000078                                                                                     
7PESE                                                                                000000000043000                            
50002310201201172012011899030235174854       PES0000043000D000482012011713190151                                                
6024600043000120249903023517485400000000084                                                                                     
7PESE                                                                                000000000043000                            
50002410201201172012011823060938603391       PES0000121600A062272012011717460011                                                
6024600121600120232306093860339100000000000                                                                                     
7PESE                                                                                000000000121600                            
50002510201201172012011823061922915997       PES0000136600A105932012011712100076                                                
6024600136600120232306192291599700000000037                                                                                     
7PESE                                                                                000000000136600                            
82012011800000100000250000008142000000000000000000000000000000000000000000025                                                   
9201201180000010000025000000814200000000000000000000000000000000000000000000025                                                 
