120110518PAGO FACIL               090060246FABIAN NORBERTO D´ERAMO                                                              
320110518000001FABIAN NORBERTO D´ERAMO                                                                                          
50000110201105172011051801272214959110       PES0000011000A020992011051714490104                                                
6024600011000111380127221495911000000000015                                                                                     
7PESE                                                                                000000000011000                            
50000210201105172011051801270517215877       PES0000020000A069312011051711000048                                                
6024600020000111370127051721587700000000078                                                                                     
7PESE                                                                                000000000020000                            
50000310201105172011051801271421451013       PES0000020000A069312011051711000047                                                
6024600020000111370127142145101300000000063                                                                                     
7PESE                                                                                000000000020000                            
50000410201105172011051801270131850671       PES0000020000M600842011051715230075                                                
6024600020000111420127013185067100000000058                                                                                     
7PESE                                                                                000000000020000                            
50000510201105172011051801270134198665       PES0000020000A066092011051719070086                                                
6024600020000111420127013419866500000000057                                                                                     
7PESE                                                                                000000000020000                            
50000610201105172011051801270516785908       PES0000020000A035412011051716170203                                                
6024600020000111420127051678590800000000057                                                                                     
7PESE                                                                                000000000020000                            
50000710201105172011051801270711836801       PES0000020000A033032011051713310170                                                
6024600020000111420127071183680100000000084                                                                                     
7PESE                                                                                000000000020000                            
50000810201105172011051801271227693546       PES0000020000A074942011051714450158                                                
6024600020000111420127122769354600000000042                                                                                     
7PESE                                                                                000000000020000                            
50000910201105172011051801271323211290       PES0000020000A066092011051719070085                                                
6024600020000111420127132321129000000000042                                                                                     
7PESE                                                                                000000000020000                            
50001010201105172011051801271420828307       PES0000020000A029482011051718480025                                                
6024600020000111420127142082830700000000084                                                                                     
7PESE                                                                                000000000020000                            
50001110201105172011051801271516038635       PES0000020000A018912011051713550007                                                
6024600020000111420127151603863500000000079                                                                                     
7PESE                                                                                000000000020000                            
50001210201105172011051801271516574283       PES0000020000A035412011051716170202                                                
6024600020000111420127151657428300000000058                                                                                     
7PESE                                                                                000000000020000                            
50001310201105172011051801271516712852       PES0000020000A074942011051711260064                                                
6024600020000111420127151671285200000000063                                                                                     
7PESE                                                                                000000000020000                            
50001410201105172011051899030136688645       PES0000033000A083922011051718340182                                                
6024600033000111449903013668864500000000000                                                                                     
7PESE                                                                                000000000033000                            
82011051800000100000140000002840000000000000000000000000000000000000000000014                                                   
9201105180000010000014000000284000000000000000000000000000000000000000000000014                                                 
