120111018PAGO FACIL               090060246FABIAN NORBERTO D´ERAMO                                                              
320111018000001FABIAN NORBERTO D´ERAMO                                                                                          
50000110201110172011101820040127061669       PES0000006000M602162011101712110055                                                
6024600006000112922004012706166900000000016                                                                                     
7PESE                                                                                000000000006000                            
50000210201110172011101820040222205617       PES0000006000A600982011101710500018                                                
6024600006000112922004022220561700000000015                                                                                     
7PESE                                                                                000000000006000                            
50000310201110172011101820040218211795       PES0000006000A072902011101716400350                                                
6024600006000112932004021821179500000000099                                                                                     
7PESE                                                                                000000000006000                            
50000410201110172011101820040222994774       PES0000006000M602162011101712100054                                                
6024600006000112932004022299477400000000015                                                                                     
7PESE                                                                                000000000006000                            
50000510201110172011101820040126650681       PES0000006000M602162011101712100053                                                
6024600006000112942004012665068100000000021                                                                                     
7PESE                                                                                000000000006000                            
50000610201110172011101820040216437183       PES0000006000M602162011101714510100                                                
6024600006000112962004021643718300000000099                                                                                     
7PESE                                                                                000000000006000                            
50000710201110172011101800574743920369       PES0000007000A092002011101712390339                                                
6024600007000112970057474392036900015000036                                                                                     
7PESE                                                                                000000000007000                            
50000810201110172011101818330222722649       PES0000015000A095802011101709590010                                                
6024600015000112931833022272264900000000000                                                                                     
7PESE                                                                                000000000015000                            
50000910201110172011101800501238252097       PES0000027500A046692011101712000111                                                
6024600027500112900050123825209700000000063                                                                                     
7PESE                                                                                000000000027500                            
50001010201110172011101800502620054275       PES0000027500A085592011101709280015                                                
6024600027500112910050262005427500000000084                                                                                     
7PESE                                                                                000000000027500                            
50001110201110172011101800503008595038       PES0000027500A109552011101710280133                                                
6024600027500112910050300859503800000000078                                                                                     
7PESE                                                                                000000000027500                            
50001210201110172011101800503823753505       PES0000027500A601492011101713420149                                                
6024600027500112910050382375350500000000084                                                                                     
7PESE                                                                                000000000027500                            
50001310201110172011101801290524041085       PES0000037000A017262011101716510251                                                
6024600037000112920129052404108500000000036                                                                                     
7PESE                                                                                000000000037000                            
50001410201110172011101800530521788503       PES0000039500A039562011101717400130                                                
6024600039500112910053052178850300000000036                                                                                     
7PESE                                                                                000000000039500                            
50001510201110172011101800530520991636       PES0000039500A043122011101711260100                                                
6024600039500112920053052099163600000000000                                                                                     
7PESE                                                                                000000000039500                            
50001610201110172011101800530134583532       PES0000039500A043132011101718460178                                                
6024600039500112940053013458353200000000057                                                                                     
7PESE                                                                                000000000039500                            
50001710201110172011101800530424823099       PES0000039500A091662011101717520376                                                
6024600039500112970053042482309900000000063                                                                                     
7PESE                                                                                000000000039500                            
82011101800000100000170000003630000000000000000000000000000000000000000000017                                                   
9201110180000010000017000000363000000000000000000000000000000000000000000000017                                                 
