120120619PAGO FACIL               090060246FABIAN NORBERTO D´ERAMO                                                              
320120619000001FABIAN NORBERTO D´ERAMO                                                                                          
50000110201206182012061999030134332391       PES0000041675A091472012061810580101                                                
6024600039525121679903013433239100021500416                                                                                     
7PESE                                                                                000000000041675                            
50000210201206182012061999030225909375       PES0000043000A084182012061812230203                                                
6024600043000121779903022590937500000000036                                                                                     
7PESE                                                                                000000000043000                            
50000310201206182012061999030136044247       PES0000049000A010562012061817080128                                                
6024600049000121779903013604424700000000000                                                                                     
7PESE                                                                                000000000049000                            
82012061900000100000030000001336750000000000000000000000000000000000000000003                                                   
9201206190000010000003000000133675000000000000000000000000000000000000000000003                                                 
