120121219PAGO FACIL               090060246FABIAN NORBERTO D´ERAMO                                                              
320121219000001FABIAN NORBERTO D´ERAMO                                                                                          
50000110201212182012121929081410538652       PES0000025000A051302012121711420016                                                
6024600025000123572908141053865200000000063                                                                                     
7PESE                                                                                000000000025000                            
50000210201212182012121929080817982217       PES0000018000A051302012121711560031                                                
6024600018000123562908081798221700000000084                                                                                     
7PESE                                                                                000000000018000                            
50000310201212182012121902420525630302       PES0000040000A106082012121714470180                                                
6024600040000123540242052563030200075000084                                                                                     
7PESE                                                                                000000000040000                            
50000410201212182012121902420423553267       PES0000040000A106082012121714470181                                                
6024600040000123550242042355326700075000021                                                                                     
7PESE                                                                                000000000040000                            
50000510201212182012121973000349864830       PES0000009500A072282012121816540163                                                
6024600009500123557300034986483000000000084                                                                                     
7PESE                                                                                000000000009500                            
50000610201212182012121973000125141197       PES0000015000A114992012121812550096                                                
6024600015000123607300012514119700040000063                                                                                     
7PESE                                                                                000000000015000                            
50000710201212182012121973000127360428       PES0000015000A098352012121820490062                                                
6024600015000123607300012736042800040000058                                                                                     
7PESE                                                                                000000000015000                            
50000810201212182012121929080223553071       PES0000018000A078732012121817300182                                                
6024600018000123552908022355307100000000099                                                                                     
7PESE                                                                                000000000018000                            
50000910201212182012121929081136951918       PES0000025000A095732012121811140023                                                
6024600025000123592908113695191800000000015                                                                                     
7PESE                                                                                000000000025000                            
50001010201212182012121902420811345086       PES0000040000A063842012121813540349                                                
6024600040000123530242081134508600075000042                                                                                     
7PESE                                                                                000000000040000                            
50001110201212182012121902420521433416       PES0000040000A070632012121812400313                                                
6024600040000123540242052143341600075000042                                                                                     
7PESE                                                                                000000000040000                            
50001210201212182012121902420329033388       PES0000040000A100912012121812130056                                                
6024600040000123550242032903338800075000484                                                                                     
7PESE                                                                                000000000040000                            
50001310201212182012121902420617534022       PES0000040000A047422012121810360063                                                
6024600040000123550242061753402200075000478                                                                                     
7PESE                                                                                000000000040000                            
50001410201212182012121999030136996669       PES0000049000A066812012121814310131                                                
6024600049000123599903013699666900000000063                                                                                     
7PESE                                                                                000000000049000                            
50001510201212182012121999030132639591       PES0000049000A053122012121812080053                                                
6024600049000123609903013263959100000000021                                                                                     
7PESE                                                                                000000000049000                            
82012121900000100000150000004635000000000000000000000000000000000000000000015                                                   
9201212190000010000015000000463500000000000000000000000000000000000000000000015                                                 
