120121119PAGO FACIL               090060246FABIAN NORBERTO D´ERAMO                                                              
320121119000001FABIAN NORBERTO D´ERAMO                                                                                          
50000110201211182012111900752621142717       PES0000024500D000482012111518070524                                                
6024600024500123200075262114271700000000042                                                                                     
7PESE                                                                                000000000024500                            
50000210201211162012111998010125215330       PES0000015000A052842012111612110199                                                
6024600015000123209801012521533000000000779                                                                                     
7PESE                                                                                000000000015000                            
50000310201211162012111969012911825720       PES0000017500A621102012111610130021                                                
6024600017500123286901291182572000025000058                                                                                     
7PESE                                                                                000000000017500                            
50000410201211162012111901331326807318       PES0000052000A099212012111611180115                                                
6024600052000123240133132680731800080000016                                                                                     
7PESE                                                                                000000000052000                            
50000510201211162012111999030131925405       PES0000049000A056252012111612120183                                                
6024600046500123209903013192540500025000142                                                                                     
7PESE                                                                                000000000049000                            
50000610201211162012111901331328362939       PES0000052000A017122012111615450130                                                
6024600052000123210133132836293900080000090                                                                                     
7PESE                                                                                000000000052000                            
50000710201211162012111999030133380040       PES0000049000A036692012111613170224                                                
6024600049000123289903013338004000000000036                                                                                     
7PESE                                                                                000000000049000                            
50000810201211162012111918410331899794       PES0000020000A074252012111612150155                                                
6024600020000123211841033189979400050000515                                                                                     
7PESE                                                                                000000000020000                            
50000910201211162012111901331423626239       PES0000052000D000782012111617350463                                                
6024600052000123250133142362623900080000042                                                                                     
7PESE                                                                                000000000052000                            
50001010201211162012111929080226894246       PES0000015000D001622012111613150105                                                
6024600015000123212908022689424600030000036                                                                                     
7PESE                                                                                000000000015000                            
50001110201211162012111901331716204549       PES0000052000A092172012111615400260                                                
6024600052000123220133171620454900080000058                                                                                     
7PESE                                                                                000000000052000                            
50001210201211162012111901331426009818       PES0000052000A087642012111613550106                                                
6024600052000123270133142600981800080000057                                                                                     
7PESE                                                                                000000000052000                            
50001310201211162012111901330522489395       PES0000052000A016922012111611120069                                                
6024600052000123250133052248939500080000078                                                                                     
7PESE                                                                                000000000052000                            
50001410201211162012111900773018773409       PES0000025500A075132012111618210033                                                
6024600021000123200077301877340900045000784                                                                                     
7PESE                                                                                000000000025500                            
50001510201211162012111901331426427456       PES0000052000A063322012111618470050                                                
6024600052000123210133142642745600080000057                                                                                     
7PESE                                                                                000000000052000                            
50001610201211162012111999030137206177       PES0000049000A057612012111616260097                                                
6024600049000123289903013720617700000000078                                                                                     
7PESE                                                                                000000000049000                            
50001710201211162012111918410524001544       PES0000020000A041342012111612580072                                                
6024600020000123211841052400154400050000742                                                                                     
7PESE                                                                                000000000020000                            
50001810201211162012111901331233043749       PES0000052000A064332012111617490043                                                
6024600052000123240133123304374900080000084                                                                                     
7PESE                                                                                000000000052000                            
50001910201211162012111969011625294658       PES0000017500A058122012111618530035                                                
6024600017500123286901162529465800025000036                                                                                     
7PESE                                                                                000000000017500                            
50002010201211162012111959011127056265       PES0000011000A108472012111612470036                                                
6024600011000123255901112705626500000000079                                                                                     
7PESE                                                                                000000000011000                            
50002110201211162012111959010324740264       PES0000011000A108472012111612470037                                                
6024600011000123255901032474026400000000021                                                                                     
7PESE                                                                                000000000011000                            
50002210201211162012111901330329652762       PES0000052000A116572012111617040132                                                
6024600052000123280133032965276200080000042                                                                                     
7PESE                                                                                000000000052000                            
50002310201211162012111918412623839339       PES0000020000A070622012111615040017                                                
6024600020000123211841262383933900050000615                                                                                     
7PESE                                                                                000000000020000                            
50002410201211162012111901331424066854       PES0000052000A107842012111618160072                                                
6024600052000123270133142406685400080000063                                                                                     
7PESE                                                                                000000000052000                            
50002510201211162012111972000124744739       PES0000020000L070622012111613527288                                                
6024600020000123287200012474473900000000057                                                                                     
7PESE                                                                                000000000020000                            
50002610201211162012111901331424405502       PES0000052000M600852012111615480244                                                
6024600052000123270133142440550200080000084                                                                                     
7PESE                                                                                000000000052000                            
50002710201211162012111972000227972600       PES0000016000M810012012111616030157                                                
6024600016000123267200022797260000000000079                                                                                     
7PESE                                                                                000000000016000                            
50002810201211172012111901331328559504       PES0000052000A102862012111618250202                                                
6024600052000123220133132855950400080000042                                                                                     
7PESE                                                                                000000000052000                            
50002910201211172012111901331233108530       PES0000052000A034222012111617590105                                                
6024600052000123280133123310853000080000021                                                                                     
7PESE                                                                                000000000052000                            
50003010201211172012111901331423327634       PES0000052000A069132012111712000058                                                
6024600052000123270133142332763400080000084                                                                                     
7PESE                                                                                000000000052000                            
50003110201211172012111900774041666485       PES0000025500A075392012111709520015                                                
6024600025500123280077404166648500030000042                                                                                     
7PESE                                                                                000000000025500                            
50003210201211172012111998010135020799       PES0000015000A028672012111711300100                                                
6024600015000123289801013502079900000000042                                                                                     
7PESE                                                                                000000000015000                            
50003310201211172012111900772234181186       PES0000025500A043552012111711240095                                                
6024600025500123290077223418118600030000000                                                                                     
7PESE                                                                                000000000025500                            
50003410201211172012111901331521723759       PES0000052000D000502012111719350155                                                
6024600052000123220133152172375900080000015                                                                                     
7PESE                                                                                000000000052000                            
50003510201211182012111901331136329324       PES0000052000A060582012111815180166                                                
6024600052000123230133113632932400080000016                                                                                     
7PESE                                                                                000000000052000                            
50003610201211182012111901331520215772       PES0000052000A050712012111819170243                                                
6024600052000123230133152021577200080000037                                                                                     
7PESE                                                                                000000000052000                            
82012111900000100000360000013300000000000000000000000000000000000000000000036                                                   
9201211190000010000036000001330000000000000000000000000000000000000000000000036                                                 
