120120319PAGO FACIL               090060246FABIAN NORBERTO D´ERAMO                                                              
320120319000001FABIAN NORBERTO D´ERAMO                                                                                          
50000110201203162012031902330621670745       PES0000028000A018652012031611470087                                                
6024600028000120760233062167074500000000084                                                                                     
7PESE                                                                                000000000028000                            
50000210201203162012031999050135229351       PES0000008000A081582012031612350110                                                
6024600008000120809905013522935100000000021                                                                                     
7PESE                                                                                000000000008000                            
50000310201203162012031999050135139010       PES0000008000A081582012031612370111                                                
6024600008000120829905013513901000000000000                                                                                     
7PESE                                                                                000000000008000                            
50000410201203162012031902330621826668       PES0000028000A104522012031612410017                                                
6024600028000120760233062182666800000000058                                                                                     
7PESE                                                                                000000000028000                            
50000510201203162012031902330620717756       PES0000028000A016172012031612120129                                                
6024600028000120760233062071775600000000084                                                                                     
7PESE                                                                                000000000028000                            
50000610201203162012031902332921545809       PES0000020000A100912012031612090117                                                
6024600020000120760233292154580900000000090                                                                                     
7PESE                                                                                000000000020000                            
50000710201203162012031902330622503368       PES0000028000A086812012031610480040                                                
6024600028000120760233062250336800000000063                                                                                     
7PESE                                                                                000000000028000                            
50000810201203162012031902330621086409       PES0000028000A049092012031613190217                                                
6024600028000120760233062108640900000000036                                                                                     
7PESE                                                                                000000000028000                            
50000910201203162012031902332918024491       PES0000020000A092142012031613550270                                                
6024600020000120760233291802449100000000078                                                                                     
7PESE                                                                                000000000020000                            
50001010201203162012031902333424448461       PES0000020000A092142012031613550271                                                
6024600020000120760233342444846100000000021                                                                                     
7PESE                                                                                000000000020000                            
50001110201203162012031902330620226257       PES0000028000A092112012031611320145                                                
6024600028000120760233062022625700000000000                                                                                     
7PESE                                                                                000000000028000                            
50001210201203162012031902330621832573       PES0000028000A103612012031616560251                                                
6024600028000120760233062183257300000000084                                                                                     
7PESE                                                                                000000000028000                            
50001310201203162012031953010938636379       PES0000007500A076782012031618320136                                                
6024600007500120785301093863637900000000037                                                                                     
7PESE                                                                                000000000007500                            
50001410201203162012031900702235657972       PES0000017500A093412012031619180037                                                
6024600017500120770070223565797200025000000                                                                                     
7PESE                                                                                000000000017500                            
50001510201203162012031902330427408696       PES0000028000A017262012031617150079                                                
6024600028000120760233042740869600000000036                                                                                     
7PESE                                                                                000000000028000                            
50001610201203172012031902331622706681       PES0000028000A065952012031616540075                                                
6024600028000120760233162270668100000000000                                                                                     
7PESE                                                                                000000000028000                            
50001710201203172012031902331525104127       PES0000028000A082602012031616120043                                                
6024600028000120760233152510412700000000099                                                                                     
7PESE                                                                                000000000028000                            
50001810201203172012031902330428984483       PES0000028000A082642012031618010153                                                
6024600028000120760233042898448300000000036                                                                                     
7PESE                                                                                000000000028000                            
50001910201203172012031999030236087988       PES0000043000A066302012031711470050                                                
6024600043000120849903023608798800000000042                                                                                     
7PESE                                                                                000000000043000                            
50002010201203182012031900692618259083       PES0000022000A043472012031818560172                                                
6024600022000120790069261825908300000000084                                                                                     
7PESE                                                                                000000000022000                            
50002110201203182012031900691236786136       PES0000022000A043472012031818560173                                                
6024600022000120820069123678613600000000058                                                                                     
7PESE                                                                                000000000022000                            
82012031900000100000210000004960000000000000000000000000000000000000000000021                                                   
9201203190000010000021000000496000000000000000000000000000000000000000000000021                                                 
