120110519PAGO FACIL               090060246FABIAN NORBERTO D´ERAMO                                                              
320110519000001FABIAN NORBERTO D´ERAMO                                                                                          
50000110201105182011051999040124361506       PES0000023500A009932011051717010024                                                
6024600023500111449904012436150600015000042                                                                                     
7PESE                                                                                000000000023500                            
50000210201105182011051901272112497888       PES0000011000A101852011051810180013                                                
6024600011000111380127211249788800000000078                                                                                     
7PESE                                                                                000000000011000                            
50000310201105182011051901272117230832       PES0000011000A620952011051811490046                                                
6024600011000111420127211723083200000000015                                                                                     
7PESE                                                                                000000000011000                            
50000410201105182011051901272220329830       PES0000011000A620952011051811490045                                                
6024600011000111420127222032983000000000015                                                                                     
7PESE                                                                                000000000011000                            
50000510201105182011051918291238407880       PES0000019000M601842011051813180127                                                
6024600019000111411829123840788000000000058                                                                                     
7PESE                                                                                000000000019000                            
50000610201105182011051901270227187222       PES0000020000A091062011051814500149                                                
6024600020000111420127022718722200000000000                                                                                     
7PESE                                                                                000000000020000                            
50000710201105182011051901270228068041       PES0000020000A041972011051818060158                                                
6024600020000111420127022806804100000000036                                                                                     
7PESE                                                                                000000000020000                            
50000810201105182011051901270228831356       PES0000020000A047632011051815260015                                                
6024600020000111420127022883135600000000000                                                                                     
7PESE                                                                                000000000020000                            
50000910201105182011051901270325248571       PES0000020000A092142011051815080177                                                
6024600020000111420127032524857100000000078                                                                                     
7PESE                                                                                000000000020000                            
50001010201105182011051901270325878660       PES0000020000A092142011051815080178                                                
6024600020000111420127032587866000000000042                                                                                     
7PESE                                                                                000000000020000                            
50001110201105182011051901270517727223       PES0000020000A063662011051812280217                                                
6024600020000111420127051772722300000000000                                                                                     
7PESE                                                                                000000000020000                            
50001210201105182011051901270614369435       PES0000020000A063662011051812280216                                                
6024600020000111420127061436943500000000063                                                                                     
7PESE                                                                                000000000020000                            
50001310201105182011051901271227642705       PES0000020000A088622011051821010282                                                
6024600020000111420127122764270500000000084                                                                                     
7PESE                                                                                000000000020000                            
50001410201105182011051999030135603506       PES0000033000A055792011051810580039                                                
6024600033000111449903013560350600000000000                                                                                     
7PESE                                                                                000000000033000                            
82011051900000100000140000002685000000000000000000000000000000000000000000014                                                   
9201105190000010000014000000268500000000000000000000000000000000000000000000014                                                 
