120110720PAGO FACIL               090060246FABIAN NORBERTO D´ERAMO                                                              
320110720000001FABIAN NORBERTO D´ERAMO                                                                                          
50000110201107192011072017021007686105       PES0000016000A045812011071912030047                                                
6024600016000112071702100768610500040000057                                                                                     
7PESE                                                                                000000000016000                            
50000210201107192011072099040123567984       PES0000025000A082952011071911140041                                                
6024600025000112059904012356798400000000037                                                                                     
7PESE                                                                                000000000025000                            
50000310201107192011072000540237483073       PES0000027000A092052011071914060233                                                
6024600025500111990054023748307300015000736                                                                                     
7PESE                                                                                000000000027000                            
50000410201107192011072002300329684489       PES0000031500M601842011071915520151                                                
6024600031500112070230032968448900030000021                                                                                     
7PESE                                                                                000000000031500                            
82011072000000100000040000000995000000000000000000000000000000000000000000004                                                   
9201107200000010000004000000099500000000000000000000000000000000000000000000004                                                 
