120120420PAGO FACIL               090060246FABIAN NORBERTO D´ERAMO                                                              
320120420000001FABIAN NORBERTO D´ERAMO                                                                                          
50000110201204192012042002351330460535       PES0000017000A079432012041915440037                                                
6024600017000121100235133046053500030000084                                                                                     
7PESE                                                                                000000000017000                            
50000210201204192012042002351330653068       PES0000017000A077352012041912110013                                                
6024600017000121100235133065306800030000563                                                                                     
7PESE                                                                                000000000017000                            
50000310201204192012042002351621865215       PES0000017000A109842012041911130083                                                
6024600017000121100235162186521500030000515                                                                                     
7PESE                                                                                000000000017000                            
50000410201204192012042002351716804222       PES0000017000M620042012041912220063                                                
6024600017000121100235171680422200030000616                                                                                     
7PESE                                                                                000000000017000                            
50000510201204192012042002351813612412       PES0000017000L070012012041919382198                                                
6024600017000121100235181361241200030000742                                                                                     
7PESE                                                                                000000000017000                            
50000610201204192012042002353239097297       PES0000017000A034222012041909020010                                                
6024600017000121100235323909729700030000536                                                                                     
7PESE                                                                                000000000017000                            
50000710201204192012042002353335882579       PES0000017000A037142012041910500076                                                
6024600017000121100235333588257900030000684                                                                                     
7PESE                                                                                000000000017000                            
50000810201204192012042002353434155460       PES0000017000A021442012041910180050                                                
6024600017000121100235343415546000030000600                                                                                     
7PESE                                                                                000000000017000                            
50000910201204192012042002353530700663       PES0000017000A099212012041918460208                                                
6024600017000121100235353070066300030000742                                                                                     
7PESE                                                                                000000000017000                            
50001010201204192012042002353821826668       PES0000017000A104522012041916330014                                                
6024600017000121100235382182666800030000721                                                                                     
7PESE                                                                                000000000017000                            
50001110201204192012042002353918160996       PES0000017000M600262012041916170090                                                
6024600017000121100235391816099600030000742                                                                                     
7PESE                                                                                000000000017000                            
50001210201204192012042002350428686874       PES0000033000A073132012041910020022                                                
6024600029000121090235042868687400040000600                                                                                     
7PESE                                                                                000000000033000                            
50001310201204192012042002350233505213       PES0000029000A099602012041912230022                                                
6024600029000121100235023350521300040000521                                                                                     
7PESE                                                                                000000000029000                            
50001410201204192012042002350234517298       PES0000029000A111392012041918050143                                                
6024600029000121100235023451729800040000784                                                                                     
7PESE                                                                                000000000029000                            
50001510201204192012042002350330050347       PES0000029000M600122012041914070074                                                
6024600029000121100235033005034700040000757                                                                                     
7PESE                                                                                000000000029000                            
50001610201204192012042002350524424705       PES0000029000A104982012041913520090                                                
6024600029000121100235052442470500040000600                                                                                     
7PESE                                                                                000000000029000                            
50001710201204192012042002350618287000       PES0000029000M600212012041911180015                                                
6024600029000121100235061828700000040000663                                                                                     
7PESE                                                                                000000000029000                            
50001810201204192012042002350620249201       PES0000029000A067782012041917460068                                                
6024600029000121100235062024920100040000621                                                                                     
7PESE                                                                                000000000029000                            
50001910201204192012042002350622534852       PES0000029000A058122012041920070080                                                
6024600029000121100235062253485200040000763                                                                                     
7PESE                                                                                000000000029000                            
50002010201204192012042002350718070149       PES0000029000M601812012041912330037                                                
6024600029000121100235071807014900040000315                                                                                     
7PESE                                                                                000000000029000                            
50002110201204192012042002350812321767       PES0000029000A047512012041918440133                                                
6024600029000121100235081232176700040000715                                                                                     
7PESE                                                                                000000000029000                            
50002210201204192012042002350813824861       PES0000029000A073132012041912540047                                                
6024600029000121100235081382486100040000563                                                                                     
7PESE                                                                                000000000029000                            
50002310201204192012042002352726018611       PES0000029000A087082012041919310102                                                
6024600029000121100235272601861100040000563                                                                                     
7PESE                                                                                000000000029000                            
50002410201204192012042002352726717337       PES0000029000M620042012041917360105                                                
6024600029000121100235272671733700040000757                                                                                     
7PESE                                                                                000000000029000                            
50002510201204192012042099030233458467       PES0000049000A043162012041918220165                                                
6024600049000121179903023345846700000000036                                                                                     
7PESE                                                                                000000000049000                            
82012042000000100000250000006170000000000000000000000000000000000000000000025                                                   
9201204200000010000025000000617000000000000000000000000000000000000000000000025                                                 
