120120120PAGO FACIL               090060246FABIAN NORBERTO D´ERAMO                                                              
320120120000001FABIAN NORBERTO D´ERAMO                                                                                          
50000110201201192012012023061926326054       PES0000136600A107512012011810580038                                                
6024600136600120252306192632605400000000037                                                                                     
7PESE                                                                                000000000136600                            
50000210201201192012012029070320460620       PES0000010000A083262012011919230239                                                
6024600010000120252907032046062000000000078                                                                                     
7PESE                                                                                000000000010000                            
50000310201201192012012029070224765514       PES0000010000M620062012011911240016                                                
6024600010000120262907022476551400000000036                                                                                     
7PESE                                                                                000000000010000                            
50000410201201192012012002322629948634       PES0000020000A093392012011917580022                                                
6024600020000120200232262994863400000000084                                                                                     
7PESE                                                                                000000000020000                            
50000510201201192012012002323017142295       PES0000020000A091532012011911230167                                                
6024600020000120200232301714229500000000036                                                                                     
7PESE                                                                                000000000020000                            
50000610201201192012012002323111623336       PES0000020000M600282012011914310187                                                
6024600020000120200232311162333600000000021                                                                                     
7PESE                                                                                000000000020000                            
50000710201201192012012002320718225923       PES0000028000A086812012011911330041                                                
6024600028000120190232071822592300000000063                                                                                     
7PESE                                                                                000000000028000                            
50000810201201192012012002320427216272       PES0000028000M601522012011911250083                                                
6024600028000120200232042721627200000000058                                                                                     
7PESE                                                                                000000000028000                            
50000910201201192012012002320524312266       PES0000028000A075692012011916390073                                                
6024600028000120200232052431226600000000000                                                                                     
7PESE                                                                                000000000028000                            
50001010201201192012012002320525187654       PES0000028000A086862012011911280059                                                
6024600028000120200232052518765400000000084                                                                                     
7PESE                                                                                000000000028000                            
50001110201201192012012002320717755268       PES0000028000A049452012011910580043                                                
6024600028000120200232071775526800000000078                                                                                     
7PESE                                                                                000000000028000                            
50001210201201192012012002321621156215       PES0000028000A079702012011910270131                                                
6024600028000120200232162115621500000000021                                                                                     
7PESE                                                                                000000000028000                            
50001310201201192012012002322025338119       PES0000028000A025642012011918260052                                                
6024600028000120200232202533811900000000078                                                                                     
7PESE                                                                                000000000028000                            
50001410201201192012012023060238536011       PES0000121600M810042012011910220021                                                
6024600121600120252306023853601100000000036                                                                                     
7PESE                                                                                000000000121600                            
50001510201201192012012023060635626249       PES0000121600A613832012011909320029                                                
6024600121600120252306063562624900000000021                                                                                     
7PESE                                                                                000000000121600                            
50001610201201192012012023060934122918       PES0000121600A613832012011909330030                                                
6024600121600120252306093412291800000000084                                                                                     
7PESE                                                                                000000000121600                            
50001710201201192012012023061024834370       PES0000121600M700122012011911050062                                                
6024600121600120252306102483437000000000058                                                                                     
7PESE                                                                                000000000121600                            
50001810201201192012012023060421763940       PES0000121600A103832012011912130033                                                
6024600121600120262306042176394000000000000                                                                                     
7PESE                                                                                000000000121600                            
50001910201201192012012023061835412290       PES0000136600A099342012011915150035                                                
6024600136600120252306183541229000000000000                                                                                     
7PESE                                                                                000000000136600                            
50002010201201192012012023061926457522       PES0000136600A099342012011915170036                                                
6024600136600120252306192645752200000000099                                                                                     
7PESE                                                                                000000000136600                            
50002110201201192012012023061740944762       PES0000136600L070672012011914265948                                                
6024600136600120262306174094476200000000084                                                                                     
7PESE                                                                                000000000136600                            
82012012000000100000210000014304000000000000000000000000000000000000000000021                                                   
9201201200000010000021000001430400000000000000000000000000000000000000000000021                                                 
