120111121PAGO FACIL               090060246FABIAN NORBERTO D´ERAMO                                                              
320111121000001FABIAN NORBERTO D´ERAMO                                                                                          
50000110201111182011112101301624066854       PES0000040000A053772011111809520010                                                
6024600040000113270130162406685400000000042                                                                                     
7PESE                                                                                000000000040000                            
50000210201111182011112129060223788212       PES0000010000A038202011111809560059                                                
6024600010000113252906022378821200030000000                                                                                     
7PESE                                                                                000000000010000                            
50000310201111182011112100584744254591       PES0000007000A025832011111812020056                                                
6024600007000113280058474425459100015000099                                                                                     
7PESE                                                                                000000000007000                            
50000410201111182011112100582331470987       PES0000022500A064332011111813050072                                                
6024600022500113260058233147098700025000000                                                                                     
7PESE                                                                                000000000022500                            
50000510201111182011112100584418056670       PES0000022500A014492011111814180185                                                
6024600022500113270058441805667000025000021                                                                                     
7PESE                                                                                000000000022500                            
50000610201111182011112100574742249020       PES0000008500A096182011111813500257                                                
6024600008500113230057474224902000000000042                                                                                     
7PESE                                                                                000000000008500                            
50000710201111182011112100574742368297       PES0000008500A096182011111813500258                                                
6024600008500113230057474236829700000000042                                                                                     
7PESE                                                                                000000000008500                            
50000810201111182011112100574742726944       PES0000008500A096182011111813500259                                                
6024600008500113230057474272694400000000000                                                                                     
7PESE                                                                                000000000008500                            
50000910201111182011112100574330653068       PES0000022000A069512011111815530176                                                
6024600022000113230057433065306800000000084                                                                                     
7PESE                                                                                000000000022000                            
50001010201111182011112101301720105007       PES0000040000A051302011111809290040                                                
6024600040000113220130172010500700000000036                                                                                     
7PESE                                                                                000000000040000                            
50001110201111182011112101301237540533       PES0000040000A091122011111816160253                                                
6024600040000113290130123754053300000000021                                                                                     
7PESE                                                                                000000000040000                            
50001210201111182011112129060411448933       PES0000010000A098422011111815100028                                                
6024600010000113222906041144893300030000016                                                                                     
7PESE                                                                                000000000010000                            
50001310201111182011112100572331829094       PES0000022000A060942011111816380045                                                
6024600022000113230057233182909400000000000                                                                                     
7PESE                                                                                000000000022000                            
50001410201111182011112101301720330559       PES0000040000A044742011111818280019                                                
6024600040000113220130172033055900000000015                                                                                     
7PESE                                                                                000000000040000                            
50001510201111182011112100575028750666       PES0000022000A082952011111816510078                                                
6024600022000113230057502875066600000000079                                                                                     
7PESE                                                                                000000000022000                            
50001610201111182011112100574513798056       PES0000019800A016922011111811220035                                                
6024600019800113230057451379805600000000021                                                                                     
7PESE                                                                                000000000019800                            
50001710201111182011112100574139371606       PES0000019800A016922011111811220036                                                
6024600019800113230057413937160600000000000                                                                                     
7PESE                                                                                000000000019800                            
50001810201111182011112100574040128432       PES0000019800A016922011111811220037                                                
6024600019800113230057404012843200000000057                                                                                     
7PESE                                                                                000000000019800                            
50001910201111182011112100574040397350       PES0000019800A016922011111811220038                                                
6024600019800113230057404039735000000000058                                                                                     
7PESE                                                                                000000000019800                            
50002010201111182011112100574040230333       PES0000019800A016922011111811220039                                                
6024600019800113230057404023033300000000099                                                                                     
7PESE                                                                                000000000019800                            
50002110201111182011112100574040729377       PES0000019800A016922011111811220040                                                
6024600019800113230057404072937700000000016                                                                                     
7PESE                                                                                000000000019800                            
50002210201111182011112100574139061371       PES0000019800A016922011111811220041                                                
6024600019800113230057413906137100000000079                                                                                     
7PESE                                                                                000000000019800                            
50002310201111182011112100574138995042       PES0000019800A016922011111811220042                                                
6024600019800113230057413899504200000000021                                                                                     
7PESE                                                                                000000000019800                            
50002410201111182011112100574138892551       PES0000019800A016922011111811220043                                                
6024600019800113230057413889255100000000021                                                                                     
7PESE                                                                                000000000019800                            
50002510201111182011112100574138675457       PES0000019800A016922011111811220044                                                
6024600019800113230057413867545700000000057                                                                                     
7PESE                                                                                000000000019800                            
50002610201111182011112100574039713461       PES0000019800A016922011111811220045                                                
6024600019800113230057403971346100000000036                                                                                     
7PESE                                                                                000000000019800                            
50002710201111182011112101301718588343       PES0000040000A039102011111813220046                                                
6024600040000113230130171858834300000000063                                                                                     
7PESE                                                                                000000000040000                            
50002810201111182011112101300622182052       PES0000040000A039102011111813230047                                                
6024600040000113230130062218205200000000078                                                                                     
7PESE                                                                                000000000040000                            
50002910201111182011112100574937768494       PES0000022000A082572011111819160188                                                
6024600022000113230057493776849400000000084                                                                                     
7PESE                                                                                000000000022000                            
50003010201111182011112118352817564651       PES0000020000A058512011111818020144                                                
6024600020000113251835281756465100000000000                                                                                     
7PESE                                                                                000000000020000                            
50003110201111182011112101301913940933       PES0000040000A108882011111816580018                                                
6024600040000113290130191394093300000000099                                                                                     
7PESE                                                                                000000000040000                            
50003210201111182011112101301622539112       PES0000040000A102102011111818090022                                                
6024600040000113240130162253911200000000090                                                                                     
7PESE                                                                                000000000040000                            
50003310201111182011112100572235657972       PES0000022000A025052011111819440038                                                
6024600022000113230057223565797200000000063                                                                                     
7PESE                                                                                000000000022000                            
50003410201111182011112101301622970020       PES0000040000A093212011111817310035                                                
6024600040000113290130162297002000000000084                                                                                     
7PESE                                                                                000000000040000                            
50003510201111182011112101301527028990       PES0000040000A107892011111816390166                                                
6024600040000113290130152702899000000000016                                                                                     
7PESE                                                                                000000000040000                            
50003610201111182011112100585520200375       PES0000022500M601222011111815240054                                                
6024600022500113220058552020037500025000090                                                                                     
7PESE                                                                                000000000022500                            
50003710201111182011112101301526452481       PES0000040000M620132011111811130038                                                
6024600040000113280130152645248100000000037                                                                                     
7PESE                                                                                000000000040000                            
50003810201111182011112101301332686308       PES0000040000M620132011111811150040                                                
6024600040000113280130133268630800000000090                                                                                     
7PESE                                                                                000000000040000                            
50003910201111182011112101301720007959       PES0000040000M601282011111814210207                                                
6024600040000113250130172000795900000000057                                                                                     
7PESE                                                                                000000000040000                            
50004010201111182011112101300716785288       PES0000040000M600532011111811130058                                                
6024600040000113220130071678528800000000079                                                                                     
7PESE                                                                                000000000040000                            
50004110201111182011112101301722236535       PES0000040000M640372011111812360089                                                
6024600040000113260130172223653500000000042                                                                                     
7PESE                                                                                000000000040000                            
50004210201111182011112101300522889539       PES0000040000M640372011111812370090                                                
6024600040000113250130052288953900000000058                                                                                     
7PESE                                                                                000000000040000                            
50004310201111192011112100574327401273       PES0000022000A038992011111810180010                                                
6024600022000113230057432740127300000000016                                                                                     
7PESE                                                                                000000000022000                            
50004410201111192011112100573193502977       PES0000022000A038992011111810180011                                                
6024600022000113230057319350297700000000084                                                                                     
7PESE                                                                                000000000022000                            
50004510201111192011112101301527508671       PES0000040000A102742011111911070021                                                
6024600040000113280130152750867100000000058                                                                                     
7PESE                                                                                000000000040000                            
50004610201111192011112129060414253725       PES0000010000A096492011111914140065                                                
6024600010000113292906041425372500030000036                                                                                     
7PESE                                                                                000000000010000                            
50004710201111192011112129060321446489       PES0000010000A093742011111920350064                                                
6024600010000113272906032144648900030000084                                                                                     
7PESE                                                                                000000000010000                            
50004810201111192011112101301720341782       PES0000040000A022082011111917070079                                                
6024600040000113230130172034178200000000079                                                                                     
7PESE                                                                                000000000040000                            
50004910201111192011112101301625374915       PES0000040000A079702011111918590150                                                
6024600040000113290130162537491500000000084                                                                                     
7PESE                                                                                000000000040000                            
50005010201111202011112118350233626290       PES0000020000A050522011112016010066                                                
6024600020000113291835023362629000000000036                                                                                     
7PESE                                                                                000000000020000                            
82011112100000100000500000013118000000000000000000000000000000000000000000050                                                   
9201111210000010000050000001311800000000000000000000000000000000000000000000050                                                 
