120121121PAGO FACIL               090060246FABIAN NORBERTO D´ERAMO                                                              
320121121000001FABIAN NORBERTO D´ERAMO                                                                                          
50000110201211202012112172000518762236       PES0000009000L071292012112016282923                                                
6024600009000123297200051876223600000000058                                                                                     
7PESE                                                                                000000000009000                            
50000210201211202012112172000525175929       PES0000009000L070682012112009363848                                                
6024600009000123297200052517592900000000078                                                                                     
7PESE                                                                                000000000009000                            
50000310201211202012112172000530008984       PES0000009000L071292012112016292924                                                
6024600009000123297200053000898400000000063                                                                                     
7PESE                                                                                000000000009000                            
50000410201211202012112172000543004831       PES0000009000L070682012112009363850                                                
6024600009000123297200054300483100000000090                                                                                     
7PESE                                                                                000000000009000                            
50000510201211202012112172000547149909       PES0000009000L070682012112009363849                                                
6024600009000123297200054714990900000000063                                                                                     
7PESE                                                                                000000000009000                            
50000610201211202012112159010227747564       PES0000011000A090422012112018470007                                                
6024600011000123265901022774756400000000058                                                                                     
7PESE                                                                                000000000011000                            
50000710201211202012112159010518458506       PES0000011000A099542012112011390042                                                
6024600011000123265901051845850600000000016                                                                                     
7PESE                                                                                000000000011000                            
50000810201211202012112159011320388565       PES0000011000A099542012112011390041                                                
6024600011000123265901132038856500000000084                                                                                     
7PESE                                                                                000000000011000                            
50000910201211202012112159011231697945       PES0000011000A102102012112021070077                                                
6024600011000123325901123169794500000000079                                                                                     
7PESE                                                                                000000000011000                            
50001010201211202012112173000122772364       PES0000012000D001262012112009000001                                                
6024600012000123317300012277236400030000084                                                                                     
7PESE                                                                                000000000012000                            
50001110201211202012112173000127549622       PES0000012000D001252012112011280163                                                
6024600012000123327300012754962200030000016                                                                                     
7PESE                                                                                000000000012000                            
50001210201211202012112173000132495412       PES0000012000A060512012112013090181                                                
6024600012000123327300013249541200030000099                                                                                     
7PESE                                                                                000000000012000                            
50001310201211202012112173000132683015       PES0000012000D001252012112011290164                                                
6024600012000123327300013268301500030000021                                                                                     
7PESE                                                                                000000000012000                            
50001410201211202012112129080225146718       PES0000015000A097712012112008540010                                                
6024600015000123292908022514671800030000016                                                                                     
7PESE                                                                                000000000015000                            
50001510201211202012112198010118049061       PES0000015000A026442012112011490113                                                
6024600015000123329801011804906100000000079                                                                                     
7PESE                                                                                000000000015000                            
50001610201211202012112169014423227644       PES0000017500A097872012112012240007                                                
6024600017500123306901442322764400025000163                                                                                     
7PESE                                                                                000000000017500                            
50001710201211202012112100772525144420       PES0000025500A018912012112011020114                                                
6024600025500123280077252514442000030000042                                                                                     
7PESE                                                                                000000000025500                            
50001810201211202012112100773223125932       PES0000025500A113032012112015010108                                                
6024600025500123310077322312593200030000084                                                                                     
7PESE                                                                                000000000025500                            
50001910201211202012112100773824851131       PES0000025500A093422012112011530060                                                
6024600025500123320077382485113100030000084                                                                                     
7PESE                                                                                000000000025500                            
50002010201211202012112100773826360489       PES0000025500A093422012112011530061                                                
6024600025500123320077382636048900030000090                                                                                     
7PESE                                                                                000000000025500                            
50002110201211202012112101330522569445       PES0000052000A087612012112011490150                                                
6024600052000123250133052256944500080000000                                                                                     
7PESE                                                                                000000000052000                            
50002210201211202012112101331329661179       PES0000052000A085342012112011590153                                                
6024600052000123250133132966117900080000036                                                                                     
7PESE                                                                                000000000052000                            
50002310201211202012112101331423586565       PES0000052000A075392012112015340171                                                
6024600052000123250133142358656500080000063                                                                                     
7PESE                                                                                000000000052000                            
50002410201211202012112101331425966397       PES0000052000A088382012112017400120                                                
6024600052000123250133142596639700080000063                                                                                     
7PESE                                                                                000000000052000                            
50002510201211202012112101331230198339       PES0000052000A102862012112016410135                                                
6024600052000123280133123019833900080000042                                                                                     
7PESE                                                                                000000000052000                            
50002610201211202012112101331135266242       PES0000052000A059512012112018550341                                                
6024600052000123310133113526624200080000036                                                                                     
7PESE                                                                                000000000052000                            
50002710201211202012112101331523265413       PES0000052000D000782012112011060030                                                
6024600052000123310133152326541300080000042                                                                                     
7PESE                                                                                000000000052000                            
50002810201211202012112101330618433098       PES0000052000A031192012112012470134                                                
6024600052000123320133061843309800080000037                                                                                     
7PESE                                                                                000000000052000                            
50002910201211202012112101331425896308       PES0000052000A031192012112012470135                                                
6024600052000123320133142589630800080000016                                                                                     
7PESE                                                                                000000000052000                            
82012112100000100000290000007545000000000000000000000000000000000000000000029                                                   
9201211210000010000029000000754500000000000000000000000000000000000000000000029                                                 
