120120821PAGO FACIL               090060246FABIAN NORBERTO D´ERAMO                                                              
320120821000001FABIAN NORBERTO D´ERAMO                                                                                          
50000110201208172012082101320616793598       PES0000045000M620032012081611480071                                                
6024600045000122350132061679359800050000058                                                                                     
7PESE                                                                                000000000045000                            
50000210201208172012082100712813314450       PES0000023500A113032012081710110006                                                
6024600023500122360071281331445000055000079                                                                                     
7PESE                                                                                000000000023500                            
50000310201208172012082101320425819215       PES0000045000A810082012081708360012                                                
6024600045000122330132042581921500050000000                                                                                     
7PESE                                                                                000000000045000                            
50000410201208172012082100540326562585       PES0000026000A108262012081711190088                                                
6024600026000122330054032656258500010000442                                                                                     
7PESE                                                                                000000000026000                            
50000510201208172012082159000823791839       PES0000016000A620572012081711130021                                                
6024600016000122345900082379183900000000058                                                                                     
7PESE                                                                                000000000016000                            
50000610201208172012082117030912123025       PES0000025000A640842012081708470016                                                
6024600025000122361703091212302500050000063                                                                                     
7PESE                                                                                000000000025000                            
50000710201208172012082101320521433416       PES0000045000A070642012081713500146                                                
6024600045000122300132052143341600050000000                                                                                     
7PESE                                                                                000000000045000                            
50000810201208172012082100713335794502       PES0000023500A111362012081713430246                                                
6024600023500122300071333579450200055000037                                                                                     
7PESE                                                                                000000000023500                            
50000910201208172012082100710633811917       PES0000023500D000482012081711180060                                                
6024600023500122350071063381191700055000036                                                                                     
7PESE                                                                                000000000023500                            
50001010201208172012082198010228394924       PES0000029500D001392012081716100141                                                
6024600029500122289801022839492400000000790                                                                                     
7PESE                                                                                000000000029500                            
50001110201208172012082100711914888484       PES0000023500A112002012081715590013                                                
6024600023500122300071191488848400055000090                                                                                     
7PESE                                                                                000000000023500                            
50001210201208172012082100712717384026       PES0000023500A107672012081712050061                                                
6024600023500122340071271738402600055000042                                                                                     
7PESE                                                                                000000000023500                            
50001310201208172012082100712235360552       PES0000023500A056912012081717030032                                                
6024600023500122320071223536055200055000084                                                                                     
7PESE                                                                                000000000023500                            
50001410201208172012082100712427135635       PES0000023500D001462012081710470019                                                
6024600023500122350071242713563500055000084                                                                                     
7PESE                                                                                000000000023500                            
50001510201208172012082101321425097818       PES0000045000A055272012081712440022                                                
6024600045000122370132142509781800050000057                                                                                     
7PESE                                                                                000000000045000                            
50001610201208172012082117031712296731       PES0000025000A080712012081710230010                                                
6024600025000122361703171229673100050000057                                                                                     
7PESE                                                                                000000000025000                            
50001710201208172012082100712717128852       PES0000023500A087932012081718470057                                                
6024600023500122350071271712885200055000057                                                                                     
7PESE                                                                                000000000023500                            
50001810201208172012082199030121903716       PES0000049000A046092012081719060144                                                
6024600046500122289903012190371600025000363                                                                                     
7PESE                                                                                000000000049000                            
50001910201208172012082100540321903716       PES0000026000A046092012081719060145                                                
6024600026000122310054032190371600010000042                                                                                     
7PESE                                                                                000000000026000                            
50002010201208172012082101320617616703       PES0000045000A028072012081713110086                                                
6024600045000122300132061761670300050000090                                                                                     
7PESE                                                                                000000000045000                            
50002110201208172012082159000323112773       PES0000016000A068722012081717440101                                                
6024600016000122345900032311277300000000042                                                                                     
7PESE                                                                                000000000016000                            
50002210201208172012082101321520864445       PES0000045000A047502012081713570057                                                
6024600045000122300132152086444500050000063                                                                                     
7PESE                                                                                000000000045000                            
50002310201208172012082100720618201068       PES0000042000A017082012081717460021                                                
6024600042000122310072061820106800045000058                                                                                     
7PESE                                                                                000000000042000                            
50002410201208172012082101320521426801       PES0000045000A113552012081718310040                                                
6024600045000122350132052142680100050000057                                                                                     
7PESE                                                                                000000000045000                            
50002510201208172012082100714138390989       PES0000023500A105412012081709310003                                                
6024600023500122300071413839098900055000015                                                                                     
7PESE                                                                                000000000023500                            
50002610201208172012082101320520669628       PES0000045000A080522012081710450001                                                
6024600045000122310132052066962800050000079                                                                                     
7PESE                                                                                000000000045000                            
50002710201208172012082100714613077643       PES0000023500A107412012081717120046                                                
6024600023500122330071461307764300055000084                                                                                     
7PESE                                                                                000000000023500                            
50002810201208172012082102401418219101       PES0000017000L070512012081710075270                                                
6024600017000122360240141821910100030000000                                                                                     
7PESE                                                                                000000000017000                            
50002910201208172012082159000226143964       PES0000016000L070042012081715096159                                                
6024600016000122345900022614396400000000063                                                                                     
7PESE                                                                                000000000016000                            
50003010201208172012082101322517669134       PES0000045000M620062012081718570064                                                
6024600045000122360132251766913400050000000                                                                                     
7PESE                                                                                000000000045000                            
50003110201208172012082117030722166150       PES0000025000M640252012081716530038                                                
6024600025000122361703072216615000050000016                                                                                     
7PESE                                                                                000000000025000                            
50003210201208182012082100712524500199       PES0000023500A088162012081812040110                                                
6024600023500122340071252450019900055000000                                                                                     
7PESE                                                                                000000000023500                            
50003310201208182012082159000516390918       PES0000016000A115752012081811290061                                                
6024600016000122345900051639091800000000079                                                                                     
7PESE                                                                                000000000016000                            
50003410201208182012082117030913839490       PES0000025000A107592012081812010103                                                
6024600025000122331703091383949000050000078                                                                                     
7PESE                                                                                000000000025000                            
50003510201208182012082159000132799981       PES0000016000A064442012081818400089                                                
6024600016000122345900013279998100000000078                                                                                     
7PESE                                                                                000000000016000                            
50003610201208182012082100712814442352       PES0000023500L120202012081810028556                                                
6024600023500122320071281444235200055000063                                                                                     
7PESE                                                                                000000000023500                            
50003710201208182012082159001416420750       PES0000016000L070502012081812085358                                                
6024600016000122345900141642075000000000079                                                                                     
7PESE                                                                                000000000016000                            
50003810201208182012082159000517386185       PES0000016000L070502012081812085359                                                
6024600016000122345900051738618500000000079                                                                                     
7PESE                                                                                000000000016000                            
50003910201208182012082159001417575467       PES0000016000L070502012081812085360                                                
6024600016000122345900141757546700000000099                                                                                     
7PESE                                                                                000000000016000                            
50004010201208182012082159000420666747       PES0000016000L070042012081820506197                                                
6024600016000122315900042066674700000000099                                                                                     
7PESE                                                                                000000000016000                            
50004110201208182012082159000516862761       PES0000016000A100122012081809290004                                                
6024600016000122345900051686276100000000058                                                                                     
7PESE                                                                                000000000016000                            
50004210201208192012082102390716560071       PES0000033000A037752012081918380134                                                
6024600033000122330239071656007100030000321                                                                                     
7PESE                                                                                000000000033000                            
50004310201208192012082100540340497077       PES0000026000A079702012081920080320                                                
6024600026000122330054034049707700010000663                                                                                     
7PESE                                                                                000000000026000                            
50004410201208202012082159001320388477       PES0000016000A089202012082019130076                                                
6024600016000122345900132038847700000000000                                                                                     
7PESE                                                                                000000000016000                            
50004510201208202012082102390523299272       PES0000033000A035802012082016190157                                                
6024600033000122330239052329927200030000463                                                                                     
7PESE                                                                                000000000033000                            
82012082100000100000450000012445000000000000000000000000000000000000000000045                                                   
9201208210000010000045000001244500000000000000000000000000000000000000000000045                                                 
