120120321PAGO FACIL               090060246FABIAN NORBERTO D´ERAMO                                                              
320120321000001FABIAN NORBERTO D´ERAMO                                                                                          
50000110201203202012032100702329004645       PES0000017500A022772012032012180108                                                
6024600017500120800070232900464500025000542                                                                                     
7PESE                                                                                000000000017500                            
50000210201203202012032100702911848670       PES0000017500A028472012032016360032                                                
6024600017500120800070291184867000025000615                                                                                     
7PESE                                                                                000000000017500                            
50000310201203202012032100703726718719       PES0000017500A097172012032014520212                                                
6024600017500120800070372671871900025000157                                                                                     
7PESE                                                                                000000000017500                            
50000410201203202012032100704424909738       PES0000017500A097172012032014520211                                                
6024600017500120800070442490973800025000621                                                                                     
7PESE                                                                                000000000017500                            
50000510201203202012032100691240023245       PES0000022000A104612012032016120245                                                
6024600022000120800069124002324500000000000                                                                                     
7PESE                                                                                000000000022000                            
50000610201203202012032100691528508903       PES0000022000A080162012032012060148                                                
6024600022000120820069152850890300000000063                                                                                     
7PESE                                                                                000000000022000                            
50000710201203202012032100691625060277       PES0000022000M600442012032015200074                                                
6024600022000120820069162506027700000000042                                                                                     
7PESE                                                                                000000000022000                            
50000810201203202012032100692137669763       PES0000022000A112752012032016160012                                                
6024600022000120820069213766976300000000078                                                                                     
7PESE                                                                                000000000022000                            
50000910201203202012032100692426044379       PES0000022000M600442012032015200075                                                
6024600022000120820069242604437900000000037                                                                                     
7PESE                                                                                000000000022000                            
50001010201203202012032199030233016959       PES0000043000A070462012032012150084                                                
6024600043000120879903023301695900000000015                                                                                     
7PESE                                                                                000000000043000                            
82012032100000100000100000002230000000000000000000000000000000000000000000010                                                   
9201203210000010000010000000223000000000000000000000000000000000000000000000010                                                 
