120121221PAGO FACIL               090060246FABIAN NORBERTO D´ERAMO                                                              
320121221000001FABIAN NORBERTO D´ERAMO                                                                                          
50000110201212202012122173000221518625       PES0000015000A067112012121917580033                                                
6024600015000123547300022151862500040000058                                                                                     
7PESE                                                                                000000000015000                            
50000210201212202012122102420326553911       PES0000040000A010432012121919280004                                                
6024600040000123550242032655391100075000637                                                                                     
7PESE                                                                                000000000040000                            
50000310201212202012122172010212274241       PES0000013700A000492012122009480008                                                
6024600013700123617201021227424100000000016                                                                                     
7PESE                                                                                000000000013700                            
50000410201212202012122173000226143124       PES0000015000A660332012122010340102                                                
6024600015000123607300022614312400040000021                                                                                     
7PESE                                                                                000000000015000                            
50000510201212202012122172010425319126       PES0000015700A080062012122019070131                                                
6024600015700123627201042531912600000000063                                                                                     
7PESE                                                                                000000000015700                            
50000610201212202012122172010325759453       PES0000015800A029422012122013300259                                                
6024600015800123617201032575945300000000078                                                                                     
7PESE                                                                                000000000015800                            
50000710201212202012122172010525960292       PES0000017800A079712012122013260080                                                
6024600017800123627201052596029200000000042                                                                                     
7PESE                                                                                000000000017800                            
50000810201212202012122129080724980795       PES0000018000A097922012122013440174                                                
6024600018000123562908072498079500000000084                                                                                     
7PESE                                                                                000000000018000                            
50000910201212202012122129080630592120       PES0000018000A036052012122015050186                                                
6024600018000123612908063059212000000000058                                                                                     
7PESE                                                                                000000000018000                            
50001010201212202012122102422530440498       PES0000028000A024632012122010570166                                                
6024600028000123550242253044049800070000758                                                                                     
7PESE                                                                                000000000028000                            
50001110201212202012122102422813697869       PES0000028000A040542012122009220018                                                
6024600028000123550242281369786900070000457                                                                                     
7PESE                                                                                000000000028000                            
50001210201212202012122102423420184805       PES0000028000A112952012122013380204                                                
6024600028000123550242342018480500070000500                                                                                     
7PESE                                                                                000000000028000                            
50001310201212202012122102423422862720       PES0000028000M601652012122012010061                                                
6024600028000123550242342286272000070000715                                                                                     
7PESE                                                                                000000000028000                            
50001410201212202012122102423423075973       PES0000028000D000502012122013100227                                                
6024600028000123550242342307597300070000678                                                                                     
7PESE                                                                                000000000028000                            
50001510201212202012122102423518057211       PES0000028000A090002012122017250052                                                
6024600028000123550242351805721100070000657                                                                                     
7PESE                                                                                000000000028000                            
50001610201212202012122102420231507265       PES0000040000A063832012122016150044                                                
6024600040000123550242023150726500075000690                                                                                     
7PESE                                                                                000000000040000                            
50001710201212202012122102420326926945       PES0000040000A088692012122018180035                                                
6024600040000123550242032692694500075000678                                                                                     
7PESE                                                                                000000000040000                            
50001810201212202012122102420328079567       PES0000040000M600062012122014450051                                                
6024600040000123550242032807956700075000484                                                                                     
7PESE                                                                                000000000040000                            
50001910201212202012122102420328505764       PES0000040000A107742012122017560099                                                
6024600040000123550242032850576400075000763                                                                                     
7PESE                                                                                000000000040000                            
50002010201212202012122102420329051434       PES0000040000A060942012122015410022                                                
6024600040000123550242032905143400075000742                                                                                     
7PESE                                                                                000000000040000                            
50002110201212202012122102420329583777       PES0000040000A081932012122017580006                                                
6024600040000123550242032958377700075000421                                                                                     
7PESE                                                                                000000000040000                            
50002210201212202012122102420329684489       PES0000040000A110612012122017590026                                                
6024600040000123550242032968448900075000378                                                                                     
7PESE                                                                                000000000040000                            
50002310201212202012122102420423569010       PES0000040000A075212012122015530188                                                
6024600040000123550242042356901000075000590                                                                                     
7PESE                                                                                000000000040000                            
50002410201212202012122102420423839996       PES0000040000A019812012122017490058                                                
6024600040000123550242042383999600075000542                                                                                     
7PESE                                                                                000000000040000                            
50002510201212202012122102420424422803       PES0000040000A104232012122011070045                                                
6024600040000123550242042442280300075000500                                                                                     
7PESE                                                                                000000000040000                            
50002610201212202012122102420424508573       PES0000040000A001552012122018200146                                                
6024600040000123550242042450857300075000716                                                                                     
7PESE                                                                                000000000040000                            
50002710201212202012122102420425108661       PES0000040000A602062012122009550023                                                
6024600040000123550242042510866100075000784                                                                                     
7PESE                                                                                000000000040000                            
50002810201212202012122102420425578594       PES0000040000A117342012122018320189                                                
6024600040000123550242042557859400075000799                                                                                     
7PESE                                                                                000000000040000                            
50002910201212202012122102420425597729       PES0000040000A092332012122012190026                                                
6024600040000123550242042559772900075000716                                                                                     
7PESE                                                                                000000000040000                            
50003010201212202012122102420425770302       PES0000040000A117592012122014460143                                                
6024600040000123550242042577030200075000590                                                                                     
7PESE                                                                                000000000040000                            
50003110201212202012122102420426194526       PES0000040000A034162012122011330070                                                
6024600040000123550242042619452600075000421                                                                                     
7PESE                                                                                000000000040000                            
50003210201212202012122102420426251012       PES0000040000A057152012122015200220                                                
6024600040000123550242042625101200075000663                                                                                     
7PESE                                                                                000000000040000                            
50003310201212202012122102420520022587       PES0000040000A118142012122018030001                                                
6024600040000123550242052002258700075000600                                                                                     
7PESE                                                                                000000000040000                            
50003410201212202012122102420521801033       PES0000040000A065702012122018140071                                                
6024600040000123550242052180103300075000079                                                                                     
7PESE                                                                                000000000040000                            
50003510201212202012122102420522090793       PES0000040000A602062012122009550022                                                
6024600040000123550242052209079300075000742                                                                                     
7PESE                                                                                000000000040000                            
50003610201212202012122102420522743468       PES0000040000A021692012122010530096                                                
6024600040000123550242052274346800075000021                                                                                     
7PESE                                                                                000000000040000                            
50003710201212202012122102420617953347       PES0000040000A091142012122016250142                                                
6024600040000123550242061795334700075000742                                                                                     
7PESE                                                                                000000000040000                            
50003810201212202012122102420618201068       PES0000040000A017082012122020060086                                                
6024600040000123550242061820106800075000063                                                                                     
7PESE                                                                                000000000040000                            
50003910201212202012122102420713824861       PES0000040000A085792012122017400217                                                
6024600040000123550242071382486100075000737                                                                                     
7PESE                                                                                000000000040000                            
50004010201212202012122102420713908389       PES0000040000A037752012122012020216                                                
6024600040000123550242071390838900075000442                                                                                     
7PESE                                                                                000000000040000                            
50004110201212202012122102420714976094       PES0000040000A017482012122020020204                                                
6024600040000123550242071497609400075000757                                                                                     
7PESE                                                                                000000000040000                            
50004210201212202012122102421230735964       PES0000040000A016922012122014380137                                                
6024600040000123550242123073596400075000421                                                                                     
7PESE                                                                                000000000040000                            
50004310201212202012122102423631164215       PES0000040000A063622012122018420199                                                
6024600040000123550242363116421500075000784                                                                                     
7PESE                                                                                000000000040000                            
50004410201212202012122199030131344778       PES0000049000A095702012122019350177                                                
6024600049000123619903013134477800000000063                                                                                     
7PESE                                                                                000000000049000                            
82012122100000100000440000015060000000000000000000000000000000000000000000044                                                   
9201212210000010000044000001506000000000000000000000000000000000000000000000044                                                 
