120120822PAGO FACIL               090060246FABIAN NORBERTO D´ERAMO                                                              
320120822000001FABIAN NORBERTO D´ERAMO                                                                                          
50000110201208212012082257010617862992       PES0000015000M620022012082118570098                                                
6024600015000122355701061786299200000000084                                                                                     
7PESE                                                                                000000000015000                            
50000210201208212012082259000324336564       PES0000016000M620002012082112180080                                                
6024600016000122345900032433656400000000021                                                                                     
7PESE                                                                                000000000016000                            
50000310201208212012082259000418517096       PES0000016000A068722012082118390244                                                
6024600016000122345900041851709600000000084                                                                                     
7PESE                                                                                000000000016000                            
50000410201208212012082259000420522806       PES0000016000A620432012082109370001                                                
6024600016000122345900042052280600000000036                                                                                     
7PESE                                                                                000000000016000                            
50000510201208212012082259000420562841       PES0000016000A108472012082113010067                                                
6024600016000122345900042056284100000000063                                                                                     
7PESE                                                                                000000000016000                            
50000610201208212012082259000421445684       PES0000016000A077842012082109080005                                                
6024600016000122345900042144568400000000090                                                                                     
7PESE                                                                                000000000016000                            
50000710201208212012082259000421624811       PES0000016000M620002012082108390012                                                
6024600016000122345900042162481100000000057                                                                                     
7PESE                                                                                000000000016000                            
50000810201208212012082259000421930151       PES0000016000A062262012082111570206                                                
6024600016000122345900042193015100000000021                                                                                     
7PESE                                                                                000000000016000                            
50000910201208212012082259000422349713       PES0000016000A109842012082114070009                                                
6024600016000122345900042234971300000000084                                                                                     
7PESE                                                                                000000000016000                            
50001010201208212012082259000422601821       PES0000016000A076552012082113420137                                                
6024600016000122345900042260182100000000058                                                                                     
7PESE                                                                                000000000016000                            
50001110201208212012082259000516715995       PES0000016000A055102012082111040077                                                
6024600016000122345900051671599500000000058                                                                                     
7PESE                                                                                000000000016000                            
50001210201208212012082259000517457073       PES0000016000A062262012082109280044                                                
6024600016000122345900051745707300000000042                                                                                     
7PESE                                                                                000000000016000                            
50001310201208212012082259000611825570       PES0000016000A097042012082118380056                                                
6024600016000122345900061182557000000000063                                                                                     
7PESE                                                                                000000000016000                            
50001410201208212012082259000614655950       PES0000016000A100022012082112280006                                                
6024600016000122345900061465595000000000099                                                                                     
7PESE                                                                                000000000016000                            
50001510201208212012082259000712605614       PES0000016000A100582012082111270027                                                
6024600016000122345900071260561400000000000                                                                                     
7PESE                                                                                000000000016000                            
50001610201208212012082259001127105945       PES0000016000A620612012082111090041                                                
6024600016000122345900112710594500000000063                                                                                     
7PESE                                                                                000000000016000                            
50001710201208212012082259001223391151       PES0000016000A620272012082110090024                                                
6024600016000122345900122339115100000000079                                                                                     
7PESE                                                                                000000000016000                            
50001810201208212012082259001224787154       PES0000016000A620272012082110090025                                                
6024600016000122345900122478715400000000042                                                                                     
7PESE                                                                                000000000016000                            
50001910201208212012082259001225198169       PES0000016000A100122012082117210184                                                
6024600016000122345900122519816900000000090                                                                                     
7PESE                                                                                000000000016000                            
50002010201208212012082259001320522852       PES0000016000A620432012082109380002                                                
6024600016000122345900132052285200000000090                                                                                     
7PESE                                                                                000000000016000                            
50002110201208212012082259001321431692       PES0000016000A109842012082114070010                                                
6024600016000122345900132143169200000000084                                                                                     
7PESE                                                                                000000000016000                            
50002210201208212012082259001321717219       PES0000016000A109232012082120030021                                                
6024600016000122345900132171721900000000063                                                                                     
7PESE                                                                                000000000016000                            
50002310201208212012082202400422596383       PES0000017000A105932012082115550317                                                
6024600017000122380240042259638300030000184                                                                                     
7PESE                                                                                000000000017000                            
50002410201208212012082200712524958209       PES0000023500A103302012082111590129                                                
6024600023500122340071252495820900055000084                                                                                     
7PESE                                                                                000000000023500                            
50002510201208212012082200712816639678       PES0000023500M600822012082113360106                                                
6024600023500122350071281663967800055000058                                                                                     
7PESE                                                                                000000000023500                            
50002610201208212012082200712011988962       PES0000023500D000582012082111550010                                                
6024600023500122360071201198896200055000084                                                                                     
7PESE                                                                                000000000023500                            
50002710201208212012082200712234175714       PES0000023500A103302012082115480134                                                
6024600023500122380071223417571400055000063                                                                                     
7PESE                                                                                000000000023500                            
50002810201208212012082200713231264023       PES0000023500A111512012082111080043                                                
6024600023500122380071323126402300055000078                                                                                     
7PESE                                                                                000000000023500                            
50002910201208212012082200712426920552       PES0000023500A073592012082110280068                                                
6024600023500122400071242692055200055000084                                                                                     
7PESE                                                                                000000000023500                            
50003010201208212012082200712333563478       PES0000023500A075132012082117160216                                                
6024600023500122410071233356347800055000084                                                                                     
7PESE                                                                                000000000023500                            
50003110201208212012082217030430615075       PES0000025000A048082012082108220010                                                
6024600025000122371703043061507500050000058                                                                                     
7PESE                                                                                000000000025000                            
50003210201208212012082217030432207871       PES0000025000A048082012082108220013                                                
6024600025000122371703043220787100050000099                                                                                     
7PESE                                                                                000000000025000                            
50003310201208212012082217030913957814       PES0000025000A048082012082108220011                                                
6024600025000122371703091395781400050000000                                                                                     
7PESE                                                                                000000000025000                            
50003410201208212012082217031516370723       PES0000025000A048082012082108220012                                                
6024600025000122371703151637072300050000016                                                                                     
7PESE                                                                                000000000025000                            
50003510201208212012082217030526912006       PES0000025000L071222012082118220757                                                
6024600025000122411703052691200600050000042                                                                                     
7PESE                                                                                000000000025000                            
50003610201208212012082259001829630867       PES0000032000A084782012082117400155                                                
6024600032000122345900182963086700000000021                                                                                     
7PESE                                                                                000000000032000                            
50003710201208212012082259002223072896       PES0000032000A040462012082117300101                                                
6024600032000122345900222307289600000000021                                                                                     
7PESE                                                                                000000000032000                            
50003810201208212012082202390427263883       PES0000036000A620812012082111550114                                                
6024600033000122330239042726388300030000442                                                                                     
7PESE                                                                                000000000036000                            
50003910201208212012082202390429343288       PES0000036000A026442012082119520289                                                
6024600033000122330239042934328800030000157                                                                                     
7PESE                                                                                000000000036000                            
50004010201208212012082202392631899794       PES0000036000A026442012082119520288                                                
6024600033000122330239263189979400030000158                                                                                     
7PESE                                                                                000000000036000                            
50004110201208212012082202390813940933       PES0000036000A094932012082112030133                                                
6024600036000122370239081394093300000000057                                                                                     
7PESE                                                                                000000000036000                            
50004210201208212012082201320329068077       PES0000045000M601612012082114000097                                                
6024600045000122340132032906807700050000021                                                                                     
7PESE                                                                                000000000045000                            
50004310201208212012082201321230407636       PES0000045000A008222012082112490073                                                
6024600045000122340132123040763600050000000                                                                                     
7PESE                                                                                000000000045000                            
50004410201208212012082201320616774113       PES0000045000D001432012082111270042                                                
6024600045000122350132061677411300050000016                                                                                     
7PESE                                                                                000000000045000                            
50004510201208212012082201322223119589       PES0000045000A051342012082114050349                                                
6024600045000122350132222311958900050000016                                                                                     
7PESE                                                                                000000000045000                            
50004610201208212012082201320329684489       PES0000045000A045342012082111550107                                                
6024600045000122360132032968448900050000058                                                                                     
7PESE                                                                                000000000045000                            
50004710201208212012082201320423434811       PES0000045000A620812012082113500180                                                
6024600045000122360132042343481100050000036                                                                                     
7PESE                                                                                000000000045000                            
50004810201208212012082201320423599625       PES0000045000A045342012082111550106                                                
6024600045000122360132042359962500050000090                                                                                     
7PESE                                                                                000000000045000                            
50004910201208212012082201320716040322       PES0000045000A116382012082109400050                                                
6024600045000122380132071604032200050000037                                                                                     
7PESE                                                                                000000000045000                            
50005010201208212012082201320329771122       PES0000045000A098932012082115230066                                                
6024600045000122390132032977112200050000079                                                                                     
7PESE                                                                                000000000045000                            
50005110201208212012082201320520020148       PES0000045000A100652012082111130022                                                
6024600045000122400132052002014800050000063                                                                                     
7PESE                                                                                000000000045000                            
50005210201208212012082201321522401738       PES0000045000A100652012082111110021                                                
6024600045000122400132152240173800050000078                                                                                     
7PESE                                                                                000000000045000                            
50005310201208212012082201320327379553       PES0000045000D001502012082111300180                                                
6024600045000122410132032737955300050000036                                                                                     
7PESE                                                                                000000000045000                            
50005410201208212012082201320328325282       PES0000045000M600822012082113440110                                                
6024600045000122410132032832528200050000090                                                                                     
7PESE                                                                                000000000045000                            
82012082200000100000540000014505000000000000000000000000000000000000000000054                                                   
9201208220000010000054000001450500000000000000000000000000000000000000000000054                                                 
