120110722PAGO FACIL               090060246FABIAN NORBERTO D´ERAMO                                                              
320110722000001FABIAN NORBERTO D´ERAMO                                                                                          
50000110201107212011072200502716940996       PES0000015500A028382011071812380003                                                
6024600015500111990050271694099600090000763                                                                                     
7PESE                                                                                000000000015500                            
50000210201107212011072217020524175829       PES0000016000A061432011072109210070                                                
6024600016000112081702052417582900040000057                                                                                     
7PESE                                                                                000000000016000                            
50000310201107212011072202312625096831       PES0000016500A089652011072119310245                                                
6024600016500112080231262509683100020000084                                                                                     
7PESE                                                                                000000000016500                            
50000410201107212011072200502525216796       PES0000019500M601252011072113210079                                                
6024600019500112060050252521679600050000057                                                                                     
7PESE                                                                                000000000019500                            
50000510201107212011072202310235357326       PES0000021500A048282011072116280017                                                
6024600021500112090231023535732600030000036                                                                                     
7PESE                                                                                000000000021500                            
82011072200000100000050000000890000000000000000000000000000000000000000000005                                                   
9201107220000010000005000000089000000000000000000000000000000000000000000000005                                                 
