120120222PAGO FACIL               090060246FABIAN NORBERTO D´ERAMO                                                              
320120222000001FABIAN NORBERTO D´ERAMO                                                                                          
50000110201202172012022200683636397651       PES0000021000A080382012021711590044                                                
6024600021000120540068363639765100020000063                                                                                     
7PESE                                                                                000000000021000                            
50000210201202172012022223060731368474       PES0000121600A103092012021705590012                                                
6024600121600120492306073136847400000000057                                                                                     
7PESE                                                                                000000000121600                            
50000310201202172012022223060127379642       PES0000121600A071272012021717020204                                                
6024600121600120522306012737964200000000015                                                                                     
7PESE                                                                                000000000121600                            
50000410201202172012022223061030594076       PES0000121600A092022012021715150340                                                
6024600121600120492306103059407600000000084                                                                                     
7PESE                                                                                000000000121600                            
50000510201202172012022223061030531366       PES0000121600A092022012021715150341                                                
6024600121600120492306103053136600000000042                                                                                     
7PESE                                                                                000000000121600                            
50000610201202172012022223061131908194       PES0000136600A700052012021710210040                                                
6024600136600120492306113190819400000000015                                                                                     
7PESE                                                                                000000000136600                            
50000710201202172012022201310522489395       PES0000097000A072612012021716370032                                                
6024600097000120510131052248939500000000090                                                                                     
7PESE                                                                                000000000097000                            
50000810201202172012022223061926934423       PES0000136600A093772012021716400109                                                
6024600136600120492306192693442300000000042                                                                                     
7PESE                                                                                000000000136600                            
50000910201202172012022223060836343175       PES0000121600L070332012021710008863                                                
6024600121600120522306083634317500000000084                                                                                     
7PESE                                                                                000000000121600                            
50001010201202172012022253010322041447       PES0000006000M601032012021715460144                                                
6024600006000120525301032204144700015000036                                                                                     
7PESE                                                                                000000000006000                            
50001110201202172012022223061930533159       PES0000136600M620282012021716350039                                                
6024600136600120492306193053315900000000078                                                                                     
7PESE                                                                                000000000136600                            
50001210201202172012022223061323617879       PES0000136600M620282012021717140050                                                
6024600136600120492306132361787900000000078                                                                                     
7PESE                                                                                000000000136600                            
50001310201202172012022201311713192358       PES0000097000M601252012021714030103                                                
6024600097000120510131171319235800000000021                                                                                     
7PESE                                                                                000000000097000                            
50001410201202172012022223061924517368       PES0000136600M750002012021718520050                                                
6024600136600120492306192451736800000000084                                                                                     
7PESE                                                                                000000000136600                            
50001510201202172012022223061839647384       PES0000136600M740042012021716430066                                                
6024600136600120492306183964738400000000042                                                                                     
7PESE                                                                                000000000136600                            
50001610201202182012022201311328070689       PES0000097000A103902012021719050191                                                
6024600097000120550131132807068900000000036                                                                                     
7PESE                                                                                000000000097000                            
50001710201202182012022299030232830421       PES0000043000A074672012021812160058                                                
6024600043000120569903023283042100000000000                                                                                     
7PESE                                                                                000000000043000                            
50001810201202182012022200683008330330       PES0000021000A028202012021812270007                                                
6024600021000120550068300833033000020000058                                                                                     
7PESE                                                                                000000000021000                            
50001910201202182012022223060937397425       PES0000121600A098212012021817500097                                                
6024600121600120492306093739742500000000063                                                                                     
7PESE                                                                                000000000121600                            
50002010201202182012022223060728544729       PES0000121600A098212012021817510098                                                
6024600121600120492306072854472900000000058                                                                                     
7PESE                                                                                000000000121600                            
50002110201202182012022223060935259721       PES0000121600A098212012021817520099                                                
6024600121600120492306093525972100000000063                                                                                     
7PESE                                                                                000000000121600                            
50002210201202182012022201310520864445       PES0000097000A076112012021818080005                                                
6024600097000120520131052086444500000000058                                                                                     
7PESE                                                                                000000000097000                            
50002310201202182012022223061928828972       PES0000136600A107512012021820030071                                                
6024600136600120492306192882897200000000000                                                                                     
7PESE                                                                                000000000136600                            
50002410201202202012022201311231611989       PES0000097000A060582012022015300175                                                
6024600097000120530131123161198900000000042                                                                                     
7PESE                                                                                000000000097000                            
50002510201202202012022200694235657972       PES0000019000A091192012022015360014                                                
6024600019000120510069423565797200010000684                                                                                     
7PESE                                                                                000000000019000                            
82012022200000100000250000025240000000000000000000000000000000000000000000025                                                   
9201202220000010000025000002524000000000000000000000000000000000000000000000025                                                 
