120120423PAGO FACIL               090060246FABIAN NORBERTO D´ERAMO                                                              
320120423000001FABIAN NORBERTO D´ERAMO                                                                                          
50000110201204202012042302350235096708       PES0000029000A068912012041918380151                                                
6024600029000121100235023509670800040000700                                                                                     
7PESE                                                                                000000000029000                            
50000210201204202012042399030133896263       PES0000043000A091062012042016510490                                                
6024600043000121189903013389626300000000084                                                                                     
7PESE                                                                                000000000043000                            
50000310201204202012042302351008625351       PES0000033000A070632012042017560111                                                
6024600033000121180235100862535100000000084                                                                                     
7PESE                                                                                000000000033000                            
50000410201204202012042302351811387121       PES0000020000L071192012042009155296                                                
6024600017000121100235181138712100030000400                                                                                     
7PESE                                                                                000000000020000                            
50000510201204202012042302350332773158       PES0000033000L071192012042016545430                                                
6024600033000121180235033277315800000000036                                                                                     
7PESE                                                                                000000000033000                            
50000610201204212012042302350426427456       PES0000033000A070632012042117380162                                                
6024600033000121180235042642745600000000058                                                                                     
7PESE                                                                                000000000033000                            
50000710201204222012042302353627729078       PES0000020000A032962012042212190140                                                
6024600020000121180235362772907800000000042                                                                                     
7PESE                                                                                000000000020000                            
82012042300000100000070000002110000000000000000000000000000000000000000000007                                                   
9201204230000010000007000000211000000000000000000000000000000000000000000000007                                                 
