120120523PAGO FACIL               090060246FABIAN NORBERTO D´ERAMO                                                              
320120523000001FABIAN NORBERTO D´ERAMO                                                                                          
50000110201205222012052399040128988282       PES0000032000A088882012052218550148                                                
6024600032000121459904012898828200000000078                                                                                     
7PESE                                                                                000000000032000                            
50000210201205222012052399030236359657       PES0000049000A081582012052218040081                                                
6024600049000121499903023635965700000000058                                                                                     
7PESE                                                                                000000000049000                            
82012052300000100000020000000810000000000000000000000000000000000000000000002                                                   
9201205230000010000002000000081000000000000000000000000000000000000000000000002                                                 
