120120723PAGO FACIL               090060246FABIAN NORBERTO D´ERAMO                                                              
320120723000001FABIAN NORBERTO D´ERAMO                                                                                          
50000110201207202012072300712525708290       PES0000018500A087612012072008540009                                                
6024600018500122090071252570829000090000016                                                                                     
7PESE                                                                                000000000018500                            
50000210201207202012072300712429812383       PES0000018500D000462012072010420081                                                
6024600018500122090071242981238300090000000                                                                                     
7PESE                                                                                000000000018500                            
50000310201207202012072359000324670632       PES0000016000A100022012072009270035                                                
6024600016000122065900032467063200000000090                                                                                     
7PESE                                                                                000000000016000                            
50000410201207202012072300712525216796       PES0000018500A091702012072013130115                                                
6024600018500122090071252521679600090000078                                                                                     
7PESE                                                                                000000000018500                            
50000510201207202012072300711114647031       PES0000018500A091702012072013130116                                                
6024600018500122090071111464703100090000016                                                                                     
7PESE                                                                                000000000018500                            
50000610201207202012072300714518056670       PES0000018500A080382012072012580081                                                
6024600018500122090071451805667000090000042                                                                                     
7PESE                                                                                000000000018500                            
50000710201207202012072300540135271379       PES0000076000D000482012072014300168                                                
6024600076000122020054013527137900000000736                                                                                     
7PESE                                                                                000000000076000                            
50000810201207202012072300540232573681       PES0000026000A078732012072011440086                                                
6024600026000122020054023257368100010000436                                                                                     
7PESE                                                                                000000000026000                            
50000910201207202012072300712525537779       PES0000018500A042332012072016540033                                                
6024600018500122090071252553777900090000042                                                                                     
7PESE                                                                                000000000018500                            
50001010201207202012072300714610149870       PES0000018500A096952012072016480330                                                
6024600018500122090071461014987000090000090                                                                                     
7PESE                                                                                000000000018500                            
50001110201207202012072300711118123929       PES0000018500A091662012072016120305                                                
6024600018500122090071111812392900090000021                                                                                     
7PESE                                                                                000000000018500                            
50001210201207202012072300714137679136       PES0000018500A091662012072016120306                                                
6024600018500122090071413767913600090000084                                                                                     
7PESE                                                                                000000000018500                            
50001310201207202012072317030625398415       PES0000025000A108012012072016380029                                                
6024600025000122041703062539841500050000000                                                                                     
7PESE                                                                                000000000025000                            
50001410201207202012072300540233597989       PES0000026000A085512012072011090095                                                
6024600026000122020054023359798900010000678                                                                                     
7PESE                                                                                000000000026000                            
50001510201207202012072300711816558435       PES0000018500A075132012072011100051                                                
6024600018500122090071181655843500090000000                                                                                     
7PESE                                                                                000000000018500                            
50001610201207202012072300712428057137       PES0000018500A093312012072017560009                                                
6024600018500122090071242805713700090000057                                                                                     
7PESE                                                                                000000000018500                            
50001710201207202012072300713005532839       PES0000018500A093312012072017560010                                                
6024600018500122090071300553283900090000079                                                                                     
7PESE                                                                                000000000018500                            
50001810201207202012072300540221903716       PES0000026000A032962012072016460017                                                
6024600026000122020054022190371600010000700                                                                                     
7PESE                                                                                000000000026000                            
50001910201207202012072300540233380040       PES0000026000A036692012072015140022                                                
6024600026000122020054023338004000010000716                                                                                     
7PESE                                                                                000000000026000                            
50002010201207202012072300540231344778       PES0000026000A095702012072018380112                                                
6024600026000122020054023134477800010000721                                                                                     
7PESE                                                                                000000000026000                            
50002110201207202012072399030134600312       PES0000049000A104232012072017250159                                                
6024600049000122099903013460031200000000015                                                                                     
7PESE                                                                                000000000049000                            
50002210201207202012072300540234600312       PES0000026000A104232012072017260160                                                
6024600026000122020054023460031200010000742                                                                                     
7PESE                                                                                000000000026000                            
50002310201207202012072300540234750295       PES0000026000D000482012072019240067                                                
6024600026000122020054023475029500010000737                                                                                     
7PESE                                                                                000000000026000                            
50002410201207202012072359000227802680       PES0000016000L070442012072009146232                                                
6024600016000122065900022780268000000000058                                                                                     
7PESE                                                                                000000000016000                            
50002510201207202012072300712526318412       PES0000018500M620412012072010080003                                                
6024600018500122090071252631841200090000042                                                                                     
7PESE                                                                                000000000018500                            
50002610201207202012072300712622386531       PES0000018500M660142012072011185446                                                
6024600018500122090071262238653100090000042                                                                                     
7PESE                                                                                000000000018500                            
50002710201207202012072300711914664563       PES0000018500M660142012072011185447                                                
6024600018500122090071191466456300090000084                                                                                     
7PESE                                                                                000000000018500                            
50002810201207202012072300712812507511       PES0000018500M660142012072011195448                                                
6024600018500122090071281250751100090000090                                                                                     
7PESE                                                                                000000000018500                            
50002910201207212012072300712523499815       PES0000018500A020722012072015550121                                                
6024600018500122090071252349981500090000016                                                                                     
7PESE                                                                                000000000018500                            
50003010201207212012072300712813117550       PES0000018500A020722012072015550122                                                
6024600018500122090071281311755000090000042                                                                                     
7PESE                                                                                000000000018500                            
50003110201207212012072300712429064764       PES0000018500A020722012072015550123                                                
6024600018500122090071242906476400090000058                                                                                     
7PESE                                                                                000000000018500                            
50003210201207212012072300712427442362       PES0000018500A112502012072011500046                                                
6024600018500122090071242744236200090000079                                                                                     
7PESE                                                                                000000000018500                            
50003310201207212012072300712525848882       PES0000018500A112262012072009440001                                                
6024600018500122090071252584888200090000037                                                                                     
7PESE                                                                                000000000018500                            
50003410201207212012072300712237019066       PES0000018500A092212012072110480090                                                
6024600018500122090071223701906600090000037                                                                                     
7PESE                                                                                000000000018500                            
50003510201207212012072300712622963407       PES0000018500A063842012072111180050                                                
6024600018500122090071262296340700090000042                                                                                     
7PESE                                                                                000000000018500                            
50003610201207212012072359000613269264       PES0000016000L070522012072110352876                                                
6024600016000122095900061326926400000000078                                                                                     
7PESE                                                                                000000000016000                            
82012072300000100000360000008055000000000000000000000000000000000000000000036                                                   
9201207230000010000036000000805500000000000000000000000000000000000000000000036                                                 
