120110923PAGO FACIL               090060246FABIAN NORBERTO D´ERAMO                                                              
320110923000001FABIAN NORBERTO D´ERAMO                                                                                          
50000110201109222011092300584742711732       PES0000005500A093412011092219240086                                                
6024600005500112720058474271173200015000063                                                                                     
7PESE                                                                                000000000005500                            
50000210201109222011092300504742711732       PES0000008500A093412011092219240087                                                
6024600008500112720050474271173200015000037                                                                                     
7PESE                                                                                000000000008500                            
50000310201109222011092337021623583037       PES0000009000L120162011092212113779                                                
6024600009000112723702162358303700000000078                                                                                     
7PESE                                                                                000000000009000                            
50000410201109222011092300500237050776       PES0000024500A070282011092208380013                                                
6024600024500112650050023705077600030000021                                                                                     
7PESE                                                                                000000000024500                            
50000510201109222011092300503725940274       PES0000024500L120232011092214218924                                                
6024600024500112660050372594027400030000057                                                                                     
7PESE                                                                                000000000024500                            
50000610201109222011092300502793976835       PES0000024500A086812011092218550243                                                
6024600024500112690050279397683500030000042                                                                                     
7PESE                                                                                000000000024500                            
50000710201109222011092300503632945480       PES0000024500A047802011092217390040                                                
6024600024500112700050363294548000030000078                                                                                     
7PESE                                                                                000000000024500                            
50000810201109222011092300500430693351       PES0000024500A092172011092212100188                                                
6024600024500112710050043069335100030000079                                                                                     
7PESE                                                                                000000000024500                            
50000910201109222011092300503730440409       PES0000024500A046092011092212410051                                                
6024600024500112720050373044040900030000057                                                                                     
7PESE                                                                                000000000024500                            
50001010201109222011092300534026861683       PES0000029000A072782011092214350163                                                
6024600029000112670053402686168300020000084                                                                                     
7PESE                                                                                000000000029000                            
50001110201109222011092301280422495786       PES0000036500A039042011092214490242                                                
6024600036500112650128042249578600000000090                                                                                     
7PESE                                                                                000000000036500                            
50001210201109222011092301280423808305       PES0000036500D001442011092213530202                                                
6024600036500112650128042380830500000000058                                                                                     
7PESE                                                                                000000000036500                            
50001310201109222011092301280424080143       PES0000036500A074252011092210430045                                                
6024600036500112650128042408014300000000021                                                                                     
7PESE                                                                                000000000036500                            
50001410201109222011092301280617025696       PES0000036500A043992011092213200074                                                
6024600036500112650128061702569600000000078                                                                                     
7PESE                                                                                000000000036500                            
50001510201109222011092301280714509224       PES0000036500A640322011092212140041                                                
6024600036500112650128071450922400000000099                                                                                     
7PESE                                                                                000000000036500                            
50001610201109222011092300530522326084       PES0000038500M600642011092216170083                                                
6024600038500112690053052232608400010000057                                                                                     
7PESE                                                                                000000000038500                            
82011092300000100000160000004200000000000000000000000000000000000000000000016                                                   
9201109230000010000016000000420000000000000000000000000000000000000000000000016                                                 
