120130123PAGO FACIL               090060246FABIAN NORBERTO D´ERAMO                                                              
320130123000001FABIAN NORBERTO D´ERAMO                                                                                          
50000110201301222013012300791104288826       PES0000007500A096182013012216160231                                                
6024600007500130240079110428882600000000099                                                                                     
7PESE                                                                                000000000007500                            
50000210201301222013012300792423090787       PES0000007500A600962013012214410056                                                
6024600007500130240079242309078700000000099                                                                                     
7PESE                                                                                000000000007500                            
50000310201301222013012373011112744202       PES0000010000A090842013012212340138                                                
6024600010000130247301111274420200020000042                                                                                     
7PESE                                                                                000000000010000                            
50000410201301222013012373011017744089       PES0000010000A112282013012212020003                                                
6024600010000130257301101774408900020000099                                                                                     
7PESE                                                                                000000000010000                            
50000510201301222013012373010229793391       PES0000010000A099482013012217440011                                                
6024600010000130287301022979339100020000163                                                                                     
7PESE                                                                                000000000010000                            
50000610201301222013012329090135882243       PES0000015000A034672013012220020113                                                
6024600015000130222909013588224300000000084                                                                                     
7PESE                                                                                000000000015000                            
50000710201301222013012329090224886326       PES0000015000A121002013012219000074                                                
6024600015000130222909022488632600000000058                                                                                     
7PESE                                                                                000000000015000                            
50000810201301222013012329090229108405       PES0000015000A097712013012213090255                                                
6024600015000130222909022910840500000000037                                                                                     
7PESE                                                                                000000000015000                            
50000910201301222013012329090631231630       PES0000015000A121002013012219010075                                                
6024600015000130222909063123163000000000063                                                                                     
7PESE                                                                                000000000015000                            
50001010201301222013012329090729531442       PES0000015000A097712013012213090254                                                
6024600015000130222909072953144200000000037                                                                                     
7PESE                                                                                000000000015000                            
50001110201301222013012329090822993367       PES0000015000A602102013012210030009                                                
6024600015000130222909082299336700000000037                                                                                     
7PESE                                                                                000000000015000                            
50001210201301222013012329090226946081       PES0000015000A086882013012215110108                                                
6024600015000130232909022694608100000000037                                                                                     
7PESE                                                                                000000000015000                            
50001310201301222013012329090132523298       PES0000015000A100392013012209000012                                                
6024600015000130282909013252329800000000058                                                                                     
7PESE                                                                                000000000015000                            
50001410201301222013012329090322172933       PES0000015000A076762013012211000046                                                
6024600015000130282909032217293300000000000                                                                                     
7PESE                                                                                000000000015000                            
50001510201301222013012329090225422343       PES0000015000A108182013012218470021                                                
6024600015000130292909022542234300000000021                                                                                     
7PESE                                                                                000000000015000                            
50001610201301222013012300784234435086       PES0000019500D000132013012214170184                                                
6024600019500130280078423443508600030000036                                                                                     
7PESE                                                                                000000000019500                            
50001710201301222013012302432626001048       PES0000030000M600472013012210320010                                                
6024600025000130200243262600104800050000236                                                                                     
7PESE                                                                                000000000030000                            
50001810201301222013012329091225085430       PES0000025000A086882013012215100107                                                
6024600025000130222909122508543000000000000                                                                                     
7PESE                                                                                000000000025000                            
50001910201301222013012329091316168839       PES0000025000A074252013012212250099                                                
6024600025000130232909131616883900000000063                                                                                     
7PESE                                                                                000000000025000                            
50002010201301222013012329091632197883       PES0000025000M600392013012211030023                                                
6024600025000130232909163219788300000000099                                                                                     
7PESE                                                                                000000000025000                            
50002110201301222013012329091316418118       PES0000025000A081982013012216360008                                                
6024600025000130292909131641811800000000084                                                                                     
7PESE                                                                                000000000025000                            
50002210201301222013012329091317020922       PES0000025000A081982013012216360007                                                
6024600025000130292909131702092200000000037                                                                                     
7PESE                                                                                000000000025000                            
50002310201301222013012329091413629526       PES0000025000A000622013012219580296                                                
6024600025000130292909141362952600000000000                                                                                     
7PESE                                                                                000000000025000                            
50002410201301222013012302432811623336       PES0000030000A010432013012211320190                                                
6024600030000130280243281162333600050000000                                                                                     
7PESE                                                                                000000000030000                            
50002510201301222013012302432623768055       PES0000030000A044382013012215420131                                                
6024600030000130290243262376805500050000084                                                                                     
7PESE                                                                                000000000030000                            
50002610201301222013012302430714186711       PES0000040000A091652013012212140186                                                
6024600035000130200243071418671100050000521                                                                                     
7PESE                                                                                000000000040000                            
50002710201301222013012302430233026621       PES0000040000A119862013012215360004                                                
6024600040000130280243023302662100075000057                                                                                     
7PESE                                                                                000000000040000                            
50002810201301222013012302430423474867       PES0000040000A010432013012211320191                                                
6024600040000130280243042347486700075000084                                                                                     
7PESE                                                                                000000000040000                            
50002910201301222013012302430522628740       PES0000040000A049232013012212080044                                                
6024600040000130280243052262874000075000058                                                                                     
7PESE                                                                                000000000040000                            
50003010201301222013012302430616918549       PES0000040000A112942013012209230014                                                
6024600040000130280243061691854900075000084                                                                                     
7PESE                                                                                000000000040000                            
50003110201301222013012399030129921135       PES0000053500A090522013012213240197                                                
6024600053500130289903012992113500000000079                                                                                     
7PESE                                                                                000000000053500                            
50003210201301222013012301341326980406       PES0000135000M613622013012211390120                                                
6024600135000130220134132698040600150000099                                                                                     
7PESE                                                                                000000000135000                            
50003310201301222013012301341425029685       PES0000135000M601842013012210510075                                                
6024600135000130230134142502968500150000036                                                                                     
7PESE                                                                                000000000135000                            
50003410201301222013012301341618429504       PES0000135000A081062013012210470162                                                
6024600135000130230134161842950400150000057                                                                                     
7PESE                                                                                000000000135000                            
50003510201301222013012301341425966400       PES0000135000M600052013012214280099                                                
6024600135000130240134142596640000150000078                                                                                     
7PESE                                                                                000000000135000                            
50003610201301222013012301341423474867       PES0000135000A010432013012211320192                                                
6024600135000130280134142347486700150000084                                                                                     
7PESE                                                                                000000000135000                            
50003710201301222013012301341424363632       PES0000135000A053772013012216530093                                                
6024600135000130280134142436363200150000090                                                                                     
7PESE                                                                                000000000135000                            
50003810201301222013012301341712862198       PES0000135000M620002013012213290087                                                
6024600135000130280134171286219800150000000                                                                                     
7PESE                                                                                000000000135000                            
50003910201301222013012301341233261186       PES0000135000A107512013012214430278                                                
6024600135000130290134123326118600150000042                                                                                     
7PESE                                                                                000000000135000                            
50004010201301222013012301341424258847       PES0000135000L070092013012208446297                                                
6024600135000130290134142425884700150000000                                                                                     
7PESE                                                                                000000000135000                            
50004110201301222013012301341618552187       PES0000135000A105112013012217250005                                                
6024600135000130290134161855218700150000084                                                                                     
7PESE                                                                                000000000135000                            
82013012300000100000410000020580000000000000000000000000000000000000000000041                                                   
9201301230000010000041000002058000000000000000000000000000000000000000000000041                                                 
