120121123PAGO FACIL               090060246FABIAN NORBERTO D´ERAMO                                                              
320121123000001FABIAN NORBERTO D´ERAMO                                                                                          
50000110201211222012112388880000000080       PES0000001500M600742012112213290225                                                
6024600001500123338888000000008000000000036                                                                                     
7PESE                                                                                000000000001500                            
50000210201211222012112372000517129793       PES0000009000A046592012112209590011                                                
6024600009000123297200051712979300000000000                                                                                     
7PESE                                                                                000000000009000                            
50000310201211222012112372000517881416       PES0000009000A046592012112209590012                                                
6024600009000123297200051788141600000000000                                                                                     
7PESE                                                                                000000000009000                            
50000410201211222012112372000523905193       PES0000009000A062782012112209540040                                                
6024600009000123297200052390519300000000021                                                                                     
7PESE                                                                                000000000009000                            
50000510201211222012112372000525011757       PES0000009000L070642012112209478311                                                
6024600009000123297200052501175700000000078                                                                                     
7PESE                                                                                000000000009000                            
50000610201211222012112372000527699007       PES0000009000A062782012112209540039                                                
6024600009000123297200052769900700000000042                                                                                     
7PESE                                                                                000000000009000                            
50000710201211222012112372000531113537       PES0000009000L070612012112209352182                                                
6024600009000123297200053111353700000000099                                                                                     
7PESE                                                                                000000000009000                            
50000810201211222012112372000544601402       PES0000009000A046592012112209590010                                                
6024600009000123297200054460140200000000021                                                                                     
7PESE                                                                                000000000009000                            
50000910201211222012112373000448709945       PES0000009500A068742012112220360083                                                
6024600009500123347300044870994500000000042                                                                                     
7PESE                                                                                000000000009500                            
50001010201211222012112359010420950763       PES0000011000A082002012112216310070                                                
6024600011000123335901042095076300000000063                                                                                     
7PESE                                                                                000000000011000                            
50001110201211222012112359011224037294       PES0000011000A082002012112216310071                                                
6024600011000123335901122403729400000000016                                                                                     
7PESE                                                                                000000000011000                            
50001210201211222012112372000323967606       PES0000012000L070642012112217318459                                                
6024600012000123297200032396760600000000079                                                                                     
7PESE                                                                                000000000012000                            
50001310201211222012112372000325163897       PES0000012000A810072012112210580009                                                
6024600012000123297200032516389700000000058                                                                                     
7PESE                                                                                000000000012000                            
50001410201211222012112372000328075293       PES0000012000L070612012112209072167                                                
6024600012000123297200032807529300000000000                                                                                     
7PESE                                                                                000000000012000                            
50001510201211222012112372000328979723       PES0000012000L070612012112209072165                                                
6024600012000123297200032897972300000000090                                                                                     
7PESE                                                                                000000000012000                            
50001610201211222012112372000329287331       PES0000012000A062782012112217240216                                                
6024600012000123297200032928733100000000079                                                                                     
7PESE                                                                                000000000012000                            
50001710201211222012112372000329382619       PES0000012000L070612012112209072166                                                
6024600012000123297200032938261900000000021                                                                                     
7PESE                                                                                000000000012000                            
50001810201211222012112372000332697476       PES0000012000A046602012112210480043                                                
6024600012000123297200033269747600000000015                                                                                     
7PESE                                                                                000000000012000                            
50001910201211222012112373000132879937       PES0000012000A082082012112214460260                                                
6024600012000123307300013287993700030000036                                                                                     
7PESE                                                                                000000000012000                            
50002010201211222012112373000133536146       PES0000012000A029422012112213210214                                                
6024600012000123317300013353614600030000000                                                                                     
7PESE                                                                                000000000012000                            
50002110201211222012112373000222301091       PES0000012000A068742012112220360084                                                
6024600012000123347300022230109100030000000                                                                                     
7PESE                                                                                000000000012000                            
50002210201211222012112329080725606333       PES0000015000A601832012112209110003                                                
6024600015000123312908072560633300030000016                                                                                     
7PESE                                                                                000000000015000                            
50002310201211222012112357010520063143       PES0000015000A066972012112220350159                                                
6024600015000123325701052006314300000000078                                                                                     
7PESE                                                                                000000000015000                            
50002410201211222012112398010124902013       PES0000015000A119302012112218010022                                                
6024600015000123329801012490201300000000090                                                                                     
7PESE                                                                                000000000015000                            
50002510201211222012112357011320412111       PES0000015000A110152012112218110104                                                
6024600015000123335701132041211100000000084                                                                                     
7PESE                                                                                000000000015000                            
50002610201211222012112357011327802573       PES0000015000A110152012112218110103                                                
6024600015000123335701132780257300000000058                                                                                     
7PESE                                                                                000000000015000                            
50002710201211222012112329080224205726       PES0000015000A099592012112213460045                                                
6024600015000123342908022420572600030000021                                                                                     
7PESE                                                                                000000000015000                            
50002810201211222012112372000221847410       PES0000016000A046572012112213110060                                                
6024600016000123297200022184741000000000057                                                                                     
7PESE                                                                                000000000016000                            
50002910201211222012112372000224777360       PES0000016000A046572012112213110061                                                
6024600016000123297200022477736000000000079                                                                                     
7PESE                                                                                000000000016000                            
50003010201211222012112372000224987398       PES0000016000A046602012112210480044                                                
6024600016000123297200022498739800000000079                                                                                     
7PESE                                                                                000000000016000                            
50003110201211222012112372000226450300       PES0000016000A046592012112214540029                                                
6024600016000123297200022645030000000000037                                                                                     
7PESE                                                                                000000000016000                            
50003210201211222012112372000238517597       PES0000016000A046592012112209590013                                                
6024600016000123297200023851759700000000021                                                                                     
7PESE                                                                                000000000016000                            
50003310201211222012112369012139485645       PES0000017500M620082012112209390007                                                
6024600017500123276901213948564500025000042                                                                                     
7PESE                                                                                000000000017500                            
50003410201211222012112369012717662105       PES0000017500M600262012112214060055                                                
6024600017500123276901271766210500025000021                                                                                     
7PESE                                                                                000000000017500                            
50003510201211222012112369013326350332       PES0000017500A088252012112211290038                                                
6024600017500123276901332635033200025000042                                                                                     
7PESE                                                                                000000000017500                            
50003610201211222012112369013327766693       PES0000017500A088252012112211290039                                                
6024600017500123276901332776669300025000037                                                                                     
7PESE                                                                                000000000017500                            
50003710201211222012112369012816056136       PES0000017500A077842012112214390060                                                
6024600017500123306901281605613600025000458                                                                                     
7PESE                                                                                000000000017500                            
50003810201211222012112372000127738600       PES0000020000L070642012112212208357                                                
6024600020000123297200012773860000000000036                                                                                     
7PESE                                                                                000000000020000                            
50003910201211222012112399020233903966       PES0000022000A109822012112213100150                                                
6024600022000123319902023390396600000000021                                                                                     
7PESE                                                                                000000000022000                            
50004010201211222012112329081820005898       PES0000023000M600762012112214090058                                                
6024600023000123272908182000589800020000000                                                                                     
7PESE                                                                                000000000023000                            
50004110201211222012112300770826674722       PES0000025500A116412012112209440007                                                
6024600025500123320077082667472200030000036                                                                                     
7PESE                                                                                000000000025500                            
50004210201211222012112300771022247634       PES0000025500A116412012112209440008                                                
6024600025500123320077102224763400030000058                                                                                     
7PESE                                                                                000000000025500                            
50004310201211222012112300773727605025       PES0000025500A116892012112210500015                                                
6024600025500123320077372760502500030000016                                                                                     
7PESE                                                                                000000000025500                            
50004410201211222012112300774330819062       PES0000025500A008222012112217530159                                                
6024600025500123320077433081906200030000036                                                                                     
7PESE                                                                                000000000025500                            
50004510201211222012112300774428056495       PES0000025500A008222012112217530158                                                
6024600025500123320077442805649500030000058                                                                                     
7PESE                                                                                000000000025500                            
50004610201211222012112300774331206719       PES0000025500A001632012112211200032                                                
6024600025500123330077433120671900030000016                                                                                     
7PESE                                                                                000000000025500                            
50004710201211222012112300772330991489       PES0000025500A033472012112212020174                                                
6024600025500123340077233099148900030000015                                                                                     
7PESE                                                                                000000000025500                            
50004810201211222012112399030135804671       PES0000049000A089832012112217490056                                                
6024600049000123349903013580467100000000036                                                                                     
7PESE                                                                                000000000049000                            
50004910201211222012112301331326537226       PES0000052000A031192012112216430056                                                
6024600052000123310133132653722600080000063                                                                                     
7PESE                                                                                000000000052000                            
50005010201211222012112301331330136765       PES0000052000A032972012112214140170                                                
6024600052000123310133133013676500080000090                                                                                     
7PESE                                                                                000000000052000                            
50005110201211222012112301331617493248       PES0000052000A075432012112210030146                                                
6024600052000123310133161749324800080000021                                                                                     
7PESE                                                                                000000000052000                            
50005210201211222012112301331714526339       PES0000052000A091652012112212020058                                                
6024600052000123310133171452633900080000016                                                                                     
7PESE                                                                                000000000052000                            
50005310201211222012112301331136658642       PES0000052000A106102012112216550066                                                
6024600052000123320133113665864200080000000                                                                                     
7PESE                                                                                000000000052000                            
50005410201211222012112301331134555385       PES0000052000A085572012112216230152                                                
6024600052000123330133113455538500080000042                                                                                     
7PESE                                                                                000000000052000                            
50005510201211222012112301331134818160       PES0000052000A026442012112220530294                                                
6024600052000123340133113481816000080000099                                                                                     
7PESE                                                                                000000000052000                            
82012112300000100000550000011300000000000000000000000000000000000000000000055                                                   
9201211230000010000055000001130000000000000000000000000000000000000000000000055                                                 
