120120823PAGO FACIL               090060246FABIAN NORBERTO D´ERAMO                                                              
320120823000001FABIAN NORBERTO D´ERAMO                                                                                          
50000110201208222012082300712333118639       PES0000023500L120102012082114282427                                                
6024600023500122360071233311863900055000016                                                                                     
7PESE                                                                                000000000023500                            
50000210201208222012082302393820332422       PES0000026000A620572012082110550035                                                
6024600023000122330239382033242200030000457                                                                                     
7PESE                                                                                000000000026000                            
50000310201208222012082300712426551367       PES0000023500M600372012082110430030                                                
6024600023500122340071242655136700055000021                                                                                     
7PESE                                                                                000000000023500                            
50000410201208222012082302400234630998       PES0000017000A029772012082216300008                                                
6024600017000122350240023463099800030000057                                                                                     
7PESE                                                                                000000000017000                            
50000510201208222012082300712428382548       PES0000023500A034672012082211530101                                                
6024600023500122350071242838254800055000021                                                                                     
7PESE                                                                                000000000023500                            
50000610201208222012082300714424870852       PES0000023500A090072012082210070033                                                
6024600023500122350071442487085200055000058                                                                                     
7PESE                                                                                000000000023500                            
50000710201208222012082300712717099343       PES0000023500M640432012082208460007                                                
6024600023500122370071271709934300055000021                                                                                     
7PESE                                                                                000000000023500                            
50000810201208222012082300710634647768       PES0000023500D000412012082213580084                                                
6024600023500122410071063464776800055000090                                                                                     
7PESE                                                                                000000000023500                            
50000910201208222012082300711529479624       PES0000023500M600072012082211390047                                                
6024600023500122410071152947962400055000084                                                                                     
7PESE                                                                                000000000023500                            
50001010201208222012082300712428028256       PES0000023500M600072012082211380046                                                
6024600023500122410071242802825600055000021                                                                                     
7PESE                                                                                000000000023500                            
50001110201208222012082300714512815135       PES0000023500A028392012082216050128                                                
6024600023500122410071451281513500055000063                                                                                     
7PESE                                                                                000000000023500                            
50001210201208222012082300710634934295       PES0000023500A055202012082215340093                                                
6024600023500122420071063493429500055000000                                                                                     
7PESE                                                                                000000000023500                            
50001310201208222012082300712716493032       PES0000023500A102852012082213320147                                                
6024600023500122420071271649303200055000063                                                                                     
7PESE                                                                                000000000023500                            
50001410201208222012082317030721940772       PES0000025000A060922012082212400034                                                
6024600025000122381703072194077200050000078                                                                                     
7PESE                                                                                000000000025000                            
50001510201208222012082317030527423379       PES0000025000M660232012082212310117                                                
6024600025000122411703052742337900050000084                                                                                     
7PESE                                                                                000000000025000                            
50001610201208222012082300540332944859       PES0000027000A095132012082213000019                                                
6024600027000122420054033294485900000000042                                                                                     
7PESE                                                                                000000000027000                            
50001710201208222012082300540333380040       PES0000027000A036692012082215430111                                                
6024600027000122420054033338004000000000058                                                                                     
7PESE                                                                                000000000027000                            
50001810201208222012082300540337357940       PES0000027000A012652012082217000099                                                
6024600027000122420054033735794000000000015                                                                                     
7PESE                                                                                000000000027000                            
50001910201208222012082302390330229110       PES0000036000M620022012082210510031                                                
6024600033000122330239033022911000030000458                                                                                     
7PESE                                                                                000000000036000                            
50002010201208222012082302390427757289       PES0000036000A097192012082217580095                                                
6024600036000122370239042775728900000000016                                                                                     
7PESE                                                                                000000000036000                            
50002110201208222012082302390622434017       PES0000036000A109772012082216430006                                                
6024600036000122370239062243401700000000090                                                                                     
7PESE                                                                                000000000036000                            
50002210201208222012082302392632393316       PES0000036000A037752012082219420234                                                
6024600036000122370239263239331600000000078                                                                                     
7PESE                                                                                000000000036000                            
50002310201208222012082302392632868978       PES0000036000A034222012082217410128                                                
6024600036000122370239263286897800000000058                                                                                     
7PESE                                                                                000000000036000                            
50002410201208222012082302392727500011       PES0000036000A017262012082211460354                                                
6024600036000122370239272750001100000000021                                                                                     
7PESE                                                                                000000000036000                            
50002510201208222012082301322220017621       PES0000045000A044492012082209210322                                                
6024600045000122360132222001762100050000090                                                                                     
7PESE                                                                                000000000045000                            
50002610201208222012082301320230511877       PES0000045000A099212012082209210021                                                
6024600045000122410132023051187700050000099                                                                                     
7PESE                                                                                000000000045000                            
50002710201208222012082301320521416648       PES0000045000A061432012082216100290                                                
6024600045000122410132052141664800050000021                                                                                     
7PESE                                                                                000000000045000                            
50002810201208222012082301320522434017       PES0000045000A109772012082216430007                                                
6024600045000122410132052243401700050000015                                                                                     
7PESE                                                                                000000000045000                            
50002910201208222012082301320618512049       PES0000045000D001332012082218440258                                                
6024600045000122410132061851204900050000063                                                                                     
7PESE                                                                                000000000045000                            
50003010201208222012082301320137097580       PES0000045000A061432012082216390310                                                
6024600045000122420132013709758000050000063                                                                                     
7PESE                                                                                000000000045000                            
50003110201208222012082301320523027879       PES0000045000D001332012082219020290                                                
6024600045000122420132052302787900050000021                                                                                     
7PESE                                                                                000000000045000                            
82012082300000100000310000009635000000000000000000000000000000000000000000031                                                   
9201208230000010000031000000963500000000000000000000000000000000000000000000031                                                 
