120121024PAGO FACIL               090060246FABIAN NORBERTO D´ERAMO                                                              
320121024000001FABIAN NORBERTO D´ERAMO                                                                                          
50000110201210232012102401330328284530       PES0000052000A000162012102214360015                                                
6024600052000122990133032828453000080000063                                                                                     
7PESE                                                                                000000000052000                            
50000210201210232012102400720521104506       PES0000047500A101482012102219470099                                                
6024600047500122970072052110450600000000036                                                                                     
7PESE                                                                                000000000047500                            
50000310201210232012102498010129500114       PES0000015000A053122012102214240005                                                
6024600015000122989801012950011400000000016                                                                                     
7PESE                                                                                000000000015000                            
50000410201210232012102469001004974614       PES0000006000A620792012102309350009                                                
6024600006000123006900100497461400000000000                                                                                     
7PESE                                                                                000000000006000                            
50000510201210232012102444022122644197       PES0000008000A055792012102311500048                                                
6024600008000123014402212264419700000000042                                                                                     
7PESE                                                                                000000000008000                            
50000610201210232012102444022140730007       PES0000008000A055792012102311510049                                                
6024600008000123014402214073000700000000090                                                                                     
7PESE                                                                                000000000008000                            
50000710201210232012102465000733785155       PES0000011700A111272012102313020100                                                
6024600011700123036500073378515500000000063                                                                                     
7PESE                                                                                000000000011700                            
50000810201210232012102465000433066487       PES0000014500L120102012102310588195                                                
6024600013000122946500043306648700015000321                                                                                     
7PESE                                                                                000000000014500                            
50000910201210232012102470000620080264       PES0000013000A110042012102310300008                                                
6024600013000122977000062008026400000000078                                                                                     
7PESE                                                                                000000000013000                            
50001010201210232012102465000228020770       PES0000013000A051222012102315050196                                                
6024600013000123026500022802077000000000016                                                                                     
7PESE                                                                                000000000013000                            
50001110201210232012102465000135989631       PES0000013000A114352012102320120222                                                
6024600013000123036500013598963100000000058                                                                                     
7PESE                                                                                000000000013000                            
50001210201210232012102465000314926531       PES0000013000A111272012102316140004                                                
6024600013000123046500031492653100000000037                                                                                     
7PESE                                                                                000000000013000                            
50001310201210232012102400751334977464       PES0000022500A031192012102319150203                                                
6024600022500123030075133497746400020000084                                                                                     
7PESE                                                                                000000000022500                            
50001410201210232012102418400235177244       PES0000025000A110642012102311400049                                                
6024600025000123001840023517724400000000000                                                                                     
7PESE                                                                                000000000025000                            
50001510201210232012102418401238407880       PES0000025000A017262012102310450043                                                
6024600025000123001840123840788000000000058                                                                                     
7PESE                                                                                000000000025000                            
50001610201210232012102400711116649269       PES0000032500A116342012102315320204                                                
6024600032500122970071111664926900000000015                                                                                     
7PESE                                                                                000000000032500                            
50001710201210232012102400711334492430       PES0000032500A055202012102316150059                                                
6024600032500122970071133449243000000000015                                                                                     
7PESE                                                                                000000000032500                            
50001810201210232012102400712140062439       PES0000032500A109842012102314390027                                                
6024600032500122970071214006243900000000021                                                                                     
7PESE                                                                                000000000032500                            
50001910201210232012102400712620425184       PES0000032500A085552012102317420119                                                
6024600032500122970071262042518400000000058                                                                                     
7PESE                                                                                000000000032500                            
50002010201210232012102400712814287851       PES0000032500A113802012102317010011                                                
6024600032500122970071281428785100000000037                                                                                     
7PESE                                                                                000000000032500                            
50002110201210232012102400713216926151       PES0000032500A085552012102317420120                                                
6024600032500122970071321692615100000000090                                                                                     
7PESE                                                                                000000000032500                            
50002210201210232012102400710828392070       PES0000032500A113052012102318510202                                                
6024600032500122980071082839207000000000079                                                                                     
7PESE                                                                                000000000032500                            
50002310201210232012102400712525726224       PES0000032500M620162012102309230003                                                
6024600032500122980071252572622400000000037                                                                                     
7PESE                                                                                000000000032500                            
50002410201210232012102400710733283103       PES0000032500A085592012102314500212                                                
6024600032500122990071073328310300000000016                                                                                     
7PESE                                                                                000000000032500                            
50002510201210232012102400711529070900       PES0000032500A112632012102310040026                                                
6024600032500122990071152907090000000000042                                                                                     
7PESE                                                                                000000000032500                            
50002610201210232012102400712333450231       PES0000032500A025052012102318520062                                                
6024600032500122990071233345023100000000037                                                                                     
7PESE                                                                                000000000032500                            
50002710201210232012102400712428464406       PES0000032500A056912012102310270017                                                
6024600032500122990071242846440600000000084                                                                                     
7PESE                                                                                000000000032500                            
50002810201210232012102400712429635734       PES0000032500A049072012102310420078                                                
6024600032500122990071242963573400000000057                                                                                     
7PESE                                                                                000000000032500                            
50002910201210232012102400712525940323       PES0000032500A098552012102315580268                                                
6024600032500122990071252594032300000000078                                                                                     
7PESE                                                                                000000000032500                            
50003010201210232012102400712526044379       PES0000032500A108262012102309510030                                                
6024600032500122990071252604437900000000042                                                                                     
7PESE                                                                                000000000032500                            
50003110201210232012102400712622406673       PES0000032500A112632012102310040027                                                
6024600032500122990071262240667300000000000                                                                                     
7PESE                                                                                000000000032500                            
50003210201210232012102400712911221380       PES0000032500A074192012102313390199                                                
6024600032500122990071291122138000000000057                                                                                     
7PESE                                                                                000000000032500                            
50003310201210232012102400713442711732       PES0000032500A093412012102318140051                                                
6024600032500122990071344271173200000000090                                                                                     
7PESE                                                                                000000000032500                            
50003410201210232012102400713635983073       PES0000032500A085562012102309470011                                                
6024600032500122990071363598307300000000099                                                                                     
7PESE                                                                                000000000032500                            
50003510201210232012102400713825806877       PES0000032500A037092012102319490030                                                
6024600032500122990071382580687700000000058                                                                                     
7PESE                                                                                000000000032500                            
50003610201210232012102400713892495300       PES0000032500A070822012102311520053                                                
6024600032500122990071389249530000000000099                                                                                     
7PESE                                                                                000000000032500                            
50003710201210232012102400714234862804       PES0000032500D000182012102317280220                                                
6024600032500122990071423486280400000000042                                                                                     
7PESE                                                                                000000000032500                            
50003810201210232012102400714330886926       PES0000032500A063352012102310520016                                                
6024600032500122990071433088692600000000000                                                                                     
7PESE                                                                                000000000032500                            
50003910201210232012102400714332103812       PES0000032500L120292012102310476509                                                
6024600032500122990071433210381200000000021                                                                                     
7PESE                                                                                000000000032500                            
50004010201210232012102400714611294571       PES0000032500A049022012102316430021                                                
6024600032500122990071461129457100000000084                                                                                     
7PESE                                                                                000000000032500                            
50004110201210232012102400722717494478       PES0000037500A091122012102313300155                                                
6024600037500122990072271749447800000000084                                                                                     
7PESE                                                                                000000000037500                            
50004210201210232012102400723331951186       PES0000037500D001472012102312350201                                                
6024600037500122990072333195118600000000090                                                                                     
7PESE                                                                                000000000037500                            
50004310201210232012102400723939336080       PES0000037500A086882012102314520158                                                
6024600037500122990072393933608000000000042                                                                                     
7PESE                                                                                000000000037500                            
50004410201210232012102400724025506065       PES0000037500A116832012102312350020                                                
6024600037500122990072402550606500000000078                                                                                     
7PESE                                                                                000000000037500                            
50004510201210232012102400720529827280       PES0000047500A091792012102313080332                                                
6024600047500122970072052982728000000000084                                                                                     
7PESE                                                                                000000000047500                            
50004610201210232012102400720616649269       PES0000047500A116342012102315320205                                                
6024600047500122970072061664926900000000021                                                                                     
7PESE                                                                                000000000047500                            
50004710201210232012102400721231252420       PES0000047500A088612012102314000134                                                
6024600047500122970072123125242000000000015                                                                                     
7PESE                                                                                000000000047500                            
50004810201210232012102400720522878040       PES0000047500A091792012102313080333                                                
6024600047500122980072052287804000000000021                                                                                     
7PESE                                                                                000000000047500                            
50004910201210232012102400720138152113       PES0000047500A091122012102313300156                                                
6024600047500122990072013815211300000000084                                                                                     
7PESE                                                                                000000000047500                            
50005010201210232012102400720232310414       PES0000047500D001512012102311150076                                                
6024600047500122990072023231041400000000063                                                                                     
7PESE                                                                                000000000047500                            
50005110201210232012102400720425705177       PES0000047500A091152012102312400184                                                
6024600047500122990072042570517700000000057                                                                                     
7PESE                                                                                000000000047500                            
50005210201210232012102400720520636671       PES0000047500A091652012102310500039                                                
6024600047500122990072052063667100000000021                                                                                     
7PESE                                                                                000000000047500                            
50005310201210232012102400720618380580       PES0000047500A116832012102312340019                                                
6024600047500122990072061838058000000000084                                                                                     
7PESE                                                                                000000000047500                            
50005410201210232012102400720618435674       PES0000047500D000562012102314380219                                                
6024600047500122990072061843567400000000084                                                                                     
7PESE                                                                                000000000047500                            
50005510201210232012102400720712969622       PES0000047500A008222012102315090085                                                
6024600047500122990072071296962200000000000                                                                                     
7PESE                                                                                000000000047500                            
50005610201210232012102400720713888468       PES0000047500M600092012102313240190                                                
6024600047500122990072071388846800000000063                                                                                     
7PESE                                                                                000000000047500                            
50005710201210232012102400721135241007       PES0000047500A016682012102310070009                                                
6024600047500122990072113524100700000000063                                                                                     
7PESE                                                                                000000000047500                            
50005810201210232012102401330424755026       PES0000052000A091782012102312440198                                                
6024600052000122970133042475502600080000063                                                                                     
7PESE                                                                                000000000052000                            
50005910201210232012102401330426312989       PES0000052000A051312012102313270153                                                
6024600052000122970133042631298900080000058                                                                                     
7PESE                                                                                000000000052000                            
50006010201210232012102401331423458819       PES0000052000A091662012102313440177                                                
6024600052000122970133142345881900080000015                                                                                     
7PESE                                                                                000000000052000                            
50006110201210232012102401331423706537       PES0000052000A080942012102309130002                                                
6024600052000122970133142370653700080000000                                                                                     
7PESE                                                                                000000000052000                            
50006210201210232012102401330520864445       PES0000052000A047502012102314110047                                                
6024600052000122980133052086444500080000042                                                                                     
7PESE                                                                                000000000052000                            
50006310201210232012102401331522167074       PES0000052000A047502012102314110046                                                
6024600052000122980133152216707400080000084                                                                                     
7PESE                                                                                000000000052000                            
50006410201210232012102401331522171919       PES0000052000M600132012102310540021                                                
6024600052000122980133152217191900080000042                                                                                     
7PESE                                                                                000000000052000                            
50006510201210232012102401331714284990       PES0000052000A047502012102314110045                                                
6024600052000122980133171428499000080000084                                                                                     
7PESE                                                                                000000000052000                            
50006610201210232012102401331617030174       PES0000052000A024232012102310270045                                                
6024600052000122990133161703017400080000058                                                                                     
7PESE                                                                                000000000052000                            
50006710201210232012102401331713916635       PES0000052000A109922012102319150064                                                
6024600052000122990133171391663500080000084                                                                                     
7PESE                                                                                000000000052000                            
50006810201210232012102401330327511939       PES0000052000A093992012102316160011                                                
6024600052000123000133032751193900080000099                                                                                     
7PESE                                                                                000000000052000                            
50006910201210232012102401331714371454       PES0000052000A076112012102320180097                                                
6024600052000123000133171437145400080000037                                                                                     
7PESE                                                                                000000000052000                            
50007010201210232012102401331425452478       PES0000052000A028962012102317070066                                                
6024600052000123010133142545247800080000016                                                                                     
7PESE                                                                                000000000052000                            
50007110201210232012102401331616918549       PES0000052000A112932012102309150001                                                
6024600052000123030133161691854900080000079                                                                                     
7PESE                                                                                000000000052000                            
50007210201210232012102401331712862198       PES0000052000M620002012102312350079                                                
6024600052000123030133171286219800080000099                                                                                     
7PESE                                                                                000000000052000                            
50007310201210232012102401331425029685       PES0000052000A601832012102310350032                                                
6024600052000123040133142502968500080000099                                                                                     
7PESE                                                                                000000000052000                            
50007410201210232012102401331522495786       PES0000052000A087612012102318060045                                                
6024600052000123040133152249578600080000042                                                                                     
7PESE                                                                                000000000052000                            
50007510201210232012102401331617123456       PES0000052000A018312012102319120038                                                
6024600052000123040133161712345600080000099                                                                                     
7PESE                                                                                000000000052000                            
50007610201210232012102460001331938502       PES0000085000A097502012102312410048                                                
6024600085000122986000133193850200000000042                                                                                     
7PESE                                                                                000000000085000                            
82012102400000100000760000028882000000000000000000000000000000000000000000076                                                   
9201210240000010000076000002888200000000000000000000000000000000000000000000076                                                 
