120130124PAGO FACIL               090060246FABIAN NORBERTO D´ERAMO                                                              
320130124000001FABIAN NORBERTO D´ERAMO                                                                                          
50000110201301232013012400790814327439       PES0000007500A049072013012314540304                                                
6024600007500130240079081432743900000000021                                                                                     
7PESE                                                                                000000000007500                            
50000210201301232013012473010632281630       PES0000010000A096832013012319510076                                                
6024600010000130237301063228163000020000078                                                                                     
7PESE                                                                                000000000010000                            
50000310201301232013012473010727249395       PES0000010000A067682013012315200039                                                
6024600010000130237301072724939500020000042                                                                                     
7PESE                                                                                000000000010000                            
50000410201301232013012473010226423365       PES0000010000A660452013012309030031                                                
6024600010000130247301022642336500020000042                                                                                     
7PESE                                                                                000000000010000                            
50000510201301232013012473011017372599       PES0000010000A115092013012311430038                                                
6024600010000130277301101737259900020000063                                                                                     
7PESE                                                                                000000000010000                            
50000610201301232013012473010323242909       PES0000010000A120452013012316490022                                                
6024600010000130287301032324290900020000257                                                                                     
7PESE                                                                                000000000010000                            
50000710201301232013012473010630309679       PES0000010000A052412013012319110082                                                
6024600010000130287301063030967900020000258                                                                                     
7PESE                                                                                000000000010000                            
50000810201301232013012473010635528958       PES0000010000A063372013012311480064                                                
6024600010000130287301063552895800020000200                                                                                     
7PESE                                                                                000000000010000                            
50000910201301232013012473010727752820       PES0000010000A079862013012312300090                                                
6024600010000130287301072775282000020000299                                                                                     
7PESE                                                                                000000000010000                            
50001010201301232013012473010728580785       PES0000010000A036012013012319370145                                                
6024600010000130287301072858078500020000284                                                                                     
7PESE                                                                                000000000010000                            
50001110201301232013012473010822958843       PES0000010000A036012013012309590032                                                
6024600010000130287301082295884300020000063                                                                                     
7PESE                                                                                000000000010000                            
50001210201301232013012473010922300993       PES0000010000A120452013012316500023                                                
6024600010000130287301092230099300020000284                                                                                     
7PESE                                                                                000000000010000                            
50001310201301232013012473011018175121       PES0000010000A052412013012319110081                                                
6024600010000130287301101817512100020000216                                                                                     
7PESE                                                                                000000000010000                            
50001410201301232013012429090225020422       PES0000015000M601982013012311348858                                                
6024600015000130232909022502042200000000015                                                                                     
7PESE                                                                                000000000015000                            
50001510201301232013012429090322825214       PES0000015000A088612013012314470104                                                
6024600015000130232909032282521400000000042                                                                                     
7PESE                                                                                000000000015000                            
50001610201301232013012429090702943875       PES0000015000M601982013012311348859                                                
6024600015000130232909070294387500000000057                                                                                     
7PESE                                                                                000000000015000                            
50001710201301232013012429090724165098       PES0000015000D000142013012309290014                                                
6024600015000130232909072416509800000000058                                                                                     
7PESE                                                                                000000000015000                            
50001810201301232013012429090226184247       PES0000015000D001392013012317200082                                                
6024600015000130292909022618424700000000090                                                                                     
7PESE                                                                                000000000015000                            
50001910201301232013012429090226351428       PES0000015000A057532013012319170035                                                
6024600015000130302909022635142800000000063                                                                                     
7PESE                                                                                000000000015000                            
50002010201301232013012429090723508476       PES0000015000A091702013012314180273                                                
6024600015000130302909072350847600000000021                                                                                     
7PESE                                                                                000000000015000                            
50002110201301232013012429091726949442       PES0000025000D001732013012317540116                                                
6024600025000130242909172694944200000000000                                                                                     
7PESE                                                                                000000000025000                            
50002210201301232013012429091822278509       PES0000025000A108712013012315280223                                                
6024600025000130242909182227850900000000042                                                                                     
7PESE                                                                                000000000025000                            
50002310201301232013012429091321772330       PES0000025000A057532013012312140072                                                
6024600025000130292909132177233000000000090                                                                                     
7PESE                                                                                000000000025000                            
50002410201301232013012429091727050379       PES0000025000A108712013012315280222                                                
6024600025000130302909172705037900000000058                                                                                     
7PESE                                                                                000000000025000                            
50002510201301232013012402430520763332       PES0000040000A108712013012315270221                                                
6024600035000130200243052076333200050000378                                                                                     
7PESE                                                                                000000000040000                            
50002610201301232013012402430520384882       PES0000040000A092052013012314330354                                                
6024600040000130280243052038488200075000084                                                                                     
7PESE                                                                                000000000040000                            
50002710201301232013012402430618277606       PES0000040000A040542013012312580214                                                
6024600040000130280243061827760600075000099                                                                                     
7PESE                                                                                000000000040000                            
50002810201301232013012402430328933333       PES0000040000A092142013012314480138                                                
6024600040000130300243032893333300075000021                                                                                     
7PESE                                                                                000000000040000                            
50002910201301232013012401341424687132       PES0000135000D000052013012316160113                                                
6024600135000130230134142468713200150000084                                                                                     
7PESE                                                                                000000000135000                            
50003010201301232013012401341520503633       PES0000135000D001702013012312030087                                                
6024600135000130230134152050363300150000021                                                                                     
7PESE                                                                                000000000135000                            
50003110201301232013012401341522434017       PES0000135000A109772013012310370052                                                
6024600135000130230134152243401700150000000                                                                                     
7PESE                                                                                000000000135000                            
50003210201301232013012401341522185215       PES0000135000A026442013012312540009                                                
6024600135000130250134152218521500150000057                                                                                     
7PESE                                                                                000000000135000                            
50003310201301232013012401341522860183       PES0000135000A110642013012318200081                                                
6024600135000130250134152286018300150000042                                                                                     
7PESE                                                                                000000000135000                            
50003410201301232013012401341423508053       PES0000135000A104162013012311120059                                                
6024600135000130280134142350805300150000099                                                                                     
7PESE                                                                                000000000135000                            
50003510201301232013012401341327180990       PES0000135000D000402013012319120083                                                
6024600135000130290134132718099000150000042                                                                                     
7PESE                                                                                000000000135000                            
50003610201301232013012401341520022587       PES0000135000A118142013012318560244                                                
6024600135000130290134152002258700150000063                                                                                     
7PESE                                                                                000000000135000                            
50003710201301232013012401341520991636       PES0000135000A043122013012308510011                                                
6024600135000130290134152099163600150000084                                                                                     
7PESE                                                                                000000000135000                            
50003810201301232013012401341521080930       PES0000135000A063832013012313300083                                                
6024600135000130290134152108093000150000016                                                                                     
7PESE                                                                                000000000135000                            
50003910201301232013012401341521403779       PES0000135000L070612013012318411228                                                
6024600135000130290134152140377900150000079                                                                                     
7PESE                                                                                000000000135000                            
50004010201301232013012401341618382262       PES0000135000L070612013012318411227                                                
6024600135000130290134161838226200150000016                                                                                     
7PESE                                                                                000000000135000                            
50004110201301232013012401341422855681       PES0000135000A055102013012311590107                                                
6024600135000130300134142285568100150000057                                                                                     
7PESE                                                                                000000000135000                            
50004210201301232013012401341426172135       PES0000135000A099542013012312430129                                                
6024600135000130300134142617213500150000078                                                                                     
7PESE                                                                                000000000135000                            
82013012400000100000420000023825000000000000000000000000000000000000000000042                                                   
9201301240000010000042000002382500000000000000000000000000000000000000000000042                                                 
