120110725PAGO FACIL               090060246FABIAN NORBERTO D´ERAMO                                                              
320110725000001FABIAN NORBERTO D´ERAMO                                                                                          
50000110201107222011072517021006303728       PES0000016000A029182011072211400116                                                
6024600016000112101702100630372800040000057                                                                                     
7PESE                                                                                000000000016000                            
50000210201107222011072500540230590893       PES0000027000D001412011072214040014                                                
6024600027000112100054023059089300015000057                                                                                     
7PESE                                                                                000000000027000                            
50000310201107222011072500520514325696       PES0000026500A058062011072210070036                                                
6024600026500112090052051432569600005000079                                                                                     
7PESE                                                                                000000000026500                            
50000410201107232011072599030233017000       PES0000041000A090572011072309190007                                                
6024600041000112109903023301700000000000021                                                                                     
7PESE                                                                                000000000041000                            
50000510201107232011072500530714569641       PES0000027000A011402011072309120016                                                
6024600027000112100053071456964100115000084                                                                                     
7PESE                                                                                000000000027000                            
82011072500000100000050000001375000000000000000000000000000000000000000000005                                                   
9201107250000010000005000000137500000000000000000000000000000000000000000000005                                                 
