120110425PAGO FACIL               090060246FABIAN NORBERTO D´ERAMO                                                              
320110425000001FABIAN NORBERTO D´ERAMO                                                                                          
50000110201104202011042502280522489395       PES0000030000A031212011042011520132                                                
6024600027500111090228052248939500025000790                                                                                     
7PESE                                                                                000000000030000                            
50000210201104202011042502280522366518       PES0000030000A031212011042012050144                                                
6024600030000111170228052236651800000000099                                                                                     
7PESE                                                                                000000000030000                            
50000310201104202011042501271614189313       PES0000018000A099812011042012230103                                                
6024600018000111150127161418931300020000079                                                                                     
7PESE                                                                                000000000018000                            
50000410201104202011042502281232554625       PES0000030000A601482011042016560157                                                
6024600030000111170228123255462500000000084                                                                                     
7PESE                                                                                000000000030000                            
50000510201104202011042502283938407880       PES0000016000A017262011042018520010                                                
6024600016000111170228393840788000000000084                                                                                     
7PESE                                                                                000000000016000                            
50000610201104202011042501272118084757       PES0000010000A049542011042011240060                                                
6024600010000111170127211808475700010000000                                                                                     
7PESE                                                                                000000000010000                            
50000710201104202011042501272122032154       PES0000010000A049542011042011240061                                                
6024600010000111160127212203215400010000084                                                                                     
7PESE                                                                                000000000010000                            
50000810201104202011042501270226133119       PES0000018000A049542011042011240062                                                
6024600018000111160127022613311900020000058                                                                                     
7PESE                                                                                000000000018000                            
50000910201104212011042502281618324344       PES0000030000A097652011042109350009                                                
6024600027500111090228161832434400025000258                                                                                     
7PESE                                                                                000000000030000                            
50001010201104212011042548011218377145       PES0000020000M800012011042111540017                                                
6024600020000111184801121837714500000000057                                                                                     
7PESE                                                                                000000000020000                            
50001110201104232011042501271322887900       PES0000018000A001862011042318210056                                                
6024600018000111160127132288790000020000000                                                                                     
7PESE                                                                                000000000018000                            
50001210201104232011042501270323068032       PES0000018000A001862011042318210057                                                
6024600018000111200127032306803200020000058                                                                                     
7PESE                                                                                000000000018000                            
82011042500000100000120000002480000000000000000000000000000000000000000000012                                                   
9201104250000010000012000000248000000000000000000000000000000000000000000000012                                                 
