120120925PAGO FACIL               090060246FABIAN NORBERTO D´ERAMO                                                              
320120925000001FABIAN NORBERTO D´ERAMO                                                                                          
50000110201209212012092500712332893769       PES0000029000A075392012092016250232                                                
6024600029000122710071233289376900035000057                                                                                     
7PESE                                                                                000000000029000                            
50000210201209212012092518400426553911       PES0000015000A010432012092011110088                                                
6024600015000122701840042655391100100000036                                                                                     
7PESE                                                                                000000000015000                            
50000310201209212012092500720423474867       PES0000046500A010432012092011110089                                                
6024600046500122650072042347486700010000057                                                                                     
7PESE                                                                                000000000046500                            
50000410201209212012092500713918257078       PES0000029000A085512012092012070198                                                
6024600029000122700071391825707800035000090                                                                                     
7PESE                                                                                000000000029000                            
50000510201209212012092517031110234464       PES0000030000A039692012092017390009                                                
6024600030000122701703111023446400000000036                                                                                     
7PESE                                                                                000000000030000                            
50000610201209212012092500712716589673       PES0000029000A009932012092016130126                                                
6024600029000122680071271658967300035000000                                                                                     
7PESE                                                                                000000000029000                            
50000710201209212012092517030527499566       PES0000030000A094762012092009230026                                                
6024600030000122701703052749956600000000016                                                                                     
7PESE                                                                                000000000030000                            
50000810201209212012092501320134475332       PES0000050000A621082012092011370010                                                
6024600050000122660132013447533200000000099                                                                                     
7PESE                                                                                000000000050000                            
50000910201209212012092500714330387863       PES0000029000A044382012092111050066                                                
6024600029000122680071433038786300035000000                                                                                     
7PESE                                                                                000000000029000                            
50001010201209212012092500712331045259       PES0000029000A063662012092111530184                                                
6024600029000122680071233104525900035000078                                                                                     
7PESE                                                                                000000000029000                            
50001110201209212012092517030430763439       PES0000030000A113052012092111460008                                                
6024600030000122701703043076343900000000058                                                                                     
7PESE                                                                                000000000030000                            
50001210201209212012092500722433692712       PES0000035000D000482012092111430076                                                
6024600035000122650072243369271200025000021                                                                                     
7PESE                                                                                000000000035000                            
50001310201209212012092565000432243822       PES0000013000A044382012092113140056                                                
6024600013000122686500043224382200015000099                                                                                     
7PESE                                                                                000000000013000                            
50001410201209212012092599030138066579       PES0000043000A091152012092114310044                                                
6024600043000122729903013806657900035000021                                                                                     
7PESE                                                                                000000000043000                            
50001510201209212012092501322228777430       PES0000050000A022842012092116230041                                                
6024600050000122660132222877743000000000000                                                                                     
7PESE                                                                                000000000050000                            
50001610201209212012092501322606435623       PES0000050000A022842012092116230042                                                
6024600050000122660132260643562300000000079                                                                                     
7PESE                                                                                000000000050000                            
50001710201209212012092565000216916824       PES0000013000A092162012092113480016                                                
6024600013000122726500021691682400015000000                                                                                     
7PESE                                                                                000000000013000                            
50001810201209212012092565000430439735       PES0000013000A092162012092113480017                                                
6024600013000122726500043043973500015000021                                                                                     
7PESE                                                                                000000000013000                            
50001910201209212012092500712622862744       PES0000029000A092202012092112050100                                                
6024600029000122650071262286274400035000078                                                                                     
7PESE                                                                                000000000029000                            
50002010201209212012092529081316657263       PES0000020000A027192012092112030004                                                
6024600020000122722908131665726300030000078                                                                                     
7PESE                                                                                000000000020000                            
50002110201209212012092565000216657263       PES0000013000A027192012092112030005                                                
6024600013000122726500021665726300015000058                                                                                     
7PESE                                                                                000000000013000                            
50002210201209212012092500713233182419       PES0000029000A033952012092117370206                                                
6024600029000122720071323318241900035000058                                                                                     
7PESE                                                                                000000000029000                            
50002310201209212012092501320811200178       PES0000050000A105232012092111030025                                                
6024600050000122660132081120017800000000000                                                                                     
7PESE                                                                                000000000050000                            
50002410201209212012092501322217833158       PES0000050000A071042012092110260004                                                
6024600050000122660132221783315800000000099                                                                                     
7PESE                                                                                000000000050000                            
50002510201209212012092529080225838156       PES0000012000A071862012092117570071                                                
6024600012000122692908022583815600030000084                                                                                     
7PESE                                                                                000000000012000                            
50002610201209212012092529080229299433       PES0000012000A071862012092117570072                                                
6024600012000122692908022929943300030000099                                                                                     
7PESE                                                                                000000000012000                            
50002710201209212012092517031012028411       PES0000030000A113722012092118500154                                                
6024600030000122701703101202841100000000036                                                                                     
7PESE                                                                                000000000030000                            
50002810201209212012092500714420838341       PES0000029000A028652012092117150072                                                
6024600029000122680071442083834100035000079                                                                                     
7PESE                                                                                000000000029000                            
50002910201209212012092500713223225600       PES0000029000A067532012092118370100                                                
6024600029000122660071322322560000035000084                                                                                     
7PESE                                                                                000000000029000                            
50003010201209212012092500713731263569       PES0000029000A093992012092118150012                                                
6024600029000122710071373126356900035000063                                                                                     
7PESE                                                                                000000000029000                            
50003110201209212012092501321327504670       PES0000050000L071302012092119416737                                                
6024600050000122660132132750467000000000000                                                                                     
7PESE                                                                                000000000050000                            
50003210201209212012092500752622935728       PES0000019500M601462012092115020079                                                
6024600019500122700075262293572800030000042                                                                                     
7PESE                                                                                000000000019500                            
50003310201209212012092501320811259043       PES0000050000M620142012092117120047                                                
6024600050000122660132081125904300000000021                                                                                     
7PESE                                                                                000000000050000                            
50003410201209212012092501320617429252       PES0000050000M620062012092118340059                                                
6024600050000122660132061742925200000000084                                                                                     
7PESE                                                                                000000000050000                            
50003510201209212012092501320425826849       PES0000050000M620732012092110540038                                                
6024600050000122660132042582684900000000063                                                                                     
7PESE                                                                                000000000050000                            
50003610201209212012092500714517106492       PES0000029000M600532012092110370026                                                
6024600029000122710071451710649200035000090                                                                                     
7PESE                                                                                000000000029000                            
50003710201209222012092517030722534111       PES0000030000A640192012092209480009                                                
6024600030000122701703072253411100000000057                                                                                     
7PESE                                                                                000000000030000                            
50003810201209222012092520050628783035       PES0000008000A017122012092210300041                                                
6024600008000122682005062878303500000000015                                                                                     
7PESE                                                                                000000000008000                            
50003910201209222012092520050625341277       PES0000008000A017122012092210310042                                                
6024600008000122682005062534127700000000042                                                                                     
7PESE                                                                                000000000008000                            
50004010201209222012092520050526601809       PES0000008000A017122012092210310043                                                
6024600008000122682005052660180900000000021                                                                                     
7PESE                                                                                000000000008000                            
50004110201209222012092520050523262558       PES0000008000A017122012092210310044                                                
6024600008000122682005052326255800000000036                                                                                     
7PESE                                                                                000000000008000                            
50004210201209222012092501320713916635       PES0000050000A109922012092213440030                                                
6024600050000122660132071391663500000000090                                                                                     
7PESE                                                                                000000000050000                            
50004310201209222012092517030816989062       PES0000030000A060922012092211010113                                                
6024600030000122701703081698906200000000037                                                                                     
7PESE                                                                                000000000030000                            
50004410201209222012092501320810931805       PES0000050000A034222012092210110040                                                
6024600050000122660132081093180500000000000                                                                                     
7PESE                                                                                000000000050000                            
50004510201209222012092501322131227011       PES0000050000A085792012092211410014                                                
6024600050000122660132213122701100000000015                                                                                     
7PESE                                                                                000000000050000                            
50004610201209222012092517031742387221       PES0000030000A102282012092211200053                                                
6024600030000122701703174238722100000000090                                                                                     
7PESE                                                                                000000000030000                            
50004710201209222012092570000332159233       PES0000013000A102012012092218180082                                                
6024600013000122737000033215923300010000084                                                                                     
7PESE                                                                                000000000013000                            
50004810201209222012092517030132159233       PES0000030000A102012012092218180083                                                
6024600030000122701703013215923300000000021                                                                                     
7PESE                                                                                000000000030000                            
50004910201209222012092598010226085653       PES0000029500M660032012092209520019                                                
6024600029500122719801022608565300000000078                                                                                     
7PESE                                                                                000000000029500                            
50005010201209232012092500713634653499       PES0000029000A014502012092317250155                                                
6024600029000122730071363465349900035000000                                                                                     
7PESE                                                                                000000000029000                            
82012092500000100000500000015175000000000000000000000000000000000000000000050                                                   
9201209250000010000050000001517500000000000000000000000000000000000000000000050                                                 
