120110825PAGO FACIL               090060246FABIAN NORBERTO D´ERAMO                                                              
320110825000001FABIAN NORBERTO D´ERAMO                                                                                          
50000110201108242011082500502524820893       PES0000019500A100332011082315420048                                                
6024600019500112420050252482089300050000042                                                                                     
7PESE                                                                                000000000019500                            
50000210201108242011082500504742408072       PES0000007000A043472011082415450008                                                
6024600007000112400050474240807200015000042                                                                                     
7PESE                                                                                000000000007000                            
50000310201108242011082517020814156948       PES0000016000A620302011082409340026                                                
6024600016000112371702081415694800040000084                                                                                     
7PESE                                                                                000000000016000                            
50000410201108242011082517021005408978       PES0000016000A640212011082418020032                                                
6024600016000112381702100540897800040000099                                                                                     
7PESE                                                                                000000000016000                            
50000510201108242011082500540330219518       PES0000019000A097712011082411020073                                                
6024600017500112320054033021951800015000599                                                                                     
7PESE                                                                                000000000019000                            
50000610201108242011082500540333897409       PES0000019000A051312011082415100004                                                
6024600019000112430054033389740900015000036                                                                                     
7PESE                                                                                000000000019000                            
50000710201108242011082500503821716548       PES0000019500A027992011082409280003                                                
6024600019500112360050382171654800050000021                                                                                     
7PESE                                                                                000000000019500                            
50000810201108242011082500504425072430       PES0000019500A065492011082413250051                                                
6024600019500112380050442507243000050000058                                                                                     
7PESE                                                                                000000000019500                            
50000910201108242011082500501528274147       PES0000019500A602192011082410490048                                                
6024600019500112390050152827414700050000078                                                                                     
7PESE                                                                                000000000019500                            
50001010201108242011082500501624832381       PES0000019500M640102011082410480039                                                
6024600019500112390050162483238100050000037                                                                                     
7PESE                                                                                000000000019500                            
50001110201108242011082500502329153916       PES0000019500A027742011082411190075                                                
6024600019500112390050232915391600050000078                                                                                     
7PESE                                                                                000000000019500                            
50001210201108242011082500502522545063       PES0000019500M640102011082410460038                                                
6024600019500112390050252254506300050000000                                                                                     
7PESE                                                                                000000000019500                            
50001310201108242011082500503825442168       PES0000019500A043472011082415450009                                                
6024600019500112400050382544216800050000015                                                                                     
7PESE                                                                                000000000019500                            
50001410201108242011082500500924512386       PES0000019500B030202011082414333209                                                
6024600019500112410050092451238600050000000                                                                                     
7PESE                                                                                000000000019500                            
50001510201108242011082500502714792039       PES0000019500A026442011082417240101                                                
6024600019500112410050271479203900050000042                                                                                     
7PESE                                                                                000000000019500                            
50001610201108242011082500504332468686       PES0000019500M600292011082410310013                                                
6024600019500112410050433246868600050000015                                                                                     
7PESE                                                                                000000000019500                            
50001710201108242011082500501720598627       PES0000019500A029782011082409290010                                                
6024600019500112420050172059862700050000015                                                                                     
7PESE                                                                                000000000019500                            
50001810201108242011082500502427124589       PES0000019500M640102011082410460037                                                
6024600019500112420050242712458900050000084                                                                                     
7PESE                                                                                000000000019500                            
50001910201108242011082500502716761437       PES0000019500A106562011082409390005                                                
6024600019500112420050271676143700050000090                                                                                     
7PESE                                                                                000000000019500                            
50002010201108242011082500502718148089       PES0000019500A099222011082415540007                                                
6024600019500112420050271814808900050000037                                                                                     
7PESE                                                                                000000000019500                            
50002110201108242011082500501333104638       PES0000019500A091142011082412550207                                                
6024600019500112430050133310463800050000042                                                                                     
7PESE                                                                                000000000019500                            
50002210201108242011082500502426075891       PES0000019500A072612011082412580075                                                
6024600019500112430050242607589100050000084                                                                                     
7PESE                                                                                000000000019500                            
50002310201108242011082500502621731558       PES0000019500A016352011082418480165                                                
6024600019500112430050262173155800050000057                                                                                     
7PESE                                                                                000000000019500                            
50002410201108242011082500532529469123       PES0000026000A024432011082418550185                                                
6024600026000112360053252946912300030000058                                                                                     
7PESE                                                                                000000000026000                            
50002510201108242011082500533817659112       PES0000026000A094932011082416100156                                                
6024600026000112360053381765911200030000084                                                                                     
7PESE                                                                                000000000026000                            
50002610201108242011082502300620365060       PES0000034500A099962011082409550020                                                
6024600034500112370230062036506000000000063                                                                                     
7PESE                                                                                000000000034500                            
50002710201108242011082502300232537882       PES0000034500A068912011082416350027                                                
6024600034500112380230023253788200000000000                                                                                     
7PESE                                                                                000000000034500                            
50002810201108242011082502300525069174       PES0000034500A089882011082416540333                                                
6024600034500112380230052506917400000000063                                                                                     
7PESE                                                                                000000000034500                            
50002910201108242011082502300813114669       PES0000034500A620812011082411340130                                                
6024600034500112380230081311466900000000063                                                                                     
7PESE                                                                                000000000034500                            
50003010201108242011082500530133084155       PES0000035000A077372011082410480078                                                
6024600035000112420053013308415500035000021                                                                                     
7PESE                                                                                000000000035000                            
50003110201108242011082500530423665207       PES0000035000A101712011082413030003                                                
6024600035000112420053042366520700035000199                                                                                     
7PESE                                                                                000000000035000                            
50003210201108242011082501280520105007       PES0000036500A051302011082417400475                                                
6024600036500112360128052010500700000000099                                                                                     
7PESE                                                                                000000000036500                            
50003310201108242011082501280521403779       PES0000036500M810012011082411120034                                                
6024600036500112370128052140377900000000021                                                                                     
7PESE                                                                                000000000036500                            
50003410201108242011082501280811333830       PES0000036500A620812011082411270126                                                
6024600036500112380128081133383000000000036                                                                                     
7PESE                                                                                000000000036500                            
50003510201108242011082501280520365060       PES0000036500A099962011082409550021                                                
6024600036500112400128052036506000000000057                                                                                     
7PESE                                                                                000000000036500                            
50003610201108242011082501280422840928       PES0000036500M620412011082410450011                                                
6024600036500112420128042284092800000000000                                                                                     
7PESE                                                                                000000000036500                            
50003710201108242011082501280616738317       PES0000036500A620572011082410150015                                                
6024600036500112420128061673831700000000021                                                                                     
7PESE                                                                                000000000036500                            
50003810201108242011082501280906149625       PES0000036500A048412011082414530033                                                
6024600036500112420128090614962500000000037                                                                                     
7PESE                                                                                000000000036500                            
50003910201108242011082501282311597869       PES0000036500A085512011082419120120                                                
6024600036500112430128231159786900000000037                                                                                     
7PESE                                                                                000000000036500                            
50004010201108242011082599030230219518       PES0000041000A097712011082411020072                                                
6024600041000112379903023021951800000000016                                                                                     
7PESE                                                                                000000000041000                            
82011082500000100000400000010210000000000000000000000000000000000000000000040                                                   
9201108250000010000040000001021000000000000000000000000000000000000000000000040                                                 
