120111125PAGO FACIL               090060246FABIAN NORBERTO D´ERAMO                                                              
320111125000001FABIAN NORBERTO D´ERAMO                                                                                          
50000110201111242011112501301333026621       PES0000040000A016362011112308310017                                                
6024600040000113330130133302662100000000000                                                                                     
7PESE                                                                                000000000040000                            
50000210201111242011112500584743872388       PES0000007000M600442011112410350002                                                
6024600007000113340058474387238800015000042                                                                                     
7PESE                                                                                000000000007000                            
50000310201111242011112529060135874888       PES0000010000M640432011112409170015                                                
6024600010000113342906013587488800030000063                                                                                     
7PESE                                                                                000000000010000                            
50000410201111242011112518351333951373       PES0000020000A029812011112417260004                                                
6024600020000113291835133395137300000000000                                                                                     
7PESE                                                                                000000000020000                            
50000510201111242011112500585425216796       PES0000022500M601252011112414100106                                                
6024600022500113340058542521679600025007100                                                                                     
7PESE                                                                                000000000022500                            
50000610201111242011112501300618529046       PES0000040000A091662011112416570334                                                
6024600040000113280130061852904600000000078                                                                                     
7PESE                                                                                000000000040000                            
50000710201111242011112501301721524925       PES0000040000A076552011112410020015                                                
6024600040000113280130172152492500000000000                                                                                     
7PESE                                                                                000000000040000                            
50000810201111242011112501301817255827       PES0000040000A091662011112416570335                                                
6024600040000113280130181725582700000000037                                                                                     
7PESE                                                                                000000000040000                            
50000910201111242011112501300618567028       PES0000040000A063352011112415460086                                                
6024600040000113310130061856702800000000042                                                                                     
7PESE                                                                                000000000040000                            
50001010201111242011112501301720427945       PES0000040000A063352011112415460085                                                
6024600040000113310130172042794500000000000                                                                                     
7PESE                                                                                000000000040000                            
50001110201111242011112501300234517298       PES0000040000D000472011112416520374                                                
6024600040000113320130023451729800000000042                                                                                     
7PESE                                                                                000000000040000                            
50001210201111242011112501300621710377       PES0000040000A103662011112413460200                                                
6024600040000113320130062171037700000000057                                                                                     
7PESE                                                                                000000000040000                            
50001310201111242011112501301432554625       PES0000040000D000472011112416520373                                                
6024600040000113320130143255462500000000016                                                                                     
7PESE                                                                                000000000040000                            
50001410201111242011112501301528698515       PES0000040000A052592011112416220002                                                
6024600040000113320130152869851500000000078                                                                                     
7PESE                                                                                000000000040000                            
50001510201111242011112501301720797376       PES0000040000M601812011112410530021                                                
6024600040000113320130172079737600000000063                                                                                     
7PESE                                                                                000000000040000                            
50001610201111242011112501301429199956       PES0000040000A088132011112419220100                                                
6024600040000113330130142919995600000000063                                                                                     
7PESE                                                                                000000000040000                            
50001710201111242011112501301525445225       PES0000040000A079782011112410000001                                                
6024600040000113330130152544522500000000000                                                                                     
7PESE                                                                                000000000040000                            
50001810201111242011112501301623586565       PES0000040000M601252011112411400032                                                
6024600040000113330130162358656500000000084                                                                                     
7PESE                                                                                000000000040000                            
50001910201111242011112501301814922747       PES0000040000A092002011112414390188                                                
6024600040000113330130181492274700000000021                                                                                     
7PESE                                                                                000000000040000                            
50002010201111242011112501301623706537       PES0000040000A080942011112416030130                                                
6024600040000113340130162370653700000000063                                                                                     
7PESE                                                                                000000000040000                            
50002110201111242011112501301817212947       PES0000040000D000342011112411410047                                                
6024600040000113340130181721294700000000063                                                                                     
7PESE                                                                                000000000040000                            
50002210201111242011112501301431158894       PES0000040000A092002011112413010128                                                
6024600040000113350130143115889400000000058                                                                                     
7PESE                                                                                000000000040000                            
50002310201111242011112501301432343746       PES0000040000A028582011112413020126                                                
6024600040000113350130143234374600000000063                                                                                     
7PESE                                                                                000000000040000                            
50002410201111242011112501301624563959       PES0000040000A028582011112413020125                                                
6024600040000113350130162456395900000000021                                                                                     
7PESE                                                                                000000000040000                            
50002510201111242011112501301912862198       PES0000040000M620002011112414150102                                                
6024600040000113350130191286219800000000063                                                                                     
7PESE                                                                                000000000040000                            
82011112500000100000250000008995000000000000000000000000000000000000000000025                                                   
9201111250000010000025000000899500000000000000000000000000000000000000000000025                                                 
