120120625PAGO FACIL               090060246FABIAN NORBERTO D´ERAMO                                                              
320120625000001FABIAN NORBERTO D´ERAMO                                                                                          
50000110201206222012062559001322115925       PES0000016000A039052012062209230015                                                
6024600016000121795900132211592500000000021                                                                                     
7PESE                                                                                000000000016000                            
50000210201206222012062599080234705280       PES0000008000A071202012062215410006                                                
6024600008000121789908023470528000000000057                                                                                     
7PESE                                                                                000000000008000                            
50000310201206222012062599080134705280       PES0000008000A071202012062215410007                                                
6024600008000121789908013470528000000000021                                                                                     
7PESE                                                                                000000000008000                            
50000410201206222012062599030235359341       PES0000043000A113512012062215030022                                                
6024600043000121779903023535934100000000058                                                                                     
7PESE                                                                                000000000043000                            
50000510201206222012062559000904694027       PES0000016000A087082012062218430089                                                
6024600016000121815900090469402700000000037                                                                                     
7PESE                                                                                000000000016000                            
50000610201206232012062599030132639591       PES0000049000A028662012062314360100                                                
6024600049000121829903013263959100000000037                                                                                     
7PESE                                                                                000000000049000                            
82012062500000100000060000001400000000000000000000000000000000000000000000006                                                   
9201206250000010000006000000140000000000000000000000000000000000000000000000006                                                 
