120110826PAGO FACIL               090060246FABIAN NORBERTO D´ERAMO                                                              
320110826000001FABIAN NORBERTO D´ERAMO                                                                                          
50000110201108252011082644012127401273       PES0000005000A049072011082515440105                                                
6024600005000112384401212740127300000000057                                                                                     
7PESE                                                                                000000000005000                            
50000210201108252011082617020427589552       PES0000016000A620302011082509070009                                                
6024600016000112371702042758955200040000084                                                                                     
7PESE                                                                                000000000016000                            
50000310201108252011082617020717756018       PES0000016000A108292011082517410007                                                
6024600016000112371702071775601800040000037                                                                                     
7PESE                                                                                000000000016000                            
50000410201108252011082617020428527726       PES0000016000A700072011082517000039                                                
6024600016000112421702042852772600040000063                                                                                     
7PESE                                                                                000000000016000                            
50000510201108252011082617020523164493       PES0000016000A036962011082510520057                                                
6024600016000112421702052316449300040000099                                                                                     
7PESE                                                                                000000000016000                            
50000610201108252011082617020716061654       PES0000016000A036962011082510520056                                                
6024600016000112421702071606165400040000079                                                                                     
7PESE                                                                                000000000016000                            
50000710201108252011082617020716346121       PES0000016000A036962011082510520055                                                
6024600016000112421702071634612100040000000                                                                                     
7PESE                                                                                000000000016000                            
50000810201108252011082617021008323700       PES0000016000A072322011082517370052                                                
6024600016000112431702100832370000040000000                                                                                     
7PESE                                                                                000000000016000                            
50000910201108252011082600503914741261       PES0000019500A094382011082513070135                                                
6024600019500112370050391474126100050000016                                                                                     
7PESE                                                                                000000000019500                            
50001010201108252011082600502329591394       PES0000019500A086622011082511340043                                                
6024600019500112380050232959139400050000016                                                                                     
7PESE                                                                                000000000019500                            
50001110201108252011082600502427148035       PES0000019500A054392011082517530074                                                
6024600019500112380050242714803500050000015                                                                                     
7PESE                                                                                000000000019500                            
50001210201108252011082600502620226948       PES0000019500A092792011082510230015                                                
6024600019500112380050262022694800050000037                                                                                     
7PESE                                                                                000000000019500                            
50001310201108252011082600502716878815       PES0000019500A024632011082518080065                                                
6024600019500112390050271687881500050000063                                                                                     
7PESE                                                                                000000000019500                            
50001410201108252011082600504041077035       PES0000019500A024632011082518090066                                                
6024600019500112400050404107703500050000042                                                                                     
7PESE                                                                                000000000019500                            
50001510201108252011082600502235657972       PES0000019500A077332011082519070196                                                
6024600019500112410050223565797200050000084                                                                                     
7PESE                                                                                000000000019500                            
50001610201108252011082600500430609934       PES0000019500A054392011082517530075                                                
6024600019500112420050043060993400050000058                                                                                     
7PESE                                                                                000000000019500                            
50001710201108252011082600501113769766       PES0000019500A040462011082508560036                                                
6024600019500112420050111376976600050000036                                                                                     
7PESE                                                                                000000000019500                            
50001810201108252011082600502235880879       PES0000019500A079472011082515070026                                                
6024600019500112420050223588087900050000016                                                                                     
7PESE                                                                                000000000019500                            
50001910201108252011082600502425335795       PES0000019500A097442011082514330053                                                
6024600019500112420050242533579500050000099                                                                                     
7PESE                                                                                000000000019500                            
50002010201108252011082600503232969879       PES0000019500A017122011082511310148                                                
6024600019500112420050323296987900050000079                                                                                     
7PESE                                                                                000000000019500                            
50002110201108252011082600501526690166       PES0000019500L120232011082516290373                                                
6024600019500112430050152669016600050000021                                                                                     
7PESE                                                                                000000000019500                            
50002210201108252011082600503728505164       PES0000019500A075042011082511430059                                                
6024600019500112430050372850516400050000079                                                                                     
7PESE                                                                                000000000019500                            
50002310201108252011082602302013140445       PES0000023500A601122011082513250118                                                
6024600023500112380230201314044500000000036                                                                                     
7PESE                                                                                000000000023500                            
50002410201108252011082602302425632148       PES0000023500A020722011082516370095                                                
6024600023500112380230242563214800000000016                                                                                     
7PESE                                                                                000000000023500                            
50002510201108252011082602300332554625       PES0000034500A054272011082512000018                                                
6024600034500112380230033255462500000000063                                                                                     
7PESE                                                                                000000000034500                            
50002610201108252011082600530423349266       PES0000035000A090422011082515320012                                                
6024600035000112370053042334926600035000058                                                                                     
7PESE                                                                                000000000035000                            
50002710201108252011082600530229591416       PES0000035000A075042011082511430058                                                
6024600035000112420053022959141600035000079                                                                                     
7PESE                                                                                000000000035000                            
50002810201108252011082601280327627803       PES0000036500L120122011082514245412                                                
6024600036500112370128032762780300000000058                                                                                     
7PESE                                                                                000000000036500                            
50002910201108252011082601280423349266       PES0000036500A090422011082515320013                                                
6024600036500112370128042334926600000000078                                                                                     
7PESE                                                                                000000000036500                            
50003010201108252011082601281424813885       PES0000036500M620062011082518190038                                                
6024600036500112370128142481388500000000090                                                                                     
7PESE                                                                                000000000036500                            
50003110201108252011082601282221446214       PES0000036500A620572011082511400011                                                
6024600036500112430128222144621400000000000                                                                                     
7PESE                                                                                000000000036500                            
50003210201108252011082601282312315692       PES0000036500A046092011082514340011                                                
6024600036500112430128231231569200000000063                                                                                     
7PESE                                                                                000000000036500                            
50003310201108252011082601280423907909       PES0000036500A082002011082511200013                                                
6024600036500112440128042390790900000000099                                                                                     
7PESE                                                                                000000000036500                            
82011082600000100000330000007605000000000000000000000000000000000000000000033                                                   
9201108260000010000033000000760500000000000000000000000000000000000000000000033                                                 
