120120126PAGO FACIL               090060246FABIAN NORBERTO D´ERAMO                                                              
320120126000001FABIAN NORBERTO D´ERAMO                                                                                          
50000110201201252012012629070414487606       PES0000010000A106202012012412040098                                                
6024600010000120242907041448760600000000015                                                                                     
7PESE                                                                                000000000010000                            
50000210201201252012012623061238838101       PES0000136600M620862012012411463990                                                
6024600136600120272306123883810100000000042                                                                                     
7PESE                                                                                000000000136600                            
50000310201201252012012600642423090787       PES0000006000A098232012012510260016                                                
6024600006000120280064242309078700000000079                                                                                     
7PESE                                                                                000000000006000                            
50000410201201252012012618370621851864       PES0000020000A084182012012512240178                                                
6024600020000120321837062185186400000000015                                                                                     
7PESE                                                                                000000000020000                            
50000510201201252012012699030237483073       PES0000043000A092012012012513030093                                                
6024600043000120309903023748307300000000000                                                                                     
7PESE                                                                                000000000043000                            
50000610201201252012012623060127487110       PES0000121600A098902012012512020065                                                
6024600121600120312306012748711000000000042                                                                                     
7PESE                                                                                000000000121600                            
50000710201201252012012623061836806721       PES0000136600A082232012012514410075                                                
6024600136600120312306183680672100000000021                                                                                     
7PESE                                                                                000000000136600                            
82012012600000100000070000004738000000000000000000000000000000000000000000007                                                   
9201201260000010000007000000473800000000000000000000000000000000000000000000007                                                 
