120120426PAGO FACIL               090060246FABIAN NORBERTO D´ERAMO                                                              
320120426000001FABIAN NORBERTO D´ERAMO                                                                                          
50000110201204252012042602353626836398       PES0000020000A038672012042512520057                                                
6024600020000121180235362683639800000000090                                                                                     
7PESE                                                                                000000000020000                            
50000210201204252012042602350427121354       PES0000033000A055532012042515160085                                                
6024600033000121180235042712135400000000057                                                                                     
7PESE                                                                                000000000033000                            
50000310201204252012042602350618065580       PES0000033000A033762012042518320152                                                
6024600033000121180235061806558000000000078                                                                                     
7PESE                                                                                000000000033000                            
50000410201204252012042602350718363963       PES0000033000A056902012042515320027                                                
6024600033000121180235071836396300000000090                                                                                     
7PESE                                                                                000000000033000                            
82012042600000100000040000001190000000000000000000000000000000000000000000004                                                   
9201204260000010000004000000119000000000000000000000000000000000000000000000004                                                 
