120110926PAGO FACIL               090060246FABIAN NORBERTO D´ERAMO                                                              
320110926000001FABIAN NORBERTO D´ERAMO                                                                                          
50000110201109232011092600504513801008       PES0000024500A025172011092311480061                                                
6024600024500112660050451380100800030000016                                                                                     
7PESE                                                                                000000000024500                            
50000210201109232011092600533725355892       PES0000029000A097742011092309480051                                                
6024600029000112660053372535589200020000078                                                                                     
7PESE                                                                                000000000029000                            
50000310201109232011092600503820987932       PES0000024500A086812011092310530062                                                
6024600024500112710050382098793200030000015                                                                                     
7PESE                                                                                000000000024500                            
50000410201109232011092600504233267343       PES0000024500A091142011092309310016                                                
6024600024500112730050423326734300030000057                                                                                     
7PESE                                                                                000000000024500                            
50000510201109232011092600502428119266       PES0000024500A085592011092310320048                                                
6024600024500112720050242811926600030000000                                                                                     
7PESE                                                                                000000000024500                            
50000610201109232011092600500633283103       PES0000024500A085592011092310320049                                                
6024600024500112720050063328310300030000000                                                                                     
7PESE                                                                                000000000024500                            
50000710201109232011092600500730601216       PES0000024500A085592011092313300184                                                
6024600024500112690050073060121600030000000                                                                                     
7PESE                                                                                000000000024500                            
50000810201109232011092600502621431734       PES0000024500A074252011092318450102                                                
6024600024500112660050262143173400030000036                                                                                     
7PESE                                                                                000000000024500                            
50000910201109232011092637020524763938       PES0000009000A033412011092318300082                                                
6024600009000112733702052476393800000000036                                                                                     
7PESE                                                                                000000000009000                            
50001010201109232011092600502011988962       PES0000024500D000582011092314310047                                                
6024600024500112730050201198896200030000079                                                                                     
7PESE                                                                                000000000024500                            
50001110201109232011092600504332195295       PES0000024500A084182011092315560040                                                
6024600024500112670050433219529500030000042                                                                                     
7PESE                                                                                000000000024500                            
50001210201109232011092600533824938100       PES0000029000A108702011092316490195                                                
6024600029000112660053382493810000020000090                                                                                     
7PESE                                                                                000000000029000                            
50001310201109232011092600504137468336       PES0000024500D000482011092318100086                                                
6024600024500112670050413746833600030000079                                                                                     
7PESE                                                                                000000000024500                            
50001410201109232011092699030230590893       PES0000041000A097172011092313460040                                                
6024600041000112719903023059089300000000042                                                                                     
7PESE                                                                                000000000041000                            
50001510201109232011092600503821965743       PES0000024500A043482011092320380207                                                
6024600024500112660050382196574300030000079                                                                                     
7PESE                                                                                000000000024500                            
50001610201109232011092600530425977215       PES0000038500M601712011092314000025                                                
6024600038500112730053042597721500010000084                                                                                     
7PESE                                                                                000000000038500                            
50001710201109232011092600504330201903       PES0000024500M600272011092313490017                                                
6024600024500112670050433020190300030000037                                                                                     
7PESE                                                                                000000000024500                            
50001810201109242011092620040212644561       PES0000006000A096182011092410470050                                                
6024600006000112722004021264456100000000015                                                                                     
7PESE                                                                                000000000006000                            
50001910201109242011092600502428923881       PES0000024500A091482011092409240019                                                
6024600024500112670050242892388100030000000                                                                                     
7PESE                                                                                000000000024500                            
50002010201109242011092600503538422672       PES0000024500A025052011092412030046                                                
6024600024500112730050353842267200030000042                                                                                     
7PESE                                                                                000000000024500                            
50002110201109242011092600503820248811       PES0000024500D001482011092418060061                                                
6024600024500112670050382024881100030000079                                                                                     
7PESE                                                                                000000000024500                            
50002210201109242011092600530424258847       PES0000038500L070092011092409297845                                                
6024600038500112730053042425884700010000084                                                                                     
7PESE                                                                                000000000038500                            
82011092600000100000220000005585000000000000000000000000000000000000000000022                                                   
9201109260000010000022000000558500000000000000000000000000000000000000000000022                                                 
