120111226PAGO FACIL               090060246FABIAN NORBERTO D´ERAMO                                                              
320111226000001FABIAN NORBERTO D´ERAMO                                                                                          
50000110201112232011122600610432190489       PES0000012000A094342011122217060053                                                
6024600012000113590061043219048900020000042                                                                                     
7PESE                                                                                000000000012000                            
50000210201112232011122653000324298374       PES0000009000M640472011122219350035                                                
6024600009000113575300032429837400020000684                                                                                     
7PESE                                                                                000000000009000                            
50000310201112232011122629060223091645       PES0000013000A017082011122311560071                                                
6024600013000113612906022309164500000000090                                                                                     
7PESE                                                                                000000000013000                            
50000410201112232011122629060910481748       PES0000013000D001132011122311510022                                                
6024600013000113592906091048174800000000084                                                                                     
7PESE                                                                                000000000013000                            
50000510201112232011122629060505324969       PES0000013000D001132011122311510023                                                
6024600013000113592906050532496900000000058                                                                                     
7PESE                                                                                000000000013000                            
50000610201112232011122600612718069113       PES0000012000A092152011122312440245                                                
6024600012000113600061271806911300020000284                                                                                     
7PESE                                                                                000000000012000                            
50000710201112232011122629060226609093       PES0000013000A090202011122309300012                                                
6024600013000113582906022660909300000000015                                                                                     
7PESE                                                                                000000000013000                            
50000810201112232011122600612812706997       PES0000012000A099402011122308440015                                                
6024600012000113600061281270699700020000000                                                                                     
7PESE                                                                                000000000012000                            
50000910201112232011122629060725250427       PES0000013000A085572011122307560050                                                
6024600013000113632906072525042700000000021                                                                                     
7PESE                                                                                000000000013000                            
50001010201112232011122629060227799158       PES0000013000A085572011122307560051                                                
6024600013000113632906022779915800000000016                                                                                     
7PESE                                                                                000000000013000                            
50001110201112232011122623060635064064       PES0000108800A062012011122312200076                                                
6024600108800113642306063506406400128000057                                                                                     
7PESE                                                                                000000000108800                            
50001210201112232011122600610827556040       PES0000012000A111392011122317320023                                                
6024600012000113600061082755604000020000100                                                                                     
7PESE                                                                                000000000012000                            
50001310201112232011122600612525144420       PES0000012000A018912011122313020156                                                
6024600012000113570061252514442000020000015                                                                                     
7PESE                                                                                000000000012000                            
50001410201112232011122653000514895529       PES0000009000A033772011122316400035                                                
6024600009000113575300051489552900020000316                                                                                     
7PESE                                                                                000000000009000                            
50001510201112232011122618360716602152       PES0000020000A105142011122309170034                                                
6024600020000113621836071660215200000000042                                                                                     
7PESE                                                                                000000000020000                            
50001610201112232011122629060317338374       PES0000013000A052182011122317430065                                                
6024600013000113602906031733837400000000042                                                                                     
7PESE                                                                                000000000013000                            
50001710201112232011122623061134496924       PES0000121600A044382011122318040008                                                
6024600121600113642306113449692400150000063                                                                                     
7PESE                                                                                000000000121600                            
50001810201112232011122600611111994806       PES0000012000A058512011122317180205                                                
6024600012000113600061111199480600020000484                                                                                     
7PESE                                                                                000000000012000                            
50001910201112232011122629060227318157       PES0000013000A102692011122312050047                                                
6024600013000113612906022731815700000000000                                                                                     
7PESE                                                                                000000000013000                            
50002010201112232011122629060133133692       PES0000013000A092492011122315280005                                                
6024600013000113582906013313369200000000021                                                                                     
7PESE                                                                                000000000013000                            
50002110201112232011122629060223974789       PES0000013000A088622011122318240142                                                
6024600013000113602906022397478900000000042                                                                                     
7PESE                                                                                000000000013000                            
50002210201112232011122600612813974445       PES0000012000M620162011122311020015                                                
6024600012000113600061281397444500020000337                                                                                     
7PESE                                                                                000000000012000                            
50002310201112232011122623061731455196       PES0000121600A098762011122318370006                                                
6024600121600113642306173145519600150000042                                                                                     
7PESE                                                                                000000000121600                            
50002410201112242011122629060413214544       PES0000013000A090052011122412330061                                                
6024600013000113582906041321454400000000058                                                                                     
7PESE                                                                                000000000013000                            
82011122600000100000240000006170000000000000000000000000000000000000000000024                                                   
9201112260000010000024000000617000000000000000000000000000000000000000000000024                                                 
