120111026PAGO FACIL               090060246FABIAN NORBERTO D´ERAMO                                                              
320111026000001FABIAN NORBERTO D´ERAMO                                                                                          
50000110201110252011102600500223154942       PES0000027500A601582011102415210027                                                
6024600027500112980050022315494200000000015                                                                                     
7PESE                                                                                000000000027500                            
50000210201110252011102600584740948833       PES0000005500A093412011102518300132                                                
6024600005500113000058474094883300015000084                                                                                     
7PESE                                                                                000000000005500                            
50000310201110252011102600584742199843       PES0000005500A093412011102518300131                                                
6024600005500113000058474219984300015000021                                                                                     
7PESE                                                                                000000000005500                            
50000410201110252011102620040326372067       PES0000006000A049232011102512190077                                                
6024600006000112982004032637206700000000079                                                                                     
7PESE                                                                                000000000006000                            
50000510201110252011102620040218487319       PES0000006000M602162011102510400005                                                
6024600006000112992004021848731900000000079                                                                                     
7PESE                                                                                000000000006000                            
50000610201110252011102620040214354714       PES0000006000A096952011102511410135                                                
6024600006000113002004021435471400000000063                                                                                     
7PESE                                                                                000000000006000                            
50000710201110252011102600502911368892       PES0000011000A079502011102510400079                                                
6024600011000112990050291136889200000000084                                                                                     
7PESE                                                                                000000000011000                            
50000810201110252011102600571624343449       PES0000020000A620782011102510220003                                                
6024600020000112990057162434344900020000015                                                                                     
7PESE                                                                                000000000020000                            
50000910201110252011102618340814339563       PES0000020000A044382011102517300233                                                
6024600020000113001834081433956300000000084                                                                                     
7PESE                                                                                000000000020000                            
50001010201110252011102600572524170009       PES0000020000A086272011102516340076                                                
6024600020000113030057252417000900020000042                                                                                     
7PESE                                                                                000000000020000                            
50001110201110252011102600502426317496       PES0000027500A107772011102517500096                                                
6024600027500112980050242631749600000000015                                                                                     
7PESE                                                                                000000000027500                            
50001210201110252011102600502910849285       PES0000027500A097192011102515270069                                                
6024600027500112990050291084928500000000063                                                                                     
7PESE                                                                                000000000027500                            
50001310201110252011102600503231764153       PES0000027500M640042011102516140047                                                
6024600027500112990050323176415300000000042                                                                                     
7PESE                                                                                000000000027500                            
50001410201110252011102600503726718719       PES0000027500D001412011102515420097                                                
6024600027500112990050372671871900000000036                                                                                     
7PESE                                                                                000000000027500                            
50001510201110252011102600500211610499       PES0000027500M601812011102513000076                                                
6024600027500113000050021161049900000000090                                                                                     
7PESE                                                                                000000000027500                            
50001610201110252011102600502523401944       PES0000027500L070542011102509402206                                                
6024600027500113000050252340194400000000036                                                                                     
7PESE                                                                                000000000027500                            
50001710201110252011102600502524109823       PES0000027500L070542011102509392203                                                
6024600027500113010050252410982300000000058                                                                                     
7PESE                                                                                000000000027500                            
50001810201110252011102600502525442368       PES0000027500L070542011102509392204                                                
6024600027500113010050252544236800000000063                                                                                     
7PESE                                                                                000000000027500                            
50001910201110252011102600502525442378       PES0000027500L070542011102509392202                                                
6024600027500113010050252544237800000000079                                                                                     
7PESE                                                                                000000000027500                            
50002010201110252011102600502714698627       PES0000027500L070542011102509402205                                                
6024600027500113010050271469862700000000042                                                                                     
7PESE                                                                                000000000027500                            
50002110201110252011102600503822494534       PES0000027500D000902011102515440086                                                
6024600027500113010050382249453400000000058                                                                                     
7PESE                                                                                000000000027500                            
50002210201110252011102600504517017556       PES0000027500B030702011102513122314                                                
6024600027500113010050451701755600000000015                                                                                     
7PESE                                                                                000000000027500                            
50002310201110252011102600532528860314       PES0000031000A093212011102509000027                                                
6024600031000113000053252886031400000000042                                                                                     
7PESE                                                                                000000000031000                            
50002410201110252011102600532623929324       PES0000031000A042332011102511110032                                                
6024600031000113010053262392932400000000036                                                                                     
7PESE                                                                                000000000031000                            
50002510201110252011102600533326703521       PES0000031000A092162011102512040162                                                
6024600031000113010053332670352100000000036                                                                                     
7PESE                                                                                000000000031000                            
50002610201110252011102600534024663615       PES0000031000A042332011102511110033                                                
6024600031000113010053402466361500000000042                                                                                     
7PESE                                                                                000000000031000                            
50002710201110252011102601291431252420       PES0000037000L120262011102511488183                                                
6024600037000112980129143125242000000000042                                                                                     
7PESE                                                                                000000000037000                            
50002810201110252011102601290714589515       PES0000037000M600702011102510150001                                                
6024600037000113040129071458951500000000021                                                                                     
7PESE                                                                                000000000037000                            
50002910201110252011102601290332378711       PES0000037000A007552011102517300070                                                
6024600037000113050129033237871100000000042                                                                                     
7PESE                                                                                000000000037000                            
50003010201110252011102601290332520937       PES0000037000A068902011102514500192                                                
6024600037000113050129033252093700000000042                                                                                     
7PESE                                                                                000000000037000                            
50003110201110252011102600530618391895       PES0000039500A090372011102514220269                                                
6024600039500113000053061839189500000000042                                                                                     
7PESE                                                                                000000000039500                            
50003210201110252011102600530231729736       PES0000039500A044652011102512100025                                                
6024600039500113010053023172973600000000090                                                                                     
7PESE                                                                                000000000039500                            
50003310201110252011102600530424251278       PES0000039500A029812011102515050001                                                
6024600039500113010053042425127800000000057                                                                                     
7PESE                                                                                000000000039500                            
50003410201110252011102600530521416648       PES0000039500A061432011102516370251                                                
6024600039500113010053052141664800000000084                                                                                     
7PESE                                                                                000000000039500                            
50003510201110252011102699030230590893       PES0000041000D001412011102510350032                                                
6024600041000113039903023059089300000000016                                                                                     
7PESE                                                                                000000000041000                            
82011102600000100000350000009285000000000000000000000000000000000000000000035                                                   
9201110260000010000035000000928500000000000000000000000000000000000000000000035                                                 
