120120427PAGO FACIL               090060246FABIAN NORBERTO D´ERAMO                                                              
320120427000001FABIAN NORBERTO D´ERAMO                                                                                          
50000110201204262012042702350426807318       PES0000033000M620032012042612270092                                                
6024600033000121170235042680731800000000063                                                                                     
7PESE                                                                                000000000033000                            
50000210201204262012042702350428101531       PES0000033000A083092012042618150079                                                
6024600033000121170235042810153100000000084                                                                                     
7PESE                                                                                000000000033000                            
50000310201204262012042702350233043749       PES0000033000A064332012042611380075                                                
6024600033000121180235023304374900000000057                                                                                     
7PESE                                                                                000000000033000                            
50000410201204262012042702350233204655       PES0000033000A111322012042612590025                                                
6024600033000121180235023320465500000000084                                                                                     
7PESE                                                                                000000000033000                            
50000510201204262012042702350234166142       PES0000033000A640322012042614100088                                                
6024600033000121180235023416614200000000021                                                                                     
7PESE                                                                                000000000033000                            
50000610201204262012042702350426537226       PES0000033000A031192012042618490168                                                
6024600033000121180235042653722600000000063                                                                                     
7PESE                                                                                000000000033000                            
50000710201204262012042702350427508671       PES0000033000A106722012042611280043                                                
6024600033000121180235042750867100000000090                                                                                     
7PESE                                                                                000000000033000                            
50000810201204262012042702350629827280       PES0000033000A092152012042614070198                                                
6024600033000121180235062982728000000000000                                                                                     
7PESE                                                                                000000000033000                            
50000910201204262012042799030130289341       PES0000037000A082952012042611330021                                                
6024600037000121209903013028934100035000078                                                                                     
7PESE                                                                                000000000037000                            
82012042700000100000090000003010000000000000000000000000000000000000000000009                                                   
9201204270000010000009000000301000000000000000000000000000000000000000000000009                                                 
