120120127PAGO FACIL               090060246FABIAN NORBERTO D´ERAMO                                                              
320120127000001FABIAN NORBERTO D´ERAMO                                                                                          
50000110201201262012012753010430012341       PES0000006000A097372012012618230141                                                
6024600006000120265301043001234100015000042                                                                                     
7PESE                                                                                000000000006000                            
50000210201201262012012700640620465061       PES0000006000M620642012012611210409                                                
6024600006000120280064062046506100000000021                                                                                     
7PESE                                                                                000000000006000                            
50000310201201262012012753010436213228       PES0000006000A072762012012612050142                                                
6024600006000120305301043621322800015000042                                                                                     
7PESE                                                                                000000000006000                            
50000410201201262012012729070316335628       PES0000010000A000882012012609130003                                                
6024600010000120322907031633562800000000099                                                                                     
7PESE                                                                                000000000010000                            
50000510201201262012012700672427116566       PES0000013500A042592012012611590010                                                
6024600013500120320067242711656600020000063                                                                                     
7PESE                                                                                000000000013500                            
50000610201201262012012718370717564651       PES0000020000A601492012012610320024                                                
6024600020000120261837071756465100000000021                                                                                     
7PESE                                                                                000000000020000                            
50000710201201262012012700600425248843       PES0000025000M600432012012614500073                                                
6024600025000120310060042524884300040007184                                                                                     
7PESE                                                                                000000000025000                            
50000810201201262012012799030237483073       PES0000037000A091992012012613310120                                                
6024600037000120329903023748307300035000099                                                                                     
7PESE                                                                                000000000037000                            
50000910201201262012012723060728665934       PES0000121600A103972012012617180020                                                
6024600121600120262306072866593400000000036                                                                                     
7PESE                                                                                000000000121600                            
50001010201201262012012723061422708747       PES0000136600A093052012012617340076                                                
6024600136600120272306142270874700000000079                                                                                     
7PESE                                                                                000000000136600                            
50001110201201262012012723061329990837       PES0000136600L070372012012618014398                                                
6024600136600120312306132999083700000000037                                                                                     
7PESE                                                                                000000000136600                            
50001210201201262012012723061920830813       PES0000136600A052932012012618500042                                                
6024600136600120312306192083081300000000084                                                                                     
7PESE                                                                                000000000136600                            
82012012700000100000120000006549000000000000000000000000000000000000000000012                                                   
9201201270000010000012000000654900000000000000000000000000000000000000000000012                                                 
