120111227PAGO FACIL               090060246FABIAN NORBERTO D´ERAMO                                                              
320111227000001FABIAN NORBERTO D´ERAMO                                                                                          
50000110201112262011122700611527738403       PES0000012000A038432011122610210010                                                
6024600012000113600061152773840300020000199                                                                                     
7PESE                                                                                000000000012000                            
50000210201112262011122700612717617179       PES0000012000A007352011122610130016                                                
6024600012000113600061271761717900020000279                                                                                     
7PESE                                                                                000000000012000                            
50000310201112262011122700613008529149       PES0000012000A018312011122615460116                                                
6024600012000113600061300852914900020008878                                                                                     
7PESE                                                                                000000000012000                            
50000410201112262011122729060321071690       PES0000013000A047792011122610060038                                                
6024600013000120022906032107169000000000000                                                                                     
7PESE                                                                                000000000013000                            
50000510201112262011122729060820636006       PES0000013000A047792011122610060039                                                
6024600013000120022906082063600600000000090                                                                                     
7PESE                                                                                000000000013000                            
50000610201112262011122723061021707783       PES0000108800A039082011122611370040                                                
6024600108800120012306102170778300128000079                                                                                     
7PESE                                                                                000000000108800                            
82011122700000100000060000001708000000000000000000000000000000000000000000006                                                   
9201112270000010000006000000170800000000000000000000000000000000000000000000006                                                 
