120120827PAGO FACIL               090060246FABIAN NORBERTO D´ERAMO                                                              
320120827000001FABIAN NORBERTO D´ERAMO                                                                                          
50000110201208242012082702390718283939       PES0000036000A115412012082316260034                                                
6024600036000122370239071828393900000000000                                                                                     
7PESE                                                                                000000000036000                            
50000210201208242012082701320617173690       PES0000045000A040462012082319100070                                                
6024600045000122410132061717369000050000063                                                                                     
7PESE                                                                                000000000045000                            
50000310201208242012082700711817074919       PES0000023500A116362012082409340013                                                
6024600023500122410071181707491900055000042                                                                                     
7PESE                                                                                000000000023500                            
50000410201208242012082702392921716144       PES0000036000A620572012082410450015                                                
6024600036000122370239292171614400000000037                                                                                     
7PESE                                                                                000000000036000                            
50000510201208242012082717030432136814       PES0000025000A052232012082409030013                                                
6024600025000122421703043213681400050000015                                                                                     
7PESE                                                                                000000000025000                            
50000610201208242012082700711239918325       PES0000023500A602062012082410420020                                                
6024600023500122370071123991832500055000063                                                                                     
7PESE                                                                                000000000023500                            
50000710201208242012082701320328741842       PES0000045000A042592012082412270015                                                
6024600045000122380132032874184200050000058                                                                                     
7PESE                                                                                000000000045000                            
50000810201208242012082700720328741842       PES0000042000A042592012082412280016                                                
6024600042000122380072032874184200045000084                                                                                     
7PESE                                                                                000000000042000                            
50000910201208242012082702392121407081       PES0000026000A601932012082412130174                                                
6024600026000122370239212140708100000000000                                                                                     
7PESE                                                                                000000000026000                            
50001010201208242012082702392116334631       PES0000026000A601932012082412130175                                                
6024600026000122370239211633463100000000042                                                                                     
7PESE                                                                                000000000026000                            
50001110201208242012082702391427847947       PES0000026000A601932012082412130176                                                
6024600026000122370239142784794700000000099                                                                                     
7PESE                                                                                000000000026000                            
50001210201208242012082702393338933858       PES0000026000A085792012082412480064                                                
6024600026000122370239333893385800000000021                                                                                     
7PESE                                                                                000000000026000                            
50001310201208242012082700711432173639       PES0000023500A072162012082410510016                                                
6024600023500122380071143217363900055000042                                                                                     
7PESE                                                                                000000000023500                            
50001410201208242012082700712429623155       PES0000023500A093992012082412460007                                                
6024600023500122420071242962315500055000063                                                                                     
7PESE                                                                                000000000023500                            
50001510201208242012082700711238598705       PES0000023500A093992012082412460008                                                
6024600023500122420071123859870500055000016                                                                                     
7PESE                                                                                000000000023500                            
50001610201208242012082700713010428619       PES0000023500A048732012082414540139                                                
6024600023500122430071301042861900055000099                                                                                     
7PESE                                                                                000000000023500                            
50001710201208242012082702390622278111       PES0000036000A090532012082414130113                                                
6024600036000122370239062227811100000000000                                                                                     
7PESE                                                                                000000000036000                            
50001810201208242012082700714422248376       PES0000023500D001442012082409120005                                                
6024600023500122430071442224837600055000036                                                                                     
7PESE                                                                                000000000023500                            
50001910201208242012082700713730565388       PES0000023500D000832012082416430132                                                
6024600023500122370071373056538800055000037                                                                                     
7PESE                                                                                000000000023500                            
50002010201208242012082701321007579197       PES0000045000A081812012082415270134                                                
6024600045000122420132100757919700050000058                                                                                     
7PESE                                                                                000000000045000                            
50002110201208242012082700712428682605       PES0000023500A040462012082416380277                                                
6024600023500122440071242868260500055000078                                                                                     
7PESE                                                                                000000000023500                            
50002210201208242012082701320522970963       PES0000045000A043992012082414470089                                                
6024600045000122410132052297096300050000021                                                                                     
7PESE                                                                                000000000045000                            
50002310201208242012082702390523091937       PES0000036000A112242012082409140002                                                
6024600036000122370239052309193700000000037                                                                                     
7PESE                                                                                000000000036000                            
50002410201208242012082700540336044247       PES0000027000A010562012082418150098                                                
6024600027000122430054033604424700000000090                                                                                     
7PESE                                                                                000000000027000                            
50002510201208242012082799030136044247       PES0000049000A010562012082418160099                                                
6024600049000122449903013604424700000000099                                                                                     
7PESE                                                                                000000000049000                            
50002610201208242012082717030817048034       PES0000025000A062422012082419050382                                                
6024600025000122371703081704803400050000000                                                                                     
7PESE                                                                                000000000025000                            
50002710201208242012082700712234100217       PES0000023500A106072012082418490026                                                
6024600023500122420071223410021700055000021                                                                                     
7PESE                                                                                000000000023500                            
50002810201208242012082717030623382824       PES0000025000A117112012082419000012                                                
6024600025000122381703062338282400050000037                                                                                     
7PESE                                                                                000000000025000                            
50002910201208242012082700712235430981       PES0000023500L120102012082414163019                                                
6024600023500122430071223543098100055000000                                                                                     
7PESE                                                                                000000000023500                            
50003010201208242012082701320616960713       PES0000045000L120082012082418198894                                                
6024600045000122400132061696071300050000063                                                                                     
7PESE                                                                                000000000045000                            
50003110201208242012082701320617639442       PES0000045000A105422012082410200001                                                
6024600045000122390132061763944200050000058                                                                                     
7PESE                                                                                000000000045000                            
50003210201208242012082702390525145147       PES0000036000M601622012082409500032                                                
6024600036000122370239052514514700000000015                                                                                     
7PESE                                                                                000000000036000                            
50003310201208242012082701320423091883       PES0000045000M600762012082413230034                                                
6024600045000122410132042309188300050000084                                                                                     
7PESE                                                                                000000000045000                            
50003410201208242012082701320522341465       PES0000045000L070532012082410408806                                                
6024600045000122410132052234146500050000021                                                                                     
7PESE                                                                                000000000045000                            
50003510201208252012082700540334949488       PES0000027000A100712012082509360007                                                
6024600027000122410054033494948800000000000                                                                                     
7PESE                                                                                000000000027000                            
50003610201208252012082701320520448271       PES0000045000A080052012082509390024                                                
6024600045000122410132052044827100050000016                                                                                     
7PESE                                                                                000000000045000                            
50003710201208252012082700710828547828       PES0000023500A080682012082509440037                                                
6024600023500122420071082854782800055000000                                                                                     
7PESE                                                                                000000000023500                            
50003810201208252012082701322523220623       PES0000045000A094982012082517200013                                                
6024600045000122400132252322062300050000036                                                                                     
7PESE                                                                                000000000045000                            
50003910201208252012082700714741704145       PES0000008000M600212012082511500016                                                
6024600008000122430071474170414500010000015                                                                                     
7PESE                                                                                000000000008000                            
50004010201208252012082717031011555867       PES0000025000M640252012082509230003                                                
6024600025000122431703101155586700050000084                                                                                     
7PESE                                                                                000000000025000                            
50004110201208252012082701320135383341       PES0000045000M810012012082511140030                                                
6024600045000122440132013538334100050000021                                                                                     
7PESE                                                                                000000000045000                            
50004210201208262012082700711912902460       PES0000023500D001482012082618030135                                                
6024600023500122420071191290246000055000000                                                                                     
7PESE                                                                                000000000023500                            
82012082700000100000420000013375000000000000000000000000000000000000000000042                                                   
9201208270000010000042000001337500000000000000000000000000000000000000000000042                                                 
