120120927PAGO FACIL               090060246FABIAN NORBERTO D´ERAMO                                                              
320120927000001FABIAN NORBERTO D´ERAMO                                                                                          
50000110201209262012092700711817202364       PES0000029000M600282012092512580143                                                
6024600029000122710071181720236400035000063                                                                                     
7PESE                                                                                000000000029000                            
50000210201209262012092700714746023633       PES0000009000A085422012092617300227                                                
6024600009000122740071474602363300025007384                                                                                     
7PESE                                                                                000000000009000                            
50000310201209262012092700714749685687       PES0000009000A085422012092617300228                                                
6024600009000122740071474968568700025007300                                                                                     
7PESE                                                                                000000000009000                            
50000410201209262012092798010134296191       PES0000015000M600412012092616420102                                                
6024600015000122729801013429619100000000021                                                                                     
7PESE                                                                                000000000015000                            
50000510201209262012092769012620226948       PES0000015000A092732012092609410017                                                
6024600015000122776901262022694800025000079                                                                                     
7PESE                                                                                000000000015000                            
50000610201209262012092700752330991489       PES0000019500A104352012092618430298                                                
6024600019500122740075233099148900030007363                                                                                     
7PESE                                                                                000000000019500                            
50000710201209262012092700712525072430       PES0000029000A065492012092618100072                                                
6024600029000122710071252507243000035000099                                                                                     
7PESE                                                                                000000000029000                            
50000810201209262012092700712332962964       PES0000029000M660062012092611560027                                                
6024600029000122720071233296296400035000063                                                                                     
7PESE                                                                                000000000029000                            
50000910201209262012092700714517829424       PES0000029000A037762012092615060258                                                
6024600029000122720071451782942400035000042                                                                                     
7PESE                                                                                000000000029000                            
50001010201209262012092700710923689005       PES0000029000A600182012092616490164                                                
6024600029000122740071092368900500035007342                                                                                     
7PESE                                                                                000000000029000                            
50001110201209262012092700711721483150       PES0000029000A117702012092611320025                                                
6024600029000122740071172148315000035007379                                                                                     
7PESE                                                                                000000000029000                            
50001210201209262012092700712622363127       PES0000029000D000592012092611390075                                                
6024600029000122740071262236312700035007242                                                                                     
7PESE                                                                                000000000029000                            
50001310201209262012092700714517702110       PES0000029000A025052012092611310058                                                
6024600029000122740071451770211000035007221                                                                                     
7PESE                                                                                000000000029000                            
50001410201209262012092717030334338199       PES0000030000A044632012092618440056                                                
6024600030000122701703033433819900000000000                                                                                     
7PESE                                                                                000000000030000                            
50001510201209262012092717030432221161       PES0000030000A084002012092618560045                                                
6024600030000122701703043222116100000000015                                                                                     
7PESE                                                                                000000000030000                            
50001610201209262012092717030528022293       PES0000030000A103492012092619020354                                                
6024600030000122701703052802229300000000016                                                                                     
7PESE                                                                                000000000030000                            
50001710201209262012092717030623290344       PES0000030000A087842012092616180016                                                
6024600030000122701703062329034400000000042                                                                                     
7PESE                                                                                000000000030000                            
50001810201209262012092717030722691892       PES0000030000A042552012092618260048                                                
6024600030000122701703072269189200000000078                                                                                     
7PESE                                                                                000000000030000                            
50001910201209262012092717030814852474       PES0000030000A078202012092611430038                                                
6024600030000122701703081485247400000000058                                                                                     
7PESE                                                                                000000000030000                            
50002010201209262012092717030817160419       PES0000030000A044342012092607540008                                                
6024600030000122701703081716041900000000079                                                                                     
7PESE                                                                                000000000030000                            
50002110201209262012092717031426078888       PES0000030000A078202012092611440039                                                
6024600030000122701703142607888800000000036                                                                                     
7PESE                                                                                000000000030000                            
50002210201209262012092717031604724565       PES0000030000M660232012092617040118                                                
6024600030000122701703160472456500000000021                                                                                     
7PESE                                                                                000000000030000                            
50002310201209262012092700720811297702       PES0000046500A025612012092612310055                                                
6024600046500122700072081129770200010000000                                                                                     
7PESE                                                                                000000000046500                            
50002410201209262012092700720424082722       PES0000046500A093072012092610380002                                                
6024600046500122730072042408272200010000000                                                                                     
7PESE                                                                                000000000046500                            
50002510201209262012092700720617821745       PES0000046500A601932012092610250062                                                
6024600046500122750072061782174500010000084                                                                                     
7PESE                                                                                000000000046500                            
50002610201209262012092760000634808620       PES0000080000A071782012092619000094                                                
6024600080000122706000063480862000050000042                                                                                     
7PESE                                                                                000000000080000                            
82012092700000100000260000007890000000000000000000000000000000000000000000026                                                   
9201209270000010000026000000789000000000000000000000000000000000000000000000026                                                 
