120110627PAGO FACIL               090060246FABIAN NORBERTO D´ERAMO                                                              
320110627000001FABIAN NORBERTO D´ERAMO                                                                                          
50000110201106242011062718302626843740       PES0000019000M600912011062415450030                                                
6024600019000111751830262684374000000000079                                                                                     
7PESE                                                                                000000000019000                            
50000210201106252011062718300618024491       PES0000019000A089372011062410350016                                                
6024600019000111751830061802449100000000036                                                                                     
7PESE                                                                                000000000019000                            
82011062700000100000020000000380000000000000000000000000000000000000000000002                                                   
9201106270000010000002000000038000000000000000000000000000000000000000000000002                                                 
