120110927PAGO FACIL               090060246FABIAN NORBERTO D´ERAMO                                                              
320110927000001FABIAN NORBERTO D´ERAMO                                                                                          
50000110201109262011092700504741199843       PES0000008500A093412011092618420017                                                
6024600008500112720050474119984300015000063                                                                                     
7PESE                                                                                000000000008500                            
50000210201109262011092737020426961792       PES0000009000A601492011092613240009                                                
6024600009000112733702042696179200000000000                                                                                     
7PESE                                                                                000000000009000                            
50000310201109262011092737020522309575       PES0000009000A049072011092612260260                                                
6024600009000112733702052230957500000000042                                                                                     
7PESE                                                                                000000000009000                            
50000410201109262011092799040225831394       PES0000017500A025172011092616170044                                                
6024600017500112699904022583139400000000079                                                                                     
7PESE                                                                                000000000017500                            
50000510201109262011092700503892825283       PES0000024500A110092011092619120010                                                
6024600024500112690050389282528300030000021                                                                                     
7PESE                                                                                000000000024500                            
50000610201109262011092700504420648961       PES0000024500L120102011092619389021                                                
6024600024500112690050442064896100030000063                                                                                     
7PESE                                                                                000000000024500                            
50000710201109262011092700504039917058       PES0000024500A089982011092613450276                                                
6024600024500112700050403991705800030000021                                                                                     
7PESE                                                                                000000000024500                            
50000810201109262011092700504331042209       PES0000024500A040462011092612040253                                                
6024600024500112700050433104220900030000042                                                                                     
7PESE                                                                                000000000024500                            
50000910201109262011092700504326470258       PES0000024500A034672011092617240003                                                
6024600024500112730050432647025800030000084                                                                                     
7PESE                                                                                000000000024500                            
50001010201109262011092700530232310414       PES0000038500A091892011092611020060                                                
6024600038500112760053023231041400010000057                                                                                     
7PESE                                                                                000000000038500                            
82011092700000100000100000002050000000000000000000000000000000000000000000010                                                   
9201109270000010000010000000205000000000000000000000000000000000000000000000010                                                 
