120110427PAGO FACIL               090060246FABIAN NORBERTO D´ERAMO                                                              
320110427000001FABIAN NORBERTO D´ERAMO                                                                                          
50000110201104262011042701272112656591       PES0000010000A049542011042609570047                                                
6024600010000111170127211265659100010000037                                                                                     
7PESE                                                                                000000000010000                            
50000210201104262011042702283439484908       PES0000016000A056902011042613290200                                                
6024600016000111190228343948490800000000015                                                                                     
7PESE                                                                                000000000016000                            
50000310201104262011042701270807871252       PES0000018000A082022011042611070122                                                
6024600018000111200127080787125200020000015                                                                                     
7PESE                                                                                000000000018000                            
50000410201104262011042748011025623457       PES0000020000A054762011042609570036                                                
6024600020000111204801102562345700000000058                                                                                     
7PESE                                                                                000000000020000                            
50000510201104262011042702281723803596       PES0000030000A025832011042614430007                                                
6024600030000111190228172380359600000000084                                                                                     
7PESE                                                                                000000000030000                            
50000610201104262011042702281818339180       PES0000030000A002092011042615330032                                                
6024600030000111190228181833918000000000063                                                                                     
7PESE                                                                                000000000030000                            
82011042700000100000060000001240000000000000000000000000000000000000000000006                                                   
9201104270000010000006000000124000000000000000000000000000000000000000000000006                                                 
