120121128PAGO FACIL               090060246FABIAN NORBERTO D´ERAMO                                                              
320121128000001FABIAN NORBERTO D´ERAMO                                                                                          
50000110201211272012112873000231405280       PES0000012000A113632012112721050191                                                
6024600012000123327300023140528000030000015                                                                                     
7PESE                                                                                000000000012000                            
50000210201211272012112873000137476071       PES0000012000A101442012112711470073                                                
6024600012000123337300013747607100030000036                                                                                     
7PESE                                                                                000000000012000                            
50000310201211272012112857010714591493       PES0000015000A103902012112720430231                                                
6024600015000123305701071459149300000000063                                                                                     
7PESE                                                                                000000000015000                            
50000410201211272012112857010521504378       PES0000015000A103902012112709310030                                                
6024600015000123315701052150437800000000099                                                                                     
7PESE                                                                                000000000015000                            
50000510201211272012112857010134053799       PES0000015000A110152012112719290195                                                
6024600015000123325701013405379900000000058                                                                                     
7PESE                                                                                000000000015000                            
50000610201211272012112829080227265212       PES0000015000A620572012112709240004                                                
6024600015000123332908022726521200030000021                                                                                     
7PESE                                                                                000000000015000                            
50000710201211272012112857010326643277       PES0000015000A620572012112711570020                                                
6024600015000123335701032664327700000000063                                                                                     
7PESE                                                                                000000000015000                            
50000810201211272012112857010326867617       PES0000015000A620572012112711570021                                                
6024600015000123335701032686761700000000079                                                                                     
7PESE                                                                                000000000015000                            
50000910201211272012112857010423159119       PES0000015000M620062012112716560050                                                
6024600015000123335701042315911900000000036                                                                                     
7PESE                                                                                000000000015000                            
50001010201211272012112857010423301820       PES0000015000A620572012112711550017                                                
6024600015000123335701042330182000000000063                                                                                     
7PESE                                                                                000000000015000                            
50001110201211272012112857010520037622       PES0000015000A620572012112711560018                                                
6024600015000123335701052003762200000000057                                                                                     
7PESE                                                                                000000000015000                            
50001210201211272012112857010523118937       PES0000015000A620572012112711560019                                                
6024600015000123335701052311893700000000063                                                                                     
7PESE                                                                                000000000015000                            
50001310201211272012112857010810104780       PES0000015000M620062012112711340030                                                
6024600015000123335701081010478000000000015                                                                                     
7PESE                                                                                000000000015000                            
50001410201211272012112898010131959927       PES0000015000A087612012112718050050                                                
6024600015000123359801013195992700000000021                                                                                     
7PESE                                                                                000000000015000                            
50001510201211272012112869013233096955       PES0000017500A058122012112710050017                                                
6024600017500123306901323309695500025000384                                                                                     
7PESE                                                                                000000000017500                            
50001610201211272012112869010636742730       PES0000020000A113092012112718380277                                                
6024600020000123356901063674273000000000015                                                                                     
7PESE                                                                                000000000020000                            
50001710201211272012112869014041194204       PES0000020000M620142012112712160021                                                
6024600020000123356901404119420400000000063                                                                                     
7PESE                                                                                000000000020000                            
50001810201211272012112869014138925915       PES0000020000A054392012112718380187                                                
6024600020000123356901413892591500000000000                                                                                     
7PESE                                                                                000000000020000                            
50001910201211272012112829081322431623       PES0000023000A099952012112714130078                                                
6024600023000123322908132243162300020000057                                                                                     
7PESE                                                                                000000000023000                            
50002010201211272012112829081318142705       PES0000023000A075392012112712480159                                                
6024600023000123352908131814270500020007384                                                                                     
7PESE                                                                                000000000023000                            
50002110201211272012112829081630427121       PES0000023000A109842012112712100048                                                
6024600023000123352908163042712100020007390                                                                                     
7PESE                                                                                000000000023000                            
50002210201211272012112829081724710955       PES0000023000A096192012112710210022                                                
6024600023000123352908172471095500020007215                                                                                     
7PESE                                                                                000000000023000                            
50002310201211272012112800771239918325       PES0000025500A602062012112711000053                                                
6024600025500123320077123991832500030000090                                                                                     
7PESE                                                                                000000000025500                            
50002410201211272012112800772428483656       PES0000025500A109842012112711520028                                                
6024600025500123340077242848365600030000000                                                                                     
7PESE                                                                                000000000025500                            
50002510201211272012112800773731188240       PES0000025500A088622012112713130248                                                
6024600025500123340077373118824000030000090                                                                                     
7PESE                                                                                000000000025500                            
50002610201211272012112800773440475276       PES0000025500A092092012112713220161                                                
6024600025500123350077344047527600030007179                                                                                     
7PESE                                                                                000000000025500                            
50002710201211272012112800773727466061       PES0000025500A091802012112712560231                                                
6024600025500123350077372746606100030007484                                                                                     
7PESE                                                                                000000000025500                            
50002810201211272012112800774333084152       PES0000025500A116342012112709360022                                                
6024600025500123350077433308415200030007399                                                                                     
7PESE                                                                                000000000025500                            
50002910201211272012112801331326926945       PES0000052000A088692012112711360092                                                
6024600052000123360133132692694500080000316                                                                                     
7PESE                                                                                000000000052000                            
82012112800000100000290000005785000000000000000000000000000000000000000000029                                                   
9201211280000010000029000000578500000000000000000000000000000000000000000000029                                                 
