120120328PAGO FACIL               090060246FABIAN NORBERTO D´ERAMO                                                              
320120328000001FABIAN NORBERTO D´ERAMO                                                                                          
50000110201203272012032888880000000042       PES0000001000A601432012032711520044                                                
6024600001000120898888000000004200000000016                                                                                     
7PESE                                                                                000000000001000                            
50000210201203272012032888880000000043       PES0000001000A601432012032711520043                                                
6024600001000120898888000000004300000000042                                                                                     
7PESE                                                                                000000000001000                            
50000310201203272012032800700925419050       PES0000020000A096182012032710360088                                                
6024600017500120800070092541905000025000736                                                                                     
7PESE                                                                                000000000020000                            
50000410201203272012032800705810428619       PES0000020000A018802012032715490011                                                
6024600020000120930070581042861900020000042                                                                                     
7PESE                                                                                000000000020000                            
82012032800000100000040000000420000000000000000000000000000000000000000000004                                                   
9201203280000010000004000000042000000000000000000000000000000000000000000000004                                                 
