120120828PAGO FACIL               090060246FABIAN NORBERTO D´ERAMO                                                              
320120828000001FABIAN NORBERTO D´ERAMO                                                                                          
50000110201208272012082800712524109823       PES0000023500L070562012082720047209                                                
6024600023500122430071252410982300055000015                                                                                     
7PESE                                                                                000000000023500                            
50000210201208272012082800711337149140       PES0000023500L070562012082719447202                                                
6024600023500122440071133714914000055007242                                                                                     
7PESE                                                                                000000000023500                            
50000310201208272012082800712524835612       PES0000023500A018912012082719000209                                                
6024600023500122440071252483561200055007215                                                                                     
7PESE                                                                                000000000023500                            
50000410201208272012082800713105387858       PES0000023500D001132012082710380085                                                
6024600023500122440071310538785800055007184                                                                                     
7PESE                                                                                000000000023500                            
50000510201208272012082817030721898269       PES0000025000M660232012082712220101                                                
6024600025000122411703072189826900050000016                                                                                     
7PESE                                                                                000000000025000                            
50000610201208272012082817031424317794       PES0000025000M640222012082709510050                                                
6024600025000122431703142431779400050000016                                                                                     
7PESE                                                                                000000000025000                            
50000710201208272012082817030624414399       PES0000025000A036952012082709320028                                                
6024600025000122441703062441439900050000057                                                                                     
7PESE                                                                                000000000025000                            
50000810201208272012082800540329399057       PES0000027000A058032012082709460011                                                
6024600027000122430054032939905700000000063                                                                                     
7PESE                                                                                000000000027000                            
50000910201208272012082800540332573681       PES0000027000A096192012082712090010                                                
6024600027000122430054033257368100000000021                                                                                     
7PESE                                                                                000000000027000                            
50001010201208272012082800722141875251       PES0000031000A115322012082717050077                                                
6024600031000122410072214187525100040000037                                                                                     
7PESE                                                                                000000000031000                            
50001110201208272012082800720521414830       PES0000042000A106012012082711090096                                                
6024600042000122420072052141483000045000000                                                                                     
7PESE                                                                                000000000042000                            
50001210201208272012082800720812497490       PES0000042000A091562012082714190229                                                
6024600042000122460072081249749000045000084                                                                                     
7PESE                                                                                000000000042000                            
50001310201208272012082801320230405347       PES0000045000M640492012082708450012                                                
6024600045000122410132023040534700050000021                                                                                     
7PESE                                                                                000000000045000                            
50001410201208272012082801320425821115       PES0000045000A040462012082715410256                                                
6024600045000122410132042582111500050000042                                                                                     
7PESE                                                                                000000000045000                            
50001510201208272012082801320230711224       PES0000045000A061432012082717260269                                                
6024600045000122420132023071122400050000042                                                                                     
7PESE                                                                                000000000045000                            
50001610201208272012082801322224339361       PES0000045000M620022012082712300027                                                
6024600045000122420132222433936100050000021                                                                                     
7PESE                                                                                000000000045000                            
50001710201208272012082801320423706537       PES0000045000A080942012082711530101                                                
6024600045000122450132042370653700050000000                                                                                     
7PESE                                                                                000000000045000                            
50001810201208272012082801320326980406       PES0000045000A613622012082711330085                                                
6024600045000122470132032698040600050000015                                                                                     
7PESE                                                                                000000000045000                            
50001910201208272012082899030132573681       PES0000049000A096192012082712080009                                                
6024600049000122449903013257368100000000016                                                                                     
7PESE                                                                                000000000049000                            
82012082800000100000190000006570000000000000000000000000000000000000000000019                                                   
9201208280000010000019000000657000000000000000000000000000000000000000000000019                                                 
