120110928PAGO FACIL               090060246FABIAN NORBERTO D´ERAMO                                                              
320110928000001FABIAN NORBERTO D´ERAMO                                                                                          
50000110201109272011092800502523873308       PES0000024500A072352011092708260014                                                
6024600024500112700050252387330800030000063                                                                                     
7PESE                                                                                000000000024500                            
50000210201109272011092800504137541221       PES0000024500A091602011092712490231                                                
6024600024500112700050413754122100030000036                                                                                     
7PESE                                                                                000000000024500                            
50000310201109272011092800504513077643       PES0000024500A107412011092719240013                                                
6024600024500112700050451307764300030000057                                                                                     
7PESE                                                                                000000000024500                            
50000410201109272011092800503222303408       PES0000024500A048412011092711150190                                                
6024600024500112710050322230340800030000000                                                                                     
7PESE                                                                                000000000024500                            
50000510201109272011092800504420420009       PES0000024500M600392011092714180082                                                
6024600024500112710050442042000900030000084                                                                                     
7PESE                                                                                000000000024500                            
50000610201109272011092800500524341562       PES0000024500A051202011092717370036                                                
6024600024500112720050052434156200030000084                                                                                     
7PESE                                                                                000000000024500                            
50000710201109272011092800500336153458       PES0000024500L120162011092716174785                                                
6024600024500112730050033615345800030007200                                                                                     
7PESE                                                                                000000000024500                            
50000810201109272011092800501117490998       PES0000024500A100912011092717350166                                                
6024600024500112730050111749099800030007437                                                                                     
7PESE                                                                                000000000024500                            
50000910201109272011092800501332970255       PES0000024500L120162011092716174784                                                
6024600024500112730050133297025500030007378                                                                                     
7PESE                                                                                000000000024500                            
50001010201109272011092800501334521076       PES0000024500M601502011092712540050                                                
6024600024500112730050133452107600030007415                                                                                     
7PESE                                                                                000000000024500                            
50001110201109272011092800502232986577       PES0000024500A082112011092717140106                                                
6024600024500112730050223298657700030007442                                                                                     
7PESE                                                                                000000000024500                            
50001210201109272011092800502425770169       PES0000024500M600182011092712420026                                                
6024600024500112730050242577016900030000078                                                                                     
7PESE                                                                                000000000024500                            
50001310201109272011092800502427725113       PES0000024500D001392011092716290044                                                
6024600024500112730050242772511300030007400                                                                                     
7PESE                                                                                000000000024500                            
50001410201109272011092800502813522605       PES0000024500L120162011092716174786                                                
6024600024500112730050281352260500030007242                                                                                     
7PESE                                                                                000000000024500                            
50001510201109272011092800502814401848       PES0000024500B030202011092710084571                                                
6024600024500112730050281440184800030007342                                                                                     
7PESE                                                                                000000000024500                            
50001610201109272011092800503728440090       PES0000024500A093412011092712540050                                                
6024600024500112730050372844009000030000057                                                                                     
7PESE                                                                                000000000024500                            
50001710201109272011092800530326807318       PES0000038500M620032011092718500114                                                
6024600038500112700053032680731800010000000                                                                                     
7PESE                                                                                000000000038500                            
82011092800000100000170000004305000000000000000000000000000000000000000000017                                                   
9201109280000010000017000000430500000000000000000000000000000000000000000000017                                                 