120110829PAGO FACIL               090060246FABIAN NORBERTO D´ERAMO                                                              
320110829000001FABIAN NORBERTO D´ERAMO                                                                                          
50000110201108262011082900502811994806       PES0000019500A058512011082511270042                                                
6024600019500112430050281199480600050007037                                                                                     
7PESE                                                                                000000000019500                            
50000210201108262011082901280328568331       PES0000036500A100122011082610420021                                                
6024600036500112440128032856833100000000099                                                                                     
7PESE                                                                                000000000036500                            
50000310201108262011082900504325559398       PES0000019500A095502011082611490098                                                
6024600019500112400050432555939800050000021                                                                                     
7PESE                                                                                000000000019500                            
50000410201108262011082902300814105969       PES0000034500A620572011082611000012                                                
6024600034500112380230081410596900000000058                                                                                     
7PESE                                                                                000000000034500                            
50000510201108262011082917021010065062       PES0000016000A095072011082611150066                                                
6024600016000112391702101006506200040000063                                                                                     
7PESE                                                                                000000000016000                            
50000610201108262011082917020427830810       PES0000016000A044342011082609390020                                                
6024600016000112411702042783081000040000079                                                                                     
7PESE                                                                                000000000016000                            
50000710201108262011082902302232599996       PES0000023500A057532011082611010070                                                
6024600023500112380230223259999600000000036                                                                                     
7PESE                                                                                000000000023500                            
50000810201108262011082900504743991496       PES0000007000A096192011082612460116                                                
6024600007000112380050474399149600015000079                                                                                     
7PESE                                                                                000000000007000                            
50000910201108262011082900503238887747       PES0000019500A096192011082612460117                                                
6024600019500112380050323888774700050000000                                                                                     
7PESE                                                                                000000000019500                            
50001010201108262011082902301916807661       PES0000023500A601882011082610000013                                                
6024600023500112380230191680766100000000042                                                                                     
7PESE                                                                                000000000023500                            
50001110201108262011082944010425553317       PES0000007500A028202011082613040111                                                
6024600007500112384401042555331700000000037                                                                                     
7PESE                                                                                000000000007500                            
50001210201108262011082900530713431927       PES0000035000A036182011082610250142                                                
6024600035000112420053071343192700035007100                                                                                     
7PESE                                                                                000000000035000                            
50001310201108262011082917020332159233       PES0000016000A102022011082613390061                                                
6024600016000112431702033215923300040007021                                                                                     
7PESE                                                                                000000000016000                            
50001410201108262011082900500217346399       PES0000019500A002542011082610450020                                                
6024600019500112430050021734639900050007063                                                                                     
7PESE                                                                                000000000019500                            
50001510201108262011082900504325426791       PES0000019500D000552011082612010065                                                
6024600019500112420050432542679100050000021                                                                                     
7PESE                                                                                000000000019500                            
50001610201108262011082999030230590893       PES0000041000A097172011082614370050                                                
6024600041000112429903023059089300000000084                                                                                     
7PESE                                                                                000000000041000                            
50001710201108262011082902301238407880       PES0000023500A017262011082609530011                                                
6024600023500112380230123840788000000000063                                                                                     
7PESE                                                                                000000000023500                            
50001810201108262011082902301337058285       PES0000023500A087212011082616140198                                                
6024600023500112380230133705828500000000000                                                                                     
7PESE                                                                                000000000023500                            
50001910201108262011082902301722486840       PES0000023500A107772011082613170103                                                
6024600023500112380230172248684000000000099                                                                                     
7PESE                                                                                000000000023500                            
50002010201108262011082900502622252161       PES0000019500A600432011082614060096                                                
6024600019500112380050262225216100050000058                                                                                     
7PESE                                                                                000000000019500                            
50002110201108262011082901280616185815       PES0000036500A098552011082617120353                                                
6024600036500112450128061618581500000000063                                                                                     
7PESE                                                                                000000000036500                            
50002210201108262011082900500525128996       PES0000019500A091502011082617150303                                                
6024600019500112400050052512899600050000063                                                                                     
7PESE                                                                                000000000019500                            
50002310201108262011082917020622068797       PES0000016000A039692011082617210024                                                
6024600016000112431702062206879700040000079                                                                                     
7PESE                                                                                000000000016000                            
50002410201108262011082901281230994462       PES0000036500D000142011082616230203                                                
6024600036500112380128123099446200000000015                                                                                     
7PESE                                                                                000000000036500                            
50002510201108262011082901280326433691       PES0000036500A090602011082617390337                                                
6024600036500112420128032643369100000000078                                                                                     
7PESE                                                                                000000000036500                            
50002610201108262011082900502716246789       PES0000019500A094052011082615040101                                                
6024600019500112420050271624678900050000000                                                                                     
7PESE                                                                                000000000019500                            
50002710201108262011082900502139879841       PES0000019500A015142011082615150007                                                
6024600019500112430050213987984100050007178                                                                                     
7PESE                                                                                000000000019500                            
50002810201108262011082902300427408696       PES0000034500A042062011082617190065                                                
6024600034500112380230042740869600000000015                                                                                     
7PESE                                                                                000000000034500                            
50002910201108262011082900502812581137       PES0000019500A028172011082618110105                                                
6024600019500112390050281258113700050000000                                                                                     
7PESE                                                                                000000000019500                            
50003010201108262011082900502716977641       PES0000019500A105382011082617160156                                                
6024600019500112430050271697764100050007178                                                                                     
7PESE                                                                                000000000019500                            
50003110201108262011082901280713724109       PES0000036500A017122011082618440063                                                
6024600036500112390128071372410900000000079                                                                                     
7PESE                                                                                000000000036500                            
50003210201108262011082901282131728404       PES0000036500A103662011082618370015                                                
6024600036500112430128213172840400000000057                                                                                     
7PESE                                                                                000000000036500                            
50003310201108262011082900504331859700       PES0000019500A056382011082613080072                                                
6024600019500112430050433185970000050007115                                                                                     
7PESE                                                                                000000000019500                            
50003410201108262011082900504326186653       PES0000019500A028072011082619280134                                                
6024600019500112430050432618665300050007178                                                                                     
7PESE                                                                                000000000019500                            
50003510201108262011082900504424728025       PES0000019500A035742011082618510342                                                
6024600019500112430050442472802500050007016                                                                                     
7PESE                                                                                000000000019500                            
50003610201108262011082900520614325696       PES0000026000A058062011082615530039                                                
6024600026000112380052061432569600005000563                                                                                     
7PESE                                                                                000000000026000                            
50003710201108262011082900501334245653       PES0000019500A103992011082618280182                                                
6024600019500112410050133424565300050000057                                                                                     
7PESE                                                                                000000000019500                            
50003810201108262011082901280423997106       PES0000036500A074942011082616180138                                                
6024600036500112390128042399710600000000078                                                                                     
7PESE                                                                                000000000036500                            
50003910201108262011082900500729994313       PES0000019500A037752011082617360061                                                
6024600019500112430050072999431300050007099                                                                                     
7PESE                                                                                000000000019500                            
50004010201108262011082900500212991586       PES0000019500A037752011082617360062                                                
6024600019500112430050021299158600050007084                                                                                     
7PESE                                                                                000000000019500                            
50004110201108262011082900501431970609       PES0000019500A096432011082619090016                                                
6024600019500112430050143197060900050007084                                                                                     
7PESE                                                                                000000000019500                            
50004210201108262011082902300425578594       PES0000034500L070092011082610294862                                                
6024600034500112380230042557859400000000016                                                                                     
7PESE                                                                                000000000034500                            
50004310201108262011082902300428391234       PES0000034500L070092011082611544869                                                
6024600034500112380230042839123400000000000                                                                                     
7PESE                                                                                000000000034500                            
50004410201108262011082900501526321831       PES0000019500M600712011082614330141                                                
6024600019500112430050152632183100050007199                                                                                     
7PESE                                                                                000000000019500                            
50004510201108262011082900501236741971       PES0000019500M601042011082612170080                                                
6024600019500112420050123674197100050000015                                                                                     
7PESE                                                                                000000000019500                            
50004610201108262011082901281325615310       PES0000036500M600292011082612470032                                                
6024600036500112450128132561531000000000042                                                                                     
7PESE                                                                                000000000036500                            
50004710201108262011082902300618324344       PES0000034500M600112011082613030126                                                
6024600034500112380230061832434400000000000                                                                                     
7PESE                                                                                000000000034500                            
50004810201108262011082900501913635174       PES0000019500L120192011082611093417                                                
6024600019500112430050191363517400050000042                                                                                     
7PESE                                                                                000000000019500                            
50004910201108262011082900502812200869       PES0000019500L120192011082611103418                                                
6024600019500112430050281220086900050000000                                                                                     
7PESE                                                                                000000000019500                            
50005010201108262011082900501527332352       PES0000019500L120212011082617228118                                                
6024600019500112430050152733235200050007121                                                                                     
7PESE                                                                                000000000019500                            
50005110201108272011082900502522630272       PES0000019500A054392011082710030001                                                
6024600019500112430050252263027200050007215                                                                                     
7PESE                                                                                000000000019500                            
50005210201108272011082917020523621470       PES0000016000A085052011082709280016                                                
6024600016000112431702052362147000040007115                                                                                     
7PESE                                                                                000000000016000                            
50005310201108272011082917020426152275       PES0000016000A085052011082709280017                                                
6024600016000112431702042615227500040007199                                                                                     
7PESE                                                                                000000000016000                            
50005410201108272011082900503238563543       PES0000019500A034162011082711170063                                                
6024600019500112430050323856354300050007237                                                                                     
7PESE                                                                                000000000019500                            
50005510201108272011082900502621551496       PES0000019500A056262011082711440091                                                
6024600019500112430050262155149600050007142                                                                                     
7PESE                                                                                000000000019500                            
50005610201108272011082900504424678224       PES0000019500A063662011082716010184                                                
6024600019500112430050442467822400050007263                                                                                     
7PESE                                                                                000000000019500                            
50005710201108272011082901281328908429       PES0000036500A080162011082718170035                                                
6024600036500112460128132890842900000000037                                                                                     
7PESE                                                                                000000000036500                            
50005810201108272011082901280520005244       PES0000036500A080162011082718170036                                                
6024600036500112460128052000524400000000084                                                                                     
7PESE                                                                                000000000036500                            
50005910201108272011082900500827270560       PES0000019500A025052011082718390159                                                
6024600019500112400050082727056000050000015                                                                                     
7PESE                                                                                000000000019500                            
50006010201108272011082901280424037008       PES0000036500A082002011082711050005                                                
6024600036500112420128042403700800000000058                                                                                     
7PESE                                                                                000000000036500                            
82011082900000100000600000014500000000000000000000000000000000000000000000060                                                   
9201108290000010000060000001450000000000000000000000000000000000000000000000060                                                 
