120120229PAGO FACIL               090060246FABIAN NORBERTO D´ERAMO                                                              
320120229000001FABIAN NORBERTO D´ERAMO                                                                                          
50000110201202282012022900694136982255       PES0000020000A092162012022814330253                                                
6024600020000120640069413698225500020000090                                                                                     
7PESE                                                                                000000000020000                            
50000210201202282012022900682235657972       PES0000021000A091192012022819340131                                                
6024600021000120590068223565797200020000063                                                                                     
7PESE                                                                                000000000021000                            
50000310201202282012022900682523687452       PES0000021000A048332012022815090096                                                
6024600021000120590068252368745200020000163                                                                                     
7PESE                                                                                000000000021000                            
50000410201202282012022900682717665137       PES0000021000A035912012022811120030                                                
6024600021000120590068271766513700020007821                                                                                     
7PESE                                                                                000000000021000                            
50000510201202282012022900684136982255       PES0000021000A092162012022814330254                                                
6024600021000120590068413698225500020007678                                                                                     
7PESE                                                                                000000000021000                            
50000610201202282012022900684517665137       PES0000021000A035912012022811120029                                                
6024600021000120590068451766513700020007800                                                                                     
7PESE                                                                                000000000021000                            
50000710201202282012022900684611554504       PES0000021000A071652012022817420165                                                
6024600021000120590068461155450400020007842                                                                                     
7PESE                                                                                000000000021000                            
50000810201202282012022901311325731586       PES0000097000A104522012022810210018                                                
6024600097000120580131132573158600000000057                                                                                     
7PESE                                                                                000000000097000                            
82012022900000100000080000002430000000000000000000000000000000000000000000008                                                   
9201202290000010000008000000243000000000000000000000000000000000000000000000008                                                 
