120111229PAGO FACIL               090060246FABIAN NORBERTO D´ERAMO                                                              
320111229000001FABIAN NORBERTO D´ERAMO                                                                                          
50000110201112282011122902320426496017       PES0000025000A062712011122719190134                                                
6024600025000120020232042649601700030000042                                                                                     
7PESE                                                                                000000000025000                            
50000210201112282011122900610213117550       PES0000014000A083902011122815480046                                                
6024600012000113600061021311755000020000299                                                                                     
7PESE                                                                                000000000014000                            
50000310201112282011122900612813565807       PES0000014000A036692011122817210263                                                
6024600012000113600061281356580700020008836                                                                                     
7PESE                                                                                000000000014000                            
50000410201112282011122900621114647031       PES0000012000A014492011122810360095                                                
6024600012000120030062111464703100020000084                                                                                     
7PESE                                                                                000000000012000                            
50000510201112282011122900622910650105       PES0000012000A048002011122817010188                                                
6024600012000120030062291065010500020000000                                                                                     
7PESE                                                                                000000000012000                            
50000610201112282011122929060223260302       PES0000013000A071272011122818400107                                                
6024600013000113632906022326030200000000037                                                                                     
7PESE                                                                                000000000013000                            
50000710201112282011122929060412238196       PES0000013000A109842011122815170009                                                
6024600013000113632906041223819600000000058                                                                                     
7PESE                                                                                000000000013000                            
50000810201112282011122929060124951784       PES0000013000A091192011122811340116                                                
6024600013000113642906012495178400000000063                                                                                     
7PESE                                                                                000000000013000                            
50000910201112282011122929060140335197       PES0000013000A091192011122811340117                                                
6024600013000113642906014033519700000000079                                                                                     
7PESE                                                                                000000000013000                            
50001010201112282011122929060316124333       PES0000013000A068832011122812150088                                                
6024600013000113642906031612433300000000000                                                                                     
7PESE                                                                                000000000013000                            
50001110201112282011122929060135290636       PES0000013000A084152011122814030129                                                
6024600013000120022906013529063600000000079                                                                                     
7PESE                                                                                000000000013000                            
50001210201112282011122929060314455091       PES0000013000A084152011122814030128                                                
6024600013000120022906031445509100000000015                                                                                     
7PESE                                                                                000000000013000                            
50001310201112282011122929060133677456       PES0000013000A034222011122819150198                                                
6024600013000120032906013367745600000000021                                                                                     
7PESE                                                                                000000000013000                            
50001410201112282011122929060224214960       PES0000013000A092062011122816580586                                                
6024600013000120032906022421496000000000037                                                                                     
7PESE                                                                                000000000013000                            
50001510201112282011122929060226169956       PES0000013000A031212011122810100020                                                
6024600013000120032906022616995600000000042                                                                                     
7PESE                                                                                000000000013000                            
50001610201112282011122929060228695386       PES0000013000A016922011122818260077                                                
6024600013000120032906022869538600000000021                                                                                     
7PESE                                                                                000000000013000                            
50001710201112282011122929060317594188       PES0000013000A043482011122814150219                                                
6024600013000120032906031759418800000000079                                                                                     
7PESE                                                                                000000000013000                            
50001810201112282011122929060318133840       PES0000013000A109842011122815170010                                                
6024600013000120032906031813384000000000036                                                                                     
7PESE                                                                                000000000013000                            
50001910201112282011122929060413753395       PES0000013000A056262011122813520128                                                
6024600013000120032906041375339500000000042                                                                                     
7PESE                                                                                000000000013000                            
50002010201112282011122929060414250332       PES0000013000A109842011122809010004                                                
6024600013000120032906041425033200000000042                                                                                     
7PESE                                                                                000000000013000                            
50002110201112282011122929060633214960       PES0000013000A092062011122816580587                                                
6024600013000120032906063321496000000000021                                                                                     
7PESE                                                                                000000000013000                            
50002210201112282011122929060722851223       PES0000013000A034222011122819140197                                                
6024600013000120032906072285122300000000058                                                                                     
7PESE                                                                                000000000013000                            
50002310201112282011122929060818049861       PES0000013000A043482011122814150218                                                
6024600013000120032906081804986100000000036                                                                                     
7PESE                                                                                000000000013000                            
50002410201112282011122929060892726374       PES0000013000A033032011122812390120                                                
6024600013000120032906089272637400000000058                                                                                     
7PESE                                                                                000000000013000                            
50002510201112282011122900612911040357       PES0000014000A091662011122814500302                                                
6024600014000120030061291104035700000000042                                                                                     
7PESE                                                                                000000000014000                            
50002610201112282011122900612331532456       PES0000014000A109282011122814280175                                                
6024600014000120040061233153245600000000042                                                                                     
7PESE                                                                                000000000014000                            
50002710201112282011122918360523515659       PES0000020000A091152011122811490209                                                
6024600020000113621836052351565900000000015                                                                                     
7PESE                                                                                000000000020000                            
50002810201112282011122918360233419578       PES0000020000A107952011122816520073                                                
6024600020000120031836023341957800000000036                                                                                     
7PESE                                                                                000000000020000                            
50002910201112282011122918360233586673       PES0000020000A101372011122814140010                                                
6024600020000120041836023358667300000000084                                                                                     
7PESE                                                                                000000000020000                            
50003010201112282011122918360425838674       PES0000020000A091652011122813230213                                                
6024600020000120041836042583867400000000000                                                                                     
7PESE                                                                                000000000020000                            
50003110201112282011122918360621003066       PES0000020000A094162011122813200169                                                
6024600020000120041836062100306600000000063                                                                                     
7PESE                                                                                000000000020000                            
50003210201112282011122902320427311770       PES0000025000A105982011122815440339                                                
6024600025000120030232042731177000030000079                                                                                     
7PESE                                                                                000000000025000                            
50003310201112282011122923061425591750       PES0000121600A028072011122813250212                                                
6024600121600113642306142559175000150000042                                                                                     
7PESE                                                                                000000000121600                            
50003410201112282011122923061738478393       PES0000121600A049172011122811330037                                                
6024600121600113642306173847839300150000021                                                                                     
7PESE                                                                                000000000121600                            
50003510201112282011122923061128229652       PES0000121600A057012011122811510147                                                
6024600121600120022306112822965200150000015                                                                                     
7PESE                                                                                000000000121600                            
82011122900000100000350000008418000000000000000000000000000000000000000000035                                                   
9201112290000010000035000000841800000000000000000000000000000000000000000000035                                                 
