120110830PAGO FACIL               090060246FABIAN NORBERTO D´ERAMO                                                              
320110830000001FABIAN NORBERTO D´ERAMO                                                                                          
50000110201108292011083000502425936747       PES0000019500A046102011082718220182                                                
6024600019500112430050242593674700050007142                                                                                     
7PESE                                                                                000000000019500                            
50000210201108292011083017020329112206       PES0000016000A103322011082910120099                                                
6024600016000112431702032911220600040007399                                                                                     
7PESE                                                                                000000000016000                            
50000310201108292011083017020329725743       PES0000016000A060922011082912050050                                                
6024600016000112431702032972574300040007157                                                                                     
7PESE                                                                                000000000016000                            
50000410201108292011083017020426058992       PES0000016000L071242011082920038969                                                
6024600016000112431702042605899200040007463                                                                                     
7PESE                                                                                000000000016000                            
50000510201108292011083017020426289895       PES0000016000A107592011082920310001                                                
6024600016000112431702042628989500040007390                                                                                     
7PESE                                                                                000000000016000                            
50000610201108292011083017020620223640       PES0000016000A068742011082909570064                                                
6024600016000112431702062022364000040007299                                                                                     
7PESE                                                                                000000000016000                            
50000710201108292011083017020621898465       PES0000016000M660232011082911050092                                                
6024600016000112431702062189846500040007415                                                                                     
7PESE                                                                                000000000016000                            
50000810201108292011083017020714760863       PES0000016000A082792011082910010008                                                
6024600016000112431702071476086300040007363                                                                                     
7PESE                                                                                000000000016000                            
50000910201108292011083017020792379077       PES0000016000A087232011082908460034                                                
6024600016000112431702079237907700040007116                                                                                     
7PESE                                                                                000000000016000                            
50001010201108292011083017020812067575       PES0000016000A640212011082910080025                                                
6024600016000112431702081206757500040007190                                                                                     
7PESE                                                                                000000000016000                            
50001110201108292011083017020813839490       PES0000016000A640142011082908000002                                                
6024600016000112431702081383949000040000000                                                                                     
7PESE                                                                                000000000016000                            
50001210201108292011083017020814397431       PES0000016000A082792011082910010007                                                
6024600016000112431702081439743100040007378                                                                                     
7PESE                                                                                000000000016000                            
50001310201108292011083017021321783596       PES0000016000M660232011082911060093                                                
6024600016000112431702132178359600040007457                                                                                     
7PESE                                                                                000000000016000                            
50001410201108292011083000540393925151       PES0000019000M600132011082911510104                                                
6024600019000112410054039392515100015000063                                                                                     
7PESE                                                                                000000000019000                            
50001510201108292011083000502231789147       PES0000019500A060572011082918450132                                                
6024600019500112410050223178914700050000084                                                                                     
7PESE                                                                                000000000019500                            
50001610201108292011083000502910659270       PES0000019500A620782011082911240004                                                
6024600019500112420050291065927000050000015                                                                                     
7PESE                                                                                000000000019500                            
50001710201108292011083000500924695854       PES0000019500A620812011082912060143                                                
6024600019500112430050092469585400050007458                                                                                     
7PESE                                                                                000000000019500                            
50001810201108292011083000501333845489       PES0000019500A103322011082911080164                                                
6024600019500112430050133384548900050007237                                                                                     
7PESE                                                                                000000000019500                            
50001910201108292011083000502136904884       PES0000019500A055272011082917190125                                                
6024600019500112430050213690488400050007442                                                                                     
7PESE                                                                                000000000019500                            
50002010201108292011083000502425913024       PES0000019500A061472011082915200199                                                
6024600019500112430050242591302400050007178                                                                                     
7PESE                                                                                000000000019500                            
50002110201108292011083000502524772521       PES0000019500A103322011082911080165                                                
6024600019500112430050252477252100050007221                                                                                     
7PESE                                                                                000000000019500                            
50002210201108292011083000502714952012       PES0000019500A025872011082914580009                                                
6024600019500112430050271495201200050007200                                                                                     
7PESE                                                                                000000000019500                            
50002310201108292011083000502801475681       PES0000019500A092222011082915470451                                                
6024600019500112430050280147568100050007157                                                                                     
7PESE                                                                                000000000019500                            
50002410201108292011083000502813468059       PES0000019500A096972011082911170121                                                
6024600019500112430050281346805900050000036                                                                                     
7PESE                                                                                000000000019500                            
50002510201108292011083000503105387858       PES0000019500A051302011082910130019                                                
6024600019500112430050310538785800050007178                                                                                     
7PESE                                                                                000000000019500                            
50002610201108292011083000503911893304       PES0000019500D000502011082912080072                                                
6024600019500112430050391189330400050007358                                                                                     
7PESE                                                                                000000000019500                            
50002710201108292011083000504136982255       PES0000019500A092112011082914400308                                                
6024600019500112430050413698225500050007379                                                                                     
7PESE                                                                                000000000019500                            
50002810201108292011083000504139063813       PES0000019500A068642011082918250006                                                
6024600019500112430050413906381300050007458                                                                                     
7PESE                                                                                000000000019500                            
50002910201108292011083000504329455283       PES0000019500A091912011082916110043                                                
6024600019500112430050432945528300050007415                                                                                     
7PESE                                                                                000000000019500                            
50003010201108292011083000504423834350       PES0000019500A091682011082914320199                                                
6024600019500112430050442383435000050000057                                                                                     
7PESE                                                                                000000000019500                            
50003110201108292011083000532433182419       PES0000026000A028072011082909550090                                                
6024600026000112420053243318241900030007536                                                                                     
7PESE                                                                                000000000026000                            
50003210201108292011083000532529683156       PES0000026000A038212011082911540094                                                
6024600026000112420053252968315600030000137                                                                                     
7PESE                                                                                000000000026000                            
50003310201108292011083000532940910926       PES0000026000A092062011082910060052                                                
6024600026000112420053294091092600030007590                                                                                     
7PESE                                                                                000000000026000                            
50003410201108292011083000530328686874       PES0000035000A073132011082919370039                                                
6024600035000112420053032868687400035007284                                                                                     
7PESE                                                                                000000000035000                            
50003510201108292011083001280617173690       PES0000036500A082002011082920510110                                                
6024600036500112420128061717369000000000084                                                                                     
7PESE                                                                                000000000036500                            
50003610201108292011083001280424636609       PES0000036500M601562011082913220037                                                
6024600036500112430128042463660900000000057                                                                                     
7PESE                                                                                000000000036500                            
50003710201108292011083001280521763189       PES0000036500M601562011082913220036                                                
6024600036500112430128052176318900000000021                                                                                     
7PESE                                                                                000000000036500                            
50003810201108292011083001282520538377       PES0000036500A085512011082917030245                                                
6024600036500112440128252053837700000000042                                                                                     
7PESE                                                                                000000000036500                            
50003910201108292011083001280520406844       PES0000036500A063842011082910540095                                                
6024600036500112450128052040684400000000000                                                                                     
7PESE                                                                                000000000036500                            
50004010201108292011083001280617208037       PES0000036500A103902011082919180119                                                
6024600036500112450128061720803700000000057                                                                                     
7PESE                                                                                000000000036500                            
50004110201108292011083001280616680116       PES0000036500A092542011082910530141                                                
6024600036500112460128061668011600000000021                                                                                     
7PESE                                                                                000000000036500                            
50004210201108292011083001280326932366       PES0000036500A086622011082910310015                                                
6024600036500112470128032693236600000000084                                                                                     
7PESE                                                                                000000000036500                            
50004310201108292011083001280230984306       PES0000036500A620812011082912120145                                                
6024600036500112480128023098430600000000078                                                                                     
7PESE                                                                                000000000036500                            
50004410201108292011083001280327180990       PES0000036500D000402011082916330058                                                
6024600036500112480128032718099000000000078                                                                                     
7PESE                                                                                000000000036500                            
50004510201108292011083001280328686874       PES0000036500A073132011082919370040                                                
6024600036500112480128032868687400000000021                                                                                     
7PESE                                                                                000000000036500                            
50004610201108292011083001280422730902       PES0000036500A065532011082909400001                                                
6024600036500112480128042273090200000000057                                                                                     
7PESE                                                                                000000000036500                            
50004710201108292011083001280422769864       PES0000036500B030792011082916295970                                                
6024600036500112480128042276986400000000037                                                                                     
7PESE                                                                                000000000036500                            
82011083000000100000470000011300000000000000000000000000000000000000000000047                                                   
9201108300000010000047000001130000000000000000000000000000000000000000000000047                                                 
