120120730PAGO FACIL               090060246FABIAN NORBERTO D´ERAMO                                                              
320120730000001FABIAN NORBERTO D´ERAMO                                                                                          
50000110201207272012073099030136808106       PES0000043000A034162012072618370137                                                
6024600043000122129903013680810600035000000                                                                                     
7PESE                                                                                000000000043000                            
50000210201207272012073000712622826277       PES0000018500A056252012072710290004                                                
6024600018500122090071262282627700090000042                                                                                     
7PESE                                                                                000000000018500                            
50000310201207272012073000710923698591       PES0000018500A042592012072709360004                                                
6024600018500122090071092369859100090000063                                                                                     
7PESE                                                                                000000000018500                            
50000410201207272012073000710123698591       PES0000018500A042592012072709590005                                                
6024600018500122090071012369859100090000063                                                                                     
7PESE                                                                                000000000018500                            
50000510201207272012073059002314907965       PES0000032000A039052012072709560009                                                
6024600032000122135900231490796500000000057                                                                                     
7PESE                                                                                000000000032000                            
50000610201207272012073000711624204125       PES0000018500A063842012072712560186                                                
6024600018500122090071162420412500090000042                                                                                     
7PESE                                                                                000000000018500                            
50000710201207272012073000540226562585       PES0000027000A085342012072714250023                                                
6024600027000122120054022656258500000000084                                                                                     
7PESE                                                                                000000000027000                            
50000810201207272012073000710925188468       PES0000018500A600432012072715540083                                                
6024600018500122090071092518846800090000042                                                                                     
7PESE                                                                                000000000018500                            
50000910201207272012073000712524424903       PES0000018500A059442012072711120016                                                
6024600018500122140071252442490300105000063                                                                                     
7PESE                                                                                000000000018500                            
50001010201207272012073000713910704425       PES0000018500A042332012072716250023                                                
6024600018500122120071391070442500105000021                                                                                     
7PESE                                                                                000000000018500                            
50001110201207272012073000713108093434       PES0000018500A680152012072711000035                                                
6024600018500122090071310809343400090000042                                                                                     
7PESE                                                                                000000000018500                            
50001210201207272012073000713913958233       PES0000018500A071202012072717560118                                                
6024600018500122140071391395823300105000021                                                                                     
7PESE                                                                                000000000018500                            
50001310201207272012073002383918486297       PES0000020000A048882012072718040014                                                
6024600020000122120238391848629700050007316                                                                                     
7PESE                                                                                000000000020000                            
50001410201207272012073002383723447127       PES0000020000A048882012072718040015                                                
6024600020000122120238372344712700050007363                                                                                     
7PESE                                                                                000000000020000                            
50001510201207272012073057000226489149       PES0000014000A085792012072717190011                                                
6024600014000122115700022648914900000000000                                                                                     
7PESE                                                                                000000000014000                            
50001610201207272012073099080126533157       PES0000008000A104552012072716400041                                                
6024600008000122159908012653315700000000021                                                                                     
7PESE                                                                                000000000008000                            
50001710201207272012073099080226533157       PES0000008000A104552012072716400042                                                
6024600008000122159908022653315700000000042                                                                                     
7PESE                                                                                000000000008000                            
50001810201207272012073000712428694382       PES0000018500A115672012072716300035                                                
6024600018500122090071242869438200090000079                                                                                     
7PESE                                                                                000000000018500                            
50001910201207272012073000711529517788       PES0000018500A115672012072716300036                                                
6024600018500122090071152951778800090000057                                                                                     
7PESE                                                                                000000000018500                            
50002010201207272012073000713636397651       PES0000018500A047512012072719160165                                                
6024600018500122110071363639765100105000057                                                                                     
7PESE                                                                                000000000018500                            
50002110201207272012073002380622840928       PES0000028000M620412012072710270003                                                
6024600028000122120238062284092800050007278                                                                                     
7PESE                                                                                000000000028000                            
50002210201207282012073002380622840735       PES0000028000A104702012072719170077                                                
6024600028000122120238062284073500050007358                                                                                     
7PESE                                                                                000000000028000                            
50002310201207282012073057000223338156       PES0000014000A097592012072707460016                                                
6024600014000122145700022333815600000000078                                                                                     
7PESE                                                                                000000000014000                            
50002410201207292012073057000320041655       PES0000014000A049942012072812220003                                                
6024600014000122145700032004165500000000090                                                                                     
7PESE                                                                                000000000014000                            
50002510201207292012073002382921763866       PES0000028000A036192012072916550122                                                
6024600028000122120238292176386600050007542                                                                                     
7PESE                                                                                000000000028000                            
82012073000000100000250000005060000000000000000000000000000000000000000000025                                                   
9201207300000010000025000000506000000000000000000000000000000000000000000000025                                                 
