120111230PAGO FACIL               090060246FABIAN NORBERTO D´ERAMO                                                              
320111230000001FABIAN NORBERTO D´ERAMO                                                                                          
50000110201112292011123029060411521500       PES0000013000A074942011122814280169                                                
6024600013000120032906041152150000000000015                                                                                     
7PESE                                                                                000000000013000                            
50000210201112292011123023061839760582       PES0000121600M600392011122816560082                                                
6024600121600113652306183976058200150000036                                                                                     
7PESE                                                                                000000000121600                            
50000310201112292011123029060818420979       PES0000013000M600022011122815550240                                                
6024600013000120032906081842097900000000084                                                                                     
7PESE                                                                                000000000013000                            
50000410201112292011123023061030307063       PES0000108800M640122011122810120011                                                
6024600108800113652306103030706300128000015                                                                                     
7PESE                                                                                000000000108800                            
50000510201112292011123018360329503995       PES0000020000M600852011122810530079                                                
6024600020000113621836032950399500000000036                                                                                     
7PESE                                                                                000000000020000                            
50000610201112292011123000612522991540       PES0000014000M601252011122915110167                                                
6024600012000113600061252299154000020008899                                                                                     
7PESE                                                                                000000000014000                            
50000710201112292011123000622814431708       PES0000012000A023702011122911240160                                                
6024600012000120030062281443170800020000058                                                                                     
7PESE                                                                                000000000012000                            
50000810201112292011123029060132678716       PES0000013000A092142011122915350290                                                
6024600013000113632906013267871600000000063                                                                                     
7PESE                                                                                000000000013000                            
50000910201112292011123029060139759121       PES0000013000A098212011122914220327                                                
6024600013000113632906013975912100000000090                                                                                     
7PESE                                                                                000000000013000                            
50001010201112292011123029060412154604       PES0000013000A098212011122914220326                                                
6024600013000113632906041215460400000000099                                                                                     
7PESE                                                                                000000000013000                            
50001110201112292011123029060630526676       PES0000013000A095862011122920350088                                                
6024600013000113632906063052667600000000036                                                                                     
7PESE                                                                                000000000013000                            
50001210201112292011123029060816973546       PES0000013000A098212011122914220328                                                
6024600013000113632906081697354600000000078                                                                                     
7PESE                                                                                000000000013000                            
50001310201112292011123029060410266381       PES0000013000A051302011122910370080                                                
6024600013000120012906041026638100000000063                                                                                     
7PESE                                                                                000000000013000                            
50001410201112292011123029060912425817       PES0000013000A051302011122910370081                                                
6024600013000120012906091242581700000000042                                                                                     
7PESE                                                                                000000000013000                            
50001510201112292011123029060632947834       PES0000013000A105382011122915030030                                                
6024600013000120022906063294783400000000036                                                                                     
7PESE                                                                                000000000013000                            
50001610201112292011123029060723737552       PES0000013000A098212011122914230329                                                
6024600013000120022906072373755200000000058                                                                                     
7PESE                                                                                000000000013000                            
50001710201112292011123029060224043082       PES0000013000A090992011122908480005                                                
6024600013000120032906022404308200000000021                                                                                     
7PESE                                                                                000000000013000                            
50001810201112292011123029060225188131       PES0000013000A098212011122913060289                                                
6024600013000120032906022518813100000000000                                                                                     
7PESE                                                                                000000000013000                            
50001910201112292011123029060227313790       PES0000013000A037752011122916430035                                                
6024600013000120032906022731379000000000000                                                                                     
7PESE                                                                                000000000013000                            
50002010201112292011123029060227789198       PES0000013000D000512011122920450143                                                
6024600013000120032906022778919800000000084                                                                                     
7PESE                                                                                000000000013000                            
50002110201112292011123029060320256863       PES0000013000A037752011122913280215                                                
6024600013000120032906032025686300000000084                                                                                     
7PESE                                                                                000000000013000                            
50002210201112292011123029060822138031       PES0000013000M601652011122916050295                                                
6024600013000120032906082213803100000000042                                                                                     
7PESE                                                                                000000000013000                            
50002310201112292011123000612621483560       PES0000014000A092092011122913410217                                                
6024600014000120030061262148356000000000090                                                                                     
7PESE                                                                                000000000014000                            
50002410201112292011123000613105387858       PES0000014000A076442011122910200008                                                
6024600014000120030061310538785800000000042                                                                                     
7PESE                                                                                000000000014000                            
50002510201112292011123000611720493575       PES0000014000A016922011122910250060                                                
6024600014000120040061172049357500000000078                                                                                     
7PESE                                                                                000000000014000                            
50002610201112292011123018360236405575       PES0000020000M601282011122910140007                                                
6024600020000113631836023640557500000000090                                                                                     
7PESE                                                                                000000000020000                            
50002710201112292011123018360525020453       PES0000020000A092122011122914460295                                                
6024600020000120021836052502045300000000063                                                                                     
7PESE                                                                                000000000020000                            
50002810201112292011123018360235266242       PES0000020000A028602011122910580046                                                
6024600020000120031836023526624200000000084                                                                                     
7PESE                                                                                000000000020000                            
50002910201112292011123018360331293289       PES0000020000A092402011122917550033                                                
6024600020000120051836033129328900000000021                                                                                     
7PESE                                                                                000000000020000                            
50003010201112292011123002320428369628       PES0000025000A087062011122912580038                                                
6024600025000120020232042836962800030000063                                                                                     
7PESE                                                                                000000000025000                            
50003110201112292011123002320523134946       PES0000025000A103752011122913380026                                                
6024600025000120020232052313494600030000090                                                                                     
7PESE                                                                                000000000025000                            
50003210201112292011123002320622173433       PES0000025000A103752011122913380025                                                
6024600025000120020232062217343300030000021                                                                                     
7PESE                                                                                000000000025000                            
50003310201112292011123002320428284530       PES0000025000A000162011122913550065                                                
6024600025000120040232042828453000030000084                                                                                     
7PESE                                                                                000000000025000                            
50003410201112292011123002320620518886       PES0000025000A026442011122918520037                                                
6024600025000120050232062051888600030000084                                                                                     
7PESE                                                                                000000000025000                            
50003510201112292011123023061521156175       PES0000121600A053302011122911220145                                                
6024600121600120042306152115617500150000021                                                                                     
7PESE                                                                                000000000121600                            
82011123000000100000350000008660000000000000000000000000000000000000000000035                                                   
9201112300000010000035000000866000000000000000000000000000000000000000000000035                                                 
