120120831PAGO FACIL               090060246FABIAN NORBERTO D´ERAMO                                                              
320120831000001FABIAN NORBERTO D´ERAMO                                                                                          
50000110201208302012083101320520254003       PES0000045000A105082012082920510107                                                
6024600045000122490132052025400300050000084                                                                                     
7PESE                                                                                000000000045000                            
50000210201208302012083100712523188299       PES0000023500A098582012082910270013                                                
6024600023500122440071252318829900055000063                                                                                     
7PESE                                                                                000000000023500                            
50000310201208302012083117031707891172       PES0000025000A062092012082909160002                                                
6024600025000122441703170789117200050007099                                                                                     
7PESE                                                                                000000000025000                            
50000410201208302012083100714612940296       PES0000023500A040462012082919180214                                                
6024600023500122440071461294029600055007416                                                                                     
7PESE                                                                                000000000023500                            
50000510201208302012083100712233469292       PES0000023500A040462012082919180215                                                
6024600023500122440071223346929200055007499                                                                                     
7PESE                                                                                000000000023500                            
50000610201208302012083100714740783647       PES0000008000M600212012083016410099                                                
6024600008000122440071474078364700010007290                                                                                     
7PESE                                                                                000000000008000                            
50000710201208302012083100714743728794       PES0000008000A025052012083017160007                                                
6024600008000122440071474372879400010007500                                                                                     
7PESE                                                                                000000000008000                            
50000810201208302012083157010231004145       PES0000015000A103902012083019500169                                                
6024600015000122485701023100414500000000099                                                                                     
7PESE                                                                                000000000015000                            
50000910201208302012083157010425397643       PES0000015000M620062012083010310013                                                
6024600015000122485701042539764300000000037                                                                                     
7PESE                                                                                000000000015000                            
50001010201208302012083157010616271296       PES0000015000M620062012083010300012                                                
6024600015000122485701061627129600000000099                                                                                     
7PESE                                                                                000000000015000                            
50001110201208302012083100711624343449       PES0000023500A042592012083011480017                                                
6024600023500122430071162434344900055000042                                                                                     
7PESE                                                                                000000000023500                            
50001210201208302012083100712621690936       PES0000023500A037702012083011380038                                                
6024600023500122430071262169093600055000021                                                                                     
7PESE                                                                                000000000023500                            
50001310201208302012083100710136021564       PES0000023500A042822012083016430181                                                
6024600023500122440071013602156400055007163                                                                                     
7PESE                                                                                000000000023500                            
50001410201208302012083100710430285572       PES0000023500A105472012083015430060                                                
6024600023500122440071043028557200055007463                                                                                     
7PESE                                                                                000000000023500                            
50001510201208302012083100710431792547       PES0000023500A083092012083011370062                                                
6024600023500122440071043179254700055007342                                                                                     
7PESE                                                                                000000000023500                            
50001610201208302012083100710432639543       PES0000023500D000262012083011260042                                                
6024600023500122440071043263954300055007400                                                                                     
7PESE                                                                                000000000023500                            
50001710201208302012083100710829153649       PES0000023500A090372012083012460136                                                
6024600023500122440071082915364900055007584                                                                                     
7PESE                                                                                000000000023500                            
50001810201208302012083100711335208253       PES0000023500A042822012083016510185                                                
6024600023500122440071133520825300055007442                                                                                     
7PESE                                                                                000000000023500                            
50001910201208302012083100711893085137       PES0000023500A042822012083016420180                                                
6024600023500122440071189308513700055007342                                                                                     
7PESE                                                                                000000000023500                            
50002010201208302012083100712138071609       PES0000023500A115832012083017290121                                                
6024600023500122440071213807160900055007536                                                                                     
7PESE                                                                                000000000023500                            
50002110201208302012083100712235657972       PES0000023500A115322012083008080002                                                
6024600023500122440071223565797200055007400                                                                                     
7PESE                                                                                000000000023500                            
50002210201208302012083100712331432991       PES0000023500A097922012083011520094                                                
6024600023500122440071233143299100055007490                                                                                     
7PESE                                                                                000000000023500                            
50002310201208302012083100712331815479       PES0000023500A060922012083011070111                                                
6024600023500122440071233181547900055007458                                                                                     
7PESE                                                                                000000000023500                            
50002410201208302012083100712429227764       PES0000023500A093312012083011130060                                                
6024600023500122440071242922776400055007542                                                                                     
7PESE                                                                                000000000023500                            
50002510201208302012083100712525960561       PES0000023500M600552012083012530090                                                
6024600023500122440071252596056100055007584                                                                                     
7PESE                                                                                000000000023500                            
50002610201208302012083100712621541588       PES0000023500M600552012083012530091                                                
6024600023500122440071262154158800055007558                                                                                     
7PESE                                                                                000000000023500                            
50002710201208302012083100712622094791       PES0000023500A093812012083009560021                                                
6024600023500122440071262209479100055007316                                                                                     
7PESE                                                                                000000000023500                            
50002810201208302012083100712622400736       PES0000023500A075362012083013260115                                                
6024600023500122440071262240073600055007516                                                                                     
7PESE                                                                                000000000023500                            
50002910201208302012083100712718148089       PES0000023500A090612012083017550120                                                
6024600023500122440071271814808900055007379                                                                                     
7PESE                                                                                000000000023500                            
50003010201208302012083100712814233062       PES0000023500A081582012083015040031                                                
6024600023500122440071281423306200055007336                                                                                     
7PESE                                                                                000000000023500                            
50003110201208302012083100713237541221       PES0000023500A091592012083014050160                                                
6024600023500122440071323754122100055007579                                                                                     
7PESE                                                                                000000000023500                            
50003210201208302012083100713727466061       PES0000023500D000302012083012320125                                                
6024600023500122440071372746606100055007415                                                                                     
7PESE                                                                                000000000023500                            
50003310201208302012083100713822431833       PES0000023500M600822012083015170191                                                
6024600023500122440071382243183300055007563                                                                                     
7PESE                                                                                000000000023500                            
50003410201208302012083100713824699583       PES0000023500M600832012083011440016                                                
6024600023500122440071382469958300055007557                                                                                     
7PESE                                                                                000000000023500                            
50003510201208302012083100714137542958       PES0000023500D000482012083016440203                                                
6024600023500122440071413754295800055007537                                                                                     
7PESE                                                                                000000000023500                            
50003610201208302012083100714327110923       PES0000023500A008222012083010070016                                                
6024600023500122440071432711092300055007137                                                                                     
7PESE                                                                                000000000023500                            
50003710201208302012083100714328730479       PES0000023500A043122012083009120018                                                
6024600023500122440071432873047900055007258                                                                                     
7PESE                                                                                000000000023500                            
50003810201208302012083100714330376328       PES0000023500A601492012083011320026                                                
6024600023500122440071433037632800055007378                                                                                     
7PESE                                                                                000000000023500                            
50003910201208302012083100714330905847       PES0000023500A063842012083014070194                                                
6024600023500122440071433090584700055007416                                                                                     
7PESE                                                                                000000000023500                            
50004010201208302012083100714332199928       PES0000023500A063842012083014070193                                                
6024600023500122440071433219992800055007499                                                                                     
7PESE                                                                                000000000023500                            
50004110201208302012083100714420576652       PES0000023500A640822012083008290007                                                
6024600023500122440071442057665200055007458                                                                                     
7PESE                                                                                000000000023500                            
50004210201208302012083100714423045762       PES0000023500A080682012083012110088                                                
6024600023500122440071442304576200055007336                                                                                     
7PESE                                                                                000000000023500                            
50004310201208302012083100714423104697       PES0000023500A082002012083012020001                                                
6024600023500122440071442310469700055007500                                                                                     
7PESE                                                                                000000000023500                            
50004410201208302012083100714513233985       PES0000023500A032472012083011200016                                                
6024600023500122440071451323398500055007357                                                                                     
7PESE                                                                                000000000023500                            
50004510201208302012083100714516253575       PES0000023500M600822012083015180192                                                
6024600023500122440071451625357500055007515                                                                                     
7PESE                                                                                000000000023500                            
50004610201208302012083100714520024378       PES0000023500M600212012083016410098                                                
6024600023500122440071452002437800055007284                                                                                     
7PESE                                                                                000000000023500                            
50004710201208302012083100714646721096       PES0000023500A085592012083017120027                                                
6024600023500122440071464672109600055007290                                                                                     
7PESE                                                                                000000000023500                            
50004810201208302012083117030122163564       PES0000025000A054392012083018480041                                                
6024600025000122441703012216356400050007242                                                                                     
7PESE                                                                                000000000025000                            
50004910201208302012083117030128764130       PES0000025000A105852012083018330059                                                
6024600025000122441703012876413000050007484                                                                                     
7PESE                                                                                000000000025000                            
50005010201208302012083117030238136350       PES0000025000M640252012083016530044                                                
6024600025000122441703023813635000050007500                                                                                     
7PESE                                                                                000000000025000                            
50005110201208302012083117030430614821       PES0000025000A640172012083010130020                                                
6024600025000122441703043061482100050007384                                                                                     
7PESE                                                                                000000000025000                            
50005210201208302012083117030431022972       PES0000025000A104202012083019110028                                                
6024600025000122441703043102297200050007479                                                                                     
7PESE                                                                                000000000025000                            
50005310201208302012083117030432130199       PES0000025000M640372012083009590006                                                
6024600025000122441703043213019900050007136                                                                                     
7PESE                                                                                000000000025000                            
50005410201208302012083117030433424776       PES0000025000A104202012083019120029                                                
6024600025000122441703043342477600050007542                                                                                     
7PESE                                                                                000000000025000                            
50005510201208302012083117030527589552       PES0000025000A116572012083017160065                                                
6024600025000122441703052758955200050007490                                                                                     
7PESE                                                                                000000000025000                            
50005610201208302012083117030528158491       PES0000025000A064792012083018320056                                                
6024600025000122441703052815849100050007321                                                                                     
7PESE                                                                                000000000025000                            
50005710201208302012083117030623991151       PES0000025000A640842012083009550022                                                
6024600025000122441703062399115100050007442                                                                                     
7PESE                                                                                000000000025000                            
50005810201208302012083117030721511061       PES0000025000A640842012083009550021                                                
6024600025000122441703072151106100050007484                                                                                     
7PESE                                                                                000000000025000                            
50005910201208302012083117030721804060       PES0000025000A103812012083011120036                                                
6024600025000122441703072180406000050007484                                                                                     
7PESE                                                                                000000000025000                            
50006010201208302012083117031012569096       PES0000025000M640252012083016190042                                                
6024600025000122441703101256909600050007542                                                                                     
7PESE                                                                                000000000025000                            
50006110201208302012083117031110065062       PES0000025000A640162012083011430043                                                
6024600025000122441703111006506200050007484                                                                                     
7PESE                                                                                000000000025000                            
50006210201208302012083117031714131751       PES0000025000A107592012083017360067                                                
6024600025000122441703171413175100050007521                                                                                     
7PESE                                                                                000000000025000                            
50006310201208302012083117031737333871       PES0000025000A107592012083017360066                                                
6024600025000122441703173733387100050007500                                                                                     
7PESE                                                                                000000000025000                            
50006410201208302012083102393917881248       PES0000026000A601092012083011190015                                                
6024600026000122430239391788124800000000063                                                                                     
7PESE                                                                                000000000026000                            
50006510201208302012083100723730143231       PES0000031000A093312012083011130059                                                
6024600031000122490072373014323100040000137                                                                                     
7PESE                                                                                000000000031000                            
50006610201208302012083100723814567116       PES0000031000A043482012083014150065                                                
6024600031000122490072381456711600040000178                                                                                     
7PESE                                                                                000000000031000                            
50006710201208302012083101320522467167       PES0000045000A089882012083017150039                                                
6024600045000122430132052246716700050000000                                                                                     
7PESE                                                                                000000000045000                            
50006810201208302012083160000639589344       PES0000075000A113242012083012260033                                                
6024600075000122446000063958934400050007263                                                                                     
7PESE                                                                                000000000075000                            
82012083100000100000680000016790000000000000000000000000000000000000000000068                                                   
9201208310000010000068000001679000000000000000000000000000000000000000000000068                                                 
