120110603PAGO FACIL               090060246FABIAN NORBERTO D´ERAMO                                                              
320110603000001FABIAN NORBERTO D´ERAMO                                                                                          
50000110201106022011060348011412187765       PES0000020000M660142011060216578474                                                
6024600020000111574801141218776500000000021                                                                                     
7PESE                                                                                000000000020000                            
50000210201106022011060399030234229591       PES0000035000A063842011060217100032                                                
6024600035000111589903023422959100035000221                                                                                     
7PESE                                                                                000000000035000                            
82011060300000100000020000000550000000000000000000000000000000000000000000002                                                   
9201106030000010000002000000055000000000000000000000000000000000000000000000002                                                 
