120110504PAGO FACIL               090060246FABIAN NORBERTO D´ERAMO                                                              
320110504000001FABIAN NORBERTO D´ERAMO                                                                                          
50000110201105032011050401272218532057       PES0000011000A039922011050309130011                                                
6024600011000111290127221853205700000000037                                                                                     
7PESE                                                                                000000000011000                            
50000210201105032011050401271514925387       PES0000020000A101712011050308430009                                                
6024600020000111280127151492538700000000084                                                                                     
7PESE                                                                                000000000020000                            
50000310201105032011050401270517195199       PES0000020000A039922011050309130012                                                
6024600020000111290127051719519900000000079                                                                                     
7PESE                                                                                000000000020000                            
50000410201105032011050401270420831107       PES0000020000A091072011050311190112                                                
6024600020000111300127042083110700000000036                                                                                     
7PESE                                                                                000000000020000                            
50000510201105032011050499030192890994       PES0000028000A071232011050315140070                                                
6024600028000111279903019289099400030000336                                                                                     
7PESE                                                                                000000000028000                            
50000610201105032011050499030231075840       PES0000035000A093092011050318060135                                                
6024600035000111279903023107584000035000363                                                                                     
7PESE                                                                                000000000035000                            
50000710201105032011050499030232638684       PES0000035000A089362011050310050025                                                
6024600035000111279903023263868400035000100                                                                                     
7PESE                                                                                000000000035000                            
50000810201105032011050499030234229591       PES0000035000A063842011050317150159                                                
6024600035000111279903023422959100035000300                                                                                     
7PESE                                                                                000000000035000                            
82011050400000100000080000002040000000000000000000000000000000000000000000008                                                   
9201105040000010000008000000204000000000000000000000000000000000000000000000008                                                 
