120110606PAGO FACIL               090060246FABIAN NORBERTO D´ERAMO                                                              
320110606000001FABIAN NORBERTO D´ERAMO                                                                                          
50000110201106032011060699030135337752       PES0000028000A103582011060311460086                                                
6024600028000111589903013533775200030000299                                                                                     
7PESE                                                                                000000000028000                            
50000210201106032011060699030130780255       PES0000028000D001432011060313230223                                                
6024600028000111589903013078025500030000258                                                                                     
7PESE                                                                                000000000028000                            
50000310201106032011060699030135376075       PES0000028000A051202011060315250013                                                
6024600028000111589903013537607500030000242                                                                                     
7PESE                                                                                000000000028000                            
50000410201106032011060699030235398990       PES0000035000D000242011060317340106                                                
6024600035000111589903023539899000035000315                                                                                     
7PESE                                                                                000000000035000                            
50000510201106032011060699040132507294       PES0000023500A049632011060317520148                                                
6024600023500111589904013250729400015000357                                                                                     
7PESE                                                                                000000000023500                            
50000610201106032011060699020132507294       PES0000015000A049632011060317520149                                                
6024600015000111589902013250729400000000342                                                                                     
7PESE                                                                                000000000015000                            
50000710201106032011060699030230219518       PES0000035000A076782011060317260072                                                
6024600035000111589903023021951800035000300                                                                                     
7PESE                                                                                000000000035000                            
50000810201106032011060699030231208574       PES0000035000A087932011060317490112                                                
6024600035000111589903023120857400035000384                                                                                     
7PESE                                                                                000000000035000                            
50000910201106032011060648010931503692       PES0000020000A072322011060318390113                                                
6024600020000111574801093150369200000000000                                                                                     
7PESE                                                                                000000000020000                            
50001010201106032011060699030136846689       PES0000028000M600472011060310030001                                                
6024600028000111589903013684668900030000279                                                                                     
7PESE                                                                                000000000028000                            
50001110201106042011060648010931085428       PES0000020000A103302011060408400012                                                
6024600020000111574801093108542800000000057                                                                                     
7PESE                                                                                000000000020000                            
50001210201106042011060699030236529254       PES0000035000A091792011060411580190                                                
6024600035000111589903023652925400035000237                                                                                     
7PESE                                                                                000000000035000                            
50001310201106042011060648011221062129       PES0000020000A095682011060411010034                                                
6024600020000111574801122106212900000000099                                                                                     
7PESE                                                                                000000000020000                            
50001410201106042011060699030226735116       PES0000035000A092792011060412170036                                                
6024600035000111589903022673511600035000390                                                                                     
7PESE                                                                                000000000035000                            
50001510201106042011060699030231295856       PES0000035000M600672011060410130001                                                
6024600035000111589903023129585600035000358                                                                                     
7PESE                                                                                000000000035000                            
50001610201106042011060699030234151454       PES0000035000M601522011060411030045                                                
6024600035000111589903023415145400035000300                                                                                     
7PESE                                                                                000000000035000                            
50001710201106052011060699030230531074       PES0000035000A088612011060519190310                                                
6024600035000111589903023053107400035000558                                                                                     
7PESE                                                                                000000000035000                            
82011060600000100000170000004905000000000000000000000000000000000000000000017                                                   
9201106060000010000017000000490500000000000000000000000000000000000000000000017                                                 
