120110613PAGO FACIL               090060246FABIAN NORBERTO D´ERAMO                                                              
320110613000001FABIAN NORBERTO D´ERAMO                                                                                          
50000110201106102011061399040225831394       PES0000017500A081712011060917470237                                                
6024600017500111669904022583139400000000016                                                                                     
7PESE                                                                                000000000017500                            
50000210201106102011061317020617914172       PES0000016000A078202011061010470083                                                
6024600016000111661702061791417200040000099                                                                                     
7PESE                                                                                000000000016000                            
50000310201106102011061302290717639442       PES0000021500A063842011061014210324                                                
6024600021500111660229071763944200030000099                                                                                     
7PESE                                                                                000000000021500                            
50000410201106102011061302291520838974       PES0000021500A063842011061014210325                                                
6024600021500111660229152083897400030000099                                                                                     
7PESE                                                                                000000000021500                            
50000510201106102011061399040230896192       PES0000017500A092332011061017040030                                                
6024600015000111589904023089619200025000778                                                                                     
7PESE                                                                                000000000017500                            
50000610201106112011061399030132248789       PES0000031000A056252011061113550231                                                
6024600031000111669903013224878900020000390                                                                                     
7PESE                                                                                000000000031000                            
82011061300000100000060000001250000000000000000000000000000000000000000000006                                                   
9201106130000010000006000000125000000000000000000000000000000000000000000000006                                                 
