120110617PAGO FACIL               090060246FABIAN NORBERTO D´ERAMO                                                              
320110617000001FABIAN NORBERTO D´ERAMO                                                                                          
50000110201106162011061718300426810960       PES0000015000A089832011061612150069                                                
6024600015000111691830042681096000040000300                                                                                     
7PESE                                                                                000000000015000                            
50000210201106162011061718303013852922       PES0000015000M601892011061613480165                                                
6024600015000111691830301385292200040000479                                                                                     
7PESE                                                                                000000000015000                            
50000310201106162011061717021224071616       PES0000016000A078202011061611180039                                                
6024600016000111731702122407161600040000057                                                                                     
7PESE                                                                                000000000016000                            
50000410201106162011061717021226907171       PES0000016000A640192011061608260003                                                
6024600016000111731702122690717100040000057                                                                                     
7PESE                                                                                000000000016000                            
82011061700000100000040000000620000000000000000000000000000000000000000000004                                                   
9201106170000010000004000000062000000000000000000000000000000000000000000000004                                                 
