120110623PAGO FACIL               090060246FABIAN NORBERTO D´ERAMO                                                              
320110623000001FABIAN NORBERTO D´ERAMO                                                                                          
50000110201106222011062317020812541787       PES0000016000A104132011062110300007                                                
6024600016000111731702081254178700040000037                                                                                     
7PESE                                                                                000000000016000                            
50000210201106222011062317020333538201       PES0000016000W001212011062209370921                                                
6024600016000111731702033353820100040000057                                                                                     
7PESE                                                                                000000000016000                            
50000310201106222011062318300524366262       PES0000019000A080102011062212330075                                                
6024600019000111751830052436626200000000063                                                                                     
7PESE                                                                                000000000019000                            
50000410201106222011062318302625614530       PES0000019000A055252011062216260054                                                
6024600019000111751830262561453000000000058                                                                                     
7PESE                                                                                000000000019000                            
82011062300000100000040000000700000000000000000000000000000000000000000000004                                                   
9201106230000010000004000000070000000000000000000000000000000000000000000000004                                                 
