120110429PAGO FACIL               090060246FABIAN NORBERTO D´ERAMO                                                              
320110429000001FABIAN NORBERTO D´ERAMO                                                                                          
50000110201104282011042902283718294698       PES0000016000A087922011042810140017                                                
6024600016000111190228371829469800000000063                                                                                     
7PESE                                                                                000000000016000                            
50000210201104282011042902283811623336       PES0000016000A010432011042812580082                                                
6024600016000111190228381162333600000000057                                                                                     
7PESE                                                                                000000000016000                            
50000310201104282011042901270322702757       PES0000018000A790122011042809360004                                                
6024600018000111190127032270275700020000090                                                                                     
7PESE                                                                                000000000018000                            
50000410201104282011042901270420020381       PES0000018000A100652011042817050033                                                
6024600018000111200127042002038100020007500                                                                                     
7PESE                                                                                000000000018000                            
50000510201104282011042901270492451391       PES0000018000M620732011042812250064                                                
6024600018000111200127049245139100020007521                                                                                     
7PESE                                                                                000000000018000                            
50000610201104282011042901270614106673       PES0000018000A102202011042814550046                                                
6024600018000111200127061410667300020007542                                                                                     
7PESE                                                                                000000000018000                            
50000710201104282011042901270711823667       PES0000018000M620062011042817020021                                                
6024600018000111200127071182366700020007563                                                                                     
7PESE                                                                                000000000018000                            
50000810201104282011042901271516102308       PES0000018000M620732011042812260065                                                
6024600018000111200127151610230800020007563                                                                                     
7PESE                                                                                000000000018000                            
82011042900000100000080000001400000000000000000000000000000000000000000000008                                                   
9201104290000010000008000000140000000000000000000000000000000000000000000000008                                                 
