120110531PAGO FACIL               090060246FABIAN NORBERTO D´ERAMO                                                              
320110531000001FABIAN NORBERTO D´ERAMO                                                                                          
50000110201105302011053199030228361121       PES0000035000A043162011053015450153                                                
6024600035000111579903022836112100035000000                                                                                     
7PESE                                                                                000000000035000                            
82011053100000100000010000000350000000000000000000000000000000000000000000001                                                   
9201105310000010000001000000035000000000000000000000000000000000000000000000001                                                 
