120110502PAGO FACIL               090060246FABIAN NORBERTO D´ERAMO                                                              
320110502000001FABIAN NORBERTO D´ERAMO                                                                                          
50000110201104292011050201272112447411       PES0000010000A104402011042817080042                                                
6024600010000111200127211244741100010007521                                                                                     
7PESE                                                                                000000000010000                            
50000210201104292011050201270612981066       PES0000018000A100652011042910550017                                                
6024600018000111200127061298106600020007142                                                                                     
7PESE                                                                                000000000018000                            
50000310201104292011050201270613300383       PES0000018000A039042011042912370211                                                
6024600018000111200127061330038300020007321                                                                                     
7PESE                                                                                000000000018000                            
50000410201104292011050201271516370050       PES0000018000A039042011042912370212                                                
6024600018000111200127151637005000020007378                                                                                     
7PESE                                                                                000000000018000                            
50000510201104292011050201270323061849       PES0000018000A640322011042914150054                                                
6024600018000111200127032306184900020007515                                                                                     
7PESE                                                                                000000000018000                            
50000610201104292011050202282525606401       PES0000030000A100692011042915530075                                                
6024600030000111190228252560640100000000000                                                                                     
7PESE                                                                                000000000030000                            
50000710201104292011050201270418286278       PES0000018000A064202011042918260074                                                
6024600018000111200127041828627800020007490                                                                                     
7PESE                                                                                000000000018000                            
50000810201104292011050202283933182132       PES0000016000A097662011042917160028                                                
6024600016000111190228393318213200000000084                                                                                     
7PESE                                                                                000000000016000                            
50000910201104292011050201270323678786       PES0000018000A044482011042914250030                                                
6024600018000111200127032367878600020007200                                                                                     
7PESE                                                                                000000000018000                            
50001010201104292011050201270421131369       PES0000018000A044482011042914250031                                                
6024600018000111200127042113136900020007284                                                                                     
7PESE                                                                                000000000018000                            
50001110201104292011050201270325277753       PES0000018000A066812011042917300219                                                
6024600018000111200127032527775300020007621                                                                                     
7PESE                                                                                000000000018000                            
50001210201104292011050201270806062824       PES0000018000A040232011042916510141                                                
6024600018000111200127080606282400020007616                                                                                     
7PESE                                                                                000000000018000                            
50001310201104292011050201270325171331       PES0000018000A040232011042916520142                                                
6024600018000111200127032517133100020007463                                                                                     
7PESE                                                                                000000000018000                            
50001410201104292011050201271712201949       PES0000018000A090832011042918140007                                                
6024600018000111200127171220194900020007600                                                                                     
7PESE                                                                                000000000018000                            
50001510201104292011050202281821950088       PES0000030000M600852011042916110162                                                
6024600030000111190228182195008800000000063                                                                                     
7PESE                                                                                000000000030000                            
50001610201104302011050201272127178535       PES0000010000A053152011043012200151                                                
6024600010000111200127212717853500010007658                                                                                     
7PESE                                                                                000000000010000                            
50001710201105012011050201270516101174       PES0000018000A053772011050111520002                                                
6024600018000111200127051610117400020007700                                                                                     
7PESE                                                                                000000000018000                            
82011050200000100000170000003120000000000000000000000000000000000000000000017                                                   
9201105020000010000017000000312000000000000000000000000000000000000000000000017                                                 
