120110706PAGO FACIL               090060246FABIAN NORBERTO D´ERAMO                                                              
320110706000001FABIAN NORBERTO D´ERAMO                                                                                          
50000110201107052011070617020523694871       PES0000016000A072322011070519340214                                                
6024600016000111891702052369487100040000078                                                                                     
7PESE                                                                                000000000016000                            
50000210201107052011070699030234430590       PES0000035000A097302011070516100124                                                
6024600035000111879903023443059000035000021                                                                                     
7PESE                                                                                000000000035000                            
50000310201107052011070699030216975364       PES0000035000A081572011070510500071                                                
6024600035000111889903021697536400035000315                                                                                     
7PESE                                                                                000000000035000                            
50000410201107052011070699030225909375       PES0000035000A084182011070515060070                                                
6024600035000111889903022590937500035000442                                                                                     
7PESE                                                                                000000000035000                            
50000510201107052011070699030229118464       PES0000035000A042822011070513460308                                                
6024600035000111889903022911846400035000363                                                                                     
7PESE                                                                                000000000035000                            
50000610201107052011070699030232148577       PES0000035000A098602011070516570161                                                
6024600035000111889903023214857700035000563                                                                                     
7PESE                                                                                000000000035000                            
50000710201107052011070699030233259978       PES0000035000A089892011070512510114                                                
6024600035000111889903023325997800035000584                                                                                     
7PESE                                                                                000000000035000                            
50000810201107052011070699030234229591       PES0000035000A063842011070515420137                                                
6024600035000111889903023422959100035000536                                                                                     
7PESE                                                                                000000000035000                            
50000910201107052011070699030235755195       PES0000035000A051312011070515070079                                                
6024600035000111889903023575519500035000478                                                                                     
7PESE                                                                                000000000035000                            
50001010201107052011070699030236087988       PES0000035000A085832011070517310279                                                
6024600035000111889903023608798800035000515                                                                                     
7PESE                                                                                000000000035000                            
82011070600000100000100000003310000000000000000000000000000000000000000000010                                                   
9201107060000010000010000000331000000000000000000000000000000000000000000000010                                                 
