120110511PAGO FACIL               090060246FABIAN NORBERTO D´ERAMO                                                              
320110511000001FABIAN NORBERTO D´ERAMO                                                                                          
50000110201105102011051199020228711930       PES0000010000A001862011051009440033                                                
6024600010000111359902022871193000000000178                                                                                     
7PESE                                                                                000000000010000                            
50000210201105102011051118290427820475       PES0000015000A046112011051015340067                                                
6024600015000111311829042782047500040000099                                                                                     
7PESE                                                                                000000000015000                            
50000310201105102011051118290138326692       PES0000015000A021692011051015460168                                                
6024600015000111331829013832669200040000400                                                                                     
7PESE                                                                                000000000015000                            
50000410201105102011051118290329033473       PES0000015000A095862011051016530149                                                
6024600015000111331829032903347300040000442                                                                                     
7PESE                                                                                000000000015000                            
50000510201105102011051118290522297439       PES0000015000A106052011051016140151                                                
6024600015000111331829052229743900040000499                                                                                     
7PESE                                                                                000000000015000                            
50000610201105102011051118293030526676       PES0000015000A095862011051016540150                                                
6024600015000111331829303052667600040000463                                                                                     
7PESE                                                                                000000000015000                            
50000710201105102011051148011122666191       PES0000018000A061232011051017000001                                                
6024600018000111324801112266619100020000021                                                                                     
7PESE                                                                                000000000018000                            
50000810201105102011051101270516130801       PES0000020000A099952011051018190038                                                
6024600020000111300127051613080100000000016                                                                                     
7PESE                                                                                000000000020000                            
50000910201105102011051101270421476268       PES0000020000M601652011051014390364                                                
6024600020000111310127042147626800000000090                                                                                     
7PESE                                                                                000000000020000                            
50001010201105102011051101270516763562       PES0000020000A086622011051013280091                                                
6024600020000111310127051676356200000000015                                                                                     
7PESE                                                                                000000000020000                            
50001110201105102011051199030130892513       PES0000031000A093102011051012020165                                                
6024600028000111279903013089251300030000716                                                                                     
7PESE                                                                                000000000031000                            
50001210201105102011051199030134249902       PES0000031000A053122011051011390108                                                
6024600031000111359903013424990200020000236                                                                                     
7PESE                                                                                000000000031000                            
50001310201105102011051199030136184135       PES0000031000A085482011051017490050                                                
6024600031000111359903013618413500020000299                                                                                     
7PESE                                                                                000000000031000                            
50001410201105102011051199030230219518       PES0000038500A097712011051016060115                                                
6024600035000111279903023021951800035000499                                                                                     
7PESE                                                                                000000000038500                            
82011051100000100000140000002945000000000000000000000000000000000000000000014                                                   
9201105110000010000014000000294500000000000000000000000000000000000000000000014                                                 
