120110523PAGO FACIL               090060246FABIAN NORBERTO D´ERAMO                                                              
320110523000001FABIAN NORBERTO D´ERAMO                                                                                          
50000110201105202011052301270323008021       PES0000020000A092732011052010100059                                                
6024600020000111420127032300802100000000057                                                                                     
7PESE                                                                                000000000020000                            
50000210201105202011052301270612621979       PES0000020000A085562011052009260010                                                
6024600020000111420127061262197900000000021                                                                                     
7PESE                                                                                000000000020000                            
50000310201105202011052301270130749343       PES0000020000A085562011052009260011                                                
6024600020000111420127013074934300000000058                                                                                     
7PESE                                                                                000000000020000                            
50000410201105202011052301271613750423       PES0000020000A045722011052012070018                                                
6024600020000111420127161375042300000000084                                                                                     
7PESE                                                                                000000000020000                            
50000510201105202011052301270420988025       PES0000020000D000132011052016420264                                                
6024600020000111420127042098802500000000079                                                                                     
7PESE                                                                                000000000020000                            
50000610201105202011052301272221164879       PES0000011000D001152011052009540011                                                
6024600011000111420127222116487900000000037                                                                                     
7PESE                                                                                000000000011000                            
50000710201105202011052301272105218748       PES0000011000A057532011052015040038                                                
6024600011000111420127210521874800000000037                                                                                     
7PESE                                                                                000000000011000                            
50000810201105202011052318291526725582       PES0000019000A057002011052018060119                                                
6024600019000111411829152672558200000000042                                                                                     
7PESE                                                                                000000000019000                            
50000910201105202011052301270324825095       PES0000020000A076592011052017140016                                                
6024600020000111420127032482509500000000063                                                                                     
7PESE                                                                                000000000020000                            
50001010201105202011052348011316248640       PES0000020000A036012011052009350039                                                
6024600020000111454801131624864000000000000                                                                                     
7PESE                                                                                000000000020000                            
50001110201105202011052301270130673837       PES0000020000A104442011052008560003                                                
6024600020000111420127013067383700000000016                                                                                     
7PESE                                                                                000000000020000                            
50001210201105202011052301270514800105       PES0000020000A039922011052017360065                                                
6024600020000111420127051480010500000000063                                                                                     
7PESE                                                                                000000000020000                            
50001310201105202011052301272226018217       PES0000011000A024232011052018320363                                                
6024600011000111420127222601821700000000057                                                                                     
7PESE                                                                                000000000011000                            
50001410201105202011052301270422000165       PES0000020000A039232011052018120305                                                
6024600020000111420127042200016500000000058                                                                                     
7PESE                                                                                000000000020000                            
50001510201105202011052301270421668328       PES0000020000A042432011052018300149                                                
6024600020000111420127042166832800000000037                                                                                     
7PESE                                                                                000000000020000                            
50001610201105202011052318292911587409       PES0000019000A058512011052011540004                                                
6024600019000111411829291158740900000000000                                                                                     
7PESE                                                                                000000000019000                            
50001710201105202011052301272223737552       PES0000011000A076912011052019130042                                                
6024600011000111420127222373755200000000000                                                                                     
7PESE                                                                                000000000011000                            
50001810201105202011052301270517776877       PES0000020000A065612011052014310020                                                
6024600020000111420127051777687700000000042                                                                                     
7PESE                                                                                000000000020000                            
50001910201105202011052318291817298956       PES0000019000M600292011052012450048                                                
6024600019000111411829181729895600000000078                                                                                     
7PESE                                                                                000000000019000                            
50002010201105202011052301270226126271       PES0000020000L120042011052013289457                                                
6024600020000111420127022612627100000000021                                                                                     
7PESE                                                                                000000000020000                            
50002110201105202011052301270420250031       PES0000020000M600842011052011360027                                                
6024600020000111420127042025003100000000036                                                                                     
7PESE                                                                                000000000020000                            
50002210201105212011052318292722173433       PES0000019000D001452011052110480029                                                
6024600019000111411829272217343300000000000                                                                                     
7PESE                                                                                000000000019000                            
50002310201105212011052301270613882084       PES0000020000A044492011052110570073                                                
6024600020000111420127061388208400000000063                                                                                     
7PESE                                                                                000000000020000                            
50002410201105212011052399030126949006       PES0000033000A034312011052115350160                                                
6024600033000111489903012694900600000000021                                                                                     
7PESE                                                                                000000000033000                            
50002510201105212011052301272216477439       PES0000011000A104682011052109390001                                                
6024600011000111420127221647743900000000063                                                                                     
7PESE                                                                                000000000011000                            
82011052300000100000250000004640000000000000000000000000000000000000000000025                                                   
9201105230000010000025000000464000000000000000000000000000000000000000000000025                                                 
