120110524PAGO FACIL               090060246FABIAN NORBERTO D´ERAMO                                                              
320110524000001FABIAN NORBERTO D´ERAMO                                                                                          
50000110201105232011052401270227688975       PES0000020000A063972011052314490135                                                
6024600020000111420127022768897500000000079                                                                                     
7PESE                                                                                000000000020000                            
50000210201105232011052401270613480615       PES0000020000L120202011052311412403                                                
6024600020000111420127061348061500000000021                                                                                     
7PESE                                                                                000000000020000                            
50000310201105232011052401271534253274       PES0000020000A602092011052313000055                                                
6024600020000111420127153425327400000000016                                                                                     
7PESE                                                                                000000000020000                            
50000410201105232011052448011316092764       PES0000020000A060922011052317240105                                                
6024600020000111444801131609276400000000016                                                                                     
7PESE                                                                                000000000020000                            
50000510201105232011052448010835085663       PES0000020000A052412011052317410077                                                
6024600020000111504801083508566300000000016                                                                                     
7PESE                                                                                000000000020000                            
82011052400000100000050000001000000000000000000000000000000000000000000000005                                                   
9201105240000010000005000000100000000000000000000000000000000000000000000000005                                                 
