120110428PAGO FACIL               090060246FABIAN NORBERTO D´ERAMO                                                              
320110428000001FABIAN NORBERTO D´ERAMO                                                                                          
50000110201104272011042802283625647035       PES0000016000A103662011042711280082                                                
6024600016000111190228362564703500000000042                                                                                     
7PESE                                                                                000000000016000                            
50000210201104272011042802283721156215       PES0000016000A079702011042710550131                                                
6024600016000111190228372115621500000000063                                                                                     
7PESE                                                                                000000000016000                            
50000310201104272011042801270322992305       PES0000018000M620732011042711300042                                                
6024600018000111200127032299230500020007499                                                                                     
7PESE                                                                                000000000018000                            
50000410201104272011042801270323515001       PES0000018000M620732011042711310044                                                
6024600018000111200127032351500100020007442                                                                                     
7PESE                                                                                000000000018000                            
50000510201104272011042801270422276357       PES0000018000M620732011042711320046                                                
6024600018000111200127042227635700020007399                                                                                     
7PESE                                                                                000000000018000                            
50000610201104272011042801270517255827       PES0000018000A092072011042716220208                                                
6024600018000111200127051725582700020007437                                                                                     
7PESE                                                                                000000000018000                            
50000710201104272011042801271418529046       PES0000018000A092072011042716220209                                                
6024600018000111200127141852904600020007421                                                                                     
7PESE                                                                                000000000018000                            
50000810201104272011042801271517443706       PES0000018000A613592011042710440053                                                
6024600018000111200127151744370600020007484                                                                                     
7PESE                                                                                000000000018000                            
50000910201104272011042802281820022587       PES0000030000A049632011042717450070                                                
6024600030000111170228182002258700000000084                                                                                     
7PESE                                                                                000000000030000                            
50001010201104272011042802281917256076       PES0000030000A031182011042719380049                                                
6024600030000111190228191725607600000000063                                                                                     
7PESE                                                                                000000000030000                            
50001110201104272011042802282208447187       PES0000030000A031182011042719380050                                                
6024600030000111190228220844718700000000037                                                                                     
7PESE                                                                                000000000030000                            
82011042800000100000110000002300000000000000000000000000000000000000000000011                                                   
9201104280000010000011000000230000000000000000000000000000000000000000000000011                                                 
