120110630PAGO FACIL               090060246FABIAN NORBERTO D´ERAMO                                                              
320110630000001FABIAN NORBERTO D´ERAMO                                                                                          
50000110201106292011063017020426476967       PES0000016000A051402011062917560015                                                
6024600016000111831702042647696700040000084                                                                                     
7PESE                                                                                000000000016000                            
50000210201106292011063002292720054275       PES0000018500A103032011062913560064                                                
6024600018500111820229272005427500000000057                                                                                     
7PESE                                                                                000000000018500                            
50000310201106292011063002290332554625       PES0000024500A015022011062911270106                                                
6024600024500111820229033255462500000000084                                                                                     
7PESE                                                                                000000000024500                            
50000410201106292011063002290427180990       PES0000024500A097192011062915560097                                                
6024600024500111820229042718099000000000084                                                                                     
7PESE                                                                                000000000024500                            
82011063000000100000040000000835000000000000000000000000000000000000000000004                                                   
9201106300000010000004000000083500000000000000000000000000000000000000000000004                                                 
