120130201PAGO FACIL               090060246FABIAN NORBERTO D´ERAMO                                                              
320130201000001FABIAN NORBERTO D´ERAMO                                                                                          
50000110201301302013020173010541160470       PES0000012000A078662013012908550076                                                
6024600012000130357301054116047000020000158                                                                                     
7PESE                                                                                000000000012000                            
50000210201301302013020173010920741116       PES0000012000A078662013012908560077                                                
6024600012000130357301092074111600020000142                                                                                     
7PESE                                                                                000000000012000                            
50000310201301302013020101341522598249       PES0000135000A002542013013010380044                                                
6024600135000130310134152259824900150000042                                                                                     
7PESE                                                                                000000000135000                            
50000410201301302013020173010823794764       PES0000012000A660332013013010070051                                                
6024600010000130287301082379476400020007637                                                                                     
7PESE                                                                                000000000012000                            
50000510201301302013020173010631188827       PES0000012000A068432013013010220149                                                
6024600012000130357301063118882700020000158                                                                                     
7PESE                                                                                000000000012000                            
50000610201301302013020173010229466773       PES0000012000A660392013013011570043                                                
6024600010000130287301022946677300020007690                                                                                     
7PESE                                                                                000000000012000                            
50000710201301302013020129090816685633       PES0000015000A107292013013010320070                                                
6024600015000130302909081668563300000000016                                                                                     
7PESE                                                                                000000000015000                            
50000810201301302013020101341423390563       PES0000135000A109342013013009570018                                                
6024600135000130360134142339056300150000099                                                                                     
7PESE                                                                                000000000135000                            
50000910201301302013020129090413033900       PES0000015000A083352013013010090001                                                
6024600015000130312909041303390000000000058                                                                                     
7PESE                                                                                000000000015000                            
50001010201301302013020101341618277606       PES0000135000A040542013013013070182                                                
6024600135000130350134161827760600150000090                                                                                     
7PESE                                                                                000000000135000                            
50001110201301302013020101341423091937       PES0000135000A602092013013010270018                                                
6024600135000130350134142309193700150000078                                                                                     
7PESE                                                                                000000000135000                            
50001210201301302013020173011320241042       PES0000010000A640642013013012010029                                                
6024600010000130357301132024104200020000142                                                                                     
7PESE                                                                                000000000010000                            
50001310201301302013020129091322342859       PES0000025000A039032013013013270072                                                
6024600025000130362909132234285900000000084                                                                                     
7PESE                                                                                000000000025000                            
50001410201301302013020129091321930198       PES0000025000A092162013013012390203                                                
6024600025000130362909132193019800000000058                                                                                     
7PESE                                                                                000000000025000                            
50001510201301302013020129090412785247       PES0000015000A110622013013013390043                                                
6024600015000130322909041278524700000000079                                                                                     
7PESE                                                                                000000000015000                            
50001610201301302013020129090112785247       PES0000015000A110622013013013400044                                                
6024600015000130332909011278524700000000042                                                                                     
7PESE                                                                                000000000015000                            
50001710201301302013020173010921375171       PES0000012000D001542013013015090206                                                
6024600010000130287301092137517100020007663                                                                                     
7PESE                                                                                000000000012000                            
50001810201301302013020129090228648801       PES0000015000A093702013013019530012                                                
6024600015000130352909022864880100000000016                                                                                     
7PESE                                                                                000000000015000                            
50001910201301302013020102430522194734       PES0000040000A104782013013018550007                                                
6024600040000130300243052219473400075000079                                                                                     
7PESE                                                                                000000000040000                            
50002010201301302013020173010417734649       PES0000012000A115752013013010590062                                                
6024600012000130357301041773464900020000121                                                                                     
7PESE                                                                                000000000012000                            
50002110201301302013020100783442237929       PES0000019500A109552013013016050043                                                
6024600019500130310078344223792900030007342                                                                                     
7PESE                                                                                000000000019500                            
50002210201301302013020100783442237928       PES0000019500A109552013013016050044                                                
6024600019500130310078344223792800030007316                                                                                     
7PESE                                                                                000000000019500                            
50002310201301302013020129090723737552       PES0000015000A101492013013017120077                                                
6024600015000130362909072373755200000000084                                                                                     
7PESE                                                                                000000000015000                            
50002410201301302013020129090225257701       PES0000015000A016682013013018230116                                                
6024600015000130332909022525770100000000079                                                                                     
7PESE                                                                                000000000015000                            
50002510201301302013020129090322425004       PES0000015000A016682013013018230117                                                
6024600015000130332909032242500400000000015                                                                                     
7PESE                                                                                000000000015000                            
50002610201301302013020129090892844966       PES0000015000A016682013013018230118                                                
6024600015000130332909089284496600000000000                                                                                     
7PESE                                                                                000000000015000                            
50002710201301302013020129090227130176       PES0000015000A099492013013014570008                                                
6024600015000130372909022713017600000000090                                                                                     
7PESE                                                                                000000000015000                            
50002810201301302013020129090412665777       PES0000015000A083982013013018440055                                                
6024600015000130362909041266577700000000063                                                                                     
7PESE                                                                                000000000015000                            
50002910201301302013020129091320888896       PES0000025000A083982013013018440056                                                
6024600025000130352909132088889600000000021                                                                                     
7PESE                                                                                000000000025000                            
50003010201301302013020173010635474275       PES0000012000A116052013013010390009                                                
6024600012000130357301063547427500020000200                                                                                     
7PESE                                                                                000000000012000                            
50003110201301302013020102430618300986       PES0000040000A045372013013020440229                                                
6024600040000130320243061830098600075000000                                                                                     
7PESE                                                                                000000000040000                            
50003210201301302013020100781238422672       PES0000019500A025052013013016330006                                                
6024600019500130310078123842267200030007421                                                                                     
7PESE                                                                                000000000019500                            
50003310201301302013020100782332252524       PES0000019500A025052013013018020022                                                
6024600019500130310078233225252400030007500                                                                                     
7PESE                                                                                000000000019500                            
50003410201301302013020101341714371454       PES0000135000A076112013013020380051                                                
6024600135000130310134171437145400150000000                                                                                     
7PESE                                                                                000000000135000                            
50003510201301302013020100780136021564       PES0000019500A044222013013018090157                                                
6024600019500130310078013602156400030007521                                                                                     
7PESE                                                                                000000000019500                            
50003610201301302013020100781893085137       PES0000019500A044222013013018090158                                                
6024600019500130310078189308513700030007536                                                                                     
7PESE                                                                                000000000019500                            
50003710201301302013020100781335208253       PES0000019500A044222013013018110159                                                
6024600019500130310078133520825300030007590                                                                                     
7PESE                                                                                000000000019500                            
50003810201301302013020100784043728794       PES0000019500A044222013013019000198                                                
6024600019500130310078404372879400030007415                                                                                     
7PESE                                                                                000000000019500                            
50003910201301302013020129090316804058       PES0000015000M620042013013010280032                                                
6024600015000130362909031680405800000000042                                                                                     
7PESE                                                                                000000000015000                            
50004010201301302013020101341327311770       PES0000135000M601972013013011100020                                                
6024600135000130360134132731177000150000015                                                                                     
7PESE                                                                                000000000135000                            
50004110201301302013020101341328372060       PES0000135000M620002013013018100123                                                
6024600135000130370134132837206000150000058                                                                                     
7PESE                                                                                000000000135000                            
50004210201301302013020129091223186965       PES0000025000M620152013013011090012                                                
6024600025000130372909122318696500000000021                                                                                     
7PESE                                                                                000000000025000                            
50004310201301302013020129090727436653       PES0000015000M740002013013008460002                                                
6024600015000130302909072743665300000000084                                                                                     
7PESE                                                                                000000000015000                            
50004410201301302013020102430811825720       PES0000040000L070202013013012209233                                                
6024600040000130360243081182572000075000121                                                                                     
7PESE                                                                                000000000040000                            
50004510201301312013020101341617208276       PES0000135000A103902013013018550181                                                
6024600135000130300134161720827600150000015                                                                                     
7PESE                                                                                000000000135000                            
50004610201301312013020129090413924232       PES0000015000D001472013013120090333                                                
6024600015000130382909041392423200000000090                                                                                     
7PESE                                                                                000000000015000                            
50004710201301312013020102432526560836       PES0000030000L071192013013118361369                                                
6024600030000130360243252656083600050000037                                                                                     
7PESE                                                                                000000000030000                            
50004810201301312013020102431134107773       PES0000040000L071192013013118361368                                                
6024600040000130360243113410777300075000000                                                                                     
7PESE                                                                                000000000040000                            
50004910201301312013020101341423754240       PES0000135000A092672013013110510026                                                
6024600135000130310134142375424000150000021                                                                                     
7PESE                                                                                000000000135000                            
50005010201301312013020101341522920749       PES0000135000A111992013013117530030                                                
6024600135000130380134152292074900150000084                                                                                     
7PESE                                                                                000000000135000                            
82013020100000100000500000021120000000000000000000000000000000000000000000050                                                   
9201302010000010000050000002112000000000000000000000000000000000000000000000050                                                 
