120120801PAGO FACIL               090060246FABIAN NORBERTO D´ERAMO                                                              
320120801000001FABIAN NORBERTO D´ERAMO                                                                                          
50000110201207312012080100711432866262       PES0000018500A111842012072713550094                                                
6024600018500122160071143286626200105000042                                                                                     
7PESE                                                                                000000000018500                            
50000210201207312012080157001725514498       PES0000014000A103902012073120160236                                                
6024600014000122135700172551449800000000042                                                                                     
7PESE                                                                                000000000014000                            
50000310201207312012080159000712182734       PES0000016000A620572012073108520003                                                
6024600016000122135900071218273400000000084                                                                                     
7PESE                                                                                000000000016000                            
50000410201207312012080199020220442739       PES0000022000A077352012073119050209                                                
6024600022000122199902022044273900000000057                                                                                     
7PESE                                                                                000000000022000                            
50000510201207312012080117030721783546       PES0000025000A099662012073115570010                                                
6024600025000122191703072178354600050000084                                                                                     
7PESE                                                                                000000000025000                            
50000610201207312012080100540234949488       PES0000027000A100712012073114580195                                                
6024600027000122130054023494948800000000063                                                                                     
7PESE                                                                                000000000027000                            
50000710201207312012080102380716602152       PES0000033000A049232012073119070056                                                
6024600028000122120238071660215200050000100                                                                                     
7PESE                                                                                000000000033000                            
50000810201207312012080102390524040963       PES0000030000M620412012073111560004                                                
6024600030000122130239052404096300030000021                                                                                     
7PESE                                                                                000000000030000                            
50000910201207312012080102390621442955       PES0000030000A601492012073110140008                                                
6024600030000122150239062144295500030000063                                                                                     
7PESE                                                                                000000000030000                            
50001010201207312012080159002320035559       PES0000032000A077842012073115560070                                                
6024600032000122135900232003555900000000084                                                                                     
7PESE                                                                                000000000032000                            
50001110201207312012080199030133204730       PES0000049000A092732012073112490062                                                
6024600049000122139903013320473000000000078                                                                                     
7PESE                                                                                000000000049000                            
50001210201207312012080100540133434151       PES0000076000A112902012073118300012                                                
6024600076000122130054013343415100000000099                                                                                     
7PESE                                                                                000000000076000                            
82012080100000100000120000003725000000000000000000000000000000000000000000012                                                   
9201208010000010000012000000372500000000000000000000000000000000000000000000012                                                 
