120121001PAGO FACIL               090060246FABIAN NORBERTO D´ERAMO                                                              
320121001000001FABIAN NORBERTO D´ERAMO                                                                                          
50000110201209282012100100712813277664       PES0000029000A043162012092810220028                                                
6024600029000122740071281327766400035007390                                                                                     
7PESE                                                                                000000000029000                            
50000210201209282012100100711435959611       PES0000029000A055332012092811180096                                                
6024600029000122740071143595961100035007457                                                                                     
7PESE                                                                                000000000029000                            
50000310201209282012100117030913100679       PES0000030000A044492012092810590051                                                
6024600030000122721703091310067900000000042                                                                                     
7PESE                                                                                000000000030000                            
50000410201209282012100165000218316691       PES0000013000A023232012092811430189                                                
6024600013000122766500021831669100015000021                                                                                     
7PESE                                                                                000000000013000                            
50000510201209282012100100712814081746       PES0000029000A076762012092813350008                                                
6024600029000122740071281408174600035007421                                                                                     
7PESE                                                                                000000000029000                            
50000610201209282012100117030527292335       PES0000030000A102662012092811520038                                                
6024600030000122721703052729233500000000078                                                                                     
7PESE                                                                                000000000030000                            
50000710201209282012100165000430064932       PES0000013000A063662012092814120298                                                
6024600013000122796500043006493200015000090                                                                                     
7PESE                                                                                000000000013000                            
50000810201209282012100165000632146390       PES0000013000A063662012092814120299                                                
6024600013000122796500063214639000015000042                                                                                     
7PESE                                                                                000000000013000                            
50000910201209282012100165000612101463       PES0000013000A063662012092814120300                                                
6024600013000122796500061210146300015000078                                                                                     
7PESE                                                                                000000000013000                            
50001010201209282012100100711722735348       PES0000029000A080692012092812070108                                                
6024600029000122740071172273534800035007558                                                                                     
7PESE                                                                                000000000029000                            
50001110201209282012100100713233556124       PES0000029000A110382012092811230042                                                
6024600029000122740071323355612400035007442                                                                                     
7PESE                                                                                000000000029000                            
50001210201209282012100100713728620988       PES0000029000A101582012092814400259                                                
6024600029000122740071372862098800035007437                                                                                     
7PESE                                                                                000000000029000                            
50001310201209282012100100714331517833       PES0000029000A116372012092811590034                                                
6024600029000122740071433151783300035007436                                                                                     
7PESE                                                                                000000000029000                            
50001410201209282012100117030623462384       PES0000030000A097922012092817290328                                                
6024600030000122721703062346238400000000021                                                                                     
7PESE                                                                                000000000030000                            
50001510201209282012100117030334792593       PES0000030000A039692012092817330024                                                
6024600030000122721703033479259300000000021                                                                                     
7PESE                                                                                000000000030000                            
50001610201209282012100100714518324045       PES0000029000A090582012092809490032                                                
6024600029000122740071451832404500035007384                                                                                     
7PESE                                                                                000000000029000                            
50001710201209282012100100720522421813       PES0000046500D000592012092809050004                                                
6024600046500122780072052242181300010000090                                                                                     
7PESE                                                                                000000000046500                            
50001810201209282012100100720811985602       PES0000046500A056382012092813460100                                                
6024600046500122760072081198560200010000037                                                                                     
7PESE                                                                                000000000046500                            
50001910201209282012100198010133305806       PES0000015000A109582012092811320084                                                
6024600015000122749801013330580600000000021                                                                                     
7PESE                                                                                000000000015000                            
50002010201209282012100165000133608390       PES0000013000A095852012092815180023                                                
6024600013000122786500013360839000015000063                                                                                     
7PESE                                                                                000000000013000                            
50002110201209282012100100720910777768       PES0000046500A101582012092817480053                                                
6024600046500122780072091077776800010000000                                                                                     
7PESE                                                                                000000000046500                            
50002210201209282012100100713635083775       PES0000029000A047802012092816440138                                                
6024600029000122740071363508377500035007536                                                                                     
7PESE                                                                                000000000029000                            
50002310201209282012100100714331750796       PES0000029000A047802012092818250206                                                
6024600029000122740071433175079600035007437                                                                                     
7PESE                                                                                000000000029000                            
50002410201209282012100100540436044247       PES0000027000A010562012092815440001                                                
6024600027000122740054043604424700000000078                                                                                     
7PESE                                                                                000000000027000                            
50002510201209282012100100714740514363       PES0000009000A033472012092818460092                                                
6024600009000122740071474051436300025007579                                                                                     
7PESE                                                                                000000000009000                            
50002610201209282012100117030124210303       PES0000030000A044492012092818330124                                                
6024600030000122721703012421030300000000078                                                                                     
7PESE                                                                                000000000030000                            
50002710201209282012100118402432868978       PES0000015000A034222012092818050097                                                
6024600015000122771840243286897800100000042                                                                                     
7PESE                                                                                000000000015000                            
50002810201209282012100117030131056347       PES0000030000A117402012092807130006                                                
6024600030000122721703013105634700000000015                                                                                     
7PESE                                                                                000000000030000                            
50002910201209282012100100712622956268       PES0000029000A077842012092813160047                                                
6024600029000122730071262295626800035000057                                                                                     
7PESE                                                                                000000000029000                            
50003010201209282012100117031333969822       PES0000030000A107622012092811490082                                                
6024600030000122721703133396982200000000000                                                                                     
7PESE                                                                                000000000030000                            
50003110201209282012100117030527620517       PES0000030000A066952012092817110065                                                
6024600030000122721703052762051700000000090                                                                                     
7PESE                                                                                000000000030000                            
50003210201209282012100100720326900221       PES0000046500A007492012092818320013                                                
6024600046500122770072032690022100010000063                                                                                     
7PESE                                                                                000000000046500                            
50003310201209282012100117030722189120       PES0000030000A060922012092819240180                                                
6024600030000122721703072218912000000000078                                                                                     
7PESE                                                                                000000000030000                            
50003410201209282012100100712911554504       PES0000029000A095702012092817100055                                                
6024600029000122740071291155450400035007558                                                                                     
7PESE                                                                                000000000029000                            
50003510201209282012100100712139917058       PES0000029000A029032012092817320050                                                
6024600029000122740071213991705800035007500                                                                                     
7PESE                                                                                000000000029000                            
50003610201209282012100120050129042087       PES0000008000A049022012092817330068                                                
6024600008000122762005012904208700000000063                                                                                     
7PESE                                                                                000000000008000                            
50003710201209282012100100711722122312       PES0000029000A049022012092818170091                                                
6024600029000122740071172212231200035007542                                                                                     
7PESE                                                                                000000000029000                            
50003810201209282012100117030720067415       PES0000030000A087842012092819320035                                                
6024600030000122721703072006741500000000099                                                                                     
7PESE                                                                                000000000030000                            
50003910201209282012100117030913502378       PES0000030000A043642012092807550005                                                
6024600030000122721703091350237800000000015                                                                                     
7PESE                                                                                000000000030000                            
50004010201209282012100100754514051282       PES0000019500A036182012092816020104                                                
6024600019500122740075451405128200030007184                                                                                     
7PESE                                                                                000000000019500                            
50004110201209282012100117030433185946       PES0000030000A102282012092818560082                                                
6024600030000122721703043318594600000000079                                                                                     
7PESE                                                                                000000000030000                            
50004210201209282012100100753726718719       PES0000019500A014492012092815490047                                                
6024600019500122740075372671871900030007521                                                                                     
7PESE                                                                                000000000019500                            
50004310201209282012100100714235397313       PES0000029000L120342012092808123634                                                
6024600029000122740071423539731300035007363                                                                                     
7PESE                                                                                000000000029000                            
50004410201209282012100100711527270668       PES0000029000L120102012092809400790                                                
6024600029000122740071152727066800035007415                                                                                     
7PESE                                                                                000000000029000                            
50004510201209282012100100711432064725       PES0000029000M600682012092810430002                                                
6024600029000122740071143206472500035007499                                                                                     
7PESE                                                                                000000000029000                            
50004610201209282012100129080322029171       PES0000012000M601622012092815060142                                                
6024600012000122742908032202917100030007199                                                                                     
7PESE                                                                                000000000012000                            
50004710201209282012100129080633305592       PES0000012000M601622012092815070143                                                
6024600012000122742908063330559200030007137                                                                                     
7PESE                                                                                000000000012000                            
50004810201209282012100100714693217540       PES0000029000M620182012092815090090                                                
6024600029000122740071469321754000035007500                                                                                     
7PESE                                                                                000000000029000                            
50004910201209282012100100711624755647       PES0000029000A025052012092821170001                                                
6024600029000122740071162475564700035007315                                                                                     
7PESE                                                                                000000000029000                            
50005010201209282012100100712814602912       PES0000029000M600602012092810180001                                                
6024600029000122740071281460291200035007536                                                                                     
7PESE                                                                                000000000029000                            
50005110201209282012100100710403229093       PES0000029000M640332012092810260001                                                
6024600029000122720071040322909300035000058                                                                                     
7PESE                                                                                000000000029000                            
50005210201209282012100117030434469283       PES0000030000M660232012092808280011                                                
6024600030000122721703043446928300000000021                                                                                     
7PESE                                                                                000000000030000                            
50005310201209282012100117030337490830       PES0000030000M660232012092809530053                                                
6024600030000122721703033749083000000000016                                                                                     
7PESE                                                                                000000000030000                            
50005410201209282012100117030528499797       PES0000030000A118042012092823090052                                                
6024600030000122721703052849979700000000015                                                                                     
7PESE                                                                                000000000030000                            
50005510201209292012100100712716891150       PES0000029000A091782012092909420032                                                
6024600029000122740071271689115000035007121                                                                                     
7PESE                                                                                000000000029000                            
50005610201209292012100129081229772004       PES0000020000A069162012092909200024                                                
6024600020000122742908122977200400030007599                                                                                     
7PESE                                                                                000000000020000                            
50005710201209292012100100714041666485       PES0000029000A075392012092910270025                                                
6024600029000122740071404166648500035007300                                                                                     
7PESE                                                                                000000000029000                            
50005810201209292012100100751529345257       PES0000009750A061482012092912110029                                                
6024600009750122740075152934525700015507415                                                                                     
7PESE                                                                                000000000009750                            
50005910201209292012100100710828386263       PES0000029000A101582012092910530098                                                
6024600029000122740071082838626300035007299                                                                                     
7PESE                                                                                000000000029000                            
50006010201209292012100100713917073414       PES0000029000A011402012092913490155                                                
6024600029000122740071391707341400035007684                                                                                     
7PESE                                                                                000000000029000                            
50006110201209292012100165000429900857       PES0000013000A080682012092912220201                                                
6024600013000122736500042990085700015000057                                                                                     
7PESE                                                                                000000000013000                            
50006210201209292012100100712330653068       PES0000029000A077352012092910580054                                                
6024600029000122740071233065306800035007615                                                                                     
7PESE                                                                                000000000029000                            
50006310201209292012100199030133036717       PES0000049000A092732012092913040152                                                
6024600049000122759903013303671700000000036                                                                                     
7PESE                                                                                000000000049000                            
50006410201209292012100100540433036717       PES0000027000A092732012092913040153                                                
6024600027000122740054043303671700000000063                                                                                     
7PESE                                                                                000000000027000                            
50006510201209292012100100711335070700       PES0000029000A076762012092912120046                                                
6024600029000122740071133507070000035007563                                                                                     
7PESE                                                                                000000000029000                            
50006610201209292012100100712718165951       PES0000029000A103032012092910220002                                                
6024600029000122740071271816595100035000057                                                                                     
7PESE                                                                                000000000029000                            
50006710201209292012100100714741456263       PES0000009000A014492012092912290206                                                
6024600009000122740071474145626300025007221                                                                                     
7PESE                                                                                000000000009000                            
50006810201209292012100199030136399887       PES0000049000D000482012092912160133                                                
6024600049000122759903013639988700000000016                                                                                     
7PESE                                                                                000000000049000                            
50006910201209292012100199030336399887       PES0000021000D000482012092912160135                                                
6024600021000122749903033639988700000000099                                                                                     
7PESE                                                                                000000000021000                            
50007010201209292012100100752718321640       PES0000019500A031212012092911510123                                                
6024600019500122740075271832164000030007421                                                                                     
7PESE                                                                                000000000019500                            
50007110201209292012100100713913740422       PES0000029000A068642012092911070013                                                
6024600029000122740071391374042200035007690                                                                                     
7PESE                                                                                000000000029000                            
50007210201209292012100100714332252524       PES0000029000A025052012092916590002                                                
6024600029000122740071433225252400035007600                                                                                     
7PESE                                                                                000000000029000                            
50007310201209292012100100712524068783       PES0000029000A093812012092911170028                                                
6024600029000122740071252406878300035007500                                                                                     
7PESE                                                                                000000000029000                            
50007410201209292012100100714425006488       PES0000029000A110092012092909560013                                                
6024600029000122740071442500648800035007216                                                                                     
7PESE                                                                                000000000029000                            
50007510201209292012100100712622248376       PES0000029000A046332012092913070137                                                
6024600029000122740071262224837600035007636                                                                                     
7PESE                                                                                000000000029000                            
50007610201209292012100169012620215597       PES0000015000A098032012092910320013                                                
6024600015000122766901262021559700025000042                                                                                     
7PESE                                                                                000000000015000                            
50007710201209292012100100712429542800       PES0000029000A088382012092918450083                                                
6024600029000122740071242954280000035007600                                                                                     
7PESE                                                                                000000000029000                            
50007810201209292012100100714517804912       PES0000029000A079692012092919170175                                                
6024600029000122740071451780491200035007484                                                                                     
7PESE                                                                                000000000029000                            
50007910201209292012100100714517856567       PES0000029000A088612012092918120253                                                
6024600029000122740071451785656700035007363                                                                                     
7PESE                                                                                000000000029000                            
50008010201209292012100100712234682036       PES0000029000M601842012092911260027                                                
6024600029000122740071223468203600035007615                                                                                     
7PESE                                                                                000000000029000                            
50008110201209292012100100712621142717       PES0000029000L120282012092911356680                                                
6024600029000122740071262114271700035007542                                                                                     
7PESE                                                                                000000000029000                            
50008210201209292012100100712525770169       PES0000029000M600132012092912200110                                                
6024600029000122740071252577016900035007542                                                                                     
7PESE                                                                                000000000029000                            
50008310201209302012100100751431447634       PES0000019500A088622012093018390279                                                
6024600019500122740075143144763400030007621                                                                                     
7PESE                                                                                000000000019500                            
50008410201209302012100100752234145911       PES0000019500A088622012093018050244                                                
6024600019500122740075223414591100030007500                                                                                     
7PESE                                                                                000000000019500                            
50008510201209302012100100752332952679       PES0000019500A088622012093018400280                                                
6024600019500122740075233295267900030007663                                                                                     
7PESE                                                                                000000000019500                            
50008610201209302012100100712523475254       PES0000029000D000512012093015030278                                                
6024600029000122740071252347525400035000042                                                                                     
7PESE                                                                                000000000029000                            
50008710201209302012100100712622294221       PES0000029000D000512012093020570246                                                
6024600029000122740071262229422100035007400                                                                                     
7PESE                                                                                000000000029000                            
50008810201209302012100100712717708138       PES0000029000A036192012093014320265                                                
6024600029000122740071271770813800035007758                                                                                     
7PESE                                                                                000000000029000                            
50008910201209302012100100713634651431       PES0000029000D001312012093012250137                                                
6024600029000122740071363465143100035007678                                                                                     
7PESE                                                                                000000000029000                            
50009010201209302012100100713913720226       PES0000029000D001312012093012260138                                                
6024600029000122740071391372022600035007658                                                                                     
7PESE                                                                                000000000029000                            
50009110201209302012100100714424334380       PES0000029000A111402012093013030009                                                
6024600029000122740071442433438000035007757                                                                                     
7PESE                                                                                000000000029000                            
50009210201209302012100100714426365238       PES0000029000A094892012093013430055                                                
6024600029000122740071442636523800035007736                                                                                     
7PESE                                                                                000000000029000                            
50009310201209302012100100722624456747       PES0000035000A026442012093020340281                                                
6024600035000122790072262445674700025000084                                                                                     
7PESE                                                                                000000000035000                            
50009410201209302012100100720133740393       PES0000046500A088162012093014390163                                                
6024600046500122790072013374039300010000079                                                                                     
7PESE                                                                                000000000046500                            
82012100100000100000940000025442500000000000000000000000000000000000000000094                                                   
9201210010000010000094000002544250000000000000000000000000000000000000000000094                                                 
