120111201PAGO FACIL               090060246FABIAN NORBERTO D´ERAMO                                                              
320111201000001FABIAN NORBERTO D´ERAMO                                                                                          
50000110201111302011120100582523414061       PES0000022500A025612011112919020015                                                
6024600022500113340058252341406100025007163                                                                                     
7PESE                                                                                000000000022500                            
50000210201111302011120100583193502977       PES0000022500A038992011112911380078                                                
6024600022500113340058319350297700025007257                                                                                     
7PESE                                                                                000000000022500                            
50000310201111302011120100584740513063       PES0000007000A101832011113011140116                                                
6024600007000113340058474051306300015007642                                                                                     
7PESE                                                                                000000000007000                            
50000410201111302011120129060129433557       PES0000010000A089452011113010570009                                                
6024600010000113342906012943355700030007690                                                                                     
7PESE                                                                                000000000010000                            
50000510201111302011120129060223908235       PES0000010000A046432011113016230076                                                
6024600010000113342906022390823500030007615                                                                                     
7PESE                                                                                000000000010000                            
50000610201111302011120129060224247631       PES0000010000A100652011113017040029                                                
6024600010000113342906022424763100030007690                                                                                     
7PESE                                                                                000000000010000                            
50000710201111302011120129060225050523       PES0000010000M601942011113012480017                                                
6024600010000113342906022505052300030007716                                                                                     
7PESE                                                                                000000000010000                            
50000810201111302011120129060316876234       PES0000010000M601162011113014110194                                                
6024600010000113342906031687623400030007436                                                                                     
7PESE                                                                                000000000010000                            
50000910201111302011120129060321358462       PES0000010000A080062011113011440258                                                
6024600010000113342906032135846200030007642                                                                                     
7PESE                                                                                000000000010000                            
50001010201111302011120129060321689700       PES0000010000A071282011113020020171                                                
6024600010000113342906032168970000030007699                                                                                     
7PESE                                                                                000000000010000                            
50001110201111302011120129060413423858       PES0000010000A002542011113015010125                                                
6024600010000113342906041342385800030007737                                                                                     
7PESE                                                                                000000000010000                            
50001210201111302011120129060723211290       PES0000010000A065482011113020050246                                                
6024600010000113342906072321129000030007679                                                                                     
7PESE                                                                                000000000010000                            
50001310201111302011120146070633154268       PES0000026000A100712011113009340053                                                
6024600020000113334607063315426800060007690                                                                                     
7PESE                                                                                000000000026000                            
50001410201111302011120146070832594312       PES0000026000A101842011113014160028                                                
6024600020000113334607083259431200060007716                                                                                     
7PESE                                                                                000000000026000                            
50001510201111302011120118351623093604       PES0000020000M600662011113015300049                                                
6024600020000113341835162309360400000000042                                                                                     
7PESE                                                                                000000000020000                            
50001610201111302011120118350621545809       PES0000020000A105382011113013020139                                                
6024600020000113351835062154580900000000021                                                                                     
7PESE                                                                                000000000020000                            
50001710201111302011120118350331293289       PES0000020000L120162011113010403063                                                
6024600020000113391835033129328900000000021                                                                                     
7PESE                                                                                000000000020000                            
50001810201111302011120100580730565933       PES0000022500A099222011113018080079                                                
6024600022500113340058073056593300025007200                                                                                     
7PESE                                                                                000000000022500                            
50001910201111302011120100581333074988       PES0000022500D001412011113017220032                                                
6024600022500113340058133307498800025007278                                                                                     
7PESE                                                                                000000000022500                            
50002010201111302011120100581817108713       PES0000022500A096192011113015060140                                                
6024600022500113340058181710871300025007742                                                                                     
7PESE                                                                                000000000022500                            
50002110201111302011120100582011988962       PES0000022500A079082011113012580019                                                
6024600022500113340058201198896200025007742                                                                                     
7PESE                                                                                000000000022500                            
50002210201111302011120100582525433673       PES0000022500A025052011113017520013                                                
6024600022500113340058252543367300025007542                                                                                     
7PESE                                                                                000000000022500                            
50002310201111302011120100584235094955       PES0000022500A076262011113013280066                                                
6024600022500113340058423509495500025007342                                                                                     
7PESE                                                                                000000000022500                            
50002410201111302011120101301527689613       PES0000040000A080622011113012450192                                                
6024600040000113340130152768961300000000021                                                                                     
7PESE                                                                                000000000040000                            
50002510201111302011120101301624823099       PES0000040000A092052011113015220252                                                
6024600040000113340130162482309900000000084                                                                                     
7PESE                                                                                000000000040000                            
50002610201111302011120101301718587368       PES0000040000A102042011113018090019                                                
6024600040000113340130171858736800000000063                                                                                     
7PESE                                                                                000000000040000                            
50002710201111302011120101301720249201       PES0000040000A067782011113011100252                                                
6024600040000113340130172024920100000000057                                                                                     
7PESE                                                                                000000000040000                            
50002810201111302011120101300428908429       PES0000040000A063832011113020290223                                                
6024600040000113350130042890842900000000058                                                                                     
7PESE                                                                                000000000040000                            
50002910201111302011120101301429591416       PES0000040000A074672011113011320085                                                
6024600040000113350130142959141600000000042                                                                                     
7PESE                                                                                000000000040000                            
50003010201111302011120101301525569602       PES0000040000A076442011113019250058                                                
6024600040000113350130152556960200000000078                                                                                     
7PESE                                                                                000000000040000                            
50003110201111302011120101301526053543       PES0000040000A026032011113010580011                                                
6024600040000113350130152605354300000000042                                                                                     
7PESE                                                                                000000000040000                            
50003210201111302011120101301624589419       PES0000040000A106722011113010180028                                                
6024600040000113350130162458941900000000000                                                                                     
7PESE                                                                                000000000040000                            
50003310201111302011120101301624913443       PES0000040000A086812011113014460191                                                
6024600040000113350130162491344300000000078                                                                                     
7PESE                                                                                000000000040000                            
50003410201111302011120101301718556507       PES0000040000A024232011113014510105                                                
6024600040000113350130171855650700000000078                                                                                     
7PESE                                                                                000000000040000                            
50003510201111302011120101301816557478       PES0000040000A024232011113014510104                                                
6024600040000113350130181655747800000000021                                                                                     
7PESE                                                                                000000000040000                            
50003610201111302011120101300714887961       PES0000040000A096252011113016220049                                                
6024600040000113360130071488796100000000090                                                                                     
7PESE                                                                                000000000040000                            
50003710201111302011120101301525983384       PES0000040000A039232011113008090015                                                
6024600040000113360130152598338400000000057                                                                                     
7PESE                                                                                000000000040000                            
50003810201111302011120101301528386422       PES0000040000A038432011113010440067                                                
6024600040000113360130152838642200000000000                                                                                     
7PESE                                                                                000000000040000                            
50003910201111302011120101301529083596       PES0000040000A068912011113019510361                                                
6024600040000113360130152908359600000000057                                                                                     
7PESE                                                                                000000000040000                            
50004010201111302011120101301720005244       PES0000040000A063832011113020290224                                                
6024600040000113360130172000524400000000000                                                                                     
7PESE                                                                                000000000040000                            
50004110201111302011120101301722431842       PES0000040000A032972011113016260080                                                
6024600040000113360130172243184200000000015                                                                                     
7PESE                                                                                000000000040000                            
50004210201111302011120101300426312989       PES0000040000A062912011113009420004                                                
6024600040000113400130042631298900000000016                                                                                     
7PESE                                                                                000000000040000                            
50004310201111302011120101301525866829       PES0000040000A083472011113016150166                                                
6024600040000113400130152586682900000000016                                                                                     
7PESE                                                                                000000000040000                            
50004410201111302011120101301623463186       PES0000040000A084922011113014490024                                                
6024600040000113400130162346318600000000084                                                                                     
7PESE                                                                                000000000040000                            
50004510201111302011120101301817673169       PES0000040000M620002011113008470012                                                
6024600040000113400130181767316900000000084                                                                                     
7PESE                                                                                000000000040000                            
50004610201111302011120101301817914080       PES0000040000A065492011113015020137                                                
6024600040000113400130181791408000000000078                                                                                     
7PESE                                                                                000000000040000                            
50004710201111302011120123061134913674       PES0000085400A057202011113011220017                                                
6024600085400113402306113491367400234000063                                                                                     
7PESE                                                                                000000000085400                            
50004810201111302011120123061136802260       PES0000085400A057202011113011230018                                                
6024600085400113402306113680226000234000084                                                                                     
7PESE                                                                                000000000085400                            
50004910201111302011120123061521901543       PES0000085400A082832011113017150151                                                
6024600085400113402306152190154300234000084                                                                                     
7PESE                                                                                000000000085400                            
50005010201111302011120123061323123178       PES0000085400A091802011113014280218                                                
6024600085400113412306132312317800234000063                                                                                     
7PESE                                                                                000000000085400                            
50005110201111302011120123061521587175       PES0000085400A051082011113015100121                                                
6024600085400113412306152158717500234000090                                                                                     
7PESE                                                                                000000000085400                            
50005210201111302011120123061522054318       PES0000085400A077392011113016290252                                                
6024600085400113412306152205431800234000063                                                                                     
7PESE                                                                                000000000085400                            
50005310201111302011120123061928140795       PES0000085400A620612011113011110035                                                
6024600085400113412306192814079500234000000                                                                                     
7PESE                                                                                000000000085400                            
82011120100000100000530000019068000000000000000000000000000000000000000000053                                                   
9201112010000010000053000001906800000000000000000000000000000000000000000000053                                                 
