120111101PAGO FACIL               090060246FABIAN NORBERTO D´ERAMO                                                              
320111101000001FABIAN NORBERTO D´ERAMO                                                                                          
50000110201110312011110100573108093434       PES0000020000A100962011102818570079                                                
6024600020000113030057310809343400020007421                                                                                     
7PESE                                                                                000000000020000                            
50000210201110312011110152000524870096       PES0000008000A087742011103112430034                                                
6024600008000113045200052487009600010007136                                                                                     
7PESE                                                                                000000000008000                            
50000310201110312011110129060129751634       PES0000010000A087742011103113470025                                                
6024600010000113052906012975163400030000016                                                                                     
7PESE                                                                                000000000010000                            
50000410201110312011110198010134164605       PES0000010000W001482011103119495909                                                
6024600010000113059801013416460500000000336                                                                                     
7PESE                                                                                000000000010000                            
50000510201110312011110129060318287669       PES0000010000A104162011103115460142                                                
6024600010000113092906031828766900030000042                                                                                     
7PESE                                                                                000000000010000                            
50000610201110312011110100570826965667       PES0000020000A105012011103112210077                                                
6024600020000113030057082696566700020007478                                                                                     
7PESE                                                                                000000000020000                            
50000710201110312011110100572006528097       PES0000022000A100262011103110260057                                                
6024600022000113110057200652809700000000021                                                                                     
7PESE                                                                                000000000022000                            
50000810201110312011110100574329522296       PES0000022000A037602011103117050137                                                
6024600022000113110057432952229600000000084                                                                                     
7PESE                                                                                000000000022000                            
50000910201110312011110199030228361121       PES0000035000A043162011103114270092                                                
6024600035000113119903022836112100035000042                                                                                     
7PESE                                                                                000000000035000                            
50001010201110312011110101290714739306       PES0000037000A104812011103114030100                                                
6024600037000113040129071473930600000000042                                                                                     
7PESE                                                                                000000000037000                            
50001110201110312011110101290618556507       PES0000037000A024232011103119020048                                                
6024600037000113060129061855650700000000021                                                                                     
7PESE                                                                                000000000037000                            
50001210201110312011110101290716557478       PES0000037000A024232011103119020047                                                
6024600037000113060129071655747800000000079                                                                                     
7PESE                                                                                000000000037000                            
50001310201110312011110101290523129377       PES0000037000A028072011103114420150                                                
6024600037000113070129052312937700000000037                                                                                     
7PESE                                                                                000000000037000                            
50001410201110312011110101290331555791       PES0000037000A107682011103116510002                                                
6024600037000113080129033155579100000000036                                                                                     
7PESE                                                                                000000000037000                            
50001510201110312011110101290522808796       PES0000037000A072002011103111030012                                                
6024600037000113090129052280879600000000084                                                                                     
7PESE                                                                                000000000037000                            
82011110100000100000150000003790000000000000000000000000000000000000000000015                                                   
9201111010000010000015000000379000000000000000000000000000000000000000000000015                                                 
