120120102PAGO FACIL               090060246FABIAN NORBERTO D´ERAMO                                                              
320120102000001FABIAN NORBERTO D´ERAMO                                                                                          
50000110201112302012010202320717564651       PES0000025000A058512011123009290012                                                
6024600025000120030232071756465100030000021                                                                                     
7PESE                                                                                000000000025000                            
50000210201112302012010229060225495725       PES0000013000A601122011123010070005                                                
6024600013000120032906022549572500000000021                                                                                     
7PESE                                                                                000000000013000                            
50000310201112302012010229060723415471       PES0000013000A621032011123009240024                                                
6024600013000113652906072341547100000000058                                                                                     
7PESE                                                                                000000000013000                            
50000410201112302012010229060225368266       PES0000013000A063392011123008390008                                                
6024600013000120032906022536826600000000090                                                                                     
7PESE                                                                                000000000013000                            
50000510201112302012010229060227723033       PES0000013000A063392011123008400009                                                
6024600013000120032906022772303300000000063                                                                                     
7PESE                                                                                000000000013000                            
50000610201112302012010223060418501278       PES0000108800A098202011123012550169                                                
6024600108800120032306041850127800128000079                                                                                     
7PESE                                                                                000000000108800                            
50000710201112302012010229060413509017       PES0000013000A098212011123013180223                                                
6024600013000120012906041350901700000000000                                                                                     
7PESE                                                                                000000000013000                            
50000810201112302012010229060820574206       PES0000013000D000502011123015560222                                                
6024600013000120022906082057420600000000000                                                                                     
7PESE                                                                                000000000013000                            
50000910201112302012010229060821114617       PES0000013000D000502011123015560223                                                
6024600013000120022906082111461700000000058                                                                                     
7PESE                                                                                000000000013000                            
50001010201112302012010200610214327792       PES0000014000A043992011123013220024                                                
6024600014000120040061021432779200000000078                                                                                     
7PESE                                                                                000000000014000                            
50001110201112302012010229060414003677       PES0000013000A091152011123011260128                                                
6024600013000120032906041400367700000000016                                                                                     
7PESE                                                                                000000000013000                            
50001210201112302012010229060817438644       PES0000013000A103032011123018470064                                                
6024600013000120032906081743864400000000042                                                                                     
7PESE                                                                                000000000013000                            
50001310201112302012010229060818057211       PES0000013000A090002011123019210269                                                
6024600013000120032906081805721100000000042                                                                                     
7PESE                                                                                000000000013000                            
50001410201112302012010223061325512193       PES0000121600A110382011123019460224                                                
6024600121600120022306132551219300150000063                                                                                     
7PESE                                                                                000000000121600                            
50001510201112312012010229060228884492       PES0000013000A086092011123111420028                                                
6024600013000113652906022888449200000000015                                                                                     
7PESE                                                                                000000000013000                            
50001610201112312012010229060508095911       PES0000013000A086092011123111420029                                                
6024600013000113652906050809591100000000037                                                                                     
7PESE                                                                                000000000013000                            
50001710201112312012010229060822147674       PES0000013000D001442011123110420065                                                
6024600013000120032906082214767400000000042                                                                                     
7PESE                                                                                000000000013000                            
50001810201112312012010229060320561849       PES0000013000D001442011123110430066                                                
6024600013000120032906032056184900000000090                                                                                     
7PESE                                                                                000000000013000                            
50001910201112312012010218360523174487       PES0000020000D000772011123110240031                                                
6024600020000120051836052317448700000000037                                                                                     
7PESE                                                                                000000000020000                            
50002010201112312012010229060226994047       PES0000013000A055592011123112170019                                                
6024600013000120032906022699404700000000078                                                                                     
7PESE                                                                                000000000013000                            
50002110201112312012010200612523892211       PES0000014000A064332011123117110015                                                
6024600012000113600061252389221100020000590                                                                                     
7PESE                                                                                000000000014000                            
50002210201201012012010299030236399286       PES0000037000A086672011123109560002                                                
6024600037000120019903023639928600035000090                                                                                     
7PESE                                                                                000000000037000                            
82012010200000100000220000005354000000000000000000000000000000000000000000022                                                   
9201201020000010000022000000535400000000000000000000000000000000000000000000022                                                 
