120121102PAGO FACIL               090060246FABIAN NORBERTO D´ERAMO                                                              
320121102000001FABIAN NORBERTO D´ERAMO                                                                                          
50000110201211012012110200751722858644       PES0000022500A081062012103017310059                                                
6024600022500123050075172285864400020007521                                                                                     
7PESE                                                                                000000000022500                            
50000210201211012012110218410429343288       PES0000020000L120212012103114253455                                                
6024600020000123071841042934328800050000342                                                                                     
7PESE                                                                                000000000020000                            
50000310201211012012110218412431298771       PES0000020000L120212012103114253456                                                
6024600020000123071841243129877100050000400                                                                                     
7PESE                                                                                000000000020000                            
50000410201211012012110200751816328212       PES0000022500M700172012103108560020                                                
6024600022500123050075181632821200020007300                                                                                     
7PESE                                                                                000000000022500                            
50000510201211012012110252011628866879       PES0000011000D001652012110113450180                                                
6024600010000123055201162886687900010007421                                                                                     
7PESE                                                                                000000000011000                            
50000610201211012012110265001036375655       PES0000011700D000772012110111510180                                                
6024600011700123076500103637565500000000063                                                                                     
7PESE                                                                                000000000011700                            
50000710201211012012110265000131729565       PES0000013000A063662012110117450135                                                
6024600013000123076500013172956500000000079                                                                                     
7PESE                                                                                000000000013000                            
50000810201211012012110265000216380036       PES0000013000A091482012110118000484                                                
6024600013000123076500021638003600000000084                                                                                     
7PESE                                                                                000000000013000                            
50000910201211012012110265000218811970       PES0000013000A113072012110108580001                                                
6024600013000123076500021881197000000000021                                                                                     
7PESE                                                                                000000000013000                            
50001010201211012012110265000220426976       PES0000013000D000772012110114500279                                                
6024600013000123076500022042697600000000099                                                                                     
7PESE                                                                                000000000013000                            
50001110201211012012110265000222471561       PES0000013000A109822012110117510310                                                
6024600013000123076500022247156100000000015                                                                                     
7PESE                                                                                000000000013000                            
50001210201211012012110265000225723155       PES0000013000A051222012110112590005                                                
6024600013000123076500022572315500000000042                                                                                     
7PESE                                                                                000000000013000                            
50001310201211012012110265000429774482       PES0000013000A043992012110114180065                                                
6024600013000123076500042977448200000000037                                                                                     
7PESE                                                                                000000000013000                            
50001410201211012012110265000433039506       PES0000013000A600722012110113140132                                                
6024600013000123076500043303950600000000090                                                                                     
7PESE                                                                                000000000013000                            
50001510201211012012110265000502592591       PES0000013000A063662012110117110098                                                
6024600013000123076500050259259100000000063                                                                                     
7PESE                                                                                000000000013000                            
50001610201211012012110265000527033297       PES0000013000A055592012110112440006                                                
6024600013000123076500052703329700000000084                                                                                     
7PESE                                                                                000000000013000                            
50001710201211012012110265000528186428       PES0000013000A093932012110114400029                                                
6024600013000123076500052818642800000000084                                                                                     
7PESE                                                                                000000000013000                            
50001810201211012012110265000529401662       PES0000013000A019762012110111520037                                                
6024600013000123076500052940166200000000090                                                                                     
7PESE                                                                                000000000013000                            
50001910201211012012110269011021443841       PES0000015000A110272012110120140126                                                
6024600015000123066901102144384100025000799                                                                                     
7PESE                                                                                000000000015000                            
50002010201211012012110269012139150531       PES0000015000L071192012110119014346                                                
6024600015000123066901213915053100025000584                                                                                     
7PESE                                                                                000000000015000                            
50002110201211012012110269012524424903       PES0000015000A059442012110117430078                                                
6024600015000123066901252442490300025000657                                                                                     
7PESE                                                                                000000000015000                            
50002210201211012012110269012525433673       PES0000015000A025052012110118550025                                                
6024600015000123066901252543367300025000042                                                                                     
7PESE                                                                                000000000015000                            
50002310201211012012110269012718496035       PES0000015000A113262012110110190014                                                
6024600015000123066901271849603500025000542                                                                                     
7PESE                                                                                000000000015000                            
50002410201211012012110269013441007704       PES0000015000A113262012110109420009                                                
6024600015000123066901344100770400025000742                                                                                     
7PESE                                                                                000000000015000                            
50002510201211012012110269014042490393       PES0000015000A110272012110120140127                                                
6024600015000123066901404249039300025000778                                                                                     
7PESE                                                                                000000000015000                            
50002610201211012012110218410814077062       PES0000020000A101582012110109590054                                                
6024600020000123061841081407706200050000036                                                                                     
7PESE                                                                                000000000020000                            
50002710201211012012110218412722431623       PES0000020000A090562012110117140430                                                
6024600020000123061841272243162300050000063                                                                                     
7PESE                                                                                000000000020000                            
50002810201211012012110218412527500011       PES0000020000M601842012110109480021                                                
6024600020000123071841252750001100050000490                                                                                     
7PESE                                                                                000000000020000                            
50002910201211012012110218412622361016       PES0000020000A020792012110117060051                                                
6024600020000123071841262236101600050000200                                                                                     
7PESE                                                                                000000000020000                            
50003010201211012012110299040118893421       PES0000029000A092202012110117150447                                                
6024600029000123119904011889342100015000099                                                                                     
7PESE                                                                                000000000029000                            
50003110201211012012110299030134949488       PES0000043000A100712012110111110080                                                
6024600043000123129903013494948800035000090                                                                                     
7PESE                                                                                000000000043000                            
50003210201211012012110201331812154727       PES0000052000A040542012110113540074                                                
6024600052000123060133181215472700080000036                                                                                     
7PESE                                                                                000000000052000                            
50003310201211012012110201331521552507       PES0000052000A601912012110112060027                                                
6024600052000123070133152155250700080000063                                                                                     
7PESE                                                                                000000000052000                            
50003410201211012012110201331618201068       PES0000052000A017082012110119560085                                                
6024600052000123070133161820106800080000057                                                                                     
7PESE                                                                                000000000052000                            
50003510201211012012110201331714240593       PES0000052000A098932012110113300027                                                
6024600052000123070133171424059300080000000                                                                                     
7PESE                                                                                000000000052000                            
50003610201211012012110201331617898610       PES0000052000A068922012110110500020                                                
6024600052000123080133161789861000080000000                                                                                     
7PESE                                                                                000000000052000                            
50003710201211012012110201331616264673       PES0000052000A116572012110112290087                                                
6024600052000123090133161626467300080000063                                                                                     
7PESE                                                                                000000000052000                            
50003810201211012012110201331425583560       PES0000052000A027742012110109340030                                                
6024600052000123120133142558356000080000057                                                                                     
7PESE                                                                                000000000052000                            
50003910201211012012110201331231935143       PES0000052000A049942012110119190003                                                
6024600052000123130133123193514300080000078                                                                                     
7PESE                                                                                000000000052000                            
82012110200000100000390000009367000000000000000000000000000000000000000000039                                                   
9201211020000010000039000000936700000000000000000000000000000000000000000000039                                                 
