120110902PAGO FACIL               090060246FABIAN NORBERTO D´ERAMO                                                              
320110902000001FABIAN NORBERTO D´ERAMO                                                                                          
50000110201109012011090200503911613858       PES0000019500M600372011083112270022                                                
6024600019500112430050391161385800050007463                                                                                     
7PESE                                                                                000000000019500                            
50000210201109012011090237021527225647       PES0000008000A050122011090113540060                                                
6024600008000112503702152722564700010000000                                                                                     
7PESE                                                                                000000000008000                            
50000310201109012011090237021622501688       PES0000008000A050122011090114130063                                                
6024600008000112513702162250168800010000099                                                                                     
7PESE                                                                                000000000008000                            
50000410201109012011090217021010189864       PES0000020000A084152011090109360030                                                
6024600020000112511702101018986400000000057                                                                                     
7PESE                                                                                000000000020000                            
50000510201109012011090200503439473108       PES0000024500M660142011090116177832                                                
6024600024500112510050343947310800030000084                                                                                     
7PESE                                                                                000000000024500                            
50000610201109012011090200504039473263       PES0000024500M660142011090116517854                                                
6024600024500112510050403947326300030000015                                                                                     
7PESE                                                                                000000000024500                            
50000710201109012011090200520325647594       PES0000026500A100482011090115090049                                                
6024600026500112440052032564759400005000263                                                                                     
7PESE                                                                                000000000026500                            
50000810201109012011090200520329571790       PES0000026500A044382011090117180110                                                
6024600026500112440052032957179000005000284                                                                                     
7PESE                                                                                000000000026500                            
50000910201109012011090200533635229160       PES0000029000A046092011090110540022                                                
6024600029000112500053363522916000020000016                                                                                     
7PESE                                                                                000000000029000                            
50001010201109012011090299030235755195       PES0000035000A109282011090111440093                                                
6024600035000112509903023575519500035000121                                                                                     
7PESE                                                                                000000000035000                            
50001110201109012011090201280327055941       PES0000036500A620812011090110310061                                                
6024600036500112440128032705594100000000021                                                                                     
7PESE                                                                                000000000036500                            
50001210201109012011090201280425359634       PES0000036500A091492011090113070167                                                
6024600036500112440128042535963400000000078                                                                                     
7PESE                                                                                000000000036500                            
50001310201109012011090201282133412110       PES0000036500A016702011090117470098                                                
6024600036500112440128213341211000000000084                                                                                     
7PESE                                                                                000000000036500                            
50001410201109012011090201280231237434       PES0000036500A042592011090112150021                                                
6024600036500112480128023123743400000000036                                                                                     
7PESE                                                                                000000000036500                            
50001510201109012011090201280327847362       PES0000036500A058512011090112030170                                                
6024600036500112490128032784736200000000000                                                                                     
7PESE                                                                                000000000036500                            
50001610201109012011090201280521416648       PES0000036500A061432011090111410204                                                
6024600036500112490128052141664800000000063                                                                                     
7PESE                                                                                000000000036500                            
50001710201109012011090201280521480114       PES0000036500D000342011090114430133                                                
6024600036500112490128052148011400000000063                                                                                     
7PESE                                                                                000000000036500                            
50001810201109012011090201280614688479       PES0000036500M620062011090109170004                                                
6024600036500112500128061468847900000000079                                                                                     
7PESE                                                                                000000000036500                            
50001910201109012011090201282220332422       PES0000036500A620572011090110580017                                                
6024600036500112500128222033242200000000036                                                                                     
7PESE                                                                                000000000036500                            
82011090200000100000190000005500000000000000000000000000000000000000000000019                                                   
9201109020000010000019000000550000000000000000000000000000000000000000000000019                                                 
