120121002PAGO FACIL               090060246FABIAN NORBERTO D´ERAMO                                                              
320121002000001FABIAN NORBERTO D´ERAMO                                                                                          
50000110201210012012100200712428095628       PES0000029000A069512012092911020017                                                
6024600029000122740071242809562800035007657                                                                                     
7PESE                                                                                000000000029000                            
50000210201210012012100200751334475897       PES0000019500M700172012092910190022                                                
6024600019500122740075133447589700030007558                                                                                     
7PESE                                                                                000000000019500                            
50000310201210012012100200752138422064       PES0000019500M700172012092910180014                                                
6024600019500122740075213842206400030007599                                                                                     
7PESE                                                                                000000000019500                            
50000410201210012012100200752330641850       PES0000019500M700172012092910170011                                                
6024600019500122740075233064185000030007578                                                                                     
7PESE                                                                                000000000019500                            
50000510201210012012100200752525206538       PES0000019500M700172012092910190019                                                
6024600019500122740075252520653800030007563                                                                                     
7PESE                                                                                000000000019500                            
50000610201210012012100200752526101816       PES0000019500M700172012092910190021                                                
6024600019500122740075252610181600030007578                                                                                     
7PESE                                                                                000000000019500                            
50000710201210012012100200753441918701       PES0000019500M700172012092910170012                                                
6024600019500122740075344191870100030007515                                                                                     
7PESE                                                                                000000000019500                            
50000810201210012012100200753540422350       PES0000019500M700172012092910180016                                                
6024600019500122740075354042235000030007500                                                                                     
7PESE                                                                                000000000019500                            
50000910201210012012100200753728795830       PES0000019500M700172012092910180017                                                
6024600019500122740075372879583000030007563                                                                                     
7PESE                                                                                000000000019500                            
50001010201210012012100200753821392243       PES0000019500M700172012092910190020                                                
6024600019500122740075382139224300030007521                                                                                     
7PESE                                                                                000000000019500                            
50001110201210012012100200753913566549       PES0000019500M700172012092910180015                                                
6024600019500122740075391356654900030007584                                                                                     
7PESE                                                                                000000000019500                            
50001210201210012012100200754042464751       PES0000019500M700172012092910180018                                                
6024600019500122740075404246475100030007558                                                                                     
7PESE                                                                                000000000019500                            
50001310201210012012100200754138263207       PES0000019500M700172012092910170013                                                
6024600019500122740075413826320700030007500                                                                                     
7PESE                                                                                000000000019500                            
50001410201210012012100220050214195103       PES0000008000A110092012100115510229                                                
6024600008000122812005021419510300000000000                                                                                     
7PESE                                                                                000000000008000                            
50001510201210012012100271000217224807       PES0000013000M600472012100112040025                                                
6024600013000122777100021722480700000000084                                                                                     
7PESE                                                                                000000000013000                            
50001610201210012012100298010130937223       PES0000015000A107732012100115220072                                                
6024600015000122749801013093722300000000015                                                                                     
7PESE                                                                                000000000015000                            
50001710201210012012100298020135732304       PES0000015000A091582012100111520156                                                
6024600015000122819802013573230400010000179                                                                                     
7PESE                                                                                000000000015000                            
50001810201210012012100218400330940757       PES0000015000A093192012100116380227                                                
6024600015000122821840033094075700100000042                                                                                     
7PESE                                                                                000000000015000                            
50001910201210012012100218402720233444       PES0000015000A602332012100112420090                                                
6024600015000122821840272023344400100000099                                                                                     
7PESE                                                                                000000000015000                            
50002010201210012012100229081320021393       PES0000020000A063642012100119060109                                                
6024600020000122742908132002139300030007599                                                                                     
7PESE                                                                                000000000020000                            
50002110201210012012100299020220442739       PES0000022000A107662012100118050080                                                
6024600022000122819902022044273900000000178                                                                                     
7PESE                                                                                000000000022000                            
50002210201210012012100200540437357940       PES0000027000A089982012100109440022                                                
6024600027000122740054043735794000000000036                                                                                     
7PESE                                                                                000000000027000                            
50002310201210012012100200710732036811       PES0000029000A047802012100116140108                                                
6024600029000122740071073203681100035007784                                                                                     
7PESE                                                                                000000000029000                            
50002410201210012012100200711694135176       PES0000029000A113662012100116550117                                                
6024600029000122740071169413517600035007442                                                                                     
7PESE                                                                                000000000029000                            
50002510201210012012100200711820070485       PES0000029000A025052012100113330115                                                
6024600029000122740071182007048500035007715                                                                                     
7PESE                                                                                000000000029000                            
50002610201210012012100200712011822243       PES0000029000A025052012100112330094                                                
6024600029000122740071201182224300035007700                                                                                     
7PESE                                                                                000000000029000                            
50002710201210012012100200712620669798       PES0000029000A014642012100117370233                                                
6024600029000122740071262066979800035007178                                                                                     
7PESE                                                                                000000000029000                            
50002810201210012012100200713540188437       PES0000029000A109842012100115210347                                                
6024600029000122740071354018843700035007736                                                                                     
7PESE                                                                                000000000029000                            
50002910201210012012100200714514576133       PES0000029000A109842012100115210346                                                
6024600029000122740071451457613300035007757                                                                                     
7PESE                                                                                000000000029000                            
50003010201210012012100299030228506908       PES0000031450A042822012100119000029                                                
6024600031450122819903022850690800030250163                                                                                     
7PESE                                                                                000000000031450                            
50003110201210012012100200711336010375       PES0000032500A110442012100119190051                                                
6024600032500122820071133601037500000000057                                                                                     
7PESE                                                                                000000000032500                            
50003210201210012012100200711527034947       PES0000032500A097442012100114540322                                                
6024600032500122820071152703494700000000079                                                                                     
7PESE                                                                                000000000032500                            
50003310201210012012100200712333449087       PES0000032500A640822012100116300079                                                
6024600032500122820071233344908700000000015                                                                                     
7PESE                                                                                000000000032500                            
50003410201210012012100200712427508926       PES0000032500A085562012100116190074                                                
6024600032500122820071242750892600000000057                                                                                     
7PESE                                                                                000000000032500                            
50003510201210012012100200723820702809       PES0000035000M640102012100108190013                                                
6024600035000122780072382070280900025000037                                                                                     
7PESE                                                                                000000000035000                            
50003610201210012012100200722339484908       PES0000035000A109842012100115220348                                                
6024600035000122790072233948490800025000290                                                                                     
7PESE                                                                                000000000035000                            
50003710201210012012100200722435254342       PES0000035000A075392012100117190114                                                
6024600035000122790072243525434200025000000                                                                                     
7PESE                                                                                000000000035000                            
50003810201210012012100200723729042928       PES0000035000A069132012100112080147                                                
6024600035000122790072372904292800025000000                                                                                     
7PESE                                                                                000000000035000                            
50003910201210012012100299030137357940       PES0000043000A089982012100109420021                                                
6024600043000122819903013735794000035000037                                                                                     
7PESE                                                                                000000000043000                            
50004010201210012012100200720714589515       PES0000046500M600702012100112590113                                                
6024600046500122790072071458951500010000279                                                                                     
7PESE                                                                                000000000046500                            
50004110201210012012100200720717901826       PES0000046500M600092012100112220137                                                
6024600046500122790072071790182600010000263                                                                                     
7PESE                                                                                000000000046500                            
82012100200000100000410000010534500000000000000000000000000000000000000000041                                                   
9201210020000010000041000001053450000000000000000000000000000000000000000000041                                                 
