120121203PAGO FACIL               090060246FABIAN NORBERTO D´ERAMO                                                              
320121203000001FABIAN NORBERTO D´ERAMO                                                                                          
50000110201211302012120357010327776043       PES0000015000A064442012112914220097                                                
6024600015000123355701032777604300000000063                                                                                     
7PESE                                                                                000000000015000                            
50000210201211302012120302420521504213       PES0000032000A002542012112917230099                                                
6024600032000123400242052150421300080000042                                                                                     
7PESE                                                                                000000000032000                            
50000310201211302012120329080414311388       PES0000015000A099602012112911110202                                                
6024600015000123352908041431138800030007590                                                                                     
7PESE                                                                                000000000015000                            
50000410201211302012120302420907620834       PES0000032000A116582012113010110013                                                
6024600032000123400242090762083400080000121                                                                                     
7PESE                                                                                000000000032000                            
50000510201211302012120373000132389305       PES0000012000A052412012113009330062                                                
6024600012000123417300013238930500030000090                                                                                     
7PESE                                                                                000000000012000                            
50000610201211302012120373000132572210       PES0000012000A052412012113009340063                                                
6024600012000123417300013257221000030000000                                                                                     
7PESE                                                                                000000000012000                            
50000710201211302012120373000130309679       PES0000012000A052412012113009340064                                                
6024600012000123417300013030967900030000042                                                                                     
7PESE                                                                                000000000012000                            
50000810201211302012120373000133831122       PES0000012000A073672012113010130073                                                
6024600012000123407300013383112200030000036                                                                                     
7PESE                                                                                000000000012000                            
50000910201211302012120329080316269521       PES0000015000A069162012113009270021                                                
6024600015000123352908031626952100030007579                                                                                     
7PESE                                                                                000000000015000                            
50001010201211302012120369014425890274       PES0000020000A025052012113012140013                                                
6024600020000123356901442589027400000000042                                                                                     
7PESE                                                                                000000000020000                            
50001110201211302012120301331328696635       PES0000052000A103262012113013150011                                                
6024600052000123360133132869663500080000699                                                                                     
7PESE                                                                                000000000052000                            
50001210201211302012120300774426000391       PES0000025500A114752012113013110075                                                
6024600025500123350077442600039100030007578                                                                                     
7PESE                                                                                000000000025500                            
50001310201211302012120329080318406837       PES0000015000D001392012113011250051                                                
6024600015000123352908031840683700030007542                                                                                     
7PESE                                                                                000000000015000                            
50001410201211302012120399100136070637       PES0000150000A028072012113013360112                                                
6024600150000123369910013607063700000000021                                                                                     
7PESE                                                                                000000000150000                            
50001510201211302012120369011626542181       PES0000020000A031212012113012320174                                                
6024600020000123356901162654218100000000099                                                                                     
7PESE                                                                                000000000020000                            
50001610201211302012120300773226561820       PES0000025500A071202012113010170057                                                
6024600025500123350077322656182000030007563                                                                                     
7PESE                                                                                000000000025500                            
50001710201211302012120300771912902460       PES0000025500D000502012113012510123                                                
6024600025500123350077191290246000030000063                                                                                     
7PESE                                                                                000000000025500                            
50001810201211302012120399100136872631       PES0000150000A073822012113014280201                                                
6024600150000123369910013687263100000000378                                                                                     
7PESE                                                                                000000000150000                            
50001910201211302012120300772525770169       PES0000025500A108262012113015320168                                                
6024600025500123350077252577016900030000016                                                                                     
7PESE                                                                                000000000025500                            
50002010201211302012120300773825640893       PES0000025500A088472012113010490017                                                
6024600025500123350077382564089300030007278                                                                                     
7PESE                                                                                000000000025500                            
50002110201211302012120300773728912933       PES0000025500A092142012113012160133                                                
6024600025500123350077372891293300030007757                                                                                     
7PESE                                                                                000000000025500                            
50002210201211302012120302420327688672       PES0000032000A601492012113012310092                                                
6024600032000123390242032768867200080000036                                                                                     
7PESE                                                                                000000000032000                            
50002310201211302012120302420328807743       PES0000032000A047992012113011140047                                                
6024600032000123400242032880774300080000290                                                                                     
7PESE                                                                                000000000032000                            
50002410201211302012120369012427620337       PES0000020000A076112012113017420019                                                
6024600020000123356901242762033700000000063                                                                                     
7PESE                                                                                000000000020000                            
50002510201211302012120300774043326351       PES0000025500A090522012113010490055                                                
6024600025500123350077404332635100030007684                                                                                     
7PESE                                                                                000000000025500                            
50002610201211302012120300773010258129       PES0000025500A091852012113016490300                                                
6024600025500123350077301025812900030007621                                                                                     
7PESE                                                                                000000000025500                            
50002710201211302012120300774746830084       PES0000006500A112752012113012450005                                                
6024600006500123350077474683008400015007678                                                                                     
7PESE                                                                                000000000006500                            
50002810201211302012120300774744505190       PES0000006500A112752012113012450006                                                
6024600006500123350077474450519000015007690                                                                                     
7PESE                                                                                000000000006500                            
50002910201211302012120300774041199198       PES0000025500A112752012113012450007                                                
6024600025500123350077404119919800030007699                                                                                     
7PESE                                                                                000000000025500                            
50003010201211302012120300772330920919       PES0000025500A091882012113016190318                                                
6024600025500123350077233092091900030007484                                                                                     
7PESE                                                                                000000000025500                            
50003110201211302012120329080226911193       PES0000015000A016922012113010460031                                                
6024600015000123352908022691119300030007690                                                                                     
7PESE                                                                                000000000015000                            
50003210201211302012120329080817345572       PES0000015000A048012012113011220057                                                
6024600015000123352908081734557200030007600                                                                                     
7PESE                                                                                000000000015000                            
50003310201211302012120300770829037117       PES0000025500A113852012113015330137                                                
6024600025500123350077082903711700030007642                                                                                     
7PESE                                                                                000000000025500                            
50003410201211302012120369013730036186       PES0000020000A099972012113016140126                                                
6024600020000123356901373003618600000000079                                                                                     
7PESE                                                                                000000000020000                            
50003510201211302012120329081130928821       PES0000023000A082602012113017090071                                                
6024600023000123352908113092882100020007263                                                                                     
7PESE                                                                                000000000023000                            
50003610201211302012120300772716224490       PES0000025500A069092012113016090134                                                
6024600025500123350077271622449000030000078                                                                                     
7PESE                                                                                000000000025500                            
50003710201211302012120300772814618498       PES0000025500A069092012113016090135                                                
6024600025500123350077281461849800030000084                                                                                     
7PESE                                                                                000000000025500                            
50003810201211302012120302422692276465       PES0000022000A046802012113013350002                                                
6024600022000123390242269227646500060000084                                                                                     
7PESE                                                                                000000000022000                            
50003910201211302012120302423422471794       PES0000022000A046802012113013350003                                                
6024600022000123390242342247179400060000016                                                                                     
7PESE                                                                                000000000022000                            
50004010201211302012120300774743097069       PES0000006500A046802012113013350004                                                
6024600006500123350077474309706900015007300                                                                                     
7PESE                                                                                000000000006500                            
50004110201211302012120300774744586272       PES0000006500A046802012113013350005                                                
6024600006500123350077474458627200015007399                                                                                     
7PESE                                                                                000000000006500                            
50004210201211302012120300773822471794       PES0000025500A046802012113013350006                                                
6024600025500123350077382247179400030007336                                                                                     
7PESE                                                                                000000000025500                            
50004310201211302012120300774492276465       PES0000025500A046802012113013350007                                                
6024600025500123350077449227646500030007384                                                                                     
7PESE                                                                                000000000025500                            
50004410201211302012120300770731533986       PES0000025500A003462012113011410089                                                
6024600025500123350077073153398600030007700                                                                                     
7PESE                                                                                000000000025500                            
50004510201211302012120300772718407942       PES0000025500A003462012113016410148                                                
6024600025500123350077271840794200030007763                                                                                     
7PESE                                                                                000000000025500                            
50004610201211302012120300773634705184       PES0000025500A055272012113016370164                                                
6024600025500123350077363470518400030007637                                                                                     
7PESE                                                                                000000000025500                            
50004710201211302012120300774236904884       PES0000025500A055272012113016390165                                                
6024600025500123350077423690488400030007657                                                                                     
7PESE                                                                                000000000025500                            
50004810201211302012120300774743443884       PES0000006500A112932012113013500069                                                
6024600006500123350077474344388400015007700                                                                                     
7PESE                                                                                000000000006500                            
50004910201211302012120399030134318531       PES0000049000A025822012113016400145                                                
6024600049000123369903013431853100000000063                                                                                     
7PESE                                                                                000000000049000                            
50005010201211302012120300774743922148       PES0000006500A023702012113017100074                                                
6024600006500123350077474392214800015007542                                                                                     
7PESE                                                                                000000000006500                            
50005110201211302012120369010731988438       PES0000020000A115022012113018040081                                                
6024600020000123356901073198843800000000016                                                                                     
7PESE                                                                                000000000020000                            
50005210201211302012120369012429802241       PES0000020000A093412012113017480031                                                
6024600020000123356901242980224100000000021                                                                                     
7PESE                                                                                000000000020000                            
50005310201211302012120369013538422672       PES0000020000A093412012113017480032                                                
6024600020000123356901353842267200000000099                                                                                     
7PESE                                                                                000000000020000                            
50005410201211302012120373000125794752       PES0000012000A079852012113018140161                                                
6024600012000123367300012579475200030000079                                                                                     
7PESE                                                                                000000000012000                            
50005510201211302012120373000120785701       PES0000012000A087252012113018380295                                                
6024600012000123427300012078570100030000016                                                                                     
7PESE                                                                                000000000012000                            
50005610201211302012120373000232943893       PES0000012000A066532012113016310104                                                
6024600012000123377300023294389300030000042                                                                                     
7PESE                                                                                000000000012000                            
50005710201211302012120373000233449095       PES0000012000A066532012113016310105                                                
6024600012000123377300023344909500030000016                                                                                     
7PESE                                                                                000000000012000                            
50005810201211302012120300771240474925       PES0000025500A109552012113018520173                                                
6024600025500123350077124047492500030000063                                                                                     
7PESE                                                                                000000000025500                            
50005910201211302012120300774425529881       PES0000025500A109552012113019200197                                                
6024600025500123350077442552988100030000021                                                                                     
7PESE                                                                                000000000025500                            
50006010201211302012120300774611903418       PES0000025500A077412012113010010028                                                
6024600025500123350077461190341800030007637                                                                                     
7PESE                                                                                000000000025500                            
50006110201211302012120369013441293516       PES0000020000A054392012113008190003                                                
6024600020000123356901344129351600000000036                                                                                     
7PESE                                                                                000000000020000                            
50006210201211302012120300774040748568       PES0000025500A083562012113017160094                                                
6024600025500123350077404074856800030007742                                                                                     
7PESE                                                                                000000000025500                            
50006310201211302012120300774743409082       PES0000006500A083562012113017160095                                                
6024600006500123350077474340908200015007700                                                                                     
7PESE                                                                                000000000006500                            
50006410201211302012120369011430711302       PES0000020000A061432012113016020027                                                
6024600020000123356901143071130200000000021                                                                                     
7PESE                                                                                000000000020000                            
50006510201211302012120300774327110923       PES0000025500A008222012113017270205                                                
6024600025500123350077432711092300030007415                                                                                     
7PESE                                                                                000000000025500                            
50006610201211302012120399100134617181       PES0000150000A084182012113018540137                                                
6024600150000123369910013461718100000000021                                                                                     
7PESE                                                                                000000000150000                            
50006710201211302012120369012330409317       PES0000020000A034672012113018510079                                                
6024600020000123356901233040931700000000063                                                                                     
7PESE                                                                                000000000020000                            
50006810201211302012120399100103729571       PES0000150000A113672012113017190096                                                
6024600150000123369910010372957100000000042                                                                                     
7PESE                                                                                000000000150000                            
50006910201211302012120300774608077928       PES0000025500A070822012113021220253                                                
6024600025500123350077460807792800030007778                                                                                     
7PESE                                                                                000000000025500                            
50007010201211302012120300773916778158       PES0000025500A040462012113019390147                                                
6024600025500123350077391677815800030007700                                                                                     
7PESE                                                                                000000000025500                            
50007110201211302012120300772525290164       PES0000025500A116572012113018570156                                                
6024600025500123350077252529016400030007516                                                                                     
7PESE                                                                                000000000025500                            
50007210201211302012120369014041740263       PES0000020000A117802012113011280028                                                
6024600020000123356901404174026300000000058                                                                                     
7PESE                                                                                000000000020000                            
50007310201211302012120369012429147062       PES0000020000A088622012113017580137                                                
6024600020000123356901242914706200000000058                                                                                     
7PESE                                                                                000000000020000                            
50007410201211302012120329081726601610       PES0000023000A037752012113019420240                                                
6024600023000123352908172660161000020007616                                                                                     
7PESE                                                                                000000000023000                            
50007510201211302012120329081226106941       PES0000023000A037752012113019420241                                                
6024600023000123352908122610694100020007690                                                                                     
7PESE                                                                                000000000023000                            
50007610201211302012120300771722201180       PES0000025500A082002012113018200085                                                
6024600025500123350077172220118000030007257                                                                                     
7PESE                                                                                000000000025500                            
50007710201211302012120369013824347205       PES0000020000M620142012113009570012                                                
6024600020000123356901382434720500000000057                                                                                     
7PESE                                                                                000000000020000                            
50007810201211302012120369013540127626       PES0000020000L071192012113018489814                                                
6024600020000123356901354012762600000000021                                                                                     
7PESE                                                                                000000000020000                            
50007910201211302012120369013539981111       PES0000020000L071192012113019029820                                                
6024600020000123356901353998111100000000084                                                                                     
7PESE                                                                                000000000020000                            
50008010201212012012120300772620379157       PES0000025500A104232012113014550130                                                
6024600025500123350077262037915700030000000                                                                                     
7PESE                                                                                000000000025500                            
50008110201212022012120369013441857395       PES0000020000M620342012113009510001                                                
6024600020000123356901344185739500000000063                                                                                     
7PESE                                                                                000000000020000                            
50008210201212012012120399040135989576       PES0000029000A091562012120110140095                                                
6024600029000123429904013598957600015000158                                                                                     
7PESE                                                                                000000000029000                            
50008310201212012012120300773726760624       PES0000028500A032972012120111420153                                                
6024600025500123350077372676062400030007763                                                                                     
7PESE                                                                                000000000028500                            
50008410201212012012120398010134842027       PES0000015000A033952012120113070007                                                
6024600015000123369801013484202700000000758                                                                                     
7PESE                                                                                000000000015000                            
50008510201212012012120302420133740393       PES0000032000A088172012120110360089                                                
6024600032000123400242013374039300080000158                                                                                     
7PESE                                                                                000000000032000                            
50008610201212012012120399030103729571       PES0000043000A046792012120110370053                                                
6024600043000123429903010372957100035000021                                                                                     
7PESE                                                                                000000000043000                            
50008710201212012012120371011031452129       PES0000018000A070622012120116580055                                                
6024600018000123417101103145212900000000063                                                                                     
7PESE                                                                                000000000018000                            
50008810201212022012120300772717657707       PES0000028500A070622012120211500317                                                
6024600025500123350077271765770700030007757                                                                                     
7PESE                                                                                000000000028500                            
82012120300000100000880000024270000000000000000000000000000000000000000000088                                                   
9201212030000010000088000002427000000000000000000000000000000000000000000000088                                                 
