120120803PAGO FACIL               090060246FABIAN NORBERTO D´ERAMO                                                              
320120803000001FABIAN NORBERTO D´ERAMO                                                                                          
50000110201208022012080399080131925405       PES0000008000A056252012080212190086                                                
6024600008000122179908013192540500000000037                                                                                     
7PESE                                                                                000000000008000                            
50000210201208022012080399080231925405       PES0000008000A056252012080212190085                                                
6024600008000122179908023192540500000000063                                                                                     
7PESE                                                                                000000000008000                            
50000310201208022012080357000821716563       PES0000014000A103902012080213150140                                                
6024600014000122205700082171656300000000042                                                                                     
7PESE                                                                                000000000014000                            
50000410201208022012080357000817856569       PES0000014000A008222012080210590116                                                
6024600014000122215700081785656900000000099                                                                                     
7PESE                                                                                000000000014000                            
50000510201208022012080357001225601303       PES0000014000A064442012080213210181                                                
6024600014000122215700122560130300000000042                                                                                     
7PESE                                                                                000000000014000                            
50000610201208022012080359000420359506       PES0000016000M620162012080209390004                                                
6024600016000122215900042035950600000000016                                                                                     
7PESE                                                                                000000000016000                            
50000710201208022012080359000711540253       PES0000016000A100122012080214150134                                                
6024600016000122225900071154025300000000000                                                                                     
7PESE                                                                                000000000016000                            
50000810201208022012080398020235732304       PES0000018500A081572012080210090032                                                
6024600018500122209802023573230400010000158                                                                                     
7PESE                                                                                000000000018500                            
50000910201208022012080300710829037117       PES0000023500A113852012080217050112                                                
6024600023500122210071082903711700055000084                                                                                     
7PESE                                                                                000000000023500                            
50001010201208022012080300711722533802       PES0000023500A076822012080211040024                                                
6024600023500122210071172253380200055000063                                                                                     
7PESE                                                                                000000000023500                            
50001110201208022012080300711914840746       PES0000023500A601492012080211170026                                                
6024600023500122210071191484074600055000057                                                                                     
7PESE                                                                                000000000023500                            
50001210201208022012080300712717147693       PES0000023500A069142012080210090021                                                
6024600023500122210071271714769300055000042                                                                                     
7PESE                                                                                000000000023500                            
50001310201208022012080300711023044164       PES0000023500A105442012080212140089                                                
6024600023500122220071102304416400055000099                                                                                     
7PESE                                                                                000000000023500                            
50001410201208022012080300713730341155       PES0000023500A039152012080217190063                                                
6024600023500122220071373034115500055000042                                                                                     
7PESE                                                                                000000000023500                            
50001510201208022012080300713823782430       PES0000023500A105442012080212140090                                                
6024600023500122220071382378243000055000042                                                                                     
7PESE                                                                                000000000023500                            
50001610201208022012080300714424848174       PES0000023500A109552012080219130277                                                
6024600023500122220071442484817400055000058                                                                                     
7PESE                                                                                000000000023500                            
50001710201208022012080317030623228474       PES0000025000A640132012080208190001                                                
6024600025000122201703062322847400050000084                                                                                     
7PESE                                                                                000000000025000                            
50001810201208022012080317030721898465       PES0000025000A099632012080217360158                                                
6024600025000122201703072189846500050000099                                                                                     
7PESE                                                                                000000000025000                            
50001910201208022012080317031521783596       PES0000025000A099632012080217350157                                                
6024600025000122201703152178359600050000058                                                                                     
7PESE                                                                                000000000025000                            
50002010201208022012080317030817783419       PES0000025000A072322012080217500036                                                
6024600025000122221703081778341900050000057                                                                                     
7PESE                                                                                000000000025000                            
50002110201208022012080300540231925405       PES0000026000A056252012080212190084                                                
6024600026000122140054023192540500000000784                                                                                     
7PESE                                                                                000000000026000                            
50002210201208022012080300540232431889       PES0000026000D000762012080209230013                                                
6024600026000122140054023243188900000000742                                                                                     
7PESE                                                                                000000000026000                            
50002310201208022012080300540203729571       PES0000026000A112372012080218350017                                                
6024600026000122220054020372957100010000058                                                                                     
7PESE                                                                                000000000026000                            
50002410201208022012080300540221558279       PES0000026000A085342012080216510261                                                
6024600026000122220054022155827900010000015                                                                                     
7PESE                                                                                000000000026000                            
50002510201208022012080300540228879956       PES0000026000A109582012080217360080                                                
6024600026000122220054022887995600010000063                                                                                     
7PESE                                                                                000000000026000                            
50002610201208022012080300540236044247       PES0000026000A010562012080218100014                                                
6024600026000122220054023604424700010000037                                                                                     
7PESE                                                                                000000000026000                            
50002710201208022012080302383001824345       PES0000033000A017122012080209540066                                                
6024600028000122120238300182434500050007663                                                                                     
7PESE                                                                                000000000033000                            
50002810201208022012080300720521442955       PES0000031000A601492012080215490087                                                
6024600031000122210072052144295500155000058                                                                                     
7PESE                                                                                000000000031000                            
50002910201208022012080399030121558279       PES0000043000A085342012080216510262                                                
6024600043000122209903012155827900035000263                                                                                     
7PESE                                                                                000000000043000                            
50003010201208022012080399030132431889       PES0000043000D000762012080209230014                                                
6024600043000122209903013243188900035000184                                                                                     
7PESE                                                                                000000000043000                            
82012080300000100000300000007025000000000000000000000000000000000000000000030                                                   
9201208030000010000030000000702500000000000000000000000000000000000000000000030                                                 
