120111103PAGO FACIL               090060246FABIAN NORBERTO D´ERAMO                                                              
320111103000001FABIAN NORBERTO D´ERAMO                                                                                          
50000110201111022011110352000814327719       PES0000009000A108262011110114420237                                                
6024600008000113045200081432771900010007521                                                                                     
7PESE                                                                                000000000009000                            
50000210201111022011110329060414769661       PES0000010000A101712011110210560128                                                
6024600010000113062906041476966100030000057                                                                                     
7PESE                                                                                000000000010000                            
50000310201111022011110329060817198934       PES0000010000A101712011110210560127                                                
6024600010000113062906081719893400030000000                                                                                     
7PESE                                                                                000000000010000                            
50000410201111022011110300583440475276       PES0000022500A092112011110215590276                                                
6024600022500113110058344047527600025000099                                                                                     
7PESE                                                                                000000000022500                            
50000510201111022011110399030233896263       PES0000035000A097662011110217090198                                                
6024600035000113119903023389626300035000200                                                                                     
7PESE                                                                                000000000035000                            
50000610201111022011110399030234722750       PES0000035000M601132011110215480222                                                
6024600035000113119903023472275000035000116                                                                                     
7PESE                                                                                000000000035000                            
50000710201111022011110399030235755195       PES0000035000A109282011110214350240                                                
6024600035000113119903023575519500035000299                                                                                     
7PESE                                                                                000000000035000                            
50000810201111022011110301291720864445       PES0000037000A109842011110213430123                                                
6024600037000113060129172086444500000000000                                                                                     
7PESE                                                                                000000000037000                            
50000910201111022011110301290233505213       PES0000037000A047382011110216070229                                                
6024600037000113080129023350521300000000079                                                                                     
7PESE                                                                                000000000037000                            
50001010201111022011110301290622167074       PES0000037000M600092011110213270162                                                
6024600037000113080129062216707400000000084                                                                                     
7PESE                                                                                000000000037000                            
50001110201111022011110301290814277031       PES0000037000M600092011110213270163                                                
6024600037000113080129081427703100000000099                                                                                     
7PESE                                                                                000000000037000                            
50001210201111022011110301290814284990       PES0000037000M600092011110213270161                                                
6024600037000113080129081428499000000000084                                                                                     
7PESE                                                                                000000000037000                            
50001310201111022011110301290621002934       PES0000037000M600092011110213260160                                                
6024600037000113110129062100293400000000063                                                                                     
7PESE                                                                                000000000037000                            
50001410201111022011110301290427508671       PES0000037000A102742011110220290126                                                
6024600037000113130129042750867100000000000                                                                                     
7PESE                                                                                000000000037000                            
50001510201111022011110300530521980045       PES0000039500A070462011110218350186                                                
6024600039500113070053052198004500000000042                                                                                     
7PESE                                                                                000000000039500                            
50001610201111022011110346060322847432       PES0000040000A069522011110217150027                                                
6024600040000113084606032284743200080000478                                                                                     
7PESE                                                                                000000000040000                            
82011110300000100000160000004950000000000000000000000000000000000000000000016                                                   
9201111030000010000016000000495000000000000000000000000000000000000000000000016                                                 
