120130103PAGO FACIL               090060246FABIAN NORBERTO D´ERAMO                                                              
320130103000001FABIAN NORBERTO D´ERAMO                                                                                          
50000110201301022013010399030136044247       PES0000053500A092332012122818380198                                                
6024600053500130019903013604424700000000021                                                                                     
7PESE                                                                                000000000053500                            
50000210201301022013010372010120379864       PES0000010500A087062013010214190192                                                
6024600010500130057201012037986400000000042                                                                                     
7PESE                                                                                000000000010500                            
50000310201301022013010373000130722596       PES0000019000A105732013010217400140                                                
6024600015000123617300013072259600040008836                                                                                     
7PESE                                                                                000000000019000                            
50000410201301022013010373000224451621       PES0000019000A105732013010217390139                                                
6024600015000123617300022445162100040008815                                                                                     
7PESE                                                                                000000000019000                            
50000510201301022013010373000108250280       PES0000017000A111592013010218050012                                                
6024600017000130037300010825028000000000042                                                                                     
7PESE                                                                                000000000017000                            
50000610201301022013010373000131769741       PES0000017000M660002013010217060153                                                
6024600017000130037300013176974100000000042                                                                                     
7PESE                                                                                000000000017000                            
50000710201301022013010373000120224879       PES0000017000A083632013010211010117                                                
6024600017000130047300012022487900000000042                                                                                     
7PESE                                                                                000000000017000                            
50000810201301022013010373000134455400       PES0000017000A064642013010218510046                                                
6024600017000130047300013445540000000000099                                                                                     
7PESE                                                                                000000000017000                            
50000910201301022013010373000140781519       PES0000017000A120322013010219170067                                                
6024600017000130047300014078151900000000015                                                                                     
7PESE                                                                                000000000017000                            
50001010201301022013010373000233303049       PES0000017000A064642013010218510047                                                
6024600017000130047300023330304900000000063                                                                                     
7PESE                                                                                000000000017000                            
50001110201301022013010372010512021306       PES0000017800A095462013010216000027                                                
6024600017800130047201051202130600000000000                                                                                     
7PESE                                                                                000000000017800                            
50001210201301022013010329080413277337       PES0000018000A047512013010218210125                                                
6024600018000130042908041327733700000000090                                                                                     
7PESE                                                                                000000000018000                            
50001310201301022013010329080317610433       PES0000018000A060952013010218080095                                                
6024600018000130052908031761043300000000000                                                                                     
7PESE                                                                                000000000018000                            
50001410201301022013010329080320575373       PES0000018000A099752013010212330102                                                
6024600018000130052908032057537300000000057                                                                                     
7PESE                                                                                000000000018000                            
50001510201301022013010329080223472064       PES0000018000A089892013010211130077                                                
6024600018000130092908022347206400000000090                                                                                     
7PESE                                                                                000000000018000                            
50001610201301022013010329080320567711       PES0000018000A013172013010211270146                                                
6024600018000130092908032056771100000000016                                                                                     
7PESE                                                                                000000000018000                            
50001710201301022013010373000122044820       PES0000019000A105032013010211200017                                                
6024600019000130047300012204482000000000042                                                                                     
7PESE                                                                                000000000019000                            
50001810201301022013010373000220077235       PES0000019000A037142013010208480021                                                
6024600019000130047300022007723500000000036                                                                                     
7PESE                                                                                000000000019000                            
50001910201301022013010300784514051282       PES0000019500A601592013010213020119                                                
6024600019500130060078451405128200030000016                                                                                     
7PESE                                                                                000000000019500                            
50002010201301022013010329081131728159       PES0000025000A053772013010215260025                                                
6024600025000130082908113172815900000000078                                                                                     
7PESE                                                                                000000000025000                            
50002110201301022013010329081821563655       PES0000025000A055202013010213530038                                                
6024600025000130092908182156365500000000079                                                                                     
7PESE                                                                                000000000025000                            
50002210201301022013010302422339097297       PES0000035000A075232013010213240048                                                
6024600035000130040242233909729700000000000                                                                                     
7PESE                                                                                000000000035000                            
50002310201301022013010302422717508233       PES0000035000A065992013010212590066                                                
6024600035000130040242271750823300000000042                                                                                     
7PESE                                                                                000000000035000                            
50002410201301022013010302422717538269       PES0000035000A085582013010212000162                                                
6024600035000130040242271753826900000000015                                                                                     
7PESE                                                                                000000000035000                            
50002510201301022013010302422526364524       PES0000035000A113132013010215120165                                                
6024600035000130050242252636452400000000057                                                                                     
7PESE                                                                                000000000035000                            
50002610201301022013010302422528387300       PES0000035000M602002013010211310054                                                
6024600035000130050242252838730000000000079                                                                                     
7PESE                                                                                000000000035000                            
50002710201301022013010302423328235717       PES0000035000A057152013010217330289                                                
6024600035000130050242332823571700000000000                                                                                     
7PESE                                                                                000000000035000                            
50002810201301022013010302420136070683       PES0000047500A049612013010210300030                                                
6024600047500130030242013607068300000000016                                                                                     
7PESE                                                                                000000000047500                            
50002910201301022013010302420713786205       PES0000047500D000462013010217550175                                                
6024600047500130030242071378620500000000057                                                                                     
7PESE                                                                                000000000047500                            
50003010201301022013010302420812729428       PES0000047500M620092013010214390178                                                
6024600047500130030242081272942800000000084                                                                                     
7PESE                                                                                000000000047500                            
50003110201301022013010302421326933292       PES0000047500D001472013010219270223                                                
6024600047500130030242132693329200000000090                                                                                     
7PESE                                                                                000000000047500                            
50003210201301022013010302420232478884       PES0000047500A118902013010217140272                                                
6024600047500130040242023247888400000000063                                                                                     
7PESE                                                                                000000000047500                            
50003310201301022013010302420424027743       PES0000047500A081622013010216510188                                                
6024600047500130040242042402774300000000016                                                                                     
7PESE                                                                                000000000047500                            
50003410201301022013010302423726498209       PES0000047500A091482013010215510398                                                
6024600047500130040242372649820900000000063                                                                                     
7PESE                                                                                000000000047500                            
50003510201301022013010302423821094467       PES0000047500A101722013010214480002                                                
6024600047500130040242382109446700000000099                                                                                     
7PESE                                                                                000000000047500                            
50003610201301022013010302420231729736       PES0000047500A109822013010211280038                                                
6024600047500130050242023172973600000000042                                                                                     
7PESE                                                                                000000000047500                            
50003710201301022013010302420328081365       PES0000047500D001662013010215000289                                                
6024600047500130050242032808136500000000058                                                                                     
7PESE                                                                                000000000047500                            
50003810201301022013010302420424754431       PES0000047500A091142013010217390453                                                
6024600047500130050242042475443100000000037                                                                                     
7PESE                                                                                000000000047500                            
50003910201301022013010302420520365060       PES0000047500A028382013010217490228                                                
6024600047500130050242052036506000000000021                                                                                     
7PESE                                                                                000000000047500                            
50004010201301022013010302420617607849       PES0000047500M601842013010210110046                                                
6024600047500130050242061760784900000000042                                                                                     
7PESE                                                                                000000000047500                            
50004110201301022013010302423725966400       PES0000047500A097712013010213500019                                                
6024600047500130050242372596640000000000058                                                                                     
7PESE                                                                                000000000047500                            
50004210201301022013010399030128984843       PES0000047500A022842013010215450265                                                
6024600047500130079903012898484300035000216                                                                                     
7PESE                                                                                000000000047500                            
82013010300000100000420000013418000000000000000000000000000000000000000000042                                                   
9201301030000010000042000001341800000000000000000000000000000000000000000000042                                                 
