120120904PAGO FACIL               090060246FABIAN NORBERTO D´ERAMO                                                              
320120904000001FABIAN NORBERTO D´ERAMO                                                                                          
50000110201209032012090417030914397587       PES0000025000A112202012083109280005                                                
6024600025000122441703091439758700050007421                                                                                     
7PESE                                                                                000000000025000                            
50000210201209032012090400720520838411       PES0000042000A058512012090116530134                                                
6024600042000122490072052083841100045000342                                                                                     
7PESE                                                                                000000000042000                            
50000310201209032012090457011018477510       PES0000015000A103902012090215130040                                                
6024600015000122495701101847751000000000090                                                                                     
7PESE                                                                                000000000015000                            
50000410201209032012090400714740638578       PES0000009000A064202012090318330159                                                
6024600008000122440071474063857800010007421                                                                                     
7PESE                                                                                000000000009000                            
50000510201209032012090400714742951132       PES0000009000A112762012090314540212                                                
6024600008000122440071474295113200010007642                                                                                     
7PESE                                                                                000000000009000                            
50000610201209032012090400714743455351       PES0000009000A620262012090309300014                                                
6024600008000122440071474345535100010007657                                                                                     
7PESE                                                                                000000000009000                            
50000710201209032012090400714743719106       PES0000009000A064992012090311290037                                                
6024600008000122440071474371910600010007399                                                                                     
7PESE                                                                                000000000009000                            
50000810201209032012090457010229862916       PES0000015000A110152012090312580144                                                
6024600015000122495701022986291600000000000                                                                                     
7PESE                                                                                000000000015000                            
50000910201209032012090457010326695330       PES0000015000A066972012090319220134                                                
6024600015000122545701032669533000000000063                                                                                     
7PESE                                                                                000000000015000                            
50001010201209032012090499020236256413       PES0000022000A060602012090312000312                                                
6024600022000122519902023625641300000000221                                                                                     
7PESE                                                                                000000000022000                            
50001110201209032012090400712717940595       PES0000029000A620262012090309300013                                                
6024600023500122440071271794059500055007616                                                                                     
7PESE                                                                                000000000029000                            
50001210201209032012090400713440910926       PES0000029000A092052012090309580058                                                
6024600023500122440071344091092600055007678                                                                                     
7PESE                                                                                000000000029000                            
50001310201209032012090400713732531194       PES0000029000A109792012090318330073                                                
6024600023500122440071373253119400055007584                                                                                     
7PESE                                                                                000000000029000                            
50001410201209032012090400540321558279       PES0000026000A034312012090315200365                                                
6024600026000122540054032155827900010000036                                                                                     
7PESE                                                                                000000000026000                            
50001510201209032012090400540334617181       PES0000026000A084182012090311300125                                                
6024600026000122540054033461718100010000057                                                                                     
7PESE                                                                                000000000026000                            
50001610201209032012090400540421558279       PES0000026000A034312012090315200366                                                
6024600026000122540054042155827900010000058                                                                                     
7PESE                                                                                000000000026000                            
50001710201209032012090400711913169351       PES0000029000A055202012090315350111                                                
6024600029000122540071191316935100035000063                                                                                     
7PESE                                                                                000000000029000                            
50001810201209032012090400714422545990       PES0000029000A088162012090313590225                                                
6024600029000122540071442254599000035000042                                                                                     
7PESE                                                                                000000000029000                            
50001910201209032012090417030816649193       PES0000030000A113802012090319190127                                                
6024600030000122521703081664919300000000021                                                                                     
7PESE                                                                                000000000030000                            
50002010201209032012090400723934157744       PES0000031000A073592012090317570060                                                
6024600031000122490072393415774400040000142                                                                                     
7PESE                                                                                000000000031000                            
50002110201209032012090400724031761633       PES0000031000A049072012090315120023                                                
6024600031000122490072403176163300040000121                                                                                     
7PESE                                                                                000000000031000                            
50002210201209032012090400720617874348       PES0000042000A008052012090311310174                                                
6024600042000122490072061787434800045000421                                                                                     
7PESE                                                                                000000000042000                            
50002310201209032012090400720618070149       PES0000042000A047502012090312280075                                                
6024600042000122490072061807014900045000579                                                                                     
7PESE                                                                                000000000042000                            
50002410201209032012090499030121558279       PES0000043000A034312012090315200367                                                
6024600043000122519903012155827900035000357                                                                                     
7PESE                                                                                000000000043000                            
50002510201209032012090499030134556684       PES0000043000A085922012090316100051                                                
6024600043000122519903013455668400035000321                                                                                     
7PESE                                                                                000000000043000                            
50002610201209032012090499030134617181       PES0000043000A084182012090311300124                                                
6024600043000122519903013461718100035000378                                                                                     
7PESE                                                                                000000000043000                            
50002710201209032012090401320326351366       PES0000045000A621082012090310020013                                                
6024600045000122470132032635136600050000021                                                                                     
7PESE                                                                                000000000045000                            
50002810201209032012090401320616525485       PES0000045000A063662012090314350150                                                
6024600045000122470132061652548500050000015                                                                                     
7PESE                                                                                000000000045000                            
50002910201209032012090401320138014828       PES0000045000A103902012090313140220                                                
6024600045000122500132013801482800050000090                                                                                     
7PESE                                                                                000000000045000                            
50003010201209032012090401322223154523       PES0000045000A037312012090312050113                                                
6024600045000122510132222315452300050000099                                                                                     
7PESE                                                                                000000000045000                            
50003110201209032012090401320327491406       PES0000045000M620882012090312440075                                                
6024600045000122530132032749140600050000090                                                                                     
7PESE                                                                                000000000045000                            
50003210201209032012090401320424040963       PES0000045000M620412012090315500026                                                
6024600045000122540132042404096300050000057                                                                                     
7PESE                                                                                000000000045000                            
50003310201209032012090400540134929847       PES0000076000A090722012090317360042                                                
6024600076000122540054013492984700000000090                                                                                     
7PESE                                                                                000000000076000                            
82012090400000100000330000010440000000000000000000000000000000000000000000033                                                   
9201209040000010000033000001044000000000000000000000000000000000000000000000033                                                 
