120120704PAGO FACIL               090060246FABIAN NORBERTO D´ERAMO                                                              
320120704000001FABIAN NORBERTO D´ERAMO                                                                                          
50000110201207032012070499080131059737       PES0000008000A000882012070309250006                                                
6024600008000121919908013105973700000000036                                                                                     
7PESE                                                                                000000000008000                            
50000210201207032012070499080231059737       PES0000008000A000882012070309250005                                                
6024600008000121919908023105973700000000058                                                                                     
7PESE                                                                                000000000008000                            
50000310201207032012070459000322701543       PES0000016000L070222012070315183775                                                
6024600016000121865900032270154300000000036                                                                                     
7PESE                                                                                000000000016000                            
50000410201207032012070459001417382034       PES0000016000A091482012070316480411                                                
6024600016000121905900141738203400000000084                                                                                     
7PESE                                                                                000000000016000                            
50000510201207032012070499040127340271       PES0000029000A085232012070314240265                                                
6024600029000121899904012734027100015000284                                                                                     
7PESE                                                                                000000000029000                            
50000610201207032012070459002230240190       PES0000032000A078942012070318320005                                                
6024600032000121875900223024019000000000021                                                                                     
7PESE                                                                                000000000032000                            
50000710201207032012070499030123723839       PES0000043000A600432012070316020231                                                
6024600043000121899903012372383900035000378                                                                                     
7PESE                                                                                000000000043000                            
50000810201207032012070499030129247865       PES0000043000D000122012070314020035                                                
6024600043000121899903012924786500035000300                                                                                     
7PESE                                                                                000000000043000                            
50000910201207032012070499030132944859       PES0000043000A095132012070312190070                                                
6024600043000121899903013294485900035000278                                                                                     
7PESE                                                                                000000000043000                            
50001010201207032012070499030133104324       PES0000043000A064852012070314520015                                                
6024600043000121899903013310432400035000200                                                                                     
7PESE                                                                                000000000043000                            
82012070400000100000100000002810000000000000000000000000000000000000000000010                                                   
9201207040000010000010000000281000000000000000000000000000000000000000000000010                                                 
