120120404PAGO FACIL               090060246FABIAN NORBERTO D´ERAMO                                                              
320120404000001FABIAN NORBERTO D´ERAMO                                                                                          
50000110201204032012040400704042368297       PES0000020000A082642012040312420063                                                
6024600020000120940070404236829700020000042                                                                                     
7PESE                                                                                000000000020000                            
50000210201204032012040400704042409453       PES0000020000D000902012040317080260                                                
6024600020000120940070404240945300020000078                                                                                     
7PESE                                                                                000000000020000                            
50000310201204032012040418390912289264       PES0000020000D000572012040309160005                                                
6024600020000120961839091228926400000000078                                                                                     
7PESE                                                                                000000000020000                            
50000410201204032012040418392721486416       PES0000020000A028962012040312520129                                                
6024600020000120961839272148641600000000036                                                                                     
7PESE                                                                                000000000020000                            
50000510201204032012040418390232269383       PES0000020000A620302012040310330090                                                
6024600020000120981839023226938300000000058                                                                                     
7PESE                                                                                000000000020000                            
50000610201204032012040400705233118639       PES0000020000M601242012040311200009                                                
6024600020000120990070523311863900020000021                                                                                     
7PESE                                                                                000000000020000                            
50000710201204032012040402350817901826       PES0000029000M600092012040311560115                                                
6024600029000120990235081790182600040000057                                                                                     
7PESE                                                                                000000000029000                            
50000810201204032012040456000332269383       PES0000030000A620302012040310330089                                                
6024600030000121005600033226938300000000063                                                                                     
7PESE                                                                                000000000030000                            
50000910201204032012040499030227340271       PES0000037000A085232012040314450002                                                
6024600037000120989903022734027100035000363                                                                                     
7PESE                                                                                000000000037000                            
50001010201204032012040499030228361121       PES0000037000A043162012040314260139                                                
6024600037000120989903022836112100035000378                                                                                     
7PESE                                                                                000000000037000                            
50001110201204032012040499030237483073       PES0000037000A092062012040311010060                                                
6024600037000120989903023748307300035000242                                                                                     
7PESE                                                                                000000000037000                            
82012040400000100000110000002900000000000000000000000000000000000000000000011                                                   
9201204040000010000011000000290000000000000000000000000000000000000000000000011                                                 
