120120604PAGO FACIL               090060246FABIAN NORBERTO D´ERAMO                                                              
320120604000001FABIAN NORBERTO D´ERAMO                                                                                          
50000110201206012012060402373821442955       PES0000017000A601492012060116200117                                                
6024600017000121580237382144295500030000063                                                                                     
7PESE                                                                                000000000017000                            
50000210201206012012060499020220442739       PES0000022000A109822012060118480133                                                
6024600022000121599902022044273900000000063                                                                                     
7PESE                                                                                000000000022000                            
50000310201206012012060499020236256413       PES0000022000A038142012060118150115                                                
6024600022000121569902023625641300000000058                                                                                     
7PESE                                                                                000000000022000                            
50000410201206022012060499030134222869       PES0000037000A028582012060212540103                                                
6024600037000121599903013422286900035000158                                                                                     
7PESE                                                                                000000000037000                            
50000510201206022012060499030136399286       PES0000037000A042332012060215100007                                                
6024600037000121599903013639928600035000200                                                                                     
7PESE                                                                                000000000037000                            
82012060400000100000050000001350000000000000000000000000000000000000000000005                                                   
9201206040000010000005000000135000000000000000000000000000000000000000000000005                                                 
