120130104PAGO FACIL               090060246FABIAN NORBERTO D´ERAMO                                                              
320130104000001FABIAN NORBERTO D´ERAMO                                                                                          
50000110201301032013010402423326411646       PES0000035000A058512013010218240072                                                
6024600035000130050242332641164600000000021                                                                                     
7PESE                                                                                000000000035000                            
50000210201301032013010402420231601334       PES0000047500A080382013010213070076                                                
6024600047500130040242023160133400000000021                                                                                     
7PESE                                                                                000000000047500                            
50000310201301032013010488880000000093       PES0000001000A014522013010316150089                                                
6024600001000130108888000000009300000000084                                                                                     
7PESE                                                                                000000000001000                            
50000410201301032013010473000344970302       PES0000009500A055172013010315260216                                                
6024600009500130037300034497030200000000016                                                                                     
7PESE                                                                                000000000009500                            
50000510201301032013010473000347662342       PES0000009500A055172013010315250215                                                
6024600009500130037300034766234200000000015                                                                                     
7PESE                                                                                000000000009500                            
50000610201301032013010473000346223928       PES0000009500A096092013010312590239                                                
6024600009500130047300034622392800000000079                                                                                     
7PESE                                                                                000000000009500                            
50000710201301032013010472010230345180       PES0000013700A101972013010316310342                                                
6024600013700130047201023034518000000000021                                                                                     
7PESE                                                                                000000000013700                            
50000810201301032013010473000126178140       PES0000019000A119512013010316520075                                                
6024600015000123617300012617814000040008800                                                                                     
7PESE                                                                                000000000019000                            
50000910201301032013010473000123458320       PES0000017000A110742013010316290081                                                
6024600017000130037300012345832000000000058                                                                                     
7PESE                                                                                000000000017000                            
50001010201301032013010473000123525873       PES0000017000A047772013010311170079                                                
6024600017000130037300012352587300000000063                                                                                     
7PESE                                                                                000000000017000                            
50001110201301032013010473000126528926       PES0000017000A079862013010320020050                                                
6024600017000130037300012652892600000000057                                                                                     
7PESE                                                                                000000000017000                            
50001210201301032013010473000126671734       PES0000017000A047772013010311160076                                                
6024600017000130037300012667173400000000021                                                                                     
7PESE                                                                                000000000017000                            
50001310201301032013010473000131843281       PES0000017000A060492013010320500117                                                
6024600017000130037300013184328100000000036                                                                                     
7PESE                                                                                000000000017000                            
50001410201301032013010473000132280928       PES0000017000A083592013010314500422                                                
6024600017000130037300013228092800000000084                                                                                     
7PESE                                                                                000000000017000                            
50001510201301032013010473000224614223       PES0000017000A047772013010311160078                                                
6024600017000130037300022461422300000000042                                                                                     
7PESE                                                                                000000000017000                            
50001610201301032013010473000224797985       PES0000017000A047772013010311160077                                                
6024600017000130037300022479798500000000021                                                                                     
7PESE                                                                                000000000017000                            
50001710201301032013010473000233701466       PES0000017000A107142013010318150173                                                
6024600017000130037300023370146600000000042                                                                                     
7PESE                                                                                000000000017000                            
50001810201301032013010429080228596873       PES0000018000A092062013010311350161                                                
6024600018000130042908022859687300000000057                                                                                     
7PESE                                                                                000000000018000                            
50001910201301032013010429080228820426       PES0000018000A092062013010311350162                                                
6024600018000130042908022882042600000000036                                                                                     
7PESE                                                                                000000000018000                            
50002010201301032013010429080318578175       PES0000018000A028072013010315480101                                                
6024600018000130042908031857817500000000090                                                                                     
7PESE                                                                                000000000018000                            
50002110201301032013010429080822323782       PES0000018000A008222013010316220209                                                
6024600018000130042908082232378200000000063                                                                                     
7PESE                                                                                000000000018000                            
50002210201301032013010429080228281559       PES0000018000A092062013010311350160                                                
6024600018000130052908022828155900000000037                                                                                     
7PESE                                                                                000000000018000                            
50002310201301032013010429080317544745       PES0000018000M620942013010310560051                                                
6024600018000130082908031754474500000000042                                                                                     
7PESE                                                                                000000000018000                            
50002410201301032013010429080136903107       PES0000018000A104702013010316490207                                                
6024600018000130092908013690310700000000000                                                                                     
7PESE                                                                                000000000018000                            
50002510201301032013010429080223085844       PES0000018000A601482013010312420092                                                
6024600018000130092908022308584400000000090                                                                                     
7PESE                                                                                000000000018000                            
50002610201301032013010429080228023731       PES0000018000A001632013010314440198                                                
6024600018000130092908022802373100000000063                                                                                     
7PESE                                                                                000000000018000                            
50002710201301032013010429080321470145       PES0000018000M600552013010311060075                                                
6024600018000130092908032147014500000000000                                                                                     
7PESE                                                                                000000000018000                            
50002810201301032013010429080322954257       PES0000018000L120042013010313559231                                                
6024600018000130092908032295425700000000021                                                                                     
7PESE                                                                                000000000018000                            
50002910201301032013010429080916290007       PES0000018000A097712013010309540052                                                
6024600018000130092908091629000700000000000                                                                                     
7PESE                                                                                000000000018000                            
50003010201301032013010429080225495017       PES0000018000A106002013010315490148                                                
6024600018000130102908022549501700000000078                                                                                     
7PESE                                                                                000000000018000                            
50003110201301032013010473000133140878       PES0000019000A120322013010319380022                                                
6024600019000130047300013314087800000000079                                                                                     
7PESE                                                                                000000000019000                            
50003210201301032013010473000230844771       PES0000019000A047772013010311470104                                                
6024600019000130047300023084477100000000099                                                                                     
7PESE                                                                                000000000019000                            
50003310201301032013010429081322533526       PES0000025000A008222013010316210208                                                
6024600025000130042908132253352600000000036                                                                                     
7PESE                                                                                000000000025000                            
50003410201301032013010429081229389249       PES0000025000A043552013010316380043                                                
6024600025000130102908122938924900000000057                                                                                     
7PESE                                                                                000000000025000                            
50003510201301032013010429081318750892       PES0000025000A016702013010319250104                                                
6024600025000130102908131875089200000000037                                                                                     
7PESE                                                                                000000000025000                            
50003610201301032013010429081412079109       PES0000025000D000502013010319540214                                                
6024600025000130102908141207910900000000079                                                                                     
7PESE                                                                                000000000025000                            
50003710201301032013010402422626257638       PES0000035000A601292013010312040022                                                
6024600035000130030242262625763800000000015                                                                                     
7PESE                                                                                000000000035000                            
50003810201301032013010402422339372784       PES0000035000A096342013010318400043                                                
6024600035000130040242233937278400000000063                                                                                     
7PESE                                                                                000000000035000                            
50003910201301032013010402422340007495       PES0000035000A038942013010316490076                                                
6024600035000130040242234000749500000000057                                                                                     
7PESE                                                                                000000000035000                            
50004010201301032013010402422531533830       PES0000035000A077352013010315140037                                                
6024600035000130040242253153383000000000084                                                                                     
7PESE                                                                                000000000035000                            
50004110201301032013010402422532879309       PES0000035000A120362013010317090031                                                
6024600035000130040242253287930900000000042                                                                                     
7PESE                                                                                000000000035000                            
50004210201301032013010402422624962781       PES0000035000A113032013010316260156                                                
6024600035000130040242262496278100000000063                                                                                     
7PESE                                                                                000000000035000                            
50004310201301032013010402422713748255       PES0000035000A113032013010316250155                                                
6024600035000130040242271374825500000000078                                                                                     
7PESE                                                                                000000000035000                            
50004410201301032013010402423139336080       PES0000035000A068912013010318190268                                                
6024600035000130040242313933608000000000057                                                                                     
7PESE                                                                                000000000035000                            
50004510201301032013010402422620685512       PES0000035000A024632013010315570037                                                
6024600035000130050242262068551200000000078                                                                                     
7PESE                                                                                000000000035000                            
50004610201301032013010402422813140445       PES0000035000D001732013010318010119                                                
6024600035000130050242281314044500000000042                                                                                     
7PESE                                                                                000000000035000                            
50004710201301032013010402420134818160       PES0000047500A037752013010321330385                                                
6024600047500130040242013481816000000000099                                                                                     
7PESE                                                                                000000000047500                            
50004810201301032013010402420230575153       PES0000047500A121112013010315310170                                                
6024600047500130040242023057515300000000090                                                                                     
7PESE                                                                                000000000047500                            
50004910201301032013010402420232036311       PES0000047500A048462013010310270045                                                
6024600047500130040242023203631100000000021                                                                                     
7PESE                                                                                000000000047500                            
50005010201301032013010402420327180990       PES0000047500A048462013010310270046                                                
6024600047500130040242032718099000000000037                                                                                     
7PESE                                                                                000000000047500                            
50005110201301032013010402420329068077       PES0000047500A091152013010313050106                                                
6024600047500130040242032906807700000000084                                                                                     
7PESE                                                                                000000000047500                            
50005210201301032013010402420425190837       PES0000047500A075232013010317200191                                                
6024600047500130040242042519083700000000037                                                                                     
7PESE                                                                                000000000047500                            
50005310201301032013010402420426053543       PES0000047500D001462013010311390101                                                
6024600047500130040242042605354300000000057                                                                                     
7PESE                                                                                000000000047500                            
50005410201301032013010402420426401820       PES0000047500A090072013010315570012                                                
6024600047500130040242042640182000000000042                                                                                     
7PESE                                                                                000000000047500                            
50005510201301032013010402420520717756       PES0000047500A116922013010314070170                                                
6024600047500130040242052071775600000000036                                                                                     
7PESE                                                                                000000000047500                            
50005610201301032013010402420521836716       PES0000047500A092152013010313220218                                                
6024600047500130040242052183671600000000042                                                                                     
7PESE                                                                                000000000047500                            
50005710201301032013010402420521981369       PES0000047500A064332013010314350022                                                
6024600047500130040242052198136900000000084                                                                                     
7PESE                                                                                000000000047500                            
50005810201301032013010402420526928248       PES0000047500D001472013010320400364                                                
6024600047500130040242052692824800000000000                                                                                     
7PESE                                                                                000000000047500                            
50005910201301032013010402423630575088       PES0000047500A040542013010313450141                                                
6024600047500130040242363057508800000000063                                                                                     
7PESE                                                                                000000000047500                            
50006010201301032013010402420326717337       PES0000047500M620042013010311070077                                                
6024600047500130050242032671733700000000015                                                                                     
7PESE                                                                                000000000047500                            
50006110201301032013010402420328686874       PES0000047500A085792013010310490064                                                
6024600047500130050242032868687400000000037                                                                                     
7PESE                                                                                000000000047500                            
50006210201301032013010402420425171331       PES0000047500A115122013010309530014                                                
6024600047500130050242042517133100000000099                                                                                     
7PESE                                                                                000000000047500                            
50006310201301032013010402420425452861       PES0000047500A620992013010314590033                                                
6024600047500130050242042545286100000000099                                                                                     
7PESE                                                                                000000000047500                            
50006410201301032013010402420618223149       PES0000047500A086812013010317070137                                                
6024600047500130050242061822314900000000021                                                                                     
7PESE                                                                                000000000047500                            
50006510201301032013010402423914530475       PES0000047500M602122013010312340720                                                
6024600047500130050242391453047500000000015                                                                                     
7PESE                                                                                000000000047500                            
50006610201301032013010499030133434151       PES0000047500A081272013010311110068                                                
6024600047500130069903013343415100035000063                                                                                     
7PESE                                                                                000000000047500                            
82013010400000100000660000019697000000000000000000000000000000000000000000066                                                   
9201301040000010000066000001969700000000000000000000000000000000000000000000066                                                 
