120111004PAGO FACIL               090060246FABIAN NORBERTO D´ERAMO                                                              
320111004000001FABIAN NORBERTO D´ERAMO                                                                                          
50000110201110032011100400504742375260       PES0000010000A084182011100319330336                                                
6024600008500112730050474237526000015007663                                                                                     
7PESE                                                                                000000000010000                            
50000210201110032011100429060129299433       PES0000010000A092152011100315370179                                                
6024600010000112802906012929943300030000037                                                                                     
7PESE                                                                                000000000010000                            
50000310201110032011100499040136846689       PES0000023500M600472011100310350010                                                
6024600023500112809904013684668900015000300                                                                                     
7PESE                                                                                000000000023500                            
50000410201110032011100400501816062184       PES0000027500A044482011100318070344                                                
6024600027500112830050181606218400000000000                                                                                     
7PESE                                                                                000000000027500                            
50000510201110032011100400531812277254       PES0000038500M601252011100310450039                                                
6024600038500112760053181227725400010000090                                                                                     
7PESE                                                                                000000000038500                            
50000610201110032011100400531521986784       PES0000038500L071192011100308440114                                                
6024600038500112770053152198678400010000021                                                                                     
7PESE                                                                                000000000038500                            
82011100400000100000060000001480000000000000000000000000000000000000000000006                                                   
9201110040000010000006000000148000000000000000000000000000000000000000000000006                                                 
