120120105PAGO FACIL               090060246FABIAN NORBERTO D´ERAMO                                                              
320120105000001FABIAN NORBERTO D´ERAMO                                                                                          
50000110201201042012010553000322652129       PES0000011000M601892012010413550168                                                
6024600011000120065300032265212900000000037                                                                                     
7PESE                                                                                000000000011000                            
50000210201201042012010500622717392983       PES0000012000D000492012010414570375                                                
6024600012000120040062271739298300020000063                                                                                     
7PESE                                                                                000000000012000                            
50000310201201042012010500612331829094       PES0000014000A064702012010412460034                                                
6024600014000120050061233182909400000000084                                                                                     
7PESE                                                                                000000000014000                            
50000410201201042012010500600231851063       PES0000019000A620302012010411510072                                                
6024600019000120060060023185106300060000036                                                                                     
7PESE                                                                                000000000019000                            
50000510201201042012010518360717345988       PES0000020000A602192012010408550005                                                
6024600020000120041836071734598800000000021                                                                                     
7PESE                                                                                000000000020000                            
50000610201201042012010518360524040963       PES0000020000M620412012010409200005                                                
6024600020000120051836052404096300000000042                                                                                     
7PESE                                                                                000000000020000                            
50000710201201042012010518360621723759       PES0000020000A091562012010417010497                                                
6024600020000120051836062172375900000000042                                                                                     
7PESE                                                                                000000000020000                            
50000810201201042012010518361623856257       PES0000020000A047502012010412210142                                                
6024600020000120051836162385625700000000063                                                                                     
7PESE                                                                                000000000020000                            
50000910201201042012010502320330742084       PES0000025000A097692012010413350311                                                
6024600025000120040232033074208400030000084                                                                                     
7PESE                                                                                000000000025000                            
50001010201201042012010502320425966397       PES0000025000A088382012010411200052                                                
6024600025000120050232042596639700030000099                                                                                     
7PESE                                                                                000000000025000                            
50001110201201042012010502320621442955       PES0000025000L120162012010414074526                                                
6024600025000120060232062144295500030000000                                                                                     
7PESE                                                                                000000000025000                            
50001210201201042012010502320330650187       PES0000025000D001442012010414070372                                                
6024600025000120090232033065018700030000078                                                                                     
7PESE                                                                                000000000025000                            
50001310201201042012010502320718324344       PES0000025000A004542012010414280060                                                
6024600025000120090232071832434400030000037                                                                                     
7PESE                                                                                000000000025000                            
50001410201201042012010502320525597729       PES0000025000A086652012010416110044                                                
6024600025000120100232052559772900030000137                                                                                     
7PESE                                                                                000000000025000                            
50001510201201042012010598010221096091       PES0000029500A077792012010409100006                                                
6024600029500120109801022109609100000000042                                                                                     
7PESE                                                                                000000000029500                            
50001610201201042012010599030227340271       PES0000037000A063922012010410160040                                                
6024600037000120079903022734027100035000437                                                                                     
7PESE                                                                                000000000037000                            
50001710201201042012010599030231075840       PES0000037000A028582012010411410168                                                
6024600037000120079903023107584000035000063                                                                                     
7PESE                                                                                000000000037000                            
50001810201201042012010599030235398990       PES0000037000A620822012010412090096                                                
6024600037000120079903023539899000035000378                                                                                     
7PESE                                                                                000000000037000                            
50001910201201042012010523061030446438       PES0000108800A103542012010418580075                                                
6024600108800120062306103044643800128000021                                                                                     
7PESE                                                                                000000000108800                            
50002010201201042012010523060834740286       PES0000108800A080942012010418350071                                                
6024600108800120112306083474028600128000078                                                                                     
7PESE                                                                                000000000108800                            
50002110201201042012010523061425431018       PES0000121600A024232012010410480024                                                
6024600121600120102306142543101800150000099                                                                                     
7PESE                                                                                000000000121600                            
50002210201201042012010523061839976501       PES0000121600L120362012010410420597                                                
6024600121600120112306183997650100150000037                                                                                     
7PESE                                                                                000000000121600                            
50002310201201042012010523061840164687       PES0000121600A058262012010411340149                                                
6024600121600120112306184016468700150000063                                                                                     
7PESE                                                                                000000000121600                            
82012010500000100000230000010089000000000000000000000000000000000000000000023                                                   
9201201050000010000023000001008900000000000000000000000000000000000000000000023                                                 
