120120905PAGO FACIL               090060246FABIAN NORBERTO D´ERAMO                                                              
320120905000001FABIAN NORBERTO D´ERAMO                                                                                          
50000110201209042012090500540403729571       PES0000026000A046792012090310100042                                                
6024600026000122450054040372957100000000736                                                                                     
7PESE                                                                                000000000026000                            
50000210201209042012090500714740675657       PES0000009000A034672012090415270060                                                
6024600009000122550071474067565700025000021                                                                                     
7PESE                                                                                000000000009000                            
50000310201209042012090557010617208330       PES0000015000A110152012090411320089                                                
6024600015000122515701061720833000000000036                                                                                     
7PESE                                                                                000000000015000                            
50000410201209042012090599020131344045       PES0000019000A072152012090417320017                                                
6024600019000122519902013134404500000000321                                                                                     
7PESE                                                                                000000000019000                            
50000510201209042012090599020232381986       PES0000022000A090752012090418110243                                                
6024600022000122519902023238198600000000437                                                                                     
7PESE                                                                                000000000022000                            
50000610201209042012090500710236303901       PES0000029000A097522012090409540036                                                
6024600023500122440071023630390100055007515                                                                                     
7PESE                                                                                000000000029000                            
50000710201209042012090500710530115010       PES0000029000A111862012090418150043                                                
6024600023500122440071053011501000055007436                                                                                     
7PESE                                                                                000000000029000                            
50000810201209042012090500714517086870       PES0000029000A085222012090410070001                                                
6024600023500122440071451708687000055007516                                                                                     
7PESE                                                                                000000000029000                            
50000910201209042012090517030623863839       PES0000030000A069392012090410510057                                                
6024600025000122441703062386383900050007679                                                                                     
7PESE                                                                                000000000030000                            
50001010201209042012090500540334630666       PES0000026000A092082012090415450462                                                
6024600026000122540054033463066600010000079                                                                                     
7PESE                                                                                000000000026000                            
50001110201209042012090599040118893421       PES0000029000A092202012090417240387                                                
6024600029000122519904011889342100015000000                                                                                     
7PESE                                                                                000000000029000                            
50001210201209042012090599040128988282       PES0000029000A111862012090416290006                                                
6024600029000122519904012898828200015000478                                                                                     
7PESE                                                                                000000000029000                            
50001310201209042012090500712523848283       PES0000029000A104422012090416520369                                                
6024600029000122520071252384828300035000099                                                                                     
7PESE                                                                                000000000029000                            
50001410201209042012090500714423468719       PES0000029000A044962012090412390169                                                
6024600029000122550071442346871900035000099                                                                                     
7PESE                                                                                000000000029000                            
50001510201209042012090517031521662196       PES0000030000A720032012090408500054                                                
6024600030000122541703152166219600000000042                                                                                     
7PESE                                                                                000000000030000                            
50001610201209042012090500722623463409       PES0000031000A097712012090416330087                                                
6024600031000122490072262346340900040000615                                                                                     
7PESE                                                                                000000000031000                            
50001710201209042012090500723732199067       PES0000031000A094382012090415110293                                                
6024600031000122490072373219906700040000163                                                                                     
7PESE                                                                                000000000031000                            
50001810201209042012090500723817106492       PES0000031000A088612012090417090110                                                
6024600031000122490072381710649200040000384                                                                                     
7PESE                                                                                000000000031000                            
50001910201209042012090500724018049861       PES0000031000D000502012090413590212                                                
6024600031000122490072401804986100040000657                                                                                     
7PESE                                                                                000000000031000                            
50002010201209042012090500724022545377       PES0000031000A028162012090412090176                                                
6024600031000122490072402254537700040000558                                                                                     
7PESE                                                                                000000000031000                            
50002110201209042012090500720521700130       PES0000042000A097432012090413590081                                                
6024600042000122490072052170013000045000690                                                                                     
7PESE                                                                                000000000042000                            
50002210201209042012090500720522401387       PES0000042000A028162012090412090177                                                
6024600042000122490072052240138700045000678                                                                                     
7PESE                                                                                000000000042000                            
50002310201209042012090599030134318531       PES0000043000A048282012090417460057                                                
6024600043000122519903013431853100035000400                                                                                     
7PESE                                                                                000000000043000                            
50002410201209042012090599030134630666       PES0000043000A092082012090415450461                                                
6024600043000122519903013463066600035000390                                                                                     
7PESE                                                                                000000000043000                            
50002510201209042012090599030136157259       PES0000043000A105602012090412430271                                                
6024600043000122519903013615725900035000421                                                                                     
7PESE                                                                                000000000043000                            
50002610201209042012090599030136808106       PES0000043000A092022012090410420113                                                
6024600043000122519903013680810600035000000                                                                                     
7PESE                                                                                000000000043000                            
50002710201209042012090501321617036104       PES0000045000A057002012090416450061                                                
6024600045000122490132161703610400050000063                                                                                     
7PESE                                                                                000000000045000                            
50002810201209042012090501320810192662       PES0000045000A088382012090411240041                                                
6024600045000122500132081019266200050000000                                                                                     
7PESE                                                                                000000000045000                            
50002910201209042012090501320713236329       PES0000045000A092052012090410210075                                                
6024600045000122510132071323632900050000042                                                                                     
7PESE                                                                                000000000045000                            
50003010201209042012090501321230994462       PES0000045000A091792012090413440291                                                
6024600045000122510132123099446200050000084                                                                                     
7PESE                                                                                000000000045000                            
50003110201209042012090501320135266242       PES0000045000A042812012090409210071                                                
6024600045000122530132013526624200050000036                                                                                     
7PESE                                                                                000000000045000                            
50003210201209042012090501320327627803       PES0000045000A015292012090413140125                                                
6024600045000122530132032762780300050000063                                                                                     
7PESE                                                                                000000000045000                            
50003310201209042012090501320327159937       PES0000045000A092062012090413360157                                                
6024600045000122540132032715993700050000078                                                                                     
7PESE                                                                                000000000045000                            
50003410201209042012090501320714240593       PES0000045000A601902012090409350004                                                
6024600045000122540132071424059300050000084                                                                                     
7PESE                                                                                000000000045000                            
50003510201209042012090501320617534022       PES0000045000A047422012090412210120                                                
6024600045000122550132061753402200050000042                                                                                     
7PESE                                                                                000000000045000                            
82012090500000100000350000011960000000000000000000000000000000000000000000035                                                   
9201209050000010000035000001196000000000000000000000000000000000000000000000035                                                 
