120110505PAGO FACIL               090060246FABIAN NORBERTO D´ERAMO                                                              
320110505000001FABIAN NORBERTO D´ERAMO                                                                                          
50000110201105042011050501272121073091       PES0000011000A080692011050418270145                                                
6024600011000111290127212107309100000000000                                                                                     
7PESE                                                                                000000000011000                            
50000210201105042011050518292623322377       PES0000015000A068912011050416510167                                                
6024600015000111271829262332237700040000021                                                                                     
7PESE                                                                                000000000015000                            
50000310201105042011050518290138045988       PES0000015000M620142011050416100060                                                
6024600015000111291829013804598800040000042                                                                                     
7PESE                                                                                000000000015000                            
50000410201105042011050518292814465016       PES0000015000A068912011050416520169                                                
6024600015000111311829281446501600040000021                                                                                     
7PESE                                                                                000000000015000                            
50000510201105042011050518292908348419       PES0000015000A068912011050416510168                                                
6024600015000111311829290834841900040000084                                                                                     
7PESE                                                                                000000000015000                            
50000610201105042011050501270711778709       PES0000020000A025822011050410480060                                                
6024600018000111200127071177870900020007699                                                                                     
7PESE                                                                                000000000020000                            
50000710201105042011050501271517141092       PES0000020000A025822011050410480061                                                
6024600018000111200127151714109200020007663                                                                                     
7PESE                                                                                000000000020000                            
50000810201105042011050599030331796687       PES0000021000A077332011050419090028                                                
6024600021000111309903033179668700000000100                                                                                     
7PESE                                                                                000000000021000                            
50000910201105042011050599030130780255       PES0000028000A028072011050419170034                                                
6024600028000111279903013078025500030000479                                                                                     
7PESE                                                                                000000000028000                            
50001010201105042011050599030133079742       PES0000028000A035802011050412240204                                                
6024600028000111279903013307974200030000390                                                                                     
7PESE                                                                                000000000028000                            
50001110201105042011050599030135376075       PES0000028000A051202011050416160044                                                
6024600028000111279903013537607500030000336                                                                                     
7PESE                                                                                000000000028000                            
50001210201105042011050599030136846689       PES0000028000M600472011050412210052                                                
6024600028000111279903013684668900030000490                                                                                     
7PESE                                                                                000000000028000                            
50001310201105042011050599030227340271       PES0000035000A071202011050410370108                                                
6024600035000111279903022734027100035000421                                                                                     
7PESE                                                                                000000000035000                            
50001410201105042011050599030231295856       PES0000035000M600672011050414090156                                                
6024600035000111279903023129585600035000442                                                                                     
7PESE                                                                                000000000035000                            
50001510201105042011050599030233259978       PES0000035000A089892011050413160097                                                
6024600035000111279903023325997800035000221                                                                                     
7PESE                                                                                000000000035000                            
50001610201105042011050599030234151454       PES0000035000M601522011050415230425                                                
6024600035000111279903023415145400035000358                                                                                     
7PESE                                                                                000000000035000                            
50001710201105042011050599030234515650       PES0000035000L120152011050418017137                                                
6024600035000111279903023451565000035000484                                                                                     
7PESE                                                                                000000000035000                            
82011050500000100000170000004190000000000000000000000000000000000000000000017                                                   
9201105050000010000017000000419000000000000000000000000000000000000000000000017                                                 
