120111006PAGO FACIL               090060246FABIAN NORBERTO D´ERAMO                                                              
320111006000001FABIAN NORBERTO D´ERAMO                                                                                          
50000110201110052011100600574742214533       PES0000007000A085232011100518010371                                                
6024600007000112850057474221453300015000063                                                                                     
7PESE                                                                                000000000007000                            
50000210201110052011100629060911133579       PES0000010000A025162011100512570165                                                
6024600010000112842906091113357900030000000                                                                                     
7PESE                                                                                000000000010000                            
50000310201110052011100629060726998713       PES0000010000A092152011100513320380                                                
6024600010000112852906072699871300030000057                                                                                     
7PESE                                                                                000000000010000                            
50000410201110052011100629060816139395       PES0000010000M601252011100513320162                                                
6024600010000112852906081613939500030000090                                                                                     
7PESE                                                                                000000000010000                            
50000510201110052011100600573442214533       PES0000020000A085232011100518370007                                                
6024600020000112850057344221453300020000084                                                                                     
7PESE                                                                                000000000020000                            
50000610201110052011100699040132421066       PES0000023500A020992011100513420128                                                
6024600023500112809904013242106600015000536                                                                                     
7PESE                                                                                000000000023500                            
50000710201110052011100600501526060895       PES0000027500A033992011100510420089                                                
6024600024500112730050152606089500030007500                                                                                     
7PESE                                                                                000000000027500                            
50000810201110052011100600502622294221       PES0000027500D000512011100521290230                                                
6024600024500112730050262229422100030007537                                                                                     
7PESE                                                                                000000000027500                            
50000910201110052011100600502814010256       PES0000027500A091152011100517360514                                                
6024600024500112730050281401025600030007679                                                                                     
7PESE                                                                                000000000027500                            
50001010201110052011100600504236259920       PES0000027500A087612011100518220058                                                
6024600027500112810050423625992000000000000                                                                                     
7PESE                                                                                000000000027500                            
50001110201110052011100600503817984377       PES0000027500A094382011100511180121                                                
6024600027500112830050381798437700000000084                                                                                     
7PESE                                                                                000000000027500                            
50001210201110052011100600504138522413       PES0000027500A091152011100513200238                                                
6024600027500112830050413852241300000000016                                                                                     
7PESE                                                                                000000000027500                            
50001310201110052011100600504517801813       PES0000027500A091152011100513200237                                                
6024600027500112830050451780181300000000042                                                                                     
7PESE                                                                                000000000027500                            
50001410201110052011100600500334858870       PES0000027500A601492011100512300130                                                
6024600027500112850050033485887000000000042                                                                                     
7PESE                                                                                000000000027500                            
50001510201110052011100600502235316840       PES0000027500A601492011100512310132                                                
6024600027500112850050223531684000000000000                                                                                     
7PESE                                                                                000000000027500                            
50001610201110052011100600502329134492       PES0000027500A081272011100510590074                                                
6024600027500112850050232913449200000000063                                                                                     
7PESE                                                                                000000000027500                            
50001710201110052011100600502332143846       PES0000027500A601492011100512310131                                                
6024600027500112850050233214384600000000084                                                                                     
7PESE                                                                                000000000027500                            
50001810201110052011100600502522956268       PES0000027500L070042011100515275566                                                
6024600027500112850050252295626800000000058                                                                                     
7PESE                                                                                000000000027500                            
50001910201110052011100600504332036554       PES0000027500A099812011100517230028                                                
6024600027500112850050433203655400000000000                                                                                     
7PESE                                                                                000000000027500                            
50002010201110052011100600532528350783       PES0000029000A069092011100517510144                                                
6024600029000112830053252835078300020000063                                                                                     
7PESE                                                                                000000000029000                            
50002110201110052011100699030216975364       PES0000035000A081572011100513050054                                                
6024600035000112809903021697536400035000379                                                                                     
7PESE                                                                                000000000035000                            
50002210201110052011100699030227340271       PES0000035000A063922011100511590060                                                
6024600035000112809903022734027100035000442                                                                                     
7PESE                                                                                000000000035000                            
50002310201110052011100699030228361121       PES0000035000A043162011100514400098                                                
6024600035000112809903022836112100035000458                                                                                     
7PESE                                                                                000000000035000                            
50002410201110052011100699030234142652       PES0000035000A090572011100512480251                                                
6024600035000112809903023414265200035000321                                                                                     
7PESE                                                                                000000000035000                            
50002510201110052011100699030237483073       PES0000035000A092012011100510140082                                                
6024600035000112809903023748307300035000590                                                                                     
7PESE                                                                                000000000035000                            
50002610201110052011100600530231601334       PES0000038500A011012011100510580179                                                
6024600038500112790053023160133400010000084                                                                                     
7PESE                                                                                000000000038500                            
50002710201110052011100600530230463588       PES0000038500A105632011100519230168                                                
6024600038500112820053023046358800010000015                                                                                     
7PESE                                                                                000000000038500                            
82011100600000100000270000007190000000000000000000000000000000000000000000027                                                   
9201110060000010000027000000719000000000000000000000000000000000000000000000027                                                 
