120121106PAGO FACIL               090060246FABIAN NORBERTO D´ERAMO                                                              
320121106000001FABIAN NORBERTO D´ERAMO                                                                                          
50000110201211052012110671001321790630       PES0000008000A119862012110511320077                                                
6024600008000123107100132179063000000000063                                                                                     
7PESE                                                                                000000000008000                            
50000210201211052012110669013441740881       PES0000017500L070082012110515347208                                                
6024600015000123066901344174088100025000799                                                                                     
7PESE                                                                                000000000017500                            
50000310201211052012110698010137212999       PES0000015000A052842012110518210151                                                
6024600015000123149801013721299900000000084                                                                                     
7PESE                                                                                000000000015000                            
50000410201211052012110698010133546529       PES0000015000A002542012110516520237                                                
6024600015000123179801013354652900000000015                                                                                     
7PESE                                                                                000000000015000                            
50000510201211052012110698010134667944       PES0000015000A052842012110520110315                                                
6024600015000123179801013466794400000000042                                                                                     
7PESE                                                                                000000000015000                            
50000610201211052012110600752330743821       PES0000024500A119862012110512020094                                                
6024600022500123050075233074382100020007421                                                                                     
7PESE                                                                                000000000024500                            
50000710201211052012110629081224251637       PES0000023000A056872012110509180130                                                
6024600023000123102908122425163700020000099                                                                                     
7PESE                                                                                000000000023000                            
50000810201211052012110629081725107595       PES0000023000A056872012110509190131                                                
6024600023000123102908172510759500020000021                                                                                     
7PESE                                                                                000000000023000                            
50000910201211052012110618410426553911       PES0000025000A010432012110511020006                                                
6024600025000123141841042655391100000000099                                                                                     
7PESE                                                                                000000000025000                            
50001010201211052012110618410524040963       PES0000025000M620412012110510530014                                                
6024600025000123141841052404096300000000042                                                                                     
7PESE                                                                                000000000025000                            
50001110201211052012110699040127340271       PES0000029000A085232012110514350076                                                
6024600029000123129904012734027100015000584                                                                                     
7PESE                                                                                000000000029000                            
50001210201211052012110699030131773438       PES0000043000A109712012110511070130                                                
6024600043000123129903013177343800035000158                                                                                     
7PESE                                                                                000000000043000                            
50001310201211052012110699030134556684       PES0000043000A085922012110516350042                                                
6024600043000123129903013455668400035000521                                                                                     
7PESE                                                                                000000000043000                            
50001410201211052012110601330617036104       PES0000052000A057012012110513230015                                                
6024600052000123100133061703610400080000084                                                                                     
7PESE                                                                                000000000052000                            
50001510201211052012110601331326553911       PES0000052000A010432012110511020007                                                
6024600052000123100133132655391100080000037                                                                                     
7PESE                                                                                000000000052000                            
50001610201211052012110601331423474867       PES0000052000A010432012110511020008                                                
6024600052000123100133142347486700080000079                                                                                     
7PESE                                                                                000000000052000                            
50001710201211052012110601331522548100       PES0000052000A064992012110516000143                                                
6024600052000123100133152254810000080000058                                                                                     
7PESE                                                                                000000000052000                            
50001810201211052012110601331523091022       PES0000052000A620562012110514460196                                                
6024600052000123100133152309102200080000042                                                                                     
7PESE                                                                                000000000052000                            
50001910201211052012110601331617338899       PES0000052000D001142012110510480060                                                
6024600052000123100133161733889900080000099                                                                                     
7PESE                                                                                000000000052000                            
50002010201211052012110601331617409222       PES0000052000M620032012110512040137                                                
6024600052000123100133161740922200080000016                                                                                     
7PESE                                                                                000000000052000                            
50002110201211052012110601331811297702       PES0000052000A092142012110514060449                                                
6024600052000123100133181129770200080000016                                                                                     
7PESE                                                                                000000000052000                            
50002210201211052012110601331520105007       PES0000052000D001132012110509150026                                                
6024600052000123110133152010500700080000079                                                                                     
7PESE                                                                                000000000052000                            
50002310201211052012110601331812729428       PES0000052000M620092012110514360228                                                
6024600052000123110133181272942800080000021                                                                                     
7PESE                                                                                000000000052000                            
50002410201211052012110601331232657148       PES0000052000A059362012110512130284                                                
6024600052000123130133123265714800080000016                                                                                     
7PESE                                                                                000000000052000                            
50002510201211052012110601331327491406       PES0000052000A059362012110516060086                                                
6024600052000123140133132749140600080000063                                                                                     
7PESE                                                                                000000000052000                            
50002610201211052012110601331328012547       PES0000052000A014732012110510260073                                                
6024600052000123140133132801254700080000015                                                                                     
7PESE                                                                                000000000052000                            
50002710201211052012110601331812290660       PES0000052000A088622012110519000702                                                
6024600052000123140133181229066000080000099                                                                                     
7PESE                                                                                000000000052000                            
50002810201211052012110601330231252420       PES0000052000A088612012110520000732                                                
6024600052000123170133023125242000080000000                                                                                     
7PESE                                                                                000000000052000                            
50002910201211052012110601331424364614       PES0000052000A084482012110511160154                                                
6024600052000123170133142436461400080000058                                                                                     
7PESE                                                                                000000000052000                            
50003010201211052012110601331523129377       PES0000052000A028072012110513340219                                                
6024600052000123170133152312937700080000015                                                                                     
7PESE                                                                                000000000052000                            
50003110201211052012110601331523299272       PES0000052000D000492012110519210215                                                
6024600052000123170133152329927200080000036                                                                                     
7PESE                                                                                000000000052000                            
82012110600000100000310000012420000000000000000000000000000000000000000000031                                                   
9201211060000010000031000001242000000000000000000000000000000000000000000000031                                                 
