120111206PAGO FACIL               090060246FABIAN NORBERTO D´ERAMO                                                              
320111206000001FABIAN NORBERTO D´ERAMO                                                                                          
50000110201112052011120699030229118464       PES0000035000A042822011120309410007                                                
6024600035000113419903022911846400035000221                                                                                     
7PESE                                                                                000000000035000                            
50000210201112052011120600584704977012       PES0000008500A044382011120519070261                                                
6024600008500113440058470497701200000000000                                                                                     
7PESE                                                                                000000000008500                            
50000310201112052011120629060316299285       PES0000013000A621032011120511430089                                                
6024600013000113452906031629928500000000021                                                                                     
7PESE                                                                                000000000013000                            
50000410201112052011120618350330224909       PES0000020000A056902011120515350007                                                
6024600020000113401835033022490900000000063                                                                                     
7PESE                                                                                000000000020000                            
50000510201112052011120618350621138136       PES0000020000A107952011120511580211                                                
6024600020000113401835062113813600000000000                                                                                     
7PESE                                                                                000000000020000                            
50000610201112052011120648021124052492       PES0000020000A042202011120508550021                                                
6024600020000113404802112405249200000000084                                                                                     
7PESE                                                                                000000000020000                            
50000710201112052011120618350137245882       PES0000020000A078112011120518510240                                                
6024600020000113411835013724588200000000058                                                                                     
7PESE                                                                                000000000020000                            
50000810201112052011120618350329681341       PES0000020000A095282011120513330237                                                
6024600020000113411835032968134100000000078                                                                                     
7PESE                                                                                000000000020000                            
50000910201112052011120618350332036311       PES0000020000L120242011120513590389                                                
6024600020000113411835033203631100000000000                                                                                     
7PESE                                                                                000000000020000                            
50001010201112052011120618350426243637       PES0000020000A085382011120509540042                                                
6024600020000113411835042624363700000000042                                                                                     
7PESE                                                                                000000000020000                            
50001110201112052011120618350429033473       PES0000020000A095862011120519180097                                                
6024600020000113411835042903347300000000099                                                                                     
7PESE                                                                                000000000020000                            
50001210201112052011120618350522808796       PES0000020000M600102011120512240134                                                
6024600020000113411835052280879600000000063                                                                                     
7PESE                                                                                000000000020000                            
50001310201112052011120618350522840735       PES0000020000A104702011120518380223                                                
6024600020000113411835052284073500000000063                                                                                     
7PESE                                                                                000000000020000                            
50001410201112052011120618350523329287       PES0000020000A051342011120514150361                                                
6024600020000113411835052332928700000000000                                                                                     
7PESE                                                                                000000000020000                            
50001510201112052011120618350523515659       PES0000020000A092042011120510160044                                                
6024600020000113411835052351565900000000057                                                                                     
7PESE                                                                                000000000020000                            
50001610201112052011120618350523787418       PES0000020000A032732011120510290097                                                
6024600020000113411835052378741800000000057                                                                                     
7PESE                                                                                000000000020000                            
50001710201112052011120618350524364614       PES0000020000A072152011120512190222                                                
6024600020000113411835052436461400000000078                                                                                     
7PESE                                                                                000000000020000                            
50001810201112052011120699030237483073       PES0000035000A092052011120511450188                                                
6024600035000113419903023748307300035000184                                                                                     
7PESE                                                                                000000000035000                            
50001910201112052011120623060417796153       PES0000076800E070612011120507226061                                                
6024600076800113422306041779615300192000015                                                                                     
7PESE                                                                                000000000076800                            
50002010201112052011120623060833995746       PES0000076800A097452011120512210147                                                
6024600076800113422306083399574600192000021                                                                                     
7PESE                                                                                000000000076800                            
50002110201112052011120623060238759642       PES0000076800A083172011120512100288                                                
6024600076800113442306023875964200192000058                                                                                     
7PESE                                                                                000000000076800                            
50002210201112052011120623060420965020       PES0000076800A085192011120515120175                                                
6024600076800113442306042096502000192000079                                                                                     
7PESE                                                                                000000000076800                            
50002310201112052011120623061327739235       PES0000085400A088692011120510010040                                                
6024600085400113402306132773923500234000036                                                                                     
7PESE                                                                                000000000085400                            
50002410201112052011120623061325554789       PES0000085400A018802011120516270030                                                
6024600085400113412306132555478900234000036                                                                                     
7PESE                                                                                000000000085400                            
50002510201112052011120623061233459786       PES0000085400A110952011120518000035                                                
6024600085400113422306123345978600234000084                                                                                     
7PESE                                                                                000000000085400                            
50002610201112052011120623061838370291       PES0000085400A600802011120511570044                                                
6024600085400113422306183837029100234000042                                                                                     
7PESE                                                                                000000000085400                            
50002710201112052011120623061726062894       PES0000085400A107402011120511320072                                                
6024600085400113462306172606289400234000016                                                                                     
7PESE                                                                                000000000085400                            
82011120600000100000270000011057000000000000000000000000000000000000000000027                                                   
9201112060000010000027000001105700000000000000000000000000000000000000000000027                                                 
