120130206PAGO FACIL               090060246FABIAN NORBERTO D´ERAMO                                                              
320130206000001FABIAN NORBERTO D´ERAMO                                                                                          
50000110201302052013020602430716261074       PES0000040000A119752013020417160242                                                
6024600040000130350243071626107400075000079                                                                                     
7PESE                                                                                000000000040000                            
50000210201302052013020629091321946673       PES0000025000A116742013020413230016                                                
6024600025000130382909132194667300000000057                                                                                     
7PESE                                                                                000000000025000                            
50000310201302052013020688880000000100       PES0000003000A055682013020511120092                                                
6024600003000130398888000000010000000000084                                                                                     
7PESE                                                                                000000000003000                            
50000410201302052013020673010630762789       PES0000014000A032972013020517030111                                                
6024600012000130357301063076278900020000137                                                                                     
7PESE                                                                                000000000014000                            
50000510201302052013020673010631901712       PES0000014000A105312013020510420016                                                
6024600012000130357301063190171200020000457                                                                                     
7PESE                                                                                000000000014000                            
50000610201302052013020673010632920338       PES0000014000A087252013020518110143                                                
6024600012000130357301063292033800020000415                                                                                     
7PESE                                                                                000000000014000                            
50000710201302052013020673010729220756       PES0000014000A119512013020512560153                                                
6024600012000130357301072922075600020000478                                                                                     
7PESE                                                                                000000000014000                            
50000810201302052013020673010824321450       PES0000014000A119512013020512560152                                                
6024600012000130357301082432145000020000437                                                                                     
7PESE                                                                                000000000014000                            
50000910201302052013020673010826314236       PES0000014000A114992013020511570165                                                
6024600012000130357301082631423600020000437                                                                                     
7PESE                                                                                000000000014000                            
50001010201302052013020673011425565237       PES0000012000A058882013020520110318                                                
6024600012000130397301142556523700000000015                                                                                     
7PESE                                                                                000000000012000                            
50001110201302052013020673011432314074       PES0000012000A105032013020520150242                                                
6024600012000130397301143231407400000000016                                                                                     
7PESE                                                                                000000000012000                            
50001210201302052013020673011494127739       PES0000012000A105032013020520150241                                                
6024600012000130397301149412773900000000090                                                                                     
7PESE                                                                                000000000012000                            
50001310201302052013020673010326575509       PES0000014000A110742013020513560002                                                
6024600014000130397301032657550900000000078                                                                                     
7PESE                                                                                000000000014000                            
50001410201302052013020673010633893231       PES0000014000A063372013020518210357                                                
6024600014000130397301063389323100000000084                                                                                     
7PESE                                                                                000000000014000                            
50001510201302052013020673010727652951       PES0000014000A107602013020518200153                                                
6024600014000130397301072765295100000000036                                                                                     
7PESE                                                                                000000000014000                            
50001610201302052013020673010825018205       PES0000014000A114002013020514160024                                                
6024600014000130397301082501820500000000090                                                                                     
7PESE                                                                                000000000014000                            
50001710201302052013020659020130531670       PES0000014000A104632013020511270012                                                
6024600014000130425902013053167000000000058                                                                                     
7PESE                                                                                000000000014000                            
50001810201302052013020659021224618610       PES0000014000A620972013020510170010                                                
6024600014000130425902122461861000000000063                                                                                     
7PESE                                                                                000000000014000                            
50001910201302052013020629090225312375       PES0000015000A075232013020519050186                                                
6024600015000130362909022531237500000000079                                                                                     
7PESE                                                                                000000000015000                            
50002010201302052013020629090728983762       PES0000015000D000682013020516430240                                                
6024600015000130362909072898376200000000021                                                                                     
7PESE                                                                                000000000015000                            
50002110201302052013020629090223405291       PES0000015000A105812013020509490054                                                
6024600015000130382909022340529100000000058                                                                                     
7PESE                                                                                000000000015000                            
50002210201302052013020629090224687835       PES0000015000A075362013020515520013                                                
6024600015000130382909022468783500000000084                                                                                     
7PESE                                                                                000000000015000                            
50002310201302052013020629090225667588       PES0000015000A073592013020515030141                                                
6024600015000130382909022566758800000000099                                                                                     
7PESE                                                                                000000000015000                            
50002410201302052013020629090227288052       PES0000015000A057612013020515120038                                                
6024600015000130382909022728805200000000084                                                                                     
7PESE                                                                                000000000015000                            
50002510201302052013020629090322110669       PES0000015000A085792013020510200035                                                
6024600015000130382909032211066900000000079                                                                                     
7PESE                                                                                000000000015000                            
50002610201302052013020629090637357510       PES0000015000A620652013020511340173                                                
6024600015000130382909063735751000000000042                                                                                     
7PESE                                                                                000000000015000                            
50002710201302052013020629090822890292       PES0000015000A087612013020517290023                                                
6024600015000130382909082289029200000000090                                                                                     
7PESE                                                                                000000000015000                            
50002810201302052013020600782525708290       PES0000022500A087612013020509340114                                                
6024600022500130420078252570829000020000015                                                                                     
7PESE                                                                                000000000022500                            
50002910201302052013020629091133692712       PES0000025000A108132013020518040188                                                
6024600025000130382909113369271200000000090                                                                                     
7PESE                                                                                000000000025000                            
50003010201302052013020602432338947783       PES0000030000A047382013020514490001                                                
6024600030000130360243233894778300050000021                                                                                     
7PESE                                                                                000000000030000                            
50003110201302052013020602432528390920       PES0000030000L070012013020519573491                                                
6024600030000130360243252839092000050000790                                                                                     
7PESE                                                                                000000000030000                            
50003210201302052013020602432528794483       PES0000030000L071192013020519362501                                                
6024600030000130360243252879448300050000737                                                                                     
7PESE                                                                                000000000030000                            
50003310201302052013020602433139336080       PES0000030000A068912013020513340378                                                
6024600030000130360243313933608000050000121                                                                                     
7PESE                                                                                000000000030000                            
50003410201302052013020602433327563241       PES0000030000A117342013020518170393                                                
6024600030000130360243332756324100050000716                                                                                     
7PESE                                                                                000000000030000                            
50003510201302052013020602433422591477       PES0000030000A095852013020514460225                                                
6024600030000130360243342259147700050000363                                                                                     
7PESE                                                                                000000000030000                            
50003610201302052013020602433424150407       PES0000030000A017122013020511530229                                                
6024600030000130360243342415040700050000790                                                                                     
7PESE                                                                                000000000030000                            
50003710201302052013020602433425097818       PES0000030000A055272013020518570267                                                
6024600030000130360243342509781800050000658                                                                                     
7PESE                                                                                000000000030000                            
50003810201302052013020602433506272265       PES0000030000A089832013020517300042                                                
6024600030000130360243350627226500050000721                                                                                     
7PESE                                                                                000000000030000                            
50003910201302052013020602430231303579       PES0000040000A047372013020515340228                                                
6024600040000130360243023130357900075000778                                                                                     
7PESE                                                                                000000000040000                            
50004010201302052013020602430233828381       PES0000040000L070092013020519237335                                                
6024600040000130360243023382838100075000784                                                                                     
7PESE                                                                                000000000040000                            
50004110201302052013020602430424589419       PES0000040000A092542013020512380355                                                
6024600040000130360243042458941900075000384                                                                                     
7PESE                                                                                000000000040000                            
50004210201302052013020602430426401820       PES0000040000A117912013020513170058                                                
6024600040000130360243042640182000075000658                                                                                     
7PESE                                                                                000000000040000                            
50004310201302052013020602430426487394       PES0000040000A081582013020512320188                                                
6024600040000130360243042648739400075000178                                                                                     
7PESE                                                                                000000000040000                            
50004410201302052013020602430522171919       PES0000040000A119762013020513590143                                                
6024600040000130360243052217191900075000115                                                                                     
7PESE                                                                                000000000040000                            
50004510201302052013020602430522840735       PES0000040000A116982013020518300005                                                
6024600040000130360243052284073500075000758                                                                                     
7PESE                                                                                000000000040000                            
50004610201302052013020602430522885812       PES0000040000A057612013020516440124                                                
6024600040000130360243052288581200075000637                                                                                     
7PESE                                                                                000000000040000                            
50004710201302052013020602430617178642       PES0000040000A041372013020514130296                                                
6024600040000130360243061717864200075000716                                                                                     
7PESE                                                                                000000000040000                            
50004810201302052013020602430618097429       PES0000040000A095462013020519130043                                                
6024600040000130360243061809742900075000415                                                                                     
7PESE                                                                                000000000040000                            
50004910201302052013020602430618363681       PES0000040000A076112013020519530306                                                
6024600040000130360243061836368100075000084                                                                                     
7PESE                                                                                000000000040000                            
50005010201302052013020602430716134339       PES0000040000A097872013020512500079                                                
6024600040000130360243071613433900075000642                                                                                     
7PESE                                                                                000000000040000                            
50005110201302052013020602431424167224       PES0000040000A076112013020519530307                                                
6024600040000130360243142416722400075000016                                                                                     
7PESE                                                                                000000000040000                            
50005210201302052013020602433724851288       PES0000040000A602102013020510010016                                                
6024600040000130360243372485128800075000257                                                                                     
7PESE                                                                                000000000040000                            
50005310201302052013020602433821552507       PES0000040000A601912013020510180021                                                
6024600040000130360243382155250700075000057                                                                                     
7PESE                                                                                000000000040000                            
50005410201302052013020699030137247863       PES0000040375A019812013020518410024                                                
6024600040375130389903013724786300030500242                                                                                     
7PESE                                                                                000000000040375                            
50005510201302052013020699030129921135       PES0000047500A085182013020512310199                                                
6024600047500130379903012992113500035000063                                                                                     
7PESE                                                                                000000000047500                            
50005610201302052013020699030134929847       PES0000047500A118502013020515310438                                                
6024600047500130389903013492984700035000416                                                                                     
7PESE                                                                                000000000047500                            
50005710201302052013020699030138066579       PES0000047500A092562013020513230140                                                
6024600047500130389903013806657900035000557                                                                                     
7PESE                                                                                000000000047500                            
50005810201302052013020601341520364142       PES0000135000D000132013020515180270                                                
6024600135000130360134152036414200150000015                                                                                     
7PESE                                                                                000000000135000                            
50005910201302052013020601341520616069       PES0000135000A083992013020512340150                                                
6024600135000130370134152061606900150000000                                                                                     
7PESE                                                                                000000000135000                            
50006010201302052013020601341714651937       PES0000135000A075432013020509420095                                                
6024600135000130370134171465193700150000037                                                                                     
7PESE                                                                                000000000135000                            
50006110201302052013020601341329948809       PES0000135000L071142013020510474201                                                
6024600135000130390134132994880900150000015                                                                                     
7PESE                                                                                000000000135000                            
50006210201302052013020601341424331688       PES0000135000L070312013020519122756                                                
6024600135000130390134142433168800150000058                                                                                     
7PESE                                                                                000000000135000                            
50006310201302052013020601341910777768       PES0000135000A012612013020518020130                                                
6024600135000130400134191077776800150000084                                                                                     
7PESE                                                                                000000000135000                            
50006410201302052013020601341425062922       PES0000135000A056632013020512300026                                                
6024600135000130410134142506292200150000200                                                                                     
7PESE                                                                                000000000135000                            
50006510201302052013020601341618274712       PES0000135000A064052013020511070106                                                
6024600135000130410134161827471200150000142                                                                                     
7PESE                                                                                000000000135000                            
82013020600000100000650000025873750000000000000000000000000000000000000000065                                                   
9201302060000010000065000002587375000000000000000000000000000000000000000000065                                                 
