120120106PAGO FACIL               090060246FABIAN NORBERTO D´ERAMO                                                              
320120106000001FABIAN NORBERTO D´ERAMO                                                                                          
50000110201201052012010600611430468006       PES0000014000A007492012010509230022                                                
6024600014000120050061143046800600000000078                                                                                     
7PESE                                                                                000000000014000                            
50000210201201052012010600612618108182       PES0000014000A077792012010509360006                                                
6024600014000120050061261810818200000000090                                                                                     
7PESE                                                                                000000000014000                            
50000310201201052012010600612814767376       PES0000014000A107952012010513400336                                                
6024600014000120050061281476737600000000042                                                                                     
7PESE                                                                                000000000014000                            
50000410201201052012010602322824872827       PES0000015000A092042012010512350074                                                
6024600015000120100232282487282700050000263                                                                                     
7PESE                                                                                000000000015000                            
50000510201201052012010600600325914780       PES0000019000A620302012010511080069                                                
6024600019000120050060032591478000060000042                                                                                     
7PESE                                                                                000000000019000                            
50000610201201052012010618360233740393       PES0000020000A088162012010518590234                                                
6024600020000120051836023374039300000000042                                                                                     
7PESE                                                                                000000000020000                            
50000710201201052012010618360234512687       PES0000020000A016962012010517450268                                                
6024600020000120051836023451268700000000078                                                                                     
7PESE                                                                                000000000020000                            
50000810201201052012010618360331601334       PES0000020000A080382012010518500217                                                
6024600020000120051836033160133400000000036                                                                                     
7PESE                                                                                000000000020000                            
50000910201201052012010618360620586087       PES0000020000A012652012010513560117                                                
6024600020000120051836062058608700000000000                                                                                     
7PESE                                                                                000000000020000                            
50001010201201052012010618360814339563       PES0000020000L120102012010519415673                                                
6024600020000120051836081433956300000000042                                                                                     
7PESE                                                                                000000000020000                            
50001110201201052012010618361333118797       PES0000020000A104232012010514350206                                                
6024600020000120051836133311879700000000079                                                                                     
7PESE                                                                                000000000020000                            
50001210201201052012010618362720987379       PES0000020000A091432012010518150040                                                
6024600020000120051836272098737900000000021                                                                                     
7PESE                                                                                000000000020000                            
50001310201201052012010602320234583532       PES0000025000A072002012010514060371                                                
6024600025000120100232023458353200030000137                                                                                     
7PESE                                                                                000000000025000                            
50001410201201052012010602320427028990       PES0000025000A107892012010511390081                                                
6024600025000120100232042702899000030000021                                                                                     
7PESE                                                                                000000000025000                            
50001510201201052012010602320620702367       PES0000025000A105252012010509190062                                                
6024600025000120100232062070236700030000063                                                                                     
7PESE                                                                                000000000025000                            
50001610201201052012010699030234222869       PES0000037000A071022012010517230222                                                
6024600037000120079903023422286900035000536                                                                                     
7PESE                                                                                000000000037000                            
50001710201201052012010699030234515650       PES0000037000A084942012010518590025                                                
6024600037000120079903023451565000035000521                                                                                     
7PESE                                                                                000000000037000                            
50001810201201052012010699030234722750       PES0000037000A094932012010517130066                                                
6024600037000120079903023472275000035000521                                                                                     
7PESE                                                                                000000000037000                            
50001910201201052012010699030235367974       PES0000037000A099242012010511310175                                                
6024600037000120079903023536797400035000500                                                                                     
7PESE                                                                                000000000037000                            
50002010201201052012010699030236090671       PES0000037000A102852012010516440110                                                
6024600037000120079903023609067100035000521                                                                                     
7PESE                                                                                000000000037000                            
50002110201201052012010623060824176059       PES0000108800M600912012010510350001                                                
6024600108800120112306082417605900128000078                                                                                     
7PESE                                                                                000000000108800                            
50002210201201052012010623061326346173       PES0000121600A092352012010519410236                                                
6024600121600120052306132634617300150000090                                                                                     
7PESE                                                                                000000000121600                            
50002310201201052012010623061232938810       PES0000121600A065082012010508300054                                                
6024600121600120062306123293881000150000058                                                                                     
7PESE                                                                                000000000121600                            
50002410201201052012010623061423908774       PES0000121600L070662012010510191405                                                
6024600121600120062306142390877400150000084                                                                                     
7PESE                                                                                000000000121600                            
50002510201201052012010623061926639665       PES0000121600A085662012010515220203                                                
6024600121600120062306192663966500150000079                                                                                     
7PESE                                                                                000000000121600                            
50002610201201052012010623061236501491       PES0000121600A052182012010512370002                                                
6024600121600120072306123650149100150000063                                                                                     
7PESE                                                                                000000000121600                            
50002710201201052012010623061326687040       PES0000121600A086342012010512230072                                                
6024600121600120072306132668704000150000000                                                                                     
7PESE                                                                                000000000121600                            
50002810201201052012010623061613300583       PES0000121600A052182012010511590050                                                
6024600121600120072306161330058300150000079                                                                                     
7PESE                                                                                000000000121600                            
50002910201201052012010623061925898698       PES0000121600A620562012010513240144                                                
6024600121600120102306192589869800150000063                                                                                     
7PESE                                                                                000000000121600                            
50003010201201052012010623061325703298       PES0000121600A602062012010510000102                                                
6024600121600120112306132570329800150000063                                                                                     
7PESE                                                                                000000000121600                            
50003110201201052012010623061332030940       PES0000121600A041372012010515040285                                                
6024600121600120112306133203094000150000063                                                                                     
7PESE                                                                                000000000121600                            
50003210201201052012010623061836914554       PES0000121600A018912012010517250070                                                
6024600121600120112306183691455400150000036                                                                                     
7PESE                                                                                000000000121600                            
50003310201201052012010623061839338799       PES0000121600A018912012010517250069                                                
6024600121600120112306183933879900150000042                                                                                     
7PESE                                                                                000000000121600                            
50003410201201052012010623061324505578       PES0000121600A044742012010517130003                                                
6024600121600120122306132450557800150000000                                                                                     
7PESE                                                                                000000000121600                            
82012010600000100000340000021656000000000000000000000000000000000000000000034                                                   
9201201060000010000034000002165600000000000000000000000000000000000000000000034                                                 
