120120307PAGO FACIL               090060246FABIAN NORBERTO D´ERAMO                                                              
320120307000001FABIAN NORBERTO D´ERAMO                                                                                          
50000110201203062012030700684743573286       PES0000008500A099622012030611060112                                                
6024600008500120680068474357328600000000016                                                                                     
7PESE                                                                                000000000008500                            
50000210201203062012030702332539097297       PES0000015000A034222012030611550269                                                
6024600015000120670233253909729700050000663                                                                                     
7PESE                                                                                000000000015000                            
50000310201203062012030702332631009581       PES0000015000B030862012030610064013                                                
6024600015000120670233263100958100050000500                                                                                     
7PESE                                                                                000000000015000                            
50000410201203062012030702332726997975       PES0000015000B030862012030610064015                                                
6024600015000120670233272699797500050000579                                                                                     
7PESE                                                                                000000000015000                            
50000510201203062012030702332823091750       PES0000015000B030862012030610064014                                                
6024600015000120670233282309175000050000579                                                                                     
7PESE                                                                                000000000015000                            
50000610201203062012030702333113140445       PES0000015000A085922012030618170124                                                
6024600015000120670233311314044500050000515                                                                                     
7PESE                                                                                000000000015000                            
50000710201203062012030702333326477942       PES0000015000A093952012030615460081                                                
6024600015000120670233332647794200050000542                                                                                     
7PESE                                                                                000000000015000                            
50000810201203062012030702333329460615       PES0000015000A042812012030612280135                                                
6024600015000120670233332946061500050000642                                                                                     
7PESE                                                                                000000000015000                            
50000910201203062012030700692235216456       PES0000020000A111422012030607420019                                                
6024600020000120680069223521645600020000000                                                                                     
7PESE                                                                                000000000020000                            
50001010201203062012030718380329392419       PES0000020000A069702012030611120013                                                
6024600020000120681838032939241900000000042                                                                                     
7PESE                                                                                000000000020000                            
50001110201203062012030718380716602152       PES0000020000A033772012030610030084                                                
6024600020000120681838071660215200000000042                                                                                     
7PESE                                                                                000000000020000                            
50001210201203062012030700692620203179       PES0000020000A075362012030614290103                                                
6024600020000120690069262020317900020000021                                                                                     
7PESE                                                                                000000000020000                            
50001310201203062012030700681817652349       PES0000023000A040722012030611470033                                                
6024600023000120680068181765234900000000036                                                                                     
7PESE                                                                                000000000023000                            
50001410201203062012030700682235380470       PES0000023000D000302012030615590253                                                
6024600023000120680068223538047000000000000                                                                                     
7PESE                                                                                000000000023000                            
50001510201203062012030700683536832435       PES0000023000A099522012030615440040                                                
6024600023000120680068353683243500000000021                                                                                     
7PESE                                                                                000000000023000                            
50001610201203062012030702330330289152       PES0000025000A079692012030621440602                                                
6024600025000120670233033028915200030000600                                                                                     
7PESE                                                                                000000000025000                            
50001710201203062012030702330428505764       PES0000025000A602252012030611430071                                                
6024600025000120670233042850576400030000690                                                                                     
7PESE                                                                                000000000025000                            
50001810201203062012030702330522808796       PES0000025000A107532012030614540063                                                
6024600025000120670233052280879600030000563                                                                                     
7PESE                                                                                000000000025000                            
50001910201203062012030702330621433416       PES0000025000A070642012030608540027                                                
6024600025000120670233062143341600030000521                                                                                     
7PESE                                                                                000000000025000                            
50002010201203062012030702330717821745       PES0000025000A102072012030618150135                                                
6024600025000120670233071782174500030000478                                                                                     
7PESE                                                                                000000000025000                            
50002110201203062012030702330811607668       PES0000025000A047502012030613550027                                                
6024600025000120670233081160766800030000684                                                                                     
7PESE                                                                                000000000025000                            
50002210201203062012030702330814105969       PES0000025000A620572012030609550041                                                
6024600025000120670233081410596900030000500                                                                                     
7PESE                                                                                000000000025000                            
50002310201203062012030702330814431708       PES0000025000A092032012030610580129                                                
6024600025000120670233081443170800030000579                                                                                     
7PESE                                                                                000000000025000                            
50002410201203062012030702331427500011       PES0000025000A017262012030611020104                                                
6024600025000120670233142750001100030000599                                                                                     
7PESE                                                                                000000000025000                            
50002510201203062012030799030216975364       PES0000037000A091592012030609520036                                                
6024600037000120679903021697536400035000415                                                                                     
7PESE                                                                                000000000037000                            
50002610201203062012030799030225909375       PES0000037000A084182012030616250028                                                
6024600037000120679903022590937500035000679                                                                                     
7PESE                                                                                000000000037000                            
50002710201203062012030799030227925597       PES0000037000A074212012030616460099                                                
6024600037000120679903022792559700035000642                                                                                     
7PESE                                                                                000000000037000                            
50002810201203062012030799030228324126       PES0000037000D000492012030615030335                                                
6024600037000120679903022832412600035000658                                                                                     
7PESE                                                                                000000000037000                            
50002910201203062012030799030235216759       PES0000037000A112032012030616580022                                                
6024600037000120679903023521675900035000679                                                                                     
7PESE                                                                                000000000037000                            
50003010201203062012030799030236399286       PES0000037000A072612012030613520222                                                
6024600037000120679903023639928600035000684                                                                                     
7PESE                                                                                000000000037000                            
50003110201203062012030799030237483073       PES0000037000A092062012030612010216                                                
6024600037000120679903023748307300035000636                                                                                     
7PESE                                                                                000000000037000                            
82012030700000100000310000007465000000000000000000000000000000000000000000031                                                   
9201203070000010000031000000746500000000000000000000000000000000000000000000031                                                 
