120110707PAGO FACIL               090060246FABIAN NORBERTO D´ERAMO                                                              
320110707000001FABIAN NORBERTO D´ERAMO                                                                                          
50000110201107062011070799020132507294       PES0000015000A091672011070616100037                                                
6024600015000111889902013250729400000000657                                                                                     
7PESE                                                                                000000000015000                            
50000210201107062011070717021320190628       PES0000016000M640012011070612190044                                                
6024600016000111871702132019062800040000000                                                                                     
7PESE                                                                                000000000016000                            
50000310201107062011070799040132421066       PES0000023500M601612011070612400112                                                
6024600023500111889904013242106600015000600                                                                                     
7PESE                                                                                000000000023500                            
50000410201107062011070799040132507294       PES0000023500A091672011070616110038                                                
6024600023500111889904013250729400015000663                                                                                     
7PESE                                                                                000000000023500                            
50000510201107062011070799030227340271       PES0000035000A063922011070617430081                                                
6024600035000111889903022734027100035000657                                                                                     
7PESE                                                                                000000000035000                            
50000610201107062011070799030230590893       PES0000035000D001412011070617360246                                                
6024600035000111889903023059089300035000679                                                                                     
7PESE                                                                                000000000035000                            
50000710201107062011070799030231295856       PES0000035000M600672011070613350125                                                
6024600035000111889903023129585600035000536                                                                                     
7PESE                                                                                000000000035000                            
50000810201107062011070799030233897409       PES0000035000A045482011070615350173                                                
6024600035000111889903023389740900035000637                                                                                     
7PESE                                                                                000000000035000                            
50000910201107062011070799030235216759       PES0000035000A042822011070616460032                                                
6024600035000111889903023521675900035000442                                                                                     
7PESE                                                                                000000000035000                            
50001010201107062011070799030235398990       PES0000035000D000242011070615010157                                                
6024600035000111889903023539899000035000621                                                                                     
7PESE                                                                                000000000035000                            
50001110201107062011070799030236529254       PES0000035000A091482011070612100205                                                
6024600035000111889903023652925400035000415                                                                                     
7PESE                                                                                000000000035000                            
50001210201107062011070799030236943330       PES0000035000A099762011070616040001                                                
6024600035000111889903023694333000035000563                                                                                     
7PESE                                                                                000000000035000                            
50001310201107062011070799030237040715       PES0000035000A042822011070611240141                                                
6024600035000111889903023704071500035000400                                                                                     
7PESE                                                                                000000000035000                            
50001410201107062011070799030237376363       PES0000035000A086842011070619200134                                                
6024600035000111889903023737636300035000484                                                                                     
7PESE                                                                                000000000035000                            
82011070700000100000140000004280000000000000000000000000000000000000000000014                                                   
9201107070000010000014000000428000000000000000000000000000000000000000000000014                                                 
