120121107PAGO FACIL               090060246FABIAN NORBERTO D´ERAMO                                                              
320121107000001FABIAN NORBERTO D´ERAMO                                                                                          
50000110201211062012110752010620129299       PES0000011000A058062012110616320143                                                
6024600011000123135201062012929900000000063                                                                                     
7PESE                                                                                000000000011000                            
50000210201211062012110798010128986069       PES0000015000L070522012110610428993                                                
6024600015000123069801012898606900000000599                                                                                     
7PESE                                                                                000000000015000                            
50000310201211062012110729080411615545       PES0000015000A111272012110616430058                                                
6024600015000123132908041161554500030000099                                                                                     
7PESE                                                                                000000000015000                            
50000410201211062012110729080632888098       PES0000015000M770002012110616130273                                                
6024600015000123152908063288809800030000084                                                                                     
7PESE                                                                                000000000015000                            
50000510201211062012110798010120184600       PES0000015000A052842012110609410095                                                
6024600015000123169801012018460000000000058                                                                                     
7PESE                                                                                000000000015000                            
50000610201211062012110798010130623386       PES0000015000A052842012110620000253                                                
6024600015000123179801013062338600000000063                                                                                     
7PESE                                                                                000000000015000                            
50000710201211062012110798010131435183       PES0000015000A098762012110612570114                                                
6024600015000123179801013143518300000000000                                                                                     
7PESE                                                                                000000000015000                            
50000810201211062012110769010925744381       PES0000017500A602242012110611060125                                                
6024600017500123176901092574438100025000090                                                                                     
7PESE                                                                                000000000017500                            
50000910201211062012110772000225279506       PES0000020000A038422012110611030112                                                
6024600020000123177200022527950600000000000                                                                                     
7PESE                                                                                000000000020000                            
50001010201211062012110729081728694831       PES0000023000M600082012110615440139                                                
6024600023000123182908172869483100020000063                                                                                     
7PESE                                                                                000000000023000                            
50001110201211062012110700752236807158       PES0000024500M600552012110612330172                                                
6024600024500123140075223680715800000000042                                                                                     
7PESE                                                                                000000000024500                            
50001210201211062012110700752592731269       PES0000024500A051222012110615450122                                                
6024600024500123170075259273126900000000016                                                                                     
7PESE                                                                                000000000024500                            
50001310201211062012110799040130663025       PES0000029000A001602012110618050300                                                
6024600029000123129904013066302500015000678                                                                                     
7PESE                                                                                000000000029000                            
50001410201211062012110799040135174854       PES0000029000A079132012110610350070                                                
6024600029000123129904013517485400015000521                                                                                     
7PESE                                                                                000000000029000                            
50001510201211062012110799030128506908       PES0000036550A074192012110617330061                                                
6024600036550123129903012850690800030250684                                                                                     
7PESE                                                                                000000000036550                            
50001610201211062012110799030103729571       PES0000043000A073422012110610090024                                                
6024600043000123129903010372957100035000636                                                                                     
7PESE                                                                                000000000043000                            
50001710201211062012110799030132944859       PES0000043000A095132012110611490136                                                
6024600043000123129903013294485900035000600                                                                                     
7PESE                                                                                000000000043000                            
50001810201211062012110799030133708869       PES0000043000A074192012110617340062                                                
6024600043000123129903013370886900035000678                                                                                     
7PESE                                                                                000000000043000                            
50001910201211062012110799030134617181       PES0000043000A084182012110618150136                                                
6024600043000123129903013461718100035000600                                                                                     
7PESE                                                                                000000000043000                            
50002010201211062012110799030137357940       PES0000043000M600042012110610540028                                                
6024600043000123129903013735794000035000537                                                                                     
7PESE                                                                                000000000043000                            
50002110201211062012110799030138066579       PES0000043000A092562012110611460048                                                
6024600043000123189903013806657900035000015                                                                                     
7PESE                                                                                000000000043000                            
50002210201211062012110701331328325282       PES0000052000M601652012110615410284                                                
6024600052000123110133132832528200080000057                                                                                     
7PESE                                                                                000000000052000                            
50002310201211062012110701331424595615       PES0000052000A091172012110615490351                                                
6024600052000123110133142459561500080000057                                                                                     
7PESE                                                                                000000000052000                            
50002410201211062012110701331426130194       PES0000052000A098552012110611380038                                                
6024600052000123110133142613019400080000021                                                                                     
7PESE                                                                                000000000052000                            
50002510201211062012110701330714951116       PES0000052000A035412012110617310320                                                
6024600052000123120133071495111600080000042                                                                                     
7PESE                                                                                000000000052000                            
50002610201211062012110701331231851063       PES0000052000A116572012110616590302                                                
6024600052000123120133123185106300080000000                                                                                     
7PESE                                                                                000000000052000                            
50002710201211062012110701331135027680       PES0000052000A075362012110618490207                                                
6024600052000123140133113502768000080000099                                                                                     
7PESE                                                                                000000000052000                            
50002810201211062012110701331521002934       PES0000052000A113532012110613060339                                                
6024600052000123160133152100293400080000000                                                                                     
7PESE                                                                                000000000052000                            
50002910201211062012110701331811478442       PES0000052000A069132012110612410171                                                
6024600052000123160133181147844200080000021                                                                                     
7PESE                                                                                000000000052000                            
50003010201211062012110701331714369435       PES0000052000A037762012110618220183                                                
6024600052000123170133171436943500080000037                                                                                     
7PESE                                                                                000000000052000                            
50003110201211062012110701330617652349       PES0000052000A063662012110618460011                                                
6024600052000123180133061765234900080000021                                                                                     
7PESE                                                                                000000000052000                            
50003210201211062012110701331813235703       PES0000052000A063662012110618460012                                                
6024600052000123180133181323570300080000078                                                                                     
7PESE                                                                                000000000052000                            
82012110700000100000320000011350500000000000000000000000000000000000000000032                                                   
9201211070000010000032000001135050000000000000000000000000000000000000000000032                                                 
