120130208PAGO FACIL               090060246FABIAN NORBERTO D´ERAMO                                                              
320130208000001FABIAN NORBERTO D´ERAMO                                                                                          
50000110201302072013020899030137110422       PES0000047500A010432013020612100097                                                
6024600047500130389903013711042200035000599                                                                                     
7PESE                                                                                000000000047500                            
50000210201302072013020873011325514596       PES0000012000A660392013020709570027                                                
6024600010000130357301132551459600020000442                                                                                     
7PESE                                                                                000000000012000                            
50000310201302072013020873011431057370       PES0000012000A083642013020717400540                                                
6024600012000130397301143105737000000000063                                                                                     
7PESE                                                                                000000000012000                            
50000410201302072013020873010320817767       PES0000014000A103912013020711040047                                                
6024600014000130397301032081776700000000090                                                                                     
7PESE                                                                                000000000014000                            
50000510201302072013020873010492082903       PES0000014000A083862013020709450027                                                
6024600014000130397301049208290300000000037                                                                                     
7PESE                                                                                000000000014000                            
50000610201302072013020873010631087341       PES0000014000A052412013020712050230                                                
6024600014000130397301063108734100000000042                                                                                     
7PESE                                                                                000000000014000                            
50000710201302072013020873010634440738       PES0000014000A038112013020720430490                                                
6024600014000130397301063444073800000000037                                                                                     
7PESE                                                                                000000000014000                            
50000810201302072013020873010727026435       PES0000014000A046262013020711350243                                                
6024600014000130397301072702643500000000057                                                                                     
7PESE                                                                                000000000014000                            
50000910201302072013020873010727107479       PES0000014000A087252013020718190168                                                
6024600014000130397301072710747900000000015                                                                                     
7PESE                                                                                000000000014000                            
50001010201302072013020873010728023435       PES0000014000A087252013020718190169                                                
6024600014000130397301072802343500000000099                                                                                     
7PESE                                                                                000000000014000                            
50001110201302072013020873010823285337       PES0000014000A088172013020721160517                                                
6024600014000130397301082328533700000000042                                                                                     
7PESE                                                                                000000000014000                            
50001210201302072013020873010824490238       PES0000014000A068432013020719260003                                                
6024600014000130397301082449023800000000057                                                                                     
7PESE                                                                                000000000014000                            
50001310201302072013020873010828740574       PES0000014000A088172013020721160516                                                
6024600014000130397301082874057400000000042                                                                                     
7PESE                                                                                000000000014000                            
50001410201302072013020873010920076370       PES0000014000A055922013020711480245                                                
6024600014000130397301092007637000000000000                                                                                     
7PESE                                                                                000000000014000                            
50001510201302072013020873010922008542       PES0000014000A660332013020710090130                                                
6024600014000130397301092200854200000000084                                                                                     
7PESE                                                                                000000000014000                            
50001610201302072013020873010922843889       PES0000014000A107142013020713240203                                                
6024600014000130397301092284388900000000090                                                                                     
7PESE                                                                                000000000014000                            
50001710201302072013020873011016267549       PES0000014000A115462013020710570122                                                
6024600014000130397301101626754900000000037                                                                                     
7PESE                                                                                000000000014000                            
50001810201302072013020873011017996422       PES0000014000A103912013020711030046                                                
6024600014000130397301101799642200000000079                                                                                     
7PESE                                                                                000000000014000                            
50001910201302072013020873011116306528       PES0000014000A085662013020709580041                                                
6024600014000130397301111630652800000000037                                                                                     
7PESE                                                                                000000000014000                            
50002010201302072013020859020325821095       PES0000014000A082002013020717390174                                                
6024600014000130435902032582109500000000042                                                                                     
7PESE                                                                                000000000014000                            
50002110201302072013020859020518166995       PES0000014000L070352013020713587231                                                
6024600014000130435902051816699500000000078                                                                                     
7PESE                                                                                000000000014000                            
50002210201302072013020859021223711602       PES0000014000L070352013020713587233                                                
6024600014000130435902122371160200000000063                                                                                     
7PESE                                                                                000000000014000                            
50002310201302072013020829090116793151       PES0000015000A091562013020712000230                                                
6024600015000130382909011679315100000000021                                                                                     
7PESE                                                                                000000000015000                            
50002410201302072013020829090130922777       PES0000015000A099342013020720190253                                                
6024600015000130382909013092277700000000090                                                                                     
7PESE                                                                                000000000015000                            
50002510201302072013020829090223313359       PES0000015000A092352013020708100002                                                
6024600015000130382909022331335900000000084                                                                                     
7PESE                                                                                000000000015000                            
50002610201302072013020829090224714943       PES0000015000A055532013020720170358                                                
6024600015000130382909022471494300000000021                                                                                     
7PESE                                                                                000000000015000                            
50002710201302072013020829090226019060       PES0000015000A107842013020716230037                                                
6024600015000130382909022601906000000000037                                                                                     
7PESE                                                                                000000000015000                            
50002810201302072013020829090226106941       PES0000015000A026442013020712060326                                                
6024600015000130382909022610694100000000021                                                                                     
7PESE                                                                                000000000015000                            
50002910201302072013020829090226601576       PES0000015000A026442013020712060325                                                
6024600015000130382909022660157600000000015                                                                                     
7PESE                                                                                000000000015000                            
50003010201302072013020829090227334654       PES0000015000A060922013020710030187                                                
6024600015000130382909022733465400000000058                                                                                     
7PESE                                                                                000000000015000                            
50003110201302072013020829090228459266       PES0000015000M600282013020715430405                                                
6024600015000130382909022845926600000000021                                                                                     
7PESE                                                                                000000000015000                            
50003210201302072013020829090229585013       PES0000015000D001502013020714300311                                                
6024600015000130382909022958501300000000084                                                                                     
7PESE                                                                                000000000015000                            
50003310201302072013020829090229652289       PES0000015000A034742013020718470099                                                
6024600015000130382909022965228900000000063                                                                                     
7PESE                                                                                000000000015000                            
50003410201302072013020829090316793151       PES0000015000A091562013020712000231                                                
6024600015000130382909031679315100000000079                                                                                     
7PESE                                                                                000000000015000                            
50003510201302072013020829090317748951       PES0000015000A107512013020712190061                                                
6024600015000130382909031774895100000000036                                                                                     
7PESE                                                                                000000000015000                            
50003610201302072013020829090318559219       PES0000015000D000302013020711150146                                                
6024600015000130382909031855921900000000036                                                                                     
7PESE                                                                                000000000015000                            
50003710201302072013020829090628919011       PES0000015000A034742013020718470098                                                
6024600015000130382909062891901100000000015                                                                                     
7PESE                                                                                000000000015000                            
50003810201302072013020829090631708597       PES0000015000A085792013020710310031                                                
6024600015000130382909063170859700000000037                                                                                     
7PESE                                                                                000000000015000                            
50003910201302072013020829090725731703       PES0000015000A053772013020714550046                                                
6024600015000130382909072573170300000000099                                                                                     
7PESE                                                                                000000000015000                            
50004010201302072013020829090728215658       PES0000015000A620812013020712050115                                                
6024600015000130382909072821565800000000090                                                                                     
7PESE                                                                                000000000015000                            
50004110201302072013020829090728460362       PES0000015000A016682013020711050060                                                
6024600015000130382909072846036200000000000                                                                                     
7PESE                                                                                000000000015000                            
50004210201302072013020829090729458769       PES0000015000M601652013020714260315                                                
6024600015000130382909072945876900000000063                                                                                     
7PESE                                                                                000000000015000                            
50004310201302072013020829090817871248       PES0000015000M620092013020714520215                                                
6024600015000130382909081787124800000000042                                                                                     
7PESE                                                                                000000000015000                            
50004410201302072013020829090818268046       PES0000015000A091652013020714360381                                                
6024600015000130382909081826804600000000084                                                                                     
7PESE                                                                                000000000015000                            
50004510201302072013020829090818690628       PES0000015000A017482013020712320245                                                
6024600015000130382909081869062800000000021                                                                                     
7PESE                                                                                000000000015000                            
50004610201302072013020829090820064291       PES0000015000A085792013020710300030                                                
6024600015000130382909082006429100000000021                                                                                     
7PESE                                                                                000000000015000                            
50004710201302072013020829091227037986       PES0000025000A048422013020717240237                                                
6024600025000130382909122703798600000000090                                                                                     
7PESE                                                                                000000000025000                            
50004810201302072013020829091321474464       PES0000025000A092152013020716100460                                                
6024600025000130382909132147446400000000000                                                                                     
7PESE                                                                                000000000025000                            
50004910201302072013020829091416226541       PES0000025000M620092013020714520216                                                
6024600025000130382909141622654100000000078                                                                                     
7PESE                                                                                000000000025000                            
50005010201302072013020899030103729571       PES0000047500A046792013020709460039                                                
6024600047500130389903010372957100035000663                                                                                     
7PESE                                                                                000000000047500                            
50005110201302072013020899030134630666       PES0000047500A092082013020716250243                                                
6024600047500130389903013463066600035000536                                                                                     
7PESE                                                                                000000000047500                            
50005210201302072013020899030135271379       PES0000047500D000122013020709390014                                                
6024600047500130389903013527137900035000642                                                                                     
7PESE                                                                                000000000047500                            
50005310201302072013020899030136070637       PES0000047500A028072013020719450236                                                
6024600047500130389903013607063700035000784                                                                                     
7PESE                                                                                000000000047500                            
50005410201302072013020899030136352229       PES0000047500A034672013020720410180                                                
6024600047500130389903013635222900035000536                                                                                     
7PESE                                                                                000000000047500                            
50005510201302072013020899030136872631       PES0000047500A042822013020719280012                                                
6024600047500130389903013687263100035000721                                                                                     
7PESE                                                                                000000000047500                            
50005610201302072013020899030136931489       PES0000047500A089362013020720170234                                                
6024600047500130389903013693148900035000784                                                                                     
7PESE                                                                                000000000047500                            
50005710201302072013020899030140497077       PES0000047500A079702013020718540232                                                
6024600047500130389903014049707700035000799                                                                                     
7PESE                                                                                000000000047500                            
50005810201302072013020802430329894673       PES0000047500L070012013020710023619                                                
6024600047500130440243032989467300000000099                                                                                     
7PESE                                                                                000000000047500                            
50005910201302072013020802430521865215       PES0000047500A037752013020716200081                                                
6024600047500130440243052186521500000000021                                                                                     
7PESE                                                                                000000000047500                            
50006010201302072013020802431232195650       PES0000047500L070012013020710023620                                                
6024600047500130440243123219565000000000021                                                                                     
7PESE                                                                                000000000047500                            
50006110201302072013020802430326717337       PES0000047500M620042013020711030045                                                
6024600047500130450243032671733700000000090                                                                                     
7PESE                                                                                000000000047500                            
50006210201302072013020802430423839996       PES0000047500M600642013020713400188                                                
6024600047500130450243042383999600000000058                                                                                     
7PESE                                                                                000000000047500                            
50006310201302072013020801340522569445       PES0000135000A099342013020718100197                                                
6024600135000130380134052256944500150000099                                                                                     
7PESE                                                                                000000000135000                            
50006410201302072013020801341425922793       PES0000135000A680152013020710140038                                                
6024600135000130380134142592279300150000099                                                                                     
7PESE                                                                                000000000135000                            
50006510201302072013020801341423569010       PES0000135000A085662013020712570179                                                
6024600135000130390134142356901000150000021                                                                                     
7PESE                                                                                000000000135000                            
50006610201302072013020801341523124661       PES0000135000D001712013020710530012                                                
6024600135000130400134152312466100150000015                                                                                     
7PESE                                                                                000000000135000                            
50006710201302072013020801341233505213       PES0000135000A047382013020715550206                                                
6024600135000130410134123350521300150000490                                                                                     
7PESE                                                                                000000000135000                            
50006810201302072013020801341326942806       PES0000135000A091482013020716270491                                                
6024600135000130410134132694280600150000100                                                                                     
7PESE                                                                                000000000135000                            
50006910201302072013020801341328759938       PES0000135000A039082013020718420047                                                
6024600135000130410134132875993800150000479                                                                                     
7PESE                                                                                000000000135000                            
50007010201302072013020801341520365060       PES0000135000A099962013020718080120                                                
6024600135000130410134152036506000150000436                                                                                     
7PESE                                                                                000000000135000                            
50007110201302072013020801341522769864       PES0000135000A047382013020709380094                                                
6024600135000130410134152276986400150000179                                                                                     
7PESE                                                                                000000000135000                            
50007210201302072013020801341522990743       PES0000135000M600402013020714100246                                                
6024600135000130410134152299074300150000200                                                                                     
7PESE                                                                                000000000135000                            
50007310201302072013020801341593729290       PES0000135000M600402013020714110247                                                
6024600135000130410134159372929000150000315                                                                                     
7PESE                                                                                000000000135000                            
50007410201302072013020801341617459444       PES0000135000A103902013020712310197                                                
6024600135000130410134161745944400150000384                                                                                     
7PESE                                                                                000000000135000                            
50007510201302072013020801341617673169       PES0000135000A100022013020718400127                                                
6024600135000130410134161767316900150000378                                                                                     
7PESE                                                                                000000000135000                            
50007610201302072013020801341713994786       PES0000135000M601962013020713090072                                                
6024600135000130410134171399478600150000378                                                                                     
7PESE                                                                                000000000135000                            
50007710201302072013020801341811154803       PES0000135000A055332013020714130115                                                
6024600135000130410134181115480300150000200                                                                                     
7PESE                                                                                000000000135000                            
50007810201302072013020801341811200178       PES0000135000A101012013020713310255                                                
6024600135000130410134181120017800150000263                                                                                     
7PESE                                                                                000000000135000                            
82013020800000100000780000035500000000000000000000000000000000000000000000078                                                   
9201302080000010000078000003550000000000000000000000000000000000000000000000078                                                 
