120120308PAGO FACIL               090060246FABIAN NORBERTO D´ERAMO                                                              
320120308000001FABIAN NORBERTO D´ERAMO                                                                                          
50000110201203072012030899030234515650       PES0000037000A084942012030618430116                                                
6024600037000120679903023451565000035000678                                                                                     
7PESE                                                                                000000000037000                            
50000210201203072012030800692622302519       PES0000020000A065952012030619430133                                                
6024600020000120700069262230251900020000321                                                                                     
7PESE                                                                                000000000020000                            
50000310201203072012030800694041661913       PES0000020000A065952012030619430134                                                
6024600020000120700069404166191300020000316                                                                                     
7PESE                                                                                000000000020000                            
50000410201203072012030853010317173643       PES0000006000A093102012030717030057                                                
6024600006000120685301031717364300015000416                                                                                     
7PESE                                                                                000000000006000                            
50000510201203072012030853011825256680       PES0000006000A043992012030714330153                                                
6024600006000120685301182525668000015000599                                                                                     
7PESE                                                                                000000000006000                            
50000610201203072012030853011828011625       PES0000006000A043992012030714330152                                                
6024600006000120685301182801162500015000558                                                                                     
7PESE                                                                                000000000006000                            
50000710201203072012030802332539427679       PES0000015000L120192012030713289841                                                
6024600015000120670233253942767900050000784                                                                                     
7PESE                                                                                000000000015000                            
50000810201203072012030802332630193610       PES0000015000A093582012030712090080                                                
6024600015000120670233263019361000050000642                                                                                     
7PESE                                                                                000000000015000                            
50000910201203072012030802332725965376       PES0000015000A065492012030718010136                                                
6024600015000120670233272596537600050000715                                                                                     
7PESE                                                                                000000000015000                            
50001010201203072012030802332822808997       PES0000015000A065492012030718340179                                                
6024600015000120670233282280899700050000636                                                                                     
7PESE                                                                                000000000015000                            
50001110201203072012030802332823329058       PES0000015000A029772012030719320112                                                
6024600015000120670233282332905800050000515                                                                                     
7PESE                                                                                000000000015000                            
50001210201203072012030802332823362363       PES0000015000A601422012030712500057                                                
6024600015000120670233282336236300050000763                                                                                     
7PESE                                                                                000000000015000                            
50001310201203072012030802332921762831       PES0000015000M601652012030713390224                                                
6024600015000120670233292176283100050000657                                                                                     
7PESE                                                                                000000000015000                            
50001410201203072012030802333017606099       PES0000015000A098132012030718270150                                                
6024600015000120670233301760609900050000716                                                                                     
7PESE                                                                                000000000015000                            
50001510201203072012030802333239336080       PES0000015000M601622012030715530312                                                
6024600015000120670233323933608000050000415                                                                                     
7PESE                                                                                000000000015000                            
50001610201203072012030802333326451952       PES0000015000A077352012030719330219                                                
6024600015000120670233332645195200050000778                                                                                     
7PESE                                                                                000000000015000                            
50001710201203072012030802333328166221       PES0000015000D000882012030709510058                                                
6024600015000120670233332816622100050000736                                                                                     
7PESE                                                                                000000000015000                            
50001810201203072012030802333332478811       PES0000015000A086812012030718080186                                                
6024600015000120670233333247881100050000184                                                                                     
7PESE                                                                                000000000015000                            
50001910201203072012030802333423153621       PES0000015000A601422012030712490056                                                
6024600015000120670233342315362100050000784                                                                                     
7PESE                                                                                000000000015000                            
50002010201203072012030846081427859022       PES0000016000A101582012030710490176                                                
6024600016000120734608142785902200000000015                                                                                     
7PESE                                                                                000000000016000                            
50002110201203072012030846081717606099       PES0000016000A098132012030718270149                                                
6024600016000120744608171760609900000000016                                                                                     
7PESE                                                                                000000000016000                            
50002210201203072012030818380138690791       PES0000020000A016702012030711290053                                                
6024600020000120681838013869079100000000016                                                                                     
7PESE                                                                                000000000020000                            
50002310201203072012030818380518810891       PES0000020000M601122012030713460022                                                
6024600020000120681838051881089100000000021                                                                                     
7PESE                                                                                000000000020000                            
50002410201203072012030818382913612745       PES0000020000L071192012030719555285                                                
6024600020000120681838291361274500000000042                                                                                     
7PESE                                                                                000000000020000                            
50002510201203072012030800691817074919       PES0000020000A050712012030712050057                                                
6024600020000120700069181707491900020000463                                                                                     
7PESE                                                                                000000000020000                            
50002610201203072012030800694512284114       PES0000020000A055192012030710220119                                                
6024600020000120700069451228411400020000479                                                                                     
7PESE                                                                                000000000020000                            
50002710201203072012030800682233597989       PES0000023000A085512012030716480033                                                
6024600023000120680068223359798900000000079                                                                                     
7PESE                                                                                000000000023000                            
50002810201203072012030800683440395678       PES0000023000A095702012030713390228                                                
6024600023000120680068344039567800000000063                                                                                     
7PESE                                                                                000000000023000                            
50002910201203072012030800684138693995       PES0000023000A082982012030710560104                                                
6024600023000120680068413869399500000000090                                                                                     
7PESE                                                                                000000000023000                            
50003010201203072012030800684331601334       PES0000023000A011012012030711100033                                                
6024600023000120680068433160133400000000057                                                                                     
7PESE                                                                                000000000023000                            
50003110201203072012030800684418405415       PES0000023000A095702012030713390227                                                
6024600023000120680068441840541500000000078                                                                                     
7PESE                                                                                000000000023000                            
50003210201203072012030800685422878206       PES0000023000A014492012030721410275                                                
6024600023000120680068542287820600000000015                                                                                     
7PESE                                                                                000000000023000                            
50003310201203072012030802330233108530       PES0000025000A034222012030709460077                                                
6024600025000120670233023310853000030000058                                                                                     
7PESE                                                                                000000000025000                            
50003410201203072012030802330234583532       PES0000025000A072002012030714250001                                                
6024600025000120670233023458353200030000642                                                                                     
7PESE                                                                                000000000025000                            
50003510201203072012030802330237848822       PES0000025000A111412012030718380155                                                
6024600025000120670233023784882200030000758                                                                                     
7PESE                                                                                000000000025000                            
50003610201203072012030802330331316360       PES0000025000A098212012030712510072                                                
6024600025000120670233033131636000030000779                                                                                     
7PESE                                                                                000000000025000                            
50003710201203072012030802330426323112       PES0000025000A111412012030718380156                                                
6024600025000120670233042632311200030000790                                                                                     
7PESE                                                                                000000000025000                            
50003810201203072012030802330429469123       PES0000025000A046092012030719510033                                                
6024600025000120670233042946912300030000663                                                                                     
7PESE                                                                                000000000025000                            
50003910201203072012030802330523102924       PES0000025000A058242012030720200200                                                
6024600025000120670233052310292400030000790                                                                                     
7PESE                                                                                000000000025000                            
50004010201203072012030802330523471630       PES0000025000A108702012030715090260                                                
6024600025000120670233052347163000030000621                                                                                     
7PESE                                                                                000000000025000                            
50004110201203072012030802330525127944       PES0000025000A091652012030717540539                                                
6024600025000120670233052512794400030000742                                                                                     
7PESE                                                                                000000000025000                            
50004210201203072012030802330525355558       PES0000025000A086812012030718090187                                                
6024600025000120670233052535555800030000715                                                                                     
7PESE                                                                                000000000025000                            
50004310201203072012030802330717739390       PES0000025000A103152012030718450109                                                
6024600025000120670233071773939000030000563                                                                                     
7PESE                                                                                000000000025000                            
50004410201203072012030802330814264768       PES0000025000A079692012030719060318                                                
6024600025000120670233081426476800030000516                                                                                     
7PESE                                                                                000000000025000                            
50004510201203072012030802330912000718       PES0000025000A068892012030713360090                                                
6024600025000120670233091200071800030000421                                                                                     
7PESE                                                                                000000000025000                            
50004610201203072012030802331235959157       PES0000025000A063712012030716180140                                                
6024600025000120670233123595915700030000715                                                                                     
7PESE                                                                                000000000025000                            
50004710201203072012030802331525248843       PES0000025000A063672012030718290304                                                
6024600025000120670233152524884300030000516                                                                                     
7PESE                                                                                000000000025000                            
50004810201203072012030802331525875374       PES0000025000D000882012030709510059                                                
6024600025000120670233152587537400030000216                                                                                     
7PESE                                                                                000000000025000                            
50004910201203072012030899030227340271       PES0000037000A085232012030714190279                                                
6024600037000120679903022734027100035000757                                                                                     
7PESE                                                                                000000000037000                            
50005010201203072012030899030229118464       PES0000037000A042822012030713170336                                                
6024600037000120679903022911846400035000763                                                                                     
7PESE                                                                                000000000037000                            
50005110201203072012030899030233896263       PES0000037000A091062012030716340004                                                
6024600037000120679903023389626300035000142                                                                                     
7PESE                                                                                000000000037000                            
50005210201203072012030899030233897409       PES0000037000D001412012030717140066                                                
6024600037000120679903023389740900035000737                                                                                     
7PESE                                                                                000000000037000                            
50005310201203072012030899030233914097       PES0000037000D001412012030717140067                                                
6024600037000120679903023391409700035000616                                                                                     
7PESE                                                                                000000000037000                            
50005410201203072012030899030234722750       PES0000037000A103582012030711400219                                                
6024600037000120679903023472275000035000700                                                                                     
7PESE                                                                                000000000037000                            
50005510201203072012030899030235755195       PES0000037000A109282012030711160151                                                
6024600037000120679903023575519500035000578                                                                                     
7PESE                                                                                000000000037000                            
50005610201203072012030899030236943330       PES0000037000A090972012030712380137                                                
6024600037000120679903023694333000035000663                                                                                     
7PESE                                                                                000000000037000                            
82012030800000100000560000012560000000000000000000000000000000000000000000056                                                   
9201203080000010000056000001256000000000000000000000000000000000000000000000056                                                 
