120120808PAGO FACIL               090060246FABIAN NORBERTO D´ERAMO                                                              
320120808000001FABIAN NORBERTO D´ERAMO                                                                                          
50000110201208072012080800714420750209       PES0000023500A077012012080617230234                                                
6024600023500122220071442075020900055000078                                                                                     
7PESE                                                                                000000000023500                            
50000210201208072012080800713914491712       PES0000023500A077012012080617230235                                                
6024600023500122220071391449171200055000084                                                                                     
7PESE                                                                                000000000023500                            
50000310201208072012080800713821491407       PES0000023500A077012012080617230236                                                
6024600023500122220071382149140700055000036                                                                                     
7PESE                                                                                000000000023500                            
50000410201208072012080800710525102163       PES0000023500A077012012080617230237                                                
6024600023500122220071052510216300055000015                                                                                     
7PESE                                                                                000000000023500                            
50000510201208072012080800714514311533       PES0000023500A077012012080617230238                                                
6024600023500122230071451431153300055000099                                                                                     
7PESE                                                                                000000000023500                            
50000610201208072012080800714517325189       PES0000023500A077012012080617230239                                                
6024600023500122260071451732518900055000078                                                                                     
7PESE                                                                                000000000023500                            
50000710201208072012080800713916312060       PES0000023500A077012012080617240240                                                
6024600023500122260071391631206000055000084                                                                                     
7PESE                                                                                000000000023500                            
50000810201208072012080800712524211048       PES0000023500A077012012080617240241                                                
6024600023500122260071252421104800055000036                                                                                     
7PESE                                                                                000000000023500                            
50000910201208072012080857000223209173       PES0000014000A085792012080709450018                                                
6024600014000122215700022320917300000000078                                                                                     
7PESE                                                                                000000000014000                            
50001010201208072012080857000228470750       PES0000014000A045712012080715470015                                                
6024600014000122215700022847075000000000057                                                                                     
7PESE                                                                                000000000014000                            
50001110201208072012080857000320331143       PES0000014000A110152012080717410194                                                
6024600014000122215700032033114300000000021                                                                                     
7PESE                                                                                000000000014000                            
50001210201208072012080857000322360593       PES0000014000A103902012080709320034                                                
6024600014000122215700032236059300000000015                                                                                     
7PESE                                                                                000000000014000                            
50001310201208072012080857000411692653       PES0000014000A103902012080721530295                                                
6024600014000122215700041169265300000000036                                                                                     
7PESE                                                                                000000000014000                            
50001410201208072012080857001129922704       PES0000014000A092152012080712160221                                                
6024600014000122215700112992270400000000036                                                                                     
7PESE                                                                                000000000014000                            
50001510201208072012080857001228911472       PES0000014000A092152012080712160220                                                
6024600014000122215700122891147200000000078                                                                                     
7PESE                                                                                000000000014000                            
50001610201208072012080857001321797459       PES0000014000A110152012080711140067                                                
6024600014000122215700132179745900000000000                                                                                     
7PESE                                                                                000000000014000                            
50001710201208072012080857001322288901       PES0000014000A049942012080711460004                                                
6024600014000122215700132228890100000000037                                                                                     
7PESE                                                                                000000000014000                            
50001810201208072012080859000228323096       PES0000016000A620442012080709310005                                                
6024600016000122265900022832309600000000079                                                                                     
7PESE                                                                                000000000016000                            
50001910201208072012080800711625006928       PES0000023500A042812012080718560030                                                
6024600023500122210071162500692800055000058                                                                                     
7PESE                                                                                000000000023500                            
50002010201208072012080800711816247042       PES0000023500D000422012080712480264                                                
6024600023500122210071181624704200055000058                                                                                     
7PESE                                                                                000000000023500                            
50002110201208072012080800711913991212       PES0000023500A063662012080719140125                                                
6024600023500122210071191399121200055000015                                                                                     
7PESE                                                                                000000000023500                            
50002210201208072012080800712013635174       PES0000023500A063662012080719140122                                                
6024600023500122210071201363517400055000042                                                                                     
7PESE                                                                                000000000023500                            
50002310201208072012080800712812200869       PES0000023500A063662012080719140123                                                
6024600023500122210071281220086900055000015                                                                                     
7PESE                                                                                000000000023500                            
50002410201208072012080800714514575317       PES0000023500A063662012080719140124                                                
6024600023500122210071451457531700055000000                                                                                     
7PESE                                                                                000000000023500                            
50002510201208072012080800710592426462       PES0000023500A111162012080715230202                                                
6024600023500122220071059242646200055000063                                                                                     
7PESE                                                                                000000000023500                            
50002610201208072012080800712523604015       PES0000023500D000362012080716080154                                                
6024600023500122220071252360401500055000021                                                                                     
7PESE                                                                                000000000023500                            
50002710201208072012080800712812525804       PES0000023500A106072012080711350001                                                
6024600023500122220071281252580400055000015                                                                                     
7PESE                                                                                000000000023500                            
50002810201208072012080800712622470990       PES0000023500A103032012080714140072                                                
6024600023500122260071262247099000055000099                                                                                     
7PESE                                                                                000000000023500                            
50002910201208072012080800712427170576       PES0000023500A601432012080712470131                                                
6024600023500122270071242717057600055000000                                                                                     
7PESE                                                                                000000000023500                            
50003010201208072012080817031110302761       PES0000025000L071222012080715498294                                                
6024600025000122221703111030276100050000099                                                                                     
7PESE                                                                                000000000025000                            
50003110201208072012080817030817440324       PES0000025000A093532012080718550064                                                
6024600025000122271703081744032400050000078                                                                                     
7PESE                                                                                000000000025000                            
50003210201208072012080817030817906354       PES0000025000A093532012080718550063                                                
6024600025000122271703081790635400050000000                                                                                     
7PESE                                                                                000000000025000                            
50003310201208072012080817030912865671       PES0000025000A093532012080718550065                                                
6024600025000122271703091286567100050000099                                                                                     
7PESE                                                                                000000000025000                            
50003410201208072012080800540236806018       PES0000026000A091062012080717430109                                                
6024600026000122140054023680601800000000799                                                                                     
7PESE                                                                                000000000026000                            
50003510201208072012080800540229399057       PES0000026000A048412012080716220065                                                
6024600026000122260054022939905700010000084                                                                                     
7PESE                                                                                000000000026000                            
50003610201208072012080800540234378677       PES0000026000M600492012080713420109                                                
6024600026000122260054023437867700010000015                                                                                     
7PESE                                                                                000000000026000                            
50003710201208072012080800540234630666       PES0000026000A092072012080715270071                                                
6024600026000122260054023463066600010000037                                                                                     
7PESE                                                                                000000000026000                            
50003810201208072012080899040127340271       PES0000029000A085232012080714540025                                                
6024600029000122209904012734027100015000778                                                                                     
7PESE                                                                                000000000029000                            
50003910201208072012080899040133259978       PES0000029000A089832012080714230005                                                
6024600029000122209904013325997800015000742                                                                                     
7PESE                                                                                000000000029000                            
50004010201208072012080899040133989486       PES0000029000A088072012080711320102                                                
6024600029000122209904013398948600015000621                                                                                     
7PESE                                                                                000000000029000                            
50004110201208072012080899040137846112       PES0000029000A601932012080711510155                                                
6024600029000122209904013784611200015000178                                                                                     
7PESE                                                                                000000000029000                            
50004210201208072012080800720329469123       PES0000031000A099522012080709070147                                                
6024600031000122210072032946912300155000000                                                                                     
7PESE                                                                                000000000031000                            
50004310201208072012080800720522411600       PES0000031000D000402012080715510169                                                
6024600031000122210072052241160000155000058                                                                                     
7PESE                                                                                000000000031000                            
50004410201208072012080800720617564651       PES0000031000A058512012080711310146                                                
6024600031000122210072061756465100155000016                                                                                     
7PESE                                                                                000000000031000                            
50004510201208072012080800720812143183       PES0000031000A098032012080712380036                                                
6024600031000122230072081214318300155000363                                                                                     
7PESE                                                                                000000000031000                            
50004610201208072012080802380237229430       PES0000033000A115412012080715390007                                                
6024600033000122230238023722943000000000016                                                                                     
7PESE                                                                                000000000033000                            
50004710201208072012080802380331303579       PES0000033000A078112012080711480039                                                
6024600033000122230238033130357900000000058                                                                                     
7PESE                                                                                000000000033000                            
50004810201208072012080802382727500011       PES0000033000M601842012080712510256                                                
6024600033000122230238272750001100000000036                                                                                     
7PESE                                                                                000000000033000                            
50004910201208072012080899030136832667       PES0000036550A091482012080717480572                                                
6024600036550122209903013683266700030250799                                                                                     
7PESE                                                                                000000000036550                            
50005010201208072012080899030137247863       PES0000036550A091482012080717480571                                                
6024600036550122209903013724786300030250737                                                                                     
7PESE                                                                                000000000036550                            
50005110201208072012080899030103729571       PES0000043000A112372012080715590032                                                
6024600043000122209903010372957100035000215                                                                                     
7PESE                                                                                000000000043000                            
50005210201208072012080899030126562585       PES0000043000A108262012080714510137                                                
6024600043000122209903012656258500035000736                                                                                     
7PESE                                                                                000000000043000                            
50005310201208072012080899030129399057       PES0000043000A048412012080716230066                                                
6024600043000122209903012939905700035000600                                                                                     
7PESE                                                                                000000000043000                            
50005410201208072012080899030133380040       PES0000043000A036692012080710110029                                                
6024600043000122209903013338004000035000778                                                                                     
7PESE                                                                                000000000043000                            
50005510201208072012080899030133434151       PES0000043000A112902012080718390107                                                
6024600043000122209903013343415100035000784                                                                                     
7PESE                                                                                000000000043000                            
50005610201208072012080899030134378677       PES0000043000M600492012080713410108                                                
6024600043000122209903013437867700035000621                                                                                     
7PESE                                                                                000000000043000                            
50005710201208072012080899030134630666       PES0000043000A092072012080715270072                                                
6024600043000122209903013463066600035000657                                                                                     
7PESE                                                                                000000000043000                            
50005810201208072012080899030135271379       PES0000043000A091582012080713120318                                                
6024600043000122209903013527137900035000621                                                                                     
7PESE                                                                                000000000043000                            
50005910201208072012080899030135755092       PES0000043000A093212012080717440150                                                
6024600043000122209903013575509200035000742                                                                                     
7PESE                                                                                000000000043000                            
50006010201208072012080899030136806018       PES0000043000A091062012080717430108                                                
6024600043000122209903013680601800035000137                                                                                     
7PESE                                                                                000000000043000                            
50006110201208072012080899030136872631       PES0000043000A073822012080717230261                                                
6024600043000122209903013687263100035000700                                                                                     
7PESE                                                                                000000000043000                            
50006210201208072012080899030137110422       PES0000043000A010432012080713180186                                                
6024600043000122209903013711042200035000615                                                                                     
7PESE                                                                                000000000043000                            
50006310201208072012080899030137357940       PES0000043000A012652012080718020020                                                
6024600043000122209903013735794000035000721                                                                                     
7PESE                                                                                000000000043000                            
50006410201208072012080899030137461688       PES0000043000A080692012080718400037                                                
6024600043000122209903013746168800035000784                                                                                     
7PESE                                                                                000000000043000                            
50006510201208072012080899030138066579       PES0000043000A091122012080717040486                                                
6024600043000122209903013806657900035000700                                                                                     
7PESE                                                                                000000000043000                            
50006610201208072012080899030140497077       PES0000043000A070622012080714220503                                                
6024600043000122209903014049707700035000779                                                                                     
7PESE                                                                                000000000043000                            
82012080800000100000660000018926000000000000000000000000000000000000000000066                                                   
9201208080000010000066000001892600000000000000000000000000000000000000000000066                                                 
