120110808PAGO FACIL               090060246FABIAN NORBERTO D´ERAMO                                                              
320110808000001FABIAN NORBERTO D´ERAMO                                                                                          
50000110201108052011080817020622163564       PES0000016000A046102011080420290295                                                
6024600016000112231702062216356400040000037                                                                                     
7PESE                                                                                000000000016000                            
50000210201108052011080800504331010119       PES0000019500A042592011080509530024                                                
6024600019500112200050433101011900050000036                                                                                     
7PESE                                                                                000000000019500                            
50000310201108052011080899030227340271       PES0000035000A063922011080510080006                                                
6024600035000112199903022734027100035000378                                                                                     
7PESE                                                                                000000000035000                            
50000410201108052011080800520626416171       PES0000027000A079552011080510220220                                                
6024600027000112180052062641617100000000058                                                                                     
7PESE                                                                                000000000027000                            
50000510201108052011080817020523848218       PES0000016000A640542011080512120209                                                
6024600016000112221702052384821800040000036                                                                                     
7PESE                                                                                000000000016000                            
50000610201108052011080800503822277609       PES0000019500A049072011080512280329                                                
6024600019500112200050382227760900050000084                                                                                     
7PESE                                                                                000000000019500                            
50000710201108052011080800501914642589       PES0000019500A049072011080512280330                                                
6024600019500112200050191464258900050000021                                                                                     
7PESE                                                                                000000000019500                            
50000810201108052011080800501814840746       PES0000019500A049072011080512280331                                                
6024600019500112230050181484074600050000042                                                                                     
7PESE                                                                                000000000019500                            
50000910201108052011080899040136275465       PES0000023500A040552011080512020129                                                
6024600023500112199904013627546500015000258                                                                                     
7PESE                                                                                000000000023500                            
50001010201108052011080800540336399286       PES0000017500A072612011080510120012                                                
6024600017500112220054033639928600015000084                                                                                     
7PESE                                                                                000000000017500                            
50001110201108052011080899030236399286       PES0000035000A072612011080510140013                                                
6024600035000112199903023639928600035000342                                                                                     
7PESE                                                                                000000000035000                            
50001210201108052011080802312720054275       PES0000018500A085592011080513570384                                                
6024600018500112180231272005427500000000079                                                                                     
7PESE                                                                                000000000018500                            
50001310201108052011080899040223968701       PES0000015000A602122011080513430160                                                
6024600015000112199904022396870100025000416                                                                                     
7PESE                                                                                000000000015000                            
50001410201108052011080800502717668262       PES0000019500A055192011080513390270                                                
6024600019500112200050271766826200050000042                                                                                     
7PESE                                                                                000000000019500                            
50001510201108052011080800503633196209       PES0000019500A072782011080514550282                                                
6024600019500112240050363319620900050000016                                                                                     
7PESE                                                                                000000000019500                            
50001610201108052011080899030234229591       PES0000035000A063842011080516400157                                                
6024600035000112199903023422959100035000558                                                                                     
7PESE                                                                                000000000035000                            
50001710201108052011080802310522802080       PES0000024500A086832011080508240001                                                
6024600024500112180231052280208000000000063                                                                                     
7PESE                                                                                000000000024500                            
50001810201108052011080899030233897409       PES0000035000A045482011080516400352                                                
6024600035000112199903023389740900035000521                                                                                     
7PESE                                                                                000000000035000                            
50001910201108052011080802312527508671       PES0000018500D001452011080510170042                                                
6024600018500112180231252750867100000000015                                                                                     
7PESE                                                                                000000000018500                            
50002010201108052011080899030237483073       PES0000035000A092052011080511470197                                                
6024600035000112199903023748307300035000257                                                                                     
7PESE                                                                                000000000035000                            
50002110201108052011080800540337483073       PES0000017500A092052011080511470198                                                
6024600017500112230054033748307300015000079                                                                                     
7PESE                                                                                000000000017500                            
50002210201108052011080800504235497904       PES0000019500A092142011080517180370                                                
6024600019500112240050423549790400050000099                                                                                     
7PESE                                                                                000000000019500                            
50002310201108052011080899030236529254       PES0000035000A091502011080510190079                                                
6024600035000112199903023652925400035000300                                                                                     
7PESE                                                                                000000000035000                            
50002410201108052011080800502716137505       PES0000019500A099952011080512520171                                                
6024600019500112210050271613750500050000079                                                                                     
7PESE                                                                                000000000019500                            
50002510201108052011080800520625647594       PES0000027000A099622011080515090058                                                
6024600027000112180052062564759400000000037                                                                                     
7PESE                                                                                000000000027000                            
50002610201108052011080800502717384026       PES0000019500A107672011080511480039                                                
6024600019500112200050271738402600050000058                                                                                     
7PESE                                                                                000000000019500                            
50002710201108052011080800504233740786       PES0000019500A071862011080515110123                                                
6024600019500112240050423374078600050000058                                                                                     
7PESE                                                                                000000000019500                            
50002810201108052011080800502235216456       PES0000019500A069122011080517280131                                                
6024600019500112200050223521645600050000016                                                                                     
7PESE                                                                                000000000019500                            
50002910201108052011080899030216975364       PES0000035000A081572011080517360133                                                
6024600035000112199903021697536400035000478                                                                                     
7PESE                                                                                000000000035000                            
50003010201108052011080899030228324126       PES0000035000A035802011080519240298                                                
6024600035000112199903022832412600035000584                                                                                     
7PESE                                                                                000000000035000                            
50003110201108052011080800504424037065       PES0000019500A098582011080517260169                                                
6024600019500112200050442403706500050000084                                                                                     
7PESE                                                                                000000000019500                            
50003210201108052011080800501720553463       PES0000019500A082852011080511220066                                                
6024600019500112210050172055346300050000099                                                                                     
7PESE                                                                                000000000019500                            
50003310201108052011080800500632800590       PES0000019500A082002011080518230135                                                
6024600019500112240050063280059000050000042                                                                                     
7PESE                                                                                000000000019500                            
50003410201108052011080802310900112248       PES0000024500M601212011080513370199                                                
6024600024500112180231090011224800000000058                                                                                     
7PESE                                                                                000000000024500                            
50003510201108052011080800501335246532       PES0000019500M620082011080510530021                                                
6024600019500112210050133524653200050000063                                                                                     
7PESE                                                                                000000000019500                            
50003610201108052011080800504234138844       PES0000019500M620102011080517110049                                                
6024600019500112200050423413884400050000021                                                                                     
7PESE                                                                                000000000019500                            
50003710201108052011080800504325506114       PES0000019500M600822011080515470412                                                
6024600019500112240050432550611400050000099                                                                                     
7PESE                                                                                000000000019500                            
50003810201108052011080800520529128648       PES0000027000L120202011080511381875                                                
6024600027000112180052052912864800000000078                                                                                     
7PESE                                                                                000000000027000                            
50003910201108052011080899030293925151       PES0000035000M600112011080511310117                                                
6024600035000112199903029392515100035000542                                                                                     
7PESE                                                                                000000000035000                            
50004010201108062011080800503728741799       PES0000019500A042592011080611480001                                                
6024600019500112200050372874179900050000000                                                                                     
7PESE                                                                                000000000019500                            
50004110201108062011080899030233912987       PES0000035000A086342011080611120026                                                
6024600035000112199903023391298700035000563                                                                                     
7PESE                                                                                000000000035000                            
50004210201108062011080800520692855838       PES0000027000A029812011080611040045                                                
6024600027000112180052069285583800000000079                                                                                     
7PESE                                                                                000000000027000                            
50004310201108062011080800520318392484       PES0000027000A103832011080613430186                                                
6024600027000112180052031839248400000000000                                                                                     
7PESE                                                                                000000000027000                            
50004410201108062011080800504329863116       PES0000019500D001412011080610480031                                                
6024600019500112240050432986311600050000015                                                                                     
7PESE                                                                                000000000019500                            
50004510201108062011080899030235359341       PES0000035000A085892011080610140038                                                
6024600035000112199903023535934100035000521                                                                                     
7PESE                                                                                000000000035000                            
50004610201108062011080899030232148577       PES0000035000A098602011080617060168                                                
6024600035000112199903023214857700035000621                                                                                     
7PESE                                                                                000000000035000                            
50004710201108062011080899030235428838       PES0000030100A094932011080611170077                                                
6024600030100112199903023542883800030100579                                                                                     
7PESE                                                                                000000000030100                            
50004810201108062011080898020233282453       PES0000015000A094932011080611170078                                                
6024600015000112199802023328245300015000600                                                                                     
7PESE                                                                                000000000015000                            
50004910201108062011080899030226735116       PES0000035000A092792011080618210098                                                
6024600035000112199903022673511600035000636                                                                                     
7PESE                                                                                000000000035000                            
50005010201108062011080899040124361506       PES0000023500A017482011080619380010                                                
6024600023500112199904012436150600015000600                                                                                     
7PESE                                                                                000000000023500                            
50005110201108062011080800502141087909       PES0000019500A082852011080611570064                                                
6024600019500112210050214108790900050000090                                                                                     
7PESE                                                                                000000000019500                            
50005210201108062011080899030234515650       PES0000035000A036192011080618030292                                                
6024600035000112199903023451565000035000590                                                                                     
7PESE                                                                                000000000035000                            
50005310201108062011080800502620391760       PES0000019500M600402011080610450038                                                
6024600019500112200050262039176000050000090                                                                                     
7PESE                                                                                000000000019500                            
50005410201108062011080899030234151454       PES0000035000M601522011080610350016                                                
6024600035000112199903023415145400035000500                                                                                     
7PESE                                                                                000000000035000                            
50005510201108062011080899030234430590       PES0000035000A097302011080619030077                                                
6024600035000112199903023443059000035000578                                                                                     
7PESE                                                                                000000000035000                            
50005610201108062011080800502618496035       PES0000019500L070082011080611152286                                                
6024600019500112200050261849603500050000079                                                                                     
7PESE                                                                                000000000019500                            
50005710201108072011080800502426216290       PES0000019500A037752011080713020287                                                
6024600019500112240050242621629000050000079                                                                                     
7PESE                                                                                000000000019500                            
50005810201108072011080899030229118464       PES0000035000D000502011080715580566                                                
6024600035000112199903022911846400035000721                                                                                     
7PESE                                                                                000000000035000                            
82011080800000100000580000014386000000000000000000000000000000000000000000058                                                   
9201108080000010000058000001438600000000000000000000000000000000000000000000058                                                 
