120110908PAGO FACIL               090060246FABIAN NORBERTO D´ERAMO                                                              
320110908000001FABIAN NORBERTO D´ERAMO                                                                                          
50000110201109072011090899030228361121       PES0000035000A043162011090617170195                                                
6024600035000112509903022836112100035000621                                                                                     
7PESE                                                                                000000000035000                            
50000210201109072011090800502329898369       PES0000003675A092002011090714150420                                                
6024600003675112570050232989836900005250084                                                                                     
7PESE                                                                                000000000003675                            
50000310201109072011090899040223968701       PES0000015000A602122011090709370033                                                
6024600015000112509904022396870100025000621                                                                                     
7PESE                                                                                000000000015000                            
50000410201109072011090899030235775683       PES0000017500A072612011090717000114                                                
6024600017500112509903023577568300017500784                                                                                     
7PESE                                                                                000000000017500                            
50000510201109072011090800540430219518       PES0000017500A076782011090718230002                                                
6024600017500112570054043021951800015000037                                                                                     
7PESE                                                                                000000000017500                            
50000610201109072011090800540433897409       PES0000017500A094052011090716250124                                                
6024600017500112570054043389740900015000058                                                                                     
7PESE                                                                                000000000017500                            
50000710201109072011090817020523925014       PES0000020000A105852011090709560124                                                
6024600020000112551702052392501400000000000                                                                                     
7PESE                                                                                000000000020000                            
50000810201109072011090800501018397174       PES0000024500M601632011090711000050                                                
6024600024500112510050101839717400030000021                                                                                     
7PESE                                                                                000000000024500                            
50000910201109072011090800504425530906       PES0000024500A097192011090720240256                                                
6024600024500112510050442553090600030000000                                                                                     
7PESE                                                                                000000000024500                            
50001010201109072011090800500827733501       PES0000024500M601552011090713300138                                                
6024600024500112530050082773350100030000058                                                                                     
7PESE                                                                                000000000024500                            
50001110201109072011090800503917652349       PES0000024500A086982011090719020338                                                
6024600024500112570050391765234900030000042                                                                                     
7PESE                                                                                000000000024500                            
50001210201109072011090800504513235703       PES0000024500A086982011090719020337                                                
6024600024500112570050451323570300030000042                                                                                     
7PESE                                                                                000000000024500                            
50001310201109072011090899030225909375       PES0000035000A084182011090711020224                                                
6024600035000112509903022590937500035000700                                                                                     
7PESE                                                                                000000000035000                            
50001410201109072011090899030226735116       PES0000035000A092792011090711570139                                                
6024600035000112509903022673511600035000663                                                                                     
7PESE                                                                                000000000035000                            
50001510201109072011090899030227340271       PES0000035000A023702011090717580272                                                
6024600035000112509903022734027100035000278                                                                                     
7PESE                                                                                000000000035000                            
50001610201109072011090899030228324126       PES0000035000A035802011090720390516                                                
6024600035000112509903022832412600035000784                                                                                     
7PESE                                                                                000000000035000                            
50001710201109072011090899030230219518       PES0000035000A076782011090718230003                                                
6024600035000112509903023021951800035000715                                                                                     
7PESE                                                                                000000000035000                            
50001810201109072011090899030232436369       PES0000035000A029032011090718390045                                                
6024600035000112509903023243636900035000784                                                                                     
7PESE                                                                                000000000035000                            
50001910201109072011090899030233259978       PES0000035000A089892011090714200017                                                
6024600035000112509903023325997800035000542                                                                                     
7PESE                                                                                000000000035000                            
50002010201109072011090899030233897409       PES0000035000A094052011090716250125                                                
6024600035000112509903023389740900035000736                                                                                     
7PESE                                                                                000000000035000                            
50002110201109072011090899030234137506       PES0000035000A105642011090716260141                                                
6024600035000112509903023413750600035000799                                                                                     
7PESE                                                                                000000000035000                            
50002210201109072011090899030234750212       PES0000035000A016682011090718070095                                                
6024600035000112509903023475021200035000763                                                                                     
7PESE                                                                                000000000035000                            
50002310201109072011090899030235216759       PES0000035000A033992011090712020196                                                
6024600035000112509903023521675900035000700                                                                                     
7PESE                                                                                000000000035000                            
50002410201109072011090899030237040715       PES0000035000A042822011090718000172                                                
6024600035000112509903023704071500035000637                                                                                     
7PESE                                                                                000000000035000                            
50002510201109072011090899030237376363       PES0000035000A086842011090719270115                                                
6024600035000112509903023737636300035000742                                                                                     
7PESE                                                                                000000000035000                            
50002610201109072011090801280423745885       PES0000036500A078942011090717460015                                                
6024600036500112500128042374588500000000021                                                                                     
7PESE                                                                                000000000036500                            
50002710201109072011090801280520034556       PES0000036500A062272011090710130018                                                
6024600036500112500128052003455600000000099                                                                                     
7PESE                                                                                000000000036500                            
50002810201109072011090801280520491327       PES0000036500A074252011090709280070                                                
6024600036500112500128052049132700000000084                                                                                     
7PESE                                                                                000000000036500                            
50002910201109072011090801281520350130       PES0000036500A037312011090712490145                                                
6024600036500112500128152035013000000000000                                                                                     
7PESE                                                                                000000000036500                            
50003010201109072011090801280422802080       PES0000036500A086832011090709050023                                                
6024600036500112510128042280208000000000042                                                                                     
7PESE                                                                                000000000036500                            
50003110201109072011090801282228299762       PES0000036500A082002011090721290209                                                
6024600036500112530128222829976200000000000                                                                                     
7PESE                                                                                000000000036500                            
50003210201109072011090801280326194526       PES0000036500A034162011090719480310                                                
6024600036500112550128032619452600000000058                                                                                     
7PESE                                                                                000000000036500                            
50003310201109072011090801280135235540       PES0000036500A055102011090712070063                                                
6024600036500112560128013523554000000000021                                                                                     
7PESE                                                                                000000000036500                            
82011090800000100000330000009956750000000000000000000000000000000000000000033                                                   
9201109080000010000033000000995675000000000000000000000000000000000000000000033                                                 
