120120409PAGO FACIL               090060246FABIAN NORBERTO D´ERAMO                                                              
320120409000001FABIAN NORBERTO D´ERAMO                                                                                          
50000110201204042012040902350813994786       PES0000029000A112392012040409360103                                                
6024600029000121010235081399478600040000090                                                                                     
7PESE                                                                                000000000029000                            
50000210201204042012040902353627071224       PES0000017000A112392012040409360104                                                
6024600017000121010235362707122400030000000                                                                                     
7PESE                                                                                000000000017000                            
50000310201204042012040902353628037626       PES0000017000A074672012040411400145                                                
6024600017000121020235362803762600030000036                                                                                     
7PESE                                                                                000000000017000                            
50000410201204042012040902350523599625       PES0000029000A070632012040412220243                                                
6024600029000120990235052359962500040000063                                                                                     
7PESE                                                                                000000000029000                            
50000510201204042012040900702523687452       PES0000020000A048332012040414490056                                                
6024600020000120990070252368745200020000278                                                                                     
7PESE                                                                                000000000020000                            
50000610201204042012040918390621138136       PES0000020000A063972012040414440241                                                
6024600020000120961839062113813600000000078                                                                                     
7PESE                                                                                000000000020000                            
50000710201204042012040999030235755195       PES0000037000A051312012040416210161                                                
6024600037000120989903023575519500035000357                                                                                     
7PESE                                                                                000000000037000                            
50000810201204042012040918390618268656       PES0000020000A092152012040413570047                                                
6024600020000120981839061826865600000000084                                                                                     
7PESE                                                                                000000000020000                            
50000910201204042012040918390494515687       PES0000020000D000152012040411360053                                                
6024600020000120971839049451568700000000079                                                                                     
7PESE                                                                                000000000020000                            
50001010201204042012040900702136982255       PES0000020000A112852012040415220074                                                
6024600020000120990070213698225500020000163                                                                                     
7PESE                                                                                000000000020000                            
50001110201204042012040900704741565096       PES0000007000A088012012040413010203                                                
6024600007000120990070474156509600015000137                                                                                     
7PESE                                                                                000000000007000                            
50001210201204042012040900703108093434       PES0000020000A680152012040409130012                                                
6024600020000120990070310809343400020000258                                                                                     
7PESE                                                                                000000000020000                            
50001310201204042012040902353821545809       PES0000017000A105382012040415390006                                                
6024600017000121010235382154580900030000084                                                                                     
7PESE                                                                                000000000017000                            
50001410201204042012040999030135367974       PES0000037000A099242012040418280057                                                
6024600037000120989903013536797400035000400                                                                                     
7PESE                                                                                000000000037000                            
50001510201204042012040918390621471024       PES0000020000A113032012040415190111                                                
6024600020000120971839062147102400000000000                                                                                     
7PESE                                                                                000000000020000                            
50001610201204042012040999030237542373       PES0000043000A107892012040419290382                                                
6024600043000120989903023754237300035000484                                                                                     
7PESE                                                                                000000000043000                            
50001710201204042012040999030134750212       PES0000037000A016682012040419000114                                                
6024600037000120989903013475021200035000499                                                                                     
7PESE                                                                                000000000037000                            
50001810201204042012040902353822166098       PES0000017000A033762012040417010135                                                
6024600017000121020235382216609800030000057                                                                                     
7PESE                                                                                000000000017000                            
50001910201204042012040902350621909301       PES0000029000A033762012040417010136                                                
6024600029000121020235062190930100040000063                                                                                     
7PESE                                                                                000000000029000                            
50002010201204042012040999030230289341       PES0000037000A082952012040418280221                                                
6024600037000120989903023028934100035000384                                                                                     
7PESE                                                                                000000000037000                            
50002110201204042012040900704041199198       PES0000020000A025052012040420270101                                                
6024600020000120950070404119919800020000000                                                                                     
7PESE                                                                                000000000020000                            
50002210201204042012040900705811353883       PES0000020000A097452012040414010045                                                
6024600020000120970070581135388300020000090                                                                                     
7PESE                                                                                000000000020000                            
50002310201204042012040900704041875251       PES0000020000A091192012040419540255                                                
6024600020000120960070404187525100020000078                                                                                     
7PESE                                                                                000000000020000                            
50002410201204042012040918390522840928       PES0000020000M620412012040409360008                                                
6024600020000120981839052284092800000000021                                                                                     
7PESE                                                                                000000000020000                            
50002510201204042012040999030293925151       PES0000037000M600112012040415460311                                                
6024600037000120979903029392515100035000016                                                                                     
7PESE                                                                                000000000037000                            
50002610201204052012040999030133912987       PES0000037000A086342012040417150107                                                
6024600037000120989903013391298700035000499                                                                                     
7PESE                                                                                000000000037000                            
50002710201204072012040999030134515650       PES0000037000A084942012040418560205                                                
6024600037000120989903013451565000035000421                                                                                     
7PESE                                                                                000000000037000                            
50002810201204052012040918390236089355       PES0000020000A111102012040510250035                                                
6024600020000120981839023608935500000000063                                                                                     
7PESE                                                                                000000000020000                            
50002910201204052012040999030132638684       PES0000037000D000572012040512160025                                                
6024600037000120989903013263868400035000584                                                                                     
7PESE                                                                                000000000037000                            
50003010201204052012040918390425978511       PES0000020000A106942012040511450016                                                
6024600020000120981839042597851100000000037                                                                                     
7PESE                                                                                000000000020000                            
50003110201204052012040999030128324126       PES0000037000D000492012040513270307                                                
6024600037000120989903012832412600035000415                                                                                     
7PESE                                                                                000000000037000                            
50003210201204052012040900702426196454       PES0000020000A044382012040512540200                                                
6024600020000120990070242619645400020000416                                                                                     
7PESE                                                                                000000000020000                            
50003310201204052012040999030136943330       PES0000037000A088552012040514530132                                                
6024600037000120989903013694333000035000557                                                                                     
7PESE                                                                                000000000037000                            
50003410201204052012040900704742397066       PES0000007000A602232012040513210019                                                
6024600007000120990070474239706600015000157                                                                                     
7PESE                                                                                000000000007000                            
50003510201204062012040902350332554625       PES0000029000A054272012040610090021                                                
6024600029000120990235033255462500040000021                                                                                     
7PESE                                                                                000000000029000                            
50003610201204062012040900704742462943       PES0000007000A094892012040611260068                                                
6024600007000120990070474246294300015000116                                                                                     
7PESE                                                                                000000000007000                            
50003710201204062012040900704741208907       PES0000007000A094892012040611260069                                                
6024600007000120990070474120890700015000142                                                                                     
7PESE                                                                                000000000007000                            
50003810201204072012040999030116975364       PES0000037000A081572012040711480129                                                
6024600037000120989903011697536400035000600                                                                                     
7PESE                                                                                000000000037000                            
50003910201204072012040999030130219518       PES0000037000A076782012040712530132                                                
6024600037000120989903013021951800035000742                                                                                     
7PESE                                                                                000000000037000                            
50004010201204072012040999030137040715       PES0000037000A042822012040711460050                                                
6024600037000120989903013704071500035000536                                                                                     
7PESE                                                                                000000000037000                            
50004110201204072012040918392622717120       PES0000020000A063972012040716390016                                                
6024600020000120981839262271712000000000079                                                                                     
7PESE                                                                                000000000020000                            
50004210201204072012040900702525433673       PES0000020000A025052012040716030041                                                
6024600020000120990070252543367300020000484                                                                                     
7PESE                                                                                000000000020000                            
50004310201204072012040999030129118464       PES0000037000D001472012040719030251                                                
6024600037000120989903012911846400035000799                                                                                     
7PESE                                                                                000000000037000                            
50004410201204072012040918390233026621       PES0000020000A016352012040714410416                                                
6024600020000120981839023302662100000000063                                                                                     
7PESE                                                                                000000000020000                            
50004510201204072012040900704235430981       PES0000020000L120102012040710127831                                                
6024600020000120990070423543098100020000463                                                                                     
7PESE                                                                                000000000020000                            
50004610201204082012040900703008529149       PES0000020000A111392012040811030015                                                
6024600020000120990070300852914900020000115                                                                                     
7PESE                                                                                000000000020000                            
82012040900000100000460000011530000000000000000000000000000000000000000000046                                                   
9201204090000010000046000001153000000000000000000000000000000000000000000000046                                                 
