120121109PAGO FACIL               090060246FABIAN NORBERTO D´ERAMO                                                              
320121109000001FABIAN NORBERTO D´ERAMO                                                                                          
50000110201211082012110901331811759030       PES0000052000A092102012110710130088                                                
6024600052000123170133181175903000080000058                                                                                     
7PESE                                                                                000000000052000                            
50000210201211082012110901331616478703       PES0000052000A072902012110713240097                                                
6024600052000123120133161647870300080000021                                                                                     
7PESE                                                                                000000000052000                            
50000310201211082012110952010523573612       PES0000011000A112852012110718000274                                                
6024600010000123055201052357361200010007657                                                                                     
7PESE                                                                                000000000011000                            
50000410201211082012110971001322782990       PES0000008000A075692012110813560269                                                
6024600008000123137100132278299000000000016                                                                                     
7PESE                                                                                000000000008000                            
50000510201211082012110952010621300438       PES0000011000A029772012110818270207                                                
6024600011000123135201062130043800000000042                                                                                     
7PESE                                                                                000000000011000                            
50000610201211082012110952010717110395       PES0000011000A118512012110814280320                                                
6024600011000123135201071711039500000000078                                                                                     
7PESE                                                                                000000000011000                            
50000710201211082012110998010132578482       PES0000015000L070522012110811549654                                                
6024600015000123069801013257848200000000742                                                                                     
7PESE                                                                                000000000015000                            
50000810201211082012110998010131455042       PES0000015000L070522012110815219746                                                
6024600015000123209801013145504200000000042                                                                                     
7PESE                                                                                000000000015000                            
50000910201211082012110972000213330137       PES0000020000L070602012110820116270                                                
6024600020000123147200021333013700000000037                                                                                     
7PESE                                                                                000000000020000                            
50001010201211082012110999020235178748       PES0000022000L070292012110812476054                                                
6024600022000123129902023517874800000000790                                                                                     
7PESE                                                                                000000000022000                            
50001110201211082012110999020235592295       PES0000022000L070292012110812476053                                                
6024600022000123129902023559229500000000778                                                                                     
7PESE                                                                                000000000022000                            
50001210201211082012110999020236256413       PES0000022000A074272012110818540288                                                
6024600022000123209902023625641300000000036                                                                                     
7PESE                                                                                000000000022000                            
50001310201211082012110929081320863227       PES0000023000A091662012110813220187                                                
6024600023000123152908132086322700020000057                                                                                     
7PESE                                                                                000000000023000                            
50001410201211082012110929081316168839       PES0000023000A074252012110812090281                                                
6024600023000123192908131616883900020000078                                                                                     
7PESE                                                                                000000000023000                            
50001510201211082012110999030132631425       PES0000046500A063632012110819260014                                                
6024600046500123209903013263142500025000021                                                                                     
7PESE                                                                                000000000046500                            
50001610201211082012110901330134517298       PES0000052000A113532012110816100010                                                
6024600052000123130133013451729800080000078                                                                                     
7PESE                                                                                000000000052000                            
50001710201211082012110901330520392836       PES0000052000A053122012110816110150                                                
6024600052000123130133052039283600080000084                                                                                     
7PESE                                                                                000000000052000                            
50001810201211082012110901331230346978       PES0000052000A092132012110809250004                                                
6024600052000123130133123034697800080000021                                                                                     
7PESE                                                                                000000000052000                            
50001910201211082012110901331423472872       PES0000052000A102852012110811340125                                                
6024600052000123140133142347287200080000079                                                                                     
7PESE                                                                                000000000052000                            
50002010201211082012110901330327788554       PES0000052000A100912012110814500046                                                
6024600052000123180133032778855400080000063                                                                                     
7PESE                                                                                000000000052000                            
50002110201211082012110901331328698515       PES0000052000A100912012110814500045                                                
6024600052000123180133132869851500080000090                                                                                     
7PESE                                                                                000000000052000                            
50002210201211082012110901330424664128       PES0000052000A088382012110818290066                                                
6024600052000123190133042466412800080000063                                                                                     
7PESE                                                                                000000000052000                            
82012110900000100000220000007175000000000000000000000000000000000000000000022                                                   
9201211090000010000022000000717500000000000000000000000000000000000000000000022                                                 
