120111109PAGO FACIL               090060246FABIAN NORBERTO D´ERAMO                                                              
320111109000001FABIAN NORBERTO D´ERAMO                                                                                          
50000110201111082011110900574743034953       PES0000008500A020992011110814200143                                                
6024600008500113140057474303495300000000090                                                                                     
7PESE                                                                                000000000008500                            
50000210201111082011110929060222904032       PES0000010000A601432011110813140157                                                
6024600010000113122906022290403200030000599                                                                                     
7PESE                                                                                000000000010000                            
50000310201111082011110929060223248459       PES0000010000A079082011110817020009                                                
6024600010000113122906022324845900030000699                                                                                     
7PESE                                                                                000000000010000                            
50000410201111082011110929060227859022       PES0000010000A101582011110810110146                                                
6024600010000113122906022785902200030000284                                                                                     
7PESE                                                                                000000000010000                            
50000510201111082011110929060292469202       PES0000010000A106782011110815030105                                                
6024600010000113122906029246920200030000199                                                                                     
7PESE                                                                                000000000010000                            
50000610201111082011110929060822403561       PES0000010000A601432011110813130156                                                
6024600010000113122906082240356100030000579                                                                                     
7PESE                                                                                000000000010000                            
50000710201111082011110946071527859022       PES0000012000A101582011110810110147                                                
6024600012000113144607152785902200020000058                                                                                     
7PESE                                                                                000000000012000                            
50000810201111082011110900574136846574       PES0000022000M600182011110810400016                                                
6024600022000113130057413684657400000000016                                                                                     
7PESE                                                                                000000000022000                            
50000910201111082011110900574235976561       PES0000022000A600182011110811470084                                                
6024600022000113190057423597656100000000063                                                                                     
7PESE                                                                                000000000022000                            
50001010201111082011110900581020435876       PES0000022500L120202011110815401622                                                
6024600022500113140058102043587600025000090                                                                                     
7PESE                                                                                000000000022500                            
50001110201111082011110999040126939107       PES0000025000A093412011110811420186                                                
6024600023500113119904012693910700015000736                                                                                     
7PESE                                                                                000000000025000                            
50001210201111082011110999030234750212       PES0000038500A106552011110815580142                                                
6024600035000113119903023475021200035000790                                                                                     
7PESE                                                                                000000000038500                            
50001310201111082011110901290524608328       PES0000037000A048412011110812230388                                                
6024600037000113130129052460832800000000079                                                                                     
7PESE                                                                                000000000037000                            
50001410201111082011110901290813940933       PES0000037000A073842011110818390030                                                
6024600037000113170129081394093300000000079                                                                                     
7PESE                                                                                000000000037000                            
50001510201111082011110901290233297128       PES0000037000A057002011110812360229                                                
6024600037000113180129023329712800000000058                                                                                     
7PESE                                                                                000000000037000                            
50001610201111082011110901290524283472       PES0000037000A055332011110814350017                                                
6024600037000113180129052428347200000000037                                                                                     
7PESE                                                                                000000000037000                            
50001710201111082011110901290718131346       PES0000037000A091772011110816250429                                                
6024600037000113180129071813134600000000036                                                                                     
7PESE                                                                                000000000037000                            
50001810201111082011110999030225909375       PES0000038500A069092011110818320227                                                
6024600038500113199903022590937500025000037                                                                                     
7PESE                                                                                000000000038500                            
82011110900000100000180000004240000000000000000000000000000000000000000000018                                                   
9201111090000010000018000000424000000000000000000000000000000000000000000000018                                                 
