120120510PAGO FACIL               090060246FABIAN NORBERTO D´ERAMO                                                              
320120510000001FABIAN NORBERTO D´ERAMO                                                                                          
50000110201205092012051002363531532456       PES0000017000A109282012050911580218                                                
6024600017000121310236353153245600030000421                                                                                     
7PESE                                                                                000000000017000                            
50000210201205092012051002360622278111       PES0000025000A090532012050914380322                                                
6024600025000121310236062227811100050000621                                                                                     
7PESE                                                                                000000000025000                            
50000310201205092012051099030136087988       PES0000040500A103582012050912120249                                                
6024600040500121369903013608798800025000021                                                                                     
7PESE                                                                                000000000040500                            
50000410201205092012051099030229921135       PES0000046500A094052012050912010071                                                
6024600046500121369903022992113500025000084                                                                                     
7PESE                                                                                000000000046500                            
50000510201205092012051099030232639591       PES0000046500A028662012050912590012                                                
6024600046500121369903023263959100025000036                                                                                     
7PESE                                                                                000000000046500                            
50000610201205092012051099030232944859       PES0000046500A095132012050912260192                                                
6024600046500121369903023294485900025000000                                                                                     
7PESE                                                                                000000000046500                            
50000710201205092012051099030235271379       PES0000046500A051342012050915410071                                                
6024600046500121369903023527137900025000142                                                                                     
7PESE                                                                                000000000046500                            
50000810201205092012051099030235804671       PES0000046500A089892012050918060075                                                
6024600046500121369903023580467100025000190                                                                                     
7PESE                                                                                000000000046500                            
50000910201205092012051099030236399887       PES0000046500A100112012050915380030                                                
6024600046500121369903023639988700025000084                                                                                     
7PESE                                                                                000000000046500                            
50001010201205092012051099030236931489       PES0000046500A111372012050917220132                                                
6024600046500121369903023693148900025000157                                                                                     
7PESE                                                                                000000000046500                            
82012051000000100000100000004080000000000000000000000000000000000000000000010                                                   
9201205100000010000010000000408000000000000000000000000000000000000000000000010                                                 
