120120411PAGO FACIL               090060246FABIAN NORBERTO D´ERAMO                                                              
320120411000001FABIAN NORBERTO D´ERAMO                                                                                          
50000110201204102012041102353432822895       PES0000017000A091472012041015390472                                                
6024600017000121010235343282289500030000099                                                                                     
7PESE                                                                                000000000017000                            
50000210201204102012041102353724448461       PES0000017000A092162012041014280413                                                
6024600017000121010235372444846100030000090                                                                                     
7PESE                                                                                000000000017000                            
50000310201204102012041102354013140445       PES0000017000A085922012041010210093                                                
6024600017000121010235401314044500030000000                                                                                     
7PESE                                                                                000000000017000                            
50000410201204102012041100702814233062       PES0000022000A070932012041010430094                                                
6024600020000120990070281423306200020000437                                                                                     
7PESE                                                                                000000000022000                            
50000510201204102012041100700924269017       PES0000022000A082602012041016490221                                                
6024600022000121030070092426901700000000042                                                                                     
7PESE                                                                                000000000022000                            
50000610201204102012041102350428505764       PES0000029000A110092012041019030208                                                
6024600029000121010235042850576400040000021                                                                                     
7PESE                                                                                000000000029000                            
50000710201204102012041102350618587368       PES0000029000A058122012041018430077                                                
6024600029000121010235061858736800040000036                                                                                     
7PESE                                                                                000000000029000                            
50000810201204102012041102350331171238       PES0000029000A038092012041009000045                                                
6024600029000121070235033117123800040000090                                                                                     
7PESE                                                                                000000000029000                            
50000910201204102012041102350426871483       PES0000029000A083092012041016130180                                                
6024600029000121080235042687148300040000000                                                                                     
7PESE                                                                                000000000029000                            
50001010201204102012041199030136399286       PES0000040500A042332012041013060189                                                
6024600037000120989903013639928600035000300                                                                                     
7PESE                                                                                000000000040500                            
50001110201204102012041199030131075840       PES0000040500A072152012041010430063                                                
6024600040500121069903013107584000025000121                                                                                     
7PESE                                                                                000000000040500                            
50001210201204102012041199030134722750       PES0000040500A094932012041015330031                                                
6024600040500121069903013472275000025000242                                                                                     
7PESE                                                                                000000000040500                            
50001310201204102012041199030137376363       PES0000040500A112442012041013220101                                                
6024600040500121069903013737636300025000299                                                                                     
7PESE                                                                                000000000040500                            
50001410201204102012041156001924083001       PES0000042000A106292012041010120003                                                
6024600042000121045600192408300100000000090                                                                                     
7PESE                                                                                000000000042000                            
50001510201204102012041199030230515091       PES0000043000A098562012041010250002                                                
6024600043000121029903023051509100035000484                                                                                     
7PESE                                                                                000000000043000                            
82012041100000100000150000004580000000000000000000000000000000000000000000015                                                   
9201204110000010000015000000458000000000000000000000000000000000000000000000015                                                 
