120111011PAGO FACIL               090060246FABIAN NORBERTO D´ERAMO                                                              
320111011000001FABIAN NORBERTO D´ERAMO                                                                                          
50000110201110072011101100532811220418       PES0000029000A049072011100711470234                                                
6024600029000112800053281122041800020000057                                                                                     
7PESE                                                                                000000000029000                            
50000210201110072011101199040223968701       PES0000015000A602122011100712150058                                                
6024600015000112809904022396870100025000763                                                                                     
7PESE                                                                                000000000015000                            
50000310201110072011101199030233896263       PES0000035000A035262011100711430067                                                
6024600035000112809903023389626300035000616                                                                                     
7PESE                                                                                000000000035000                            
50000410201110072011101100530714240593       PES0000038500A075232011100713180279                                                
6024600038500112830053071424059300010000300                                                                                     
7PESE                                                                                000000000038500                            
50000510201110072011101100530133740393       PES0000038500A088162011100714440038                                                
6024600038500112800053013374039300010000021                                                                                     
7PESE                                                                                000000000038500                            
50000610201110072011101100532618234030       PES0000029000A064332011100712530147                                                
6024600029000112830053261823403000020000378                                                                                     
7PESE                                                                                000000000029000                            
50000710201110072011101100530325983384       PES0000038500A039232011100715120162                                                
6024600038500112830053032598338400010000142                                                                                     
7PESE                                                                                000000000038500                            
50000810201110072011101199030233259978       PES0000035000A102852011100713120166                                                
6024600035000112809903023325997800035000721                                                                                     
7PESE                                                                                000000000035000                            
50000910201110072011101199030293925151       PES0000035000A085342011100716260108                                                
6024600035000112809903029392515100035000758                                                                                     
7PESE                                                                                000000000035000                            
50001010201110072011101199030235216759       PES0000035000A028472011100716420118                                                
6024600035000112809903023521675900035000715                                                                                     
7PESE                                                                                000000000035000                            
50001110201110072011101199030231075840       PES0000035000A096252011100716030149                                                
6024600035000112809903023107584000035000721                                                                                     
7PESE                                                                                000000000035000                            
50001210201110072011101100502426044379       PES0000027500A087052011100717590191                                                
6024600027500112840050242604437900000000021                                                                                     
7PESE                                                                                000000000027500                            
50001310201110072011101100501625060277       PES0000027500A083472011100718120133                                                
6024600027500112850050162506027700000000078                                                                                     
7PESE                                                                                000000000027500                            
50001410201110072011101100530713940933       PES0000038500A074252011100718150147                                                
6024600038500112830053071394093300010000484                                                                                     
7PESE                                                                                000000000038500                            
50001510201110072011101199030226735116       PES0000035000A048292011100716330018                                                
6024600035000112809903022673511600035000700                                                                                     
7PESE                                                                                000000000035000                            
50001610201110072011101199030230219518       PES0000035000A076782011100718160195                                                
6024600035000112809903023021951800035000684                                                                                     
7PESE                                                                                000000000035000                            
50001710201110072011101199030234515650       PES0000035000A084942011100717540031                                                
6024600035000112809903023451565000035000537                                                                                     
7PESE                                                                                000000000035000                            
50001810201110072011101100502716056136       PES0000027500A077842011100718210075                                                
6024600027500112850050271605613600000000079                                                                                     
7PESE                                                                                000000000027500                            
50001910201110072011101199040218317913       PES0000015000A093092011100718090111                                                
6024600015000112809904021831791300025000758                                                                                     
7PESE                                                                                000000000015000                            
50002010201110072011101100504329329386       PES0000027500A088622011100717360184                                                
6024600027500112870050432932938600000000000                                                                                     
7PESE                                                                                000000000027500                            
50002110201110072011101199030228324126       PES0000035000A037762011100719500463                                                
6024600035000112809903022832412600035000799                                                                                     
7PESE                                                                                000000000035000                            
50002210201110072011101129060318487366       PES0000010000A103902011100719250025                                                
6024600010000112802906031848736600030000016                                                                                     
7PESE                                                                                000000000010000                            
50002310201110072011101100534024366177       PES0000029000M600832011100714520180                                                
6024600029000112830053402436617700020000215                                                                                     
7PESE                                                                                000000000029000                            
50002410201110082011101120040224498485       PES0000006000A066582011100809470037                                                
6024600006000112832004022449848500000000037                                                                                     
7PESE                                                                                000000000006000                            
50002510201110082011101100504330986313       PES0000027500A029312011100810270002                                                
6024600027500112810050433098631300000000021                                                                                     
7PESE                                                                                000000000027500                            
50002610201110082011101100530521723759       PES0000038500A091562011100812180293                                                
6024600038500112830053052172375900010000058                                                                                     
7PESE                                                                                000000000038500                            
50002710201110082011101100504424904887       PES0000027500A092472011100812130121                                                
6024600027500112860050442490488700000000079                                                                                     
7PESE                                                                                000000000027500                            
50002810201110082011101100533725848301       PES0000029000A110372011100812200057                                                
6024600029000112830053372584830100020000416                                                                                     
7PESE                                                                                000000000029000                            
50002910201110082011101100533729591394       PES0000029000A100912011100816450011                                                
6024600029000112830053372959139400020000442                                                                                     
7PESE                                                                                000000000029000                            
50003010201110082011101100502235103620       PES0000027500A058512011100816430006                                                
6024600027500112870050223510362000000000015                                                                                     
7PESE                                                                                000000000027500                            
50003110201110092011101100500729623672       PES0000027500A084992011100912200007                                                
6024600027500112870050072962367200000000000                                                                                     
7PESE                                                                                000000000027500                            
50003210201110102011101120040325731703       PES0000006000A048462011101011470035                                                
6024600006000112832004032573170300000000021                                                                                     
7PESE                                                                                000000000006000                            
50003310201110102011101100502523515771       PES0000027500D000492011101020070706                                                
6024600027500112830050252351577100000000084                                                                                     
7PESE                                                                                000000000027500                            
50003410201110102011101100533936397651       PES0000029000A080382011101019370145                                                
6024600029000112830053393639765100020000779                                                                                     
7PESE                                                                                000000000029000                            
50003510201110102011101100530518223360       PES0000038500A059512011101018510208                                                
6024600038500112830053051822336000010000379                                                                                     
7PESE                                                                                000000000038500                            
82011101100000100000350000010195000000000000000000000000000000000000000000035                                                   
9201110110000010000035000001019500000000000000000000000000000000000000000000035                                                 
