120110711PAGO FACIL               090060246FABIAN NORBERTO D´ERAMO                                                              
320110711000001FABIAN NORBERTO D´ERAMO                                                                                          
50000110201107082011071199030233528113       PES0000038500A083222011070816530131                                                
6024600035000111889903023352811300035000415                                                                                     
7PESE                                                                                000000000038500                            
50000210201107082011071199030233896263       PES0000038500A083222011070816540132                                                
6024600035000111889903023389626300035000484                                                                                     
7PESE                                                                                000000000038500                            
82011071100000100000020000000770000000000000000000000000000000000000000000002                                                   
9201107110000010000002000000077000000000000000000000000000000000000000000000002                                                 
