120121011PAGO FACIL               090060246FABIAN NORBERTO D´ERAMO                                                              
320121011000001FABIAN NORBERTO D´ERAMO                                                                                          
50000110201210102012101169001326170058       PES0000006000A110272012101019370206                                                
6024600006000122916900132617005800000000000                                                                                     
7PESE                                                                                000000000006000                            
50000210201210102012101144022137362430       PES0000008000A070622012101010110208                                                
6024600008000122844402213736243000000000000                                                                                     
7PESE                                                                                000000000008000                            
50000310201210102012101120050132862857       PES0000008000A602332012101011580145                                                
6024600008000122852005013286285700000000058                                                                                     
7PESE                                                                                000000000008000                            
50000410201210102012101120050218486297       PES0000008000A066582012101016410029                                                
6024600008000122852005021848629700000000000                                                                                     
7PESE                                                                                000000000008000                            
50000510201210102012101120050423447127       PES0000008000A066582012101016410030                                                
6024600008000122852005042344712700000000042                                                                                     
7PESE                                                                                000000000008000                            
50000610201210102012101144020332996181       PES0000008500A014732012101016560230                                                
6024600008500122894402033299618100000000063                                                                                     
7PESE                                                                                000000000008500                            
50000710201210102012101165000223475085       PES0000013000A049072012101018520117                                                
6024600013000122846500022347508500015000021                                                                                     
7PESE                                                                                000000000013000                            
50000810201210102012101165000132614807       PES0000013000D001622012101009440022                                                
6024600013000122856500013261480700015000063                                                                                     
7PESE                                                                                000000000013000                            
50000910201210102012101165000132604704       PES0000013000D001622012101009440021                                                
6024600013000122906500013260470400015000036                                                                                     
7PESE                                                                                000000000013000                            
50001010201210102012101165000227547320       PES0000013000A090762012101011510357                                                
6024600013000122906500022754732000015000084                                                                                     
7PESE                                                                                000000000013000                            
50001110201210102012101165000520987341       PES0000013000D000732012101014070130                                                
6024600013000122906500052098734100015000063                                                                                     
7PESE                                                                                000000000013000                            
50001210201210102012101118402816262078       PES0000015000A056902012101010500118                                                
6024600015000122841840281626207800100000042                                                                                     
7PESE                                                                                000000000015000                            
50001310201210102012101169012717739862       PES0000015000L071192012101015450803                                                
6024600015000122846901271773986200025000021                                                                                     
7PESE                                                                                000000000015000                            
50001410201210102012101118402526708339       PES0000015000A109842012101013290001                                                
6024600015000122851840252670833900100000084                                                                                     
7PESE                                                                                000000000015000                            
50001510201210102012101118400236273467       PES0000015000A115602012101014110239                                                
6024600015000122871840023627346700100000379                                                                                     
7PESE                                                                                000000000015000                            
50001610201210102012101118400429523178       PES0000015000A095492012101013050247                                                
6024600015000122871840042952317800100000357                                                                                     
7PESE                                                                                000000000015000                            
50001710201210102012101168000620012045       PES0000016000L120182012101010000146                                                
6024600016000122856800062001204500000000063                                                                                     
7PESE                                                                                000000000016000                            
50001810201210102012101168001318436696       PES0000016000L120182012101010000147                                                
6024600016000122856800131843669600000000057                                                                                     
7PESE                                                                                000000000016000                            
50001910201210102012101100752427308019       PES0000022500A031192012101017540063                                                
6024600022500122910075242730801900020000063                                                                                     
7PESE                                                                                000000000022500                            
50002010201210102012101156010232523990       PES0000023000A085552012101013030009                                                
6024600023000122855601023252399000000000063                                                                                     
7PESE                                                                                000000000023000                            
50002110201210102012101156010522717321       PES0000023000M600302012101014500251                                                
6024600023000122855601052271732100000000090                                                                                     
7PESE                                                                                000000000023000                            
50002210201210102012101156011134504557       PES0000023000A085552012101013030008                                                
6024600023000122855601113450455700000000063                                                                                     
7PESE                                                                                000000000023000                            
50002310201210102012101156010714321502       PES0000023000A014522012101021540423                                                
6024600023000122875601071432150200000000036                                                                                     
7PESE                                                                                000000000023000                            
50002410201210102012101100540437110422       PES0000026000A010432012101013550181                                                
6024600026000122850054043711042200010000015                                                                                     
7PESE                                                                                000000000026000                            
50002510201210102012101100540434630666       PES0000026000A092152012101017160580                                                
6024600026000122910054043463066600010000000                                                                                     
7PESE                                                                                000000000026000                            
50002610201210102012101199040137846112       PES0000030500A026772012101018440122                                                
6024600030500122899904013784611200015000058                                                                                     
7PESE                                                                                000000000030500                            
50002710201210102012101100712237018243       PES0000032500A091292012101016310007                                                
6024600032500122840071223701824300000000016                                                                                     
7PESE                                                                                000000000032500                            
50002810201210102012101100713728390435       PES0000032500A057002012101015520077                                                
6024600032500122840071372839043500000000058                                                                                     
7PESE                                                                                000000000032500                            
50002910201210102012101100713918048363       PES0000032500A085512012101018000161                                                
6024600032500122840071391804836300000000036                                                                                     
7PESE                                                                                000000000032500                            
50003010201210102012101100713728232249       PES0000032500A049072012101016530253                                                
6024600032500122850071372823224900000000036                                                                                     
7PESE                                                                                000000000032500                            
50003110201210102012101100714327344124       PES0000032500A015942012101009300042                                                
6024600032500122860071432734412400000000058                                                                                     
7PESE                                                                                000000000032500                            
50003210201210102012101100714608104267       PES0000032500A095462012101011550149                                                
6024600032500122860071460810426700000000058                                                                                     
7PESE                                                                                000000000032500                            
50003310201210102012101100714423769605       PES0000032500A074242012101016420008                                                
6024600032500122870071442376960500000000057                                                                                     
7PESE                                                                                000000000032500                            
50003410201210102012101100711431662499       PES0000032500A111272012101011360117                                                
6024600032500122880071143166249900000000084                                                                                     
7PESE                                                                                000000000032500                            
50003510201210102012101100713914157367       PES0000032500A092162012101016560560                                                
6024600032500122890071391415736700000000084                                                                                     
7PESE                                                                                000000000032500                            
50003610201210102012101100714424728025       PES0000032500A073062012101019200107                                                
6024600032500122890071442472802500000000015                                                                                     
7PESE                                                                                000000000032500                            
50003710201210102012101100714518028143       PES0000032500A092062012101010040082                                                
6024600032500122890071451802814300000000000                                                                                     
7PESE                                                                                000000000032500                            
50003810201210102012101100710430431951       PES0000032500A083092012101016250084                                                
6024600032500122900071043043195100000000021                                                                                     
7PESE                                                                                000000000032500                            
50003910201210102012101100711526891210       PES0000032500A091562012101017280520                                                
6024600032500122900071152689121000000000000                                                                                     
7PESE                                                                                000000000032500                            
50004010201210102012101100711722303528       PES0000032500A091562012101017270519                                                
6024600032500122900071172230352800000000090                                                                                     
7PESE                                                                                000000000032500                            
50004110201210102012101100712523322562       PES0000032500A042592012101008070001                                                
6024600032500122900071252332256200000000036                                                                                     
7PESE                                                                                000000000032500                            
50004210201210102012101100713826158065       PES0000032500A099522012101018040069                                                
6024600032500122900071382615806500000000063                                                                                     
7PESE                                                                                000000000032500                            
50004310201210102012101100712333547224       PES0000032500A074252012101012230300                                                
6024600032500122910071233354722400000000078                                                                                     
7PESE                                                                                000000000032500                            
50004410201210102012101100713636335932       PES0000032500A099522012101018040070                                                
6024600032500122910071363633593200000000057                                                                                     
7PESE                                                                                000000000032500                            
50004510201210102012101199030136352229       PES0000046500A034672012101020180183                                                
6024600043000122819903013635222900035000300                                                                                     
7PESE                                                                                000000000046500                            
50004610201210102012101100720523102556       PES0000047500A112852012101016440151                                                
6024600046500122790072052310255600010000500                                                                                     
7PESE                                                                                000000000047500                            
50004710201210102012101199030131344778       PES0000046500A095702012101018440172                                                
6024600046500122899903013134477800025000178                                                                                     
7PESE                                                                                000000000046500                            
50004810201210102012101199030132639591       PES0000046500A028662012101019290065                                                
6024600046500122899903013263959100025000179                                                                                     
7PESE                                                                                000000000046500                            
50004910201210102012101199030132769266       PES0000046500A090572012101014110310                                                
6024600046500122899903013276926600025000242                                                                                     
7PESE                                                                                000000000046500                            
50005010201210102012101199030133434151       PES0000046500A112902012101015040208                                                
6024600046500122899903013343415100025000042                                                                                     
7PESE                                                                                000000000046500                            
50005110201210102012101199030134630666       PES0000046500A092152012101017160581                                                
6024600046500122899903013463066600025000215                                                                                     
7PESE                                                                                000000000046500                            
50005210201210102012101199030136872631       PES0000046500A042822012101018180251                                                
6024600046500122899903013687263100025000190                                                                                     
7PESE                                                                                000000000046500                            
50005310201210102012101199030140497077       PES0000046500A079702012101016010098                                                
6024600046500122899903014049707700025000200                                                                                     
7PESE                                                                                000000000046500                            
50005410201210102012101100720231500174       PES0000047500A049072012101011320218                                                
6024600047500122880072023150017400000000090                                                                                     
7PESE                                                                                000000000047500                            
50005510201210102012101100721232970255       PES0000047500A049072012101011320217                                                
6024600047500122880072123297025500000000036                                                                                     
7PESE                                                                                000000000047500                            
50005610201210102012101100720618486297       PES0000047500A066582012101016410027                                                
6024600047500122910072061848629700000000000                                                                                     
7PESE                                                                                000000000047500                            
50005710201210102012101100721423447127       PES0000047500A066582012101016410028                                                
6024600047500122910072142344712700000000063                                                                                     
7PESE                                                                                000000000047500                            
82012101100000100000570000016100000000000000000000000000000000000000000000057                                                   
9201210110000010000057000001610000000000000000000000000000000000000000000000057                                                 
