120120111PAGO FACIL               090060246FABIAN NORBERTO D´ERAMO                                                              
320120111000001FABIAN NORBERTO D´ERAMO                                                                                          
50000110201201102012011100630726280769       PES0000011900A050122012011017300080                                                
6024600011900120120063072628076900000000079                                                                                     
7PESE                                                                                000000000011900                            
50000210201201102012011102322538842061       PES0000015000A026682012011015390173                                                
6024600015000120100232253884206100050000584                                                                                     
7PESE                                                                                000000000015000                            
50000310201201102012011102322726425105       PES0000015000A004102012011019190186                                                
6024600015000120100232272642510500050000721                                                                                     
7PESE                                                                                000000000015000                            
50000410201201102012011102322825181249       PES0000015000M600022012011014430251                                                
6024600015000120100232282518124900050000163                                                                                     
7PESE                                                                                000000000015000                            
50000510201201102012011102322825682249       PES0000015000A004102012011019190187                                                
6024600015000120100232282568224900050000657                                                                                     
7PESE                                                                                000000000015000                            
50000610201201102012011102322825875374       PES0000015000D001462012011012350358                                                
6024600015000120100232282587537400050000284                                                                                     
7PESE                                                                                000000000015000                            
50000710201201102012011102323234525079       PES0000015000A104982012011011540142                                                
6024600015000120100232323452507900050000600                                                                                     
7PESE                                                                                000000000015000                            
50000810201201102012011102323328037626       PES0000015000M600172012011015590324                                                
6024600015000120100232332803762600050000615                                                                                     
7PESE                                                                                000000000015000                            
50000910201201102012011102323328166221       PES0000015000D001462012011012350357                                                
6024600015000120100232332816622100050000221                                                                                     
7PESE                                                                                000000000015000                            
50001010201201102012011102323331088552       PES0000015000A105982012011011010134                                                
6024600015000120100232333108855200050000421                                                                                     
7PESE                                                                                000000000015000                            
50001110201201102012011102323424448461       PES0000015000A092152012011012590319                                                
6024600015000120100232342444846100050000621                                                                                     
7PESE                                                                                000000000015000                            
50001210201201102012011100600617365827       PES0000019000M620732012011012440163                                                
6024600019000120100060061736582700060000690                                                                                     
7PESE                                                                                000000000019000                            
50001310201201102012011102320233118797       PES0000025000A044382012011018460161                                                
6024600025000120100232023311879700030000615                                                                                     
7PESE                                                                                000000000025000                            
50001410201201102012011102320236405575       PES0000025000M601282012011013350161                                                
6024600025000120100232023640557500030000721                                                                                     
7PESE                                                                                000000000025000                            
50001510201201102012011102320316919167       PES0000025000A069132012011017330210                                                
6024600025000120100232031691916700030000779                                                                                     
7PESE                                                                                000000000025000                            
50001610201201102012011102320329503995       PES0000025000M600852012011010570103                                                
6024600025000120100232032950399500030000678                                                                                     
7PESE                                                                                000000000025000                            
50001710201201102012011102320330815359       PES0000025000A044382012011018460160                                                
6024600025000120100232033081535900030000615                                                                                     
7PESE                                                                                000000000025000                            
50001810201201102012011102320426769483       PES0000025000A031212012011012380343                                                
6024600025000120100232042676948300030000790                                                                                     
7PESE                                                                                000000000025000                            
50001910201201102012011102320523787418       PES0000025000A035802012011010560068                                                
6024600025000120100232052378741800030000784                                                                                     
7PESE                                                                                000000000025000                            
50002010201201102012011102320524424705       PES0000025000A104982012011013150179                                                
6024600025000120100232052442470500030000779                                                                                     
7PESE                                                                                000000000025000                            
50002110201201102012011102320620213151       PES0000025000A107842012011019210137                                                
6024600025000120100232062021315100030000600                                                                                     
7PESE                                                                                000000000025000                            
50002210201201102012011102320620249201       PES0000025000M601512012011012260049                                                
6024600025000120100232062024920100030000658                                                                                     
7PESE                                                                                000000000025000                            
50002310201201102012011102320620636671       PES0000025000A091652012011016450434                                                
6024600025000120100232062063667100030000063                                                                                     
7PESE                                                                                000000000025000                            
50002410201201102012011102320622434017       PES0000025000A026742012011011030079                                                
6024600025000120100232062243401700030000657                                                                                     
7PESE                                                                                000000000025000                            
50002510201201102012011102320716204549       PES0000025000A092172012011014280440                                                
6024600025000120100232071620454900030000778                                                                                     
7PESE                                                                                000000000025000                            
50002610201201102012011102320717739390       PES0000025000A103152012011018220179                                                
6024600025000120100232071773939000030000700                                                                                     
7PESE                                                                                000000000025000                            
50002710201201102012011102321513265499       PES0000025000A069132012011017340211                                                
6024600025000120100232151326549900030000716                                                                                     
7PESE                                                                                000000000025000                            
50002810201201102012011102321525430045       PES0000025000A099462012011012150039                                                
6024600025000120100232152543004500030000763                                                                                     
7PESE                                                                                000000000025000                            
50002910201201102012011102321620226257       PES0000025000A091652012011016450435                                                
6024600025000120100232162022625700030000779                                                                                     
7PESE                                                                                000000000025000                            
50003010201201102012011102322026280769       PES0000025000A050122012011017300079                                                
6024600025000120100232202628076900030000742                                                                                     
7PESE                                                                                000000000025000                            
50003110201201102012011199030235216759       PES0000040500A042822012011016200309                                                
6024600040500120159903023521675900025000100                                                                                     
7PESE                                                                                000000000040500                            
50003210201201102012011199030237376363       PES0000040500A109832012011012050125                                                
6024600040500120159903023737636300025000142                                                                                     
7PESE                                                                                000000000040500                            
50003310201201102012011123060726711185       PES0000108800L071212012011019292930                                                
6024600108800120102306072671118500128000042                                                                                     
7PESE                                                                                000000000108800                            
50003410201201102012011123060635034371       PES0000108800M620002012011009300065                                                
6024600108800120152306063503437100128000190                                                                                     
7PESE                                                                                000000000108800                            
50003510201201102012011123060723053148       PES0000108800M620752012011015020170                                                
6024600108800120152306072305314800128000284                                                                                     
7PESE                                                                                000000000108800                            
50003610201201102012011123060834951201       PES0000108800L070022012011016419813                                                
6024600108800120152306083495120100128000136                                                                                     
7PESE                                                                                000000000108800                            
50003710201201102012011123061234590961       PES0000121600M660032012011012200279                                                
6024600121600120102306123459096100150000063                                                                                     
7PESE                                                                                000000000121600                            
50003810201201102012011123061839737201       PES0000121600A081942012011008450061                                                
6024600121600120102306183973720100150000063                                                                                     
7PESE                                                                                000000000121600                            
50003910201201102012011123061238094705       PES0000121600M600872012011013350149                                                
6024600121600120132306123809470500150000063                                                                                     
7PESE                                                                                000000000121600                            
50004010201201102012011123061423111782       PES0000121600A020722012011010420109                                                
6024600121600120152306142311178200150000137                                                                                     
7PESE                                                                                000000000121600                            
50004110201201102012011123061522350615       PES0000121600A020722012011010420108                                                
6024600121600120152306152235061500150000137                                                                                     
7PESE                                                                                000000000121600                            
82012011100000100000410000017551000000000000000000000000000000000000000000041                                                   
9201201110000010000041000001755100000000000000000000000000000000000000000000041                                                 
