120110912PAGO FACIL               090060246FABIAN NORBERTO D´ERAMO                                                              
320110912000001FABIAN NORBERTO D´ERAMO                                                                                          
50000110201109092011091201280713114669       PES0000036500A620812011090910230105                                                
6024600036500112570128071311466900000000058                                                                                     
7PESE                                                                                000000000036500                            
50000210201109092011091217020813413799       PES0000020000A105302011090911040067                                                
6024600020000112571702081341379900000000021                                                                                     
7PESE                                                                                000000000020000                            
50000310201109092011091217020621417674       PES0000020000A105302011090911060068                                                
6024600020000112581702062141767400000000000                                                                                     
7PESE                                                                                000000000020000                            
50000410201109092011091200530616768842       PES0000038500A056212011090912590141                                                
6024600038500112580053061676884200010000021                                                                                     
7PESE                                                                                000000000038500                            
50000510201109092011091201280713900160       PES0000036500A620812011090912400027                                                
6024600036500112590128071390016000000000057                                                                                     
7PESE                                                                                000000000036500                            
50000610201109092011091200502137018243       PES0000024500A091292011090910410170                                                
6024600024500112560050213701824300030000079                                                                                     
7PESE                                                                                000000000024500                            
50000710201109092011091200502620004185       PES0000024500D000052011090917070308                                                
6024600024500112570050262000418500030000090                                                                                     
7PESE                                                                                000000000024500                            
50000810201109092011091200504517286427       PES0000024500D000152011090914170137                                                
6024600024500112590050451728642700030000063                                                                                     
7PESE                                                                                000000000024500                            
50000910201109092011091217021316634066       PES0000020000A039692011090917530073                                                
6024600020000112541702131663406600000000090                                                                                     
7PESE                                                                                000000000020000                            
50001010201109092011091200502525440784       PES0000024500A091472011090914030160                                                
6024600024500112570050252544078400030000063                                                                                     
7PESE                                                                                000000000024500                            
50001110201109092011091200502331570025       PES0000024500D000692011090916380105                                                
6024600024500112580050233157002500030000021                                                                                     
7PESE                                                                                000000000024500                            
50001210201109092011091201280230346978       PES0000036500D000232011090910410021                                                
6024600036500112580128023034697800000000015                                                                                     
7PESE                                                                                000000000036500                            
50001310201109092011091200530137597042       PES0000038500A002372011090909580055                                                
6024600038500112520053013759704200010000099                                                                                     
7PESE                                                                                000000000038500                            
50001410201109092011091201281422569445       PES0000036500A098142011090914210080                                                
6024600036500112520128142256944500000000000                                                                                     
7PESE                                                                                000000000036500                            
50001510201109092011091200533821993524       PES0000029000A094512011090918110121                                                
6024600029000112580053382199352400020000000                                                                                     
7PESE                                                                                000000000029000                            
50001610201109092011091200502622156297       PES0000024500A090052011090918130006                                                
6024600024500112530050262215629700030000021                                                                                     
7PESE                                                                                000000000024500                            
50001710201109092011091200501432223641       PES0000024500M601312011090913530076                                                
6024600024500112590050143222364100030000058                                                                                     
7PESE                                                                                000000000024500                            
50001810201109092011091200540493925151       PES0000017500M600132011090915180319                                                
6024600017500112540054049392515100015000042                                                                                     
7PESE                                                                                000000000017500                            
50001910201109092011091201282522210943       PES0000036500M740042011090909380059                                                
6024600036500112550128252221094300000000063                                                                                     
7PESE                                                                                000000000036500                            
50002010201109102011091201282222112549       PES0000036500A086282011090917500064                                                
6024600036500112590128222211254900000000090                                                                                     
7PESE                                                                                000000000036500                            
50002110201109102011091201281424518036       PES0000036500A083202011091010060013                                                
6024600036500112530128142451803600000000000                                                                                     
7PESE                                                                                000000000036500                            
50002210201109102011091200501430855190       PES0000024500A090572011091011060096                                                
6024600024500112580050143085519000030000084                                                                                     
7PESE                                                                                000000000024500                            
50002310201109102011091200503730181486       PES0000024500A032732011091010090058                                                
6024600024500112540050373018148600030000000                                                                                     
7PESE                                                                                000000000024500                            
50002410201109102011091217020813100089       PES0000020000L120042011091011370716                                                
6024600020000112591702081310008900000000015                                                                                     
7PESE                                                                                000000000020000                            
82011091200000100000240000006795000000000000000000000000000000000000000000024                                                   
9201109120000010000024000000679500000000000000000000000000000000000000000000024                                                 
