120121012PAGO FACIL               090060246FABIAN NORBERTO D´ERAMO                                                              
320121012000001FABIAN NORBERTO D´ERAMO                                                                                          
50000110201210112012101218402527500011       PES0000015000A017262012100912520189                                                
6024600015000122861840252750001100100000000                                                                                     
7PESE                                                                                000000000015000                            
50000210201210112012101200714518196333       PES0000032500A014602012101017560049                                                
6024600032500122850071451819633300000000016                                                                                     
7PESE                                                                                000000000032500                            
50000310201210112012101200714423221665       PES0000032500A014602012101017570050                                                
6024600032500122850071442322166500000000090                                                                                     
7PESE                                                                                000000000032500                            
50000410201210112012101200712816056136       PES0000032500M620162012101017350047                                                
6024600032500122850071281605613600000000042                                                                                     
7PESE                                                                                000000000032500                            
50000510201210112012101269000231092082       PES0000006000A621082012101109470015                                                
6024600006000122916900023109208200000000079                                                                                     
7PESE                                                                                000000000006000                            
50000610201210112012101269001421501049       PES0000006000A110282012101111090021                                                
6024600006000122916900142150104900000000037                                                                                     
7PESE                                                                                000000000006000                            
50000710201210112012101220050128829948       PES0000008000M600332012101114290028                                                
6024600008000122852005012882994800000000099                                                                                     
7PESE                                                                                000000000008000                            
50000810201210112012101220050134175023       PES0000008000A095462012101112250130                                                
6024600008000122852005013417502300000000063                                                                                     
7PESE                                                                                000000000008000                            
50000910201210112012101220050211858547       PES0000008000M600332012101114270027                                                
6024600008000122852005021185854700000000000                                                                                     
7PESE                                                                                000000000008000                            
50001010201210112012101220050329322235       PES0000008000A085332012101118480109                                                
6024600008000122852005032932223500000000063                                                                                     
7PESE                                                                                000000000008000                            
50001110201210112012101220050422460206       PES0000008000A096972012101111300094                                                
6024600008000122852005042246020600000000090                                                                                     
7PESE                                                                                000000000008000                            
50001210201210112012101220050529006370       PES0000008000A117912012101111190023                                                
6024600008000122852005052900637000000000037                                                                                     
7PESE                                                                                000000000008000                            
50001310201210112012101244020426769908       PES0000008500A104982012101116150204                                                
6024600008500122854402042676990800000000078                                                                                     
7PESE                                                                                000000000008500                            
50001410201210112012101252011917224807       PES0000010000A086982012101116180032                                                
6024600010000122865201191722480700010000099                                                                                     
7PESE                                                                                000000000010000                            
50001510201210112012101200714743442480       PES0000011500A093812012101109480037                                                
6024600011500122900071474344248000000000063                                                                                     
7PESE                                                                                000000000011500                            
50001610201210112012101265000222642319       PES0000013000M601192012101113390052                                                
6024600013000122856500022264231900015000000                                                                                     
7PESE                                                                                000000000013000                            
50001710201210112012101265000226561963       PES0000013000A085512012101112420201                                                
6024600013000122856500022656196300015000079                                                                                     
7PESE                                                                                000000000013000                            
50001810201210112012101271000922642319       PES0000013000M601192012101113390051                                                
6024600013000122857100092264231900000000099                                                                                     
7PESE                                                                                000000000013000                            
50001910201210112012101265000226440454       PES0000013000A075022012101117060262                                                
6024600013000122866500022644045400015000000                                                                                     
7PESE                                                                                000000000013000                            
50002010201210112012101218402624851288       PES0000015000A002542012101110260056                                                
6024600015000122851840262485128800100000021                                                                                     
7PESE                                                                                000000000015000                            
50002110201210112012101218403129126226       PES0000015000A113852012101112050033                                                
6024600015000122851840312912622600100000099                                                                                     
7PESE                                                                                000000000015000                            
50002210201210112012101218400234155460       PES0000015000A021442012101114410249                                                
6024600015000122871840023415546000100000015                                                                                     
7PESE                                                                                000000000015000                            
50002310201210112012101218400234376783       PES0000015000A055772012101111460066                                                
6024600015000122871840023437678300100000378                                                                                     
7PESE                                                                                000000000015000                            
50002410201210112012101218400235096708       PES0000015000L120212012101112061792                                                
6024600015000122871840023509670800100000590                                                                                     
7PESE                                                                                000000000015000                            
50002510201210112012101218400427778371       PES0000015000D001632012101114350340                                                
6024600015000122871840042777837100100000137                                                                                     
7PESE                                                                                000000000015000                            
50002610201210112012101218400429033473       PES0000015000A085512012101118250093                                                
6024600015000122871840042903347300100000142                                                                                     
7PESE                                                                                000000000015000                            
50002710201210112012101218402431227051       PES0000015000A068892012101114430001                                                
6024600015000122871840243122705100100000578                                                                                     
7PESE                                                                                000000000015000                            
50002810201210112012101218402433087514       PES0000015000A113132012101117020253                                                
6024600015000122871840243308751400100000184                                                                                     
7PESE                                                                                000000000015000                            
50002910201210112012101218402526282587       PES0000015000A093212012101115470321                                                
6024600015000122871840252628258700100000584                                                                                     
7PESE                                                                                000000000015000                            
50003010201210112012101229080316592508       PES0000015000A088612012101113260278                                                
6024600015000122892908031659250800030000079                                                                                     
7PESE                                                                                000000000015000                            
50003110201210112012101268000426505142       PES0000016000A089882012101110570015                                                
6024600016000122876800042650514200000000000                                                                                     
7PESE                                                                                000000000016000                            
50003210201210112012101268000622213058       PES0000016000A111392012101118150011                                                
6024600016000122876800062221305800000000000                                                                                     
7PESE                                                                                000000000016000                            
50003310201210112012101256011714726644       PES0000023000L120102012101109265692                                                
6024600023000122875601171472664400000000037                                                                                     
7PESE                                                                                000000000023000                            
50003410201210112012101229081416347275       PES0000023000A075362012101109380069                                                
6024600023000122892908141634727500020000057                                                                                     
7PESE                                                                                000000000023000                            
50003510201210112012101200540431925405       PES0000026000M600742012101112580098                                                
6024600026000122850054043192540500010000000                                                                                     
7PESE                                                                                000000000026000                            
50003610201210112012101200714041208907       PES0000032500A118992012101119350080                                                
6024600032500122850071404120890700000000063                                                                                     
7PESE                                                                                000000000032500                            
50003710201210112012101200714326769908       PES0000032500A104982012101116150205                                                
6024600032500122850071432676990800000000084                                                                                     
7PESE                                                                                000000000032500                            
50003810201210112012101200712720049054       PES0000032500A101062012101109340028                                                
6024600032500122860071272004905400000000042                                                                                     
7PESE                                                                                000000000032500                            
50003910201210112012101200710829758167       PES0000032500D001132012101112180074                                                
6024600032500122870071082975816700000000016                                                                                     
7PESE                                                                                000000000032500                            
50004010201210112012101200711336733751       PES0000032500M660032012101110230172                                                
6024600032500122900071133673375100000000000                                                                                     
7PESE                                                                                000000000032500                            
50004110201210112012101200712331789147       PES0000032500A065832012101115030003                                                
6024600032500122910071233178914700000000042                                                                                     
7PESE                                                                                000000000032500                            
50004210201210112012101200712427602256       PES0000032500A078732012101116340006                                                
6024600032500122910071242760225600000000079                                                                                     
7PESE                                                                                000000000032500                            
50004310201210112012101200713823066622       PES0000032500A001862012101111040044                                                
6024600032500122920071382306662200000000099                                                                                     
7PESE                                                                                000000000032500                            
50004410201210112012101200714517687789       PES0000032500A112632012101113430148                                                
6024600032500122920071451768778900000000063                                                                                     
7PESE                                                                                000000000032500                            
50004510201210112012101200723424379321       PES0000037500A073612012101118450241                                                
6024600037500122870072342437932100000000015                                                                                     
7PESE                                                                                000000000037500                            
50004610201210112012101200722247744292       PES0000037500M600712012101110390052                                                
6024600037500122910072224774429200000000015                                                                                     
7PESE                                                                                000000000037500                            
50004710201210112012101200722892156241       PES0000037500M600712012101110380051                                                
6024600037500122910072289215624100000000016                                                                                     
7PESE                                                                                000000000037500                            
50004810201210112012101200723332311273       PES0000037500A092252012101116100338                                                
6024600037500122920072333231127300000000099                                                                                     
7PESE                                                                                000000000037500                            
50004910201210112012101200724017527222       PES0000037500M601502012101115230020                                                
6024600037500122920072401752722200000000057                                                                                     
7PESE                                                                                000000000037500                            
50005010201210112012101299030133708869       PES0000046500A034742012101115050270                                                
6024600043000122819903013370886900035000479                                                                                     
7PESE                                                                                000000000046500                            
50005110201210112012101299030134949488       PES0000046500A100712012101117030105                                                
6024600046500122899903013494948800025000157                                                                                     
7PESE                                                                                000000000046500                            
50005210201210112012101200720811154803       PES0000047500A055332012101113440063                                                
6024600047500122890072081115480300000000015                                                                                     
7PESE                                                                                000000000047500                            
50005310201210112012101200720117256724       PES0000047500A032962012101112080087                                                
6024600047500122910072011725672400000000079                                                                                     
7PESE                                                                                000000000047500                            
50005410201210112012101200720117256724       PES0000047500A032962012101112070086                                                
6024600047500122910072011725672400000000079                                                                                     
7PESE                                                                                000000000047500                            
50005510201210112012101200720425598904       PES0000047500A103032012101112170124                                                
6024600047500122910072042559890400000000078                                                                                     
7PESE                                                                                000000000047500                            
50005610201210112012101200720521486409       PES0000047500A008222012101116150212                                                
6024600047500122910072052148640900000000000                                                                                     
7PESE                                                                                000000000047500                            
50005710201210112012101200720714768684       PES0000047500A091782012101112300185                                                
6024600047500122910072071476868400000000000                                                                                     
7PESE                                                                                000000000047500                            
50005810201210112012101200720717256724       PES0000047500A032962012101112090088                                                
6024600047500122910072071725672400000000021                                                                                     
7PESE                                                                                000000000047500                            
50005910201210112012101200720217256724       PES0000047500A032962012101112100089                                                
6024600047500122920072021725672400000000042                                                                                     
7PESE                                                                                000000000047500                            
50006010201210112012101200720617799310       PES0000047500A086812012101115110071                                                
6024600047500122920072061779931000000000036                                                                                     
7PESE                                                                                000000000047500                            
50006110201210112012101260000533247599       PES0000085000A103962012101112350110                                                
6024600085000122916000053324759900000000042                                                                                     
7PESE                                                                                000000000085000                            
82012101200000100000610000016090000000000000000000000000000000000000000000061                                                   
9201210120000010000061000001609000000000000000000000000000000000000000000000061                                                 
