120120612PAGO FACIL               090060246FABIAN NORBERTO D´ERAMO                                                              
320120612000001FABIAN NORBERTO D´ERAMO                                                                                          
50000110201206112012061257001411692611       PES0000012000A110152012061110590081                                                
6024600012000121675700141169261100010000363                                                                                     
7PESE                                                                                000000000012000                            
50000210201206112012061202370716288417       PES0000025000A099242012061113480210                                                
6024600025000121620237071628841700050000563                                                                                     
7PESE                                                                                000000000025000                            
50000310201206112012061202370524307457       PES0000030000A112442012061118260020                                                
6024600030000121670237052430745700000000037                                                                                     
7PESE                                                                                000000000030000                            
50000410201206112012061202370621433416       PES0000030000A070632012061113430225                                                
6024600030000121670237062143341600000000099                                                                                     
7PESE                                                                                000000000030000                            
50000510201206112012061299030132769266       PES0000046500A090542012061116480003                                                
6024600046500121679903013276926600025000099                                                                                     
7PESE                                                                                000000000046500                            
50000610201206112012061299030133036717       PES0000046500A073822012061110130076                                                
6024600046500121679903013303671700025000336                                                                                     
7PESE                                                                                000000000046500                            
50000710201206112012061299030134318531       PES0000046500A074192012061118490022                                                
6024600046500121679903013431853100025000336                                                                                     
7PESE                                                                                000000000046500                            
50000810201206112012061299030137461688       PES0000046500A080692012061116530077                                                
6024600046500121679903013746168800025000358                                                                                     
7PESE                                                                                000000000046500                            
82012061200000100000080000002830000000000000000000000000000000000000000000008                                                   
9201206120000010000008000000283000000000000000000000000000000000000000000000008                                                 
