120111012PAGO FACIL               090060246FABIAN NORBERTO D´ERAMO                                                              
320111012000001FABIAN NORBERTO D´ERAMO                                                                                          
50000110201110112011101220040221317476       PES0000006000A104352011100717300089                                                
6024600006000112832004022131747600000000063                                                                                     
7PESE                                                                                000000000006000                            
50000210201110112011101220040335254382       PES0000006000A091872011101118160581                                                
6024600006000112912004033525438200000000090                                                                                     
7PESE                                                                                000000000006000                            
50000310201110112011101229060413264866       PES0000010000A091142011101114260408                                                
6024600010000112872906041326486600030000078                                                                                     
7PESE                                                                                000000000010000                            
50000410201110112011101200585617665137       PES0000018500A035912011101114540027                                                
6024600018500112850058561766513700040000016                                                                                     
7PESE                                                                                000000000018500                            
50000510201110112011101200502618422753       PES0000027500M601192011101111580072                                                
6024600027500112840050261842275300000000063                                                                                     
7PESE                                                                                000000000027500                            
50000610201110112011101200504425058300       PES0000027500A050522011101120080444                                                
6024600027500112840050442505830000000000042                                                                                     
7PESE                                                                                000000000027500                            
50000710201110112011101200504325263253       PES0000027500A064702011101115120009                                                
6024600027500112860050432526325300000000099                                                                                     
7PESE                                                                                000000000027500                            
50000810201110112011101200502813974445       PES0000027500M620162011101108310001                                                
6024600027500112900050281397444500000000016                                                                                     
7PESE                                                                                000000000027500                            
50000910201110112011101200503441073135       PES0000027500A035802011101120510583                                                
6024600027500112910050344107313500000000078                                                                                     
7PESE                                                                                000000000027500                            
50001010201110112011101200530328391234       PES0000039500A075742011101118150173                                                
6024600038500112830053032839123400010000121                                                                                     
7PESE                                                                                000000000039500                            
50001110201110112011101200530714459909       PES0000039500A077372011101115280048                                                
6024600038500112830053071445990900010000700                                                                                     
7PESE                                                                                000000000039500                            
50001210201110112011101200530811478442       PES0000039500A090612011101114380367                                                
6024600038500112830053081147844200010000336                                                                                     
7PESE                                                                                000000000039500                            
50001310201110112011101299030229118464       PES0000038500A042822011101113490019                                                
6024600038500112889903022911846400025000378                                                                                     
7PESE                                                                                000000000038500                            
50001410201110112011101299030233897409       PES0000038500A094052011101112300177                                                
6024600038500112889903023389740900025000342                                                                                     
7PESE                                                                                000000000038500                            
50001510201110112011101299030237040715       PES0000038500A042822011101120070066                                                
6024600038500112889903023704071500025000079                                                                                     
7PESE                                                                                000000000038500                            
50001610201110112011101299030237376363       PES0000038500A086842011101118340327                                                
6024600038500112889903023737636300025000057                                                                                     
7PESE                                                                                000000000038500                            
82011101200000100000160000004505000000000000000000000000000000000000000000016                                                   
9201110120000010000016000000450500000000000000000000000000000000000000000000016                                                 
