120110812PAGO FACIL               090060246FABIAN NORBERTO D´ERAMO                                                              
320110812000001FABIAN NORBERTO D´ERAMO                                                                                          
50000110201108112011081200504423468719       PES0000019500A104942011081017340180                                                
6024600019500112290050442346871900050000057                                                                                     
7PESE                                                                                000000000019500                            
50000210201108112011081200504514499127       PES0000019500A098582011081019240115                                                
6024600019500112240050451449912700050000063                                                                                     
7PESE                                                                                000000000019500                            
50000310201108112011081244010525427611       PES0000006000A091052011081115040444                                                
6024600006000112244401052542761100010000084                                                                                     
7PESE                                                                                000000000006000                            
50000410201108112011081299020132507294       PES0000015000M600852011081116110218                                                
6024600015000112279902013250729400000000284                                                                                     
7PESE                                                                                000000000015000                            
50000510201108112011081217020621578616       PES0000016000M700002011081113270136                                                
6024600016000112281702062157861600040000090                                                                                     
7PESE                                                                                000000000016000                            
50000610201108112011081217020329845908       PES0000016000A640242011081110350051                                                
6024600016000112301702032984590800040000099                                                                                     
7PESE                                                                                000000000016000                            
50000710201108112011081202302421446214       PES0000016500A620572011081111440041                                                
6024600016500112270230242144621400070000378                                                                                     
7PESE                                                                                000000000016500                            
50000810201108112011081200540316975364       PES0000017500A081572011081112060092                                                
6024600017500112230054031697536400015000021                                                                                     
7PESE                                                                                000000000017500                            
50000910201108112011081200540330531074       PES0000017500D001412011081116470054                                                
6024600017500112230054033053107400015000000                                                                                     
7PESE                                                                                000000000017500                            
50001010201108112011081200501432173639       PES0000019500A092152011081109160011                                                
6024600019500112230050143217363900050000016                                                                                     
7PESE                                                                                000000000019500                            
50001110201108112011081200502331062294       PES0000019500A082852011081118490124                                                
6024600019500112240050233106229400050000016                                                                                     
7PESE                                                                                000000000019500                            
50001210201108112011081200503802230948       PES0000019500L120162011081110153118                                                
6024600019500112260050380223094800050000015                                                                                     
7PESE                                                                                000000000019500                            
50001310201108112011081200502911849493       PES0000019500A010562011081111090124                                                
6024600019500112270050291184949300050000015                                                                                     
7PESE                                                                                000000000019500                            
50001410201108112011081200503823967493       PES0000019500A058062011081112150174                                                
6024600019500112290050382396749300050000015                                                                                     
7PESE                                                                                000000000019500                            
50001510201108112011081200504332091447       PES0000019500A043162011081110430044                                                
6024600019500112290050433209144700050000042                                                                                     
7PESE                                                                                000000000019500                            
50001610201108112011081200502716891150       PES0000019500A102242011081116010123                                                
6024600019500112300050271689115000050000084                                                                                     
7PESE                                                                                000000000019500                            
50001710201108112011081200503233547224       PES0000019500L071192011081112223856                                                
6024600019500112300050323354722400050000042                                                                                     
7PESE                                                                                000000000019500                            
50001810201108112011081299040132507294       PES0000025000M600852011081116120219                                                
6024600025000112279904013250729400000000200                                                                                     
7PESE                                                                                000000000025000                            
50001910201108112011081299040134998991       PES0000025000A096952011081116080283                                                
6024600025000112279904013499899100000000258                                                                                     
7PESE                                                                                000000000025000                            
50002010201108112011081200532812366415       PES0000026000A090762011081112200290                                                
6024600026000112300053281236641500030000063                                                                                     
7PESE                                                                                000000000026000                            
50002110201108112011081202300328741842       PES0000031500A042592011081111560001                                                
6024600031500112270230032874184200030000315                                                                                     
7PESE                                                                                000000000031500                            
50002210201108112011081202300523599625       PES0000031500M601842011081109230011                                                
6024600031500112270230052359962500030000363                                                                                     
7PESE                                                                                000000000031500                            
50002310201108112011081201280231851063       PES0000034500A620302011081108260006                                                
6024600034500112250128023185106300000000000                                                                                     
7PESE                                                                                000000000034500                            
50002410201108112011081201280521600874       PES0000034500A076122011081115000216                                                
6024600034500112250128052160087400000000058                                                                                     
7PESE                                                                                000000000034500                            
50002510201108112011081201282216425874       PES0000034500A100392011081116510233                                                
6024600034500112280128221642587400000000036                                                                                     
7PESE                                                                                000000000034500                            
50002610201108112011081299030230531074       PES0000038500D001412011081116470053                                                
6024600035000112199903023053107400035000457                                                                                     
7PESE                                                                                000000000038500                            
50002710201108112011081200530522598249       PES0000035000A002542011081110470072                                                
6024600035000112290053052259824900035000058                                                                                     
7PESE                                                                                000000000035000                            
50002810201108112011081201280132773158       PES0000036500M620042011081112200049                                                
6024600036500112290128013277315800000000058                                                                                     
7PESE                                                                                000000000036500                            
50002910201108112011081201280325708663       PES0000036500A620432011081110280003                                                
6024600036500112290128032570866300000000021                                                                                     
7PESE                                                                                000000000036500                            
50003010201108112011081201280425095179       PES0000036500A051302011081112580330                                                
6024600036500112290128042509517900000000000                                                                                     
7PESE                                                                                000000000036500                            
50003110201108112011081201280422840735       PES0000036500A104702011081120250069                                                
6024600036500112300128042284073500000000021                                                                                     
7PESE                                                                                000000000036500                            
50003210201108112011081201280520045080       PES0000036500A081792011081109110020                                                
6024600036500112300128052004508000000000057                                                                                     
7PESE                                                                                000000000036500                            
50003310201108112011081201280521407297       PES0000036500A054832011081120120233                                                
6024600036500112300128052140729700000000000                                                                                     
7PESE                                                                                000000000036500                            
50003410201108112011081201280521442955       PES0000036500A601492011081116180262                                                
6024600036500112300128052144295500000000037                                                                                     
7PESE                                                                                000000000036500                            
50003510201108112011081201282314233286       PES0000036500A038942011081116000180                                                
6024600036500112300128231423328600000000057                                                                                     
7PESE                                                                                000000000036500                            
50003610201108112011081299030233017000       PES0000038500A038432011081111380039                                                
6024600038500112279903023301700000025000221                                                                                     
7PESE                                                                                000000000038500                            
82011081200000100000360000009460000000000000000000000000000000000000000000036                                                   
9201108120000010000036000000946000000000000000000000000000000000000000000000036                                                 
