120120912PAGO FACIL               090060246FABIAN NORBERTO D´ERAMO                                                              
320120912000001FABIAN NORBERTO D´ERAMO                                                                                          
50000110201209112012091202411622970423       PES0000020000A077612012091015360163                                                
6024600020000122540241162297042300050000415                                                                                     
7PESE                                                                                000000000020000                            
50000210201209112012091244021717224807       PES0000007500A092072012091115290225                                                
6024600007500122574402171722480700010000016                                                                                     
7PESE                                                                                000000000007500                            
50000310201209112012091229080318368560       PES0000012000A087642012091112510240                                                
6024600012000122582908031836856000030000079                                                                                     
7PESE                                                                                000000000012000                            
50000410201209112012091265000517224807       PES0000013000A092072012091115290224                                                
6024600013000122576500051722480700015000078                                                                                     
7PESE                                                                                000000000013000                            
50000510201209112012091229081228297379       PES0000020000A070282012091113170356                                                
6024600020000122582908122829737900030000021                                                                                     
7PESE                                                                                000000000020000                            
50000610201209112012091229081634138556       PES0000020000A070282012091113180357                                                
6024600020000122622908163413855600030000090                                                                                     
7PESE                                                                                000000000020000                            
50000710201209112012091299020232638684       PES0000022000A089982012091115590216                                                
6024600022000122599902023263868400000000342                                                                                     
7PESE                                                                                000000000022000                            
50000810201209112012091200540436991781       PES0000026000A016702012091118360117                                                
6024600026000122610054043699178100010000078                                                                                     
7PESE                                                                                000000000026000                            
50000910201209112012091200713821003397       PES0000029000A089882012091113380049                                                
6024600029000122570071382100339700035000084                                                                                     
7PESE                                                                                000000000029000                            
50001010201209112012091200711720561274       PES0000029000A100392012091111470064                                                
6024600029000122580071172056127400035000036                                                                                     
7PESE                                                                                000000000029000                            
50001110201209112012091200711817537774       PES0000029000A085542012091109410033                                                
6024600029000122580071181753777400035000090                                                                                     
7PESE                                                                                000000000029000                            
50001210201209112012091200714330394654       PES0000029000A065952012091110260001                                                
6024600029000122590071433039465400035000058                                                                                     
7PESE                                                                                000000000029000                            
50001310201209112012091200714329040731       PES0000029000D001492012091110280102                                                
6024600029000122610071432904073100035000036                                                                                     
7PESE                                                                                000000000029000                            
50001410201209112012091200713441073135       PES0000029000A043482012091119240202                                                
6024600029000122620071344107313500035000000                                                                                     
7PESE                                                                                000000000029000                            
50001510201209112012091200714327668321       PES0000029000A092202012091110110054                                                
6024600029000122620071432766832100035000015                                                                                     
7PESE                                                                                000000000029000                            
50001610201209112012091200714333672784       PES0000029000D000492012091114300377                                                
6024600029000122620071433367278400035000021                                                                                     
7PESE                                                                                000000000029000                            
50001710201209112012091217030913752853       PES0000030000A103492012091118020113                                                
6024600030000122571703091375285300000000099                                                                                     
7PESE                                                                                000000000030000                            
50001810201209112012091217030722068797       PES0000030000A039692012091111370092                                                
6024600030000122611703072206879700000000042                                                                                     
7PESE                                                                                000000000030000                            
50001910201209112012091299040128324126       PES0000030500A037762012091118120144                                                
6024600030500122599904012832412600015000084                                                                                     
7PESE                                                                                000000000030500                            
50002010201209112012091299040130668939       PES0000030500M600372012091113390062                                                
6024600030500122599904013066893900015000263                                                                                     
7PESE                                                                                000000000030500                            
50002110201209112012091299040136087988       PES0000030500M601132012091115480402                                                
6024600030500122599904013608798800015000200                                                                                     
7PESE                                                                                000000000030500                            
50002210201209112012091299030136991781       PES0000039525A016702012091118360118                                                
6024600039525122599903013699178100021500284                                                                                     
7PESE                                                                                000000000039525                            
50002310201209112012091201320327562697       PES0000045000L120042012091112177997                                                
6024600045000122550132032756269700050000015                                                                                     
7PESE                                                                                000000000045000                            
50002410201209112012091201320328559504       PES0000045000A102862012091111160159                                                
6024600045000122550132032855950400050000021                                                                                     
7PESE                                                                                000000000045000                            
50002510201209112012091201320522534852       PES0000045000A098032012091120220108                                                
6024600045000122550132052253485200050000037                                                                                     
7PESE                                                                                000000000045000                            
50002610201209112012091201320137076641       PES0000045000A059362012091118100196                                                
6024600045000122560132013707664100050000000                                                                                     
7PESE                                                                                000000000045000                            
50002710201209112012091201320327131105       PES0000045000L070092012091116313815                                                
6024600045000122560132032713110500050000079                                                                                     
7PESE                                                                                000000000045000                            
50002810201209112012091201320329948809       PES0000045000A062612012091113360467                                                
6024600045000122570132032994880900050000016                                                                                     
7PESE                                                                                000000000045000                            
50002910201209112012091201320423289675       PES0000045000A100022012091109160060                                                
6024600045000122580132042328967500050000063                                                                                     
7PESE                                                                                000000000045000                            
50003010201209112012091201320230886946       PES0000045000A105972012091117280215                                                
6024600045000122600132023088694600050000121                                                                                     
7PESE                                                                                000000000045000                            
50003110201209112012091201320327327080       PES0000045000A085792012091115520174                                                
6024600045000122600132032732708000050000279                                                                                     
7PESE                                                                                000000000045000                            
50003210201209112012091201320425108661       PES0000045000A602062012091111140116                                                
6024600045000122600132042510866100050000190                                                                                     
7PESE                                                                                000000000045000                            
50003310201209112012091201320616715995       PES0000045000A055102012091110540055                                                
6024600045000122600132061671599500050000142                                                                                     
7PESE                                                                                000000000045000                            
50003410201209112012091201320713724109       PES0000045000A017122012091114470173                                                
6024600045000122600132071372410900050000263                                                                                     
7PESE                                                                                000000000045000                            
50003510201209112012091201320714688479       PES0000045000M620062012091109250005                                                
6024600045000122600132071468847900050000199                                                                                     
7PESE                                                                                000000000045000                            
50003610201209112012091299030132639591       PES0000046500A028662012091113230021                                                
6024600046500122599903013263959100025000342                                                                                     
7PESE                                                                                000000000046500                            
50003710201209112012091299030133597989       PES0000046500A085512012091118090211                                                
6024600046500122599903013359798900025000316                                                                                     
7PESE                                                                                000000000046500                            
50003810201209112012091200720423754240       PES0000046500A082642012091116040132                                                
6024600046500122610072042375424000010000099                                                                                     
7PESE                                                                                000000000046500                            
82012091200000100000380000012880250000000000000000000000000000000000000000038                                                   
9201209120000010000038000001288025000000000000000000000000000000000000000000038                                                 
