120121112PAGO FACIL               090060246FABIAN NORBERTO D´ERAMO                                                              
320121112000001FABIAN NORBERTO D´ERAMO                                                                                          
50000110201211092012111252011822595391       PES0000011000M600092012110813480346                                                
6024600010000123055201182259539100010007542                                                                                     
7PESE                                                                                000000000011000                            
50000210201211092012111252010523717224       PES0000011000M600092012110813480349                                                
6024600010000123055201052371722400010007521                                                                                     
7PESE                                                                                000000000011000                            
50000310201211092012111252011724759024       PES0000011000M600092012110813490351                                                
6024600011000123135201172475902400000000021                                                                                     
7PESE                                                                                000000000011000                            
50000410201211092012111201331716223785       PES0000052000A093952012110812430221                                                
6024600052000123190133171622378500080000000                                                                                     
7PESE                                                                                000000000052000                            
50000510201211092012111229081414139115       PES0000023000A107622012110909540062                                                
6024600023000123212908141413911500020000090                                                                                     
7PESE                                                                                000000000023000                            
50000610201211092012111201331423665207       PES0000052000A101722012110911590186                                                
6024600052000123190133142366520700080000063                                                                                     
7PESE                                                                                000000000052000                            
50000710201211092012111201331618409399       PES0000052000A056382012110912050147                                                
6024600052000123200133161840939900080000021                                                                                     
7PESE                                                                                000000000052000                            
50000810201211092012111218410645287639       PES0000025000A082982012110910540009                                                
6024600020000123071841064528763900050000779                                                                                     
7PESE                                                                                000000000025000                            
50000910201211092012111201331425838674       PES0000052000A095412012110914390120                                                
6024600052000123210133142583867400080000090                                                                                     
7PESE                                                                                000000000052000                            
50001010201211092012111201331716427083       PES0000052000A109842012110915010154                                                
6024600052000123200133171642708300080000037                                                                                     
7PESE                                                                                000000000052000                            
50001110201211092012111200751912588524       PES0000024500D000332012110913140173                                                
6024600024500123180075191258852400000000058                                                                                     
7PESE                                                                                000000000024500                            
50001210201211092012111299030136872631       PES0000046500A073822012110917000089                                                
6024600046500123209903013687263100025000100                                                                                     
7PESE                                                                                000000000046500                            
50001310201211092012111299020233747488       PES0000022000D001502012110910070025                                                
6024600022000123209902023374748800000000015                                                                                     
7PESE                                                                                000000000022000                            
50001410201211092012111201331811480274       PES0000052000A118102012110916570024                                                
6024600052000123160133181148027400080000079                                                                                     
7PESE                                                                                000000000052000                            
50001510201211092012111200774746817096       PES0000005500A109552012110915440001                                                
6024600005500123200077474681709600010000100                                                                                     
7PESE                                                                                000000000005500                            
50001610201211092012111201331425248455       PES0000052000M601652012110914170222                                                
6024600052000123180133142524845500080000016                                                                                     
7PESE                                                                                000000000052000                            
50001710201211092012111201331327131105       PES0000052000L070092012110912089188                                                
6024600052000123180133132713110500080000084                                                                                     
7PESE                                                                                000000000052000                            
50001810201211092012111298010134876164       PES0000015000L070522012110913230147                                                
6024600015000123209801013487616400000000057                                                                                     
7PESE                                                                                000000000015000                            
50001910201211092012111298010135591125       PES0000015000L070522012110916030233                                                
6024600015000123209801013559112500000000121                                                                                     
7PESE                                                                                000000000015000                            
50002010201211092012111229080135228648       PES0000015000M613512012110912060148                                                
6024600015000123182908013522864800030000084                                                                                     
7PESE                                                                                000000000015000                            
50002110201211102012111299030136070637       PES0000046500A028072012111009010054                                                
6024600046500123209903013607063700025000036                                                                                     
7PESE                                                                                000000000046500                            
50002210201211102012111229080322055787       PES0000015000A084922012111010540017                                                
6024600015000123222908032205578700030000042                                                                                     
7PESE                                                                                000000000015000                            
50002310201211102012111201330425872263       PES0000052000A116472012111011460012                                                
6024600052000123220133042587226300080000090                                                                                     
7PESE                                                                                000000000052000                            
50002410201211102012111201331716261074       PES0000052000A110612012111011560086                                                
6024600052000123170133171626107400080000084                                                                                     
7PESE                                                                                000000000052000                            
50002510201211102012111269014234435086       PES0000017500A080162012111012170195                                                
6024600017500123186901423443508600025000078                                                                                     
7PESE                                                                                000000000017500                            
50002610201211102012111299040133989486       PES0000030500A055792012111017450283                                                
6024600030500123209904013398948600015000184                                                                                     
7PESE                                                                                000000000030500                            
50002710201211102012111200774514051282       PES0000021000A118602012111010310011                                                
6024600021000123200077451405128200045000163                                                                                     
7PESE                                                                                000000000021000                            
50002810201211102012111229080820439302       PES0000015000A074152012111019490134                                                
6024600015000123162908082043930200030000057                                                                                     
7PESE                                                                                000000000015000                            
50002910201211102012111201331233026621       PES0000052000A036192012111010270054                                                
6024600052000123210133123302662100080000021                                                                                     
7PESE                                                                                000000000052000                            
50003010201211112012111200752330278898       PES0000024500A088632012111118080273                                                
6024600024500123160075233027889800000000084                                                                                     
7PESE                                                                                000000000024500                            
82012111200000100000300000009665000000000000000000000000000000000000000000030                                                   
9201211120000010000030000000966500000000000000000000000000000000000000000000030                                                 
