120111013PAGO FACIL               090060246FABIAN NORBERTO D´ERAMO                                                              
320111013000001FABIAN NORBERTO D´ERAMO                                                                                          
50000110201110122011101320040424695510       PES0000006000A046112011101211420086                                                
6024600006000112902004042469551000000000021                                                                                     
7PESE                                                                                000000000006000                            
50000210201110122011101320040405795711       PES0000006000A096182011101215150020                                                
6024600006000112912004040579571100000000079                                                                                     
7PESE                                                                                000000000006000                            
50000310201110122011101300574743721544       PES0000007000A041492011101215400100                                                
6024600007000112870057474372154400015000037                                                                                     
7PESE                                                                                000000000007000                            
50000410201110122011101329060317666180       PES0000010000A109842011101217410188                                                
6024600010000112912906031766618000030000084                                                                                     
7PESE                                                                                000000000010000                            
50000510201110122011101300572813687935       PES0000020000A025662011101210160101                                                
6024600020000112920057281368793500020000079                                                                                     
7PESE                                                                                000000000020000                            
50000610201110122011101300520629118793       PES0000026000A095502011101209040006                                                
6024600026000112880052062911879300000000063                                                                                     
7PESE                                                                                000000000026000                            
50000710201110122011101300504327680573       PES0000027500A092002011101216370460                                                
6024600027500112850050432768057300000000000                                                                                     
7PESE                                                                                000000000027500                            
50000810201110122011101300500524375075       PES0000027500A099612011101212020074                                                
6024600027500112860050052437507500000000037                                                                                     
7PESE                                                                                000000000027500                            
50000910201110122011101300504235322473       PES0000027500A069092011101216580097                                                
6024600027500112860050423532247300000000000                                                                                     
7PESE                                                                                000000000027500                            
50001010201110122011101300503729543063       PES0000027500A069512011101212420188                                                
6024600027500112870050372954306300000000021                                                                                     
7PESE                                                                                000000000027500                            
50001110201110122011101300504232897380       PES0000027500A025612011101219120319                                                
6024600027500112880050423289738000000000079                                                                                     
7PESE                                                                                000000000027500                            
50001210201110122011101300502235761677       PES0000027500A088422011101215460260                                                
6024600027500112900050223576167700000000057                                                                                     
7PESE                                                                                000000000027500                            
50001310201110122011101300504424963426       PES0000027500M600602011101212380130                                                
6024600027500112900050442496342600000000063                                                                                     
7PESE                                                                                000000000027500                            
50001410201110122011101301290428698515       PES0000037000A052592011101218250192                                                
6024600037000112910129042869851500000000021                                                                                     
7PESE                                                                                000000000037000                            
50001510201110122011101301290428042228       PES0000037000A070282011101216370369                                                
6024600037000112920129042804222800000000090                                                                                     
7PESE                                                                                000000000037000                            
50001610201110122011101301290525264786       PES0000037000A070632011101208040007                                                
6024600037000112920129052526478600000000000                                                                                     
7PESE                                                                                000000000037000                            
50001710201110122011101300530520838411       PES0000039500A058512011101216210085                                                
6024600038500112830053052083841100010000200                                                                                     
7PESE                                                                                000000000039500                            
50001810201110122011101300530325966397       PES0000039500A088382011101211250049                                                
6024600039500112920053032596639700000000063                                                                                     
7PESE                                                                                000000000039500                            
50001910201110122011101300530617484311       PES0000039500A098032011101218450046                                                
6024600039500112920053061748431100000000021                                                                                     
7PESE                                                                                000000000039500                            
50002010201110122011101346060410479159       PES0000040000A037602011101209560055                                                
6024600040000112904606041047915900080000016                                                                                     
7PESE                                                                                000000000040000                            
82011101300000100000200000005370000000000000000000000000000000000000000000020                                                   
9201110130000010000020000000537000000000000000000000000000000000000000000000020                                                 
