120120913PAGO FACIL               090060246FABIAN NORBERTO D´ERAMO                                                              
320120913000001FABIAN NORBERTO D´ERAMO                                                                                          
50000110201209122012091329081318305438       PES0000020000D001472012091214530318                                                
6024600020000122582908131830543800030000099                                                                                     
7PESE                                                                                000000000020000                            
50000210201209122012091300540440497077       PES0000026000A070612012091219310305                                                
6024600026000122610054044049707700010000099                                                                                     
7PESE                                                                                000000000026000                            
50000310201209122012091300714517856539       PES0000029000A093382012091209400012                                                
6024600029000122560071451785653900035000015                                                                                     
7PESE                                                                                000000000029000                            
50000410201209122012091300711722173685       PES0000029000A096932012091214420207                                                
6024600029000122580071172217368500035000079                                                                                     
7PESE                                                                                000000000029000                            
50000510201209122012091300714423724845       PES0000029000A043122012091216160018                                                
6024600029000122580071442372484500035000021                                                                                     
7PESE                                                                                000000000029000                            
50000610201209122012091300712236696637       PES0000029000M600342012091213390199                                                
6024600029000122610071223669663700035000000                                                                                     
7PESE                                                                                000000000029000                            
50000710201209122012091300712427089236       PES0000029000A090072012091211450198                                                
6024600029000122620071242708923600035000090                                                                                     
7PESE                                                                                000000000029000                            
50000810201209122012091300712912462169       PES0000029000A621232012091210260014                                                
6024600029000122620071291246216900035000000                                                                                     
7PESE                                                                                000000000029000                            
50000910201209122012091317030528568881       PES0000030000A110162012091216320018                                                
6024600030000122561703052856888100000000000                                                                                     
7PESE                                                                                000000000030000                            
50001010201209122012091317030124684169       PES0000030000A042632012091217230012                                                
6024600030000122601703012468416900000000078                                                                                     
7PESE                                                                                000000000030000                            
50001110201209122012091317030529623367       PES0000030000A093992012091218430032                                                
6024600030000122611703052962336700000000090                                                                                     
7PESE                                                                                000000000030000                            
50001210201209122012091317030623236018       PES0000030000A039692012091209140027                                                
6024600030000122621703062323601800000000084                                                                                     
7PESE                                                                                000000000030000                            
50001310201209122012091301320423632223       PES0000045000A068722012091211510073                                                
6024600045000122560132042363222300050000058                                                                                     
7PESE                                                                                000000000045000                            
50001410201209122012091301320425138456       PES0000045000A026032012091216250051                                                
6024600045000122560132042513845600050000099                                                                                     
7PESE                                                                                000000000045000                            
50001510201209122012091301320425578594       PES0000045000L070092012091212533911                                                
6024600045000122560132042557859400050000000                                                                                     
7PESE                                                                                000000000045000                            
50001610201209122012091301320520723927       PES0000045000A068722012091211510072                                                
6024600045000122560132052072392700050000084                                                                                     
7PESE                                                                                000000000045000                            
50001710201209122012091301320617935153       PES0000045000A068722012091211510074                                                
6024600045000122560132061793515300050000000                                                                                     
7PESE                                                                                000000000045000                            
50001810201209122012091301321522569445       PES0000045000A087612012091211520124                                                
6024600045000122560132152256944500050000021                                                                                     
7PESE                                                                                000000000045000                            
50001910201209122012091301320618295174       PES0000045000A085792012091213380079                                                
6024600045000122570132061829517400050000099                                                                                     
7PESE                                                                                000000000045000                            
50002010201209122012091301320327207943       PES0000045000A099462012091215370011                                                
6024600045000122600132032720794300050000363                                                                                     
7PESE                                                                                000000000045000                            
50002110201209122012091301320328369628       PES0000045000A116882012091218280177                                                
6024600045000122600132032836962800050000137                                                                                     
7PESE                                                                                000000000045000                            
50002210201209122012091301320328568331       PES0000045000A100122012091212060081                                                
6024600045000122600132032856833100050000300                                                                                     
7PESE                                                                                000000000045000                            
50002310201209122012091301320423675974       PES0000045000L070532012091215018168                                                
6024600045000122600132042367597400050000342                                                                                     
7PESE                                                                                000000000045000                            
50002410201209122012091301320617935203       PES0000045000A068722012091209150001                                                
6024600045000122600132061793520300050000178                                                                                     
7PESE                                                                                000000000045000                            
50002510201209122012091301320714976094       PES0000045000A017482012091210330086                                                
6024600045000122600132071497609400050000036                                                                                     
7PESE                                                                                000000000045000                            
50002610201209122012091301320812253118       PES0000045000A100692012091212560219                                                
6024600045000122600132081225311800050000163                                                                                     
7PESE                                                                                000000000045000                            
50002710201209122012091399030129399057       PES0000046500A058032012091212570286                                                
6024600046500122599903012939905700025000421                                                                                     
7PESE                                                                                000000000046500                            
50002810201209122012091399030140497077       PES0000046500A070612012091219320306                                                
6024600046500122599903014049707700025000290                                                                                     
7PESE                                                                                000000000046500                            
50002910201209122012091360001337552292       PES0000080000A089202012091212210100                                                
6024600080000122636000133755229200050000063                                                                                     
7PESE                                                                                000000000080000                            
82012091300000100000290000011430000000000000000000000000000000000000000000029                                                   
9201209130000010000029000001143000000000000000000000000000000000000000000000029                                                 
