120120213PAGO FACIL               090060246FABIAN NORBERTO D´ERAMO                                                              
320120213000001FABIAN NORBERTO D´ERAMO                                                                                          
50000110201202102012021301311617635718       PES0000097000A101642012020812340029                                                
6024600097000120450131161763571800000000078                                                                                     
7PESE                                                                                000000000097000                            
50000210201202102012021301311618128975       PES0000097000A060572012020918110191                                                
6024600097000120400131161812897500000000000                                                                                     
7PESE                                                                                000000000097000                            
50000310201202102012021301311617914080       PES0000097000A051082012021009570027                                                
6024600097000120460131161791408000000000063                                                                                     
7PESE                                                                                000000000097000                            
50000410201202102012021323061922689073       PES0000136600A095412012021010160059                                                
6024600136600120482306192268907300000000063                                                                                     
7PESE                                                                                000000000136600                            
50000510201202102012021323060517479188       PES0000121600A081812012021012090271                                                
6024600121600120462306051747918800000000021                                                                                     
7PESE                                                                                000000000121600                            
50000610201202102012021301311518616484       PES0000097000A082982012021012560057                                                
6024600097000120460131151861648400000000099                                                                                     
7PESE                                                                                000000000097000                            
50000710201202102012021301311325944229       PES0000097000A092062012021015330427                                                
6024600097000120470131132594422900000000084                                                                                     
7PESE                                                                                000000000097000                            
50000810201202102012021301311422965560       PES0000097000A042332012021016170047                                                
6024600097000120460131142296556000000000084                                                                                     
7PESE                                                                                000000000097000                            
50000910201202102012021301311521431248       PES0000097000A109842012021012050080                                                
6024600097000120410131152143124800000000084                                                                                     
7PESE                                                                                000000000097000                            
50001010201202102012021301311520034556       PES0000097000A062272012021017200005                                                
6024600097000120430131152003455600000000078                                                                                     
7PESE                                                                                000000000097000                            
50001110201202102012021301311518339180       PES0000097000A002092012021015300047                                                
6024600097000120480131151833918000000000058                                                                                     
7PESE                                                                                000000000097000                            
50001210201202102012021301311522718201       PES0000097000A042762012021017090010                                                
6024600097000120470131152271820100000000000                                                                                     
7PESE                                                                                000000000097000                            
50001310201202102012021301311521763189       PES0000097000M601562012021013200017                                                
6024600097000120460131152176318900000000037                                                                                     
7PESE                                                                                000000000097000                            
50001410201202102012021301311424636609       PES0000097000M601562012021013210018                                                
6024600097000120460131142463660900000000063                                                                                     
7PESE                                                                                000000000097000                            
50001510201202102012021300600328663644       PES0000029000A060902012021013050125                                                
6024600029000120450060032866364400000000042                                                                                     
7PESE                                                                                000000000029000                            
50001610201202112012021301310423072333       PES0000097000A082002012021108150007                                                
6024600097000120420131042307233300000000058                                                                                     
7PESE                                                                                000000000097000                            
50001710201202112012021301311230083943       PES0000097000D000572012021111450015                                                
6024600097000120440131123008394300000000058                                                                                     
7PESE                                                                                000000000097000                            
50001810201202112012021318370233104246       PES0000020000A023032012021109500013                                                
6024600020000120431837023310424600000000042                                                                                     
7PESE                                                                                000000000020000                            
50001910201202112012021301311714371454       PES0000097000A076112012021113360041                                                
6024600097000120440131171437145400000000058                                                                                     
7PESE                                                                                000000000097000                            
50002010201202112012021318370331601334       PES0000020000A011012012021110180060                                                
6024600020000120471837033160133400000000000                                                                                     
7PESE                                                                                000000000020000                            
50002110201202112012021300682329004645       PES0000019000A011012012021111250107                                                
6024600019000120460068232900464500020000236                                                                                     
7PESE                                                                                000000000019000                            
50002210201202112012021301311522467167       PES0000097000A112182012021112230062                                                
6024600097000120420131152246716700000000016                                                                                     
7PESE                                                                                000000000097000                            
50002310201202112012021323060840772906       PES0000121600A053292012021112110110                                                
6024600121600120462306084077290600000000079                                                                                     
7PESE                                                                                000000000121600                            
50002410201202112012021353010622577001       PES0000006000A072762012021112360145                                                
6024600006000120485301062257700100015000015                                                                                     
7PESE                                                                                000000000006000                            
50002510201202112012021301311592733401       PES0000097000A088822012021111440007                                                
6024600097000120450131159273340100000000021                                                                                     
7PESE                                                                                000000000097000                            
50002610201202112012021301311328984483       PES0000097000A088132012021120580340                                                
6024600097000120450131132898448300000000058                                                                                     
7PESE                                                                                000000000097000                            
50002710201202112012021300683821617427       PES0000019000A014492012021119510223                                                
6024600019000120460068382161742700020000263                                                                                     
7PESE                                                                                000000000019000                            
50002810201202112012021318372525638739       PES0000020000A049072012021113160286                                                
6024600020000120471837252563873900000000058                                                                                     
7PESE                                                                                000000000020000                            
50002910201202122012021300600425108661       PES0000029000A002342012021209400001                                                
6024600029000120470060042510866100000000036                                                                                     
7PESE                                                                                000000000029000                            
82012021300000100000290000022878000000000000000000000000000000000000000000029                                                   
9201202130000010000029000002287800000000000000000000000000000000000000000000029                                                 
