120120613PAGO FACIL               090060246FABIAN NORBERTO D´ERAMO                                                              
320120613000001FABIAN NORBERTO D´ERAMO                                                                                          
50000110201206122012061399030132573681       PES0000046500A100482012061217130205                                                
6024600046500121679903013257368100025000400                                                                                     
7PESE                                                                                000000000046500                            
50000210201206122012061399030135755065       PES0000046500A024632012061216330127                                                
6024600046500121679903013575506500025000357                                                                                     
7PESE                                                                                000000000046500                            
50000310201206122012061399030136359657       PES0000046500A081582012061212120132                                                
6024600046500121679903013635965700025000384                                                                                     
7PESE                                                                                000000000046500                            
50000410201206122012061399030136808106       PES0000046500A092032012061209290024                                                
6024600046500121679903013680810600025000378                                                                                     
7PESE                                                                                000000000046500                            
50000510201206122012061399030136872631       PES0000046500A073822012061218000075                                                
6024600046500121679903013687263100025000242                                                                                     
7PESE                                                                                000000000046500                            
82012061300000100000050000002325000000000000000000000000000000000000000000005                                                   
9201206130000010000005000000232500000000000000000000000000000000000000000000005                                                 
