120120713PAGO FACIL               090060246FABIAN NORBERTO D´ERAMO                                                              
320120713000001FABIAN NORBERTO D´ERAMO                                                                                          
50000110201207122012071397000412610890       PES0000020000A016682012071217230051                                                
6024600020000121959700041261089000000000090                                                                                     
7PESE                                                                                000000000020000                            
50000210201207122012071399020236256413       PES0000022000A038142012071217180151                                                
6024600022000121979902023625641300000000215                                                                                     
7PESE                                                                                000000000022000                            
50000310201207122012071300540236991781       PES0000026000A016702012071213550118                                                
6024600026000122000054023699178100010000063                                                                                     
7PESE                                                                                000000000026000                            
50000410201207122012071300540236070637       PES0000026000A028072012071213530111                                                
6024600026000122010054023607063700010000021                                                                                     
7PESE                                                                                000000000026000                            
50000510201207122012071399030132573681       PES0000046500A023232012071218130078                                                
6024600046500121979903013257368100025000400                                                                                     
7PESE                                                                                000000000046500                            
50000610201207122012071399030136044247       PES0000046500A010562012071216550108                                                
6024600046500121979903013604424700025000342                                                                                     
7PESE                                                                                000000000046500                            
50000710201207122012071399030136352229       PES0000046500D000562012071218150193                                                
6024600046500121979903013635222900025000236                                                                                     
7PESE                                                                                000000000046500                            
50000810201207122012071399030137461688       PES0000046500M600242012071215060105                                                
6024600046500121979903013746168800025000363                                                                                     
7PESE                                                                                000000000046500                            
50000910201207122012071300540123723839       PES0000076000M600432012071210580042                                                
6024600076000122000054012372383900000000058                                                                                     
7PESE                                                                                000000000076000                            
50001010201207122012071300540138071739       PES0000076000A043482012071215590040                                                
6024600076000122000054013807173900000000021                                                                                     
7PESE                                                                                000000000076000                            
82012071300000100000100000004320000000000000000000000000000000000000000000010                                                   
9201207130000010000010000000432000000000000000000000000000000000000000000000010                                                 
