120120313PAGO FACIL               090060246FABIAN NORBERTO D´ERAMO                                                              
320120313000001FABIAN NORBERTO D´ERAMO                                                                                          
50000110201203122012031353010618029371       PES0000007500A097712012031214050021                                                
6024600007500120765301061802937100000000099                                                                                     
7PESE                                                                                000000000007500                            
50000210201203122012031353010522757362       PES0000007500A020992012031213080140                                                
6024600007500120785301052275736200000000042                                                                                     
7PESE                                                                                000000000007500                            
50000310201203122012031302330331303579       PES0000028000A092732012031217560268                                                
6024600025000120670233033130357900030000779                                                                                     
7PESE                                                                                000000000028000                            
50000410201203122012031302330812321767       PES0000028000A014492012031220180257                                                
6024600025000120670233081232176700030000515                                                                                     
7PESE                                                                                000000000028000                            
50000510201203122012031346080320056719       PES0000030000A039562012031216260047                                                
6024600030000120744608032005671900000000057                                                                                     
7PESE                                                                                000000000030000                            
50000610201203122012031399030230590893       PES0000040500A094782012031217400096                                                
6024600040500120759903023059089300025000484                                                                                     
7PESE                                                                                000000000040500                            
50000710201203122012031399030293925151       PES0000040500M600112012031214000290                                                
6024600040500120759903029392515100025000463                                                                                     
7PESE                                                                                000000000040500                            
82012031300000100000070000001820000000000000000000000000000000000000000000007                                                   
9201203130000010000007000000182000000000000000000000000000000000000000000000007                                                 
