120120814PAGO FACIL               090060246FABIAN NORBERTO D´ERAMO                                                              
320120814000001FABIAN NORBERTO D´ERAMO                                                                                          
50000110201208132012081400712427667907       PES0000023500M600532012081111230049                                                
6024600023500122300071242766790700055000021                                                                                     
7PESE                                                                                000000000023500                            
50000210201208132012081400723727191640       PES0000031000M600532012081111220047                                                
6024600031000122300072372719164000040000063                                                                                     
7PESE                                                                                000000000031000                            
50000310201208132012081400723825967097       PES0000031000M600532012081111220048                                                
6024600031000122300072382596709700040000037                                                                                     
7PESE                                                                                000000000031000                            
50000410201208132012081459001320494522       PES0000016000A047422012081317020199                                                
6024600016000122265900132049452200000000000                                                                                     
7PESE                                                                                000000000016000                            
50000510201208132012081459000130565427       PES0000016000A099542012081312470171                                                
6024600016000122285900013056542700000000016                                                                                     
7PESE                                                                                000000000016000                            
50000610201208132012081459001127802939       PES0000016000A620442012081310130012                                                
6024600016000122285900112780293900000000099                                                                                     
7PESE                                                                                000000000016000                            
50000710201208132012081459000133908104       PES0000016000A053762012081314220059                                                
6024600016000122305900013390810400000000000                                                                                     
7PESE                                                                                000000000016000                            
50000810201208132012081459000225468961       PES0000016000A053762012081314220060                                                
6024600016000122305900022546896100000000036                                                                                     
7PESE                                                                                000000000016000                            
50000910201208132012081459000517068833       PES0000016000L070522012081320309685                                                
6024600016000122315900051706883300000000000                                                                                     
7PESE                                                                                000000000016000                            
50001010201208132012081459000323972244       PES0000016000L070232012081318304962                                                
6024600016000122325900032397224400000000079                                                                                     
7PESE                                                                                000000000016000                            
50001110201208132012081459000324763969       PES0000016000A100122012081308320005                                                
6024600016000122325900032476396900000000078                                                                                     
7PESE                                                                                000000000016000                            
50001210201208132012081459000420467658       PES0000016000A068722012081311290082                                                
6024600016000122335900042046765800000000084                                                                                     
7PESE                                                                                000000000016000                            
50001310201208132012081400712716760267       PES0000023500A601832012081309480031                                                
6024600023500122260071271676026700055000090                                                                                     
7PESE                                                                                000000000023500                            
50001410201208132012081400710827154102       PES0000023500A601832012081309480030                                                
6024600023500122280071082715410200055000021                                                                                     
7PESE                                                                                000000000023500                            
50001510201208132012081400712523944898       PES0000023500L120202012081314196677                                                
6024600023500122290071252394489800055000042                                                                                     
7PESE                                                                                000000000023500                            
50001610201208132012081400714425102156       PES0000023500A077012012081318230165                                                
6024600023500122290071442510215600055000021                                                                                     
7PESE                                                                                000000000023500                            
50001710201208132012081417030818111553       PES0000025000A064022012081312400191                                                
6024600025000122261703081811155300050000090                                                                                     
7PESE                                                                                000000000025000                            
50001810201208132012081400540336991781       PES0000026000A016702012081317560139                                                
6024600026000122270054033699178100010000079                                                                                     
7PESE                                                                                000000000026000                            
50001910201208132012081459001823343347       PES0000032000A620812012081310380102                                                
6024600032000122265900182334334700000000042                                                                                     
7PESE                                                                                000000000032000                            
50002010201208132012081459002023164659       PES0000032000A620812012081310380101                                                
6024600032000122265900202316465900000000015                                                                                     
7PESE                                                                                000000000032000                            
50002110201208132012081459001822074770       PES0000032000A115752012081319490199                                                
6024600032000122335900182207477000000000015                                                                                     
7PESE                                                                                000000000032000                            
50002210201208132012081402390427180990       PES0000033000A097192012081315420173                                                
6024600033000122330239042718099000030000021                                                                                     
7PESE                                                                                000000000033000                            
50002310201208132012081402390620831347       PES0000033000M620022012081311530050                                                
6024600033000122330239062083134700030000000                                                                                     
7PESE                                                                                000000000033000                            
50002410201208132012081401320520167362       PES0000045000M620032012081312100140                                                
6024600045000122300132052016736200050000063                                                                                     
7PESE                                                                                000000000045000                            
50002510201208132012081401320522167074       PES0000045000A091142012081311200159                                                
6024600045000122300132052216707400050000084                                                                                     
7PESE                                                                                000000000045000                            
50002610201208132012081401320618070149       PES0000045000M601812012081311540066                                                
6024600045000122300132061807014900050000036                                                                                     
7PESE                                                                                000000000045000                            
50002710201208132012081401321522899566       PES0000045000M620032012081309570050                                                
6024600045000122300132152289956600050000000                                                                                     
7PESE                                                                                000000000045000                            
50002810201208132012081401320618387331       PES0000045000A091142012081311210160                                                
6024600045000122320132061838733100050000015                                                                                     
7PESE                                                                                000000000045000                            
50002910201208132012081401320426243637       PES0000045000A085382012081316520285                                                
6024600045000122330132042624363700050000084                                                                                     
7PESE                                                                                000000000045000                            
50003010201208132012081401320617310288       PES0000045000A075362012081318520105                                                
6024600045000122330132061731028800050000090                                                                                     
7PESE                                                                                000000000045000                            
50003110201208132012081401322225397914       PES0000045000M620062012081310420021                                                
6024600045000122330132222539791400050000021                                                                                     
7PESE                                                                                000000000045000                            
50003210201208132012081499030129921135       PES0000046500M600202012081313190052                                                
6024600046500122289903012992113500025000178                                                                                     
7PESE                                                                                000000000046500                            
50003310201208132012081499030134556684       PES0000046500A085922012081316470089                                                
6024600046500122289903013455668400025000584                                                                                     
7PESE                                                                                000000000046500                            
50003410201208132012081499030137206177       PES0000046500A057612012081312020115                                                
6024600046500122289903013720617700025000584                                                                                     
7PESE                                                                                000000000046500                            
82012081400000100000340000010360000000000000000000000000000000000000000000034                                                   
9201208140000010000034000001036000000000000000000000000000000000000000000000034                                                 
