120110714PAGO FACIL               090060246FABIAN NORBERTO D´ERAMO                                                              
320110714000001FABIAN NORBERTO D´ERAMO                                                                                          
50000110201107132011071417020524084776       PES0000016000W001212011071316561004                                                
6024600016000111951702052408477600040000037                                                                                     
7PESE                                                                                000000000016000                            
82011071400000100000010000000160000000000000000000000000000000000000000000001                                                   
9201107140000010000001000000016000000000000000000000000000000000000000000000001                                                 
