120120214PAGO FACIL               090060246FABIAN NORBERTO D´ERAMO                                                              
320120214000001FABIAN NORBERTO D´ERAMO                                                                                          
50000110201202132012021453010807848312       PES0000006000A091042012021311080171                                                
6024600006000120475301080784831200015000057                                                                                     
7PESE                                                                                000000000006000                            
50000210201202132012021418370621723759       PES0000020000A091562012021317340512                                                
6024600020000120441837062172375900000000084                                                                                     
7PESE                                                                                000000000020000                            
50000310201202132012021418370138045988       PES0000020000A062272012021311270027                                                
6024600020000120471837013804598800000000063                                                                                     
7PESE                                                                                000000000020000                            
50000410201202132012021418370523787418       PES0000020000A086862012021318040031                                                
6024600020000120471837052378741800000000057                                                                                     
7PESE                                                                                000000000020000                            
50000510201202132012021418370716602152       PES0000020000A105142012021317270244                                                
6024600020000120471837071660215200000000084                                                                                     
7PESE                                                                                000000000020000                            
50000610201202132012021418372335959157       PES0000020000A045782012021316560021                                                
6024600020000120471837233595915700000000084                                                                                     
7PESE                                                                                000000000020000                            
50000710201202132012021418372720967116       PES0000020000A088172012021312220222                                                
6024600020000120471837272096711600000000099                                                                                     
7PESE                                                                                000000000020000                            
50000810201202132012021400601134517298       PES0000029000A093772012021317310073                                                
6024600029000120460060113451729800000000000                                                                                     
7PESE                                                                                000000000029000                            
50000910201202132012021400600232554625       PES0000029000A093772012021317310072                                                
6024600029000120470060023255462500000000063                                                                                     
7PESE                                                                                000000000029000                            
50001010201202132012021499030237376363       PES0000040500A083162012021316430014                                                
6024600040500120469903023737636300025000537                                                                                     
7PESE                                                                                000000000040500                            
50001110201202132012021401311811480274       PES0000097000M600892012021313420041                                                
6024600097000120440131181148027400000000099                                                                                     
7PESE                                                                                000000000097000                            
50001210201202132012021401311614156395       PES0000097000D000102012021317110357                                                
6024600097000120460131161415639500000000058                                                                                     
7PESE                                                                                000000000097000                            
50001310201202132012021401311327039700       PES0000097000A083202012021312230072                                                
6024600097000120470131132703970000000000058                                                                                     
7PESE                                                                                000000000097000                            
50001410201202132012021401311327659567       PES0000097000D001482012021311190107                                                
6024600097000120480131132765956700000000016                                                                                     
7PESE                                                                                000000000097000                            
50001510201202132012021401311230136765       PES0000097000A056382012021315000364                                                
6024600097000120510131123013676500000000042                                                                                     
7PESE                                                                                000000000097000                            
50001610201202132012021401311231638446       PES0000097000A092352012021310420140                                                
6024600097000120510131123163844600000000099                                                                                     
7PESE                                                                                000000000097000                            
50001710201202132012021401311422495786       PES0000097000A039022012021310290047                                                
6024600097000120510131142249578600000000063                                                                                     
7PESE                                                                                000000000097000                            
50001810201202132012021401311518300986       PES0000097000A091032012021313440023                                                
6024600097000120510131151830098600000000090                                                                                     
7PESE                                                                                000000000097000                            
50001910201202132012021401311521524925       PES0000097000A076552012021312380101                                                
6024600097000120510131152152492500000000021                                                                                     
7PESE                                                                                000000000097000                            
50002010201202132012021401311616427083       PES0000097000A037752012021315040011                                                
6024600097000120510131161642708300000000063                                                                                     
7PESE                                                                                000000000097000                            
50002110201202132012021401311712588854       PES0000097000A014642012021316500092                                                
6024600097000120510131171258885400000000042                                                                                     
7PESE                                                                                000000000097000                            
50002210201202132012021423060720703140       PES0000121600A036192012021309140038                                                
6024600121600120482306072070314000000000084                                                                                     
7PESE                                                                                000000000121600                            
50002310201202132012021423061832585673       PES0000136600A087612012021319490155                                                
6024600136600120452306183258567300000000058                                                                                     
7PESE                                                                                000000000136600                            
50002410201202132012021423061835104061       PES0000136600A102602012021321020261                                                
6024600136600120462306183510406100000000000                                                                                     
7PESE                                                                                000000000136600                            
50002510201202132012021423061932466648       PES0000136600A102872012021316290045                                                
6024600136600120472306193246664800000000021                                                                                     
7PESE                                                                                000000000136600                            
82012021400000100000250000018229000000000000000000000000000000000000000000025                                                   
9201202140000010000025000001822900000000000000000000000000000000000000000000025                                                 
