120111214PAGO FACIL               090060246FABIAN NORBERTO D´ERAMO                                                              
320111214000001FABIAN NORBERTO D´ERAMO                                                                                          
50000110201112132011121499030234515650       PES0000038500A084942011121217380049                                                
6024600038500113499903023451565000025000479                                                                                     
7PESE                                                                                000000000038500                            
50000210201112132011121499030228361121       PES0000038500A043162011121213310003                                                
6024600038500113499903022836112100025000436                                                                                     
7PESE                                                                                000000000038500                            
50000310201112132011121400612427116566       PES0000012000A073132011121308400002                                                
6024600012000113510061242711656600020000058                                                                                     
7PESE                                                                                000000000012000                            
50000410201112132011121429060629307290       PES0000013000A086882011121315260200                                                
6024600013000113472906062930729000000000063                                                                                     
7PESE                                                                                000000000013000                            
50000510201112132011121429060723888382       PES0000013000A105382011121311490159                                                
6024600013000113472906072388838200000000015                                                                                     
7PESE                                                                                000000000013000                            
50000610201112132011121429060223375606       PES0000013000A028072011121309520117                                                
6024600013000113532906022337560600000000057                                                                                     
7PESE                                                                                000000000013000                            
50000710201112132011121429060727882953       PES0000013000A621032011121310430093                                                
6024600013000113532906072788295300000000084                                                                                     
7PESE                                                                                000000000013000                            
50000810201112132011121429060820439302       PES0000013000A108032011121318410057                                                
6024600013000113532906082043930200000000084                                                                                     
7PESE                                                                                000000000013000                            
50000910201112132011121446071139097297       PES0000014000A042062011121315530329                                                
6024600014000113474607113909729700000000099                                                                                     
7PESE                                                                                000000000014000                            
50001010201112132011121446071139484908       PES0000014000A109842011121318390233                                                
6024600014000113474607113948490800000000021                                                                                     
7PESE                                                                                000000000014000                            
50001110201112132011121446071335203934       PES0000014000A086882011121314130168                                                
6024600014000113474607133520393400000000079                                                                                     
7PESE                                                                                000000000014000                            
50001210201112132011121446071335337752       PES0000014000M600132011121311300064                                                
6024600014000113474607133533775200000000090                                                                                     
7PESE                                                                                000000000014000                            
50001310201112132011121446071336413589       PES0000014000A092672011121311060080                                                
6024600014000113474607133641358900000000090                                                                                     
7PESE                                                                                000000000014000                            
50001410201112132011121446071429313546       PES0000014000A091472011121309170022                                                
6024600014000113474607142931354600000000078                                                                                     
7PESE                                                                                000000000014000                            
50001510201112132011121446071718403308       PES0000014000A014512011121315010276                                                
6024600014000113474607171840330800000000058                                                                                     
7PESE                                                                                000000000014000                            
50001610201112132011121400583729197095       PES0000025000A091142011121312300049                                                
6024600025000113470058372919709500000000000                                                                                     
7PESE                                                                                000000000025000                            
50001710201112132011121400584331750178       PES0000025000A044652011121310570105                                                
6024600025000113500058433175017800000000042                                                                                     
7PESE                                                                                000000000025000                            
50001810201112132011121400584607671200       PES0000025000A044652011121310560104                                                
6024600025000113500058460767120000000000090                                                                                     
7PESE                                                                                000000000025000                            
50001910201112132011121400583903993913       PES0000025000A093582011121313160045                                                
6024600025000113520058390399391300000000037                                                                                     
7PESE                                                                                000000000025000                            
50002010201112132011121400584421073091       PES0000025000A093582011121313160046                                                
6024600025000113520058442107309100000000084                                                                                     
7PESE                                                                                000000000025000                            
50002110201112132011121446070230183399       PES0000026000A096972011121311340131                                                
6024600026000113474607023018339900000000063                                                                                     
7PESE                                                                                000000000026000                            
50002210201112132011121446070232392138       PES0000026000A107952011121316240147                                                
6024600026000113474607023239213800000000078                                                                                     
7PESE                                                                                000000000026000                            
50002310201112132011121446070320056719       PES0000026000A001242011121317440005                                                
6024600026000113474607032005671900000000036                                                                                     
7PESE                                                                                000000000026000                            
50002410201112132011121446070540857883       PES0000026000A097692011121315360125                                                
6024600026000113474607054085788300000000000                                                                                     
7PESE                                                                                000000000026000                            
50002510201112132011121446070618379981       PES0000026000A001242011121317440006                                                
6024600026000113474607061837998100000000021                                                                                     
7PESE                                                                                000000000026000                            
50002610201112132011121446070834998935       PES0000026000A087742011121315150096                                                
6024600026000113474607083499893500000000090                                                                                     
7PESE                                                                                000000000026000                            
50002710201112132011121446070835983144       PES0000026000A107682011121314520127                                                
6024600026000113474607083598314400000000078                                                                                     
7PESE                                                                                000000000026000                            
50002810201112132011121499030237376363       PES0000038500A103582011121314110011                                                
6024600038500113499903023737636300025000558                                                                                     
7PESE                                                                                000000000038500                            
50002910201112132011121423060721438215       PES0000076800A032962011121319010223                                                
6024600076800113472306072143821500192000084                                                                                     
7PESE                                                                                000000000076800                            
50003010201112132011121423060731821895       PES0000076800A098082011121315340051                                                
6024600076800113492306073182189500192000263                                                                                     
7PESE                                                                                000000000076800                            
50003110201112132011121423060831151594       PES0000076800A077902011121316070001                                                
6024600076800113492306083115159400192000500                                                                                     
7PESE                                                                                000000000076800                            
50003210201112132011121423061842135335       PES0000085400M840022011121310400048                                                
6024600085400113472306184213533500234000036                                                                                     
7PESE                                                                                000000000085400                            
50003310201112132011121423061130038163       PES0000085400A044382011121316430013                                                
6024600085400113482306113003816300234000078                                                                                     
7PESE                                                                                000000000085400                            
50003410201112132011121423061124539089       PES0000085400A104462011121311310054                                                
6024600085400113492306112453908900234000584                                                                                     
7PESE                                                                                000000000085400                            
50003510201112132011121423061124734323       PES0000085400A104462011121311320055                                                
6024600085400113492306112473432300234000536                                                                                     
7PESE                                                                                000000000085400                            
50003610201112132011121423061128215350       PES0000085400A620422011121312510112                                                
6024600085400113492306112821535000234000599                                                                                     
7PESE                                                                                000000000085400                            
50003710201112132011121423061130371475       PES0000085400A047802011121313020040                                                
6024600085400113492306113037147500234000458                                                                                     
7PESE                                                                                000000000085400                            
50003810201112132011121423061324112728       PES0000085400A001242011121316310149                                                
6024600085400113492306132411272800234000579                                                                                     
7PESE                                                                                000000000085400                            
50003910201112132011121423061328451777       PES0000085400A081382011121315220208                                                
6024600085400113492306132845177700234000516                                                                                     
7PESE                                                                                000000000085400                            
50004010201112132011121423061329734957       PES0000085400A048332011121313380084                                                
6024600085400113492306132973495700234000484                                                                                     
7PESE                                                                                000000000085400                            
50004110201112132011121423061521708747       PES0000085400A092212011121311540033                                                
6024600085400113492306152170874700234000437                                                                                     
7PESE                                                                                000000000085400                            
50004210201112132011121423061521947728       PES0000085400A078112011121310590047                                                
6024600085400113492306152194772800234000121                                                                                     
7PESE                                                                                000000000085400                            
50004310201112132011121423061737247794       PES0000085400A109842011121315050113                                                
6024600085400113492306173724779400234000484                                                                                     
7PESE                                                                                000000000085400                            
50004410201112132011121423061838478956       PES0000085400A096332011121316350187                                                
6024600085400113492306183847895600234000200                                                                                     
7PESE                                                                                000000000085400                            
50004510201112132011121423061931618374       PES0000085400A085422011121310360116                                                
6024600085400113492306193161837400234000500                                                                                     
7PESE                                                                                000000000085400                            
82011121400000100000450000020235000000000000000000000000000000000000000000045                                                   
9201112140000010000045000002023500000000000000000000000000000000000000000000045                                                 
