120111114PAGO FACIL               090060246FABIAN NORBERTO D´ERAMO                                                              
320111114000001FABIAN NORBERTO D´ERAMO                                                                                          
50000110201111112011111401301334224744       PES0000040000A036692011111020310002                                                
6024600040000113210130133422474400000000036                                                                                     
7PESE                                                                                000000000040000                            
50000210201111112011111401301623702985       PES0000040000A620202011111111140051                                                
6024600040000113210130162370298500000000058                                                                                     
7PESE                                                                                000000000040000                            
50000310201111112011111401301431851063       PES0000040000A620302011111108200004                                                
6024600040000113210130143185106300000000078                                                                                     
7PESE                                                                                000000000040000                            
50000410201111112011111401301525914780       PES0000040000A620302011111109220026                                                
6024600040000113210130152591478000000000036                                                                                     
7PESE                                                                                000000000040000                            
50000510201111112011111401301816264673       PES0000040000A620302011111111520080                                                
6024600040000113210130181626467300000000057                                                                                     
7PESE                                                                                000000000040000                            
50000610201111112011111401290234555385       PES0000037000A085582011111112070187                                                
6024600037000113160129023455538500000000099                                                                                     
7PESE                                                                                000000000037000                            
50000710201111112011111401290426124201       PES0000037000A085552011111112530220                                                
6024600037000113170129042612420100000000000                                                                                     
7PESE                                                                                000000000037000                            
50000810201111112011111401301526280146       PES0000040000A048412011111111230228                                                
6024600040000113210130152628014600000000021                                                                                     
7PESE                                                                                000000000040000                            
50000910201111112011111401301914240593       PES0000040000A601902011111112230037                                                
6024600040000113210130191424059300000000084                                                                                     
7PESE                                                                                000000000040000                            
50001010201111112011111401290792494515       PES0000037000A075362011111108440004                                                
6024600037000113180129079249451500000000063                                                                                     
7PESE                                                                                000000000037000                            
50001110201111112011111401290814326847       PES0000037000A040542011111112570138                                                
6024600037000113180129081432684700000000000                                                                                     
7PESE                                                                                000000000037000                            
50001210201111112011111400582620948007       PES0000022500A045312011111114010212                                                
6024600022500113180058262094800700025000000                                                                                     
7PESE                                                                                000000000022500                            
50001310201111112011111401290523669037       PES0000037000A072002011111114280381                                                
6024600037000113180129052366903700000000090                                                                                     
7PESE                                                                                000000000037000                            
50001410201111112011111401301816427083       PES0000040000A074252011111113110282                                                
6024600040000113210130181642708300000000036                                                                                     
7PESE                                                                                000000000040000                            
50001510201111112011111401290329341803       PES0000037000A076782011111112000044                                                
6024600037000113180129032934180300000000058                                                                                     
7PESE                                                                                000000000037000                            
50001610201111112011111401301526927364       PES0000040000A077402011111113090083                                                
6024600040000113210130152692736400000000090                                                                                     
7PESE                                                                                000000000040000                            
50001710201111112011111401290716348359       PES0000037000A074192011111115270239                                                
6024600037000113150129071634835900000000090                                                                                     
7PESE                                                                                000000000037000                            
50001810201111112011111400572717617179       PES0000022000A109282011111115050315                                                
6024600022000113150057271761717900000000079                                                                                     
7PESE                                                                                000000000022000                            
50001910201111112011111400571429479624       PES0000022000A079552011111116120026                                                
6024600022000113200057142947962400000000037                                                                                     
7PESE                                                                                000000000022000                            
50002010201111112011111401301333910028       PES0000040000A025142011111112590043                                                
6024600040000113210130133391002800000000084                                                                                     
7PESE                                                                                000000000040000                            
50002110201111112011111429060724666099       PES0000013000A092062011111116440459                                                
6024600010000113122906072466609900030000542                                                                                     
7PESE                                                                                000000000013000                            
50002210201111112011111429060317564102       PES0000013000A092062011111116440460                                                
6024600010000113122906031756410200030000590                                                                                     
7PESE                                                                                000000000013000                            
50002310201111112011111401291333204655       PES0000037000A091812011111115530255                                                
6024600037000113180129133320465500000000063                                                                                     
7PESE                                                                                000000000037000                            
50002410201111112011111401290523821496       PES0000037000D001002011111112070098                                                
6024600037000113180129052382149600000000099                                                                                     
7PESE                                                                                000000000037000                            
50002510201111112011111499030235216759       PES0000038500A033992011111109390019                                                
6024600038500113199903023521675900025000037                                                                                     
7PESE                                                                                000000000038500                            
50002610201111112011111401291238407880       PES0000037000A017262011111112450153                                                
6024600037000113180129123840788000000000000                                                                                     
7PESE                                                                                000000000037000                            
50002710201111112011111446060416760033       PES0000048000A017262011111118150330                                                
6024600048000113214606041676003300000000057                                                                                     
7PESE                                                                                000000000048000                            
50002810201111112011111401290233718964       PES0000037000A100472011111112070022                                                
6024600037000113180129023371896400000000084                                                                                     
7PESE                                                                                000000000037000                            
50002910201111112011111401290622124422       PES0000037000A042062011111118180127                                                
6024600037000113150129062212442200000000036                                                                                     
7PESE                                                                                000000000037000                            
50003010201111112011111401301336070683       PES0000040000A029032011111117320181                                                
6024600040000113220130133607068300000000015                                                                                     
7PESE                                                                                000000000040000                            
50003110201111112011111401301625044559       PES0000040000A029032011111117320182                                                
6024600040000113220130162504455900000000036                                                                                     
7PESE                                                                                000000000040000                            
50003210201111112011111401301623414972       PES0000040000A011402011111111150112                                                
6024600040000113210130162341497200000000016                                                                                     
7PESE                                                                                000000000040000                            
50003310201111112011111400572523463409       PES0000022000A097712011111118520148                                                
6024600022000113220057252346340900000000063                                                                                     
7PESE                                                                                000000000022000                            
50003410201111112011111499040132421066       PES0000025000M601612011111115430193                                                
6024600025000113199904013242106600000000221                                                                                     
7PESE                                                                                000000000025000                            
50003510201111112011111452000523446921       PES0000009000A016702011111119370187                                                
6024600009000113225200052344692100000000021                                                                                     
7PESE                                                                                000000000009000                            
50003610201111122011111400585424269017       PES0000022500A025052011111211310084                                                
6024600022500113220058542426901700025000042                                                                                     
7PESE                                                                                000000000022500                            
50003710201111122011111401290235266242       PES0000037000A026682011111210250025                                                
6024600037000113180129023526624200000000063                                                                                     
7PESE                                                                                000000000037000                            
50003810201111122011111452000524554104       PES0000009000A080682011111219100159                                                
6024600009000113185200052455410400000000063                                                                                     
7PESE                                                                                000000000009000                            
50003910201111122011111499030234137506       PES0000038500A109962011111217240004                                                
6024600038500113199903023413750600025000463                                                                                     
7PESE                                                                                000000000038500                            
50004010201111132011111401290618339180       PES0000037000A036182011111312530325                                                
6024600037000113170129061833918000000000099                                                                                     
7PESE                                                                                000000000037000                            
50004110201111132011111401291429374506       PES0000037000A014492011111311090122                                                
6024600037000113180129142937450600000000016                                                                                     
7PESE                                                                                000000000037000                            
82011111400000100000410000013800000000000000000000000000000000000000000000041                                                   
9201111140000010000041000001380000000000000000000000000000000000000000000000041                                                 
