120110815PAGO FACIL               090060246FABIAN NORBERTO D´ERAMO                                                              
320110815000001FABIAN NORBERTO D´ERAMO                                                                                          
50000110201108122011081502300331237434       PES0000031500A042592011081210250024                                                
6024600031500112270230033123743400030000436                                                                                     
7PESE                                                                                000000000031500                            
50000210201108122011081517020717071736       PES0000016000A640282011081209140016                                                
6024600016000112281702071707173600040000015                                                                                     
7PESE                                                                                000000000016000                            
50000310201108122011081502300523091937       PES0000031500A602092011081212010028                                                
6024600031500112270230052309193700030000315                                                                                     
7PESE                                                                                000000000031500                            
50000410201108122011081500530522401387       PES0000035000A097132011081209500028                                                
6024600035000112290053052240138700035000021                                                                                     
7PESE                                                                                000000000035000                            
50000510201108122011081500534022545377       PES0000026000A097132011081209500029                                                
6024600026000112290053402254537700030000037                                                                                     
7PESE                                                                                000000000026000                            
50000610201108122011081501280229771122       PES0000036500A098932011081213330073                                                
6024600036500112300128022977112200000000021                                                                                     
7PESE                                                                                000000000036500                            
50000710201108122011081501280812290660       PES0000034500A088622011081211360094                                                
6024600034500112270128081229066000000000099                                                                                     
7PESE                                                                                000000000034500                            
50000810201108122011081501280327707810       PES0000036500A620812011081210200077                                                
6024600036500112280128032770781000000000078                                                                                     
7PESE                                                                                000000000036500                            
50000910201108122011081501280423434811       PES0000036500A620812011081212520148                                                
6024600036500112290128042343481100000000015                                                                                     
7PESE                                                                                000000000036500                            
50001010201108122011081599040123567984       PES0000025000A082952011081211270061                                                
6024600025000112279904012356798400000000437                                                                                     
7PESE                                                                                000000000025000                            
50001110201108122011081500503008274233       PES0000019500A085592011081217260060                                                
6024600019500112310050300827423300050000079                                                                                     
7PESE                                                                                000000000019500                            
50001210201108122011081501280422351537       PES0000036500D000802011081210120043                                                
6024600036500112300128042235153700000000078                                                                                     
7PESE                                                                                000000000036500                            
50001310201108122011081517020524912810       PES0000016000A042632011081218440047                                                
6024600016000112301702052491281000040000021                                                                                     
7PESE                                                                                000000000016000                            
50001410201108122011081544010233458985       PES0000006000A029772011081216430168                                                
6024600006000112264401023345898500010000090                                                                                     
7PESE                                                                                000000000006000                            
50001510201108122011081500503336070619       PES0000019500A030152011081218120087                                                
6024600019500112290050333607061900050000021                                                                                     
7PESE                                                                                000000000019500                            
50001610201108122011081500530714327792       PES0000035000A043992011081214350077                                                
6024600035000112310053071432779200035000021                                                                                     
7PESE                                                                                000000000035000                            
50001710201108122011081500502814327792       PES0000019500A043992011081214350078                                                
6024600019500112310050281432779200050000000                                                                                     
7PESE                                                                                000000000019500                            
50001810201108122011081517020714947828       PES0000016000A069392011081210230024                                                
6024600016000112291702071494782800040000078                                                                                     
7PESE                                                                                000000000016000                            
50001910201108122011081501280423129377       PES0000036500A028072011081213450039                                                
6024600036500112310128042312937700000000000                                                                                     
7PESE                                                                                000000000036500                            
50002010201108122011081500530617564651       PES0000035000A058512011081217240060                                                
6024600035000112290053061756465100035000057                                                                                     
7PESE                                                                                000000000035000                            
50002110201108122011081500502911273618       PES0000019500A055202011081219290180                                                
6024600019500112310050291127361800050000042                                                                                     
7PESE                                                                                000000000019500                            
50002210201108122011081502300426496017       PES0000031500A073472011081219240196                                                
6024600031500112260230042649601700030000078                                                                                     
7PESE                                                                                000000000031500                            
50002310201108122011081500502716728246       PES0000019500A090202011081217400072                                                
6024600019500112270050271672824600050000090                                                                                     
7PESE                                                                                000000000019500                            
50002410201108122011081500502524835612       PES0000019500A018912011081219460077                                                
6024600019500112310050252483561200050000021                                                                                     
7PESE                                                                                000000000019500                            
50002510201108122011081501280423389795       PES0000036500A070662011081217570029                                                
6024600036500112290128042338979500000000078                                                                                     
7PESE                                                                                000000000036500                            
50002610201108122011081500501528871737       PES0000019500M620082011081211520032                                                
6024600019500112260050152887173700050000042                                                                                     
7PESE                                                                                000000000019500                            
50002710201108122011081501280327131111       PES0000036500M620132011081216050032                                                
6024600036500112290128032713111100000000000                                                                                     
7PESE                                                                                000000000036500                            
50002810201108122011081501280326050433       PES0000036500M620062011081217080033                                                
6024600036500112290128032605043300000000078                                                                                     
7PESE                                                                                000000000036500                            
50002910201108122011081500501721983482       PES0000019500M601252011081215000152                                                
6024600019500112270050172198348200050000042                                                                                     
7PESE                                                                                000000000019500                            
50003010201108122011081500504424037133       PES0000019500A082002011081211200010                                                
6024600019500112280050442403713300050000099                                                                                     
7PESE                                                                                000000000019500                            
50003110201108132011081544010525130078       PES0000006000A601292011081309340001                                                
6024600006000112254401052513007800010000063                                                                                     
7PESE                                                                                000000000006000                            
50003210201108132011081501280617299215       PES0000036500A091482011081309510027                                                
6024600036500112290128061729921500000000036                                                                                     
7PESE                                                                                000000000036500                            
50003310201108132011081500502428322799       PES0000019500A050522011081313580102                                                
6024600019500112290050242832279900050000042                                                                                     
7PESE                                                                                000000000019500                            
50003410201108132011081544010522717888       PES0000006000A076892011081316040067                                                
6024600006000112264401052271788800010000478                                                                                     
7PESE                                                                                000000000006000                            
50003510201108132011081500501816264355       PES0000019500A079502011081310320188                                                
6024600019500112320050181626435500050000037                                                                                     
7PESE                                                                                000000000019500                            
50003610201108132011081500501528990563       PES0000019500A076112011081315130028                                                
6024600019500112290050152899056300050000063                                                                                     
7PESE                                                                                000000000019500                            
50003710201108132011081500500732533326       PES0000019500A076112011081315130029                                                
6024600019500112310050073253332600050000058                                                                                     
7PESE                                                                                000000000019500                            
50003810201108132011081517020814131782       PES0000016000L071152011081318280178                                                
6024600016000112271702081413178200040000042                                                                                     
7PESE                                                                                000000000016000                            
50003910201108142011081500540336943330       PES0000017500A099762011081412260025                                                
6024600017500112310054033694333000015000057                                                                                     
7PESE                                                                                000000000017500                            
50004010201108142011081502300425856384       PES0000031500A075232011081416450047                                                
6024600031500112270230042585638400030000263                                                                                     
7PESE                                                                                000000000031500                            
50004110201108142011081501280617632716       PES0000034500A036192011081421290228                                                
6024600034500112260128061763271600000000021                                                                                     
7PESE                                                                                000000000034500                            
50004210201108142011081501280522044180       PES0000036500A088172011081416560069                                                
6024600036500112290128052204418000000000021                                                                                     
7PESE                                                                                000000000036500                            
82011081500000100000420000010690000000000000000000000000000000000000000000042                                                   
9201108150000010000042000001069000000000000000000000000000000000000000000000042                                                 
