120120315PAGO FACIL               090060246FABIAN NORBERTO D´ERAMO                                                              
320120315000001FABIAN NORBERTO D´ERAMO                                                                                          
50000110201203142012031553010710687902       PES0000007500A053092012031414520300                                                
6024600007500120765301071068790200000000016                                                                                     
7PESE                                                                                000000000007500                            
50000210201203142012031553010317727809       PES0000007500D000082012031415440115                                                
6024600007500120785301031772780900000000016                                                                                     
7PESE                                                                                000000000007500                            
50000310201203142012031553011227401273       PES0000007500A049072012031417530280                                                
6024600007500120785301122740127300000000021                                                                                     
7PESE                                                                                000000000007500                            
50000410201203142012031598010131988438       PES0000010000A112182012031412340074                                                
6024600010000120759801013198843800000000621                                                                                     
7PESE                                                                                000000000010000                            
50000510201203142012031546081329988615       PES0000016000A061472012031417360031                                                
6024600016000120744608132998861500000000000                                                                                     
7PESE                                                                                000000000016000                            
50000610201203142012031546081813025880       PES0000016000A110612012031419000111                                                
6024600016000120744608181302588000000000000                                                                                     
7PESE                                                                                000000000016000                            
50000710201203142012031500691912588524       PES0000022000A113382012031412400044                                                
6024600022000120800069191258852400000000042                                                                                     
7PESE                                                                                000000000022000                            
50000810201203142012031502330523923814       PES0000028000A102192012031419220147                                                
6024600025000120670233052392381400030000742                                                                                     
7PESE                                                                                000000000028000                            
50000910201203142012031502330428601825       PES0000028000A062272012031418220047                                                
6024600028000120760233042860182500000000021                                                                                     
7PESE                                                                                000000000028000                            
50001010201203142012031502330618268656       PES0000028000A092162012031409530046                                                
6024600028000120760233061826865600000000057                                                                                     
7PESE                                                                                000000000028000                            
82012031500000100000100000001705000000000000000000000000000000000000000000010                                                   
9201203150000010000010000000170500000000000000000000000000000000000000000000010                                                 
