120111215PAGO FACIL               090060246FABIAN NORBERTO D´ERAMO                                                              
320111215000001FABIAN NORBERTO D´ERAMO                                                                                          
50000110201112142011121529060131272073       PES0000013000A072162011121317150206                                                
6024600013000113532906013127207300000000015                                                                                     
7PESE                                                                                000000000013000                            
50000210201112142011121553000516503417       PES0000009000A019812011121411570183                                                
6024600009000113495300051650341700020000000                                                                                     
7PESE                                                                                000000000009000                            
50000310201112142011121553000130832245       PES0000009000A109842011121418190083                                                
6024600009000113515300013083224500020000078                                                                                     
7PESE                                                                                000000000009000                            
50000410201112142011121500612714780568       PES0000012000A111352011121415100073                                                
6024600012000113550061271478056800020000042                                                                                     
7PESE                                                                                000000000012000                            
50000510201112142011121529060629799912       PES0000013000A029692011121419160118                                                
6024600013000113482906062979991200000000015                                                                                     
7PESE                                                                                000000000013000                            
50000610201112142011121529060820073533       PES0000013000A621032011121411050078                                                
6024600013000113522906082007353300000000036                                                                                     
7PESE                                                                                000000000013000                            
50000710201112142011121529060223781626       PES0000013000A109842011121414430258                                                
6024600013000113542906022378162600000000078                                                                                     
7PESE                                                                                000000000013000                            
50000810201112142011121529060317218623       PES0000013000A621032011121409220039                                                
6024600013000113542906031721862300000000063                                                                                     
7PESE                                                                                000000000013000                            
50000910201112142011121529060322416095       PES0000013000A109842011121414430259                                                
6024600013000113542906032241609500000000016                                                                                     
7PESE                                                                                000000000013000                            
50001010201112142011121500585229636573       PES0000025000A035802011121413590183                                                
6024600025000113480058522963657300000000084                                                                                     
7PESE                                                                                000000000025000                            
50001110201112142011121500582813527653       PES0000025000A108982011121410000010                                                
6024600025000113520058281352765300000000063                                                                                     
7PESE                                                                                000000000025000                            
50001210201112142011121500582814327792       PES0000025000A091122011121411450201                                                
6024600025000113520058281432779200000000058                                                                                     
7PESE                                                                                000000000025000                            
50001310201112142011121500583728924449       PES0000025000A036052011121413440085                                                
6024600025000113520058372892444900000000015                                                                                     
7PESE                                                                                000000000025000                            
50001410201112142011121500584041396831       PES0000025000A087042011121410480012                                                
6024600025000113520058404139683100000000021                                                                                     
7PESE                                                                                000000000025000                            
50001510201112142011121500584422032441       PES0000025000A071862011121411290038                                                
6024600025000113520058442203244100000000000                                                                                     
7PESE                                                                                000000000025000                            
50001610201112142011121500584517804912       PES0000025000A070602011121417530193                                                
6024600025000113520058451780491200000000037                                                                                     
7PESE                                                                                000000000025000                            
50001710201112142011121599030234722750       PES0000038500A103582011121412530315                                                
6024600038500113499903023472275000025000478                                                                                     
7PESE                                                                                000000000038500                            
50001810201112142011121523060227854678       PES0000076800A098212011121420460117                                                
6024600076800113492306022785467800192000479                                                                                     
7PESE                                                                                000000000076800                            
50001910201112142011121523060593688933       PES0000076800D000582011121416200225                                                
6024600076800113492306059368893300192000621                                                                                     
7PESE                                                                                000000000076800                            
50002010201112142011121523060793688933       PES0000076800D000582011121416190224                                                
6024600076800113492306079368893300192000678                                                                                     
7PESE                                                                                000000000076800                            
50002110201112142011121523060829913202       PES0000076800A620572011121411560052                                                
6024600076800113492306082991320200192000590                                                                                     
7PESE                                                                                000000000076800                            
50002210201112142011121523060937521591       PES0000076800A613862011121409330015                                                
6024600076800113492306093752159100192000500                                                                                     
7PESE                                                                                000000000076800                            
50002310201112142011121523061025897994       PES0000076800A087212011121416300144                                                
6024600076800113492306102589799400192000558                                                                                     
7PESE                                                                                000000000076800                            
50002410201112142011121523061025993199       PES0000076800A087612011121420000133                                                
6024600076800113492306102599319900192000636                                                                                     
7PESE                                                                                000000000076800                            
50002510201112142011121523061029314536       PES0000076800A087212011121416290142                                                
6024600076800113492306102931453600192000537                                                                                     
7PESE                                                                                000000000076800                            
50002610201112142011121523061031476883       PES0000076800A087212011121416290143                                                
6024600076800113492306103147688300192000584                                                                                     
7PESE                                                                                000000000076800                            
50002710201112142011121523061520039761       PES0000085400A098212011121415380008                                                
6024600085400113482306152003976100234000099                                                                                     
7PESE                                                                                000000000085400                            
50002810201112142011121523061126443486       PES0000085400M601102011121410180013                                                
6024600085400113492306112644348600234000579                                                                                     
7PESE                                                                                000000000085400                            
50002910201112142011121523061322706961       PES0000085400A047992011121415250101                                                
6024600085400113492306132270696100234000563                                                                                     
7PESE                                                                                000000000085400                            
50003010201112142011121523061330947014       PES0000085400A044742011121416440015                                                
6024600085400113492306133094701400234000578                                                                                     
7PESE                                                                                000000000085400                            
50003110201112142011121523061518160291       PES0000085400A041372011121416340267                                                
6024600085400113492306151816029100234000663                                                                                     
7PESE                                                                                000000000085400                            
50003210201112142011121523061520077389       PES0000085400A102222011121409470091                                                
6024600085400113492306152007738900234000599                                                                                     
7PESE                                                                                000000000085400                            
50003310201112142011121523061520296728       PES0000085400A077392011121418110003                                                
6024600085400113492306152029672800234000637                                                                                     
7PESE                                                                                000000000085400                            
50003410201112142011121523061522364896       PES0000085400A084122011121410350100                                                
6024600085400113492306152236489600234000421                                                                                     
7PESE                                                                                000000000085400                            
50003510201112142011121523061522467301       PES0000085400A107842011121419140096                                                
6024600085400113492306152246730100234000636                                                                                     
7PESE                                                                                000000000085400                            
50003610201112142011121523061613891183       PES0000085400A061852011121415560140                                                
6024600085400113492306161389118300234000678                                                                                     
7PESE                                                                                000000000085400                            
50003710201112142011121523061614062513       PES0000085400A061472011121419150273                                                
6024600085400113492306161406251300234000636                                                                                     
7PESE                                                                                000000000085400                            
50003810201112142011121523061837522649       PES0000085400A102222011121418500129                                                
6024600085400113492306183752264900234000600                                                                                     
7PESE                                                                                000000000085400                            
50003910201112142011121523061837674762       PES0000085400A028652011121411490046                                                
6024600085400113492306183767476200234000442                                                                                     
7PESE                                                                                000000000085400                            
50004010201112142011121523061838443367       PES0000085400L070952011121421091671                                                
6024600085400113492306183844336700234000521                                                                                     
7PESE                                                                                000000000085400                            
50004110201112142011121523061839427236       PES0000085400A093772011121414000165                                                
6024600085400113492306183942723600234000684                                                                                     
7PESE                                                                                000000000085400                            
50004210201112142011121523061923706449       PES0000085400M620152011121414580056                                                
6024600085400113492306192370644900234000500                                                                                     
7PESE                                                                                000000000085400                            
82011121500000100000420000023791000000000000000000000000000000000000000000042                                                   
9201112150000010000042000002379100000000000000000000000000000000000000000000042                                                 
