120110915PAGO FACIL               090060246FABIAN NORBERTO D´ERAMO                                                              
320110915000001FABIAN NORBERTO D´ERAMO                                                                                          
50000110201109142011091537020622166347       PES0000008000A063662011091418030190                                                
6024600008000112583702062216634700010000037                                                                                     
7PESE                                                                                000000000008000                            
50000210201109142011091537020426498185       PES0000008000A063662011091418030189                                                
6024600008000112593702042649818500010000021                                                                                     
7PESE                                                                                000000000008000                            
50000310201109142011091500504741106579       PES0000008500A096182011091412360271                                                
6024600008500112620050474110657900015000063                                                                                     
7PESE                                                                                000000000008500                            
50000410201109142011091500504742233680       PES0000008500A096182011091412350270                                                
6024600008500112620050474223368000015000021                                                                                     
7PESE                                                                                000000000008500                            
50000510201109142011091500504742409453       PES0000008500A096182011091412350269                                                
6024600008500112620050474240945300015000036                                                                                     
7PESE                                                                                000000000008500                            
50000610201109142011091500504742368297       PES0000008500A096182011091412330266                                                
6024600008500112640050474236829700015000099                                                                                     
7PESE                                                                                000000000008500                            
50000710201109142011091518321334653552       PES0000015000A096182011091418410099                                                
6024600015000112601832133465355200000000079                                                                                     
7PESE                                                                                000000000015000                            
50000810201109142011091500540430531074       PES0000017500A088622011091418040188                                                
6024600017500112630054043053107400015000100                                                                                     
7PESE                                                                                000000000017500                            
50000910201109142011091517020329363430       PES0000020000A099632011091412120140                                                
6024600020000112571702032936343000000000063                                                                                     
7PESE                                                                                000000000020000                            
50001010201109142011091517021540420252       PES0000020000M660232011091408410006                                                
6024600020000112581702154042025200000000042                                                                                     
7PESE                                                                                000000000020000                            
50001110201109142011091517020912147963       PES0000020000A640162011091411280099                                                
6024600020000112591702091214796300000000063                                                                                     
7PESE                                                                                000000000020000                            
50001210201109142011091517021411278201       PES0000020000A640162011091411270098                                                
6024600020000112591702141127820100000000079                                                                                     
7PESE                                                                                000000000020000                            
50001310201109142011091517020622087683       PES0000020000M640332011091414050072                                                
6024600020000112621702062208768300000000021                                                                                     
7PESE                                                                                000000000020000                            
50001410201109142011091517020620067415       PES0000020000A042632011091419080052                                                
6024600020000112641702062006741500000000021                                                                                     
7PESE                                                                                000000000020000                            
50001510201109142011091500502621096216       PES0000024500A075212011091413150067                                                
6024600024500112570050262109621600030000000                                                                                     
7PESE                                                                                000000000024500                            
50001610201109142011091500504330332982       PES0000024500A033762011091417450078                                                
6024600024500112570050433033298200030000021                                                                                     
7PESE                                                                                000000000024500                            
50001710201109142011091500504331096624       PES0000024500A082002011091418140086                                                
6024600024500112570050433109662400030000037                                                                                     
7PESE                                                                                000000000024500                            
50001810201109142011091500501335431363       PES0000024500A096182011091412340267                                                
6024600024500112620050133543136300030000016                                                                                     
7PESE                                                                                000000000024500                            
50001910201109142011091500502233273725       PES0000024500A097172011091416430007                                                
6024600024500112620050223327372500030000021                                                                                     
7PESE                                                                                000000000024500                            
50002010201109142011091500504425419050       PES0000024500A096182011091412340268                                                
6024600024500112620050442541905000030000058                                                                                     
7PESE                                                                                000000000024500                            
50002110201109142011091500501332917789       PES0000024500D000832011091415140126                                                
6024600024500112640050133291778900030000063                                                                                     
7PESE                                                                                000000000024500                            
50002210201109142011091500501525882975       PES0000024500A072612011091416430066                                                
6024600024500112640050152588297500030000079                                                                                     
7PESE                                                                                000000000024500                            
50002310201109142011091500504328478567       PES0000024500A096182011091412330265                                                
6024600024500112640050432847856700030000084                                                                                     
7PESE                                                                                000000000024500                            
50002410201109142011091500560224861732       PES0000025000D000572011091417350232                                                
6024600025000112600056022486173200000000016                                                                                     
7PESE                                                                                000000000025000                            
50002510201109142011091501280327508671       PES0000036500A106722011091413550135                                                
6024600036500112570128032750867100000000063                                                                                     
7PESE                                                                                000000000036500                            
50002610201109142011091501280328984483       PES0000036500A082642011091411470045                                                
6024600036500112590128032898448300000000099                                                                                     
7PESE                                                                                000000000036500                            
50002710201109142011091501280616926012       PES0000036500A072902011091418030496                                                
6024600036500112590128061692601200000000057                                                                                     
7PESE                                                                                000000000036500                            
50002810201109142011091501280907757111       PES0000036500A109722011091419380048                                                
6024600036500112590128090775711100000000037                                                                                     
7PESE                                                                                000000000036500                            
50002910201109142011091501280521670745       PES0000036500A025732011091415370002                                                
6024600036500112600128052167074500000000078                                                                                     
7PESE                                                                                000000000036500                            
50003010201109142011091501280614961092       PES0000036500A025732011091415370001                                                
6024600036500112600128061496109200000000037                                                                                     
7PESE                                                                                000000000036500                            
50003110201109142011091599030230531074       PES0000038500A088622011091418050189                                                
6024600038500112589903023053107400025000600                                                                                     
7PESE                                                                                000000000038500                            
82011091500000100000310000007055000000000000000000000000000000000000000000031                                                   
9201109150000010000031000000705500000000000000000000000000000000000000000000031                                                 
