120121115PAGO FACIL               090060246FABIAN NORBERTO D´ERAMO                                                              
320121115000001FABIAN NORBERTO D´ERAMO                                                                                          
50000110201211142012111571000326455443       PES0000010000A038942012111317300088                                                
6024600010000123207100032645544300000000016                                                                                     
7PESE                                                                                000000000010000                            
50000210201211142012111571000922964810       PES0000010000A038942012111317300089                                                
6024600010000123207100092296481000000000015                                                                                     
7PESE                                                                                000000000010000                            
50000310201211142012111571000924861985       PES0000010000A049072012111415220263                                                
6024600010000123207100092486198500000000058                                                                                     
7PESE                                                                                000000000010000                            
50000410201211142012111571000926169532       PES0000010000A049072012111415220262                                                
6024600010000123207100092616953200000000099                                                                                     
7PESE                                                                                000000000010000                            
50000510201211142012111559010420562841       PES0000011000A108472012111410270012                                                
6024600011000123235901042056284100000000036                                                                                     
7PESE                                                                                000000000011000                            
50000610201211142012111559011030673572       PES0000011000A087142012111408580008                                                
6024600011000123255901103067357200000000084                                                                                     
7PESE                                                                                000000000011000                            
50000710201211142012111559011126704117       PES0000011000A087142012111408580007                                                
6024600011000123255901112670411700000000078                                                                                     
7PESE                                                                                000000000011000                            
50000810201211142012111559011416250933       PES0000011000A056952012111411080075                                                
6024600011000123255901141625093300000000015                                                                                     
7PESE                                                                                000000000011000                            
50000910201211142012111598010128526550       PES0000015000A052842012111410140131                                                
6024600015000123209801012852655000000000563                                                                                     
7PESE                                                                                000000000015000                            
50001010201211142012111598010129826555       PES0000015000L070522012111419352180                                                
6024600015000123209801012982655500000000616                                                                                     
7PESE                                                                                000000000015000                            
50001110201211142012111569012331265807       PES0000017500A017262012111419380002                                                
6024600017500123246901233126580700025000090                                                                                     
7PESE                                                                                000000000017500                            
50001210201211142012111572000220238005       PES0000020000A102362012111411310170                                                
6024600020000123227200022023800500000000000                                                                                     
7PESE                                                                                000000000020000                            
50001310201211142012111572000223165553       PES0000020000L070682012111419213312                                                
6024600020000123267200022316555300000000021                                                                                     
7PESE                                                                                000000000020000                            
50001410201211142012111500772235657972       PES0000021000A115322012111413280157                                                
6024600021000123200077223565797200045000516                                                                                     
7PESE                                                                                000000000021000                            
50001510201211142012111500772620226948       PES0000021000A073822012111409260048                                                
6024600021000123200077262022694800045000621                                                                                     
7PESE                                                                                000000000021000                            
50001610201211142012111500773008330330       PES0000021000A007572012111417010097                                                
6024600021000123200077300833033000045000599                                                                                     
7PESE                                                                                000000000021000                            
50001710201211142012111500774326690761       PES0000021000A117592012111412030088                                                
6024600021000123200077432669076100045000478                                                                                     
7PESE                                                                                000000000021000                            
50001810201211142012111500750431912350       PES0000024500A033472012111418590158                                                
6024600022500123050075043191235000020007642                                                                                     
7PESE                                                                                000000000024500                            
50001910201211142012111500751527737931       PES0000024500A112852012111418120186                                                
6024600024500123190075152773793100000000057                                                                                     
7PESE                                                                                000000000024500                            
50002010201211142012111500752621841247       PES0000024500L120292012111416171145                                                
6024600024500123190075262184124700000000000                                                                                     
7PESE                                                                                000000000024500                            
50002110201211142012111500752717747436       PES0000024500A025052012111420310118                                                
6024600024500123190075271774743600000000000                                                                                     
7PESE                                                                                000000000024500                            
50002210201211142012111500750432639543       PES0000024500A079132012111416280312                                                
6024600024500123200075043263954300000000099                                                                                     
7PESE                                                                                000000000024500                            
50002310201211142012111500750529654772       PES0000024500A033472012111418580157                                                
6024600024500123200075052965477200000000084                                                                                     
7PESE                                                                                000000000024500                            
50002410201211142012111500750732269383       PES0000024500A620302012111411340073                                                
6024600024500123200075073226938300000000057                                                                                     
7PESE                                                                                000000000024500                            
50002510201211142012111500750829461508       PES0000024500A112852012111418120187                                                
6024600024500123200075082946150800000000000                                                                                     
7PESE                                                                                000000000024500                            
50002610201211142012111500751348991712       PES0000024500A064992012111412080074                                                
6024600024500123200075134899171200000000021                                                                                     
7PESE                                                                                000000000024500                            
50002710201211142012111500752525181395       PES0000024500A118992012111416320054                                                
6024600024500123200075252518139500000000057                                                                                     
7PESE                                                                                000000000024500                            
50002810201211142012111500752594614615       PES0000024500A028962012111411010082                                                
6024600024500123200075259461461500000000078                                                                                     
7PESE                                                                                000000000024500                            
50002910201211142012111500753339918325       PES0000024500A602062012111410310062                                                
6024600024500123200075333991832500000000016                                                                                     
7PESE                                                                                000000000024500                            
50003010201211142012111500540429317503       PES0000026000A081582012111417360172                                                
6024600026000123250054042931750300010000136                                                                                     
7PESE                                                                                000000000026000                            
50003110201211142012111599030136996669       PES0000046500A044382012111414200170                                                
6024600043000123129903013699666900035000737                                                                                     
7PESE                                                                                000000000046500                            
50003210201211142012111599030129317503       PES0000046500A081582012111417360173                                                
6024600046500123209903012931750300025000699                                                                                     
7PESE                                                                                000000000046500                            
50003310201211142012111599030133597989       PES0000046500A085512012111416360057                                                
6024600046500123209903013359798900025000336                                                                                     
7PESE                                                                                000000000046500                            
50003410201211142012111599030135755092       PES0000046500A114352012111418270217                                                
6024600046500123209903013575509200025000584                                                                                     
7PESE                                                                                000000000046500                            
50003510201211142012111599030136806018       PES0000046500A091172012111410000022                                                
6024600046500123209903013680601800025000015                                                                                     
7PESE                                                                                000000000046500                            
50003610201211142012111501330910463418       PES0000052000D001662012111411440084                                                
6024600052000123190133091046341800080000036                                                                                     
7PESE                                                                                000000000052000                            
50003710201211142012111501331423745885       PES0000052000A087612012111410310121                                                
6024600052000123190133142374588500080000063                                                                                     
7PESE                                                                                000000000052000                            
50003810201211142012111501331425187832       PES0000052000A065492012111418370252                                                
6024600052000123190133142518783200080000084                                                                                     
7PESE                                                                                000000000052000                            
50003910201211142012111501331520256945       PES0000052000A092352012111416230064                                                
6024600052000123190133152025694500080000021                                                                                     
7PESE                                                                                000000000052000                            
50004010201211142012111501331520330559       PES0000052000A049552012111418050050                                                
6024600052000123190133152033055900080000016                                                                                     
7PESE                                                                                000000000052000                            
50004110201211142012111501331520838411       PES0000052000A049072012111417240128                                                
6024600052000123190133152083841100080000063                                                                                     
7PESE                                                                                000000000052000                            
50004210201211142012111501331521604916       PES0000052000A039012012111411490067                                                
6024600052000123190133152160491600080000016                                                                                     
7PESE                                                                                000000000052000                            
50004310201211142012111501331425648311       PES0000052000A045732012111409580006                                                
6024600052000123200133142564831100080000042                                                                                     
7PESE                                                                                000000000052000                            
50004410201211142012111501331523222603       PES0000052000M601612012111416170133                                                
6024600052000123200133152322260300080000036                                                                                     
7PESE                                                                                000000000052000                            
50004510201211142012111501331521670745       PES0000052000A025732012111411350082                                                
6024600052000123210133152167074500080000058                                                                                     
7PESE                                                                                000000000052000                            
50004610201211142012111501331424823099       PES0000052000A091662012111414540321                                                
6024600052000123240133142482309900080000078                                                                                     
7PESE                                                                                000000000052000                            
50004710201211142012111501331618380580       PES0000052000A116832012111413160049                                                
6024600052000123240133161838058000080000021                                                                                     
7PESE                                                                                000000000052000                            
50004810201211142012111501330327285928       PES0000052000M600832012111411410053                                                
6024600052000123250133032728592800080000016                                                                                     
7PESE                                                                                000000000052000                            
50004910201211142012111501331425062922       PES0000052000A087612012111419590158                                                
6024600052000123260133142506292200080000079                                                                                     
7PESE                                                                                000000000052000                            
50005010201211142012111501331425108661       PES0000052000A602062012111411200078                                                
6024600052000123260133142510866100080000057                                                                                     
7PESE                                                                                000000000052000                            
50005110201211142012111501331522090793       PES0000052000A602062012111411200077                                                
6024600052000123260133152209079300080000015                                                                                     
7PESE                                                                                000000000052000                            
82012111500000100000510000016400000000000000000000000000000000000000000000051                                                   
9201211150000010000051000001640000000000000000000000000000000000000000000000051                                                 
