120120815PAGO FACIL               090060246FABIAN NORBERTO D´ERAMO                                                              
320120815000001FABIAN NORBERTO D´ERAMO                                                                                          
50000110201208142012081500540237110422       PES0000026000A010432012081312300117                                                
6024600026000122260054023711042200010000090                                                                                     
7PESE                                                                                000000000026000                            
50000210201208142012081500714744712981       PES0000008000A110622012081409290029                                                
6024600008000122270071474471298100010000036                                                                                     
7PESE                                                                                000000000008000                            
50000310201208142012081557010616168839       PES0000015000A073842012081418490050                                                
6024600015000122345701061616883900000000037                                                                                     
7PESE                                                                                000000000015000                            
50000410201208142012081559000517863324       PES0000016000A100022012081413190259                                                
6024600016000122275900051786332400000000078                                                                                     
7PESE                                                                                000000000016000                            
50000510201208142012081559000517673474       PES0000016000M620002012081412140091                                                
6024600016000122285900051767347400000000036                                                                                     
7PESE                                                                                000000000016000                            
50000610201208142012081559000612212604       PES0000016000A620362012081410580021                                                
6024600016000122325900061221260400000000037                                                                                     
7PESE                                                                                000000000016000                            
50000710201208142012081559001418124655       PES0000016000A620362012081411000022                                                
6024600016000122325900141812465500000000057                                                                                     
7PESE                                                                                000000000016000                            
50000810201208142012081500714423958503       PES0000023500A110622012081409290028                                                
6024600023500122270071442395850300055000021                                                                                     
7PESE                                                                                000000000023500                            
50000910201208142012081500710430693351       PES0000023500A092172012081414520346                                                
6024600023500122290071043069335100055000078                                                                                     
7PESE                                                                                000000000023500                            
50001010201208142012081500712525890274       PES0000023500A025052012081412110097                                                
6024600023500122300071252589027400055000036                                                                                     
7PESE                                                                                000000000023500                            
50001110201208142012081500711529536580       PES0000023500A018912012081417580221                                                
6024600023500122330071152953658000055000090                                                                                     
7PESE                                                                                000000000023500                            
50001210201208142012081500711022247634       PES0000023500A116412012081415300059                                                
6024600023500122340071102224763400055000084                                                                                     
7PESE                                                                                000000000023500                            
50001310201208142012081500714420695077       PES0000023500D000492012081412370134                                                
6024600023500122340071442069507700055000021                                                                                     
7PESE                                                                                000000000023500                            
50001410201208142012081517030529287289       PES0000025000A640282012081409590010                                                
6024600025000122341703052928728900050000000                                                                                     
7PESE                                                                                000000000025000                            
50001510201208142012081500722012366415       PES0000031000A090752012081410380126                                                
6024600031000122340072201236641500040000016                                                                                     
7PESE                                                                                000000000031000                            
50001610201208142012081559001825178976       PES0000032000M620752012081413410047                                                
6024600032000122345900182517897600000000084                                                                                     
7PESE                                                                                000000000032000                            
50001710201208142012081502390718514130       PES0000033000A097162012081419520155                                                
6024600033000122330239071851413000030000116                                                                                     
7PESE                                                                                000000000033000                            
50001810201208142012081500720713908389       PES0000042000A026442012081412340352                                                
6024600042000122330072071390838900045000084                                                                                     
7PESE                                                                                000000000042000                            
50001910201208142012081501320713908389       PES0000045000A026442012081412340353                                                
6024600045000122300132071390838900050000021                                                                                     
7PESE                                                                                000000000045000                            
50002010201208142012081501320714789235       PES0000045000A028072012081414260185                                                
6024600045000122310132071478923500050000090                                                                                     
7PESE                                                                                000000000045000                            
50002110201208142012081501320423129377       PES0000045000A028072012081415000200                                                
6024600045000122320132042312937700050000078                                                                                     
7PESE                                                                                000000000045000                            
50002210201208142012081501321136232606       PES0000045000D001262012081419340086                                                
6024600045000122320132113623260600050000084                                                                                     
7PESE                                                                                000000000045000                            
50002310201208142012081501320423317590       PES0000045000A116102012081410320062                                                
6024600045000122330132042331759000050000090                                                                                     
7PESE                                                                                000000000045000                            
50002410201208142012081501320521909301       PES0000045000A033762012081416420048                                                
6024600045000122330132052190930100050000063                                                                                     
7PESE                                                                                000000000045000                            
50002510201208142012081501320522401387       PES0000045000A047802012081413270132                                                
6024600045000122330132052240138700050000021                                                                                     
7PESE                                                                                000000000045000                            
50002610201208142012081501320522436248       PES0000045000A112382012081414520196                                                
6024600045000122330132052243624800050000090                                                                                     
7PESE                                                                                000000000045000                            
50002710201208142012081599030131925405       PES0000046500A600702012081411030035                                                
6024600046500122289903013192540500025000042                                                                                     
7PESE                                                                                000000000046500                            
50002810201208142012081560001023574556       PES0000075000A099542012081414560168                                                
6024600075000122316000102357455600050000063                                                                                     
7PESE                                                                                000000000075000                            
82012081500000100000280000008985000000000000000000000000000000000000000000028                                                   
9201208150000010000028000000898500000000000000000000000000000000000000000000028                                                 
