120110715PAGO FACIL               090060246FABIAN NORBERTO D´ERAMO                                                              
320110715000001FABIAN NORBERTO D´ERAMO                                                                                          
50000110201107142011071500501020435876       PES0000015500L120202011071416116732                                                
6024600015500111990050102043587600090000263                                                                                     
7PESE                                                                                000000000015500                            
50000210201107142011071500501020948007       PES0000015500A045312011071411260078                                                
6024600015500111990050102094800700090000363                                                                                     
7PESE                                                                                000000000015500                            
50000310201107142011071500501114647031       PES0000015500A091682011071411040087                                                
6024600015500111990050111464703100090000215                                                                                     
7PESE                                                                                000000000015500                            
50000410201107142011071500501116223213       PES0000015500L120052011071418562703                                                
6024600015500111990050111622321300090000263                                                                                     
7PESE                                                                                000000000015500                            
50000510201107142011071500502328547828       PES0000015500A058372011071410570306                                                
6024600015500111990050232854782800090000336                                                                                     
7PESE                                                                                000000000015500                            
50000610201107142011071500502425708290       PES0000015500A087612011071410150077                                                
6024600015500111990050242570829000090000284                                                                                     
7PESE                                                                                000000000015500                            
50000710201107142011071500502426323337       PES0000015500A072002011071413040200                                                
6024600015500111990050242632333700090000315                                                                                     
7PESE                                                                                000000000015500                            
50000810201107142011071500502428421518       PES0000015500A091152011071416120448                                                
6024600015500111990050242842151800090000290                                                                                     
7PESE                                                                                000000000015500                            
50000910201107142011071500502523499815       PES0000015500A020722011071409500011                                                
6024600015500111990050252349981500090000215                                                                                     
7PESE                                                                                000000000015500                            
50001010201107142011071500502714876045       PES0000015500A085592011071411010074                                                
6024600015500111990050271487604500090000263                                                                                     
7PESE                                                                                000000000015500                            
50001110201107142011071500502714877274       PES0000015500A087412011071410450072                                                
6024600015500111990050271487727400090000200                                                                                     
7PESE                                                                                000000000015500                            
50001210201107142011071500502717632022       PES0000015500A010922011071410430031                                                
6024600015500111990050271763202200090000221                                                                                     
7PESE                                                                                000000000015500                            
50001310201107142011071500502813117550       PES0000015500A020722011071409500010                                                
6024600015500111990050281311755000090000237                                                                                     
7PESE                                                                                000000000015500                            
50001410201107142011071500503914161791       PES0000015500L120052011071418562702                                                
6024600015500111990050391416179100090000215                                                                                     
7PESE                                                                                000000000015500                            
50001510201107142011071500504138788505       PES0000015500A069512011071413480126                                                
6024600015500111990050413878850500090000237                                                                                     
7PESE                                                                                000000000015500                            
50001610201107142011071500504331448447       PES0000015500A069512011071413480127                                                
6024600015500111990050433144844700090000299                                                                                     
7PESE                                                                                000000000015500                            
50001710201107142011071500540236399286       PES0000025500A033992011071414590015                                                
6024600025500111990054023639928600015000179                                                                                     
7PESE                                                                                000000000025500                            
82011071500000100000170000002735000000000000000000000000000000000000000000017                                                   
9201107150000010000017000000273500000000000000000000000000000000000000000000017                                                 
