120130115PAGO FACIL               090060246FABIAN NORBERTO D´ERAMO                                                              
320130115000001FABIAN NORBERTO D´ERAMO                                                                                          
50000110201301142013011569020714541026       PES0000010000A069302013011111030071                                                
6024600010000130166902071454102600000000058                                                                                     
7PESE                                                                                000000000010000                            
50000210201301142013011502430232554625       PES0000035000A100672013011120020079                                                
6024600035000130180243023255462500050000016                                                                                     
7PESE                                                                                000000000035000                            
50000310201301142013011502433422272627       PES0000024000A097592013011211450073                                                
6024600024000130190243342227262700060000057                                                                                     
7PESE                                                                                000000000024000                            
50000410201301142013011569020140119382       PES0000010000A098192013011417140114                                                
6024600010000130186902014011938200000000099                                                                                     
7PESE                                                                                000000000010000                            
50000510201301142013011569020520490365       PES0000010000A098192013011417140115                                                
6024600010000130186902052049036500000000090                                                                                     
7PESE                                                                                000000000010000                            
50000610201301142013011569021422307093       PES0000010000A620382013011408510007                                                
6024600010000130186902142230709300000000042                                                                                     
7PESE                                                                                000000000010000                            
50000710201301142013011573011207739154       PES0000010000A092052013011413100216                                                
6024600010000130197301120773915400020000079                                                                                     
7PESE                                                                                000000000010000                            
50000810201301142013011599030134332391       PES0000040375A024432013011419190074                                                
6024600040375130189903013433239100030500057                                                                                     
7PESE                                                                                000000000040375                            
50000910201301142013011599030134332391       PES0000043350A024432013011419200075                                                
6024600043350130159903013433239100021750300                                                                                     
7PESE                                                                                000000000043350                            
50001010201301142013011501340521080844       PES0000135000M600292013011412180064                                                
6024600135000130170134052108084400150000042                                                                                     
7PESE                                                                                000000000135000                            
50001110201301142013011501340520403768       PES0000135000A081712013011414470165                                                
6024600135000130180134052040376800150000090                                                                                     
7PESE                                                                                000000000135000                            
50001210201301142013011501341425235079       PES0000135000L071532013011415085228                                                
6024600135000130180134142523507900150000057                                                                                     
7PESE                                                                                000000000135000                            
50001310201301142013011501341426251012       PES0000135000A057152013011414460002                                                
6024600135000130180134142625101200150000042                                                                                     
7PESE                                                                                000000000135000                            
50001410201301142013011501341618131371       PES0000135000D000022013011417440241                                                
6024600135000130190134161813137100150000021                                                                                     
7PESE                                                                                000000000135000                            
50001510201301142013011501341618220126       PES0000135000A082602013011409130021                                                
6024600135000130190134161822012600150000042                                                                                     
7PESE                                                                                000000000135000                            
50001610201301142013011501341423147609       PES0000135000A051082013011414270102                                                
6024600135000130200134142314760900150000084                                                                                     
7PESE                                                                                000000000135000                            
82013011500000100000160000011377250000000000000000000000000000000000000000016                                                   
9201301150000010000016000001137725000000000000000000000000000000000000000000016                                                 
