120121016PAGO FACIL               090060246FABIAN NORBERTO D´ERAMO                                                              
320121016000001FABIAN NORBERTO D´ERAMO                                                                                          
50000110201210152012101600721327511939       PES0000047500A078662012101209020006                                                
6024600046500122790072132751193900010000799                                                                                     
7PESE                                                                                000000000047500                            
50000210201210152012101665000522501688       PES0000013000M600102012101310480022                                                
6024600013000122906500052250168800015000057                                                                                     
7PESE                                                                                000000000013000                            
50000310201210152012101665000527225647       PES0000013000M600102012101310480021                                                
6024600013000122916500052722564700015000084                                                                                     
7PESE                                                                                000000000013000                            
50000410201210152012101670001428255848       PES0000005000A110682012101518000017                                                
6024600005000122897000142825584800000000721                                                                                     
7PESE                                                                                000000000005000                            
50000510201210152012101671001310981517       PES0000010000M601612012101514170127                                                
6024600010000122927100131098151700000000042                                                                                     
7PESE                                                                                000000000010000                            
50000610201210152012101671001311770097       PES0000010000M601612012101514150126                                                
6024600010000122927100131177009700000000090                                                                                     
7PESE                                                                                000000000010000                            
50000710201210152012101665000138089491       PES0000013000A088992012101511250055                                                
6024600013000122946500013808949100015000121                                                                                     
7PESE                                                                                000000000013000                            
50000810201210152012101665000311385722       PES0000013000A085512012101517150057                                                
6024600013000122946500031138572200015000157                                                                                     
7PESE                                                                                000000000013000                            
50000910201210152012101669012235657972       PES0000015000A115322012101508070001                                                
6024600015000122896901223565797200025000021                                                                                     
7PESE                                                                                000000000015000                            
50001010201210152012101698010136926061       PES0000015000A086882012101512460116                                                
6024600015000122899801013692606100000000300                                                                                     
7PESE                                                                                000000000015000                            
50001110201210152012101669011913945018       PES0000015000A097872012101519360054                                                
6024600015000122966901191394501800025000036                                                                                     
7PESE                                                                                000000000015000                            
50001210201210152012101698020135174854       PES0000016000A079132012101518070215                                                
6024600016000122899802013517485400005000416                                                                                     
7PESE                                                                                000000000016000                            
50001310201210152012101699020220442739       PES0000022000A107662012101518120187                                                
6024600022000122899902022044273900000000742                                                                                     
7PESE                                                                                000000000022000                            
50001410201210152012101699040135174854       PES0000030500A079132012101518060214                                                
6024600030500122899904013517485400015000436                                                                                     
7PESE                                                                                000000000030500                            
50001510201210152012101600712428421261       PES0000032500A035852012101515500137                                                
6024600032500122890071242842126100000000021                                                                                     
7PESE                                                                                000000000032500                            
50001610201210152012101600713235609820       PES0000032500A017262012101518460160                                                
6024600032500122890071323560982000000000036                                                                                     
7PESE                                                                                000000000032500                            
50001710201210152012101600712622623670       PES0000032500A040232012101517480180                                                
6024600032500122900071262262367000000000000                                                                                     
7PESE                                                                                000000000032500                            
50001810201210152012101600713193502977       PES0000032500A046802012101511470084                                                
6024600032500122900071319350297700000000099                                                                                     
7PESE                                                                                000000000032500                            
50001910201210152012101600712524603833       PES0000032500A028472012101511230017                                                
6024600032500122910071252460383300000000063                                                                                     
7PESE                                                                                000000000032500                            
50002010201210152012101600713304008811       PES0000032500A065702012101516520038                                                
6024600032500122910071330400881100000000063                                                                                     
7PESE                                                                                000000000032500                            
50002110201210152012101600714138797489       PES0000032500A099612012101519420077                                                
6024600032500122930071413879748900000000021                                                                                     
7PESE                                                                                000000000032500                            
50002210201210152012101600710227818329       PES0000032500A111362012101516050080                                                
6024600032500122950071022781832900000000016                                                                                     
7PESE                                                                                000000000032500                            
50002310201210152012101600712139120633       PES0000032500A106072012101518460061                                                
6024600032500122960071213912063300000000036                                                                                     
7PESE                                                                                000000000032500                            
50002410201210152012101600712525647018       PES0000032500A063842012101514540055                                                
6024600032500122960071252564701800000000015                                                                                     
7PESE                                                                                000000000032500                            
50002510201210152012101600722626257638       PES0000037500A601292012101511490053                                                
6024600037500122920072262625763800000000037                                                                                     
7PESE                                                                                000000000037500                            
50002610201210152012101600722623165076       PES0000037500A602292012101509100017                                                
6024600037500122930072262316507600000000021                                                                                     
7PESE                                                                                000000000037500                            
50002710201210152012101600723816940222       PES0000037500A078072012101518410036                                                
6024600037500122930072381694022200000000000                                                                                     
7PESE                                                                                000000000037500                            
50002810201210152012101600722620510413       PES0000037500A104662012101513220179                                                
6024600037500122950072262051041300000000058                                                                                     
7PESE                                                                                000000000037500                            
50002910201210152012101699030136991781       PES0000039525A110382012101517460020                                                
6024600039525122899903013699178100021500321                                                                                     
7PESE                                                                                000000000039525                            
50003010201210152012101600720329732215       PES0000047500A111862012101514230074                                                
6024600047500122890072032973221500000000042                                                                                     
7PESE                                                                                000000000047500                            
50003110201210152012101600720692494515       PES0000047500A119482012101513060071                                                
6024600047500122900072069249451500000000099                                                                                     
7PESE                                                                                000000000047500                            
50003210201210152012101600720714789572       PES0000047500A078732012101516450010                                                
6024600047500122900072071478957200000000037                                                                                     
7PESE                                                                                000000000047500                            
50003310201210152012101600720328505764       PES0000047500A602252012101515310221                                                
6024600047500122910072032850576400000000057                                                                                     
7PESE                                                                                000000000047500                            
50003410201210152012101600720618072743       PES0000047500A101482012101510110022                                                
6024600047500122920072061807274300000000079                                                                                     
7PESE                                                                                000000000047500                            
50003510201210152012101600720329741620       PES0000047500A117342012101517170207                                                
6024600047500122940072032974162000000000016                                                                                     
7PESE                                                                                000000000047500                            
50003610201210152012101600720713416688       PES0000047500A091692012101513520217                                                
6024600047500122940072071341668800000000058                                                                                     
7PESE                                                                                000000000047500                            
50003710201210152012101600720423362363       PES0000047500A601492012101511180071                                                
6024600047500122950072042336236300000000042                                                                                     
7PESE                                                                                000000000047500                            
50003810201210152012101600720136791230       PES0000047500A107532012101510140065                                                
6024600047500122960072013679123000000000016                                                                                     
7PESE                                                                                000000000047500                            
82012101600000100000380000011800250000000000000000000000000000000000000000038                                                   
9201210160000010000038000001180025000000000000000000000000000000000000000000038                                                 
