120121217PAGO FACIL               090060246FABIAN NORBERTO D´ERAMO                                                              
320121217000001FABIAN NORBERTO D´ERAMO                                                                                          
50000110201212142012121700771526709744       PES0000028500A098582012121108490006                                                
6024600028500123460077152670974400000000042                                                                                     
7PESE                                                                                000000000028500                            
50000210201212142012121700772717419149       PES0000028500A049452012121316500126                                                
6024600028500123480077271741914900000000042                                                                                     
7PESE                                                                                000000000028500                            
50000310201212142012121799030133434151       PES0000046500A081272012121310270068                                                
6024600046500123509903013343415100025000490                                                                                     
7PESE                                                                                000000000046500                            
50000410201212142012121798010229446013       PES0000029500A064022012121409520051                                                
6024600029500123509801022944601300000000558                                                                                     
7PESE                                                                                000000000029500                            
50000510201212142012121799040134430590       PES0000030500A102852012121411320097                                                
6024600030500123509904013443059000015000436                                                                                     
7PESE                                                                                000000000030500                            
50000610201212142012121702420326420271       PES0000040000A103612012121409030002                                                
6024600040000123490242032642027100075000057                                                                                     
7PESE                                                                                000000000040000                            
50000710201212142012121773000130657934       PES0000015000A063402012121409100046                                                
6024600015000123557300013065793400040000078                                                                                     
7PESE                                                                                000000000015000                            
50000810201212142012121773000120638183       PES0000015000A640562012121410390067                                                
6024600015000123507300012063818300040000084                                                                                     
7PESE                                                                                000000000015000                            
50000910201212142012121773000113930719       PES0000015000A640562012121410390068                                                
6024600015000123547300011393071900040000042                                                                                     
7PESE                                                                                000000000015000                            
50001010201212142012121773000124540472       PES0000015000A092162012121413070213                                                
6024600015000123547300012454047200040000078                                                                                     
7PESE                                                                                000000000015000                            
50001110201212142012121773000221614055       PES0000015000A092162012121413070214                                                
6024600015000123547300022161405500040000000                                                                                     
7PESE                                                                                000000000015000                            
50001210201212142012121799030134630666       PES0000046500A092162012121417540474                                                
6024600046500123509903013463066600025000490                                                                                     
7PESE                                                                                000000000046500                            
50001310201212142012121773000102645328       PES0000015000A083632012121414080244                                                
6024600015000123557300010264532800040000079                                                                                     
7PESE                                                                                000000000015000                            
50001410201212142012121773000229062281       PES0000015000A083632012121414080245                                                
6024600015000123557300022906228100040000015                                                                                     
7PESE                                                                                000000000015000                            
50001510201212142012121799030136070637       PES0000046500A028072012121419120144                                                
6024600046500123509903013607063700025000642                                                                                     
7PESE                                                                                000000000046500                            
50001610201212142012121702420522859346       PES0000040000M600092012121413490281                                                
6024600040000123520242052285934600075000016                                                                                     
7PESE                                                                                000000000040000                            
50001710201212142012121702420522808796       PES0000040000M600102012121413040174                                                
6024600040000123550242052280879600075000042                                                                                     
7PESE                                                                                000000000040000                            
82012121700000100000170000004815000000000000000000000000000000000000000000017                                                   
9201212170000010000017000000481500000000000000000000000000000000000000000000017                                                 
