120111117PAGO FACIL               090060246FABIAN NORBERTO D´ERAMO                                                              
320111117000001FABIAN NORBERTO D´ERAMO                                                                                          
50000110201111162011111701301913405650       PES0000040000A086982011111517500183                                                
6024600040000113240130191340565000000000084                                                                                     
7PESE                                                                                000000000040000                            
50000210201111162011111701300717657049       PES0000040000A086982011111517510184                                                
6024600040000113240130071765704900000000063                                                                                     
7PESE                                                                                000000000040000                            
50000310201111162011111701290523091610       PES0000037000A105092011111513300098                                                
6024600037000113200129052309161000000000042                                                                                     
7PESE                                                                                000000000037000                            
50000410201111162011111718350621442955       PES0000020000A601492011111511350086                                                
6024600020000113251835062144295500000000084                                                                                     
7PESE                                                                                000000000020000                            
50000510201111162011111700574743872047       PES0000008500A020992011111513500068                                                
6024600008500113230057474387204700000000016                                                                                     
7PESE                                                                                000000000008500                            
50000610201111162011111748021026959833       PES0000020000M620032011111510590050                                                
6024600020000113254802102695983300000000000                                                                                     
7PESE                                                                                000000000020000                            
50000710201111162011111700574740397119       PES0000008500A025662011111619590021                                                
6024600008500113200057474039711900000000042                                                                                     
7PESE                                                                                000000000008500                            
50000810201111162011111700574742929835       PES0000008500A033862011111610000079                                                
6024600008500113230057474292983500000000000                                                                                     
7PESE                                                                                000000000008500                            
50000910201111162011111752000911078430       PES0000009000L120282011111610407710                                                
6024600009000113205200091107843000000000063                                                                                     
7PESE                                                                                000000000009000                            
50001010201111162011111729060228351775       PES0000010000A005322011111617560256                                                
6024600010000113202906022835177500030000015                                                                                     
7PESE                                                                                000000000010000                            
50001110201111162011111729060318538639       PES0000010000A057152011111618260187                                                
6024600010000113202906031853863900030000021                                                                                     
7PESE                                                                                000000000010000                            
50001210201111162011111729060320669628       PES0000010000A080522011111617170026                                                
6024600010000113252906032066962800030000000                                                                                     
7PESE                                                                                000000000010000                            
50001310201111162011111729060636179529       PES0000010000A080082011111618420154                                                
6024600010000113262906063617952900030000063                                                                                     
7PESE                                                                                000000000010000                            
50001410201111162011111700571525509096       PES0000011000A042592011111612020018                                                
6024600011000113230057152550909600000000063                                                                                     
7PESE                                                                                000000000011000                            
50001510201111162011111746070233410547       PES0000020000A068912011111611510108                                                
6024600020000113204607023341054700060000021                                                                                     
7PESE                                                                                000000000020000                            
50001610201111162011111700573538995948       PES0000022000A025662011111619580020                                                
6024600022000113200057353899594800000000036                                                                                     
7PESE                                                                                000000000022000                            
50001710201111162011111700575325848882       PES0000022000A602252011111610290004                                                
6024600022000113210057532584888200000000016                                                                                     
7PESE                                                                                000000000022000                            
50001810201111162011111700571527737931       PES0000022000A045372011111620180169                                                
6024600022000113230057152773793100000000058                                                                                     
7PESE                                                                                000000000022000                            
50001910201111162011111700572523698591       PES0000022000A042592011111612030019                                                
6024600022000113230057252369859100000000078                                                                                     
7PESE                                                                                000000000022000                            
50002010201111162011111700572525144420       PES0000022000A018912011111613250272                                                
6024600022000113230057252514442000000000042                                                                                     
7PESE                                                                                000000000022000                            
50002110201111162011111700573824532215       PES0000022000A051152011111619110122                                                
6024600022000113230057382453221500000000079                                                                                     
7PESE                                                                                000000000022000                            
50002210201111162011111700574611154803       PES0000022000A055332011111615210005                                                
6024600022000113230057461115480300000000037                                                                                     
7PESE                                                                                000000000022000                            
50002310201111162011111700582427735326       PES0000022500A044222011111617260114                                                
6024600022500113210058242773532600025000078                                                                                     
7PESE                                                                                000000000022500                            
50002410201111162011111700582427084687       PES0000022500A085592011111615510030                                                
6024600022500113250058242708468700025000084                                                                                     
7PESE                                                                                000000000022500                            
50002510201111162011111701290234583532       PES0000037000A072002011111615370052                                                
6024600037000113200129023458353200000000000                                                                                     
7PESE                                                                                000000000037000                            
50002610201111162011111701290329199956       PES0000037000A095492011111615420175                                                
6024600037000113200129032919995600000000000                                                                                     
7PESE                                                                                000000000037000                            
50002710201111162011111701290425866829       PES0000037000A055702011111613280103                                                
6024600037000113200129042586682900000000058                                                                                     
7PESE                                                                                000000000037000                            
50002810201111162011111701290426364580       PES0000037000A098232011111618010027                                                
6024600037000113200129042636458000000000084                                                                                     
7PESE                                                                                000000000037000                            
50002910201111162011111701290426432262       PES0000037000A007352011111619150128                                                
6024600037000113200129042643226200000000042                                                                                     
7PESE                                                                                000000000037000                            
50003010201111162011111701290522481871       PES0000037000A093312011111608060025                                                
6024600037000113200129052248187100000000037                                                                                     
7PESE                                                                                000000000037000                            
50003110201111162011111701290524405502       PES0000037000A095492011111615420174                                                
6024600037000113200129052440550200000000057                                                                                     
7PESE                                                                                000000000037000                            
50003210201111162011111701290524546368       PES0000037000M620412011111616550029                                                
6024600037000113200129052454636800000000057                                                                                     
7PESE                                                                                000000000037000                            
50003310201111162011111701290618177748       PES0000037000M620412011111616560030                                                
6024600037000113200129061817774800000000021                                                                                     
7PESE                                                                                000000000037000                            
50003410201111162011111701290620249201       PES0000037000A007192011111609210017                                                
6024600037000113200129062024920100000000042                                                                                     
7PESE                                                                                000000000037000                            
50003510201111162011111701290621004148       PES0000037000A049612011111610390024                                                
6024600037000113200129062100414800000000079                                                                                     
7PESE                                                                                000000000037000                            
50003610201111162011111701290621090352       PES0000037000D000132011111614060124                                                
6024600037000113200129062109035200000000016                                                                                     
7PESE                                                                                000000000037000                            
50003710201111162011111701290621433416       PES0000037000A070632011111615190006                                                
6024600037000113200129062143341600000000016                                                                                     
7PESE                                                                                000000000037000                            
50003810201111162011111701290713872869       PES0000037000A079752011111613340081                                                
6024600037000113200129071387286900000000057                                                                                     
7PESE                                                                                000000000037000                            
50003910201111162011111701290717076590       PES0000037000M620412011111609080002                                                
6024600037000113200129071707659000000000037                                                                                     
7PESE                                                                                000000000037000                            
50004010201111162011111701290717589500       PES0000037000A016702011111617100139                                                
6024600037000113200129071758950000000000000                                                                                     
7PESE                                                                                000000000037000                            
50004110201111162011111701290812628409       PES0000037000A097432011111616550224                                                
6024600037000113200129081262840900000000016                                                                                     
7PESE                                                                                000000000037000                            
50004210201111162011111701291107811174       PES0000037000D000602011111611180034                                                
6024600037000113200129110781117400000000057                                                                                     
7PESE                                                                                000000000037000                            
50004310201111162011111701291526995945       PES0000037000A038202011111618130099                                                
6024600037000113200129152699594500000000078                                                                                     
7PESE                                                                                000000000037000                            
50004410201111162011111701301625687290       PES0000040000A035982011111611350001                                                
6024600040000113210130162568729000000000084                                                                                     
7PESE                                                                                000000000040000                            
50004510201111162011111701301720045080       PES0000040000A081792011111609510041                                                
6024600040000113210130172004508000000000016                                                                                     
7PESE                                                                                000000000040000                            
50004610201111162011111701301914101309       PES0000040000A054142011111615060131                                                
6024600040000113210130191410130900000000021                                                                                     
7PESE                                                                                000000000040000                            
50004710201111162011111701301335275095       PES0000040000L120262011111617471471                                                
6024600040000113220130133527509500000000063                                                                                     
7PESE                                                                                000000000040000                            
50004810201111162011111701301431303492       PES0000040000A096062011111611420089                                                
6024600040000113220130143130349200000000084                                                                                     
7PESE                                                                                000000000040000                            
50004910201111162011111701301527659567       PES0000040000D001482011111611470105                                                
6024600040000113220130152765956700000000057                                                                                     
7PESE                                                                                000000000040000                            
50005010201111162011111701301527707810       PES0000040000A620812011111611180060                                                
6024600040000113220130152770781000000000058                                                                                     
7PESE                                                                                000000000040000                            
50005110201111162011111701302012729428       PES0000040000A044742011111618390008                                                
6024600040000113220130201272942800000000042                                                                                     
7PESE                                                                                000000000040000                            
50005210201111162011111701301430463588       PES0000040000A105632011111612310037                                                
6024600040000113230130143046358800000000036                                                                                     
7PESE                                                                                000000000040000                            
50005310201111162011111701300522401738       PES0000040000A100652011111616560008                                                
6024600040000113250130052240173800000000084                                                                                     
7PESE                                                                                000000000040000                            
50005410201111162011111701301622944434       PES0000040000M620022011111618540032                                                
6024600040000113260130162294443400000000015                                                                                     
7PESE                                                                                000000000040000                            
50005510201111162011111701301625264786       PES0000040000A070632011111608230022                                                
6024600040000113260130162526478600000000057                                                                                     
7PESE                                                                                000000000040000                            
50005610201111162011111701302012587799       PES0000040000M600042011111613470115                                                
6024600040000113260130201258779900000000037                                                                                     
7PESE                                                                                000000000040000                            
50005710201111162011111701301914375265       PES0000040000D000152011111616380190                                                
6024600040000113270130191437526500000000084                                                                                     
7PESE                                                                                000000000040000                            
82011111700000100000570000017245000000000000000000000000000000000000000000057                                                   
9201111170000010000057000001724500000000000000000000000000000000000000000000057                                                 
