120111017PAGO FACIL               090060246FABIAN NORBERTO D´ERAMO                                                              
320111017000001FABIAN NORBERTO D´ERAMO                                                                                          
50000110201110142011101700504233218960       PES0000027500A090432011101314490084                                                
6024600027500112910050423321896000000000021                                                                                     
7PESE                                                                                000000000027500                            
50000210201110142011101700574516492813       PES0000020000A106052011101312510026                                                
6024600020000112870057451649281300020000057                                                                                     
7PESE                                                                                000000000020000                            
50000310201110142011101700575520522202       PES0000020000A106052011101312510027                                                
6024600020000112890057552052220200020000057                                                                                     
7PESE                                                                                000000000020000                            
50000410201110142011101700504425358753       PES0000027500D001482011101411190046                                                
6024600027500112940050442535875300000000057                                                                                     
7PESE                                                                                000000000027500                            
50000510201110142011101799030233017000       PES0000038500A038432011101410080028                                                
6024600038500112889903023301700000025000316                                                                                     
7PESE                                                                                000000000038500                            
50000610201110142011101700530592733401       PES0000039500A039032011101411090149                                                
6024600039500112930053059273340100000000016                                                                                     
7PESE                                                                                000000000039500                            
50000710201110142011101700504423509291       PES0000027500A034312011101413060235                                                
6024600027500112930050442350929100000000042                                                                                     
7PESE                                                                                000000000027500                            
50000810201110142011101700530423787418       PES0000039500A103612011101415040060                                                
6024600039500112920053042378741800000000000                                                                                     
7PESE                                                                                000000000039500                            
50000910201110142011101701290814459909       PES0000037000A077372011101413520149                                                
6024600037000112920129081445990900000000021                                                                                     
7PESE                                                                                000000000037000                            
50001010201110142011101700501116921228       PES0000027500A040552011101416220308                                                
6024600027500112920050111692122800000000079                                                                                     
7PESE                                                                                000000000027500                            
50001110201110142011101700520325647594       PES0000026000A092152011101417090536                                                
6024600026000112880052032564759400000000063                                                                                     
7PESE                                                                                000000000026000                            
50001210201110142011101799040134998991       PES0000025000A096952011101417400377                                                
6024600025000112889904013499899100000000657                                                                                     
7PESE                                                                                000000000025000                            
50001310201110142011101720040330044666       PES0000006000A059742011101418260252                                                
6024600006000112922004033004466600000000063                                                                                     
7PESE                                                                                000000000006000                            
50001410201110142011101700530714789572       PES0000039500A049072011101417230265                                                
6024600039500112930053071478957200000000084                                                                                     
7PESE                                                                                000000000039500                            
50001510201110142011101700582329393012       PES0000018500A028672011101416580111                                                
6024600018500112940058232939301200040000078                                                                                     
7PESE                                                                                000000000018500                            
50001610201110142011101701290331532456       PES0000037000A075002011101417140306                                                
6024600037000112930129033153245600000000078                                                                                     
7PESE                                                                                000000000037000                            
50001710201110142011101700520235657972       PES0000026000A093412011101419180200                                                
6024600026000112880052023565797200000000090                                                                                     
7PESE                                                                                000000000026000                            
50001810201110142011101700530422411600       PES0000039500A082642011101418400022                                                
6024600038500112830053042241160000010000600                                                                                     
7PESE                                                                                000000000039500                            
50001910201110142011101700520621901661       PES0000026000D000592011101418250232                                                
6024600026000112880052062190166100000000016                                                                                     
7PESE                                                                                000000000026000                            
50002010201110142011101700504138925915       PES0000027500A090432011101417250120                                                
6024600027500112910050413892591500000000000                                                                                     
7PESE                                                                                000000000027500                            
50002110201110142011101720040493772466       PES0000006000A088622011101419280227                                                
6024600006000112932004049377246600000000000                                                                                     
7PESE                                                                                000000000006000                            
50002210201110152011101701290522949215       PES0000037000A044482011101510120022                                                
6024600037000112920129052294921500000000042                                                                                     
7PESE                                                                                000000000037000                            
50002310201110152011101701290618829045       PES0000037000A044482011101510120023                                                
6024600037000112920129061882904500000000099                                                                                     
7PESE                                                                                000000000037000                            
50002410201110152011101700572910428619       PES0000020000A050552011101511180031                                                
6024600020000112910057291042861900020000015                                                                                     
7PESE                                                                                000000000020000                            
50002510201110152011101700503440188437       PES0000027500A109842011101513180033                                                
6024600027500112890050344018843700000000057                                                                                     
7PESE                                                                                000000000027500                            
50002610201110152011101700530618324344       PES0000039500A063632011101513130160                                                
6024600039500112930053061832434400000000078                                                                                     
7PESE                                                                                000000000039500                            
50002710201110152011101700530424706775       PES0000039500A105292011101511040008                                                
6024600038500112830053042470677500010000790                                                                                     
7PESE                                                                                000000000039500                            
82011101700000100000270000007820000000000000000000000000000000000000000000027                                                   
9201110170000010000027000000782000000000000000000000000000000000000000000000027                                                 
