120120217PAGO FACIL               090060246FABIAN NORBERTO D´ERAMO                                                              
320120217000001FABIAN NORBERTO D´ERAMO                                                                                          
50000110201202162012021753010430992634       PES0000006000A790072012021611080051                                                
6024600006000120545301043099263400015000084                                                                                     
7PESE                                                                                000000000006000                            
50000210201202162012021718370331500174       PES0000020000A109822012021616460028                                                
6024600020000120471837033150017400000000021                                                                                     
7PESE                                                                                000000000020000                            
50000310201202162012021718370331729736       PES0000020000A044652012021617390077                                                
6024600020000120471837033172973600000000084                                                                                     
7PESE                                                                                000000000020000                            
50000410201202162012021718370524508573       PES0000020000A016962012021610430104                                                
6024600020000120471837052450857300000000015                                                                                     
7PESE                                                                                000000000020000                            
50000510201202162012021718370812321767       PES0000020000A014502012021619030151                                                
6024600020000120471837081232176700000000015                                                                                     
7PESE                                                                                000000000020000                            
50000610201202162012021718372335940901       PES0000020000A075232012021616400059                                                
6024600020000120471837233594090100000000079                                                                                     
7PESE                                                                                000000000020000                            
50000710201202162012021718372431752925       PES0000020000A031092012021619120063                                                
6024600020000120471837243175292500000000016                                                                                     
7PESE                                                                                000000000020000                            
50000810201202162012021700683917726049       PES0000021000A056382012021611160134                                                
6024600021000120540068391772604900020000079                                                                                     
7PESE                                                                                000000000021000                            
50000910201202162012021700600327008562       PES0000029000A002342012021614390007                                                
6024600029000120470060032700856200000000063                                                                                     
7PESE                                                                                000000000029000                            
50001010201202162012021700600521459111       PES0000029000A099032012021610560022                                                
6024600029000120470060052145911100000000084                                                                                     
7PESE                                                                                000000000029000                            
50001110201202162012021700600617178642       PES0000029000A041372012021614360259                                                
6024600029000120470060061717864200000000000                                                                                     
7PESE                                                                                000000000029000                            
50001210201202162012021700600811685991       PES0000029000A108852012021613030076                                                
6024600029000120470060081168599100000000063                                                                                     
7PESE                                                                                000000000029000                            
50001310201202162012021701311328362939       PES0000097000A600962012021613480199                                                
6024600097000120510131132836293900000000000                                                                                     
7PESE                                                                                000000000097000                            
50001410201202162012021701311423091610       PES0000097000A105092012021612200023                                                
6024600097000120530131142309161000000000090                                                                                     
7PESE                                                                                000000000097000                            
50001510201202162012021723060726367946       PES0000121600A098212012021617050076                                                
6024600121600120472306072636794600000000042                                                                                     
7PESE                                                                                000000000121600                            
50001610201202162012021723060935626169       PES0000121600A613832012021610550053                                                
6024600121600120492306093562616900000000036                                                                                     
7PESE                                                                                000000000121600                            
50001710201202162012021723061020163813       PES0000121600A094212012021617030135                                                
6024600121600120522306102016381300000000099                                                                                     
7PESE                                                                                000000000121600                            
50001810201202162012021754000117093973       PES0000125000A110092012021611500099                                                
6024600125000120515400011709397300000000021                                                                                     
7PESE                                                                                000000000125000                            
50001910201202162012021754000112289318       PES0000125000A110092012021611500098                                                
6024600125000120525400011228931800000000021                                                                                     
7PESE                                                                                000000000125000                            
50002010201202162012021723061422901856       PES0000136600A104202012021619130050                                                
6024600136600120472306142290185600000000063                                                                                     
7PESE                                                                                000000000136600                            
50002110201202162012021723061922671657       PES0000136600M620022012021618400032                                                
6024600136600120492306192267165700000000042                                                                                     
7PESE                                                                                000000000136600                            
82012021700000100000210000013450000000000000000000000000000000000000000000021                                                   
9201202170000010000021000001345000000000000000000000000000000000000000000000021                                                 
