120120418PAGO FACIL               090060246FABIAN NORBERTO D´ERAMO                                                              
320120418000001FABIAN NORBERTO D´ERAMO                                                                                          
50000110201204172012041802353529741620       PES0000017000A075742012041719340195                                                
6024600017000121080235352974162000030000099                                                                                     
7PESE                                                                                000000000017000                            
50000210201204172012041802353818581134       PES0000017000A078112012041711100032                                                
6024600017000121080235381858113400030000042                                                                                     
7PESE                                                                                000000000017000                            
50000310201204172012041802351622000399       PES0000017000A089262012041714560014                                                
6024600017000121100235162200039900030000579                                                                                     
7PESE                                                                                000000000017000                            
50000410201204172012041802353338407880       PES0000017000A017262012041712120095                                                
6024600017000121100235333840788000030000358                                                                                     
7PESE                                                                                000000000017000                            
50000510201204172012041802353627563241       PES0000017000A075742012041719340196                                                
6024600017000121100235362756324100030000542                                                                                     
7PESE                                                                                000000000017000                            
50000610201204172012041802353821094467       PES0000017000A031192012041713390047                                                
6024600017000121100235382109446700030000358                                                                                     
7PESE                                                                                000000000017000                            
50000710201204172012041899030135775683       PES0000021550A055702012041713100131                                                
6024600020250121069903013577568300013000479                                                                                     
7PESE                                                                                000000000021550                            
50000810201204172012041802350525044083       PES0000029000D000312012041709510028                                                
6024600029000121080235052504408300040000015                                                                                     
7PESE                                                                                000000000029000                            
50000910201204172012041802350714976437       PES0000029000M600172012041716470229                                                
6024600029000121080235071497643700040000063                                                                                     
7PESE                                                                                000000000029000                            
50001010201204172012041802350622436248       PES0000029000A039102012041716390201                                                
6024600029000121100235062243624800040000515                                                                                     
7PESE                                                                                000000000029000                            
50001110201204172012041802352536089355       PES0000029000A085382012041711590110                                                
6024600029000121100235253608935500040000457                                                                                     
7PESE                                                                                000000000029000                            
50001210201204172012041899030135755065       PES0000043000A112862012041710490063                                                
6024600040500121069903013575506500025000463                                                                                     
7PESE                                                                                000000000043000                            
50001310201204172012041899030135398990       PES0000043000A620822012041710000023                                                
6024600043000121149903013539899000000000078                                                                                     
7PESE                                                                                000000000043000                            
50001410201204172012041899030136087988       PES0000043000A103582012041711430153                                                
6024600043000121149903013608798800000000090                                                                                     
7PESE                                                                                000000000043000                            
82012041800000100000140000003685500000000000000000000000000000000000000000014                                                   
9201204180000010000014000000368550000000000000000000000000000000000000000000014                                                 
