120130118PAGO FACIL               090060246FABIAN NORBERTO D´ERAMO                                                              
320130118000001FABIAN NORBERTO D´ERAMO                                                                                          
50000110201301172013011802433727500011       PES0000035000A017262013011611070075                                                
6024600035000130200243372750001100050000137                                                                                     
7PESE                                                                                000000000035000                            
50000210201301172013011802430617607849       PES0000035000A017262013011611080076                                                
6024600035000130180243061760784900050000084                                                                                     
7PESE                                                                                000000000035000                            
50000310201301172013011899030132639591       PES0000053500A079012013011611510059                                                
6024600053500130239903013263959100000000000                                                                                     
7PESE                                                                                000000000053500                            
50000410201301172013011829090730526676       PES0000015000A095862013011620090082                                                
6024600015000130232909073052667600000000090                                                                                     
7PESE                                                                                000000000015000                            
50000510201301172013011873010728855540       PES0000010000A072282013011708550032                                                
6024600010000130177301072885554000020000000                                                                                     
7PESE                                                                                000000000010000                            
50000610201301172013011869020522636352       PES0000010000A640772013011707590001                                                
6024600010000130186902052263635200000000084                                                                                     
7PESE                                                                                000000000010000                            
50000710201301172013011829090224501245       PES0000015000A115802013011712420047                                                
6024600015000130232909022450124500000000042                                                                                     
7PESE                                                                                000000000015000                            
50000810201301172013011829090225826485       PES0000015000A115802013011712420046                                                
6024600015000130232909022582648500000000000                                                                                     
7PESE                                                                                000000000015000                            
50000910201301172013011829090723464328       PES0000015000A092162013011711500178                                                
6024600015000130232909072346432800000000057                                                                                     
7PESE                                                                                000000000015000                            
50001010201301172013011829090223438512       PES0000015000A037752013011710520148                                                
6024600015000130242909022343851200000000063                                                                                     
7PESE                                                                                000000000015000                            
50001110201301172013011829090225530653       PES0000015000M700012013011718040031                                                
6024600015000130242909022553065300000000016                                                                                     
7PESE                                                                                000000000015000                            
50001210201301172013011829090226590078       PES0000015000A091162013011712010179                                                
6024600015000130242909022659007800000000090                                                                                     
7PESE                                                                                000000000015000                            
50001310201301172013011829091317935203       PES0000025000A620442013011711370013                                                
6024600025000130222909131793520300000000037                                                                                     
7PESE                                                                                000000000025000                            
50001410201301172013011829091631660129       PES0000025000A043992013011710360046                                                
6024600025000130222909163166012900000000000                                                                                     
7PESE                                                                                000000000025000                            
50001510201301172013011829091634230258       PES0000025000A043992013011710360047                                                
6024600025000130222909163423025800000000063                                                                                     
7PESE                                                                                000000000025000                            
50001610201301172013011829091911556159       PES0000025000A118112013011710260010                                                
6024600025000130222909191155615900000000021                                                                                     
7PESE                                                                                000000000025000                            
50001710201301172013011829091224872680       PES0000025000A115802013011712420048                                                
6024600025000130232909122487268000000000063                                                                                     
7PESE                                                                                000000000025000                            
50001810201301172013011829091227910477       PES0000025000A117592013011710320005                                                
6024600025000130242909122791047700000000000                                                                                     
7PESE                                                                                000000000025000                            
50001910201301172013011802430231729736       PES0000035000M600642013011712040033                                                
6024600035000130200243023172973600050000400                                                                                     
7PESE                                                                                000000000035000                            
50002010201301172013011802430329182882       PES0000035000A660492013011710580131                                                
6024600035000130200243032918288200050000484                                                                                     
7PESE                                                                                000000000035000                            
50002110201301172013011802430425127944       PES0000035000M601642013011714440143                                                
6024600035000130200243042512794400050000184                                                                                     
7PESE                                                                                000000000035000                            
50002210201301172013011802430520020148       PES0000035000A100652013011716580113                                                
6024600035000130200243052002014800050000478                                                                                     
7PESE                                                                                000000000035000                            
50002310201301172013011802430714961092       PES0000035000A071242013011713050221                                                
6024600035000130200243071496109200050000384                                                                                     
7PESE                                                                                000000000035000                            
50002410201301172013011802431522401738       PES0000035000A100652013011716540112                                                
6024600035000130200243152240173800050000479                                                                                     
7PESE                                                                                000000000035000                            
50002510201301172013011801341327125544       PES0000135000A095412013011714230005                                                
6024600135000130170134132712554400150000084                                                                                     
7PESE                                                                                000000000135000                            
50002610201301172013011801341327729078       PES0000135000A024432013011716300052                                                
6024600135000130170134132772907800150000037                                                                                     
7PESE                                                                                000000000135000                            
50002710201301172013011801341425095179       PES0000135000A095412013011714230006                                                
6024600135000130170134142509517900150000078                                                                                     
7PESE                                                                                000000000135000                            
50002810201301172013011801341518878737       PES0000135000M601622013011713310161                                                
6024600135000130170134151887873700150000036                                                                                     
7PESE                                                                                000000000135000                            
50002910201301172013011801341712588854       PES0000135000A093092013011718460309                                                
6024600135000130170134171258885400150000099                                                                                     
7PESE                                                                                000000000135000                            
50003010201301172013011801341521636519       PES0000135000A117892013011715160115                                                
6024600135000130180134152163651900150000021                                                                                     
7PESE                                                                                000000000135000                            
50003110201301172013011801341713940501       PES0000135000M601652013011710270026                                                
6024600135000130180134171394050100150000079                                                                                     
7PESE                                                                                000000000135000                            
50003210201301172013011801341618350301       PES0000135000M620282013011709280006                                                
6024600135000130210134161835030100150000042                                                                                     
7PESE                                                                                000000000135000                            
50003310201301172013011801341424378328       PES0000135000A109902013011713140146                                                
6024600135000130220134142437832800150000021                                                                                     
7PESE                                                                                000000000135000                            
50003410201301172013011801341425865088       PES0000135000A109902013011713150148                                                
6024600135000130220134142586508800150000078                                                                                     
7PESE                                                                                000000000135000                            
50003510201301172013011801341426280508       PES0000135000A109902013011713140147                                                
6024600135000130220134142628050800150000000                                                                                     
7PESE                                                                                000000000135000                            
50003610201301172013011801341492439021       PES0000135000A092052013011713510326                                                
6024600135000130220134149243902100150000021                                                                                     
7PESE                                                                                000000000135000                            
50003710201301172013011801341617935203       PES0000135000A620442013011711360012                                                
6024600135000130220134161793520300150000063                                                                                     
7PESE                                                                                000000000135000                            
50003810201301172013011801341424608328       PES0000135000A091492013011712260125                                                
6024600135000130230134142460832800150000042                                                                                     
7PESE                                                                                000000000135000                            
50003910201301172013011801341716336308       PES0000135000A116902013011714460192                                                
6024600135000130230134171633630800150000000                                                                                     
7PESE                                                                                000000000135000                            
50004010201301172013011801341232537882       PES0000135000A068912013011716040047                                                
6024600135000130240134123253788200150000078                                                                                     
7PESE                                                                                000000000135000                            
50004110201301172013011801341329182882       PES0000135000A660492013011710580132                                                
6024600135000130240134132918288200150000063                                                                                     
7PESE                                                                                000000000135000                            
82013011800000100000410000029035000000000000000000000000000000000000000000041                                                   
9201301180000010000041000002903500000000000000000000000000000000000000000000041                                                 
