120120918PAGO FACIL               090060246FABIAN NORBERTO D´ERAMO                                                              
320120918000001FABIAN NORBERTO D´ERAMO                                                                                          
50000110201209172012091801320328283827       PES0000045000A014502012091619170192                                                
6024600045000122600132032828382700050000600                                                                                     
7PESE                                                                                000000000045000                            
50000210201209172012091801321328831118       PES0000045000A014502012091621120285                                                
6024600045000122600132132883111800050000600                                                                                     
7PESE                                                                                000000000045000                            
50000310201209172012091801320616478703       PES0000045000A059512012091617510173                                                
6024600045000122600132061647870300050000357                                                                                     
7PESE                                                                                000000000045000                            
50000410201209172012091801320618223360       PES0000045000A059512012091618360205                                                
6024600045000122600132061822336000050000215                                                                                     
7PESE                                                                                000000000045000                            
50000510201209172012091800714743193300       PES0000009000A025052012091720270100                                                
6024600009000122640071474319330000025000063                                                                                     
7PESE                                                                                000000000009000                            
50000610201209172012091865000194611318       PES0000013000A108002012091716050034                                                
6024600013000122626500019461131800015000078                                                                                     
7PESE                                                                                000000000013000                            
50000710201209172012091865000216183418       PES0000013000A108002012091716050036                                                
6024600013000122626500021618341800015000021                                                                                     
7PESE                                                                                000000000013000                            
50000810201209172012091865000522355331       PES0000013000A108002012091716050035                                                
6024600013000122626500052235533100015000084                                                                                     
7PESE                                                                                000000000013000                            
50000910201209172012091865000226468833       PES0000013000A108002012091716050037                                                
6024600013000122646500022646883300015000000                                                                                     
7PESE                                                                                000000000013000                            
50001010201209172012091800540329317503       PES0000026000A081582012091717410333                                                
6024600026000122640054032931750300010000484                                                                                     
7PESE                                                                                000000000026000                            
50001110201209172012091800540436157259       PES0000026000A105602012091712490243                                                
6024600026000122640054043615725900010000021                                                                                     
7PESE                                                                                000000000026000                            
50001210201209172012091800712525940522       PES0000029000A068642012091718270138                                                
6024600029000122610071252594052200035000021                                                                                     
7PESE                                                                                000000000029000                            
50001310201209172012091800712622962494       PES0000029000L070062012091713330847                                                
6024600029000122610071262296249400035000042                                                                                     
7PESE                                                                                000000000029000                            
50001410201209172012091800714326577341       PES0000029000A049022012091719110112                                                
6024600029000122610071432657734100035000021                                                                                     
7PESE                                                                                000000000029000                            
50001510201209172012091800710827000633       PES0000029000A102852012091713360163                                                
6024600029000122620071082700063300035000058                                                                                     
7PESE                                                                                000000000029000                            
50001610201209172012091800711528168143       PES0000029000M600432012091713390190                                                
6024600029000122620071152816814300035000079                                                                                     
7PESE                                                                                000000000029000                            
50001710201209172012091800712622252161       PES0000029000M600432012091713390191                                                
6024600029000122620071262225216100035000000                                                                                     
7PESE                                                                                000000000029000                            
50001810201209172012091800713917351978       PES0000029000A108132012091716100099                                                
6024600029000122630071391735197800035000063                                                                                     
7PESE                                                                                000000000029000                            
50001910201209172012091800711118397174       PES0000029000A064852012091710220120                                                
6024600029000122640071111839717400035000078                                                                                     
7PESE                                                                                000000000029000                            
50002010201209172012091800711626580849       PES0000029000A077402012091716510051                                                
6024600029000122640071162658084900035000090                                                                                     
7PESE                                                                                000000000029000                            
50002110201209172012091800712331867017       PES0000029000A076762012091711470078                                                
6024600029000122640071233186701700035000036                                                                                     
7PESE                                                                                000000000029000                            
50002210201209172012091800711333845489       PES0000029000A108532012091709100009                                                
6024600029000122650071133384548900035000063                                                                                     
7PESE                                                                                000000000029000                            
50002310201209172012091800712333402441       PES0000029000A092042012091713400265                                                
6024600029000122680071233340244100035000099                                                                                     
7PESE                                                                                000000000029000                            
50002410201209172012091817031010950225       PES0000030000A113832012091710540004                                                
6024600030000122641703101095022500000000042                                                                                     
7PESE                                                                                000000000030000                            
50002510201209172012091817030916092513       PES0000030000A078592012091711570108                                                
6024600030000122651703091609251300000000078                                                                                     
7PESE                                                                                000000000030000                            
50002610201209172012091800722528054497       PES0000035000A107942012091716450091                                                
6024600035000122660072252805449700025000079                                                                                     
7PESE                                                                                000000000035000                            
50002710201209172012091801320230648883       PES0000045000M620412012091711260012                                                
6024600045000122600132023064888300050000679                                                                                     
7PESE                                                                                000000000045000                            
50002810201209172012091801320231454020       PES0000045000A097712012091716430179                                                
6024600045000122600132023145402000050000342                                                                                     
7PESE                                                                                000000000045000                            
50002910201209172012091801320326842535       PES0000045000M620412012091715380027                                                
6024600045000122600132032684253500050000690                                                                                     
7PESE                                                                                000000000045000                            
50003010201209172012091801320328759938       PES0000045000A087612012091711050007                                                
6024600045000122600132032875993800050000399                                                                                     
7PESE                                                                                000000000045000                            
50003110201209172012091801320522203904       PES0000045000A068912012091717500032                                                
6024600045000122600132052220390400050000316                                                                                     
7PESE                                                                                000000000045000                            
50003210201209172012091801320616738317       PES0000045000A620572012091709550010                                                
6024600045000122600132061673831700050000021                                                                                     
7PESE                                                                                000000000045000                            
50003310201209172012091800720617513056       PES0000046500A051862012091709420012                                                
6024600046500122670072061751305600010000063                                                                                     
7PESE                                                                                000000000046500                            
50003410201209172012091800720713994786       PES0000046500A106012012091716200033                                                
6024600046500122680072071399478600010000015                                                                                     
7PESE                                                                                000000000046500                            
50003510201209172012091899030129317503       PES0000049000A081582012091717410332                                                
6024600049000122689903012931750300000000099                                                                                     
7PESE                                                                                000000000049000                            
50003610201209172012091801320133908779       PES0000050000M620022012091718000072                                                
6024600050000122660132013390877900000000063                                                                                     
7PESE                                                                                000000000050000                            
50003710201209172012091801320502100767       PES0000050000A064992012091712040196                                                
6024600050000122660132050210076700000000057                                                                                     
7PESE                                                                                000000000050000                            
82012091800000100000370000012480000000000000000000000000000000000000000000037                                                   
9201209180000010000037000001248000000000000000000000000000000000000000000000037                                                 
