120121018PAGO FACIL               090060246FABIAN NORBERTO D´ERAMO                                                              
320121018000001FABIAN NORBERTO D´ERAMO                                                                                          
50000110201210172012101844020521907599       PES0000008500A114982012101615540047                                                
6024600008500122964402052190759900000000042                                                                                     
7PESE                                                                                000000000008500                            
50000210201210172012101869000232584014       PES0000006000A077902012101718310144                                                
6024600006000122986900023258401400000000000                                                                                     
7PESE                                                                                000000000006000                            
50000310201210172012101800714742233680       PES0000011500A101602012101710100053                                                
6024600011500122910071474223368000000000037                                                                                     
7PESE                                                                                000000000011500                            
50000410201210172012101800714741586054       PES0000011500A065362012101712100075                                                
6024600011500122920071474158605400000000090                                                                                     
7PESE                                                                                000000000011500                            
50000510201210172012101865000733837425       PES0000011700A071232012101710370054                                                
6024600011700122936500073383742500013000037                                                                                     
7PESE                                                                                000000000011700                            
50000610201210172012101865000226158168       PES0000013000A049092012101715010376                                                
6024600013000122916500022615816800015000058                                                                                     
7PESE                                                                                000000000013000                            
50000710201210172012101865000130172020       PES0000013000A049072012101716200132                                                
6024600013000122926500013017202000015000079                                                                                     
7PESE                                                                                000000000013000                            
50000810201210172012101865000131913494       PES0000013000A049072012101716200131                                                
6024600013000122926500013191349400015000015                                                                                     
7PESE                                                                                000000000013000                            
50000910201210172012101865000229708596       PES0000013000A049072012101716200133                                                
6024600013000122926500022970859600015000079                                                                                     
7PESE                                                                                000000000013000                            
50001010201210172012101871000218132040       PES0000013000M600292012101712420035                                                
6024600013000122927100021813204000000000037                                                                                     
7PESE                                                                                000000000013000                            
50001110201210172012101871001020025248       PES0000013000M600292012101712420034                                                
6024600013000122927100102002524800000000036                                                                                     
7PESE                                                                                000000000013000                            
50001210201210172012101865000138153160       PES0000013000D000482012101711150045                                                
6024600013000122946500013815316000000000321                                                                                     
7PESE                                                                                000000000013000                            
50001310201210172012101865000220735776       PES0000013000D000482012101711150044                                                
6024600013000122946500022073577600000000390                                                                                     
7PESE                                                                                000000000013000                            
50001410201210172012101865000224379056       PES0000013000A090502012101709240020                                                
6024600013000122946500022437905600015000142                                                                                     
7PESE                                                                                000000000013000                            
50001510201210172012101865000228515831       PES0000013000A063662012101709270040                                                
6024600013000122946500022851583100015000337                                                                                     
7PESE                                                                                000000000013000                            
50001610201210172012101865000436577349       PES0000013000A063662012101717320155                                                
6024600013000122946500043657734900000000479                                                                                     
7PESE                                                                                000000000013000                            
50001710201210172012101818400138045988       PES0000025000M620142012101710410015                                                
6024600015000122871840013804598800100000699                                                                                     
7PESE                                                                                000000000025000                            
50001810201210172012101869011238282916       PES0000015000L071192012101719542429                                                
6024600015000122916901123828291600025000078                                                                                     
7PESE                                                                                000000000015000                            
50001910201210172012101898010435203934       PES0000019500A002542012101710500055                                                
6024600019500122949801043520393400000000242                                                                                     
7PESE                                                                                000000000019500                            
50002010201210172012101800752235067511       PES0000022500A090992012101711230144                                                
6024600022500122920075223506751100020000090                                                                                     
7PESE                                                                                000000000022500                            
50002110201210172012101818400525029685       PES0000025000A601832012101710070017                                                
6024600025000122961840052502968500000000000                                                                                     
7PESE                                                                                000000000025000                            
50002210201210172012101818402430958536       PES0000025000A111392012101718200046                                                
6024600025000122961840243095853600000000090                                                                                     
7PESE                                                                                000000000025000                            
50002310201210172012101800711335902758       PES0000032500A113032012101712200124                                                
6024600032500122910071133590275800000000000                                                                                     
7PESE                                                                                000000000032500                            
50002410201210172012101800712524418937       PES0000032500A074252012101713070051                                                
6024600032500122910071252441893700000000084                                                                                     
7PESE                                                                                000000000032500                            
50002510201210172012101800713229077458       PES0000032500A028662012101718160181                                                
6024600032500122910071322907745800000000036                                                                                     
7PESE                                                                                000000000032500                            
50002610201210172012101800714424759027       PES0000032500A044382012101718470261                                                
6024600032500122910071442475902700000000042                                                                                     
7PESE                                                                                000000000032500                            
50002710201210172012101800712236906606       PES0000032500A056952012101717430051                                                
6024600032500122920071223690660600000000057                                                                                     
7PESE                                                                                000000000032500                            
50002810201210172012101800712814715681       PES0000032500A107682012101710330086                                                
6024600032500122920071281471568100000000090                                                                                     
7PESE                                                                                000000000032500                            
50002910201210172012101800714518579435       PES0000032500A065362012101714560221                                                
6024600032500122930071451857943500000000078                                                                                     
7PESE                                                                                000000000032500                            
50003010201210172012101800712622360271       PES0000032500A600652012101714410038                                                
6024600032500122940071262236027100000000079                                                                                     
7PESE                                                                                000000000032500                            
50003110201210172012101800710633899215       PES0000032500A028382012101715110081                                                
6024600032500122960071063389921500000000099                                                                                     
7PESE                                                                                000000000032500                            
50003210201210172012101800712622303408       PES0000032500A099522012101709410091                                                
6024600032500122970071262230340800000000021                                                                                     
7PESE                                                                                000000000032500                            
50003310201210172012101800712716876507       PES0000032500A107682012101710330087                                                
6024600032500122970071271687650700000000078                                                                                     
7PESE                                                                                000000000032500                            
50003410201210172012101800710829046945       PES0000032500A105472012101719430109                                                
6024600032500122980071082904694500000000079                                                                                     
7PESE                                                                                000000000032500                            
50003510201210172012101800713232608583       PES0000032500A092102012101710500051                                                
6024600032500122980071323260858300000000084                                                                                     
7PESE                                                                                000000000032500                            
50003610201210172012101800720521832573       PES0000047500A075812012101712570023                                                
6024600047500122910072052183257300000000000                                                                                     
7PESE                                                                                000000000047500                            
50003710201210172012101800720133908779       PES0000047500M620022012101717150041                                                
6024600047500122920072013390877900000000063                                                                                     
7PESE                                                                                000000000047500                            
50003810201210172012101800720135537115       PES0000047500A095852012101717180199                                                
6024600047500122920072013553711500000000078                                                                                     
7PESE                                                                                000000000047500                            
50003910201210172012101800720133961405       PES0000047500A055192012101713040169                                                
6024600047500122960072013396140500000000000                                                                                     
7PESE                                                                                000000000047500                            
50004010201210172012101800720329261317       PES0000047500A044492012101712180276                                                
6024600047500122970072032926131700000000057                                                                                     
7PESE                                                                                000000000047500                            
50004110201210172012101800720423091937       PES0000047500A112242012101711200024                                                
6024600047500122970072042309193700000000057                                                                                     
7PESE                                                                                000000000047500                            
50004210201210172012101800720617850833       PES0000047500M600152012101715400046                                                
6024600047500122970072061785083300000000084                                                                                     
7PESE                                                                                000000000047500                            
50004310201210172012101800721328524111       PES0000047500D001132012101715150206                                                
6024600047500122970072132852411100000000036                                                                                     
7PESE                                                                                000000000047500                            
50004410201210172012101800720521545809       PES0000047500D001652012101713320120                                                
6024600047500122980072052154580900000000084                                                                                     
7PESE                                                                                000000000047500                            
50004510201210172012101801331327125544       PES0000052000M620092012101711590041                                                
6024600052000122970133132712554400080000021                                                                                     
7PESE                                                                                000000000052000                            
50004610201210172012101801331135043754       PES0000052000A101062012101710410031                                                
6024600052000122980133113504375400080000037                                                                                     
7PESE                                                                                000000000052000                            
50004710201210172012101801331423448934       PES0000052000A029502012101715000005                                                
6024600052000122980133142344893400080000084                                                                                     
7PESE                                                                                000000000052000                            
50004810201210172012101801331522890997       PES0000052000M620142012101715470030                                                
6024600052000122980133152289099700080000036                                                                                     
7PESE                                                                                000000000052000                            
50004910201210172012101860000938092126       PES0000085000L070512012101714330313                                                
6024600085000122986000093809212600000000042                                                                                     
7PESE                                                                                000000000085000                            
82012101800000100000490000014672000000000000000000000000000000000000000000049                                                   
9201210180000010000049000001467200000000000000000000000000000000000000000000049                                                 
