120110419PAGO FACIL               090060246FABIAN NORBERTO D´ERAMO                                                              
320110419000001FABIAN NORBERTO D´ERAMO                                                                                          
50000110201104182011041902283425977215       PES0000016000A067782011041810520147                                                
6024600016000111150228342597721500000000090                                                                                     
7PESE                                                                                000000000016000                            
50000210201104182011041901270516203009       PES0000018000A025032011041809510031                                                
6024600018000111120127051620300900020000090                                                                                     
7PESE                                                                                000000000018000                            
50000310201104182011041901271516558598       PES0000018000A025032011041809510032                                                
6024600018000111120127151655859800020000099                                                                                     
7PESE                                                                                000000000018000                            
50000410201104182011041999040124361506       PES0000023500A097722011041818090039                                                
6024600023500111149904012436150600015000042                                                                                     
7PESE                                                                                000000000023500                            
50000510201104182011041902281331303579       PES0000027500A097662011041817340151                                                
6024600027500111090228133130357900025000657                                                                                     
7PESE                                                                                000000000027500                            
50000610201104182011041902281331316360       PES0000027500A099682011041814340042                                                
6024600027500111090228133131636000025000516                                                                                     
7PESE                                                                                000000000027500                            
50000710201104182011041902281812143183       PES0000027500A058122011041811100056                                                
6024600027500111090228181214318300025000263                                                                                     
7PESE                                                                                000000000027500                            
82011041900000100000070000001580000000000000000000000000000000000000000000007                                                   
9201104190000010000007000000158000000000000000000000000000000000000000000000007                                                 
