120110919PAGO FACIL               090060246FABIAN NORBERTO D´ERAMO                                                              
320110919000001FABIAN NORBERTO D´ERAMO                                                                                          
50000110201109162011091917020910302761       PES0000020000A087842011091610440014                                                
6024600020000112641702091030276100000000090                                                                                     
7PESE                                                                                000000000020000                            
50000210201109162011091917020622040982       PES0000020000A029782011091610100031                                                
6024600020000112641702062204098200000000079                                                                                     
7PESE                                                                                000000000020000                            
50000310201109162011091917020329054451       PES0000020000A039692011091610520023                                                
6024600020000112641702032905445100000000084                                                                                     
7PESE                                                                                000000000020000                            
50000410201109162011091917020138977707       PES0000020000A640722011091611480045                                                
6024600020000112621702013897770700000000037                                                                                     
7PESE                                                                                000000000020000                            
50000510201109162011091901282223957333       PES0000036500A063812011091612230043                                                
6024600036500112600128222395733300000000015                                                                                     
7PESE                                                                                000000000036500                            
50000610201109162011091900540416975364       PES0000017500A081572011091611070044                                                
6024600017500112630054041697536400015000263                                                                                     
7PESE                                                                                000000000017500                            
50000710201109162011091901280424754431       PES0000036500A096062011091609400018                                                
6024600036500112600128042475443100000000037                                                                                     
7PESE                                                                                000000000036500                            
50000810201109162011091900501429479624       PES0000024500A079552011091616140125                                                
6024600024500112650050142947962400030000000                                                                                     
7PESE                                                                                000000000024500                            
50000910201109162011091901280229360688       PES0000036500A060582011091611220046                                                
6024600036500112600128022936068800000000079                                                                                     
7PESE                                                                                000000000036500                            
50001010201109162011091900500633783206       PES0000024500A048732011091613580117                                                
6024600024500112640050063378320600030000058                                                                                     
7PESE                                                                                000000000024500                            
50001110201109162011091901280230834441       PES0000036500A109482011091616100166                                                
6024600036500112600128023083444100000000021                                                                                     
7PESE                                                                                000000000036500                            
50001210201109162011091901280423767096       PES0000036500D000152011091617100179                                                
6024600036500112600128042376709600000000058                                                                                     
7PESE                                                                                000000000036500                            
50001310201109162011091901280520364142       PES0000036500A091682011091617290373                                                
6024600036500112600128052036414200000000057                                                                                     
7PESE                                                                                000000000036500                            
50001410201109162011091900504423229927       PES0000024500D000142011091611030136                                                
6024600024500112640050442322992700030000084                                                                                     
7PESE                                                                                000000000024500                            
50001510201109162011091901280811259043       PES0000036500A025152011091617390092                                                
6024600036500112600128081125904300000000057                                                                                     
7PESE                                                                                000000000036500                            
50001610201109162011091901280714120801       PES0000036500A042332011091617060056                                                
6024600036500112600128071412080100000000000                                                                                     
7PESE                                                                                000000000036500                            
50001710201109162011091918320331477215       PES0000015000D000802011091612020103                                                
6024600015000112601832033147721500000000063                                                                                     
7PESE                                                                                000000000015000                            
50001810201109162011091901280133908779       PES0000036500A083202011091610230017                                                
6024600036500112600128013390877900000000099                                                                                     
7PESE                                                                                000000000036500                            
50001910201109162011091900504423958503       PES0000024500A033952011091616450050                                                
6024600024500112660050442395850300030000015                                                                                     
7PESE                                                                                000000000024500                            
50002010201109162011091918320332472588       PES0000015000A056902011091617350100                                                
6024600015000112601832033247258800000000057                                                                                     
7PESE                                                                                000000000015000                            
50002110201109162011091900532338605138       PES0000029000A042062011091618510004                                                
6024600029000112640053233860513800020000000                                                                                     
7PESE                                                                                000000000029000                            
50002210201109162011091917020716649193       PES0000020000A077712011091619230087                                                
6024600020000112631702071664919300000000084                                                                                     
7PESE                                                                                000000000020000                            
50002310201109162011091901280520827872       PES0000036500A049722011091616350024                                                
6024600036500112600128052082787200000000099                                                                                     
7PESE                                                                                000000000036500                            
50002410201109162011091929060314856288       PES0000010000A082762011091611200029                                                
6024600010000112632906031485628800030000084                                                                                     
7PESE                                                                                000000000010000                            
50002510201109162011091900540434515650       PES0000017500A084942011091619190054                                                
6024600017500112630054043451565000015000384                                                                                     
7PESE                                                                                000000000017500                            
50002610201109162011091901282216429738       PES0000036500A081812011091619220066                                                
6024600036500112600128221642973800000000037                                                                                     
7PESE                                                                                000000000036500                            
50002710201109162011091901280424721880       PES0000036500A081352011091612050016                                                
6024600036500112600128042472188000000000084                                                                                     
7PESE                                                                                000000000036500                            
50002810201109162011091901280424546368       PES0000036500A104702011091608470004                                                
6024600036500112600128042454636800000000021                                                                                     
7PESE                                                                                000000000036500                            
50002910201109162011091900502330172223       PES0000024500M600642011091614360055                                                
6024600024500112620050233017222300030000099                                                                                     
7PESE                                                                                000000000024500                            
50003010201109162011091900503635063314       PES0000024500M601842011091612540102                                                
6024600024500112600050363506331400030000063                                                                                     
7PESE                                                                                000000000024500                            
50003110201109162011091901280325300256       PES0000036500M620412011091609550007                                                
6024600036500112600128032530025600000000090                                                                                     
7PESE                                                                                000000000036500                            
50003210201109162011091918320813916635       PES0000015000M601612011091615120119                                                
6024600015000112601832081391663500000000015                                                                                     
7PESE                                                                                000000000015000                            
50003310201109162011091900501333557350       PES0000024500L120102011091610317665                                                
6024600024500112650050133355735000030000042                                                                                     
7PESE                                                                                000000000024500                            
50003410201109162011091901280423438743       PES0000036500A103902011091618050103                                                
6024600036500112600128042343874300000000037                                                                                     
7PESE                                                                                000000000036500                            
50003510201109162011091901282221504378       PES0000036500A103902011091619370128                                                
6024600036500112590128222150437800000000084                                                                                     
7PESE                                                                                000000000036500                            
50003610201109162011091901282221533645       PES0000036500A103902011091620420170                                                
6024600036500112600128222153364500000000078                                                                                     
7PESE                                                                                000000000036500                            
50003710201109172011091901280424608328       PES0000036500A091492011091712200092                                                
6024600036500112600128042460832800000000057                                                                                     
7PESE                                                                                000000000036500                            
50003810201109172011091900503332449511       PES0000024500A082602011091709050001                                                
6024600024500112660050333244951100030000063                                                                                     
7PESE                                                                                000000000024500                            
50003910201109172011091901281424546392       PES0000036500A104702011091712180024                                                
6024600036500112600128142454639200000000037                                                                                     
7PESE                                                                                000000000036500                            
50004010201109172011091901280517935153       PES0000036500A091022011091712080048                                                
6024600036500112600128051793515300000000021                                                                                     
7PESE                                                                                000000000036500                            
50004110201109172011091901280520723927       PES0000036500A091022011091712090049                                                
6024600036500112600128052072392700000000036                                                                                     
7PESE                                                                                000000000036500                            
50004210201109172011091901282220723971       PES0000036500A091022011091712090050                                                
6024600036500112600128222072397100000000015                                                                                     
7PESE                                                                                000000000036500                            
50004310201109172011091900540434151454       PES0000017500M601522011091711170049                                                
6024600017500112630054043415145400015000099                                                                                     
7PESE                                                                                000000000017500                            
82011091900000100000430000012355000000000000000000000000000000000000000000043                                                   
9201109190000010000043000001235500000000000000000000000000000000000000000000043                                                 
