120111019PAGO FACIL               090060246FABIAN NORBERTO D´ERAMO                                                              
320111019000001FABIAN NORBERTO D´ERAMO                                                                                          
50000110201110182011101920040125878561       PES0000006000A096952011101810370066                                                
6024600006000112922004012587856100000000078                                                                                     
7PESE                                                                                000000000006000                            
50000210201110182011101920040223965534       PES0000006000A069132011101814010204                                                
6024600006000112972004022396553400000000042                                                                                     
7PESE                                                                                000000000006000                            
50000310201110182011101920040632565712       PES0000006000A109282011101813320163                                                
6024600006000112982004063256571200000000036                                                                                     
7PESE                                                                                000000000006000                            
50000410201110182011101900504742368151       PES0000010000A088422011101819540005                                                
6024600010000112920050474236815100000000057                                                                                     
7PESE                                                                                000000000010000                            
50000510201110182011101900575712706997       PES0000020000A028202011101810410082                                                
6024600020000112930057571270699700020000016                                                                                     
7PESE                                                                                000000000020000                            
50000610201110182011101918340428686874       PES0000020000A073132011101811470015                                                
6024600020000112971834042868687400000000042                                                                                     
7PESE                                                                                000000000020000                            
50000710201110182011101918340427508671       PES0000020000A102742011101818440060                                                
6024600020000112981834042750867100000000037                                                                                     
7PESE                                                                                000000000020000                            
50000810201110182011101900502892892914       PES0000027500M600192011101811340008                                                
6024600027500112940050289289291400000000057                                                                                     
7PESE                                                                                000000000027500                            
50000910201110182011101900503441758614       PES0000027500M600192011101811340009                                                
6024600027500112940050344175861400000000000                                                                                     
7PESE                                                                                000000000027500                            
50001010201110182011101900504517754549       PES0000027500M600852011101813460153                                                
6024600027500112960050451775454900000000084                                                                                     
7PESE                                                                                000000000027500                            
50001110201110182011101900502331470987       PES0000027500A064332011101812560142                                                
6024600027500112970050233147098700000000000                                                                                     
7PESE                                                                                000000000027500                            
50001210201110182011101900502427930074       PES0000027500A096062011101815510321                                                
6024600027500112970050242793007400000000042                                                                                     
7PESE                                                                                000000000027500                            
50001310201110182011101900502717579744       PES0000027500A601882011101810340048                                                
6024600027500112970050271757974400000000015                                                                                     
7PESE                                                                                000000000027500                            
50001410201110182011101900503439851291       PES0000027500A059362011101816030035                                                
6024600027500112970050343985129100000000000                                                                                     
7PESE                                                                                000000000027500                            
50001510201110182011101900501332975026       PES0000027500A030832011101815460107                                                
6024600027500112980050133297502600000000015                                                                                     
7PESE                                                                                000000000027500                            
50001610201110182011101900533822656537       PES0000031000A107682011101808070025                                                
6024600031000112950053382265653700000000021                                                                                     
7PESE                                                                                000000000031000                            
50001710201110182011101999030232436369       PES0000041000A029032011101817560398                                                
6024600038500112889903023243636900025000563                                                                                     
7PESE                                                                                000000000041000                            
50001810201110182011101900530520608242       PES0000039500A107682011101808070026                                                
6024600039500112910053052060824200000000078                                                                                     
7PESE                                                                                000000000039500                            
50001910201110182011101900530618330979       PES0000039500A096352011101810150147                                                
6024600039500112910053061833097900000000000                                                                                     
7PESE                                                                                000000000039500                            
50002010201110182011101900530328079567       PES0000039500A091682011101817330406                                                
6024600039500112940053032807956700000000021                                                                                     
7PESE                                                                                000000000039500                            
50002110201110182011101900530714769614       PES0000039500A091682011101817330405                                                
6024600039500112940053071476961400000000084                                                                                     
7PESE                                                                                000000000039500                            
50002210201110182011101900530812143183       PES0000039500A058122011101819490078                                                
6024600039500112980053081214318300000000000                                                                                     
7PESE                                                                                000000000039500                            
82011101900000100000220000005775000000000000000000000000000000000000000000022                                                   
9201110190000010000022000000577500000000000000000000000000000000000000000000022                                                 
