120110819PAGO FACIL               090060246FABIAN NORBERTO D´ERAMO                                                              
320110819000001FABIAN NORBERTO D´ERAMO                                                                                          
50000110201108182011081902300331454020       PES0000034500M600052011081711120019                                                
6024600031500112270230033145402000030000542                                                                                     
7PESE                                                                                000000000034500                            
50000210201108182011081900504744383536       PES0000007000A028202011081808280006                                                
6024600007000112360050474438353600015000042                                                                                     
7PESE                                                                                000000000007000                            
50000310201108182011081917020137482625       PES0000016000A102662011081810580025                                                
6024600016000112311702013748262500040000084                                                                                     
7PESE                                                                                000000000016000                            
50000410201108182011081917020522661920       PES0000016000A620302011081810310051                                                
6024600016000112361702052266192000040000000                                                                                     
7PESE                                                                                000000000016000                            
50000510201108182011081917020912132802       PES0000016000A060922011081809090066                                                
6024600016000112361702091213280200040000036                                                                                     
7PESE                                                                                000000000016000                            
50000610201108182011081900500825695632       PES0000019500A063662011081817310288                                                
6024600019500112300050082569563200050000021                                                                                     
7PESE                                                                                000000000019500                            
50000710201108182011081900503236089787       PES0000019500A092472011081816520072                                                
6024600019500112300050323608978700050000063                                                                                     
7PESE                                                                                000000000019500                            
50000810201108182011081900503635115467       PES0000019500A064992011081815390087                                                
6024600019500112300050363511546700050000058                                                                                     
7PESE                                                                                000000000019500                            
50000910201108182011081900501625296933       PES0000019500M600042011081810310015                                                
6024600019500112310050162529693300050000063                                                                                     
7PESE                                                                                000000000019500                            
50001010201108182011081900503338434342       PES0000019500A085832011081813020190                                                
6024600019500112320050333843434200050000063                                                                                     
7PESE                                                                                000000000019500                            
50001110201108182011081900501527738403       PES0000019500A038432011081810070011                                                
6024600019500112340050152773840300050000099                                                                                     
7PESE                                                                                000000000019500                            
50001210201108182011081900502621549874       PES0000019500A080382011081818170072                                                
6024600019500112340050262154987400050000000                                                                                     
7PESE                                                                                000000000019500                            
50001310201108182011081900500825826646       PES0000019500A080382011081818170073                                                
6024600019500112350050082582664600050000057                                                                                     
7PESE                                                                                000000000019500                            
50001410201108182011081900502138690791       PES0000019500A016702011081811190037                                                
6024600019500112350050213869079100050000000                                                                                     
7PESE                                                                                000000000019500                            
50001510201108182011081900502814465296       PES0000019500A073842011081809010001                                                
6024600019500112350050281446529600050000000                                                                                     
7PESE                                                                                000000000019500                            
50001610201108182011081900503340712737       PES0000019500A085832011081813010189                                                
6024600019500112350050334071273700050000099                                                                                     
7PESE                                                                                000000000019500                            
50001710201108182011081900502138444312       PES0000019500A102402011081817390165                                                
6024600019500112360050213844431200050000063                                                                                     
7PESE                                                                                000000000019500                            
50001810201108182011081900501116941452       PES0000019500A095132011081810140043                                                
6024600019500112370050111694145200050000000                                                                                     
7PESE                                                                                000000000019500                            
50001910201108182011081900502622156982       PES0000019500A095132011081810140044                                                
6024600019500112370050262215698200050000057                                                                                     
7PESE                                                                                000000000019500                            
50002010201108182011081900502717307904       PES0000019500A044492011081811140160                                                
6024600019500112370050271730790400050000037                                                                                     
7PESE                                                                                000000000019500                            
50002110201108182011081997000435978685       PES0000020000A093012011081815040079                                                
6024600020000112379700043597868500000000084                                                                                     
7PESE                                                                                000000000020000                            
50002210201108182011081900533825192043       PES0000026000A028962011081815110022                                                
6024600026000112300053382519204300030000063                                                                                     
7PESE                                                                                000000000026000                            
50002310201108182011081900534028166221       PES0000026000D000872011081810330063                                                
6024600026000112300053402816622100030000099                                                                                     
7PESE                                                                                000000000026000                            
50002410201108182011081902300622434017       PES0000034500A026742011081812330050                                                
6024600031500112270230062243401700030000715                                                                                     
7PESE                                                                                000000000034500                            
50002510201108182011081902300426080563       PES0000034500A056902011081809380040                                                
6024600034500112370230042608056300000000016                                                                                     
7PESE                                                                                000000000034500                            
50002610201108182011081900530231500174       PES0000035000A601492011081812390077                                                
6024600035000112300053023150017400035000078                                                                                     
7PESE                                                                                000000000035000                            
50002710201108182011081900530518065580       PES0000035000A033762011081819260053                                                
6024600035000112300053051806558000035000037                                                                                     
7PESE                                                                                000000000035000                            
50002810201108182011081900531614990939       PES0000035000A093012011081814360056                                                
6024600035000112340053161499093900035000042                                                                                     
7PESE                                                                                000000000035000                            
50002910201108182011081901280422599074       PES0000036500A091022011081823150253                                                
6024600036500112300128042259907400000000042                                                                                     
7PESE                                                                                000000000036500                            
50003010201108182011081901280423474867       PES0000036500A010432011081811220037                                                
6024600036500112300128042347486700000000063                                                                                     
7PESE                                                                                000000000036500                            
50003110201108182011081901280616402501       PES0000036500A091092011081816530284                                                
6024600036500112300128061640250100000000090                                                                                     
7PESE                                                                                000000000036500                            
50003210201108182011081901280714081746       PES0000036500A076762011081816280123                                                
6024600036500112300128071408174600000000015                                                                                     
7PESE                                                                                000000000036500                            
50003310201108182011081901281520575418       PES0000036500A056732011081812210034                                                
6024600036500112300128152057541800000000099                                                                                     
7PESE                                                                                000000000036500                            
50003410201108182011081901280424603338       PES0000036500A620382011081811400042                                                
6024600036500112310128042460333800000000036                                                                                     
7PESE                                                                                000000000036500                            
50003510201108182011081901280327938198       PES0000036500A069142011081817430051                                                
6024600036500112340128032793819800000000078                                                                                     
7PESE                                                                                000000000036500                            
50003610201108182011081901280422434017       PES0000036500A026742011081812330051                                                
6024600036500112340128042243401700000000063                                                                                     
7PESE                                                                                000000000036500                            
50003710201108182011081901280326458119       PES0000036500A090422011081811350003                                                
6024600036500112360128032645811900000000090                                                                                     
7PESE                                                                                000000000036500                            
50003810201108182011081901280517935203       PES0000036500A091022011081812110089                                                
6024600036500112360128051793520300000000058                                                                                     
7PESE                                                                                000000000036500                            
50003910201108182011081901281231275703       PES0000036500A620812011081811250091                                                
6024600036500112360128123127570300000000016                                                                                     
7PESE                                                                                000000000036500                            
50004010201108182011081901280326080563       PES0000036500A056902011081809380039                                                
6024600036500112370128032608056300000000084                                                                                     
7PESE                                                                                000000000036500                            
50004110201108182011081901280327263883       PES0000036500A620812011081811250090                                                
6024600036500112370128032726388300000000079                                                                                     
7PESE                                                                                000000000036500                            
82011081900000100000410000011025000000000000000000000000000000000000000000041                                                   
9201108190000010000041000001102500000000000000000000000000000000000000000000041                                                 
