120120119PAGO FACIL               090060246FABIAN NORBERTO D´ERAMO                                                              
320120119000001FABIAN NORBERTO D´ERAMO                                                                                          
50000110201201182012011929070316242776       PES0000010000A107952012011811100001                                                
6024600010000120222907031624277600000000036                                                                                     
7PESE                                                                                000000000010000                            
50000210201201182012011929070227815395       PES0000010000L120212012011816548847                                                
6024600010000120232907022781539500000000079                                                                                     
7PESE                                                                                000000000010000                            
50000310201201182012011902323425612757       PES0000020000A083222012011813370160                                                
6024600020000120200232342561275700000000099                                                                                     
7PESE                                                                                000000000020000                            
50000410201201182012011900600616425874       PES0000025000A100392012011817440287                                                
6024600025000120210060061642587400040000042                                                                                     
7PESE                                                                                000000000025000                            
50000510201201182012011900600713991289       PES0000025000A100392012011817440286                                                
6024600025000120210060071399128900040000015                                                                                     
7PESE                                                                                000000000025000                            
50000610201201182012011902320620694207       PES0000028000A075362012011813000036                                                
6024600028000120180232062069420700000000021                                                                                     
7PESE                                                                                000000000028000                            
50000710201201182012011902320622124422       PES0000028000A034222012011810260063                                                
6024600028000120180232062212442200000000063                                                                                     
7PESE                                                                                000000000028000                            
50000810201201182012011902320813900160       PES0000028000A620812012011812210129                                                
6024600028000120190232081390016000000000078                                                                                     
7PESE                                                                                000000000028000                            
50000910201201182012011902320524040963       PES0000028000M620412012011816140024                                                
6024600028000120200232052404096300000000000                                                                                     
7PESE                                                                                000000000028000                            
50001010201201182012011902321813852922       PES0000028000M601892012011811350063                                                
6024600028000120200232181385292200000000042                                                                                     
7PESE                                                                                000000000028000                            
50001110201201182012011999030230531074       PES0000043000M620902012011811160105                                                
6024600043000120249903023053107400000000084                                                                                     
7PESE                                                                                000000000043000                            
50001210201201182012011923060727292798       PES0000121600A080942012011816270032                                                
6024600121600120242306072729279800000000000                                                                                     
7PESE                                                                                000000000121600                            
50001310201201182012011923060720782753       PES0000121600M601992012011815050024                                                
6024600121600120252306072078275300000000000                                                                                     
7PESE                                                                                000000000121600                            
50001410201201182012011923061926132131       PES0000136600A620562012011815260219                                                
6024600136600120232306192613213100000000042                                                                                     
7PESE                                                                                000000000136600                            
50001510201201182012011923061236150419       PES0000136600A097522012011816130043                                                
6024600136600120242306123615041900000000036                                                                                     
7PESE                                                                                000000000136600                            
50001610201201182012011923061137525889       PES0000136600A087812012011811370250                                                
6024600136600120252306113752588900000000042                                                                                     
7PESE                                                                                000000000136600                            
82012011900000100000160000009260000000000000000000000000000000000000000000016                                                   
9201201190000010000016000000926000000000000000000000000000000000000000000000016                                                 
