120120719PAGO FACIL               090060246FABIAN NORBERTO D´ERAMO                                                              
320120719000001FABIAN NORBERTO D´ERAMO                                                                                          
50000110201207182012071959000808573350       PES0000016000A052842012071809420054                                                
6024600016000122025900080857335000000000084                                                                                     
7PESE                                                                                000000000016000                            
50000210201207182012071917030720223640       PES0000025000A068742012071817360082                                                
6024600025000122061703072022364000050000042                                                                                     
7PESE                                                                                000000000025000                            
50000310201207182012071900540229708493       PES0000026000A071232012071814340170                                                
6024600026000122020054022970849300010000416                                                                                     
7PESE                                                                                000000000026000                            
82012071900000100000030000000670000000000000000000000000000000000000000000003                                                   
9201207190000010000003000000067000000000000000000000000000000000000000000000003                                                 
