120111219PAGO FACIL               090060246FABIAN NORBERTO D´ERAMO                                                              
320111219000001FABIAN NORBERTO D´ERAMO                                                                                          
50000110201112162011121923061331958051       PES0000085400D001142011121512070055                                                
6024600085400113492306133195805100234000563                                                                                     
7PESE                                                                                000000000085400                            
50000210201112162011121929060629764286       PES0000013000A068912011121610430063                                                
6024600013000113562906062976428600000000090                                                                                     
7PESE                                                                                000000000013000                            
50000310201112162011121923061521543301       PES0000085400A081302011121609200013                                                
6024600085400113562306152154330100234000000                                                                                     
7PESE                                                                                000000000085400                            
50000410201112162011121900584330736873       PES0000025000A044382011121610000051                                                
6024600025000113520058433073687300000000042                                                                                     
7PESE                                                                                000000000025000                            
50000510201112162011121900582621832573       PES0000025000A075812011121611390095                                                
6024600025000113520058262183257300000000037                                                                                     
7PESE                                                                                000000000025000                            
50000610201112162011121900583728741799       PES0000025000A042592011121612040007                                                
6024600025000113520058372874179900000000037                                                                                     
7PESE                                                                                000000000025000                            
50000710201112162011121900582328741842       PES0000025000A042592011121612270012                                                
6024600025000113520058232874184200000000016                                                                                     
7PESE                                                                                000000000025000                            
50000810201112162011121900582620054275       PES0000025000A085592011121609200009                                                
6024600025000113520058262005427500000000000                                                                                     
7PESE                                                                                000000000025000                            
50000910201112162011121900582523892211       PES0000025000A104612011121611190139                                                
6024600025000113520058252389221100000000079                                                                                     
7PESE                                                                                000000000025000                            
50001010201112162011121900612814431708       PES0000012000A023702011121611410055                                                
6024600012000113570061281443170800020000021                                                                                     
7PESE                                                                                000000000012000                            
50001110201112162011121923060933201873       PES0000076800A600722011121614410122                                                
6024600076800113562306093320187300192000142                                                                                     
7PESE                                                                                000000000076800                            
50001210201112162011121900584423278215       PES0000025000A104612011121616140013                                                
6024600025000113520058442327821500000000057                                                                                     
7PESE                                                                                000000000025000                            
50001310201112162011121900582426044379       PES0000025000D000182011121616310244                                                
6024600025000113520058242604437900000000042                                                                                     
7PESE                                                                                000000000025000                            
50001410201112162011121900582427283235       PES0000025000A091152011121616150431                                                
6024600025000113520058242728323500000000084                                                                                     
7PESE                                                                                000000000025000                            
50001510201112162011121997000435978685       PES0000020000A093012011121616330146                                                
6024600020000113499700043597868500000000642                                                                                     
7PESE                                                                                000000000020000                            
50001610201112162011121900612813751268       PES0000012000A056992011121615270203                                                
6024600012000113570061281375126800020000042                                                                                     
7PESE                                                                                000000000012000                            
50001710201112162011121900583821730459       PES0000025000A104772011121618080112                                                
6024600025000113520058382173045900000000099                                                                                     
7PESE                                                                                000000000025000                            
50001810201112162011121929060817982217       PES0000013000A051302011121612360183                                                
6024600013000113512906081798221700000000021                                                                                     
7PESE                                                                                000000000013000                            
50001910201112162011121900584740133248       PES0000008500A093412011121617180046                                                
6024600008500113520058474013324800000000036                                                                                     
7PESE                                                                                000000000008500                            
50002010201112162011121900582138254318       PES0000025000A093412011121617190047                                                
6024600025000113520058213825431800000000037                                                                                     
7PESE                                                                                000000000025000                            
50002110201112162011121900582235657972       PES0000025000A093412011121619140145                                                
6024600025000113520058223565797200000000000                                                                                     
7PESE                                                                                000000000025000                            
50002210201112162011121900582012717770       PES0000025000A099402011121616320026                                                
6024600025000113520058201271777000000000021                                                                                     
7PESE                                                                                000000000025000                            
50002310201112162011121900582811994806       PES0000025000A058512011121617280158                                                
6024600025000113520058281199480600000000099                                                                                     
7PESE                                                                                000000000025000                            
50002410201112162011121900582428682605       PES0000025000A040462011121619030135                                                
6024600025000113520058242868260500000000084                                                                                     
7PESE                                                                                000000000025000                            
50002510201112162011121900585518183558       PES0000025000A045372011121614550081                                                
6024600025000113520058551818355800000000084                                                                                     
7PESE                                                                                000000000025000                            
50002610201112162011121923061618064471       PES0000085400A110492011121610210023                                                
6024600085400113562306161806447100234000100                                                                                     
7PESE                                                                                000000000085400                            
50002710201112162011121923061616445890       PES0000085400A110492011121611430050                                                
6024600085400113562306161644589000234000142                                                                                     
7PESE                                                                                000000000085400                            
50002810201112162011121923061325415018       PES0000085400A037752011121619150212                                                
6024600085400113562306132541501800234000100                                                                                     
7PESE                                                                                000000000085400                            
50002910201112172011121923061424412462       PES0000085400A047792011121616150002                                                
6024600085400113562306142441246200234000042                                                                                     
7PESE                                                                                000000000085400                            
50003010201112172011121900612236004711       PES0000012000A067392011121711400060                                                
6024600012000113540061223600471100020000015                                                                                     
7PESE                                                                                000000000012000                            
50003110201112172011121900585712706997       PES0000025000A028202011121711450063                                                
6024600025000113520058571270699700000000079                                                                                     
7PESE                                                                                000000000025000                            
50003210201112172011121900584516492813       PES0000025000A063672011121712320201                                                
6024600025000113520058451649281300000000063                                                                                     
7PESE                                                                                000000000025000                            
50003310201112172011121900582234250113       PES0000025000A025652011121711390175                                                
6024600025000113520058223425011300000000021                                                                                     
7PESE                                                                                000000000025000                            
50003410201112172011121900581237932198       PES0000025000A063832011121715130263                                                
6024600025000113520058123793219800000000016                                                                                     
7PESE                                                                                000000000025000                            
50003510201112172011121900584738695737       PES0000008500L120262011121709385682                                                
6024600008500113520058473869573700000000037                                                                                     
7PESE                                                                                000000000008500                            
50003610201112182011121929060228908029       PES0000013000A099752011121812370006                                                
6024600013000113522906022890802900000000084                                                                                     
7PESE                                                                                000000000013000                            
50003710201112182011121900582717747436       PES0000025000A025052011121809300007                                                
6024600025000113520058271774743600000000057                                                                                     
7PESE                                                                                000000000025000                            
82011121900000100000370000012262000000000000000000000000000000000000000000037                                                   
9201112190000010000037000001226200000000000000000000000000000000000000000000037                                                 
