120120419PAGO FACIL               090060246FABIAN NORBERTO D´ERAMO                                                              
320120419000001FABIAN NORBERTO D´ERAMO                                                                                          
50000110201204182012041902351428129022       PES0000017000A105252012041815460291                                                
6024600017000121100235142812902200030000690                                                                                     
7PESE                                                                                000000000017000                            
50000210201204182012041902351620408466       PES0000017000A105252012041815480293                                                
6024600017000121100235162040846600030000557                                                                                     
7PESE                                                                                000000000017000                            
50000310201204182012041902351622212569       PES0000017000M620032012041818090245                                                
6024600017000121100235162221256900030000542                                                                                     
7PESE                                                                                000000000017000                            
50000410201204182012041902351716262078       PES0000017000A105252012041815460292                                                
6024600017000121100235171626207800030000642                                                                                     
7PESE                                                                                000000000017000                            
50000510201204182012041902351938893029       PES0000017000M620032012041818100247                                                
6024600017000121100235193889302900030000563                                                                                     
7PESE                                                                                000000000017000                            
50000610201204182012041902352028177380       PES0000017000A076762012041817290034                                                
6024600017000121100235202817738000030000642                                                                                     
7PESE                                                                                000000000017000                            
50000710201204182012041902353531539755       PES0000017000A085582012041816270032                                                
6024600017000121100235353153975500030000558                                                                                     
7PESE                                                                                000000000017000                            
50000810201204182012041902350331684607       PES0000029000D000152012041817490210                                                
6024600029000121090235033168460700040000000                                                                                     
7PESE                                                                                000000000029000                            
50000910201204182012041902350426604667       PES0000029000D000152012041817490209                                                
6024600029000121090235042660466700040000000                                                                                     
7PESE                                                                                000000000029000                            
50001010201204182012041902350428286025       PES0000029000A099212012041817580044                                                
6024600029000121090235042828602500040000637                                                                                     
7PESE                                                                                000000000029000                            
50001110201204182012041902350329684489       PES0000029000M601842012041815080118                                                
6024600029000121100235032968448900040000037                                                                                     
7PESE                                                                                000000000029000                            
50001210201204182012041902350330511877       PES0000029000A099212012041817580045                                                
6024600029000121100235033051187700040000563                                                                                     
7PESE                                                                                000000000029000                            
50001310201204182012041902350331532456       PES0000029000A109282012041814520259                                                
6024600029000121100235033153245600040000558                                                                                     
7PESE                                                                                000000000029000                            
50001410201204182012041902350332922912       PES0000029000A099212012041817570043                                                
6024600029000121100235033292291200040000637                                                                                     
7PESE                                                                                000000000029000                            
50001510201204182012041902350522842282       PES0000029000A108702012041813160269                                                
6024600029000121100235052284228200040000542                                                                                     
7PESE                                                                                000000000029000                            
50001610201204182012041902350525294710       PES0000029000L070062012041811307376                                                
6024600029000121100235052529471000040000684                                                                                     
7PESE                                                                                000000000029000                            
50001710201204182012041902350618588343       PES0000029000A039102012041812380200                                                
6024600029000121100235061858834300040000278                                                                                     
7PESE                                                                                000000000029000                            
50001810201204182012041902350716270024       PES0000029000A099212012041817560042                                                
6024600029000121100235071627002400040000658                                                                                     
7PESE                                                                                000000000029000                            
50001910201204182012041999030227689479       PES0000049000L120192012041815584104                                                
6024600046500121069903022768947900025000715                                                                                     
7PESE                                                                                000000000049000                            
82012041900000100000190000004870000000000000000000000000000000000000000000019                                                   
9201204190000010000019000000487000000000000000000000000000000000000000000000019                                                 
