120121220PAGO FACIL               090060246FABIAN NORBERTO D´ERAMO                                                              
320121220000001FABIAN NORBERTO D´ERAMO                                                                                          
50000110201212192012122073000127249395       PES0000015000A081512012121920450274                                                
6024600015000123547300012724939500040000037                                                                                     
7PESE                                                                                000000000015000                            
50000210201212192012122073000116083826       PES0000015000A101432012121912480172                                                
6024600015000123557300011608382600040000000                                                                                     
7PESE                                                                                000000000015000                            
50000310201212192012122073000228430309       PES0000015000A081512012121920460275                                                
6024600015000123597300022843030900040000084                                                                                     
7PESE                                                                                000000000015000                            
50000410201212192012122073000635675741       PES0000015000M660142012121908533616                                                
6024600015000123607300063567574100040000063                                                                                     
7PESE                                                                                000000000015000                            
50000510201212192012122073000121390910       PES0000015000A083632012121913450185                                                
6024600015000123617300012139091000040000016                                                                                     
7PESE                                                                                000000000015000                            
50000610201212192012122073000133846805       PES0000015000M660142012121908543617                                                
6024600015000123617300013384680500040000063                                                                                     
7PESE                                                                                000000000015000                            
50000710201212192012122029080228750422       PES0000018000A097432012121910400144                                                
6024600018000123592908022875042200000000057                                                                                     
7PESE                                                                                000000000018000                            
50000810201212192012122029081228423846       PES0000025000A047362012121919230267                                                
6024600025000123562908122842384600000000021                                                                                     
7PESE                                                                                000000000025000                            
50000910201212192012122002422624715192       PES0000028000A030832012121916070040                                                
6024600028000123540242262471519200070000090                                                                                     
7PESE                                                                                000000000028000                            
50001010201212192012122002422339627450       PES0000028000A016702012121912540026                                                
6024600028000123550242233962745000070000642                                                                                     
7PESE                                                                                000000000028000                            
50001110201212192012122002422623205353       PES0000028000A030832012121916060039                                                
6024600028000123550242262320535300070000663                                                                                     
7PESE                                                                                000000000028000                            
50001210201212192012122002422623923507       PES0000028000A097392012121914580264                                                
6024600028000123550242262392350700070000184                                                                                     
7PESE                                                                                000000000028000                            
50001310201212192012122002422624872827       PES0000028000A117052012121914180185                                                
6024600028000123550242262487282700070000515                                                                                     
7PESE                                                                                000000000028000                            
50001410201212192012122002423423942469       PES0000028000A121112012121913140043                                                
6024600028000123550242342394246900070000500                                                                                     
7PESE                                                                                000000000028000                            
50001510201212192012122002420425121058       PES0000040000A042812012121914190256                                                
6024600040000123540242042512105800075000084                                                                                     
7PESE                                                                                000000000040000                            
50001610201212192012122002421521828518       PES0000040000A037752012121912320150                                                
6024600040000123540242152182851800075000063                                                                                     
7PESE                                                                                000000000040000                            
50001710201212192012122002421713581027       PES0000040000A037752012121912320151                                                
6024600040000123540242171358102700075000099                                                                                     
7PESE                                                                                000000000040000                            
50001810201212192012122002423724227745       PES0000040000A116842012121913450093                                                
6024600040000123540242372422774500075000015                                                                                     
7PESE                                                                                000000000040000                            
50001910201212192012122002420135027680       PES0000040000A075362012121915420008                                                
6024600040000123550242013502768000075000615                                                                                     
7PESE                                                                                000000000040000                            
50002010201212192012122002420230267203       PES0000040000A088692012121912020191                                                
6024600040000123550242023026720300075000616                                                                                     
7PESE                                                                                000000000040000                            
50002110201212192012122002420233026621       PES0000040000A115882012121918290288                                                
6024600040000123550242023302662100075000515                                                                                     
7PESE                                                                                000000000040000                            
50002210201212192012122002420329077733       PES0000040000A092162012121913180276                                                
6024600040000123550242032907773300075000542                                                                                     
7PESE                                                                                000000000040000                            
50002310201212192012122002420329432982       PES0000040000A027742012121918190210                                                
6024600040000123550242032943298200075000563                                                                                     
7PESE                                                                                000000000040000                            
50002410201212192012122002420424022430       PES0000040000A108312012121912260152                                                
6024600040000123550242042402243000075000536                                                                                     
7PESE                                                                                000000000040000                            
50002510201212192012122002420424068579       PES0000040000A092062012121910010054                                                
6024600040000123550242042406857900075000578                                                                                     
7PESE                                                                                000000000040000                            
50002610201212192012122002420424099508       PES0000040000A108702012121918410037                                                
6024600040000123550242042409950800075000416                                                                                     
7PESE                                                                                000000000040000                            
50002710201212192012122002420424515512       PES0000040000A088612012121919180216                                                
6024600040000123550242042451551200075000684                                                                                     
7PESE                                                                                000000000040000                            
50002810201212192012122002420425307083       PES0000040000A073202012121911280104                                                
6024600040000123550242042530708300075000657                                                                                     
7PESE                                                                                000000000040000                            
50002910201212192012122002420520763332       PES0000040000A054282012121912020065                                                
6024600040000123550242052076333200075000521                                                                                     
7PESE                                                                                000000000040000                            
50003010201212192012122002420521081956       PES0000040000A103262012121916120182                                                
6024600040000123550242052108195600075000679                                                                                     
7PESE                                                                                000000000040000                            
50003110201212192012122002420522185215       PES0000040000A026442012121912340133                                                
6024600040000123550242052218521500075000679                                                                                     
7PESE                                                                                000000000040000                            
50003210201212192012122002420811759030       PES0000040000A092152012121910160075                                                
6024600040000123550242081175903000075000036                                                                                     
7PESE                                                                                000000000040000                            
50003310201212192012122002420812143183       PES0000040000A098032012121917550049                                                
6024600040000123550242081214318300075000357                                                                                     
7PESE                                                                                000000000040000                            
50003410201212192012122002420908625351       PES0000040000A070632012121919590176                                                
6024600040000123550242090862535100075000600                                                                                     
7PESE                                                                                000000000040000                            
50003510201212192012122002421134517298       PES0000040000A013222012121917590053                                                
6024600040000123550242113451729800075000663                                                                                     
7PESE                                                                                000000000040000                            
50003610201212192012122002424316055956       PES0000040000A057002012121910460134                                                
6024600040000123550242431605595600075000500                                                                                     
7PESE                                                                                000000000040000                            
50003710201212192012122099030135755065       PES0000049000A024632012121918460314                                                
6024600049000123619903013575506500000000063                                                                                     
7PESE                                                                                000000000049000                            
82012122000000100000370000012300000000000000000000000000000000000000000000037                                                   
9201212200000010000037000001230000000000000000000000000000000000000000000000037                                                 
