120110520PAGO FACIL               090060246FABIAN NORBERTO D´ERAMO                                                              
320110520000001FABIAN NORBERTO D´ERAMO                                                                                          
50000110201105192011052018290620717756       PES0000019000A016172011051912250010                                                
6024600015000111331829062071775600040000663                                                                                     
7PESE                                                                                000000000019000                            
50000210201105192011052018293123967876       PES0000019000A047502011051913220053                                                
6024600019000111411829312396787600000000063                                                                                     
7PESE                                                                                000000000019000                            
50000310201105192011052001270131533642       PES0000020000A091432011051910070028                                                
6024600020000111420127013153364200000000042                                                                                     
7PESE                                                                                000000000020000                            
50000410201105192011052001271225948254       PES0000020000M601252011051913300083                                                
6024600020000111420127122594825400000000079                                                                                     
7PESE                                                                                000000000020000                            
82011052000000100000040000000780000000000000000000000000000000000000000000004                                                   
9201105200000010000004000000078000000000000000000000000000000000000000000000004                                                 
