120110420PAGO FACIL               090060246FABIAN NORBERTO D´ERAMO                                                              
320110420000001FABIAN NORBERTO D´ERAMO                                                                                          
50000110201104192011042002283523417460       PES0000016000A086972011041917510101                                                
6024600013000111050228352341746000030000499                                                                                     
7PESE                                                                                000000000016000                            
50000210201104192011042002280714526690       PES0000027500A037602011041914520036                                                
6024600027500111090228071452669000025000778                                                                                     
7PESE                                                                                000000000027500                            
50000310201104192011042002281523127211       PES0000027500M601622011041913460192                                                
6024600027500111090228152312721100025000721                                                                                     
7PESE                                                                                000000000027500                            
50000410201104192011042002281621080930       PES0000027500M601622011041913450190                                                
6024600027500111090228162108093000025000778                                                                                     
7PESE                                                                                000000000027500                            
50000510201104192011042002281621090352       PES0000027500A050122011041910190013                                                
6024600027500111090228162109035200025000190                                                                                     
7PESE                                                                                000000000027500                            
50000610201104192011042002281792494515       PES0000027500M600102011041910290029                                                
6024600027500111090228179249451500025000699                                                                                     
7PESE                                                                                000000000027500                            
50000710201104192011042099030230590893       PES0000041000D000392011041917260045                                                
6024600041000111169903023059089300000000037                                                                                     
7PESE                                                                                000000000041000                            
82011042000000100000070000001945000000000000000000000000000000000000000000007                                                   
9201104200000010000007000000194500000000000000000000000000000000000000000000007                                                 
