120120920PAGO FACIL               090060246FABIAN NORBERTO D´ERAMO                                                              
320120920000001FABIAN NORBERTO D´ERAMO                                                                                          
50000110201209192012092000723138554675       PES0000035000A091192012091818040048                                                
6024600035000122620072313855467500025000036                                                                                     
7PESE                                                                                000000000035000                            
50000210201209192012092000712910849285       PES0000004640A023312012091915120013                                                
6024600004640122650071291084928500006000036                                                                                     
7PESE                                                                                000000000004640                            
50000310201209192012092000714743022944       PES0000009000M601222012091912220023                                                
6024600009000122680071474302294400025000057                                                                                     
7PESE                                                                                000000000009000                            
50000410201209192012092000714743505132       PES0000009000A093412012091918150011                                                
6024600009000122690071474350513200025000000                                                                                     
7PESE                                                                                000000000009000                            
50000510201209192012092000540434600312       PES0000026000A104232012091915580008                                                
6024600026000122640054043460031200010000663                                                                                     
7PESE                                                                                000000000026000                            
50000610201209192012092000711240407837       PES0000029000A103882012091911590034                                                
6024600029000122650071124040783700035000000                                                                                     
7PESE                                                                                000000000029000                            
50000710201209192012092000714326942846       PES0000029000D000412012091915340003                                                
6024600029000122660071432694284600035000015                                                                                     
7PESE                                                                                000000000029000                            
50000810201209192012092000713440948833       PES0000029000A093412012091918150010                                                
6024600029000122690071344094883300035000079                                                                                     
7PESE                                                                                000000000029000                            
50000910201209192012092000710925335118       PES0000029000M620162012091911460010                                                
6024600029000122700071092533511800035000000                                                                                     
7PESE                                                                                000000000029000                            
50001010201209192012092017031334206323       PES0000030000A087842012091919480043                                                
6024600030000122691703133420632300000000063                                                                                     
7PESE                                                                                000000000030000                            
50001110201209192012092017030624653436       PES0000030000A110882012091907540028                                                
6024600030000122701703062465343600000000037                                                                                     
7PESE                                                                                000000000030000                            
50001210201209192012092001320231639665       PES0000050000A115802012091912110007                                                
6024600045000122600132023163966500050000521                                                                                     
7PESE                                                                                000000000050000                            
50001310201209192012092001320811893460       PES0000050000A092232012091912290075                                                
6024600045000122600132081189346000050000563                                                                                     
7PESE                                                                                000000000050000                            
50001410201209192012092099030134600312       PES0000049000A104232012091915580007                                                
6024600049000122709903013460031200000000057                                                                                     
7PESE                                                                                000000000049000                            
50001510201209192012092001320522114084       PES0000050000A090072012091918340157                                                
6024600050000122660132052211408400000000021                                                                                     
7PESE                                                                                000000000050000                            
50001610201209192012092001320616765531       PES0000050000A601292012091911320027                                                
6024600050000122660132061676553100000000021                                                                                     
7PESE                                                                                000000000050000                            
50001710201209192012092001320617076590       PES0000050000A091692012091912580104                                                
6024600050000122660132061707659000000000084                                                                                     
7PESE                                                                                000000000050000                            
82012092000000100000170000005586400000000000000000000000000000000000000000017                                                   
9201209200000010000017000000558640000000000000000000000000000000000000000000017                                                 
