120111020PAGO FACIL               090060246FABIAN NORBERTO D´ERAMO                                                              
320111020000001FABIAN NORBERTO D´ERAMO                                                                                          
50000110201110192011102088880000000001       PES0000000200A042822011101917300193                                                
6024600000200112998888000000000100000000084                                                                                     
7PESE                                                                                000000000000200                            
50000210201110192011102020040624800178       PES0000006000A049022011101909390019                                                
6024600006000112922004062480017800000000000                                                                                     
7PESE                                                                                000000000006000                            
50000310201110192011102020040129042087       PES0000006000A062492011101913150050                                                
6024600006000112982004012904208700000000078                                                                                     
7PESE                                                                                000000000006000                            
50000410201110192011102029060317143098       PES0000010000A100022011101909260034                                                
6024600010000112972906031714309800030000090                                                                                     
7PESE                                                                                000000000010000                            
50000510201110192011102000504737932198       PES0000010000A078682011101910540003                                                
6024600010000112980050473793219800000000057                                                                                     
7PESE                                                                                000000000010000                            
50000610201110192011102029060410574592       PES0000010000A620332011101911150015                                                
6024600010000112982906041057459200030000090                                                                                     
7PESE                                                                                000000000010000                            
50000710201110192011102029060913859306       PES0000010000A085372011101917560210                                                
6024600010000112982906091385930600030000000                                                                                     
7PESE                                                                                000000000010000                            
50000810201110192011102018330130832600       PES0000015000A107682011101917040107                                                
6024600015000112931833013083260000000000084                                                                                     
7PESE                                                                                000000000015000                            
50000910201110192011102000570923222720       PES0000020000A090522011101917520510                                                
6024600020000112930057092322272000020000037                                                                                     
7PESE                                                                                000000000020000                            
50001010201110192011102000572618407942       PES0000020000A090522011101917510508                                                
6024600020000112930057261840794200020000000                                                                                     
7PESE                                                                                000000000020000                            
50001110201110192011102000574422655801       PES0000020000A101832011101915100038                                                
6024600020000112930057442265580100020000000                                                                                     
7PESE                                                                                000000000020000                            
50001210201110192011102000500826123690       PES0000027500A108512011101913030039                                                
6024600027500112920050082612369000000000000                                                                                     
7PESE                                                                                000000000027500                            
50001310201110192011102000504516893905       PES0000027500A019812011101913430081                                                
6024600027500112930050451689390500000000000                                                                                     
7PESE                                                                                000000000027500                            
50001410201110192011102000502714952939       PES0000027500A093422011101912000134                                                
6024600027500112970050271495293900000000042                                                                                     
7PESE                                                                                000000000027500                            
50001510201110192011102000504038992998       PES0000027500A025872011101913130138                                                
6024600027500112970050403899299800000000015                                                                                     
7PESE                                                                                000000000027500                            
50001610201110192011102000500828813279       PES0000027500A082572011101917280093                                                
6024600027500112980050082881327900000000063                                                                                     
7PESE                                                                                000000000027500                            
50001710201110192011102000503230873436       PES0000027500A098212011101910560071                                                
6024600027500112990050323087343600000000084                                                                                     
7PESE                                                                                000000000027500                            
50001810201110192011102000532525578594       PES0000031000M620132011101916120044                                                
6024600031000112920053252557859400000000058                                                                                     
7PESE                                                                                000000000031000                            
50001910201110192011102001290620022587       PES0000037000A059742011101917280181                                                
6024600037000112920129062002258700000000037                                                                                     
7PESE                                                                                000000000037000                            
50002010201110192011102001290524913443       PES0000037000A086812011101914590227                                                
6024600037000112950129052491344300000000063                                                                                     
7PESE                                                                                000000000037000                            
50002110201110192011102001291814526690       PES0000037000A037602011101911590144                                                
6024600037000112980129181452669000000000016                                                                                     
7PESE                                                                                000000000037000                            
50002210201110192011102000530326184562       PES0000039500M620032011101909070003                                                
6024600039500112970053032618456200000000015                                                                                     
7PESE                                                                                000000000039500                            
50002310201110192011102000530618225923       PES0000039500A035422011101916530024                                                
6024600039500112980053061822592300000000036                                                                                     
7PESE                                                                                000000000039500                            
82011102000000100000230000005132000000000000000000000000000000000000000000023                                                   
9201110200000010000023000000513200000000000000000000000000000000000000000000023                                                 
