120110921PAGO FACIL               090060246FABIAN NORBERTO D´ERAMO                                                              
320110921000001FABIAN NORBERTO D´ERAMO                                                                                          
50000110201109202011092100504423604015       PES0000024500M600372011091913000019                                                
6024600024500112630050442360401500030000000                                                                                     
7PESE                                                                                000000000024500                            
50000210201109202011092129060414189176       PES0000010000A007352011092012100132                                                
6024600010000112692906041418917600030000042                                                                                     
7PESE                                                                                000000000010000                            
50000310201109202011092100540436087988       PES0000017500A103582011092012280137                                                
6024600017500112630054043608798800015000763                                                                                     
7PESE                                                                                000000000017500                            
50000410201109202011092117020236447139       PES0000020000M660232011092011320135                                                
6024600020000112641702023644713900000000515                                                                                     
7PESE                                                                                000000000020000                            
50000510201109202011092117020329301107       PES0000020000A061142011092017460106                                                
6024600020000112641702032930110700000000042                                                                                     
7PESE                                                                                000000000020000                            
50000610201109202011092117020333537982       PES0000020000A084002011092011500054                                                
6024600020000112641702033353798200000000079                                                                                     
7PESE                                                                                000000000020000                            
50000710201109202011092117020426645105       PES0000020000A061142011092017470107                                                
6024600020000112641702042664510500000000063                                                                                     
7PESE                                                                                000000000020000                            
50000810201109202011092117020523281951       PES0000020000M640352011092011010007                                                
6024600020000112641702052328195100000000099                                                                                     
7PESE                                                                                000000000020000                            
50000910201109202011092117020620825754       PES0000020000M640352011092011000006                                                
6024600020000112641702062082575400000000042                                                                                     
7PESE                                                                                000000000020000                            
50001010201109202011092117020716805505       PES0000020000A061432011092009080086                                                
6024600020000112641702071680550500000000016                                                                                     
7PESE                                                                                000000000020000                            
50001110201109202011092117020912398104       PES0000020000A077712011092017590043                                                
6024600020000112641702091239810400000000037                                                                                     
7PESE                                                                                000000000020000                            
50001210201109202011092117021223096902       PES0000020000A039692011092016110010                                                
6024600020000112641702122309690200000000057                                                                                     
7PESE                                                                                000000000020000                            
50001310201109202011092117021314710339       PES0000020000A061432011092009090087                                                
6024600020000112641702131471033900000000036                                                                                     
7PESE                                                                                000000000020000                            
50001410201109202011092117021521783546       PES0000020000A084002011092018250093                                                
6024600020000112641702152178354600000000099                                                                                     
7PESE                                                                                000000000020000                            
50001510201109202011092117021522123131       PES0000020000A102282011092019330171                                                
6024600020000112641702152212313100000000079                                                                                     
7PESE                                                                                000000000020000                            
50001610201109202011092100500923871707       PES0000024500M601842011092014120108                                                
6024600024500112630050092387170700030000021                                                                                     
7PESE                                                                                000000000024500                            
50001710201109202011092100503726056971       PES0000024500M601842011092014130109                                                
6024600024500112630050372605697100030000000                                                                                     
7PESE                                                                                000000000024500                            
50001810201109202011092100500731729835       PES0000024500M620122011092018340108                                                
6024600024500112640050073172983500030000042                                                                                     
7PESE                                                                                000000000024500                            
50001910201109202011092100501429368119       PES0000024500A044382011092009470002                                                
6024600024500112640050142936811900030000063                                                                                     
7PESE                                                                                000000000024500                            
50002010201109202011092100502426939228       PES0000024500A044382011092009470003                                                
6024600024500112640050242693922800030000036                                                                                     
7PESE                                                                                000000000024500                            
50002110201109202011092100502523792589       PES0000024500A034222011092017190086                                                
6024600024500112650050252379258900030000099                                                                                     
7PESE                                                                                000000000024500                            
50002210201109202011092100504332437115       PES0000024500A069092011092017450160                                                
6024600024500112660050433243711500030000000                                                                                     
7PESE                                                                                000000000024500                            
50002310201109202011092100504513285071       PES0000024500A016352011092014120305                                                
6024600024500112660050451328507100030000090                                                                                     
7PESE                                                                                000000000024500                            
50002410201109202011092100500233811917       PES0000024500A029032011092009340048                                                
6024600024500112670050023381191700030000016                                                                                     
7PESE                                                                                000000000024500                            
50002510201109202011092100502331935654       PES0000024500A108252011092011530216                                                
6024600024500112690050233193565400030000021                                                                                     
7PESE                                                                                000000000024500                            
50002610201109202011092100502524431099       PES0000024500D000292011092014300222                                                
6024600024500112700050252443109900030000000                                                                                     
7PESE                                                                                000000000024500                            
50002710201109202011092100504517054623       PES0000024500A102072011092017120021                                                
6024600024500112700050451705462300030000042                                                                                     
7PESE                                                                                000000000024500                            
50002810201109202011092100532528054497       PES0000029000A045372011092018240212                                                
6024600029000112630053252805449700020000078                                                                                     
7PESE                                                                                000000000029000                            
50002910201109202011092101280135113148       PES0000036500A040462011092018400303                                                
6024600036500112650128013511314800000000090                                                                                     
7PESE                                                                                000000000036500                            
50003010201109202011092101280521524925       PES0000036500A076552011092016040064                                                
6024600036500112650128052152492500000000058                                                                                     
7PESE                                                                                000000000036500                            
50003110201109202011092101282223724963       PES0000036500A065852011092010360013                                                
6024600036500112650128222372496300000000042                                                                                     
7PESE                                                                                000000000036500                            
50003210201109202011092117020813583354       PES0000020000A640282011092110590025                                                
6024600020000112641702081358335400000000057                                                                                     
7PESE                                                                                000000000020000                            
82011092100000100000320000007445000000000000000000000000000000000000000000032                                                   
9201109210000010000032000000744500000000000000000000000000000000000000000000032                                                 
