120110721PAGO FACIL               090060246FABIAN NORBERTO D´ERAMO                                                              
320110721000001FABIAN NORBERTO D´ERAMO                                                                                          
50000110201107202011072100540236943330       PES0000027000A099762011071912250112                                                
6024600025500111990054023694333000015000763                                                                                     
7PESE                                                                                000000000027000                            
50000210201107202011072100540234515650       PES0000027000A084942011072012010003                                                
6024600027000112070054023451565000015000063                                                                                     
7PESE                                                                                000000000027000                            
50000310201107202011072100540230531074       PES0000027000A079262011072018400170                                                
6024600027000112080054023053107400015000090                                                                                     
7PESE                                                                                000000000027000                            
50000410201107202011072100540137376363       PES0000059000A086842011072019150138                                                
6024600059000112010054013737636300000000000                                                                                     
7PESE                                                                                000000000059000                            
82011072100000100000040000001400000000000000000000000000000000000000000000004                                                   
9201107210000010000004000000140000000000000000000000000000000000000000000000004                                                 
