120120921PAGO FACIL               090060246FABIAN NORBERTO D´ERAMO                                                              
320120921000001FABIAN NORBERTO D´ERAMO                                                                                          
50000110201209202012092100714743180864       PES0000009000A601492012092014120051                                                
6024600009000122670071474318086400025000084                                                                                     
7PESE                                                                                000000000009000                            
50000210201209202012092198010433070049       PES0000019500A100382012092012500110                                                
6024600019500122649801043307004900000000521                                                                                     
7PESE                                                                                000000000019500                            
50000310201209202012092100711914642596       PES0000029000A601492012092014120052                                                
6024600029000122670071191464259600035000036                                                                                     
7PESE                                                                                000000000029000                            
82012092100000100000030000000575000000000000000000000000000000000000000000003                                                   
9201209210000010000003000000057500000000000000000000000000000000000000000000003                                                 
