120110621PAGO FACIL               090060246FABIAN NORBERTO D´ERAMO                                                              
320110621000001FABIAN NORBERTO D´ERAMO                                                                                          
50000110201106172011062118302821433416       PES0000015000A086972011061713430072                                                
6024600015000111691830282143341600040000663                                                                                     
7PESE                                                                                000000000015000                            
50000210201106172011062118302722216850       PES0000015000D000092011061717120261                                                
6024600015000111691830272221685000040000563                                                                                     
7PESE                                                                                000000000015000                            
50000310201106172011062118300522840735       PES0000015000A104702011061718420022                                                
6024600015000111691830052284073500040000316                                                                                     
7PESE                                                                                000000000015000                            
50000410201106182011062118300233026621       PES0000015000A016362011061814410371                                                
6024600015000111691830023302662100040000600                                                                                     
7PESE                                                                                000000000015000                            
50000510201106182011062118302722815451       PES0000015000A095922011061812030002                                                
6024600015000111691830272281545100040000690                                                                                     
7PESE                                                                                000000000015000                            
82011062100000100000050000000750000000000000000000000000000000000000000000005                                                   
9201106210000010000005000000075000000000000000000000000000000000000000000000005                                                 
