120111021PAGO FACIL               090060246FABIAN NORBERTO D´ERAMO                                                              
320111021000001FABIAN NORBERTO D´ERAMO                                                                                          
50000110201110202011102100500924269017       PES0000027500A025052011101922510025                                                
6024600027500112970050092426901700000000079                                                                                     
7PESE                                                                                000000000027500                            
50000210201110202011102120040327088595       PES0000006000M600092011102011490052                                                
6024600006000112932004032708859500000000000                                                                                     
7PESE                                                                                000000000006000                            
50000310201110202011102120040214958497       PES0000006000A022772011102018030243                                                
6024600006000113002004021495849700000000057                                                                                     
7PESE                                                                                000000000006000                            
50000410201110202011102100504741524980       PES0000010000A037142011102011200079                                                
6024600010000112930050474152498000000000021                                                                                     
7PESE                                                                                000000000010000                            
50000510201110202011102129061004942554       PES0000010000L070152011102009082288                                                
6024600010000112992906100494255400030000000                                                                                     
7PESE                                                                                000000000010000                            
50000610201110202011102118330129195277       PES0000015000A047692011102018480169                                                
6024600015000112931833012919527700000000000                                                                                     
7PESE                                                                                000000000015000                            
50000710201110202011102100585713565807       PES0000018500A053422011102011480119                                                
6024600018500112930058571356580700040000063                                                                                     
7PESE                                                                                000000000018500                            
50000810201110202011102100575713565807       PES0000020000A053422011102011470118                                                
6024600020000112930057571356580700020000063                                                                                     
7PESE                                                                                000000000020000                            
50000910201110202011102118340427207819       PES0000020000A080082011102017550165                                                
6024600020000112971834042720781900000000015                                                                                     
7PESE                                                                                000000000020000                            
50001010201110202011102118340716601122       PES0000020000M600522011102010330006                                                
6024600020000112981834071660112200000000021                                                                                     
7PESE                                                                                000000000020000                            
50001110201110202011102100572622303425       PES0000020000A065482011102013500081                                                
6024600020000112990057262230342500020000000                                                                                     
7PESE                                                                                000000000020000                            
50001210201110202011102118340622240340       PES0000020000A093102011102014060044                                                
6024600020000113001834062224034000000000084                                                                                     
7PESE                                                                                000000000020000                            
50001310201110202011102100503216918221       PES0000020625M620882011102011440058                                                
6024600020625112990050321691822100000250084                                                                                     
7PESE                                                                                000000000020625                            
50001410201110202011102100504610125824       PES0000027500A069092011102010060005                                                
6024600027500112930050461012582400000000015                                                                                     
7PESE                                                                                000000000027500                            
50001510201110202011102100502329128800       PES0000027500M600712011102012340125                                                
6024600027500112970050232912880000000000000                                                                                     
7PESE                                                                                000000000027500                            
50001610201110202011102100502428145757       PES0000027500A095212011102014500133                                                
6024600027500112970050242814575700000000036                                                                                     
7PESE                                                                                000000000027500                            
50001710201110202011102100504608104267       PES0000027500A091992011102011160003                                                
6024600027500112980050460810426700000000042                                                                                     
7PESE                                                                                000000000027500                            
50001810201110202011102100502717766793       PES0000027500A009562011102017280141                                                
6024600027500113000050271776679300000000058                                                                                     
7PESE                                                                                000000000027500                            
50001910201110202011102100532810125824       PES0000031000A069092011102010060004                                                
6024600031000112930053281012582400000000058                                                                                     
7PESE                                                                                000000000031000                            
50002010201110202011102100533332531983       PES0000031000A069092011102010060003                                                
6024600031000112930053333253198300000000063                                                                                     
7PESE                                                                                000000000031000                            
50002110201110202011102100533825296957       PES0000031000A069092011102010060006                                                
6024600031000112930053382529695700000000021                                                                                     
7PESE                                                                                000000000031000                            
50002210201110202011102101290622399467       PES0000037000A063972011102010010046                                                
6024600037000112930129062239946700000000063                                                                                     
7PESE                                                                                000000000037000                            
50002310201110202011102101290329679371       PES0000037000M620412011102011400015                                                
6024600037000112940129032967937100000000063                                                                                     
7PESE                                                                                000000000037000                            
50002410201110202011102101290692421709       PES0000037000A091492011102012190171                                                
6024600037000112970129069242170900000000042                                                                                     
7PESE                                                                                000000000037000                            
50002510201110202011102100530423995076       PES0000039500M601012011102016120218                                                
6024600039500112940053042399507600000000037                                                                                     
7PESE                                                                                000000000039500                            
50002610201110202011102100530616387168       PES0000039500D000142011102013030084                                                
6024600039500112970053061638716800000000058                                                                                     
7PESE                                                                                000000000039500                            
50002710201110202011102100530521080930       PES0000039500A026032011102012010138                                                
6024600039500112990053052108093000000000058                                                                                     
7PESE                                                                                000000000039500                            
50002810201110202011102100530135266242       PES0000039500A026682011102018130058                                                
6024600039500113000053013526624200000000016                                                                                     
7PESE                                                                                000000000039500                            
82011102100000100000280000007131250000000000000000000000000000000000000000028                                                   
9201110210000010000028000000713125000000000000000000000000000000000000000000028                                                 
