120110922PAGO FACIL               090060246FABIAN NORBERTO D´ERAMO                                                              
320110922000001FABIAN NORBERTO D´ERAMO                                                                                          
50000110201109212011092217020429067455       PES0000020000M620342011092010260006                                                
6024600020000112641702042906745500000000042                                                                                     
7PESE                                                                                000000000020000                            
50000210201109212011092237020812735284       PES0000009000A054282011092111590060                                                
6024600009000112693702081273528400000000078                                                                                     
7PESE                                                                                000000000009000                            
50000310201109212011092237020425952491       PES0000009000A602192011092111350084                                                
6024600009000112703702042595249100000000079                                                                                     
7PESE                                                                                000000000009000                            
50000410201109212011092237020523728344       PES0000009000A054282011092118440117                                                
6024600009000112703702052372834400000000078                                                                                     
7PESE                                                                                000000000009000                            
50000510201109212011092237022106504166       PES0000009000A054282011092111590059                                                
6024600009000112703702210650416600000000037                                                                                     
7PESE                                                                                000000000009000                            
50000610201109212011092229060225952491       PES0000010000A602192011092111340083                                                
6024600010000112642906022595249100030000099                                                                                     
7PESE                                                                                000000000010000                            
50000710201109212011092229060414013921       PES0000010000A092012011092111200102                                                
6024600010000112712906041401392100030000084                                                                                     
7PESE                                                                                000000000010000                            
50000810201109212011092200573008529149       PES0000017500A018312011092115310116                                                
6024600017500112700057300852914900025000015                                                                                     
7PESE                                                                                000000000017500                            
50000910201109212011092217020139251271       PES0000020000L071222011092112218744                                                
6024600020000112641702013925127100000000037                                                                                     
7PESE                                                                                000000000020000                            
50001010201109212011092217020329363414       PES0000020000A099632011092116540096                                                
6024600020000112641702032936341400000000037                                                                                     
7PESE                                                                                000000000020000                            
50001110201109212011092217020523801151       PES0000020000L071222011092112218745                                                
6024600020000112641702052380115100000000021                                                                                     
7PESE                                                                                000000000020000                            
50001210201109212011092217020620778095       PES0000020000A106612011092116540038                                                
6024600020000112641702062077809500000000036                                                                                     
7PESE                                                                                000000000020000                            
50001310201109212011092217020621418269       PES0000020000A108012011092109560003                                                
6024600020000112641702062141826900000000021                                                                                     
7PESE                                                                                000000000020000                            
50001410201109212011092217020716017735       PES0000020000A060922011092118160090                                                
6024600020000112641702071601773500000000021                                                                                     
7PESE                                                                                000000000020000                            
50001510201109212011092217020716329442       PES0000020000L071152011092119293676                                                
6024600020000112641702071632944200000000078                                                                                     
7PESE                                                                                000000000020000                            
50001610201109212011092217020717555696       PES0000020000A097922011092112560140                                                
6024600020000112641702071755569600000000042                                                                                     
7PESE                                                                                000000000020000                            
50001710201109212011092217020812624987       PES0000020000L071152011092118403671                                                
6024600020000112641702081262498700000000090                                                                                     
7PESE                                                                                000000000020000                            
50001810201109212011092217020912028411       PES0000020000A044492011092109410073                                                
6024600020000112641702091202841100000000099                                                                                     
7PESE                                                                                000000000020000                            
50001910201109212011092217021223760168       PES0000020000A060922011092117290054                                                
6024600020000112641702122376016800000000057                                                                                     
7PESE                                                                                000000000020000                            
50002010201109212011092217021228567898       PES0000020000A044342011092118350050                                                
6024600020000112641702122856789800000000057                                                                                     
7PESE                                                                                000000000020000                            
50002110201109212011092217021228727729       PES0000020000A620822011092118170034                                                
6024600020000112641702122872772900000000058                                                                                     
7PESE                                                                                000000000020000                            
50002210201109212011092217021404724565       PES0000020000M660232011092117320136                                                
6024600020000112641702140472456500000000021                                                                                     
7PESE                                                                                000000000020000                            
50002310201109212011092217021539546699       PES0000020000M660232011092108560009                                                
6024600020000112641702153954669900000000058                                                                                     
7PESE                                                                                000000000020000                            
50002410201109212011092200502622029936       PES0000024500M601812011092111120021                                                
6024600024500112640050262202993600030000021                                                                                     
7PESE                                                                                000000000024500                            
50002510201109212011092200504424909738       PES0000024500A009562011092113120220                                                
6024600024500112670050442490973800030000078                                                                                     
7PESE                                                                                000000000024500                            
50002610201109212011092200502813236517       PES0000024500A051342011092116190058                                                
6024600024500112690050281323651700030000078                                                                                     
7PESE                                                                                000000000024500                            
50002710201109212011092200502427084687       PES0000024500A085592011092116450040                                                
6024600024500112700050242708468700030000099                                                                                     
7PESE                                                                                000000000024500                            
50002810201109212011092200501814888484       PES0000024500A076762011092119070240                                                
6024600024500112710050181488848400030000042                                                                                     
7PESE                                                                                000000000024500                            
50002910201109212011092200504424365103       PES0000024500A044382011092113350259                                                
6024600024500112710050442436510300030000016                                                                                     
7PESE                                                                                000000000024500                            
50003010201109212011092200533635359340       PES0000029000A110472011092119300138                                                
6024600029000112710053363535934000020000084                                                                                     
7PESE                                                                                000000000029000                            
50003110201109212011092201280325896017       PES0000036500A088612011092110110029                                                
6024600036500112650128032589601700000000000                                                                                     
7PESE                                                                                000000000036500                            
50003210201109212011092201280518300986       PES0000036500A053422011092109390007                                                
6024600036500112650128051830098600000000036                                                                                     
7PESE                                                                                000000000036500                            
50003310201109212011092201280520717756       PES0000036500A016172011092112140044                                                
6024600036500112650128052071775600000000000                                                                                     
7PESE                                                                                000000000036500                            
82011092200000100000330000006790000000000000000000000000000000000000000000033                                                   
9201109220000010000033000000679000000000000000000000000000000000000000000000033                                                 
