120120322PAGO FACIL               090060246FABIAN NORBERTO D´ERAMO                                                              
320120322000001FABIAN NORBERTO D´ERAMO                                                                                          
50000110201203212012032200702618532531       PES0000020000A103032012032114250106                                                
6024600017500120800070261853253100025000721                                                                                     
7PESE                                                                                000000000020000                            
50000210201203212012032200704136696668       PES0000020000A058372012032116260387                                                
6024600017500120800070413669666800025000642                                                                                     
7PESE                                                                                000000000020000                            
50000310201203212012032200691431565598       PES0000022000A083262012032109250029                                                
6024600022000120820069143156559800000000084                                                                                     
7PESE                                                                                000000000022000                            
50000410201203212012032200691527088325       PES0000022000A053092012032118300111                                                
6024600022000120820069152708832500000000058                                                                                     
7PESE                                                                                000000000022000                            
50000510201203212012032200691594161243       PES0000022000A082952012032111250039                                                
6024600022000120820069159416124300000000021                                                                                     
7PESE                                                                                000000000022000                            
50000610201203212012032200692011822243       PES0000022000L120112012032110172010                                                
6024600022000120820069201182224300000000037                                                                                     
7PESE                                                                                000000000022000                            
50000710201203212012032200692525144420       PES0000022000A023122012032116470133                                                
6024600022000120820069252514442000000000079                                                                                     
7PESE                                                                                000000000022000                            
50000810201203212012032200692620226948       PES0000022000A092792012032110050010                                                
6024600022000120820069262022694800000000063                                                                                     
7PESE                                                                                000000000022000                            
50000910201203212012032200694332437115       PES0000022000A069092012032117380114                                                
6024600022000120820069433243711500000000058                                                                                     
7PESE                                                                                000000000022000                            
82012032200000100000090000001940000000000000000000000000000000000000000000009                                                   
9201203220000010000009000000194000000000000000000000000000000000000000000000009                                                 
