120111122PAGO FACIL               090060246FABIAN NORBERTO D´ERAMO                                                              
320111122000001FABIAN NORBERTO D´ERAMO                                                                                          
50000110201111212011112229060228023731       PES0000010000A001632011112117410219                                                
6024600010000113262906022802373100030000078                                                                                     
7PESE                                                                                000000000010000                            
50000210201111212011112229060318305438       PES0000010000D001472011112119420204                                                
6024600010000113312906031830543800030000079                                                                                     
7PESE                                                                                000000000010000                            
50000310201111212011112218350233669700       PES0000020000D000772011112113540281                                                
6024600020000113291835023366970000000000021                                                                                     
7PESE                                                                                000000000020000                            
50000410201111212011112218350233828381       PES0000020000L070092011112114124333                                                
6024600020000113291835023382838100000000084                                                                                     
7PESE                                                                                000000000020000                            
50000510201111212011112200585714825474       PES0000022500D001442011112110070061                                                
6024600022500113310058571482547400025000016                                                                                     
7PESE                                                                                000000000022500                            
50000610201111212011112201300523072333       PES0000040000A082002011112120280118                                                
6024600040000113250130052307233300000000078                                                                                     
7PESE                                                                                000000000040000                            
50000710201111212011112201301432520937       PES0000040000A068902011112113580142                                                
6024600040000113250130143252093700000000000                                                                                     
7PESE                                                                                000000000040000                            
50000810201111212011112201301525578594       PES0000040000L120182011112116150275                                                
6024600040000113250130152557859400000000063                                                                                     
7PESE                                                                                000000000040000                            
50000910201111212011112201301623745885       PES0000040000A103482011112118340022                                                
6024600040000113250130162374588500000000090                                                                                     
7PESE                                                                                000000000040000                            
50001010201111212011112201301333483288       PES0000040000A055102011112110350029                                                
6024600040000113260130133348328800000000099                                                                                     
7PESE                                                                                000000000040000                            
50001110201111212011112201301622842282       PES0000040000A108702011112118270047                                                
6024600040000113260130162284228200000000063                                                                                     
7PESE                                                                                000000000040000                            
50001210201111212011112201301622855681       PES0000040000A055102011112113110108                                                
6024600040000113260130162285568100000000042                                                                                     
7PESE                                                                                000000000040000                            
50001310201111212011112201301817233780       PES0000040000A022082011112113440260                                                
6024600040000113260130181723378000000000090                                                                                     
7PESE                                                                                000000000040000                            
50001410201111212011112201301430525745       PES0000040000A092052011112111410094                                                
6024600040000113280130143052574500000000090                                                                                     
7PESE                                                                                000000000040000                            
50001510201111212011112201301433261186       PES0000040000A098212011112113210221                                                
6024600040000113280130143326118600000000063                                                                                     
7PESE                                                                                000000000040000                            
50001610201111212011112201301721587216       PES0000040000A602242011112110030014                                                
6024600040000113280130172158721600000000058                                                                                     
7PESE                                                                                000000000040000                            
50001710201111212011112201301913236329       PES0000040000A099962011112114520044                                                
6024600040000113280130191323632900000000099                                                                                     
7PESE                                                                                000000000040000                            
50001810201111212011112201300523447127       PES0000040000A048882011112111220021                                                
6024600040000113290130052344712700000000000                                                                                     
7PESE                                                                                000000000040000                            
50001910201111212011112201301333828381       PES0000040000L070092011112114124334                                                
6024600040000113290130133382838100000000084                                                                                     
7PESE                                                                                000000000040000                            
50002010201111212011112201301718486297       PES0000040000A048882011112111220022                                                
6024600040000113290130171848629700000000079                                                                                     
7PESE                                                                                000000000040000                            
50002110201111212011112201301720751609       PES0000040000A104462011112112050073                                                
6024600040000113290130172075160900000000042                                                                                     
7PESE                                                                                000000000040000                            
50002210201111212011112201300910760463       PES0000040000A096162011112117410131                                                
6024600040000113320130091076046300000000000                                                                                     
7PESE                                                                                000000000040000                            
50002310201111212011112201301623476234       PES0000040000A109652011112110150018                                                
6024600040000113320130162347623400000000099                                                                                     
7PESE                                                                                000000000040000                            
50002410201111212011112201301624251278       PES0000040000A009562011112118510082                                                
6024600040000113320130162425127800000000042                                                                                     
7PESE                                                                                000000000040000                            
50002510201111212011112201301722185215       PES0000040000A073472011112117340147                                                
6024600040000113320130172218521500000000015                                                                                     
7PESE                                                                                000000000040000                            
50002610201111212011112201301813872869       PES0000040000M600702011112116120175                                                
6024600040000113320130181387286900000000063                                                                                     
7PESE                                                                                000000000040000                            
50002710201111212011112201301816475803       PES0000040000A076552011112109520038                                                
6024600040000113320130181647580300000000000                                                                                     
7PESE                                                                                000000000040000                            
50002810201111212011112201301913704461       PES0000040000M620092011112111270079                                                
6024600040000113320130191370446100000000099                                                                                     
7PESE                                                                                000000000040000                            
50002910201111212011112201302011478442       PES0000040000A069132011112116270130                                                
6024600040000113320130201147844200000000058                                                                                     
7PESE                                                                                000000000040000                            
50003010201111212011112246060139097297       PES0000048000A042062011112109420025                                                
6024600048000113264606013909729700000000000                                                                                     
7PESE                                                                                000000000048000                            
50003110201111212011112246060231857219       PES0000048000A073842011112116060138                                                
6024600048000113264606023185721900000000016                                                                                     
7PESE                                                                                000000000048000                            
82011112200000100000310000011385000000000000000000000000000000000000000000031                                                   
9201111220000010000031000001138500000000000000000000000000000000000000000000031                                                 
