120120622PAGO FACIL               090060246FABIAN NORBERTO D´ERAMO                                                              
320120622000001FABIAN NORBERTO D´ERAMO                                                                                          
50000110201206212012062299030128506908       PES0000041650A079502012061912150226                                                
6024600041650121779903012850690800000500063                                                                                     
7PESE                                                                                000000000041650                            
50000210201206212012062299060133779867       PES0000008000A073422012062118270015                                                
6024600008000121779906013377986700000000079                                                                                     
7PESE                                                                                000000000008000                            
50000310201206212012062299060233779867       PES0000008000A073422012062118270016                                                
6024600008000121779906023377986700000000000                                                                                     
7PESE                                                                                000000000008000                            
50000410201206212012062299080233466090       PES0000008000D000302012062111550218                                                
6024600008000121799908023346609000000000016                                                                                     
7PESE                                                                                000000000008000                            
50000510201206212012062257002121464355       PES0000010000A045692012062110110012                                                
6024600010000121785700212146435500010000015                                                                                     
7PESE                                                                                000000000010000                            
50000610201206212012062257001316752638       PES0000013000A045692012062110110011                                                
6024600013000121785700131675263800010000000                                                                                     
7PESE                                                                                000000000013000                            
50000710201206212012062299030129317503       PES0000049000A081582012062118540176                                                
6024600049000121809903012931750300000000079                                                                                     
7PESE                                                                                000000000049000                            
82012062200000100000070000001376500000000000000000000000000000000000000000007                                                   
9201206220000010000007000000137650000000000000000000000000000000000000000000007                                                 
