120121122PAGO FACIL               090060246FABIAN NORBERTO D´ERAMO                                                              
320121122000001FABIAN NORBERTO D´ERAMO                                                                                          
50000110201211212012112200774494624527       PES0000025500M600092012112010450036                                                
6024600025500123310077449462452700030000015                                                                                     
7PESE                                                                                000000000025500                            
50000210201211212012112200773826352652       PES0000025500M600092012112010220019                                                
6024600025500123320077382635265200030000015                                                                                     
7PESE                                                                                000000000025500                            
50000310201211212012112272000518764739       PES0000009000A046572012112110010025                                                
6024600009000123297200051876473900000000021                                                                                     
7PESE                                                                                000000000009000                            
50000410201211212012112272000520237168       PES0000009000A046572012112110010024                                                
6024600009000123297200052023716800000000000                                                                                     
7PESE                                                                                000000000009000                            
50000510201211212012112272000520870271       PES0000009000A062782012112118340023                                                
6024600009000123297200052087027100000000037                                                                                     
7PESE                                                                                000000000009000                            
50000610201211212012112272000521355120       PES0000009000A062782012112118370026                                                
6024600009000123297200052135512000000000084                                                                                     
7PESE                                                                                000000000009000                            
50000710201211212012112272000521495663       PES0000009000A062782012112118360025                                                
6024600009000123297200052149566300000000063                                                                                     
7PESE                                                                                000000000009000                            
50000810201211212012112272000532938825       PES0000009000L070652012112113438103                                                
6024600009000123297200053293882500000000057                                                                                     
7PESE                                                                                000000000009000                            
50000910201211212012112272000546981434       PES0000009000A062782012112118350024                                                
6024600009000123297200054698143400000000058                                                                                     
7PESE                                                                                000000000009000                            
50001010201211212012112272000332698153       PES0000012000L070652012112113438104                                                
6024600012000123297200033269815300000000000                                                                                     
7PESE                                                                                000000000012000                            
50001110201211212012112273000106675853       PES0000012000A096832012112119050045                                                
6024600012000123307300010667585300030000021                                                                                     
7PESE                                                                                000000000012000                            
50001210201211212012112273000112613639       PES0000012000A096832012112119060046                                                
6024600012000123307300011261363900030000084                                                                                     
7PESE                                                                                000000000012000                            
50001310201211212012112273000123794764       PES0000012000A660332012112108390031                                                
6024600012000123317300012379476400030000021                                                                                     
7PESE                                                                                000000000012000                            
50001410201211212012112273000224089156       PES0000012000A087252012112117070208                                                
6024600012000123317300022408915600030000000                                                                                     
7PESE                                                                                000000000012000                            
50001510201211212012112273000114579382       PES0000012000A099652012112116590005                                                
6024600012000123327300011457938200030000079                                                                                     
7PESE                                                                                000000000012000                            
50001610201211212012112273000133976349       PES0000012000A029422012112111350130                                                
6024600012000123327300013397634900030000078                                                                                     
7PESE                                                                                000000000012000                            
50001710201211212012112229080820499309       PES0000015000A070822012112118510131                                                
6024600015000123262908082049930900030000015                                                                                     
7PESE                                                                                000000000015000                            
50001810201211212012112257010133984729       PES0000015000M620062012112117400025                                                
6024600015000123285701013398472900000000084                                                                                     
7PESE                                                                                000000000015000                            
50001910201211212012112257010425039058       PES0000015000M620062012112117380024                                                
6024600015000123315701042503905800000000058                                                                                     
7PESE                                                                                000000000015000                            
50002010201211212012112272000230272839       PES0000016000A102362012112117510173                                                
6024600016000123297200023027283900000000084                                                                                     
7PESE                                                                                000000000016000                            
50002110201211212012112272000232422967       PES0000016000A046612012112112000102                                                
6024600016000123297200023242296700000000021                                                                                     
7PESE                                                                                000000000016000                            
50002210201211212012112269010925023107       PES0000017500A088162012112110190099                                                
6024600017500123276901092502310700025000084                                                                                     
7PESE                                                                                000000000017500                            
50002310201211212012112269012526216290       PES0000017500A068912012112113090266                                                
6024600017500123306901252621629000025000390                                                                                     
7PESE                                                                                000000000017500                            
50002410201211212012112269013823213472       PES0000017500A068912012112113100267                                                
6024600017500123306901382321347200025000358                                                                                     
7PESE                                                                                000000000017500                            
50002510201211212012112298010424599090       PES0000019500A059362012112110390170                                                
6024600019500123259801042459909000000000721                                                                                     
7PESE                                                                                000000000019500                            
50002610201211212012112218410426927364       PES0000025000A033052012112111560020                                                
6024600020000123211841042692736400050000578                                                                                     
7PESE                                                                                000000000025000                            
50002710201211212012112200772427084687       PES0000025500A103032012112113520065                                                
6024600025500123280077242708468700030000042                                                                                     
7PESE                                                                                000000000025500                            
50002810201211212012112200771432674311       PES0000025500A086812012112118410025                                                
6024600025500123310077143267431100030000037                                                                                     
7PESE                                                                                000000000025500                            
50002910201211212012112200771914011599       PES0000025500A086812012112118420026                                                
6024600025500123310077191401159900030000042                                                                                     
7PESE                                                                                000000000025500                            
50003010201211212012112200772428032209       PES0000025500A108712012112119260078                                                
6024600025500123310077242803220900030000063                                                                                     
7PESE                                                                                000000000025500                            
50003110201211212012112200772592731269       PES0000025500D000112012112115030172                                                
6024600025500123320077259273126900030000078                                                                                     
7PESE                                                                                000000000025500                            
50003210201211212012112200773440796626       PES0000025500L120102012112119093760                                                
6024600025500123320077344079662600030000063                                                                                     
7PESE                                                                                000000000025500                            
50003310201211212012112299040135989576       PES0000032000M601132012112115050008                                                
6024600032000123339904013598957600000000057                                                                                     
7PESE                                                                                000000000032000                            
50003410201211212012112201331328196801       PES0000052000A086342012112111230036                                                
6024600052000123260133132819680100080000016                                                                                     
7PESE                                                                                000000000052000                            
50003510201211212012112201331425171331       PES0000052000A040232012112110190055                                                
6024600052000123260133142517133100080000000                                                                                     
7PESE                                                                                000000000052000                            
50003610201211212012112201331520608242       PES0000052000A086342012112111230035                                                
6024600052000123260133152060824200080000042                                                                                     
7PESE                                                                                000000000052000                            
50003710201211212012112201331136070683       PES0000052000A029032012112116340282                                                
6024600052000123270133113607068300080000063                                                                                     
7PESE                                                                                000000000052000                            
50003810201211212012112201331136289595       PES0000052000A100022012112117390085                                                
6024600052000123270133113628959500080000057                                                                                     
7PESE                                                                                000000000052000                            
50003910201211212012112201330425097818       PES0000052000A055272012112116430042                                                
6024600052000123280133042509781800080000099                                                                                     
7PESE                                                                                000000000052000                            
50004010201211212012112201331521923226       PES0000052000A091652012112111430109                                                
6024600052000123280133152192322600080000063                                                                                     
7PESE                                                                                000000000052000                            
50004110201211212012112201331522887253       PES0000052000A064442012112112320093                                                
6024600052000123310133152288725300080000079                                                                                     
7PESE                                                                                000000000052000                            
50004210201211212012112201331594116703       PES0000052000A075692012112112530219                                                
6024600052000123310133159411670300080000042                                                                                     
7PESE                                                                                000000000052000                            
50004310201211212012112201331617935203       PES0000052000A620442012112110280011                                                
6024600052000123310133161793520300080000037                                                                                     
7PESE                                                                                000000000052000                            
50004410201211212012112201331521796967       PES0000052000A085512012112116480198                                                
6024600052000123320133152179696700080000084                                                                                     
7PESE                                                                                000000000052000                            
50004510201211212012112201330423093604       PES0000052000A116142012112113200032                                                
6024600052000123330133042309360400080000063                                                                                     
7PESE                                                                                000000000052000                            
50004610201211212012112201330618336563       PES0000052000A098212012112109170061                                                
6024600052000123330133061833656300080000021                                                                                     
7PESE                                                                                000000000052000                            
50004710201211212012112201331137247328       PES0000052000A068642012112116030162                                                
6024600052000123330133113724732800080000063                                                                                     
7PESE                                                                                000000000052000                            
82012112200000100000470000012850000000000000000000000000000000000000000000047                                                   
9201211220000010000047000001285000000000000000000000000000000000000000000000047                                                 
