120121023PAGO FACIL               090060246FABIAN NORBERTO D´ERAMO                                                              
320121023000001FABIAN NORBERTO D´ERAMO                                                                                          
50000110201210222012102300720523330696       PES0000047500A088892012102010360033                                                
6024600047500122990072052333069600000000058                                                                                     
7PESE                                                                                000000000047500                            
50000210201210222012102344020622179270       PES0000008500A110382012102218150254                                                
6024600008500122984402062217927000000000037                                                                                     
7PESE                                                                                000000000008500                            
50000310201210222012102344020716269585       PES0000008500A047272012102219150015                                                
6024600008500122994402071626958500000000016                                                                                     
7PESE                                                                                000000000008500                            
50000410201210222012102352010622891759       PES0000010000D001662012102213510067                                                
6024600010000122965201062289175900010000084                                                                                     
7PESE                                                                                000000000010000                            
50000510201210222012102352011822134190       PES0000010000D001662012102213520068                                                
6024600010000122965201182213419000010000063                                                                                     
7PESE                                                                                000000000010000                            
50000610201210222012102300714742999115       PES0000011500A043162012102210490034                                                
6024600011500122980071474299911500000000015                                                                                     
7PESE                                                                                000000000011500                            
50000710201210222012102300714744046807       PES0000011500A042592012102212090011                                                
6024600011500122980071474404680700000000084                                                                                     
7PESE                                                                                000000000011500                            
50000810201210222012102365000220619368       PES0000013000A024432012102218220160                                                
6024600013000122946500022061936800000000590                                                                                     
7PESE                                                                                000000000013000                            
50000910201210222012102365000227915856       PES0000013000A038672012102208590010                                                
6024600013000122946500022791585600000000579                                                                                     
7PESE                                                                                000000000013000                            
50001010201210222012102365000524489202       PES0000013000A024432012102218220161                                                
6024600013000122946500052448920200000000515                                                                                     
7PESE                                                                                000000000013000                            
50001110201210222012102370000718204342       PES0000013000A660452012102210410080                                                
6024600013000122987000071820434200000000000                                                                                     
7PESE                                                                                000000000013000                            
50001210201210222012102365000222256866       PES0000013000A047802012102211150042                                                
6024600013000123026500022225686600000000042                                                                                     
7PESE                                                                                000000000013000                            
50001310201210222012102300752620761584       PES0000022500A100662012102210530025                                                
6024600022500122980075262076158400020000084                                                                                     
7PESE                                                                                000000000022500                            
50001410201210222012102300751117992322       PES0000022500M601842012102211470065                                                
6024600022500123000075111799232200020000084                                                                                     
7PESE                                                                                000000000022500                            
50001510201210222012102300712814105969       PES0000032500A620572012102210330022                                                
6024600032500122950071281410596900000000021                                                                                     
7PESE                                                                                000000000032500                            
50001610201210222012102300711722873818       PES0000032500A092562012102217170119                                                
6024600032500122960071172287381800000000037                                                                                     
7PESE                                                                                000000000032500                            
50001710201210222012102300712913522201       PES0000032500A056912012102216100062                                                
6024600032500122960071291352220100000000042                                                                                     
7PESE                                                                                000000000032500                            
50001810201210222012102300711335873675       PES0000032500A064982012102209550043                                                
6024600032500122970071133587367500000000079                                                                                     
7PESE                                                                                000000000032500                            
50001910201210222012102300710335311064       PES0000032500A090052012102212440074                                                
6024600032500122990071033531106400000000042                                                                                     
7PESE                                                                                000000000032500                            
50002010201210222012102300710636686485       PES0000032500D000292012102214190255                                                
6024600032500122990071063668648500000000090                                                                                     
7PESE                                                                                000000000032500                            
50002110201210222012102300711432991788       PES0000032500D000152012102214010176                                                
6024600032500122990071143299178800000000084                                                                                     
7PESE                                                                                000000000032500                            
50002210201210222012102300712331437913       PES0000032500A102692012102217370164                                                
6024600032500122990071233143791300000000079                                                                                     
7PESE                                                                                000000000032500                            
50002310201210222012102300712333196281       PES0000032500A085342012102214330123                                                
6024600032500122990071233319628100000000079                                                                                     
7PESE                                                                                000000000032500                            
50002410201210222012102300712814156395       PES0000032500A091662012102215220687                                                
6024600032500122990071281415639500000000037                                                                                     
7PESE                                                                                000000000032500                            
50002510201210222012102300713728437085       PES0000032500M600152012102215410059                                                
6024600032500122990071372843708500000000021                                                                                     
7PESE                                                                                000000000032500                            
50002610201210222012102300714042368151       PES0000032500A100912012102216580001                                                
6024600032500122990071404236815100000000058                                                                                     
7PESE                                                                                000000000032500                            
50002710201210222012102300714328012547       PES0000032500A090052012102212440075                                                
6024600032500122990071432801254700000000063                                                                                     
7PESE                                                                                000000000032500                            
50002810201210222012102300722527649385       PES0000037500D000852012102210170014                                                
6024600037500122990072252764938500000000042                                                                                     
7PESE                                                                                000000000037500                            
50002910201210222012102300723814235642       PES0000037500A034742012102214410156                                                
6024600037500122990072381423564200000000037                                                                                     
7PESE                                                                                000000000037500                            
50003010201210222012102300724029059175       PES0000037500A028652012102219050177                                                
6024600037500122990072402905917500000000063                                                                                     
7PESE                                                                                000000000037500                            
50003110201210222012102300720233828381       PES0000047500M620132012102211020016                                                
6024600047500122960072023382838100000000037                                                                                     
7PESE                                                                                000000000047500                            
50003210201210222012102300720811220418       PES0000047500A049072012102210510095                                                
6024600047500122960072081122041800000000078                                                                                     
7PESE                                                                                000000000047500                            
50003310201210222012102300720423569010       PES0000047500A085662012102210360012                                                
6024600047500122970072042356901000000000021                                                                                     
7PESE                                                                                000000000047500                            
50003410201210222012102300720618223149       PES0000047500A086812012102218270017                                                
6024600047500122970072061822314900000000021                                                                                     
7PESE                                                                                000000000047500                            
50003510201210222012102300720522598249       PES0000047500A002542012102217040026                                                
6024600047500122980072052259824900000000042                                                                                     
7PESE                                                                                000000000047500                            
50003610201210222012102300720232537882       PES0000047500A068912012102211560099                                                
6024600047500122990072023253788200000000021                                                                                     
7PESE                                                                                000000000047500                            
50003710201210222012102300720328283827       PES0000047500D000872012102212440218                                                
6024600047500122990072032828382700000000058                                                                                     
7PESE                                                                                000000000047500                            
50003810201210222012102300720328698515       PES0000047500A092062012102213110202                                                
6024600047500122990072032869851500000000016                                                                                     
7PESE                                                                                000000000047500                            
50003910201210222012102300720714545456       PES0000047500A044492012102218310162                                                
6024600047500122990072071454545600000000090                                                                                     
7PESE                                                                                000000000047500                            
50004010201210222012102300720714789697       PES0000047500A078732012102211370003                                                
6024600047500122990072071478969700000000042                                                                                     
7PESE                                                                                000000000047500                            
50004110201210222012102300721327788554       PES0000047500A092062012102213110201                                                
6024600047500122990072132778855400000000015                                                                                     
7PESE                                                                                000000000047500                            
50004210201210222012102399030137206177       PES0000049000A092732012102216190156                                                
6024600049000122979903013720617700000000042                                                                                     
7PESE                                                                                000000000049000                            
50004310201210222012102399030135755065       PES0000049000A024632012102209010034                                                
6024600049000123009903013575506500000000000                                                                                     
7PESE                                                                                000000000049000                            
50004410201210222012102301331134583532       PES0000052000A101542012102218490393                                                
6024600052000122970133113458353200080000057                                                                                     
7PESE                                                                                000000000052000                            
50004510201210222012102301331423289675       PES0000052000A100022012102209160030                                                
6024600052000122980133142328967500080000037                                                                                     
7PESE                                                                                000000000052000                            
50004610201210222012102301331423569010       PES0000052000A085662012102210360014                                                
6024600052000122980133142356901000080000042                                                                                     
7PESE                                                                                000000000052000                            
50004710201210222012102301331424040963       PES0000052000M620412012102211200018                                                
6024600052000122980133142404096300080000000                                                                                     
7PESE                                                                                000000000052000                            
50004810201210222012102301331425264786       PES0000052000A070632012102210410105                                                
6024600052000122980133142526478600080000084                                                                                     
7PESE                                                                                000000000052000                            
50004910201210222012102301331522598249       PES0000052000A002542012102217040027                                                
6024600052000122980133152259824900080000021                                                                                     
7PESE                                                                                000000000052000                            
50005010201210222012102301331133740393       PES0000052000A088182012102216460104                                                
6024600052000122990133113374039300080000042                                                                                     
7PESE                                                                                000000000052000                            
50005110201210222012102301331618531499       PES0000052000L070532012102219562613                                                
6024600052000122990133161853149900080000000                                                                                     
7PESE                                                                                000000000052000                            
50005210201210222012102301331231094763       PES0000052000M620062012102209070008                                                
6024600052000123000133123109476300080000084                                                                                     
7PESE                                                                                000000000052000                            
50005310201210222012102301331326927364       PES0000052000A118852012102217230025                                                
6024600052000123000133132692736400080000000                                                                                     
7PESE                                                                                000000000052000                            
50005410201210222012102301331327084784       PES0000052000M620062012102209050005                                                
6024600052000123000133132708478400080000078                                                                                     
7PESE                                                                                000000000052000                            
50005510201210222012102301331329718366       PES0000052000M620062012102209030003                                                
6024600052000123000133132971836600080000078                                                                                     
7PESE                                                                                000000000052000                            
50005610201210222012102301331426050433       PES0000052000M620062012102209040004                                                
6024600052000123000133142605043300080000000                                                                                     
7PESE                                                                                000000000052000                            
50005710201210222012102301331618300986       PES0000052000A045372012102213580080                                                
6024600052000123000133161830098600080000000                                                                                     
7PESE                                                                                000000000052000                            
50005810201210222012102301331620045080       PES0000052000A065832012102211520216                                                
6024600052000123000133162004508000080000057                                                                                     
7PESE                                                                                000000000052000                            
50005910201210222012102301331616960713       PES0000052000A031212012102210370075                                                
6024600052000123010133161696071300080000021                                                                                     
7PESE                                                                                000000000052000                            
50006010201210222012102301331714589515       PES0000052000M600702012102215190158                                                
6024600052000123010133171458951500080000021                                                                                     
7PESE                                                                                000000000052000                            
50006110201210222012102301331327335228       PES0000052000M620062012102209060006                                                
6024600052000123020133132733522800080000000                                                                                     
7PESE                                                                                000000000052000                            
50006210201210222012102301331328751302       PES0000052000A091162012102210290018                                                
6024600052000123030133132875130200080000021                                                                                     
7PESE                                                                                000000000052000                            
50006310201210222012102301331714156395       PES0000052000A091662012102215220688                                                
6024600052000123030133171415639500080000000                                                                                     
7PESE                                                                                000000000052000                            
82012102300000100000630000024130000000000000000000000000000000000000000000063                                                   
9201210230000010000063000002413000000000000000000000000000000000000000000000063                                                 
