120110823PAGO FACIL               090060246FABIAN NORBERTO D´ERAMO                                                              
320110823000001FABIAN NORBERTO D´ERAMO                                                                                          
50000110201108192011082302302007620834       PES0000023500A091912011081909440014                                                
6024600023500112370230200762083400000000090                                                                                     
7PESE                                                                                000000000023500                            
50000210201108192011082317021006139829       PES0000016000A037782011081909120007                                                
6024600016000112371702100613982900040000063                                                                                     
7PESE                                                                                000000000016000                            
50000310201108192011082317020427620517       PES0000016000A066952011081908320028                                                
6024600016000112371702042762051700040000090                                                                                     
7PESE                                                                                000000000016000                            
50000410201108192011082300530518277606       PES0000035000A099812011081912580063                                                
6024600035000112340053051827760600035000016                                                                                     
7PESE                                                                                000000000035000                            
50000510201108192011082317020523382824       PES0000016000A037772011081912150093                                                
6024600016000112321702052338282400040000063                                                                                     
7PESE                                                                                000000000016000                            
50000610201108192011082317021225329001       PES0000016000A037772011081912150094                                                
6024600016000112321702122532900100040000021                                                                                     
7PESE                                                                                000000000016000                            
50000710201108192011082301280616807661       PES0000036500A601882011081910200014                                                
6024600036500112320128061680766100000000058                                                                                     
7PESE                                                                                000000000036500                            
50000810201108192011082301280422505784       PES0000036500A100022011081913260157                                                
6024600036500112370128042250578400000000021                                                                                     
7PESE                                                                                000000000036500                            
50000910201108192011082300501429523176       PES0000019500A072612011081911500069                                                
6024600019500112360050142952317600050000063                                                                                     
7PESE                                                                                000000000019500                            
50001010201108192011082300533817106492       PES0000026000A093102011081913580155                                                
6024600026000112320053381710649200030000058                                                                                     
7PESE                                                                                000000000026000                            
50001110201108192011082301280614796202       PES0000036500A073842011081914270111                                                
6024600036500112340128061479620200000000084                                                                                     
7PESE                                                                                000000000036500                            
50001210201108192011082300503108248147       PES0000019500A065992011081911140041                                                
6024600019500112350050310824814700050000016                                                                                     
7PESE                                                                                000000000019500                            
50001310201108192011082300502426654379       PES0000019500A601852011081911040047                                                
6024600019500112370050242665437900050000079                                                                                     
7PESE                                                                                000000000019500                            
50001410201108192011082300502425848882       PES0000019500A602252011081911460054                                                
6024600019500112370050242584888200050000042                                                                                     
7PESE                                                                                000000000019500                            
50001510201108192011082301280229684489       PES0000036500A017262011081916340097                                                
6024600036500112310128022968448900000000084                                                                                     
7PESE                                                                                000000000036500                            
50001610201108192011082301280423599625       PES0000036500A017262011081916340098                                                
6024600036500112310128042359962500000000057                                                                                     
7PESE                                                                                000000000036500                            
50001710201108192011082301280328807743       PES0000036500A047992011081917200167                                                
6024600036500112370128032880774300000000090                                                                                     
7PESE                                                                                000000000036500                            
50001810201108192011082317021222549380       PES0000016000A092082011081910320060                                                
6024600016000112311702122254938000040000058                                                                                     
7PESE                                                                                000000000016000                            
50001910201108192011082300501332866262       PES0000019500A096972011081916150159                                                
6024600019500112370050133286626200050000084                                                                                     
7PESE                                                                                000000000019500                            
50002010201108192011082300502425739155       PES0000019500A096972011081916150160                                                
6024600019500112370050242573915500050000057                                                                                     
7PESE                                                                                000000000019500                            
50002110201108192011082300503823073615       PES0000019500A096972011081916150161                                                
6024600019500112370050382307361500050000021                                                                                     
7PESE                                                                                000000000019500                            
50002210201108192011082300504610149870       PES0000019500A096972011081916150162                                                
6024600019500112360050461014987000050000084                                                                                     
7PESE                                                                                000000000019500                            
50002310201108192011082300502138465203       PES0000019500A015142011081909590020                                                
6024600019500112370050213846520300050000058                                                                                     
7PESE                                                                                000000000019500                            
50002410201108192011082300501913289450       PES0000019500A027802011081913200012                                                
6024600019500112320050191328945000050000078                                                                                     
7PESE                                                                                000000000019500                            
50002510201108192011082300530714618498       PES0000035000A105602011081918140204                                                
6024600035000112360053071461849800035000016                                                                                     
7PESE                                                                                000000000035000                            
50002610201108192011082300502233467921       PES0000019500A073882011081917380191                                                
6024600019500112370050223346792100050000021                                                                                     
7PESE                                                                                000000000019500                            
50002710201108192011082300502717660582       PES0000019500A038942011081918150039                                                
6024600019500112380050271766058200050000021                                                                                     
7PESE                                                                                000000000019500                            
50002810201108192011082317020622642914       PES0000016000A078202011081918460036                                                
6024600016000112311702062264291400040000079                                                                                     
7PESE                                                                                000000000016000                            
50002910201108192011082301280520831347       PES0000036500A073132011081910210011                                                
6024600036500112330128052083134700000000099                                                                                     
7PESE                                                                                000000000036500                            
50003010201108192011082300501913644272       PES0000019500A104982011081910360019                                                
6024600019500112360050191364427200050000021                                                                                     
7PESE                                                                                000000000019500                            
50003110201108192011082300504516224490       PES0000019500A098922011081918470104                                                
6024600019500112370050451622449000050000015                                                                                     
7PESE                                                                                000000000019500                            
50003210201108192011082301280520502863       PES0000036500A085792011081919270046                                                
6024600036500112320128052050286300000000016                                                                                     
7PESE                                                                                000000000036500                            
50003310201108192011082300532527401273       PES0000026000A049072011081916370076                                                
6024600026000112380053252740127300030000042                                                                                     
7PESE                                                                                000000000026000                            
50003410201108192011082300504332267457       PES0000019500L020242011081910050982                                                
6024600019500112380050433226745700050000016                                                                                     
7PESE                                                                                000000000019500                            
50003510201108192011082300504138681128       PES0000019500L120112011081915178655                                                
6024600019500112380050413868112800050000084                                                                                     
7PESE                                                                                000000000019500                            
50003610201108192011082300504040397164       PES0000019500M600702011081910550019                                                
6024600019500112370050404039716400050000037                                                                                     
7PESE                                                                                000000000019500                            
50003710201108192011082300502138618074       PES0000019500M600702011081910550021                                                
6024600019500112370050213861807400050000000                                                                                     
7PESE                                                                                000000000019500                            
50003810201108192011082300503538829975       PES0000019500M601132011081912080050                                                
6024600019500112360050353882997500050000090                                                                                     
7PESE                                                                                000000000019500                            
50003910201108192011082317020621691852       PES0000016000M640012011081908320007                                                
6024600016000112371702062169185200040000058                                                                                     
7PESE                                                                                000000000016000                            
50004010201108192011082317021523429526       PES0000016000M640012011081908330008                                                
6024600016000112371702152342952600040000036                                                                                     
7PESE                                                                                000000000016000                            
50004110201108192011082317020427423379       PES0000016000M660232011081912370192                                                
6024600016000112371702042742337900040000021                                                                                     
7PESE                                                                                000000000016000                            
50004210201108202011082317020425628647       PES0000016000A046102011081917190093                                                
6024600016000112331702042562864700040000090                                                                                     
7PESE                                                                                000000000016000                            
50004310201108202011082300502716876849       PES0000019500A093342011082010350023                                                
6024600019500112360050271687684900050000000                                                                                     
7PESE                                                                                000000000019500                            
50004410201108202011082300521011848670       PES0000026000A028472011082011570107                                                
6024600026000112350052101184867000005000036                                                                                     
7PESE                                                                                000000000026000                            
50004510201108202011082301280521426801       PES0000036500A086192011082011160026                                                
6024600036500112390128052142680100000000015                                                                                     
7PESE                                                                                000000000036500                            
50004610201108202011082300504424894916       PES0000019500A044222011082020130332                                                
6024600019500112350050442489491600050000063                                                                                     
7PESE                                                                                000000000019500                            
50004710201108202011082300504327919658       PES0000019500A044222011082020130333                                                
6024600019500112350050432791965800050000037                                                                                     
7PESE                                                                                000000000019500                            
50004810201108202011082300503726687218       PES0000019500D001472011082016490034                                                
6024600019500112330050372668721800050000000                                                                                     
7PESE                                                                                000000000019500                            
50004910201108202011082300502524988319       PES0000019500A066282011082018110079                                                
6024600019500112390050252498831900050000078                                                                                     
7PESE                                                                                000000000019500                            
50005010201108212011082300503238996968       PES0000019500D000502011082112080124                                                
6024600019500112390050323899696800050000000                                                                                     
7PESE                                                                                000000000019500                            
50005110201108212011082300501912902460       PES0000019500D000502011082118570137                                                
6024600019500112340050191290246000050000099                                                                                     
7PESE                                                                                000000000019500                            
50005210201108222011082302302327757289       PES0000023500A014502011082215510029                                                
6024600016500112270230232775728900070000799                                                                                     
7PESE                                                                                000000000023500                            
50005310201108222011082300501430352819       PES0000019500A016352011082215030010                                                
6024600019500112340050143035281900050000015                                                                                     
7PESE                                                                                000000000019500                            
50005410201108222011082300503912299924       PES0000019500D001472011082216560052                                                
6024600019500112390050391229992400050000079                                                                                     
7PESE                                                                                000000000019500                            
82011082300000100000540000012295000000000000000000000000000000000000000000054                                                   
9201108230000010000054000001229500000000000000000000000000000000000000000000054                                                 
