120120123PAGO FACIL               090060246FABIAN NORBERTO D´ERAMO                                                              
320120123000001FABIAN NORBERTO D´ERAMO                                                                                          
50000110201201202012012302320621832573       PES0000028000A075812012012012180153                                                
6024600028000120200232062183257300000000090                                                                                     
7PESE                                                                                000000000028000                            
50000210201201202012012302320627230638       PES0000028000A111102012012009440040                                                
6024600028000120200232062723063800000000016                                                                                     
7PESE                                                                                000000000028000                            
50000310201201202012012323060827062501       PES0000121600A096072012012009440044                                                
6024600121600120272306082706250100000000063                                                                                     
7PESE                                                                                000000000121600                            
50000410201201202012012323060938740399       PES0000121600A040072012012010570127                                                
6024600121600120242306093874039900000000063                                                                                     
7PESE                                                                                000000000121600                            
50000510201201202012012302321329544116       PES0000028000A108442012012014530053                                                
6024600028000120200232132954411600000000057                                                                                     
7PESE                                                                                000000000028000                            
50000610201201202012012323061124159048       PES0000136600A039042012012010060101                                                
6024600136600120262306112415904800000000021                                                                                     
7PESE                                                                                000000000136600                            
50000710201201202012012329070321946673       PES0000010000A093992012012015100002                                                
6024600010000120242907032194667300000000058                                                                                     
7PESE                                                                                000000000010000                            
50000810201201202012012323060826943636       PES0000121600A041372012012013140031                                                
6024600121600120272306082694363600000000057                                                                                     
7PESE                                                                                000000000121600                            
50000910201201202012012302320524583358       PES0000028000D000152012012013360140                                                
6024600028000120200232052458335800000000021                                                                                     
7PESE                                                                                000000000028000                            
50001010201201202012012302322727202869       PES0000020000A092222012012017540404                                                
6024600020000120200232272720286900000000063                                                                                     
7PESE                                                                                000000000020000                            
50001110201201202012012323060939260515       PES0000121600A700182012012009350023                                                
6024600121600120242306093926051500000000057                                                                                     
7PESE                                                                                000000000121600                            
50001210201201202012012302321717623370       PES0000028000A025152012012015280014                                                
6024600028000120200232171762337000000000084                                                                                     
7PESE                                                                                000000000028000                            
50001310201201202012012323061928836119       PES0000136600A046592012012017380078                                                
6024600136600120252306192883611900000000037                                                                                     
7PESE                                                                                000000000136600                            
50001410201201202012012302320524721880       PES0000028000A081352012012012380170                                                
6024600028000120200232052472188000000000000                                                                                     
7PESE                                                                                000000000028000                            
50001510201201202012012302320429083596       PES0000028000A068912012012011540153                                                
6024600028000120200232042908359600000000057                                                                                     
7PESE                                                                                000000000028000                            
50001610201201202012012323061518438265       PES0000136600A086972012012016080002                                                
6024600136600120272306151843826500000000021                                                                                     
7PESE                                                                                000000000136600                            
50001710201201202012012323061018379178       PES0000121600A045692012012011110023                                                
6024600121600120242306101837917800000000063                                                                                     
7PESE                                                                                000000000121600                            
50001810201201202012012302320333043749       PES0000028000A064332012012018320048                                                
6024600028000120200232033304374900000000084                                                                                     
7PESE                                                                                000000000028000                            
50001910201201212012012329070321478245       PES0000010000A053092012012112010158                                                
6024600010000120252907032147824500000000090                                                                                     
7PESE                                                                                000000000010000                            
82012012300000100000190000012818000000000000000000000000000000000000000000019                                                   
9201201230000010000019000001281800000000000000000000000000000000000000000000019                                                 
