120111123PAGO FACIL               090060246FABIAN NORBERTO D´ERAMO                                                              
320111123000001FABIAN NORBERTO D´ERAMO                                                                                          
50000110201111222011112329060226516683       PES0000010000A093092011112213490038                                                
6024600010000113282906022651668300030000000                                                                                     
7PESE                                                                                000000000010000                            
50000210201111222011112329060724476086       PES0000010000A093092011112213490037                                                
6024600010000113282906072447608600030000084                                                                                     
7PESE                                                                                000000000010000                            
50000310201111222011112329060630860623       PES0000010000A028672011112210240075                                                
6024600010000113322906063086062300030000000                                                                                     
7PESE                                                                                000000000010000                            
50000410201111222011112329060130928821       PES0000010000L120102011112217051565                                                
6024600010000113332906013092882100030000063                                                                                     
7PESE                                                                                000000000010000                            
50000510201111222011112329060293962633       PES0000010000A080692011112215240036                                                
6024600010000113332906029396263300030000090                                                                                     
7PESE                                                                                000000000010000                            
50000610201111222011112346071528129022       PES0000012000A056902011112213310162                                                
6024600012000113324607152812902200020000000                                                                                     
7PESE                                                                                000000000012000                            
50000710201111222011112318352431752925       PES0000020000A031092011112219320113                                                
6024600020000113261835243175292500000000078                                                                                     
7PESE                                                                                000000000020000                            
50000810201111222011112318350425731586       PES0000020000A080082011112212230167                                                
6024600020000113291835042573158600000000078                                                                                     
7PESE                                                                                000000000020000                            
50000910201111222011112300582233402024       PES0000022500A044382011112209460020                                                
6024600022500113260058223340202400025000099                                                                                     
7PESE                                                                                000000000022500                            
50001010201111222011112300583824204125       PES0000022500D000392011112214300105                                                
6024600022500113280058382420412500025000063                                                                                     
7PESE                                                                                000000000022500                            
50001110201111222011112300583821617427       PES0000022500A014502011112214360254                                                
6024600022500113290058382161742700025000057                                                                                     
7PESE                                                                                000000000022500                            
50001210201111222011112300581432071615       PES0000022500D000882011112212200185                                                
6024600022500113330058143207161500025000042                                                                                     
7PESE                                                                                000000000022500                            
50001310201111222011112300582136832435       PES0000022500A099522011112216180011                                                
6024600022500113330058213683243500025000058                                                                                     
7PESE                                                                                000000000022500                            
50001410201111222011112301301334583532       PES0000040000A072002011112214280230                                                
6024600040000113260130133458353200000000063                                                                                     
7PESE                                                                                000000000040000                            
50001510201111222011112301301914186711       PES0000040000A028162011112211220087                                                
6024600040000113260130191418671100000000021                                                                                     
7PESE                                                                                000000000040000                            
50001610201111222011112301301817534022       PES0000040000A047422011112211390085                                                
6024600040000113270130181753402200000000063                                                                                     
7PESE                                                                                000000000040000                            
50001710201111222011112301301718361744       PES0000040000A091692011112211240098                                                
6024600040000113280130171836174400000000063                                                                                     
7PESE                                                                                000000000040000                            
50001810201111222011112301300427951233       PES0000040000A001602011112213270226                                                
6024600040000113290130042795123300000000015                                                                                     
7PESE                                                                                000000000040000                            
50001910201111222011112301301525731586       PES0000040000A080082011112212230168                                                
6024600040000113290130152573158600000000063                                                                                     
7PESE                                                                                000000000040000                            
50002010201111222011112301301528391234       PES0000040000A075742011112211510048                                                
6024600040000113290130152839123400000000036                                                                                     
7PESE                                                                                000000000040000                            
50002110201111222011112301301623327634       PES0000040000A043132011112215560023                                                
6024600040000113290130162332763400000000042                                                                                     
7PESE                                                                                000000000040000                            
50002210201111222011112301301624754431       PES0000040000A094162011112210320009                                                
6024600040000113310130162475443100000000036                                                                                     
7PESE                                                                                000000000040000                            
50002310201111222011112301301431290062       PES0000040000M640032011112212020063                                                
6024600040000113320130143129006200000000000                                                                                     
7PESE                                                                                000000000040000                            
50002410201111222011112301301526842535       PES0000040000M620412011112209000001                                                
6024600040000113320130152684253500000000000                                                                                     
7PESE                                                                                000000000040000                            
50002510201111222011112301301721950088       PES0000040000A091062011112215130352                                                
6024600040000113320130172195008800000000021                                                                                     
7PESE                                                                                000000000040000                            
50002610201111222011112301301818154550       PES0000040000D000582011112210570032                                                
6024600040000113320130181815455000000000036                                                                                     
7PESE                                                                                000000000040000                            
50002710201111222011112301300622268205       PES0000040000A055202011112218180163                                                
6024600040000113330130062226820500000000078                                                                                     
7PESE                                                                                000000000040000                            
50002810201111222011112301301623129377       PES0000040000A028072011112213320134                                                
6024600040000113330130162312937700000000057                                                                                     
7PESE                                                                                000000000040000                            
50002910201111222011112301301623469086       PES0000040000A099812011112216340237                                                
6024600040000113330130162346908600000000057                                                                                     
7PESE                                                                                000000000040000                            
50003010201111222011112301301625300256       PES0000040000M620412011112210430007                                                
6024600040000113330130162530025600000000000                                                                                     
7PESE                                                                                000000000040000                            
50003110201111222011112301301720199982       PES0000040000A600902011112216040115                                                
6024600040000113330130172019998200000000079                                                                                     
7PESE                                                                                000000000040000                            
50003210201111222011112301301914685469       PES0000040000A055202011112218180164                                                
6024600040000113330130191468546900000000000                                                                                     
7PESE                                                                                000000000040000                            
50003310201111222011112346060230224909       PES0000048000A056902011112211240098                                                
6024600048000113264606023022490900000000000                                                                                     
7PESE                                                                                000000000048000                            
50003410201111222011112346060430829235       PES0000048000A088132011112212100155                                                
6024600048000113264606043082923500000000042                                                                                     
7PESE                                                                                000000000048000                            
50003510201111222011112346060834382842       PES0000048000M601812011112210480026                                                
6024600048000113264606083438284200000000063                                                                                     
7PESE                                                                                000000000048000                            
50003610201111222011112346060923792589       PES0000048000A034222011112218590071                                                
6024600048000113264606092379258900000000090                                                                                     
7PESE                                                                                000000000048000                            
50003710201111222011112346061016187464       PES0000048000A076122011112217450098                                                
6024600048000113264606101618746400000000042                                                                                     
7PESE                                                                                000000000048000                            
50003810201111222011112346061018543665       PES0000048000A602092011112211240113                                                
6024600048000113264606101854366500000000078                                                                                     
7PESE                                                                                000000000048000                            
50003910201111222011112346061023871707       PES0000048000A017262011112211590104                                                
6024600048000113264606102387170700000000037                                                                                     
7PESE                                                                                000000000048000                            
82011112300000100000390000013105000000000000000000000000000000000000000000039                                                   
9201111230000010000039000001310500000000000000000000000000000000000000000000039                                                 
