120120323PAGO FACIL               090060246FABIAN NORBERTO D´ERAMO                                                              
320120323000001FABIAN NORBERTO D´ERAMO                                                                                          
50000110201203222012032300690237078158       PES0000022000A083262012032218060058                                                
6024600022000120820069023707815800000000000                                                                                     
7PESE                                                                                000000000022000                            
50000210201203222012032300691431307065       PES0000022000A099242012032218320146                                                
6024600022000120820069143130706500000000036                                                                                     
7PESE                                                                                000000000022000                            
50000310201203222012032300691720561274       PES0000022000A100392012032215480183                                                
6024600022000120820069172056127400000000079                                                                                     
7PESE                                                                                000000000022000                            
50000410201203222012032300691816954941       PES0000022000L120102012032213465193                                                
6024600022000120820069181695494100000000078                                                                                     
7PESE                                                                                000000000022000                            
50000510201203222012032300692330447918       PES0000022000A082602012032217150145                                                
6024600022000120820069233044791800000000090                                                                                     
7PESE                                                                                000000000022000                            
50000610201203222012032300692330930375       PES0000022000A082602012032217160146                                                
6024600022000120820069233093037500000000042                                                                                     
7PESE                                                                                000000000022000                            
50000710201203222012032300692426196454       PES0000022000A044382012032216100268                                                
6024600022000120820069242619645400000000037                                                                                     
7PESE                                                                                000000000022000                            
50000810201203222012032300692525433673       PES0000022000A025052012032220020066                                                
6024600022000120820069252543367300000000000                                                                                     
7PESE                                                                                000000000022000                            
50000910201203222012032300692811994806       PES0000022000A058512012032217200078                                                
6024600022000120820069281199480600000000084                                                                                     
7PESE                                                                                000000000022000                            
50001010201203222012032300692813480999       PES0000022000A099242012032218320147                                                
6024600022000120820069281348099900000000084                                                                                     
7PESE                                                                                000000000022000                            
50001110201203222012032300692813565807       PES0000022000A109792012032215450106                                                
6024600022000120820069281356580700000000090                                                                                     
7PESE                                                                                000000000022000                            
50001210201203222012032300692814287612       PES0000022000A083262012032218060057                                                
6024600022000120820069281428761200000000016                                                                                     
7PESE                                                                                000000000022000                            
50001310201203222012032300692814618498       PES0000022000A034312012032214080199                                                
6024600022000120820069281461849800000000016                                                                                     
7PESE                                                                                000000000022000                            
50001410201203222012032300694042279235       PES0000022000A037312012032217240033                                                
6024600022000120820069404227923500000000036                                                                                     
7PESE                                                                                000000000022000                            
82012032300000100000140000003080000000000000000000000000000000000000000000014                                                   
9201203230000010000014000000308000000000000000000000000000000000000000000000014                                                 
