120120223PAGO FACIL               090060246FABIAN NORBERTO D´ERAMO                                                              
320120223000001FABIAN NORBERTO D´ERAMO                                                                                          
50000110201202222012022353010712312873       PES0000006000A102062012022218010089                                                
6024600006000120605301071231287300015000078                                                                                     
7PESE                                                                                000000000006000                            
50000210201202222012022301311326626270       PES0000097000M620902012022210460045                                                
6024600097000120530131132662627000000000000                                                                                     
7PESE                                                                                000000000097000                            
50000310201202222012022301311521723759       PES0000097000A035802012022217490151                                                
6024600097000120540131152172375900000000000                                                                                     
7PESE                                                                                000000000097000                            
50000410201202222012022301311327847362       PES0000097000A046802012022209540048                                                
6024600097000120550131132784736200000000037                                                                                     
7PESE                                                                                000000000097000                            
50000510201202222012022301311232689081       PES0000097000A029502012022219370256                                                
6024600097000120580131123268908100000000063                                                                                     
7PESE                                                                                000000000097000                            
50000610201202222012022323061330719967       PES0000136600E070632012022212218865                                                
6024600136600120522306133071996700000000058                                                                                     
7PESE                                                                                000000000136600                            
82012022300000100000060000005306000000000000000000000000000000000000000000006                                                   
9201202230000010000006000000530600000000000000000000000000000000000000000000006                                                 
