120120724PAGO FACIL               090060246FABIAN NORBERTO D´ERAMO                                                              
320120724000001FABIAN NORBERTO D´ERAMO                                                                                          
50000110201207232012072459001416521304       PES0000016000A114302012072313390052                                                
6024600016000122105900141652130400000000021                                                                                     
7PESE                                                                                000000000016000                            
50000210201207232012072400710514161791       PES0000018500M601892012072312590069                                                
6024600018500122090071051416179100090000078                                                                                     
7PESE                                                                                000000000018500                            
50000310201207232012072400711116223213       PES0000018500M601892012072312580068                                                
6024600018500122090071111622321300090000063                                                                                     
7PESE                                                                                000000000018500                            
50000410201207232012072400712814825474       PES0000018500A100052012072315500056                                                
6024600018500122090071281482547400090000036                                                                                     
7PESE                                                                                000000000018500                            
50000510201207232012072400713822350739       PES0000018500A105092012072316310028                                                
6024600018500122090071382235073900090000016                                                                                     
7PESE                                                                                000000000018500                            
50000610201207232012072400713914161791       PES0000018500M601892012072312590070                                                
6024600018500122090071391416179100090000016                                                                                     
7PESE                                                                                000000000018500                            
50000710201207232012072400714424909738       PES0000018500A009562012072309120003                                                
6024600018500122090071442490973800090000079                                                                                     
7PESE                                                                                000000000018500                            
50000810201207232012072400714425506114       PES0000018500M600822012072310150005                                                
6024600018500122090071442550611400090000058                                                                                     
7PESE                                                                                000000000018500                            
50000910201207232012072400712233740786       PES0000018500A109792012072316560115                                                
6024600018500122120071223374078600105000057                                                                                     
7PESE                                                                                000000000018500                            
50001010201207232012072417030722123131       PES0000025000A116212012072316360106                                                
6024600025000122101703072212313100050000063                                                                                     
7PESE                                                                                000000000025000                            
50001110201207232012072400540236157259       PES0000027000A057612012072318530107                                                
6024600027000122100054023615725900000000042                                                                                     
7PESE                                                                                000000000027000                            
50001210201207232012072400540236352229       PES0000027000A034672012072318520006                                                
6024600027000122120054023635222900000000042                                                                                     
7PESE                                                                                000000000027000                            
82012072400000100000120000002430000000000000000000000000000000000000000000012                                                   
9201207240000010000012000000243000000000000000000000000000000000000000000000012                                                 
