120120124PAGO FACIL               090060246FABIAN NORBERTO D´ERAMO                                                              
320120124000001FABIAN NORBERTO D´ERAMO                                                                                          
50000110201201232012012429070414989064       PES0000010000A601872012012310210068                                                
6024600010000120282907041498906400000000000                                                                                     
7PESE                                                                                000000000010000                            
50000210201201232012012429070725583671       PES0000010000A601872012012310210071                                                
6024600010000120292907072558367100000000042                                                                                     
7PESE                                                                                000000000010000                            
50000310201201232012012429070317228745       PES0000010000A093992012012316570017                                                
6024600010000120302907031722874500000000015                                                                                     
7PESE                                                                                000000000010000                            
50000410201201232012012400600713786205       PES0000025000D000462012012317530441                                                
6024600025000120270060071378620500040000084                                                                                     
7PESE                                                                                000000000025000                            
50000510201201232012012400601327420185       PES0000025000M750002012012308230003                                                
6024600025000120290060132742018500040000078                                                                                     
7PESE                                                                                000000000025000                            
50000610201201232012012499030228361121       PES0000037000A043162012012313060156                                                
6024600037000120309903022836112100035000090                                                                                     
7PESE                                                                                000000000037000                            
50000710201201232012012423060726901236       PES0000121600A071272012012310390069                                                
6024600121600120262306072690123600000000036                                                                                     
7PESE                                                                                000000000121600                            
50000810201201232012012423060635827473       PES0000121600M620642012012311389764                                                
6024600121600120272306063582747300000000063                                                                                     
7PESE                                                                                000000000121600                            
50000910201201232012012423060514901218       PES0000121600A048012012012317400004                                                
6024600121600120302306051490121800000000042                                                                                     
7PESE                                                                                000000000121600                            
82012012400000100000090000004818000000000000000000000000000000000000000000009                                                   
9201201240000010000009000000481800000000000000000000000000000000000000000000009                                                 
