120110824PAGO FACIL               090060246FABIAN NORBERTO D´ERAMO                                                              
320110824000001FABIAN NORBERTO D´ERAMO                                                                                          
50000110201108232011082400504418122500       PES0000019500A087042011081812540019                                                
6024600019500112360050441812250000050000058                                                                                     
7PESE                                                                                000000000019500                            
50000210201108232011082400500732977790       PES0000019500A058062011082013240176                                                
6024600019500112350050073297779000050000078                                                                                     
7PESE                                                                                000000000019500                            
50000310201108232011082417020621419449       PES0000016000M640252011082011400014                                                
6024600016000112361702062141944900040000042                                                                                     
7PESE                                                                                000000000016000                            
50000410201108232011082417020717048034       PES0000016000A039982011082309210007                                                
6024600016000112361702071704803400040000063                                                                                     
7PESE                                                                                000000000016000                            
50000510201108232011082417021512886260       PES0000016000M620032011082314050071                                                
6024600016000112411702151288626000040000090                                                                                     
7PESE                                                                                000000000016000                            
50000610201108232011082417021531364437       PES0000016000M620032011082314060072                                                
6024600016000112411702153136443700040000042                                                                                     
7PESE                                                                                000000000016000                            
50000710201108232011082400501527798063       PES0000019500A085512011082310250070                                                
6024600019500112350050152779806300050000090                                                                                     
7PESE                                                                                000000000019500                            
50000810201108232011082400502427135635       PES0000019500A090052011082317280019                                                
6024600019500112350050242713563500050000016                                                                                     
7PESE                                                                                000000000019500                            
50000910201108232011082400502717665137       PES0000019500A035912011082315050019                                                
6024600019500112350050271766513700050000036                                                                                     
7PESE                                                                                000000000019500                            
50001010201108232011082400502813898539       PES0000019500L070082011082319283994                                                
6024600019500112350050281389853900050000016                                                                                     
7PESE                                                                                000000000019500                            
50001110201108232011082400501236947549       PES0000019500A069092011082316580132                                                
6024600019500112360050123694754900050000078                                                                                     
7PESE                                                                                000000000019500                            
50001210201108232011082400501239212267       PES0000019500M601212011082310240022                                                
6024600019500112360050123921226700050000090                                                                                     
7PESE                                                                                000000000019500                            
50001310201108232011082400501817074919       PES0000019500M601972011082310560036                                                
6024600019500112360050181707491900050000063                                                                                     
7PESE                                                                                000000000019500                            
50001410201108232011082400502234588524       PES0000019500A107422011082317570003                                                
6024600019500112360050223458852400050000016                                                                                     
7PESE                                                                                000000000019500                            
50001510201108232011082400502235072699       PES0000019500A001342011082314180055                                                
6024600019500112360050223507269900050000021                                                                                     
7PESE                                                                                000000000019500                            
50001610201108232011082400502717617179       PES0000019500A091042011082315390135                                                
6024600019500112360050271761717900050000036                                                                                     
7PESE                                                                                000000000019500                            
50001710201108232011082400503725569416       PES0000019500A080082011082314370326                                                
6024600019500112360050372556941600050000042                                                                                     
7PESE                                                                                000000000019500                            
50001810201108232011082400502235991846       PES0000019500A074242011082310120131                                                
6024600019500112370050223599184600050000063                                                                                     
7PESE                                                                                000000000019500                            
50001910201108232011082400502524036419       PES0000019500A033472011082311430189                                                
6024600019500112370050252403641900050000090                                                                                     
7PESE                                                                                000000000019500                            
50002010201108232011082400503729115090       PES0000019500M600742011082312200164                                                
6024600019500112370050372911509000050000036                                                                                     
7PESE                                                                                000000000019500                            
50002110201108232011082400501430718511       PES0000019500A018312011082318040003                                                
6024600019500112380050143071851100050000021                                                                                     
7PESE                                                                                000000000019500                            
50002210201108232011082400502428057137       PES0000019500A018312011082318040002                                                
6024600019500112380050242805713700050000021                                                                                     
7PESE                                                                                000000000019500                            
50002310201108232011082400502912057095       PES0000019500A067332011082312100027                                                
6024600019500112380050291205709500050000042                                                                                     
7PESE                                                                                000000000019500                            
50002410201108232011082400504611040357       PES0000019500A007492011082310410030                                                
6024600019500112380050461104035700050000000                                                                                     
7PESE                                                                                000000000019500                            
50002510201108232011082400501241159562       PES0000019500A010922011082309140019                                                
6024600019500112390050124115956200050000042                                                                                     
7PESE                                                                                000000000019500                            
50002610201108232011082400501525720711       PES0000019500M601812011082313120137                                                
6024600019500112390050152572071100050000021                                                                                     
7PESE                                                                                000000000019500                            
50002710201108232011082400501817193569       PES0000019500M601132011082316190214                                                
6024600019500112390050181719356900050000021                                                                                     
7PESE                                                                                000000000019500                            
50002810201108232011082400503229311659       PES0000019500A068682011082311490102                                                
6024600019500112390050322931165900050000021                                                                                     
7PESE                                                                                000000000019500                            
50002910201108232011082400503233530235       PES0000019500M601132011082316190213                                                
6024600019500112390050323353023500050000021                                                                                     
7PESE                                                                                000000000019500                            
50003010201108232011082400503912107998       PES0000019500A081582011082317160286                                                
6024600019500112400050391210799800050000000                                                                                     
7PESE                                                                                000000000019500                            
50003110201108232011082400504610810002       PES0000019500A091132011082312220156                                                
6024600019500112400050461081000200050000042                                                                                     
7PESE                                                                                000000000019500                            
50003210201108232011082400501239435274       PES0000019500A047642011082310240011                                                
6024600019500112410050123943527400050000036                                                                                     
7PESE                                                                                000000000019500                            
50003310201108232011082400502137144764       PES0000019500A047642011082310230010                                                
6024600019500112410050213714476400050000084                                                                                     
7PESE                                                                                000000000019500                            
50003410201108232011082400503237243474       PES0000019500A036192011082317290122                                                
6024600019500112410050323724347400050000084                                                                                     
7PESE                                                                                000000000019500                            
50003510201108232011082400502329227482       PES0000019500A083902011082313060005                                                
6024600019500112420050232922748200050000057                                                                                     
7PESE                                                                                000000000019500                            
50003610201108232011082400502718283292       PES0000019500A068892011082316110041                                                
6024600019500112420050271828329200050000000                                                                                     
7PESE                                                                                000000000019500                            
50003710201108232011082402301435537115       PES0000023500A028202011082308490005                                                
6024600023500112370230143553711500000000036                                                                                     
7PESE                                                                                000000000023500                            
50003810201108232011082402301532362416       PES0000023500A601882011082311280147                                                
6024600023500112370230153236241600000000057                                                                                     
7PESE                                                                                000000000023500                            
50003910201108232011082402302420492285       PES0000023500A106832011082309210006                                                
6024600023500112380230242049228500000000042                                                                                     
7PESE                                                                                000000000023500                            
50004010201108232011082402301004752239       PES0000034500A062272011082318080028                                                
6024600034500112350230100475223900000000057                                                                                     
7PESE                                                                                000000000034500                            
50004110201108232011082402300425944229       PES0000034500A080372011082315120125                                                
6024600034500112360230042594422900000000058                                                                                     
7PESE                                                                                000000000034500                            
50004210201108232011082402300235266242       PES0000034500A028602011082316350092                                                
6024600034500112380230023526624200000000000                                                                                     
7PESE                                                                                000000000034500                            
50004310201108232011082402300716976109       PES0000034500A033762011082312060125                                                
6024600034500112380230071697610900000000000                                                                                     
7PESE                                                                                000000000034500                            
50004410201108232011082400530423903579       PES0000035000A092132011082314000251                                                
6024600035000112350053042390357900035000078                                                                                     
7PESE                                                                                000000000035000                            
50004510201108232011082400530714614712       PES0000035000A058512011082317170035                                                
6024600035000112360053071461471200035000042                                                                                     
7PESE                                                                                000000000035000                            
50004610201108232011082401280423343347       PES0000036500A620812011082308280015                                                
6024600036500112420128042334334700000000015                                                                                     
7PESE                                                                                000000000036500                            
82011082400000100000460000010030000000000000000000000000000000000000000000046                                                   
9201108240000010000046000001003000000000000000000000000000000000000000000000046                                                 
