120111124PAGO FACIL               090060246FABIAN NORBERTO D´ERAMO                                                              
320111124000001FABIAN NORBERTO D´ERAMO                                                                                          
50000110201111232011112429060817286261       PES0000010000A092102011112317330386                                                
6024600010000113272906081728626100030000099                                                                                     
7PESE                                                                                000000000010000                            
50000210201111232011112418350814310179       PES0000020000A025162011112315580012                                                
6024600020000113321835081431017900000000042                                                                                     
7PESE                                                                                000000000020000                            
50000310201111232011112400581527737931       PES0000022500A045372011112320350087                                                
6024600022500113330058152773793100025000037                                                                                     
7PESE                                                                                000000000022500                            
50000410201111232011112400584423229927       PES0000022500A091672011112311030113                                                
6024600022500113340058442322992700025000021                                                                                     
7PESE                                                                                000000000022500                            
50000510201111232011112401300427336623       PES0000040000A009562011112318130029                                                
6024600040000113270130042733662300000000021                                                                                     
7PESE                                                                                000000000040000                            
50000610201111232011112401301720007922       PES0000040000A076812011112312500123                                                
6024600040000113270130172000792200000000021                                                                                     
7PESE                                                                                000000000040000                            
50000710201111232011112401301720022587       PES0000040000A059742011112310290031                                                
6024600040000113270130172002258700000000036                                                                                     
7PESE                                                                                000000000040000                            
50000810201111232011112401301430557113       PES0000040000A036052011112315590063                                                
6024600040000113280130143055711300000000079                                                                                     
7PESE                                                                                000000000040000                            
50000910201111232011112401301618878737       PES0000040000A026442011112315100007                                                
6024600040000113280130161887873700000000042                                                                                     
7PESE                                                                                000000000040000                            
50001010201111232011112401301528042228       PES0000040000A107842011112317500032                                                
6024600040000113290130152804222800000000084                                                                                     
7PESE                                                                                000000000040000                            
50001110201111232011112401301526019115       PES0000040000A088562011112317170106                                                
6024600040000113320130152601911500000000042                                                                                     
7PESE                                                                                000000000040000                            
50001210201111232011112401301720365060       PES0000040000A099952011112314490094                                                
6024600040000113320130172036506000000000063                                                                                     
7PESE                                                                                000000000040000                            
50001310201111232011112401301722349776       PES0000040000A109702011112314060056                                                
6024600040000113320130172234977600000000021                                                                                     
7PESE                                                                                000000000040000                            
50001410201111232011112401301914326847       PES0000040000A040542011112312340093                                                
6024600040000113320130191432684700000000090                                                                                     
7PESE                                                                                000000000040000                            
50001510201111232011112401300714526690       PES0000040000A091792011112314260147                                                
6024600040000113330130071452669000000000016                                                                                     
7PESE                                                                                000000000040000                            
50001610201111232011112401301624040963       PES0000040000M620412011112310450008                                                
6024600040000113330130162404096300000000078                                                                                     
7PESE                                                                                000000000040000                            
50001710201111232011112401301527771883       PES0000040000A076212011112317120035                                                
6024600040000113340130152777188300000000021                                                                                     
7PESE                                                                                000000000040000                            
50001810201111232011112401301594553877       PES0000040000A031192011112319000085                                                
6024600040000113340130159455387700000000015                                                                                     
7PESE                                                                                000000000040000                            
50001910201111232011112401301718563343       PES0000040000A100662011112309180004                                                
6024600040000113340130171856334300000000016                                                                                     
7PESE                                                                                000000000040000                            
50002010201111232011112401301721613347       PES0000040000A100662011112309190005                                                
6024600040000113340130172161334700000000021                                                                                     
7PESE                                                                                000000000040000                            
82011112400000100000200000007150000000000000000000000000000000000000000000020                                                   
9201111240000010000020000000715000000000000000000000000000000000000000000000020                                                 
