120110624PAGO FACIL               090060246FABIAN NORBERTO D´ERAMO                                                              
320110624000001FABIAN NORBERTO D´ERAMO                                                                                          
50000110201106232011062418300427508671       PES0000019000A002372011062314510073                                                
6024600015000111691830042750867100040000678                                                                                     
7PESE                                                                                000000000019000                            
50000210201106232011062418300718730456       PES0000019000A092042011062310550070                                                
6024600019000111751830071873045600000000015                                                                                     
7PESE                                                                                000000000019000                            
50000310201106232011062402290622147709       PES0000024500A105142011062312200051                                                
6024600024500111780229062214770900000000099                                                                                     
7PESE                                                                                000000000024500                            
82011062400000100000030000000625000000000000000000000000000000000000000000003                                                   
9201106240000010000003000000062500000000000000000000000000000000000000000000003                                                 
