120121025PAGO FACIL               090060246FABIAN NORBERTO D´ERAMO                                                              
320121025000001FABIAN NORBERTO D´ERAMO                                                                                          
50000110201210242012102518402528304525       PES0000025000A114982012102217440266                                                
6024600025000122961840252830452500000000057                                                                                     
7PESE                                                                                000000000025000                            
50000210201210242012102544021621440385       PES0000008500A107662012102318040130                                                
6024600008500123014402162144038500000000042                                                                                     
7PESE                                                                                000000000008500                            
50000310201210242012102569000520030837       PES0000006000A110272012102418420095                                                
6024600006000123006900052003083700000000021                                                                                     
7PESE                                                                                000000000006000                            
50000410201210242012102569000818627618       PES0000006000A620792012102412070025                                                
6024600006000123006900081862761800000000042                                                                                     
7PESE                                                                                000000000006000                            
50000510201210242012102569001230170025       PES0000006000L071192012102411303311                                                
6024600006000123006900123017002500000000099                                                                                     
7PESE                                                                                000000000006000                            
50000610201210242012102552010330602729       PES0000010000A028072012102413320038                                                
6024600010000123045201033060272900010000015                                                                                     
7PESE                                                                                000000000010000                            
50000710201210242012102565000130602729       PES0000013000A028072012102413320039                                                
6024600013000123046500013060272900000000016                                                                                     
7PESE                                                                                000000000013000                            
50000810201210242012102565000132886768       PES0000013000A601492012102414060101                                                
6024600013000123046500013288676800000000015                                                                                     
7PESE                                                                                000000000013000                            
50000910201210242012102565000227621564       PES0000013000A043552012102411310087                                                
6024600013000123046500022762156400000000084                                                                                     
7PESE                                                                                000000000013000                            
50001010201210242012102565000314008152       PES0000013000D000792012102412450143                                                
6024600013000123046500031400815200000000090                                                                                     
7PESE                                                                                000000000013000                            
50001110201210242012102565000223510524       PES0000013000A069092012102411500019                                                
6024600013000123056500022351052400000000015                                                                                     
7PESE                                                                                000000000013000                            
50001210201210242012102569012813447100       PES0000015000A088252012102417580085                                                
6024600015000123036901281344710000025000021                                                                                     
7PESE                                                                                000000000015000                            
50001310201210242012102518411625404423       PES0000020000A110092012102410320007                                                
6024600020000123031841162540442300050000063                                                                                     
7PESE                                                                                000000000020000                            
50001410201210242012102500751430742619       PES0000022500A092102012102411540134                                                
6024600022500123030075143074261900020000084                                                                                     
7PESE                                                                                000000000022500                            
50001510201210242012102500751431088892       PES0000022500A092102012102411540135                                                
6024600022500123030075143108889200020000078                                                                                     
7PESE                                                                                000000000022500                            
50001610201210242012102529081320393700       PES0000023000A091652012102411550117                                                
6024600023000123032908132039370000020000042                                                                                     
7PESE                                                                                000000000023000                            
50001710201210242012102518400137247328       PES0000025000A068642012102418530009                                                
6024600025000123001840013724732800000000021                                                                                     
7PESE                                                                                000000000025000                            
50001810201210242012102500711818339702       PES0000032500A064992012102411290002                                                
6024600032500122990071181833970200000000058                                                                                     
7PESE                                                                                000000000032500                            
50001910201210242012102500712428119229       PES0000032500A105982012102412540115                                                
6024600032500122990071242811922900000000000                                                                                     
7PESE                                                                                000000000032500                            
50002010201210242012102500712428494931       PES0000032500A015292012102408440006                                                
6024600032500122990071242849493100000000000                                                                                     
7PESE                                                                                000000000032500                            
50002110201210242012102500712523907908       PES0000032500A082002012102418190058                                                
6024600032500122990071252390790800000000099                                                                                     
7PESE                                                                                000000000032500                            
50002210201210242012102500712623256065       PES0000032500A050712012102409060040                                                
6024600032500122990071262325606500000000015                                                                                     
7PESE                                                                                000000000032500                            
50002310201210242012102500712717747436       PES0000032500A025052012102420070081                                                
6024600032500122990071271774743600000000021                                                                                     
7PESE                                                                                000000000032500                            
50002410201210242012102500712720054275       PES0000032500A085592012102414210265                                                
6024600032500122990071272005427500000000000                                                                                     
7PESE                                                                                000000000032500                            
50002510201210242012102500713233209216       PES0000032500A113662012102414130228                                                
6024600032500122990071323320921600000000084                                                                                     
7PESE                                                                                000000000032500                            
50002610201210242012102500713636592736       PES0000032500A064992012102416240111                                                
6024600032500122990071363659273600000000090                                                                                     
7PESE                                                                                000000000032500                            
50002710201210242012102500713825846361       PES0000032500A099222012102416020034                                                
6024600032500122990071382584636100000000063                                                                                     
7PESE                                                                                000000000032500                            
50002810201210242012102500714041740263       PES0000032500A090432012102411300059                                                
6024600032500122990071404174026300000000057                                                                                     
7PESE                                                                                000000000032500                            
50002910201210242012102500714235793885       PES0000032500A077352012102417410190                                                
6024600032500122990071423579388500000000021                                                                                     
7PESE                                                                                000000000032500                            
50003010201210242012102500714327818166       PES0000032500A099222012102416010033                                                
6024600032500122990071432781816600000000079                                                                                     
7PESE                                                                                000000000032500                            
50003110201210242012102500714329594935       PES0000032500A092272012102416530002                                                
6024600032500122990071432959493500000000078                                                                                     
7PESE                                                                                000000000032500                            
50003210201210242012102500714330358004       PES0000032500A114732012102417430061                                                
6024600032500122990071433035800400000000037                                                                                     
7PESE                                                                                000000000032500                            
50003310201210242012102500714332724496       PES0000032500A025052012102419540079                                                
6024600032500122990071433272449600000000037                                                                                     
7PESE                                                                                000000000032500                            
50003410201210242012102500714516054490       PES0000032500A077352012102417250172                                                
6024600032500122990071451605449000000000016                                                                                     
7PESE                                                                                000000000032500                            
50003510201210242012102500714611877168       PES0000032500A010292012102411060101                                                
6024600032500122990071461187716800000000015                                                                                     
7PESE                                                                                000000000032500                            
50003610201210242012102500714612924598       PES0000032500A064992012102411290001                                                
6024600032500122990071461292459800000000063                                                                                     
7PESE                                                                                000000000032500                            
50003710201210242012102500722528387300       PES0000037500A100652012102417530044                                                
6024600037500122990072252838730000000000021                                                                                     
7PESE                                                                                000000000037500                            
50003810201210242012102500723731045592       PES0000037500A601492012102416250168                                                
6024600037500122990072373104559200000000078                                                                                     
7PESE                                                                                000000000037500                            
50003910201210242012102500723820736543       PES0000037500A043472012102418510112                                                
6024600037500122990072382073654300000000084                                                                                     
7PESE                                                                                000000000037500                            
50004010201210242012102500724014329730       PES0000037500D001312012102414390057                                                
6024600037500122990072401432973000000000063                                                                                     
7PESE                                                                                000000000037500                            
50004110201210242012102500724031342267       PES0000037500D001312012102414390058                                                
6024600037500122990072403134226700000000090                                                                                     
7PESE                                                                                000000000037500                            
50004210201210242012102500720135266242       PES0000047500A042812012102409320026                                                
6024600047500122990072013526624200000000090                                                                                     
7PESE                                                                                000000000047500                            
50004310201210242012102500720232686210       PES0000047500A109842012102413240110                                                
6024600047500122990072023268621000000000000                                                                                     
7PESE                                                                                000000000047500                            
50004410201210242012102500720326587278       PES0000047500D001652012102416250130                                                
6024600047500122990072032658727800000000084                                                                                     
7PESE                                                                                000000000047500                            
50004510201210242012102500720328807743       PES0000047500A047992012102416540201                                                
6024600047500122990072032880774300000000078                                                                                     
7PESE                                                                                000000000047500                            
50004610201210242012102500720328984483       PES0000047500A082642012102412030077                                                
6024600047500122990072032898448300000000000                                                                                     
7PESE                                                                                000000000047500                            
50004710201210242012102500720521983276       PES0000047500A091652012102415540295                                                
6024600047500122990072052198327600000000079                                                                                     
7PESE                                                                                000000000047500                            
50004810201210242012102500720522656537       PES0000047500A047802012102411180048                                                
6024600047500122990072052265653700000000000                                                                                     
7PESE                                                                                000000000047500                            
50004910201210242012102500720616768842       PES0000047500A109842012102413240111                                                
6024600047500122990072061676884200000000015                                                                                     
7PESE                                                                                000000000047500                            
50005010201210242012102500720618363681       PES0000047500A058722012102419270107                                                
6024600047500122990072061836368100000000015                                                                                     
7PESE                                                                                000000000047500                            
50005110201210242012102500720714769614       PES0000047500A089882012102409520042                                                
6024600047500122990072071476961400000000090                                                                                     
7PESE                                                                                000000000047500                            
50005210201210242012102500720811631535       PES0000047500D001312012102414390056                                                
6024600047500122990072081163153500000000021                                                                                     
7PESE                                                                                000000000047500                            
50005310201210242012102500720908625351       PES0000047500A070632012102413410212                                                
6024600047500122990072090862535100000000084                                                                                     
7PESE                                                                                000000000047500                            
50005410201210242012102500721424167224       PES0000047500A058722012102419300108                                                
6024600047500122990072142416722400000000042                                                                                     
7PESE                                                                                000000000047500                            
50005510201210242012102501331521480355       PES0000052000D000552012102414590257                                                
6024600052000122990133152148035500080000063                                                                                     
7PESE                                                                                000000000052000                            
50005610201210242012102501331617673761       PES0000052000A060582012102419070128                                                
6024600052000122990133161767376100080000036                                                                                     
7PESE                                                                                000000000052000                            
50005710201210242012102501331328079567       PES0000052000A089882012102409520041                                                
6024600052000123000133132807956700080000021                                                                                     
7PESE                                                                                000000000052000                            
50005810201210242012102501331231601334       PES0000052000A011012012102414140107                                                
6024600052000123010133123160133400080000084                                                                                     
7PESE                                                                                000000000052000                            
50005910201210242012102501331327779086       PES0000052000A028672012102409240030                                                
6024600052000123040133132777908600080000042                                                                                     
7PESE                                                                                000000000052000                            
50006010201210242012102501331328933333       PES0000052000A092162012102410590091                                                
6024600052000123040133132893333300080000099                                                                                     
7PESE                                                                                000000000052000                            
50006110201210242012102501331692421709       PES0000052000A091492012102411170068                                                
6024600052000123040133169242170900080000058                                                                                     
7PESE                                                                                000000000052000                            
50006210201210242012102501331714769614       PES0000052000A089882012102409520040                                                
6024600052000123040133171476961400080000063                                                                                     
7PESE                                                                                000000000052000                            
50006310201210242012102501331616475803       PES0000052000A076552012102412090077                                                
6024600052000123050133161647580300080000063                                                                                     
7PESE                                                                                000000000052000                            
50006410201210242012102501331812253118       PES0000052000A100692012102413230026                                                
6024600052000123050133181225311800080000000                                                                                     
7PESE                                                                                000000000052000                            
50006510201210242012102560000836327816       PES0000085000A078992012102415350059                                                
6024600085000122986000083632781600000000079                                                                                     
7PESE                                                                                000000000085000                            
50006610201210242012102560000930351831       PES0000085000A078992012102411080048                                                
6024600085000122986000093035183100000000000                                                                                     
7PESE                                                                                000000000085000                            
82012102500000100000660000023670000000000000000000000000000000000000000000066                                                   
9201210250000010000066000002367000000000000000000000000000000000000000000000066                                                 
