120120725PAGO FACIL               090060246FABIAN NORBERTO D´ERAMO                                                              
320120725000001FABIAN NORBERTO D´ERAMO                                                                                          
50000110201207242012072500711238252097       PES0000018500M601462012072414170135                                                
6024600018500122090071123825209700090000021                                                                                     
7PESE                                                                                000000000018500                            
50000210201207242012072500712427556040       PES0000018500A087922012072416180075                                                
6024600018500122090071242755604000090000042                                                                                     
7PESE                                                                                000000000018500                            
50000310201207242012072500712525433673       PES0000018500A095212012072414170018                                                
6024600018500122090071252543367300090000090                                                                                     
7PESE                                                                                000000000018500                            
50000410201207242012072500712620630417       PES0000018500M660142012072409385612                                                
6024600018500122090071262063041700090000042                                                                                     
7PESE                                                                                000000000018500                            
50000510201207242012072500713726718719       PES0000018500A014502012072417520114                                                
6024600018500122090071372671871900090000084                                                                                     
7PESE                                                                                000000000018500                            
50000610201207242012072500711529393268       PES0000018500D000102012072411170050                                                
6024600018500122120071152939326800105000015                                                                                     
7PESE                                                                                000000000018500                            
50000710201207242012072500712428421518       PES0000018500D000102012072411170049                                                
6024600018500122120071242842151800105000084                                                                                     
7PESE                                                                                000000000018500                            
50000810201207242012072502383436724164       PES0000020000A089982012072411280047                                                
6024600020000122120238343672416400050000057                                                                                     
7PESE                                                                                000000000020000                            
50000910201207242012072517030721041020       PES0000025000M640392012072413130019                                                
6024600025000122071703072104102000050000084                                                                                     
7PESE                                                                                000000000025000                            
50001010201207242012072500540129064453       PES0000076000A044592012072411160107                                                
6024600076000122020054012906445300000000799                                                                                     
7PESE                                                                                000000000076000                            
82012072500000100000100000002505000000000000000000000000000000000000000000010                                                   
9201207250000010000010000000250500000000000000000000000000000000000000000000010                                                 
