120111025PAGO FACIL               090060246FABIAN NORBERTO D´ERAMO                                                              
320111025000001FABIAN NORBERTO D´ERAMO                                                                                          
50000110201110242011102500530422808796       PES0000039500A059442011102111380043                                                
6024600039500112990053042280879600000000021                                                                                     
7PESE                                                                                000000000039500                            
50000210201110242011102520040214877297       PES0000006000A091652011102415080316                                                
6024600006000112972004021487729700000000063                                                                                     
7PESE                                                                                000000000006000                            
50000310201110242011102520040129280809       PES0000006000A082642011102411030062                                                
6024600006000113002004012928080900000000078                                                                                     
7PESE                                                                                000000000006000                            
50000410201110242011102520040216822884       PES0000006000A033772011102417050051                                                
6024600006000113002004021682288400000000036                                                                                     
7PESE                                                                                000000000006000                            
50000510201110242011102500574741707696       PES0000007000A108872011102411200015                                                
6024600007000113030057474170769600015000179                                                                                     
7PESE                                                                                000000000007000                            
50000610201110242011102529060410144657       PES0000010000A091542011102414520168                                                
6024600010000112982906041014465700030000078                                                                                     
7PESE                                                                                000000000010000                            
50000710201110242011102529060322000527       PES0000010000A046332011102415370264                                                
6024600010000113042906032200052700030000058                                                                                     
7PESE                                                                                000000000010000                            
50000810201110242011102500502140670630       PES0000013750M620882011102410040014                                                
6024600013750113010050214067063000000500090                                                                                     
7PESE                                                                                000000000013750                            
50000910201110242011102500583820593055       PES0000018500A063662011102416450061                                                
6024600018500112970058382059305500040000000                                                                                     
7PESE                                                                                000000000018500                            
50001010201110242011102500583912841071       PES0000018500A110382011102412390105                                                
6024600018500113000058391284107100040000063                                                                                     
7PESE                                                                                000000000018500                            
50001110201110242011102500574425248843       PES0000020000A106052011102416140098                                                
6024600020000113030057442524884300020000116                                                                                     
7PESE                                                                                000000000020000                            
50001210201110242011102500575616737411       PES0000020000A057002011102411330084                                                
6024600020000113030057561673741100020000090                                                                                     
7PESE                                                                                000000000020000                            
50001310201110242011102500502793947548       PES0000027500A091672011102413410081                                                
6024600027500113010050279394754800000000079                                                                                     
7PESE                                                                                000000000027500                            
50001410201110242011102500504233196281       PES0000027500A108262011102416400148                                                
6024600027500113010050423319628100000000099                                                                                     
7PESE                                                                                000000000027500                            
50001510201110242011102500504233672784       PES0000027500M601162011102410210011                                                
6024600027500113010050423367278400000000079                                                                                     
7PESE                                                                                000000000027500                            
50001610201110242011102500504424068783       PES0000027500A086602011102414470022                                                
6024600027500113010050442406878300000000000                                                                                     
7PESE                                                                                000000000027500                            
50001710201110242011102500532620988552       PES0000031000A049022011102415470012                                                
6024600031000112970053262098855200000000058                                                                                     
7PESE                                                                                000000000031000                            
50001810201110242011102500532811786531       PES0000031000A049022011102415470013                                                
6024600031000112970053281178653100000000063                                                                                     
7PESE                                                                                000000000031000                            
50001910201110242011102500533731164215       PES0000031000A063622011102413030041                                                
6024600031000112980053373116421500000000099                                                                                     
7PESE                                                                                000000000031000                            
50002010201110242011102500533730136765       PES0000031000A056382011102416140058                                                
6024600031000112990053373013676500000000084                                                                                     
7PESE                                                                                000000000031000                            
50002110201110242011102500534028037626       PES0000031000A074672011102415400033                                                
6024600031000113010053402803762600000000042                                                                                     
7PESE                                                                                000000000031000                            
50002210201110242011102501290717123456       PES0000037000A093312011102417590023                                                
6024600037000112980129071712345600000000042                                                                                     
7PESE                                                                                000000000037000                            
50002310201110242011102501290718225923       PES0000037000A086812011102416340047                                                
6024600037000112980129071822592300000000084                                                                                     
7PESE                                                                                000000000037000                            
50002410201110242011102501290817901826       PES0000037000A062492011102416170016                                                
6024600037000113040129081790182600000000037                                                                                     
7PESE                                                                                000000000037000                            
50002510201110242011102500530231779010       PES0000039500A045532011102411390105                                                
6024600039500112980053023177901000000000036                                                                                     
7PESE                                                                                000000000039500                            
50002610201110242011102500530229647297       PES0000039500A106722011102412120057                                                
6024600039500113010053022964729700000000079                                                                                     
7PESE                                                                                000000000039500                            
50002710201110242011102500530423570297       PES0000039500A057152011102415260011                                                
6024600039500113010053042357029700000000078                                                                                     
7PESE                                                                                000000000039500                            
82011102500000100000270000006697500000000000000000000000000000000000000000027                                                   
9201110250000010000027000000669750000000000000000000000000000000000000000000027                                                 
