120120626PAGO FACIL               090060246FABIAN NORBERTO D´ERAMO                                                              
320120626000001FABIAN NORBERTO D´ERAMO                                                                                          
50000110201206252012062699080131327078       PES0000008000A028392012062515560266                                                
6024600008000121849908013132707800000000000                                                                                     
7PESE                                                                                000000000008000                            
50000210201206252012062699080231327078       PES0000008000A028392012062515560265                                                
6024600008000121849908023132707800000000021                                                                                     
7PESE                                                                                000000000008000                            
50000310201206252012062659000228193923       PES0000016000B030732012062511518525                                                
6024600016000121805900022819392300000000063                                                                                     
7PESE                                                                                000000000016000                            
50000410201206252012062699030236360655       PES0000036980A043162012062515500152                                                
6024600036980121829903023636065500000800063                                                                                     
7PESE                                                                                000000000036980                            
82012062600000100000040000000689800000000000000000000000000000000000000000004                                                   
9201206260000010000004000000068980000000000000000000000000000000000000000000004                                                 
