120110426PAGO FACIL               090060246FABIAN NORBERTO D´ERAMO                                                              
320110426000001FABIAN NORBERTO D´ERAMO                                                                                          
50000110201104252011042602283626313000       PES0000016000M600822011042511020068                                                
6024600016000111190228362631300000000000063                                                                                     
7PESE                                                                                000000000016000                            
50000210201104252011042602283816656857       PES0000016000A016362011042518140165                                                
6024600016000111190228381665685700000000037                                                                                     
7PESE                                                                                000000000016000                            
50000310201104252011042601270420442818       PES0000018000A101712011042510580169                                                
6024600018000111150127042044281800020000016                                                                                     
7PESE                                                                                000000000018000                            
50000410201104252011042601271323805701       PES0000018000A101712011042510580170                                                
6024600018000111150127132380570100020000078                                                                                     
7PESE                                                                                000000000018000                            
50000510201104252011042648011217942911       PES0000020000A053242011042509500010                                                
6024600020000111164801121794291100000000078                                                                                     
7PESE                                                                                000000000020000                            
50000610201104252011042602281723277447       PES0000030000A090052011042514460297                                                
6024600027500111090228172327744700025000700                                                                                     
7PESE                                                                                000000000030000                            
50000710201104252011042602280522053963       PES0000030000A092162011042511010127                                                
6024600030000111170228052205396300000000042                                                                                     
7PESE                                                                                000000000030000                            
50000810201104252011042602280235540213       PES0000030000A081622011042512510135                                                
6024600030000111190228023554021300000000084                                                                                     
7PESE                                                                                000000000030000                            
82011042600000100000080000001780000000000000000000000000000000000000000000008                                                   
9201104260000010000008000000178000000000000000000000000000000000000000000000008                                                 
