120120726PAGO FACIL               090060246FABIAN NORBERTO D´ERAMO                                                              
320120726000001FABIAN NORBERTO D´ERAMO                                                                                          
50000110201207252012072657002127802515       PES0000011000A103902012072518510156                                                
6024600011000122135700212780251500000000063                                                                                     
7PESE                                                                                000000000011000                            
50000210201207252012072657000414274163       PES0000014000A103902012072518510157                                                
6024600014000122135700041427416300000000078                                                                                     
7PESE                                                                                000000000014000                            
50000310201207252012072600711721617427       PES0000018500A079692012072516240049                                                
6024600018500122090071172161742700090000000                                                                                     
7PESE                                                                                000000000018500                            
50000410201207252012072600711914319177       PES0000018500D001472012072519300150                                                
6024600018500122090071191431917700090000021                                                                                     
7PESE                                                                                000000000018500                            
50000510201207252012072600712428741842       PES0000018500A042592012072512210011                                                
6024600018500122090071242874184200090000021                                                                                     
7PESE                                                                                000000000018500                            
50000610201207252012072600712717100275       PES0000018500A088612012072519520180                                                
6024600018500122090071271710027500090000042                                                                                     
7PESE                                                                                000000000018500                            
50000710201207252012072600712911114868       PES0000018500A034672012072515240075                                                
6024600018500122090071291111486800090000021                                                                                     
7PESE                                                                                000000000018500                            
50000810201207252012072600714514051282       PES0000018500L120102012072514207110                                                
6024600018500122090071451405128200090000079                                                                                     
7PESE                                                                                000000000018500                            
50000910201207252012072617030527748241       PES0000025000A055192012072516420013                                                
6024600025000122131703052774824100050000057                                                                                     
7PESE                                                                                000000000025000                            
50001010201207252012072617030722715670       PES0000025000L071222012072516366290                                                
6024600025000122141703072271567000050000042                                                                                     
7PESE                                                                                000000000025000                            
50001110201207252012072600540232944859       PES0000027000A095132012072513060027                                                
6024600027000122120054023294485900000000015                                                                                     
7PESE                                                                                000000000027000                            
50001210201207252012072602380620066830       PES0000028000A094562012072516550024                                                
6024600028000122120238062006683000050000184                                                                                     
7PESE                                                                                000000000028000                            
82012072600000100000120000002410000000000000000000000000000000000000000000012                                                   
9201207260000010000012000000241000000000000000000000000000000000000000000000012                                                 
