120121226PAGO FACIL               090060246FABIAN NORBERTO D´ERAMO                                                              
320121226000001FABIAN NORBERTO D´ERAMO                                                                                          
50000110201212212012122602421424922837       PES0000047500A095492012122110590057                                                
6024600040000123550242142492283700075000190                                                                                     
7PESE                                                                                000000000047500                            
50000210201212212012122629080228383846       PES0000018000A004102012122108580033                                                
6024600018000123622908022838384600000000000                                                                                     
7PESE                                                                                000000000018000                            
50000310201212212012122673000221585613       PES0000015000A037142012122111280160                                                
6024600015000123617300022158561300040000236                                                                                     
7PESE                                                                                000000000015000                            
50000410201212212012122673000139971437       PES0000015000A037142012122111280161                                                
6024600015000123617300013997143700040000237                                                                                     
7PESE                                                                                000000000015000                            
50000510201212212012122673000120874891       PES0000015000A083412012122111210053                                                
6024600015000123577300012087489100040000078                                                                                     
7PESE                                                                                000000000015000                            
50000610201212212012122672010301002193       PES0000015800A092112012122110430087                                                
6024600015800123617201030100219300000000078                                                                                     
7PESE                                                                                000000000015800                            
50000710201212212012122699030132769266       PES0000049000A009562012122114090052                                                
6024600049000123639903013276926600000000090                                                                                     
7PESE                                                                                000000000049000                            
50000810201212212012122602420423463409       PES0000047500A097712012122114040340                                                
6024600040000123550242042346340900075000690                                                                                     
7PESE                                                                                000000000047500                            
50000910201212212012122699030136806018       PES0000049000A091172012122110130056                                                
6024600049000123619903013680601800000000036                                                                                     
7PESE                                                                                000000000049000                            
50001010201212212012122672010226800760       PES0000013700A071202012122110290065                                                
6024600013700123617201022680076000000000037                                                                                     
7PESE                                                                                000000000013700                            
50001110201212212012122672010593601236       PES0000017800A092012012122113020062                                                
6024600017800123617201059360123600000000000                                                                                     
7PESE                                                                                000000000017800                            
50001210201212212012122672010426377494       PES0000015700A092012012122113020063                                                
6024600015700123617201042637749400000000036                                                                                     
7PESE                                                                                000000000015700                            
50001310201212212012122699030135804671       PES0000049000A089892012122109430043                                                
6024600049000123619903013580467100000000000                                                                                     
7PESE                                                                                000000000049000                            
50001410201212212012122602421231252420       PES0000047500A056252012122119110127                                                
6024600040000123550242123125242000075000758                                                                                     
7PESE                                                                                000000000047500                            
50001510201212212012122699030136991781       PES0000041650A016702012122117530193                                                
6024600041650123599903013699178100000500042                                                                                     
7PESE                                                                                000000000041650                            
50001610201212212012122669021326863081       PES0000010000A051772012122108490005                                                
6024600010000123626902132686308100000000084                                                                                     
7PESE                                                                                000000000010000                            
50001710201212212012122673000123334708       PES0000015000A052412012122117540045                                                
6024600015000123587300012333470800040000078                                                                                     
7PESE                                                                                000000000015000                            
50001810201212212012122602420617684750       PES0000047500A110612012122112150019                                                
6024600040000123550242061768475000075000558                                                                                     
7PESE                                                                                000000000047500                            
50001910201212212012122672010323904531       PES0000015800A088612012122117070089                                                
6024600015800123617201032390453100000000079                                                                                     
7PESE                                                                                000000000015800                            
50002010201212212012122698010232843537       PES0000029500M601892012122110150022                                                
6024600029500123629801023284353700000000037                                                                                     
7PESE                                                                                000000000029500                            
50002110201212212012122602420910314783       PES0000047500M600032012122113270052                                                
6024600040000123550242091031478300075000215                                                                                     
7PESE                                                                                000000000047500                            
50002210201212222012122673000121375171       PES0000015000A060492012122208210019                                                
6024600015000123597300012137517100040000021                                                                                     
7PESE                                                                                000000000015000                            
50002310201212222012122602420522887253       PES0000047500A047422012122211590062                                                
6024600040000123550242052288725300075000521                                                                                     
7PESE                                                                                000000000047500                            
50002410201212222012122629081413862378       PES0000025000A051082012122213260132                                                
6024600025000123632908141386237800000000015                                                                                     
7PESE                                                                                000000000025000                            
50002510201212222012122602423817538269       PES0000047500A091192012122212110274                                                
6024600040000123550242381753826900075000600                                                                                     
7PESE                                                                                000000000047500                            
50002610201212222012122629081414188629       PES0000025000A070822012122213230065                                                
6024600025000123582908141418862900000000084                                                                                     
7PESE                                                                                000000000025000                            
50002710201212222012122629081817666450       PES0000025000A076112012122219410039                                                
6024600025000123602908181766645000000000084                                                                                     
7PESE                                                                                000000000025000                            
50002810201212242012122629081223908235       PES0000025000A078852012122210190018                                                
6024600025000123612908122390823500000000000                                                                                     
7PESE                                                                                000000000025000                            
50002910201212232012122629081223788212       PES0000025000A037752012122310380212                                                
6024600025000123622908122378821200000000015                                                                                     
7PESE                                                                                000000000025000                            
50003010201212232012122629080317514322       PES0000018000A073892012122320430157                                                
6024600018000123602908031751432200000000099                                                                                     
7PESE                                                                                000000000018000                            
50003110201212242012122673000223458854       PES0000015000A104362012122413360023                                                
6024600015000123617300022345885400040000179                                                                                     
7PESE                                                                                000000000015000                            
50003210201212242012122673000142304166       PES0000015000A104362012122413370024                                                
6024600015000123617300014230416600040000142                                                                                     
7PESE                                                                                000000000015000                            
50003310201212242012122673000343927770       PES0000009500A104362012122413370025                                                
6024600009500123627300034392777000000000057                                                                                     
7PESE                                                                                000000000009500                            
50003410201212242012122673000118016370       PES0000015000A104362012122413370026                                                
6024600015000123617300011801637000040000116                                                                                     
7PESE                                                                                000000000015000                            
50003510201212242012122629080132957765       PES0000018000A118432012122410370008                                                
6024600018000123602908013295776500000000063                                                                                     
7PESE                                                                                000000000018000                            
82012122600000100000350000009479500000000000000000000000000000000000000000035                                                   
9201212260000010000035000000947950000000000000000000000000000000000000000000035                                                 
