120120326PAGO FACIL               090060246FABIAN NORBERTO D´ERAMO                                                              
320120326000001FABIAN NORBERTO D´ERAMO                                                                                          
50000110201203232012032699050125096162       PES0000008000A102852012032312290060                                                
6024600008000120869905012509616200000000057                                                                                     
7PESE                                                                                000000000008000                            
50000210201203232012032699050123101743       PES0000008000A086482012032315460087                                                
6024600008000120869905012310174300000000042                                                                                     
7PESE                                                                                000000000008000                            
50000310201203252012032699050127203329       PES0000008000A110992012032512420002                                                
6024600008000120869905012720332900000000042                                                                                     
7PESE                                                                                000000000008000                            
82012032600000100000030000000240000000000000000000000000000000000000000000003                                                   
9201203260000010000003000000024000000000000000000000000000000000000000000000003                                                 
