120121227PAGO FACIL               090060246FABIAN NORBERTO D´ERAMO                                                              
320121227000001FABIAN NORBERTO D´ERAMO                                                                                          
50000110201212262012122773000449863612       PES0000009500A100532012122619260024                                                
6024600009500130037300044986361200000000084                                                                                     
7PESE                                                                                000000000009500                            
50000210201212262012122773000120073700       PES0000015000A083592012122612500261                                                
6024600015000123617300012007370000040008858                                                                                     
7PESE                                                                                000000000015000                            
50000310201212262012122773000120074625       PES0000015000A083592012122612500262                                                
6024600015000123617300012007462500040008800                                                                                     
7PESE                                                                                000000000015000                            
50000410201212262012122773000127334654       PES0000015000A060922012122610550237                                                
6024600015000123617300012733465400040008884                                                                                     
7PESE                                                                                000000000015000                            
50000510201212262012122773000128583873       PES0000015000A119552012122617170061                                                
6024600015000123617300012858387300040000363                                                                                     
7PESE                                                                                000000000015000                            
50000610201212262012122773000128655729       PES0000015000A114992012122613530104                                                
6024600015000123617300012865572900040008884                                                                                     
7PESE                                                                                000000000015000                            
50000710201212262012122773000129182808       PES0000015000A119552012122617170060                                                
6024600015000123617300012918280800040000337                                                                                     
7PESE                                                                                000000000015000                            
50000810201212262012122773000129484981       PES0000015000A121282012122618420013                                                
6024600015000123617300012948498100040008816                                                                                     
7PESE                                                                                000000000015000                            
50000910201212262012122773000129613792       PES0000015000A119552012122617170059                                                
6024600015000123617300012961379200040000315                                                                                     
7PESE                                                                                000000000015000                            
50001010201212262012122773000131221680       PES0000015000A115912012122619390068                                                
6024600015000123617300013122168000040008842                                                                                     
7PESE                                                                                000000000015000                            
50001110201212262012122773000131997427       PES0000015000A100532012122617530049                                                
6024600015000123617300013199742700040008836                                                                                     
7PESE                                                                                000000000015000                            
50001210201212262012122773000133029302       PES0000015000D001362012122620490200                                                
6024600015000123617300013302930200040008884                                                                                     
7PESE                                                                                000000000015000                            
50001310201212262012122773000222599454       PES0000015000A072492012122619080085                                                
6024600015000123617300022259945400040008842                                                                                     
7PESE                                                                                000000000015000                            
50001410201212262012122773000230968807       PES0000015000A056942012122610570032                                                
6024600015000123617300023096880700040008821                                                                                     
7PESE                                                                                000000000015000                            
50001510201212262012122773000233154339       PES0000015000A100532012122619260023                                                
6024600015000123617300023315433900040008842                                                                                     
7PESE                                                                                000000000015000                            
50001610201212262012122773000233414787       PES0000015000D001362012122620490201                                                
6024600015000123617300023341478700040008899                                                                                     
7PESE                                                                                000000000015000                            
50001710201212262012122773000512334153       PES0000015000A096832012122615030047                                                
6024600015000123617300051233415300040008878                                                                                     
7PESE                                                                                000000000015000                            
50001810201212262012122773000518018721       PES0000015000A072492012122619080084                                                
6024600015000123617300051801872100040008863                                                                                     
7PESE                                                                                000000000015000                            
50001910201212262012122772010423095660       PES0000015700M613512012122609290020                                                
6024600015700123617201042309566000000000079                                                                                     
7PESE                                                                                000000000015700                            
50002010201212262012122772010416241042       PES0000015700M600022012122613210099                                                
6024600015700123627201041624104200000000037                                                                                     
7PESE                                                                                000000000015700                            
50002110201212262012122772010416775208       PES0000015700M600022012122613210100                                                
6024600015700123627201041677520800000000000                                                                                     
7PESE                                                                                000000000015700                            
50002210201212262012122772010325292348       PES0000015800D001152012122611460183                                                
6024600015800123617201032529234800000000016                                                                                     
7PESE                                                                                000000000015800                            
50002310201212262012122729080229112324       PES0000018000A040232012122611520103                                                
6024600018000123612908022911232400000000058                                                                                     
7PESE                                                                                000000000018000                            
50002410201212262012122729080317673313       PES0000018000A038202012122617580107                                                
6024600018000123612908031767331300000000079                                                                                     
7PESE                                                                                000000000018000                            
50002510201212262012122729080631234458       PES0000018000A620812012122614000299                                                
6024600018000123612908063123445800000000058                                                                                     
7PESE                                                                                000000000018000                            
50002610201212262012122729080412238196       PES0000018000A109842012122615200271                                                
6024600018000123622908041223819600000000042                                                                                     
7PESE                                                                                000000000018000                            
50002710201212262012122729080630984422       PES0000018000A620812012122614000298                                                
6024600018000123622908063098442200000000099                                                                                     
7PESE                                                                                000000000018000                            
50002810201212262012122729080633268552       PES0000018000A620812012122614000300                                                
6024600018000123632908063326855200000000042                                                                                     
7PESE                                                                                000000000018000                            
50002910201212262012122729080131191358       PES0000018000A091652012122616180409                                                
6024600018000130032908013119135800000000037                                                                                     
7PESE                                                                                000000000018000                            
50003010201212262012122729080134906170       PES0000018000A091652012122616180410                                                
6024600018000130032908013490617000000000084                                                                                     
7PESE                                                                                000000000018000                            
50003110201212262012122729080228380389       PES0000018000A091652012122616180408                                                
6024600018000130032908022838038900000000084                                                                                     
7PESE                                                                                000000000018000                            
50003210201212262012122729080723737552       PES0000018000A107512012122614110068                                                
6024600018000130032908072373755200000000036                                                                                     
7PESE                                                                                000000000018000                            
50003310201212262012122729081816401719       PES0000025000A037312012122618370142                                                
6024600025000123602908181640171900000000084                                                                                     
7PESE                                                                                000000000025000                            
50003410201212262012122729081224204617       PES0000025000M660012012122611180039                                                
6024600025000123622908122420461700000000042                                                                                     
7PESE                                                                                000000000025000                            
50003510201212262012122729081223272816       PES0000025000A107842012122617380057                                                
6024600025000123642908122327281600000000063                                                                                     
7PESE                                                                                000000000025000                            
50003610201212262012122702422621073091       PES0000035000A075692012122616230214                                                
6024600035000130030242262107309100000000015                                                                                     
7PESE                                                                                000000000035000                            
50003710201212262012122702423518270451       PES0000035000A107512012122611370213                                                
6024600035000130030242351827045100000000021                                                                                     
7PESE                                                                                000000000035000                            
50003810201212262012122702420326588755       PES0000047500A101132012122620170171                                                
6024600040000123550242032658875500075000658                                                                                     
7PESE                                                                                000000000047500                            
50003910201212262012122702420327131105       PES0000047500A099432012122617100149                                                
6024600040000123550242032713110500075000621                                                                                     
7PESE                                                                                000000000047500                            
50004010201212262012122702420425731586       PES0000047500A048992012122616570068                                                
6024600040000123550242042573158600075000679                                                                                     
7PESE                                                                                000000000047500                            
50004110201212262012122702420521000001       PES0000047500A064992012122612100152                                                
6024600040000123550242052100000100075000637                                                                                     
7PESE                                                                                000000000047500                            
50004210201212262012122702420616960713       PES0000047500A107512012122611390214                                                
6024600040000123550242061696071300075000616                                                                                     
7PESE                                                                                000000000047500                            
50004310201212262012122702420134583532       PES0000047500A059442012122609540009                                                
6024600047500130030242013458353200000000084                                                                                     
7PESE                                                                                000000000047500                            
50004410201212262012122702420618225923       PES0000047500A035422012122616010027                                                
6024600047500130030242061822592300000000084                                                                                     
7PESE                                                                                000000000047500                            
82012122700000100000440000009849000000000000000000000000000000000000000000044                                                   
9201212270000010000044000000984900000000000000000000000000000000000000000000044                                                 
