120120627PAGO FACIL               090060246FABIAN NORBERTO D´ERAMO                                                              
320120627000001FABIAN NORBERTO D´ERAMO                                                                                          
50000110201206262012062799030138066579       PES0000043000D000502012062620200407                                                
6024600043000121859903013806657900035000078                                                                                     
7PESE                                                                                000000000043000                            
50000210201206262012062799030138066579       PES0000043000D000502012062620200406                                                
6024600043000121859903013806657900035000078                                                                                     
7PESE                                                                                000000000043000                            
82012062700000100000020000000860000000000000000000000000000000000000000000002                                                   
9201206270000010000002000000086000000000000000000000000000000000000000000000002                                                 
