120120727PAGO FACIL               090060246FABIAN NORBERTO D´ERAMO                                                              
320120727000001FABIAN NORBERTO D´ERAMO                                                                                          
50000110201207262012072757001726086042       PES0000014000A620812012072608310012                                                
6024600014000122125700172608604200000000000                                                                                     
7PESE                                                                                000000000014000                            
50000210201207262012072757000320038066       PES0000014000A097592012072608420002                                                
6024600014000122145700032003806600000000084                                                                                     
7PESE                                                                                000000000014000                            
50000310201207262012072759000613832738       PES0000016000A090422012072610340006                                                
6024600016000122115900061383273800000000090                                                                                     
7PESE                                                                                000000000016000                            
50000410201207262012072759000422599074       PES0000016000A068722012072616310059                                                
6024600016000122125900042259907400000000079                                                                                     
7PESE                                                                                000000000016000                            
50000510201207262012072759001223306114       PES0000016000A620442012072610340006                                                
6024600016000122135900122330611400000000021                                                                                     
7PESE                                                                                000000000016000                            
50000610201207262012072759001320388598       PES0000016000A089202012072616090070                                                
6024600016000122135900132038859800000000084                                                                                     
7PESE                                                                                000000000016000                            
50000710201207262012072759001035187285       PES0000016000A080372012072613140139                                                
6024600016000122145900103518728500000000021                                                                                     
7PESE                                                                                000000000016000                            
50000810201207262012072700710923414061       PES0000018500A025612012072611370072                                                
6024600018500122090071092341406100090000021                                                                                     
7PESE                                                                                000000000018500                            
50000910201207262012072700711528986275       PES0000018500A096062012072610000007                                                
6024600018500122090071152898627500090000099                                                                                     
7PESE                                                                                000000000018500                            
50001010201207262012072700711816450668       PES0000018500B030512012072615032879                                                
6024600018500122090071181645066800090000021                                                                                     
7PESE                                                                                000000000018500                            
50001110201207262012072700711913604405       PES0000018500A109842012072618220013                                                
6024600018500122090071191360440500090000000                                                                                     
7PESE                                                                                000000000018500                            
50001210201207262012072700712620203179       PES0000018500A087062012072613370030                                                
6024600018500122090071262020317900090000016                                                                                     
7PESE                                                                                000000000018500                            
50001310201207262012072700712620226948       PES0000018500A073822012072609310012                                                
6024600018500122090071262022694800090000063                                                                                     
7PESE                                                                                000000000018500                            
50001410201207262012072700712911867462       PES0000018500A601832012072611190028                                                
6024600018500122090071291186746200090000021                                                                                     
7PESE                                                                                000000000018500                            
50001510201207262012072700714234142706       PES0000018500A051152012072616440028                                                
6024600018500122090071423414270600090000000                                                                                     
7PESE                                                                                000000000018500                            
50001610201207262012072700711625060277       PES0000018500A108262012072610010036                                                
6024600018500122140071162506027700105000015                                                                                     
7PESE                                                                                000000000018500                            
50001710201207262012072700711626196120       PES0000018500M600282012072614510152                                                
6024600018500122150071162619612000105000000                                                                                     
7PESE                                                                                000000000018500                            
50001810201207262012072702381930576728       PES0000020000A601492012072611260040                                                
6024600020000122120238193057672800050007163                                                                                     
7PESE                                                                                000000000020000                            
50001910201207262012072717030817695751       PES0000025000A640192012072612050031                                                
6024600025000122141703081769575100050000084                                                                                     
7PESE                                                                                000000000025000                            
50002010201207262012072700540232769266       PES0000027000A113902012072614420041                                                
6024600027000122120054023276926600000000079                                                                                     
7PESE                                                                                000000000027000                            
50002110201207262012072799030128984843       PES0000043000A034312012072620090236                                                
6024600043000122159903012898484300035000078                                                                                     
7PESE                                                                                000000000043000                            
50002210201207262012072700540128984843       PES0000076000A034312012072620090237                                                
6024600076000122130054012898484300000000036                                                                                     
7PESE                                                                                000000000076000                            
82012072700000100000220000004840000000000000000000000000000000000000000000022                                                   
9201207270000010000022000000484000000000000000000000000000000000000000000000022                                                 
