120110727PAGO FACIL               090060246FABIAN NORBERTO D´ERAMO                                                              
320110727000001FABIAN NORBERTO D´ERAMO                                                                                          
50000110201107262011072700540425909375       PES0000017500A084182011072617250025                                                
6024600017500112140054042590937500015000058                                                                                     
7PESE                                                                                000000000017500                            
50000210201107262011072700534022580094       PES0000018000A049072011072613580305                                                
6024600018000112100053402258009400110000063                                                                                     
7PESE                                                                                000000000018000                            
50000310201107262011072700530811632291       PES0000027000A047362011072611560114                                                
6024600027000112100053081163229100115000063                                                                                     
7PESE                                                                                000000000027000                            
50000410201107262011072700540230219518       PES0000027000A076782011072614070121                                                
6024600027000112130054023021951800015000021                                                                                     
7PESE                                                                                000000000027000                            
50000510201107262011072700540235398990       PES0000027000L070142011072617295362                                                
6024600027000112130054023539899000015000036                                                                                     
7PESE                                                                                000000000027000                            
50000610201107262011072700540233897409       PES0000027000A045482011072612010109                                                
6024600027000112140054023389740900015000099                                                                                     
7PESE                                                                                000000000027000                            
82011072700000100000060000001435000000000000000000000000000000000000000000006                                                   
9201107270000010000006000000143500000000000000000000000000000000000000000000006                                                 
