120121228PAGO FACIL               090060246FABIAN NORBERTO D´ERAMO                                                              
320121228000001FABIAN NORBERTO D´ERAMO                                                                                          
50000110201212272012122873000124368872       PES0000015000D001382012122621080116                                                
6024600015000123617300012436887200040008836                                                                                     
7PESE                                                                                000000000015000                            
50000210201212272012122802420426427456       PES0000047500A079712012122621350174                                                
6024600047500123650242042642745600000000037                                                                                     
7PESE                                                                                000000000047500                            
50000310201212272012122873000225765474       PES0000015000A055192012122618450255                                                
6024600015000123617300022576547400040008821                                                                                     
7PESE                                                                                000000000015000                            
50000410201212272012122873000129714126       PES0000015000A098352012122620050233                                                
6024600015000123617300012971412600040008863                                                                                     
7PESE                                                                                000000000015000                            
50000510201212272012122873000231768602       PES0000015000A069192012122619410170                                                
6024600015000123617300023176860200040008821                                                                                     
7PESE                                                                                000000000015000                            
50000610201212272012122873000140521954       PES0000019000A096332012122720580167                                                
6024600015000123617300014052195400040008878                                                                                     
7PESE                                                                                000000000019000                            
50000710201212272012122872010428137442       PES0000015700A083172012122710310152                                                
6024600015700123627201042813744200000000015                                                                                     
7PESE                                                                                000000000015700                            
50000810201212272012122872010511486982       PES0000017800A099032012122712440096                                                
6024600017800123647201051148698200000000000                                                                                     
7PESE                                                                                000000000017800                            
50000910201212272012122829080320783184       PES0000018000A101442012122710210099                                                
6024600018000123622908032078318400000000021                                                                                     
7PESE                                                                                000000000018000                            
50001010201212272012122829080820621406       PES0000018000A101442012122710210100                                                
6024600018000123622908082062140600000000079                                                                                     
7PESE                                                                                000000000018000                            
50001110201212272012122829080134688349       PES0000018000M600822012122710480041                                                
6024600018000123642908013468834900000000099                                                                                     
7PESE                                                                                000000000018000                            
50001210201212272012122829080226621072       PES0000018000D000152012122709430033                                                
6024600018000123652908022662107200000000058                                                                                     
7PESE                                                                                000000000018000                            
50001310201212272012122829080322218160       PES0000018000A001602012122719260204                                                
6024600018000123652908032221816000000000042                                                                                     
7PESE                                                                                000000000018000                            
50001410201212272012122829080728026343       PES0000018000A083982012122718280046                                                
6024600018000130022908072802634300000000063                                                                                     
7PESE                                                                                000000000018000                            
50001510201212272012122829080133150499       PES0000018000A091702012122710570131                                                
6024600018000130032908013315049900000000021                                                                                     
7PESE                                                                                000000000018000                            
50001610201212272012122829080320420568       PES0000018000A091702012122710570132                                                
6024600018000130032908032042056800000000042                                                                                     
7PESE                                                                                000000000018000                            
50001710201212272012122829080223209274       PES0000018000A083982012122718280048                                                
6024600018000130042908022320927400000000016                                                                                     
7PESE                                                                                000000000018000                            
50001810201212272012122829080822904494       PES0000018000A083982012122718280047                                                
6024600018000130042908082290449400000000078                                                                                     
7PESE                                                                                000000000018000                            
50001910201212272012122873000128580785       PES0000019000A036012012122710020030                                                
6024600019000130047300012858078500000000021                                                                                     
7PESE                                                                                000000000019000                            
50002010201212272012122829081411486982       PES0000025000A099032012122712440097                                                
6024600025000123642908141148698200000000036                                                                                     
7PESE                                                                                000000000025000                            
50002110201212272012122829081136401226       PES0000025000A085572012122716280146                                                
6024600025000130042908113640122600000000000                                                                                     
7PESE                                                                                000000000025000                            
50002210201212272012122802422436276937       PES0000035000A090072012122719080333                                                
6024600035000130030242243627693700000000021                                                                                     
7PESE                                                                                000000000035000                            
50002310201212272012122802421327511939       PES0000047500A085662012122714250191                                                
6024600040000123550242132751193900075000799                                                                                     
7PESE                                                                                000000000047500                            
50002410201212272012122802420327228614       PES0000047500A092672012122710040036                                                
6024600047500123630242032722861400000000057                                                                                     
7PESE                                                                                000000000047500                            
50002510201212272012122802420713612745       PES0000047500L071192012122711365028                                                
6024600047500130030242071361274500000000000                                                                                     
7PESE                                                                                000000000047500                            
50002610201212272012122802420426080563       PES0000047500M601622012122717190268                                                
6024600047500130040242042608056300000000057                                                                                     
7PESE                                                                                000000000047500                            
50002710201212272012122802420521832573       PES0000047500D001522012122714010222                                                
6024600047500130040242052183257300000000036                                                                                     
7PESE                                                                                000000000047500                            
50002810201212272012122899030121903716       PES0000049000A046092012122717590098                                                
6024600049000123629903012190371600000000099                                                                                     
7PESE                                                                                000000000049000                            
82012122800000100000280000007305000000000000000000000000000000000000000000028                                                   
9201212280000010000028000000730500000000000000000000000000000000000000000000028                                                 
