120120228PAGO FACIL               090060246FABIAN NORBERTO D´ERAMO                                                              
320120228000001FABIAN NORBERTO D´ERAMO                                                                                          
50000110201202242012022800682138834754       PES0000021000D001442012022410540100                                                
6024600021000120590068213883475400020007358                                                                                     
7PESE                                                                                000000000021000                            
50000210201202242012022800684233563478       PES0000021000D000302012022415070228                                                
6024600021000120590068423356347800020007415                                                                                     
7PESE                                                                                000000000021000                            
50000310201202242012022800691021096216       PES0000020000A106072012022418300117                                                
6024600019000120510069102109621600010000479                                                                                     
7PESE                                                                                000000000020000                            
50000410201202242012022800683535164187       PES0000021000A047512012022418240149                                                
6024600021000120550068353516418700020000090                                                                                     
7PESE                                                                                000000000021000                            
50000510201202242012022800685713974445       PES0000021000M620162012022417490018                                                
6024600021000120590068571397444500020007484                                                                                     
7PESE                                                                                000000000021000                            
50000610201202272012022801311424721880       PES0000097000A081352012022711390034                                                
6024600097000120580131142472188000000000099                                                                                     
7PESE                                                                                000000000097000                            
50000710201202272012022801311425277723       PES0000097000L070322012022711116667                                                
6024600097000120580131142527772300000000037                                                                                     
7PESE                                                                                000000000097000                            
82012022800000100000070000002980000000000000000000000000000000000000000000007                                                   
9201202280000010000007000000298000000000000000000000000000000000000000000000007                                                 
