120120628PAGO FACIL               090060246FABIAN NORBERTO D´ERAMO                                                              
320120628000001FABIAN NORBERTO D´ERAMO                                                                                          
50000110201206272012062859000420522938       PES0000016000A090422012062715140025                                                
6024600016000121835900042052293800000000079                                                                                     
7PESE                                                                                000000000016000                            
82012062800000100000010000000160000000000000000000000000000000000000000000001                                                   
9201206280000010000001000000016000000000000000000000000000000000000000000000001                                                 
