120111028PAGO FACIL               090060246FABIAN NORBERTO D´ERAMO                                                              
320111028000001FABIAN NORBERTO D´ERAMO                                                                                          
50000110201110272011102800530326194526       PES0000039500A079502011102611090062                                                
6024600039500113010053032619452600000000016                                                                                     
7PESE                                                                                000000000039500                            
50000210201110272011102820040128364335       PES0000006000A107952011102714350217                                                
6024600006000113002004012836433500000000057                                                                                     
7PESE                                                                                000000000006000                            
50000310201110272011102820040138369481       PES0000006000A009132011102719590161                                                
6024600006000113002004013836948100000000084                                                                                     
7PESE                                                                                000000000006000                            
50000410201110272011102820040138611343       PES0000006000A009132011102720000162                                                
6024600006000113002004013861134300000000063                                                                                     
7PESE                                                                                000000000006000                            
50000510201110272011102820040220365991       PES0000006000A063642011102717130038                                                
6024600006000113002004022036599100000000015                                                                                     
7PESE                                                                                000000000006000                            
50000610201110272011102820040222277827       PES0000006000M600742011102712070104                                                
6024600006000113002004022227782700000000084                                                                                     
7PESE                                                                                000000000006000                            
50000710201110272011102820040329542811       PES0000006000A079692011102713130005                                                
6024600006000113002004032954281100000000057                                                                                     
7PESE                                                                                000000000006000                            
50000810201110272011102820040329946491       PES0000006000D000402011102711260009                                                
6024600006000113002004032994649100000000099                                                                                     
7PESE                                                                                000000000006000                            
50000910201110272011102820040336605276       PES0000006000A110092011102717110186                                                
6024600006000113002004033660527600000000016                                                                                     
7PESE                                                                                000000000006000                            
50001010201110272011102820040418050663       PES0000006000A110092011102717110187                                                
6024600006000113002004041805066300000000015                                                                                     
7PESE                                                                                000000000006000                            
50001110201110272011102820040423136938       PES0000006000A068892011102712460045                                                
6024600006000113002004042313693800000000015                                                                                     
7PESE                                                                                000000000006000                            
50001210201110272011102820040529231902       PES0000006000A096182011102716580353                                                
6024600006000113002004052923190200000000057                                                                                     
7PESE                                                                                000000000006000                            
50001310201110272011102820040622717629       PES0000006000A095352011102719170041                                                
6024600006000113002004062271762900000000063                                                                                     
7PESE                                                                                000000000006000                            
50001410201110272011102820040624909673       PES0000006000A091652011102715060327                                                
6024600006000113002004062490967300000000058                                                                                     
7PESE                                                                                000000000006000                            
50001510201110272011102852000234672892       PES0000008000A080682011102711490091                                                
6024600008000113045200023467289200010007058                                                                                     
7PESE                                                                                000000000008000                            
50001610201110272011102852001104921121       PES0000008000A080682011102711480090                                                
6024600008000113045200110492112100010007084                                                                                     
7PESE                                                                                000000000008000                            
50001710201110272011102800504742929835       PES0000010000A033862011102718120072                                                
6024600010000113010050474292983500000000021                                                                                     
7PESE                                                                                000000000010000                            
50001810201110272011102800502621601999       PES0000010175A600182011102715550034                                                
6024600010175113000050262160199900000750021                                                                                     
7PESE                                                                                000000000010175                            
50001910201110272011102800584514051282       PES0000018500A104232011102713020071                                                
6024600018500113030058451405128200040007142                                                                                     
7PESE                                                                                000000000018500                            
50002010201110272011102800574331492427       PES0000020000A028662011102716280136                                                
6024600020000113000057433149242700020000015                                                                                     
7PESE                                                                                000000000020000                            
50002110201110272011102818340428532819       PES0000020000M620412011102711490006                                                
6024600020000113011834042853281900000000042                                                                                     
7PESE                                                                                000000000020000                            
50002210201110272011102818340429040609       PES0000020000A110092011102713490098                                                
6024600020000113011834042904060900000000063                                                                                     
7PESE                                                                                000000000020000                            
50002310201110272011102818340814555121       PES0000020000A091652011102712110194                                                
6024600020000113011834081455512100000000084                                                                                     
7PESE                                                                                000000000020000                            
50002410201110272011102818341625404423       PES0000020000A110092011102713490099                                                
6024600020000113011834162540442300000000037                                                                                     
7PESE                                                                                000000000020000                            
50002510201110272011102818342336905352       PES0000020000D000792011102711410068                                                
6024600020000113011834233690535200000000042                                                                                     
7PESE                                                                                000000000020000                            
50002610201110272011102800572813527653       PES0000020000A108982011102712390044                                                
6024600020000113030057281352765300020000142                                                                                     
7PESE                                                                                000000000020000                            
50002710201110272011102800574328434877       PES0000020000A028662011102716280137                                                
6024600020000113030057432843487700020007115                                                                                     
7PESE                                                                                000000000020000                            
50002810201110272011102800500213792741       PES0000027500A620992011102709430012                                                
6024600027500113010050021379274100000000079                                                                                     
7PESE                                                                                000000000027500                            
50002910201110272011102800500214026825       PES0000027500A092162011102716350315                                                
6024600027500113010050021402682500000000090                                                                                     
7PESE                                                                                000000000027500                            
50003010201110272011102800500228972356       PES0000027500A006712011102715340041                                                
6024600027500113010050022897235600000000079                                                                                     
7PESE                                                                                000000000027500                            
50003110201110272011102800502617851580       PES0000027500A059362011102717300060                                                
6024600027500113010050261785158000000000015                                                                                     
7PESE                                                                                000000000027500                            
50003210201110272011102800502814619549       PES0000027500A091812011102715190206                                                
6024600027500113010050281461954900000000042                                                                                     
7PESE                                                                                000000000027500                            
50003310201110272011102800503235919216       PES0000027500A620992011102709420011                                                
6024600027500113010050323591921600000000015                                                                                     
7PESE                                                                                000000000027500                            
50003410201110272011102800503726865232       PES0000027500A093952011102715310060                                                
6024600027500113010050372686523200000000042                                                                                     
7PESE                                                                                000000000027500                            
50003510201110272011102800503822147721       PES0000027500A007972011102714030039                                                
6024600027500113010050382214772100000000099                                                                                     
7PESE                                                                                000000000027500                            
50003610201110272011102800503823120174       PES0000027500M600222011102715450020                                                
6024600027500113010050382312017400000000021                                                                                     
7PESE                                                                                000000000027500                            
50003710201110272011102800504233934902       PES0000027500A035742011102720170300                                                
6024600027500113010050423393490200000000015                                                                                     
7PESE                                                                                000000000027500                            
50003810201110272011102800504424334380       PES0000027500A600372011102716510079                                                
6024600027500113010050442433438000000000084                                                                                     
7PESE                                                                                000000000027500                            
50003910201110272011102800504516193767       PES0000027500A034222011102718000071                                                
6024600027500113010050451619376700000000078                                                                                     
7PESE                                                                                000000000027500                            
50004010201110272011102800533823573512       PES0000031000A058512011102719590274                                                
6024600031000113010053382357351200000000079                                                                                     
7PESE                                                                                000000000031000                            
50004110201110272011102801290425578594       PES0000037000L070092011102712471191                                                
6024600037000113000129042557859400000000084                                                                                     
7PESE                                                                                000000000037000                            
50004210201110272011102801290523217176       PES0000037000A098552011102709470030                                                
6024600037000113040129052321717600000000000                                                                                     
7PESE                                                                                000000000037000                            
50004310201110272011102801290426122260       PES0000037000A094372011102717080310                                                
6024600037000113070129042612226000000000063                                                                                     
7PESE                                                                                000000000037000                            
50004410201110272011102801290429040609       PES0000037000A110092011102713490097                                                
6024600037000113070129042904060900000000084                                                                                     
7PESE                                                                                000000000037000                            
50004510201110272011102800530327659567       PES0000039500A034312011102711180070                                                
6024600039500113000053032765956700000000057                                                                                     
7PESE                                                                                000000000039500                            
50004610201110272011102800530518131371       PES0000039500D000012011102709130003                                                
6024600039500113000053051813137100000000084                                                                                     
7PESE                                                                                000000000039500                            
50004710201110272011102800530617009913       PES0000039500A058512011102719590275                                                
6024600039500113000053061700991300000000084                                                                                     
7PESE                                                                                000000000039500                            
50004810201110272011102800530132537882       PES0000039500A068912011102712070086                                                
6024600039500113010053013253788200000000063                                                                                     
7PESE                                                                                000000000039500                            
50004910201110272011102800530230346978       PES0000039500D000102011102712260077                                                
6024600039500113010053023034697800000000037                                                                                     
7PESE                                                                                000000000039500                            
50005010201110272011102800530230511877       PES0000039500A099212011102718260094                                                
6024600039500113010053023051187700000000042                                                                                     
7PESE                                                                                000000000039500                            
50005110201110272011102800530423134946       PES0000039500A091662011102715340261                                                
6024600039500113010053042313494600000000063                                                                                     
7PESE                                                                                000000000039500                            
50005210201110272011102800530520602774       PES0000039500A027192011102711290025                                                
6024600039500113010053052060277400000000099                                                                                     
7PESE                                                                                000000000039500                            
50005310201110272011102800530522500015       PES0000039500A020992011102712560031                                                
6024600039500113010053052250001500000000016                                                                                     
7PESE                                                                                000000000039500                            
50005410201110272011102800530810192838       PES0000039500M601162011102713160068                                                
6024600039500113010053081019283800000000063                                                                                     
7PESE                                                                                000000000039500                            
82011102800000100000540000012361750000000000000000000000000000000000000000054                                                   
9201110280000010000054000001236175000000000000000000000000000000000000000000054                                                 
