120130128PAGO FACIL               090060246FABIAN NORBERTO D´ERAMO                                                              
320130128000001FABIAN NORBERTO D´ERAMO                                                                                          
50000110201301252013012899030136359657       PES0000053500A081582013012511450063                                                
6024600053500130319903013635965700000000063                                                                                     
7PESE                                                                                000000000053500                            
50000210201301252013012829090227703860       PES0000015000A055332013012513020128                                                
6024600015000130322909022770386000000000042                                                                                     
7PESE                                                                                000000000015000                            
50000310201301252013012873010631575059       PES0000010000A074792013012516060009                                                
6024600010000130287301063157505900020000136                                                                                     
7PESE                                                                                000000000010000                            
50000410201301252013012802434129126226       PES0000040000D000752013012511550099                                                
6024600035000130200243412912622600050000690                                                                                     
7PESE                                                                                000000000040000                            
50000510201301252013012802432625770302       PES0000030000A092032013012510050036                                                
6024600030000130310243262577030200050000079                                                                                     
7PESE                                                                                000000000030000                            
50000610201301252013012802430327649385       PES0000040000D000872013012516200263                                                
6024600040000130290243032764938500075000063                                                                                     
7PESE                                                                                000000000040000                            
50000710201301252013012873010729136458       PES0000010000A072282013012514560211                                                
6024600010000130287301072913645800020007358                                                                                     
7PESE                                                                                000000000010000                            
50000810201301252013012829091229134233       PES0000025000A100472013012515180053                                                
6024600025000130292909122913423300000000042                                                                                     
7PESE                                                                                000000000025000                            
50000910201301252013012801341426122260       PES0000135000A094372013012517320163                                                
6024600135000130290134142612226000150000084                                                                                     
7PESE                                                                                000000000135000                            
50001010201301252013012801341233494925       PES0000135000A067602013012516440039                                                
6024600135000130290134123349492500150000000                                                                                     
7PESE                                                                                000000000135000                            
50001110201301252013012829090229112324       PES0000015000A046522013012514380085                                                
6024600015000130312909022911232400000000000                                                                                     
7PESE                                                                                000000000015000                            
50001210201301252013012873010823501216       PES0000010000D001392013012515280105                                                
6024600010000130287301082350121600020000179                                                                                     
7PESE                                                                                000000000010000                            
50001310201301252013012873010631055734       PES0000010000A076352013012510540036                                                
6024600010000130287301063105573400020000200                                                                                     
7PESE                                                                                000000000010000                            
50001410201301252013012873010323458827       PES0000010000A114992013012520010179                                                
6024600010000130287301032345882700020007363                                                                                     
7PESE                                                                                000000000010000                            
50001510201301252013012873010416684982       PES0000010000A114992013012520010180                                                
6024600010000130287301041668498200020007363                                                                                     
7PESE                                                                                000000000010000                            
50001610201301252013012829090630936728       PES0000015000A078632013012520580081                                                
6024600015000130312909063093672800000000021                                                                                     
7PESE                                                                                000000000015000                            
50001710201301252013012873010824558220       PES0000010000A082832013012518240003                                                
6024600010000130287301082455822000020000321                                                                                     
7PESE                                                                                000000000010000                            
50001810201301252013012873010632139777       PES0000010000A096012013012519110064                                                
6024600010000130287301063213977700020007390                                                                                     
7PESE                                                                                000000000010000                            
50001910201301252013012873010633044760       PES0000010000A096012013012519110065                                                
6024600010000130287301063304476000020007384                                                                                     
7PESE                                                                                000000000010000                            
50002010201301252013012829090225041681       PES0000015000A116982013012512100046                                                
6024600015000130302909022504168100000000057                                                                                     
7PESE                                                                                000000000015000                            
50002110201301252013012801341523299272       PES0000135000D000492013012517360064                                                
6024600135000130310134152329927200150000042                                                                                     
7PESE                                                                                000000000135000                            
50002210201301252013012873010728918730       PES0000010000L071222013012511416290                                                
6024600010000130287301072891873000020007358                                                                                     
7PESE                                                                                000000000010000                            
50002310201301252013012801341712983462       PES0000135000L070582013012519586656                                                
6024600135000130300134171298346200150000016                                                                                     
7PESE                                                                                000000000135000                            
50002410201301252013012801341522890911       PES0000135000M620142013012509330006                                                
6024600135000130320134152289091100150000021                                                                                     
7PESE                                                                                000000000135000                            
50002510201301252013012801341522576750       PES0000135000M620032013012510270031                                                
6024600135000130310134152257675000150000037                                                                                     
7PESE                                                                                000000000135000                            
50002610201301262013012829090292884152       PES0000015000D000292013012610300057                                                
6024600015000130322909029288415200000000036                                                                                     
7PESE                                                                                000000000015000                            
50002710201301262013012873010401175125       PES0000010000A091532013012610290091                                                
6024600010000130287301040117512500020007363                                                                                     
7PESE                                                                                000000000010000                            
50002810201301262013012873011016689589       PES0000010000A091532013012610290092                                                
6024600010000130287301101668958900020007342                                                                                     
7PESE                                                                                000000000010000                            
50002910201301262013012802432817660503       PES0000030000A109822013012611310113                                                
6024600030000130280243281766050300050000037                                                                                     
7PESE                                                                                000000000030000                            
50003010201301272013012873010920649996       PES0000010000A101392013012612350282                                                
6024600010000130287301092064999600020007342                                                                                     
7PESE                                                                                000000000010000                            
50003110201301272013012873010538645534       PES0000010000A047772013012718580036                                                
6024600010000130287301053864553400020007542                                                                                     
7PESE                                                                                000000000010000                            
50003210201301272013012873010921391612       PES0000010000A081512013012710280029                                                
6024600010000130287301092139161200020000358                                                                                     
7PESE                                                                                000000000010000                            
50003310201301272013012873011113683768       PES0000010000A029422013012717380037                                                
6024600010000130287301111368376800020007490                                                                                     
7PESE                                                                                000000000010000                            
50003410201301272013012801340230735964       PES0000135000A088622013012711280100                                                
6024600135000130320134023073596400150000037                                                                                     
7PESE                                                                                000000000135000                            
82013012800000100000340000013985000000000000000000000000000000000000000000034                                                   
9201301280000010000034000001398500000000000000000000000000000000000000000000034                                                 
