120120528PAGO FACIL               090060246FABIAN NORBERTO D´ERAMO                                                              
320120528000001FABIAN NORBERTO D´ERAMO                                                                                          
50000110201205242012052857001131107606       PES0000012000A072902012052415200147                                                
6024600012000121525700113110760600010000079                                                                                     
7PESE                                                                                000000000012000                            
50000210201205262012052899030233458467       PES0000049000A043162012052610530005                                                
6024600049000121519903023345846700000000000                                                                                     
7PESE                                                                                000000000049000                            
82012052800000100000020000000610000000000000000000000000000000000000000000002                                                   
9201205280000010000002000000061000000000000000000000000000000000000000000000002                                                 
