120111228PAGO FACIL               090060246FABIAN NORBERTO D´ERAMO                                                              
320111228000001FABIAN NORBERTO D´ERAMO                                                                                          
50000110201112272011122800610237676067       PES0000014000M601252011122713300157                                                
6024600012000113600061023767606700020008800                                                                                     
7PESE                                                                                000000000014000                            
50000210201112272011122800612426280509       PES0000014000M600212011122715020102                                                
6024600012000113600061242628050900020008842                                                                                     
7PESE                                                                                000000000014000                            
50000310201112272011122800612621950088       PES0000014000D000172011122711000055                                                
6024600012000113600061262195008800020008878                                                                                     
7PESE                                                                                000000000014000                            
50000410201112272011122800621116921228       PES0000012000A092172011122710490143                                                
6024600012000120020062111692122800020000063                                                                                     
7PESE                                                                                000000000012000                            
50000510201112272011122800622621950088       PES0000012000M600852011122716020192                                                
6024600012000120020062262195008800020000058                                                                                     
7PESE                                                                                000000000012000                            
50000610201112272011122829060228305906       PES0000013000A076442011122718420049                                                
6024600013000113622906022830590600000000021                                                                                     
7PESE                                                                                000000000013000                            
50000710201112272011122829060316948300       PES0000013000A107592011122717070061                                                
6024600013000113622906031694830000000000000                                                                                     
7PESE                                                                                000000000013000                            
50000810201112272011122829060321504094       PES0000013000A076442011122718420048                                                
6024600013000113622906032150409400000000015                                                                                     
7PESE                                                                                000000000013000                            
50000910201112272011122829060724243439       PES0000013000A031192011122719050039                                                
6024600013000113622906072424343900000000084                                                                                     
7PESE                                                                                000000000013000                            
50001010201112272011122829060723967493       PES0000013000A015942011122715310012                                                
6024600013000113632906072396749300000000016                                                                                     
7PESE                                                                                000000000013000                            
50001110201112272011122829060724137310       PES0000013000A094562011122712100192                                                
6024600013000113632906072413731000000000021                                                                                     
7PESE                                                                                000000000013000                            
50001210201112272011122829060314898204       PES0000013000A058112011122716570017                                                
6024600013000113642906031489820400000000063                                                                                     
7PESE                                                                                000000000013000                            
50001310201112272011122829060130743032       PES0000013000A085562011122714000045                                                
6024600013000113652906013074303200000000042                                                                                     
7PESE                                                                                000000000013000                            
50001410201112272011122829060410788142       PES0000013000A085562011122714000044                                                
6024600013000113652906041078814200000000084                                                                                     
7PESE                                                                                000000000013000                            
50001510201112272011122829060316657263       PES0000013000A027192011122711470189                                                
6024600013000120012906031665726300000000057                                                                                     
7PESE                                                                                000000000013000                            
50001610201112272011122829060317094542       PES0000013000A055192011122717250068                                                
6024600013000120022906031709454200000000021                                                                                     
7PESE                                                                                000000000013000                            
50001710201112272011122829060316892964       PES0000013000L070402011122717099516                                                
6024600013000120032906031689296400000000037                                                                                     
7PESE                                                                                000000000013000                            
50001810201112272011122829060413277337       PES0000013000M600432011122712260082                                                
6024600013000120032906041327733700000000021                                                                                     
7PESE                                                                                000000000013000                            
50001910201112272011122800610220366649       PES0000014000A045152011122716400179                                                
6024600014000120030061022036664900000000000                                                                                     
7PESE                                                                                000000000014000                            
50002010201112272011122800611525509096       PES0000014000A042592011122709540010                                                
6024600014000120030061152550909600000000036                                                                                     
7PESE                                                                                000000000014000                            
50002110201112272011122800612523698591       PES0000014000A042592011122709550011                                                
6024600014000120030061252369859100000000063                                                                                     
7PESE                                                                                000000000014000                            
50002210201112272011122800612910650105       PES0000014000A075362011122713280256                                                
6024600014000120030061291065010500000000090                                                                                     
7PESE                                                                                000000000014000                            
50002310201112272011122802322921851864       PES0000015000A058512011122710190063                                                
6024600015000120020232292185186400050000037                                                                                     
7PESE                                                                                000000000015000                            
50002410201112272011122800601906272265       PES0000019000A001632011122710430047                                                
6024600019000113620060190627226500060000063                                                                                     
7PESE                                                                                000000000019000                            
50002510201112272011122818360233669700       PES0000020000D000782011122712370211                                                
6024600020000120031836023366970000000000078                                                                                     
7PESE                                                                                000000000020000                            
50002610201112272011122818360332378711       PES0000020000A060942011122715540234                                                
6024600020000120031836033237871100000000037                                                                                     
7PESE                                                                                000000000020000                            
50002710201112272011122802320234199925       PES0000025000A026442011122710150074                                                
6024600025000113640232023419992500030000036                                                                                     
7PESE                                                                                000000000025000                            
50002810201112272011122802320622303330       PES0000025000A090542011122715260269                                                
6024600025000120020232062230333000030000063                                                                                     
7PESE                                                                                000000000025000                            
50002910201112272011122802321427508671       PES0000025000A102742011122718140016                                                
6024600025000120020232142750867100030000079                                                                                     
7PESE                                                                                000000000025000                            
50003010201112272011122899030235428838       PES0000036980A103582011122710420095                                                
6024600036980113649903023542883800000800000                                                                                     
7PESE                                                                                000000000036980                            
50003110201112272011122899030228361121       PES0000037000A043162011122711440123                                                
6024600037000120029903022836112100035000084                                                                                     
7PESE                                                                                000000000037000                            
50003210201112272011122823060322778855       PES0000108800A093442011122710580030                                                
6024600108800120032306032277885500128000036                                                                                     
7PESE                                                                                000000000108800                            
50003310201112272011122823061492412248       PES0000121600M600662011122715560061                                                
6024600121600120022306149241224800150000079                                                                                     
7PESE                                                                                000000000121600                            
50003410201112272011122823061924243164       PES0000121600A038672011122717430055                                                
6024600121600120022306192424316400150000015                                                                                     
7PESE                                                                                000000000121600                            
82011122800000100000340000008659800000000000000000000000000000000000000000034                                                   
9201112280000010000034000000865980000000000000000000000000000000000000000000034                                                 
