120120529PAGO FACIL               090060246FABIAN NORBERTO D´ERAMO                                                              
320120529000001FABIAN NORBERTO D´ERAMO                                                                                          
50000110201205282012052988880000000070       PES0000004500A056382012052810100068                                                
6024600004500121498888000000007000000000000                                                                                     
7PESE                                                                                000000000004500                            
82012052900000100000010000000045000000000000000000000000000000000000000000001                                                   
9201205290000010000001000000004500000000000000000000000000000000000000000000001                                                 
