120110629PAGO FACIL               090060246FABIAN NORBERTO D´ERAMO                                                              
320110629000001FABIAN NORBERTO D´ERAMO                                                                                          
50000110201106282011062917020717555676       PES0000016000A103322011062811280148                                                
6024600016000111851702071755567600040000042                                                                                     
7PESE                                                                                000000000016000                            
50000210201106282011062902295116273076       PES0000018500A084182011062816020312                                                
6024600018500111800229511627307600000000078                                                                                     
7PESE                                                                                000000000018500                            
82011062900000100000020000000345000000000000000000000000000000000000000000002                                                   
9201106290000010000002000000034500000000000000000000000000000000000000000000002                                                 
