120121029PAGO FACIL               090060246FABIAN NORBERTO D´ERAMO                                                              
320121029000001FABIAN NORBERTO D´ERAMO                                                                                          
50000110201210262012102901331712397506       PES0000052000A081392012102510030006                                                
6024600052000123000133171239750600080000021                                                                                     
7PESE                                                                                000000000052000                            
50000210201210262012102900720523132847       PES0000047500A115282012102509020022                                                
6024600047500122990072052313284700000000037                                                                                     
7PESE                                                                                000000000047500                            
50000310201210262012102900713442043469       PES0000032500A033862012102511460051                                                
6024600032500122990071344204346900000000021                                                                                     
7PESE                                                                                000000000032500                            
50000410201210262012102900720714013009       PES0000047500M600402012102512570090                                                
6024600047500122990072071401300900000000090                                                                                     
7PESE                                                                                000000000047500                            
50000510201210262012102900714425104176       PES0000032500M601312012102512550032                                                
6024600032500122990071442510417600000000058                                                                                     
7PESE                                                                                000000000032500                            
50000610201210262012102901331522576750       PES0000052000M620032012102511070047                                                
6024600052000123040133152257675000080000057                                                                                     
7PESE                                                                                000000000052000                            
50000710201210262012102900720521760298       PES0000047500M602002012102510030009                                                
6024600047500122990072052176029800000000078                                                                                     
7PESE                                                                                000000000047500                            
50000810201210262012102969000617092544       PES0000006000M620062012102518140043                                                
6024600006000123006900061709254400000000058                                                                                     
7PESE                                                                                000000000006000                            
50000910201210262012102969001417429127       PES0000006000M620062012102518150044                                                
6024600006000123006900141742912700000000016                                                                                     
7PESE                                                                                000000000006000                            
50001010201210262012102969000521716813       PES0000006000M620062012102518160045                                                
6024600006000123006900052171681300000000000                                                                                     
7PESE                                                                                000000000006000                            
50001110201210262012102900720424214960       PES0000047500M601612012102513200034                                                
6024600047500122990072042421496000000000099                                                                                     
7PESE                                                                                000000000047500                            
50001210201210262012102900714518142977       PES0000032500M600472012102513030031                                                
6024600032500122990071451814297700000000090                                                                                     
7PESE                                                                                000000000032500                            
50001310201210262012102900720523248125       PES0000047500M600142012102516460138                                                
6024600047500122990072052324812500000000099                                                                                     
7PESE                                                                                000000000047500                            
50001410201210262012102900752717668262       PES0000022500M640092012102513470016                                                
6024600022500122990075271766826200020000042                                                                                     
7PESE                                                                                000000000022500                            
50001510201210262012102944020523995239       PES0000008500D000412012102510020077                                                
6024600008500123014402052399523900000000042                                                                                     
7PESE                                                                                000000000008500                            
50001610201210262012102970001228700135       PES0000013000A660452012102609170046                                                
6024600013000123017000122870013500000000021                                                                                     
7PESE                                                                                000000000013000                            
50001710201210262012102918402528768646       PES0000025000A002542012102610200003                                                
6024600025000123001840252876864600000000042                                                                                     
7PESE                                                                                000000000025000                            
50001810201210262012102998010235919216       PES0000029500A620992012102610040005                                                
6024600029500123049801023591921600000000015                                                                                     
7PESE                                                                                000000000029500                            
50001910201210262012102918400620616069       PES0000025000A620522012102610070008                                                
6024600025000123001840062061606900000000000                                                                                     
7PESE                                                                                000000000025000                            
50002010201210262012102901331326185150       PES0000052000A024232012102611380051                                                
6024600052000123050133132618515000080000084                                                                                     
7PESE                                                                                000000000052000                            
50002110201210262012102944021428094925       PES0000008500A046092012102609470030                                                
6024600008500123014402142809492500000000099                                                                                     
7PESE                                                                                000000000008500                            
50002210201210262012102918402625144420       PES0000025000A018912012102613300170                                                
6024600025000123001840262514442000000000084                                                                                     
7PESE                                                                                000000000025000                            
50002310201210262012102901331617953347       PES0000052000A091162012102615310424                                                
6024600052000123030133161795334700080000000                                                                                     
7PESE                                                                                000000000052000                            
50002410201210262012102944020234028975       PES0000008500A119482012102612110004                                                
6024600008500123014402023402897500000000021                                                                                     
7PESE                                                                                000000000008500                            
50002510201210262012102901331521080930       PES0000052000A026032012102610060036                                                
6024600052000123040133152108093000080000000                                                                                     
7PESE                                                                                000000000052000                            
50002610201210262012102918402335072012       PES0000025000A097442012102614150191                                                
6024600025000123001840233507201200000000084                                                                                     
7PESE                                                                                000000000025000                            
50002710201210262012102944020428119229       PES0000008500A105982012102614170115                                                
6024600008500123014402042811922900000000057                                                                                     
7PESE                                                                                000000000008500                            
50002810201210262012102918400332743409       PES0000025000A601482012102610350011                                                
6024600025000123001840033274340900000000021                                                                                     
7PESE                                                                                000000000025000                            
50002910201210262012102901331618131371       PES0000052000A092002012102614300147                                                
6024600052000123030133161813137100080000000                                                                                     
7PESE                                                                                000000000052000                            
50003010201210262012102929080723208762       PES0000015000D001592012102612460061                                                
6024600015000123042908072320876200030000063                                                                                     
7PESE                                                                                000000000015000                            
50003110201210262012102901331328231795       PES0000052000D000242012102617370109                                                
6024600052000123020133132823179500080000042                                                                                     
7PESE                                                                                000000000052000                            
50003210201210262012102901331714922747       PES0000052000A092102012102611330085                                                
6024600052000123070133171492274700080000042                                                                                     
7PESE                                                                                000000000052000                            
50003310201210262012102901331423754240       PES0000052000A096972012102610120029                                                
6024600052000123040133142375424000080000042                                                                                     
7PESE                                                                                000000000052000                            
50003410201210262012102918402721666101       PES0000025000A056902012102615540006                                                
6024600025000123001840272166610100000000084                                                                                     
7PESE                                                                                000000000025000                            
50003510201210262012102901331521138136       PES0000052000A107532012102615150026                                                
6024600052000123000133152113813600080000084                                                                                     
7PESE                                                                                000000000052000                            
50003610201210262012102901331326654379       PES0000052000A112242012102617160018                                                
6024600052000123060133132665437900080000042                                                                                     
7PESE                                                                                000000000052000                            
50003710201210262012102901331424080143       PES0000052000A074252012102618380204                                                
6024600052000123070133142408014300080000084                                                                                     
7PESE                                                                                000000000052000                            
50003810201210262012102929080892726374       PES0000015000A097712012102617420097                                                
6024600015000123062908089272637400030000021                                                                                     
7PESE                                                                                000000000015000                            
50003910201210262012102944021332996134       PES0000008500A063662012102616200202                                                
6024600008500123014402133299613400000000063                                                                                     
7PESE                                                                                000000000008500                            
50004010201210262012102901330522367346       PES0000052000A024432012102618340108                                                
6024600052000123050133052236734600080000016                                                                                     
7PESE                                                                                000000000052000                            
50004110201210262012102901331618170778       PES0000052000A024432012102618370109                                                
6024600052000123030133161817077800080000021                                                                                     
7PESE                                                                                000000000052000                            
50004210201210262012102918400428532819       PES0000025000A104702012102610070045                                                
6024600025000123001840042853281900000000099                                                                                     
7PESE                                                                                000000000025000                            
50004310201210262012102965000518028275       PES0000013000A007972012102618390133                                                
6024600013000123026500051802827500000000037                                                                                     
7PESE                                                                                000000000013000                            
50004410201210262012102965000314680837       PES0000013000A007972012102618390134                                                
6024600013000123026500031468083700000000021                                                                                     
7PESE                                                                                000000000013000                            
50004510201210262012102901331592733401       PES0000052000A087612012102618170019                                                
6024600052000123030133159273340100080000099                                                                                     
7PESE                                                                                000000000052000                            
50004610201210262012102901331424913443       PES0000052000A086812012102616300167                                                
6024600052000123030133142491344300080000000                                                                                     
7PESE                                                                                000000000052000                            
50004710201210262012102929081223004965       PES0000023000A104202012102618370030                                                
6024600023000123002908122300496500020000099                                                                                     
7PESE                                                                                000000000023000                            
50004810201210262012102901331521433416       PES0000052000A070642012102616590127                                                
6024600052000123030133152143341600080000090                                                                                     
7PESE                                                                                000000000052000                            
50004910201210262012102969013104978757       PES0000015000M620082012102610450011                                                
6024600015000123066901310497875700025000015                                                                                     
7PESE                                                                                000000000015000                            
50005010201210262012102969012621463334       PES0000015000M620082012102611280014                                                
6024600015000123056901262146333400025000057                                                                                     
7PESE                                                                                000000000015000                            
50005110201210262012102901331620007959       PES0000052000M601282012102614170117                                                
6024600052000123000133162000795900080000000                                                                                     
7PESE                                                                                000000000052000                            
50005210201210262012102970000334082542       PES0000013000A109362012102620060074                                                
6024600013000123017000033408254200000000079                                                                                     
7PESE                                                                                000000000013000                            
50005310201210262012102970001436046946       PES0000005000A081912012102610360029                                                
6024600005000123017000143604694600000000084                                                                                     
7PESE                                                                                000000000005000                            
50005410201210272012102965000294875844       PES0000013000A085512012102711310050                                                
6024600013000123076500029487584400000000021                                                                                     
7PESE                                                                                000000000013000                            
50005510201210272012102952011822550898       PES0000010000A078732012102711120026                                                
6024600010000123055201182255089800010007121                                                                                     
7PESE                                                                                000000000010000                            
50005610201210272012102970001320700616       PES0000005000A039982012102711460063                                                
6024600005000123017000132070061600000000063                                                                                     
7PESE                                                                                000000000005000                            
50005710201210272012102901331329432982       PES0000052000A027742012102718330124                                                
6024600052000123080133132943298200080000021                                                                                     
7PESE                                                                                000000000052000                            
50005810201210272012102901331714949391       PES0000052000A099032012102710130009                                                
6024600052000123030133171494939100080000000                                                                                     
7PESE                                                                                000000000052000                            
50005910201210272012102900750731469245       PES0000022500A088622012102720580222                                                
6024600022500123050075073146924500020007100                                                                                     
7PESE                                                                                000000000022500                            
50006010201210272012102998010131469245       PES0000015000A088622012102720580223                                                
6024600015000123049801013146924500000000084                                                                                     
7PESE                                                                                000000000015000                            
50006110201210282012102901331616731340       PES0000052000L071212012102816273416                                                
6024600052000123090133161673134000080000000                                                                                     
7PESE                                                                                000000000052000                            
82012102900000100000610000019200000000000000000000000000000000000000000000061                                                   
9201210290000010000061000001920000000000000000000000000000000000000000000000061                                                 
