120120829PAGO FACIL               090060246FABIAN NORBERTO D´ERAMO                                                              
320120829000001FABIAN NORBERTO D´ERAMO                                                                                          
50000110201208282012082900712429028652       PES0000023500A040462012082718310103                                                
6024600023500122440071242902865200055007190                                                                                     
7PESE                                                                                000000000023500                            
50000210201208282012082900711431392992       PES0000023500A097922012082812440084                                                
6024600023500122420071143139299200055000063                                                                                     
7PESE                                                                                000000000023500                            
50000310201208282012082900713824313497       PES0000023500A077012012082817450082                                                
6024600023500122420071382431349700055000021                                                                                     
7PESE                                                                                000000000023500                            
50000410201208282012082900714233779136       PES0000023500A064202012082817510065                                                
6024600023500122420071423377913600055000057                                                                                     
7PESE                                                                                000000000023500                            
50000510201208282012082900712622000218       PES0000023500A072352012082809300037                                                
6024600023500122430071262200021800055000058                                                                                     
7PESE                                                                                000000000023500                            
50000610201208282012082900710133272737       PES0000023500A113052012082812220068                                                
6024600023500122440071013327273700055007315                                                                                     
7PESE                                                                                000000000023500                            
50000710201208282012082900710336165349       PES0000023500A047372012082811410069                                                
6024600023500122440071033616534900055007179                                                                                     
7PESE                                                                                000000000023500                            
50000810201208282012082900710828740871       PES0000023500A111362012082814160380                                                
6024600023500122440071082874087100055007221                                                                                     
7PESE                                                                                000000000023500                            
50000910201208282012082900710829037060       PES0000023500A111362012082814160381                                                
6024600023500122440071082903706000055007284                                                                                     
7PESE                                                                                000000000023500                            
50001010201208282012082900711022859346       PES0000023500A047522012082816290037                                                
6024600023500122440071102285934600055007284                                                                                     
7PESE                                                                                000000000023500                            
50001110201208282012082900711114325696       PES0000023500A025052012082809060051                                                
6024600023500122440071111432569600055007142                                                                                     
7PESE                                                                                000000000023500                            
50001210201208282012082900711335799831       PES0000023500A103262012082816060115                                                
6024600023500122440071133579983100055007336                                                                                     
7PESE                                                                                000000000023500                            
50001310201208282012082900711916171175       PES0000023500A103262012082816060114                                                
6024600023500122440071191617117500055007384                                                                                     
7PESE                                                                                000000000023500                            
50001410201208282012082900712234138844       PES0000023500A082002012082817410052                                                
6024600023500122440071223413884400055007399                                                                                     
7PESE                                                                                000000000023500                            
50001510201208282012082900712427081240       PES0000023500A113802012082817420033                                                
6024600023500122440071242708124000055007337                                                                                     
7PESE                                                                                000000000023500                            
50001610201208282012082900712428386974       PES0000023500A031402012082814320004                                                
6024600023500122440071242838697400055007221                                                                                     
7PESE                                                                                000000000023500                            
50001710201208282012082900712720005451       PES0000023500A085562012082811440080                                                
6024600023500122440071272000545100055000084                                                                                     
7PESE                                                                                000000000023500                            
50001810201208282012082900712813720544       PES0000023500A071012012082809220011                                                
6024600023500122440071281372054400055007100                                                                                     
7PESE                                                                                000000000023500                            
50001910201208282012082900712814952012       PES0000023500A056382012082812370091                                                
6024600023500122440071281495201200055007100                                                                                     
7PESE                                                                                000000000023500                            
50002010201208282012082900712911273618       PES0000023500A055192012082809420010                                                
6024600023500122440071291127361800055007236                                                                                     
7PESE                                                                                000000000023500                            
50002110201208282012082900712913147643       PES0000023500A061472012082809150016                                                
6024600023500122440071291314764300055007299                                                                                     
7PESE                                                                                000000000023500                            
50002210201208282012082900713726651498       PES0000023500A085542012082814400160                                                
6024600023500122440071372665149800055007363                                                                                     
7PESE                                                                                000000000023500                            
50002310201208282012082900713731697601       PES0000023500A082002012082809280003                                                
6024600023500122440071373169760100055000084                                                                                     
7PESE                                                                                000000000023500                            
50002410201208282012082900713912164022       PES0000023500A085542012082814400159                                                
6024600023500122440071391216402200055007316                                                                                     
7PESE                                                                                000000000023500                            
50002510201208282012082900714330953595       PES0000023500A093422012082816540003                                                
6024600023500122440071433095359500055007321                                                                                     
7PESE                                                                                000000000023500                            
50002610201208282012082900714494624527       PES0000023500M600092012082811140041                                                
6024600023500122440071449462452700055007263                                                                                     
7PESE                                                                                000000000023500                            
50002710201208282012082917030721898113       PES0000025000A084002012082819300083                                                
6024600025000122421703072189811300050000099                                                                                     
7PESE                                                                                000000000025000                            
50002810201208282012082917031206297945       PES0000025000M660232012082810520088                                                
6024600025000122421703120629794500050000063                                                                                     
7PESE                                                                                000000000025000                            
50002910201208282012082917031424173732       PES0000025000A084002012082819300081                                                
6024600025000122421703142417373200050000015                                                                                     
7PESE                                                                                000000000025000                            
50003010201208282012082917031424522483       PES0000025000A084002012082819300082                                                
6024600025000122421703142452248300050000079                                                                                     
7PESE                                                                                000000000025000                            
50003110201208282012082917031426309348       PES0000025000M660232012082810530090                                                
6024600025000122421703142630934800050000057                                                                                     
7PESE                                                                                000000000025000                            
50003210201208282012082917031522647497       PES0000025000M660232012082810530089                                                
6024600025000122421703152264749700050000063                                                                                     
7PESE                                                                                000000000025000                            
50003310201208282012082917030721434341       PES0000025000A620962012082810210009                                                
6024600025000122431703072143434100050000078                                                                                     
7PESE                                                                                000000000025000                            
50003410201208282012082917030526925373       PES0000025000A640242012082808360008                                                
6024600025000122441703052692537300050007216                                                                                     
7PESE                                                                                000000000025000                            
50003510201208282012082917030722123464       PES0000025000A099662012082809410008                                                
6024600025000122441703072212346400050007116                                                                                     
7PESE                                                                                000000000025000                            
50003610201208282012082917030911996200       PES0000025000A116572012082814540073                                                
6024600025000122441703091199620000050007242                                                                                     
7PESE                                                                                000000000025000                            
50003710201208282012082917030914633337       PES0000025000L071222012082818541461                                                
6024600025000122441703091463333700050007379                                                                                     
7PESE                                                                                000000000025000                            
50003810201208282012082917031424855962       PES0000025000A080712012082817480027                                                
6024600025000122441703142485596200050007342                                                                                     
7PESE                                                                                000000000025000                            
50003910201208282012082917031427499556       PES0000025000A099662012082809410007                                                
6024600025000122441703142749955600050007199                                                                                     
7PESE                                                                                000000000025000                            
50004010201208282012082999030134332391       PES0000041650A091482012082810450068                                                
6024600041650122449903013433239100000500000                                                                                     
7PESE                                                                                000000000041650                            
50004110201208282012082900720522090793       PES0000042000A018312012082817540257                                                
6024600042000122410072052209079300045000021                                                                                     
7PESE                                                                                000000000042000                            
50004210201208282012082901320522090793       PES0000045000A018312012082817540256                                                
6024600045000122410132052209079300050000090                                                                                     
7PESE                                                                                000000000045000                            
50004310201208282012082901320232133267       PES0000045000M613622012082811440094                                                
6024600045000122420132023213326700050000000                                                                                     
7PESE                                                                                000000000045000                            
50004410201208282012082901320328477487       PES0000045000A109832012082809050038                                                
6024600045000122420132032847748700050000063                                                                                     
7PESE                                                                                000000000045000                            
50004510201208282012082901320424545126       PES0000045000M810002012082812040106                                                
6024600045000122420132042454512600050000036                                                                                     
7PESE                                                                                000000000045000                            
50004610201208282012082901320713114669       PES0000045000A620812012082811150068                                                
6024600045000122420132071311466900050000016                                                                                     
7PESE                                                                                000000000045000                            
50004710201208282012082901320617011525       PES0000045000L070602012082815073830                                                
6024600045000122450132061701152500050000084                                                                                     
7PESE                                                                                000000000045000                            
50004810201208282012082901320617887196       PES0000045000A102362012082817570157                                                
6024600045000122450132061788719600050000037                                                                                     
7PESE                                                                                000000000045000                            
50004910201208282012082901321423856257       PES0000045000A081782012082815380323                                                
6024600045000122460132142385625700050000000                                                                                     
7PESE                                                                                000000000045000                            
50005010201208282012082901320617212947       PES0000045000A115332012082812060034                                                
6024600045000122480132061721294700050000042                                                                                     
7PESE                                                                                000000000045000                            
50005110201208282012082960000526172486       PES0000075000L070442012082819132157                                                
6024600075000122446000052617248600050007321                                                                                     
7PESE                                                                                000000000075000                            
82012082900000100000510000014996500000000000000000000000000000000000000000051                                                   
9201208290000010000051000001499650000000000000000000000000000000000000000000051                                                 
