120110929PAGO FACIL               090060246FABIAN NORBERTO D´ERAMO                                                              
320110929000001FABIAN NORBERTO D´ERAMO                                                                                          
50000110201109282011092900574743171221       PES0000005500A025662011092817550288                                                
6024600005500112730057474317122100015007416                                                                                     
7PESE                                                                                000000000005500                            
50000210201109282011092900574743326351       PES0000005500D000192011092811350042                                                
6024600005500112730057474332635100015007484                                                                                     
7PESE                                                                                000000000005500                            
50000310201109282011092900574743574745       PES0000005500A094942011092812330024                                                
6024600005500112730057474357474500015007300                                                                                     
7PESE                                                                                000000000005500                            
50000410201109282011092900504740796866       PES0000008500A093412011092818110041                                                
6024600008500112730050474079686600015007500                                                                                     
7PESE                                                                                000000000008500                            
50000510201109282011092900504742237928       PES0000008500A093412011092818110043                                                
6024600008500112730050474223792800015007542                                                                                     
7PESE                                                                                000000000008500                            
50000610201109282011092900504742237929       PES0000008500A093412011092818110042                                                
6024600008500112730050474223792900015007563                                                                                     
7PESE                                                                                000000000008500                            
50000710201109282011092937020524364614       PES0000009000A071022011092810470054                                                
6024600009000112733702052436461400000000042                                                                                     
7PESE                                                                                000000000009000                            
50000810201109282011092937020524870096       PES0000009000A087742011092812000018                                                
6024600009000112733702052487009600000000000                                                                                     
7PESE                                                                                000000000009000                            
50000910201109282011092929060130220073       PES0000010000A029312011092814000042                                                
6024600010000112772906013022007300030000037                                                                                     
7PESE                                                                                000000000010000                            
50001010201109282011092929060229732726       PES0000010000A029312011092814000041                                                
6024600010000112772906022973272600030000016                                                                                     
7PESE                                                                                000000000010000                            
50001110201109282011092900571020435876       PES0000017500L120202011092810156310                                                
6024600017500112730057102043587600025007221                                                                                     
7PESE                                                                                000000000017500                            
50001210201109282011092900585236982255       PES0000018500A092122011092812260070                                                
6024600018500112760058523698225500040000063                                                                                     
7PESE                                                                                000000000018500                            
50001310201109282011092900500732036811       PES0000024500A047802011092811140011                                                
6024600024500112710050073203681100030000078                                                                                     
7PESE                                                                                000000000024500                            
50001410201109282011092900502522922020       PES0000024500A062752011092816420023                                                
6024600024500112710050252292202000030000016                                                                                     
7PESE                                                                                000000000024500                            
50001510201109282011092900502235066242       PES0000024500A092102011092815060234                                                
6024600024500112730050223506624200030007499                                                                                     
7PESE                                                                                000000000024500                            
50001610201109282011092900502332090782       PES0000024500A092102011092815060233                                                
6024600024500112730050233209078200030007436                                                                                     
7PESE                                                                                000000000024500                            
50001710201109282011092900502426328638       PES0000024500A048982011092814000168                                                
6024600024500112730050242632863800030007484                                                                                     
7PESE                                                                                000000000024500                            
50001810201109282011092900502620416964       PES0000024500A104972011092814440001                                                
6024600024500112730050262041696400030000042                                                                                     
7PESE                                                                                000000000024500                            
50001910201109282011092900504138254318       PES0000024500A093412011092818110044                                                
6024600024500112730050413825431800030007557                                                                                     
7PESE                                                                                000000000024500                            
50002010201109282011092900504234136421       PES0000024500A093412011092818110045                                                
6024600024500112730050423413642100030007584                                                                                     
7PESE                                                                                000000000024500                            
50002110201109282011092900504235075916       PES0000024500A601212011092810390052                                                
6024600024500112730050423507591600030007484                                                                                     
7PESE                                                                                000000000024500                            
50002210201109282011092900504235225419       PES0000024500A022842011092815070025                                                
6024600024500112730050423522541900030007300                                                                                     
7PESE                                                                                000000000024500                            
50002310201109282011092900504610962645       PES0000024500A091062011092814350189                                                
6024600024500112730050461096264500030007515                                                                                     
7PESE                                                                                000000000024500                            
50002410201109282011092997000622651949       PES0000030000L120232011092817271246                                                
6024600030000112719700062265194900000000000                                                                                     
7PESE                                                                                000000000030000                            
50002510201109282011092900530424080143       PES0000038500A034222011092810360037                                                
6024600038500112770053042408014300010000016                                                                                     
7PESE                                                                                000000000038500                            
50002610201109282011092900530618486297       PES0000038500A048882011092810000008                                                
6024600038500112770053061848629700010000000                                                                                     
7PESE                                                                                000000000038500                            
50002710201109282011092900531423447127       PES0000038500A048882011092810000007                                                
6024600038500112770053142344712700010000063                                                                                     
7PESE                                                                                000000000038500                            
50002810201109282011092900530617815064       PES0000038500M600072011092810500033                                                
6024600038500112780053061781506400010000042                                                                                     
7PESE                                                                                000000000038500                            
82011092900000100000280000005695000000000000000000000000000000000000000000028                                                   
9201109290000010000028000000569500000000000000000000000000000000000000000000028                                                 
