120120830PAGO FACIL               090060246FABIAN NORBERTO D´ERAMO                                                              
320120830000001FABIAN NORBERTO D´ERAMO                                                                                          
50000110201208292012083000714743989880       PES0000008000A080662012082918050045                                                
6024600008000122440071474398988000010007416                                                                                     
7PESE                                                                                000000000008000                            
50000210201208292012083000710634889532       PES0000023500A097922012082912530107                                                
6024600023500122420071063488953200055000058                                                                                     
7PESE                                                                                000000000023500                            
50000310201208292012083000711528741799       PES0000023500A042592012082909510004                                                
6024600023500122430071152874179900055000090                                                                                     
7PESE                                                                                000000000023500                            
50000410201208292012083000712716141747       PES0000023500A085192012082913160027                                                
6024600023500122430071271614174700055000021                                                                                     
7PESE                                                                                000000000023500                            
50000510201208292012083000712717452299       PES0000023500A085192012082913150026                                                
6024600023500122430071271745229900055000078                                                                                     
7PESE                                                                                000000000023500                            
50000610201208292012083000712814287612       PES0000023500A106072012082910580040                                                
6024600023500122430071281428761200055000063                                                                                     
7PESE                                                                                000000000023500                            
50000710201208292012083000710335218934       PES0000023500L071192012082911292520                                                
6024600023500122440071033521893400055007321                                                                                     
7PESE                                                                                000000000023500                            
50000810201208292012083000710733069656       PES0000023500A112702012082911320035                                                
6024600023500122440071073306965600055007000                                                                                     
7PESE                                                                                000000000023500                            
50000910201208292012083000710733783206       PES0000023500A103612012082912080049                                                
6024600023500122440071073378320600055007136                                                                                     
7PESE                                                                                000000000023500                            
50001010201208292012083000711430577091       PES0000023500A081582012082917590118                                                
6024600023500122440071143057709100055007315                                                                                     
7PESE                                                                                000000000023500                            
50001110201208292012083000711433706619       PES0000023500A073702012082909150002                                                
6024600023500122440071143370661900055007457                                                                                     
7PESE                                                                                000000000023500                            
50001210201208292012083000712332437349       PES0000023500A081582012082918010119                                                
6024600023500122440071233243734900055007337                                                                                     
7PESE                                                                                000000000023500                            
50001310201208292012083000712428910238       PES0000023500A032972012082910490050                                                
6024600023500122440071242891023800055007421                                                                                     
7PESE                                                                                000000000023500                            
50001410201208292012083000712524569773       PES0000023500A071012012082918180133                                                
6024600023500122440071252456977300055007100                                                                                     
7PESE                                                                                000000000023500                            
50001510201208292012083000712526344267       PES0000023500L070542012082909578482                                                
6024600023500122440071252634426700055007378                                                                                     
7PESE                                                                                000000000023500                            
50001610201208292012083000712717660582       PES0000023500A033412012082910000018                                                
6024600023500122440071271766058200055007463                                                                                     
7PESE                                                                                000000000023500                            
50001710201208292012083000712813527653       PES0000023500A072902012082909130005                                                
6024600023500122440071281352765300055007321                                                                                     
7PESE                                                                                000000000023500                            
50001810201208292012083000712814438747       PES0000023500A060922012082918450107                                                
6024600023500122440071281443874700055007215                                                                                     
7PESE                                                                                000000000023500                            
50001910201208292012083000712913468059       PES0000023500A105142012082914310116                                                
6024600023500122440071291346805900055007357                                                                                     
7PESE                                                                                000000000023500                            
50002010201208292012083000713729115090       PES0000023500D000482012082917390034                                                
6024600023500122440071372911509000055007242                                                                                     
7PESE                                                                                000000000023500                            
50002110201208292012083000713905243752       PES0000023500A073592012082909270016                                                
6024600023500122440071390524375200055007300                                                                                     
7PESE                                                                                000000000023500                            
50002210201208292012083000713916044782       PES0000023500A086972012082910330029                                                
6024600023500122440071391604478200055007200                                                                                     
7PESE                                                                                000000000023500                            
50002310201208292012083000714040910653       PES0000023500A095462012082915580126                                                
6024600023500122440071404091065300055007316                                                                                     
7PESE                                                                                000000000023500                            
50002410201208292012083000714327452116       PES0000023500A074412012082918440116                                                
6024600023500122440071432745211600055007321                                                                                     
7PESE                                                                                000000000023500                            
50002510201208292012083000714420679154       PES0000023500A095462012082915580125                                                
6024600023500122440071442067915400055007363                                                                                     
7PESE                                                                                000000000023500                            
50002610201208292012083000714421924707       PES0000023500A071042012082911050050                                                
6024600023500122440071442192470700055007463                                                                                     
7PESE                                                                                000000000023500                            
50002710201208292012083000714426470258       PES0000023500D000302012082917320211                                                
6024600023500122440071442647025800055007337                                                                                     
7PESE                                                                                000000000023500                            
50002810201208292012083000714610810002       PES0000023500A016682012082910330038                                                
6024600023500122440071461081000200055007415                                                                                     
7PESE                                                                                000000000023500                            
50002910201208292012083017030337209277       PES0000025000A068742012082912000094                                                
6024600025000122441703033720927700050007321                                                                                     
7PESE                                                                                000000000025000                            
50003010201208292012083017030526476967       PES0000025000A051402012082910380014                                                
6024600025000122441703052647696700050007421                                                                                     
7PESE                                                                                000000000025000                            
50003110201208292012083017030528764263       PES0000025000A066952012082912240140                                                
6024600025000122441703052876426300050000037                                                                                     
7PESE                                                                                000000000025000                            
50003210201208292012083017030625365332       PES0000025000A096622012082918530149                                                
6024600025000122441703062536533200050007499                                                                                     
7PESE                                                                                000000000025000                            
50003310201208292012083017030720309951       PES0000025000M620132012082911540040                                                
6024600025000122441703072030995100050000042                                                                                     
7PESE                                                                                000000000025000                            
50003410201208292012083017030722539355       PES0000025000L071222012082910301491                                                
6024600025000122441703072253935500050007342                                                                                     
7PESE                                                                                000000000025000                            
50003510201208292012083017030914581311       PES0000025000A096622012082918530150                                                
6024600025000122441703091458131100050007478                                                                                     
7PESE                                                                                000000000025000                            
50003610201208292012083017031333120493       PES0000025000A096622012082918530148                                                
6024600025000122441703133312049300050007436                                                                                     
7PESE                                                                                000000000025000                            
50003710201208292012083000723634975817       PES0000031000A601202012082914070013                                                
6024600031000122420072363497581700040000090                                                                                     
7PESE                                                                                000000000031000                            
50003810201208292012083000724022580094       PES0000031000A078732012082912590025                                                
6024600031000122420072402258009400040000015                                                                                     
7PESE                                                                                000000000031000                            
50003910201208292012083000724026060895       PES0000031000A033992012082911160059                                                
6024600031000122490072402606089500040000063                                                                                     
7PESE                                                                                000000000031000                            
50004010201208292012083099030234929847       PES0000043000D000302012082915150127                                                
6024600043000122439903023492984700000000042                                                                                     
7PESE                                                                                000000000043000                            
50004110201208292012083001320736801243       PES0000045000A082902012082914420129                                                
6024600045000122480132073680124300050000000                                                                                     
7PESE                                                                                000000000045000                            
50004210201208292012083001320521735303       PES0000045000D001392012082920050044                                                
6024600045000122490132052173530300050000021                                                                                     
7PESE                                                                                000000000045000                            
50004310201208292012083001321231554924       PES0000045000A061432012082912010223                                                
6024600045000122490132123155492400050000015                                                                                     
7PESE                                                                                000000000045000                            
82012083000000100000430000011135000000000000000000000000000000000000000000043                                                   
9201208300000010000043000001113500000000000000000000000000000000000000000000043                                                 
