120121130PAGO FACIL               090060246FABIAN NORBERTO D´ERAMO                                                              
320121130000001FABIAN NORBERTO D´ERAMO                                                                                          
50000110201211292012113057010425133916       PES0000015000A064442012112812030113                                                
6024600015000123335701042513391600000000042                                                                                     
7PESE                                                                                000000000015000                            
50000210201211292012113099100136808106       PES0000150000A034162012112817510076                                                
6024600150000123369910013680810600000000058                                                                                     
7PESE                                                                                000000000150000                            
50000310201211292012113073000446709156       PES0000009500A099652012112918250155                                                
6024600009500123357300044670915600000000084                                                                                     
7PESE                                                                                000000000009500                            
50000410201211292012113059010133597199       PES0000011000A099542012112915310144                                                
6024600011000123355901013359719900000000063                                                                                     
7PESE                                                                                000000000011000                            
50000510201211292012113073000127292766       PES0000012000A076412012112918280074                                                
6024600012000123397300012729276600030000078                                                                                     
7PESE                                                                                000000000012000                            
50000610201211292012113073000125929383       PES0000012000A060492012112920030081                                                
6024600012000123407300012592938300030000063                                                                                     
7PESE                                                                                000000000012000                            
50000710201211292012113073000128172243       PES0000012000A045532012112918010031                                                
6024600012000123417300012817224300030000090                                                                                     
7PESE                                                                                000000000012000                            
50000810201211292012113073000133323997       PES0000012000A067112012112917360032                                                
6024600012000123417300013332399700030000037                                                                                     
7PESE                                                                                000000000012000                            
50000910201211292012113029080134444261       PES0000015000A620372012112910520008                                                
6024600015000123352908013444426100030007363                                                                                     
7PESE                                                                                000000000015000                            
50001010201211292012113029080321539631       PES0000015000A091882012112910500088                                                
6024600015000123352908032153963100030007342                                                                                     
7PESE                                                                                000000000015000                            
50001110201211292012113098010127528554       PES0000015000D000382012112913160057                                                
6024600015000123359801012752855400000000079                                                                                     
7PESE                                                                                000000000015000                            
50001210201211292012113069010827616835       PES0000020000A037752012112909400070                                                
6024600017500123306901082761683500025000521                                                                                     
7PESE                                                                                000000000020000                            
50001310201211292012113069012717747436       PES0000020000A025052012112913030069                                                
6024600017500123306901271774743600025000421                                                                                     
7PESE                                                                                000000000020000                            
50001410201211292012113069011433155011       PES0000020000A118832012112917020080                                                
6024600020000123356901143315501100000000063                                                                                     
7PESE                                                                                000000000020000                            
50001510201211292012113069012331428081       PES0000020000A061432012112911430162                                                
6024600020000123356901233142808100000000042                                                                                     
7PESE                                                                                000000000020000                            
50001610201211292012113002422718483011       PES0000022000M600572012112913080077                                                
6024600022000123400242271848301100060000163                                                                                     
7PESE                                                                                000000000022000                            
50001710201211292012113029081321787976       PES0000023000A091122012112910360039                                                
6024600023000123342908132178797600020000063                                                                                     
7PESE                                                                                000000000023000                            
50001810201211292012113000772525289316       PES0000025500A095852012112909410026                                                
6024600025500123340077252528931600030000079                                                                                     
7PESE                                                                                000000000025500                            
50001910201211292012113000772717747436       PES0000025500A025052012112913020068                                                
6024600025500123340077271774743600030000063                                                                                     
7PESE                                                                                000000000025500                            
50002010201211292012113000774422799667       PES0000025500A025052012112915290001                                                
6024600025500123340077442279966700030000084                                                                                     
7PESE                                                                                000000000025500                            
50002110201211292012113000771913664272       PES0000025500A104982012112917590140                                                
6024600025500123350077191366427200030007515                                                                                     
7PESE                                                                                000000000025500                            
50002210201211292012113000771914959320       PES0000025500D001462012112915260222                                                
6024600025500123350077191495932000030007437                                                                                     
7PESE                                                                                000000000025500                            
50002310201211292012113000772234435086       PES0000025500D000492012112920320216                                                
6024600025500123350077223443508600030007521                                                                                     
7PESE                                                                                000000000025500                            
50002410201211292012113000772332437115       PES0000025500A069092012112917490106                                                
6024600025500123350077233243711500030007542                                                                                     
7PESE                                                                                000000000025500                            
50002510201211292012113000772524308655       PES0000025500A092162012112912130119                                                
6024600025500123350077252430865500030007442                                                                                     
7PESE                                                                                000000000025500                            
50002610201211292012113000772813527653       PES0000025500D001462012112915260223                                                
6024600025500123350077281352765300030007436                                                                                     
7PESE                                                                                000000000025500                            
50002710201211292012113000773108093434       PES0000025500A107292012112913100145                                                
6024600025500123350077310809343400030007563                                                                                     
7PESE                                                                                000000000025500                            
50002810201211292012113000773442886348       PES0000025500A025872012112913300181                                                
6024600025500123350077344288634800030007615                                                                                     
7PESE                                                                                000000000025500                            
50002910201211292012113000773821777365       PES0000025500A112752012112916410114                                                
6024600025500123350077382177736500030000063                                                                                     
7PESE                                                                                000000000025500                            
50003010201211292012113000773821989065       PES0000025500A091672012112914320179                                                
6024600025500123350077382198906500030007463                                                                                     
7PESE                                                                                000000000025500                            
50003110201211292012113000773913978520       PES0000025500A049072012112917510281                                                
6024600025500123350077391397852000030007421                                                                                     
7PESE                                                                                000000000025500                            
50003210201211292012113000774040796866       PES0000025500A112752012112916400113                                                
6024600025500123350077404079686600030000063                                                                                     
7PESE                                                                                000000000025500                            
50003310201211292012113000774041875286       PES0000025500A025872012112913300180                                                
6024600025500123350077404187528600030007684                                                                                     
7PESE                                                                                000000000025500                            
50003410201211292012113002420425452478       PES0000032000A089882012112909430034                                                
6024600032000123400242042545247800080000042                                                                                     
7PESE                                                                                000000000032000                            
50003510201211292012113002420520518886       PES0000032000M601892012112912230059                                                
6024600032000123400242052051888600080000142                                                                                     
7PESE                                                                                000000000032000                            
50003610201211292012113001331327771883       PES0000052000A085542012112912260055                                                
6024600052000123340133132777188300080000057                                                                                     
7PESE                                                                                000000000052000                            
50003710201211292012113099100133380040       PES0000150000A036692012112911430076                                                
6024600150000123369910013338004000000000036                                                                                     
7PESE                                                                                000000000150000                            
50003810201211292012113099100136157259       PES0000150000M601212012112913010097                                                
6024600150000123369910013615725900000000037                                                                                     
7PESE                                                                                000000000150000                            
50003910201211292012113099100138071739       PES0000150000A046792012112918510233                                                
6024600150000123369910013807173900000000042                                                                                     
7PESE                                                                                000000000150000                            
82012113000000100000390000013775000000000000000000000000000000000000000000039                                                   
9201211300000010000039000001377500000000000000000000000000000000000000000000039                                                 
