120120130PAGO FACIL               090060246FABIAN NORBERTO D´ERAMO                                                              
320120130000001FABIAN NORBERTO D´ERAMO                                                                                          
50000110201201272012013099030235428838       PES0000036980A025642012012713090075                                                
6024600036980120309903023542883800000800063                                                                                     
7PESE                                                                                000000000036980                            
50000210201201272012013053010525056322       PES0000006000A042332012012711340023                                                
6024600006000120345301052505632200015000037                                                                                     
7PESE                                                                                000000000006000                            
50000310201201272012013029070318777179       PES0000010000A081592012012710500047                                                
6024600010000120322907031877717900000000084                                                                                     
7PESE                                                                                000000000010000                            
50000410201201272012013029070130745925       PES0000010000A079552012012716230132                                                
6024600010000120282907013074592500000000021                                                                                     
7PESE                                                                                000000000010000                            
50000510201201272012013099030237278168       PES0000043000A078942012012712240009                                                
6024600043000120309903023727816800000000084                                                                                     
7PESE                                                                                000000000043000                            
50000610201201272012013029070413629526       PES0000010000A000622012012717550153                                                
6024600010000120302907041362952600000000058                                                                                     
7PESE                                                                                000000000010000                            
50000710201201272012013023060325619662       PES0000121600A106502012012711340106                                                
6024600121600120312306032561966200000000084                                                                                     
7PESE                                                                                000000000121600                            
50000810201201272012013000600714371454       PES0000025000A076112012012717510009                                                
6024600025000120310060071437145400040007216                                                                                     
7PESE                                                                                000000000025000                            
50000910201201272012013023061924254364       PES0000136600A077902012012711280131                                                
6024600136600120312306192425436400000000042                                                                                     
7PESE                                                                                000000000136600                            
50001010201201272012013023061837675530       PES0000136600M602002012012711030011                                                
6024600136600120282306183767553000000000058                                                                                     
7PESE                                                                                000000000136600                            
50001110201201282012013000600326496017       PES0000025000A073472012012810170014                                                
6024600025000120310060032649601700040007216                                                                                     
7PESE                                                                                000000000025000                            
50001210201201282012013029070725705063       PES0000010000A088612012012821030285                                                
6024600010000120302907072570506300000000042                                                                                     
7PESE                                                                                000000000010000                            
82012013000000100000120000005707800000000000000000000000000000000000000000012                                                   
9201201300000010000012000000570780000000000000000000000000000000000000000000012                                                 
