120120330PAGO FACIL               090060246FABIAN NORBERTO D´ERAMO                                                              
320120330000001FABIAN NORBERTO D´ERAMO                                                                                          
50000110201203292012033000704420005451       PES0000020000A085562012032914450157                                                
6024600020000120890070442000545100020000057                                                                                     
7PESE                                                                                000000000020000                            
50000210201203292012033056000521988063       PES0000025000A059302012032915570003                                                
6024600025000120915600052198806300050007458                                                                                     
7PESE                                                                                000000000025000                            
50000310201203292012033056001035070700       PES0000025000A076762012032918080030                                                
6024600025000120915600103507070000050007200                                                                                     
7PESE                                                                                000000000025000                            
82012033000000100000030000000700000000000000000000000000000000000000000000003                                                   
9201203300000010000003000000070000000000000000000000000000000000000000000000003                                                 
