120121030PAGO FACIL               090060246FABIAN NORBERTO D´ERAMO                                                              
320121030000001FABIAN NORBERTO D´ERAMO                                                                                          
50000110201210292012103065000516589081       PES0000013000A601492012102612460032                                                
6024600013000123026500051658908100000000036                                                                                     
7PESE                                                                                000000000013000                            
50000210201210292012103065000217743797       PES0000013000A601492012102612460033                                                
6024600013000123026500021774379700000000000                                                                                     
7PESE                                                                                000000000013000                            
50000310201210292012103052012014751287       PES0000010000A063662012102917310056                                                
6024600010000123055201201475128700010007458                                                                                     
7PESE                                                                                000000000010000                            
50000410201210292012103071000514751287       PES0000010000A063662012102917310055                                                
6024600010000123107100051475128700000000084                                                                                     
7PESE                                                                                000000000010000                            
50000510201210292012103065000134975810       PES0000013000A014522012102916170284                                                
6024600013000123066500013497581000000000016                                                                                     
7PESE                                                                                000000000013000                            
50000610201210292012103065000433309400       PES0000013000A077352012102912230010                                                
6024600013000123076500043330940000000000078                                                                                     
7PESE                                                                                000000000013000                            
50000710201210292012103065000526666804       PES0000013000A050522012102916220089                                                
6024600013000123076500052666680400000000063                                                                                     
7PESE                                                                                000000000013000                            
50000810201210292012103069012428871803       PES0000015000A116102012102911150068                                                
6024600015000123056901242887180300025000084                                                                                     
7PESE                                                                                000000000015000                            
50000910201210292012103069012622765272       PES0000015000L070082012102917286703                                                
6024600015000123066901262276527200025000158                                                                                     
7PESE                                                                                000000000015000                            
50001010201210292012103018410814945162       PES0000020000A074192012102916240255                                                
6024600020000123031841081494516200050000036                                                                                     
7PESE                                                                                000000000020000                            
50001110201210292012103018411624448461       PES0000020000A092092012102914390145                                                
6024600020000123031841162444846100050000078                                                                                     
7PESE                                                                                000000000020000                            
50001210201210292012103018410525983384       PES0000020000A039232012102916270082                                                
6024600020000123041841052598338400050000084                                                                                     
7PESE                                                                                000000000020000                            
50001310201210292012103018410622410231       PES0000020000A063972012102916210034                                                
6024600020000123041841062241023100050000021                                                                                     
7PESE                                                                                000000000020000                            
50001410201210292012103000751818155030       PES0000022500A081062012102916020164                                                
6024600022500123050075181815503000020007157                                                                                     
7PESE                                                                                000000000022500                            
50001510201210292012103000752525708290       PES0000022500A087612012102910310004                                                
6024600022500123050075252570829000020007315                                                                                     
7PESE                                                                                000000000022500                            
50001610201210292012103000753226399293       PES0000022500A091772012102917170291                                                
6024600022500123050075322639929300020007400                                                                                     
7PESE                                                                                000000000022500                            
50001710201210292012103001331424083626       PES0000052000A098912012102912510088                                                
6024600052000123010133142408362600080000084                                                                                     
7PESE                                                                                000000000052000                            
50001810201210292012103001331426583639       PES0000052000A091672012102910290009                                                
6024600052000123030133142658363900080000036                                                                                     
7PESE                                                                                000000000052000                            
50001910201210292012103001331713944300       PES0000052000L070072012102912250344                                                
6024600052000123030133171394430000080000021                                                                                     
7PESE                                                                                000000000052000                            
50002010201210292012103001331328649665       PES0000052000A027802012102915000074                                                
6024600052000123040133132864966500080000015                                                                                     
7PESE                                                                                000000000052000                            
50002110201210292012103001331425983384       PES0000052000A039232012102916270083                                                
6024600052000123040133142598338400080000000                                                                                     
7PESE                                                                                000000000052000                            
50002210201210292012103001331425731586       PES0000052000A064332012102919030023                                                
6024600052000123050133142573158600080000063                                                                                     
7PESE                                                                                000000000052000                            
50002310201210292012103001331714101309       PES0000052000A114742012102914590110                                                
6024600052000123050133171410130900080000063                                                                                     
7PESE                                                                                000000000052000                            
50002410201210292012103001331713940933       PES0000052000M601812012102913570054                                                
6024600052000123070133171394093300080000058                                                                                     
7PESE                                                                                000000000052000                            
50002510201210292012103001331425174370       PES0000052000A100372012102910330068                                                
6024600052000123090133142517437000080000000                                                                                     
7PESE                                                                                000000000052000                            
50002610201210292012103001331713521452       PES0000052000A106112012102913290003                                                
6024600052000123090133171352145200080000057                                                                                     
7PESE                                                                                000000000052000                            
50002710201210292012103001331423789831       PES0000052000M620032012102917180168                                                
6024600052000123100133142378983100080000021                                                                                     
7PESE                                                                                000000000052000                            
82012103000000100000270000008345000000000000000000000000000000000000000000027                                                   
9201210300000010000027000000834500000000000000000000000000000000000000000000027                                                 
