120110530PAGO FACIL               090060246FABIAN NORBERTO D´ERAMO                                                              
320110530000001FABIAN NORBERTO D´ERAMO                                                                                          
50000110201105272011053048011220244665       PES0000020000A103302011052709290019                                                
6024600020000111534801122024466500000000000                                                                                     
7PESE                                                                                000000000020000                            
50000210201105272011053099020134998991       PES0000015000A000492011052716590034                                                
6024600015000111509902013499899100000000021                                                                                     
7PESE                                                                                000000000015000                            
50000310201105282011053048010539611146       PES0000020000A061692011052811460014                                                
6024600020000111514801053961114600000000063                                                                                     
7PESE                                                                                000000000020000                            
50000410201105282011053048011221402476       PES0000020000A094312011052809380001                                                
6024600020000111504801122140247600000000021                                                                                     
7PESE                                                                                000000000020000                            
82011053000000100000040000000750000000000000000000000000000000000000000000004                                                   
9201105300000010000004000000075000000000000000000000000000000000000000000000004                                                 
