120120131PAGO FACIL               090060246FABIAN NORBERTO D´ERAMO                                                              
320120131000001FABIAN NORBERTO D´ERAMO                                                                                          
50000110201201302012013129070317935764       PES0000010000A620272012013012330033                                                
6024600010000120312907031793576400000000084                                                                                     
7PESE                                                                                000000000010000                            
50000210201201302012013129070224797827       PES0000010000A049542012013019060240                                                
6024600010000120332907022479782700000000000                                                                                     
7PESE                                                                                000000000010000                            
50000310201201302012013129070224797833       PES0000010000A049542012013019060241                                                
6024600010000120332907022479783300000000016                                                                                     
7PESE                                                                                000000000010000                            
50000410201201302012013129070317900017       PES0000010000A091772012013015480352                                                
6024600010000120332907031790001700000000015                                                                                     
7PESE                                                                                000000000010000                            
50000510201201302012013129070410419741       PES0000010000A049542012013019040238                                                
6024600010000120332907041041974100000000090                                                                                     
7PESE                                                                                000000000010000                            
50000610201201302012013129070411293384       PES0000010000A035802012013015040283                                                
6024600010000120332907041129338400000000058                                                                                     
7PESE                                                                                000000000010000                            
50000710201201302012013129070412665777       PES0000010000A049542012013019050239                                                
6024600010000120332907041266577700000000090                                                                                     
7PESE                                                                                000000000010000                            
50000810201201302012013129070725965285       PES0000010000A023702012013013450102                                                
6024600010000120332907072596528500000000021                                                                                     
7PESE                                                                                000000000010000                            
50000910201201302012013100682006513166       PES0000019000A098862012013010390055                                                
6024600019000120370068200651316600020000084                                                                                     
7PESE                                                                                000000000019000                            
50001010201201302012013118370330193610       PES0000020000L120262012013011432075                                                
6024600020000120301837033019361000000000037                                                                                     
7PESE                                                                                000000000020000                            
50001110201201302012013100600424001544       PES0000025000A041342012013011250004                                                
6024600025000120310060042400154400040007599                                                                                     
7PESE                                                                                000000000025000                            
50001210201201302012013100600520502863       PES0000025000A085792012013020270148                                                
6024600025000120310060052050286300040007142                                                                                     
7PESE                                                                                000000000025000                            
50001310201201302012013100600522090793       PES0000025000D000462012013017480048                                                
6024600025000120310060052209079300040007257                                                                                     
7PESE                                                                                000000000025000                            
50001410201201302012013100600712862198       PES0000025000M620002012013013500059                                                
6024600025000120310060071286219800040007100                                                                                     
7PESE                                                                                000000000025000                            
50001510201201302012013123060725859255       PES0000121600M620642012013014080835                                                
6024600121600120312306072585925500000000099                                                                                     
7PESE                                                                                000000000121600                            
50001610201201302012013123061023906553       PES0000121600A072352012013012470213                                                
6024600121600120312306102390655300000000015                                                                                     
7PESE                                                                                000000000121600                            
50001710201201302012013123061026662598       PES0000121600M620032012013009540021                                                
6024600121600120312306102666259800000000090                                                                                     
7PESE                                                                                000000000121600                            
50001810201201302012013123061028207614       PES0000121600A081802012013013090065                                                
6024600121600120312306102820761400000000079                                                                                     
7PESE                                                                                000000000121600                            
50001910201201302012013123061924690602       PES0000136600A075402012013012110293                                                
6024600136600120302306192469060200000000015                                                                                     
7PESE                                                                                000000000136600                            
50002010201201302012013123061325654390       PES0000136600A092252012013017080349                                                
6024600136600120312306132565439000000000042                                                                                     
7PESE                                                                                000000000136600                            
50002110201201302012013123061330394987       PES0000136600A075022012013016570073                                                
6024600136600120312306133039498700000000037                                                                                     
7PESE                                                                                000000000136600                            
50002210201201302012013123061730680350       PES0000136600A081352012013014160186                                                
6024600136600120312306173068035000000000021                                                                                     
7PESE                                                                                000000000136600                            
82012013100000100000220000012518000000000000000000000000000000000000000000022                                                   
9201201310000010000022000001251800000000000000000000000000000000000000000000022                                                 
