120121231PAGO FACIL               090060246FABIAN NORBERTO D´ERAMO                                                              
320121231000001FABIAN NORBERTO D´ERAMO                                                                                          
50000110201212282012123102421328463263       PES0000047500A009562012122811590174                                                
6024600047500130030242132846326300000000063                                                                                     
7PESE                                                                                000000000047500                            
50000210201212282012123102422712692321       PES0000035000A097432012122812440312                                                
6024600035000130050242271269232100000000078                                                                                     
7PESE                                                                                000000000035000                            
50000310201212282012123172010526553546       PES0000017800A091662012122815530371                                                
6024600017800130037201052655354600000000042                                                                                     
7PESE                                                                                000000000017800                            
50000410201212282012123102420616768842       PES0000047500A092052012122813200216                                                
6024600047500130030242061676884200000000037                                                                                     
7PESE                                                                                000000000047500                            
50000510201212282012123102423893754951       PES0000047500D001132012122812460120                                                
6024600047500130050242389375495100000000037                                                                                     
7PESE                                                                                000000000047500                            
50000610201212282012123129080411450952       PES0000018000A092062012122817460547                                                
6024600018000130052908041145095200000000063                                                                                     
7PESE                                                                                000000000018000                            
50000710201212282012123199030238066579       PES0000043000D000152012122811540128                                                
6024600043000123659903023806657900000000021                                                                                     
7PESE                                                                                000000000043000                            
50000810201212282012123129080729257595       PES0000018000A078822012122815590205                                                
6024600018000130052908072925759500000000000                                                                                     
7PESE                                                                                000000000018000                            
50000910201212282012123102420326943965       PES0000047500D000272012122815580173                                                
6024600047500123650242032694396500000000015                                                                                     
7PESE                                                                                000000000047500                            
50001010201212282012123102420716185815       PES0000047500D000882012122814400260                                                
6024600047500130040242071618581500000000099                                                                                     
7PESE                                                                                000000000047500                            
50001110201212282012123172010591010630       PES0000017800A102862012122815210085                                                
6024600017800123647201059101063000000000079                                                                                     
7PESE                                                                                000000000017800                            
50001210201212282012123129080322870074       PES0000018000A109842012122817230230                                                
6024600018000123642908032287007400000000021                                                                                     
7PESE                                                                                000000000018000                            
50001310201212282012123129081320054966       PES0000025000A116412012122815130103                                                
6024600025000130042908132005496600000000099                                                                                     
7PESE                                                                                000000000025000                            
50001410201212282012123129080508505321       PES0000018000A116412012122815130104                                                
6024600018000130042908050850532100000000042                                                                                     
7PESE                                                                                000000000018000                            
50001510201212282012123129080320118184       PES0000018000A104162012122815080115                                                
6024600018000123632908032011818400000000079                                                                                     
7PESE                                                                                000000000018000                            
50001610201212282012123102420425676474       PES0000047500A087932012122819360111                                                
6024600047500130050242042567647400000000021                                                                                     
7PESE                                                                                000000000047500                            
50001710201212282012123102422339461714       PES0000035000A120362012122819050063                                                
6024600035000123630242233946171400000000037                                                                                     
7PESE                                                                                000000000035000                            
50001810201212282012123129080507661499       PES0000018000A118612012122818570222                                                
6024600018000130052908050766149900000000021                                                                                     
7PESE                                                                                000000000018000                            
50001910201212282012123102420426496017       PES0000047500A062712012122819410230                                                
6024600047500130030242042649601700000000000                                                                                     
7PESE                                                                                000000000047500                            
50002010201212282012123173000349822350       PES0000009500A115462012122818590115                                                
6024600009500130047300034982235000000000042                                                                                     
7PESE                                                                                000000000009500                            
50002110201212282012123172010522939679       PES0000017800A060622012122820090286                                                
6024600017800123647201052293967900000000063                                                                                     
7PESE                                                                                000000000017800                            
50002210201212282012123129081322756575       PES0000025000M620732012122811030060                                                
6024600025000130052908132275657500000000015                                                                                     
7PESE                                                                                000000000025000                            
50002310201212282012123129081133261186       PES0000025000M620942012122811270063                                                
6024600025000123642908113326118600000000000                                                                                     
7PESE                                                                                000000000025000                            
50002410201212282012123172010327017628       PES0000015800M790002012122813500321                                                
6024600015800123637201032701762800000000042                                                                                     
7PESE                                                                                000000000015800                            
50002510201212292012123199030136359657       PES0000053500A035802012122912130099                                                
6024600053500130019903013635965700000000063                                                                                     
7PESE                                                                                000000000053500                            
50002610201212292012123172010414004094       PES0000015700A094892012122911500122                                                
6024600015700130027201041400409400000000079                                                                                     
7PESE                                                                                000000000015700                            
50002710201212292012123172010417722148       PES0000015700A094892012122911500123                                                
6024600015700130027201041772214800000000063                                                                                     
7PESE                                                                                000000000015700                            
50002810201212292012123102420521459111       PES0000047500A113812012122918320056                                                
6024600047500130050242052145911100000000099                                                                                     
7PESE                                                                                000000000047500                            
50002910201212292012123102420616525485       PES0000047500A016702012122910190010                                                
6024600047500130050242061652548500000000042                                                                                     
7PESE                                                                                000000000047500                            
50003010201212292012123102421231951186       PES0000047500A034312012122918540205                                                
6024600047500130050242123195118600000000099                                                                                     
7PESE                                                                                000000000047500                            
50003110201212292012123173000120649996       PES0000019000A076402012122921350084                                                
6024600019000130047300012064999600000000021                                                                                     
7PESE                                                                                000000000019000                            
50003210201212292012123129081724137310       PES0000025000L070142012122912427830                                                
6024600025000130032908172413731000000000000                                                                                     
7PESE                                                                                000000000025000                            
50003310201212292012123102421425872263       PES0000047500M700012012122910590016                                                
6024600047500130020242142587226300000000063                                                                                     
7PESE                                                                                000000000047500                            
50003410201212302012123129080317385262       PES0000018000A071582012123015030005                                                
6024600018000130032908031738526200000000057                                                                                     
7PESE                                                                                000000000018000                            
82012123100000100000340000010441000000000000000000000000000000000000000000034                                                   
9201212310000010000034000001044100000000000000000000000000000000000000000000034                                                 
