120111031PAGO FACIL               090060246FABIAN NORBERTO D´ERAMO                                                              
320111031000001FABIAN NORBERTO D´ERAMO                                                                                          
50000110201110282011103100532714951459       PES0000031000A095272011102810210016                                                
6024600031000113010053271495145900000000079                                                                                     
7PESE                                                                                000000000031000                            
50000210201110282011103129060226109369       PES0000010000A058482011102810520040                                                
6024600010000113082906022610936900030000042                                                                                     
7PESE                                                                                000000000010000                            
50000310201110282011103100573322099547       PES0000020000A076782011102811570038                                                
6024600020000113030057332209954700020007384                                                                                     
7PESE                                                                                000000000020000                            
50000410201110282011103101290716768842       PES0000037000A056902011102813340051                                                
6024600037000113080129071676884200000000042                                                                                     
7PESE                                                                                000000000037000                            
50000510201110282011103100504420737105       PES0000027500A074942011102808460008                                                
6024600027500113010050442073710500000000084                                                                                     
7PESE                                                                                000000000027500                            
50000610201110282011103118340523329287       PES0000020000A001342011102814470052                                                
6024600020000113011834052332928700000000016                                                                                     
7PESE                                                                                000000000020000                            
50000710201110282011103100530232743409       PES0000039500A601482011102814050084                                                
6024600039500113010053023274340900000000079                                                                                     
7PESE                                                                                000000000039500                            
50000810201110282011103101290332743409       PES0000037000A601482011102814050085                                                
6024600037000113080129033274340900000000042                                                                                     
7PESE                                                                                000000000037000                            
50000910201110282011103100530713754992       PES0000039500A091772011102813030231                                                
6024600039500113010053071375499200000000021                                                                                     
7PESE                                                                                000000000039500                            
50001010201110282011103100533821089510       PES0000031000A072002011102817360022                                                
6024600031000113010053382108951000000000090                                                                                     
7PESE                                                                                000000000031000                            
50001110201110282011103129060411450952       PES0000010000D000312011102811070026                                                
6024600010000113042906041145095200030000084                                                                                     
7PESE                                                                                000000000010000                            
50001210201110282011103146060839608680       PES0000040000A074432011102811060002                                                
6024600040000113084606083960868000080000021                                                                                     
7PESE                                                                                000000000040000                            
50001310201110282011103146060139161172       PES0000040000A074432011102811060003                                                
6024600040000113084606013916117200080000099                                                                                     
7PESE                                                                                000000000040000                            
50001410201110282011103146060232865238       PES0000040000A074432011102811060004                                                
6024600040000113084606023286523800080000084                                                                                     
7PESE                                                                                000000000040000                            
50001510201110282011103146061016264161       PES0000040000A074432011102811060005                                                
6024600040000113074606101626416100080000015                                                                                     
7PESE                                                                                000000000040000                            
50001610201110282011103100530231433307       PES0000039500A103662011102816350061                                                
6024600039500113010053023143330700000000063                                                                                     
7PESE                                                                                000000000039500                            
50001710201110282011103101290813724109       PES0000037000A017122011102817370015                                                
6024600037000113080129081372410900000000099                                                                                     
7PESE                                                                                000000000037000                            
50001810201110282011103101290813908389       PES0000037000A103132011102816340025                                                
6024600037000113060129081390838900000000036                                                                                     
7PESE                                                                                000000000037000                            
50001910201110282011103100502522913035       PES0000027500A013222011102817470006                                                
6024600027500113010050252291303500000000000                                                                                     
7PESE                                                                                000000000027500                            
50002010201110282011103100585422782997       PES0000018500A046092011102808240010                                                
6024600018500113030058542278299700040007321                                                                                     
7PESE                                                                                000000000018500                            
50002110201110282011103100504329511230       PES0000027500A085232011102818260125                                                
6024600027500113010050432951123000000000037                                                                                     
7PESE                                                                                000000000027500                            
50002210201110282011103100574418148235       PES0000020000A077512011102811510039                                                
6024600020000113030057441814823500020007315                                                                                     
7PESE                                                                                000000000020000                            
50002310201110282011103118340813824861       PES0000020000A085792011102813240123                                                
6024600020000113011834081382486100000000042                                                                                     
7PESE                                                                                000000000020000                            
50002410201110282011103118340524716330       PES0000020000A085792011102813260124                                                
6024600020000113011834052471633000000000084                                                                                     
7PESE                                                                                000000000020000                            
50002510201110282011103100533728395493       PES0000031000A025052011102816350011                                                
6024600031000113010053372839549300000000063                                                                                     
7PESE                                                                                000000000031000                            
50002610201110282011103100533731295982       PES0000031000A025052011102816350012                                                
6024600031000113010053373129598200000000058                                                                                     
7PESE                                                                                000000000031000                            
50002710201110282011103118342528488822       PES0000020000A077612011102812120004                                                
6024600020000113011834252848882200000000058                                                                                     
7PESE                                                                                000000000020000                            
50002810201110282011103118340426626270       PES0000020000A095352011102817480066                                                
6024600020000113011834042662627000000000079                                                                                     
7PESE                                                                                000000000020000                            
50002910201110282011103100530230699962       PES0000039500A059362011102819010094                                                
6024600039500113010053023069996200000000042                                                                                     
7PESE                                                                                000000000039500                            
50003010201110282011103100532526401820       PES0000031000A043482011102819320142                                                
6024600031000113010053252640182000000000063                                                                                     
7PESE                                                                                000000000031000                            
50003110201110282011103100534031951186       PES0000031000A043472011102818300096                                                
6024600031000113010053403195118600000000000                                                                                     
7PESE                                                                                000000000031000                            
50003210201110282011103100530230575153       PES0000039500A037752011102818040104                                                
6024600039500113010053023057515300000000099                                                                                     
7PESE                                                                                000000000039500                            
50003310201110282011103100530521832573       PES0000039500A014502011102818340152                                                
6024600039500113010053052183257300000000021                                                                                     
7PESE                                                                                000000000039500                            
50003410201110282011103100530616876234       PES0000039500M601162011102813170134                                                
6024600039500113010053061687623400000000015                                                                                     
7PESE                                                                                000000000039500                            
50003510201110282011103100530616739627       PES0000039500M601162011102813180135                                                
6024600039500113010053061673962700000000042                                                                                     
7PESE                                                                                000000000039500                            
50003610201110282011103100530424595615       PES0000039500M601502011102811150003                                                
6024600039500113010053042459561500000000057                                                                                     
7PESE                                                                                000000000039500                            
50003710201110282011103100530425300256       PES0000039500M620412011102810540009                                                
6024600039500113010053042530025600000000078                                                                                     
7PESE                                                                                000000000039500                            
50003810201110282011103100530424040963       PES0000039500M620412011102810540010                                                
6024600039500113010053042404096300000000037                                                                                     
7PESE                                                                                000000000039500                            
50003910201110282011103100533816317125       PES0000031000M600852011102810580038                                                
6024600031000113010053381631712500000000042                                                                                     
7PESE                                                                                000000000031000                            
50004010201110282011103100533326321831       PES0000031000A035982011102814060041                                                
6024600031000113010053332632183100000000000                                                                                     
7PESE                                                                                000000000031000                            
50004110201110292011103100572911848670       PES0000020000A028472011102909320002                                                
6024600020000113030057291184867000020007442                                                                                     
7PESE                                                                                000000000020000                            
50004210201110292011103100582911848670       PES0000018500A028472011102911130050                                                
6024600018500113030058291184867000040007579                                                                                     
7PESE                                                                                000000000018500                            
50004310201110292011103129060725467108       PES0000010000A099752011102911410033                                                
6024600010000113092906072546710800030000084                                                                                     
7PESE                                                                                000000000010000                            
50004410201110292011103152000330981753       PES0000008000A100322011102911290012                                                
6024600008000113035200033098175300010000037                                                                                     
7PESE                                                                                000000000008000                            
50004510201110292011103100583008529149       PES0000018500A111392011102920340043                                                
6024600018500113030058300852914900040007378                                                                                     
7PESE                                                                                000000000018500                            
50004610201110292011103100582332252524       PES0000018500A025052011102919060091                                                
6024600018500113030058233225252400040007542                                                                                     
7PESE                                                                                000000000018500                            
50004710201110302011103100582620226948       PES0000018500D001472011103012360133                                                
6024600018500113030058262022694800040007600                                                                                     
7PESE                                                                                000000000018500                            
50004810201110302011103100585328950859       PES0000018500A033472011103011520095                                                
6024600018500113030058532895085900040007563                                                                                     
7PESE                                                                                000000000018500                            
50004910201110302011103100585423873617       PES0000018500A033472011103011540098                                                
6024600018500113030058542387361700040007642                                                                                     
7PESE                                                                                000000000018500                            
50005010201110302011103100575328950859       PES0000020000A033472011103011530096                                                
6024600020000113030057532895085900020007578                                                                                     
7PESE                                                                                000000000020000                            
50005110201110302011103100575423873617       PES0000020000A033472011103011540097                                                
6024600020000113030057542387361700020007642                                                                                     
7PESE                                                                                000000000020000                            
82011103100000100000510000014405000000000000000000000000000000000000000000051                                                   
9201110310000010000051000001440500000000000000000000000000000000000000000000051                                                 
