00000000MARITIMO S.R.L.     20160929COBRANZAS RAPIPAGO                   
20160929000000000094500024600094500162740069694073299900000000000        
20160929000000000070000024600070000162771849131433956300000000021        
20160929000000000089000024600089000162731707072408944600000000021        
20160929000000000101000024600101000162747909101308010700155000079        
20160929000000000101000024600101000162787909091698880000155000058        
20160929000000000089000024600089000162731707043368660600000000058        
20160929000000000089000024600089000162731707062607294000000000090        
20160929000000000058000024600058000162741002033748125800120007690        
9999999900000008000000000000691500                                       
