00000000MARITIMO S.R.L.     20180701COBRANZAS RAPIPAGO                   
20180701000000000034300024600034300181878220013090874700032000037        
20180701000000000034300024600034300181878220023172323900032000063        
9999999900000002000000000000068600                                       
