00000000MARITIMO S.R.L.     20170401COBRANZAS RAPIPAGO                   
20170401000000000140000024600140000170970058584087075100095000042        
9999999900000001000000000000140000                                       
