00000000MARITIMO S.R.L.     20180501COBRANZAS RAPIPAGO                   
20180501000000000053600024600053600181221851272959004900000000099        
9999999900000001000000000000053600                                       
