00000000MARITIMO S.R.L.     20180601COBRANZAS RAPIPAGO                   
20180601000000000192500024600192500181550087873900054300132000058        
20180601000000000072900024600072900181548219222634623400000000079        
20180601000000000052500024600052500181548219043101818900000000084        
20180601000000000052500024600052500181548219062478537900000000084        
20180601000000000034300024600034300181548219014366004100000000057        
20180601000000000050000024600050000181539946013060350100000000063        
20180601000000000150000024600150000181570117114094161200000000084        
20180601000000000052500024600052500181548219260549539900000000090        
20180601000000000150000024600150000181580117113558843500000000016        
20180601000000000192500024600192500181580087874191443300132000142        
9999999900000010000000000000999700                                       
