00000000MARITIMO S.R.L.     20180301COBRANZAS RAPIPAGO                   
20180301000000000220000024600220000180670082824166882600000000037        
9999999900000001000000000000220000                                       
