00000000MARITIMO S.R.L.     20170801COBRANZAS RAPIPAGO                   
20170801000000000175000024600175000172190077773946406500120000199        
20170801000000000175000024600175000172190077773540594100120000037        
20170801000000000020000024600020000172177604081696266300000000099        
9999999900000003000000000000370000                                       
