00000000MARITIMO S.R.L.     20170901COBRANZAS RAPIPAGO                   
20170901000000000080000024600080000172491708091684084600150000079        
20170901000000000117000024600117000172510090904087082400000000015        
20170901000000000145000024600145000172517912091849519800265000021        
20170901000000000123500024600123500172510096963301748400000000042        
20170901000000000200000024600200000172510077773301748400000000063        
20170901000000000117000024600117000172510091913301748400000000063        
20170901000000000080000024600080000172461708072386383900150000000        
20170901000000000123500024600123500172490096963703872500000000000        
9999999900000008000000000000986000                                       
