00000000MARITIMO S.R.L.     20180801COBRANZAS RAPIPAGO                   
20180801000000000053500024600053500182138220162397065100000000000        
20180801000000000053500024600053500182138220133835198100000000063        
20180801000000000053500024600053500182138220143090542100000000016        
20180801000000000053500024600053500182138220234154084500000000063        
20180801000000000072800024600072800182138220273029579700000000084        
20180801000000000025000024600025000182147605101168599100000000078        
20180801000000000072800024600072800182138220274339383000000000084        
20180801000000000240000024600240000182190102103891655500120000179        
20180801000000000053500024600053500182138220062371710700000000000        
20180801000000000240000024600240000182190102104113402200120000115        
20180801000000000240000024600240000182190102103849304200120000184        
20180801000000000025000024600025000182207605062510145400000000057        
20180801000000000053500024600053500182138220072291554900000000036        
20180801000000000053500024600053500182138220081720932400000000015        
20180801000000000053500024600053500182138220072360669600000000084        
20180801000000000053500024600053500182138220181788077100000000084        
20180801000000000240000024600240000182190102103939109800120000163        
9999999900000017000000000001637100                                       
