00000000MARITIMO S.R.L.     20171101COBRANZAS RAPIPAGO                   
20171101000000000317500024600317500173110071714191443300000000057        
20171101000000000099000024600099000173059601023785496600000000784        
20171101000000000317500024600317500173060071714095496700000000063        
20171101000000000030000024600030000173110601014114811000000000015        
9999999900000004000000000000764000                                       
