00000000MARITIMO S.R.L.     20171201COBRANZAS RAPIPAGO                   
20171201000000000317500024600317500173350072723946406500000000063        
20171201000000000090000024600090000173380262072227683100300000021        
9999999900000002000000000000407500                                       
