00000000MARITIMO S.R.L.     20180802COBRANZAS RAPIPAGO                   
20180802000000000030000024600030000182149940014166587400000000063        
20180802000000000240000024600240000182190102103686075100120000179        
20180802000000000150000024600150000182210115113513818000000000063        
20180802000000000240000024600240000182190102103685177800120000221        
20180802000000000240000024600240000182190102104207652200120000137        
20180802000000000240000024600240000182190102103513818000120000216        
20180802000000000025000024600025000182197605229370757500000000000        
9999999900000007000000000001165000                                       
