00000000MARITIMO S.R.L.     20180702COBRANZAS RAPIPAGO                   
20180702000000000150000024600150000181900114113219171400000000021        
20180702000000000240000024600240000181880101103640093000120000263        
20180702000000000059000024600059000181909700080111111200000000063        
20180702000000000060000024600060000181908810014364767900000000042        
20180702000000000276303024600276303181850098984147083700000360084        
9999999900000005000000000000785303                                       
