00000000MARITIMO S.R.L.     20181002COBRANZAS RAPIPAGO                   
20181002000000000171000024600171000182780129124201413400085000000        
20181002000000000240000024600240000182780104104201413400120000021        
20181002000000000240000024600240000182800104103686075100120000100        
20181002000000000240000024600240000182800104103685177800120000258        
20181002000000000025000024600025000182781010273413905600000000021        
20181002000000000276303024600276303182810103103870826600000360079        
9999999900000006000000000001192303                                       
