00000000MARITIMO S.R.L.     20170802COBRANZAS RAPIPAGO                   
20170802000000000117000024600117000172210089894087082400000000084        
20170802000000000040000024600040000172160705072332312600000000099        
20170802000000000051000024600051000172208216052557586200000000057        
20170802000000000117000024600117000172210094943114993300000000063        
20170802000000000175000024600175000172190077773792603700120000284        
20170802000000000117000024600117000172210090903792603700000000016        
9999999900000006000000000000617000                                       
