00000000MARITIMO S.R.L.     20180102COBRANZAS RAPIPAGO                   
20180102000000000030000024600030000180028218022245771200020000342        
20180102000000000113700024600113700180048504442090869300000000037        
20180102000000000040500024600040500180028218152159354800020000716        
20180102000000000113700024600113700180048504672515321200000000078        
20180102000000000040500024600040500180028218043814584800020000615        
20180102000000000040500024600040500180028218123391294000020000637        
9999999900000006000000000000378900                                       
