00000000MARITIMO S.R.L.     20180302COBRANZAS RAPIPAGO                   
20180302000000000220000024600220000180680082823718503700000000063        
9999999900000001000000000000220000                                       
