00000000MARITIMO S.R.L.     20180502COBRANZAS RAPIPAGO                   
20180502000000000053600024600053600181231851363194473300000000021        
20180502000000000192500024600192500181230086863900054300132000099        
20180502000000000240000024600240000181270099994113402200120000216        
20180502000000000053600024600053600181221851084028970900000000057        
20180502000000000276303024600276303181290098984246004000000360058        
20180502000000000240000024600240000181270099993849304200120000284        
20180502000000000220000024600220000181280085853639936000000000016        
20180502000000000030000024600030000181298219013266820900020000021        
20180502000000000060000024600060000181238810013655273900000000058        
20180502000000000053600024600053600181231851272946200500000000058        
9999999900000010000000000001419603                                       
