00000000MARITIMO S.R.L.     20171002COBRANZAS RAPIPAGO                   
20171002000000000145000024600145000172797912024189332600265000121        
20171002000000000145000024600145000172757912143014532500265000015        
20171002000000000145000024600145000172797912091833610300265000063        
20171002000000000145000024600145000172797912091744171400265000099        
20171002000000000200000024600200000172820078783301748400000000084        
20171002000000000123500024600123500172770097973301748400000000058        
20171002000000000145000024600145000172767912072554727300265000016        
20171002000000000145000024600145000172797912091856295600265000342        
20171002000000000145000024600145000172797912062701140900265000263        
20171002000000000145000024600145000172797912024121227100265000242        
20171002000000000145000024600145000172797912072525150000265000384        
20171002000000000123500024600123500172820096963792603700000000021        
9999999900000012000000000001752000                                       
