00000000MARITIMO S.R.L.     20171102COBRANZAS RAPIPAGO                   
20171102000000000113700024600113700173068504442200019800000000063        
9999999900000001000000000000113700                                       
