00000000MARITIMO S.R.L.     20180202COBRANZAS RAPIPAGO                   
20180202000000000192500024600192500180380083833694848400132000200        
20180202000000000058000024600058000180408807013520393400000000058        
9999999900000002000000000000250500                                       
