00000000MARITIMO S.R.L.     20170602COBRANZAS RAPIPAGO                   
20170602000000000045000024600045000171558808013212961800060000090        
20170602000000000045000024600045000171578808011358087400060000037        
20170602000000000045000024600045000171578808014062253500060000078        
20170602000000000045000024600045000171608808013785496600060000090        
20170602000000000045000024600045000171608808013573429800060000021        
20170602000000000085000024600085000171608807022510044700000000042        
20170602000000000045000024600045000171568808014058178200060000016        
20170602000000000045000024600045000171608808013416626200060000037        
20170602000000000140000024600140000171580060603842500200095000157        
20170602000000000175000024600175000171580075753792603700120000216        
20170602000000000117000024600117000171600088883792603700000000090        
20170602000000000045000024600045000171608808014066332900060000021        
9999999900000012000000000000877000                                       
