00000000MARITIMO S.R.L.     20180602COBRANZAS RAPIPAGO                   
20180602000000000072900024600072900181548219232645769800000000042        
20180602000000000240000024600240000181580100104113402200120000221        
20180602000000000192500024600192500181580087873956066900132000215        
9999999900000003000000000000505400                                       
