00000000MARITIMO S.R.L.     20180703COBRANZAS RAPIPAGO                   
20180703000000000240000024600240000181870101104201413400120000057        
20180703000000000240000024600240000181880101103686075100120000379        
20180703000000000240000024600240000181880101101879152700120000300        
20180703000000000150000024600150000181910115111879152700000000000        
20180703000000000240000024600240000181880101103526663100120000242        
20180703000000000240000024600240000181880101102436529200120000279        
20180703000000000240000024600240000181880101103685177800120000258        
20180703000000000240000024600240000181880101104207652200120000200        
20180703000000000150000024600150000181900115113526663100000000036        
20180703000000000150000024600150000181910118114182742200000000015        
20180703000000000106500024600106500181860264253351426500000000036        
9999999900000011000000000002236500                                       
