00000000MARITIMO S.R.L.     20180303COBRANZAS RAPIPAGO                   
20180303000000000220000024600220000180690083834185407700000000000        
9999999900000001000000000000220000                                       
