00000000MARITIMO S.R.L.     20180803COBRANZAS RAPIPAGO                   
20180803000000000276303024600276303182220101103946271200000360015        
20180803000000000025000024600025000182217605062397061700000000078        
20180803000000000150000024600150000182190116114091043300000000063        
20180803000000000240000024600240000182190102104091043300120000084        
20180803000000000240000024600240000182190102104191895800120000258        
20180803000000000150000024600150000182210116114191895800000000042        
9999999900000006000000000001081303                                       
