00000000MARITIMO S.R.L.     20180403COBRANZAS RAPIPAGO                   
20180403000000000192500024600192500180940085853900054300132000084        
20180403000000000220000024600220000181000084843899104200000000000        
9999999900000002000000000000412500                                       
