00000000MARITIMO S.R.L.     20180903COBRANZAS RAPIPAGO                   
20180903000000000240000024600240000182500103103725952900120000337        
20180903000000000150000024600150000182530116113725952900000000000        
20180903000000000150000024600150000182530116114201413400000000021        
20180903000000000240000024600240000182500103103891655500120000321        
20180903000000000050000024600050000182500707251082975500000000084        
20180903000000000240000024600240000182490103103607385500120000042        
9999999900000006000000000001070000                                       
