00000000MARITIMO S.R.L.     20180503COBRANZAS RAPIPAGO                   
20180503000000000192500024600192500181270086863956066900132000321        
20180503000000000240000024600240000181270099993309723500120000321        
20180503000000000030000024600030000181308219023172323900020000021        
20180503000000000240000024600240000181230099993004744000120000063        
20180503000000000045000024600045000181298219171733806000040000015        
20180503000000000060000024600060000181298810014450688500000000000        
20180503000000000240000024600240000181270099992436529200120000216        
20180503000000000045000024600045000181308219152672863900040000063        
20180503000000000064300024600064300181231851032777605100000000058        
20180503000000000064300024600064300181231851021754904100000000084        
20180503000000000053600024600053600181231851273310878600000000090        
20180503000000000045000024600045000181298219072279899300040000042        
9999999900000012000000000001319700                                       
