00000000MARITIMO S.R.L.     20180103COBRANZAS RAPIPAGO                   
20180103000000000113700024600113700180048504442234196300000000084        
20180103000000000113700024600113700180048504413089332100000000042        
20180103000000000113700024600113700180048504432525641500000000021        
20180103000000000113700024600113700180048504553074460900000000058        
20180103000000000113700024600113700180048504572315362100000000037        
20180103000000000056800024600056800180048504364385622700000000090        
20180103000000000113700024600113700180048504642306096600000000000        
20180103000000000113700024600113700180048504432379253600000000078        
20180103000000000113700024600113700180048504591800219000000000058        
20180103000000000113700024600113700180048504413155442300000000078        
20180103000000000056800024600056800180048504354453531500000000063        
20180103000000000113700024600113700180048504413172973600000000021        
20180103000000000113700024600113700180048504442145911100000000078        
20180103000000000113700024600113700180048504432518282200000000063        
20180103000000000113700024600113700180048504451847013300000000099        
20180103000000000113700024600113700180048504582232530200000000000        
20180103000000000113700024600113700180048504652219118500000000057        
20180103000000000093000024600093000180048504102145381400000000058        
20180103000000000093000024600093000180048504102148640900000000063        
20180103000000000056800024600056800180048504514262110500000000057        
20180103000000000093000024600093000180048504053842460800000000078        
9999999900000021000000000002154900                                       
