00000000MARITIMO S.R.L.     20170603COBRANZAS RAPIPAGO                   
20170603000000000045000024600045000171618808013330122400060000036        
20170603000000000045000024600045000171618808014054189300060000015        
20170603000000000117000024600117000171610089892950292900000000058        
20170603000000000175000024600175000171580075752950292900120000390        
20170603000000000045000024600045000171608808013353060900060000036        
20170603000000000045000024600045000171568808012360777300060000016        
20170603000000000045000024600045000171598808014071434200060000078        
20170603000000000045000024600045000171618808013884111100060000090        
20170603000000000175000024600175000171580075753956066900120000337        
20170603000000000045000024600045000171608808013389733000060000058        
20170603000000000045000024600045000171608808014203111900060000078        
20170603000000000085000024600085000171608807022671811100000000057        
20170603000000000175000024600175000171580075753628896800120000390        
20170603000000000045000024600045000171608808014539652600060000090        
9999999900000014000000000001132000                                       
