00000000MARITIMO S.R.L.     20180203COBRANZAS RAPIPAGO                   
20180203000000000220000024600220000180400082823560798200000000042        
20180203000000000192500024600192500180380083833526650800132000390        
9999999900000002000000000000412500                                       
