00000000MARITIMO S.R.L.     20170503COBRANZAS RAPIPAGO                   
20170503000000000175000024600175000171270074744147205900120000257        
20170503000000000200000024600200000171290073734115956200000000000        
20170503000000000175000024600175000171270074744103728000120000315        
9999999900000003000000000000550000                                       
