00000000MARITIMO S.R.L.     20181003COBRANZAS RAPIPAGO                   
20181003000000000240000024600240000182800104104073079300120000221        
20181003000000000240000024600240000182800104103607385500120000336        
20181003000000000240000024600240000182800104103891655500120000379        
20181003000000000276303024600276303182820103103671471200000360063        
20181003000000000188000024600188000182850128123671471200000000078        
20181003000000000240000024600240000182800104103727678200120000163        
20181003000000000240000024600240000182800104102864088500120000342        
9999999900000007000000000001664303                                       
