00000000MARITIMO S.R.L.     20171103COBRANZAS RAPIPAGO                   
20171103000000000175000024600175000173110080803010551800120000215        
20171103000000000317500024600317500173130071714103728000000000078        
9999999900000002000000000000492500                                       
