00000000MARITIMO S.R.L.     20170803COBRANZAS RAPIPAGO                   
20170803000000000020000024600020000172207604072145932100000000090        
20170803000000000020000024600020000172207604033607141300000000042        
20170803000000000117000024600117000172220093933944143100000000099        
20170803000000000117000024600117000172200091914086371700000000021        
20170803000000000175000024600175000172190077774086371700120000137        
20170803000000000175000024600175000172190077774039476400120000178        
20170803000000000040000024600040000172160705212229912100000000078        
9999999900000007000000000000664000                                       
