00000000MARITIMO S.R.L.     20170703COBRANZAS RAPIPAGO                   
20170703000000000175000024600175000171880076764147205900120000242        
20170703000000000117000024600117000171900089894147205900000000021        
20170703000000000117000024600117000171910089893792603700000000016        
20170703000000000175000024600175000171880076763792603700120000321        
9999999900000004000000000000584000                                       
