00000000MARITIMO S.R.L.     20171003COBRANZAS RAPIPAGO                   
20171003000000000145000024600145000172777912062723528300265000000        
20171003000000000145000024600145000172797912101492814900265000458        
20171003000000000145000024600145000172797912072478151600265000357        
20171003000000000145000024600145000172797912072353055400265000321        
20171003000000000145000024600145000172797912152444170300265000378        
20171003000000000123500024600123500172830096963399386300000000063        
20171003000000000200000024600200000172830077773399386300000000079        
20171003000000000145000024600145000172797912072561964800265000463        
20171003000000000145000024600145000172797912101394093300265000479        
9999999900000009000000000001338500                                       
