00000000MARITIMO S.R.L.     20180404COBRANZAS RAPIPAGO                   
20180404000000000192500024600192500180970085853724832800132000484        
9999999900000001000000000000192500                                       
