00000000MARITIMO S.R.L.     20180904COBRANZAS RAPIPAGO                   
20180904000000000240000024600240000182500103103315731500120000400        
20180904000000000276303024600276303182540102102971852500000360042        
20180904000000000240000024600240000182500103104207652200120000421        
20180904000000000150000024600150000182520116113538196700000000078        
20180904000000000240000024600240000182500103103538196700120000215        
20180904000000000276303024600276303182530102103870826600000360016        
20180904000000000240000024600240000182500103103976079800120000384        
20180904000000000150000024600150000182540116113917178500000000079        
20180904000000000240000024600240000182500103103685177800120000479        
20180904000000000150000024600150000182530116114237367300000000042        
20180904000000000240000024600240000182500103104237367300120000378        
9999999900000011000000000002442606                                       
