00000000MARITIMO S.R.L.     20170704COBRANZAS RAPIPAGO                   
20170704000000000117000024600117000171920090902950292900000000021        
20170704000000000175000024600175000171880076762950292900120000378        
20170704000000000117000024600117000171920090903694848400000000037        
20170704000000000175000024600175000171880076763694848400120000416        
20170704000000000020000024600020000171927604062284092800000000099        
20170704000000000020000024600020000171917604062276986400000000015        
20170704000000000117000024600117000171910090903899104200000000078        
20170704000000000175000024600175000171880076763899104200120000363        
9999999900000008000000000000916000                                       
