00000000MARITIMO S.R.L.     20171204COBRANZAS RAPIPAGO                   
20171204000000000030000024600030000173450305113310721900000000000        
20171204000000000030000024600030000173450305052004734500000000090        
20171204000000000317500024600317500173440072724191443300000000063        
20171204000000000175000024600175000173410081814191443300120000378        
20171204000000000175000024600175000173410081814164026100120000400        
20171204000000000200000024600200000173450080803123480500000000063        
20171204000000000030000024600030000173390305171183666200000000063        
20171204000000000040500024600040500173458218072036197500020000078        
20171204000000000070000024600070000173380262252832004700200000716        
20171204000000000070000024600070000173380262243718391100200000415        
9999999900000010000000000001138000                                       
