00000000MARITIMO S.R.L.     20180104COBRANZAS RAPIPAGO                   
20180104000000000113700024600113700180048504422771105000000000042        
20180104000000000113700024600113700180048504422768827600000000021        
20180104000000000113700024600113700180048504442033012700000000015        
20180104000000000113700024600113700180048504393894778300000000037        
20180104000000000113700024600113700180048504543398195500000000000        
20180104000000000042500024600042500180118218142414891100000000063        
20180104000000000113700024600113700180048504471112016500000000057        
20180104000000000113700024600113700180048504442189185500000000021        
20180104000000000093000024600093000180048504092428931200000000084        
20180104000000000046500024600046500180048504034249164000000000057        
20180104000000000042500024600042500180118218171603704100000000058        
20180104000000000093000024600093000180048504092464014900000000058        
20180104000000000093000024600093000180048504111840073800000000016        
20180104000000000175000024600175000180070082823673749000120000037        
9999999900000014000000000001381400                                       
