00000000MARITIMO S.R.L.     20171004COBRANZAS RAPIPAGO                   
20171004000000000123500024600123500172770097973900056300000000042        
20171004000000000200000024600200000172840078783900056300000000063        
20171004000000000145000024600145000172777912062711521000265000058        
20171004000000000175000024600175000172800079793317413500120000357        
20171004000000000145000024600145000172797912082230632600265000321        
20171004000000000145000024600145000172797912082029964500265000399        
20171004000000000123500024600123500172770097974023960800000000079        
20171004000000000175000024600175000172800079794023960800120000436        
20171004000000000062000024600062000172778217213182172800040000079        
20171004000000000175000024600175000172800079794039476400120000458        
20171004000000000175000024600175000172800079793956066900120000421        
20171004000000000123500024600123500172770097974185407700000000090        
20171004000000000145000024600145000172797912111273535700265000578        
9999999900000013000000000001912500                                       
