00000000MARITIMO S.R.L.     20180504COBRANZAS RAPIPAGO                   
20180504000000000240000024600240000181270099994073079300120000300        
20180504000000000240000024600240000181270099994134743400120000499        
20180504000000000192500024600192500181270086863694848400132000436        
20180504000000000192500024600192500181270086864087082400132000463        
20180504000000000240000024600240000181270099993899344200120000415        
20180504000000000240000024600240000181270099994032291700120000499        
20180504000000000240000024600240000181270099993976079800120000378        
20180504000000000060000024600060000181308810012676949700000000021        
20180504000000000045000024600045000181308219072179705200040000000        
20180504000000000192500024600192500181270086863724832800132000300        
20180504000000000240000024600240000181270099993939109800120000300        
20180504000000000240000024600240000181270099993870718000120000337        
20180504000000000240000024600240000181270099993891655500120000457        
20180504000000000240000024600240000181270099993927049500120000442        
20180504000000000240000024600240000181270099993513818000120000157        
20180504000000000240000024600240000181270099993526663100120000316        
20180504000000000240000024600240000181270099993727678200120000379        
20180504000000000240000024600240000181270099994164047600120000363        
20180504000000000060000024600060000181318810013544464900000000058        
20180504000000000192500024600192500181270086863580226900132000463        
20180504000000000240000024600240000181270099993522973500120000363        
20180504000000000060000024600060000181318810013853300200000000042        
20180504000000000200000024600200000181310073734191895800000000090        
20180504000000000240000024600240000181270099993734962400120000337        
20180504000000000192500024600192500181270086864072923500132000379        
20180504000000000276303024600276303181300098983714028600000360084        
20180504000000000240000024600240000181270099992864088500120000416        
9999999900000027000000000005503803                                       
