00000000MARITIMO S.R.L.     20181004COBRANZAS RAPIPAGO                   
20181004000000000171000024600171000182840129123433927500085000015        
20181004000000000240000024600240000182800104103433927500120000499        
20181004000000000025000024600025000182841010253721763300000000021        
20181004000000000240000024600240000182800104103939109800120000400        
20181004000000000035000024600035000182830306023281483700050000084        
20181004000000000035000024600035000182830306113698732900050000058        
20181004000000000240000024600240000182800104103315731500120000457        
20181004000000000240000024600240000182800104103917178500120000442        
20181004000000000171000024600171000182830129124000658900085000042        
20181004000000000240000024600240000182800104104053692700120000463        
20181004000000000240000024600240000182800104103526663100120000100        
20181004000000000171000024600171000182810129123526663100085000090        
20181004000000000240000024600240000182800104104000658900120000337        
20181004000000000240000024600240000182800104104207652200120000200        
20181004000000000240000024600240000182800104103849304200120000242        
20181004000000000240000024600240000182800104103784854000120000458        
20181004000000000171000024600171000182840129123784854000085000079        
20181004000000000240000024600240000182800104104102869800120000163        
20181004000000000240000024600240000182800104103522973500120000463        
9999999900000019000000000003659000                                       
