00000000MARITIMO S.R.L.     20170804COBRANZAS RAPIPAGO                   
20170802000000000117000024600117000172200090904147205900000000021        
20170802000000000175000024600175000172190077774147205900120000100        
20170804000000000175000024600175000172190077773317413500120000400        
20170804000000000175000024600175000172190077774095666600120000442        
20170804000000000051000024600051000172188808013775719800000000037        
20170804000000000040000024600040000172160705221735892500000000021        
20170804000000000175000024600175000172160077772624074500120000016        
20170804000000000117000024600117000172160090902624074500000000042        
20170804000000000175000024600175000172190077773703872500120000336        
20170804000000000051000024600051000172238216052360669600000000021        
9999999900000010000000000001251000                                       
