00000000MARITIMO S.R.L.     20180804COBRANZAS RAPIPAGO                   
20180804000000000240000024600240000182190102102436529200120000416        
20180804000000000240000024600240000182190102103640093000120000400        
9999999900000002000000000000480000                                       
