00000000MARITIMO S.R.L.     20180704COBRANZAS RAPIPAGO                   
20180704000000000060000024600060000181918810013801303000000000021        
20180704000000000240000024600240000181880101104134743400120000457        
20180704000000000240000024600240000181880101104113402200120000442        
20180704000000000060000024600060000181918810014030959700000000016        
20180704000000000060000024600060000181908810014155926900000000042        
20180704000000000150000024600150000181920115114191895800000000063        
20180704000000000240000024600240000181880101104191895800120000458        
20180704000000000060000024600060000181908810013261006700000000015        
20180704000000000138000024600138000181889606012001241200000000221        
20180704000000000150000024600150000181910115114091043300000000016        
20180704000000000240000024600240000181880101104091043300120000316        
20180704000000000240000024600240000181880101103849304200120000416        
20180704000000000240000024600240000181880101103804707100120000499        
20180704000000000240000024600240000181880101103734962400120000390        
20180704000000000106500024600106500181860264442277782300000000000        
20180704000000000240000024600240000181880101103939109800120000400        
9999999900000016000000000002704500                                       
