00000000MARITIMO S.R.L.     20170904COBRANZAS RAPIPAGO                   
20170904000000000117000024600117000172540089892903059000000000015        
20170904000000000117000024600117000172540093932903059000000000042        
20170904000000000175000024600175000172500078783900054300120000058        
20170904000000000117000024600117000172540095953962381100000000021        
20170904000000000117000024600117000172540095953563627800000000078        
20170904000000000080000024600080000172471708043368660600150000021        
20170904000000000051000024600051000172538808012138877600000000084        
20170904000000000051000024600051000172538808012306384100000000084        
20170904000000000051000024600051000172538808013238688700000000084        
20170904000000000051000024600051000172548808013466646200000000079        
20170904000000000175000024600175000172500078783792603700120000463        
20170904000000000051000024600051000172508808012976061400000000058        
20170904000000000051000024600051000172508808012714938400000000015        
20170904000000000051000024600051000172548808012566534500000000057        
20170904000000000051000024600051000172538808013257732400000000036        
20170904000000000051000024600051000172548808011699892800000000000        
20170904000000000123500024600123500172540096963899104200000000042        
20170904000000000117000024600117000172540091913899104200000000063        
9999999900000018000000000001597500                                       
