00000000MARITIMO S.R.L.     20171104COBRANZAS RAPIPAGO                   
20171104000000000175000024600175000173110080803956066900120000463        
20171104000000000045000024600045000173141007062711976300000000042        
20171104000000000020000024600020000173140601043721993800000000084        
20171104000000000020000024600020000173140601043388414800000000057        
20171104000000000175000024600175000173110080803160343600120000463        
20171104000000000117000024600117000173150090903160343600000000078        
9999999900000006000000000000552000                                       
