00000000MARITIMO S.R.L.     20170404COBRANZAS RAPIPAGO                   
20170404000000000049000024600049000170958214091135093700000000063        
20170404000000000175000024600175000170970073733502884200120000415        
20170404000000000049000024600049000170957910132977940000000000084        
20170404000000000037000024600037000170958214234256863800000000099        
20170404000000000037000024600037000170958214243488391600000000042        
20170404000000000049000024600049000170957910042978262800000000099        
20170404000000000049000024600049000170957910014121227100000000090        
20170404000000000049000024600049000170957910072034311600000000042        
20170404000000000049000024600049000170957910062311461400000000063        
20170404000000000049000024600049000170958214052331379100000000042        
9999999900000010000000000000592000                                       
