00000000MARITIMO S.R.L.     20180604COBRANZAS RAPIPAGO                   
20180604000000000150000024600150000181620117113815981800000000042        
20180604000000000192500024600192500181580087873806991900132000437        
20180604000000000192500024600192500181580087873694848400132000457        
20180604000000000240000024600240000181580100103686075100120000321        
20180604000000000240000024600240000181580100103927049500120000321        
20180604000000000192500024600192500181580087873673749000132000479        
20180604000000000117800024600117800181560263262726388300000000078        
20180604000000000240000024600240000181580100103849304200120000463        
20180604000000000240000024600240000181580100103939109800120000457        
20180604000000000150000024600150000181620117113944534700000000063        
9999999900000010000000000001955300                                       
