00000000MARITIMO S.R.L.     20170504COBRANZAS RAPIPAGO                   
20170504000000000140000024600140000171270059593842500200095000357        
20170504000000000175000024600175000171270074743317413500120000416        
20170504000000000175000024600175000171270074744095666600120000457        
20170504000000000158000024600158000171310058583703565800000000057        
20170504000000000175000024600175000171270074744087082400120000458        
20170504000000000175000024600175000171270074743712418900120000315        
20170504000000000140000024600140000171270059593900046400095000336        
20170504000000000175000024600175000171270074743703872500120000342        
9999999900000008000000000001313000                                       
