00000000MARITIMO S.R.L.     20181005COBRANZAS RAPIPAGO                   
20181005000000000025000024600025000182851010062773793100000000042        
20181005000000000240000024600240000182800104104134743400120000584        
20181005000000000171000024600171000182850129124134743400085000016        
20181005000000000240000024600240000182800104104113402200120000584        
20181005000000000100000024600100000182858811013439946800000000057        
20181005000000000240000024600240000182800104103725952900120000384        
20181005000000000171000024600171000182850129123976079800085000036        
20181005000000000240000024600240000182800104103976079800120000500        
20181005000000000240000024600240000182800104104223668900120000542        
20181005000000000240000024600240000182800104104164047600120000590        
20181005000000000240000024600240000182800104103870918100120000563        
20181005000000000240000024600240000182800104103927049500120000542        
20181005000000000240000024600240000182800104103946120600120000584        
20181005000000000045000024600045000182830501103027678200050000057        
20181005000000000045000024600045000182830501131257360800050000078        
20181005000000000240000024600240000182800104103432105400120000579        
20181005000000000171000024600171000182850129124191895800085000021        
20181005000000000240000024600240000182800104104191895800120000599        
20181005000000000240000024600240000182800104103946208900120000184        
9999999900000019000000000003608000                                       
