00000000MARITIMO S.R.L.     20180305COBRANZAS RAPIPAGO                   
20180305000000000192500024600192500180660084843900054300132000137        
20180305000000000192500024600192500180660084843956066900132000521        
20180305000000000220000024600220000180710083834053731700000000084        
9999999900000003000000000000605000                                       
