00000000MARITIMO S.R.L.     20170905COBRANZAS RAPIPAGO                   
20170905000000000123500024600123500172550096963718503700000000042        
20170905000000000175000024600175000172500078783718503700120000599        
20170905000000000175000024600175000172540079792950292900120000016        
20170905000000000175000024600175000172500078783694848400120000416        
20170905000000000123500024600123500172540097973694848400000000036        
20170905000000000123500024600123500172540096964023960800000000000        
20170905000000000175000024600175000172500078784023960800120000458        
20170905000000000145000024600145000172557912082272037100265000021        
20170905000000000145000024600145000172547912082002457800265000084        
20170905000000000040000024600040000172550706033867481700000000021        
20170905000000000080000024600080000172531708142207811400150000284        
20170905000000000080000024600080000172531708062914931900150000221        
20170905000000000051000024600051000172558808013245094000000000015        
9999999900000013000000000001611500                                       
