00000000MARITIMO S.R.L.     20180505COBRANZAS RAPIPAGO                   
20180505000000000240000024600240000181270099994089520300120000416        
20180505000000000240000024600240000181270099994053692700120000537        
20180505000000000240000024600240000181270099993917178500120000521        
20180505000000000240000024600240000181270099993804707100120000563        
20180505000000000192500024600192500181310087874103728000132000057        
9999999900000005000000000001152500                                       
