00000000MARITIMO S.R.L.     20180605COBRANZAS RAPIPAGO                   
20180605000000000240000024600240000181580100104201413400120000521        
20180605000000000192500024600192500181580087874039476400132000557        
20180605000000000149900024600149900181560263351327189700000000021        
20180605000000000085600024600085600181560263081463091600000000016        
20180605000000000240000024600240000181580100104073079300120000442        
20180605000000000240000024600240000181580100104207652200120000421        
20180605000000000240000024600240000181580100103917178500120000490        
20180605000000000240000024600240000181580100103727678200120000384        
20180605000000000150000024600150000181620114114000658900000000036        
20180605000000000240000024600240000181580100104000658900120000421        
20180605000000000192500024600192500181580087873724832800132000599        
20180605000000000240000024600240000181580100104183409700120000563        
20180605000000000240000024600240000181580100103891655500120000590        
20180605000000000192500024600192500181580087873580226900132000521        
20180605000000000240000024600240000181580100103734962400120000484        
20180605000000000240000024600240000181580100104091043300120000400        
20180605000000000020000024600020000181577605033481522900050000021        
20180605000000000240000024600240000181580100104245763800120000479        
20180605000000000240000024600240000181580100104022988200120000463        
20180605000000000150000024600150000181590117113982164100000000090        
20180605000000000117800024600117800181560263442277782300000000079        
20180605000000000085600024600085600181560263033607141300000000090        
20180605000000000240000024600240000181580100102864088500120000421        
9999999900000023000000000004456400                                       
