00000000MARITIMO S.R.L.     20170605COBRANZAS RAPIPAGO                   
20170605000000000175000024600175000171570075752758252100120000079        
20170605000000000175000024600175000171580075754147205900120000442        
20170605000000000175000024600175000171580075754185407700120000537        
20170605000000000140000024600140000171580060603900046400095000437        
20170605000000000030000024600030000171569925033252398400000000042        
20170605000000000030000024600030000171569925032108968400000000016        
20170605000000000030000024600030000171569925031821565900000000099        
20170605000000000117000024600117000171590088882624074500000000000        
20170605000000000175000024600175000171580075752624074500120000116        
20170605000000000030000024600030000171569925033830412000000000021        
20170605000000000140000024600140000171580060602864088500095000516        
20170605000000000117000024600117000171570092923944143100000000021        
20170605000000000117000024600117000171620092923961959100000000000        
9999999900000013000000000001451000                                       
