00000000MARITIMO S.R.L.     20171205COBRANZAS RAPIPAGO                   
20171205000000000175000024600175000173410081814095666600120000442        
20171205000000000175000024600175000173410081813540594100120000515        
20171205000000000030000024600030000173400305042363945500000000079        
20171205000000000117000024600117000173450090903219953500000000000        
20171205000000000030000024600030000173450305151831200400000000015        
20171205000000000317500024600317500173460072724095496700000000079        
9999999900000006000000000000844500                                       
