00000000MARITIMO S.R.L.     20180905COBRANZAS RAPIPAGO                   
20180905000000000171000024600171000182550128124000658900085000084        
20180905000000000240000024600240000182500103104000658900120000558        
20180905000000000150000024600150000182550116114000658900000000042        
20180905000000000240000024600240000182500103104134743400120000537        
20180905000000000050000024600050000182550121123560798200000000079        
20180905000000000240000024600240000182500103103946271200120000478        
20180905000000000150000024600150000182550120124007410100000000042        
20180905000000000240000024600240000182500103103513818000120000336        
20180905000000000150000024600150000182530116113513818000000000000        
20180905000000000171000024600171000182530128123513818000085000042        
20180905000000000100000024600100000182548811012730991000000000021        
20180905000000000240000024600240000182500103102864088500120000421        
9999999900000012000000000002142000                                       
