00000000MARITIMO S.R.L.     20180705COBRANZAS RAPIPAGO                   
20180705000000000060000024600060000181938810013636638300000000084        
20180705000000000240000024600240000181880101103976079800120000463        
20180705000000000240000024600240000181880101103870918100120000563        
20180705000000000240000024600240000181880101103891655500120000542        
20180705000000000240000024600240000181880101103432105400120000442        
20180705000000000276303024600276303181930100103536798800000360058        
20180705000000000240000024600240000181880101103946208900120000216        
20180705000000000240000024600240000181880101103927049500120000400        
20180705000000000240000024600240000181880101104022913600120000563        
20180705000000000240000024600240000181880101103946120600120000442        
20180705000000000240000024600240000181880101103801002700120000442        
20180705000000000060000024600060000181938810014213491200000000000        
20180705000000000034300024600034300181878220023175647600032000016        
20180705000000000240000024600240000181880101103784854000120000599        
20180705000000000048200024600048200181918220062433912300053000079        
20180705000000000220000024600220000181870085854161509400000000000        
20180705000000000240000024600240000181880101104102869800120000500        
9999999900000017000000000003338803                                       
