00000000MARITIMO S.R.L.     20170805COBRANZAS RAPIPAGO                   
20170805000000000123500024600123500172240096962758252100000000079        
20170805000000000175000024600175000172190077772758252100120000563        
9999999900000002000000000000298500                                       
