00000000MARITIMO S.R.L.     20180105COBRANZAS RAPIPAGO                   
20180105000000000042500024600042500180128218123266815100000000021        
20180105000000000175000024600175000180070082823575516400120000099        
20180105000000000175000024600175000180070082824039476400120000079        
20180105000000000175000024600175000180070082823956066900120000042        
20180105000000000175000024600175000180070082824164026100120000000        
20180105000000000042500024600042500180108218081631857100000000021        
20180105000000000175000024600175000180070082824196811500120000058        
9999999900000007000000000000960000                                       
