00000000MARITIMO S.R.L.     20171005COBRANZAS RAPIPAGO                   
20171005000000000145000024600145000172797912014386672600265000679        
20171005000000000145000024600145000172797912120498999800265000637        
20171005000000000123500024600123500172850097973484209500000000021        
20171005000000000175000024600175000172800079793301748400120000379        
20171005000000000175000024600175000172800079793712418900120000384        
20171005000000000145000024600145000172797912062847372700265000642        
20171005000000000145000024600145000172787912072411289300265000057        
20171005000000000175000024600175000172800079793540594100120000599        
9999999900000008000000000001228500                                       
