00000000MARITIMO S.R.L.     20180405COBRANZAS RAPIPAGO                   
20180405000000000240000024600240000180970098984246992500120000599        
20180405000000000192500024600192500180970085854176580400132000290        
20180405000000000240000024600240000180970098984073079300120000484        
20180405000000000192500024600192500180970085854095666600132000542        
20180405000000000192500024600192500180970085854087082400132000557        
20180405000000000240000024600240000180970098984053692700120000584        
20180405000000000240000024600240000180970098983976079800120000458        
20180405000000000042000024600042000181021201023243793400000000037        
20180405000000000240000024600240000180970098984004522400120000200        
20180405000000000240000024600240000180970098983927049500120000490        
20180405000000000240000024600240000180970098984164047600120000316        
20180405000000000240000024600240000180970098982436529200120000437        
20180405000000000240000024600240000180970098983899344200120000590        
20180405000000000240000024600240000180970098982794872800120000357        
20180405000000000240000024600240000180970098983290950800120000379        
20180405000000000240000024600240000180970098983870826600120000558        
20180405000000000240000024600240000180970098983734962400120000421        
20180405000000000220000024600220000181000084843381339700000000063        
20180405000000000240000024600240000180970098983784854000120000442        
20180405000000000240000024600240000180970098984191895800120000584        
20180405000000000240000024600240000180970098982864088500120000463        
9999999900000021000000000004679500                                       
