00000000MARITIMO S.R.L.     20170505COBRANZAS RAPIPAGO                   
20170505000000000175000024600175000171270074742758252100120000442        
20170505000000000175000024600175000171270074743502884200120000590        
20170505000000000175000024600175000171270074743785633100120000542        
20170505000000000140000024600140000171270059593670172900095000478        
20170505000000000140000024600140000171270059593827732000095000500        
20170505000000000175000024600175000171270074743694848400120000558        
20170505000000000140000024600140000171270059593687290800095000436        
20170505000000000175000024600175000171270074744023960800120000590        
20170505000000000051000024600051000171258215042690070600000000000        
20170505000000000140000024600140000171270059593842648100095000490        
20170505000000000175000024600175000171270074743575516400120000400        
20170505000000000060000024600060000171252401293246772500100000084        
20170505000000000030000024600030000171272401071662507700050000084        
20170505000000000140000024600140000171270059593650123700095000516        
9999999900000014000000000001891000                                       
