00000000MARITIMO S.R.L.     20180205COBRANZAS RAPIPAGO                   
20180205000000000200000024600200000180430081813718503700000000036        
20180205000000000192500024600192500180380083832398007900132000599        
9999999900000002000000000000392500                                       
