00000000MARITIMO S.R.L.     20170705COBRANZAS RAPIPAGO                   
20170705000000000175000024600175000171880076763317413500120000542        
20170705000000000158000024600158000171890060603991147300000000021        
20170705000000000117000024600117000171860094944182792400000000000        
20170705000000000158000024600158000171860059593523592800000000057        
9999999900000004000000000000608000                                       
