00000000MARITIMO S.R.L.     20181006COBRANZAS RAPIPAGO                   
20181006000000000240000024600240000182800104103835672700120000684        
20181006000000000240000024600240000182800104103965410700120000600        
20181006000000000240000024600240000182800104104237367300120000321        
20181006000000000240000024600240000182800104103804707100120000521        
20181006000000000171000024600171000182850129123804707100085000058        
20181006000000000240000024600240000182800104103946271200120000558        
20181006000000000240000024600240000182800104103965736500120000642        
9999999900000007000000000001611000                                       
