00000000MARITIMO S.R.L.     20180406COBRANZAS RAPIPAGO                   
20180406000000000240000024600240000180970098983817780400120000537        
20180406000000000240000024600240000180970098983862452400120000615        
20180406000000000240000024600240000180970098983433927500120000657        
20180406000000000240000024600240000180970098983315731500120000615        
20180406000000000240000024600240000180970098983686075100120000678        
20180406000000000240000024600240000180970098984102869800120000636        
20180406000000000240000024600240000180970098983801002700120000600        
20180406000000000240000024600240000180970098982635258100120000663        
20180406000000000240000024600240000180970098989451252200120000542        
20180406000000000042000024600042000181021201082352500000000000063        
20180406000000000192500024600192500180970085854039476400132000584        
20180406000000000240000024600240000180970098983633009000120000500        
20180406000000000042000024600042000181011201032645751400000000000        
20180406000000000192500024600192500180970085854023960800132000558        
20180406000000000240000024600240000180970098983946120600120000600        
20180406000000000240000024600240000180970098983946208900120000642        
20180406000000000240000024600240000180970098983939109800120000521        
20180406000000000240000024600240000180970098983870918100120000557        
20180406000000000240000024600240000180970098982995273800120000400        
20180406000000000240000024600240000180970098984089520300120000637        
20180406000000000240000024600240000180970098983835672700120000679        
20180406000000000240000024600240000180970098983804707100120000657        
20180406000000000240000024600240000180970098983685177800120000416        
20180406000000000240000024600240000180970098983432105400120000563        
20180406000000000240000024600240000180970098983536098900120000684        
20180406000000000240000024600240000180970098983798144100120000663        
20180406000000000192500024600192500180970085854072923500132000590        
20180406000000000240000024600240000180970098983965736500120000590        
9999999900000028000000000006181500                                       
