00000000MARITIMO S.R.L.     20171206COBRANZAS RAPIPAGO                   
20171206000000000175000024600175000173410081813317413500120000679        
20171206000000000175000024600175000173410081813694848400120000684        
20171206000000000317500024600317500173470072723694848400000000000        
20171206000000000175000024600175000173410081814087082400120000616        
20171206000000000317500024600317500173470072724087082400000000037        
20171206000000000175000024600175000173410081814185407700120000642        
20171206000000000175000024600175000173410081813815084500120000500        
20171206000000000317500024600317500173470072723580226900000000037        
20171206000000000175000024600175000173410081813580226900120000616        
20171206000000000175000024600175000173410081812624074500120000521        
20171206000000000040500024600040500173468218132914582300020000021        
20171206000000000175000024600175000173410081813575516400120000499        
9999999900000012000000000002393000                                       
