00000000MARITIMO S.R.L.     20180806COBRANZAS RAPIPAGO                   
20180806000000000150000024600150000182250120123815981800000000000        
20180806000000000025000024600025000182217605043296987900000000036        
20180806000000000240000024600240000182190102104053692700120000390        
20180806000000000240000024600240000182190102103433927500120000636        
20180806000000000240000024600240000182190102103607385500120000600        
20180806000000000240000024600240000182190102104201413400120000237        
20180806000000000240000024600240000182190102103946120600120000684        
20180806000000000240000024600240000182190102103526692200120000690        
20180806000000000240000024600240000182190102103802101100120000542        
20180806000000000240000024600240000182190102103965410700120000679        
20180806000000000240000024600240000182190102104085382100120000563        
20180806000000000240000024600240000182190102103917178500120000557        
20180806000000000240000024600240000182190102104237367300120000690        
20180806000000000240000024600240000182190102104245763800120000221        
20180806000000000150000024600150000182250117114213491200000000090        
20180806000000000240000024600240000182190102103801002700120000557        
20180806000000000240000024600240000182190102103804707100120000590        
20180806000000000025000024600025000182207605062496831700000000099        
20180806000000000240000024600240000182190102102864088500120000442        
9999999900000019000000000003950000                                       
