00000000MARITIMO S.R.L.     20170706COBRANZAS RAPIPAGO                   
20170706000000000051000024600051000171938808013279470600000000021        
20170706000000000175000024600175000171880076764095666600120000584        
20170706000000000175000024600175000171880076764087082400120000621        
20170706000000000175000024600175000171880076764039476400120000516        
20170706000000000175000024600175000171880076763956066900120000584        
20170706000000000117000024600117000171940090904023960800000000063        
20170706000000000175000024600175000171880076763900056300120000421        
20170706000000000117000024600117000171920090903900056300000000042        
20170706000000000175000024600175000171880076763673749000120000579        
20170706000000000175000024600175000171880076762624074500120000363        
20170706000000000117000024600117000171910089892624074500000000057        
20170706000000000175000024600175000171880076763703872500120000337        
20170706000000000117000024600117000171920089893815084500000000079        
9999999900000013000000000001919000                                       
