00000000MARITIMO S.R.L.     20170906COBRANZAS RAPIPAGO                   
20170906000000000145000024600145000172567912120858995000265000084        
20170906000000000145000024600145000172567912111092962000265000063        
20170906000000000145000024600145000172557912101219618600265000042        
20170906000000000080000024600080000172531708082095080800150000142        
20170906000000000175000024600175000172500078783317413500120000542        
20170906000000000175000024600175000172500078784095666600120000584        
20170906000000000080000024600080000172501708082180870400150000016        
20170906000000000145000024600145000172557912111181685700265000021        
20170906000000000175000024600175000172500078783956066900120000584        
20170906000000000080000024600080000172531708072295272200150000116        
20170906000000000175000024600175000172500078783615336000120000500        
20170906000000000117000024600117000172550091913615336000000000084        
20170906000000000175000024600175000172500078783703872500120000500        
9999999900000013000000000001812000                                       
