00000000MARITIMO S.R.L.     20171106COBRANZAS RAPIPAGO                   
20171106000000000030000024600030000173140601013640034000000000037        
20171106000000000175000024600175000173110080803724832800120000615        
20171106000000000175000024600175000173110080803317413500120000600        
20171106000000000175000024600175000173110080804087082400120000642        
20171106000000000175000024600175000173110080803513857200120000121        
20171106000000000175000024600175000173110080803580226900120000642        
20171106000000000030000024600030000173140601023144135300000000063        
20171106000000000175000024600175000173110080803806745000120000636        
9999999900000008000000000001110000                                       
