00000000MARITIMO S.R.L.     20170606COBRANZAS RAPIPAGO                   
20170606000000000117000024600117000171630089893900056300000000063        
20170606000000000175000024600175000171580075753900056300120000584        
20170606000000000175000024600175000171580075753317413500120000600        
20170606000000000175000024600175000171580075754095666600120000478        
20170606000000000175000024600175000171570075753900054300120000037        
20170606000000000175000024600175000171580075754086371700120000478        
20170606000000000117000024600117000171620089894086371700000000042        
20170606000000000096500024600096500171647911051734630300110000058        
20170606000000000175000024600175000171580075754023960800120000657        
20170606000000000117000024600117000171640089894023960800000000042        
20170606000000000175000024600175000171580075754039476400120000400        
20170606000000000175000024600175000171580075753673749000120000500        
20170606000000000175000024600175000171580075753703872500120000663        
20170606000000000175000024600175000171580075753394486300120000521        
9999999900000014000000000002197500                                       
