00000000MARITIMO S.R.L.     20171006COBRANZAS RAPIPAGO                   
20171006000000000145000024600145000172797912082001786900265000616        
20171006000000000175000024600175000172800079792758252100120000379        
20171006000000000175000024600175000172800079794095666600120000558        
20171006000000000145000024600145000172797912062722913800265000758        
20171006000000000145000024600145000172797912062696353400265000784        
20171006000000000145000024600145000172797912082253275900265000690        
20171006000000000175000024600175000172800079793724832800120000663        
20171006000000000175000024600175000172800079793802794200120000642        
20171006000000000175000024600175000172800079792624074500120000337        
20171006000000000175000024600175000172800079793703872500120000616        
20171006000000000145000024600145000172797912062734930800265000636        
20171006000000000175000024600175000172800079793899104200120000642        
20171006000000000123500024600123500172860097974155873000000000063        
20171006000000000175000024600175000172800079793160343600120000699        
9999999900000014000000000002248500                                       
