00000000MARITIMO S.R.L.     20170506COBRANZAS RAPIPAGO                   
20170506000000000032500024600032500171308215012367153300000000090        
20170506000000000175000024600175000171270074742950292900120000415        
20170506000000000175000024600175000171270074743560798200120000642        
20170506000000000175000024600175000171270074744164569600120000578        
9999999900000004000000000000557500                                       
