00000000MARITIMO S.R.L.     20180106COBRANZAS RAPIPAGO                   
20180106000000000192500024600192500180070082823317413500132000015        
20180106000000000042500024600042500180118218081817032300000000084        
20180106000000000192500024600192500180070082823724832800132000021        
20180106000000000192500024600192500180070082821110520100132000015        
20180106000000000042500024600042500180138218142495596900000000063        
20180106000000000192500024600192500180070082824087082400132000057        
9999999900000006000000000000855000                                       
