00000000MARITIMO S.R.L.     20180906COBRANZAS RAPIPAGO                   
20180906000000000240000024600240000182500103103433927500120000615        
20180906000000000171000024600171000182560128123433927500085000057        
20180906000000000240000024600240000182500103103686075100120000590        
20180906000000000060000024600060000182568810014458668500000000015        
20180906000000000240000024600240000182500103103835672700120000500        
20180906000000000240000024600240000182500103103849304200120000637        
20180906000000000240000024600240000182500103103946208900120000300        
20180906000000000240000024600240000182500103104053692700120000542        
20180906000000000240000024600240000182500103104245763800120000642        
20180906000000000240000024600240000182500103104113402200120000663        
20180906000000000240000024600240000182500103103784854000120000679        
20180906000000000240000024600240000182500103104102869800120000421        
9999999900000012000000000002631000                                       
