00000000MARITIMO S.R.L.     20180706COBRANZAS RAPIPAGO                   
20180706000000000060000024600060000181938810013033438000000000099        
20180706000000000060000024600060000181938810012978976100000000090        
20180706000000000060000024600060000181938810013294456000000000058        
20180706000000000240000024600240000181880101104053692700120000636        
20180706000000000240000024600240000181880101103315731500120000584        
20180706000000000240000024600240000181880101103870718000120000600        
20180706000000000240000024600240000181880101103725952900120000699        
20180706000000000150000024600150000181920114113917178500000000015        
20180706000000000240000024600240000181880101104223668900120000684        
20180706000000000240000024600240000181880101103727678200120000337        
20180706000000000240000024600240000181880101103917178500120000442        
20180706000000000240000024600240000181880101103723455100120000615        
20180706000000000150000024600150000181910115113671471200000000042        
20180706000000000240000024600240000181880101103671471200120000342        
20180706000000000240000024600240000181880101104089520300120000642        
20180706000000000240000024600240000181880101102864088500120000479        
20180706000000000240000024600240000181880101103835672700120000384        
9999999900000017000000000003360000                                       
