00000000MARITIMO S.R.L.     20180606COBRANZAS RAPIPAGO                   
20180606000000000240000024600240000181580100104032291700120000537        
20180606000000000240000024600240000181580100103433927500120000615        
20180606000000000192500024600192500181580087874095666600132000516        
20180606000000000192500024600192500181580087874087082400132000658        
20180606000000000150000024600150000181620117114083600900000000016        
20180606000000000240000024600240000181580100103946271200120000500        
20180606000000000150000024600150000181640114111879152700000000099        
20180606000000000240000024600240000181580100101879152700120000663        
20180606000000000240000024600240000181580100103946208900120000437        
20180606000000000240000024600240000181580100103685177800120000642        
20180606000000000240000024600240000181580100103801002700120000536        
20180606000000000240000024600240000181580100102794872800120000315        
20180606000000000240000024600240000181580100102436529200120000490        
20180606000000000240000024600240000181580100104223668900120000590        
20180606000000000240000024600240000181580100104164047600120000542        
20180606000000000240000024600240000181580100103219171400120000678        
20180606000000000150000024600150000181640113113219171400000000058        
20180606000000000240000024600240000181580100103835672700120000637        
20180606000000000240000024600240000181580100103607385500120000557        
9999999900000019000000000004195000                                       
