00000000MARITIMO S.R.L.     20180206COBRANZAS RAPIPAGO                   
20180206000000000192500024600192500180380083833575516400132000621        
20180206000000000192500024600192500180370083833900054300132000078        
20180206000000000192500024600192500180380083833956066900132000542        
20180206000000000192500024600192500180380083833842430600132000484        
20180206000000000192500024600192500180380083833724832800132000657        
20180206000000000192500024600192500180380083833580226900132000542        
9999999900000006000000000001155000                                       
