00000000MARITIMO S.R.L.     20180306COBRANZAS RAPIPAGO                   
20180306000000000220000024600220000180710083834166882600000000078        
20180306000000000192500024600192500180660084844095666600132000521        
20180306000000000192500024600192500180660084843694848400132000636        
20180306000000000192500024600192500180660084843806991900132000616        
20180306000000000192500024600192500180660084844087082400132000663        
20180306000000000192500024600192500180660084843615336000132000684        
20180306000000000192500024600192500180660084843608029000132000642        
20180306000000000192500024600192500180660084844039476400132000690        
20180306000000000065000024600065000180721009331352944700000000042        
20180306000000000192500024600192500180660084844084971300132000584        
20180306000000000192500024600192500180660084843724832800132000500        
20180306000000000192500024600192500180660084843673749000132000658        
9999999900000012000000000002210000                                       
