00000000MARITIMO S.R.L.     20180407COBRANZAS RAPIPAGO                   
20180407000000000192500024600192500180970085853317413500132000784        
20180407000000000240000024600240000180970098984032291700120000615        
20180407000000000060000024600060000181008810013350613900000000063        
20180407000000000099000024600099000181009601023350613900000000078        
20180407000000000080000024600080000181008809013350613900000000000        
20180407000000000240000024600240000180970098984113402200120000600        
20180407000000000240000024600240000180970098984091043300120000615        
20180407000000000192500024600192500180970085853956066900132000684        
20180407000000000240000024600240000180970098983917178500120000578        
20180407000000000240000024600240000180970098984237367300120000584        
20180407000000000240000024600240000180970098984245763800120000384        
20180407000000000240000024600240000180970098984209961700120000642        
20180407000000000240000024600240000180970098983965410700120000690        
20180407000000000240000024600240000180970098983723455100120000600        
9999999900000014000000000002784000                                       
