00000000MARITIMO S.R.L.     20180907COBRANZAS RAPIPAGO                   
20180907000000000240000024600240000182500103103633009000120000737        
20180907000000000171000024600171000182570128123633009000085000084        
20180907000000000276303024600276303182500101104004522400000360099        
20180907000000000240000024600240000182500103103946120600120000700        
20180907000000000240000024600240000182500103103432105400120000663        
20180907000000000240000024600240000182500103103927049500120000763        
20180907000000000240000024600240000182500103104223668900120000636        
20180907000000000240000024600240000182500103104022913600120000784        
20180907000000000240000024600240000182500103103617587900120000390        
20180907000000000240000024600240000182500103103727678200120000116        
20180907000000000240000024600240000182500103103917178500120000663        
20180907000000000171000024600171000182560128123526663100085000078        
20180907000000000240000024600240000182500103103526663100120000636        
20180907000000000240000024600240000182500103104164047600120000716        
20180907000000000060000024600060000182578810013207816700000000090        
20180907000000000240000024600240000182500103104246004000120000678        
20180907000000000240000024600240000182500103103804707100120000742        
20180907000000000240000024600240000182500103103965410700120000799        
20180907000000000240000024600240000182500103103965736500120000721        
20180907000000000060000024600060000182549951012001256200000000058        
20180907000000000240000024600240000182500103102995273800120000778        
9999999900000021000000000004578303                                       
