00000000MARITIMO S.R.L.     20180607COBRANZAS RAPIPAGO                   
20180607000000000240000024600240000181580100103870918100120000784        
20180607000000000150000024600150000181640117114182742200000000090        
20180607000000000240000024600240000181580100102995273800120000637        
20180607000000000240000024600240000181580100104134743400120000700        
20180607000000000240000024600240000181580100104085382100120000679        
20180607000000000240000024600240000181580100103870718000120000516        
20180607000000000240000024600240000181580100103946120600120000700        
20180607000000000240000024600240000181580100103723455100120000663        
20180607000000000240000024600240000181580100103432105400120000663        
20180607000000000150000024600150000181620114113617587900000000042        
20180607000000000240000024600240000181580100103976079800120000721        
20180607000000000240000024600240000181580100103350458500120000690        
20180607000000000240000024600240000181580100103617587900120000436        
20180607000000000240000024600240000181580100104053692700120000716        
20180607000000000240000024600240000181580100104022913600120000342        
20180607000000000240000024600240000181580100102581878700120000737        
20180607000000000240000024600240000181580100103522973500120000716        
20180607000000000240000024600240000181580100103513818000120000778        
20180607000000000240000024600240000181580100104237367300120000237        
20180607000000000192500024600192500181580087874176580400132000600        
20180607000000000240000024600240000181580100103804707100120000615        
20180607000000000192500024600192500181580087873899104200132000737        
20180607000000000240000024600240000181580100103784854000120000715        
20180607000000000240000024600240000181580100104191895800120000679        
20180607000000000150000024600150000181640114114191895800000000000        
20180607000000000192500024600192500181580087874183512500132000684        
20180607000000000220000024600220000181650085854053731700000000090        
20180607000000000240000024600240000181580100103965736500120000558        
20180607000000000192500024600192500181580087873506911200132000778        
20180607000000000240000024600240000181580100104102869800120000721        
9999999900000030000000000006720000                                       
