00000000MARITIMO S.R.L.     20180507COBRANZAS RAPIPAGO                   
20180507000000000192500024600192500181270086864176580400132000721        
20180507000000000240000024600240000181270099993607385500120000715        
20180507000000000240000024600240000181270099993965736500120000415        
20180507000000000192500024600192500181270086864095666600132000463        
20180507000000000240000024600240000181270099992995273800120000458        
20180507000000000060000024600060000181348810013482029500000000015        
20180507000000000060000024600060000181348810013221729800000000021        
20180507000000000240000024600240000181270099994022988200120000763        
20180507000000000240000024600240000181270099993946271200120000590        
20180507000000000192500024600192500181270086864086371700132000763        
20180507000000000192500024600192500181270086863608029000132000742        
20180507000000000240000024600240000181270099991879152700120000784        
20180507000000000060000024600060000181328810013837594700000000016        
20180507000000000192500024600192500181270086864039476400132000490        
20180507000000000240000024600240000181270099993723455100120000784        
20180507000000000240000024600240000181270099993870918100120000778        
20180507000000000240000024600240000181270099993432105400120000657        
20180507000000000240000024600240000181270099994223668900120000457        
20180507000000000240000024600240000181270099993946120600120000799        
20180507000000000240000024600240000181270099993801002700120000658        
20180507000000000240000024600240000181270099994022913600120000778        
20180507000000000240000024600240000181270099994085382100120000663        
20180507000000000240000024600240000181270099994000658900120000716        
20180507000000000240000024600240000181270099993685177800120000463        
20180507000000000240000024600240000181270099993965410700120000784        
20180507000000000240000024600240000181270099994237367300120000221        
20180507000000000240000024600240000181270099993802101100120000784        
20180507000000000240000024600240000181270099994246004000120000790        
20180507000000000240000024600240000181270099993946208900120000258        
20180507000000000240000024600240000181270099994207652200120000716        
20180507000000000240000024600240000181270099993835672700120000599        
20180507000000000240000024600240000181270099994245763800120000336        
20180507000000000240000024600240000181270099993784854000120000700        
20180507000000000240000024600240000181270099999451252200120000299        
20180507000000000240000024600240000181270099993536098900120000778        
20180507000000000240000024600240000181270099993449977800120000700        
20180507000000000192500024600192500181270086863615336000132000357        
9999999900000037000000000008055000                                       
