00000000MARITIMO S.R.L.     20170907COBRANZAS RAPIPAGO                   
20170907000000000145000024600145000172577912101380710300265000000        
20170907000000000123500024600123500172560096963900056300000000063        
20170907000000000200000024600200000172560077773900056300000000079        
20170907000000000175000024600175000172500078782758252100120000578        
20170907000000000123500024600123500172550097972758252100000000090        
20170907000000000051000024600051000172578808012521533000000000063        
20170907000000000175000024600175000172500078783502884200120000763        
20170907000000000175000024600175000172500078783806991900120000700        
20170907000000000200000024600200000172560077773513857200000000058        
20170907000000000175000024600175000172500078784039476400120000516        
20170907000000000080000024600080000172531708072328199300150000384        
20170907000000000175000024600175000172500078784185407700120000642        
20170907000000000175000024600175000172500078783724832800120000721        
20170907000000000117000024600117000172570095953114993300000000015        
20170907000000000175000024600175000172500078782624074500120000700        
20170907000000000117000024600117000172570091912624074500000000090        
20170907000000000175000024600175000172500078784164026100120000715        
9999999900000017000000000002557000                                       
