00000000MARITIMO S.R.L.     20170807COBRANZAS RAPIPAGO                   
20170807000000000175000024600175000172190077773502884200120000758        
20170807000000000051000024600051000172268808014123229900000000016        
20170807000000000175000024600175000172190077774023960800120000758        
20170807000000000117000024600117000172260091914023960800000000000        
20170807000000000020000024600020000172257604062512108600000000058        
20170807000000000175000024600175000172190077773580226900120000757        
20170807000000000117000024600117000172260091913580226900000000000        
20170807000000000010000024600010000172207604483374229300000000058        
20170807000000000175000024600175000172190077774164026100120000700        
20170807000000000175000024600175000172190077774155873000120000757        
9999999900000010000000000001190000                                       
