00000000MARITIMO S.R.L.     20170407COBRANZAS RAPIPAGO                   
20170407000000000175000024600175000170970073734084971300120000763        
20170407000000000175000024600175000170970073734087082400120000679        
20170407000000000175000024600175000170970073733484209500120000721        
20170407000000000175000024600175000170970073734086371700120000400        
20170407000000000175000024600175000170970073734023960800120000716        
20170407000000000175000024600175000170970073734039476400120000600        
20170407000000000175000024600175000170970073733956066900120000700        
20170407000000000175000024600175000170970073732337702100120000715        
20170407000000000175000024600175000170970073733785633100120000763        
20170407000000000175000024600175000170970073733540594100120000742        
20170407000000000175000024600175000170970073733727328000120000558        
20170407000000000175000024600175000170970073733219953500120000736        
20170407000000000175000024600175000170970073731110520100120000500        
20170407000000000175000024600175000170970073731110516800120000521        
20170407000000000175000024600175000170970073732624074500120000457        
20170407000000000175000024600175000170970073733301748400120000790        
20170407000000000175000024600175000170970073733575516400120000584        
20170407000000000175000024600175000170970073733806766800120000678        
9999999900000018000000000003150000                                       
