00000000MARITIMO S.R.L.     20180307COBRANZAS RAPIPAGO                   
20180307000000000055000024600055000180711009101376527100000000057        
20180307000000000192500024600192500180660084843317413500132000763        
20180307000000000220000024600220000180720083833560798200000000015        
20180307000000000192500024600192500180660084843506911200132000784        
20180307000000000192500024600192500180660084843802794200132000757        
20180307000000000192500024600192500180660084844183512500132000690        
9999999900000006000000000001045000                                       
