00000000MARITIMO S.R.L.     20171207COBRANZAS RAPIPAGO                   
20171207000000000175000024600175000173410081814161509400120000737        
20171207000000000175000024600175000173410081814023960800120000758        
20171207000000000175000024600175000173410081814054036400120000763        
20171207000000000317500024600317500173480072723889096900000000084        
20171207000000000175000024600175000173410081814039476400120000200        
20171207000000000317500024600317500173430072724039476400000000084        
20171207000000000175000024600175000173410081813802794200120000700        
20171207000000000175000024600175000173410081813724832800120000721        
20171207000000000175000024600175000173410081812398007900120000790        
20171207000000000317500024600317500173450072723381339700000000058        
20171207000000000040500024600040500173468218052694235000020000084        
20171207000000000317500024600317500173450072724132127600000000084        
20171207000000000317500024600317500173480072724183512500000000015        
9999999900000013000000000002853000                                       
