00000000MARITIMO S.R.L.     20170707COBRANZAS RAPIPAGO                   
20170707000000000020000024600020000171957604052836293900000000058        
20170707000000000175000024600175000171880076762758252100120000600        
20170707000000000051000024600051000171938808014284927500000000079        
20170707000000000175000024600175000171880076764023960800120000621        
20170707000000000117000024600117000171940090903802794200000000015        
20170707000000000175000024600175000171880076763802794200120000678        
20170707000000000158000024600158000171940060603523592800000000016        
20170707000000000117000024600117000171950090903540594100000000037        
20170707000000000175000024600175000171880076763540594100120000784        
20170707000000000045000024600045000171919700081111111700000000042        
20170707000000000175000024600175000171880076764155873000120000621        
20170707000000000117000024600117000171940089894155873000000000042        
9999999900000012000000000001500000                                       
