00000000MARITIMO S.R.L.     20180707COBRANZAS RAPIPAGO                   
20180707000000000048200024600048200181908220172331467800053000021        
20180707000000000060000024600060000181908810013195149000000000090        
20180707000000000060000024600060000181908810013539241900000000021        
20180707000000000240000024600240000181880101104237367300120000284        
20180707000000000240000024600240000181880101103607385500120000463        
20180707000000000240000024600240000181880101104000658900120000642        
9999999900000006000000000000888200                                       
