00000000MARITIMO S.R.L.     20171007COBRANZAS RAPIPAGO                   
20171007000000000029000024600029000172818217022252205000035000600        
20171007000000000048000024600048000172818217152006434700030000642        
20171007000000000048000024600048000172818217062187133900030000678        
9999999900000003000000000000125000                                       
