00000000MARITIMO S.R.L.     20171107COBRANZAS RAPIPAGO                   
20171107000000000175000024600175000173110080804095666600120000637        
20171107000000000317500024600317500173180071714087082400000000000        
20171107000000000175000024600175000173110080804023960800120000784        
20171107000000000175000024600175000173110080803889096900120000784        
20171107000000000175000024600175000173110080804039476400120000700        
20171107000000000317500024600317500173180071714039476400000000037        
20171107000000000030000024600030000173140601012364232200000000084        
20171107000000000020000024600020000173120601043462535900000000099        
20171107000000000175000024600175000173110080803899225400120000715        
20171107000000000175000024600175000173110080804185407700120000700        
20171107000000000317500024600317500173140071713815084500000000057        
20171107000000000175000024600175000173110080802398007900120000721        
20171107000000000020000024600020000173140601042417825600000000084        
20171107000000000175000024600175000173110080803703872500120000521        
20171107000000000175000024600175000173110080803694848400120000742        
20171107000000000175000024600175000173110080803575516400120000684        
20171107000000000030000024600030000173140601013144840100000000000        
20171107000000000317500024600317500173140071714132127600000000063        
20171107000000000020000024600020000173140601032574382900000000042        
20171107000000000020000024600020000173140601032578917500000000015        
20171107000000000317500024600317500173170071713899104200000000000        
20171107000000000175000024600175000173110080803899104200120000684        
9999999900000022000000000003652500                                       
