00000000MARITIMO S.R.L.     20180207COBRANZAS RAPIPAGO                   
20180207000000000192500024600192500180380083833317413500132000779        
20180207000000000192500024600192500180380083834095666600132000542        
20180207000000000192500024600192500180380083834087082400132000716        
20180207000000000192500024600192500180380083834086371700132000679        
20180207000000000192500024600192500180380083834039476400132000615        
20180207000000000192500024600192500180380083834164026100132000778        
20180207000000000192500024600192500180380083833802794200132000636        
20180207000000000192500024600192500180380083834084971300132000778        
20180207000000000192500024600192500180380083833673749000132000363        
9999999900000009000000000001732500                                       
