00000000MARITIMO S.R.L.     20170607COBRANZAS RAPIPAGO                   
20170607000000000140000024600140000171580060603687290800095000537        
20170607000000000175000024600175000171580075753540594100120000715        
20170607000000000117000024600117000171650089893540594100000000015        
20170607000000000175000024600175000171580075753103405300120000778        
20170607000000000038500024600038500171640401052534828300015000021        
20170607000000000117000024600117000171590089893301748400000000015        
20170607000000000175000024600175000171580075753301748400120000158        
20170607000000000175000024600175000171580075754164026100120000737        
20170607000000000175000024600175000171580075753219953500120000663        
20170607000000000140000024600140000171580060603827732000095000742        
20170607000000000117000024600117000171630089894185407700000000016        
20170607000000000140000024600140000171580060603856126100095000799        
20170607000000000158000024600158000171640058584150272500000000079        
20170607000000000035000024600035000171590705271729561700050000090        
9999999900000014000000000001877500                                       
