00000000MARITIMO S.R.L.     20180807COBRANZAS RAPIPAGO                   
20180807000000000025000024600025000182217605072325679200000000099        
20180807000000000240000024600240000182190102104073079300120000637        
20180807000000000240000024600240000182190102103315731500120000721        
20180807000000000240000024600240000182250103103870718000120000063        
20180807000000000240000024600240000182190102104134743400120000699        
20180807000000000240000024600240000182190102103946271200120000790        
20180807000000000240000024600240000182190102103725952900120000358        
20180807000000000150000024600150000182220115113725952900000000015        
20180807000000000025000024600025000182217605043050696200000000084        
20180807000000000240000024600240000182190102101879152700120000684        
20180807000000000150000024600150000182250115113538196700000000058        
20180807000000000240000024600240000182190102103538196700120000678        
20180807000000000025000024600025000182217605052947819300000000016        
20180807000000000240000024600240000182190102103976079800120000742        
20180807000000000240000024600240000182190102103432105400120000684        
20180807000000000240000024600240000182190102103927049500120000784        
20180807000000000240000024600240000182190102103526663100120000784        
20180807000000000150000024600150000182260116113526663100000000021        
20180807000000000240000024600240000182190102104223668900120000784        
20180807000000000240000024600240000182190102103723455100120000684        
20180807000000000150000024600150000182250114113723455100000000021        
20180807000000000240000024600240000182190102103727678200120000137        
20180807000000000240000024600240000182190102104000658900120000742        
20180807000000000150000024600150000182260115114000658900000000042        
20180807000000000240000024600240000182190102104022913600120000663        
20180807000000000150000024600150000182240116113617587900000000000        
20180807000000000240000024600240000182190102103350458500120000315        
20180807000000000240000024600240000182190102103946208900120000621        
20180807000000000025000024600025000182217605143207081400000000000        
20180807000000000150000024600150000182260119114137872900000000058        
20180807000000000240000024600240000182190102103671471200120000616        
20180807000000000240000024600240000182190102103965736500120000742        
9999999900000032000000000006190000                                       
