00000000MARITIMO S.R.L.     20181008COBRANZAS RAPIPAGO                   
20181008000000000171000024600171000182840129124053692700085000084        
9999999900000001000000000000171000                                       
