00000000MARITIMO S.R.L.     20180208COBRANZAS RAPIPAGO                   
20180208000000000220000024600220000180440082824095496700000000090        
20180208000000000205700024600205700180460083834196811500143000063        
9999999900000002000000000000425700                                       
