00000000MARITIMO S.R.L.     20180508COBRANZAS RAPIPAGO                   
20180508000000000060000024600060000181358810012001241200000000063        
20180508000000000060000024600060000181358810013368427200000000063        
20180508000000000080000024600080000181308809013408768800000000084        
20180508000000000060000024600060000181358810013808825900000000084        
9999999900000004000000000000260000                                       
