00000000MARITIMO S.R.L.     20170608COBRANZAS RAPIPAGO                   
20170608000000000158000024600158000171630059599296908000000000021        
20170608000000000030000024600030000171609925030000000000000000063        
9999999900000002000000000000188000                                       
