00000000MARITIMO S.R.L.     20170908COBRANZAS RAPIPAGO                   
20170908000000000051000024600051000172558808013774888800000000057        
20170908000000000080000024600080000172531708111304435700150000058        
20170908000000000080000024600080000172531708072637558000150000557        
20170908000000000080000024600080000172531708062751868500150000521        
20170908000000000051000024600051000172578808014948034000000000058        
9999999900000005000000000000342000                                       
