00000000MARITIMO S.R.L.     20180808COBRANZAS RAPIPAGO                   
20180807000000000240000024600240000182190102102995273800120000658        
20180808000000000150000024600150000182250116114073079300000000063        
20180808000000000276303024600276303182270100102564081100000360000        
20180808000000000060000024600060000182268810014070307000000000042        
20180808000000000060000024600060000182218810013928358700000000021        
20180808000000000025000024600025000182217605213562030800000000000        
20180808000000000015000024600015000182217605442219976200000000042        
9999999900000007000000000000826303                                       
