00000000MARITIMO S.R.L.     20180108COBRANZAS RAPIPAGO                   
20180108000000000060000024600060000180101008373243180700000000042        
20180108000000000060000024600060000180101008383344361100000000084        
20180108000000000042500024600042500180158218034092181100000000078        
20180108000000000060000024600060000180101008292208077000000000063        
20180108000000000054000024600054000180129700091111111700000000015        
9999999900000005000000000000276500                                       
