00000000MARITIMO S.R.L.     20180608COBRANZAS RAPIPAGO                   
20180608000000000252000024600252000181660100103965410700216000016        
9999999900000001000000000000252000                                       
