00000000MARITIMO S.R.L.     20171108COBRANZAS RAPIPAGO                   
20171108000000000317500024600317500173190071713484209500000000063        
20171108000000000020000024600020000173140601042169646200000000000        
20171108000000000020000024600020000173140601032953125300000000021        
20171108000000000020000024600020000173140601042304437600000000084        
20171108000000000020000024600020000173140601042253176000000000090        
20171108000000000187000024600187000173190080804054036400130000058        
20171108000000000187000024600187000173190080804164026100130000090        
20171108000000000135000024600135000173189933014084971300000000021        
20171108000000000020000024600020000173120601042204291400000000000        
20171108000000000317500024600317500173170071713098044900000000042        
20171108000000000117000024600117000173190091913792603700000000037        
20171108000000000020000024600020000173140601043698167100000000099        
9999999900000012000000000001381000                                       
