00000000MARITIMO S.R.L.     20180308COBRANZAS RAPIPAGO                   
20180308000000000205700024600205700180740084844166882600143000058        
20180308000000000055000024600055000180721009082310349300000000079        
9999999900000002000000000000260700                                       
