00000000MARITIMO S.R.L.     20170808COBRANZAS RAPIPAGO                   
20170808000000000020000024600020000172207604052874184200000000084        
20170808000000000117000024600117000172260095953561283200000000021        
20170808000000000187000024600187000172270077773815084500130000021        
20170808000000000117000024600117000172270091914185407700000000078        
20170808000000000117000024600117000172220090903815084500000000079        
20170808000000000051000024600051000172278808013652074100000000057        
9999999900000006000000000000609000                                       
