00000000MARITIMO S.R.L.     20170809COBRANZAS RAPIPAGO                   
20170809000000000051000024600051000172228216142401867400000000042        
20170809000000000032500024600032500172288216022829949100000000000        
20170809000000000020000024600020000172287604033496122400000000079        
20170809000000000051000024600051000172288216033348051000000000084        
20170809000000000051000024600051000172288216132820072500000000084        
9999999900000005000000000000205500                                       
