00000000MARITIMO S.R.L.     20180209COBRANZAS RAPIPAGO                   
20180209000000000205700024600205700180460083834176580400143000000        
9999999900000001000000000000205700                                       
