00000000MARITIMO S.R.L.     20180809COBRANZAS RAPIPAGO                   
20180809000000000060000024600060000182258810013415708200000000084        
20180809000000000060000024600060000182288810014470591800000000090        
20180809000000000015000024600015000182217605484107839700000000058        
20180809000000000150000024600150000182280118114094161200000000099        
20180809000000000150000024600150000182280118114213491200000000079        
20180809000000000276303024600276303182210100103536098900000360021        
9999999900000006000000000000711303                                       
