00000000MARITIMO S.R.L.     20180309COBRANZAS RAPIPAGO                   
20180309000000000220000024600220000180740083833160343600000000084        
20180309000000000205700024600205700180740084843540594100143000100        
20180309000000000065000024600065000180711009373246759000000000084        
20180309000000000055000024600055000180751009162764279800000000058        
20180309000000000065000024600065000180731009431361310700000000084        
9999999900000005000000000000610700                                       
