00000000MARITIMO S.R.L.     20170509COBRANZAS RAPIPAGO                   
20170509000000000060000024600060000171302401352982713500100000437        
20170509000000000060000024600060000171302401362642884800100000542        
20170509000000000066000024600066000171308215221846240900000000099        
20170509000000000051000024600051000171308215152116450500000000084        
20170509000000000032500024600032500171308215012049124800000000084        
20170509000000000117000024600117000171350088883219953500000000021        
20170509000000000187000024600187000171350074743219953500130000036        
20170509000000000030000024600030000171302401023420397400050000584        
20170509000000000030000024600030000171302401062001273700050000557        
20170509000000000060000024600060000171302401312732822500100000578        
20170509000000000030000024600030000171302401189414705300050000521        
20170509000000000030000024600030000171292401042867967000050000084        
9999999900000012000000000000753500                                       
