00000000MARITIMO S.R.L.     20171109COBRANZAS RAPIPAGO                   
20171109000000000045000024600045000173191007143387371100000000015        
20171109000000000020000024600020000173140601033698133100000000078        
20171109000000000317500024600317500173180071713889096900000000015        
20171109000000000187000024600187000173190080803712418900130000163        
20171109000000000030000024600030000173140601014114816000000000021        
20171109000000000020000024600020000173140601041777840100000000063        
20171109000000000030000024600030000173140601013366318300000000036        
20171109000000000030000024600030000173140601013593013800000000037        
9999999900000008000000000000679500                                       
