00000000MARITIMO S.R.L.     20170909COBRANZAS RAPIPAGO                   
20170909000000000080000024600080000172531708052997105600150000600        
20170909000000000080000024600080000172531708082186295400150000536        
20170909000000000080000024600080000172531708012812994700150000600        
20170909000000000080000024600080000172531708062852016500150000421        
20170909000000000080000024600080000172531708123600818100150000642        
20170909000000000080000024600080000172531708082140976100150000215        
9999999900000006000000000000480000                                       
