00000000MARITIMO S.R.L.     20170109COBRANZAS RAPIPAGO                   
20170109000000000158000024600158000170120054549296908000000000036        
20170109000000000037800024600037800170148213042594468800000000042        
20170109000000000100000024600100000170161850073508820300200000099        
20170109000000000100000024600100000170131850112049132700200000079        
9999999900000004000000000000395800                                       
