00000000MARITIMO S.R.L.     20180109COBRANZAS RAPIPAGO                   
20180109000000000032000024600032000180168218013238358900000000015        
20180109000000000200000024600200000180160081814166882600000000079        
20180109000000000042500024600042500180168218072177409000000000021        
20180109000000000220000024600220000180150082824095666600000000042        
20180109000000000220000024600220000180150082824023960800000000058        
20180109000000000220000024600220000180150082824185407700000000079        
20180109000000000042500024600042500180118218062453947800000000000        
20180109000000000060000024600060000180101008372873490300000000079        
20180109000000000220000024600220000180150082823842430600000000021        
20180109000000000042500024600042500180168218043234378700000000037        
20180109000000000220000024600220000180150082823506911200000000036        
20180109000000000060000024600060000180101008421657484100000000079        
9999999900000012000000000001579500                                       
