00000000MARITIMO S.R.L.     20171009COBRANZAS RAPIPAGO                   
20171009000000000123500024600123500172860097972453980000000000015        
20171009000000000187000024600187000172880079793694848400130000190        
20171009000000000171500024600171500172897912053007484600000000084        
9999999900000003000000000000482000                                       
