00000000MARITIMO S.R.L.     20180709COBRANZAS RAPIPAGO                   
20180709000000000150000024600150000181970114113538196700000000021        
20180709000000000252000024600252000181960101103538196700216000190        
9999999900000002000000000000402000                                       
