00000000MARITIMO S.R.L.     20180509COBRANZAS RAPIPAGO                   
20180509000000000060000024600060000181358810013389733000000000063        
20180509000000000060000024600060000181368810013600429700000000015        
20180509000000000100000024600100000181358809022671811100000000090        
20180509000000000060000024600060000181328810014058178200000000057        
20180509000000000060000024600060000181308810014535627400000000063        
20180509000000000060000024600060000181338810013653022500000000036        
20180509000000000060000024600060000181358810013676536700000000058        
20180509000000000060000024600060000181358810014030372600000000037        
20180509000000000220000024600220000181360084844053731700000000063        
9999999900000009000000000000740000                                       
