00000000MARITIMO S.R.L.     20180409COBRANZAS RAPIPAGO                   
20180409000000000252000024600252000181050098983219171400216000184        
20180409000000000060000024600060000181058810014323743500000000021        
9999999900000002000000000000312000                                       
