00000000MARITIMO S.R.L.     20171209COBRANZAS RAPIPAGO                   
20171209000000000030000024600030000173430305032822993800000000090        
20171209000000000040500024600040500173438218052822993800020000078        
20171209000000000113700024600113700173478504672754259800000000000        
9999999900000003000000000000184200                                       
