00000000MARITIMO S.R.L.     20170609COBRANZAS RAPIPAGO                   
20170609000000000158000024600158000171640059593701312600000000021        
20170609000000000038500024600038500171630401409396021800015000042        
20170609000000000096500024600096500171647911032359376100110000036        
20170609000000000158000024600158000171670059591904431500000000037        
20170609000000000117000024600117000171660088884147205900000000021        
20170609000000000149500024600149500171660060604139450400085000178        
20170609000000000187000024600187000171660075753575516400130000079        
9999999900000007000000000000904500                                       
