00000000MARITIMO S.R.L.     20170410COBRANZAS RAPIPAGO                   
20170405000000000175000024600175000170970073733712418900120000536        
20170410000000000187000024600187000171050073733900056300130000142        
20170410000000000025000024600025000171002401042828919200050000284        
20170410000000000025000024600025000171002401234351196000050000299        
20170410000000000037000024600037000171058214301390083400000000000        
20170410000000000149500024600149500171050058584139450400085000263        
9999999900000006000000000000598500                                       
