00000000MARITIMO S.R.L.     20180410COBRANZAS RAPIPAGO                   
20180410000000000252000024600252000181050098983309723500216000284        
20180410000000000252000024600252000181050098984146445200216000121        
20180410000000000252000024600252000181050098984000658900216000100        
20180410000000000252000024600252000181050098983870718000216000163        
20180410000000000252000024600252000181050098983526663100216000142        
20180410000000000252000024600252000181050098984085382100216000184        
20180410000000000252000024600252000181050098983768745100216000116        
9999999900000007000000000001764000                                       
