00000000MARITIMO S.R.L.     20180810COBRANZAS RAPIPAGO                   
20180810000000000252000024600252000182270102103817780400216000142        
20180810000000000060000024600060000182288810014270949600000000099        
20180810000000000099500024600099500182279607013004629900000000021        
20180810000000000252000024600252000182270102103835672700216000157        
20180810000000000150000024600150000182290119114083600900000000000        
20180810000000000069500024600069500182280265089271845900161000058        
20180810000000000150000024600150000182290119114213491200000000063        
20180810000000000150000024600150000182260116113671471200000000099        
9999999900000008000000000001183000                                       
