00000000MARITIMO S.R.L.     20180210COBRANZAS RAPIPAGO                   
20180210000000000205700024600205700180460083834183512500143000084        
9999999900000001000000000000205700                                       
