00000000MARITIMO S.R.L.     20171110COBRANZAS RAPIPAGO                   
20171110000000000020000024600020000173140601042636500100000000084        
20171110000000000020000024600020000173140601042811204000000000042        
20171110000000000030000024600030000173140601023002807700000000042        
20171110000000000317500024600317500173200071713560798200000000090        
20171110000000000187000024600187000173190080803560798200130000199        
20171110000000000045000024600045000173141007172509619600000000021        
20171110000000000020000024600020000173140601042399513800000000079        
9999999900000007000000000000639500                                       
