00000000MARITIMO S.R.L.     20171010COBRANZAS RAPIPAGO                   
20171010000000000171500024600171500172907912053119242700000000078        
20171010000000000187000024600187000172880079794054036400130000284        
20171010000000000171500024600171500172897912082036208900000000057        
9999999900000003000000000000530000                                       
