00000000MARITIMO S.R.L.     20180710COBRANZAS RAPIPAGO                   
20180710000000000034300024600034300181968220022989227200032000284        
20180710000000000034300024600034300181968220023201713600032000258        
20180710000000000252000024600252000181960101103290950800216000221        
20180710000000000020000024600020000181967605072284073500050000200        
20180710000000000020000024600020000181967605072284092800050000257        
20180710000000000150000024600150000181980118113944534700000000084        
9999999900000006000000000000510600                                       
