00000000MARITIMO S.R.L.     20180110COBRANZAS RAPIPAGO                   
20180110000000000042500024600042500180158218043998402300000000021        
20180110000000000220000024600220000180150082824086371700000000042        
20180110000000000042500024600042500180158218062377777400000000037        
20180110000000000060000024600060000180101008372846069900000000016        
20180110000000000042500024600042500180108218052876143700000000058        
20180110000000000042500024600042500180168218081847401200000000016        
20180110000000000042500024600042500180158218043129928200000000016        
20180110000000000220000024600220000180160082823580226900000000090        
20180110000000000060000024600060000180101008311780224900000000015        
20180110000000000060000024600060000180101008392182016400000000016        
20180110000000000060000024600060000180101008322000008300000000084        
9999999900000011000000000000892500                                       
