00000000MARITIMO S.R.L.     20170710COBRANZAS RAPIPAGO                   
20170710000000000051000024600051000171988808013543031900000000058        
20170710000000000045000024600045000171919700081111111500000000099        
20170710000000000045000024600045000171919700080111111200000000084        
9999999900000003000000000000141000                                       
