00000000MARITIMO S.R.L.     20170910COBRANZAS RAPIPAGO                   
20170910000000000080000024600080000172531708043482123800150000484        
9999999900000001000000000000080000                                       
