00000000MARITIMO S.R.L.     20180510COBRANZAS RAPIPAGO                   
20180510000000000060000024600060000181378810012551988700000000000        
20180510000000000060000024600060000181368810013336889800000000000        
20180510000000000060000024600060000181378810012360777300000000079        
20180510000000000060000024600060000181368810014442554800000000084        
20180510000000000060000024600060000181378810014086570000000000042        
20180510000000000060000024600060000181358810013028921900000000036        
20180510000000000060000024600060000181368810013355170800000000084        
20180510000000000060000024600060000181378810013983132700000000021        
20180510000000000276303024600276303181350098983617587900000360042        
20180510000000000205700024600205700181350086863575516400143000221        
20180510000000000100000024600100000181358809022510044700000000258        
20180510000000000060000024600060000181378810012510044700000000063        
20180510000000000205700024600205700181350086863506911200143000121        
20180510000000000060000024600060000181378810013883002300000000000        
9999999900000014000000000001387703                                       
