00000000MARITIMO S.R.L.     20170810COBRANZAS RAPIPAGO                   
20170810000000000117000024600117000172260092924068251800000000084        
20170810000000000051000024600051000172288216152034354400000000015        
20170810000000000051000024600051000172278216062041536000000000021        
9999999900000003000000000000219000                                       
