00000000MARITIMO S.R.L.     20180910COBRANZAS RAPIPAGO                   
20180910000000000150000024600150000182540119113782168600000000084        
20180910000000000150000024600150000182600120124083600900000000090        
20180910000000000171000024600171000182530128124237367300085000084        
20180910000000000252000024600252000182580103104191895800216000184        
9999999900000004000000000000723000                                       
