00000000MARITIMO S.R.L.     20171211COBRANZAS RAPIPAGO                   
20171211000000000065000024600065000173468305301092436100150000021        
20171211000000000317500024600317500173520072724023960800000000057        
20171211000000000030000024600030000173480305023072031200000000084        
20171211000000000030000024600030000173450305113189398200000000057        
20171211000000000030000024600030000173450305032672854500000000090        
20171211000000000030000024600030000173450305032707598900000000090        
20171211000000000317500024600317500173480071713506911200000000099        
20171211000000000113700024600113700173528504432491344300000000021        
20171211000000000317500024600317500173520072723899104200000000099        
20171211000000000187000024600187000173490081813899104200130000363        
9999999900000010000000000001438200                                       
