00000000MARITIMO S.R.L.     20180411COBRANZAS RAPIPAGO                   
20180411000000000042000024600042000181051201042246716700000000021        
20180411000000000252000024600252000181050098984134743400216000184        
20180411000000000252000024600252000181050098984215291600216000221        
20180411000000000252000024600252000181050098981879152700216000200        
20180411000000000252000024600252000181050098984022913600216000299        
20180411000000000200000024600200000181080073734207652200000000021        
20180411000000000252000024600252000181050098983795212500216000300        
20180411000000000205700024600205700181050085854183512500143000363        
9999999900000008000000000001707700                                       
