00000000MARITIMO S.R.L.     20170111COBRANZAS RAPIPAGO                   
20170111000000000037800024600037800170128213062223406900000000063        
20170111000000000037800024600037800170178213042638412600000000078        
20170111000000000037800024600037800170178213123213232500000000036        
20170111000000000149500024600149500170150055553984958400085000363        
20170111000000000037800024600037800170188213052483165800000000016        
20170111000000000050000024600050000170161501162993169700100000037        
20170111000000000037800024600037800170188213033998402300000000036        
20170111000000000037800024600037800170178213181160224500000000057        
20170111000000000037800024600037800170178213171356056300000000090        
20170111000000000029400024600029400170188213022478837600000000037        
9999999900000010000000000000493500                                       
