00000000MARITIMO S.R.L.     20180911COBRANZAS RAPIPAGO                   
20180911000000000060000024600060000182608810014011940300000000000        
20180911000000000252000024600252000182580103103290950800216000321        
20180911000000000171000024600171000182570128124022913600085000036        
20180911000000000252000024600252000182580103103768745100216000384        
20180911000000000252000024600252000182580103103817780400216000279        
20180911000000000171000024600171000182550128124053692700085000079        
20180911000000000100000024600100000182608811013204958200000000021        
9999999900000007000000000001258000                                       
