00000000MARITIMO S.R.L.     20180611COBRANZAS RAPIPAGO                   
20180611000000000252000024600252000181660100103290950800216000300        
20180611000000000252000024600252000181660100103633009000216000363        
20180611000000000276303024600276303181660099993104514000000360063        
20180611000000000060000024600060000181698810013043766500000000000        
9999999900000004000000000000840303                                       
