00000000MARITIMO S.R.L.     20170911COBRANZAS RAPIPAGO                   
20170911000000000095000024600095000172611708072249890700000000063        
20170911000000000117000024600117000172560089894166882600000000037        
20170911000000000200000024600200000172560076764166882600000000057        
20170911000000000145000024600145000172617912173867473800265000016        
20170911000000000145000024600145000172607912121054907000265000042        
20170911000000000095000024600095000172611708062754077200000000063        
20170911000000000040000024600040000172610706271816234200000000063        
20170911000000000187000024600187000172580078783946406500130000379        
20170911000000000123500024600123500172610097973785633100000000021        
20170911000000000200000024600200000172610077773785633100000000063        
20170911000000000145000024600145000172557912033906585600265000037        
20170911000000000187000024600187000172580078784155873000130000321        
9999999900000012000000000001679500                                       
