00000000MARITIMO S.R.L.     20170811COBRANZAS RAPIPAGO                   
20170811000000000051000024600051000172258808014020729800000000000        
20170811000000000051000024600051000172298808013336886100000000036        
20170811000000000025000024600025000172297604563370791000000000084        
20170811000000000010000024600010000172297604483657736500000000063        
20170811000000000051000024600051000172268216123046711000000000063        
20170811000000000123500024600123500172240096964086371700000000084        
20170811000000000117000024600117000172280089892945877700000000015        
20170811000000000200000024600200000172280076762945877700000000021        
20170811000000000051000024600051000172298808012551988700000000000        
20170811000000000051000024600051000172288216161791531700000000042        
20170811000000000187000024600187000172270077774185407700130000021        
20170811000000000058000024600058000172268807012545959100000000058        
20170811000000000051000024600051000172278808013574961800000000084        
20170811000000000051000024600051000172278808013600118500000000057        
20170811000000000051000024600051000172278808013574976900000000036        
20170811000000000051000024600051000172268808012545959100000000084        
9999999900000016000000000001179500                                       
