00000000MARITIMO S.R.L.     20180111COBRANZAS RAPIPAGO                   
20180111000000000042500024600042500180168218114154084500000000021        
20180111000000000032000024600032000180178218019287210100000000084        
20180111000000000080000024600080000180128305344694427100000000084        
20180111000000000080000024600080000180128305442419352100000000063        
20180111000000000080000024600080000180128305182202576500000000063        
20180111000000000042500024600042500180178218142377153600000000084        
20180111000000000205700024600205700180150082823301748400143000321        
20180111000000000042500024600042500180168218091199127400000000079        
20180111000000000042500024600042500180178218132990967400000000016        
9999999900000009000000000000647700                                       
