00000000MARITIMO S.R.L.     20180511COBRANZAS RAPIPAGO                   
20180511000000000252000024600252000181350099994246992500216000178        
20180511000000000220000024600220000181340085854166882600000000036        
20180511000000000060000024600060000181368810012592915800000000015        
20180511000000000060000024600060000181358810013626074200000000036        
20180511000000000060000024600060000181388810014376823900000000058        
20180511000000000048200024600048200181388219091323124700043000000        
20180511000000000252000024600252000181350099993219171400216000321        
20180511000000000252000024600252000181350099992794872800216000378        
20180511000000000060000024600060000181318810014014590400000000000        
20180511000000000060000024600060000181378810014531771900000000079        
20180511000000000060000024600060000181378810014210287200000000078        
20180511000000000205700024600205700181350086863899104200143000184        
20180511000000000252000024600252000181350099993849775700216000084        
20180511000000000100000024600100000181358809023853300200000000337        
20180511000000000060000024600060000181388810013755217300000000000        
20180511000000000060000024600060000181368810012224418100000000016        
20180511000000000080000024600080000181358809012545959100000000242        
20180511000000000060000024600060000181378810014167409400000000063        
20180511000000000060000024600060000181388810013933564900000000042        
9999999900000019000000000002261900                                       
