00000000MARITIMO S.R.L.     20170711COBRANZAS RAPIPAGO                   
20170711000000000187000024600187000171960076763946406500130000363        
20170711000000000117000024600117000171990088883946406500000000042        
20170711000000000051000024600051000171968808014339782400000000000        
20170711000000000117000024600117000171990093933114993300000000079        
9999999900000004000000000000472000                                       
