00000000MARITIMO S.R.L.     20170511COBRANZAS RAPIPAGO                   
20170511000000000117000024600117000171370088883123480500000000057        
20170511000000000096500024600096500171387911023059457600110000063        
20170511000000000070000024600070000171382401341902312900000000042        
9999999900000003000000000000283500                                       
