00000000MARITIMO S.R.L.     20180811COBRANZAS RAPIPAGO                   
20180811000000000150000024600150000182300120124213491200000000057        
9999999900000001000000000000150000                                       
