00000000MARITIMO S.R.L.     20180711COBRANZAS RAPIPAGO                   
20180711000000000252000024600252000181960101103433927500216000299        
20180711000000000099500024600099500181969607013336889800000000216        
20180711000000000138000024600138000181969606012360777300000000299        
20180711000000000150000024600150000181940115113617587900000000084        
20180711000000000150000024600150000181980119113815981800000000000        
20180711000000000252000024600252000181960101102995273800216000216        
9999999900000006000000000001041500                                       
