00000000MARITIMO S.R.L.     20171011COBRANZAS RAPIPAGO                   
20171011000000000187000024600187000172880079793718503700130000300        
20171011000000000187000024600187000172880079793815084500130000321        
20171011000000000200000024600200000172910078782931678200000000000        
20171011000000000066000024600066000172898217233475089000000000042        
20171011000000000187000024600187000172880079793792603700130000315        
20171011000000000066000024600066000172908217212795112100000000099        
9999999900000006000000000000893000                                       
