00000000MARITIMO S.R.L.     20180612COBRANZAS RAPIPAGO                   
20180612000000000252000024600252000181660100104246992500216000357        
20180612000000000060000024600060000181638810014284927500000000057        
20180612000000000053600024600053600181701852182803151200000000000        
20180612000000000252000024600252000181660100103802101100216000321        
20180612000000000150000024600150000181690118114187586000000000015        
20180612000000000220000024600220000181660086863806766800000000078        
20180612000000000252000024600252000181660100103768745100216000378        
20180612000000000205700024600205700181660087873540594100143000490        
9999999900000008000000000001445300                                       
