00000000MARITIMO S.R.L.     20170812COBRANZAS RAPIPAGO                   
20170812000000000032500024600032500172288216012196880500000000000        
9999999900000001000000000000032500                                       
