00000000MARITIMO S.R.L.     20180412COBRANZAS RAPIPAGO                   
20180412000000000252000024600252000181050098983946271200216000321        
20180412000000000252000024600252000181050098983891655500216000442        
20180412000000000252000024600252000181050098984086728100216000342        
20180412000000000205700024600205700181050085853615336000143000221        
20180412000000000252000024600252000181050098983849775700216000142        
9999999900000005000000000001213700                                       
