00000000MARITIMO S.R.L.     20180312COBRANZAS RAPIPAGO                   
20180312000000000205700024600205700180740084843560798200143000499        
20180312000000000055000024600055000180751009152710844400000000058        
20180312000000000055000024600055000180751009091806911300000000016        
20180312000000000055000024600055000180751009201657484100000000063        
9999999900000004000000000000370700                                       
