00000000MARITIMO S.R.L.     20170112COBRANZAS RAPIPAGO                   
20170112000000000037800024600037800170188213033386903200000000063        
20170112000000000044000024600044000170192918141747050000000000021        
20170112000000000037800024600037800170188213122990967400000000036        
20170112000000000037800024600037800170188213033258491700000000042        
20170112000000000149500024600149500170150055553480052500085000490        
9999999900000005000000000000306900                                       
