00000000MARITIMO S.R.L.     20171012COBRANZAS RAPIPAGO                   
20171012000000000171500024600171500172897912043647863000000000079        
20171012000000000117000024600117000172920090903399386300000000000        
20171012000000000200000024600200000172920078783399386300000000037        
20171012000000000171500024600171500172917912091713949100000000063        
20171012000000000171500024600171500172917912101454506500000000042        
9999999900000005000000000000831500                                       
