00000000MARITIMO S.R.L.     20180112COBRANZAS RAPIPAGO                   
20180112000000000047000024600047000180151008182184582600030000479        
20180112000000000042500024600042500180178218034154084600000000036        
20180112000000000060000024600060000180191008273160549900000000099        
20180112000000000042500024600042500180128218142469906500000000015        
20180112000000000042500024600042500180178218043072031200000000084        
20180112000000000080000024600080000180128305262313507000000000084        
20180112000000000040000024600040000180128305423786821500000000000        
20180112000000000040000024600040000180128305354385559400000000016        
20180112000000000080000024600080000180128305272189294500000000058        
20180112000000000042500024600042500180178218052893580500000000057        
20180112000000000047000024600047000180151008474258844700030000442        
20180112000000000032000024600032000180178218023214723500000000084        
20180112000000000042500024600042500180178218043064568400000000084        
20180112000000000042500024600042500180178218132653486100000000021        
20180112000000000042500024600042500180178218052887859700000000099        
20180112000000000042500024600042500180178218171381672300000000063        
20180112000000000042500024600042500180178218091498906400000000000        
20180112000000000042500024600042500180178218123343488600000000037        
9999999900000018000000000000851000                                       
