00000000MARITIMO S.R.L.     20180912COBRANZAS RAPIPAGO                   
20180912000000000150000024600150000182620120123782168600000000084        
20180912000000000150000024600150000182580119114094161200000000042        
20180912000000000100000024600100000182608811013257732400000000078        
20180912000000000100000024600100000182608811012714938400000000084        
20180912000000000100000024600100000182608811012306384100000000021        
9999999900000005000000000000600000                                       
