00000000MARITIMO S.R.L.     20170912COBRANZAS RAPIPAGO                   
20170912000000000117000024600117000172620092923676883600000000078        
20170912000000000117000024600117000172610094943268249300000000042        
20170912000000000175000024600175000172570080802950292900120000078        
20170912000000000200000024600200000172620077773712418900000000042        
20170912000000000123500024600123500172610097974103728000000000058        
20170912000000000187000024600187000172580078784103728000130000316        
20170912000000000095000024600095000172611708101277647400000000000        
9999999900000007000000000001014500                                       
