00000000MARITIMO S.R.L.     20170712COBRANZAS RAPIPAGO                   
20170712000000000158000024600158000171960060609296908000000000084        
20170712000000000099000024600099000171969601021617748900000000400        
20170712000000000085000024600085000171969602011617748900000000415        
20170712000000000187000024600187000171960076763889096900130000316        
9999999900000004000000000000529000                                       
