00000000MARITIMO S.R.L.     20180512COBRANZAS RAPIPAGO                   
20180512000000000060000024600060000181388810014337897900000000090        
20180512000000000205700024600205700181350086864183512500143000200        
9999999900000002000000000000265700                                       
