00000000MARITIMO S.R.L.     20180712COBRANZAS RAPIPAGO                   
20180712000000000252000024600252000181960101104246992500216000263        
20180712000000000048200024600048200181968220162972828100053000290        
20180712000000000099500024600099500181969607014284927500000000299        
20180712000000000252000024600252000181960101104164047600216000263        
20180712000000000252000024600252000181960101104245763800216000363        
20180712000000000150000024600150000181980119114187586000000000016        
20180712000000000252000024600252000181960101103965736500216000442        
9999999900000007000000000001305700                                       
