00000000MARITIMO S.R.L.     20170612COBRANZAS RAPIPAGO                   
20170612000000000117000024600117000171670089893727328000000000084        
20170612000000000187000024600187000171660075753724832800130000300        
20170612000000000117000024600117000171670089892924869200000000084        
20170612000000000117000024600117000171700092923114993300000000036        
9999999900000004000000000000538000                                       
