00000000MARITIMO S.R.L.     20171212COBRANZAS RAPIPAGO                   
20171212000000000030000024600030000173468218022085105700020000042        
20171212000000000065000024600065000173488305262512554700150000037        
20171212000000000030000024600030000173480305014110634900000000021        
20171212000000000040500024600040500173488218072322307100020000099        
20171212000000000030000024600030000173480305042322307100000000099        
20171212000000000187000024600187000173490081814196811500130000463        
9999999900000006000000000000382500                                       
