00000000MARITIMO S.R.L.     20170713COBRANZAS RAPIPAGO                   
20170713000000000051000024600051000171998808013600429700000000079        
20170713000000000051000024600051000171988808013257848200000000099        
20170713000000000117000024600117000171990090903718503700000000099        
20170713000000000187000024600187000171960076763718503700130000584        
20170713000000000048000024600048000172018216071745611000030000016        
20170713000000000051000024600051000172008808013477074600000000058        
9999999900000006000000000000505000                                       
