00000000MARITIMO S.R.L.     20170913COBRANZAS RAPIPAGO                   
20170913000000000145000024600145000172607912082219435000265000000        
20170913000000000117000024600117000172630093933676883600000000084        
20170913000000000117000024600117000172630095953268249300000000000        
20170913000000000145000024600145000172627912173404526000265000078        
20170913000000000123500024600123500172570096963946687100000000021        
20170913000000000187000024600187000172580078783712418900130000584        
20170913000000000058000024600058000172621708161620086800000000079        
9999999900000007000000000000892500                                       
