00000000MARITIMO S.R.L.     20180713COBRANZAS RAPIPAGO                   
20180713000000000048200024600048200181968220152818779600053000521        
20180713000000000048200024600048200181948220133477919500053000000        
20180713000000000048200024600048200181968220052703509100053000515        
20180713000000000252000024600252000181960101103802101100216000415        
20180713000000000252000024600252000181960101103350458500216000442        
20180713000000000252000024600252000181960101103633009000216000457        
20180713000000000252000024600252000181960101103768745100216000599        
20180713000000000048200024600048200181968220133430977200053000463        
20180713000000000220000024600220000182010086864053731700000000000        
9999999900000009000000000001420800                                       
