00000000MARITIMO S.R.L.     20170613COBRANZAS RAPIPAGO                   
20170613000000000096500024600096500171677911022600981800110000337        
20170613000000000096500024600096500171677911041202841100110000463        
20170613000000000187000024600187000171660075753946406500130000558        
9999999900000003000000000000380000                                       
