00000000MARITIMO S.R.L.     20180613COBRANZAS RAPIPAGO                   
20180613000000000060000024600060000181718810013355179100000000063        
20180613000000000060000024600060000181718810014379379400000000078        
20180613000000000060000024600060000181718810014032338500000000036        
20180613000000000205700024600205700181660087873889096900143000337        
20180613000000000020000024600020000181697605043290737200050000084        
20180613000000000150000024600150000181690114113671471200000000057        
20180613000000000252000024600252000181660100103671471200216000363        
20180613000000000060000024600060000181718810014419234100000000063        
20180613000000000060000024600060000181718810014388185900000000000        
20180613000000000060000024600060000181718810013614350300000000000        
9999999900000010000000000000987700                                       
