00000000MARITIMO S.R.L.     20180413COBRANZAS RAPIPAGO                   
20180413000000000042000024600042000181051201023561042100000000021        
20180413000000000065000024600065000181051201141858364500000000042        
20180413000000000205700024600205700181050085853575516400143000115        
20180413000000000220000024600220000181100084843639936000000000057        
20180413000000000252000024600252000181050098983538196700216000336        
20180413000000000252000024600252000181050098982581878700216000416        
20180413000000000205700024600205700181050085853785633100143000563        
20180413000000000252000024600252000181050098983536798800216000342        
20180413000000000252000024600252000181050098983526692200216000521        
20180413000000000042000024600042000181051201032489285500000000090        
20180413000000000205700024600205700181050085854095496700143000458        
9999999900000011000000000001994100                                       
