00000000MARITIMO S.R.L.     20171013COBRANZAS RAPIPAGO                   
20171013000000000171500024600171500172917912101199620000000000000        
20171013000000000051000024600051000172908217033596285500000000016        
20171013000000000051000024600051000172908217033683420500000000090        
20171013000000000051000024600051000172908217033596026100000000099        
20171013000000000187000024600187000172880079793615336000130000284        
20171013000000000171500024600171500172937912024265251300000000016        
20171013000000000171500024600171500172937912053086173300000000000        
9999999900000007000000000000854500                                       
