00000000MARITIMO S.R.L.     20180813COBRANZAS RAPIPAGO                   
20180813000000000060000024600060000182278810014071609700000000021        
20180813000000000060000024600060000182328810014569621100000000063        
20180813000000000252000024600252000182270102103290950800216000590        
20180813000000000150000024600150000182320119114007410100000000084        
20180813000000000060000024600060000182328810014007410100000000063        
20180813000000000150000024600150000182320115113917178500000000078        
20180813000000000252000024600252000182270102104102869800216000542        
9999999900000007000000000000984000                                       
