00000000MARITIMO S.R.L.     20180313COBRANZAS RAPIPAGO                   
20180313000000000055000024600055000180751009072206108500000000063        
20180313000000000205700024600205700180740084843575516400143000116        
20180313000000000065000024600065000180751009454479282400000000021        
20180313000000000055000024600055000180751009152982716400000000063        
20180313000000000065000024600065000180751009272891136200000000037        
9999999900000005000000000000445700                                       
