00000000MARITIMO S.R.L.     20180113COBRANZAS RAPIPAGO                   
20180109000000000047000024600047000180101008143422631900000000037        
20180113000000000060000024600060000180138305301332622800000000042        
20180113000000000042500024600042500180178218043845369900000000015        
20180113000000000032000024600032000180148218014171525400000000063        
9999999900000004000000000000181500                                       
