00000000MARITIMO S.R.L.     20171113COBRANZAS RAPIPAGO                   
20171113000000000045000024600045000173191007152838698600000000000        
9999999900000001000000000000045000                                       
