00000000MARITIMO S.R.L.     20171213COBRANZAS RAPIPAGO                   
20171213000000000040500024600040500173548218043079982300020000063        
20171213000000000093000024600093000173528504121361274500000000021        
20171213000000000093000024600093000173518504082874184200000000000        
20171213000000000030000024600030000173498218023216016000020000079        
20171213000000000113700024600113700173538504663801491400000000099        
20171213000000000113700024600113700173538504633789659500000000021        
20171213000000000030000024600030000173480305122872878200000000084        
20171213000000000093000024600093000173548504111768475000000000000        
9999999900000008000000000000606900                                       
