00000000MARITIMO S.R.L.     20180913COBRANZAS RAPIPAGO                   
20180913000000000060000024600060000182638810014203111900000000016        
20180913000000000060000024600060000182638810013839827200000000057        
20180913000000000252000024600252000182580103104073079300216000263        
20180913000000000060000024600060000182628810013570422800000000042        
20180913000000000171000024600171000182580128123976079800085000599        
20180913000000000171000024600171000182580128123784854000085000584        
9999999900000006000000000000774000                                       
