00000000MARITIMO S.R.L.     20180914COBRANZAS RAPIPAGO                   
20180914000000000171000024600171000182580128124246992500085000621        
20180914000000000150000024600150000182630120123468971200000000036        
20180914000000000100000024600100000182638811011756966900000000021        
20180914000000000171000024600171000182580128123965410700085000690        
20180914000000000252000024600252000182580103101879152700216000515        
20180914000000000100000024600100000182648811012592685400000000021        
9999999900000006000000000000944000                                       
