00000000MARITIMO S.R.L.     20170814COBRANZAS RAPIPAGO                   
20170814000000000117000024600117000172300091913718503700000000078        
20170814000000000187000024600187000172270077773718503700130000616        
20170814000000000025000024600025000172337604561875151500000000063        
20170814000000000051000024600051000172338808014032337600000000037        
20170814000000000051000024600051000172288808014032337300000000057        
20170814000000000051000024600051000172338808013849195200000000021        
20170814000000000051000024600051000172338808013115305700000000057        
20170814000000000080000024600080000172331708101361230000150000058        
20170814000000000051000024600051000172288216042742121600000000057        
20170814000000000032500024600032500172288216023258536600000000084        
20170814000000000051000024600051000172278216042857041400000000090        
20170814000000000117000024600117000172330093934190109100000000036        
20170814000000000051000024600051000172288216081416816400000000063        
20170814000000000051000024600051000172288216152022392200000000042        
20170814000000000051000024600051000172288216071829475700000000090        
20170814000000000051000024600051000172338808012691885200000000078        
9999999900000016000000000001068500                                       
