00000000MARITIMO S.R.L.     20180214COBRANZAS RAPIPAGO                   
20180214000000000200000024600200000180450081813123480500000000078        
20180214000000000205700024600205700180460083833703872500143000684        
20180214000000000205700024600205700180460083834095496700143000342        
20180214000000000205700024600205700180460083834103728000143000215        
9999999900000004000000000000817100                                       
