00000000MARITIMO S.R.L.     20171214COBRANZAS RAPIPAGO                   
20171214000000000187000024600187000173490081813785633100130000684        
20171214000000000030000024600030000173528218029264073400020000058        
20171214000000000030000024600030000173480305049477946600000000084        
20171214000000000040500024600040500173528218052953167800020000021        
20171214000000000040500024600040500173558218082403663000020000042        
20171214000000000030000024600030000173558218011692305200020000036        
20171214000000000040500024600040500173558218142531278300020000058        
20171214000000000030000024600030000173480305032671239900000000084        
20171214000000000030000024600030000173480305123771936100000000057        
9999999900000009000000000000458500                                       
