00000000MARITIMO S.R.L.     20180414COBRANZAS RAPIPAGO                   
20180414000000000042000024600042000181051201091777095800000000036        
20180414000000000205700024600205700181050085853899265300143000590        
9999999900000002000000000000247700                                       
