00000000MARITIMO S.R.L.     20170714COBRANZAS RAPIPAGO                   
20170714000000000051000024600051000171998808014115604000000000058        
20170714000000000051000024600051000171998808013879907700000000057        
20170714000000000051000024600051000171998808013186098200000000058        
20170714000000000051000024600051000171998808013064920700000000037        
20170714000000000020000024600020000172027604062496278100000000057        
20170714000000000117000024600117000172020088884087082400000000099        
20170714000000000051000024600051000172028808014147804400000000016        
20170714000000000051000024600051000171998808012570721800000000015        
20170714000000000051000024600051000172028808013246382200000000000        
20170714000000000040000024600040000172000705272705860100000000078        
20170714000000000187000024600187000171960076763219953500130000500        
20170714000000000187000024600187000171960076763727328000130000590        
20170714000000000117000024600117000171990090903727328000000000000        
9999999900000013000000000001025000                                       
