00000000MARITIMO S.R.L.     20180814COBRANZAS RAPIPAGO                   
20180814000000000060000024600060000182338810014321779700000000084        
20180814000000000252000024600252000182270102103633009000216000084        
20180814000000000252000024600252000182270102103768745100216000563        
20180814000000000252000024600252000182270102103784854000216000663        
20180814000000000060000024600060000182338810013761894200000000016        
9999999900000005000000000000876000                                       
