00000000MARITIMO S.R.L.     20170614COBRANZAS RAPIPAGO                   
20170614000000000096500024600096500171667911010000000000110000036        
20170614000000000117000024600117000171690089893718503700000000063        
20170614000000000187000024600187000171660075753718503700130000642        
20170614000000000096500024600096500171677911071755708900110000542        
9999999900000004000000000000497000                                       
