00000000MARITIMO S.R.L.     20171014COBRANZAS RAPIPAGO                   
20171014000000000171500024600171500172937912043688990400000000057        
9999999900000001000000000000171500                                       
