00000000MARITIMO S.R.L.     20170914COBRANZAS RAPIPAGO                   
20170914000000000058000024600058000172621708162585580400000000063        
20170914000000000145000024600145000172637912082243261900265000063        
20170914000000000145000024600145000172647912152206529200265000036        
20170914000000000117000024600117000172640094943676883600000000000        
20170914000000000095000024600095000172631708091660563600000000037        
20170914000000000187000024600187000172580078783899104200130000378        
9999999900000006000000000000747000                                       
