00000000MARITIMO S.R.L.     20180514COBRANZAS RAPIPAGO                   
20180514000000000252000024600252000181350099993817780400216000384        
20180514000000000064500024600064500181370263062642143400211000063        
20180514000000000252000024600252000181350099994102869800216000657        
20180514000000000252000024600252000181350099993768745100216000663        
20180514000000000252000024600252000181350099993885819500216000621        
20180514000000000252000024600252000181350099993671471200216000216        
20180514000000000150000024600150000181380113113671471200000000084        
9999999900000007000000000001474500                                       
