00000000MARITIMO S.R.L.     20171114COBRANZAS RAPIPAGO                   
20171114000000000200000024600200000173250079794166882600000000037        
20171114000000000045000024600045000173191007052611919900000000021        
20171114000000000187000024600187000173190080803718503700130000521        
20171114000000000317500024600317500173250071713694848400000000078        
20171114000000000045000024600045000173191007201760231500000000016        
20171114000000000317500024600317500173250071713580226900000000000        
20171114000000000045000024600045000173191007091486804800000000057        
20171114000000000045000024600045000173191007072264514000000000000        
20171114000000000045000024600045000173191007153097433700000000057        
9999999900000009000000000001247000                                       
