00000000MARITIMO S.R.L.     20180314COBRANZAS RAPIPAGO                   
20180314000000000055000024600055000180751009152846265300000000063        
20180314000000000055000024600055000180751009553191560800000000057        
20180314000000000055000024600055000180751009152781835100000000084        
9999999900000003000000000000165000                                       
