00000000MARITIMO S.R.L.     20180714COBRANZAS RAPIPAGO                   
20180714000000000048200024600048200181968220120549539900053000400        
20180714000000000099500024600099500181969607013853300200000000616        
9999999900000002000000000000147700                                       
