00000000MARITIMO S.R.L.     20170114COBRANZAS RAPIPAGO                   
20170114000000000037800024600037800170188213032959329800000000042        
20170114000000000029400024600029400170188213013524464400000000016        
9999999900000002000000000000067200                                       
