00000000MARITIMO S.R.L.     20180614COBRANZAS RAPIPAGO                   
20180614000000000060000024600060000181658810013774888800000000042        
20180614000000000150000024600150000181720117113468971200000000057        
20180614000000000252000024600252000181660100103309723500216000442        
20180614000000000060000024600060000181718810014032339800000000021        
20180614000000000060000024600060000181718810014032337300000000063        
20180614000000000060000024600060000181718810014492877300000000099        
20180614000000000020000024600020000181717605081807014900050000090        
9999999900000007000000000000662000                                       
