00000000MARITIMO S.R.L.     20170615COBRANZAS RAPIPAGO                   
20170615000000000096500024600096500171677911030000000000110000500        
20170615000000000096500024600096500171677911032770223400110000590        
20170615000000000117000024600117000171690089894164026100000000016        
20170615000000000096500024600096500171677911032311893700110000557        
20170615000000000096500024600096500171677911024065614400110000100        
20170615000000000187000024600187000171660075753899104200130000721        
20170615000000000117000024600117000171690089893899104200000000000        
9999999900000007000000000000807000                                       
