00000000MARITIMO S.R.L.     20180515COBRANZAS RAPIPAGO                   
20180515000000000252000024600252000181350099922971852500216000736        
20180515000000000252000024600252000181350099993290950800216000600        
20180515000000000150000024600150000181380113113004744000000000084        
20180515000000000252000024600252000181350099993538196700216000742        
20180515000000000252000024600252000181350099993633009000216000790        
20180515000000000048200024600048200181418219072322307100043000058        
20180515000000000276303024600276303181420098982564081100000360090        
20180515000000000252000024600252000181350099993795212500216000684        
20180515000000000048200024600048200181408219072176009200043000042        
20180515000000000048200024600048200181408219123778978800043000058        
20180515000000000048200024600048200181408219072324510100043000078        
20180515000000000048200024600048200181428219142818539300043000084        
20180515000000000048200024600048200181428219052872859500043000084        
9999999900000013000000000001975503                                       
