00000000MARITIMO S.R.L.     20170915COBRANZAS RAPIPAGO                   
20170915000000000187000024600187000172580078783785633100130000721        
20170915000000000095000024600095000172641708101369121500000000084        
9999999900000002000000000000282000                                       
