00000000MARITIMO S.R.L.     20180615COBRANZAS RAPIPAGO                   
20180615000000000150000024600150000181660118113782168600000000037        
20180615000000000252000024600252000181660100103725952900216000615        
20180615000000000060000024600060000181738810013884111100000000000        
20180615000000000060000024600060000181738810013635165200000000079        
20180615000000000150000024600150000181690114114237367300000000036        
20180615000000000252000024600252000181660100104246004000216000500        
20180615000000000069500024600069500181720264089271845900161000099        
20180615000000000060000024600060000181728810013306941700000000036        
20180615000000000252000024600252000181660100103817780400216000737        
20180615000000000150000024600150000181690118113558843500000000042        
9999999900000010000000000001455500                                       
