00000000MARITIMO S.R.L.     20170715COBRANZAS RAPIPAGO                   
20170715000000000187000024600187000171960076763513857200130000400        
9999999900000001000000000000187000                                       
