00000000MARITIMO S.R.L.     20180815COBRANZAS RAPIPAGO                   
20180815000000000150000024600150000182300120124187586000000000021        
20180815000000000060000024600060000182338810013466646200000000042        
9999999900000002000000000000210000                                       
