00000000MARITIMO S.R.L.     20180915COBRANZAS RAPIPAGO                   
20180915000000000171000024600171000182580128124134743400085000742        
20180915000000000171000024600171000182580128123219171400085000742        
9999999900000002000000000000342000                                       
