00000000MARITIMO S.R.L.     20171115COBRANZAS RAPIPAGO                   
20171115000000000045000024600045000173191007163078563500000000099        
20171115000000000051000024600051000173268808013433149800000000084        
20171115000000000055000024600055000173268305460838264100100000084        
20171115000000000045000024600045000173191007191692122800000000084        
20171115000000000317500024600317500173260072723484209500000000036        
20171115000000000317500024600317500173260071714023960800000000058        
20171115000000000045000024600045000173191007182400670600000000042        
20171115000000000045000024600045000173191007024120340500000000079        
20171115000000000045000024600045000173191007072828037400000000079        
20171115000000000045000024600045000173191007091639738900000000021        
20171115000000000045000024600045000173191007033483609000000000000        
20171115000000000317500024600317500173250071714183512500000000037        
9999999900000012000000000001373500                                       
