00000000MARITIMO S.R.L.     20180115COBRANZAS RAPIPAGO                   
20180115000000000042500024600042500180178218062368101600000000078        
20180115000000000032000024600032000180178218014611239200000000084        
20180115000000000042500024600042500180178218062367153300000000021        
20180115000000000042500024600042500180178218091492996100000000084        
20180115000000000205700024600205700180150082823704042700143000584        
20180115000000000205700024600205700180150082823103405300143000763        
20180115000000000042500024600042500180178218091184579500000000000        
20180115000000000042500024600042500180178218034110634900000000036        
20180115000000000042500024600042500180178218142519374600000000000        
20180115000000000032000024600032000180178218012982753600000000057        
20180115000000000032000024600032000180178218022759397700000000042        
20180115000000000047000024600047000180151008101376527100030000442        
20180115000000000205700024600205700180150082824103728000143000763        
9999999900000013000000000001015100                                       
