00000000MARITIMO S.R.L.     20180315COBRANZAS RAPIPAGO                   
20180315000000000042000024600042000180801201042028229600000000078        
20180315000000000220000024600220000180810083833718503700000000099        
20180315000000000205700024600205700180740084844023960800143000657        
20180315000000000205700024600205700180740084843785633100143000737        
20180315000000000220000024600220000180800083833381339700000000057        
9999999900000005000000000000893400                                       
