00000000MARITIMO S.R.L.     20170415COBRANZAS RAPIPAGO                   
20170415000000000149500024600149500171050058583687290800085000458        
9999999900000001000000000000149500                                       
