00000000MARITIMO S.R.L.     20170815COBRANZAS RAPIPAGO                   
20170815000000000051000024600051000172348808012651249900000000000        
20170815000000000051000024600051000172288808013669395600000000021        
20170815000000000175000024600175000172310078782950292900120000042        
20170815000000000020000024600020000172337604143091396100000000099        
20170815000000000020000024600020000172337604052836144800000000015        
20170815000000000051000024600051000172288216033473013300000000078        
20170815000000000051000024600051000172288216123195911300000000099        
20170815000000000051000024600051000172348808014031424600000000000        
20170815000000000066000024600066000172288216231835030600000000084        
20170815000000000066000024600066000172288216213446976900000000021        
20170815000000000066000024600066000172288216213596026100000000000        
20170815000000000051000024600051000172338808013204958200000000015        
20170815000000000051000024600051000172288216091263255100000000079        
9999999900000013000000000000770000                                       
