00000000MARITIMO S.R.L.     20171215COBRANZAS RAPIPAGO                   
20171215000000000040500024600040500173558218062631585600020000016        
20171215000000000113700024600113700173528504642378636100000000016        
20171215000000000040500024600040500173558218123955587700020000084        
9999999900000003000000000000194700                                       
