00000000MARITIMO S.R.L.     20180215COBRANZAS RAPIPAGO                   
20180215000000000060000024600060000180481009273087792300050000021        
20180215000000000060000024600060000180481009253910549000050000036        
20180215000000000205700024600205700180460083833712418900143000657        
20180215000000000220000024600220000180520082823098489900000000036        
20180215000000000205700024600205700180460083833806766800143000658        
20180215000000000051000024600051000180538808013655273900000000078        
9999999900000006000000000000802400                                       
