00000000MARITIMO S.R.L.     20180616COBRANZAS RAPIPAGO                   
20180616000000000041800024600041800181738220042797192800064000142        
9999999900000001000000000000041800                                       
