00000000MARITIMO S.R.L.     20171116COBRANZAS RAPIPAGO                   
20171116000000000192500024600192500173260084842950292900132000036        
20171116000000000045000024600045000173201007053106070500000000090        
20171116000000000045000024600045000173201007043425095800000000057        
20171116000000000117000024600117000173270090904155873000000000000        
9999999900000004000000000000399500                                       
