00000000MARITIMO S.R.L.     20170816COBRANZAS RAPIPAGO                   
20170816000000000051000024600051000172348808013987024100000000036        
20170816000000000051000024600051000172338808014011875400000000058        
20170816000000000051000024600051000172348808013352738000000000016        
20170816000000000032500024600032500172288216023828354600000000000        
20170816000000000117000024600117000172300091914164026100000000021        
20170816000000000051000024600051000172288216033516827200000000063        
20170816000000000051000024600051000172288216033022899200000000090        
20170816000000000066000024600066000172288216233243298000000000058        
20170816000000000032500024600032500172288216013206725500000000021        
20170816000000000051000024600051000172288216123300329300000000079        
20170816000000000032500024600032500172288216011680610300000000090        
20170816000000000200000024600200000172350075753785633100000000000        
20170816000000000117000024600117000172350089893785633100000000058        
20170816000000000117000024600117000172300091913802794200000000016        
20170816000000000051000024600051000172288216081492997100000000016        
20170816000000000066000024600066000172288216212314612400000000084        
20170816000000000080000024600080000172351708053289920800150000015        
20170816000000000051000024600051000172298808013733524800000000000        
9999999900000018000000000001268500                                       
