00000000MARITIMO S.R.L.     20180416COBRANZAS RAPIPAGO                   
20180416000000000273600024600273600181200098984022988200000000090        
20180416000000000060000024600060000181108810014465037200000000084        
9999999900000002000000000000333600                                       
