00000000MARITIMO S.R.L.     20170916COBRANZAS RAPIPAGO                   
20170916000000000145000024600145000172597912082056687300265000063        
9999999900000001000000000000145000                                       
