00000000MARITIMO S.R.L.     20180516COBRANZAS RAPIPAGO                   
20180516000000000220000024600220000181420085853560798200000000078        
20180516000000000048200024600048200181418219052797192800043000057        
20180516000000000032200024600032200181388219013182172800021000042        
20180516000000000150000024600150000181380113114215291600000000090        
9999999900000004000000000000450400                                       
