00000000MARITIMO S.R.L.     20180716COBRANZAS RAPIPAGO                   
20180716000000000053500024600053500182048220244154084600000000021        
20180716000000000025000024600025000182047605043271655700000000021        
20180716000000000273600024600273600182120101103965410700000000078        
20180716000000000150000024600150000181990115114237367300000000084        
20180716000000000025000024600025000182047605172255089800000000058        
20180716000000000053500024600053500182048220181807029600000000021        
20180716000000000072800024600072800182048220272279899300000000021        
9999999900000007000000000000653400                                       
