00000000MARITIMO S.R.L.     20180216COBRANZAS RAPIPAGO                   
20180216000000000220000024600220000180520082823160343600000000057        
9999999900000001000000000000220000                                       
