00000000MARITIMO S.R.L.     20171216COBRANZAS RAPIPAGO                   
20171216000000000113700024600113700173568504562848320300000000021        
9999999900000001000000000000113700                                       
