00000000MARITIMO S.R.L.     20180816COBRANZAS RAPIPAGO                   
20180816000000000273600024600273600182430102104246992500000000090        
20180816000000000060000024600060000182348810014048260300000000042        
20180816000000000150000024600150000182340117114117527400000000000        
20180816000000000060000024600060000182348810013712414000000000063        
9999999900000004000000000000543600                                       
