00000000MARITIMO S.R.L.     20180116COBRANZAS RAPIPAGO                   
20180116000000000042500024600042500180178218043279143300000000084        
20180116000000000060000024600060000180191008353358098500000000063        
20180116000000000050000024600050000180191008244384225000000000058        
20180116000000000042500024600042500180178218123590831900000000015        
20180116000000000042500024600042500180178218132649785400000000021        
20180116000000000042500024600042500180178218161766025200000000090        
20180116000000000042500024600042500180178218123835198100000000015        
20180116000000000032000024600032000180178218023635097700000000090        
20180116000000000042500024600042500180178218062450420400000000036        
20180116000000000042500024600042500180178218152215558900000000015        
20180116000000000042500024600042500180178218072252212000000000036        
20180116000000000042500024600042500180178218052935929300000000015        
20180116000000000042500024600042500180178218043327303100000000042        
20180116000000000042500024600042500180178218123701229700000000000        
20180116000000000042500024600042500180178218052887891400000000079        
20180116000000000032000024600032000180178218023784544700000000090        
20180116000000000042500024600042500180178218123094733100000000084        
20180116000000000042500024600042500180178218062469940800000000037        
20180116000000000042500024600042500180178218132829548600000000021        
20180116000000000032000024600032000180178218012876886900000000084        
20180116000000000042500024600042500180178218072150363500000000037        
20180116000000000042500024600042500180178218052801024800000000058        
20180116000000000042500024600042500180178218043792997900000000084        
20180116000000000032000024600032000180178218019376803600000000021        
20180116000000000042500024600042500180178218043348051000000000063        
20180116000000000042500024600042500180178218043421708300000000000        
20180116000000000042500024600042500180178218072306597000000000042        
9999999900000027000000000001130500                                       
