00000000MARITIMO S.R.L.     20180316COBRANZAS RAPIPAGO                   
20180316000000000065000024600065000180751009292277161300000000021        
20180316000000000030000024600030000180828808023257308800000000084        
20180316000000000065000024600065000180751009501663919300000000042        
20180316000000000065000024600065000180751009524674417100000000084        
20180316000000000065000024600065000180751009464479778600000000021        
9999999900000005000000000000290000                                       
