00000000MARITIMO S.R.L.     20170616COBRANZAS RAPIPAGO                   
20170616000000000096500024600096500171677911072805707600110000084        
20170616000000000158000024600158000171730058583991147300000000036        
20170616000000000096500024600096500171677911051626778200110000563        
20170616000000000096500024600096500171677911023077764600110000457        
20170616000000000096500024600096500171677911042000795900110000542        
20170616000000000117000024600117000171690093933668116700000000079        
20170616000000000117000024600117000171730088883815084500000000084        
20170616000000000051000024600051000171738808013261006700000000090        
9999999900000008000000000000829000                                       
