00000000MARITIMO S.R.L.     20180817COBRANZAS RAPIPAGO                   
20180817000000000060000024600060000182358810014031424600000000021        
20180817000000000150000024600150000182360117113870918100000000021        
20180817000000000060000024600060000182368810013731469500000000084        
9999999900000003000000000000270000                                       
