00000000MARITIMO S.R.L.     20171117COBRANZAS RAPIPAGO                   
20171117000000000045000024600045000173221007133334854800000000063        
20171117000000000200000024600200000173340080803946406500000000079        
20171117000000000200000024600200000173280078782924814600000000090        
9999999900000003000000000000445000                                       
