00000000MARITIMO S.R.L.     20180117COBRANZAS RAPIPAGO                   
20180117000000000042500024600042500180178218034256666200000000079        
20180117000000000042500024600042500180178218081752228400000000084        
20180117000000000042500024600042500180178218052691583500000000058        
20180117000000000042500024600042500180178218132993723900000000000        
20180117000000000042500024600042500180178218101104852900000000084        
20180117000000000042500024600042500180178218043469286000000000042        
20180117000000000050000024600050000180191008191605516400000000079        
20180117000000000220000024600220000180310082823608029000000000016        
20180117000000000042500024600042500180178218052774178800000000015        
20180117000000000042500024600042500180178218123378247800000000099        
20180117000000000042500024600042500180178218062649754000000000036        
20180117000000000042500024600042500180178218052660084600000000057        
20180117000000000042500024600042500180178218142577169700000000036        
20180117000000000042500024600042500180178218062331361700000000016        
20180117000000000032000024600032000180178218022887900100000000036        
20180117000000000042500024600042500180178218062370688700000000057        
20180117000000000042500024600042500180178218043967169900000000063        
20180117000000000042500024600042500180178218133003506800000000063        
20180117000000000032000024600032000180178218021740773900000000000        
20180117000000000050000024600050000180191008143424800300000000084        
20180117000000000042500024600042500180178218043137846500000000078        
20180117000000000050000024600050000180191008474476424700000000078        
9999999900000022000000000001114000                                       
