00000000MARITIMO S.R.L.     20170717COBRANZAS RAPIPAGO                   
20170717000000000040000024600040000172050705082058387400000000021        
20170717000000000117000024600117000172050088882903059000000000015        
20170717000000000117000024600117000172050092922903059000000000042        
20170717000000000117000024600117000171990094943962381100000000090        
20170717000000000020000024600020000172057604033456464000000000021        
20170717000000000040000024600040000171980705212071936000000000021        
20170717000000000048000024600048000172018216062188073000030000084        
9999999900000007000000000000499000                                       
