00000000MARITIMO S.R.L.     20170517COBRANZAS RAPIPAGO                   
20170517000000000070000024600070000171432401312530019700000000079        
20170517000000000200000024600200000171510074743512696800000000016        
20170517000000000200000024600200000171510074743399386300000000042        
20170517000000000030000024600030000171439931012360777300000000063        
9999999900000004000000000000500000                                       
