00000000MARITIMO S.R.L.     20170817COBRANZAS RAPIPAGO                   
20170817000000000051000024600051000172368808014006804600000000021        
20170817000000000051000024600051000172368808013565408900000000078        
20170817000000000051000024600051000172368808013626758700000000063        
20170817000000000051000024600051000172368808013218615200000000036        
20170817000000000051000024600051000172328808012628989500000000063        
20170817000000000051000024600051000172348808013428875000000000037        
20170817000000000051000024600051000172348808013966277600000000042        
20170817000000000051000024600051000172348808014417769400000000015        
20170817000000000051000024600051000172348808012839492400000000021        
20170817000000000051000024600051000172358808014149148800000000000        
20170817000000000051000024600051000172358808013084880800000000063        
9999999900000011000000000000561000                                       
