00000000MARITIMO S.R.L.     20180417COBRANZAS RAPIPAGO                   
20180417000000000273600024600273600181200098984264470800000000000        
20180417000000000273600024600273600181200098983849304200000000090        
20180417000000000220000024600220000181200085854086371700000000099        
20180417000000000273600024600273600181200098983885819500000000021        
9999999900000004000000000001040800                                       
