00000000MARITIMO S.R.L.     20180717COBRANZAS RAPIPAGO                   
20180717000000000053500024600053500182058220072153830000000000063        
20180717000000000053500024600053500182058220133504399200000000021        
20180717000000000150000024600150000181990115113870918100000000057        
20180717000000000072800024600072800182058220263183225300000000015        
20180717000000000273600024600273600182120101103817780400000000042        
9999999900000005000000000000603400                                       
