00000000MARITIMO S.R.L.     20170117COBRANZAS RAPIPAGO                   
20170117000000000029400024600029400170188213023279147600000000000        
20170117000000000037800024600037800170188213033212655700000000084        
20170117000000000029400024600029400170188213012990034300000000063        
20170117000000000037800024600037800170188213042741640800000000021        
20170117000000000037800024600037800170188213161745605000000000057        
20170117000000000037800024600037800170188213033504393800000000021        
20170117000000000037800024600037800170188213132654244900000000000        
20170117000000000037800024600037800170188213214295509000000000021        
20170117000000000037800024600037800170188213062144773000000000090        
20170117000000000037800024600037800170188213100837266300000000063        
20170117000000000037800024600037800170188213142330255500000000021        
20170117000000000037800024600037800170188213033091830000000000021        
20170117000000000037800024600037800170188213071720809600000000084        
20170117000000000037800024600037800170178213132727983300000000090        
9999999900000014000000000000512400                                       
