00000000MARITIMO S.R.L.     20180517COBRANZAS RAPIPAGO                   
20180517000000000273600024600273600181510099993536798800000000042        
20180517000000000273600024600273600181510099994004522400000000084        
20180517000000000150000024600150000181370113114237367300000000021        
20180517000000000150000024600150000181380113114191895800000000015        
9999999900000004000000000000847200                                       
