00000000MARITIMO S.R.L.     20171017COBRANZAS RAPIPAGO                   
20171017000000000171500024600171500172977912091772758900000000063        
20171017000000000032500024600032500172928217023364175200000000099        
20171017000000000200000024600200000173040079793946406500000000057        
20171017000000000171500024600171500172977912091654423200000000042        
9999999900000004000000000000575500                                       
