00000000MARITIMO S.R.L.     20180818COBRANZAS RAPIPAGO                   
20180818000000000060000024600060000182358810013890004200000000084        
9999999900000001000000000000060000                                       
