00000000MARITIMO S.R.L.     20180418COBRANZAS RAPIPAGO                   
20180418000000000220000024600220000181200085853899104200000000042        
20180418000000000060000024600060000181158810011756966900000000058        
20180418000000000273600024600273600181200098983449977800000000037        
9999999900000003000000000000553600                                       
