00000000MARITIMO S.R.L.     20170918COBRANZAS RAPIPAGO                   
20170918000000000123500024600123500172680096964166882600000000036        
20170918000000000200000024600200000172680077774166882600000000042        
20170918000000000095000024600095000172611708091627240600000000021        
20170918000000000095000024600095000172611708091800674200000000042        
20170918000000000095000024600095000172641708062853618700000000000        
20170918000000000095000024600095000172631708053038012900000000057        
20170918000000000123500024600123500172680096964185407700000000037        
20170918000000000095000024600095000172641708053287354100000000057        
20170918000000000095000024600095000172611708012778172700000000058        
20170918000000000095000024600095000172641708033808682000000000063        
9999999900000010000000000001112000                                       
