00000000MARITIMO S.R.L.     20171218COBRANZAS RAPIPAGO                   
20171218000000000093000024600093000173598504073092855600000000016        
20171218000000000040500024600040500173598218062557574600020000078        
20171218000000000040500024600040500173528218043227990000020000084        
9999999900000003000000000000174000                                       
