00000000MARITIMO S.R.L.     20171118COBRANZAS RAPIPAGO                   
20171118000000000045000024600045000173221007072060668600000000000        
9999999900000001000000000000045000                                       
