00000000MARITIMO S.R.L.     20180718COBRANZAS RAPIPAGO                   
20180718000000000240000024600240000182050102103870718000120000042        
20180718000000000053500024600053500182068220052995478400000000084        
20180718000000000025000024600025000182067605052995478400000000037        
9999999900000003000000000000318500                                       
