00000000MARITIMO S.R.L.     20170818COBRANZAS RAPIPAGO                   
20170818000000000080000024600080000172371708082264741200150000078        
20170818000000000051000024600051000172368808013004629900000000000        
20170818000000000051000024600051000172368808014069592800000000000        
20170818000000000051000024600051000172368808012931126500000000021        
20170818000000000051000024600051000172378808012676949700000000084        
20170818000000000010000024600010000172367604433129912700000000099        
20170818000000000051000024600051000172378808013187485200000000058        
20170818000000000117000024600117000172300095953668116700000000036        
20170818000000000051000024600051000172378808013446935100000000036        
20170818000000000020000024600020000172367604062350786900000000078        
9999999900000010000000000000533000                                       
