00000000MARITIMO S.R.L.     20180518COBRANZAS RAPIPAGO                   
20180518000000000150000024600150000181380113114073079300000000021        
20180518000000000150000024600150000181380113113725952900000000036        
20180518000000000220000024600220000181510086864023960800000000021        
20180518000000000276303024600276303181380098983104514000000360079        
20180518000000000064500024600064500181400263033497882500211000421        
20180518000000000064500024600064500181400263043098176800211000442        
9999999900000006000000000000925303                                       
