00000000MARITIMO S.R.L.     20180918COBRANZAS RAPIPAGO                   
20180918000000000150000024600150000182670117113468874700000000000        
9999999900000001000000000000150000                                       
