00000000MARITIMO S.R.L.     20170718COBRANZAS RAPIPAGO                   
20170718000000000029000024600029000172028216022085105700035000084        
20170718000000000048000024600048000172048216042741813700030000084        
20170718000000000048000024600048000172008216161826138700030000090        
20170718000000000062000024600062000172038216233129914400040000084        
20170718000000000048000024600048000172008216052347921400030000079        
20170718000000000048000024600048000172048216132827976500030000042        
9999999900000006000000000000283000                                       
