00000000MARITIMO S.R.L.     20171018COBRANZAS RAPIPAGO                   
20171018000000000051000024600051000172988217033079972600000000079        
20171018000000000171500024600171500172987912091809488300000000000        
9999999900000002000000000000222500                                       
