00000000MARITIMO S.R.L.     20180618COBRANZAS RAPIPAGO                   
20180618000000000150000024600150000181690114113870918100000000000        
20180618000000000060000024600060000181708810013956626400000000099        
20180618000000000041800024600041800181738220033143324300064000342        
20180618000000000041800024600041800181738220123384048900064000300        
20180618000000000060000024600060000181768810011447611800000000058        
20180618000000000041800024600041800181738220091455110400064000100        
20180618000000000041800024600041800181738220171692339800064000137        
9999999900000007000000000000437200                                       
