00000000MARITIMO S.R.L.     20180118COBRANZAS RAPIPAGO                   
20180118000000000060000024600060000180191008383161643200000000021        
20180118000000000060000024600060000180191008372731123600000000021        
20180118000000000050000024600050000180191008479405427700000000063        
20180118000000000050000024600050000180191008072310947400000000099        
20180118000000000060000024600060000180191008372760618300000000079        
20180118000000000060000024600060000180191008373214743800000000036        
20180118000000000050000024600050000180191008062773793100000000036        
9999999900000007000000000000390000                                       
