00000000MARITIMO S.R.L.     20170418COBRANZAS RAPIPAGO                   
20170418000000000037000024600037000171118214243778415800000000016        
20170418000000000048000024600048000171138215042634654900030000136        
20170418000000000200000024600200000171200073733718503700000000021        
20170418000000000049000024600049000171118214079271845900000000090        
20170418000000000200000024600200000171200073733946406500000000078        
20170418000000000045000024600045000171158808011416179100060000084        
9999999900000006000000000000579000                                       
