00000000MARITIMO S.R.L.     20180119COBRANZAS RAPIPAGO                   
20180119000000000050000024600050000180191008172576925000000000016        
20180119000000000060000024600060000180191008392001678000000000042        
20180119000000000050000024600050000180191008153029708800000000063        
20180119000000000060000024600060000180191008392487111200000000099        
20180119000000000060000024600060000180191008363582315200000000000        
20180119000000000060000024600060000180191008311289172100000000079        
20180119000000000050000024600050000180191008253527048900000000015        
20180119000000000050000024600050000180191008244288876800000000063        
20180119000000000050000024600050000180191008143832399700000000099        
20180119000000000060000024600060000180191008273299673500000000084        
9999999900000010000000000000550000                                       
