00000000MARITIMO S.R.L.     20170119COBRANZAS RAPIPAGO                   
20170119000000000100000024600100000170191850112100377700200000036        
20170119000000000044000024600044000170202918132397418100000000063        
20170119000000000044000024600044000170192918141378620500000000016        
9999999900000003000000000000188000                                       
