00000000MARITIMO S.R.L.     20180219COBRANZAS RAPIPAGO                   
20180219000000000220000024600220000180590083833608029000000000016        
9999999900000001000000000000220000                                       
