00000000MARITIMO S.R.L.     20180619COBRANZAS RAPIPAGO                   
20180619000000000150000024600150000181770118113815981800000000042        
20180619000000000060000024600060000181778810012807389200000000037        
20180619000000000060000024600060000181778810013684990000000000090        
20180619000000000060000024600060000181778810013911965500000000016        
20180619000000000060000024600060000181778810013135950900000000063        
20180619000000000060000024600060000181778810014537674600000000000        
20180619000000000060000024600060000181778810013586976200000000057        
20180619000000000041800024600041800181738220101113339600064000490        
20180619000000000030000024600030000181738220022624450300043000158        
20180619000000000030000024600030000181738220012589835700043000121        
20180619000000000273600024600273600181810100103538196700000000090        
20180619000000000030000024600030000181738220022662888800043000499        
20180619000000000030000024600030000181738220013147616800043000458        
20180619000000000273600024600273600181810100104089520300000000042        
20180619000000000060000024600060000181768810012976064800000000090        
20180619000000000060000024600060000181768810013452233800000000090        
20180619000000000060000024600060000181778810012138877600000000099        
20180619000000000060000024600060000181768810013204958200000000042        
20180619000000000060000024600060000181778810012730991000000000042        
20180619000000000060000024600060000181778810012422449800000000063        
9999999900000020000000000001579000                                       
