00000000MARITIMO S.R.L.     20170919COBRANZAS RAPIPAGO                   
20170919000000000095000024600095000172641708072337108000000000079        
20170919000000000095000024600095000172641708043619622700000000042        
20170919000000000095000024600095000172641708101439768100000000084        
20170919000000000095000024600095000172641708101470408100000000042        
20170919000000000095000024600095000172641708062820431200000000078        
20170919000000000095000024600095000172641708101200829500000000099        
20170919000000000095000024600095000172641708053030710000000000084        
9999999900000007000000000000665000                                       
