00000000MARITIMO S.R.L.     20171219COBRANZAS RAPIPAGO                   
20171219000000000030000024600030000173598218021718882500020000079        
20171219000000000040500024600040500173598218081626184000020000016        
20171219000000000040500024600040500173598218081647531400020000042        
9999999900000003000000000000111000                                       
