00000000MARITIMO S.R.L.     20171019COBRANZAS RAPIPAGO                   
20171019000000000175000024600175000172940082822950292900120000016        
20171019000000000066000024600066000172938217213155386700000000021        
20171019000000000171500024600171500172977912091659337200000000042        
20171019000000000171500024600171500172927912101611335100000000099        
9999999900000004000000000000584000                                       
