00000000MARITIMO S.R.L.     20180419COBRANZAS RAPIPAGO                   
20180419000000000273600024600273600181200098984072952300000000078        
20180419000000000273600024600273600181200098983727328000000000078        
9999999900000002000000000000547200                                       
