00000000MARITIMO S.R.L.     20170419COBRANZAS RAPIPAGO                   
20170419000000000049000024600049000171118214091206309500000000099        
20170419000000000200000024600200000171200073734166882600000000042        
20170419000000000037000024600037000171118214243533264600000000036        
20170419000000000037000024600037000171118214253206714700000000021        
9999999900000004000000000000323000                                       
