00000000MARITIMO S.R.L.     20170719COBRANZAS RAPIPAGO                   
20170719000000000048000024600048000172058216042742126500030000057        
20170719000000000029000024600029000172078216014130684000035000042        
20170719000000000117000024600117000172070094943668116700000000078        
9999999900000003000000000000194000                                       
