00000000MARITIMO S.R.L.     20170619COBRANZAS RAPIPAGO                   
20170619000000000107500024600107500171727911022978262800000000079        
20170619000000000117000024600117000171770088884155873000000000037        
20170619000000000117000024600117000171770093933708663800000000058        
9999999900000003000000000000341500                                       
