00000000MARITIMO S.R.L.     20180919COBRANZAS RAPIPAGO                   
20180919000000000179500024600179500182690128124201413400085000000        
9999999900000001000000000000179500                                       
