00000000MARITIMO S.R.L.     20180719COBRANZAS RAPIPAGO                   
20180719000000000053500024600053500182068220081733835700000000084        
20180719000000000220000024600220000182060086864161509400000000079        
20180719000000000150000024600150000182050118114083600900000000015        
20180719000000000025000024600025000182057605033658599300000000078        
20180719000000000025000024600025000182077605043193514300000000063        
9999999900000005000000000000473500                                       
