00000000MARITIMO S.R.L.     20171020COBRANZAS RAPIPAGO                   
20171020000000000200000024600200000173040079793560798200000000016        
20171020000000000171500024600171500173007912072550794100000000099        
20171020000000000200000024600200000173040079793727328000000000016        
20171020000000000200000024600200000173000078783219953500000000078        
20171020000000000171500024600171500172987912014377715300000000084        
20171020000000000171500024600171500173007912040372299500000000037        
9999999900000006000000000001114500                                       
