00000000MARITIMO S.R.L.     20180720COBRANZAS RAPIPAGO                   
20180720000000000150000024600150000182070119113631436900000000015        
20180720000000000053500024600053500182078220162424804900000000000        
20180720000000000150000024600150000182030118113907478200000000063        
9999999900000003000000000000353500                                       
