00000000MARITIMO S.R.L.     20170720COBRANZAS RAPIPAGO                   
20170720000000000060000024600060000172089931011486889800000000000        
20170720000000000117000024600117000172050093933563627800000000000        
9999999900000002000000000000177000                                       
