00000000MARITIMO S.R.L.     20170920COBRANZAS RAPIPAGO                   
20170920000000000117000024600117000172700095953676883600000000021        
20170920000000000095000024600095000172641708072363709700000000021        
20170920000000000145000024600145000172707912152461804800265000036        
20170920000000000145000024600145000172707912091794079900265000078        
20170920000000000095000024600095000172641708123426552500000000000        
20170920000000000095000024600095000172641708082001786900000000037        
20170920000000000095000024600095000172641708043575066700000000016        
20170920000000000095000024600095000172641708012666162100000000084        
9999999900000008000000000000882000                                       
