00000000MARITIMO S.R.L.     20171220COBRANZAS RAPIPAGO                   
20171220000000000113700024600113700173618504663629210700000000000        
20171220000000000040500024600040500173568218062605617900020000042        
20171220000000000040500024600040500173548218043286707100020000099        
20171220000000000065000024600065000173618305391048174800150000099        
9999999900000004000000000000259700                                       
