00000000MARITIMO S.R.L.     20180420COBRANZAS RAPIPAGO                   
20180420000000000060000024600060000181178810011418999700000000036        
9999999900000001000000000000060000                                       
