00000000MARITIMO S.R.L.     20180220COBRANZAS RAPIPAGO                   
20180220000000000220000024600220000180530082824161509400000000084        
9999999900000001000000000000220000                                       
