00000000MARITIMO S.R.L.     20170621COBRANZAS RAPIPAGO                   
20170621000000000015000024600015000171777604043000203300050000099        
20170621000000000107500024600107500171727911072606954900000000063        
20170621000000000015000024600015000171737604070000000000050000099        
20170621000000000035000024600035000171790705111230024600050000036        
9999999900000004000000000000172500                                       
