00000000MARITIMO S.R.L.     20180521COBRANZAS RAPIPAGO                   
20180521000000000032200024600032200181478219023173491700021000158        
20180521000000000060000024600060000181488810014032338600000000063        
20180521000000000150000024600150000181480113111879152700000000090        
20180521000000000220000024600220000181510086863639936000000000079        
20180521000000000273600024600273600181510099994072952300000000099        
9999999900000005000000000000735800                                       
