00000000MARITIMO S.R.L.     20180721COBRANZAS RAPIPAGO                   
20180721000000000025000024600025000182087605052921234300000000084        
20180721000000000053500024600053500182078220143271436800000000000        
20180721000000000053500024600053500182078220162410422000000000084        
9999999900000003000000000000132000                                       
