00000000MARITIMO S.R.L.     20180421COBRANZAS RAPIPAGO                   
20180421000000000273600024600273600181200098983671471200000000058        
9999999900000001000000000000273600                                       
