00000000MARITIMO S.R.L.     20171221COBRANZAS RAPIPAGO                   
20171221000000000113700024600113700173628504451858113400000000078        
20171221000000000030000024600030000173618218012330671700020000036        
20171221000000000030000024600030000173618218022711120700020000016        
20171221000000000040500024600040500173558218072040007900020000036        
20171221000000000040500024600040500173558218152272336800020000084        
20171221000000000093000024600093000173558504063496122400000000016        
20171221000000000113700024600113700173628504432556768200000000036        
20171221000000000113700024600113700173628504471302248800000000016        
9999999900000008000000000000575100                                       
