00000000MARITIMO S.R.L.     20180621COBRANZAS RAPIPAGO                   
20180621000000000041800024600041800181738220133591057400064000663        
20180621000000000060000024600060000181778810013186098200000000079        
20180621000000000050000024600050000181770121123694916300000000000        
20180621000000000060000024600060000181798810013405132400000000084        
20180621000000000053600024600053600181761852372352500000000000057        
20180621000000000150000024600150000181790113113917178500000000015        
20180621000000000059000024600059000181779700081111111700000000078        
20180621000000000150000024600150000181790118114137872900000000090        
20180621000000000060000024600060000181798810014539652600000000021        
20180621000000000041800024600041800181738220191688963700064000599        
20180621000000000041800024600041800181738220082003970000064000590        
9999999900000011000000000000768000                                       
