00000000MARITIMO S.R.L.     20170921COBRANZAS RAPIPAGO                   
20170921000000000095000024600095000172641708082018390600000000063        
20170921000000000058000024600058000172641708163317200300000000058        
20170921000000000095000024600095000172641708072348025800000000021        
20170921000000000095000024600095000172641708062866655000000000057        
20170921000000000040000024600040000172670706199451529000000000084        
20170921000000000095000024600095000172641708110498999800000000036        
20170921000000000095000024600095000172641708072316496800000000000        
20170921000000000095000024600095000172641708072371979100000000021        
20170921000000000048000024600048000172668217062082471400030000079        
20170921000000000048000024600048000172668217152144771200030000058        
20170921000000000123500024600123500172680097973899104200000000021        
9999999900000011000000000000887500                                       
