00000000MARITIMO S.R.L.     20170721COBRANZAS RAPIPAGO                   
20170721000000000158000024600158000172090059593737688500000000042        
20170721000000000048000024600048000172058216161662594300030000042        
9999999900000002000000000000206000                                       
