00000000MARITIMO S.R.L.     20180921COBRANZAS RAPIPAGO                   
20180921000000000042000024600042000182649940029549561600000000063        
20180921000000000179500024600179500182690128123804707100085000058        
9999999900000002000000000000221500                                       
