00000000MARITIMO S.R.L.     20180821COBRANZAS RAPIPAGO                   
20180821000000000273600024600273600182430102102794872800000000021        
9999999900000001000000000000273600                                       
