00000000MARITIMO S.R.L.     20161221COBRANZAS RAPIPAGO                   
20161221000000000048000024600048000163631005172404285000100000090        
20161221000000000080000024600080000163561850032990904400200000058        
20161221000000000093000024600093000163578503642696094800000000057        
20161221000000000031500024600031500163588213042749911800063000057        
9999999900000004000000000000252500                                       
