00000000MARITIMO S.R.L.     20171021COBRANZAS RAPIPAGO                   
20171021000000000171500024600171500172947912072388578700000000063        
20171021000000000051000024600051000173008808014076862900000000099        
20171021000000000171500024600171500172967912014336496300000000079        
20171021000000000030000024600030000172980601012342496300000000063        
9999999900000004000000000000424000                                       
