00000000MARITIMO S.R.L.     20171222COBRANZAS RAPIPAGO                   
20171222000000000113700024600113700173638504591787588300000000015        
20171222000000000200000024600200000173650081813301748400000000036        
20171222000000000065000024600065000173618305143450170400150000042        
20171222000000000040500024600040500173608218091490923000020000036        
20171222000000000040500024600040500173568218052741690600020000000        
20171222000000000040500024600040500173638218072193183300020000058        
20171222000000000046500024600046500173608504174347127400000000016        
20171222000000000040500024600040500173638218052690184400020000090        
9999999900000008000000000000587200                                       
