00000000MARITIMO S.R.L.     20180222COBRANZAS RAPIPAGO                   
20180222000000000220000024600220000180590083833615336000000000063        
9999999900000001000000000000220000                                       
