00000000MARITIMO S.R.L.     20170822COBRANZAS RAPIPAGO                   
20170822000000000123500024600123500172410096963694848400000000099        
9999999900000001000000000000123500                                       
