00000000MARITIMO S.R.L.     20171122COBRANZAS RAPIPAGO                   
20171122000000000317500024600317500173330071713946406500000000000        
20171122000000000317500024600317500173270071713381339700000000000        
9999999900000002000000000000635000                                       
