00000000MARITIMO S.R.L.     20180322COBRANZAS RAPIPAGO                   
20180322000000000055000024600055000180811009091732345800000000084        
20180322000000000065000024600065000180811201132723598000000000058        
9999999900000002000000000000120000                                       
