00000000MARITIMO S.R.L.     20180622COBRANZAS RAPIPAGO                   
20180622000000000041800024600041800181738220062481508400064000690        
20180622000000000060000024600060000181768810013353060900000000021        
20180622000000000063500024600063500181738220272762197500050000600        
20180622000000000060000024600060000181808810013744772000000000078        
20180622000000000060000024600060000181798810012755875700000000000        
20180622000000000060000024600060000181798810013563226300000000099        
20180622000000000060000024600060000181809947012805345700000000057        
20180622000000000150000024600150000181800114113870826600000000078        
20180622000000000041800024600041800181738220043199230300064000642        
20180622000000000060000024600060000181798810012923271100000000079        
20180622000000000060000024600060000181808810011337721200000000099        
20180622000000000060000024600060000181778810013257848200000000058        
20180622000000000273600024600273600181810100103449977800000000021        
20180622000000000060000024600060000181798810013372049400000000084        
9999999900000014000000000001110700                                       
