00000000MARITIMO S.R.L.     20180122COBRANZAS RAPIPAGO                   
20180122000000000200000024600200000180280081813526650800000000000        
20180122000000000220000024600220000180310082823743123900000000063        
9999999900000002000000000000420000                                       
