00000000MARITIMO S.R.L.     20170922COBRANZAS RAPIPAGO                   
20170922000000000145000024600145000172717912053193634500265000042        
20170922000000000175000024600175000172720081812950292900120000084        
9999999900000002000000000000320000                                       
