00000000MARITIMO S.R.L.     20170722COBRANZAS RAPIPAGO                   
20170722000000000048000024600048000172038216132605666900030000079        
9999999900000001000000000000048000                                       
