00000000MARITIMO S.R.L.     20180522COBRANZAS RAPIPAGO                   
20180522000000000150000024600150000181470113113617587900000000042        
20180522000000000048200024600048200181478219123488503200043000100        
9999999900000002000000000000198200                                       
