00000000MARITIMO S.R.L.     20170623COBRANZAS RAPIPAGO                   
20170623000000000015000024600015000171777604191406761300050000000        
9999999900000001000000000000015000                                       
