00000000MARITIMO S.R.L.     20180523COBRANZAS RAPIPAGO                   
20180523000000000060000024600060000181488810013766671800000000021        
20180523000000000060000024600060000181488810013433149800000000079        
20180523000000000025000024600025000181437605552768867200050000084        
20180523000000000150000024600150000181500113113870826600000000021        
20180523000000000276303024600276303181500098982552865200000360057        
20180523000000000150000024600150000181490113114000658900000000036        
20180523000000000150000024600150000181490117114187586000000000090        
20180523000000000020000024600020000181437605072111345200050000021        
20180523000000000048200024600048200181478219072067327800043000179        
20180523000000000048200024600048200181478219062677297700043000199        
9999999900000010000000000000987703                                       
