00000000MARITIMO S.R.L.     20180623COBRANZAS RAPIPAGO                   
20180623000000000150000024600150000181800118113468971200000000042        
20180623000000000048200024600048200181818220082037773200053000000        
9999999900000002000000000000198200                                       
