00000000MARITIMO S.R.L.     20170923COBRANZAS RAPIPAGO                   
20170923000000000040000024600040000172670706272422894200000000084        
9999999900000001000000000000040000                                       
