00000000MARITIMO S.R.L.     20170823COBRANZAS RAPIPAGO                   
20170823000000000200000024600200000172430077772945877700000000042        
20170823000000000117000024600117000172410090902945877700000000084        
20170823000000000145000024600145000172417912072553777900265000037        
20170823000000000080000024600080000172411708053014117600150000079        
20170823000000000080000024600080000172411708072430479700150000036        
20170823000000000080000024600080000172351708013277982300150000021        
20170823000000000200000024600200000172430077773899104200000000079        
9999999900000007000000000000902000                                       
