00000000MARITIMO S.R.L.     20171023COBRANZAS RAPIPAGO                   
20171023000000000171500024600171500173007912062803255900000000063        
20171023000000000051000024600051000172988217071722335300000000057        
20171023000000000171500024600171500173007912091724193100000000021        
20171023000000000171500024600171500172997912070253940500000000042        
20171023000000000171500024600171500172997912152617919300000000042        
20171023000000000051000024600051000172988217033341392300000000078        
20171023000000000171500024600171500172977912062696453600000000057        
20171023000000000032500024600032500172988217013591050200000000090        
20171023000000000032500024600032500172988217013206725500000000015        
20171023000000000032500024600032500172988217011680610300000000084        
20171023000000000117000024600117000173020090904166882600000000021        
20171023000000000093000024600093000173018504111689848100000000084        
20171023000000000171500024600171500173007912082035444700000000000        
20171023000000000171500024600171500173007912062650230500000000000        
20171023000000000171500024600171500172977912053292414700000000042        
9999999900000015000000000001781500                                       
