00000000MARITIMO S.R.L.     20180223COBRANZAS RAPIPAGO                   
20180223000000000220000024600220000180590083833540594100000000078        
9999999900000001000000000000220000                                       
