00000000MARITIMO S.R.L.     20180723COBRANZAS RAPIPAGO                   
20180723000000000025000024600025000182077605033451391100000000058        
20180723000000000138000024600138000182049606011358087400000000016        
20180723000000000150000024600150000182110114113725952900000000084        
20180723000000000025000024600025000182117605162481537700000000063        
20180723000000000273600024600273600182120101104246004000000000084        
20180723000000000015000024600015000182087605502356977700000000078        
20180723000000000025000024600025000182087605072218500900000000042        
20180723000000000025000024600025000182057605162545279200000000078        
9999999900000008000000000000676600                                       
