00000000MARITIMO S.R.L.     20180823COBRANZAS RAPIPAGO                   
20180823000000000138000024600138000182429606013221729800000000079        
9999999900000001000000000000138000                                       
