00000000MARITIMO S.R.L.     20180824COBRANZAS RAPIPAGO                   
20180824000000000150000024600150000182420118114081565800000000057        
20180824000000000091000024600091000182360265573227131200161000063        
9999999900000002000000000000241000                                       
