00000000MARITIMO S.R.L.     20170824COBRANZAS RAPIPAGO                   
20170824000000000080000024600080000172391708062635045300150000015        
20170824000000000200000024600200000172430076763785633100000000016        
20170824000000000117000024600117000172430090903785633100000000021        
20170824000000000123500024600123500172430096963785633100000000078        
20170824000000000117000024600117000172420089893399386300000000000        
20170824000000000200000024600200000172420076763399386300000000021        
20170824000000000080000024600080000172371708082014111100150000037        
20170824000000000020000024600020000172377604062291654900000000058        
9999999900000008000000000000937500                                       
