00000000MARITIMO S.R.L.     20180324COBRANZAS RAPIPAGO                   
20180324000000000035000024600035000180861601742566836100000000063        
20180324000000000035000024600035000180841601374031960200000000078        
9999999900000002000000000000070000                                       
