00000000MARITIMO S.R.L.     20180424COBRANZAS RAPIPAGO                   
20180424000000000053600024600053600181211851093374577400000000042        
20180424000000000240000024600240000181210099993433927500120000021        
9999999900000002000000000000293600                                       
