00000000MARITIMO S.R.L.     20180124COBRANZAS RAPIPAGO                   
20180124000000000220000024600220000180310082823526650800000000063        
9999999900000001000000000000220000                                       
