00000000MARITIMO S.R.L.     20180924COBRANZAS RAPIPAGO                   
20180924000000000099500024600099500182729607013864611200000000084        
20180924000000000025000024600025000182711010072324805300000000036        
20180924000000000150000024600150000182740117113390047500000000084        
9999999900000003000000000000274500                                       
