00000000MARITIMO S.R.L.     20170724COBRANZAS RAPIPAGO                   
20170724000000000029000024600029000172128216013182172800035000099        
20170724000000000080000024600080000172091708072366390800150000042        
9999999900000002000000000000109000                                       
