00000000MARITIMO S.R.L.     20180524COBRANZAS RAPIPAGO                   
20180524000000000150000024600150000181510117113782168600000000036        
20180524000000000048200024600048200181478219123475087000043000242        
20180524000000000080000024600080000181508809013693841700000000078        
20180524000000000150000024600150000181500113114164047600000000057        
20180524000000000150000024600150000181510113113870918100000000063        
20180524000000000150000024600150000181510113113526663100000000042        
20180524000000000048200024600048200181478219111009975400043000342        
20180524000000000020000024600020000181447605222152963500050000000        
9999999900000008000000000000796400                                       
