00000000MARITIMO S.R.L.     20171024COBRANZAS RAPIPAGO                   
20171024000000000066000024600066000172988217232691583500000000021        
20171024000000000171500024600171500173007912062662017300000000063        
20171024000000000051000024600051000172988217062306594300000000079        
20171024000000000171500024600171500172977912014386580200000000078        
20171024000000000175000024600175000173040083832950292900120000090        
20171024000000000117000024600117000173040091914087082400000000063        
20171024000000000171500024600171500172977912053198218900000000084        
20171024000000000030000024600030000173000601012765979600000000000        
20171024000000000051000024600051000172988217244366004100000000084        
20171024000000000171500024600171500173007912082152082400000000042        
20171024000000000051000024600051000172988217033266881900000000042        
20171024000000000051000024600051000172988217071829475700000000084        
20171024000000000032500024600032500172988217022711117500000000099        
20171024000000000171500024600171500173007912082218220100000000078        
20171024000000000171500024600171500173007912062815006000000000021        
9999999900000015000000000001653500                                       
