00000000MARITIMO S.R.L.     20180724COBRANZAS RAPIPAGO                   
20180724000000000053500024600053500182118220081722335300000000084        
20180724000000000053500024600053500182118220162364199600000000042        
20180724000000000025000024600025000182127605052820476700000000063        
9999999900000003000000000000132000                                       
