00000000MARITIMO S.R.L.     20170925COBRANZAS RAPIPAGO                   
20170925000000000145000024600145000172717912062679602200265000042        
20170925000000000145000024600145000172747912072502567900265000063        
20170925000000000145000024600145000172747912072590244700265000058        
20170925000000000123500024600123500172730096963540594100000000057        
9999999900000004000000000000558500                                       
