00000000MARITIMO S.R.L.     20171025COBRANZAS RAPIPAGO                   
20171025000000000171500024600171500173007912161758994000000000084        
20171025000000000171500024600171500172987912101403579600000000042        
20171025000000000171500024600171500172987912053118424400000000042        
20171025000000000171500024600171500173007912062709312500000000079        
20171025000000000030000024600030000172990601012343600100000000063        
20171025000000000171500024600171500173007912101468286700000000021        
20171025000000000200000024600200000173040079794185407700000000021        
20171025000000000171500024600171500173007912082092818500000000037        
20171025000000000051000024600051000172988217100848352800000000057        
20171025000000000171500024600171500172987912014348836400000000021        
20171025000000000171500024600171500173007912111202841100000000021        
20171025000000000171500024600171500172997912033915168300000000036        
9999999900000012000000000001824500                                       
