00000000MARITIMO S.R.L.     20170725COBRANZAS RAPIPAGO                   
20170725000000000048000024600048000172128216071721483100030000063        
20170725000000000040000024600040000172130705272926464700000000058        
20170725000000000040000024600040000172130705273326170200000000079        
20170725000000000040000024600040000172130705272715623100000000057        
20170725000000000048000024600048000172128216152006434700030000084        
20170725000000000048000024600048000172128216062187133900030000016        
9999999900000006000000000000264000                                       
