00000000MARITIMO S.R.L.     20180625COBRANZAS RAPIPAGO                   
20180625000000000220000024600220000181810086864166882600000000042        
20180625000000000069500024600069500181760264404359612700161007799        
9999999900000002000000000000289500                                       
