00000000MARITIMO S.R.L.     20180425COBRANZAS RAPIPAGO                   
20180425000000000220000024600220000181200085853608029000000000078        
20180425000000000273600024600273600181200098984039188800000000058        
9999999900000002000000000000493600                                       
