00000000MARITIMO S.R.L.     20170425COBRANZAS RAPIPAGO                   
20170425000000000158000024600158000171200058583819946200000000090        
9999999900000001000000000000158000                                       
