00000000MARITIMO S.R.L.     20180925COBRANZAS RAPIPAGO                   
20180925000000000060000024600060000182759951011451729400000000021        
9999999900000001000000000000060000                                       
