00000000MARITIMO S.R.L.     20180825COBRANZAS RAPIPAGO                   
20180825000000000091000024600091000182370265572606215300161000500        
9999999900000001000000000000091000                                       
