00000000MARITIMO S.R.L.     20180725COBRANZAS RAPIPAGO                   
20180725000000000053500024600053500182138220052798727800000000037        
20180725000000000025000024600025000182067605043078159600000000058        
20180725000000000037500024600037500182138220013798885300000000036        
9999999900000003000000000000116000                                       
