00000000MARITIMO S.R.L.     20170825COBRANZAS RAPIPAGO                   
20170825000000000020000024600020000172377604043106070500000000000        
20170825000000000090000024600090000172420261092333069600000000090        
20170825000000000090000024600090000172420261063436854000000000084        
20170825000000000117000024600117000172430091913123480500000000099        
20170825000000000020000024600020000172377604052806580300000000084        
20170825000000000020000024600020000172377604222717074300000000078        
20170825000000000025000024600025000172377604563238329300000000063        
20170825000000000123500024600123500172440096964103728000000000057        
9999999900000008000000000000505500                                       
