00000000MARITIMO S.R.L.     20180525COBRANZAS RAPIPAGO                   
20180525000000000048200024600048200181478219142818779600043007457        
9999999900000001000000000000048200                                       
