00000000MARITIMO S.R.L.     20180326COBRANZAS RAPIPAGO                   
20180326000000000035000024600035000180861601781738918300000000057        
20180326000000000035000024600035000180861601693375715200000000090        
20180326000000000035000024600035000180861601720268061200000000063        
20180326000000000035000024600035000180861601683576640100000000084        
20180326000000000035000024600035000180861601074213367600000000021        
20180326000000000065000024600065000180861201151725453600000000000        
20180326000000000065000024600065000180861201183019485900000000063        
20180326000000000065000024600065000180861201183082634200000000042        
20180326000000000035000024600035000180861601413056946400000000090        
20180326000000000035000024600035000180851601722858012000000000084        
20180326000000000035000024600035000180861601094040251400000000036        
20180326000000000035000024600035000180861601531189374700000000021        
20180326000000000035000024600035000180861601432785902200000000058        
20180326000000000017500024600017500180921601025346640800000000000        
20180326000000000042000024600042000180851201023153176600000000099        
9999999900000015000000000000604500                                       
