00000000MARITIMO S.R.L.     20170426COBRANZAS RAPIPAGO                   
20170426000000000158000024600158000171200058583737688500000000015        
9999999900000001000000000000158000                                       
