00000000MARITIMO S.R.L.     20170626COBRANZAS RAPIPAGO                   
20170626000000000158000024600158000171810060603819946200000000042        
20170626000000000158000024600158000171830059593991147300000000037        
20170626000000000051000024600051000171818808014465037200000000099        
9999999900000003000000000000367000                                       
