00000000MARITIMO S.R.L.     20170926COBRANZAS RAPIPAGO                   
20170926000000000048000024600048000172768217052481515900030000099        
9999999900000001000000000000048000                                       
