00000000MARITIMO S.R.L.     20171026COBRANZAS RAPIPAGO                   
20171026000000000200000024600200000173020078784166882600000000063        
20171026000000000171500024600171500173007912053400035700000000000        
20171026000000000171500024600171500173007912062967953800000000084        
20171026000000000171500024600171500173007912062646591300000000084        
9999999900000004000000000000714500                                       
