00000000MARITIMO S.R.L.     20180226COBRANZAS RAPIPAGO                   
20180226000000000220000024600220000180590083833946406500000000099        
9999999900000001000000000000220000                                       
