00000000MARITIMO S.R.L.     20170526COBRANZAS RAPIPAGO                   
20170526000000000035000024600035000171512401052357011500000000000        
20170526000000000117000024600117000171530088883712423300000000090        
20170526000000000200000024600200000171510074743712423300000000057        
20170526000000000096500024600096500171487911030240405800110000063        
20170526000000000030000024600030000171510705120833033000050007063        
20170526000000000200000024600200000171490073733698922200000000063        
20170526000000000117000024600117000171460092923668116700000000000        
20170526000000000117000024600117000171460092923563627800000000099        
20170526000000000045000024600045000171538808013752179700060000057        
9999999900000009000000000000957500                                       
