00000000MARITIMO S.R.L.     20180726COBRANZAS RAPIPAGO                   
20180726000000000053500024600053500182138220172361914500000000000        
20180726000000000053500024600053500182138220244318648200000000036        
20180726000000000040000024600040000182120707222002548000050007084        
20180726000000000053500024600053500182138220191480199000000000000        
9999999900000004000000000000200500                                       
