00000000MARITIMO S.R.L.     20171226COBRANZAS RAPIPAGO                   
20171226000000000113700024600113700180028504409540047300000000042        
9999999900000001000000000000113700                                       
