00000000MARITIMO S.R.L.     20180526COBRANZAS RAPIPAGO                   
20180526000000000048200024600048200181468219152654162200043000021        
9999999900000001000000000000048200                                       
