00000000MARITIMO S.R.L.     20180426COBRANZAS RAPIPAGO                   
20180426000000000053600024600053600181231851119271845900000000000        
20180426000000000039000024600039000181208219033723656600060007299        
9999999900000002000000000000092600                                       
