00000000MARITIMO S.R.L.     20180926COBRANZAS RAPIPAGO                   
20180926000000000100000024600100000182728811013143278100000000058        
20180926000000000035000024600035000182730501103152647400100007316        
20180926000000000150000024600150000182760120124094161200000000079        
20180926000000000060000024600060000182749951012555792800000000078        
20180926000000000150000024600150000182740117113390047500000000084        
9999999900000005000000000000495000                                       
