00000000MARITIMO S.R.L.     20170826COBRANZAS RAPIPAGO                   
20170826000000000117000024600117000172430095953708663800000000037        
9999999900000001000000000000117000                                       
