00000000MARITIMO S.R.L.     20180626COBRANZAS RAPIPAGO                   
20180626000000000150000024600150000181840113113449977800000000036        
9999999900000001000000000000150000                                       
