00000000MARITIMO S.R.L.     20170726COBRANZAS RAPIPAGO                   
20170726000000000048000024600048000172128216052557574600030000084        
20170726000000000158000024600158000172140060603737688500000000078        
20170726000000000048000024600048000172118216033341392300030000084        
9999999900000003000000000000254000                                       
