00000000MARITIMO S.R.L.     20180927COBRANZAS RAPIPAGO                   
20180927000000000273600024600273600182730103102971852500000000090        
20180927000000000100000024600100000182748811013107156000000000000        
20180927000000000276303024600276303182710102103536098900000360099        
9999999900000003000000000000649903                                       
