00000000MARITIMO S.R.L.     20180827COBRANZAS RAPIPAGO                   
20180827000000000150000024600150000182460119113907478200000000084        
9999999900000001000000000000150000                                       
