00000000MARITIMO S.R.L.     20180227COBRANZAS RAPIPAGO                   
20180227000000000060000024600060000180591009282684647300050007384        
20180227000000000192500024600192500180650084844103728000132000000        
20180227000000000220000024600220000180650082824053731700000000063        
9999999900000003000000000000472500                                       
