00000000MARITIMO S.R.L.     20180427COBRANZAS RAPIPAGO                   
20180427000000000039000024600039000181208219081722335300060007400        
20180427000000000039000024600039000181208219152364199600060007442        
20180427000000000059000024600059000181208219222526544200050007316        
20180427000000000059000024600059000181208219232762197500050007390        
20180427000000000028000024600028000181208219023212644900020007499        
20180427000000000039000024600039000181208219043434423700060007463        
20180427000000000039000024600039000181208219171461730100060007379        
20180427000000000273600024600273600181200098982971852500000000090        
9999999900000008000000000000575600                                       
