00000000MARITIMO S.R.L.     20171227COBRANZAS RAPIPAGO                   
20171227000000000040500024600040500180028218052845457100020000063        
20171227000000000047000024600047000173651008052836442200000000084        
20171227000000000040500024600040500180018218132796381800020000021        
20171227000000000040500024600040500173648218043266820900020000016        
20171227000000000093000024600093000180038504082868687400000000015        
9999999900000005000000000000261500                                       
