00000000MARITIMO S.R.L.     20170627COBRANZAS RAPIPAGO                   
20170627000000000117000024600117000171850093934182792400000000099        
9999999900000001000000000000117000                                       
