00000000MARITIMO S.R.L.     20180727COBRANZAS RAPIPAGO                   
20180727000000000053500024600053500182138220101219684200000000015        
20180727000000000053500024600053500182138220052742126500000000015        
20180727000000000053500024600053500182118220062690184400000000042        
20180727000000000025000024600025000182157605033638273600000000063        
9999999900000004000000000000185500                                       
