00000000MARITIMO S.R.L.     20171127COBRANZAS RAPIPAGO                   
20171127000000000090000024600090000173380262072096711600300000021        
20171127000000000030000024600030000173350305023348051000000000099        
9999999900000002000000000000120000                                       
