00000000MARITIMO S.R.L.     20170427COBRANZAS RAPIPAGO                   
20170427000000000060000024600060000171232401352725740100100000084        
9999999900000001000000000000060000                                       
