00000000MARITIMO S.R.L.     20171027COBRANZAS RAPIPAGO                   
20171027000000000171500024600171500173007912082243606000000000000        
20171027000000000171500024600171500173007912062656302000000000063        
20171027000000000171500024600171500173007912024358999000000000063        
20171027000000000171500024600171500173007912082240490100000000000        
9999999900000004000000000000686000                                       
