00000000MARITIMO S.R.L.     20170927COBRANZAS RAPIPAGO                   
20170927000000000117000024600117000172760091913540594100000000000        
20170927000000000123500024600123500172760097973540594100000000058        
20170927000000000123500024600123500172770097973580226900000000078        
20170927000000000048000024600048000172758217110532496900030000021        
20170927000000000029000024600029000172758217021048174800035000015        
9999999900000005000000000000441000                                       
