00000000MARITIMO S.R.L.     20170727COBRANZAS RAPIPAGO                   
20170727000000000080000024600080000172141708062750179300150000090        
20170727000000000200000024600200000172120076763899265300000000000        
20170727000000000117000024600117000172140089893899265300000000079        
20170727000000000020000024600020000172157604042988585600000000063        
9999999900000004000000000000417000                                       
