00000000MARITIMO S.R.L.     20180627COBRANZAS RAPIPAGO                   
20180627000000000048200024600048200181848220172322917500053000058        
20180627000000000048200024600048200181848220062377777400053000099        
20180627000000000273600024600273600181810100103870826600000000090        
20180627000000000060000024600060000181859947013060350100000000037        
20180627000000000048200024600048200181858220101220048500053000036        
20180627000000000060000024600060000181848810014337943600000000063        
9999999900000006000000000000538200                                       
