00000000MARITIMO S.R.L.     20170527COBRANZAS RAPIPAGO                   
20170527000000000096500024600096500171497911059339260400110000058        
20170527000000000070000024600070000171512401253458336800000000000        
9999999900000002000000000000166500                                       
