00000000MARITIMO S.R.L.     20170728COBRANZAS RAPIPAGO                   
20170728000000000020000024600020000172127604152825389300000000078        
20170728000000000158000024600158000172160060601904431500000000063        
20170728000000000175000024600175000172160077772950292900120000021        
20170728000000000117000024600117000172160091912950292900000000021        
20170728000000000080000024600080000172151708072432105900150000021        
20170728000000000048000024600048000172128216071720932400030007336        
9999999900000006000000000000598000                                       
