00000000MARITIMO S.R.L.     20170828COBRANZAS RAPIPAGO                   
20170828000000000145000024600145000172437912101491143600265000016        
20170828000000000145000024600145000172477912091720342200265000063        
20170828000000000145000024600145000172427912072538388700265000042        
20170828000000000145000024600145000172447912082309188600265000058        
9999999900000004000000000000580000                                       
