00000000MARITIMO S.R.L.     20180228COBRANZAS RAPIPAGO                   
20180228000000000047000024600047000180591009091497643700080007879        
20180228000000000047000024600047000180591009033721798000080007837        
20180228000000000180000024600180000180609933013309723500000000599        
20180228000000000060000024600060000180591009411765428700050007900        
20180228000000000047000024600047000180591009163344361100080000042        
20180228000000000047000024600047000180591009153243180700080000000        
20180228000000000060000024600060000180591009263456014500050007816        
20180228000000000060000024600060000180591009283217958000050007878        
20180228000000000220000024600220000180590083833785633100000000090        
20180228000000000047000024600047000180591009091852274500080007963        
9999999900000010000000000000815000                                       
