00000000MARITIMO S.R.L.     20180328COBRANZAS RAPIPAGO                   
20180328000000000017500024600017500180931601034900991400000000042        
20180328000000000017500024600017500180871601025247125100000000015        
20180328000000000017500024600017500180931601044872337300000000063        
20180328000000000042000024600042000180921201082712242200000000036        
20180328000000000240000024600240000180930098983004744000120000015        
9999999900000005000000000000334500                                       
