00000000MARITIMO S.R.L.     20180428COBRANZAS RAPIPAGO                   
20180428000000000273600024600273600181200098983725952900000000000        
20180428000000000039000024600039000181208219171798228600060007521        
20180428000000000039000024600039000181208219101169265300060007521        
9999999900000003000000000000351600                                       
