00000000MARITIMO S.R.L.     20171128COBRANZAS RAPIPAGO                   
20171128000000000025000024600025000173340305122893004200000000063        
20171128000000000113700024600113700173348504643226059000000000000        
20171128000000000113700024600113700173368504422714691400000000000        
20171128000000000113700024600113700173378504642667054000000000099        
9999999900000004000000000000366100                                       
