00000000MARITIMO S.R.L.     20171228COBRANZAS RAPIPAGO                   
20171228000000000040500024600040500180028218043061240100020000158        
20171228000000000113700024600113700173648504432483291400000000057        
20171228000000000113700024600113700180048504582255089800000000042        
20171228000000000113700024600113700173628504442259827900000000015        
9999999900000004000000000000381600                                       
