00000000MARITIMO S.R.L.     20180928COBRANZAS RAPIPAGO                   
20180928000000000171000024600171000182760129123004744000085000016        
20180928000000000240000024600240000182760104103004744000120000037        
20180928000000000025000024600025000182751010283395046900000000090        
20180928000000000025000024600025000182781010082068240400000000016        
20180928000000000025000024600025000182781010292085111400000000078        
20180928000000000100000024600100000182748811012944349400000000084        
20180928000000000240000024600240000182780104103801002700120000036        
9999999900000007000000000000826000                                       
