00000000MARITIMO S.R.L.     20170928COBRANZAS RAPIPAGO                   
20170928000000000145000024600145000172787912043513229300265000037        
20170928000000000145000024600145000172787912072321012300265000036        
20170928000000000145000024600145000172787912061890226700265000057        
9999999900000003000000000000435000                                       
