00000000MARITIMO S.R.L.     20171028COBRANZAS RAPIPAGO                   
20171028000000000175000024600175000173080080803639936000120000078        
9999999900000001000000000000175000                                       
