00000000MARITIMO S.R.L.     20180528COBRANZAS RAPIPAGO                   
20180528000000000052500024600052500181548219162172016900000000036        
20180528000000000034300024600034300181548219012063069100000000016        
20180528000000000052500024600052500181548219254171535300000000063        
20180528000000000034300024600034300181548219021774151000000000000        
20180528000000000060000024600060000181558810014032337600000000057        
20180528000000000273600024600273600181510099993870826600000000036        
20180528000000000085600024600085600181550263533475485800000000063        
20180528000000000150000024600150000181550113113513818000000000036        
9999999900000008000000000000742800                                       
