00000000MARITIMO S.R.L.     20180628COBRANZAS RAPIPAGO                   
20180628000000000048200024600048200181828220181733806000053000058        
20180628000000000276303024600276303181790099992564081100000360084        
20180628000000000220000024600220000181790084844161509400000000099        
20180628000000000220000024600220000181810087873575516400000000037        
9999999900000004000000000000764503                                       
