00000000MARITIMO S.R.L.     20180828COBRANZAS RAPIPAGO                   
20180828000000000085600024600085600182430265552306579800000000099        
20180828000000000107100024600107100182430265442084136600000000036        
20180828000000000240000024600240000182470103103801002700120000037        
20180828000000000276303024600276303182420101103536098900000360084        
9999999900000004000000000000709003                                       
