00000000MARITIMO S.R.L.     20180728COBRANZAS RAPIPAGO                   
20180728000000000240000024600240000182140102103004744000120000042        
20180728000000000150000024600150000182140116113004744000000000036        
20180728000000000037500024600037500182138220023982687000000000063        
20180728000000000037500024600037500182138220023621751600000000079        
9999999900000004000000000000465000                                       
