00000000MARITIMO S.R.L.     20170629COBRANZAS RAPIPAGO                   
20170629000000000158000024600158000171810060603320685300000000099        
20170629000000000117000024600117000171860088882945877700000000037        
20170629000000000200000024600200000171810075752945877700000000021        
20170629000000000175000024600175000171870076763639936000120000021        
9999999900000004000000000000650000                                       
