00000000MARITIMO S.R.L.     20170529COBRANZAS RAPIPAGO                   
20170529000000000070000024600070000171512401293653708000000000000        
20170529000000000045000024600045000171548808013372049400060000000        
20170529000000000045000024600045000171568808013898743500060000079        
20170529000000000070000024600070000171512401372757780800000000016        
20170529000000000045000024600045000171558808013949843300060000015        
20170529000000000045000024600045000171568808013355170800060000078        
20170529000000000045000024600045000171498808013229554500060000016        
20170529000000000035000024600035000171512401143002342700000000000        
20170529000000000035000024600035000171512401014294559500000000099        
20170529000000000035000024600035000171512401052284073500000000036        
9999999900000010000000000000470000                                       
