00000000MARITIMO S.R.L.     20180329COBRANZAS RAPIPAGO                   
20180329000000000065000024600065000180931201112236784000000000063        
9999999900000001000000000000065000                                       
