00000000MARITIMO S.R.L.     20180929COBRANZAS RAPIPAGO                   
20180929000000000150000024600150000182790117113618159400000000000        
9999999900000001000000000000150000                                       
