00000000MARITIMO S.R.L.     20171229COBRANZAS RAPIPAGO                   
20171229000000000040500024600040500180028218161641592100020000321        
20171229000000000040500024600040500180018218052720039700020000063        
20171229000000000030000024600030000180028218014224880900020000100        
20171229000000000040500024600040500180028218081725494400020000178        
20171229000000000030000024600030000180028218024064294100020000199        
20171229000000000030000024600030000180028218029247797700020000178        
20171229000000000200000024600200000173650081813946406500000000090        
20171229000000000040500024600040500173648218081733835700020000021        
20171229000000000040500024600040500180028218043231177800020000216        
20171229000000000175000024600175000180030082822398007900120000015        
20171229000000000113700024600113700180048504442051041300000000015        
9999999900000011000000000000781200                                       
