00000000MARITIMO S.R.L.     20170329COBRANZAS RAPIPAGO                   
20170329000000000046000024600046000170908214023324828800030007363        
20170329000000000046000024600046000170908214033116032100030007337        
20170329000000000100000024600100000170901850433153432600000000015        
20170329000000000046000024600046000170888214062078071800030000058        
20170329000000000120000024600120000170911850131407706200000000000        
20170329000000000100000024600100000170911850233165504900000000090        
20170329000000000120000024600120000170911850112241137500000000021        
20170329000000000120000024600120000170911850033054994600000000021        
20170329000000000042000024600042000170917910024065614400070000342        
20170329000000000042000024600042000170917910050268310900070000442        
20170329000000000100000024600100000170911850261848423400000000079        
20170329000000000042000024600042000170917910072171183000070000384        
20170329000000000120000024600120000170911850121613069100000000021        
20170329000000000100000024600100000170911850332931352100000000016        
20170329000000000100000024600100000170911850442613292200000000015        
20170329000000000120000024600120000170911850102557720600000000084        
9999999900000016000000000001364000                                       
