00000000MARITIMO S.R.L.     20170829COBRANZAS RAPIPAGO                   
20170829000000000090000024600090000172420261073051372700000000090        
20170829000000000117000024600117000172430089893899225400000000084        
20170829000000000080000024600080000172421708091698906200150000063        
20170829000000000051000024600051000172488808013687124200000000078        
20170829000000000051000024600051000172488808012730991000000000036        
20170829000000000145000024600145000172467912072569188200265000000        
20170829000000000035000024600035000172430706043390449600050007415        
9999999900000007000000000000569000                                       
