00000000MARITIMO S.R.L.     20171129COBRANZAS RAPIPAGO                   
20171129000000000317500024600317500173380072724103728000000000037        
9999999900000001000000000000317500                                       
