00000000MARITIMO S.R.L.     20180629COBRANZAS RAPIPAGO                   
20180629000000000150000024600150000181870118113982164100000000058        
20180629000000000220000024600220000181810087874023960800000000090        
20180629000000000025000024600025000181867605541701777800050000090        
20180629000000000150000024600150000181870115113004744000000000042        
20180629000000000240000024600240000181870101103004744000120000058        
9999999900000005000000000000785000                                       
