00000000MARITIMO S.R.L.     20170929COBRANZAS RAPIPAGO                   
20170929000000000145000024600145000172797912091642668000265000036        
20170929000000000145000024600145000172787912091682738800265000042        
20170929000000000145000024600145000172727912082162963000265000063        
9999999900000003000000000000435000                                       
