00000000MARITIMO S.R.L.     20180529COBRANZAS RAPIPAGO                   
20180529000000000052500024600052500181548219123865715400000000042        
20180529000000000052500024600052500181548219142972845400000000016        
20180529000000000192500024600192500181550087873899265300132000000        
20180529000000000052500024600052500181548219191242814000000000090        
20180529000000000150000024600150000181560117114137872900000000042        
9999999900000005000000000000500000                                       
