00000000MARITIMO S.R.L.     20170830COBRANZAS RAPIPAGO                   
20170830000000000117000024600117000172490091913785633100000000063        
9999999900000001000000000000117000                                       
