00000000MARITIMO S.R.L.     20170330COBRANZAS RAPIPAGO                   
20170330000000000034000024600034000170908214382556459400030007436        
20170330000000000046000024600046000170908214201225569800030007484        
20170330000000000034000024600034000170908214282252257000030007484        
20170330000000000046000024600046000170908214042829383700030007299        
20170330000000000045000024600045000170899700080111111200000000084        
20170330000000000045000024600045000170899700081111111500000000099        
20170330000000000034000024600034000170908214253173484100030007263        
20170330000000000042000024600042000170917910052620914000070000037        
20170330000000000046000024600046000170908214023348051000030007484        
9999999900000009000000000000372000                                       
