00000000MARITIMO S.R.L.     20180830COBRANZAS RAPIPAGO                   
20180830000000000150000024600150000182490120123982164100000000036        
20180830000000000240000024600240000182490103103004744000120000021        
20180830000000000171000024600171000182490128123004744000085000000        
20180830000000000150000024600150000182480120124137872900000000078        
9999999900000004000000000000711000                                       
