00000000MARITIMO S.R.L.     20180130COBRANZAS RAPIPAGO                   
20180130000000000220000024600220000180310082823946406500000000099        
20180130000000000220000024600220000180310082823712418900000000036        
9999999900000002000000000000440000                                       
