00000000MARITIMO S.R.L.     20171230COBRANZAS RAPIPAGO                   
20171230000000000030000024600030000180028218022690209700020000321        
20171230000000000065000024600065000173658305243064222600150008842        
20171230000000000040500024600040500180028218043476480000020000378        
20171230000000000040500024600040500180028218123947740200020000316        
20171230000000000065000024600065000173658305224042246200150008890        
9999999900000005000000000000241000                                       
