00000000MARITIMO S.R.L.     20180730COBRANZAS RAPIPAGO                   
20180730000000000037500024600037500182128220022519989300000000084        
20180730000000000053500024600053500182138220153046711000000000015        
20180730000000000053500024600053500182138220091656061100000000016        
20180730000000000037500024600037500182138220014366004100000000084        
20180730000000000276303024600276303182180100104004522400000360063        
20180730000000000037500024600037500182138220014271684300000000057        
20180730000000000273600024600273600182120101103870826600000000063        
20180730000000000150000024600150000182180115113870826600000000058        
20180730000000000276303024600276303182180100102971852500000360090        
9999999900000009000000000001195706                                       
