00000000MARITIMO S.R.L.     20180430COBRANZAS RAPIPAGO                   
20180430000000000039000024600039000181208219062481508400060007690        
20180430000000000039000024600039000181208219062397131300060007415        
20180430000000000039000024600039000181208219152526501500060007416        
9999999900000003000000000000117000                                       
