00000000MARITIMO S.R.L.     20171030COBRANZAS RAPIPAGO                   
20171030000000000030000024600030000173090601013259567600000000099        
20171030000000000030000024600030000173090601023659767600000000063        
9999999900000002000000000000060000                                       
