00000000MARITIMO S.R.L.     20180530COBRANZAS RAPIPAGO                   
20180530000000000052500024600052500181548219123591057400000000021        
20180530000000000150000024600150000181560114113004744000000000042        
20180530000000000240000024600240000181560100103004744000120000063        
20180530000000000060000024600060000181578810011772349800000000037        
20180530000000000052500024600052500181548219082004734500000000078        
20180530000000000052500024600052500181548219133310721900000000058        
20180530000000000052500024600052500181548219052905943100000000021        
20180530000000000052500024600052500181548219133206449200000000079        
9999999900000008000000000000712500                                       
