00000000MARITIMO S.R.L.     20180831COBRANZAS RAPIPAGO                   
20180831000000000045000024600045000182430707072469069500050007490        
9999999900000001000000000000045000                                       
