00000000MARITIMO S.R.L.     20170731COBRANZAS RAPIPAGO                   
20170731000000000048000024600048000172128216181064851100030007242        
20170731000000000175000024600175000172190077773639936000120000063        
20170731000000000048000024600048000172128216132875920900030007415        
20170731000000000060000024600060000172189931012319169300000000042        
20170731000000000060000024600060000172189931011783029600000000000        
20170731000000000048000024600048000172128216132872944700030007300        
20170731000000000048000024600048000172128216152208650600030007684        
20170731000000000048000024600048000172128216142556914200030007263        
9999999900000008000000000000535000                                       
