00000000MARITIMO S.R.L.     20180731COBRANZAS RAPIPAGO                   
20180731000000000025000024600025000182197605082021315100000000042        
20180731000000000060000024600060000182198810014220883800000000036        
20180731000000000273600024600273600182120101102971852500000000057        
20180731000000000053500024600053500182138220052829704600000000016        
20180731000000000053500024600053500182138220152856316100000000015        
20180731000000000053500024600053500182138220043194024100000000015        
20180731000000000072800024600072800182138220274441541100000000021        
20180731000000000053500024600053500182138220072067327800000000063        
20180731000000000030000024600030000182187605554404535400000000042        
20180731000000000025000024600025000182197605023854776900000000037        
20180731000000000015000024600015000182187605493024002700000000016        
9999999900000011000000000000715400                                       
