00000000MARITIMO S.R.L.     20171031COBRANZAS RAPIPAGO                   
20171031000000000093000024600093000173048504082634654900000000021        
20171031000000000317500024600317500173110071714086371700000000084        
20171031000000000175000024600175000173110080804086371700120000021        
20171031000000000045000024600045000173071007143395046900000000084        
20171031000000000175000024600175000173110080803792603700120000042        
20171031000000000045000024600045000173048305291302588000200007378        
9999999900000006000000000000850500                                       
