00000000MARITIMO S.R.L.     20180331COBRANZAS RAPIPAGO                   
20180331000000000017500024600017500180931601025332252500000000090        
9999999900000001000000000000017500                                       
