00000000MARITIMO S.R.L.     20170831COBRANZAS RAPIPAGO                   
20170831000000000117000024600117000172490091912945877700000000016        
20170831000000000080000024600080000172441708053074792600150000090        
20170831000000000145000024600145000172497912062685310900265000090        
9999999900000003000000000000342000                                       
