00000000MARITIMO S.R.L.     20180531COBRANZAS RAPIPAGO                   
20180531000000000052500024600052500181548219244318648200000000016        
20180531000000000052500024600052500181548219052872812600000000057        
20180531000000000016500024600016500181519937013355179100000000084        
20180531000000000273600024600273600181510099993725952900000000021        
20180531000000000220000024600220000181580084843712418900000000084        
9999999900000005000000000000615100                                       
