120180605PAGO FACIL               090060246MARITIMO SRL                                                                         
320180605000001MARITIMO SRL                                                                                                     
50000110201806042018060500787740729235       PES0000192500A155002018060413560055                                                
6024600192500181580078774072923500132000121                                                                                     
7PESE                                                                                000000000192500                            
82018060500000100000010000001925000000000000000000000000000000000000000000001                                                   
9201806050000010000001000000192500000000000000000000000000000000000000000000001                                                 
