120180801PAGO FACIL               090060246MARITIMO SRL                                                                         
320180801000001MARITIMO SRL                                                                                                     
50000110201807312018080182200816594311       PES0000053500A063642018073115410063                                                
6024600053500182138220081659431100000000078                                                                                     
7PESE                                                                                000000000053500                            
50000210201807312018080182202529591913       PES0000072800A116892018073114360008                                                
6024600072800182138220252959191300000000084                                                                                     
7PESE                                                                                000000000072800                            
82018080100000100000020000001263000000000000000000000000000000000000000000002                                                   
9201808010000010000002000000126300000000000000000000000000000000000000000000002                                                 
