120170904PAGO FACIL               090060246MARITIMO SRL                                                                         
320170904000001MARITIMO SRL                                                                                                     
50000110201709012017090400777742111158       PES0000200000A114982017090116490064                                                
6024600200000172510077774211115800000000079                                                                                     
7PESE                                                                                000000000200000                            
50000210201709012017090400787841615094       PES0000175000A152492017090117530008                                                
6024600175000172480078784161509400120000021                                                                                     
7PESE                                                                                000000000175000                            
82017090400000100000020000003750000000000000000000000000000000000000000000002                                                   
9201709040000010000002000000375000000000000000000000000000000000000000000000002                                                 
