120170801PAGO FACIL               090060246MARITIMO SRL                                                                         
320170801000001MARITIMO SRL                                                                                                     
50000110201707312017080176040431477215       PES0000020000A016922017073116340077                                                
6024600020000172197604043147721500000000042                                                                                     
7PESE                                                                                000000000020000                            
50000210201707312017080100767629248146       PES0000200000A159742017073112490054                                                
6024600200000172120076762924814600000000021                                                                                     
7PESE                                                                                000000000200000                            
50000310201707312017080100767642111158       PES0000200000A114982017073114400094                                                
6024600200000172120076764211115800000000015                                                                                     
7PESE                                                                                000000000200000                            
82017080100000100000030000004200000000000000000000000000000000000000000000003                                                   
9201708010000010000003000000420000000000000000000000000000000000000000000000003                                                 
