120180207PAGO FACIL               090060246MARITIMO SRL                                                                         
320180207000001MARITIMO SRL                                                                                                     
50000110201802062018020700838311105201       PES0000192500A164562018020617500052                                                
6024600192500180380083831110520100132000642                                                                                     
7PESE                                                                                000000000192500                            
50000210201802062018020700838338890969       PES0000192500D002812018020619360468                                                
6024600192500180380083833889096900132000684                                                                                     
7PESE                                                                                000000000192500                            
50000310201802062018020700838341472059       PES0000192500A206052018020608350021                                                
6024600192500180380083834147205900132000342                                                                                     
7PESE                                                                                000000000192500                            
50000410201802062018020700838341894632       PES0000192500A048292018020617260007                                                
6024600192500180380083834189463200132000699                                                                                     
7PESE                                                                                000000000192500                            
82018020700000100000040000007700000000000000000000000000000000000000000000004                                                   
9201802070000010000004000000770000000000000000000000000000000000000000000000004                                                 
