120171005PAGO FACIL               090060246MARITIMO SRL                                                                         
320171005000001MARITIMO SRL                                                                                                     
50000110201710042017100500919140954967       PES0000117000A160372017100410200065                                                
6024600117000172830091914095496700000000063                                                                                     
7PESE                                                                                000000000117000                            
50000210201710042017100500979735069112       PES0000123500A112032017100412430050                                                
6024600123500172770097973506911200000000057                                                                                     
7PESE                                                                                000000000123500                            
50000310201710042017100500979740540364       PES0000123500A112372017100418270058                                                
6024600123500172770097974054036400000000084                                                                                     
7PESE                                                                                000000000123500                            
50000410201710042017100500979740849713       PES0000123500A128132017100416370005                                                
6024600123500172770097974084971300000000021                                                                                     
7PESE                                                                                000000000123500                            
50000510201710042017100500979741321276       PES0000123500A165572017100412030094                                                
6024600123500172770097974132127600000000000                                                                                     
7PESE                                                                                000000000123500                            
50000610201710042017100500979741894632       PES0000123500A048292017100412340009                                                
6024600123500172770097974189463200000000084                                                                                     
7PESE                                                                                000000000123500                            
50000710201710042017100579120531727720       PES0000145000L260012017100408512412                                                
6024600145000172797912053172772000265000584                                                                                     
7PESE                                                                                000000000145000                            
50000810201710042017100579121014337443       PES0000145000D007542017100417550036                                                
6024600145000172797912101433744300265000579                                                                                     
7PESE                                                                                000000000145000                            
50000910201710042017100500797935069112       PES0000175000A112032017100412430051                                                
6024600175000172800079793506911200120000400                                                                                     
7PESE                                                                                000000000175000                            
50001010201710042017100500797935802269       PES0000175000A174212017100413360039                                                
6024600175000172800079793580226900120000421                                                                                     
7PESE                                                                                000000000175000                            
50001110201710042017100500797941472059       PES0000175000A206052017100408490022                                                
6024600175000172800079794147205900120000358                                                                                     
7PESE                                                                                000000000175000                            
50001210201710042017100500797941765804       PES0000175000A150942017100417070037                                                
6024600175000172800079794176580400120000479                                                                                     
7PESE                                                                                000000000175000                            
50001310201710042017100500797941894632       PES0000175000A048292017100412340008                                                
6024600175000172800079794189463200120000437                                                                                     
7PESE                                                                                000000000175000                            
82017100500000100000130000018995000000000000000000000000000000000000000000013                                                   
9201710050000010000013000001899500000000000000000000000000000000000000000000013                                                 
