120180808PAGO FACIL               090060246MARITIMO SRL                                                                         
320180808000001MARITIMO SRL                                                                                                     
50000110201808072018080876052223217317       PES0000025000A090072018080716540037                                                
6024600025000182217605222321731700000000058                                                                                     
7PESE                                                                                000000000025000                            
50000210201808072018080801161118791527       PES0000150000D002262018080713170177                                                
6024600150000182250116111879152700000000015                                                                                     
7PESE                                                                                000000000150000                            
82018080800000100000020000001750000000000000000000000000000000000000000000002                                                   
9201808080000010000002000000175000000000000000000000000000000000000000000000002                                                 
