120180502PAGO FACIL               090060246MARITIMO SRL                                                                         
320180502000001MARITIMO SRL                                                                                                     
50000110201804272018050200868641037280       PES0000192500A094782018042711300082                                                
6024600192500181240086864103728000132000084                                                                                     
7PESE                                                                                000000000192500                            
50000210201804272018050218513011607799       PES0000053600A268352018042712410040                                                
6024600053600181201851301160779900000000078                                                                                     
7PESE                                                                                000000000053600                            
82018050200000100000020000002461000000000000000000000000000000000000000000002                                                   
9201805020000010000002000000246100000000000000000000000000000000000000000000002                                                 
