120171108PAGO FACIL               090060246MARITIMO SRL                                                                         
320171108000001MARITIMO SRL                                                                                                     
50000110201711072017110806010334507214       PES0000020000A137082017110716360045                                                
6024600020000173110601033450721400000000090                                                                                     
7PESE                                                                                000000000020000                            
50000210201711072017110806010436148659       PES0000020000A137082017110716370046                                                
6024600020000173110601043614865900000000057                                                                                     
7PESE                                                                                000000000020000                            
50000310201711072017110800919130984899       PES0000117000D000502017110711140094                                                
6024600117000173180091913098489900000000058                                                                                     
7PESE                                                                                000000000117000                            
50000410201711072017110800808011105201       PES0000175000A095702017110711300072                                                
6024600175000173110080801110520100120000737                                                                                     
7PESE                                                                                000000000175000                            
50000510201711072017110800808026240745       PES0000175000L192762017110716072577                                                
6024600175000173110080802624074500120000684                                                                                     
7PESE                                                                                000000000175000                            
50000610201711072017110800808030980449       PES0000175000A159742017110711270091                                                
6024600175000173110080803098044900120000621                                                                                     
7PESE                                                                                000000000175000                            
50000710201711072017110800808030984899       PES0000175000D000502017110711140095                                                
6024600175000173110080803098489900120000757                                                                                     
7PESE                                                                                000000000175000                            
50000810201711072017110800808033017484       PES0000175000D002762017110717530188                                                
6024600175000173110080803301748400120000763                                                                                     
7PESE                                                                                000000000175000                            
50000910201711072017110800808035028842       PES0000175000A144962017110717330027                                                
6024600175000173110080803502884200120000784                                                                                     
7PESE                                                                                000000000175000                            
50001010201711072017110800808035069112       PES0000175000A220712017110716400002                                                
6024600175000173110080803506911200120000758                                                                                     
7PESE                                                                                000000000175000                            
50001110201711072017110800808036153360       PES0000175000A076902017110718140044                                                
6024600175000173110080803615336000120000790                                                                                     
7PESE                                                                                000000000175000                            
50001210201711072017110800808037040427       PES0000175000L192762017110716082578                                                
6024600175000173110080803704042700120000621                                                                                     
7PESE                                                                                000000000175000                            
50001310201711072017110800808038027942       PES0000175000D007992017110718480244                                                
6024600175000173110080803802794200120000721                                                                                     
7PESE                                                                                000000000175000                            
50001410201711072017110800808038069919       PES0000175000A159742017110718060056                                                
6024600175000173110080803806991900120000721                                                                                     
7PESE                                                                                000000000175000                            
50001510201711072017110800808041835125       PES0000175000A188582017110713330011                                                
6024600175000173110080804183512500120000700                                                                                     
7PESE                                                                                000000000175000                            
50001610201711072017110800797941558730       PES0000200000A127422017110712540004                                                
6024600200000173180079794155873000000000016                                                                                     
7PESE                                                                                000000000200000                            
82017110800000100000160000024570000000000000000000000000000000000000000000016                                                   
9201711080000010000016000002457000000000000000000000000000000000000000000000016                                                 
