120180102PAGO FACIL               090060246MARITIMO SRL                                                                         
320180102000001MARITIMO SRL                                                                                                     
50000110201712292018010282180217077260       PES0000030000A206102017122914430060                                                
6024600030000180028218021707726000020000321                                                                                     
7PESE                                                                                000000000030000                            
50000210201712292018010282180136075041       PES0000030000A206102017122914430061                                                
6024600030000180028218013607504100020000358                                                                                     
7PESE                                                                                000000000030000                            
50000310201712292018010200828237856331       PES0000175000A211392017122916260101                                                
6024600175000180050082823785633100120000015                                                                                     
7PESE                                                                                000000000175000                            
50000410201712292018010285044323804236       PES0000113700A140032017122917200056                                                
6024600113700180048504432380423600000000090                                                                                     
7PESE                                                                                000000000113700                            
50000510201712292018010285045629192010       PES0000113700A140032017122917190055                                                
6024600113700180048504562919201000000000037                                                                                     
7PESE                                                                                000000000113700                            
50000610201712292018010210081531702918       PES0000047000L260012017122916197164                                                
6024600047000180051008153170291800000000042                                                                                     
7PESE                                                                                000000000047000                            
82018010200000100000060000005094000000000000000000000000000000000000000000006                                                   
9201801020000010000006000000509400000000000000000000000000000000000000000000006                                                 
