120170605PAGO FACIL               090060246MARITIMO SRL                                                                         
320170605000001MARITIMO SRL                                                                                                     
50000110201706022017060588080145356274       PES0000045000A136752017060213200117                                                
6024600045000171608808014535627400060000084                                                                                     
7PESE                                                                                000000000045000                            
50000210201706022017060500757537124189       PES0000175000A152142017060212560036                                                
6024600175000171580075753712418900120000163                                                                                     
7PESE                                                                                000000000175000                            
50000310201706022017060500757538992254       PES0000175000A174212017060212470071                                                
6024600175000171580075753899225400120000242                                                                                     
7PESE                                                                                000000000175000                            
50000410201706022017060579110504571995       PES0000096500A147102017060213170020                                                
6024600096500171587911050457199500110000016                                                                                     
7PESE                                                                                000000000096500                            
50000510201706022017060579110320857275       PES0000096500A147102017060213170021                                                
6024600096500171577911032085727500110000078                                                                                     
7PESE                                                                                000000000096500                            
50000610201706022017060500757541765804       PES0000175000A150942017060216410080                                                
6024600175000171580075754176580400120000258                                                                                     
7PESE                                                                                000000000175000                            
50000710201706022017060500888842111158       PES0000117000A171452017060216420058                                                
6024600117000171590088884211115800000000058                                                                                     
7PESE                                                                                000000000117000                            
50000810201706022017060500747442111158       PES0000200000A171452017060216420059                                                
6024600200000171590074744211115800000000000                                                                                     
7PESE                                                                                000000000200000                            
50000910201706022017060588070224671366       PES0000085000A088822017060219170101                                                
6024600085000171528807022467136600000000742                                                                                     
7PESE                                                                                000000000085000                            
50001010201706022017060588080132297436       PES0000045000A175522017060219170063                                                
6024600045000171598808013229743600060000084                                                                                     
7PESE                                                                                000000000045000                            
50001110201706032017060588080138961888       PES0000045000A110772017060309390023                                                
6024600045000171618808013896188800060000058                                                                                     
7PESE                                                                                000000000045000                            
50001210201706032017060500898936948484       PES0000117000D000282017060309360036                                                
6024600117000171600089893694848400000000021                                                                                     
7PESE                                                                                000000000117000                            
50001310201706032017060500757536948484       PES0000175000D000282017060309360037                                                
6024600175000171580075753694848400120000278                                                                                     
7PESE                                                                                000000000175000                            
50001410201706032017060588080144562974       PES0000045000D003002017060310570066                                                
6024600045000171578808014456297400060000057                                                                                     
7PESE                                                                                000000000045000                            
50001510201706032017060588080123091771       PES0000045000A149962017060312540024                                                
6024600045000171618808012309177100060000000                                                                                     
7PESE                                                                                000000000045000                            
50001610201706032017060588080141390193       PES0000045000A071042017060312190023                                                
6024600045000171618808014139019300060000000                                                                                     
7PESE                                                                                000000000045000                            
50001710201706032017060588070227727515       PES0000085000D003792017060319570277                                                
6024600085000171608807022772751500000000063                                                                                     
7PESE                                                                                000000000085000                            
82017060500000100000170000017670000000000000000000000000000000000000000000017                                                   
9201706050000010000017000001767000000000000000000000000000000000000000000000017                                                 
