120180703PAGO FACIL               090060246MARITIMO SRL                                                                         
320180703000001MARITIMO SRL                                                                                                     
50000110201807022018070302640144561213       PES0000085600A279942018070216320013                                                
6024600069500181760264014456121300161007784                                                                                     
7PESE                                                                                000000000085600                            
82018070300000100000010000000856000000000000000000000000000000000000000000001                                                   
9201807030000010000001000000085600000000000000000000000000000000000000000000001                                                 
