120170809PAGO FACIL               090060246MARITIMO SRL                                                                         
320170809000001MARITIMO SRL                                                                                                     
50000110201708082017080982160137434055       PES0000032500A088822017080819320021                                                
6024600032500172228216013743405500000000063                                                                                     
7PESE                                                                                000000000032500                            
50000210201708082017080988080140793730       PES0000051000A118482017080816220078                                                
6024600051000172268808014079373000000000042                                                                                     
7PESE                                                                                000000000051000                            
50000310201708082017080900909031234805       PES0000117000D004892017080810460044                                                
6024600117000172240090903123480500000000090                                                                                     
7PESE                                                                                000000000117000                            
50000410201708082017080900909036153360       PES0000117000A148872017080816150028                                                
6024600117000172270090903615336000000000090                                                                                     
7PESE                                                                                000000000117000                            
50000510201708082017080900777731234805       PES0000187000D004892017080810450043                                                
6024600175000172190077773123480500120000537                                                                                     
7PESE                                                                                000000000187000                            
50000610201708082017080900777735755164       PES0000187000A016922017080814520069                                                
6024600187000172270077773575516400130000042                                                                                     
7PESE                                                                                000000000187000                            
50000710201708082017080900777736153360       PES0000187000A148872017080816160029                                                
6024600187000172270077773615336000130000021                                                                                     
7PESE                                                                                000000000187000                            
82017080900000100000070000008785000000000000000000000000000000000000000000007                                                   
9201708090000010000007000000878500000000000000000000000000000000000000000000007                                                 
