120170405PAGO FACIL               090060246MARITIMO SRL                                                                         
320170405000001MARITIMO SRL                                                                                                     
50000110201704042017040579100625085430       PES0000049000A173722017040415580016                                                
6024600049000170957910062508543000000000084                                                                                     
7PESE                                                                                000000000049000                            
50000210201704042017040582140716763582       PES0000049000A161412017040416520040                                                
6024600049000170958214071676358200000000090                                                                                     
7PESE                                                                                000000000049000                            
50000310201704042017040582140814161771       PES0000049000A074252017040414150021                                                
6024600049000170958214081416177100000000021                                                                                     
7PESE                                                                                000000000049000                            
50000410201704042017040500585834229434       PES0000140000A092942017040416500033                                                
6024600140000170970058583422943400095000442                                                                                     
7PESE                                                                                000000000140000                            
50000510201704042017040500585840922757       PES0000140000A028472017040417520127                                                
6024600140000170970058584092275700095000363                                                                                     
7PESE                                                                                000000000140000                            
82017040500000100000050000004270000000000000000000000000000000000000000000005                                                   
9201704050000010000005000000427000000000000000000000000000000000000000000000005                                                 
