120180503PAGO FACIL               090060246MARITIMO SRL                                                                         
320180503000001MARITIMO SRL                                                                                                     
50000110201805022018050318511022185009       PES0000053600A601872018050211460041                                                
6024600053600181231851102218500900000000063                                                                                     
7PESE                                                                                000000000053600                            
50000210201805022018050318512634255828       PES0000053600A027742018050218540025                                                
6024600053600181231851263425582800000000058                                                                                     
7PESE                                                                                000000000053600                            
50000310201805022018050300868641894632       PES0000192500A048292018050210570039                                                
6024600192500181230086864189463200132000058                                                                                     
7PESE                                                                                000000000192500                            
50000410201805022018050300868641914433       PES0000192500A117922018050210160086                                                
6024600192500181270086864191443300132000121                                                                                     
7PESE                                                                                000000000192500                            
82018050300000100000040000004922000000000000000000000000000000000000000000004                                                   
9201805030000010000004000000492200000000000000000000000000000000000000000000004                                                 
