120180604PAGO FACIL               090060246MARITIMO SRL                                                                         
320180604000001MARITIMO SRL                                                                                                     
50000110201806012018060400878736080290       PES0000192500A216492018060111260025                                                
6024600192500181580087873608029000132000158                                                                                     
7PESE                                                                                000000000192500                            
50000210201806012018060400878736399360       PES0000192500A127792018060110010033                                                
6024600192500181580087873639936000132000142                                                                                     
7PESE                                                                                000000000192500                            
50000310201806012018060400878741472059       PES0000192500A206052018060109090029                                                
6024600192500181580087874147205900132000142                                                                                     
7PESE                                                                                000000000192500                            
50000410201806012018060482191331772483       PES0000052500A159692018060111110018                                                
6024600052500181548219133177248300000000000                                                                                     
7PESE                                                                                000000000052500                            
50000510201806012018060482190820482285       PES0000052500A159692018060111110017                                                
6024600048200181478219082048228500043007516                                                                                     
7PESE                                                                                000000000052500                            
50000610201806012018060482191620755933       PES0000052500A159692018060111090016                                                
6024600052500181548219162075593300000000000                                                                                     
7PESE                                                                                000000000052500                            
82018060400000100000060000007350000000000000000000000000000000000000000000006                                                   
9201806040000010000006000000735000000000000000000000000000000000000000000000006                                                 
