120180405PAGO FACIL               090060246MARITIMO SRL                                                                         
320180405000001MARITIMO SRL                                                                                                     
50000110201804042018040500858536948484       PES0000192500D000282018040416090051                                                
6024600192500180970085853694848400132000484                                                                                     
7PESE                                                                                000000000192500                            
50000210201804042018040500858541472059       PES0000192500A206052018040408190006                                                
6024600192500180970085854147205900132000342                                                                                     
7PESE                                                                                000000000192500                            
82018040500000100000020000003850000000000000000000000000000000000000000000002                                                   
9201804050000010000002000000385000000000000000000000000000000000000000000000002                                                 
