120180202PAGO FACIL               090060246MARITIMO SRL                                                                         
320180202000001MARITIMO SRL                                                                                                     
50000110201802012018020200838330980449       PES0000192500A150232018020111320079                                                
6024600192500180380083833098044900132000184                                                                                     
7PESE                                                                                000000000192500                            
82018020200000100000010000001925000000000000000000000000000000000000000000001                                                   
9201802020000010000001000000192500000000000000000000000000000000000000000000001                                                 
