120170601PAGO FACIL               090060246MARITIMO SRL                                                                         
320170601000001MARITIMO SRL                                                                                                     
50000110201705312017060124010234728298       PES0000035000A177772017053017000016                                                
6024600035000171512401023472829800000000037                                                                                     
7PESE                                                                                000000000035000                            
50000210201705312017060124010329764876       PES0000035000A056902017053111350059                                                
6024600035000171512401032976487600000000000                                                                                     
7PESE                                                                                000000000035000                            
50000310201705312017060124010332530304       PES0000035000A187942017053109480008                                                
6024600035000171512401033253030400000000090                                                                                     
7PESE                                                                                000000000035000                            
50000410201705312017060124010428274124       PES0000035000D007542017053119450280                                                
6024600035000171512401042827412400000000099                                                                                     
7PESE                                                                                000000000035000                            
50000510201705312017060124010622362277       PES0000035000A128972017053109170001                                                
6024600035000171512401062236227700000000084                                                                                     
7PESE                                                                                000000000035000                            
50000610201705312017060124011337803082       PES0000035000A056902017053112140096                                                
6024600035000171512401133780308200000000042                                                                                     
7PESE                                                                                000000000035000                            
50000710201705312017060124011817450171       PES0000035000D005392017053113240045                                                
6024600035000171512401181745017100000000063                                                                                     
7PESE                                                                                000000000035000                            
50000810201705312017060124011914495849       PES0000035000D005392017053113240046                                                
6024600035000171512401191449584900000000000                                                                                     
7PESE                                                                                000000000035000                            
50000910201705312017060188080100000000       PES0000045000A136752017053110050030                                                
6024600045000171568808010000000000060000084                                                                                     
7PESE                                                                                000000000045000                            
50001010201705312017060188080141559269       PES0000045000D007722017053112480087                                                
6024600045000171578808014155926900060000036                                                                                     
7PESE                                                                                000000000045000                            
50001110201705312017060188080100000000       PES0000045000D007732017053112410105                                                
6024600045000171588808010000000000060000078                                                                                     
7PESE                                                                                000000000045000                            
50001210201705312017060188080100000000       PES0000045000A169312017053111460070                                                
6024600045000171588808010000000000060000078                                                                                     
7PESE                                                                                000000000045000                            
50001310201705312017060124012532618001       PES0000070000A161392017053116310123                                                
6024600070000171512401253261800100000000021                                                                                     
7PESE                                                                                000000000070000                            
50001410201705312017060124013333575612       PES0000070000A201462017053113080040                                                
6024600070000171512401333357561200000000079                                                                                     
7PESE                                                                                000000000070000                            
50001510201705312017060124013524021403       PES0000070000A044382017053117570044                                                
6024600070000171512401352402140300000000016                                                                                     
7PESE                                                                                000000000070000                            
50001610201705312017060124013527146602       PES0000070000A173232017053113130096                                                
6024600070000171512401352714660200000000058                                                                                     
7PESE                                                                                000000000070000                            
50001710201705312017060100888840540364       PES0000117000A113672017053118150055                                                
6024600117000171580088884054036400000000021                                                                                     
7PESE                                                                                000000000117000                            
50001810201705312017060100606040922757       PES0000140000A028472017053112590017                                                
6024600140000171570060604092275700095000036                                                                                     
7PESE                                                                                000000000140000                            
50001910201705312017060100757536080290       PES0000175000D007732017053112290096                                                
6024600175000171580075753608029000120000015                                                                                     
7PESE                                                                                000000000175000                            
50002010201705312017060100757536399360       PES0000175000A127792017053113310003                                                
6024600175000171580075753639936000120000090                                                                                     
7PESE                                                                                000000000175000                            
82017060100000100000200000013470000000000000000000000000000000000000000000020                                                   
9201706010000010000020000001347000000000000000000000000000000000000000000000020                                                 
