120170404PAGO FACIL               090060246MARITIMO SRL                                                                         
320170404000001MARITIMO SRL                                                                                                     
50000110201704032017040479101533710594       PES0000034500A171162017040311500026                                                
6024600034500170957910153371059400000000021                                                                                     
7PESE                                                                                000000000034500                            
50000210201704032017040482140812731640       PES0000049000A086972017040311330012                                                
6024600046000170908214081273164000030007463                                                                                     
7PESE                                                                                000000000049000                            
50000310201704032017040482140413935983       PES0000049000A188902017040312440088                                                
6024600049000170958214041393598300000000016                                                                                     
7PESE                                                                                000000000049000                            
50000410201704032017040482140523343359       PES0000049000L260012017040321563148                                                
6024600049000170958214052334335900000000079                                                                                     
7PESE                                                                                000000000049000                            
50000510201704032017040482140792562084       PES0000049000D004422017040316530093                                                
6024600049000170958214079256208400000000058                                                                                     
7PESE                                                                                000000000049000                            
50000610201704032017040400585832093887       PES0000140000A143792017040317440037                                                
6024600140000170960058583209388700095000036                                                                                     
7PESE                                                                                000000000140000                            
82017040400000100000060000003705000000000000000000000000000000000000000000006                                                   
9201704040000010000006000000370500000000000000000000000000000000000000000000006                                                 
