120171003PAGO FACIL               090060246MARITIMO SRL                                                                         
320171003000001MARITIMO SRL                                                                                                     
50000110201710022017100300979741914433       PES0000123500A159252017100210510132                                                
6024600123500172770097974191443300000000036                                                                                     
7PESE                                                                                000000000123500                            
50000210201710022017100300979742111158       PES0000123500A114982017100216480043                                                
6024600123500172770097974211115800000000078                                                                                     
7PESE                                                                                000000000123500                            
50000310201710022017100300969640540364       PES0000123500A127062017100219000002                                                
6024600123500172820096964054036400000000021                                                                                     
7PESE                                                                                000000000123500                            
50000410201710022017100379121012151852       PES0000145000A083542017100217310037                                                
6024600145000172797912101215185200265000390                                                                                     
7PESE                                                                                000000000145000                            
50000510201710022017100379121734269807       PES0000145000A083542017100217310038                                                
6024600145000172797912173426980700265000300                                                                                     
7PESE                                                                                000000000145000                            
50000610201710022017100300797939000543       PES0000175000A080692017100215430009                                                
6024600175000172800079793900054300120000163                                                                                     
7PESE                                                                                000000000175000                            
50000710201710022017100300797941914433       PES0000175000A159252017100210500131                                                
6024600175000172800079794191443300120000184                                                                                     
7PESE                                                                                000000000175000                            
50000810201710022017100300787835266508       PES0000200000A132792017100211110022                                                
6024600200000172730078783526650800000000021                                                                                     
7PESE                                                                                000000000200000                            
82017100300000100000080000012105000000000000000000000000000000000000000000008                                                   
9201710030000010000008000001210500000000000000000000000000000000000000000000008                                                 
