120180803PAGO FACIL               090060246MARITIMO SRL                                                                         
320180803000001MARITIMO SRL                                                                                                     
50000110201808022018080376050432091447       PES0000025000A202742018080217430083                                                
6024600025000182217605043209144700000000016                                                                                     
7PESE                                                                                000000000025000                            
50000210201808022018080376050913908389       PES0000025000D004332018080216180072                                                
6024600025000182217605091390838900000000037                                                                                     
7PESE                                                                                000000000025000                            
82018080300000100000020000000500000000000000000000000000000000000000000000002                                                   
9201808030000010000002000000050000000000000000000000000000000000000000000000002                                                 
