120180208PAGO FACIL               090060246MARITIMO SRL                                                                         
320180208000001MARITIMO SRL                                                                                                     
50000110201802072018020800838335069112       PES0000192500A220722018020716290030                                                
6024600192500180380083833506911200132000790                                                                                     
7PESE                                                                                000000000192500                            
50000210201802072018020800838337431239       PES0000192500A043162018020714090067                                                
6024600192500180380083833743123900132000600                                                                                     
7PESE                                                                                000000000192500                            
50000310201802072018020800838338069919       PES0000192500A076262018020710570102                                                
6024600192500180380083833806991900132000763                                                                                     
7PESE                                                                                000000000192500                            
50000410201802072018020800838338992653       PES0000192500A175112018020717080023                                                
6024600192500180380083833899265300132000700                                                                                     
7PESE                                                                                000000000192500                            
50000510201802072018020800838339910732       PES0000192500A115802018020711580031                                                
6024600192500180380083833991073200132000500                                                                                     
7PESE                                                                                000000000192500                            
50000610201802072018020800838340239608       PES0000192500D005372018020715290011                                                
6024600192500180380083834023960800132000557                                                                                     
7PESE                                                                                000000000192500                            
50000710201802072018020800838340729235       PES0000192500A145662018020716380054                                                
6024600192500180380083834072923500132000621                                                                                     
7PESE                                                                                000000000192500                            
82018020800000100000070000013475000000000000000000000000000000000000000000007                                                   
9201802080000010000007000001347500000000000000000000000000000000000000000000007                                                 
