120181001PAGO FACIL               090060246MARITIMO SRL                                                                         
320181001000001MARITIMO SRL                                                                                                     
50000110201809282018100110103205671484       PES0000025000D005142018092812020068                                                
6024600025000182771010320567148400000000084                                                                                     
7PESE                                                                                000000000025000                            
50000210201809292018100110100244302874       PES0000025000A172402018092917080053                                                
6024600025000182781010024430287400000000058                                                                                     
7PESE                                                                                000000000025000                            
50000310201809292018100124020792562084       PES0000045000A283072018092918060072                                                
6024600045000182732402079256208400050007599                                                                                     
7PESE                                                                                000000000045000                            
50000410201809292018100124021010780308       PES0000045000D007992018092916460091                                                
6024600045000182732402101078030800050007584                                                                                     
7PESP                                                                                000000000045000                            
82018100100000100000040000001400000000000000000000000000000000000000000000004                                                   
9201810010000010000004000000140000000000000000000000000000000000000000000000004                                                 
