120170704PAGO FACIL               090060246MARITIMO SRL                                                                         
320170704000001MARITIMO SRL                                                                                                     
50000110201707032017070407050820026771       PES0000040000A082982017070312370104                                                
6024600040000171900705082002677100000000042                                                                                     
7PESE                                                                                000000000040000                            
50000210201707032017070400898939466871       PES0000117000A124962017070312180075                                                
6024600117000171870089893946687100000000037                                                                                     
7PESE                                                                                000000000117000                            
50000310201707032017070400767636288968       PES0000175000A160722017070312120089                                                
6024600175000171880076763628896800120000378                                                                                     
7PESE                                                                                000000000175000                            
50000410201707032017070400767637248328       PES0000175000D004732017070316190199                                                
6024600175000171880076763724832800120000384                                                                                     
7PESE                                                                                000000000175000                            
50000510201707032017070400767641914433       PES0000175000A147722017070317230080                                                
6024600175000171880076764191443300120000100                                                                                     
7PESE                                                                                000000000175000                            
82017070400000100000050000006820000000000000000000000000000000000000000000005                                                   
9201707040000010000005000000682000000000000000000000000000000000000000000000005                                                 
