120180305PAGO FACIL               090060246MARITIMO SRL                                                                         
320180305000001MARITIMO SRL                                                                                                     
50000110201803022018030500848441472059       PES0000192500A206052018030208140002                                                
6024600192500180660084844147205900132000158                                                                                     
7PESE                                                                                000000000192500                            
50000210201803022018030500848440954967       PES0000192500A226952018030217530027                                                
6024600192500180660084844095496700132000179                                                                                     
7PESE                                                                                000000000192500                            
50000310201803032018030510093830340373       PES0000065000A215722018030308350003                                                
6024600060000180591009383034037300050007800                                                                                     
7PESE                                                                                000000000065000                            
50000410201803032018030500848441894632       PES0000192500A048292018030313200061                                                
6024600192500180660084844189463200132000378                                                                                     
7PESE                                                                                000000000192500                            
50000510201803032018030500848441914433       PES0000192500D002192018030311450225                                                
6024600192500180660084844191443300132000157                                                                                     
7PESE                                                                                000000000192500                            
82018030500000100000050000008350000000000000000000000000000000000000000000005                                                   
9201803050000010000005000000835000000000000000000000000000000000000000000000005                                                 
