120181003PAGO FACIL               090060246MARITIMO SRL                                                                         
320181003000001MARITIMO SRL                                                                                                     
50000110201810022018100310102926114334       PES0000025000A086812018100218520009                                                
6024600025000182811010292611433400000000084                                                                                     
7PESE                                                                                000000000025000                            
50000210201810022018100310100434330065       PES0000025000A112382018100211390075                                                
6024600025000182821010043433006500000000099                                                                                     
7PESE                                                                                000000000025000                            
50000310201810022018100301131140045224       PES0000150000D002312018100217250199                                                
6024600150000182820113114004522400000000090                                                                                     
7PESE                                                                                000000000150000                            
50000410201810022018100301021040045224       PES0000276303D002312018100217250197                                                
6024600276303182820102104004522400000360036                                                                                     
7PESE                                                                                000000000276303                            
82018100300000100000040000004763030000000000000000000000000000000000000000004                                                   
9201810030000010000004000000476303000000000000000000000000000000000000000000004                                                 
