120181008PAGO FACIL               090060246MARITIMO SRL                                                                         
320181008000001MARITIMO SRL                                                                                                     
50000110201810052018100810102729904360       PES0000025000A284412018100514430050                                                
6024600025000182781010272990436000000000084                                                                                     
7PESE                                                                                000000000025000                            
50000210201810062018100801041037234551       PES0000240000A287002018100610190029                                                
6024600240000182800104103723455100120000615                                                                                     
7PESE                                                                                000000000240000                            
82018100800000100000020000002650000000000000000000000000000000000000000000002                                                   
9201810080000010000002000000265000000000000000000000000000000000000000000000002                                                 
