120180702PAGO FACIL               090060246MARITIMO SRL                                                                         
320180702000001MARITIMO SRL                                                                                                     
50000110201807012018070201141142014134       PES0000150000A206312018070111440046                                                
6024600150000181870114114201413400000000099                                                                                     
7PESE                                                                                000000000150000                            
82018070200000100000010000001500000000000000000000000000000000000000000000001                                                   
9201807020000010000001000000150000000000000000000000000000000000000000000000001                                                 
