120171204PAGO FACIL               090060246MARITIMO SRL                                                                         
320171204000001MARITIMO SRL                                                                                                     
50000110201712012017120400808041668826       PES0000200000A090072017120116050058                                                
6024600200000173420080804166882600000000099                                                                                     
7PESE                                                                                000000000200000                            
50000210201712012017120400808042111158       PES0000200000A114982017120116590085                                                
6024600200000173420080804211115800000000078                                                                                     
7PESE                                                                                000000000200000                            
50000310201712012017120400818141765804       PES0000175000A126252017120117070075                                                
6024600175000173410081814176580400120000199                                                                                     
7PESE                                                                                000000000175000                            
50000410201712022017120400797931234805       PES0000200000A136362017120217030099                                                
6024600200000173420079793123480500000000000                                                                                     
7PESE                                                                                000000000200000                            
82017120400000100000040000007750000000000000000000000000000000000000000000004                                                   
9201712040000010000004000000775000000000000000000000000000000000000000000000004                                                 
