120180306PAGO FACIL               090060246MARITIMO SRL                                                                         
320180306000001MARITIMO SRL                                                                                                     
50000110201803052018030610090244302874       PES0000055000A172402018030516530028                                                
6024600055000180701009024430287400000000021                                                                                     
7PESE                                                                                000000000055000                            
50000210201803052018030600848430980449       PES0000192500A150242018030511350066                                                
6024600192500180660084843098044900132000515                                                                                     
7PESE                                                                                000000000192500                            
82018030600000100000020000002475000000000000000000000000000000000000000000002                                                   
9201803060000010000002000000247500000000000000000000000000000000000000000000002                                                 
