120180802PAGO FACIL               090060246MARITIMO SRL                                                                         
320180802000001MARITIMO SRL                                                                                                     
50000110201808012018080282201013208446       PES0000053500D007922018080119260221                                                
6024600053500182138220101320844600000000037                                                                                     
7PESE                                                                                000000000053500                            
82018080200000100000010000000535000000000000000000000000000000000000000000001                                                   
9201808020000010000001000000053500000000000000000000000000000000000000000000001                                                 
