120170602PAGO FACIL               090060246MARITIMO SRL                                                                         
320170602000001MARITIMO SRL                                                                                                     
50000110201706012017060299250337838109       PES0000030000A130932017060117210006                                                
6024600030000171569925033783810900000000063                                                                                     
7PESE                                                                                000000000030000                            
50000210201706012017060288080131071560       PES0000045000A136752017060116570011                                                
6024600045000171568808013107156000060000058                                                                                     
7PESE                                                                                000000000045000                            
50000310201706012017060288080136530225       PES0000045000A149722017060112540025                                                
6024600045000171588808013653022500060000042                                                                                     
7PESE                                                                                000000000045000                            
50000410201706012017060288080139468337       PES0000045000A138382017060110340088                                                
6024600045000171588808013946833700060000021                                                                                     
7PESE                                                                                000000000045000                            
50000510201706012017060288080125100447       PES0000045000A174982017060114410082                                                
6024600045000171598808012510044700060000042                                                                                     
7PESE                                                                                000000000045000                            
50000610201706012017060200595938358608       PES0000158000A089982017060110530083                                                
6024600158000171590059593835860800000000021                                                                                     
7PESE                                                                                000000000158000                            
50000710201706012017060200757530105518       PES0000175000D001742017060119220191                                                
6024600175000171580075753010551800120000184                                                                                     
7PESE                                                                                000000000175000                            
50000810201706012017060200757541914433       PES0000175000A147722017060115080065                                                
6024600175000171580075754191443300120000136                                                                                     
7PESE                                                                                000000000175000                            
82017060200000100000080000007180000000000000000000000000000000000000000000008                                                   
9201706020000010000008000000718000000000000000000000000000000000000000000000008                                                 
