120171103PAGO FACIL               090060246MARITIMO SRL                                                                         
320171103000001MARITIMO SRL                                                                                                     
50000110201711022017110306010414884385       PES0000020000A148882017110211520051                                                
6024600020000173090601041488438500000000099                                                                                     
7PESE                                                                                000000000020000                            
50000210201711022017110306010337196916       PES0000020000A169462017110214340034                                                
6024600020000173110601033719691600000000021                                                                                     
7PESE                                                                                000000000020000                            
50000310201711022017110306010435754082       PES0000020000A169462017110214340035                                                
6024600020000173110601043575408200000000084                                                                                     
7PESE                                                                                000000000020000                            
50000410201711022017110300808041615094       PES0000175000A177772017110218200055                                                
6024600175000173110080804161509400120000284                                                                                     
7PESE                                                                                000000000175000                            
82017110300000100000040000002350000000000000000000000000000000000000000000004                                                   
9201711030000010000004000000235000000000000000000000000000000000000000000000004                                                 
