120171109PAGO FACIL               090060246MARITIMO SRL                                                                         
320171109000001MARITIMO SRL                                                                                                     
50000110201711082017110906010320892615       PES0000020000A180602017110812510088                                                
6024600020000173120601032089261500000000021                                                                                     
7PESE                                                                                000000000020000                            
50000210201711082017110906010394884821       PES0000020000A180602017110812510086                                                
6024600020000173140601039488482100000000099                                                                                     
7PESE                                                                                000000000020000                            
50000310201711082017110906010424288860       PES0000020000A180602017110812500085                                                
6024600020000173140601042428886000000000058                                                                                     
7PESE                                                                                000000000020000                            
50000410201711082017110906010425116461       PES0000020000A180602017110812510087                                                
6024600020000173140601042511646100000000084                                                                                     
7PESE                                                                                000000000020000                            
50000510201711082017110906010141151617       PES0000030000A206142017110815590020                                                
6024600030000173140601014115161700000000021                                                                                     
7PESE                                                                                000000000030000                            
82017110900000100000050000001100000000000000000000000000000000000000000000005                                                   
9201711090000010000005000000110000000000000000000000000000000000000000000000005                                                 
