120170703PAGO FACIL               090060246MARITIMO SRL                                                                         
320170703000001MARITIMO SRL                                                                                                     
50000110201706302017070376040600000000       PES0000015000A162872017063011540082                                                
6024600015000171817604060000000000050007736                                                                                     
7PESE                                                                                000000000015000                            
50000210201706302017070300757539466871       PES0000200000A124962017063011490018                                                
6024600200000171810075753946687100000000015                                                                                     
7PESE                                                                                000000000200000                            
50000310201706302017070300757540514756       PES0000200000A028472017063017500066                                                
6024600200000171810075754051475600000000015                                                                                     
7PESE                                                                                000000000200000                            
50000410201706302017070300767641968115       PES0000175000A010892017063016490023                                                
6024600175000171880076764196811500120000021                                                                                     
7PESE                                                                                000000000175000                            
50000510201706302017070300747437010193       PES0000200000D007992017063009310040                                                
6024600200000171880074743701019300000000037                                                                                     
7PESE                                                                                000000000200000                            
50000610201706302017070300888833993863       PES0000117000L191922017063018313206                                                
6024600117000171880088883399386300000000021                                                                                     
7PESE                                                                                000000000117000                            
50000710201706302017070300757533993863       PES0000200000L191922017063018313207                                                
6024600200000171810075753399386300000000021                                                                                     
7PESE                                                                                000000000200000                            
50000810201707012017070300888838992653       PES0000117000A175112017063018290126                                                
6024600117000171880088883899265300000000000                                                                                     
7PESE                                                                                000000000117000                            
82017070300000100000080000012240000000000000000000000000000000000000000000008                                                   
9201707030000010000008000001224000000000000000000000000000000000000000000000008                                                 
