120180406PAGO FACIL               090060246MARITIMO SRL                                                                         
320180406000001MARITIMO SRL                                                                                                     
50000110201804052018040600858536737490       PES0000192500A172442018040514470003                                                
6024600192500180970085853673749000132000542                                                                                     
7PESE                                                                                000000000192500                            
50000210201804052018040600858541037280       PES0000192500A094782018040511350017                                                
6024600192500180970085854103728000132000400                                                                                     
7PESE                                                                                000000000192500                            
50000310201804052018040600858541894632       PES0000192500A101132018040520350026                                                
6024600192500180970085854189463200132000563                                                                                     
7PESE                                                                                000000000192500                            
82018040600000100000030000005775000000000000000000000000000000000000000000003                                                   
9201804060000010000003000000577500000000000000000000000000000000000000000000003                                                 
