120170406PAGO FACIL               090060246MARITIMO SRL                                                                         
320170406000001MARITIMO SRL                                                                                                     
50000110201704052017040682141720745968       PES0000049000D002332017040520040372                                                
6024600049000170958214172074596800000000090                                                                                     
7PESE                                                                                000000000049000                            
50000210201704052017040682141720788213       PES0000049000D002332017040520040373                                                
6024600049000170958214172078821300000000084                                                                                     
7PESE                                                                                000000000049000                            
50000310201704052017040600585828640885       PES0000140000A114982017040510280091                                                
6024600140000170970058582864088500095000158                                                                                     
7PESE                                                                                000000000140000                            
50000410201704052017040600585835984343       PES0000140000D002312017040509500049                                                
6024600140000170970058583598434300095000379                                                                                     
7PESE                                                                                000000000140000                            
50000510201704052017040600585838056001       PES0000140000A132792017040516020043                                                
6024600140000170970058583805600100095000463                                                                                     
7PESE                                                                                000000000140000                            
50000610201704052017040600585841352567       PES0000140000A090072017040510250039                                                
6024600140000170970058584135256700095000457                                                                                     
7PESE                                                                                000000000140000                            
50000710201704052017040600737329248146       PES0000175000A084922017040517300098                                                
6024600175000170970073732924814600120000558                                                                                     
7PESE                                                                                000000000175000                            
50000810201704052017040600737330105518       PES0000175000D001742017040519220332                                                
6024600175000170970073733010551800120000557                                                                                     
7PESE                                                                                000000000175000                            
50000910201704052017040600737330980449       PES0000175000A077392017040518330079                                                
6024600175000170970073733098044900120000521                                                                                     
7PESE                                                                                000000000175000                            
50001010201704052017040600737334058134       PES0000175000A180602017040517050091                                                
6024600175000170970073733405813400120000590                                                                                     
7PESE                                                                                000000000175000                            
50001110201704052017040600737338027942       PES0000175000D001722017040516100423                                                
6024600175000170970073733802794200120000599                                                                                     
7PESE                                                                                000000000175000                            
50001210201704052017040600737338069919       PES0000175000A077392017040517390015                                                
6024600175000170970073733806991900120000599                                                                                     
7PESE                                                                                000000000175000                            
50001310201704052017040600737338890969       PES0000175000D002822017040518470625                                                
6024600175000170970073733889096900120000542                                                                                     
7PESE                                                                                000000000175000                            
50001410201704052017040600737340389310       PES0000175000A160782017040513310021                                                
6024600175000170970073734038931000120000563                                                                                     
7PESE                                                                                000000000175000                            
50001510201704052017040600737340540364       PES0000175000A180022017040511440040                                                
6024600175000170970073734054036400120000421                                                                                     
7PESE                                                                                000000000175000                            
50001610201704052017040600737341835125       PES0000175000A009932017040516470037                                                
6024600175000170970073734183512500120000437                                                                                     
7PESE                                                                                000000000175000                            
50001710201704052017040600737341914433       PES0000175000A172442017040515410041                                                
6024600175000170970073734191443300120000463                                                                                     
7PESE                                                                                000000000175000                            
82017040600000100000170000025830000000000000000000000000000000000000000000017                                                   
9201704060000010000017000002583000000000000000000000000000000000000000000000017                                                 
