120180308PAGO FACIL               090060246MARITIMO SRL                                                                         
320180308000001MARITIMO SRL                                                                                                     
50000110201803072018030810090820569550       PES0000055000A132792018030715200067                                                
6024600055000180731009082056955000000000016                                                                                     
7PESE                                                                                000000000055000                            
50000210201803072018030800848434058134       PES0000192500D004732018030710530148                                                
6024600192500180660084843405813400132000758                                                                                     
7PESE                                                                                000000000192500                            
50000310201803072018030800848435802269       PES0000192500D009152018030713140197                                                
6024600192500180660084843580226900132000700                                                                                     
7PESE                                                                                000000000192500                            
50000410201803072018030800848438890969       PES0000192500A255082018030712140063                                                
6024600192500180660084843889096900132000700                                                                                     
7PESE                                                                                000000000192500                            
50000510201803072018030800848438992653       PES0000192500A175112018030717350011                                                
6024600192500180660084843899265300132000799                                                                                     
7PESE                                                                                000000000192500                            
50000610201803072018030800848440863717       PES0000192500A173282018030716380006                                                
6024600192500180660084844086371700132000221                                                                                     
7PESE                                                                                000000000192500                            
82018030800000100000060000010175000000000000000000000000000000000000000000006                                                   
9201803080000010000006000001017500000000000000000000000000000000000000000000006                                                 
