120180607PAGO FACIL               090060246MARITIMO SRL                                                                         
320180607000001MARITIMO SRL                                                                                                     
50000110201806062018060700878739910732       PES0000192500A099982018060612480040                                                
6024600192500181580087873991073200132000442                                                                                     
7PESE                                                                                000000000192500                            
82018060700000100000010000001925000000000000000000000000000000000000000000001                                                   
9201806070000010000001000000192500000000000000000000000000000000000000000000001                                                 
