120180704PAGO FACIL               090060246MARITIMO SRL                                                                         
320180704000001MARITIMO SRL                                                                                                     
50000110201807032018070476050723265616       PES0000020000A602192018070310200047                                                
6024600020000181907605072326561600050000099                                                                                     
7PESE                                                                                000000000020000                            
50000210201807032018070402645732271312       PES0000106500A126232018070313060048                                                
6024600106500181860264573227131200000000079                                                                                     
7PESE                                                                                000000000106500                            
82018070400000100000020000001265000000000000000000000000000000000000000000002                                                   
9201807040000010000002000000126500000000000000000000000000000000000000000000002                                                 
