120170403PAGO FACIL               090060246MARITIMO SRL                                                                         
320170403000001MARITIMO SRL                                                                                                     
50000110201703312017040318501024628411       PES0000120000A097442017033112090157                                                
6024600120000170911850102462841100000000042                                                                                     
7PESE                                                                                000000000120000                            
50000210201703312017040382140814309480       PES0000046000A151562017033112400071                                                
6024600046000170908214081430948000030007163                                                                                     
7PESE                                                                                000000000046000                            
50000310201703312017040382140331751678       PES0000046000A151562017033112400072                                                
6024600046000170908214033175167800030007157                                                                                     
7PESE                                                                                000000000046000                            
50000410201703312017040382141334778723       PES0000046000A151562017033112410073                                                
6024600046000170908214133477872300030007142                                                                                     
7PESE                                                                                000000000046000                            
50000510201703312017040318501313236005       PES0000120000A163032017033113210017                                                
6024600120000170911850131323600500000000037                                                                                     
7PESE                                                                                000000000120000                            
50000610201703312017040382141722202095       PES0000046000A097432017033113510101                                                
6024600046000170908214172220209500030007400                                                                                     
7PESE                                                                                000000000046000                            
50000710201703312017040318501194235079       PES0000120000A112942017033117350085                                                
6024600120000170911850119423507900000000084                                                                                     
7PESE                                                                                000000000120000                            
50000810201703312017040318500394415422       PES0000120000A097432017033116230084                                                
6024600120000170911850039441542200000000021                                                                                     
7PESE                                                                                000000000120000                            
50000910201703312017040318502329751729       PES0000100000D000072017033110440113                                                
6024600100000170911850232975172900000000084                                                                                     
7PESE                                                                                000000000100000                            
50001010201703312017040382140234834739       PES0000046000A169932017033114440053                                                
6024600046000170908214023483473900030007279                                                                                     
7PESE                                                                                000000000046000                            
50001110201703312017040382140330214107       PES0000046000A124222017033117540064                                                
6024600046000170908214033021410700030007484                                                                                     
7PESE                                                                                000000000046000                            
50001210201703312017040382140330006923       PES0000046000A124222017033117540065                                                
6024600046000170908214033000692300030007499                                                                                     
7PESE                                                                                000000000046000                            
50001310201703312017040382140330922779       PES0000046000A088822017033118090007                                                
6024600046000170908214033092277900030007478                                                                                     
7PESE                                                                                000000000046000                            
50001410201703312017040382141334750870       PES0000046000A088822017033119030054                                                
6024600046000170908214133475087000030007463                                                                                     
7PESE                                                                                000000000046000                            
50001510201703312017040382142723265554       PES0000034000A088822017033119510079                                                
6024600034000170908214272326555400030007436                                                                                     
7PESE                                                                                000000000034000                            
50001610201703312017040382141720800602       PES0000046000D004172017033119370145                                                
6024600046000170908214172080060200030007358                                                                                     
7PESE                                                                                000000000046000                            
50001710201704012017040300606037217818       PES0000140000A133342017040110030001                                                
6024600140000170970060603721781800095000084                                                                                     
7PESE                                                                                000000000140000                            
50001810201704012017040379100431784205       PES0000042000A152722017040112240063                                                
6024600042000170917910043178420500070000478                                                                                     
7PESE                                                                                000000000042000                            
82017040300000100000180000012560000000000000000000000000000000000000000000018                                                   
9201704030000010000018000001256000000000000000000000000000000000000000000000018                                                 
