120171107PAGO FACIL               090060246MARITIMO SRL                                                                         
320171107000001MARITIMO SRL                                                                                                     
50000110201711062017110706010339556113       PES0000020000A029772017110611180159                                                
6024600020000173080601033955611300000000021                                                                                     
7PESE                                                                                000000000020000                            
50000210201711062017110706010442312626       PES0000020000A029772017110611180158                                                
6024600020000173080601044231262600000000015                                                                                     
7PESE                                                                                000000000020000                            
50000310201711062017110706010427113811       PES0000020000A093212017110617400094                                                
6024600020000173120601042711381100000000084                                                                                     
7PESE                                                                                000000000020000                            
50000410201711062017110706010421542643       PES0000020000D007932017110619320130                                                
6024600020000173130601042154264300000000063                                                                                     
7PESE                                                                                000000000020000                            
50000510201711062017110710070242457638       PES0000045000A109552017110619280018                                                
6024600045000173171007024245763800000000037                                                                                     
7PESE                                                                                000000000045000                            
50000610201711062017110700909029248146       PES0000117000A159742017110616180071                                                
6024600117000173170090902924814600000000084                                                                                     
7PESE                                                                                000000000117000                            
50000710201711062017110700808034058134       PES0000175000A180612017110617470077                                                
6024600175000173100080803405813400120000042                                                                                     
7PESE                                                                                000000000175000                            
50000810201711062017110700808035405941       PES0000175000A198772017110618050064                                                
6024600175000173110080803540594100120000678                                                                                     
7PESE                                                                                000000000175000                            
50000910201711062017110700808038992653       PES0000175000D002092017110614100348                                                
6024600175000173110080803899265300120000636                                                                                     
7PESE                                                                                000000000175000                            
50001010201711062017110700808039910732       PES0000175000D000512017110615060323                                                
6024600175000173110080803991073200120000258                                                                                     
7PESE                                                                                000000000175000                            
50001110201711062017110700808040729235       PES0000175000A189122017110617070012                                                
6024600175000173110080804072923500120000384                                                                                     
7PESE                                                                                000000000175000                            
50001210201711062017110700808041472059       PES0000175000A206052017110608320002                                                
6024600175000173110080804147205900120000136                                                                                     
7PESE                                                                                000000000175000                            
50001310201711062017110700808041894632       PES0000175000A101132017110619370032                                                
6024600175000173110080804189463200120000657                                                                                     
7PESE                                                                                000000000175000                            
50001410201711062017110700808041968115       PES0000175000A010892017110618480001                                                
6024600175000173110080804196811500120000657                                                                                     
7PESE                                                                                000000000175000                            
50001510201711062017110700787835123263       PES0000200000A076262017110619030024                                                
6024600200000173170078783512326300000000036                                                                                     
7PESE                                                                                000000000200000                            
50001610201711062017110700797940514756       PES0000200000A028472017110617450032                                                
6024600200000173170079794051475600000000063                                                                                     
7PESE                                                                                000000000200000                            
82017110700000100000160000020420000000000000000000000000000000000000000000016                                                   
9201711070000010000016000002042000000000000000000000000000000000000000000000016                                                 
