120180104PAGO FACIL               090060246MARITIMO SRL                                                                         
320180104000001MARITIMO SRL                                                                                                     
50000110201801032018010482180528421231       PES0000042500A226972018010315090010                                                
6024600042500180108218052842123100000000078                                                                                     
7PESE                                                                                000000000042500                            
50000210201801032018010482180625661433       PES0000042500A188632018010313540047                                                
6024600042500180108218062566143300000000036                                                                                     
7PESE                                                                                000000000042500                            
50000310201801032018010410082535756694       PES0000060000D004452018010317540064                                                
6024600060000180031008253575669400000000058                                                                                     
7PESE                                                                                000000000060000                            
50000410201801032018010410083636288406       PES0000060000D004452018010317540063                                                
6024600060000180031008363628840600000000037                                                                                     
7PESE                                                                                000000000060000                            
50000510201801032018010410083728892052       PES0000060000A097452018010311120018                                                
6024600060000180071008372889205200000000090                                                                                     
7PESE                                                                                000000000060000                            
50000610201801032018010485040637229430       PES0000093000A601902018010309180001                                                
6024600093000180048504063722943000000000057                                                                                     
7PESE                                                                                000000000093000                            
50000710201801032018010485041310659751       PES0000093000A173712018010313170039                                                
6024600093000180048504131065975100000000036                                                                                     
7PESE                                                                                000000000093000                            
50000810201801032018010485042229307264       PES0000093000A109842018010311520005                                                
6024600093000180048504222930726400000000084                                                                                     
7PESE                                                                                000000000093000                            
50000910201801032018010485044323692682       PES0000113700A214352018010316480012                                                
6024600113700180048504432369268200000000079                                                                                     
7PESE                                                                                000000000113700                            
50001010201801032018010485044518483011       PES0000113700A207492018010313160036                                                
6024600113700180048504451848301100000000090                                                                                     
7PESE                                                                                000000000113700                            
50001110201801032018010485045723856508       PES0000113700A109842018010316360083                                                
6024600113700180048504572385650800000000042                                                                                     
7PESE                                                                                000000000113700                            
50001210201801032018010485046426846200       PES0000113700H002102018010310430496                                                
6024600113700180048504642684620000000000063                                                                                     
7PESE                                                                                000000000113700                            
50001310201801032018010400828238992653       PES0000175000A175112018010312350036                                                
6024600175000180070082823899265300120000037                                                                                     
7PESE                                                                                000000000175000                            
50001410201801032018010400828239000543       PES0000175000A080692018010315000019                                                
6024600175000180070082823900054300120000099                                                                                     
7PESE                                                                                000000000175000                            
82018010400000100000140000013488000000000000000000000000000000000000000000014                                                   
9201801040000010000014000001348800000000000000000000000000000000000000000000014                                                 
