120170908PAGO FACIL               090060246MARITIMO SRL                                                                         
320170908000001MARITIMO SRL                                                                                                     
50000110201709072017090800909030984899       PES0000117000D005272017090720150268                                                
6024600117000172570090903098489900000000058                                                                                     
7PESE                                                                                000000000117000                            
50000210201709072017090800919140540364       PES0000117000A180022017090718000036                                                
6024600117000172570091914054036400000000063                                                                                     
7PESE                                                                                000000000117000                            
50000310201709072017090800969638027942       PES0000123500D007992017090716570071                                                
6024600123500172570096963802794200000000084                                                                                     
7PESE                                                                                000000000123500                            
50000410201709072017090800787830984899       PES0000175000D005272017090720150269                                                
6024600175000172500078783098489900120000736                                                                                     
7PESE                                                                                000000000175000                            
50000510201709072017090800787833813397       PES0000175000D005272017090715180037                                                
6024600175000172500078783381339700120000463                                                                                     
7PESE                                                                                000000000175000                            
50000610201709072017090800787838027942       PES0000175000D007992017090716570072                                                
6024600175000172500078783802794200120000700                                                                                     
7PESE                                                                                000000000175000                            
50000710201709072017090800787839910732       PES0000175000A173822017090712240011                                                
6024600175000172500078783991073200120000542                                                                                     
7PESE                                                                                000000000175000                            
50000810201709072017090800787840514756       PES0000175000A028472017090717210016                                                
6024600175000172500078784051475600120000757                                                                                     
7PESE                                                                                000000000175000                            
50000910201709072017090800787840537317       PES0000175000A197602017090717050020                                                
6024600175000172500078784053731700120000484                                                                                     
7PESE                                                                                000000000175000                            
50001010201709072017090800787840540364       PES0000175000A180022017090718000037                                                
6024600175000172500078784054036400120000778                                                                                     
7PESE                                                                                000000000175000                            
50001110201709072017090800787840729235       PES0000175000A189122017090716520021                                                
6024600175000172500078784072923500120000536                                                                                     
7PESE                                                                                000000000175000                            
50001210201709072017090800787841835125       PES0000175000A009932017090719360100                                                
6024600175000172500078784183512500120000784                                                                                     
7PESE                                                                                000000000175000                            
50001310201709072017090800787841894632       PES0000175000A101132017090719330031                                                
6024600175000172500078784189463200120000463                                                                                     
7PESE                                                                                000000000175000                            
50001410201709072017090800767640389310       PES0000200000A076262017090717240075                                                
6024600200000172560076764038931000000000058                                                                                     
7PESE                                                                                000000000200000                            
82017090800000100000140000023075000000000000000000000000000000000000000000014                                                   
9201709080000010000014000002307500000000000000000000000000000000000000000000014                                                 
