120180307PAGO FACIL               090060246MARITIMO SRL                                                                         
320180307000001MARITIMO SRL                                                                                                     
50000110201803062018030710090918294515       PES0000055000D001622018030615090090                                                
6024600055000180711009091829451500000000090                                                                                     
7PESE                                                                                000000000055000                            
50000210201803062018030700848437038725       PES0000192500A117762018030611440053                                                
6024600192500180660084843703872500132000557                                                                                     
7PESE                                                                                000000000192500                            
50000310201803062018030700848437431239       PES0000192500A043162018030616240049                                                
6024600192500180660084843743123900132000699                                                                                     
7PESE                                                                                000000000192500                            
50000410201803062018030700848439910732       PES0000192500A227012018030615020056                                                
6024600192500180660084843991073200132000284                                                                                     
7PESE                                                                                000000000192500                            
50000510201803062018030700848440729235       PES0000192500A189122018030617370060                                                
6024600192500180660084844072923500132000278                                                                                     
7PESE                                                                                000000000192500                            
50000610201803062018030700848441765804       PES0000192500A133342018030616560065                                                
6024600192500180660084844176580400132000616                                                                                     
7PESE                                                                                000000000192500                            
82018030700000100000060000010175000000000000000000000000000000000000000000006                                                   
9201803070000010000006000001017500000000000000000000000000000000000000000000006                                                 
