120171206PAGO FACIL               090060246MARITIMO SRL                                                                         
320171206000001MARITIMO SRL                                                                                                     
50000110201712052017120600818134058134       PES0000175000A064992017120517430078                                                
6024600175000173410081813405813400120000236                                                                                     
7PESE                                                                                000000000175000                            
50000210201712052017120600818139560669       PES0000175000A032732017120516500039                                                
6024600175000173410081813956066900120000579                                                                                     
7PESE                                                                                000000000175000                            
50000310201712052017120600818140954967       PES0000175000A160342017120510170046                                                
6024600175000173410081814095496700120000563                                                                                     
7PESE                                                                                000000000175000                            
50000410201712052017120600818141472059       PES0000175000A206052017120508590027                                                
6024600175000173410081814147205900120000379                                                                                     
7PESE                                                                                000000000175000                            
82017120600000100000040000007000000000000000000000000000000000000000000000004                                                   
9201712060000010000004000000700000000000000000000000000000000000000000000000004                                                 
