120170508PAGO FACIL               090060246MARITIMO SRL                                                                         
320170508000001MARITIMO SRL                                                                                                     
50000110201705052017050800747426240745       PES0000175000A165572017050511340011                                                
6024600175000171270074742624074500120000190                                                                                     
7PESE                                                                                000000000175000                            
50000210201705052017050800747423377021       PES0000175000A165572017050511360013                                                
6024600175000171270074742337702100120000321                                                                                     
7PESE                                                                                000000000175000                            
50000310201705052017050888080120282296       PES0000045000A601832017050512380099                                                
6024600045000171328808012028229600060000079                                                                                     
7PESE                                                                                000000000045000                            
50000410201705052017050824012634253305       PES0000060000A167472017050515050108                                                
6024600060000171302401263425330500100000000                                                                                     
7PESE                                                                                000000000060000                            
50000510201705052017050800747438991042       PES0000175000A063662017050515400077                                                
6024600175000171270074743899104200120000363                                                                                     
7PESE                                                                                000000000175000                            
50000610201705052017050800747429248146       PES0000175000A077392017050514590024                                                
6024600175000171270074742924814600120000500                                                                                     
7PESE                                                                                000000000175000                            
50000710201705052017050800747429248692       PES0000175000A139132017050512020038                                                
6024600175000171270074742924869200120000337                                                                                     
7PESE                                                                                000000000175000                            
50000810201705052017050800747441765804       PES0000175000A126252017050515550014                                                
6024600175000171270074744176580400120000542                                                                                     
7PESE                                                                                000000000175000                            
50000910201705052017050800747441615094       PES0000175000A152142017050516340018                                                
6024600175000171270074744161509400120000442                                                                                     
7PESE                                                                                000000000175000                            
50001010201705052017050800747439000543       PES0000175000A171682017050514320023                                                
6024600175000171270074743900054300120000236                                                                                     
7PESE                                                                                000000000175000                            
50001110201705052017050800747440394764       PES0000175000A132522017050517080037                                                
6024600175000171270074744039476400120000216                                                                                     
7PESE                                                                                000000000175000                            
50001210201705052017050800747440729235       PES0000175000A073592017050517310004                                                
6024600175000171270074744072923500120000537                                                                                     
7PESE                                                                                000000000175000                            
50001310201705052017050800888840729235       PES0000117000A073592017050517310005                                                
6024600117000171320088884072923500000000016                                                                                     
7PESE                                                                                000000000117000                            
50001410201705052017050800747437273280       PES0000175000A148202017050517260047                                                
6024600175000171270074743727328000120000500                                                                                     
7PESE                                                                                000000000175000                            
50001510201705052017050824013038492719       PES0000060000A073842017050517540050                                                
6024600060000171302401303849271900100000179                                                                                     
7PESE                                                                                000000000060000                            
50001610201705052017050800595935984343       PES0000140000D002322017050511320066                                                
6024600140000171270059593598434300095000463                                                                                     
7PESE                                                                                000000000140000                            
50001710201705052017050800595940513828       PES0000140000D002722017050510390025                                                
6024600140000171270059594051382800095000384                                                                                     
7PESE                                                                                000000000140000                            
50001810201705052017050800747438890969       PES0000175000D002812017050516070304                                                
6024600175000171270074743889096900120000321                                                                                     
7PESE                                                                                000000000175000                            
50001910201705052017050800747438027942       PES0000175000D001732017050520250346                                                
6024600175000171270074743802794200120000378                                                                                     
7PESE                                                                                000000000175000                            
50002010201705052017050800747441914433       PES0000175000D002202017050515330162                                                
6024600175000171270074744191443300120000557                                                                                     
7PESE                                                                                000000000175000                            
50002110201705052017050800747430984899       PES0000175000D001472017050521500308                                                
6024600175000171270074743098489900120000563                                                                                     
7PESE                                                                                000000000175000                            
50002210201705062017050800747441159562       PES0000175000A117582017050610220007                                                
6024600175000171270074744115956200120000578                                                                                     
7PESE                                                                                000000000175000                            
50002310201705062017050800747440540364       PES0000175000A180022017050610270003                                                
6024600175000171270074744054036400120000642                                                                                     
7PESE                                                                                000000000175000                            
50002410201705062017050800747440863717       PES0000175000A173282017050610550047                                                
6024600175000171270074744086371700120000457                                                                                     
7PESE                                                                                000000000175000                            
50002510201705062017050800888840863717       PES0000117000A173282017050610570048                                                
6024600117000171310088884086371700000000021                                                                                     
7PESE                                                                                000000000117000                            
50002610201705062017050800595935962736       PES0000140000D005862017050612180349                                                
6024600140000171270059593596273600095000516                                                                                     
7PESE                                                                                000000000140000                            
50002710201705062017050800747437431239       PES0000175000A043162017050617030004                                                
6024600175000171270074743743123900120000657                                                                                     
7PESE                                                                                000000000175000                            
50002810201705062017050800585838358608       PES0000158000D002812017050618550356                                                
6024600158000171330058583835860800000000015                                                                                     
7PESE                                                                                000000000158000                            
50002910201705062017050800747441894632       PES0000175000A048292017050620160040                                                
6024600175000171270074744189463200120000500                                                                                     
7PESE                                                                                000000000175000                            
50003010201705062017050800747437248328       PES0000175000D004732017050619230262                                                
6024600175000171270074743724832800120000563                                                                                     
7PESE                                                                                000000000175000                            
50003110201705072017050800888829248692       PES0000117000D005282017050715510384                                                
6024600117000171340088882924869200000000079                                                                                     
7PESE                                                                                000000000117000                            
50003210201705072017050800747433017484       PES0000175000L192622017050715350240                                                
6024600175000171270074743301748400120000742                                                                                     
7PESE                                                                                000000000175000                            
50003310201705072017050800747439910732       PES0000175000D005612017050710570039                                                
6024600175000171270074743991073200120000542                                                                                     
7PESE                                                                                000000000175000                            
50003410201705072017050800747441640261       PES0000175000D000492017050717020527                                                
6024600175000171270074744164026100120000415                                                                                     
7PESE                                                                                000000000175000                            
82017050800000100000340000052940000000000000000000000000000000000000000000034                                                   
9201705080000010000034000005294000000000000000000000000000000000000000000000034                                                 
