120181004PAGO FACIL               090060246MARITIMO SRL                                                                         
320181004000001MARITIMO SRL                                                                                                     
50000110201810032018100410100437247863       PES0000025000A144962018100313140069                                                
6024600025000182821010043724786300000000099                                                                                     
7PESE                                                                                000000000025000                            
50000210201810032018100401291235138180       PES0000171000D010352018100314070189                                                
6024600171000182830129123513818000085000099                                                                                     
7PESE                                                                                000000000171000                            
50000310201810032018100401041035138180       PES0000240000D010352018100314080190                                                
6024600240000182800104103513818000120000384                                                                                     
7PESE                                                                                000000000240000                            
82018100400000100000030000004360000000000000000000000000000000000000000000003                                                   
9201810040000010000003000000436000000000000000000000000000000000000000000000003                                                 
