120170807PAGO FACIL               090060246MARITIMO SRL                                                                         
320170807000001MARITIMO SRL                                                                                                     
50000110201708042017080700777740954967       PES0000175000A160342017080410530051                                                
6024600175000172190077774095496700120000390                                                                                     
7PESE                                                                                000000000175000                            
50000210201708042017080700909035069112       PES0000117000A148342017080411510010                                                
6024600117000172220090903506911200000000036                                                                                     
7PESE                                                                                000000000117000                            
50000310201708042017080700777735069112       PES0000175000A148342017080411510009                                                
6024600175000172190077773506911200120000399                                                                                     
7PESE                                                                                000000000175000                            
50000410201708042017080799330133157315       PES0000080000A188082017080413320059                                                
6024600080000172209933013315731500000000016                                                                                     
7PESE                                                                                000000000080000                            
50000510201708042017080700777734058134       PES0000175000A180602017080414040003                                                
6024600175000172190077773405813400120000400                                                                                     
7PESE                                                                                000000000175000                            
50000610201708042017080700919134058134       PES0000117000A180602017080414040002                                                
6024600117000172230091913405813400000000021                                                                                     
7PESE                                                                                000000000117000                            
50000710201708042017080782160428130799       PES0000051000A016962017080412180021                                                
6024600051000172238216042813079900000000037                                                                                     
7PESE                                                                                000000000051000                            
50000810201708042017080700777741615094       PES0000175000A152132017080416110026                                                
6024600175000172190077774161509400120000390                                                                                     
7PESE                                                                                000000000175000                            
50000910201708042017080700777736288968       PES0000175000A160722017080410370028                                                
6024600175000172190077773628896800120000236                                                                                     
7PESE                                                                                000000000175000                            
50001010201708042017080700777738992653       PES0000175000A175112017080415220009                                                
6024600175000172190077773899265300120000437                                                                                     
7PESE                                                                                000000000175000                            
50001110201708042017080782160429359339       PES0000051000L260012017080411078358                                                
6024600051000172228216042935933900000000063                                                                                     
7PESE                                                                                000000000051000                            
50001210201708052017080700777730980449       PES0000175000A084922017080510480116                                                
6024600175000172190077773098044900120000258                                                                                     
7PESE                                                                                000000000175000                            
50001310201708052017080700919130980449       PES0000117000A084922017080510480115                                                
6024600117000172210091913098044900000000058                                                                                     
7PESE                                                                                000000000117000                            
50001410201708052017080700777736948484       PES0000175000D005422017080509450057                                                
6024600175000172190077773694848400120000415                                                                                     
7PESE                                                                                000000000175000                            
50001510201708052017080700919136948484       PES0000117000D005422017080509460059                                                
6024600117000172230091913694848400000000036                                                                                     
7PESE                                                                                000000000117000                            
82017080700000100000150000020500000000000000000000000000000000000000000000015                                                   
9201708070000010000015000002050000000000000000000000000000000000000000000000015                                                 
