120170802PAGO FACIL               090060246MARITIMO SRL                                                                         
320170802000001MARITIMO SRL                                                                                                     
50000110201708012017080282160716168839       PES0000051000D001892017080114170387                                                
6024600051000172208216071616883900000000063                                                                                     
7PESE                                                                                000000000051000                            
50000210201708012017080200909042111158       PES0000117000A114982017080116390008                                                
6024600117000172170090904211115800000000042                                                                                     
7PESE                                                                                000000000117000                            
50000310201708012017080200777730105518       PES0000175000A198032017080118540093                                                
6024600175000172190077773010551800120000157                                                                                     
7PESE                                                                                000000000175000                            
50000410201708012017080200777739000543       PES0000175000A080692017080112410040                                                
6024600175000172190077773900054300120000057                                                                                     
7PESE                                                                                000000000175000                            
50000510201708012017080200777741914433       PES0000175000D002202017080114570182                                                
6024600175000172190077774191443300120000100                                                                                     
7PESE                                                                                000000000175000                            
82017080200000100000050000006930000000000000000000000000000000000000000000005                                                   
9201708020000010000005000000693000000000000000000000000000000000000000000000005                                                 
