120171102PAGO FACIL               090060246MARITIMO SRL                                                                         
320171102000001MARITIMO SRL                                                                                                     
50000110201711012017110206010311489108       PES0000020000A216302017110110120004                                                
6024600020000173110601031148910800000000084                                                                                     
7PESE                                                                                000000000020000                            
50000210201711012017110206010338013593       PES0000020000D007752017110117540189                                                
6024600020000173120601033801359300000000063                                                                                     
7PESE                                                                                000000000020000                            
50000310201711012017110206010440620106       PES0000020000A216302017110110110003                                                
6024600020000173120601044062010600000000036                                                                                     
7PESE                                                                                000000000020000                            
50000410201711012017110206010121601892       PES0000030000A159012017110112250087                                                
6024600030000173120601012160189200000000000                                                                                     
7PESE                                                                                000000000030000                            
50000510201711012017110206010235025484       PES0000030000A172442017110114080011                                                
6024600030000173120601023502548400000000090                                                                                     
7PESE                                                                                000000000030000                            
50000610201711012017110210070338356754       PES0000045000A204352017110114090093                                                
6024600045000173111007033835675400000000057                                                                                     
7PESE                                                                                000000000045000                            
50000710201711012017110200919133813397       PES0000117000D001472017110120220169                                                
6024600117000173060091913381339700000000063                                                                                     
7PESE                                                                                000000000117000                            
50000810201711012017110200808033813397       PES0000175000D001472017110120210168                                                
6024600175000173060080803381339700120000036                                                                                     
7PESE                                                                                000000000175000                            
50000910201711012017110200808039000543       PES0000175000A080692017110115470083                                                
6024600175000173100080803900054300120000036                                                                                     
7PESE                                                                                000000000175000                            
50001010201711012017110200808040954967       PES0000175000A160342017110110500063                                                
6024600175000173110080804095496700120000157                                                                                     
7PESE                                                                                000000000175000                            
50001110201711012017110200808041914433       PES0000175000D007742017110114330152                                                
6024600175000173110080804191443300120000099                                                                                     
7PESE                                                                                000000000175000                            
82017110200000100000110000009820000000000000000000000000000000000000000000011                                                   
9201711020000010000011000000982000000000000000000000000000000000000000000000011                                                 
