120180103PAGO FACIL               090060246MARITIMO SRL                                                                         
320180103000001MARITIMO SRL                                                                                                     
50000110201801022018010385040243817916       PES0000046500A089982018010212140071                                                
6024600046500180048504024381791600000000084                                                                                     
7PESE                                                                                000000000046500                            
50000210201801022018010385045044451667       PES0000056800A150062018010215520001                                                
6024600056800180048504504445166700000000021                                                                                     
7PESE                                                                                000000000056800                            
50000310201801022018010383051436485456       PES0000080000A205302018010214250109                                                
6024600080000180098305143648545600000000042                                                                                     
7PESE                                                                                000000000080000                            
50000410201801022018010383052528128557       PES0000080000A205302018010214250108                                                
6024600080000180098305252812855700000000016                                                                                     
7PESE                                                                                000000000080000                            
50000510201801022018010385041020702417       PES0000093000A166382018010210340057                                                
6024600093000180048504102070241700000000099                                                                                     
7PESE                                                                                000000000093000                            
50000610201801022018010385044420908528       PES0000113700A056902018010214290055                                                
6024600113700180028504442090852800000000021                                                                                     
7PESE                                                                                000000000113700                            
50000710201801022018010385044034906170       PES0000113700A116892018010211570030                                                
6024600113700180048504403490617000000000057                                                                                     
7PESE                                                                                000000000113700                            
50000810201801022018010385044517256076       PES0000113700A141302018010217240088                                                
6024600113700180048504451725607600000000063                                                                                     
7PESE                                                                                000000000113700                            
50000910201801022018010385044517469379       PES0000113700A039562018010218370078                                                
6024600113700180048504451746937900000000037                                                                                     
7PESE                                                                                000000000113700                            
50001010201801022018010385046725690698       PES0000113700A136752018010212050082                                                
6024600113700180048504672569069800000000099                                                                                     
7PESE                                                                                000000000113700                            
50001110201801022018010385046725690699       PES0000113700A136752018010212050083                                                
6024600113700180048504672569069900000000016                                                                                     
7PESE                                                                                000000000113700                            
82018010300000100000110000010385000000000000000000000000000000000000000000011                                                   
9201801030000010000011000001038500000000000000000000000000000000000000000000011                                                 
