120170905PAGO FACIL               090060246MARITIMO SRL                                                                         
320170905000001MARITIMO SRL                                                                                                     
50000110201709042017090500969641914433       PES0000123500A159252017090413330087                                                
6024600123500172510096964191443300000000021                                                                                     
7PESE                                                                                000000000123500                            
50000210201709042017090500969641321276       PES0000123500A165572017090419180068                                                
6024600123500172530096964132127600000000084                                                                                     
7PESE                                                                                000000000123500                            
50000310201709042017090500979740863717       PES0000123500A173282017090417420002                                                
6024600123500172540097974086371700000000063                                                                                     
7PESE                                                                                000000000123500                            
50000410201709042017090500979740954967       PES0000123500A160372017090410470133                                                
6024600123500172540097974095496700000000057                                                                                     
7PESE                                                                                000000000123500                            
50000510201709042017090500787840863717       PES0000175000A173282017090417410001                                                
6024600175000172500078784086371700120000442                                                                                     
7PESE                                                                                000000000175000                            
50000610201709042017090500787840954967       PES0000175000A160372017090410470134                                                
6024600175000172500078784095496700120000437                                                                                     
7PESE                                                                                000000000175000                            
50000710201709042017090500787841914433       PES0000175000A159252017090413320086                                                
6024600175000172500078784191443300120000100                                                                                     
7PESE                                                                                000000000175000                            
82017090500000100000070000010190000000000000000000000000000000000000000000007                                                   
9201709050000010000007000001019000000000000000000000000000000000000000000000007                                                 
