120181005PAGO FACIL               090060246MARITIMO SRL                                                                         
320181005000001MARITIMO SRL                                                                                                     
50000110201810042018100510100338256430       PES0000025000A184762018100407290001                                                
6024600025000182821010033825643000000000000                                                                                     
7PESE                                                                                000000000025000                            
50000210201810042018100510100820782540       PES0000025000D008592018100410290034                                                
6024600025000182831010082078254000000000042                                                                                     
7PESE                                                                                000000000025000                            
50000310201810042018100501291240910433       PES0000171000A159742018100419450062                                                
6024600171000182820129124091043300085000084                                                                                     
7PESE                                                                                000000000171000                            
50000410201810042018100501041040910433       PES0000240000A159742018100419450063                                                
6024600240000182800104104091043300120000284                                                                                     
7PESE                                                                                000000000240000                            
82018100500000100000040000004610000000000000000000000000000000000000000000004                                                   
9201810050000010000004000000461000000000000000000000000000000000000000000000004                                                 
