120170503PAGO FACIL               090060246MARITIMO SRL                                                                         
320170503000001MARITIMO SRL                                                                                                     
50000110201705022017050324012433590239       PES0000060000A136752017050210520006                                                
6024600060000171242401243359023900100000090                                                                                     
7PESE                                                                                000000000060000                            
50000210201705022017050300595940870751       PES0000140000A148342017050217050006                                                
6024600140000171260059594087075100095000057                                                                                     
7PESE                                                                                000000000140000                            
50000310201705022017050300595937597478       PES0000140000D005322017050213500187                                                
6024600140000171270059593759747800095000263                                                                                     
7PESE                                                                                000000000140000                            
50000410201705022017050300595940922757       PES0000140000A028472017050209350045                                                
6024600140000171270059594092275700095000279                                                                                     
7PESE                                                                                000000000140000                            
50000510201705022017050300585835229831       PES0000158000A174532017050218020027                                                
6024600158000171290058583522983100000000016                                                                                     
7PESE                                                                                000000000158000                            
50000610201705022017050300747436399360       PES0000175000A127782017050213230108                                                
6024600175000171270074743639936000120000242                                                                                     
7PESE                                                                                000000000175000                            
50000710201705022017050300737337010193       PES0000200000A164172017050213520037                                                
6024600200000171290073733701019300000000000                                                                                     
7PESE                                                                                000000000200000                            
82017050300000100000070000010130000000000000000000000000000000000000000000007                                                   
9201705030000010000007000001013000000000000000000000000000000000000000000000007                                                 
