120170804PAGO FACIL               090060246MARITIMO SRL                                                                         
320170804000001MARITIMO SRL                                                                                                     
50000110201708032017080482160114102373       PES0000032500A141082017080316160021                                                
6024600032500172228216011410237300000000084                                                                                     
7PESE                                                                                000000000032500                            
50000210201708032017080407052218249050       PES0000040000A009932017080311320025                                                
6024600040000172150705221824905000000000037                                                                                     
7PESE                                                                                000000000040000                            
50000310201708032017080407052216925552       PES0000040000A148202017080315300037                                                
6024600040000172160705221692555200000000084                                                                                     
7PESE                                                                                000000000040000                            
82017080400000100000030000001125000000000000000000000000000000000000000000003                                                   
9201708040000010000003000000112500000000000000000000000000000000000000000000003                                                 
