120180205PAGO FACIL               090060246MARITIMO SRL                                                                         
320180205000001MARITIMO SRL                                                                                                     
50000110201802032018020500838341914433       PES0000192500D004752018020317090141                                                
6024600192500180380083834191443300132000337                                                                                     
7PESE                                                                                000000000192500                            
82018020500000100000010000001925000000000000000000000000000000000000000000001                                                   
9201802050000010000001000000192500000000000000000000000000000000000000000000001                                                 
