120180807PAGO FACIL               090060246MARITIMO SRL                                                                         
320180807000001MARITIMO SRL                                                                                                     
50000110201808062018080701151142014134       PES0000150000L193342018080613507677                                                
6024600150000182210115114201413400000000084                                                                                     
7PESE                                                                                000000000150000                            
82018080700000100000010000001500000000000000000000000000000000000000000000001                                                   
9201808070000010000001000000150000000000000000000000000000000000000000000000001                                                 
