120170907PAGO FACIL               090060246MARITIMO SRL                                                                         
320170907000001MARITIMO SRL                                                                                                     
50000110201709062017090700909040389310       PES0000117000D006012017090618120266                                                
6024600117000172560090904038931000000000063                                                                                     
7PESE                                                                                000000000117000                            
50000210201709062017090700919138890969       PES0000117000D002812017090614150178                                                
6024600117000172560091913889096900000000015                                                                                     
7PESE                                                                                000000000117000                            
50000310201709062017090700969637431239       PES0000123500A043162017090617020071                                                
6024600123500172540096963743123900000000021                                                                                     
7PESE                                                                                000000000123500                            
50000410201709062017090700969634058134       PES0000123500A180612017090616500095                                                
6024600123500172550096963405813400000000090                                                                                     
7PESE                                                                                000000000123500                            
50000510201709062017090700969635802269       PES0000123500A193072017090614310072                                                
6024600123500172560096963580226900000000084                                                                                     
7PESE                                                                                000000000123500                            
50000610201709062017090700969638890969       PES0000123500D002812017090614150179                                                
6024600123500172560096963889096900000000099                                                                                     
7PESE                                                                                000000000123500                            
50000710201709062017090700969640389310       PES0000123500D006012017090618120267                                                
6024600123500172560096964038931000000000015                                                                                     
7PESE                                                                                000000000123500                            
50000810201709062017090779120918235559       PES0000145000A180602017090612170051                                                
6024600145000172567912091823555900265000015                                                                                     
7PESE                                                                                000000000145000                            
50000910201709062017090700787811105201       PES0000175000A049722017090611230049                                                
6024600175000172500078781110520100120000684                                                                                     
7PESE                                                                                000000000175000                            
50001010201709062017090700787834058134       PES0000175000A180612017090616500096                                                
6024600175000172500078783405813400120000542                                                                                     
7PESE                                                                                000000000175000                            
50001110201709062017090700787835802269       PES0000175000A193072017090614300071                                                
6024600175000172500078783580226900120000621                                                                                     
7PESE                                                                                000000000175000                            
50001210201709062017090700787837431239       PES0000175000A043162017090617010070                                                
6024600175000172500078783743123900120000479                                                                                     
7PESE                                                                                000000000175000                            
50001310201709062017090700787838890969       PES0000175000D002812017090614150177                                                
6024600175000172500078783889096900120000621                                                                                     
7PESE                                                                                000000000175000                            
50001410201709062017090700787841765804       PES0000175000A126252017090615230043                                                
6024600175000172500078784176580400120000537                                                                                     
7PESE                                                                                000000000175000                            
50001510201709062017090700787841968115       PES0000175000A010892017090619230034                                                
6024600175000172500078784196811500120000590                                                                                     
7PESE                                                                                000000000175000                            
50001610201709062017090700777740514756       PES0000200000A028472017090617130068                                                
6024600200000172560077774051475600000000090                                                                                     
7PESE                                                                                000000000200000                            
82017090700000100000160000024215000000000000000000000000000000000000000000016                                                   
9201709070000010000016000002421500000000000000000000000000000000000000000000016                                                 
