120180404PAGO FACIL               090060246MARITIMO SRL                                                                         
320180404000001MARITIMO SRL                                                                                                     
50000110201804032018040400858541914433       PES0000192500D004752018040314590136                                                
6024600192500180970085854191443300132000200                                                                                     
7PESE                                                                                000000000192500                            
82018040400000100000010000001925000000000000000000000000000000000000000000001                                                   
9201804040000010000001000000192500000000000000000000000000000000000000000000001                                                 
