120170609PAGO FACIL               090060246MARITIMO SRL                                                                         
320170609000001MARITIMO SRL                                                                                                     
50000110201706082017060907052724759625       PES0000035000A145742017060810390080                                                
6024600030000171510705272475962500050007400                                                                                     
7PESE                                                                                000000000035000                            
50000210201706082017060999250317830296       PES0000030000A112372017060809090005                                                
6024600030000171609925031783029600000000084                                                                                     
7PESE                                                                                000000000030000                            
50000310201706082017060999250323191693       PES0000030000A112372017060809090004                                                
6024600030000171609925032319169300000000021                                                                                     
7PESE                                                                                000000000030000                            
50000410201706082017060979110817072031       PES0000096500A147612017060810070009                                                
6024600096500171647911081707203100110000084                                                                                     
7PESE                                                                                000000000096500                            
50000510201706082017060900606038426481       PES0000149500A160722017060817410090                                                
6024600149500171660060603842648100085000021                                                                                     
7PESE                                                                                000000000149500                            
50000610201706082017060900595938199462       PES0000158000A138382017060817370080                                                
6024600158000171590059593819946200000000079                                                                                     
7PESE                                                                                000000000158000                            
50000710201706082017060900757529248146       PES0000187000A084922017060812030054                                                
6024600187000171660075752924814600130000042                                                                                     
7PESE                                                                                000000000187000                            
50000810201706082017060900757540540364       PES0000187000A180022017060818120035                                                
6024600187000171660075754054036400130000042                                                                                     
7PESE                                                                                000000000187000                            
82017060900000100000080000008730000000000000000000000000000000000000000000008                                                   
9201706090000010000008000000873000000000000000000000000000000000000000000000008                                                 
