120170906PAGO FACIL               090060246MARITIMO SRL                                                                         
320170906000001MARITIMO SRL                                                                                                     
50000110201709052017090688080138709061       PES0000051000A197422017090515160036                                                
6024600051000172548808013870906100000000021                                                                                     
7PESE                                                                                000000000051000                            
50000210201709052017090600919141472059       PES0000117000A206052017090508280013                                                
6024600117000172530091914147205900000000037                                                                                     
7PESE                                                                                000000000117000                            
50000310201709052017090600969630980449       PES0000123500A077392017090516540088                                                
6024600123500172540096963098044900000000079                                                                                     
7PESE                                                                                000000000123500                            
50000410201709052017090600969640849713       PES0000123500A204132017090518360022                                                
6024600123500172540096964084971300000000057                                                                                     
7PESE                                                                                000000000123500                            
50000510201709052017090679121014407046       PES0000145000A145382017090514100036                                                
6024600145000172497912101440704600265000036                                                                                     
7PESE                                                                                000000000145000                            
50000610201709052017090679121618392748       PES0000145000A172852017090510190052                                                
6024600145000172497912161839274800265000063                                                                                     
7PESE                                                                                000000000145000                            
50000710201709052017090600787830980449       PES0000175000A077392017090516530087                                                
6024600175000172500078783098044900120000436                                                                                     
7PESE                                                                                000000000175000                            
50000810201709052017090600787835755164       PES0000175000A016922017090516530002                                                
6024600175000172500078783575516400120000536                                                                                     
7PESE                                                                                000000000175000                            
50000910201709052017090600787836080290       PES0000175000D007762017090516380142                                                
6024600175000172500078783608029000120000563                                                                                     
7PESE                                                                                000000000175000                            
50001010201709052017090600787838992254       PES0000175000A188102017090514110041                                                
6024600175000172500078783899225400120000484                                                                                     
7PESE                                                                                000000000175000                            
50001110201709052017090600787840849713       PES0000175000A204132017090518350021                                                
6024600175000172500078784084971300120000400                                                                                     
7PESE                                                                                000000000175000                            
50001210201709052017090600787841472059       PES0000175000A206052017090508280014                                                
6024600175000172500078784147205900120000384                                                                                     
7PESE                                                                                000000000175000                            
82017090600000100000120000017550000000000000000000000000000000000000000000012                                                   
9201709060000010000012000001755000000000000000000000000000000000000000000000012                                                 
