120171004PAGO FACIL               090060246MARITIMO SRL                                                                         
320171004000001MARITIMO SRL                                                                                                     
50000110201710032017100400979711105201       PES0000123500A049722017100314420040                                                
6024600123500172770097971110520100000000036                                                                                     
7PESE                                                                                000000000123500                            
50000210201710032017100400979729248146       PES0000123500A076262017100312410093                                                
6024600123500172770097972924814600000000084                                                                                     
7PESE                                                                                000000000123500                            
50000310201710032017100400979730980449       PES0000123500A077392017100315520036                                                
6024600123500172770097973098044900000000057                                                                                     
7PESE                                                                                000000000123500                            
50000410201710032017100400979737431239       PES0000123500A043162017100315290089                                                
6024600123500172770097973743123900000000090                                                                                     
7PESE                                                                                000000000123500                            
50000510201710032017100400979738424306       PES0000123500D001522017100317370395                                                
6024600123500172770097973842430600000000042                                                                                     
7PESE                                                                                000000000123500                            
50000610201710032017100479120917749498       PES0000145000A130982017100309090050                                                
6024600145000172767912091774949800265000063                                                                                     
7PESE                                                                                000000000145000                            
50000710201710032017100400797911105201       PES0000175000A049722017100314450041                                                
6024600175000172800079791110520100120000357                                                                                     
7PESE                                                                                000000000175000                            
50000810201710032017100400797930105518       PES0000175000D001742017100319290237                                                
6024600175000172800079793010551800120000263                                                                                     
7PESE                                                                                000000000175000                            
50000910201710032017100400797930980449       PES0000175000A077392017100315520035                                                
6024600175000172800079793098044900120000237                                                                                     
7PESE                                                                                000000000175000                            
50001010201710032017100400797937431239       PES0000175000A043162017100315300090                                                
6024600175000172800079793743123900120000316                                                                                     
7PESE                                                                                000000000175000                            
50001110201710032017100400797940729235       PES0000175000A189122017100317480114                                                
6024600175000172800079794072923500120000337                                                                                     
7PESE                                                                                000000000175000                            
50001210201710032017100400797940954967       PES0000175000A160352017100310310068                                                
6024600175000172800079794095496700120000242                                                                                     
7PESE                                                                                000000000175000                            
82017100400000100000120000018125000000000000000000000000000000000000000000012                                                   
9201710040000010000012000001812500000000000000000000000000000000000000000000012                                                 
