120180601PAGO FACIL               090060246MARITIMO SRL                                                                         
320180601000001MARITIMO SRL                                                                                                     
50000110201805312018060182190121465439       PES0000034300A159692018053110500015                                                
6024600032200181478219012146543900021007663                                                                                     
7PESE                                                                                000000000034300                            
50000210201805312018060182190530025039       PES0000052500L260012018053114459424                                                
6024600052500181548219053002503900000000063                                                                                     
7PESE                                                                                000000000052500                            
82018060100000100000020000000868000000000000000000000000000000000000000000002                                                   
9201806010000010000002000000086800000000000000000000000000000000000000000000002                                                 
