120170505PAGO FACIL               090060246MARITIMO SRL                                                                         
320170505000001MARITIMO SRL                                                                                                     
50000110201705042017050500595928640885       PES0000140000A138392017050410150076                                                
6024600140000171270059592864088500095000379                                                                                     
7PESE                                                                                000000000140000                            
50000210201705042017050500595941352567       PES0000140000A090072017050415170083                                                
6024600140000171270059594135256700095000400                                                                                     
7PESE                                                                                000000000140000                            
50000310201705042017050500606040870751       PES0000140000A148342017050412270076                                                
6024600140000171310060604087075100095000084                                                                                     
7PESE                                                                                000000000140000                            
50000410201705042017050500747411105201       PES0000175000A095702017050416170028                                                
6024600175000171270074741110520100120000416                                                                                     
7PESE                                                                                000000000175000                            
50000510201705042017050500747434058134       PES0000175000A180622017050412480017                                                
6024600175000171270074743405813400120000415                                                                                     
7PESE                                                                                000000000175000                            
50000610201705042017050500747435069112       PES0000175000A186802017050417440064                                                
6024600175000171270074743506911200120000263                                                                                     
7PESE                                                                                000000000175000                            
50000710201705042017050500747436080290       PES0000175000D007762017050416580139                                                
6024600175000171270074743608029000120000436                                                                                     
7PESE                                                                                000000000175000                            
50000810201705042017050500747436153360       PES0000175000A164542017050413130029                                                
6024600175000171270074743615336000120000479                                                                                     
7PESE                                                                                000000000175000                            
50000910201705042017050500747440389310       PES0000175000A139942017050412550035                                                
6024600175000171270074744038931000120000484                                                                                     
7PESE                                                                                000000000175000                            
50001010201705042017050500747440468347       PES0000175000A153902017050416020089                                                
6024600175000171270074744046834700120000436                                                                                     
7PESE                                                                                000000000175000                            
50001110201705042017050500747440954967       PES0000175000A160352017050410410060                                                
6024600175000171270074744095496700120000442                                                                                     
7PESE                                                                                000000000175000                            
50001210201705042017050500747441835125       PES0000175000A173632017050419080045                                                
6024600175000171270074744183512500120000484                                                                                     
7PESE                                                                                000000000175000                            
50001310201705042017050500737335266508       PES0000200000A161232017050414000004                                                
6024600200000171310073733526650800000000021                                                                                     
7PESE                                                                                000000000200000                            
82017050500000100000130000021950000000000000000000000000000000000000000000013                                                   
9201705050000010000013000002195000000000000000000000000000000000000000000000013                                                 
