120180504PAGO FACIL               090060246MARITIMO SRL                                                                         
320180504000001MARITIMO SRL                                                                                                     
50000110201805032018050418511020832782       PES0000053600A157892018050315080028                                                
6024600053600181231851102083278200000000000                                                                                     
7PESE                                                                                000000000053600                            
50000210201805032018050418513535073006       PES0000053600A150002018050318360042                                                
6024600053600181231851353507300600000000000                                                                                     
7PESE                                                                                000000000053600                            
50000310201805032018050418510232993041       PES0000064300A074252018050315360113                                                
6024600064300181231851023299304100000000000                                                                                     
7PESE                                                                                000000000064300                            
50000410201805032018050400868641472059       PES0000192500A206052018050308480014                                                
6024600192500181270086864147205900132000121                                                                                     
7PESE                                                                                000000000192500                            
82018050400000100000040000003640000000000000000000000000000000000000000000004                                                   
9201805040000010000004000000364000000000000000000000000000000000000000000000004                                                 
