120170504PAGO FACIL               090060246MARITIMO SRL                                                                         
320170504000001MARITIMO SRL                                                                                                     
50000110201705032017050424010814743985       PES0000030000D005392017050311040065                                                
6024600030000171252401081474398500050000099                                                                                     
7PESE                                                                                000000000030000                            
50000210201705032017050424013031298832       PES0000060000D004332017050319410233                                                
6024600060000171232401303129883200100000000                                                                                     
7PESE                                                                                000000000060000                            
50000310201705032017050400595932093887       PES0000140000A143792017050312380098                                                
6024600140000171270059593209388700095000336                                                                                     
7PESE                                                                                000000000140000                            
50000410201705032017050400585834482422       PES0000158000A145052017050316410007                                                
6024600158000171300058583448242200000000063                                                                                     
7PESE                                                                                000000000158000                            
50000510201705032017050400747430105518       PES0000175000D001742017050312240148                                                
6024600175000171270074743010551800120000290                                                                                     
7PESE                                                                                000000000175000                            
50000610201705032017050400747435802269       PES0000175000A161152017050316330044                                                
6024600175000171270074743580226900120000321                                                                                     
7PESE                                                                                000000000175000                            
50000710201705032017050400747436288968       PES0000175000A114352017050317410073                                                
6024600175000171270074743628896800120000379                                                                                     
7PESE                                                                                000000000175000                            
50000810201705032017050400737335123263       PES0000200000A076262017050318390117                                                
6024600200000171290073733512326300000000058                                                                                     
7PESE                                                                                000000000200000                            
50000910201705032017050400737329316782       PES0000200000D000482017050318320102                                                
6024600200000171300073732931678200000000078                                                                                     
7PESE                                                                                000000000200000                            
82017050400000100000090000013130000000000000000000000000000000000000000000009                                                   
9201705040000010000009000001313000000000000000000000000000000000000000000000009                                                 
