120170608PAGO FACIL               090060246MARITIMO SRL                                                                         
320170608000001MARITIMO SRL                                                                                                     
50000110201706072017060807052121725137       PES0000035000D002862017060713370217                                                
6024600030000171510705212172513700050007616                                                                                     
7PESE                                                                                000000000035000                            
50000210201706072017060899250321465768       PES0000030000A076902017060718520075                                                
6024600030000171609925032146576800000000063                                                                                     
7PESE                                                                                000000000030000                            
50000310201706072017060807050821790716       PES0000035000A143482017060714240044                                                
6024600035000171610705082179071600050000057                                                                                     
7PESE                                                                                000000000035000                            
50000410201706072017060807052024568595       PES0000035000A143482017060714240043                                                
6024600035000171610705202456859500050000090                                                                                     
7PESE                                                                                000000000035000                            
50000510201706072017060800898940729235       PES0000117000A073592017060715500022                                                
6024600117000171630089894072923500000000037                                                                                     
7PESE                                                                                000000000117000                            
50000610201706072017060800898938027942       PES0000117000D004732017060719400442                                                
6024600117000171650089893802794200000000036                                                                                     
7PESE                                                                                000000000117000                            
50000710201706072017060800606037597478       PES0000140000A144222017060712590068                                                
6024600140000171580060603759747800095000237                                                                                     
7PESE                                                                                000000000140000                            
50000810201706072017060800606038358608       PES0000140000A063672017060718330034                                                
6024600140000171580060603835860800095000742                                                                                     
7PESE                                                                                000000000140000                            
50000910201706072017060800606040513828       PES0000140000D001892017060716400657                                                
6024600140000171580060604051382800095000790                                                                                     
7PESE                                                                                000000000140000                            
50001010201706072017060800757535069112       PES0000175000A152142017060711430073                                                
6024600175000171580075753506911200120000599                                                                                     
7PESE                                                                                000000000175000                            
50001110201706072017060800757537431239       PES0000175000A043162017060716100176                                                
6024600175000171580075753743123900120000236                                                                                     
7PESE                                                                                000000000175000                            
50001210201706072017060800757538027942       PES0000175000D004732017060719390441                                                
6024600175000171580075753802794200120000736                                                                                     
7PESE                                                                                000000000175000                            
50001310201706072017060800757540729235       PES0000175000A073592017060715490021                                                
6024600175000171580075754072923500120000558                                                                                     
7PESE                                                                                000000000175000                            
50001410201706072017060800757541968115       PES0000175000A010892017060718270096                                                
6024600175000171580075754196811500120000799                                                                                     
7PESE                                                                                000000000175000                            
82017060800000100000140000016640000000000000000000000000000000000000000000014                                                   
9201706080000010000014000001664000000000000000000000000000000000000000000000014                                                 
