120170706PAGO FACIL               090060246MARITIMO SRL                                                                         
320170706000001MARITIMO SRL                                                                                                     
50000110201707052017070607052192445098       PES0000040000D002852017070516070274                                                
6024600040000171900705219244509800000000000                                                                                     
7PESE                                                                                000000000040000                            
50000210201707052017070600909040954967       PES0000117000A160372017070510550002                                                
6024600117000171920090904095496700000000058                                                                                     
7PESE                                                                                000000000117000                            
50000310201707052017070600767635069112       PES0000175000A148342017070516450108                                                
6024600175000171880076763506911200120000563                                                                                     
7PESE                                                                                000000000175000                            
50000410201707052017070600767635802269       PES0000175000A193072017070514150038                                                
6024600175000171880076763580226900120000584                                                                                     
7PESE                                                                                000000000175000                            
50000510201707052017070600767640954967       PES0000175000A160372017070510550001                                                
6024600175000171880076764095496700120000437                                                                                     
7PESE                                                                                000000000175000                            
82017070600000100000050000006820000000000000000000000000000000000000000000005                                                   
9201707060000010000005000000682000000000000000000000000000000000000000000000005                                                 
