120180508PAGO FACIL               090060246MARITIMO SRL                                                                         
320180508000001MARITIMO SRL                                                                                                     
50000110201805072018050888100120518860       PES0000060000D004332018050714240295                                                
6024600060000181308810012051886000000000021                                                                                     
7PESE                                                                                000000000060000                            
50000210201805072018050888100127133523       PES0000060000D004332018050714260297                                                
6024600060000181308810012713352300000000037                                                                                     
7PESE                                                                                000000000060000                            
50000310201805072018050888100128060869       PES0000060000D004332018050714280299                                                
6024600060000181308810012806086900000000084                                                                                     
7PESE                                                                                000000000060000                            
50000410201805072018050888100145356383       PES0000060000D004332018050714240294                                                
6024600060000181308810014535638300000000000                                                                                     
7PESE                                                                                000000000060000                            
50000510201805072018050888100127555297       PES0000060000D004332018050714250296                                                
6024600060000181318810012755529700000000036                                                                                     
7PESE                                                                                000000000060000                            
50000610201805072018050888100126429698       PES0000060000D004332018050714270298                                                
6024600060000181328810012642969800000000084                                                                                     
7PESE                                                                                000000000060000                            
50000710201805072018050888090228060869       PES0000100000D004332018050714280300                                                
6024600100000181308809022806086900000000099                                                                                     
7PESE                                                                                000000000100000                            
50000810201805072018050800868630980449       PES0000192500A167982018050711180048                                                
6024600192500181270086863098044900132000315                                                                                     
7PESE                                                                                000000000192500                            
50000910201805072018050800868633017484       PES0000192500D002752018050712230002                                                
6024600192500181270086863301748400132000758                                                                                     
7PESP                                                                                000000000192500                            
50001010201805072018050800868634058134       PES0000192500L192762018050719423176                                                
6024600192500181270086863405813400132000721                                                                                     
7PESE                                                                                000000000192500                            
50001110201805072018050800868636737490       PES0000192500A172442018050712300023                                                
6024600192500181270086863673749000132000763                                                                                     
7PESE                                                                                000000000192500                            
50001210201805072018050800868637431239       PES0000192500A043162018050715570036                                                
6024600192500181270086863743123900132000358                                                                                     
7PESE                                                                                000000000192500                            
50001310201805072018050800868638069919       PES0000192500A159742018050719220007                                                
6024600192500181270086863806991900132000721                                                                                     
7PESE                                                                                000000000192500                            
50001410201805072018050800868638890969       PES0000192500D002812018050719480374                                                
6024600192500181270086863889096900132000779                                                                                     
7PESE                                                                                000000000192500                            
50001510201805072018050800868638992653       PES0000192500A175112018050717410046                                                
6024600192500181270086863899265300132000763                                                                                     
7PESE                                                                                000000000192500                            
50001610201805072018050800868639910732       PES0000192500A272022018050713080020                                                
6024600192500181270086863991073200132000721                                                                                     
7PESE                                                                                000000000192500                            
82018050800000100000160000021925000000000000000000000000000000000000000000016                                                   
9201805080000010000016000002192500000000000000000000000000000000000000000000016                                                 
