120180907PAGO FACIL               090060246MARITIMO SRL                                                                         
320180907000001MARITIMO SRL                                                                                                     
50000110201809062018090701131137871026       PES0000150000D000302018090614140251                                                
6024600150000182490113113787102600000000063                                                                                     
7PESE                                                                                000000000150000                            
50000210201809062018090701031037234551       PES0000240000A082962018090616270038                                                
6024600240000182500103103723455100120000663                                                                                     
7PESE                                                                                000000000240000                            
50000310201809062018090701031039391098       PES0000240000A152142018090609470012                                                
6024600240000182500103103939109800120000457                                                                                     
7PESP                                                                                000000000240000                            
50000410201809062018090701031042644708       PES0000240000A163452018090614190004                                                
6024600240000182500103104264470800120000642                                                                                     
7PESE                                                                                000000000240000                            
82018090700000100000040000008700000000000000000000000000000000000000000000004                                                   
9201809070000010000004000000870000000000000000000000000000000000000000000000004                                                 
