120180507PAGO FACIL               090060246MARITIMO SRL                                                                         
320180507000001MARITIMO SRL                                                                                                     
50000110201805052018050788100144836736       PES0000060000A092742018050510480026                                                
6024600060000181318810014483673600000000000                                                                                     
7PESE                                                                                000000000060000                            
82018050700000100000010000000600000000000000000000000000000000000000000000001                                                   
9201805070000010000001000000060000000000000000000000000000000000000000000000001                                                 
