120180606PAGO FACIL               090060246MARITIMO SRL                                                                         
320180606000001MARITIMO SRL                                                                                                     
50000110201806052018060602635428862518       PES0000085600A149442018060514080002                                                
6024600085600181560263542886251800000000057                                                                                     
7PESE                                                                                000000000085600                            
50000210201806052018060602635732271312       PES0000117800A145052018060510590104                                                
6024600117800181560263573227131200000000057                                                                                     
7PESE                                                                                000000000117800                            
50000310201806052018060601141140730793       PES0000150000D009142018060510370053                                                
6024600150000181620114114073079300000000058                                                                                     
7PESE                                                                                000000000150000                            
50000410201806052018060601131142014134       PES0000150000L193482018060519354603                                                
6024600150000181630113114201413400000000090                                                                                     
7PESE                                                                                000000000150000                            
50000510201806052018060600878740863717       PES0000192500A177772018060517210010                                                
6024600192500181580087874086371700132000484                                                                                     
7PESE                                                                                000000000192500                            
50000610201806052018060600878741894632       PES0000192500A048292018060519380062                                                
6024600192500181580087874189463200132000490                                                                                     
7PESE                                                                                000000000192500                            
82018060600000100000060000008884000000000000000000000000000000000000000000006                                                   
9201806060000010000006000000888400000000000000000000000000000000000000000000006                                                 
