120180906PAGO FACIL               090060246MARITIMO SRL                                                                         
320180906000001MARITIMO SRL                                                                                                     
50000110201809052018090607070628734930       PES0000050000D002872018090517280270                                                
6024600050000182500707062873493000000000042                                                                                     
7PESE                                                                                000000000050000                            
82018090600000100000010000000500000000000000000000000000000000000000000000001                                                   
9201809060000010000001000000050000000000000000000000000000000000000000000000001                                                 
