120171006PAGO FACIL               090060246MARITIMO SRL                                                                         
320171006000001MARITIMO SRL                                                                                                     
50000110201710052017100679120822878790       PES0000145000A174122017100511300017                                                
6024600145000172787912082287879000265000036                                                                                     
7PESE                                                                                000000000145000                            
50000210201710052017100679120692737152       PES0000145000D005162017100515590132                                                
6024600145000172797912069273715200265000516                                                                                     
7PESE                                                                                000000000145000                            
50000310201710052017100679121013761439       PES0000145000A178132017100516080001                                                
6024600145000172797912101376143900265000621                                                                                     
7PESE                                                                                000000000145000                            
50000410201710052017100600797938992254       PES0000175000A188082017100515160056                                                
6024600175000172800079793899225400120000590                                                                                     
7PESE                                                                                000000000175000                            
50000510201710052017100600797941640261       PES0000175000D000492017100515310193                                                
6024600175000172800079794164026100120000516                                                                                     
7PESE                                                                                000000000175000                            
82017100600000100000050000007850000000000000000000000000000000000000000000005                                                   
9201710060000010000005000000785000000000000000000000000000000000000000000000005                                                 
