120170705PAGO FACIL               090060246MARITIMO SRL                                                                         
320170705000001MARITIMO SRL                                                                                                     
50000110201707042017070500888838992254       PES0000117000D000552017070414120098                                                
6024600117000171890088883899225400000000090                                                                                     
7PESE                                                                                000000000117000                            
50000210201707042017070500909041159562       PES0000117000A010922017070409350015                                                
6024600117000171900090904115956200000000063                                                                                     
7PESE                                                                                000000000117000                            
50000310201707042017070500898931234805       PES0000117000A159112017070417180018                                                
6024600117000171910089893123480500000000063                                                                                     
7PESE                                                                                000000000117000                            
50000410201707042017070500909030980449       PES0000117000A076262017070413440080                                                
6024600117000171920090903098044900000000057                                                                                     
7PESE                                                                                000000000117000                            
50000510201707042017070500767641615094       PES0000175000A152142017070415170025                                                
6024600175000171870076764161509400120000057                                                                                     
7PESE                                                                                000000000175000                            
50000610201707042017070500767630105518       PES0000175000D001752017070411230108                                                
6024600175000171880076763010551800120000463                                                                                     
7PESE                                                                                000000000175000                            
50000710201707042017070500767630980449       PES0000175000A076262017070413430079                                                
6024600175000171880076763098044900120000436                                                                                     
7PESE                                                                                000000000175000                            
50000810201707042017070500767631234805       PES0000175000A159112017070417170017                                                
6024600175000171880076763123480500120000378                                                                                     
7PESE                                                                                000000000175000                            
50000910201707042017070500767638992254       PES0000175000D000552017070414130099                                                
6024600175000171880076763899225400120000184                                                                                     
7PESE                                                                                000000000175000                            
50001010201707042017070500767639000543       PES0000175000A080692017070414020052                                                
6024600175000171880076763900054300120000363                                                                                     
7PESE                                                                                000000000175000                            
50001110201707042017070500767641159562       PES0000175000A010922017070409360016                                                
6024600175000171880076764115956200120000263                                                                                     
7PESE                                                                                000000000175000                            
50001210201707042017070500767641765804       PES0000175000A126232017070417160024                                                
6024600175000171880076764176580400120000363                                                                                     
7PESE                                                                                000000000175000                            
82017070500000100000120000018680000000000000000000000000000000000000000000012                                                   
9201707050000010000012000001868000000000000000000000000000000000000000000000012                                                 
