120170803PAGO FACIL               090060246MARITIMO SRL                                                                         
320170803000001MARITIMO SRL                                                                                                     
50000110201708022017080307052121842174       PES0000040000A086982017080211520079                                                
6024600040000172160705212184217400000000090                                                                                     
7PESE                                                                                000000000040000                            
50000210201708022017080300909029316782       PES0000117000A159652017080215530035                                                
6024600117000172210090902931678200000000021                                                                                     
7PESE                                                                                000000000117000                            
50000310201708022017080300969629316782       PES0000123500A159652017080215520034                                                
6024600123500172210096962931678200000000078                                                                                     
7PESE                                                                                000000000123500                            
50000410201708022017080300777731603436       PES0000175000A158432017080217310042                                                
6024600175000172190077773160343600120000278                                                                                     
7PESE                                                                                000000000175000                            
50000510201708022017080300777737248328       PES0000175000D001722017080216280289                                                
6024600175000172190077773724832800120000242                                                                                     
7PESE                                                                                000000000175000                            
50000610201708022017080300777741968115       PES0000175000A010892017080216490032                                                
6024600175000172190077774196811500120000284                                                                                     
7PESE                                                                                000000000175000                            
50000710201708022017080300767629316782       PES0000200000A159652017080215540036                                                
6024600200000172210076762931678200000000016                                                                                     
7PESE                                                                                000000000200000                            
82017080300000100000070000010055000000000000000000000000000000000000000000007                                                   
9201708030000010000007000001005500000000000000000000000000000000000000000000007                                                 
