120180309PAGO FACIL               090060246MARITIMO SRL                                                                         
320180309000001MARITIMO SRL                                                                                                     
50000110201803082018030910090821552895       PES0000055000A116392018030818300006                                                
6024600055000180731009082155289500000000015                                                                                     
7PESE                                                                                000000000055000                            
82018030900000100000010000000550000000000000000000000000000000000000000000001                                                   
9201803090000010000001000000055000000000000000000000000000000000000000000000001                                                 
