120170707PAGO FACIL               090060246MARITIMO SRL                                                                         
320170707000001MARITIMO SRL                                                                                                     
50000110201707062017070700898942111158       PES0000117000A132792017070617220072                                                
6024600117000171920089894211115800000000057                                                                                     
7PESE                                                                                000000000117000                            
50000210201707062017070700909040729235       PES0000117000A189122017070616190008                                                
6024600117000171920090904072923500000000016                                                                                     
7PESE                                                                                000000000117000                            
50000310201707062017070700898935069112       PES0000117000A149572017070617350061                                                
6024600117000171930089893506911200000000079                                                                                     
7PESE                                                                                000000000117000                            
50000410201707062017070700898936153360       PES0000117000A133342017070613560045                                                
6024600117000171940089893615336000000000063                                                                                     
7PESE                                                                                000000000117000                            
50000510201707062017070700909034058134       PES0000117000A180602017070617250005                                                
6024600117000171940090903405813400000000016                                                                                     
7PESE                                                                                000000000117000                            
50000610201707062017070700767634058134       PES0000175000A180602017070617250004                                                
6024600175000171880076763405813400120000679                                                                                     
7PESE                                                                                000000000175000                            
50000710201707062017070700767635028842       PES0000175000A127462017070615150015                                                
6024600175000171880076763502884200120000458                                                                                     
7PESE                                                                                000000000175000                            
50000810201707062017070700767636080290       PES0000175000A084922017070619240110                                                
6024600175000171880076763608029000120000690                                                                                     
7PESE                                                                                000000000175000                            
50000910201707062017070700767636153360       PES0000175000A133342017070613560046                                                
6024600175000171880076763615336000120000642                                                                                     
7PESE                                                                                000000000175000                            
50001010201707062017070700767637124189       PES0000175000D005272017070612570080                                                
6024600175000171880076763712418900120000615                                                                                     
7PESE                                                                                000000000175000                            
50001110201707062017070700767638069919       PES0000175000A084922017070619230109                                                
6024600175000171880076763806991900120000678                                                                                     
7PESE                                                                                000000000175000                            
50001210201707062017070700767640729235       PES0000175000A189122017070616180007                                                
6024600175000171880076764072923500120000490                                                                                     
7PESE                                                                                000000000175000                            
50001310201707062017070700767641835125       PES0000175000A017482017070618490066                                                
6024600175000171880076764183512500120000657                                                                                     
7PESE                                                                                000000000175000                            
50001410201707062017070700767641894632       PES0000175000A048292017070611170051                                                
6024600175000171880076764189463200120000636                                                                                     
7PESE                                                                                000000000175000                            
50001510201707062017070700757542111158       PES0000200000A132792017070617210071                                                
6024600200000171920075754211115800000000090                                                                                     
7PESE                                                                                000000000200000                            
82017070700000100000150000023600000000000000000000000000000000000000000000015                                                   
9201707070000010000015000002360000000000000000000000000000000000000000000000015                                                 
