120180705PAGO FACIL               090060246MARITIMO SRL                                                                         
320180705000001MARITIMO SRL                                                                                                     
50000110201807042018070588100124922768       PES0000060000A260702018070414340005                                                
6024600060000181918810012492276800000000099                                                                                     
7PESE                                                                                000000000060000                            
50000210201807042018070588100126124265       PES0000060000A117922018070416400054                                                
6024600060000181918810012612426500000000036                                                                                     
7PESE                                                                                000000000060000                            
50000310201807042018070501131137234551       PES0000150000A204382018070410430056                                                
6024600150000181920113113723455100000000063                                                                                     
7PESE                                                                                000000000150000                            
82018070500000100000030000002700000000000000000000000000000000000000000000003                                                   
9201807050000010000003000000270000000000000000000000000000000000000000000000003                                                 
