120180403PAGO FACIL               090060246MARITIMO SRL                                                                         
320180403000001MARITIMO SRL                                                                                                     
50000110201803312018040312010514861050       PES0000042000A230672018033114010024                                                
6024600042000180911201051486105000000000021                                                                                     
7PESE                                                                                000000000042000                            
82018040300000100000010000000420000000000000000000000000000000000000000000001                                                   
9201804030000010000001000000042000000000000000000000000000000000000000000000001                                                 
