120171207PAGO FACIL               090060246MARITIMO SRL                                                                         
320171207000001MARITIMO SRL                                                                                                     
50000110201712062017120700919128523369       PES0000117000D007992017120619540231                                                
6024600117000173470091912852336900000000021                                                                                     
7PESE                                                                                000000000117000                            
50000210201712062017120700818133813397       PES0000175000D000502017120611120054                                                
6024600175000173410081813381339700120000458                                                                                     
7PESE                                                                                000000000175000                            
50000310201712062017120700818137038725       PES0000175000A121942017120612110047                                                
6024600175000173410081813703872500120000637                                                                                     
7PESE                                                                                000000000175000                            
50000410201712062017120700818138992254       PES0000175000A188082017120612420027                                                
6024600175000173410081813899225400120000657                                                                                     
7PESE                                                                                000000000175000                            
50000510201712062017120700818140729235       PES0000175000A189122017120617170053                                                
6024600175000173410081814072923500120000499                                                                                     
7PESE                                                                                000000000175000                            
50000610201712062017120700797935123263       PES0000200000A159742017120620030006                                                
6024600200000173470079793512326300000000000                                                                                     
7PESE                                                                                000000000200000                            
82017120700000100000060000010170000000000000000000000000000000000000000000006                                                   
9201712070000010000006000001017000000000000000000000000000000000000000000000006                                                 
