120180109PAGO FACIL               090060246MARITIMO SRL                                                                         
320180109000001MARITIMO SRL                                                                                                     
50000110201801082018010982180117331526       PES0000032000A175112018010811460114                                                
6024600032000180118218011733152600000000084                                                                                     
7PESE                                                                                000000000032000                            
50000210201801082018010982180141780898       PES0000032000A175112018010811450113                                                
6024600032000180118218014178089800000000058                                                                                     
7PESE                                                                                000000000032000                            
50000310201801082018010982180229906102       PES0000032000A164962018010812180012                                                
6024600032000180138218022990610200000000000                                                                                     
7PESE                                                                                000000000032000                            
50000410201801082018010982180722195110       PES0000042500D002722018010813560151                                                
6024600042500180128218072219511000000000015                                                                                     
7PESE                                                                                000000000042500                            
50000510201801082018010910081528802817       PES0000047000A153902018010818260036                                                
6024600047000180101008152880281700000000084                                                                                     
7PESE                                                                                000000000047000                            
50000610201801082018010910081530892838       PES0000047000A153902018010818260035                                                
6024600047000180101008153089283800000000037                                                                                     
7PESE                                                                                000000000047000                            
50000710201801082018010900828236153360       PES0000175000A148852018010813510026                                                
6024600175000180060082823615336000120000021                                                                                     
7PESE                                                                                000000000175000                            
50000810201801082018010900026233028842       PES0000192500A166612018010813180065                                                
6024600192500180070002623302884200132000058                                                                                     
7PESE                                                                                000000000192500                            
82018010900000100000080000006000000000000000000000000000000000000000000000008                                                   
9201801090000010000008000000600000000000000000000000000000000000000000000000008                                                 
