120171205PAGO FACIL               090060246MARITIMO SRL                                                                         
320171205000001MARITIMO SRL                                                                                                     
50000110201712042017120502620430170132       PES0000090000D004372017120418550299                                                
6024600090000173380262043017013200300000721                                                                                     
7PESE                                                                                000000000090000                            
50000210201712042017120502620526167456       PES0000090000D004372017120418550298                                                
6024600090000173380262052616745600300000763                                                                                     
7PESE                                                                                000000000090000                            
50000310201712042017120500919141668826       PES0000117000A057612017120417510039                                                
6024600117000173420091914166882600000000037                                                                                     
7PESE                                                                                000000000117000                            
50000410201712042017120500818137124189       PES0000175000A152492017120408370008                                                
6024600175000173410081813712418900120000437                                                                                     
7PESE                                                                                000000000175000                            
50000510201712042017120500808039466871       PES0000200000A124962017120418550006                                                
6024600200000173450080803946687100000000000                                                                                     
7PESE                                                                                000000000200000                            
82017120500000100000050000006720000000000000000000000000000000000000000000005                                                   
9201712050000010000005000000672000000000000000000000000000000000000000000000005                                                 
