120170607PAGO FACIL               090060246MARITIMO SRL                                                                         
320170607000001MARITIMO SRL                                                                                                     
50000110201706062017060779110322047967       PES0000096500A173292017060615300053                                                
6024600096500171577911032204796700110000063                                                                                     
7PESE                                                                                000000000096500                            
50000210201706062017060779110411726465       PES0000096500A195012017060610590051                                                
6024600096500171647911041172646500110000058                                                                                     
7PESE                                                                                000000000096500                            
50000310201706062017060700898939910732       PES0000117000D005612017060618030083                                                
6024600117000171630089893991073200000000042                                                                                     
7PESE                                                                                000000000117000                            
50000410201706062017060700888833813397       PES0000117000D000502017060618420345                                                
6024600117000171640088883381339700000000079                                                                                     
7PESE                                                                                000000000117000                            
50000510201706062017060700888836153360       PES0000117000A148862017060616030107                                                
6024600117000171640088883615336000000000084                                                                                     
7PESE                                                                                000000000117000                            
50000610201706062017060700606037842851       PES0000140000D005282017060619190224                                                
6024600140000171580060603784285100095000690                                                                                     
7PESE                                                                                000000000140000                            
50000710201706062017060700606038152371       PES0000140000A155002017060616240097                                                
6024600140000171580060603815237100095000058                                                                                     
7PESE                                                                                000000000140000                            
50000810201706062017060700606038616215       PES0000140000A063712017060618480096                                                
6024600140000171580060603861621500095000642                                                                                     
7PESE                                                                                000000000140000                            
50000910201706062017060700757511105201       PES0000175000A095702017060616420031                                                
6024600175000171580075751110520100120000600                                                                                     
7PESE                                                                                000000000175000                            
50001010201706062017060700757531234805       PES0000175000A093012017060611500020                                                
6024600175000171580075753123480500120000390                                                                                     
7PESE                                                                                000000000175000                            
50001110201706062017060700757536153360       PES0000175000A148862017060616040108                                                
6024600175000171580075753615336000120000663                                                                                     
7PESE                                                                                000000000175000                            
50001210201706062017060700757538069919       PES0000175000A076262017060619380068                                                
6024600175000171580075753806991900120000690                                                                                     
7PESE                                                                                000000000175000                            
50001310201706062017060700757539910732       PES0000175000D005612017060618040084                                                
6024600175000171580075753991073200120000563                                                                                     
7PESE                                                                                000000000175000                            
50001410201706062017060700757540468347       PES0000175000A153902017060617410086                                                
6024600175000171580075754046834700120000621                                                                                     
7PESE                                                                                000000000175000                            
50001510201706062017060700757541615094       PES0000175000A152132017060611460003                                                
6024600175000171580075754161509400120000021                                                                                     
7PESE                                                                                000000000175000                            
50001610201706062017060700757541835125       PES0000175000A173632017060618570079                                                
6024600175000171580075754183512500120000542                                                                                     
7PESE                                                                                000000000175000                            
82017060700000100000160000023640000000000000000000000000000000000000000000016                                                   
9201706070000010000016000002364000000000000000000000000000000000000000000000016                                                 
