120180201PAGO FACIL               090060246MARITIMO SRL                                                                         
320180201000001MARITIMO SRL                                                                                                     
50000110201801312018020100818141558730       PES0000200000A230762018013113410033                                                
6024600200000180380081814155873000000000016                                                                                     
7PESE                                                                                000000000200000                            
82018020100000100000010000002000000000000000000000000000000000000000000000001                                                   
9201802010000010000001000000200000000000000000000000000000000000000000000000001                                                 
