120180706PAGO FACIL               090060246MARITIMO SRL                                                                         
320180706000001MARITIMO SRL                                                                                                     
50000110201807052018070688100144562974       PES0000060000A280222018070513220088                                                
6024600060000181938810014456297400000000090                                                                                     
7PESE                                                                                000000000060000                            
82018070600000100000010000000600000000000000000000000000000000000000000000001                                                   
9201807060000010000001000000060000000000000000000000000000000000000000000000001                                                 
