120171002PAGO FACIL               090060246MARITIMO SRL                                                                         
320171002000001MARITIMO SRL                                                                                                     
50000110201709292017100200979739466871       PES0000123500A182452017092911250128                                                
6024600123500172780097973946687100000000015                                                                                     
7PESE                                                                                000000000123500                            
50000210201709292017100200969642111158       PES0000123500A114982017092913380132                                                
6024600123500172730096964211115800000000021                                                                                     
7PESE                                                                                000000000123500                            
50000310201709292017100200787842111158       PES0000200000A114982017092913380133                                                
6024600200000172730078784211115800000000000                                                                                     
7PESE                                                                                000000000200000                            
50000410201709292017100282170622098375       PES0000048000A150252017092914450040                                                
6024600048000172758217062209837500030000084                                                                                     
7PESE                                                                                000000000048000                            
50000510201709292017100200979738992653       PES0000123500A175112017092916000233                                                
6024600123500172770097973899265300000000063                                                                                     
7PESE                                                                                000000000123500                            
50000610201709292017100200919135266508       PES0000117000A164852017092915320032                                                
6024600117000172790091913526650800000000036                                                                                     
7PESE                                                                                000000000117000                            
82017100200000100000060000007355000000000000000000000000000000000000000000006                                                   
9201710020000010000006000000735500000000000000000000000000000000000000000000006                                                 
