120180608PAGO FACIL               090060246MARITIMO SRL                                                                         
320180608000001MARITIMO SRL                                                                                                     
50000110201806072018060876050624962781       PES0000020000A113032018060709350007                                                
6024600020000181657605062496278100050000058                                                                                     
7PESE                                                                                000000000020000                            
50000210201806072018060801131135367988       PES0000150000A159382018060709190020                                                
6024600150000181580113113536798800000000090                                                                                     
7PESE                                                                                000000000150000                            
50000310201806072018060801131140895203       PES0000150000A124962018060719350081                                                
6024600150000181650113114089520300000000021                                                                                     
7PESE                                                                                000000000150000                            
50000410201806072018060801141135138180       PES0000150000D010352018060715100136                                                
6024600150000181650114113513818000000000015                                                                                     
7PESP                                                                                000000000150000                            
50000510201806072018060800878736153360       PES0000192500D010382018060711170071                                                
6024600192500181580087873615336000132000679                                                                                     
7PESP                                                                                000000000192500                            
50000610201806072018060800878737431239       PES0000192500A043162018060709360015                                                
6024600192500181580087873743123900132000684                                                                                     
7PESE                                                                                000000000192500                            
50000710201806072018060800878740849713       PES0000192500A128202018060717540017                                                
6024600192500181580087874084971300132000742                                                                                     
7PESE                                                                                000000000192500                            
82018060800000100000070000010475000000000000000000000000000000000000000000007                                                   
9201806080000010000007000001047500000000000000000000000000000000000000000000007                                                 
