120170808PAGO FACIL               090060246MARITIMO SRL                                                                         
320170808000001MARITIMO SRL                                                                                                     
50000110201708072017080807051735359881       PES0000040000L193272017080419451418                                                
6024600040000172160705173535988100000000090                                                                                     
7PESE                                                                                000000000040000                            
50000210201708072017080800919140729235       PES0000117000A189122017080717290018                                                
6024600117000172230091914072923500000000015                                                                                     
7PESE                                                                                000000000117000                            
50000310201708072017080800898938069919       PES0000117000A076262017080719110063                                                
6024600117000172260089893806991900000000063                                                                                     
7PESE                                                                                000000000117000                            
50000410201708072017080800969638069919       PES0000123500A076262017080719110062                                                
6024600123500172260096963806991900000000036                                                                                     
7PESE                                                                                000000000123500                            
50000510201708072017080800777711105201       PES0000175000A095702017080714580016                                                
6024600175000172190077771110520100120000715                                                                                     
7PESE                                                                                000000000175000                            
50000610201708072017080800777737431239       PES0000175000A043162017080718110001                                                
6024600175000172190077773743123900120000779                                                                                     
7PESE                                                                                000000000175000                            
50000710201708072017080800777738027942       PES0000175000D004732017080717390271                                                
6024600175000172190077773802794200120000700                                                                                     
7PESE                                                                                000000000175000                            
50000810201708072017080800777738069919       PES0000175000A076262017080719110061                                                
6024600175000172190077773806991900120000700                                                                                     
7PESE                                                                                000000000175000                            
50000910201708072017080800777738992254       PES0000175000A188102017080713440071                                                
6024600175000172190077773899225400120000784                                                                                     
7PESE                                                                                000000000175000                            
50001010201708072017080800777739560669       PES0000175000A032732017080718370052                                                
6024600175000172190077773956066900120000615                                                                                     
7PESE                                                                                000000000175000                            
50001110201708072017080800777740468347       PES0000175000A153902017080717200051                                                
6024600175000172190077774046834700120000721                                                                                     
7PESE                                                                                000000000175000                            
50001210201708072017080800777740540364       PES0000175000A183382017080718370081                                                
6024600175000172190077774054036400120000763                                                                                     
7PESE                                                                                000000000175000                            
50001310201708072017080800777740729235       PES0000175000A189122017080717310019                                                
6024600175000172190077774072923500120000499                                                                                     
7PESE                                                                                000000000175000                            
50001410201708072017080800777740849713       PES0000175000A148202017080719490051                                                
6024600175000172190077774084971300120000700                                                                                     
7PESE                                                                                000000000175000                            
50001510201708072017080800777741765804       PES0000175000A126252017080710250086                                                
6024600175000172190077774176580400120000700                                                                                     
7PESE                                                                                000000000175000                            
50001610201708072017080800777741894632       PES0000175000A048292017080710070020                                                
6024600175000172190077774189463200120000763                                                                                     
7PESE                                                                                000000000175000                            
82017080800000100000160000024975000000000000000000000000000000000000000000016                                                   
9201708080000010000016000002497500000000000000000000000000000000000000000000016                                                 
