120180302PAGO FACIL               090060246MARITIMO SRL                                                                         
320180302000001MARITIMO SRL                                                                                                     
50000110201803012018030210091724881611       PES0000055000A215692018030115040026                                                
6024600047000180591009172488161100080007516                                                                                     
7PESE                                                                                000000000055000                            
50000210201803012018030210094116494945       PES0000065000A215692018030115040027                                                
6024600060000180591009411649494500050007590                                                                                     
7PESE                                                                                000000000065000                            
82018030200000100000020000001200000000000000000000000000000000000000000000002                                                   
9201803020000010000002000000120000000000000000000000000000000000000000000000002                                                 
