120180301PAGO FACIL               090060246MARITIMO SRL                                                                         
320180301000001MARITIMO SRL                                                                                                     
50000110201802282018030110091725506114       PES0000047000A161962018022814370049                                                
6024600047000180591009172550611400080007715                                                                                     
7PESE                                                                                000000000047000                            
50000210201802282018030110094413186033       PES0000060000A175692018022814430044                                                
6024600060000180591009441318603300050007600                                                                                     
7PESE                                                                                000000000060000                            
82018030100000100000020000001070000000000000000000000000000000000000000000002                                                   
9201803010000010000002000000107000000000000000000000000000000000000000000000002                                                 
