120171201PAGO FACIL               090060246MARITIMO SRL                                                                         
320171201000001MARITIMO SRL                                                                                                     
50000110201711302017120100818136399360       PES0000175000A127822017113017460035                                                
6024600175000173410081813639936000120000063                                                                                     
7PESE                                                                                000000000175000                            
50000210201711302017120100797942111158       PES0000200000A148862017113018000024                                                
6024600200000173410079794211115800000000000                                                                                     
7PESE                                                                                000000000200000                            
82017120100000100000020000003750000000000000000000000000000000000000000000002                                                   
9201712010000010000002000000375000000000000000000000000000000000000000000000002                                                 
