120170606PAGO FACIL               090060246MARITIMO SRL                                                                         
320170606000001MARITIMO SRL                                                                                                     
50000110201706052017060699250336154684       PES0000030000A144112017060512480025                                                
6024600030000171569925033615468400000000042                                                                                     
7PESE                                                                                000000000030000                            
50000210201706052017060699250338856321       PES0000030000A135082017060517180030                                                
6024600030000171569925033885632100000000000                                                                                     
7PESE                                                                                000000000030000                            
50000310201706052017060679110816825066       PES0000096500A149452017060510310040                                                
6024600096500171617911081682506600110000078                                                                                     
7PESE                                                                                000000000096500                            
50000410201706052017060600898930980449       PES0000117000A076262017060516470017                                                
6024600117000171600089893098044900000000037                                                                                     
7PESE                                                                                000000000117000                            
50000510201706052017060600898934058134       PES0000117000A180612017060514390107                                                
6024600117000171620089893405813400000000000                                                                                     
7PESE                                                                                000000000117000                            
50000610201706052017060600898940389310       PES0000117000A139942017060515520086                                                
6024600117000171630089894038931000000000016                                                                                     
7PESE                                                                                000000000117000                            
50000710201706052017060600606034229434       PES0000140000A025642017060513100026                                                
6024600140000171580060603422943400095000590                                                                                     
7PESE                                                                                000000000140000                            
50000810201706052017060600606035984343       PES0000140000D002312017060515590160                                                
6024600140000171580060603598434300095000263                                                                                     
7PESE                                                                                000000000140000                            
50000910201706052017060600606038056001       PES0000140000D002452017060511520037                                                
6024600140000171580060603805600100095000516                                                                                     
7PESE                                                                                000000000140000                            
50001010201706052017060600606039849584       PES0000140000A028072017060513220293                                                
6024600140000171580060603984958400095000584                                                                                     
7PESE                                                                                000000000140000                            
50001110201706052017060600606041352567       PES0000140000A090072017060515450003                                                
6024600140000171580060604135256700095000500                                                                                     
7PESE                                                                                000000000140000                            
50001210201706052017060600757530980449       PES0000175000A076262017060516470018                                                
6024600175000171580075753098044900120000284                                                                                     
7PESE                                                                                000000000175000                            
50001310201706052017060600757534058134       PES0000175000A180612017060514400108                                                
6024600175000171580075753405813400120000436                                                                                     
7PESE                                                                                000000000175000                            
50001410201706052017060600757535266508       PES0000175000A171812017060518160092                                                
6024600175000171580075753526650800120000536                                                                                     
7PESE                                                                                000000000175000                            
50001510201706052017060600757535802269       PES0000175000A193072017060516040095                                                
6024600175000171580075753580226900120000515                                                                                     
7PESE                                                                                000000000175000                            
50001610201706052017060600757540389310       PES0000175000A139942017060515520087                                                
6024600175000171580075754038931000120000537                                                                                     
7PESE                                                                                000000000175000                            
50001710201706052017060600757541894632       PES0000175000A169852017060520000093                                                
6024600175000171580075754189463200120000184                                                                                     
7PESE                                                                                000000000175000                            
82017060600000100000170000022575000000000000000000000000000000000000000000017                                                   
9201706060000010000017000002257500000000000000000000000000000000000000000000017                                                 
