120180409PAGO FACIL               090060246MARITIMO SRL                                                                         
320180409000001MARITIMO SRL                                                                                                     
50000110201804062018040900858539910732       PES0000192500D005612018040615050208                                                
6024600192500180970085853991073200132000478                                                                                     
7PESE                                                                                000000000192500                            
50000210201804062018040900858535069112       PES0000192500A220712018040616400037                                                
6024600192500180970085853506911200132000663                                                                                     
7PESE                                                                                000000000192500                            
50000310201804062018040900858535802269       PES0000192500A192992018040616570054                                                
6024600192500180970085853580226900132000684                                                                                     
7PESE                                                                                000000000192500                            
50000410201804072018040900858538069919       PES0000192500A084922018040711480091                                                
6024600192500180970085853806991900132000778                                                                                     
7PESE                                                                                000000000192500                            
50000510201804072018040900858538890969       PES0000192500A255082018040711000022                                                
6024600192500180970085853889096900132000699                                                                                     
7PESE                                                                                000000000192500                            
50000610201804072018040900858530980449       PES0000192500A076262018040712590038                                                
6024600192500180970085853098044900132000663                                                                                     
7PESE                                                                                000000000192500                            
50000710201804072018040900858537431239       PES0000192500A043162018040714260033                                                
6024600192500180970085853743123900132000615                                                                                     
7PESE                                                                                000000000192500                            
82018040900000100000070000013475000000000000000000000000000000000000000000007                                                   
9201804090000010000007000001347500000000000000000000000000000000000000000000007                                                 
