120170502PAGO FACIL               090060246MARITIMO SRL                                                                         
320170502000001MARITIMO SRL                                                                                                     
50000110201704282017050282151521447712       PES0000051000A159692017042817240062                                                
6024600051000171258215152144771200000000000                                                                                     
7PESE                                                                                000000000051000                            
82017050200000100000010000000510000000000000000000000000000000000000000000001                                                   
9201705020000010000001000000051000000000000000000000000000000000000000000000001                                                 
