120171009PAGO FACIL               090060246MARITIMO SRL                                                                         
320171009000001MARITIMO SRL                                                                                                     
50000110201710062017100900797940863717       PES0000175000A173282017100611020045                                                
6024600175000172800079794086371700120000699                                                                                     
7PESE                                                                                000000000175000                            
50000210201710062017100900797941968115       PES0000175000A010892017100611450084                                                
6024600175000172800079794196811500120000600                                                                                     
7PESE                                                                                000000000175000                            
50000310201710062017100900797939910732       PES0000175000A182942017100613020096                                                
6024600175000172800079793991073200120000215                                                                                     
7PESE                                                                                000000000175000                            
50000410201710062017100900797935755164       PES0000175000A016922017100614190029                                                
6024600175000172800079793575516400120000642                                                                                     
7PESE                                                                                000000000175000                            
50000510201710062017100979120822430535       PES0000145000D000492017100616000257                                                
6024600145000172797912082243053500265000699                                                                                     
7PESE                                                                                000000000145000                            
50000610201710062017100982171810648511       PES0000048000D007772017100616200189                                                
6024600048000172818217181064851100030000521                                                                                     
7PESE                                                                                000000000048000                            
50000710201710062017100900797934058134       PES0000175000A064992017100618040079                                                
6024600175000172800079793405813400120000657                                                                                     
7PESE                                                                                000000000175000                            
50000810201710062017100900797937856331       PES0000175000A211392017100617310098                                                
6024600175000172800079793785633100120000657                                                                                     
7PESE                                                                                000000000175000                            
50000910201710062017100979120536944895       PES0000145000A057152017100611580003                                                
6024600145000172797912053694489500265000421                                                                                     
7PESE                                                                                000000000145000                            
50001010201710062017100900797938992653       PES0000175000A175112017100617550117                                                
6024600175000172800079793899265300120000684                                                                                     
7PESE                                                                                000000000175000                            
50001110201710062017100979120725635439       PES0000145000A200972017100619200115                                                
6024600145000172797912072563543900265000790                                                                                     
7PESE                                                                                000000000145000                            
50001210201710062017100979120917227663       PES0000145000A018032017100619100093                                                
6024600145000172797912091722766300265000778                                                                                     
7PESE                                                                                000000000145000                            
50001310201710062017100900797938890969       PES0000175000D002812017100612040124                                                
6024600175000172800079793889096900120000600                                                                                     
7PESE                                                                                000000000175000                            
50001410201710062017100900919138069919       PES0000117000A077392017100619190027                                                
6024600117000172860091913806991900000000063                                                                                     
7PESE                                                                                000000000117000                            
50001510201710062017100900797938069919       PES0000175000A077392017100619190026                                                
6024600175000172800079793806991900120000642                                                                                     
7PESE                                                                                000000000175000                            
50001610201710062017100900797940537317       PES0000175000A193512017100617060009                                                
6024600175000172800079794053731700120000636                                                                                     
7PESE                                                                                000000000175000                            
50001710201710072017100900797940849713       PES0000175000A204132017100713190019                                                
6024600175000172800079794084971300120000657                                                                                     
7PESE                                                                                000000000175000                            
82017100900000100000170000026700000000000000000000000000000000000000000000017                                                   
9201710090000010000017000002670000000000000000000000000000000000000000000000017                                                 
