120180108PAGO FACIL               090060246MARITIMO SRL                                                                         
320180108000001MARITIMO SRL                                                                                                     
50000110201801052018010800828233813397       PES0000175000D005272018010513220122                                                
6024600175000180050082823381339700120000063                                                                                     
7PESE                                                                                000000000175000                            
50000210201801052018010800828239910732       PES0000175000D005612018010516300017                                                
6024600175000180050082823991073200120000015                                                                                     
7PESE                                                                                000000000175000                            
50000310201801062018010800828241835125       PES0000192500A009932018010610460081                                                
6024600192500180070082824183512500132000084                                                                                     
7PESE                                                                                000000000192500                            
50000410201801062018010800828237038725       PES0000175000A182782018010611350074                                                
6024600175000180070082823703872500120000063                                                                                     
7PESE                                                                                000000000175000                            
50000510201801062018010800828241765804       PES0000192500A126252018010612250010                                                
6024600192500180070082824176580400132000000                                                                                     
7PESE                                                                                000000000192500                            
50000610201801062018010800828236948484       PES0000175000D005412018010610230055                                                
6024600175000180070082823694848400120000015                                                                                     
7PESE                                                                                000000000175000                            
50000710201801062018010800828238890969       PES0000175000D002822018010611130060                                                
6024600175000180070082823889096900120000057                                                                                     
7PESE                                                                                000000000175000                            
50000810201801062018010800828241894632       PES0000192500A048292018010618000003                                                
6024600192500180070082824189463200132000063                                                                                     
7PESE                                                                                000000000192500                            
50000910201801062018010800828238027942       PES0000192500D007992018010619240140                                                
6024600192500180070082823802794200132000000                                                                                     
7PESE                                                                                000000000192500                            
50001010201801062018010800828238069919       PES0000192500D005282018010616050185                                                
6024600192500180070082823806991900132000000                                                                                     
7PESE                                                                                000000000192500                            
82018010800000100000100000018375000000000000000000000000000000000000000000010                                                   
9201801080000010000010000001837500000000000000000000000000000000000000000000010                                                 
