120171106PAGO FACIL               090060246MARITIMO SRL                                                                         
320171106000001MARITIMO SRL                                                                                                     
50000110201711032017110606010220512670       PES0000030000A092472017110312580004                                                
6024600030000173130601022051267000000000000                                                                                     
7PESE                                                                                000000000030000                            
50000210201711032017110606010424446352       PES0000020000A136362017110312420097                                                
6024600020000173140601042444635200000000021                                                                                     
7PESE                                                                                000000000020000                            
50000310201711032017110606010212857304       PES0000030000A621282017110312240042                                                
6024600030000173140601021285730400000000084                                                                                     
7PESE                                                                                000000000030000                            
50000410201711032017110606010229670998       PES0000030000A621282017110312240043                                                
6024600030000173140601022967099800000000015                                                                                     
7PESE                                                                                000000000030000                            
50000510201711032017110606010223045204       PES0000030000A621282017110312240041                                                
6024600030000173140601022304520400000000000                                                                                     
7PESE                                                                                000000000030000                            
50000610201711032017110600808041765804       PES0000175000A126242017110317210036                                                
6024600175000173110080804176580400120000384                                                                                     
7PESE                                                                                000000000175000                            
50000710201711032017110600808037431239       PES0000175000A043162017110317550036                                                
6024600175000173110080803743123900120000058                                                                                     
7PESE                                                                                000000000175000                            
82017110600000100000070000004900000000000000000000000000000000000000000000007                                                   
9201711060000010000007000000490000000000000000000000000000000000000000000000007                                                 
