120170509PAGO FACIL               090060246MARITIMO SRL                                                                         
320170509000001MARITIMO SRL                                                                                                     
50000110201705082017050924010717520335       PES0000030000A136752017050815030126                                                
6024600030000171292401071752033500050000057                                                                                     
7PESE                                                                                000000000030000                            
50000210201705082017050982150217546899       PES0000032500A145382017050815590040                                                
6024600032500171308215021754689900000000021                                                                                     
7PESE                                                                                000000000032500                            
50000310201705082017050982150222362674       PES0000032500A180902017050812390017                                                
6024600032500171308215022236267400000000078                                                                                     
7PESE                                                                                000000000032500                            
50000410201705082017050982150792718459       PES0000051000A180902017050812390016                                                
6024600051000171308215079271845900000000042                                                                                     
7PESE                                                                                000000000051000                            
50000510201705082017050924013432855651       PES0000060000A167932017050817350050                                                
6024600060000171302401343285565100100000184                                                                                     
7PESE                                                                                000000000060000                            
50000610201705082017050900888835405941       PES0000117000A161162017050816460070                                                
6024600117000171350088883540594100000000037                                                                                     
7PESE                                                                                000000000117000                            
50000710201705082017050900888840849713       PES0000117000A148202017050819260022                                                
6024600117000171350088884084971300000000063                                                                                     
7PESE                                                                                000000000117000                            
50000810201705082017050900747433944863       PES0000187000A182942017050817150017                                                
6024600187000171350074743394486300130000021                                                                                     
7PESE                                                                                000000000187000                            
50000910201705082017050900747435405941       PES0000187000A161162017050816460071                                                
6024600187000171350074743540594100130000042                                                                                     
7PESE                                                                                000000000187000                            
50001010201705082017050900747436737490       PES0000187000A172442017050816120032                                                
6024600187000171350074743673749000130000000                                                                                     
7PESE                                                                                000000000187000                            
50001110201705082017050900747438992254       PES0000187000A174222017050817340025                                                
6024600187000171350074743899225400130000042                                                                                     
7PESE                                                                                000000000187000                            
50001210201705082017050900747440849713       PES0000187000A148202017050819270023                                                
6024600187000171350074744084971300130000063                                                                                     
7PESE                                                                                000000000187000                            
82017050900000100000120000013750000000000000000000000000000000000000000000012                                                   
9201705090000010000012000001375000000000000000000000000000000000000000000000012                                                 
