120180105PAGO FACIL               090060246MARITIMO SRL                                                                         
320180105000001MARITIMO SRL                                                                                                     
50000110201801042018010585040539099532       PES0000093000A185162018010415250034                                                
6024600093000180048504053909953200000000058                                                                                     
7PESE                                                                                000000000093000                            
50000210201801042018010585044131477215       PES0000113700L193122018010416095151                                                
6024600113700180048504413147721500000000058                                                                                     
7PESE                                                                                000000000113700                            
50000310201801042018010585044421480733       PES0000113700A031192018010409320048                                                
6024600113700180048504442148073300000000084                                                                                     
7PESE                                                                                000000000113700                            
50000410201801042018010500828241472059       PES0000175000A131772018010408180021                                                
6024600175000180070082824147205900120000015                                                                                     
7PESE                                                                                000000000175000                            
50000510201801042018010500828241914433       PES0000175000A159252018010411170092                                                
6024600175000180070082824191443300120000000                                                                                     
7PESE                                                                                000000000175000                            
82018010500000100000050000006704000000000000000000000000000000000000000000005                                                   
9201801050000010000005000000670400000000000000000000000000000000000000000000005                                                 
