120170412PAGO FACIL               090060246MARITIMO SRL                                                                         
320170412000001MARITIMO SRL                                                                                                     
50000110201704112017041200585834023365       PES0000149500A112032017041113240024                                                
6024600149500171050058583402336500085000236                                                                                     
7PESE                                                                                000000000149500                            
50000210201704112017041200737337981441       PES0000187000A170212017041111190122                                                
6024600187000171050073733798144100130000378                                                                                     
7PESE                                                                                000000000187000                            
50000310201704112017041200737339910732       PES0000187000D000512017041117560063                                                
6024600187000171050073733991073200130000121                                                                                     
7PESE                                                                                000000000187000                            
82017041200000100000030000005235000000000000000000000000000000000000000000003                                                   
9201704120000010000003000000523500000000000000000000000000000000000000000000003                                                 
