120180518PAGO FACIL               090060246MARITIMO SRL                                                                         
320180518000001MARITIMO SRL                                                                                                     
50000110201805172018051876050432763631       PES0000020000A116902018051711010014                                                
6024600020000181437605043276363100050000079                                                                                     
7PESE                                                                                000000000020000                            
50000210201805172018051802636028815853       PES0000064500D000102018051717220185                                                
6024600064500181400263602881585300211000415                                                                                     
7PESP                                                                                000000000064500                            
50000310201805172018051802635636949822       PES0000085600D000102018051717220186                                                
6024600085600181400263563694982200322000458                                                                                     
7PESP                                                                                000000000085600                            
82018051800000100000030000001701000000000000000000000000000000000000000000003                                                   
9201805180000010000003000000170100000000000000000000000000000000000000000000003                                                 
