120180713PAGO FACIL               090060246MARITIMO SRL                                                                         
320180713000001MARITIMO SRL                                                                                                     
50000110201807122018071376052222211415       PES0000020000A074252018071211340024                                                
6024600020000181967605222221141500050000342                                                                                     
7PESE                                                                                000000000020000                            
82018071300000100000010000000200000000000000000000000000000000000000000000001                                                   
9201807130000010000001000000020000000000000000000000000000000000000000000000001                                                 
