120170518PAGO FACIL               090060246MARITIMO SRL                                                                         
320170518000001MARITIMO SRL                                                                                                     
50000110201705172017051824011623100885       PES0000035000A041972017051711560085                                                
6024600035000171442401162310088500000000036                                                                                     
7PESE                                                                                000000000035000                            
50000210201705172017051800888835069112       PES0000117000A149572017051717130011                                                
6024600117000171380088883506911200000000021                                                                                     
7PESE                                                                                000000000117000                            
50000310201705172017051800747438992653       PES0000200000A175112017051717520245                                                
6024600200000171510074743899265300000000036                                                                                     
7PESE                                                                                000000000200000                            
82017051800000100000030000003520000000000000000000000000000000000000000000003                                                   
9201705180000010000003000000352000000000000000000000000000000000000000000000003                                                 
