120180112PAGO FACIL               090060246MARITIMO SRL                                                                         
320180112000001MARITIMO SRL                                                                                                     
50000110201801112018011282180239813939       PES0000032000A127472018011109590080                                                
6024600032000180128218023981393900000000079                                                                                     
7PESE                                                                                000000000032000                            
82018011200000100000010000000320000000000000000000000000000000000000000000001                                                   
9201801120000010000001000000032000000000000000000000000000000000000000000000001                                                 
