120170418PAGO FACIL               090060246MARITIMO SRL                                                                         
320170418000001MARITIMO SRL                                                                                                     
50000110201704172017041824010716593832       PES0000030000D005422017041718120714                                                
6024600030000171092401071659383200050000063                                                                                     
7PESE                                                                                000000000030000                            
50000210201704172017041882140235900098       PES0000049000A088822017041718140121                                                
6024600049000171118214023590009800000000079                                                                                     
7PESE                                                                                000000000049000                            
50000310201704172017041800585838613533       PES0000149500A160782017041711230008                                                
6024600149500171050058583861353300085000442                                                                                     
7PESE                                                                                000000000149500                            
50000410201704172017041800737338079676       PES0000200000A163452017041710220048                                                
6024600200000171200073733807967600000000079                                                                                     
7PESE                                                                                000000000200000                            
82017041800000100000040000004285000000000000000000000000000000000000000000004                                                   
9201704180000010000004000000428500000000000000000000000000000000000000000000004                                                 
