120170512PAGO FACIL               090060246MARITIMO SRL                                                                         
320170512000001MARITIMO SRL                                                                                                     
50000110201705112017051200888831603436       PES0000117000A138382017051117120018                                                
6024600117000171380088883160343600000000037                                                                                     
7PESE                                                                                000000000117000                            
50000210201705112017051200575741502725       PES0000158000A184962017051117190081                                                
6024600158000171370057574150272500000000037                                                                                     
7PESE                                                                                000000000158000                            
50000310201705112017051200747431603436       PES0000187000A138382017051117120019                                                
6024600187000171350074743160343600130000315                                                                                     
7PESE                                                                                000000000187000                            
50000410201705112017051200747435266508       PES0000187000A148292017051115260065                                                
6024600187000171350074743526650800130000337                                                                                     
7PESE                                                                                000000000187000                            
50000510201705112017051200747437981441       PES0000187000A170222017051118550085                                                
6024600187000171350074743798144100130000342                                                                                     
7PESE                                                                                000000000187000                            
82017051200000100000050000008360000000000000000000000000000000000000000000005                                                   
9201705120000010000005000000836000000000000000000000000000000000000000000000005                                                 
