120180510PAGO FACIL               090060246MARITIMO SRL                                                                         
320180510000001MARITIMO SRL                                                                                                     
50000110201805092018051088100120282296       PES0000060000M601842018050911200045                                                
6024600060000181358810012028229600000000090                                                                                     
7PESE                                                                                000000000060000                            
82018051000000100000010000000600000000000000000000000000000000000000000000001                                                   
9201805100000010000001000000060000000000000000000000000000000000000000000000001                                                 
