120170519PAGO FACIL               090060246MARITIMO SRL                                                                         
320170519000001MARITIMO SRL                                                                                                     
50000110201705182017051924011721649869       PES0000035000D002852017051810570046                                                
6024600035000171392401172164986900000000016                                                                                     
7PESE                                                                                000000000035000                            
50000210201705182017051924011720861895       PES0000035000A184922017051817100087                                                
6024600035000171442401172086189500000000021                                                                                     
7PESE                                                                                000000000035000                            
50000310201705182017051924011912673861       PES0000035000A184922017051817100088                                                
6024600035000171452401191267386100000000090                                                                                     
7PESE                                                                                000000000035000                            
50000410201705182017051900888838991042       PES0000117000A063662017051815510062                                                
6024600117000171380088883899104200000000084                                                                                     
7PESE                                                                                000000000117000                            
50000510201705182017051900888841159562       PES0000117000A156222017051818550133                                                
6024600117000171380088884115956200000000021                                                                                     
7PESE                                                                                000000000117000                            
82017051900000100000050000003390000000000000000000000000000000000000000000005                                                   
9201705190000010000005000000339000000000000000000000000000000000000000000000005                                                 
