120170714PAGO FACIL               090060246MARITIMO SRL                                                                         
320170714000001MARITIMO SRL                                                                                                     
50000110201707132017071476040529646078       PES0000020000A171562017071311050032                                                
6024600020000171947604052964607800000000021                                                                                     
7PESE                                                                                000000000020000                            
50000210201707132017071407051927179430       PES0000040000D002162017071313340110                                                
6024600040000171980705192717943000000000084                                                                                     
7PESE                                                                                000000000040000                            
50000310201707132017071482160330719412       PES0000048000A026682017071310400007                                                
6024600048000172008216033071941200030000063                                                                                     
7PESE                                                                                000000000048000                            
50000410201707132017071488080141459404       PES0000051000A134582017071316210117                                                
6024600051000172018808014145940400000000079                                                                                     
7PESE                                                                                000000000051000                            
50000510201707132017071400909033017484       PES0000117000D005852017071310380050                                                
6024600117000171950090903301748400000000099                                                                                     
7PESE                                                                                000000000117000                            
50000610201707132017071400909035607982       PES0000117000A147462017071311160016                                                
6024600117000171990090903560798200000000000                                                                                     
7PESE                                                                                000000000117000                            
50000710201707132017071400909035802269       PES0000117000A167982017071314510037                                                
6024600117000171990090903580226900000000084                                                                                     
7PESE                                                                                000000000117000                            
50000810201707132017071400898929316782       PES0000117000A159642017071317040020                                                
6024600117000172010089892931678200000000036                                                                                     
7PESE                                                                                000000000117000                            
50000910201707132017071400767635607982       PES0000187000A147462017071311170017                                                
6024600187000171960076763560798200130000463                                                                                     
7PESE                                                                                000000000187000                            
50001010201707132017071400757529316782       PES0000200000A159642017071317040019                                                
6024600200000172010075752931678200000000079                                                                                     
7PESE                                                                                000000000200000                            
82017071400000100000100000010140000000000000000000000000000000000000000000010                                                   
9201707140000010000010000001014000000000000000000000000000000000000000000000010                                                 
