120180115PAGO FACIL               090060246MARITIMO SRL                                                                         
320180115000001MARITIMO SRL                                                                                                     
50000110201801122018011582181520330038       PES0000042500A150232018011211280067                                                
6024600042500180178218152033003800000000000                                                                                     
7PESE                                                                                000000000042500                            
50000210201801122018011510082726577035       PES0000060000A174132018011213130039                                                
6024600060000180191008272657703500000000042                                                                                     
7PESE                                                                                000000000060000                            
50000310201801122018011582180625994165       PES0000042500A201542018011214320084                                                
6024600042500180178218062599416500000000036                                                                                     
7PESE                                                                                000000000042500                            
50000410201801122018011582181328648875       PES0000042500A136752018011216080014                                                
6024600042500180158218132864887500000000016                                                                                     
7PESE                                                                                000000000042500                            
50000510201801122018011582181425495152       PES0000042500A065952018011216580075                                                
6024600042500180158218142549515200000000079                                                                                     
7PESE                                                                                000000000042500                            
50000610201801132018011510082922363945       PES0000060000A082962018011310030046                                                
6024600060000180191008292236394500000000037                                                                                     
7PESE                                                                                000000000060000                            
50000710201801132018011510084025860200       PES0000060000A082962018011310080051                                                
6024600060000180191008402586020000000000042                                                                                     
7PESE                                                                                000000000060000                            
50000810201801132018011510081631750875       PES0000047000A082962018011310030045                                                
6024600047000180151008163175087500030000442                                                                                     
7PESE                                                                                000000000047000                            
82018011500000100000080000003970000000000000000000000000000000000000000000008                                                   
9201801150000010000008000000397000000000000000000000000000000000000000000000008                                                 
