120170112PAGO FACIL               090060246MARITIMO SRL                                                                         
320170112000001MARITIMO SRL                                                                                                     
50000110201701112017011282130135650076       PES0000029400A075132017011115030065                                                
6024600029400170178213013565007600000000042                                                                                     
7PESE                                                                                000000000029400                            
50000210201701112017011282131617291005       PES0000037800A073842017011112180023                                                
6024600037800170168213161729100500000000000                                                                                     
7PESE                                                                                000000000037800                            
50000310201701112017011282130622005412       PES0000037800A136362017011116590115                                                
6024600037800170178213062200541200000000057                                                                                     
7PESE                                                                                000000000037800                            
50000410201701112017011282130628935555       PES0000037800A147612017011118530015                                                
6024600037800170188213062893555500000000058                                                                                     
7PESE                                                                                000000000037800                            
50000510201701112017011282130911348758       PES0000037800A147482017011117500021                                                
6024600037800170188213091134875800000000084                                                                                     
7PESE                                                                                000000000037800                            
50000610201701112017011282131423771536       PES0000037800A163152017011115100016                                                
6024600037800170188213142377153600000000021                                                                                     
7PESE                                                                                000000000037800                            
50000710201701112017011218501314614712       PES0000100000A601492017011113180002                                                
6024600100000170171850131461471200200000021                                                                                     
7PESE                                                                                000000000100000                            
50000810201701112017011200555534482422       PES0000149500A181442017011118540052                                                
6024600149500170150055553448242200085000357                                                                                     
7PESE                                                                                000000000149500                            
50000910201701112017011257070722635322       PES0000150000D007762017011111030131                                                
6024600150000170115707072263532200000000021                                                                                     
7PESE                                                                                000000000150000                            
82017011200000100000090000006179000000000000000000000000000000000000000000009                                                   
9201701120000010000009000000617900000000000000000000000000000000000000000000009                                                 
