120170817PAGO FACIL               090060246MARITIMO SRL                                                                         
320170817000001MARITIMO SRL                                                                                                     
50000110201708162017081782160332603841       PES0000051000D002102017081614400026                                                
6024600051000172288216033260384100000000079                                                                                     
7PESE                                                                                000000000051000                            
50000210201708162017081788080139484999       PES0000051000A178292017081614210012                                                
6024600051000172348808013948499900000000021                                                                                     
7PESE                                                                                000000000051000                            
50000310201708162017081788080138146777       PES0000051000A074252017081609240030                                                
6024600051000172358808013814677700000000084                                                                                     
7PESE                                                                                000000000051000                            
82017081700000100000030000001530000000000000000000000000000000000000000000003                                                   
9201708170000010000003000000153000000000000000000000000000000000000000000000003                                                 
