120171110PAGO FACIL               090060246MARITIMO SRL                                                                         
320171110000001MARITIMO SRL                                                                                                     
50000110201711092017111006010324028411       PES0000020000A601832017110910570058                                                
6024600020000173140601032402841100000000021                                                                                     
7PESE                                                                                000000000020000                            
50000210201711092017111006010136819342       PES0000030000A168642017110913090036                                                
6024600030000173140601013681934200000000084                                                                                     
7PESE                                                                                000000000030000                            
50000310201711092017111010070142054654       PES0000045000A130932017110910560027                                                
6024600045000173181007014205465400000000021                                                                                     
7PESE                                                                                000000000045000                            
50000410201711092017111010071441385881       PES0000045000A130932017110910550026                                                
6024600045000173191007144138588100000000021                                                                                     
7PESE                                                                                000000000045000                            
50000510201711092017111000919129248146       PES0000117000A084922017110919110068                                                
6024600117000173200091912924814600000000078                                                                                     
7PESE                                                                                000000000117000                            
50000610201711092017111000808036080290       PES0000187000A184952017110912070041                                                
6024600187000173190080803608029000130000016                                                                                     
7PESE                                                                                000000000187000                            
82017111000000100000060000004440000000000000000000000000000000000000000000006                                                   
9201711100000010000006000000444000000000000000000000000000000000000000000000006                                                 
