120170710PAGO FACIL               090060246MARITIMO SRL                                                                         
320170710000001MARITIMO SRL                                                                                                     
50000110201707072017071000767611105201       PES0000175000A095702017070715100075                                                
6024600175000171880076761110520100120000716                                                                                     
7PESE                                                                                000000000175000                            
50000210201707072017071000767635266508       PES0000175000A171222017070715170036                                                
6024600175000171880076763526650800120000779                                                                                     
7PESE                                                                                000000000175000                            
50000310201707072017071000606038305442       PES0000158000A164952017070716590071                                                
6024600158000171940060603830544200000000042                                                                                     
7PESE                                                                                000000000158000                            
50000410201707072017071000767640468347       PES0000175000A153902017070717060038                                                
6024600175000171880076764046834700120000736                                                                                     
7PESE                                                                                000000000175000                            
50000510201707072017071000767635755164       PES0000175000A016922017070716110032                                                
6024600175000171880076763575516400120000663                                                                                     
7PESE                                                                                000000000175000                            
50000610201707072017071000767637431239       PES0000175000A043162017070718240001                                                
6024600175000171880076763743123900120000515                                                                                     
7PESE                                                                                000000000175000                            
50000710201707072017071000767640540364       PES0000175000A183382017070717550045                                                
6024600175000171880076764054036400120000778                                                                                     
7PESE                                                                                000000000175000                            
50000810201707072017071000767639910732       PES0000175000D000512017070715390068                                                
6024600175000171880076763991073200120000378                                                                                     
7PESE                                                                                000000000175000                            
50000910201707072017071000767641854077       PES0000175000D007992017070718000196                                                
6024600175000171880076764185407700120000515                                                                                     
7PESE                                                                                000000000175000                            
50001010201707072017071000909041854077       PES0000117000D007992017070718010197                                                
6024600117000171930090904185407700000000042                                                                                     
7PESE                                                                                000000000117000                            
50001110201707072017071000767640849713       PES0000175000A204132017070718270003                                                
6024600175000171880076764084971300120000715                                                                                     
7PESE                                                                                000000000175000                            
50001210201707072017071000909040849713       PES0000117000A204132017070718240002                                                
6024600117000171930090904084971300000000078                                                                                     
7PESE                                                                                000000000117000                            
50001310201707072017071000767630984899       PES0000175000D005282017070718430119                                                
6024600175000171880076763098489900120000736                                                                                     
7PESE                                                                                000000000175000                            
50001410201707072017071000888830984899       PES0000117000D005282017070718430120                                                
6024600117000171950088883098489900000000099                                                                                     
7PESE                                                                                000000000117000                            
50001510201707082017071000757535123263       PES0000200000A084922017070812130082                                                
6024600200000171930075753512326300000000078                                                                                     
7PESE                                                                                000000000200000                            
50001610201707082017071000767641640261       PES0000187000D005322017070814320151                                                
6024600175000171880076764164026100120000715                                                                                     
7PESE                                                                                000000000187000                            
50001710201707082017071000909038890969       PES0000117000D002822017070811200069                                                
6024600117000171950090903889096900000000015                                                                                     
7PESE                                                                                000000000117000                            
82017071000000100000170000027630000000000000000000000000000000000000000000017                                                   
9201707100000010000017000002763000000000000000000000000000000000000000000000017                                                 
