120180913PAGO FACIL               090060246MARITIMO SRL                                                                         
320180913000001MARITIMO SRL                                                                                                     
50000110201809122018091388100129083976       PES0000060000A073842018091217010045                                                
6024600060000182628810012908397600000000084                                                                                     
7PESE                                                                                000000000060000                            
50000210201809122018091388110134654227       PES0000100000A262152018091214100063                                                
6024600100000182608811013465422700000000057                                                                                     
7PESE                                                                                000000000100000                            
50000310201809122018091388110138230312       PES0000100000A262152018091214100064                                                
6024600100000182608811013823031200000000084                                                                                     
7PESE                                                                                000000000100000                            
50000410201809122018091301281241918958       PES0000171000A204432018091212540048                                                
6024600171000182580128124191895800085000315                                                                                     
7PESE                                                                                000000000171000                            
82018091300000100000040000004310000000000000000000000000000000000000000000004                                                   
9201809130000010000004000000431000000000000000000000000000000000000000000000004                                                 
