120180216PAGO FACIL               090060246MARITIMO SRL                                                                         
320180216000001MARITIMO SRL                                                                                                     
50000110201802152018021600818139466871       PES0000200000A182452018021509590054                                                
6024600200000180520081813946687100000000015                                                                                     
7PESE                                                                                000000000200000                            
82018021600000100000010000002000000000000000000000000000000000000000000000001                                                   
9201802160000010000001000000200000000000000000000000000000000000000000000000001                                                 
