120170118PAGO FACIL               090060246MARITIMO SRL                                                                         
320170118000001MARITIMO SRL                                                                                                     
50000110201701172017011882130123127244       PES0000029400D001892017011711550202                                                
6024600029400170188213012312724400000000057                                                                                     
7PESE                                                                                000000000029400                            
50000210201701172017011882130332649287       PES0000037800A071842017011715040128                                                
6024600037800170188213033264928700000000021                                                                                     
7PESE                                                                                000000000037800                            
50000310201701172017011800555536501237       PES0000158000A138392017011712340122                                                
6024600149500170150055553650123700085000542                                                                                     
7PESE                                                                                000000000158000                            
50000410201701172017011857070627528384       PES0000150000D004332017011717180066                                                
6024600150000170175707062752838400000000000                                                                                     
7PESE                                                                                000000000150000                            
50000510201701172017011800555532996726       PES0000158000A118982017011713020068                                                
6024600158000170310055553299672600000000063                                                                                     
7PESE                                                                                000000000158000                            
82017011800000100000050000005332000000000000000000000000000000000000000000005                                                   
9201701180000010000005000000533200000000000000000000000000000000000000000000005                                                 
