120171214PAGO FACIL               090060246MARITIMO SRL                                                                         
320171214000001MARITIMO SRL                                                                                                     
50000110201712132017121482180120055823       PES0000030000A174942017121311420017                                                
6024600030000173508218012005582300020000021                                                                                     
7PESE                                                                                000000000030000                            
50000210201712132017121482181520520261       PES0000040500A174942017121311430018                                                
6024600040500173508218152052026100020000015                                                                                     
7PESE                                                                                000000000040500                            
50000310201712132017121400818138992653       PES0000187000A175112017121312140084                                                
6024600187000173490081813899265300130000584                                                                                     
7PESE                                                                                000000000187000                            
82017121400000100000030000002575000000000000000000000000000000000000000000003                                                   
9201712140000010000003000000257500000000000000000000000000000000000000000000003                                                 
