120171211PAGO FACIL               090060246MARITIMO SRL                                                                         
320171211000001MARITIMO SRL                                                                                                     
50000110201712072017121100818139910732       PES0000175000A100002017120712140049                                                
6024600175000173410081813991073200120000537                                                                                     
7PESE                                                                                000000000175000                            
50000210201712072017121100818141835125       PES0000175000A009932017120711280038                                                
6024600175000173410081814183512500120000784                                                                                     
7PESE                                                                                000000000175000                            
50000310201712072017121100919141558730       PES0000117000A127422017120711580039                                                
6024600117000173480091914155873000000000084                                                                                     
7PESE                                                                                000000000117000                            
50000410201712072017121100818135069112       PES0000175000A220722017120716480039                                                
6024600175000173410081813506911200120000736                                                                                     
7PESE                                                                                000000000175000                            
50000510201712072017121100818137431239       PES0000175000A043162017120718080001                                                
6024600175000173410081813743123900120000478                                                                                     
7PESE                                                                                000000000175000                            
50000610201712072017121100818111105201       PES0000175000A049722017120716070021                                                
6024600175000173410081811110520100120000715                                                                                     
7PESE                                                                                000000000175000                            
50000710201712072017121100818141894632       PES0000175000A048292017120719470041                                                
6024600175000173410081814189463200120000763                                                                                     
7PESE                                                                                000000000175000                            
50000810201712092017121100818138069919       PES0000187000A076262017120912160055                                                
6024600187000173490081813806991900130000063                                                                                     
7PESE                                                                                000000000187000                            
50000910201712092017121100818140849713       PES0000187000D004462017120911040092                                                
6024600175000173410081814084971300120000678                                                                                     
7PESE                                                                                000000000187000                            
50001010201712092017121182181232383273       PES0000040500L260012017120913297322                                                
6024600040500173508218123238327300020000057                                                                                     
7PESE                                                                                000000000040500                            
50001110201712092017121182180430547794       PES0000040500L260012017120913307324                                                
6024600040500173508218043054779400020000042                                                                                     
7PESE                                                                                000000000040500                            
82017121100000100000110000016220000000000000000000000000000000000000000000011                                                   
9201712110000010000011000001622000000000000000000000000000000000000000000000011                                                 
