120171212PAGO FACIL               090060246MARITIMO SRL                                                                         
320171212000001MARITIMO SRL                                                                                                     
50000110201712112017121282180121653861       PES0000030000A177392017121112280054                                                
6024600030000173508218012165386100020000090                                                                                     
7PESE                                                                                000000000030000                            
50000210201712112017121200818138890969       PES0000187000A255082017121117530046                                                
6024600175000173410081813889096900120000758                                                                                     
7PESE                                                                                000000000187000                            
50000310201712112017121200818140863717       PES0000187000A173282017121120380018                                                
6024600187000173490081814086371700130000284                                                                                     
7PESE                                                                                000000000187000                            
82017121200000100000030000004040000000000000000000000000000000000000000000003                                                   
9201712120000010000003000000404000000000000000000000000000000000000000000000003                                                 
