120171018PAGO FACIL               090060246MARITIMO SRL                                                                         
320171018000001MARITIMO SRL                                                                                                     
50000110201710172017101879120822940602       PES0000171500A153122017101714220039                                                
6024600171500172977912082294060200000000036                                                                                     
7PESE                                                                                000000000171500                            
50000210201710172017101800797930984899       PES0000200000D008002017101718530480                                                
6024600187000172880079793098489900130000379                                                                                     
7PESE                                                                                000000000200000                            
50000310201710172017101800797941159562       PES0000200000A010922017101710210060                                                
6024600200000173040079794115956200000000084                                                                                     
7PESE                                                                                000000000200000                            
82017101800000100000030000005715000000000000000000000000000000000000000000003                                                   
9201710180000010000003000000571500000000000000000000000000000000000000000000003                                                 
