120170619PAGO FACIL               090060246MARITIMO SRL                                                                         
320170619000001MARITIMO SRL                                                                                                     
50000110201706162017061979110320593030       PES0000096500A063662017061610220061                                                
6024600096500171677911032059303000110000521                                                                                     
7PESE                                                                                000000000096500                            
50000210201706162017061979110133837240       PES0000096500A100292017061617260016                                                
6024600096500171677911013383724000110000584                                                                                     
7PESE                                                                                000000000096500                            
50000310201706162017061900757537273280       PES0000200000A088072017061617460025                                                
6024600187000171660075753727328000130000184                                                                                     
7PESE                                                                                000000000200000                            
50000410201706162017061979110513604300       PES0000096500D007542017061620250043                                                
6024600096500171677911051360430000110000457                                                                                     
7PESE                                                                                000000000096500                            
50000510201706162017061979110421865215       PES0000096500D007542017061620320050                                                
6024600096500171677911042186521500110000179                                                                                     
7PESE                                                                                000000000096500                            
82017061900000100000050000005860000000000000000000000000000000000000000000005                                                   
9201706190000010000005000000586000000000000000000000000000000000000000000000005                                                 
