120180111PAGO FACIL               090060246MARITIMO SRL                                                                         
320180111000001MARITIMO SRL                                                                                                     
50000110201801102018011182181518416530       PES0000042500A165762018011011210048                                                
6024600042500180118218151841653000000000058                                                                                     
7PESE                                                                                000000000042500                            
50000210201801102018011182180431453801       PES0000042500A215692018011010540064                                                
6024600042500180168218043145380100000000000                                                                                     
7PESE                                                                                000000000042500                            
50000310201801102018011182181234975959       PES0000042500A215692018011010540065                                                
6024600042500180168218123497595900000000021                                                                                     
7PESE                                                                                000000000042500                            
50000410201801102018011182181617672365       PES0000042500A214372018011012190003                                                
6024600042500180178218161767236500000000021                                                                                     
7PESE                                                                                000000000042500                            
50000510201801102018011110080336630006       PES0000047000A193122018011017360004                                                
6024600047000180101008033663000600000000037                                                                                     
7PESE                                                                                000000000047000                            
50000610201801102018011110080724872827       PES0000047000A151072018011016320034                                                
6024600047000180101008072487282700000000021                                                                                     
7PESE                                                                                000000000047000                            
50000710201801102018011110084023208542       PES0000060000A112392018011011340027                                                
6024600060000180101008402320854200000000037                                                                                     
7PESE                                                                                000000000060000                            
82018011100000100000070000003240000000000000000000000000000000000000000000007                                                   
9201801110000010000007000000324000000000000000000000000000000000000000000000007                                                 
