120170915PAGO FACIL               090060246MARITIMO SRL                                                                         
320170915000001MARITIMO SRL                                                                                                     
50000110201709142017091596010237351832       PES0000099000A155592017091412060072                                                
6024600099000172589601023735183200000000663                                                                                     
7PESE                                                                                000000000099000                            
50000210201709142017091596010240128970       PES0000099000A155592017091412060071                                                
6024600099000172589601024012897000000000684                                                                                     
7PESE                                                                                000000000099000                            
50000310201709142017091500909038069919       PES0000117000A077392017091416190020                                                
6024600117000172640090903806991900000000036                                                                                     
7PESE                                                                                000000000117000                            
50000410201709142017091500919138992653       PES0000117000A175112017091418510286                                                
6024600117000172640091913899265300000000042                                                                                     
7PESE                                                                                000000000117000                            
50000510201709142017091500979738069919       PES0000123500A077392017091416190019                                                
6024600123500172640097973806991900000000057                                                                                     
7PESE                                                                                000000000123500                            
50000610201709142017091500787835138572       PES0000187000A093012017091410550018                                                
6024600187000172580078783513857200130000557                                                                                     
7PESE                                                                                000000000187000                            
50000710201709142017091500787838992653       PES0000187000A175112017091418520287                                                
6024600187000172580078783899265300130000621                                                                                     
7PESE                                                                                000000000187000                            
50000810201709142017091500787841159562       PES0000187000A128132017091411110051                                                
6024600187000172580078784115956200130000579                                                                                     
7PESE                                                                                000000000187000                            
82017091500000100000080000011165000000000000000000000000000000000000000000008                                                   
9201709150000010000008000001116500000000000000000000000000000000000000000000008                                                 
