120171117PAGO FACIL               090060246MARITIMO SRL                                                                         
320171117000001MARITIMO SRL                                                                                                     
50000110201711162017111710070723355276       PES0000045000M601652017111614530101                                                
6024600045000173201007072335527600000000000                                                                                     
7PESE                                                                                000000000045000                            
50000210201711162017111710070821141848       PES0000045000A174532017111616560044                                                
6024600045000173201007082114184800000000016                                                                                     
7PESE                                                                                000000000045000                            
50000310201711162017111710071627387522       PES0000045000A129662017111617530063                                                
6024600045000173201007162738752200000000079                                                                                     
7PESE                                                                                000000000045000                            
50000410201711162017111710071722399405       PES0000045000A099522017111620110071                                                
6024600045000173201007172239940500000000078                                                                                     
7PESE                                                                                000000000045000                            
50000510201711162017111783051821729422       PES0000055000A076782017111609050028                                                
6024600055000173258305182172942200100000058                                                                                     
7PESE                                                                                000000000055000                            
50000610201711162017111783052625838674       PES0000055000A076782017111609040027                                                
6024600055000173258305262583867400100000021                                                                                     
7PESE                                                                                000000000055000                            
82017111700000100000060000002900000000000000000000000000000000000000000000006                                                   
9201711170000010000006000000290000000000000000000000000000000000000000000000006                                                 
