120170912PAGO FACIL               090060246MARITIMO SRL                                                                         
320170912000001MARITIMO SRL                                                                                                     
50000110201709112017091200909033813397       PES0000117000D001472017091117410151                                                
6024600117000172540090903381339700000000058                                                                                     
7PESE                                                                                000000000117000                            
50000210201709112017091200979739910732       PES0000123500D000052017091113200116                                                
6024600123500172550097973991073200000000063                                                                                     
7PESE                                                                                000000000123500                            
50000310201709112017091200787831603436       PES0000187000A158432017091117290048                                                
6024600187000172580078783160343600130000321                                                                                     
7PESE                                                                                000000000187000                            
50000410201709112017091200787840468347       PES0000187000A153902017091110560008                                                
6024600187000172580078784046834700130000263                                                                                     
7PESE                                                                                000000000187000                            
82017091200000100000040000006145000000000000000000000000000000000000000000004                                                   
9201709120000010000004000000614500000000000000000000000000000000000000000000004                                                 
