120180214PAGO FACIL               090060246MARITIMO SRL                                                                         
320180214000001MARITIMO SRL                                                                                                     
50000110201802092018021400818131603436       PES0000200000A138392018020915130026                                                
6024600200000180460081813160343600000000058                                                                                     
7PESE                                                                                000000000200000                            
82018021400000100000010000002000000000000000000000000000000000000000000000001                                                   
9201802140000010000001000000200000000000000000000000000000000000000000000000001                                                 
