120171115PAGO FACIL               090060246MARITIMO SRL                                                                         
320171115000001MARITIMO SRL                                                                                                     
50000110201711142017111510070437905219       PES0000045000A059442017111412010069                                                
6024600045000173191007043790521900000000063                                                                                     
7PESE                                                                                000000000045000                            
50000210201711142017111510071529827164       PES0000045000A200452017111416000049                                                
6024600045000173191007152982716400000000063                                                                                     
7PESE                                                                                000000000045000                            
50000310201711142017111510071723477821       PES0000045000A220722017111417590026                                                
6024600045000173191007172347782100000000099                                                                                     
7PESE                                                                                000000000045000                            
82017111500000100000030000001350000000000000000000000000000000000000000000003                                                   
9201711150000010000003000000135000000000000000000000000000000000000000000000003                                                 
