120170110PAGO FACIL               090060246MARITIMO SRL                                                                         
320170110000001MARITIMO SRL                                                                                                     
50000110201701092017011000555541352567       PES0000149500A090072017010912150061                                                
6024600149500170150055554135256700085000121                                                                                     
7PESE                                                                                000000000149500                            
82017011000000100000010000001495000000000000000000000000000000000000000000001                                                   
9201701100000010000001000000149500000000000000000000000000000000000000000000001                                                 
