120180118PAGO FACIL               090060246MARITIMO SRL                                                                         
320180118000001MARITIMO SRL                                                                                                     
50000110201801172018011882180138615760       PES0000032000L193472018011717521474                                                
6024600032000180178218013861576000000000000                                                                                     
7PESE                                                                                000000000032000                            
50000210201801172018011882180432261410       PES0000042500A199042018011715380045                                                
6024600042500180178218043226141000000000036                                                                                     
7PESE                                                                                000000000042500                            
50000310201801172018011882181234400549       PES0000042500A048412018011720040030                                                
6024600042500180178218123440054900000000042                                                                                     
7PESE                                                                                000000000042500                            
50000410201801172018011810081820617888       PES0000050000D005282018011719060097                                                
6024600050000180191008182061788800000000021                                                                                     
7PESE                                                                                000000000050000                            
82018011800000100000040000001670000000000000000000000000000000000000000000004                                                   
9201801180000010000004000000167000000000000000000000000000000000000000000000004                                                 
