120180912PAGO FACIL               090060246MARITIMO SRL                                                                         
320180912000001MARITIMO SRL                                                                                                     
50000110201809112018091201011035367988       PES0000276303A159382018091117220022                                                
6024600276303182610101103536798800000360036                                                                                     
7PESE                                                                                000000000276303                            
82018091200000100000010000002763030000000000000000000000000000000000000000001                                                   
9201809120000010000001000000276303000000000000000000000000000000000000000000001                                                 
