120171114PAGO FACIL               090060246MARITIMO SRL                                                                         
320171114000001MARITIMO SRL                                                                                                     
50000110201711132017111410071916226323       PES0000045000A192982017111310500018                                                
6024600045000173171007191622632300000000084                                                                                     
7PESE                                                                                000000000045000                            
50000210201711132017111410070820572712       PES0000045000A043552017111317390067                                                
6024600045000173191007082057271200000000078                                                                                     
7PESE                                                                                000000000045000                            
50000310201711132017111410071528802817       PES0000045000A167562017111312060037                                                
6024600045000173191007152880281700000000015                                                                                     
7PESE                                                                                000000000045000                            
50000410201711132017111410071530892838       PES0000045000A167562017111312050036                                                
6024600045000173191007153089283800000000063                                                                                     
7PESE                                                                                000000000045000                            
50000510201711132017111410071722493698       PES0000045000A201542017111318250141                                                
6024600045000173191007172249369800000000042                                                                                     
7PESE                                                                                000000000045000                            
50000610201711132017111400808040537317       PES0000187000A197602017111317410044                                                
6024600187000173190080804053731700130000557                                                                                     
7PESE                                                                                000000000187000                            
82017111400000100000060000004120000000000000000000000000000000000000000000006                                                   
9201711140000010000006000000412000000000000000000000000000000000000000000000006                                                 
