120170713PAGO FACIL               090060246MARITIMO SRL                                                                         
320170713000001MARITIMO SRL                                                                                                     
50000110201707122017071300757537124233       PES0000200000A175102017071118430153                                                
6024600200000171990075753712423300000000021                                                                                     
7PESE                                                                                000000000200000                            
50000210201707122017071300898937124233       PES0000117000A175102017071118430152                                                
6024600117000171990089893712423300000000079                                                                                     
7PESE                                                                                000000000117000                            
50000310201707122017071376040527688672       PES0000020000A161752017071212530097                                                
6024600020000171947604052768867200000000021                                                                                     
7PESE                                                                                000000000020000                            
50000410201707122017071307052718322295       PES0000040000D002852017071210300032                                                
6024600040000171940705271832229500000000063                                                                                     
7PESE                                                                                000000000040000                            
50000510201707122017071307052737870267       PES0000040000D002852017071210300031                                                
6024600040000171940705273787026700000000021                                                                                     
7PESE                                                                                000000000040000                            
50000610201707122017071388080124577150       PES0000051000A166382017071209540086                                                
6024600051000172008808012457715000000000036                                                                                     
7PESE                                                                                000000000051000                            
82017071300000100000060000004680000000000000000000000000000000000000000000006                                                   
9201707130000010000006000000468000000000000000000000000000000000000000000000006                                                 
