120170810PAGO FACIL               090060246MARITIMO SRL                                                                         
320170810000001MARITIMO SRL                                                                                                     
50000110201708092017081082161328649169       PES0000051000A016962017080916160062                                                
6024600051000172278216132864916900000000000                                                                                     
7PESE                                                                                000000000051000                            
50000210201708092017081000919139910732       PES0000117000D005772017080912440048                                                
6024600117000172220091913991073200000000079                                                                                     
7PESE                                                                                000000000117000                            
50000310201708092017081000919140849713       PES0000117000A204132017080918430004                                                
6024600117000172280091914084971300000000042                                                                                     
7PESE                                                                                000000000117000                            
50000410201708092017081000969639910732       PES0000123500D005772017080912430047                                                
6024600123500172220096963991073200000000058                                                                                     
7PESE                                                                                000000000123500                            
50000510201708092017081000969640954967       PES0000123500A160362017080910510014                                                
6024600123500172260096964095496700000000063                                                                                     
7PESE                                                                                000000000123500                            
50000610201708092017081000777735266508       PES0000187000A171212017080912080048                                                
6024600187000172270077773526650800130000158                                                                                     
7PESE                                                                                000000000187000                            
50000710201708092017081000777741835125       PES0000187000A188582017080910570045                                                
6024600187000172270077774183512500130000036                                                                                     
7PESE                                                                                000000000187000                            
50000810201708092017081000767640514756       PES0000200000A206262017080911590044                                                
6024600200000172280076764051475600000000015                                                                                     
7PESE                                                                                000000000200000                            
82017081000000100000080000011060000000000000000000000000000000000000000000008                                                   
9201708100000010000008000001106000000000000000000000000000000000000000000000008                                                 
