120171219PAGO FACIL               090060246MARITIMO SRL                                                                         
320171219000001MARITIMO SRL                                                                                                     
50000110201712182017121982181230803082       PES0000040500D001712017121810020002                                                
6024600040500173528218123080308200020000021                                                                                     
7PESE                                                                                000000000040500                            
82017121900000100000010000000405000000000000000000000000000000000000000000001                                                   
9201712190000010000001000000040500000000000000000000000000000000000000000000001                                                 
