120171011PAGO FACIL               090060246MARITIMO SRL                                                                         
320171011000001MARITIMO SRL                                                                                                     
50000110201710102017101100797935028842       PES0000187000A127462017101015220014                                                
6024600187000172880079793502884200130000137                                                                                     
7PESE                                                                                000000000187000                            
82017101100000100000010000001870000000000000000000000000000000000000000000001                                                   
9201710110000010000001000000187000000000000000000000000000000000000000000000001                                                 
