120170411PAGO FACIL               090060246MARITIMO SRL                                                                         
320170411000001MARITIMO SRL                                                                                                     
50000110201704102017041100737341756804       PES0000187000A150942017041012250072                                                
6024600175000170970073734175680400120000637                                                                                     
7PESE                                                                                000000000187000                            
50000210201704102017041100737328523369       PES0000187000A175122017041010080015                                                
6024600187000171050073732852336900130000299                                                                                     
7PESE                                                                                000000000187000                            
50000310201704102017041100737335186823       PES0000187000A166652017041012350063                                                
6024600187000171050073733518682300130000200                                                                                     
7PESE                                                                                000000000187000                            
82017041100000100000030000005610000000000000000000000000000000000000000000003                                                   
9201704110000010000003000000561000000000000000000000000000000000000000000000003                                                 
