120170613PAGO FACIL               090060246MARITIMO SRL                                                                         
320170613000001MARITIMO SRL                                                                                                     
50000110201706122017061379110400000000       PES0000096500A074252017061215340059                                                
6024600096500171657911040000000000110000063                                                                                     
7PESE                                                                                000000000096500                            
50000210201706122017061300888828523369       PES0000117000A175092017061216490267                                                
6024600117000171700088882852336900000000000                                                                                     
7PESE                                                                                000000000117000                            
50000310201706122017061300888838069919       PES0000117000A076262017061212250015                                                
6024600117000171700088883806991900000000078                                                                                     
7PESE                                                                                000000000117000                            
82017061300000100000030000003305000000000000000000000000000000000000000000003                                                   
9201706130000010000003000000330500000000000000000000000000000000000000000000003                                                 
