120170616PAGO FACIL               090060246MARITIMO SRL                                                                         
320170616000001MARITIMO SRL                                                                                                     
50000110201706152017061604011414059144       PES0000038500D000882017061515480327                                                
6024600038500171680401141405914400015000484                                                                                     
7PESE                                                                                000000000038500                            
50000210201706152017061600898935802269       PES0000117000A193002017061512170092                                                
6024600117000171690089893580226900000000063                                                                                     
7PESE                                                                                000000000117000                            
50000310201706152017061600595935229831       PES0000158000A174532017061517410066                                                
6024600158000171730059593522983100000000099                                                                                     
7PESE                                                                                000000000158000                            
50000410201706152017061600757528523369       PES0000187000A175122017061519060080                                                
6024600187000171660075752852336900130000763                                                                                     
7PESE                                                                                000000000187000                            
82017061600000100000040000005005000000000000000000000000000000000000000000004                                                   
9201706160000010000004000000500500000000000000000000000000000000000000000000004                                                 
