120170918PAGO FACIL               090060246MARITIMO SRL                                                                         
320170918000001MARITIMO SRL                                                                                                     
50000110201709162017091879121113620188       PES0000145000A128982017091609470030                                                
6024600145000172657912111362018800265000099                                                                                     
7PESE                                                                                000000000145000                            
50000210201709162017091800979737273280       PES0000123500A177772017091617260035                                                
6024600123500172610097973727328000000000084                                                                                     
7PESE                                                                                000000000123500                            
50000310201709162017091800787837273280       PES0000200000A177772017091617280036                                                
6024600187000172580078783727328000130000342                                                                                     
7PESE                                                                                000000000200000                            
50000410201709172017091879120627278940       PES0000145000A073202017091712010063                                                
6024600145000172667912062727894000265000000                                                                                     
7PESE                                                                                000000000145000                            
82017091800000100000040000006135000000000000000000000000000000000000000000004                                                   
9201709180000010000004000000613500000000000000000000000000000000000000000000004                                                 
