120180917PAGO FACIL               090060246MARITIMO SRL                                                                         
320180917000001MARITIMO SRL                                                                                                     
50000110201809142018091724023529705624       PES0000090000D007542018091415410016                                                
6024600090000182642402352970562400100000021                                                                                     
7PESE                                                                                000000000090000                            
50000210201809152018091701281239657365       PES0000171000D004282018091515280006                                                
6024600171000182580128123965736500085000763                                                                                     
7PESE                                                                                000000000171000                            
82018091700000100000020000002610000000000000000000000000000000000000000000002                                                   
9201809170000010000002000000261000000000000000000000000000000000000000000000002                                                 
