120180619PAGO FACIL               090060246MARITIMO SRL                                                                         
320180619000001MARITIMO SRL                                                                                                     
50000110201806182018061902644420832782       PES0000090600D008072018061814460155                                                
6024600090600181730264442083278200159000099                                                                                     
7PESE                                                                                000000000090600                            
82018061900000100000010000000906000000000000000000000000000000000000000000001                                                   
9201806190000010000001000000090600000000000000000000000000000000000000000000001                                                 
