120170711PAGO FACIL               090060246MARITIMO SRL                                                                         
320170711000001MARITIMO SRL                                                                                                     
50000110201707102017071100909039910732       PES0000117000D005792017071013070047                                                
6024600117000171910090903991073200000000084                                                                                     
7PESE                                                                                000000000117000                            
50000210201707102017071100909040863717       PES0000117000A177772017071017430015                                                
6024600117000171940090904086371700000000058                                                                                     
7PESE                                                                                000000000117000                            
50000310201707102017071100888837010193       PES0000117000D007992017071020230376                                                
6024600117000171980088883701019300000000021                                                                                     
7PESE                                                                                000000000117000                            
50000410201707102017071100909039466871       PES0000117000A124962017071017340034                                                
6024600117000171980090903946687100000000037                                                                                     
7PESE                                                                                000000000117000                            
50000510201707102017071100606035229831       PES0000158000A194402017071016560066                                                
6024600158000171950060603522983100000000078                                                                                     
7PESE                                                                                000000000158000                            
50000610201707102017071100767633017484       PES0000187000A145662017071013210034                                                
6024600175000171880076763301748400120000742                                                                                     
7PESE                                                                                000000000187000                            
50000710201707102017071100767640863717       PES0000187000A177772017071017450016                                                
6024600175000171880076764086371700120000616                                                                                     
7PESE                                                                                000000000187000                            
50000810201707102017071100767639466871       PES0000187000A124962017071017340035                                                
6024600187000171960076763946687100130000278                                                                                     
7PESE                                                                                000000000187000                            
50000910201707102017071100757538079676       PES0000200000A163452017071016570061                                                
6024600200000171980075753807967600000000021                                                                                     
7PESE                                                                                000000000200000                            
82017071100000100000090000013870000000000000000000000000000000000000000000009                                                   
9201707110000010000009000001387000000000000000000000000000000000000000000000009                                                 
