120180412PAGO FACIL               090060246MARITIMO SRL                                                                         
320180412000001MARITIMO SRL                                                                                                     
50000110201804112018041212011221431014       PES0000065000D007542018041121060053                                                
6024600065000181051201122143101400000000063                                                                                     
7PESE                                                                                000000000065000                            
50000210201804112018041299350124671366       PES0000130000A088822018041109460018                                                
6024600130000181079935012467136600000000016                                                                                     
7PESE                                                                                000000000130000                            
82018041200000100000020000001950000000000000000000000000000000000000000000002                                                   
9201804120000010000002000000195000000000000000000000000000000000000000000000002                                                 
