120180316PAGO FACIL               090060246MARITIMO SRL                                                                         
320180316000001MARITIMO SRL                                                                                                     
50000110201803152018031610092731877557       PES0000065000D001922018031518550135                                                
6024600065000180751009273187755700000000000                                                                                     
7PESE                                                                                000000000065000                            
82018031600000100000010000000650000000000000000000000000000000000000000000001                                                   
9201803160000010000001000000065000000000000000000000000000000000000000000000001                                                 
