120180612PAGO FACIL               090060246MARITIMO SRL                                                                         
320180612000001MARITIMO SRL                                                                                                     
50000110201806112018061276050142214779       PES0000020000A226982018061112350023                                                
6024600020000181637605014221477900050000042                                                                                     
7PESE                                                                                000000000020000                            
50000210201806112018061276050721475006       PES0000020000A226982018061112350022                                                
6024600020000181637605072147500600050000000                                                                                     
7PESE                                                                                000000000020000                            
82018061200000100000020000000400000000000000000000000000000000000000000000002                                                   
9201806120000010000002000000040000000000000000000000000000000000000000000000002                                                 
