120180416PAGO FACIL               090060246MARITIMO SRL                                                                         
320180416000001MARITIMO SRL                                                                                                     
50000110201804132018041612010328379799       PES0000042000A033562018041310300019                                                
6024600042000181051201032837979900000000015                                                                                     
7PESE                                                                                000000000042000                            
82018041600000100000010000000420000000000000000000000000000000000000000000001                                                   
9201804160000010000001000000042000000000000000000000000000000000000000000000001                                                 
