120170717PAGO FACIL               090060246MARITIMO SRL                                                                         
320170717000001MARITIMO SRL                                                                                                     
50000110201707142017071788080133551711       PES0000051000A186842017071416080018                                                
6024600051000172028808013355171100000000084                                                                                     
7PESE                                                                                000000000051000                            
50000210201707152017071776040721113452       PES0000020000A126992017071510250009                                                
6024600020000172027604072111345200000000079                                                                                     
7PESE                                                                                000000000020000                            
50000310201707152017071788080138230312       PES0000051000A138512017071513490116                                                
6024600051000172028808013823031200000000021                                                                                     
7PESE                                                                                000000000051000                            
50000410201707152017071788080136476105       PES0000051000A187902017071515320033                                                
6024600051000171978808013647610500000000063                                                                                     
7PESE                                                                                000000000051000                            
50000510201707152017071776040623594051       PES0000020000D004502017071519290172                                                
6024600020000172017604062359405100000000084                                                                                     
7PESE                                                                                000000000020000                            
82017071700000100000050000001930000000000000000000000000000000000000000000005                                                   
9201707170000010000005000000193000000000000000000000000000000000000000000000005                                                 
