120180314PAGO FACIL               090060246MARITIMO SRL                                                                         
320180314000001MARITIMO SRL                                                                                                     
50000110201803132018031410091527902303       PES0000055000A144222018031312330040                                                
6024600055000180751009152790230300000000037                                                                                     
7PESE                                                                                000000000055000                            
50000210201803132018031410091725704979       PES0000055000A122672018031313430008                                                
6024600055000180751009172570497900000000063                                                                                     
7PESE                                                                                000000000055000                            
50000310201803132018031410094926390457       PES0000055000D004852018031317580302                                                
6024600055000180751009492639045700000000021                                                                                     
7PESE                                                                                000000000055000                            
50000410201803132018031410092538229319       PES0000065000A138562018031312180013                                                
6024600065000180751009253822931900000000021                                                                                     
7PESE                                                                                000000000065000                            
50000510201803132018031410093535582055       PES0000065000A188582018031317180006                                                
6024600065000180751009353558205500000000079                                                                                     
7PESE                                                                                000000000065000                            
50000610201803132018031410094308400654       PES0000065000A145972018031318450039                                                
6024600065000180751009430840065400000000036                                                                                     
7PESE                                                                                000000000065000                            
82018031400000100000060000003600000000000000000000000000000000000000000000006                                                   
9201803140000010000006000000360000000000000000000000000000000000000000000000006                                                 
