120180413PAGO FACIL               090060246MARITIMO SRL                                                                         
320180413000001MARITIMO SRL                                                                                                     
50000110201804122018041312011717549041       PES0000065000A086812018041218520031                                                
6024600065000181051201171754904100000000016                                                                                     
7PESE                                                                                000000000065000                            
82018041300000100000010000000650000000000000000000000000000000000000000000001                                                   
9201804130000010000001000000065000000000000000000000000000000000000000000000001                                                 
