120170919PAGO FACIL               090060246MARITIMO SRL                                                                         
320170919000001MARITIMO SRL                                                                                                     
50000110201709182017091900969639466871       PES0000123500A203882017091811470036                                                
6024600123500172630096963946687100000000084                                                                                     
7PESE                                                                                000000000123500                            
50000210201709182017091900969636399360       PES0000123500A127812017091812100091                                                
6024600123500172680096963639936000000000078                                                                                     
7PESE                                                                                000000000123500                            
50000310201709182017091900787839466871       PES0000200000A203882017091811470037                                                
6024600187000172580078783946687100130000599                                                                                     
7PESE                                                                                000000000200000                            
82017091900000100000030000004470000000000000000000000000000000000000000000003                                                   
9201709190000010000003000000447000000000000000000000000000000000000000000000003                                                 
