120170111PAGO FACIL               090060246MARITIMO SRL                                                                         
320170111000001MARITIMO SRL                                                                                                     
50000110201701102017011110050822337631       PES0000058000L193892017010520130053                                                
6024600058000170051005082233763100000000058                                                                                     
7PESE                                                                                000000000058000                            
50000210201701102017011100555538056001       PES0000149500D002462017010916530120                                                
6024600149500170150055553805600100085000136                                                                                     
7PESE                                                                                000000000149500                            
50000310201701102017011182130718004434       PES0000037800A162712017011019090090                                                
6024600037800170178213071800443400000000058                                                                                     
7PESE                                                                                000000000037800                            
50000410201701102017011182130814276481       PES0000037800A031192017011017040023                                                
6024600037800170178213081427648100000000079                                                                                     
7PESE                                                                                000000000037800                            
50000510201701102017011182131810462514       PES0000037800A164952017011014580012                                                
6024600037800170178213181046251400000000099                                                                                     
7PESE                                                                                000000000037800                            
50000610201701102017011118503620748458       PES0000090000A177912017011011090006                                                
6024600090000170131850362074845800100000084                                                                                     
7PESE                                                                                000000000090000                            
82017011100000100000060000004109000000000000000000000000000000000000000000006                                                   
9201701110000010000006000000410900000000000000000000000000000000000000000000006                                                 
