120170815PAGO FACIL               090060246MARITIMO SRL                                                                         
320170815000001MARITIMO SRL                                                                                                     
50000110201708142017081582162325715963       PES0000066000A153632017081417110090                                                
6024600066000172288216232571596300000000000                                                                                     
7PESE                                                                                000000000066000                            
50000210201708142017081500909038992653       PES0000117000D002092017081418290074                                                
6024600117000172330090903899265300000000021                                                                                     
7PESE                                                                                000000000117000                            
50000310201708142017081500777730984899       PES0000187000D005272017081420100073                                                
6024600175000172190077773098489900120000721                                                                                     
7PESE                                                                                000000000187000                            
50000410201708142017081500777740537317       PES0000187000A197602017081417110015                                                
6024600187000172270077774053731700130000642                                                                                     
7PESE                                                                                000000000187000                            
82017081500000100000040000005570000000000000000000000000000000000000000000004                                                   
9201708150000010000004000000557000000000000000000000000000000000000000000000004                                                 
