120180411PAGO FACIL               090060246MARITIMO SRL                                                                         
320180411000001MARITIMO SRL                                                                                                     
50000110201804102018041112011329705624       PES0000065000A194602018041015200051                                                
6024600065000181051201132970562400000000042                                                                                     
7PESE                                                                                000000000065000                            
82018041100000100000010000000650000000000000000000000000000000000000000000001                                                   
9201804110000010000001000000065000000000000000000000000000000000000000000000001                                                 
