120170719PAGO FACIL               090060246MARITIMO SRL                                                                         
320170719000001MARITIMO SRL                                                                                                     
50000110201707182017071907052121592940       PES0000040000A108712017071812430023                                                
6024600040000172000705212159294000000000084                                                                                     
7PESE                                                                                000000000040000                            
50000210201707182017071900909041640261       PES0000117000A073062017071813130095                                                
6024600117000171990090904164026100000000042                                                                                     
7PESE                                                                                000000000117000                            
82017071900000100000020000001570000000000000000000000000000000000000000000002                                                   
9201707190000010000002000000157000000000000000000000000000000000000000000000002                                                 
