120170816PAGO FACIL               090060246MARITIMO SRL                                                                         
320170816000001MARITIMO SRL                                                                                                     
50000110201708152017081607062024190608       PES0000035000A113032017081510320043                                                
6024600035000172340706202419060800050000016                                                                                     
7PESE                                                                                000000000035000                            
50000210201708152017081607062122061839       PES0000035000A113032017081510330044                                                
6024600035000172340706212206183900050000058                                                                                     
7PESE                                                                                000000000035000                            
50000310201708152017081682160427860441       PES0000051000A186582017081516030050                                                
6024600051000172288216042786044100000000084                                                                                     
7PESE                                                                                000000000051000                            
50000410201708152017081600919141159562       PES0000117000A010922017081509330024                                                
6024600117000172300091914115956200000000042                                                                                     
7PESE                                                                                000000000117000                            
50000510201708152017081600909040540364       PES0000117000A183382017081517530048                                                
6024600117000172340090904054036400000000099                                                                                     
7PESE                                                                                000000000117000                            
50000610201708152017081600777741159562       PES0000187000A010922017081509320023                                                
6024600187000172270077774115956200130000699                                                                                     
7PESE                                                                                000000000187000                            
82017081600000100000060000005420000000000000000000000000000000000000000000006                                                   
9201708160000010000006000000542000000000000000000000000000000000000000000000006                                                 
