120170718PAGO FACIL               090060246MARITIMO SRL                                                                         
320170718000001MARITIMO SRL                                                                                                     
50000110201707172017071807052727559103       PES0000040000A198032017071717330019                                                
6024600040000172030705272755910300000000042                                                                                     
7PESE                                                                                000000000040000                            
50000210201707172017071882161712702280       PES0000048000A160782017071713350005                                                
6024600048000172048216171270228000030000078                                                                                     
7PESE                                                                                000000000048000                            
82017071800000100000020000000880000000000000000000000000000000000000000000002                                                   
9201707180000010000002000000088000000000000000000000000000000000000000000000002                                                 
