120170419PAGO FACIL               090060246MARITIMO SRL                                                                         
320170419000001MARITIMO SRL                                                                                                     
50000110201704182017041982142532668104       PES0000037000A086812017041818220145                                                
6024600037000171118214253266810400000000016                                                                                     
7PESE                                                                                000000000037000                            
82017041900000100000010000000370000000000000000000000000000000000000000000001                                                   
9201704190000010000001000000037000000000000000000000000000000000000000000000001                                                 
