120170410PAGO FACIL               090060246MARITIMO SRL                                                                         
320170410000001MARITIMO SRL                                                                                                     
50000110201704072017041024012616583825       PES0000025000A128792017040708130021                                                
6024600025000171002401261658382500050000263                                                                                     
7PESE                                                                                000000000025000                            
50000210201704072017041000737335069112       PES0000175000A148342017040710100085                                                
6024600175000170970073733506911200120000521                                                                                     
7PESE                                                                                000000000175000                            
50000310201704072017041000585838152371       PES0000140000A085342017040711500113                                                
6024600140000170970058583815237100095000784                                                                                     
7PESE                                                                                000000000140000                            
50000410201704072017041000585839000464       PES0000140000A172502017040710330043                                                
6024600140000170970058583900046400095000684                                                                                     
7PESE                                                                                000000000140000                            
50000510201704072017041000737338992254       PES0000175000A174222017040711090051                                                
6024600175000170970073733899225400120000579                                                                                     
7PESE                                                                                000000000175000                            
50000610201704072017041000737341645696       PES0000175000A132792017040712200104                                                
6024600175000170970073734164569600120000484                                                                                     
7PESE                                                                                000000000175000                            
50000710201704072017041000737337124233       PES0000175000A183332017040713340085                                                
6024600175000170970073733712423300120000684                                                                                     
7PESE                                                                                000000000175000                            
50000810201704072017041000737336399360       PES0000175000A127792017040714230048                                                
6024600175000170970073733639936000120000778                                                                                     
7PESE                                                                                000000000175000                            
50000910201704072017041000585835962736       PES0000140000D005342017040714460279                                                
6024600140000170970058583596273600095000737                                                                                     
7PESE                                                                                000000000140000                            
50001010201704072017041000737340729235       PES0000175000A085342017040714480065                                                
6024600175000170970073734072923500120000584                                                                                     
7PESE                                                                                000000000175000                            
50001110201704072017041000737333944863       PES0000175000A097452017040713100049                                                
6024600175000170970073733394486300120000699                                                                                     
7PESE                                                                                000000000175000                            
50001210201704072017041000585837597478       PES0000140000A144232017040717540114                                                
6024600140000170970058583759747800095000799                                                                                     
7PESE                                                                                000000000140000                            
50001310201704072017041000737338150845       PES0000175000A171422017040716500036                                                
6024600175000170970073733815084500120000737                                                                                     
7PESE                                                                                000000000175000                            
50001410201704072017041000737342111158       PES0000175000A148862017040716520035                                                
6024600175000170970073734211115800120000542                                                                                     
7PESE                                                                                000000000175000                            
50001510201704072017041000737336288968       PES0000175000A160722017040711190036                                                
6024600175000170970073733628896800120000636                                                                                     
7PESE                                                                                000000000175000                            
50001610201704072017041000585838616215       PES0000140000A082962017040716000015                                                
6024600140000170970058583861621500095000763                                                                                     
7PESE                                                                                000000000140000                            
50001710201704072017041000585838305442       PES0000140000A031182017040717450064                                                
6024600140000170970058583830544200095000716                                                                                     
7PESE                                                                                000000000140000                            
50001810201704072017041000737341894632       PES0000175000A048292017040718280040                                                
6024600175000170970073734189463200120000721                                                                                     
7PESE                                                                                000000000175000                            
50001910201704072017041000737341854077       PES0000175000D001722017040718540116                                                
6024600175000170970073734185407700120000563                                                                                     
7PESE                                                                                000000000175000                            
50002010201704072017041000737338992653       PES0000175000D002092017040718440048                                                
6024600175000170970073733899265300120000700                                                                                     
7PESE                                                                                000000000175000                            
50002110201704072017041000737341615094       PES0000175000D006742017040718410106                                                
6024600175000170970073734161509400120000499                                                                                     
7PESE                                                                                000000000175000                            
50002210201704072017041000737330984899       PES0000175000D005282017040719110145                                                
6024600175000170970073733098489900120000784                                                                                     
7PESE                                                                                000000000175000                            
50002310201704072017041000737337040427       PES0000175000L192762017040717341677                                                
6024600175000170970073733704042700120000799                                                                                     
7PESE                                                                                000000000175000                            
50002410201704082017041000737337431239       PES0000175000A043162017040718530004                                                
6024600175000170970073733743123900120000563                                                                                     
7PESE                                                                                000000000175000                            
82017041000000100000240000038400000000000000000000000000000000000000000000024                                                   
9201704100000010000024000003840000000000000000000000000000000000000000000000024                                                 
