120170612PAGO FACIL               090060246MARITIMO SRL                                                                         
320170612000001MARITIMO SRL                                                                                                     
50000110201706092017061299250322124683       PES0000030000M602012017060809370008                                                
6024600030000171609925032212468300000000099                                                                                     
7PESE                                                                                000000000030000                            
50000210201706092017061200898940954967       PES0000117000A160362017060910380056                                                
6024600117000171670089894095496700000000058                                                                                     
7PESE                                                                                000000000117000                            
50000310201706092017061200757540954967       PES0000187000A160362017060910380057                                                
6024600187000171660075754095496700130000157                                                                                     
7PESE                                                                                000000000187000                            
50000410201706092017061200606034482422       PES0000149500A145052017060912260027                                                
6024600149500171660060603448242200085000121                                                                                     
7PESE                                                                                000000000149500                            
50000510201706092017061200757538992653       PES0000187000A175112017060917140122                                                
6024600187000171660075753899265300130000158                                                                                     
7PESE                                                                                000000000187000                            
50000610201706092017061200757529248692       PES0000187000A139132017060918440018                                                
6024600187000171660075752924869200130000184                                                                                     
7PESE                                                                                000000000187000                            
82017061200000100000060000008575000000000000000000000000000000000000000000006                                                   
9201706120000010000006000000857500000000000000000000000000000000000000000000006                                                 
