120171017PAGO FACIL               090060246MARITIMO SRL                                                                         
320171017000001MARITIMO SRL                                                                                                     
50000110201710132017101700797941615094       PES0000187000A152492017101314130033                                                
6024600187000172880079794161509400130000116                                                                                     
7PESE                                                                                000000000187000                            
50000210201710132017101700797937040427       PES0000187000L192762017101317302513                                                
6024600187000172880079793704042700130000557                                                                                     
7PESE                                                                                000000000187000                            
50000310201710142017101700777735123263       PES0000200000A084922017101412190035                                                
6024600200000172910077773512326300000000042                                                                                     
7PESE                                                                                000000000200000                            
82017101700000100000030000005740000000000000000000000000000000000000000000003                                                   
9201710170000010000003000000574000000000000000000000000000000000000000000000003                                                 
