120180319PAGO FACIL               090060246MARITIMO SRL                                                                         
320180319000001MARITIMO SRL                                                                                                     
50000110201803162018031910093633860220       PES0000065000A261622018031611350018                                                
6024600065000180751009363386022000000000058                                                                                     
7PESE                                                                                000000000065000                            
50000210201803162018031910093730340718       PES0000065000A261622018031611350019                                                
6024600065000180751009373034071800000000036                                                                                     
7PESE                                                                                000000000065000                            
50000310201803162018031912010421524219       PES0000042000A094342018031612590062                                                
6024600042000180811201042152421900000000084                                                                                     
7PESE                                                                                000000000042000                            
50000410201803162018031910093728635247       PES0000065000A150212018031617080001                                                
6024600065000180751009372863524700000000042                                                                                     
7PESE                                                                                000000000065000                            
82018031900000100000040000002370000000000000000000000000000000000000000000004                                                   
9201803190000010000004000000237000000000000000000000000000000000000000000000004                                                 
