120170515PAGO FACIL               090060246MARITIMO SRL                                                                         
320170515000001MARITIMO SRL                                                                                                     
50000110201705122017051500595939849584       PES0000149500A093952017051216210007                                                
6024600149500171350059593984958400085000037                                                                                     
7PESE                                                                                000000000149500                            
50000210201705122017051500747438069919       PES0000187000A077392017051217180031                                                
6024600187000171350074743806991900130000400                                                                                     
7PESE                                                                                000000000187000                            
50000310201705132017051500888838027942       PES0000117000D001722017051317280172                                                
6024600117000171380088883802794200000000099                                                                                     
7PESE                                                                                000000000117000                            
82017051500000100000030000004535000000000000000000000000000000000000000000003                                                   
9201705150000010000003000000453500000000000000000000000000000000000000000000003                                                 
