120170116PAGO FACIL               090060246MARITIMO SRL                                                                         
320170116000001MARITIMO SRL                                                                                                     
50000110201701132017011682131422944700       PES0000037800A162712017011310570065                                                
6024600037800170188213142294470000000000036                                                                                     
7PESE                                                                                000000000037800                            
50000210201701132017011682131712991628       PES0000037800A136752017011316110053                                                
6024600037800170168213171299162800000000084                                                                                     
7PESE                                                                                000000000037800                            
50000310201701132017011682130717039194       PES0000037800M601622017011312160145                                                
6024600037800170188213071703919400000000063                                                                                     
7PESE                                                                                000000000037800                            
50000410201701142017011682130330612401       PES0000037800A112392017011411120158                                                
6024600037800170188213033061240100000000037                                                                                     
7PESE                                                                                000000000037800                            
50000510201701142017011600555537376885       PES0000149500A173472017011416150021                                                
6024600149500170150055553737688500085000637                                                                                     
7PESE                                                                                000000000149500                            
82017011600000100000050000003007000000000000000000000000000000000000000000005                                                   
9201701160000010000005000000300700000000000000000000000000000000000000000000005                                                 
