120180911PAGO FACIL               090060246MARITIMO SRL                                                                         
320180911000001MARITIMO SRL                                                                                                     
50000110201809102018091199500137827908       PES0000050000A137452018091017150017                                                
6024600050000182539950013782790800000000042                                                                                     
7PESE                                                                                000000000050000                            
50000210201809102018091188110140303726       PES0000100000A198722018091013360061                                                
6024600100000182608811014030372600000000000                                                                                     
7PESE                                                                                000000000100000                            
50000310201809102018091101031042469925       PES0000252000A156232018091018570052                                                
6024600252000182580103104246992500216000236                                                                                     
7PESE                                                                                000000000252000                            
82018091100000100000030000004020000000000000000000000000000000000000000000003                                                   
9201809110000010000003000000402000000000000000000000000000000000000000000000003                                                 
