120170913PAGO FACIL               090060246MARITIMO SRL                                                                         
320170913000001MARITIMO SRL                                                                                                     
50000110201709122017091300919135607982       PES0000117000A170922017091212390006                                                
6024600117000172610091913560798200000000036                                                                                     
7PESE                                                                                000000000117000                            
50000210201709122017091300919142111158       PES0000117000A114982017091216400126                                                
6024600117000172620091914211115800000000063                                                                                     
7PESE                                                                                000000000117000                            
50000310201709122017091300979738027942       PES0000123500D007992017091217230106                                                
6024600123500172580097973802794200000000090                                                                                     
7PESE                                                                                000000000123500                            
50000410201709122017091300969635069112       PES0000123500D004902017091216100275                                                
6024600123500172610096963506911200000000079                                                                                     
7PESE                                                                                000000000123500                            
50000510201709122017091300979735607982       PES0000123500A170922017091212380004                                                
6024600123500172610097973560798200000000084                                                                                     
7PESE                                                                                000000000123500                            
50000610201709122017091300969628523369       PES0000123500D001732017091215090223                                                
6024600123500172620096962852336900000000021                                                                                     
7PESE                                                                                000000000123500                            
50000710201709122017091300787835069112       PES0000187000D004902017091216100274                                                
6024600187000172580078783506911200130000300                                                                                     
7PESE                                                                                000000000187000                            
50000810201709122017091300787835607982       PES0000187000A170922017091212390005                                                
6024600187000172580078783560798200130000342                                                                                     
7PESE                                                                                000000000187000                            
82017091300000100000080000011020000000000000000000000000000000000000000000008                                                   
9201709130000010000008000001102000000000000000000000000000000000000000000000008                                                 
