120170811PAGO FACIL               090060246MARITIMO SRL                                                                         
320170811000001MARITIMO SRL                                                                                                     
50000110201708102017081182160331433413       PES0000051000A088822017081010270030                                                
6024600051000172288216033143341300000000000                                                                                     
7PESE                                                                                000000000051000                            
50000210201708102017081100919141321276       PES0000117000A165572017081015570021                                                
6024600117000172280091914132127600000000021                                                                                     
7PESE                                                                                000000000117000                            
50000310201708102017081100777739910732       PES0000187000D000082017081013280141                                                
6024600175000172190077773991073200120000363                                                                                     
7PESE                                                                                000000000187000                            
50000410201708102017081100777738890969       PES0000187000D005272017081020420445                                                
6024600187000172270077773889096900130000279                                                                                     
7PESE                                                                                000000000187000                            
82017081100000100000040000005420000000000000000000000000000000000000000000004                                                   
9201708110000010000004000000542000000000000000000000000000000000000000000000004                                                 
