120170117PAGO FACIL               090060246MARITIMO SRL                                                                         
320170117000001MARITIMO SRL                                                                                                     
50000110201701162017011782130125838002       PES0000029400A175102017011410390018                                                
6024600029400170188213012583800200000000000                                                                                     
7PESE                                                                                000000000029400                            
50000210201701162017011782130231492141       PES0000029400A175102017011410390019                                                
6024600029400170188213023149214100000000042                                                                                     
7PESE                                                                                000000000029400                            
50000310201701162017011782130426687179       PES0000037800A171562017011612130039                                                
6024600037800170188213042668717900000000016                                                                                     
7PESE                                                                                000000000037800                            
50000410201701162017011782130428436693       PES0000037800A129682017011614230067                                                
6024600037800170188213042843669300000000021                                                                                     
7PESE                                                                                000000000037800                            
50000510201701162017011782130428641277       PES0000037800A171562017011612150041                                                
6024600037800170188213042864127700000000099                                                                                     
7PESE                                                                                000000000037800                            
50000610201701162017011782130444170213       PES0000037800A171562017011612150040                                                
6024600037800170188213044417021300000000058                                                                                     
7PESE                                                                                000000000037800                            
50000710201701162017011782131327308452       PES0000037800M600572017011616210117                                                
6024600037800170188213132730845200000000078                                                                                     
7PESE                                                                                000000000037800                            
82017011700000100000070000002478000000000000000000000000000000000000000000007                                                   
9201701170000010000007000000247800000000000000000000000000000000000000000000007                                                 
