120171019PAGO FACIL               090060246MARITIMO SRL                                                                         
320171019000001MARITIMO SRL                                                                                                     
50000110201710182017101900898928523369       PES0000117000D007992017101819510273                                                
6024600117000172980089892852336900000000036                                                                                     
7PESE                                                                                000000000117000                            
50000210201710182017101979120723469967       PES0000171500M601252017101815210047                                                
6024600171500172977912072346996700000000099                                                                                     
7PESE                                                                                000000000171500                            
50000310201710182017101900777728523369       PES0000200000D007992017101819510272                                                
6024600200000172980077772852336900000000016                                                                                     
7PESE                                                                                000000000200000                            
82017101900000100000030000004885000000000000000000000000000000000000000000003                                                   
9201710190000010000003000000488500000000000000000000000000000000000000000000003                                                 
