120180312PAGO FACIL               090060246MARITIMO SRL                                                                         
320180312000001MARITIMO SRL                                                                                                     
50000110201803092018031210090337904662       PES0000055000A104982018030913290004                                                
6024600055000180751009033790466200000000079                                                                                     
7PESE                                                                                000000000055000                            
50000210201803102018031210092547793153       PES0000065000A113032018031011410036                                                
6024600065000180741009254779315300000000021                                                                                     
7PESE                                                                                000000000065000                            
82018031200000100000020000001200000000000000000000000000000000000000000000002                                                   
9201803120000010000002000000120000000000000000000000000000000000000000000000002                                                 
