120170113PAGO FACIL               090060246MARITIMO SRL                                                                         
320170113000001MARITIMO SRL                                                                                                     
50000110201701122017011382130233786629       PES0000029400A148202017011215300027                                                
6024600029400170188213023378662900000000099                                                                                     
7PESE                                                                                000000000029400                            
50000210201701122017011382130331376347       PES0000037800A174742017011218030066                                                
6024600037800170188213033137634700000000099                                                                                     
7PESE                                                                                000000000037800                            
50000310201701122017011382130337559661       PES0000037800A051732017011210110027                                                
6024600037800170188213033755966100000000063                                                                                     
7PESE                                                                                000000000037800                            
50000410201701122017011382130523125771       PES0000037800A174142017011213100089                                                
6024600037800170188213052312577100000000084                                                                                     
7PESE                                                                                000000000037800                            
50000510201701122017011318500331175446       PES0000100000A165332017011212250016                                                
6024600100000170181850033117544600200000015                                                                                     
7PESE                                                                                000000000100000                            
50000610201701122017011318500525553317       PES0000100000A085182017011216320125                                                
6024600100000170191850052555331700200000021                                                                                     
7PESE                                                                                000000000100000                            
82017011300000100000060000003428000000000000000000000000000000000000000000006                                                   
9201701130000010000006000000342800000000000000000000000000000000000000000000006                                                 
