120170516PAGO FACIL               090060246MARITIMO SRL                                                                         
320170516000001MARITIMO SRL                                                                                                     
50000110201705152017051600888835802269       PES0000117000A161142017051513030001                                                
6024600117000171380088883580226900000000042                                                                                     
7PESE                                                                                000000000117000                            
50000210201705152017051600888840954967       PES0000117000A160342017051510350021                                                
6024600117000171380088884095496700000000021                                                                                     
7PESE                                                                                000000000117000                            
50000310201705152017051600747435138572       PES0000187000A149572017051515530002                                                
6024600187000171350074743513857200130000400                                                                                     
7PESE                                                                                000000000187000                            
82017051600000100000030000004210000000000000000000000000000000000000000000003                                                   
9201705160000010000003000000421000000000000000000000000000000000000000000000003                                                 
