120171218PAGO FACIL               090060246MARITIMO SRL                                                                         
320171218000001MARITIMO SRL                                                                                                     
50000110201712152017121800818136080290       PES0000187000A075392017121512140021                                                
6024600187000173490081813608029000130000737                                                                                     
7PESE                                                                                000000000187000                            
82017121800000100000010000001870000000000000000000000000000000000000000000001                                                   
9201712180000010000001000000187000000000000000000000000000000000000000000000001                                                 
