120180117PAGO FACIL               090060246MARITIMO SRL                                                                         
320180117000001MARITIMO SRL                                                                                                     
50000110201801162018011782180138530469       PES0000032000A230772018011613550088                                                
6024600032000180168218013853046900000000000                                                                                     
7PESE                                                                                000000000032000                            
50000210201801162018011782180239554043       PES0000032000A230772018011613560089                                                
6024600032000180178218023955404300000000057                                                                                     
7PESE                                                                                000000000032000                            
50000310201801162018011782180431751678       PES0000042500A106042018011610160016                                                
6024600042500180178218043175167800000000016                                                                                     
7PESE                                                                                000000000042500                            
50000410201801162018011782180437968633       PES0000042500A098722018011619350084                                                
6024600042500180178218043796863300000000000                                                                                     
7PESE                                                                                000000000042500                            
50000510201801162018011782180625131365       PES0000042500A139162018011613400073                                                
6024600042500180178218062513136500000000042                                                                                     
7PESE                                                                                000000000042500                            
50000610201801162018011782180914309480       PES0000042500A106042018011610160015                                                
6024600042500180178218091430948000000000021                                                                                     
7PESE                                                                                000000000042500                            
50000710201801162018011782181234970846       PES0000042500D007942018011612340091                                                
6024600042500180178218123497084600000000058                                                                                     
7PESE                                                                                000000000042500                            
50000810201801162018011710081013991212       PES0000050000A063662018011612570008                                                
6024600047000180151008101399121200030000442                                                                                     
7PESE                                                                                000000000050000                            
50000910201801162018011710080918294515       PES0000050000A179312018011614160069                                                
6024600050000180191008091829451500000000079                                                                                     
7PESP                                                                                000000000050000                            
50001010201801162018011710081337687641       PES0000050000A063662018011611360002                                                
6024600050000180191008133768764100000000090                                                                                     
7PESE                                                                                000000000050000                            
50001110201801162018011710083830106584       PES0000060000A167562018011613230072                                                
6024600060000180191008383010658400000000057                                                                                     
7PESE                                                                                000000000060000                            
82018011700000100000110000004865000000000000000000000000000000000000000000011                                                   
9201801170000010000011000000486500000000000000000000000000000000000000000000011                                                 
