120170510PAGO FACIL               090060246MARITIMO SRL                                                                         
320170510000001MARITIMO SRL                                                                                                     
50000110201705092017051024010329696955       PES0000030000A169042017050914290057                                                
6024600030000171302401032969695500050000584                                                                                     
7PESE                                                                                000000000030000                            
50000210201705092017051024010621370419       PES0000030000A150102017050913560036                                                
6024600030000171302401062137041900050000642                                                                                     
7PESE                                                                                000000000030000                            
50000310201705092017051024012436571733       PES0000060000A136752017050916370091                                                
6024600060000171302401243657173300100000658                                                                                     
7PESE                                                                                000000000060000                            
50000410201705092017051024012616122855       PES0000060000A160062017050910400038                                                
6024600060000171302401261612285500100000615                                                                                     
7PESE                                                                                000000000060000                            
50000510201705092017051000888839910732       PES0000117000D000512017050917000049                                                
6024600117000171340088883991073200000000016                                                                                     
7PESE                                                                                000000000117000                            
50000610201705092017051000888830980449       PES0000117000A159742017050917400007                                                
6024600117000171350088883098044900000000084                                                                                     
7PESE                                                                                000000000117000                            
50000710201705092017051000747430980449       PES0000187000A159742017050917400008                                                
6024600187000171350074743098044900130000099                                                                                     
7PESE                                                                                000000000187000                            
82017051000000100000070000006010000000000000000000000000000000000000000000007                                                   
9201705100000010000007000000601000000000000000000000000000000000000000000000007                                                 
