120170712PAGO FACIL               090060246MARITIMO SRL                                                                         
320170712000001MARITIMO SRL                                                                                                     
50000110201707112017071299310121465768       PES0000060000A049382017071017020076                                                
6024600060000171989931012146576800000000042                                                                                     
7PESE                                                                                000000000060000                            
50000210201707112017071207052700000000       PES0000040000A016702017071119420074                                                
6024600040000171980705270000000000000000037                                                                                     
7PESE                                                                                000000000040000                            
50000310201707112017071288080139831327       PES0000051000A073842017071110230106                                                
6024600051000171938808013983132700000000078                                                                                     
7PESE                                                                                000000000051000                            
50000410201707112017071288080141385312       PES0000051000D001512017071114510185                                                
6024600051000171998808014138531200000000063                                                                                     
7PESE                                                                                000000000051000                            
50000510201707112017071200888841668826       PES0000117000A023232017071116470062                                                
6024600117000171980088884166882600000000078                                                                                     
7PESE                                                                                000000000117000                            
50000610201707112017071200757541668826       PES0000200000A023232017071116460061                                                
6024600200000171980075754166882600000000084                                                                                     
7PESE                                                                                000000000200000                            
82017071200000100000060000005190000000000000000000000000000000000000000000006                                                   
9201707120000010000006000000519000000000000000000000000000000000000000000000006                                                 
