120170614PAGO FACIL               090060246MARITIMO SRL                                                                         
320170614000001MARITIMO SRL                                                                                                     
50000110201706132017061400898935607982       PES0000117000A169902017061315060030                                                
6024600117000171690089893560798200000000079                                                                                     
7PESE                                                                                000000000117000                            
50000210201706132017061400606035962736       PES0000149500D005382017061310260120                                                
6024600149500171660060603596273600085000457                                                                                     
7PESE                                                                                000000000149500                            
50000310201706132017061400757535028842       PES0000187000A127462017061309590028                                                
6024600187000171660075753502884200130000200                                                                                     
7PESE                                                                                000000000187000                            
50000410201706132017061400757535607982       PES0000187000A169902017061315070031                                                
6024600187000171660075753560798200130000357                                                                                     
7PESE                                                                                000000000187000                            
50000510201706132017061400757541159562       PES0000187000A010922017061309360015                                                
6024600187000171660075754115956200130000457                                                                                     
7PESE                                                                                000000000187000                            
82017061400000100000050000008275000000000000000000000000000000000000000000005                                                   
9201706140000010000005000000827500000000000000000000000000000000000000000000005                                                 
