120170417PAGO FACIL               090060246MARITIMO SRL                                                                         
320170417000001MARITIMO SRL                                                                                                     
50000110201704122017041700737336080290       PES0000187000D007762017041216560308                                                
6024600187000171050073733608029000130000457                                                                                     
7PESE                                                                                000000000187000                            
50000210201704122017041700585840513828       PES0000149500D002722017041212590075                                                
6024600140000170970058584051382800095000500                                                                                     
7PESE                                                                                000000000149500                            
50000310201704132017041724010426800734       PES0000030000A150502017041312210009                                                
6024600030000171102401042680073400050000079                                                                                     
7PESE                                                                                000000000030000                            
50000410201704132017041700737340021247       PES0000187000D007912017041310100028                                                
6024600187000171050073734002124700130000400                                                                                     
7PESE                                                                                000000000187000                            
50000510201704152017041700585836501237       PES0000149500A114982017041511290026                                                
6024600149500171050058583650123700085000542                                                                                     
7PESE                                                                                000000000149500                            
82017041700000100000050000007030000000000000000000000000000000000000000000005                                                   
9201704170000010000005000000703000000000000000000000000000000000000000000000005                                                 
