120171213PAGO FACIL               090060246MARITIMO SRL                                                                         
320171213000001MARITIMO SRL                                                                                                     
50000110201712122017121300818135607982       PES0000187000A170612017121210200052                                                
6024600187000173490081813560798200130000337                                                                                     
7PESE                                                                                000000000187000                            
82017121300000100000010000001870000000000000000000000000000000000000000000001                                                   
9201712130000010000001000000187000000000000000000000000000000000000000000000001                                                 
