120180517PAGO FACIL               090060246MARITIMO SRL                                                                         
320180517000001MARITIMO SRL                                                                                                     
50000110201805162018051702630241310328       PES0000064500A175862018051618290045                                                
6024600064500181400263024131032800211000390                                                                                     
7PESE                                                                                000000000064500                            
50000210201805162018051702630892718459       PES0000064500A180902018051612130039                                                
6024600064500181400263089271845900211000284                                                                                     
7PESP                                                                                000000000064500                            
82018051700000100000020000001290000000000000000000000000000000000000000000002                                                   
9201805170000010000002000000129000000000000000000000000000000000000000000000002                                                 
