120170517PAGO FACIL               090060246MARITIMO SRL                                                                         
320170517000001MARITIMO SRL                                                                                                     
50000110201705162017051700888834058134       PES0000117000A180622017051618240028                                                
6024600117000171380088883405813400000000090                                                                                     
7PESE                                                                                000000000117000                            
50000210201705162017051700595938616215       PES0000158000D005342017051617280101                                                
6024600149500171350059593861621500085000400                                                                                     
7PESE                                                                                000000000158000                            
82017051700000100000020000002750000000000000000000000000000000000000000000002                                                   
9201705170000010000002000000275000000000000000000000000000000000000000000000002                                                 
