120180511PAGO FACIL               090060246MARITIMO SRL                                                                         
320180511000001MARITIMO SRL                                                                                                     
50000110201805102018051188100138230312       PES0000060000D009302018051016260211                                                
6024600060000181348810013823031200000000079                                                                                     
7PESE                                                                                000000000060000                            
50000210201805102018051188100141099564       PES0000060000A173722018051015280090                                                
6024600060000181358810014109956400000000099                                                                                     
7PESE                                                                                000000000060000                            
50000310201805102018051188100140570009       PES0000060000D008982018051010160026                                                
6024600060000181368810014057000900000000015                                                                                     
7PESE                                                                                000000000060000                            
50000410201805102018051188100120425866       PES0000060000A117922018051016360005                                                
6024600060000181378810012042586600000000090                                                                                     
7PESE                                                                                000000000060000                            
82018051100000100000040000002400000000000000000000000000000000000000000000004                                                   
9201805110000010000004000000240000000000000000000000000000000000000000000000004                                                 
