120180719PAGO FACIL               090060246MARITIMO SRL                                                                         
320180719000001MARITIMO SRL                                                                                                     
50000110201807182018071976050431477215       PES0000025000A163442018071815300022                                                
6024600025000182057605043147721500000000016                                                                                     
7PESE                                                                                000000000025000                            
50000210201807182018071982201527019914       PES0000053500A088822018071819080071                                                
6024600048200181968220152701991400053000300                                                                                     
7PESE                                                                                000000000053500                            
50000310201807182018071982200432383824       PES0000053500A088822018071811540040                                                
6024600053500182068220043238382400000000084                                                                                     
7PESE                                                                                000000000053500                            
50000410201807182018071901131137234551       PES0000150000A082962018071812030015                                                
6024600150000182060113113723455100000000057                                                                                     
7PESE                                                                                000000000150000                            
82018071900000100000040000002820000000000000000000000000000000000000000000004                                                   
9201807190000010000004000000282000000000000000000000000000000000000000000000004                                                 
