120180315PAGO FACIL               090060246MARITIMO SRL                                                                         
320180315000001MARITIMO SRL                                                                                                     
50000110201803142018031510091533180880       PES0000055000A022832018031411580007                                                
6024600055000180751009153318088000000000078                                                                                     
7PESE                                                                                000000000055000                            
50000210201803142018031510094920923338       PES0000055000D004912018031409200001                                                
6024600055000180751009492092333800000000021                                                                                     
7PESE                                                                                000000000055000                            
50000310201803142018031510095425355558       PES0000065000D001712018031413420145                                                
6024600065000180751009542535555800000000042                                                                                     
7PESE                                                                                000000000065000                            
82018031500000100000030000001750000000000000000000000000000000000000000000003                                                   
9201803150000010000003000000175000000000000000000000000000000000000000000000003                                                 
