120180514PAGO FACIL               090060246MARITIMO SRL                                                                         
320180514000001MARITIMO SRL                                                                                                     
50000110201805112018051488100143397824       PES0000060000A194602018051114230030                                                
6024600060000181388810014339782400000000063                                                                                     
7PESE                                                                                000000000060000                            
50000210201805112018051488100144784336       PES0000060000A136752018051118200050                                                
6024600060000181388810014478433600000000084                                                                                     
7PESE                                                                                000000000060000                            
50000310201805112018051488100133551711       PES0000060000M601892018051113270067                                                
6024600060000181388810013355171100000000016                                                                                     
7PESE                                                                                000000000060000                            
50000410201805122018051488100136926061       PES0000060000A109842018051210560018                                                
6024600060000181388810013692606100000000078                                                                                     
7PESE                                                                                000000000060000                            
50000510201805122018051488100125926854       PES0000060000A154672018051212270027                                                
6024600060000181398810012592685400000000058                                                                                     
7PESE                                                                                000000000060000                            
50000610201805122018051488100138146777       PES0000060000D004332018051220000179                                                
6024600060000181398810013814677700000000016                                                                                     
7PESE                                                                                000000000060000                            
50000710201805122018051488100123456506       PES0000060000D004332018051220010180                                                
6024600060000181398810012345650600000000000                                                                                     
7PESE                                                                                000000000060000                            
82018051400000100000070000004200000000000000000000000000000000000000000000007                                                   
9201805140000010000007000000420000000000000000000000000000000000000000000000007                                                 
