120180613PAGO FACIL               090060246MARITIMO SRL                                                                         
320180613000001MARITIMO SRL                                                                                                     
50000110201806122018061318521192718459       PES0000053600A180912018061211450028                                                
6024600053600181691852119271845900000000063                                                                                     
7PESE                                                                                000000000053600                            
50000210201806122018061388100130098087       PES0000060000A141102018061218280023                                                
6024600060000181708810013009808700000000078                                                                                     
7PESE                                                                                000000000060000                            
82018061300000100000020000001136000000000000000000000000000000000000000000002                                                   
9201806130000010000002000000113600000000000000000000000000000000000000000000002                                                 
