120180810PAGO FACIL               090060246MARITIMO SRL                                                                         
320180810000001MARITIMO SRL                                                                                                     
50000110201808092018081076050527857704       PES0000025000L260012018080912060096                                                
6024600025000182217605052785770400000000063                                                                                     
7PESE                                                                                000000000025000                            
50000210201808092018081007070627861775       PES0000045000A159012018080918000018                                                
6024600045000182270707062786177500050000000                                                                                     
7PESE                                                                                000000000045000                            
82018081000000100000020000000700000000000000000000000000000000000000000000002                                                   
9201808100000010000002000000070000000000000000000000000000000000000000000000002                                                 
