120171013PAGO FACIL               090060246MARITIMO SRL                                                                         
320171013000001MARITIMO SRL                                                                                                     
50000110201710122017101300797933813397       PES0000187000D005272017101214580212                                                
6024600187000172880079793381339700130000279                                                                                     
7PESE                                                                                000000000187000                            
50000210201710122017101300797941835125       PES0000187000A017482017101212410134                                                
6024600187000172880079794183512500130000463                                                                                     
7PESE                                                                                000000000187000                            
82017101300000100000020000003740000000000000000000000000000000000000000000002                                                   
9201710130000010000002000000374000000000000000000000000000000000000000000000002                                                 
