120180712PAGO FACIL               090060246MARITIMO SRL                                                                         
320180712000001MARITIMO SRL                                                                                                     
50000110201807112018071276050430883990       PES0000020000A147102018071113430029                                                
6024600020000181967605043088399000050000363                                                                                     
7PESE                                                                                000000000020000                            
82018071200000100000010000000200000000000000000000000000000000000000000000001                                                   
9201807120000010000001000000020000000000000000000000000000000000000000000000001                                                 
