120180110PAGO FACIL               090060246MARITIMO SRL                                                                         
320180110000001MARITIMO SRL                                                                                                     
50000110201801092018011010080725639872       PES0000047000D002312018010911260121                                                
6024600047000180101008072563987200000000037                                                                                     
7PESE                                                                                000000000047000                            
50000210201801092018011010081722493698       PES0000047000A201542018010918370052                                                
6024600047000180101008172249369800000000016                                                                                     
7PESE                                                                                000000000047000                            
50000310201801092018011010082730749925       PES0000060000A174132018010909120004                                                
6024600060000180101008273074992500000000016                                                                                     
7PESE                                                                                000000000060000                            
50000410201801092018011010083025556724       PES0000060000A159742018010910350081                                                
6024600060000180101008302555672400000000021                                                                                     
7PESE                                                                                000000000060000                            
50000510201801092018011010083920568504       PES0000060000D001762018010914590253                                                
6024600060000180101008392056850400000000090                                                                                     
7PESE                                                                                000000000060000                            
50000610201801092018011083053218397008       PES0000080000L190862018010919223015                                                
6024600080000180128305321839700800000000037                                                                                     
7PESE                                                                                000000000080000                            
50000710201801092018011083053243083626       PES0000080000L190862018010919223014                                                
6024600080000180128305324308362600000000058                                                                                     
7PESE                                                                                000000000080000                            
82018011000000100000070000004340000000000000000000000000000000000000000000007                                                   
9201801100000010000007000000434000000000000000000000000000000000000000000000007                                                 
