120180914PAGO FACIL               090060246MARITIMO SRL                                                                         
320180914000001MARITIMO SRL                                                                                                     
50000110201809132018091488110129083976       PES0000100000A073842018091312120014                                                
6024600100000182638811012908397600000000099                                                                                     
7PESE                                                                                000000000100000                            
50000210201809132018091488110138841111       PES0000100000D009372018091313510109                                                
6024600100000182638811013884111100000000058                                                                                     
7PESP                                                                                000000000100000                            
82018091400000100000020000002000000000000000000000000000000000000000000000002                                                   
9201809140000010000002000000200000000000000000000000000000000000000000000000002                                                 
