120170119PAGO FACIL               090060246MARITIMO SRL                                                                         
320170119000001MARITIMO SRL                                                                                                     
50000110201701182017011915011720967116       PES0000050000D002242017011811370145                                                
6024600050000170251501172096711600100000063                                                                                     
7PESE                                                                                000000000050000                            
82017011900000100000010000000500000000000000000000000000000000000000000000001                                                   
9201701190000010000001000000050000000000000000000000000000000000000000000000001                                                 
