120180116PAGO FACIL               090060246MARITIMO SRL                                                                         
320180116000001MARITIMO SRL                                                                                                     
50000110201801152018011682180432575570       PES0000042500A215692018011511200082                                                
6024600042500180178218043257557000000000079                                                                                     
7PESE                                                                                000000000042500                            
50000210201801152018011610080530367142       PES0000047000A188102018011511240026                                                
6024600047000180151008053036714200030000437                                                                                     
7PESE                                                                                000000000047000                            
50000310201801152018011610080721765264       PES0000047000A220722018011518170027                                                
6024600047000180151008072176526400030000415                                                                                     
7PESE                                                                                000000000047000                            
50000410201801152018011610081630073843       PES0000047000A188102018011511250027                                                
6024600047000180151008163007384300030000458                                                                                     
7PESE                                                                                000000000047000                            
82018011600000100000040000001835000000000000000000000000000000000000000000004                                                   
9201801160000010000004000000183500000000000000000000000000000000000000000000004                                                 
