120170814PAGO FACIL               090060246MARITIMO SRL                                                                         
320170814000001MARITIMO SRL                                                                                                     
50000110201708112017081400777739466871       PES0000187000A182442017081110280016                                                
6024600187000172270077773946687100130000090                                                                                     
7PESE                                                                                000000000187000                            
50000210201708112017081400919139466871       PES0000117000A182442017081110270015                                                
6024600117000172270091913946687100000000042                                                                                     
7PESE                                                                                000000000117000                            
50000310201708112017081400777735607982       PES0000187000A134582017081116530098                                                
6024600187000172270077773560798200130000284                                                                                     
7PESE                                                                                000000000187000                            
50000410201708112017081400969635607982       PES0000123500A134582017081116520097                                                
6024600123500172290096963560798200000000036                                                                                     
7PESE                                                                                000000000123500                            
50000510201708122017081400898935266508       PES0000117000A126242017081210370032                                                
6024600117000172300089893526650800000000090                                                                                     
7PESE                                                                                000000000117000                            
82017081400000100000050000007315000000000000000000000000000000000000000000005                                                   
9201708140000010000005000000731500000000000000000000000000000000000000000000005                                                 
