120180419PAGO FACIL               090060246MARITIMO SRL                                                                         
320180419000001MARITIMO SRL                                                                                                     
50000110201804182018041918512638553966       PES0000053600L260012018041808423353                                                
6024600053600181151851263855396600000000021                                                                                     
7PESE                                                                                000000000053600                            
82018041900000100000010000000536000000000000000000000000000000000000000000001                                                   
9201804190000010000001000000053600000000000000000000000000000000000000000000001                                                 
