120170511PAGO FACIL               090060246MARITIMO SRL                                                                         
320170511000001MARITIMO SRL                                                                                                     
50000110201705102017051124010426513111       PES0000030000M601892017051015000196                                                
6024600030000171302401042651311100050000700                                                                                     
7PESE                                                                                000000000030000                            
50000210201705102017051124010427226182       PES0000030000A173842017051017060007                                                
6024600030000171302401042722618200050000763                                                                                     
7PESE                                                                                000000000030000                            
50000310201705102017051124010812511013       PES0000030000A019762017051017350053                                                
6024600030000171302401081251101300050000242                                                                                     
7PESE                                                                                000000000030000                            
50000410201705102017051124011625430127       PES0000030000A150102017051013160070                                                
6024600030000171302401162543012700050000684                                                                                     
7PESE                                                                                000000000030000                            
50000510201705102017051182150224856832       PES0000032500A600752017051015080054                                                
6024600032500171308215022485683200000000036                                                                                     
7PESE                                                                                000000000032500                            
50000610201705102017051182150621838429       PES0000051000A600752017051015070053                                                
6024600051000171308215062183842900000000042                                                                                     
7PESE                                                                                000000000051000                            
50000710201705102017051182150718418569       PES0000051000A161432017051011310028                                                
6024600051000171308215071841856900000000042                                                                                     
7PESE                                                                                000000000051000                            
50000810201705102017051124013029763143       PES0000060000A149042017051017510081                                                
6024600060000171302401302976314300100000721                                                                                     
7PESE                                                                                000000000060000                            
50000910201705102017051100747439560669       PES0000187000A032732017051012160003                                                
6024600187000171350074743956066900130000279                                                                                     
7PESE                                                                                000000000187000                            
82017051100000100000090000005015000000000000000000000000000000000000000000009                                                   
9201705110000010000009000000501500000000000000000000000000000000000000000000009                                                 
