120180718PAGO FACIL               090060246MARITIMO SRL                                                                         
320180718000001MARITIMO SRL                                                                                                     
50000110201807172018071882200339594637       PES0000053500L260012018071723126659                                                
6024600053500182048220033959463700000000079                                                                                     
7PESE                                                                                000000000053500                            
50000210201807172018071801011025818787       PES0000273600A180902018071719040043                                                
6024600273600182120101102581878700000000016                                                                                     
7PESP                                                                                000000000273600                            
82018071800000100000020000003271000000000000000000000000000000000000000000002                                                   
9201807180000010000002000000327100000000000000000000000000000000000000000000002                                                 
