120180119PAGO FACIL               090060246MARITIMO SRL                                                                         
320180119000001MARITIMO SRL                                                                                                     
50000110201801182018011910080530652416       PES0000050000A127812018011813050072                                                
6024600050000180191008053065241600000000058                                                                                     
7PESE                                                                                000000000050000                            
50000210201801182018011910080628799324       PES0000050000A127812018011813040071                                                
6024600050000180191008062879932400000000084                                                                                     
7PESE                                                                                000000000050000                            
50000310201801182018011910080721953062       PES0000050000A147432018011811530062                                                
6024600050000180191008072195306200000000099                                                                                     
7PESE                                                                                000000000050000                            
50000410201801182018011910083534621779       PES0000060000D009172018011817160251                                                
6024600060000180191008353462177900000000000                                                                                     
7PESE                                                                                000000000060000                            
50000510201801182018011910083538624524       PES0000060000A182652018011810270099                                                
6024600060000180191008353862452400000000000                                                                                     
7PESE                                                                                000000000060000                            
50000610201801182018011910083828519646       PES0000060000A049452018011809090008                                                
6024600060000180191008382851964600000000000                                                                                     
7PESE                                                                                000000000060000                            
50000710201801182018011910083830112773       PES0000060000D001762018011816070163                                                
6024600060000180191008383011277300000000084                                                                                     
7PESE                                                                                000000000060000                            
50000810201801182018011910083924881611       PES0000060000A215782018011814190068                                                
6024600060000180191008392488161100000000016                                                                                     
7PESE                                                                                000000000060000                            
50000910201801182018011910084116494945       PES0000060000A215782018011814190069                                                
6024600060000180191008411649494500000000037                                                                                     
7PESE                                                                                000000000060000                            
50001010201801182018011910084119048164       PES0000060000M600282018011815240148                                                
6024600060000180191008411904816400000000078                                                                                     
7PESE                                                                                000000000060000                            
82018011900000100000100000005700000000000000000000000000000000000000000000010                                                   
9201801190000010000010000000570000000000000000000000000000000000000000000000010                                                 
