120180910PAGO FACIL               090060246MARITIMO SRL                                                                         
320180910000001MARITIMO SRL                                                                                                     
50000110201809072018091001281240910433       PES0000171000A084922018090719240081                                                
6024600171000182570128124091043300085000058                                                                                     
7PESE                                                                                000000000171000                            
50000210201809072018091001031040910433       PES0000240000A084922018090719250082                                                
6024600240000182500103104091043300120000700                                                                                     
7PESE                                                                                000000000240000                            
82018091000000100000020000004110000000000000000000000000000000000000000000002                                                   
9201809100000010000002000000411000000000000000000000000000000000000000000000002                                                 
