120171116PAGO FACIL               090060246MARITIMO SRL                                                                         
320171116000001MARITIMO SRL                                                                                                     
50000110201711152017111610071532467590       PES0000045000A173712017111516380117                                                
6024600045000173191007153246759000000000057                                                                                     
7PESE                                                                                000000000045000                            
82017111600000100000010000000450000000000000000000000000000000000000000000001                                                   
9201711160000010000001000000045000000000000000000000000000000000000000000000001                                                 
