120170615PAGO FACIL               090060246MARITIMO SRL                                                                         
320170615000001MARITIMO SRL                                                                                                     
50000110201706142017061588080129083976       PES0000051000A074252017061415430056                                                
6024600051000171728808012908397600000000016                                                                                     
7PESE                                                                                000000000051000                            
50000210201706142017061579110131727270       PES0000096500L260012017061410180556                                                
6024600096500171677911013172727000110000463                                                                                     
7PESE                                                                                000000000096500                            
50000310201706142017061579110231281020       PES0000096500L260012017061410130544                                                
6024600096500171677911023128102000110000484                                                                                     
7PESE                                                                                000000000096500                            
50000410201706142017061579110322335788       PES0000096500A088822017061419360092                                                
6024600096500171677911032233578800110000599                                                                                     
7PESE                                                                                000000000096500                            
50000510201706142017061500898938890969       PES0000117000D008002017061416520317                                                
6024600117000171690089893889096900000000063                                                                                     
7PESE                                                                                000000000117000                            
50000610201706142017061500757530984899       PES0000187000D005282017061414560287                                                
6024600187000171660075753098489900130000616                                                                                     
7PESE                                                                                000000000187000                            
50000710201706142017061500757531603436       PES0000187000A138382017061415280012                                                
6024600187000171660075753160343600130000637                                                                                     
7PESE                                                                                000000000187000                            
50000810201706142017061500757538890969       PES0000187000D008002017061416510316                                                
6024600187000171660075753889096900130000642                                                                                     
7PESE                                                                                000000000187000                            
82017061500000100000080000010185000000000000000000000000000000000000000000008                                                   
9201706150000010000008000001018500000000000000000000000000000000000000000000008                                                 
