120180710PAGO FACIL               090060246MARITIMO SRL                                                                         
320180710000001MARITIMO SRL                                                                                                     
50000110201807062018071088100133868291       PES0000060000A028672018070610070072                                                
6024600060000181908810013386829100000000079                                                                                     
7PESE                                                                                000000000060000                            
50000210201807062018071001141135138180       PES0000150000D010352018070615170165                                                
6024600150000181930114113513818000000000021                                                                                     
7PESE                                                                                000000000150000                            
50000310201807062018071076055732885561       PES0000025000A088822018070618180018                                                
6024600025000181907605573288556100050000021                                                                                     
7PESE                                                                                000000000025000                            
50000410201807072018071001151140006589       PES0000150000A205372018070711400036                                                
6024600150000181940115114000658900000000078                                                                                     
7PESE                                                                                000000000150000                            
50000510201807072018071088100134262198       PES0000060000A095742018070712160046                                                
6024600060000181948810013426219800000000036                                                                                     
7PESE                                                                                000000000060000                            
82018071000000100000050000004450000000000000000000000000000000000000000000005                                                   
9201807100000010000005000000445000000000000000000000000000000000000000000000005                                                 
