120171113PAGO FACIL               090060246MARITIMO SRL                                                                         
320171113000001MARITIMO SRL                                                                                                     
50000110201711102017111306010134480102       PES0000030000M600672017110315330057                                                
6024600030000173140601013448010200000000042                                                                                     
7PESE                                                                                000000000030000                            
50000210201711102017111306010222836368       PES0000030000A117292017111009060009                                                
6024600030000173140601022283636800000000021                                                                                     
7PESE                                                                                000000000030000                            
50000310201711102017111310071823739675       PES0000045000A108712017111014290085                                                
6024600045000173181007182373967500000000078                                                                                     
7PESE                                                                                000000000045000                            
50000410201711102017111300808037856331       PES0000187000A211392017111019030047                                                
6024600187000173190080803785633100130000263                                                                                     
7PESE                                                                                000000000187000                            
50000510201711112017111310070724872827       PES0000045000A151072017111110060008                                                
6024600045000173191007072487282700000000058                                                                                     
7PESE                                                                                000000000045000                            
82017111300000100000050000003370000000000000000000000000000000000000000000005                                                   
9201711130000010000005000000337000000000000000000000000000000000000000000000005                                                 
