120171012PAGO FACIL               090060246MARITIMO SRL                                                                         
320171012000001MARITIMO SRL                                                                                                     
50000110201710112017101200797936080290       PES0000187000D007722017101112490073                                                
6024600187000172880079793608029000130000379                                                                                     
7PESE                                                                                000000000187000                            
82017101200000100000010000001870000000000000000000000000000000000000000000001                                                   
9201710120000010000001000000187000000000000000000000000000000000000000000000001                                                 
