120170914PAGO FACIL               090060246MARITIMO SRL                                                                         
320170914000001MARITIMO SRL                                                                                                     
50000110201709132017091479120437332256       PES0000145000A174212017091314080049                                                
6024600145000172607912043733225600265000079                                                                                     
7PESE                                                                                000000000145000                            
50000210201709132017091479120917346740       PES0000145000A174212017091314080048                                                
6024600145000172607912091734674000265000058                                                                                     
7PESE                                                                                000000000145000                            
50000310201709132017091479121342644136       PES0000145000A174212017091314070047                                                
6024600145000172617912134264413600265000084                                                                                     
7PESE                                                                                000000000145000                            
50000410201709132017091479120724212343       PES0000145000A601432017091312140042                                                
6024600145000172637912072421234300265000000                                                                                     
7PESE                                                                                000000000145000                            
50000510201709132017091400787831234805       PES0000187000D001892017091313190262                                                
6024600187000172580078783123480500130000242                                                                                     
7PESE                                                                                000000000187000                            
50000610201709132017091400787835405941       PES0000187000A186362017091315010049                                                
6024600187000172580078783540594100130000499                                                                                     
7PESE                                                                                000000000187000                            
82017091400000100000060000009540000000000000000000000000000000000000000000006                                                   
9201709140000010000006000000954000000000000000000000000000000000000000000000006                                                 
