120171027PAGO FACIL               090060246MARITIMO SRL                                                                         
320171027000001MARITIMO SRL                                                                                                     
50000110201710262017102779120446567251       PES0000171500A153772017102611010032                                                
6024600171500173007912044656725100000000084                                                                                     
7PESE                                                                                000000000171500                            
50000210201710262017102779121736081739       PES0000171500A129692017102616240063                                                
6024600171500173007912173608173900000000090                                                                                     
7PESE                                                                                000000000171500                            
82017102700000100000020000003430000000000000000000000000000000000000000000002                                                   
9201710270000010000002000000343000000000000000000000000000000000000000000000002                                                 
