120180626PAGO FACIL               090060246MARITIMO SRL                                                                         
320180626000001MARITIMO SRL                                                                                                     
50000110201806252018062602640530211589       PES0000069500A144182018062516350016                                                
6024600069500181760264053021158900161000378                                                                                     
7PESE                                                                                000000000069500                            
82018062600000100000010000000695000000000000000000000000000000000000000000001                                                   
9201806260000010000001000000069500000000000000000000000000000000000000000000001                                                 
