120170928PAGO FACIL               090060246MARITIMO SRL                                                                         
320170928000001MARITIMO SRL                                                                                                     
50000110201709272017092879120725968236       PES0000145000A115622017092711270031                                                
6024600145000172707912072596823600265000000                                                                                     
7PESE                                                                                000000000145000                            
82017092800000100000010000001450000000000000000000000000000000000000000000001                                                   
9201709280000010000001000000145000000000000000000000000000000000000000000000001                                                 
