120180122PAGO FACIL               090060246MARITIMO SRL                                                                         
320180122000001MARITIMO SRL                                                                                                     
50000110201801192018012210083020682404       PES0000060000A203182018011909280038                                                
6024600060000180191008302068240400000000084                                                                                     
7PESE                                                                                000000000060000                            
50000210201801192018012210084311498767       PES0000060000A116882018011911270051                                                
6024600060000180191008431149876700000000099                                                                                     
7PESE                                                                                000000000060000                            
50000310201801192018012210082634750295       PES0000060000A174162018011910280017                                                
6024600060000180191008263475029500000000079                                                                                     
7PESE                                                                                000000000060000                            
50000410201801192018012210080724083051       PES0000050000A170612018011914480059                                                
6024600050000180191008072408305100000000021                                                                                     
7PESE                                                                                000000000050000                            
50000510201801192018012210084704304858       PES0000050000D002222018011910040001                                                
6024600050000180191008470430485800000000036                                                                                     
7PESE                                                                                000000000050000                            
50000610201801192018012210082344785756       PES0000050000A138562018011910540015                                                
6024600050000180191008234478575600000000042                                                                                     
7PESE                                                                                000000000050000                            
50000710201801192018012210081533036717       PES0000050000L260012018011917384532                                                
6024600050000180191008153303671700000000063                                                                                     
7PESE                                                                                000000000050000                            
82018012200000100000070000003800000000000000000000000000000000000000000000007                                                   
9201801220000010000007000000380000000000000000000000000000000000000000000000007                                                 
