120180528PAGO FACIL               090060246MARITIMO SRL                                                                         
320180528000001MARITIMO SRL                                                                                                     
50000110201805242018052801131142457638       PES0000150000A227012018052415310002                                                
6024600150000181500113114245763800000000016                                                                                     
7PESE                                                                                000000000150000                            
50000210201805242018052801131134499778       PES0000150000D004282018052416160072                                                
6024600150000181510113113449977800000000099                                                                                     
7PESE                                                                                000000000150000                            
82018052800000100000020000003000000000000000000000000000000000000000000000002                                                   
9201805280000010000002000000300000000000000000000000000000000000000000000000002                                                 
