120170828PAGO FACIL               090060246MARITIMO SRL                                                                         
320170828000001MARITIMO SRL                                                                                                     
50000110201708252017082879120531763808       PES0000145000A018912017082510350025                                                
6024600145000172437912053176380800265000015                                                                                     
7PESE                                                                                000000000145000                            
50000210201708252017082800919135069112       PES0000117000A188902017082510470029                                                
6024600117000172430091913506911200000000016                                                                                     
7PESE                                                                                000000000117000                            
50000310201708252017082800767635123263       PES0000200000A076262017082519030011                                                
6024600200000172410076763512326300000000000                                                                                     
7PESE                                                                                000000000200000                            
50000410201708252017082876040623745885       PES0000020000A088822017082518050009                                                
6024600020000172377604062374588500000000000                                                                                     
7PESE                                                                                000000000020000                            
50000510201708262017082807060339059899       PES0000035000D002452017082612360109                                                
6024600035000172390706033905989900050000090                                                                                     
7PESE                                                                                000000000035000                            
82017082800000100000050000005170000000000000000000000000000000000000000000005                                                   
9201708280000010000005000000517000000000000000000000000000000000000000000000005                                                 
