120170824PAGO FACIL               090060246MARITIMO SRL                                                                         
320170824000001MARITIMO SRL                                                                                                     
50000110201708232017082476040335961563       PES0000020000A169852017082313240005                                                
6024600020000172377604033596156300000000084                                                                                     
7PESE                                                                                000000000020000                            
50000210201708232017082479120631223863       PES0000145000A058992017082310280149                                                
6024600145000172417912063122386300265000037                                                                                     
7PESE                                                                                000000000145000                            
82017082400000100000020000001650000000000000000000000000000000000000000000002                                                   
9201708240000010000002000000165000000000000000000000000000000000000000000000002                                                 
