120170426PAGO FACIL               090060246MARITIMO SRL                                                                         
320170426000001MARITIMO SRL                                                                                                     
50000110201704252017042682150813605607       PES0000051000A088822017042510550024                                                
6024600048000171138215081360560700030000242                                                                                     
7PESE                                                                                000000000051000                            
50000210201704252017042696010232877710       PES0000060000A127802017042509590016                                                
6024600060000171169601023287771000000000079                                                                                     
7PESE                                                                                000000000060000                            
82017042600000100000020000001110000000000000000000000000000000000000000000002                                                   
9201704260000010000002000000111000000000000000000000000000000000000000000000002                                                 
