120171226PAGO FACIL               090060246MARITIMO SRL                                                                         
320171226000001MARITIMO SRL                                                                                                     
50000110201712222017122600818136153360       PES0000200000A148882017122214260067                                                
6024600200000173650081813615336000000000063                                                                                     
7PESE                                                                                000000000200000                            
50000210201712222017122685044421851864       PES0000113700D002712017122210120007                                                
6024600113700173608504442185186400000000000                                                                                     
7PESE                                                                                000000000113700                            
50000310201712222017122682180228706613       PES0000030000A084922017122219130077                                                
6024600030000173638218022870661300020000084                                                                                     
7PESE                                                                                000000000030000                            
50000410201712222017122682180123803933       PES0000030000A084922017122219130078                                                
6024600030000173638218012380393300020000015                                                                                     
7PESE                                                                                000000000030000                            
50000510201712232017122685044228016566       PES0000113700A164952017122312270082                                                
6024600113700173588504422801656600000000063                                                                                     
7PESE                                                                                000000000113700                            
50000610201712232017122685044035272600       PES0000113700D008002017122316240167                                                
6024600113700173648504403527260000000000016                                                                                     
7PESE                                                                                000000000113700                            
82017122600000100000060000006011000000000000000000000000000000000000000000006                                                   
9201712260000010000006000000601100000000000000000000000000000000000000000000006                                                 
