120170420PAGO FACIL               090060246MARITIMO SRL                                                                         
320170420000001MARITIMO SRL                                                                                                     
50000110201704192017042088080120012412       PES0000045000M601622017041913540092                                                
6024600045000171158808012001241200060000000                                                                                     
7PESE                                                                                000000000045000                            
82017042000000100000010000000450000000000000000000000000000000000000000000001                                                   
9201704200000010000001000000045000000000000000000000000000000000000000000000001                                                 
