120170421PAGO FACIL               090060246MARITIMO SRL                                                                         
320170421000001MARITIMO SRL                                                                                                     
50000110201704202017042124013028452076       PES0000030000A113952017042012140026                                                
6024600030000171162401302845207600050000015                                                                                     
7PESE                                                                                000000000030000                            
82017042100000100000010000000300000000000000000000000000000000000000000000001                                                   
9201704210000010000001000000030000000000000000000000000000000000000000000000001                                                 
