120170523PAGO FACIL               090060246MARITIMO SRL                                                                         
320170523000001MARITIMO SRL                                                                                                     
50000110201705222017052399310127797781       PES0000030000D000072017052209580028                                                
6024600030000171499931012779778100000000021                                                                                     
7PESE                                                                                000000000030000                            
50000210201705222017052324010426604728       PES0000035000A174152017052210030008                                                
6024600035000171422401042660472800000000063                                                                                     
7PESE                                                                                000000000035000                            
50000310201705222017052300585892969080       PES0000158000L193802017052213400940                                                
6024600158000171420058589296908000000000042                                                                                     
7PESE                                                                                000000000158000                            
50000410201705222017052300747438079676       PES0000200000A163452017052215080053                                                
6024600200000171510074743807967600000000090                                                                                     
7PESE                                                                                000000000200000                            
82017052300000100000040000004230000000000000000000000000000000000000000000004                                                   
9201705230000010000004000000423000000000000000000000000000000000000000000000004                                                 
