120170522PAGO FACIL               090060246MARITIMO SRL                                                                         
320170522000001MARITIMO SRL                                                                                                     
50000110201705192017052200888829248146       PES0000117000A076262017051913390039                                                
6024600117000171460088882924814600000000000                                                                                     
7PESE                                                                                000000000117000                            
50000210201705192017052200747440514756       PES0000200000A028472017051912240041                                                
6024600200000171510074744051475600000000037                                                                                     
7PESE                                                                                000000000200000                            
50000310201705212017052200585837842851       PES0000158000D005282017052010180001                                                
6024600158000171440058583784285100000000079                                                                                     
7PESE                                                                                000000000158000                            
82017052200000100000030000004750000000000000000000000000000000000000000000003                                                   
9201705220000010000003000000475000000000000000000000000000000000000000000000003                                                 
