120170526PAGO FACIL               090060246MARITIMO SRL                                                                         
320170526000001MARITIMO SRL                                                                                                     
50000110201705242017052624011818140057       PES0000035000A180622017052416400069                                                
6024600035000171502401181814005700000000078                                                                                     
7PESE                                                                                000000000035000                            
82017052600000100000010000000350000000000000000000000000000000000000000000001                                                   
9201705260000010000001000000035000000000000000000000000000000000000000000000001                                                 
