120170920PAGO FACIL               090060246MARITIMO SRL                                                                         
320170920000001MARITIMO SRL                                                                                                     
50000110201709192017092007061832836256       PES0000040000A126992017091916170086                                                
6024600040000172630706183283625600000000000                                                                                     
7PESE                                                                                000000000040000                            
50000210201709192017092007061113021337       PES0000040000A161412017091913520031                                                
6024600040000172670706111302133700000000000                                                                                     
7PESE                                                                                000000000040000                            
50000310201709192017092007062314059144       PES0000040000A161412017091913520032                                                
6024600040000172670706231405914400000000016                                                                                     
7PESE                                                                                000000000040000                            
50000410201709192017092079120822132022       PES0000145000A601852017091910030004                                                
6024600145000172637912082213202200265000084                                                                                     
7PESE                                                                                000000000145000                            
82017092000000100000040000002650000000000000000000000000000000000000000000004                                                   
9201709200000010000004000000265000000000000000000000000000000000000000000000004                                                 
