120170829PAGO FACIL               090060246MARITIMO SRL                                                                         
320170829000001MARITIMO SRL                                                                                                     
50000110201708282017082902611311498767       PES0000090000A116902017082811110062                                                
6024600090000172420261131149876700000000000                                                                                     
7PESE                                                                                000000000090000                            
50000210201708282017082900909035266508       PES0000117000A150942017082816250039                                                
6024600117000172470090903526650800000000063                                                                                     
7PESE                                                                                000000000117000                            
50000310201708282017082979120820964793       PES0000145000A142512017082810590155                                                
6024600145000172437912082096479300265000037                                                                                     
7PESE                                                                                000000000145000                            
50000410201708282017082900777729248146       PES0000200000A159742017082817430011                                                
6024600200000172430077772924814600000000042                                                                                     
7PESE                                                                                000000000200000                            
50000510201708282017082900767628523369       PES0000200000D004732017082819140290                                                
6024600200000172470076762852336900000000021                                                                                     
7PESE                                                                                000000000200000                            
82017082900000100000050000007520000000000000000000000000000000000000000000005                                                   
9201708290000010000005000000752000000000000000000000000000000000000000000000005                                                 
