120180427PAGO FACIL               090060246MARITIMO SRL                                                                         
320180427000001MARITIMO SRL                                                                                                     
50000110201804262018042782190525062807       PES0000039000A088822018042618300070                                                
6024600039000181208219052506280700060007321                                                                                     
7PESE                                                                                000000000039000                            
82018042700000100000010000000390000000000000000000000000000000000000000000001                                                   
9201804270000010000001000000039000000000000000000000000000000000000000000000001                                                 
