120171124PAGO FACIL               090060246MARITIMO SRL                                                                         
320171124000001MARITIMO SRL                                                                                                     
50000110201711232017112400797928523369       PES0000200000A175122017112318470085                                                
6024600200000173340079792852336900000000099                                                                                     
7PESE                                                                                000000000200000                            
82017112400000100000010000002000000000000000000000000000000000000000000000001                                                   
9201711240000010000001000000200000000000000000000000000000000000000000000000001                                                 
