120180827PAGO FACIL               090060246MARITIMO SRL                                                                         
320180827000001MARITIMO SRL                                                                                                     
50000110201808242018082701021042460040       PES0000273600A138392018082414130055                                                
6024600273600182430102104246004000000000084                                                                                     
7PESE                                                                                000000000273600                            
82018082700000100000010000002736000000000000000000000000000000000000000000001                                                   
9201808270000010000001000000273600000000000000000000000000000000000000000000001                                                 
