120171025PAGO FACIL               090060246MARITIMO SRL                                                                         
320171025000001MARITIMO SRL                                                                                                     
50000110201710242017102582170121503610       PES0000032500A159692017102412230003                                                
6024600032500172988217012150361000000000015                                                                                     
7PESE                                                                                000000000032500                            
50000210201710242017102582171521808090       PES0000051000A159692017102412230004                                                
6024600051000172988217152180809000000000042                                                                                     
7PESE                                                                                000000000051000                            
50000310201710242017102579120725175038       PES0000171500A203512017102410250007                                                
6024600171500173007912072517503800000000099                                                                                     
7PESE                                                                                000000000171500                            
82017102500000100000030000002550000000000000000000000000000000000000000000003                                                   
9201710250000010000003000000255000000000000000000000000000000000000000000000003                                                 
