120180227PAGO FACIL               090060246MARITIMO SRL                                                                         
320180227000001MARITIMO SRL                                                                                                     
50000110201802262018022710091012780626       PES0000047000A212912018022615250061                                                
6024600047000180591009101278062600080007779                                                                                     
7PESE                                                                                000000000047000                            
50000210201802262018022710091335756694       PES0000047000D002482018022617480222                                                
6024600047000180591009133575669400080007742                                                                                     
7PESE                                                                                000000000047000                            
50000310201802262018022710091436288406       PES0000047000D002482018022617480221                                                
6024600047000180591009143628840600080007715                                                                                     
7PESE                                                                                000000000047000                            
50000410201802262018022700818140537317       PES0000200000A197602018022616100011                                                
6024600200000180640081814053731700000000079                                                                                     
7PESE                                                                                000000000200000                            
82018022700000100000040000003410000000000000000000000000000000000000000000004                                                   
9201802270000010000004000000341000000000000000000000000000000000000000000000004                                                 
