120170626PAGO FACIL               090060246MARITIMO SRL                                                                         
320170626000001MARITIMO SRL                                                                                                     
50000110201706232017062699310133506139       PES0000060000A073842017062316050047                                                
6024600060000171819931013350613900000000021                                                                                     
7PESE                                                                                000000000060000                            
50000210201706232017062688080135203934       PES0000051000A073842017062316050049                                                
6024600051000171818808013520393400000000084                                                                                     
7PESE                                                                                000000000051000                            
50000310201706232017062688080140944432       PES0000051000A073842017062316050048                                                
6024600051000171818808014094443200000000058                                                                                     
7PESE                                                                                000000000051000                            
50000410201706232017062607051928984846       PES0000035000D002072017062317260064                                                
6024600035000171790705192898484600050000037                                                                                     
7PESE                                                                                000000000035000                            
82017062600000100000040000001970000000000000000000000000000000000000000000004                                                   
9201706260000010000004000000197000000000000000000000000000000000000000000000004                                                 
