120180521PAGO FACIL               090060246MARITIMO SRL                                                                         
320180521000001MARITIMO SRL                                                                                                     
50000110201805182018052102633736359331       PES0000117800A165812018051816250040                                                
6024600117800181400263373635933100321000416                                                                                     
7PESE                                                                                000000000117800                            
50000210201805182018052101131134091043       PES0000150000A159742018051819310066                                                
6024600150000181380113113409104300000000015                                                                                     
7PESE                                                                                000000000150000                            
50000310201805192018052102630624921651       PES0000064500D005282018051917520159                                                
6024600064500181400263062492165100211000621                                                                                     
7PESE                                                                                000000000064500                            
82018052100000100000030000003323000000000000000000000000000000000000000000003                                                   
9201805210000010000003000000332300000000000000000000000000000000000000000000003                                                 
