120170726PAGO FACIL               090060246MARITIMO SRL                                                                         
320170726000001MARITIMO SRL                                                                                                     
50000110201707252017072600767631603436       PES0000200000A158432017072517180007                                                
6024600200000172120076763160343600000000000                                                                                     
7PESE                                                                                000000000200000                            
82017072600000100000010000002000000000000000000000000000000000000000000000001                                                   
9201707260000010000001000000200000000000000000000000000000000000000000000000001                                                 
