120170123PAGO FACIL               090060246MARITIMO SRL                                                                         
320170123000001MARITIMO SRL                                                                                                     
50000110201701202017012329181825106376       PES0000044000A001852017012016060049                                                
6024600044000170202918182510637600000000058                                                                                     
7PESE                                                                                000000000044000                            
50000210201701202017012329181822511753       PES0000044000A164402017012013450025                                                
6024600044000170202918182251175300000000000                                                                                     
7PESE                                                                                000000000044000                            
50000310201701222017012300555537597478       PES0000158000D000492017012220460282                                                
6024600158000170310055553759747800000000057                                                                                     
7PESE                                                                                000000000158000                            
82017012300000100000030000002460000000000000000000000000000000000000000000003                                                   
9201701230000010000003000000246000000000000000000000000000000000000000000000003                                                 
