120170329PAGO FACIL               090060246MARITIMO SRL                                                                         
320170329000001MARITIMO SRL                                                                                                     
50000110201703282017032982140427201484       PES0000046000A601872017032812140157                                                
6024600046000170908214042720148400030007278                                                                                     
7PESE                                                                                000000000046000                            
50000210201703282017032918502717347007       PES0000100000A105622017032814040082                                                
6024600100000170911850271734700700000000084                                                                                     
7PESE                                                                                000000000100000                            
50000310201703282017032918501120007886       PES0000120000A080102017032815360017                                                
6024600120000170911850112000788600000000021                                                                                     
7PESE                                                                                000000000120000                            
50000410201703282017032918501316273076       PES0000120000A084182017032816390045                                                
6024600120000170911850131627307600000000090                                                                                     
7PESE                                                                                000000000120000                            
82017032900000100000040000003860000000000000000000000000000000000000000000004                                                   
9201703290000010000004000000386000000000000000000000000000000000000000000000004                                                 
