120170921PAGO FACIL               090060246MARITIMO SRL                                                                         
320170921000001MARITIMO SRL                                                                                                     
50000110201709202017092100919129316782       PES0000117000D000502017092020390161                                                
6024600117000172630091912931678200000000021                                                                                     
7PESE                                                                                000000000117000                            
50000210201709202017092100979729316782       PES0000123500D000502017092020390160                                                
6024600123500172630097972931678200000000078                                                                                     
7PESE                                                                                000000000123500                            
50000310201709202017092100969641894632       PES0000123500A048292017092012030012                                                
6024600123500172700096964189463200000000090                                                                                     
7PESE                                                                                000000000123500                            
50000410201709202017092179120530481000       PES0000145000A128972017092016190014                                                
6024600145000172647912053048100000265000058                                                                                     
7PESE                                                                                000000000145000                            
50000510201709202017092100777729316782       PES0000200000D000502017092020400162                                                
6024600200000172630077772931678200000000016                                                                                     
7PESE                                                                                000000000200000                            
82017092100000100000050000007090000000000000000000000000000000000000000000005                                                   
9201709210000010000005000000709000000000000000000000000000000000000000000000005                                                 
