120180727PAGO FACIL               090060246MARITIMO SRL                                                                         
320180727000001MARITIMO SRL                                                                                                     
50000110201807262018072701131136330090       PES0000150000A139902018072617300024                                                
6024600150000182120113113633009000000000042                                                                                     
7PESE                                                                                000000000150000                            
82018072700000100000010000001500000000000000000000000000000000000000000000001                                                   
9201807270000010000001000000150000000000000000000000000000000000000000000000001                                                 
