120170725PAGO FACIL               090060246MARITIMO SRL                                                                         
320170725000001MARITIMO SRL                                                                                                     
50000110201707242017072507050628021728       PES0000040000A181032017072411310061                                                
6024600040000172120705062802172800000000016                                                                                     
7PESE                                                                                000000000040000                            
82017072500000100000010000000400000000000000000000000000000000000000000000001                                                   
9201707250000010000001000000040000000000000000000000000000000000000000000000001                                                 
