120180925PAGO FACIL               090060246MARITIMO SRL                                                                         
320180925000001MARITIMO SRL                                                                                                     
50000110201809242018092596070137827908       PES0000099500A137452018092413330003                                                
6024600099500182739607013782790800000000090                                                                                     
7PESE                                                                                000000000099500                            
82018092500000100000010000000995000000000000000000000000000000000000000000001                                                   
9201809250000010000001000000099500000000000000000000000000000000000000000000001                                                 
