120180629PAGO FACIL               090060246MARITIMO SRL                                                                         
320180629000001MARITIMO SRL                                                                                                     
50000110201806282018062982202110648511       PES0000048200D007742018062816170149                                                
6024600048200181858220211064851100053000063                                                                                     
7PESE                                                                                000000000048200                            
82018062900000100000010000000482000000000000000000000000000000000000000000001                                                   
9201806290000010000001000000048200000000000000000000000000000000000000000000001                                                 
