120180725PAGO FACIL               090060246MARITIMO SRL                                                                         
320180725000001MARITIMO SRL                                                                                                     
50000110201807242018072576052223045372       PES0000025000A043162018072411010011                                                
6024600025000182117605222304537200000000063                                                                                     
7PESE                                                                                000000000025000                            
82018072500000100000010000000250000000000000000000000000000000000000000000001                                                   
9201807250000010000001000000025000000000000000000000000000000000000000000000001                                                 
