120171227PAGO FACIL               090060246MARITIMO SRL                                                                         
320171227000001MARITIMO SRL                                                                                                     
50000110201712262017122782180529359339       PES0000040500L260012017122619560111                                                
6024600040500180028218052935933900020000016                                                                                     
7PESE                                                                                000000000040500                            
50000210201712262017122785044131446976       PES0000113700A138512017122619530008                                                
6024600113700180028504413144697600000000084                                                                                     
7PESE                                                                                000000000113700                            
50000310201712262017122700828236399360       PES0000175000A127792017122609570027                                                
6024600175000180010082823639936000120000037                                                                                     
7PESE                                                                                000000000175000                            
82017122700000100000030000003292000000000000000000000000000000000000000000003                                                   
9201712270000010000003000000329200000000000000000000000000000000000000000000003                                                 
