120170929PAGO FACIL               090060246MARITIMO SRL                                                                         
320170929000001MARITIMO SRL                                                                                                     
50000110201709282017092900969638992653       PES0000123500A175112017092818110299                                                
6024600123500172730096963899265300000000015                                                                                     
7PESE                                                                                000000000123500                            
82017092900000100000010000001235000000000000000000000000000000000000000000001                                                   
9201709290000010000001000000123500000000000000000000000000000000000000000000001                                                 
