120170425PAGO FACIL               090060246MARITIMO SRL                                                                         
320170425000001MARITIMO SRL                                                                                                     
50000110201704242017042524010716139251       PES0000030000A142512017042412180044                                                
6024600030000171212401071613925100050000015                                                                                     
7PESE                                                                                000000000030000                            
50000210201704242017042500737335607982       PES0000200000A039562017042410520062                                                
6024600200000171200073733560798200000000037                                                                                     
7PESE                                                                                000000000200000                            
50000310201704242017042500737340514756       PES0000200000A028472017042410080037                                                
6024600200000171200073734051475600000000016                                                                                     
7PESE                                                                                000000000200000                            
82017042500000100000030000004300000000000000000000000000000000000000000000003                                                   
9201704250000010000003000000430000000000000000000000000000000000000000000000003                                                 
