120170621PAGO FACIL               090060246MARITIMO SRL                                                                         
320170621000001MARITIMO SRL                                                                                                     
50000110201706192017062179110227791034       PES0000107500A147622017061912010013                                                
6024600107500171727911022779103400000000021                                                                                     
7PESE                                                                                000000000107500                            
50000210201706192017062100757535138572       PES0000200000A093012017061912290041                                                
6024600187000171660075753513857200130000690                                                                                     
7PESE                                                                                000000000200000                            
50000310201706192017062107050700000000       PES0000035000A159592017061915110045                                                
6024600035000171700705070000000000050000099                                                                                     
7PESE                                                                                000000000035000                            
82017062100000100000030000003425000000000000000000000000000000000000000000003                                                   
9201706210000010000003000000342500000000000000000000000000000000000000000000003                                                 
