120171121PAGO FACIL               090060246MARITIMO SRL                                                                         
320171121000001MARITIMO SRL                                                                                                     
50000110201711172017112110070533267187       PES0000045000A174152017111717470047                                                
6024600045000173221007053326718700000000057                                                                                     
7PESE                                                                                000000000045000                            
50000210201711172017112110070725670163       PES0000045000A029032017111716230008                                                
6024600045000173221007072567016300000000063                                                                                     
7PESE                                                                                000000000045000                            
50000310201711172017112100909028523369       PES0000117000D004732017111719520213                                                
6024600117000173280090902852336900000000036                                                                                     
7PESE                                                                                000000000117000                            
50000410201711172017112100787828523369       PES0000200000D004732017111719520214                                                
6024600200000173280078782852336900000000063                                                                                     
7PESE                                                                                000000000200000                            
50000510201711172017112110070339329047       PES0000045000D002382017111719370150                                                
6024600045000173221007033932904700000000057                                                                                     
7PESE                                                                                000000000045000                            
50000610201711182017112110071017363915       PES0000045000A198302017111809560028                                                
6024600045000173221007101736391500000000036                                                                                     
7PESE                                                                                000000000045000                            
50000710201711182017112110071335139004       PES0000045000A147612017111815500049                                                
6024600045000173221007133513900400000000042                                                                                     
7PESE                                                                                000000000045000                            
50000810201711182017112110071724183216       PES0000045000L192152017111812351668                                                
6024600045000173221007172418321600000000037                                                                                     
7PESE                                                                                000000000045000                            
50000910201711182017112110071914014652       PES0000045000L192152017111812361669                                                
6024600045000173221007191401465200000000037                                                                                     
7PESE                                                                                000000000045000                            
82017112100000100000090000006320000000000000000000000000000000000000000000009                                                   
9201711210000010000009000000632000000000000000000000000000000000000000000000009                                                 
