120170925PAGO FACIL               090060246MARITIMO SRL                                                                         
320170925000001MARITIMO SRL                                                                                                     
50000110201709222017092500969629248146       PES0000123500A084922017092210020056                                                
6024600123500172720096962924814600000000099                                                                                     
7PESE                                                                                000000000123500                            
50000210201709222017092500797936399360       PES0000175000A127782017092210350038                                                
6024600175000172710079793639936000120000058                                                                                     
7PESE                                                                                000000000175000                            
50000310201709222017092500979736399360       PES0000123500A127782017092210340037                                                
6024600123500172710097973639936000000000063                                                                                     
7PESE                                                                                000000000123500                            
50000410201709222017092579120626737397       PES0000145000D006742017092210560060                                                
6024600145000172717912062673739700265000099                                                                                     
7PESE                                                                                000000000145000                            
50000510201709222017092579120725084067       PES0000145000D004452017092215220015                                                
6024600145000172697912072508406700265000036                                                                                     
7PESE                                                                                000000000145000                            
50000610201709222017092507061734636416       PES0000040000L191742017092220191670                                                
6024600040000172670706173463641600000000042                                                                                     
7PESE                                                                                000000000040000                            
50000710201709232017092507060433709848       PES0000040000A047812017092218010005                                                
6024600040000172670706043370984800000000036                                                                                     
7PESE                                                                                000000000040000                            
50000810201709232017092507060532745718       PES0000040000A172442017092310490049                                                
6024600040000172670706053274571800000000084                                                                                     
7PESE                                                                                000000000040000                            
50000910201709242017092579120531281020       PES0000145000L260012017092419203504                                                
6024600145000172747912053128102000265000037                                                                                     
7PESE                                                                                000000000145000                            
50001010201709242017092579120725677368       PES0000145000L260012017092419163502                                                
6024600145000172747912072567736800265000078                                                                                     
7PESE                                                                                000000000145000                            
50001110201709242017092579121339433527       PES0000145000L260012017092419383524                                                
6024600145000172747912133943352700265000037                                                                                     
7PESE                                                                                000000000145000                            
82017092500000100000110000012670000000000000000000000000000000000000000000011                                                   
9201709250000010000011000001267000000000000000000000000000000000000000000000011                                                 
