120180425PAGO FACIL               090060246MARITIMO SRL                                                                         
320180425000001MARITIMO SRL                                                                                                     
50000110201804242018042588100131071560       PES0000060000A173712018042416490083                                                
6024600060000181218810013107156000000000015                                                                                     
7PESE                                                                                000000000060000                            
82018042500000100000010000000600000000000000000000000000000000000000000000001                                                   
9201804250000010000001000000060000000000000000000000000000000000000000000000001                                                 
