120161220PAGO FACIL               090060246MARITIMO SRL                                                                         
320161220000001MARITIMO SRL                                                                                                     
50000110201612192016122083041628508688       PES0000052500A063842016121910260009                                                
6024600052500163548304162850868800075000015                                                                                     
7PESE                                                                                000000000052500                            
50000210201612192016122083040829504246       PES0000052500A088822016121919190013                                                
6024600052500163618304082950424600075000063                                                                                     
7PESE                                                                                000000000052500                            
50000310201612192016122085030538424608       PES0000072500A155022016121914080117                                                
6024600072500163568503053842460800000000090                                                                                     
7PESE                                                                                000000000072500                            
82016122000000100000030000001775000000000000000000000000000000000000000000003                                                   
9201612200000010000003000000177500000000000000000000000000000000000000000000003                                                 
