120180123PAGO FACIL               090060246MARITIMO SRL                                                                         
320180123000001MARITIMO SRL                                                                                                     
50000110201801222018012300838336399360       PES0000192500A127782018012210300032                                                
6024600192500180280083833639936000132000090                                                                                     
7PESE                                                                                000000000192500                            
82018012300000100000010000001925000000000000000000000000000000000000000000001                                                   
9201801230000010000001000000192500000000000000000000000000000000000000000000001                                                 
