120171128PAGO FACIL               090060246MARITIMO SRL                                                                         
320171128000001MARITIMO SRL                                                                                                     
50000110201711272017112800808029248146       PES0000200000A076262017112713410090                                                
6024600200000173340080802924814600000000042                                                                                     
7PESE                                                                                000000000200000                            
82017112800000100000010000002000000000000000000000000000000000000000000000001                                                   
9201711280000010000001000000200000000000000000000000000000000000000000000000001                                                 
