120170125PAGO FACIL               090060246MARITIMO SRL                                                                         
320170125000001MARITIMO SRL                                                                                                     
50000110201701242017012557071014145124       PES0000150000D007542017012411200090                                                
6024600150000170275707101414512400000000037                                                                                     
7PESE                                                                                000000000150000                            
82017012500000100000010000001500000000000000000000000000000000000000000000001                                                   
9201701250000010000001000000150000000000000000000000000000000000000000000000001                                                 
