120171127PAGO FACIL               090060246MARITIMO SRL                                                                         
320171127000001MARITIMO SRL                                                                                                     
50000110201711252017112700808037273280       PES0000200000A206302017112517240020                                                
6024600200000173340080803727328000000000042                                                                                     
7PESE                                                                                000000000200000                            
82017112700000100000010000002000000000000000000000000000000000000000000000001                                                   
9201711270000010000001000000200000000000000000000000000000000000000000000000001                                                 
