120180928PAGO FACIL               090060246MARITIMO SRL                                                                         
320180928000001MARITIMO SRL                                                                                                     
50000110201809272018092801021040895203       PES0000276303D008912018092712020094                                                
6024600276303182730102104089520300000360036                                                                                     
7PESP                                                                                000000000276303                            
82018092800000100000010000002763030000000000000000000000000000000000000000001                                                   
9201809280000010000001000000276303000000000000000000000000000000000000000000001                                                 
