120171024PAGO FACIL               090060246MARITIMO SRL                                                                         
320171024000001MARITIMO SRL                                                                                                     
50000110201710232017102406010337953540       PES0000020000A114352017102311280059                                                
6024600020000172980601033795354000000000021                                                                                     
7PESE                                                                                000000000020000                            
50000210201710232017102406010423266633       PES0000020000A114352017102311280058                                                
6024600020000172980601042326663300000000063                                                                                     
7PESE                                                                                000000000020000                            
50000310201710232017102482171522410596       PES0000051000A031192017102319110038                                                
6024600051000172988217152241059600000000057                                                                                     
7PESE                                                                                000000000051000                            
50000410201710232017102479120821707896       PES0000171500A088822017102319380075                                                
6024600171500172967912082170789600000000084                                                                                     
7PESE                                                                                000000000171500                            
50000510201710232017102479120725473917       PES0000171500A117302017102315310071                                                
6024600171500173007912072547391700000000016                                                                                     
7PESE                                                                                000000000171500                            
82017102400000100000050000004340000000000000000000000000000000000000000000005                                                   
9201710240000010000005000000434000000000000000000000000000000000000000000000005                                                 
