120180924PAGO FACIL               090060246MARITIMO SRL                                                                         
320180924000001MARITIMO SRL                                                                                                     
50000110201809232018092410102923431914       PES0000025000D008012018092311560078                                                
6024600025000182691010292343191400000000063                                                                                     
7PESE                                                                                000000000025000                            
82018092400000100000010000000250000000000000000000000000000000000000000000001                                                   
9201809240000010000001000000025000000000000000000000000000000000000000000000001                                                 
