120170927PAGO FACIL               090060246MARITIMO SRL                                                                         
320170927000001MARITIMO SRL                                                                                                     
50000110201709262017092779120724358332       PES0000145000A139162017092612150084                                                
6024600145000172697912072435833200265000063                                                                                     
7PESE                                                                                000000000145000                            
50000210201709262017092779120530048839       PES0000145000D003842017092614510045                                                
6024600145000172757912053004883900265000057                                                                                     
7PESE                                                                                000000000145000                            
50000310201709262017092779121014465219       PES0000145000A070462017092609320009                                                
6024600145000172757912101446521900265000058                                                                                     
7PESE                                                                                000000000145000                            
50000410201709262017092779120917082785       PES0000145000A113952017092612000086                                                
6024600145000172767912091708278500265000063                                                                                     
7PESE                                                                                000000000145000                            
82017092700000100000040000005800000000000000000000000000000000000000000000004                                                   
9201709270000010000004000000580000000000000000000000000000000000000000000000004                                                 
