120171122PAGO FACIL               090060246MARITIMO SRL                                                                         
320171122000001MARITIMO SRL                                                                                                     
50000110201711212017112203050230547794       PES0000025000L260012017112117519558                                                
6024600025000173320305023054779400000000084                                                                                     
7PESE                                                                                000000000025000                            
50000210201711212017112203051132383273       PES0000025000L260012017112117519559                                                
6024600025000173320305113238327300000000015                                                                                     
7PESE                                                                                000000000025000                            
82017112200000100000020000000500000000000000000000000000000000000000000000002                                                   
9201711220000010000002000000050000000000000000000000000000000000000000000000002                                                 
