120170720PAGO FACIL               090060246MARITIMO SRL                                                                         
320170720000001MARITIMO SRL                                                                                                     
50000110201707192017072076040529193863       PES0000020000A174212017071917440041                                                
6024600020000172027604052919386300000000000                                                                                     
7PESE                                                                                000000000020000                            
50000210201707192017072000888835266508       PES0000117000A171222017071911550026                                                
6024600117000172020088883526650800000000015                                                                                     
7PESE                                                                                000000000117000                            
82017072000000100000020000001370000000000000000000000000000000000000000000002                                                   
9201707200000010000002000000137000000000000000000000000000000000000000000000002                                                 
