120171220PAGO FACIL               090060246MARITIMO SRL                                                                         
320171220000001MARITIMO SRL                                                                                                     
50000110201712192017122082180139373468       PES0000030000A162502017121910090027                                                
6024600030000173598218013937346800020000090                                                                                     
7PESE                                                                                000000000030000                            
50000210201712192017122082180529708388       PES0000040500A093952017121912070042                                                
6024600040500173608218052970838800020000042                                                                                     
7PESE                                                                                000000000040500                            
82017122000000100000020000000705000000000000000000000000000000000000000000002                                                   
9201712200000010000002000000070500000000000000000000000000000000000000000000002                                                 
