120171129PAGO FACIL               090060246MARITIMO SRL                                                                         
320171129000001MARITIMO SRL                                                                                                     
50000110201711282017112902621628545161       PES0000090000A161532017112812540011                                                
6024600090000173380262162854516100300000184                                                                                     
7PESE                                                                                000000000090000                            
50000210201711282017112985046425682607       PES0000113700D001942017112815030280                                                
6024600113700173338504642568260700000000021                                                                                     
7PESE                                                                                000000000113700                            
50000310201711282017112900818139000543       PES0000175000A132522017112815380020                                                
6024600175000173380081813900054300120000036                                                                                     
7PESE                                                                                000000000175000                            
50000410201711282017112900808035266508       PES0000200000A144962017112818050062                                                
6024600200000173340080803526650800000000042                                                                                     
7PESE                                                                                000000000200000                            
82017112900000100000040000005787000000000000000000000000000000000000000000004                                                   
9201711290000010000004000000578700000000000000000000000000000000000000000000004                                                 
