120170120PAGO FACIL               090060246MARITIMO SRL                                                                         
320170120000001MARITIMO SRL                                                                                                     
50000110201701192017012000555538358608       PES0000158000D000502017011919570131                                                
6024600158000170310055553835860800000000084                                                                                     
7PESE                                                                                000000000158000                            
50000210201701192017012000555538613533       PES0000158000A160782017011917370032                                                
6024600158000170310055553861353300000000036                                                                                     
7PESE                                                                                000000000158000                            
82017012000000100000020000003160000000000000000000000000000000000000000000002                                                   
9201701200000010000002000000316000000000000000000000000000000000000000000000002                                                 
