120170529PAGO FACIL               090060246MARITIMO SRL                                                                         
320170529000001MARITIMO SRL                                                                                                     
50000110201705262017052907052024190608       PES0000030000A113032017052611320073                                                
6024600030000171510705202419060800050007163                                                                                     
7PESE                                                                                000000000030000                            
50000210201705262017052907052122061839       PES0000030000A113032017052611330074                                                
6024600030000171510705212206183900050007100                                                                                     
7PESE                                                                                000000000030000                            
50000310201705262017052924010620415360       PES0000035000A144832017052616140061                                                
6024600035000171462401062041536000000000037                                                                                     
7PESE                                                                                000000000035000                            
50000410201705262017052900888840389310       PES0000117000A139942017052616210051                                                
6024600117000171530088884038931000000000015                                                                                     
7PESE                                                                                000000000117000                            
50000510201705262017052900747435123263       PES0000200000A076262017052619070022                                                
6024600200000171510074743512326300000000078                                                                                     
7PESE                                                                                000000000200000                            
50000610201705262017052900888838890969       PES0000117000D002822017052615560252                                                
6024600117000171510088883889096900000000000                                                                                     
7PESE                                                                                000000000117000                            
50000710201705262017052924010233111291       PES0000035000A112032017052616420062                                                
6024600035000171512401023311129100000000058                                                                                     
7PESE                                                                                000000000035000                            
50000810201705272017052900595937842851       PES0000158000D002812017052717190129                                                
6024600158000171510059593784285100000000042                                                                                     
7PESE                                                                                000000000158000                            
82017052900000100000080000007220000000000000000000000000000000000000000000008                                                   
9201705290000010000008000000722000000000000000000000000000000000000000000000008                                                 
