120180625PAGO FACIL               090060246MARITIMO SRL                                                                         
320180625000001MARITIMO SRL                                                                                                     
50000110201806222018062588100130046299       PES0000060000A171662018062217420014                                                
6024600060000181808810013004629900000000063                                                                                     
7PESE                                                                                000000000060000                            
50000210201806222018062502640241310328       PES0000069500A259622018062217440061                                                
6024600069500181760264024131032800161000484                                                                                     
7PESE                                                                                000000000069500                            
82018062500000100000020000001295000000000000000000000000000000000000000000002                                                   
9201806250000010000002000000129500000000000000000000000000000000000000000000002                                                 
