120180228PAGO FACIL               090060246MARITIMO SRL                                                                         
320180228000001MARITIMO SRL                                                                                                     
50000110201802272018022810090340850819       PES0000047000A184942018022718540138                                                
6024600047000180591009034085081900080007879                                                                                     
7PESE                                                                                000000000047000                            
82018022800000100000010000000470000000000000000000000000000000000000000000001                                                   
9201802280000010000001000000047000000000000000000000000000000000000000000000001                                                 
