120171228PAGO FACIL               090060246MARITIMO SRL                                                                         
320171228000001MARITIMO SRL                                                                                                     
50000110201712272017122883052432690451       PES0000065000A153512017122714130074                                                
6024600065000173618305243269045100150000037                                                                                     
7PESE                                                                                000000000065000                            
50000210201712272017122885044227408518       PES0000113700D007542017122715580036                                                
6024600113700173628504422740851800000000063                                                                                     
7PESE                                                                                000000000113700                            
50000310201712272017122885046636086182       PES0000113700A105802017122712350058                                                
6024600113700173638504663608618200000000079                                                                                     
7PESE                                                                                000000000113700                            
50000410201712272017122885044614614712       PES0000113700A161752017122711030160                                                
6024600113700173648504461461471200000000042                                                                                     
7PESE                                                                                000000000113700                            
82017122800000100000040000004061000000000000000000000000000000000000000000004                                                   
9201712280000010000004000000406100000000000000000000000000000000000000000000004                                                 
