120161226PAGO FACIL               090060246MARITIMO SRL                                                                         
320161226000001MARITIMO SRL                                                                                                     
50000110201612232016122683042622928887       PES0000052500A148632016122311530081                                                
6024600052500163628304262292888700075000079                                                                                     
7PESE                                                                                000000000052500                            
50000210201612232016122629170321439691       PES0000075000A173712016122312080113                                                
6024600075000163632917032143969100000000042                                                                                     
7PESE                                                                                000000000075000                            
50000310201612232016122683040733413343       PES0000052500A158242016122312160147                                                
6024600052500163658304073341334300075000021                                                                                     
7PESE                                                                                000000000052500                            
50000410201612232016122618500525097611       PES0000080000A063662016122313330019                                                
6024600080000163591850052509761100200000036                                                                                     
7PESE                                                                                000000000080000                            
50000510201612232016122618500494403771       PES0000080000A063662016122313350020                                                
6024600080000163591850049440377100200000037                                                                                     
7PESE                                                                                000000000080000                            
50000610201612232016122618502235380496       PES0000070000A173872016122314250030                                                
6024600070000163641850223538049600200000021                                                                                     
7PESE                                                                                000000000070000                            
50000710201612232016122685034228767613       PES0000093000D002462016122318170252                                                
6024600093000163658503422876761300000000016                                                                                     
7PESE                                                                                000000000093000                            
50000810201612242016122629170825028974       PES0000075000A048332016122409050004                                                
6024600075000163632917082502897400000000000                                                                                     
7PESE                                                                                000000000075000                            
50000910201612242016122683042623803933       PES0000052500A084922016122412030012                                                
6024600052500163638304262380393300075000090                                                                                     
7PESE                                                                                000000000052500                            
50001010201612242016122683042525788056       PES0000052500D005282016122412040070                                                
6024600052500170018304252578805600075000063                                                                                     
7PESE                                                                                000000000052500                            
82016122600000100000100000006830000000000000000000000000000000000000000000010                                                   
9201612260000010000010000000683000000000000000000000000000000000000000000000010                                                 
