120170822PAGO FACIL               090060246MARITIMO SRL                                                                         
320170822000001MARITIMO SRL                                                                                                     
50000110201708182017082200919137273280       PES0000117000A173282017081809440042                                                
6024600117000172300091913727328000000000084                                                                                     
7PESE                                                                                000000000117000                            
50000210201708182017082200777737273280       PES0000200000A173282017081809430041                                                
6024600187000172270077773727328000130000621                                                                                     
7PESE                                                                                000000000200000                            
50000310201708182017082200969637273280       PES0000123500A173282017081809450043                                                
6024600123500172330096963727328000000000090                                                                                     
7PESE                                                                                000000000123500                            
50000410201708182017082200777732199535       PES0000200000A148342017081810010032                                                
6024600200000172430077773219953500000000057                                                                                     
7PESE                                                                                000000000200000                            
50000510201708182017082200898932199535       PES0000117000A148342017081810020033                                                
6024600117000172360089893219953500000000063                                                                                     
7PESE                                                                                000000000117000                            
50000610201708192017082200787830105518       PES0000175000D007932017081916530078                                                
6024600175000172340078783010551800120000036                                                                                     
7PESE                                                                                000000000175000                            
82017082200000100000060000009325000000000000000000000000000000000000000000006                                                   
9201708220000010000006000000932500000000000000000000000000000000000000000000006                                                 
