120161221PAGO FACIL               090060246MARITIMO SRL                                                                         
320161221000001MARITIMO SRL                                                                                                     
50000110201612202016122118502522922990       PES0000070000A175532016122008100004                                                
6024600070000163601850252292299000200000037                                                                                     
7PESE                                                                                000000000070000                            
50000210201612202016122185030634513911       PES0000072500A149692016122011500018                                                
6024600072500163628503063451391100000000021                                                                                     
7PESE                                                                                000000000072500                            
50000310201612202016122129170820256939       PES0000075000A073842016122013100083                                                
6024600075000163592917082025693900000000016                                                                                     
7PESE                                                                                000000000075000                            
50000410201612202016122118500234513911       PES0000080000A161162016122014350017                                                
6024600080000163621850023451391100200000037                                                                                     
7PESE                                                                                000000000080000                            
82016122100000100000040000002975000000000000000000000000000000000000000000004                                                   
9201612210000010000004000000297500000000000000000000000000000000000000000000004                                                 
