120180627PAGO FACIL               090060246MARITIMO SRL                                                                         
320180627000001MARITIMO SRL                                                                                                     
50000110201806262018062776050624041085       PES0000020000A056902018062613310005                                                
6024600020000181797605062404108500050000037                                                                                     
7PESE                                                                                000000000020000                            
82018062700000100000010000000200000000000000000000000000000000000000000000001                                                   
9201806270000010000001000000020000000000000000000000000000000000000000000000001                                                 
