120180321PAGO FACIL               090060246MARITIMO SRL                                                                         
320180321000001MARITIMO SRL                                                                                                     
50000110201803202018032116013936413826       PES0000035000A259612018032009010025                                                
6024600035000180821601393641382600000000099                                                                                     
7PESE                                                                                000000000035000                            
82018032100000100000010000000350000000000000000000000000000000000000000000001                                                   
9201803210000010000001000000035000000000000000000000000000000000000000000000001                                                 
