120170627PAGO FACIL               090060246MARITIMO SRL                                                                         
320170627000001MARITIMO SRL                                                                                                     
50000110201706262017062700898941159562       PES0000117000A117582017062410550018                                                
6024600117000171800089894115956200000000000                                                                                     
7PESE                                                                                000000000117000                            
50000210201706262017062700898929248146       PES0000117000A076262017062618040099                                                
6024600117000171840089892924814600000000021                                                                                     
7PESE                                                                                000000000117000                            
82017062700000100000020000002340000000000000000000000000000000000000000000002                                                   
9201706270000010000002000000234000000000000000000000000000000000000000000000002                                                 
