120180322PAGO FACIL               090060246MARITIMO SRL                                                                         
320180322000001MARITIMO SRL                                                                                                     
50000110201803212018032210091723768055       PES0000055000A044382018032118140035                                                
6024600055000180811009172376805500000000084                                                                                     
7PESE                                                                                000000000055000                            
82018032200000100000010000000550000000000000000000000000000000000000000000001                                                   
9201803220000010000001000000055000000000000000000000000000000000000000000000001                                                 
