120180621PAGO FACIL               090060246MARITIMO SRL                                                                         
320180621000001MARITIMO SRL                                                                                                     
50000110201806192018062101211229422251       PES0000050000A145742018061909590040                                                
6024600050000181770121122942225100000000016                                                                                     
7PESE                                                                                000000000050000                            
50000210201806192018062182202533746881       PES0000063200L260012018061913301332                                                
6024600063200181738220253374688100053000415                                                                                     
7PESE                                                                                000000000063200                            
82018062100000100000020000001132000000000000000000000000000000000000000000002                                                   
9201806210000010000002000000113200000000000000000000000000000000000000000000002                                                 
