120180320PAGO FACIL               090060246MARITIMO SRL                                                                         
320180320000001MARITIMO SRL                                                                                                     
50000110201803192018032012011418517008       PES0000065000A212332018031909380065                                                
6024600065000180791201141851700800000000058                                                                                     
7PESE                                                                                000000000065000                            
82018032000000100000010000000650000000000000000000000000000000000000000000001                                                   
9201803200000010000001000000065000000000000000000000000000000000000000000000001                                                 
