120171222PAGO FACIL               090060246MARITIMO SRL                                                                         
320171222000001MARITIMO SRL                                                                                                     
50000110201712212017122285044422362277       PES0000113700A167552017122115060044                                                
6024600113700173608504442236227700000000058                                                                                     
7PESE                                                                                000000000113700                            
82017122200000100000010000001137000000000000000000000000000000000000000000001                                                   
9201712220000010000001000000113700000000000000000000000000000000000000000000001                                                 
