120180829PAGO FACIL               090060246MARITIMO SRL                                                                         
320180829000001MARITIMO SRL                                                                                                     
50000110201808282018082902654711683548       PES0000107100L260012018082812549997                                                
6024600107100182430265471168354800000000063                                                                                     
7PESE                                                                                000000000107100                            
82018082900000100000010000001071000000000000000000000000000000000000000000001                                                   
9201808290000010000001000000107100000000000000000000000000000000000000000000001                                                 
