120180323PAGO FACIL               090060246MARITIMO SRL                                                                         
320180323000001MARITIMO SRL                                                                                                     
50000110201803222018032310090335657972       PES0000055000A199922018032220150064                                                
6024600055000180811009033565797200000000079                                                                                     
7PESE                                                                                000000000055000                            
50000210201803222018032312011234253322       PES0000065000A136752018032212150140                                                
6024600065000180811201123425332200000000000                                                                                     
7PESE                                                                                000000000065000                            
82018032300000100000020000001200000000000000000000000000000000000000000000002                                                   
9201803230000010000002000000120000000000000000000000000000000000000000000000002                                                 
