120170524PAGO FACIL               090060246MARITIMO SRL                                                                         
320170524000001MARITIMO SRL                                                                                                     
50000110201705232017052424012531783664       PES0000070000A173712017052313160109                                                
6024600070000171442401253178366400000000036                                                                                     
7PESE                                                                                000000000070000                            
50000210201705232017052400595934482422       PES0000158000A145052017052310190027                                                
6024600158000171510059593448242200000000057                                                                                     
7PESE                                                                                000000000158000                            
82017052400000100000020000002280000000000000000000000000000000000000000000002                                                   
9201705240000010000002000000228000000000000000000000000000000000000000000000002                                                 
