120170926PAGO FACIL               090060246MARITIMO SRL                                                                         
320170926000001MARITIMO SRL                                                                                                     
50000110201709252017092682170331586524       PES0000048000M601812017092511470018                                                
6024600048000172688217033158652400030000078                                                                                     
7PESE                                                                                000000000048000                            
50000210201709252017092600969611105201       PES0000123500A095702017092513030077                                                
6024600123500172730096961110520100000000084                                                                                     
7PESE                                                                                000000000123500                            
50000310201709252017092679120821924423       PES0000145000A128802017092516350062                                                
6024600145000172687912082192442300265000037                                                                                     
7PESE                                                                                000000000145000                            
50000410201709252017092679120917881399       PES0000145000A158372017092516420071                                                
6024600145000172717912091788139900265000058                                                                                     
7PESE                                                                                000000000145000                            
82017092600000100000040000004615000000000000000000000000000000000000000000004                                                   
9201709260000010000004000000461500000000000000000000000000000000000000000000004                                                 
