120171123PAGO FACIL               090060246MARITIMO SRL                                                                         
320171123000001MARITIMO SRL                                                                                                     
50000110201711222017112303050329359339       PES0000025000L260012017112219542406                                                
6024600025000173330305032935933900000000042                                                                                     
7PESE                                                                                000000000025000                            
50000210201711222017112300797929248146       PES0000200000A084922017112218480005                                                
6024600200000173330079792924814600000000079                                                                                     
7PESE                                                                                000000000200000                            
82017112300000100000020000002250000000000000000000000000000000000000000000002                                                   
9201711230000010000002000000225000000000000000000000000000000000000000000000002                                                 
