120170825PAGO FACIL               090060246MARITIMO SRL                                                                         
320170825000001MARITIMO SRL                                                                                                     
50000110201708242017082576044329195005       PES0000010000A161352017082416430025                                                
6024600010000172377604432919500500000000084                                                                                     
7PESE                                                                                000000000010000                            
50000210201708242017082576044329195005       PES0000010000A161352017082416430024                                                
6024600010000172377604432919500500000000084                                                                                     
7PESE                                                                                000000000010000                            
82017082500000100000020000000200000000000000000000000000000000000000000000002                                                   
9201708250000010000002000000020000000000000000000000000000000000000000000000002                                                 
