120171020PAGO FACIL               090060246MARITIMO SRL                                                                         
320171020000001MARITIMO SRL                                                                                                     
50000110201710192017102000797940468347       PES0000200000A153902017101912480004                                                
6024600200000173040079794046834700000000079                                                                                     
7PESE                                                                                000000000200000                            
82017102000000100000010000002000000000000000000000000000000000000000000000001                                                   
9201710200000010000001000000200000000000000000000000000000000000000000000000001                                                 
