120180423PAGO FACIL               090060246MARITIMO SRL                                                                         
320180423000001MARITIMO SRL                                                                                                     
50000110201804212018042399330141823859       PES0000180000A206312018042112170052                                                
6024600180000181169933014182385900000000084                                                                                     
7PESE                                                                                000000000180000                            
82018042300000100000010000001800000000000000000000000000000000000000000000001                                                   
9201804230000010000001000000180000000000000000000000000000000000000000000000001                                                 
