120170629PAGO FACIL               090060246MARITIMO SRL                                                                         
320170629000001MARITIMO SRL                                                                                                     
50000110201706282017062900898931603436       PES0000117000A158432017062817550085                                                
6024600117000171860089893160343600000000099                                                                                     
7PESE                                                                                000000000117000                            
82017062900000100000010000001170000000000000000000000000000000000000000000001                                                   
9201706290000010000001000000117000000000000000000000000000000000000000000000001                                                 
