120171023PAGO FACIL               090060246MARITIMO SRL                                                                         
320171023000001MARITIMO SRL                                                                                                     
50000110201710202017102306010124907229       PES0000030000A144722017102009260040                                                
6024600030000172980601012490722900000000016                                                                                     
7PESE                                                                                000000000030000                            
50000210201710202017102306010328587984       PES0000020000A182652017102012260004                                                
6024600020000172990601032858798400000000079                                                                                     
7PESE                                                                                000000000020000                            
50000310201710202017102306010428714027       PES0000020000A182652017102012260005                                                
6024600020000172990601042871402700000000036                                                                                     
7PESE                                                                                000000000020000                            
82017102300000100000030000000700000000000000000000000000000000000000000000003                                                   
9201710230000010000003000000070000000000000000000000000000000000000000000000003                                                 
