120170622PAGO FACIL               090060246MARITIMO SRL                                                                         
320170622000001MARITIMO SRL                                                                                                     
50000110201706212017062279110225554179       PES0000107500D004332017062121020239                                                
6024600107500171727911022555417900000000037                                                                                     
7PESE                                                                                000000000107500                            
50000210201706212017062279110410931805       PES0000107500D004332017062121010238                                                
6024600107500171727911041093180500000000042                                                                                     
7PESE                                                                                000000000107500                            
50000310201706212017062279111020013696       PES0000107500A198712017062118180001                                                
6024600107500171727911102001369600000000042                                                                                     
7PESE                                                                                000000000107500                            
82017062200000100000030000003225000000000000000000000000000000000000000000003                                                   
9201706220000010000003000000322500000000000000000000000000000000000000000000003                                                 
