120170922PAGO FACIL               090060246MARITIMO SRL                                                                         
320170922000001MARITIMO SRL                                                                                                     
50000110201709212017092207060436636217       PES0000040000A160362017092115080100                                                
6024600040000172670706043663621700000000084                                                                                     
7PESE                                                                                000000000040000                            
50000210201709212017092207060628445093       PES0000040000A160362017092115070098                                                
6024600040000172670706062844509300000000079                                                                                     
7PESE                                                                                000000000040000                            
50000310201709212017092207060822847787       PES0000040000A160362017092115070099                                                
6024600040000172670706082284778700000000084                                                                                     
7PESE                                                                                000000000040000                            
50000410201709212017092279120340345095       PES0000145000A166382017092114120133                                                
6024600145000172687912034034509500265000000                                                                                     
7PESE                                                                                000000000145000                            
50000510201709212017092279120918070289       PES0000145000A166382017092114120132                                                
6024600145000172687912091807028900265000042                                                                                     
7PESE                                                                                000000000145000                            
50000610201709212017092279120724040518       PES0000145000A153582017092111340035                                                
6024600145000172717912072404051800265000090                                                                                     
7PESE                                                                                000000000145000                            
82017092200000100000060000005550000000000000000000000000000000000000000000006                                                   
9201709220000010000006000000555000000000000000000000000000000000000000000000006                                                 
