120170124PAGO FACIL               090060246MARITIMO SRL                                                                         
320170124000001MARITIMO SRL                                                                                                     
50000110201701232017012457070628056224       PES0000150000A161242017012311150030                                                
6024600150000170275707062805622400000000079                                                                                     
7PESE                                                                                000000000150000                            
82017012400000100000010000001500000000000000000000000000000000000000000000001                                                   
9201701240000010000001000000150000000000000000000000000000000000000000000000001                                                 
