120180628PAGO FACIL               090060246MARITIMO SRL                                                                         
320180628000001MARITIMO SRL                                                                                                     
50000110201806272018062801131141470837       PES0000150000D009262018062714090139                                                
6024600150000181850113114147083700000000078                                                                                     
7PESE                                                                                000000000150000                            
82018062800000100000010000001500000000000000000000000000000000000000000000001                                                   
9201806280000010000001000000150000000000000000000000000000000000000000000000001                                                 
