120170428PAGO FACIL               090060246MARITIMO SRL                                                                         
320170428000001MARITIMO SRL                                                                                                     
50000110201704272017042882150620824714       PES0000051000A159692017042717190076                                                
6024600051000171248215062082471400000000079                                                                                     
7PESE                                                                                000000000051000                            
50000210201704272017042800575735229831       PES0000158000A174532017042711290048                                                
6024600158000171230057573522983100000000079                                                                                     
7PESE                                                                                000000000158000                            
82017042800000100000020000002090000000000000000000000000000000000000000000002                                                   
9201704280000010000002000000209000000000000000000000000000000000000000000000002                                                 
