120180622PAGO FACIL               090060246MARITIMO SRL                                                                         
320180622000001MARITIMO SRL                                                                                                     
50000110201806212018062201141140910433       PES0000150000A084922018062119350227                                                
6024600150000181790114114091043300000000063                                                                                     
7PESE                                                                                000000000150000                            
82018062200000100000010000001500000000000000000000000000000000000000000000001                                                   
9201806220000010000001000000150000000000000000000000000000000000000000000000001                                                 
