120171026PAGO FACIL               090060246MARITIMO SRL                                                                         
320171026000001MARITIMO SRL                                                                                                     
50000110201710252017102606010425817182       PES0000020000A104232017102518200053                                                
6024600020000173030601042581718200000000063                                                                                     
7PESE                                                                                000000000020000                            
50000210201710252017102606010123838410       PES0000030000A145852017102511440067                                                
6024600030000173050601012383841000000000099                                                                                     
7PESE                                                                                000000000030000                            
50000310201710252017102606010140742004       PES0000030000A145852017102511460069                                                
6024600030000173050601014074200400000000036                                                                                     
7PESE                                                                                000000000030000                            
50000410201710252017102606010226764147       PES0000030000A145852017102511440066                                                
6024600030000173050601022676414700000000058                                                                                     
7PESE                                                                                000000000030000                            
50000510201710252017102606010241757889       PES0000030000A145852017102511450068                                                
6024600030000173050601024175788900000000000                                                                                     
7PESE                                                                                000000000030000                            
50000610201710252017102682172325715963       PES0000066000A108312017102518320077                                                
6024600066000172988217232571596300000000099                                                                                     
7PESE                                                                                000000000066000                            
50000710201710252017102679120725318455       PES0000171500A134582017102512060006                                                
6024600171500173007912072531845500000000015                                                                                     
7PESE                                                                                000000000171500                            
50000810201710252017102679120918457412       PES0000171500A157892017102511150004                                                
6024600171500173007912091845741200000000000                                                                                     
7PESE                                                                                000000000171500                            
50000910201710252017102679121208207715       PES0000171500A170612017102513060067                                                
6024600171500173007912120820771500000000063                                                                                     
7PESE                                                                                000000000171500                            
82017102600000100000090000007205000000000000000000000000000000000000000000009                                                   
9201710260000010000009000000720500000000000000000000000000000000000000000000009                                                 
