120170721PAGO FACIL               090060246MARITIMO SRL                                                                         
320170721000001MARITIMO SRL                                                                                                     
50000110201707202017072182161522522057       PES0000048000A180052017072010090003                                                
6024600048000172068216152252205700030000000                                                                                     
7PESE                                                                                000000000048000                            
82017072100000100000010000000480000000000000000000000000000000000000000000001                                                   
9201707210000010000001000000048000000000000000000000000000000000000000000000001                                                 
