120180522PAGO FACIL               090060246MARITIMO SRL                                                                         
320180522000001MARITIMO SRL                                                                                                     
50000110201805212018052201131133290950       PES0000150000A194932018052116570056                                                
6024600150000181480113113329095000000000042                                                                                     
7PESE                                                                                000000000150000                            
82018052200000100000010000001500000000000000000000000000000000000000000000001                                                   
9201805220000010000001000000150000000000000000000000000000000000000000000000001                                                 
