120170427PAGO FACIL               090060246MARITIMO SRL                                                                         
320170427000001MARITIMO SRL                                                                                                     
50000110201704262017042782150716168839       PES0000051000D001872017042613290127                                                
6024600051000171228215071616883900000000084                                                                                     
7PESE                                                                                000000000051000                            
50000210201704262017042700575736403897       PES0000158000D001732017042617080196                                                
6024600158000171200057573640389700000000090                                                                                     
7PESE                                                                                000000000158000                            
50000310201704262017042700747441968115       PES0000175000A010892017042617460006                                                
6024600175000171230074744196811500120000042                                                                                     
7PESE                                                                                000000000175000                            
82017042700000100000030000003840000000000000000000000000000000000000000000003                                                   
9201704270000010000003000000384000000000000000000000000000000000000000000000003                                                 
