120171221PAGO FACIL               090060246MARITIMO SRL                                                                         
320171221000001MARITIMO SRL                                                                                                     
50000110201712202017122182180139759721       PES0000030000A127472017122016110023                                                
6024600030000173618218013975972100020000099                                                                                     
7PESE                                                                                000000000030000                            
50000210201712202017122182180430223203       PES0000040500A121422017122017160061                                                
6024600040500173608218043022320300020000063                                                                                     
7PESE                                                                                000000000040500                            
50000310201712202017122182180914276481       PES0000040500A031192017122016050009                                                
6024600040500173618218091427648100020000036                                                                                     
7PESE                                                                                000000000040500                            
50000410201712202017122185044325029685       PES0000113700A601832017122011380057                                                
6024600113700173578504432502968500000000099                                                                                     
7PESE                                                                                000000000113700                            
82017122100000100000040000002247000000000000000000000000000000000000000000004                                                   
9201712210000010000004000000224700000000000000000000000000000000000000000000004                                                 
