120180327PAGO FACIL               090060246MARITIMO SRL                                                                         
320180327000001MARITIMO SRL                                                                                                     
50000110201803262018032716012217130025       PES0000035000L190492018032617492623                                                
6024600035000180861601221713002500000000078                                                                                     
7PESE                                                                                000000000035000                            
50000210201803262018032716012311960340       PES0000035000L190492018032617502624                                                
6024600035000180861601231196034000000000063                                                                                     
7PESE                                                                                000000000035000                            
50000310201803262018032716015016129224       PES0000035000A200982018032618120064                                                
6024600035000180861601501612922400000000079                                                                                     
7PESE                                                                                000000000035000                            
82018032700000100000030000001050000000000000000000000000000000000000000000003                                                   
9201803270000010000003000000105000000000000000000000000000000000000000000000003                                                 
