120170424PAGO FACIL               090060246MARITIMO SRL                                                                         
320170424000001MARITIMO SRL                                                                                                     
50000110201704212017042482141432451140       PES0000049000A077352017042111350038                                                
6024600049000171118214143245114000000000063                                                                                     
7PESE                                                                                000000000049000                            
50000210201704212017042400595938056001       PES0000140000D002462017042117050043                                                
6024600140000171180059593805600100095000084                                                                                     
7PESE                                                                                000000000140000                            
82017042400000100000020000001890000000000000000000000000000000000000000000002                                                   
9201704240000010000002000000189000000000000000000000000000000000000000000000002                                                 
