120170630PAGO FACIL               090060246MARITIMO SRL                                                                         
320170630000001MARITIMO SRL                                                                                                     
50000110201706292017063000898940540364       PES0000117000A180022017062917380048                                                
6024600117000171870089894054036400000000058                                                                                     
7PESE                                                                                000000000117000                            
82017063000000100000010000001170000000000000000000000000000000000000000000001                                                   
9201706300000010000001000000117000000000000000000000000000000000000000000000001                                                 
