120170530PAGO FACIL               090060246MARITIMO SRL                                                                         
320170530000001MARITIMO SRL                                                                                                     
50000110201705292017053024010427235313       PES0000035000A194602017052912010007                                                
6024600035000171492401042723531300000000058                                                                                     
7PESE                                                                                000000000035000                            
50000210201705292017053024010428052735       PES0000035000A194602017052912010008                                                
6024600035000171492401042805273500000000079                                                                                     
7PESE                                                                                000000000035000                            
50000310201705292017053024010329994018       PES0000035000A038202017052917580087                                                
6024600035000171512401032999401800000000000                                                                                     
7PESE                                                                                000000000035000                            
50000410201705292017053079110320425572       PES0000096500A161412017052914420040                                                
6024600096500171567911032042557200110000084                                                                                     
7PESE                                                                                000000000096500                            
50000510201705292017053000888829316782       PES0000117000D005302017052916240041                                                
6024600117000171560088882931678200000000037                                                                                     
7PESE                                                                                000000000117000                            
50000610201705292017053000606032093887       PES0000140000A143792017052918060012                                                
6024600140000171560060603209388700095000000                                                                                     
7PESE                                                                                000000000140000                            
82017053000000100000060000004585000000000000000000000000000000000000000000006                                                   
9201705300000010000006000000458500000000000000000000000000000000000000000000006                                                 
