120170331PAGO FACIL               090060246MARITIMO SRL                                                                         
320170331000001MARITIMO SRL                                                                                                     
50000110201703302017033179100817063185       PES0000042000A143472017033017470002                                                
6024600042000170917910081706318500070000284                                                                                     
7PESE                                                                                000000000042000                            
50000210201703302017033182141817801178       PES0000046000A137632017033012360029                                                
6024600046000170908214181780117800030007463                                                                                     
7PESE                                                                                000000000046000                            
82017033100000100000020000000880000000000000000000000000000000000000000000002                                                   
9201703310000010000002000000088000000000000000000000000000000000000000000000002                                                 
