120171031PAGO FACIL               090060246MARITIMO SRL                                                                         
320171031000001MARITIMO SRL                                                                                                     
50000110201710302017103183051724662835       PES0000045000A121462017103017570059                                                
6024600045000173048305172466283500200007599                                                                                     
7PESE                                                                                000000000045000                            
50000210201710302017103100797935266508       PES0000200000A164852017103017090005                                                
6024600200000173040079793526650800000000021                                                                                     
7PESE                                                                                000000000200000                            
82017103100000100000020000002450000000000000000000000000000000000000000000002                                                   
9201710310000010000002000000245000000000000000000000000000000000000000000000002                                                 
