120180531PAGO FACIL               090060246MARITIMO SRL                                                                         
320180531000001MARITIMO SRL                                                                                                     
50000110201805302018053182190720734522       PES0000052500L260012018053019576552                                                
6024600052500181548219072073452200000000000                                                                                     
7PESE                                                                                000000000052500                            
50000210201805302018053182191012731640       PES0000052500A086972018053012060058                                                
6024600052500181548219101273164000000000021                                                                                     
7PESE                                                                                000000000052500                            
82018053100000100000020000001050000000000000000000000000000000000000000000002                                                   
9201805310000010000002000000105000000000000000000000000000000000000000000000002                                                 
