120170731PAGO FACIL               090060246MARITIMO SRL                                                                         
320170731000001MARITIMO SRL                                                                                                     
50000110201707282017073182162313654251       PES0000062000A130812017072816140078                                                
6024600062000172128216231365425100040007342                                                                                     
7PESE                                                                                000000000062000                            
50000210201707282017073100777736080290       PES0000175000D007762017072813040056                                                
6024600175000172150077773608029000120000000                                                                                     
7PESE                                                                                000000000175000                            
50000310201707292017073107052121819693       PES0000040000D002862017072912150075                                                
6024600040000172160705212181969300000000090                                                                                     
7PESE                                                                                000000000040000                            
50000410201707292017073182160130876164       PES0000029000A187902017072912460018                                                
6024600029000172128216013087616400035007457                                                                                     
7PESE                                                                                000000000029000                            
82017073100000100000040000003060000000000000000000000000000000000000000000004                                                   
9201707310000010000004000000306000000000000000000000000000000000000000000000004                                                 
