120180731PAGO FACIL               090060246MARITIMO SRL                                                                         
320180731000001MARITIMO SRL                                                                                                     
50000110201807302018073182201108011377       PES0000053500A046332018073014430005                                                
6024600053500182138220110801137700000000021                                                                                     
7PESE                                                                                000000000053500                            
82018073100000100000010000000535000000000000000000000000000000000000000000001                                                   
9201807310000010000001000000053500000000000000000000000000000000000000000000001                                                 
