120180830PAGO FACIL               090060246MARITIMO SRL                                                                         
320180830000001MARITIMO SRL                                                                                                     
50000110201808292018083002654518435674       PES0000107100D000502018082913440123                                                
6024600107100182430265451843567400000000037                                                                                     
7PESE                                                                                000000000107100                            
82018083000000100000010000001071000000000000000000000000000000000000000000001                                                   
9201808300000010000001000000107100000000000000000000000000000000000000000000001                                                 
