120170831PAGO FACIL               090060246MARITIMO SRL                                                                         
320170831000001MARITIMO SRL                                                                                                     
50000110201708302017083102614524823099       PES0000120000D005032017083015430192                                                
6024600120000172420261452482309900000000042                                                                                     
7PESE                                                                                000000000120000                            
82017083100000100000010000001200000000000000000000000000000000000000000000001                                                   
9201708310000010000001000000120000000000000000000000000000000000000000000000001                                                 
