120170830PAGO FACIL               090060246MARITIMO SRL                                                                         
320170830000001MARITIMO SRL                                                                                                     
50000110201708292017083000898933813397       PES0000117000D008002017082914560159                                                
6024600117000172470089893381339700000000037                                                                                     
7PESE                                                                                000000000117000                            
50000210201708292017083000898930984899       PES0000117000D005282017082918530095                                                
6024600117000172480089893098489900000000042                                                                                     
7PESE                                                                                000000000117000                            
50000310201708292017083002614523471454       PES0000120000D004872017082913260136                                                
6024600120000172420261452347145400000000084                                                                                     
7PESE                                                                                000000000120000                            
50000410201708292017083079120627740732       PES0000145000D002232017082916090114                                                
6024600145000172477912062774073200265000042                                                                                     
7PESE                                                                                000000000145000                            
50000510201708292017083000787836399360       PES0000175000A127782017082910470017                                                
6024600175000172480078783639936000120000090                                                                                     
7PESE                                                                                000000000175000                            
82017083000000100000050000006740000000000000000000000000000000000000000000005                                                   
9201708300000010000005000000674000000000000000000000000000000000000000000000005                                                 
