120180130PAGO FACIL               090060246MARITIMO SRL                                                                         
320180130000001MARITIMO SRL                                                                                                     
50000110201801292018013000818130984899       PES0000200000D005282018012912310092                                                
6024600200000180360081813098489900000000000                                                                                     
7PESE                                                                                000000000200000                            
82018013000000100000010000002000000000000000000000000000000000000000000000001                                                   
9201801300000010000001000000200000000000000000000000000000000000000000000000001                                                 
