120170531PAGO FACIL               090060246MARITIMO SRL                                                                         
320170531000001MARITIMO SRL                                                                                                     
50000110201705302017053124013536320132       PES0000070000A096182017052918270016                                                
6024600070000171512401353632013200000000037                                                                                     
7PESE                                                                                000000000070000                            
50000210201705302017053107050822252939       PES0000030000A100292017053012550080                                                
6024600030000171510705082225293900050007579                                                                                     
7PESE                                                                                000000000030000                            
50000310201705302017053107052728925019       PES0000030000D002372017053017370067                                                
6024600030000171510705272892501900050007557                                                                                     
7PESE                                                                                000000000030000                            
50000410201705302017053124010523074303       PES0000035000A122672017053014110062                                                
6024600035000171512401052307430300000000090                                                                                     
7PESE                                                                                000000000035000                            
50000510201705302017053124010524041085       PES0000035000A113952017053018360002                                                
6024600035000171512401052404108500000000090                                                                                     
7PESE                                                                                000000000035000                            
50000610201705302017053188080117569669       PES0000045000A074252017053017210038                                                
6024600045000171568808011756966900060000058                                                                                     
7PESE                                                                                000000000045000                            
50000710201705302017053188080124671366       PES0000045000A088822017053011390071                                                
6024600045000171568808012467136600060000000                                                                                     
7PESE                                                                                000000000045000                            
50000810201705302017053188080125312542       PES0000045000A074252017053017220039                                                
6024600045000171568808012531254200060000057                                                                                     
7PESE                                                                                000000000045000                            
50000910201705302017053188080133506139       PES0000045000A074252017053017220040                                                
6024600045000171568808013350613900060000021                                                                                     
7PESE                                                                                000000000045000                            
50001010201705302017053188080142781842       PES0000045000A074252017053017230041                                                
6024600045000171568808014278184200060000021                                                                                     
7PESE                                                                                000000000045000                            
50001110201705302017053188080139335649       PES0000045000A074252017053017200036                                                
6024600045000171578808013933564900060000084                                                                                     
7PESE                                                                                000000000045000                            
50001210201705302017053188080144506885       PES0000045000A074252017053017210037                                                
6024600045000171578808014450688500060000037                                                                                     
7PESE                                                                                000000000045000                            
50001310201705302017053188080144506885       PES0000045000A034222017053009340011                                                
6024600045000171578808014450688500060000037                                                                                     
7PESE                                                                                000000000045000                            
50001410201705302017053100888835607982       PES0000117000A147462017053013050011                                                
6024600117000171520088883560798200000000058                                                                                     
7PESE                                                                                000000000117000                            
50001510201705302017053100595938613533       PES0000158000A139942017053016120003                                                
6024600158000171510059593861353300000000000                                                                                     
7PESE                                                                                000000000158000                            
82017053100000100000150000008350000000000000000000000000000000000000000000015                                                   
9201705310000010000015000000835000000000000000000000000000000000000000000000015                                                 
