120171130PAGO FACIL               090060246MARITIMO SRL                                                                         
320171130000001MARITIMO SRL                                                                                                     
50000110201711292017113083052526617329       PES0000055000A161412017112910430065                                                
6024600055000173338305252661732900100000084                                                                                     
7PESE                                                                                000000000055000                            
50000210201711292017113000808041558730       PES0000200000A127422017112913250057                                                
6024600200000173340080804155873000000000021                                                                                     
7PESE                                                                                000000000200000                            
50000310201711292017113000797939466871       PES0000200000A182452017112910510057                                                
6024600200000173390079793946687100000000021                                                                                     
7PESE                                                                                000000000200000                            
82017113000000100000030000004550000000000000000000000000000000000000000000003                                                   
9201711300000010000003000000455000000000000000000000000000000000000000000000003                                                 
