120170330PAGO FACIL               090060246MARITIMO SRL                                                                         
320170330000001MARITIMO SRL                                                                                                     
50000110201703292017033082140525769250       PES0000046000A180682017032915200022                                                
6024600046000170908214052576925000030007279                                                                                     
7PESE                                                                                000000000046000                            
50000210201703292017033082140911442219       PES0000046000A088822017032918070001                                                
6024600046000170908214091144221900030007458                                                                                     
7PESE                                                                                000000000046000                            
50000310201703292017033082141912079014       PES0000046000M600102017032915420083                                                
6024600046000170908214191207901400030007321                                                                                     
7PESE                                                                                000000000046000                            
50000410201703292017033018503618424434       PES0000100000A137472017032915180003                                                
6024600100000170911850361842443400000000036                                                                                     
7PESE                                                                                000000000100000                            
50000510201703292017033018505211822414       PES0000100000A151072017032914430115                                                
6024600100000170911850521182241400000000000                                                                                     
7PESE                                                                                000000000100000                            
50000610201703292017033018500427183229       PES0000120000D003462017032916230447                                                
6024600120000170911850042718322900000000084                                                                                     
7PESE                                                                                000000000120000                            
50000710201703292017033018500524882672       PES0000120000A107772017032913360074                                                
6024600120000170911850052488267200000000021                                                                                     
7PESE                                                                                000000000120000                            
50000810201703292017033018501023250677       PES0000120000D001702017032916470305                                                
6024600120000170911850102325067700000000063                                                                                     
7PESE                                                                                000000000120000                            
50000910201703292017033018501120426311       PES0000120000D001702017032916480306                                                
6024600120000170911850112042631100000000042                                                                                     
7PESE                                                                                000000000120000                            
82017033000000100000090000008180000000000000000000000000000000000000000000009                                                   
9201703300000010000009000000818000000000000000000000000000000000000000000000009                                                 
