120180530PAGO FACIL               090060246MARITIMO SRL                                                                         
320180530000001MARITIMO SRL                                                                                                     
50000110201805292018053099460125557928       PES0000050000A145262018052917470065                                                
6024600050000181539946012555792800000000084                                                                                     
7PESE                                                                                000000000050000                            
50000210201805292018053082191717299424       PES0000052500A179542018052918560020                                                
6024600052500181548219171729942400000000058                                                                                     
7PESE                                                                                000000000052500                            
50000310201805292018053001131137234551       PES0000150000A082962018052916350001                                                
6024600150000181550113113723455100000000058                                                                                     
7PESE                                                                                000000000150000                            
82018053000000100000030000002525000000000000000000000000000000000000000000003                                                   
9201805300000010000003000000252500000000000000000000000000000000000000000000003                                                 
