120171030PAGO FACIL               090060246MARITIMO SRL                                                                         
320171030000001MARITIMO SRL                                                                                                     
50000110201710272017103079120530647345       PES0000171500A197732017102718100028                                                
6024600171500173007912053064734500000000090                                                                                     
7PESE                                                                                000000000171500                            
50000210201710282017103006010134101165       PES0000030000A145912017102810130014                                                
6024600030000173070601013410116500000000000                                                                                     
7PESE                                                                                000000000030000                            
50000310201710282017103006010129575673       PES0000030000A145912017102810130013                                                
6024600030000173070601012957567300000000058                                                                                     
7PESE                                                                                000000000030000                            
50000410201710292017103006010429643585       PES0000020000D006442017102920460196                                                
6024600020000173090601042964358500000000079                                                                                     
7PESE                                                                                000000000020000                            
82017103000000100000040000002515000000000000000000000000000000000000000000004                                                   
9201710300000010000004000000251500000000000000000000000000000000000000000000004                                                 
