120170703PAGO FACIL               090060246MARITIMO SRL                                                                         
320170703000001MARITIMO SRL                                                                                                     
50000110201706302017070396020136259902       PES0000085000A087612017063011510034                                                
6024600085000171829602013625990200000000099                                                                                     
7PESE                                                                                000000000085000                            
50000210201706302017070396020141007842       PES0000085000A087612017063011520035                                                
6024600085000171829602014100784200000000099                                                                                     
7PESE                                                                                000000000085000                            
50000310201706302017070376041430140538       PES0000015000A047422017063018180051                                                
6024600015000171817604143014053800050007784                                                                                     
7PESE                                                                                000000000015000                            
50000410201706302017070376040527623921       PES0000015000A047422017063018180050                                                
6024600015000171817604052762392100050007790                                                                                     
7PESE                                                                                000000000015000                            
82017070300000100000040000002000000000000000000000000000000000000000000000004                                                   
9201707030000010000004000000200000000000000000000000000000000000000000000000004                                                 
