120170404PAGO FACIL               090060246MARITIMO SRL                                                                         
320170404000001MARITIMO SRL                                                                                                     
50000110201704032017040482141914728553       PES0000046000A167042017033111360002                                                
6024600046000170908214191472855300030007458                                                                                     
7PESE                                                                                000000000046000                            
50000210201704032017040482142917297696       PES0000037000A143422017040318410004                                                
6024600034000170908214291729769600030007421                                                                                     
7PESE                                                                                000000000037000                            
50000310201704032017040482143014551902       PES0000037000A163672017040316220002                                                
6024600034000170908214301455190200030007416                                                                                     
7PESE                                                                                000000000037000                            
50000410201704032017040482142439342595       PES0000037000A131622017040313030090                                                
6024600037000170958214243934259500000000079                                                                                     
7PESE                                                                                000000000037000                            
50000510201704032017040482142820034200       PES0000037000A085792017040312060055                                                
6024600037000170958214282003420000000000042                                                                                     
7PESE                                                                                000000000037000                            
50000610201704032017040482143630799562       PES0000037000A139292017040318150029                                                
6024600037000170958214363079956200000000042                                                                                     
7PESE                                                                                000000000037000                            
50000710201704032017040482143727057809       PES0000037000A137312017040318330033                                                
6024600037000170958214372705780900000000090                                                                                     
7PESE                                                                                000000000037000                            
50000810201704032017040479100817288979       PES0000042000A129392017040316560012                                                
6024600042000170917910081728897900070000458                                                                                     
7PESE                                                                                000000000042000                            
50000910201704032017040482140716396288       PES0000049000A163672017040316230003                                                
6024600046000170908214071639628800030007463                                                                                     
7PESE                                                                                000000000049000                            
50001010201704032017040482140620042158       PES0000049000A170822017040311040007                                                
6024600049000170958214062004215800000000078                                                                                     
7PESE                                                                                000000000049000                            
50001110201704032017040482140814319206       PES0000049000A095412017040312240047                                                
6024600049000170958214081431920600000000000                                                                                     
7PESE                                                                                000000000049000                            
50001210201704032017040482141400000000       PES0000049000A139292017040318100024                                                
6024600049000170958214140000000000000000079                                                                                     
7PESE                                                                                000000000049000                            
50001310201704032017040482141818312004       PES0000049000A095412017040312240046                                                
6024600049000170958214181831200400000000015                                                                                     
7PESE                                                                                000000000049000                            
82017040400000100000130000005550000000000000000000000000000000000000000000013                                                   
9201704040000010000013000000555000000000000000000000000000000000000000000000013                                                 
