120170602PAGO FACIL               090060246MARITIMO SRL                                                                         
320170602000001MARITIMO SRL                                                                                                     
50000110201706012017060288080143869118       PES0000045000A150892017053110470021                                                
6024600045000171568808014386911800060000000                                                                                     
7PESE                                                                                000000000045000                            
50000210201706012017060288080129460500       PES0000045000A150892017053110480022                                                
6024600045000171568808012946050000060000099                                                                                     
7PESE                                                                                000000000045000                            
50000310201706012017060288080139710857       PES0000045000A141642017060110290071                                                
6024600045000171568808013971085700060000036                                                                                     
7PESE                                                                                000000000045000                            
50000410201706012017060288080125171162       PES0000045000A140902017060117080031                                                
6024600045000171578808012517116200060000036                                                                                     
7PESE                                                                                000000000045000                            
50000510201706012017060288080123317093       PES0000045000A140902017060117550050                                                
6024600045000171598808012331709300060000042                                                                                     
7PESE                                                                                000000000045000                            
50000610201706012017060288080134843269       PES0000045000A101652017060115400069                                                
6024600045000171598808013484326900060000036                                                                                     
7PESE                                                                                000000000045000                            
50000710201706012017060288080136259902       PES0000045000A143422017060116530122                                                
6024600045000171598808013625990200060000016                                                                                     
7PESE                                                                                000000000045000                            
50000810201706012017060200929235493043       PES0000117000A161972017060111000023                                                
6024600117000171590092923549304300000000016                                                                                     
7PESE                                                                                000000000117000                            
50000910201706012017060200929238646112       PES0000117000A169992017060112040086                                                
6024600117000171590092923864611200000000037                                                                                     
7PESE                                                                                000000000117000                            
82017060200000100000090000005490000000000000000000000000000000000000000000009                                                   
9201706020000010000009000000549000000000000000000000000000000000000000000000009                                                 
