120170907PAGO FACIL               090060246MARITIMO SRL                                                                         
320170907000001MARITIMO SRL                                                                                                     
50000110201709062017090717081629971058       PES0000058000A102452017090610040058                                                
6024600058000172551708162997105800000000084                                                                                     
7PESE                                                                                000000000058000                            
50000210201709062017090717081633313589       PES0000058000A102452017090610050059                                                
6024600058000172551708163331358900000000079                                                                                     
7PESE                                                                                000000000058000                            
50000310201709062017090717080628934684       PES0000080000M640252017090610380081                                                
6024600080000172531708062893468400150000215                                                                                     
7PESE                                                                                000000000080000                            
50000410201709062017090700949439448023       PES0000117000A171352017090617590025                                                
6024600117000172560094943944802300000000042                                                                                     
7PESE                                                                                000000000117000                            
50000510201709062017090700949441711955       PES0000117000A181612017090620020075                                                
6024600117000172560094944171195500000000042                                                                                     
7PESE                                                                                000000000117000                            
50000610201709062017090779120726209057       PES0000145000A151042017090610510033                                                
6024600145000172567912072620905700265000090                                                                                     
7PESE                                                                                000000000145000                            
82017090700000100000060000005750000000000000000000000000000000000000000000006                                                   
9201709070000010000006000000575000000000000000000000000000000000000000000000006                                                 
