120180109PAGO FACIL               090060246MARITIMO SRL                                                                         
320180109000001MARITIMO SRL                                                                                                     
50000110201801082018010982180433273684       PES0000042500A090632018010815340024                                                
6024600042500180108218043327368400000000057                                                                                     
7PESE                                                                                000000000042500                            
50000210201801082018010982180626346163       PES0000042500A210762018010815220087                                                
6024600042500180118218062634616300000000015                                                                                     
7PESE                                                                                000000000042500                            
50000310201801082018010982180342782362       PES0000042500A170872018010818180032                                                
6024600042500180128218034278236200000000058                                                                                     
7PESE                                                                                000000000042500                            
50000410201801082018010982180342492025       PES0000042500A170872018010818180033                                                
6024600042500180158218034249202500000000057                                                                                     
7PESE                                                                                000000000042500                            
50000510201801082018010910081528171678       PES0000047000A116712018010811120097                                                
6024600047000180101008152817167800000000042                                                                                     
7PESE                                                                                000000000047000                            
50000610201801082018010983052722409814       PES0000080000A197522018010810540082                                                
6024600080000180098305272240981400000000021                                                                                     
7PESE                                                                                000000000080000                            
50000710201801082018010900828241321276       PES0000192500A145652018010809040003                                                
6024600192500180070082824132127600132000084                                                                                     
7PESE                                                                                000000000192500                            
82018010900000100000070000004895000000000000000000000000000000000000000000007                                                   
9201801090000010000007000000489500000000000000000000000000000000000000000000007                                                 
