120180703PAGO FACIL               090060246MARITIMO SRL                                                                         
320180703000001MARITIMO SRL                                                                                                     
50000110201807022018070382200230598847       PES0000034300A151772018070210420010                                                
6024600034300181878220023059884700032000078                                                                                     
7PESE                                                                                000000000034300                            
50000210201807022018070302645821945473       PES0000106500A057532018070220070082                                                
6024600106500181850264582194547300000000000                                                                                     
7PESE                                                                                000000000106500                            
82018070300000100000020000001408000000000000000000000000000000000000000000002                                                   
9201807030000010000002000000140800000000000000000000000000000000000000000000002                                                 
