120170502PAGO FACIL               090060246MARITIMO SRL                                                                         
320170502000001MARITIMO SRL                                                                                                     
50000110201704282017050282150427707746       PES0000051000A171932017042719330016                                                
6024600051000171228215042770774600000000084                                                                                     
7PESE                                                                                000000000051000                            
50000210201704282017050282151618261387       PES0000051000A092352017042813050164                                                
6024600048000171138215161826138700030000578                                                                                     
7PESE                                                                                000000000051000                            
50000310201704292017050282151617672523       PES0000051000A179552017042917450030                                                
6024600051000171248215161767252300000000090                                                                                     
7PESE                                                                                000000000051000                            
50000410201704292017050282151004751551       PES0000051000A134992017042911250048                                                
6024600051000171258215100475155100000000042                                                                                     
7PESE                                                                                000000000051000                            
50000510201704302017050282150621871339       PES0000051000A179552017043019460015                                                
6024600051000171218215062187133900000000084                                                                                     
7PESE                                                                                000000000051000                            
82017050200000100000050000002550000000000000000000000000000000000000000000005                                                   
9201705020000010000005000000255000000000000000000000000000000000000000000000005                                                 
