120170904PAGO FACIL               090060246MARITIMO SRL                                                                         
320170904000001MARITIMO SRL                                                                                                     
50000110201709012017090417080918096078       PES0000080000A170012017090111110094                                                
6024600080000172461708091809607800150000084                                                                                     
7PESE                                                                                000000000080000                            
50000210201709012017090400959531053686       PES0000117000D005952017090113250202                                                
6024600117000172510095953105368600000000058                                                                                     
7PESE                                                                                000000000117000                            
50000310201709022017090400959540518376       PES0000117000A180282017090220330087                                                
6024600117000172490095954051837600000000078                                                                                     
7PESE                                                                                000000000117000                            
82017090400000100000030000003140000000000000000000000000000000000000000000003                                                   
9201709040000010000003000000314000000000000000000000000000000000000000000000003                                                 
