120170504PAGO FACIL               090060246MARITIMO SRL                                                                         
320170504000001MARITIMO SRL                                                                                                     
50000110201705032017050482150335774989       PES0000051000A160132017050312070149                                                
6024600051000171298215033577498900000000016                                                                                     
7PESE                                                                                000000000051000                            
50000210201705032017050482150394531571       PES0000051000A154232017050313010077                                                
6024600051000171308215039453157100000000084                                                                                     
7PESE                                                                                000000000051000                            
50000310201705032017050496010231076100       PES0000060000A139592017050312360016                                                
6024600060000171309601023107610000000000099                                                                                     
7PESE                                                                                000000000060000                            
50000410201705032017050482152229849370       PES0000066000A154232017050313010078                                                
6024600066000171308215222984937000000000063                                                                                     
7PESE                                                                                000000000066000                            
82017050400000100000040000002280000000000000000000000000000000000000000000004                                                   
9201705040000010000004000000228000000000000000000000000000000000000000000000004                                                 
