120171003PAGO FACIL               090060246MARITIMO SRL                                                                         
320171003000001MARITIMO SRL                                                                                                     
50000110201710022017100382170524371004       PES0000048000A132762017100213220090                                                
6024600048000172778217052437100400030000021                                                                                     
7PESE                                                                                000000000048000                            
50000210201710022017100382171618261387       PES0000048000A210982017100212330044                                                
6024600048000172798217161826138700030000099                                                                                     
7PESE                                                                                000000000048000                            
50000310201710022017100379120532995892       PES0000145000A070532017100212200148                                                
6024600145000172797912053299589200265000263                                                                                     
7PESE                                                                                000000000145000                            
50000410201710022017100379120629109113       PES0000145000A202702017100211260108                                                
6024600145000172797912062910911300265000384                                                                                     
7PESE                                                                                000000000145000                            
50000510201710022017100379120723072896       PES0000145000A066282017100207380007                                                
6024600145000172797912072307289600265000236                                                                                     
7PESE                                                                                000000000145000                            
82017100300000100000050000005310000000000000000000000000000000000000000000005                                                   
9201710030000010000005000000531000000000000000000000000000000000000000000000005                                                 
