120180704PAGO FACIL               090060246MARITIMO SRL                                                                         
320180704000001MARITIMO SRL                                                                                                     
50000110201807032018070482200193768036       PES0000034300A170882018070312460064                                                
6024600034300181898220019376803600032000037                                                                                     
7PESE                                                                                000000000034300                            
50000210201807032018070482200434217083       PES0000048200A170882018070312460065                                                
6024600048200181898220043421708300053000090                                                                                     
7PESE                                                                                000000000048200                            
50000310201807032018070482201432064492       PES0000048200A143682018070315360082                                                
6024600048200181908220143206449200053000015                                                                                     
7PESE                                                                                000000000048200                            
50000410201807032018070482202626596972       PES0000068500A162812018070316240087                                                
6024600068500181858220262659697200043000016                                                                                     
7PESE                                                                                000000000068500                            
50000510201807032018070482202714909230       PES0000068500A228512018070309390023                                                
6024600068500181908220271490923000043000042                                                                                     
7PESE                                                                                000000000068500                            
50000610201807032018070401181131802387       PES0000150000A263602018070312490024                                                
6024600150000181900118113180238700000000079                                                                                     
7PESE                                                                                000000000150000                            
82018070400000100000060000004177000000000000000000000000000000000000000000006                                                   
9201807040000010000006000000417700000000000000000000000000000000000000000000006                                                 
