120180907PAGO FACIL               090060246MARITIMO SRL                                                                         
320180907000001MARITIMO SRL                                                                                                     
50000110201809062018090701191141846537       PES0000150000A252972018090618410046                                                
6024600150000182500119114184653700000000090                                                                                     
7PESE                                                                                000000000150000                            
50000210201809062018090701201241019632       PES0000150000A144672018090619440022                                                
6024600150000182540120124101963200000000063                                                                                     
7PESE                                                                                000000000150000                            
50000310201809062018090701201241803306       PES0000150000A276052018090610320025                                                
6024600150000182540120124180330600000000063                                                                                     
7PESE                                                                                000000000150000                            
82018090700000100000030000004500000000000000000000000000000000000000000000003                                                   
9201809070000010000003000000450000000000000000000000000000000000000000000000003                                                 
