120180904PAGO FACIL               090060246MARITIMO SRL                                                                         
320180904000001MARITIMO SRL                                                                                                     
50000110201809032018090401201229019872       PES0000150000D005902018090318130191                                                
6024600150000182480120122901987200000000042                                                                                     
7PESP                                                                                000000000150000                            
50000210201809032018090401171141680908       PES0000150000A129532018090319120053                                                
6024600150000182530117114168090800000000063                                                                                     
7PESE                                                                                000000000150000                            
50000310201809032018090401181135090859       PES0000150000D002672018090317550166                                                
6024600150000182530118113509085900000000042                                                                                     
7PESE                                                                                000000000150000                            
82018090400000100000030000004500000000000000000000000000000000000000000000003                                                   
9201809040000010000003000000450000000000000000000000000000000000000000000000003                                                 
