120170808PAGO FACIL               090060246MARITIMO SRL                                                                         
320170808000001MARITIMO SRL                                                                                                     
50000110201708072017080882160133576400       PES0000032500A087612017080719130016                                                
6024600032500172268216013357640000000000036                                                                                     
7PESE                                                                                000000000032500                            
50000210201708072017080882160332257407       PES0000051000A087612017080719140017                                                
6024600051000172228216033225740700000000021                                                                                     
7PESE                                                                                000000000051000                            
50000310201708072017080882160332814817       PES0000051000A162812017080716390072                                                
6024600051000172228216033281481700000000000                                                                                     
7PESE                                                                                000000000051000                            
50000410201708072017080882161236987325       PES0000051000A162812017080716380071                                                
6024600051000172228216123698732500000000000                                                                                     
7PESE                                                                                000000000051000                            
50000510201708072017080882161230519666       PES0000051000A167302017080711590076                                                
6024600051000172248216123051966600000000084                                                                                     
7PESE                                                                                000000000051000                            
50000610201708072017080882160332937177       PES0000051000A150642017080717300071                                                
6024600051000172268216033293717700000000021                                                                                     
7PESE                                                                                000000000051000                            
50000710201708072017080800919141037280       PES0000117000A172292017080710290003                                                
6024600117000172260091914103728000000000099                                                                                     
7PESE                                                                                000000000117000                            
50000810201708072017080800939338629372       PES0000117000A211092017080714540046                                                
6024600117000172260093933862937200000000021                                                                                     
7PESE                                                                                000000000117000                            
50000910201708072017080800777741037280       PES0000175000A172292017080710300004                                                
6024600175000172190077774103728000120000742                                                                                     
7PESE                                                                                000000000175000                            
82017080800000100000090000006965000000000000000000000000000000000000000000009                                                   
9201708080000010000009000000696500000000000000000000000000000000000000000000009                                                 
