120180504PAGO FACIL               090060246MARITIMO SRL                                                                         
320180504000001MARITIMO SRL                                                                                                     
50000110201805032018050482190220851057       PES0000030000A149522018050312450031                                                
6024600028000181208219022085105700020007321                                                                                     
7PESE                                                                                000000000030000                            
50000210201805032018050482191428314107       PES0000045000A227232018050318570015                                                
6024600045000181298219142831410700040000058                                                                                     
7PESE                                                                                000000000045000                            
50000310201805032018050482192329937239       PES0000064000A146392018050313280047                                                
6024600059000181208219232993723900050007399                                                                                     
7PESE                                                                                000000000064000                            
50000410201805032018050488100128986069       PES0000060000M740012018050310020063                                                
6024600060000181308810012898606900000000016                                                                                     
7PESE                                                                                000000000060000                            
50000510201805032018050488090128986069       PES0000080000M740012018050310010061                                                
6024600080000181308809012898606900000000058                                                                                     
7PESE                                                                                000000000080000                            
82018050400000100000050000002790000000000000000000000000000000000000000000005                                                   
9201805040000010000005000000279000000000000000000000000000000000000000000000005                                                 
