120181001PAGO FACIL               090060246MARITIMO SRL                                                                         
320181001000001MARITIMO SRL                                                                                                     
50000110201809282018100101201241846537       PES0000150000A291282018092811520020                                                
6024600150000182740120124184653700000000000                                                                                     
7PESE                                                                                000000000150000                            
82018100100000100000010000001500000000000000000000000000000000000000000000001                                                   
9201810010000010000001000000150000000000000000000000000000000000000000000000001                                                 
