120180108PAGO FACIL               090060246MARITIMO SRL                                                                         
320180108000001MARITIMO SRL                                                                                                     
50000110201801052018010885044325397885       PES0000113700A213192018010413580034                                                
6024600113700180048504432539788500000000063                                                                                     
7PESE                                                                                000000000113700                            
50000210201801052018010883053640397663       PES0000080000A149522018010513250081                                                
6024600080000180118305364039766300000000078                                                                                     
7PESE                                                                                000000000080000                            
50000310201801052018010882180226419487       PES0000032000A133472018010515420051                                                
6024600032000180128218022641948700000000058                                                                                     
7PESE                                                                                000000000032000                            
50000410201801052018010882180137766113       PES0000032000A196842018010517340071                                                
6024600032000180108218013776611300000000042                                                                                     
7PESE                                                                                000000000032000                            
50000510201801052018010882180817982144       PES0000042500A172372018010518500112                                                
6024600042500180108218081798214400000000078                                                                                     
7PESE                                                                                000000000042500                            
50000610201801052018010883053730908761       PES0000080000A165912018010516570018                                                
6024600080000180128305373090876100000000000                                                                                     
7PESE                                                                                000000000080000                            
50000710201801052018010883054335619402       PES0000080000A255992018010509420004                                                
6024600080000180128305433561940200000000058                                                                                     
7PESE                                                                                000000000080000                            
50000810201801062018010800828234058134       PES0000192500A185132018010610440069                                                
6024600192500180070082823405813400132000000                                                                                     
7PESE                                                                                000000000192500                            
50000910201801062018010882180235880792       PES0000032000A116192018010613220009                                                
6024600032000180128218023588079200000000099                                                                                     
7PESE                                                                                000000000032000                            
50001010201801062018010882180436993273       PES0000042500A200662018010616570093                                                
6024600042500180128218043699327300000000015                                                                                     
7PESE                                                                                000000000042500                            
50001110201801062018010800828235405941       PES0000192500A071132018010612090033                                                
6024600192500180070082823540594100132000084                                                                                     
7PESE                                                                                000000000192500                            
82018010800000100000110000009197000000000000000000000000000000000000000000011                                                   
9201801080000010000011000000919700000000000000000000000000000000000000000000011                                                 
