120170801PAGO FACIL               090060246MARITIMO SRL                                                                         
320170801000001MARITIMO SRL                                                                                                     
50000110201707312017080182160224699413       PES0000029000A157062017073117480081                                                
6024600029000172128216022469941300035007657                                                                                     
7PESE                                                                                000000000029000                            
50000210201707312017080182160232976882       PES0000029000A095412017073109270001                                                
6024600029000172128216023297688200035007342                                                                                     
7PESE                                                                                000000000029000                            
50000310201707312017080182160429002950       PES0000048000A166862017073111090011                                                
6024600048000172128216042900295000030007599                                                                                     
7PESE                                                                                000000000048000                            
50000410201707312017080182160620734522       PES0000048000A163212017073112550042                                                
6024600048000172128216062073452200030000063                                                                                     
7PESE                                                                                000000000048000                            
50000510201707312017080182160620878578       PES0000048000A167842017073110590047                                                
6024600048000172128216062087857800030007621                                                                                     
7PESE                                                                                000000000048000                            
50000610201707312017080182160814955625       PES0000048000A087612017073117090012                                                
6024600048000172128216081495562500030007679                                                                                     
7PESE                                                                                000000000048000                            
50000710201707312017080182161008286645       PES0000048000A179552017073113030018                                                
6024600048000172128216100828664500030007537                                                                                     
7PESE                                                                                000000000048000                            
50000810201707312017080182161230229129       PES0000048000A144122017073111490088                                                
6024600048000172128216123022912900030007363                                                                                     
7PESE                                                                                000000000048000                            
50000910201707312017080182161232441330       PES0000048000A170882017073112580039                                                
6024600048000172128216123244133000030007500                                                                                     
7PESE                                                                                000000000048000                            
50001010201707312017080182161326346384       PES0000048000A146392017073111270068                                                
6024600048000172128216132634638400030007500                                                                                     
7PESE                                                                                000000000048000                            
50001110201707312017080182161423506433       PES0000048000D002502017073110140004                                                
6024600048000172128216142350643300030007090                                                                                     
7PESE                                                                                000000000048000                            
50001210201707312017080182161423571378       PES0000048000A151592017073117240062                                                
6024600048000172128216142357137800030007642                                                                                     
7PESE                                                                                000000000048000                            
50001310201707312017080182161522007655       PES0000048000A163212017073112550041                                                
6024600048000172128216152200765500030000036                                                                                     
7PESE                                                                                000000000048000                            
50001410201707312017080182161617797199       PES0000048000A052182017073119400037                                                
6024600048000172128216161779719900030007690                                                                                     
7PESE                                                                                000000000048000                            
50001510201707312017080182161714130156       PES0000048000A087612017073117090013                                                
6024600048000172128216171413015600030007663                                                                                     
7PESE                                                                                000000000048000                            
50001610201707312017080182161812591274       PES0000048000A039042017073110450037                                                
6024600048000172128216181259127400030007363                                                                                     
7PESE                                                                                000000000048000                            
82017080100000100000160000007300000000000000000000000000000000000000000000016                                                   
9201708010000010000016000000730000000000000000000000000000000000000000000000016                                                 
