120170508PAGO FACIL               090060246MARITIMO SRL                                                                         
320170508000001MARITIMO SRL                                                                                                     
50000110201705052017050882152313233513       PES0000066000A151592017050510520102                                                
6024600066000171298215231323351300000000000                                                                                     
7PESE                                                                                000000000066000                            
50000210201705052017050882150523788368       PES0000051000A170822017050513280094                                                
6024600051000171268215052378836800000000042                                                                                     
7PESE                                                                                000000000051000                            
50000310201705052017050882151233297465       PES0000051000A170822017050513290095                                                
6024600051000171268215123329746500000000000                                                                                     
7PESE                                                                                000000000051000                            
50000410201705052017050882150125968090       PES0000032500A157942017050516040025                                                
6024600032500171308215012596809000000000042                                                                                     
7PESE                                                                                000000000032500                            
82017050800000100000040000002005000000000000000000000000000000000000000000004                                                   
9201705080000010000004000000200500000000000000000000000000000000000000000000004                                                 
