120170509PAGO FACIL               090060246MARITIMO SRL                                                                         
320170509000001MARITIMO SRL                                                                                                     
50000110201705082017050982150242593858       PES0000032500A167742017050815160087                                                
6024600032500171308215024259385800000000042                                                                                     
7PESE                                                                                000000000032500                            
50000210201705082017050988080138375947       PES0000045000A170462017050817530029                                                
6024600045000171348808013837594700060000021                                                                                     
7PESE                                                                                000000000045000                            
50000310201705082017050982150524104141       PES0000051000A196832017050810130013                                                
6024600051000171308215052410414100000000036                                                                                     
7PESE                                                                                000000000051000                            
50000410201705082017050982150524386797       PES0000051000A118532017050810000038                                                
6024600051000171308215052438679700000000021                                                                                     
7PESE                                                                                000000000051000                            
50000510201705082017050982150620401376       PES0000051000A140792017050814520076                                                
6024600051000171308215062040137600000000079                                                                                     
7PESE                                                                                000000000051000                            
50000610201705082017050982152221862523       PES0000066000A146392017050816070039                                                
6024600066000171308215222186252300000000090                                                                                     
7PESE                                                                                000000000066000                            
82017050900000100000060000002965000000000000000000000000000000000000000000006                                                   
9201705090000010000006000000296500000000000000000000000000000000000000000000006                                                 
