120180808PAGO FACIL               090060246MARITIMO SRL                                                                         
320180808000001MARITIMO SRL                                                                                                     
50000110201808072018080876054421561740       PES0000015000A060902018080713570038                                                
6024600015000182217605442156174000000000021                                                                                     
7PESE                                                                                000000000015000                            
50000210201808072018080876050625739727       PES0000025000A123902018080718250055                                                
6024600025000182207605062573972700000000063                                                                                     
7PESE                                                                                000000000025000                            
50000310201808072018080876050623525378       PES0000025000A620582018080710140029                                                
6024600025000182217605062352537800000000042                                                                                     
7PESE                                                                                000000000025000                            
50000410201808072018080876051624196892       PES0000025000A196832018080712590010                                                
6024600025000182217605162419689200000000058                                                                                     
7PESE                                                                                000000000025000                            
82018080800000100000040000000900000000000000000000000000000000000000000000004                                                   
9201808080000010000004000000090000000000000000000000000000000000000000000000004                                                 
