120180502PAGO FACIL               090060246MARITIMO SRL                                                                         
320180502000001MARITIMO SRL                                                                                                     
50000110201804272018050282190625235916       PES0000039000A039032018042710330104                                                
6024600039000181208219062523591600060007484                                                                                     
7PESE                                                                                000000000039000                            
50000210201804272018050282190528297046       PES0000039000A039052018042711180044                                                
6024600039000181208219052829704600060007316                                                                                     
7PESE                                                                                000000000039000                            
50000310201804272018050282190624104141       PES0000039000A196882018042713300036                                                
6024600039000181208219062410414100060007478                                                                                     
7PESE                                                                                000000000039000                            
50000410201804272018050282190229700582       PES0000028000A196882018042713310037                                                
6024600028000181208219022970058200020007436                                                                                     
7PESE                                                                                000000000028000                            
50000510201804272018050282192338284409       PES0000059000A160072018042714130096                                                
6024600059000181208219233828440900050007342                                                                                     
7PESE                                                                                000000000059000                            
50000610201804272018050282190717338148       PES0000039000A210972018042715180006                                                
6024600039000181208219071733814800060007384                                                                                     
7PESE                                                                                000000000039000                            
50000710201804272018050282191523296066       PES0000039000A210972018042715180007                                                
6024600039000181208219152329606600060007300                                                                                     
7PESE                                                                                000000000039000                            
50000810201804272018050282190623939290       PES0000039000A162812018042715540036                                                
6024600039000181208219062393929000060007499                                                                                     
7PESE                                                                                000000000039000                            
50000910201804272018050282191332126632       PES0000039000A162812018042715540037                                                
6024600039000181208219133212663200060007415                                                                                     
7PESE                                                                                000000000039000                            
50001010201804272018050282191240397663       PES0000039000D009582018042713100017                                                
6024600039000181208219124039766300060007300                                                                                     
7PESE                                                                                000000000039000                            
50001110201804272018050282190340666223       PES0000039000A231922018042718400023                                                
6024600039000181208219034066622300060007442                                                                                     
7PESE                                                                                000000000039000                            
50001210201804272018050282192333584530       PES0000059000A145492018042719490099                                                
6024600059000181208219233358453000050007463                                                                                     
7PESE                                                                                000000000059000                            
50001310201804282018050218513442470713       PES0000053600A203872018042811290053                                                
6024600053600181221851344247071300000000042                                                                                     
7PESE                                                                                000000000053600                            
50001410201804282018050282190220215017       PES0000028000A052182018042811460033                                                
6024600028000181208219022021501700020007442                                                                                     
7PESE                                                                                000000000028000                            
50001510201804282018050282191526457555       PES0000039000A049312018042813010037                                                
6024600039000181208219152645755500060007421                                                                                     
7PESE                                                                                000000000039000                            
50001610201804282018050282190625456730       PES0000039000A211042018042816140042                                                
6024600039000181208219062545673000060007484                                                                                     
7PESE                                                                                000000000039000                            
50001710201804302018050282191234500433       PES0000039000A157942018043012490079                                                
6024600039000181208219123450043300060007542                                                                                     
7PESE                                                                                000000000039000                            
50001810201804302018050282190430681845       PES0000039000A157942018043010000008                                                
6024600039000181208219043068184500060007763                                                                                     
7PESE                                                                                000000000039000                            
50001910201804302018050282190529359293       PES0000039000A058662018043012310045                                                
6024600039000181208219052935929300060007478                                                                                     
7PESE                                                                                000000000039000                            
50002010201804302018050282191494159417       PES0000039000A174682018043013540065                                                
6024600039000181208219149415941700060007421                                                                                     
7PESE                                                                                000000000039000                            
50002110201804302018050282192123706685       PES0000059000A170872018043008330002                                                
6024600059000181208219212370668500050007257                                                                                     
7PESE                                                                                000000000059000                            
50002210201804302018050282191426106840       PES0000039000A231432018043018160038                                                
6024600039000181208219142610684000060007658                                                                                     
7PESE                                                                                000000000039000                            
82018050200000100000220000009106000000000000000000000000000000000000000000022                                                   
9201805020000010000022000000910600000000000000000000000000000000000000000000022                                                 
