120180905PAGO FACIL               090060246MARITIMO SRL                                                                         
320180905000001MARITIMO SRL                                                                                                     
50000110201809042018090501201240207671       PES0000150000A136742018090411460030                                                
6024600150000182490120124020767100000000079                                                                                     
7PESE                                                                                000000000150000                            
82018090500000100000010000001500000000000000000000000000000000000000000000001                                                   
9201809050000010000001000000150000000000000000000000000000000000000000000000001                                                 
