120180702PAGO FACIL               090060246MARITIMO SRL                                                                         
320180702000001MARITIMO SRL                                                                                                     
50000110201806292018070282202617772920       PES0000068500A163812018062917390078                                                
6024600068500181858220261777292000043000042                                                                                     
7PESE                                                                                000000000068500                            
50000210201806302018070276053227751628       PES0000020000A229162018063016000020                                                
6024600020000181837605322775162800050000063                                                                                     
7PESE                                                                                000000000020000                            
50000310201806302018070282201527751628       PES0000048200A229162018063015570019                                                
6024600048200181838220152775162800053000037                                                                                     
7PESE                                                                                000000000048200                            
82018070200000100000030000001367000000000000000000000000000000000000000000003                                                   
9201807020000010000003000000136700000000000000000000000000000000000000000000003                                                 
