120180208PAGO FACIL               090060246MARITIMO SRL                                                                         
320180208000001MARITIMO SRL                                                                                                     
50000110201802072018020800838334058134       PES0000192500A133842018020717260004                                                
6024600192500180380083833405813400132000637                                                                                     
7PESE                                                                                000000000192500                            
82018020800000100000010000001925000000000000000000000000000000000000000000001                                                   
9201802080000010000001000000192500000000000000000000000000000000000000000000001                                                 
