120170405PAGO FACIL               090060246MARITIMO SRL                                                                         
320170405000001MARITIMO SRL                                                                                                     
50000110201704042017040582142629187800       PES0000037000A143422017040409490033                                                
6024600034000170908214262918780000030007442                                                                                     
7PESE                                                                                000000000037000                            
50000210201704042017040579101535219403       PES0000034500A103092017040418160146                                                
6024600034500170957910153521940300000000057                                                                                     
7PESE                                                                                000000000034500                            
50000310201704042017040579101541434531       PES0000034500A178242017040411520107                                                
6024600034500170957910154143453100000000057                                                                                     
7PESE                                                                                000000000034500                            
50000410201704042017040582142434058558       PES0000037000A170142017040415170057                                                
6024600037000170958214243405855800000000058                                                                                     
7PESE                                                                                000000000037000                            
50000510201704042017040582142600000000       PES0000037000A087612017040411420161                                                
6024600037000170958214260000000000000000016                                                                                     
7PESE                                                                                000000000037000                            
50000610201704042017040582142725062686       PES0000037000A039042017040411580153                                                
6024600037000170958214272506268600000000090                                                                                     
7PESE                                                                                000000000037000                            
50000710201704042017040582143726685903       PES0000037000A157942017040416110051                                                
6024600037000170958214372668590300000000042                                                                                     
7PESE                                                                                000000000037000                            
50000810201704042017040582140329593235       PES0000049000A159952017040410530104                                                
6024600046000170908214032959323500030007400                                                                                     
7PESE                                                                                000000000049000                            
50000910201704042017040582140617926096       PES0000049000A163992017040412560133                                                
6024600046000170908214061792609600030007478                                                                                     
7PESE                                                                                000000000049000                            
50001010201704042017040582140717208037       PES0000049000A169782017040417480045                                                
6024600046000170908214071720803700030007442                                                                                     
7PESE                                                                                000000000049000                            
50001110201704042017040579100818518306       PES0000049000A620582017040410000051                                                
6024600049000170957910081851830600000000000                                                                                     
7PESE                                                                                000000000049000                            
50001210201704042017040579100914499465       PES0000049000A082002017040408550049                                                
6024600049000170957910091449946500000000079                                                                                     
7PESE                                                                                000000000049000                            
50001310201704042017040582140814274025       PES0000049000A137312017040412540145                                                
6024600049000170958214081427402500000000079                                                                                     
7PESE                                                                                000000000049000                            
50001410201704042017040582140911048529       PES0000049000A133842017040409500125                                                
6024600049000170958214091104852900000000021                                                                                     
7PESE                                                                                000000000049000                            
50001510201704042017040582141338362106       PES0000049000A142672017040412210118                                                
6024600049000170958214133836210600000000079                                                                                     
7PESE                                                                                000000000049000                            
82017040500000100000150000006460000000000000000000000000000000000000000000015                                                   
9201704050000010000015000000646000000000000000000000000000000000000000000000015                                                 
