120171207PAGO FACIL               090060246MARITIMO SRL                                                                         
320171207000001MARITIMO SRL                                                                                                     
50000110201712062017120703051930025039       PES0000020000A157502017120617130020                                                
6024600020000173470305193002503900000000036                                                                                     
7PESE                                                                                000000000020000                            
50000210201712062017120703050143740633       PES0000030000A058662017120618380097                                                
6024600030000173400305014374063300000000000                                                                                     
7PESE                                                                                000000000030000                            
50000310201712062017120703050233518504       PES0000030000A058662017120618390098                                                
6024600030000173470305023351850400000000021                                                                                     
7PESE                                                                                000000000030000                            
50000410201712062017120703051137398632       PES0000030000A139292017120618330030                                                
6024600030000173470305113739863200000000000                                                                                     
7PESE                                                                                000000000030000                            
50000510201712062017120703051517594044       PES0000030000A149522017120612400024                                                
6024600030000173470305151759404400000000016                                                                                     
7PESE                                                                                000000000030000                            
82017120700000100000050000001400000000000000000000000000000000000000000000005                                                   
9201712070000010000005000000140000000000000000000000000000000000000000000000005                                                 
