120170807PAGO FACIL               090060246MARITIMO SRL                                                                         
320170807000001MARITIMO SRL                                                                                                     
50000110201708042017080782162324860275       PES0000066000A131622017080410220042                                                
6024600066000172238216232486027500000000042                                                                                     
7PESE                                                                                000000000066000                            
50000210201708042017080788080137212974       PES0000051000A177922017080411410016                                                
6024600051000172238808013721297400000000021                                                                                     
7PESE                                                                                000000000051000                            
50000310201708042017080700959541827924       PES0000117000A211012017080412120091                                                
6024600117000172220095954182792400000000015                                                                                     
7PESE                                                                                000000000117000                            
50000410201708042017080776044332700963       PES0000010000A082002017080413570012                                                
6024600010000172237604433270096300000000021                                                                                     
7PESE                                                                                000000000010000                            
50000510201708042017080717080626309069       PES0000080000A660472017080412160056                                                
6024600080000172231708062630906900150000084                                                                                     
7PESE                                                                                000000000080000                            
50000610201708042017080776040817456101       PES0000020000D002522017080418130107                                                
6024600020000172227604081745610100000000021                                                                                     
7PESE                                                                                000000000020000                            
50000710201708042017080700939338480743       PES0000117000A166422017080419260060                                                
6024600117000172230093933848074300000000058                                                                                     
7PESE                                                                                000000000117000                            
50000810201708042017080782160334309746       PES0000051000A087612017080419220039                                                
6024600048000172128216033430974600030007515                                                                                     
7PESE                                                                                000000000051000                            
50000910201708042017080700949437086638       PES0000117000A113632017080419170050                                                
6024600117000172190094943708663800000000036                                                                                     
7PESE                                                                                000000000117000                            
50001010201708052017080700959538646112       PES0000117000A169992017080512490064                                                
6024600117000172240095953864611200000000042                                                                                     
7PESE                                                                                000000000117000                            
50001110201708052017080782160331505265       PES0000051000A163102017080511440074                                                
6024600051000172238216033150526500000000021                                                                                     
7PESE                                                                                000000000051000                            
50001210201708052017080782161234009950       PES0000051000A163102017080511450075                                                
6024600051000172238216123400995000000000084                                                                                     
7PESE                                                                                000000000051000                            
50001310201708052017080782161234855071       PES0000051000A163102017080511420073                                                
6024600051000172238216123485507100000000042                                                                                     
7PESE                                                                                000000000051000                            
82017080700000100000130000008990000000000000000000000000000000000000000000013                                                   
9201708070000010000013000000899000000000000000000000000000000000000000000000013                                                 
