120180606PAGO FACIL               090060246MARITIMO SRL                                                                         
320180606000001MARITIMO SRL                                                                                                     
50000110201806052018060688100144705048       PES0000060000A217532018060512350088                                                
6024600060000181638810014470504800000000021                                                                                     
7PESE                                                                                000000000060000                            
50000210201806052018060602632532973165       PES0000117800A075282018060519260048                                                
6024600117800181560263253297316500000000099                                                                                     
7PESE                                                                                000000000117800                            
50000310201806052018060602635821945473       PES0000117800A057532018060515050013                                                
6024600117800181560263582194547300000000021                                                                                     
7PESE                                                                                000000000117800                            
50000410201806052018060601171140207671       PES0000150000A205342018060511210033                                                
6024600150000181620117114020767100000000063                                                                                     
7PESE                                                                                000000000150000                            
50000510201806052018060601181136314369       PES0000150000D010132018060516200131                                                
6024600150000181620118113631436900000000021                                                                                     
7PESE                                                                                000000000150000                            
50000610201806052018060601171131802387       PES0000150000A202712018060511250001                                                
6024600150000181630117113180238700000000063                                                                                     
7PESE                                                                                000000000150000                            
82018060600000100000060000007456000000000000000000000000000000000000000000006                                                   
9201806060000010000006000000745600000000000000000000000000000000000000000000006                                                 
