120180604PAGO FACIL               090060246MARITIMO SRL                                                                         
320180604000001MARITIMO SRL                                                                                                     
50000110201806012018060482190721409372       PES0000052500M620282018053109370002                                                
6024600052500181548219072140937200000000099                                                                                     
7PESE                                                                                000000000052500                            
50000210201806012018060482191524914842       PES0000052500A202592018060111160083                                                
6024600052500181548219152491484200000000090                                                                                     
7PESE                                                                                000000000052500                            
50000310201806012018060482192132383293       PES0000072900A058662018060109550034                                                
6024600072900181548219213238329300000000063                                                                                     
7PESE                                                                                000000000072900                            
50000410201806012018060482191525686203       PES0000052500A161042018060109220011                                                
6024600052500181548219152568620300000000037                                                                                     
7PESE                                                                                000000000052500                            
50000510201806012018060482190138257472       PES0000034300A161042018060112320086                                                
6024600034300181548219013825747200000000057                                                                                     
7PESE                                                                                000000000034300                            
50000610201806012018060482191428563161       PES0000052500A620202018060110230021                                                
6024600052500181548219142856316100000000078                                                                                     
7PESE                                                                                000000000052500                            
50000710201806012018060482190340350197       PES0000052500A060902018060112570073                                                
6024600052500181548219034035019700000000079                                                                                     
7PESE                                                                                000000000052500                            
50000810201806012018060482190433546699       PES0000052500A060902018060112570074                                                
6024600052500181548219043354669900000000099                                                                                     
7PESE                                                                                000000000052500                            
50000910201806012018060482191234977509       PES0000052500A060902018060112570072                                                
6024600052500181548219123497750900000000099                                                                                     
7PESE                                                                                000000000052500                            
50001010201806012018060482190527739063       PES0000052500A060902018060113370082                                                
6024600052500181548219052773906300000000000                                                                                     
7PESE                                                                                000000000052500                            
50001110201806012018060482190334344652       PES0000052500A081382018060113370040                                                
6024600052500181548219033434465200000000079                                                                                     
7PESE                                                                                000000000052500                            
50001210201806012018060482190223970991       PES0000034300A145492018060114420010                                                
6024600034300181548219022397099100000000058                                                                                     
7PESE                                                                                000000000034300                            
50001310201806012018060482190125112298       PES0000034300A145492018060114430011                                                
6024600034300181548219012511229800000000084                                                                                     
7PESE                                                                                000000000034300                            
50001410201806012018060482190117593846       PES0000034300A132762018060116490073                                                
6024600034300181548219011759384600000000079                                                                                     
7PESE                                                                                000000000034300                            
50001510201806012018060482190723457357       PES0000052500D004582018060112120051                                                
6024600052500181548219072345735700000000036                                                                                     
7PESE                                                                                000000000052500                            
50001610201806012018060482191623571378       PES0000052500A151592018060118380102                                                
6024600052500181548219162357137800000000036                                                                                     
7PESE                                                                                000000000052500                            
50001710201806022018060482190721527859       PES0000052500A211002018060212370042                                                
6024600052500181548219072152785900000000058                                                                                     
7PESE                                                                                000000000052500                            
50001810201806022018060482190338497049       PES0000052500A159912018060210060010                                                
6024600052500181548219033849704900000000099                                                                                     
7PESE                                                                                000000000052500                            
50001910201806022018060482191718336563       PES0000052500A166862018060210270029                                                
6024600052500181548219171833656300000000042                                                                                     
7PESE                                                                                000000000052500                            
50002010201806022018060482192443592275       PES0000052500A210982018060216420011                                                
6024600052500181548219244359227500000000036                                                                                     
7PESE                                                                                000000000052500                            
50002110201806022018060482190625957366       PES0000052500A154252018060217200022                                                
6024600052500181548219062595736600000000063                                                                                     
7PESE                                                                                000000000052500                            
50002210201806022018060482191334553155       PES0000052500A154252018060217200021                                                
6024600052500181548219133455315500000000063                                                                                     
7PESE                                                                                000000000052500                            
50002310201806022018060482190334624728       PES0000052500A170152018060215120004                                                
6024600052500181548219033462472800000000021                                                                                     
7PESE                                                                                000000000052500                            
50002410201806022018060482190336110681       PES0000052500A172782018060209390005                                                
6024600052500181548219033611068100000000042                                                                                     
7PESE                                                                                000000000052500                            
82018060400000100000240000012076000000000000000000000000000000000000000000024                                                   
9201806040000010000024000001207600000000000000000000000000000000000000000000024                                                 
