120171006PAGO FACIL               090060246MARITIMO SRL                                                                         
320171006000001MARITIMO SRL                                                                                                     
50000110201710052017100679120821108876       PES0000145000A194102017100511470030                                                
6024600145000172787912082110887600265000078                                                                                     
7PESE                                                                                000000000145000                            
50000210201710052017100679120533123316       PES0000145000A055532017100509310090                                                
6024600145000172797912053312331600265000336                                                                                     
7PESE                                                                                000000000145000                            
50000310201710052017100679120628207880       PES0000145000A201922017100509140002                                                
6024600145000172797912062820788000265000463                                                                                     
7PESE                                                                                000000000145000                            
50000410201710052017100679120725243482       PES0000145000A155652017100512160099                                                
6024600145000172797912072524348200265000357                                                                                     
7PESE                                                                                000000000145000                            
50000510201710052017100679120823013583       PES0000145000A161042017100518270042                                                
6024600145000172797912082301358300265000658                                                                                     
7PESE                                                                                000000000145000                            
50000610201710052017100679120916328592       PES0000145000A155632017100518430085                                                
6024600145000172797912091632859200265000315                                                                                     
7PESE                                                                                000000000145000                            
50000710201710052017100679120916621278       PES0000145000A088252017100517010068                                                
6024600145000172797912091662127800265000600                                                                                     
7PESE                                                                                000000000145000                            
50000810201710052017100679120918091341       PES0000145000A144002017100510280040                                                
6024600145000172797912091809134100265000436                                                                                     
7PESE                                                                                000000000145000                            
50000910201710052017100679121612697560       PES0000145000A140952017100511560054                                                
6024600145000172797912161269756000265000536                                                                                     
7PESE                                                                                000000000145000                            
82017100600000100000090000013050000000000000000000000000000000000000000000009                                                   
9201710060000010000009000001305000000000000000000000000000000000000000000000009                                                 
