120170705PAGO FACIL               090060246MARITIMO SRL                                                                         
320170705000001MARITIMO SRL                                                                                                     
50000110201707042017070588080146216920       PES0000051000A085192017070415350078                                                
6024600051000171858808014621692000000000058                                                                                     
7PESE                                                                                000000000051000                            
50000210201707042017070596020135218686       PES0000085000A087612017070418250094                                                
6024600085000171889602013521868600000000378                                                                                     
7PESE                                                                                000000000085000                            
82017070500000100000020000001360000000000000000000000000000000000000000000002                                                   
9201707050000010000002000000136000000000000000000000000000000000000000000000002                                                 
