120170406PAGO FACIL               090060246MARITIMO SRL                                                                         
320170406000001MARITIMO SRL                                                                                                     
50000110201704052017040682142531001612       PES0000037000A165912017040513170004                                                
6024600034000170908214253100161200030007442                                                                                     
7PESE                                                                                000000000037000                            
50000210201704052017040682142437389157       PES0000037000A158762017040516340107                                                
6024600037000170958214243738915700000000042                                                                                     
7PESE                                                                                000000000037000                            
50000310201704052017040682142723450499       PES0000037000A085792017040518120016                                                
6024600037000170958214272345049900000000078                                                                                     
7PESE                                                                                000000000037000                            
50000410201704052017040682142723671533       PES0000037000D002522017040517010041                                                
6024600037000170958214272367153300000000099                                                                                     
7PESE                                                                                000000000037000                            
50000510201704052017040682142900000000       PES0000037000A170152017040513060051                                                
6024600037000170958214290000000000000000099                                                                                     
7PESE                                                                                000000000037000                            
50000610201704052017040682143000000000       PES0000037000A157942017040510470077                                                
6024600037000170958214300000000000000000084                                                                                     
7PESE                                                                                000000000037000                            
50000710201704052017040682143440864515       PES0000037000A134992017040518280088                                                
6024600037000170958214344086451500000000090                                                                                     
7PESE                                                                                000000000037000                            
50000810201704052017040682143631073227       PES0000037000A159912017040510430075                                                
6024600037000170958214363107322700000000058                                                                                     
7PESE                                                                                000000000037000                            
50000910201704052017040682143631684306       PES0000037000A160072017040520190026                                                
6024600037000170958214363168430600000000090                                                                                     
7PESE                                                                                000000000037000                            
50001010201704052017040682143824384111       PES0000037000A145492017040511550115                                                
6024600037000170958214382438411100000000000                                                                                     
7PESE                                                                                000000000037000                            
50001110201704052017040682143824988185       PES0000037000A085792017040518120015                                                
6024600037000170958214382498818500000000037                                                                                     
7PESE                                                                                000000000037000                            
50001210201704052017040682144114821930       PES0000037000A170152017040513060052                                                
6024600037000170958214411482193000000000099                                                                                     
7PESE                                                                                000000000037000                            
50001310201704052017040679100238959714       PES0000049000A103092017040515430057                                                
6024600049000170957910023895971400000000063                                                                                     
7PESE                                                                                000000000049000                            
50001410201704052017040679100334546914       PES0000049000A071132017040518300017                                                
6024600049000170957910033454691400000000000                                                                                     
7PESE                                                                                000000000049000                            
50001510201704052017040679100337054061       PES0000049000A071132017040519580086                                                
6024600049000170957910033705406100000000016                                                                                     
7PESE                                                                                000000000049000                            
50001610201704052017040679100623334633       PES0000049000A164882017040512060012                                                
6024600049000170957910062333463300000000042                                                                                     
7PESE                                                                                000000000049000                            
50001710201704052017040679100623489261       PES0000049000A143422017040511460039                                                
6024600049000170957910062348926100000000079                                                                                     
7PESE                                                                                000000000049000                            
50001810201704052017040679100718583934       PES0000049000A100122017040519530103                                                
6024600049000170957910071858393400000000042                                                                                     
7PESE                                                                                000000000049000                            
50001910201704052017040679100816444111       PES0000049000A157392017040511360101                                                
6024600049000170957910081644411100000000036                                                                                     
7PESE                                                                                000000000049000                            
50002010201704052017040679101322440808       PES0000049000A100122017040519520102                                                
6024600049000170957910132244080800000000015                                                                                     
7PESE                                                                                000000000049000                            
50002110201704052017040679101324094530       PES0000049000A143422017040511460038                                                
6024600049000170957910132409453000000000016                                                                                     
7PESE                                                                                000000000049000                            
50002210201704052017040682140233633844       PES0000049000A116192017040517320109                                                
6024600049000170958214023363384400000000042                                                                                     
7PESE                                                                                000000000049000                            
50002310201704052017040682140429187957       PES0000049000A160072017040520180025                                                
6024600049000170958214042918795700000000057                                                                                     
7PESE                                                                                000000000049000                            
50002410201704052017040682140618350306       PES0000049000A163672017040517460022                                                
6024600049000170958214061835030600000000063                                                                                     
7PESE                                                                                000000000049000                            
82017040600000100000240000010320000000000000000000000000000000000000000000024                                                   
9201704060000010000024000001032000000000000000000000000000000000000000000000024                                                 
