120180503PAGO FACIL               090060246MARITIMO SRL                                                                         
320180503000001MARITIMO SRL                                                                                                     
50000110201805022018050382192542028857       PES0000039000A170142018050217590042                                                
6024600039000181208219254202885700060007716                                                                                     
7PESE                                                                                000000000039000                            
50000210201805022018050388100121974721       PES0000060000A110442018050211360086                                                
6024600060000181298810012197472100000000036                                                                                     
7PESE                                                                                000000000060000                            
50000310201805022018050388100125446484       PES0000060000M620862018050212251728                                                
6024600060000181298810012544648400000000063                                                                                     
7PESE                                                                                000000000060000                            
50000410201805022018050388100136719468       PES0000060000A264282018050210330028                                                
6024600060000181298810013671946800000000084                                                                                     
7PESE                                                                                000000000060000                            
50000510201805022018050382192133746881       PES0000064000A258642018050217290080                                                
6024600064000181298219213374688100040000021                                                                                     
7PESE                                                                                000000000064000                            
82018050300000100000050000002830000000000000000000000000000000000000000000005                                                   
9201805030000010000005000000283000000000000000000000000000000000000000000000005                                                 
