120180803PAGO FACIL               090060246MARITIMO SRL                                                                         
320180803000001MARITIMO SRL                                                                                                     
50000110201808022018080376054929211894       PES0000015000A211462018080209050003                                                
6024600015000182187605492921189400000000037                                                                                     
7PESE                                                                                000000000015000                            
50000210201808022018080376050433799750       PES0000025000A039042018080213550012                                                
6024600025000182197605043379975000000000042                                                                                     
7PESE                                                                                000000000025000                            
50000310201808022018080376052317871871       PES0000025000D001502018080213320008                                                
6024600025000182217605231787187100000000021                                                                                     
7PESE                                                                                000000000025000                            
50000410201808022018080301181140110258       PES0000150000A142382018080218090062                                                
6024600150000182210118114011025800000000079                                                                                     
7PESE                                                                                000000000150000                            
82018080300000100000040000002150000000000000000000000000000000000000000000004                                                   
9201808030000010000004000000215000000000000000000000000000000000000000000000004                                                 
