120180906PAGO FACIL               090060246MARITIMO SRL                                                                         
320180906000001MARITIMO SRL                                                                                                     
50000110201809052018090601201241827422       PES0000150000D001252018090519120200                                                
6024600150000182550120124182742200000000079                                                                                     
7PESE                                                                                000000000150000                            
82018090600000100000010000001500000000000000000000000000000000000000000000001                                                   
9201809060000010000001000000150000000000000000000000000000000000000000000000001                                                 
