120170505PAGO FACIL               090060246MARITIMO SRL                                                                         
320170505000001MARITIMO SRL                                                                                                     
50000110201705042017050582152126778208       PES0000066000A061862017050419590012                                                
6024600066000171308215212677820800000000079                                                                                     
7PESE                                                                                000000000066000                            
82017050500000100000010000000660000000000000000000000000000000000000000000001                                                   
9201705050000010000001000000066000000000000000000000000000000000000000000000001                                                 
