120180605PAGO FACIL               090060246MARITIMO SRL                                                                         
320180605000001MARITIMO SRL                                                                                                     
50000110201806042018060502632532599996       PES0000117800A057532018060419110009                                                
6024600117800181560263253259999600000000021                                                                                     
7PESE                                                                                000000000117800                            
82018060500000100000010000001178000000000000000000000000000000000000000000001                                                   
9201806050000010000001000000117800000000000000000000000000000000000000000000001                                                 
