120180104PAGO FACIL               090060246MARITIMO SRL                                                                         
320180104000001MARITIMO SRL                                                                                                     
50000110201801032018010482181230799562       PES0000042500A159932018010319490057                                                
6024600040500180028218123079956200020000279                                                                                     
7PESE                                                                                000000000042500                            
50000210201801032018010482181238297248       PES0000042500A232112018010312380033                                                
6024600042500180108218123829724800000000099                                                                                     
7PESE                                                                                000000000042500                            
50000310201801032018010485043841392802       PES0000056800A620582018010309480049                                                
6024600056800180048504384139280200000000058                                                                                     
7PESE                                                                                000000000056800                            
50000410201801032018010485040635113148       PES0000093000A082002018010315290082                                                
6024600093000180048504063511314800000000099                                                                                     
7PESE                                                                                000000000093000                            
50000510201801032018010485042131697792       PES0000093000A082002018010315290081                                                
6024600093000180048504213169779200000000021                                                                                     
7PESE                                                                                000000000093000                            
50000610201801032018010485044325739727       PES0000113700A123902018010319080019                                                
6024600113700180038504432573972700000000015                                                                                     
7PESE                                                                                000000000113700                            
50000710201801032018010485044036388007       PES0000113700A143672018010318090058                                                
6024600113700180048504403638800700000000042                                                                                     
7PESE                                                                                000000000113700                            
50000810201801032018010485044130880837       PES0000113700A179552018010312480010                                                
6024600113700180048504413088083700000000000                                                                                     
7PESE                                                                                000000000113700                            
50000910201801032018010485044227287437       PES0000113700A135792018010312510049                                                
6024600113700180048504422728743700000000084                                                                                     
7PESE                                                                                000000000113700                            
50001010201801032018010485044325605844       PES0000113700A157332018010310370031                                                
6024600113700180048504432560584400000000021                                                                                     
7PESE                                                                                000000000113700                            
50001110201801032018010485044420296389       PES0000113700A197102018010320020046                                                
6024600113700180048504442029638900000000084                                                                                     
7PESE                                                                                000000000113700                            
50001210201801032018010485046111113451       PES0000113700A214602018010312240033                                                
6024600113700180048504611111345100000000036                                                                                     
7PESE                                                                                000000000113700                            
82018010400000100000120000011237000000000000000000000000000000000000000000012                                                   
9201801040000010000012000001123700000000000000000000000000000000000000000000012                                                 
