120170906PAGO FACIL               090060246MARITIMO SRL                                                                         
320170906000001MARITIMO SRL                                                                                                     
50000110201709052017090617080724748958       PES0000080000A110062017090510400037                                                
6024600080000172531708072474895800150000284                                                                                     
7PESE                                                                                000000000080000                            
50000210201709052017090617080726072940       PES0000080000A135022017090519020112                                                
6024600080000172531708072607294000150000184                                                                                     
7PESE                                                                                000000000080000                            
50000310201709052017090617080916649193       PES0000080000A198212017090510590123                                                
6024600080000172531708091664919300150000142                                                                                     
7PESE                                                                                000000000080000                            
50000410201709052017090600939341711955       PES0000117000A181612017090518090042                                                
6024600117000172540093934171195500000000084                                                                                     
7PESE                                                                                000000000117000                            
50000510201709052017090600949438480743       PES0000117000A166422017090521120019                                                
6024600117000172550094943848074300000000021                                                                                     
7PESE                                                                                000000000117000                            
50000610201709052017090600949441439067       PES0000117000A148572017090516570046                                                
6024600117000172550094944143906700000000042                                                                                     
7PESE                                                                                000000000117000                            
50000710201709052017090600959539825543       PES0000117000A163972017090519510056                                                
6024600117000172550095953982554300000000036                                                                                     
7PESE                                                                                000000000117000                            
50000810201709052017090600959541901091       PES0000117000A163972017090518160003                                                
6024600117000172550095954190109100000000036                                                                                     
7PESE                                                                                000000000117000                            
50000910201709052017090679120434153938       PES0000145000A040462017090512070077                                                
6024600145000172547912043415393800265000079                                                                                     
7PESE                                                                                000000000145000                            
82017090600000100000090000009700000000000000000000000000000000000000000000009                                                   
9201709060000010000009000000970000000000000000000000000000000000000000000000009                                                 
