120180807PAGO FACIL               090060246MARITIMO SRL                                                                         
320180807000001MARITIMO SRL                                                                                                     
50000110201808062018080776054927707708       PES0000015000A187832018080618500041                                                
6024600015000182197605492770770800000000078                                                                                     
7PESE                                                                                000000000015000                            
50000210201808062018080776055026261135       PES0000015000A187832018080618490040                                                
6024600015000182197605502626113500000000084                                                                                     
7PESE                                                                                000000000015000                            
50000310201808062018080776050723209355       PES0000025000D002502018080612380139                                                
6024600025000182217605072320935500000000000                                                                                     
7PESE                                                                                000000000025000                            
50000410201808062018080776055427265212       PES0000030000A620572018080612410011                                                
6024600030000182217605542726521200000000021                                                                                     
7PESE                                                                                000000000030000                            
50000510201808062018080776055428194635       PES0000030000A620572018080612410012                                                
6024600030000182217605542819463500000000084                                                                                     
7PESE                                                                                000000000030000                            
82018080700000100000050000001150000000000000000000000000000000000000000000005                                                   
9201808070000010000005000000115000000000000000000000000000000000000000000000005                                                 
