120171109PAGO FACIL               090060246MARITIMO SRL                                                                         
320171109000001MARITIMO SRL                                                                                                     
50000110201711082017110985040145037486       PES0000046500A090422017110811520052                                                
6024600046500173198504014503748600000000079                                                                                     
7PESE                                                                                000000000046500                            
82017110900000100000010000000465000000000000000000000000000000000000000000001                                                   
9201711090000010000001000000046500000000000000000000000000000000000000000000001                                                 
