120180802PAGO FACIL               090060246MARITIMO SRL                                                                         
320180802000001MARITIMO SRL                                                                                                     
50000110201808012018080276050623657064       PES0000025000A095412018080116230046                                                
6024600025000182197605062365706400000000079                                                                                     
7PESE                                                                                000000000025000                            
50000210201808012018080276050816779366       PES0000025000D004582018080109290005                                                
6024600025000182197605081677936600000000042                                                                                     
7PESE                                                                                000000000025000                            
50000310201808012018080282200122478923       PES0000037500A170152018080112170065                                                
6024600037500182138220012247892300000000078                                                                                     
7PESE                                                                                000000000037500                            
50000410201808012018080282200124645876       PES0000037500A178242018080110320051                                                
6024600037500182138220012464587600000000016                                                                                     
7PESE                                                                                000000000037500                            
50000510201808012018080282200136387606       PES0000037500A039052018080113230030                                                
6024600037500182138220013638760600000000078                                                                                     
7PESE                                                                                000000000037500                            
50000610201808012018080282200220124456       PES0000037500A620322018080111380010                                                
6024600037500182138220022012445600000000099                                                                                     
7PESE                                                                                000000000037500                            
50000710201808012018080282200228765134       PES0000037500A163212018080112190022                                                
6024600037500182138220022876513400000000063                                                                                     
7PESE                                                                                000000000037500                            
50000810201808012018080282200229700582       PES0000037500A196882018080113080060                                                
6024600037500182138220022970058200000000084                                                                                     
7PESE                                                                                000000000037500                            
50000910201808012018080282200231662048       PES0000037500A178242018080109550023                                                
6024600037500182138220023166204800000000036                                                                                     
7PESE                                                                                000000000037500                            
50001010201808012018080282200233264421       PES0000037500D002492018080116300083                                                
6024600037500182138220023326442100000000000                                                                                     
7PESE                                                                                000000000037500                            
50001110201808012018080282200233951048       PES0000037500A087612018080111290094                                                
6024600037500182138220023395104800000000000                                                                                     
7PESE                                                                                000000000037500                            
50001210201808012018080282200245422621       PES0000037500A178242018080110330052                                                
6024600037500182138220024542262100000000084                                                                                     
7PESE                                                                                000000000037500                            
50001310201808012018080282200430905430       PES0000053500A163212018080117440006                                                
6024600053500182138220043090543000000000099                                                                                     
7PESE                                                                                000000000053500                            
50001410201808012018080282200431264188       PES0000053500A179062018080116470089                                                
6024600053500182138220043126418800000000084                                                                                     
7PESE                                                                                000000000053500                            
50001510201808012018080282200431476481       PES0000053500A167742018080116510061                                                
6024600053500182138220043147648100000000078                                                                                     
7PESE                                                                                000000000053500                            
50001610201808012018080282200432743233       PES0000053500A154252018080113350024                                                
6024600053500182138220043274323300000000063                                                                                     
7PESE                                                                                000000000053500                            
50001710201808012018080282200529359034       PES0000053500A058662018080119240071                                                
6024600053500182138220052935903400000000084                                                                                     
7PESE                                                                                000000000053500                            
50001810201808012018080282200624104141       PES0000053500A196882018080113070059                                                
6024600053500182138220062410414100000000037                                                                                     
7PESE                                                                                000000000053500                            
50001910201808012018080282200721645860       PES0000053500A160072018080120320044                                                
6024600053500182138220072164586000000000058                                                                                     
7PESE                                                                                000000000053500                            
50002010201808012018080282201334550049       PES0000053500A179062018080115230032                                                
6024600053500182138220133455004900000000015                                                                                     
7PESE                                                                                000000000053500                            
50002110201808012018080282201335910493       PES0000053500A131622018080111190086                                                
6024600053500182138220133591049300000000021                                                                                     
7PESE                                                                                000000000053500                            
50002210201808012018080282201531490074       PES0000053500A163812018080117260070                                                
6024600053500182138220153149007400000000036                                                                                     
7PESE                                                                                000000000053500                            
50002310201808012018080282201602487805       PES0000053500A211472018080112090056                                                
6024600053500182138220160248780500000000090                                                                                     
7PESE                                                                                000000000053500                            
50002410201808012018080282201723296099       PES0000053500A139082018080117150058                                                
6024600053500182138220172329609900000000078                                                                                     
7PESE                                                                                000000000053500                            
50002510201808012018080282201916475531       PES0000053500A039052018080113510056                                                
6024600053500182138220191647553100000000000                                                                                     
7PESE                                                                                000000000053500                            
50002610201808012018080282202532944789       PES0000072800A227232018080112010076                                                
6024600072800182138220253294478900000000000                                                                                     
7PESE                                                                                000000000072800                            
50002710201808012018080282202623938043       PES0000072800A179062018080115250033                                                
6024600072800182138220262393804300000000036                                                                                     
7PESE                                                                                000000000072800                            
50002810201808012018080282202627854600       PES0000072800A151592018080113550050                                                
6024600072800182138220262785460000000000042                                                                                     
7PESE                                                                                000000000072800                            
50002910201808012018080282202637864257       PES0000072800A163212018080112200023                                                
6024600072800182138220263786425700000000078                                                                                     
7PESE                                                                                000000000072800                            
50003010201808012018080282202725041094       PES0000072800A151592018080117290045                                                
6024600072800182138220272504109400000000099                                                                                     
7PESE                                                                                000000000072800                            
82018080200000100000300000014845000000000000000000000000000000000000000000030                                                   
9201808020000010000030000001484500000000000000000000000000000000000000000000030                                                 
