120180706PAGO FACIL               090060246MARITIMO SRL                                                                         
320180706000001MARITIMO SRL                                                                                                     
50000110201807052018070676054426049541       PES0000010000A159952018070510160060                                                
6024600010000181927605442604954100050000000                                                                                     
7PESE                                                                                000000000010000                            
50000210201807052018070676050528870186       PES0000020000A267462018070513300035                                                
6024600020000181937605052887018600050000021                                                                                     
7PESE                                                                                000000000020000                            
50000310201807052018070682202013616111       PES0000048200M620152018070511590006                                                
6024600048200181868220201361611100053000099                                                                                     
7PESE                                                                                000000000048200                            
50000410201807052018070682200625147919       PES0000048200A273472018070515090056                                                
6024600048200181928220062514791900053000084                                                                                     
7PESE                                                                                000000000048200                            
50000510201807052018070682201016102286       PES0000048200A151592018070515540032                                                
6024600048200181928220101610228600053000000                                                                                     
7PESE                                                                                000000000048200                            
50000610201807052018070682201110099754       PES0000048200A139922018070510500088                                                
6024600048200181928220111009975400053000042                                                                                     
7PESE                                                                                000000000048200                            
50000710201807052018070682201531187209       PES0000048200A151592018070515540031                                                
6024600048200181928220153118720900053000000                                                                                     
7PESE                                                                                000000000048200                            
50000810201807052018070682201825041018       PES0000048200A070282018070511100035                                                
6024600048200181928220182504101800053000090                                                                                     
7PESE                                                                                000000000048200                            
82018070600000100000080000003192000000000000000000000000000000000000000000008                                                   
9201807060000010000008000000319200000000000000000000000000000000000000000000008                                                 
