120170803PAGO FACIL               090060246MARITIMO SRL                                                                         
320170803000001MARITIMO SRL                                                                                                     
50000110201708022017080382160145318770       PES0000032500A151882017080210560015                                                
6024600029000172128216014531877000035007579                                                                                     
7PESE                                                                                000000000032500                            
50000210201708022017080382160332800224       PES0000051000A160132017080212120001                                                
6024600051000172208216033280022400000000016                                                                                     
7PESE                                                                                000000000051000                            
50000310201708022017080382160335899877       PES0000051000A140792017080214150036                                                
6024600051000172208216033589987700000000015                                                                                     
7PESE                                                                                000000000051000                            
50000410201708022017080317080822205468       PES0000080000A150892017080210040019                                                
6024600080000172171708082220546800150000090                                                                                     
7PESE                                                                                000000000080000                            
82017080300000100000040000002145000000000000000000000000000000000000000000004                                                   
9201708030000010000004000000214500000000000000000000000000000000000000000000004                                                 
