120170608PAGO FACIL               090060246MARITIMO SRL                                                                         
320170608000001MARITIMO SRL                                                                                                     
50000110201706072017060804013031114138       PES0000038500A043122017060717430106                                                
6024600038500171590401303111413800015000042                                                                                     
7PESE                                                                                000000000038500                            
50000210201706072017060879110823183081       PES0000096500A178242017060718450026                                                
6024600096500171647911082318308100110000084                                                                                     
7PESE                                                                                000000000096500                            
50000310201706072017060800898940849713       PES0000117000A121162017060719170021                                                
6024600117000171650089894084971300000000037                                                                                     
7PESE                                                                                000000000117000                            
50000410201706072017060800757540849713       PES0000175000A121162017060719160020                                                
6024600175000171580075754084971300120000737                                                                                     
7PESE                                                                                000000000175000                            
82017060800000100000040000004270000000000000000000000000000000000000000000004                                                   
9201706080000010000004000000427000000000000000000000000000000000000000000000004                                                 
