120180403PAGO FACIL               090060246MARITIMO SRL                                                                         
320180403000001MARITIMO SRL                                                                                                     
50000110201803312018040316010350158621       PES0000017500A261462018033111140009                                                
6024600017500180921601035015862100000000042                                                                                     
7PESE                                                                                000000000017500                            
50000210201803312018040316010252555957       PES0000017500A116752018033112050015                                                
6024600017500180921601025255595700000000099                                                                                     
7PESE                                                                                000000000017500                            
82018040300000100000020000000350000000000000000000000000000000000000000000002                                                   
9201804030000010000002000000035000000000000000000000000000000000000000000000002                                                 
