120170809PAGO FACIL               090060246MARITIMO SRL                                                                         
320170809000001MARITIMO SRL                                                                                                     
50000110201708082017080976041011999158       PES0000020000A177672017080820330050                                                
6024600020000172207604101199915800000000000                                                                                     
7PESE                                                                                000000000020000                            
50000210201708082017080982160620712240       PES0000051000A066282017080820210028                                                
6024600051000172208216062071224000000000079                                                                                     
7PESE                                                                                000000000051000                            
50000310201708082017080982160427421130       PES0000051000A131622017080810020033                                                
6024600051000172218216042742113000000000078                                                                                     
7PESE                                                                                000000000051000                            
50000410201708082017080982161520502829       PES0000051000D002492017080810520031                                                
6024600051000172218216152050282900000000021                                                                                     
7PESE                                                                                000000000051000                            
50000510201708082017080982160336906129       PES0000051000A049312017080812360009                                                
6024600051000172268216033690612900000000078                                                                                     
7PESE                                                                                000000000051000                            
50000610201708082017080982160622778775       PES0000051000A039002017080813220056                                                
6024600051000172268216062277877500000000099                                                                                     
7PESE                                                                                000000000051000                            
50000710201708082017080982160524505857       PES0000051000A149522017080815120103                                                
6024600051000172278216052450585700000000058                                                                                     
7PESE                                                                                000000000051000                            
50000810201708082017080900929241439067       PES0000117000A121602017080813350048                                                
6024600117000172270092924143906700000000099                                                                                     
7PESE                                                                                000000000117000                            
50000910201708082017080900959539404291       PES0000117000A115002017080816200080                                                
6024600117000172270095953940429100000000063                                                                                     
7PESE                                                                                000000000117000                            
82017080900000100000090000005600000000000000000000000000000000000000000000009                                                   
9201708090000010000009000000560000000000000000000000000000000000000000000000009                                                 
