120180105PAGO FACIL               090060246MARITIMO SRL                                                                         
320180105000001MARITIMO SRL                                                                                                     
50000110201801042018010582180624603651       PES0000042500A123902018010414480048                                                
6024600042500180108218062460365100000000079                                                                                     
7PESE                                                                                000000000042500                            
50000210201801042018010582181005495399       PES0000042500A125852018010409480051                                                
6024600042500180108218100549539900000000000                                                                                     
7PESE                                                                                000000000042500                            
50000310201801042018010582181235125610       PES0000042500A211082018010415250085                                                
6024600042500180108218123512561000000000036                                                                                     
7PESE                                                                                000000000042500                            
50000410201801042018010582180436364131       PES0000042500A098032018010415070092                                                
6024600042500180118218043636413100000000084                                                                                     
7PESE                                                                                000000000042500                            
50000510201801042018010582180442156621       PES0000042500A254882018010418080001                                                
6024600042500180118218044215662100000000063                                                                                     
7PESE                                                                                000000000042500                            
50000610201801042018010582180527089092       PES0000042500A098032018010415070091                                                
6024600042500180118218052708909200000000063                                                                                     
7PESE                                                                                000000000042500                            
50000710201801042018010585040441858736       PES0000046500A078992018010418030075                                                
6024600046500180048504044185873600000000016                                                                                     
7PESE                                                                                000000000046500                            
50000810201801042018010585041743487394       PES0000046500A196982018010411470064                                                
6024600046500180048504174348739400000000037                                                                                     
7PESE                                                                                000000000046500                            
50000910201801042018010585042324618169       PES0000093000A143522018010408380012                                                
6024600093000180048504232461816900000000078                                                                                     
7PESE                                                                                000000000093000                            
50001010201801042018010585043938126888       PES0000113700A211472018010412170017                                                
6024600113700180048504393812688800000000000                                                                                     
7PESE                                                                                000000000113700                            
50001110201801042018010585044323857748       PES0000113700A143522018010408380011                                                
6024600113700180048504432385774800000000016                                                                                     
7PESE                                                                                000000000113700                            
50001210201801042018010585044324080340       PES0000113700A047422018010417030039                                                
6024600113700180048504432408034000000000099                                                                                     
7PESE                                                                                000000000113700                            
50001310201801042018010585044517173690       PES0000113700A177042018010411050066                                                
6024600113700180048504451717369000000000042                                                                                     
7PESE                                                                                000000000113700                            
82018010500000100000130000008958000000000000000000000000000000000000000000013                                                   
9201801050000010000013000000895800000000000000000000000000000000000000000000013                                                 
