120170905PAGO FACIL               090060246MARITIMO SRL                                                                         
320170905000001MARITIMO SRL                                                                                                     
50000110201709042017090517080821554331       PES0000080000A141562017090410410150                                                
6024600080000172481708082155433100150000078                                                                                     
7PESE                                                                                000000000080000                            
50000210201709042017090517080435953780       PES0000080000A148892017090418270055                                                
6024600080000172531708043595378000150000057                                                                                     
7PESE                                                                                000000000080000                            
50000310201709042017090517080628914230       PES0000080000A128032017090411240155                                                
6024600080000172531708062891423000150000178                                                                                     
7PESE                                                                                000000000080000                            
50000410201709042017090517080916649551       PES0000080000A640272017090416430099                                                
6024600080000172531708091664955100150000116                                                                                     
7PESE                                                                                000000000080000                            
50000510201709042017090500949439825543       PES0000117000A163982017090414290009                                                
6024600117000172510094943982554300000000084                                                                                     
7PESE                                                                                000000000117000                            
50000610201709042017090500959538533002       PES0000117000A136742017090415480039                                                
6024600117000172510095953853300200000000000                                                                                     
7PESE                                                                                000000000117000                            
50000710201709042017090500939341439067       PES0000117000A148572017090413150022                                                
6024600117000172540093934143906700000000036                                                                                     
7PESE                                                                                000000000117000                            
50000810201709042017090500949441901091       PES0000117000A163982017090417150077                                                
6024600117000172540094944190109100000000016                                                                                     
7PESE                                                                                000000000117000                            
82017090500000100000080000007880000000000000000000000000000000000000000000008                                                   
9201709050000010000008000000788000000000000000000000000000000000000000000000008                                                 
