120171205PAGO FACIL               090060246MARITIMO SRL                                                                         
320171205000001MARITIMO SRL                                                                                                     
50000110201712042017120503052032907044       PES0000020000A170872017120418080073                                                
6024600020000173430305203290704400000000079                                                                                     
7PESE                                                                                000000000020000                            
50000210201712042017120503052033646999       PES0000020000A170872017120418080074                                                
6024600020000173430305203364699900000000042                                                                                     
7PESE                                                                                000000000020000                            
50000310201712042017120503050235180084       PES0000030000A154252017120417440033                                                
6024600030000173380305023518008400000000057                                                                                     
7PESE                                                                                000000000030000                            
50000410201712042017120503051132976321       PES0000030000A210962017120417310019                                                
6024600030000173440305113297632100000000037                                                                                     
7PESE                                                                                000000000030000                            
50000510201712042017120503051323773117       PES0000030000A210962017120417330020                                                
6024600030000173440305132377311700000000000                                                                                     
7PESE                                                                                000000000030000                            
50000610201712042017120582181423773117       PES0000040500A210962017120417340022                                                
6024600040500173448218142377311700020000058                                                                                     
7PESE                                                                                000000000040500                            
50000710201712042017120582181521047594       PES0000040500A210962017120417330021                                                
6024600040500173448218152104759400020000079                                                                                     
7PESE                                                                                000000000040500                            
82017120500000100000070000002110000000000000000000000000000000000000000000007                                                   
9201712050000010000007000000211000000000000000000000000000000000000000000000007                                                 
