120180607PAGO FACIL               090060246MARITIMO SRL                                                                         
320180607000001MARITIMO SRL                                                                                                     
50000110201806062018060701131134137766       PES0000150000D006422018060610590147                                                
6024600150000181630113113413776600000000084                                                                                     
7PESP                                                                                000000000150000                            
82018060700000100000010000001500000000000000000000000000000000000000000000001                                                   
9201806070000010000001000000150000000000000000000000000000000000000000000000001                                                 
