120170804PAGO FACIL               090060246MARITIMO SRL                                                                         
320170804000001MARITIMO SRL                                                                                                     
50000110201708032017080482160622716171       PES0000051000A178242017080310480046                                                
6024600048000172128216062271617100030007621                                                                                     
7PESE                                                                                000000000051000                            
50000210201708032017080482160716713264       PES0000051000A123902017080309200039                                                
6024600051000172218216071671326400000000042                                                                                     
7PESE                                                                                000000000051000                            
50000310201708032017080482160427421413       PES0000051000M620282017080311540027                                                
6024600051000172228216042742141300000000090                                                                                     
7PESE                                                                                000000000051000                            
50000410201708032017080482162131553867       PES0000066000A131622017080313110045                                                
6024600066000172228216213155386700000000099                                                                                     
7PESE                                                                                000000000066000                            
50000510201708032017080400939334456641       PES0000117000A171892017080319050048                                                
6024600117000172220093933445664100000000078                                                                                     
7PESE                                                                                000000000117000                            
82017080400000100000050000003360000000000000000000000000000000000000000000005                                                   
9201708040000010000005000000336000000000000000000000000000000000000000000000005                                                 
