120180508PAGO FACIL               090060246MARITIMO SRL                                                                         
320180508000001MARITIMO SRL                                                                                                     
50000110201805072018050882190626346163       PES0000045000A210762018050715100074                                                
6024600039000181208219062634616300060007742                                                                                     
7PESE                                                                                000000000045000                            
50000210201805072018050882191016102286       PES0000045000A151592018050714130068                                                
6024600045000181348219101610228600040000058                                                                                     
7PESE                                                                                000000000045000                            
50000310201805072018050882191431187209       PES0000045000A151592018050714130067                                                
6024600045000181348219143118720900040000036                                                                                     
7PESE                                                                                000000000045000                            
50000410201805072018050888100134998559       PES0000060000A199392018050715550019                                                
6024600060000181288810013499855900000000000                                                                                     
7PESE                                                                                000000000060000                            
50000510201805072018050888100137797178       PES0000060000D002622018050717390508                                                
6024600060000181308810013779717800000000078                                                                                     
7PESE                                                                                000000000060000                            
50000610201805072018050888100122508384       PES0000060000M700172018050710580122                                                
6024600060000181328810012250838400000000084                                                                                     
7PESE                                                                                000000000060000                            
50000710201805072018050888100128771455       PES0000060000D002622018050710280052                                                
6024600060000181328810012877145500000000042                                                                                     
7PESE                                                                                000000000060000                            
50000810201805072018050888100133811991       PES0000060000M700172018050710520115                                                
6024600060000181328810013381199100000000000                                                                                     
7PESE                                                                                000000000060000                            
50000910201805072018050888100134206720       PES0000060000M700172018050710560119                                                
6024600060000181328810013420672000000000084                                                                                     
7PESE                                                                                000000000060000                            
50001010201805072018050888100135698542       PES0000060000M700172018050710510113                                                
6024600060000181328810013569854200000000079                                                                                     
7PESE                                                                                000000000060000                            
50001110201805072018050888100139034638       PES0000060000M700172018050710520118                                                
6024600060000181328810013903463800000000058                                                                                     
7PESE                                                                                000000000060000                            
50001210201805072018050888100118268323       PES0000060000M620902018050711140001                                                
6024600060000181338810011826832300000000058                                                                                     
7PESE                                                                                000000000060000                            
50001310201805072018050888100121466123       PES0000060000M620902018050711150002                                                
6024600060000181338810012146612300000000042                                                                                     
7PESE                                                                                000000000060000                            
50001410201805072018050888100139692578       PES0000060000D005622018050709510068                                                
6024600060000181338810013969257800000000084                                                                                     
7PESE                                                                                000000000060000                            
50001510201805072018050888100138103764       PES0000060000D002592018050717240278                                                
6024600060000181348810013810376400000000090                                                                                     
7PESE                                                                                000000000060000                            
50001610201805072018050888090239034638       PES0000100000M700172018050710560121                                                
6024600100000181328809023903463800000000063                                                                                     
7PESE                                                                                000000000100000                            
82018050800000100000160000009550000000000000000000000000000000000000000000016                                                   
9201805080000010000016000000955000000000000000000000000000000000000000000000016                                                 
