120180103PAGO FACIL               090060246MARITIMO SRL                                                                         
320180103000001MARITIMO SRL                                                                                                     
50000110201801022018010382180237388876       PES0000030000A171242018010217230024                                                
6024600030000180028218023738887600020000336                                                                                     
7PESE                                                                                000000000030000                            
50000210201801022018010382180623223306       PES0000040500A087612018010219460051                                                
6024600040500180028218062322330600020000790                                                                                     
7PESE                                                                                000000000040500                            
50000310201801022018010382180624393444       PES0000040500A115442018010215440001                                                
6024600040500180028218062439344400020000784                                                                                     
7PESE                                                                                000000000040500                            
50000410201801022018010382180721968805       PES0000040500A087612018010219440049                                                
6024600040500180028218072196880500020000715                                                                                     
7PESE                                                                                000000000040500                            
50000510201801022018010382180722349834       PES0000040500A171242018010217230025                                                
6024600040500180028218072234983400020000336                                                                                     
7PESE                                                                                000000000040500                            
50000610201801022018010382181236382437       PES0000040500A228522018010215430030                                                
6024600040500180028218123638243700020000721                                                                                     
7PESE                                                                                000000000040500                            
50000710201801022018010382181424428500       PES0000040500A210972018010216340087                                                
6024600040500180028218142442850000020000279                                                                                     
7PESE                                                                                000000000040500                            
50000810201801022018010382181617797199       PES0000040500A052182018010209390006                                                
6024600040500180028218161779719900020000590                                                                                     
7PESE                                                                                000000000040500                            
50000910201801022018010382181813616111       PES0000040500A228522018010212000012                                                
6024600040500180028218181361611100020000021                                                                                     
7PESE                                                                                000000000040500                            
50001010201801022018010385044325194258       PES0000113700A139292018010212290031                                                
6024600113700180048504432519425800000000084                                                                                     
7PESE                                                                                000000000113700                            
50001110201801022018010385044420716416       PES0000113700A098582018010210540011                                                
6024600113700180048504442071641600000000021                                                                                     
7PESE                                                                                000000000113700                            
50001210201801022018010385044518125517       PES0000113700A213912018010212200100                                                
6024600113700180048504451812551700000000042                                                                                     
7PESE                                                                                000000000113700                            
50001310201801022018010385044711330830       PES0000113700A213912018010211480087                                                
6024600113700180048504471133083000000000057                                                                                     
7PESE                                                                                000000000113700                            
50001410201801022018010385046426346403       PES0000113700A139292018010212290032                                                
6024600113700180048504642634640300000000057                                                                                     
7PESE                                                                                000000000113700                            
50001510201801022018010385046722522448       PES0000113700A227232018010217410039                                                
6024600113700180048504672252244800000000078                                                                                     
7PESE                                                                                000000000113700                            
82018010300000100000150000010362000000000000000000000000000000000000000000015                                                   
9201801030000010000015000001036200000000000000000000000000000000000000000000015                                                 
