120171005PAGO FACIL               090060246MARITIMO SRL                                                                         
320171005000001MARITIMO SRL                                                                                                     
50000110201710042017100582170622723582       PES0000048000D001142017100416180122                                                
6024600048000172778217062272358200030000063                                                                                     
7PESE                                                                                000000000048000                            
50000210201710042017100582170426910704       PES0000048000A159362017100412170012                                                
6024600048000172798217042691070400030000000                                                                                     
7PESE                                                                                000000000048000                            
50000310201710042017100582170523890553       PES0000048000A159362017100412160011                                                
6024600048000172798217052389055300030000037                                                                                     
7PESE                                                                                000000000048000                            
50000410201710042017100500939335354114       PES0000117000A171022017100412560006                                                
6024600117000172830093933535411400000000099                                                                                     
7PESE                                                                                000000000117000                            
50000510201710042017100500949426728567       PES0000117000A211032017100412400037                                                
6024600117000172830094942672856700000000021                                                                                     
7PESE                                                                                000000000117000                            
50000610201710042017100579120434412919       PES0000145000A103092017100411180001                                                
6024600145000172777912043441291900265000084                                                                                     
7PESE                                                                                000000000145000                            
50000710201710042017100579120724483162       PES0000145000A186952017100418390036                                                
6024600145000172797912072448316200265000400                                                                                     
7PESE                                                                                000000000145000                            
50000810201710042017100579121210080281       PES0000145000A099212017100412320100                                                
6024600145000172797912121008028100265000336                                                                                     
7PESE                                                                                000000000145000                            
82017100500000100000080000008130000000000000000000000000000000000000000000008                                                   
9201710050000010000008000000813000000000000000000000000000000000000000000000008                                                 
