120170908PAGO FACIL               090060246MARITIMO SRL                                                                         
320170908000001MARITIMO SRL                                                                                                     
50000110201709072017090817080628764263       PES0000080000A163552017090713040025                                                
6024600080000172531708062876426300150000499                                                                                     
7PESE                                                                                000000000080000                            
50000210201709072017090817080725002458       PES0000080000A128052017090718510072                                                
6024600080000172531708072500245800150000321                                                                                     
7PESE                                                                                000000000080000                            
50000310201709072017090817080725432053       PES0000080000A075062017090712580047                                                
6024600080000172531708072543205300150000216                                                                                     
7PESE                                                                                000000000080000                            
50000410201709072017090817081013873745       PES0000080000A036962017090710160068                                                
6024600080000172531708101387374500150000315                                                                                     
7PESE                                                                                000000000080000                            
50000510201709072017090817081331074533       PES0000080000A099112017090716330008                                                
6024600080000172531708133107453300150000299                                                                                     
7PESE                                                                                000000000080000                            
50000610201709072017090800959538480743       PES0000117000A166422017090721100018                                                
6024600117000172570095953848074300000000084                                                                                     
7PESE                                                                                000000000117000                            
50000710201709072017090800959541711955       PES0000117000A181612017090718550035                                                
6024600117000172570095954171195500000000063                                                                                     
7PESE                                                                                000000000117000                            
50000810201709072017090879120822915139       PES0000145000A058662017090719070037                                                
6024600145000172547912082291513900265000000                                                                                     
7PESE                                                                                000000000145000                            
50000910201709072017090879120530015323       PES0000145000A082002017090710420125                                                
6024600145000172557912053001532300265000015                                                                                     
7PESE                                                                                000000000145000                            
82017090800000100000090000009240000000000000000000000000000000000000000000009                                                   
9201709080000010000009000000924000000000000000000000000000000000000000000000009                                                 
