120170607PAGO FACIL               090060246MARITIMO SRL                                                                         
320170607000001MARITIMO SRL                                                                                                     
50000110201706062017060700929217531878       PES0000117000A180282017060610550032                                                
6024600117000171570092921753187800000000078                                                                                     
7PESE                                                                                000000000117000                            
50000210201706062017060700929239448023       PES0000117000A171352017060618350043                                                
6024600117000171640092923944802300000000021                                                                                     
7PESE                                                                                000000000117000                            
50000310201706062017060700939335612832       PES0000117000A134192017060619510045                                                
6024600117000171640093933561283200000000015                                                                                     
7PESE                                                                                000000000117000                            
82017060700000100000030000003510000000000000000000000000000000000000000000003                                                   
9201706070000010000003000000351000000000000000000000000000000000000000000000003                                                 
