120170503PAGO FACIL               090060246MARITIMO SRL                                                                         
320170503000001MARITIMO SRL                                                                                                     
50000110201705022017050382150121503610       PES0000032500A161042017050218050034                                                
6024600032500171288215012150361000000000057                                                                                     
7PESE                                                                                000000000032500                            
50000210201705022017050382151520064347       PES0000051000A179552017050215500082                                                
6024600051000171228215152006434700000000090                                                                                     
7PESE                                                                                000000000051000                            
82017050300000100000020000000835000000000000000000000000000000000000000000002                                                   
9201705030000010000002000000083500000000000000000000000000000000000000000000002                                                 
