120180801PAGO FACIL               090060246MARITIMO SRL                                                                         
320180801000001MARITIMO SRL                                                                                                     
50000110201807312018080176050431237434       PES0000025000A283652018073111140099                                                
6024600025000182177605043123743400000000000                                                                                     
7PESE                                                                                000000000025000                            
50000210201807312018080176050239764830       PES0000025000A144122018073117460033                                                
6024600025000182197605023976483000000000036                                                                                     
7PESE                                                                                000000000025000                            
50000310201807312018080176055827743491       PES0000030000A211472018073112380060                                                
6024600030000182157605582774349100000000015                                                                                     
7PESE                                                                                000000000030000                            
50000410201807312018080182200121555611       PES0000037500A154252018073117070064                                                
6024600037500182138220012155561100000000084                                                                                     
7PESP                                                                                000000000037500                            
50000510201807312018080182200221047594       PES0000037500A231032018073114260057                                                
6024600037500182138220022104759400000000036                                                                                     
7PESE                                                                                000000000037500                            
50000610201807312018080182200223773117       PES0000037500A231032018073114250056                                                
6024600037500182138220022377311700000000037                                                                                     
7PESE                                                                                000000000037500                            
50000710201807312018080182200224527951       PES0000037500A060902018073115420072                                                
6024600037500182138220022452795100000000037                                                                                     
7PESE                                                                                000000000037500                            
50000810201807312018080182200228972039       PES0000037500A178242018073117460028                                                
6024600037500182138220022897203900000000099                                                                                     
7PESE                                                                                000000000037500                            
50000910201807312018080182200235421475       PES0000037500A141672018073119040051                                                
6024600037500182138220023542147500000000090                                                                                     
7PESE                                                                                000000000037500                            
50001010201807312018080182200238955183       PES0000037500A185132018073118570022                                                
6024600037500182138220023895518300000000057                                                                                     
7PESE                                                                                000000000037500                            
50001110201807312018080182200334473007       PES0000053500A162812018073111260068                                                
6024600053500182138220033447300700000000021                                                                                     
7PESE                                                                                000000000053500                            
50001210201807312018080182200530390512       PES0000053500A163812018073117160070                                                
6024600053500182138220053039051200000000042                                                                                     
7PESE                                                                                000000000053500                            
50001310201807312018080182200721861091       PES0000053500A131622018073113310025                                                
6024600053500182138220072186109100000000000                                                                                     
7PESE                                                                                000000000053500                            
50001410201807312018080182200816914803       PES0000053500A162812018073111330069                                                
6024600053500182138220081691480300000000099                                                                                     
7PESE                                                                                000000000053500                            
50001510201807312018080182201336896676       PES0000053500A140792018073111080063                                                
6024600053500182138220133689667600000000090                                                                                     
7PESE                                                                                000000000053500                            
50001610201807312018080182201431433481       PES0000053500A049312018073110230042                                                
6024600053500182138220143143348100000000084                                                                                     
7PESE                                                                                000000000053500                            
50001710201807312018080182201623971607       PES0000053500A163102018073113130078                                                
6024600053500182138220162397160700000000015                                                                                     
7PESE                                                                                000000000053500                            
50001810201807312018080182201624312348       PES0000053500A161042018073110320037                                                
6024600053500182138220162431234800000000000                                                                                     
7PESE                                                                                000000000053500                            
50001910201807312018080182201626130457       PES0000053500A163102018073113140079                                                
6024600053500182138220162613045700000000079                                                                                     
7PESE                                                                                000000000053500                            
50002010201807312018080182201817797199       PES0000053500A157062018073118050057                                                
6024600053500182138220181779719900000000090                                                                                     
7PESE                                                                                000000000053500                            
50002110201807312018080182202728624343       PES0000072800A170152018073117400036                                                
6024600072800182138220272862434300000000000                                                                                     
7PESE                                                                                000000000072800                            
50002210201807312018080101191139821641       PES0000150000D005622018073111490107                                                
6024600150000182130119113982164100000000000                                                                                     
7PESE                                                                                000000000150000                            
50002310201807312018080101191131802387       PES0000150000A202712018073111130042                                                
6024600150000182190119113180238700000000078                                                                                     
7PESE                                                                                000000000150000                            
82018080100000100000230000012503000000000000000000000000000000000000000000023                                                   
9201808010000010000023000001250300000000000000000000000000000000000000000000023                                                 
