120180705PAGO FACIL               090060246MARITIMO SRL                                                                         
320180705000001MARITIMO SRL                                                                                                     
50000110201807042018070576051430596948       PES0000020000A267462018070413060006                                                
6024600020000181907605143059694800050000016                                                                                     
7PESE                                                                                000000000020000                            
50000210201807042018070582200123602229       PES0000034300A255992018070418040090                                                
6024600034300181868220012360222900032000036                                                                                     
7PESE                                                                                000000000034300                            
82018070500000100000020000000543000000000000000000000000000000000000000000002                                                   
9201807050000010000002000000054300000000000000000000000000000000000000000000002                                                 
