120181005PAGO FACIL               090060246MARITIMO SRL                                                                         
320181005000001MARITIMO SRL                                                                                                     
50000110201810042018100588110137433680       PES0000100000A278672018100411530040                                                
6024600100000182848811013743368000000000016                                                                                     
7PESE                                                                                000000000100000                            
82018100500000100000010000001000000000000000000000000000000000000000000000001                                                   
9201810050000010000001000000100000000000000000000000000000000000000000000000001                                                 
