120180509PAGO FACIL               090060246MARITIMO SRL                                                                         
320180509000001MARITIMO SRL                                                                                                     
50000110201805082018050982190527621923       PES0000045000A254692018050718050054                                                
6024600045000181348219052762192300040000084                                                                                     
7PESE                                                                                000000000045000                            
50000210201805082018050982190217772904       PES0000030000M620942018050814570030                                                
6024600030000181338219021777290400020000099                                                                                     
7PESE                                                                                000000000030000                            
50000310201805082018050982192442782414       PES0000045000A145652018050812110063                                                
6024600045000181308219244278241400040000042                                                                                     
7PESE                                                                                000000000045000                            
50000410201805082018050982190529002950       PES0000045000A161042018050809010007                                                
6024600045000181328219052900295000040000057                                                                                     
7PESE                                                                                000000000045000                            
50000510201805082018050982191718312583       PES0000045000M620942018050814550029                                                
6024600045000181338219171831258300040000099                                                                                     
7PESE                                                                                000000000045000                            
50000610201805082018050982190901612222       PES0000045000M620942018050814520028                                                
6024600045000181348219090161222200040000016                                                                                     
7PESE                                                                                000000000045000                            
50000710201805082018050988100111851284       PES0000060000A150892018050818210065                                                
6024600060000181298810011185128400000000063                                                                                     
7PESE                                                                                000000000060000                            
50000810201805082018050988100140119294       PES0000060000A150892018050818210067                                                
6024600060000181298810014011929400000000016                                                                                     
7PESE                                                                                000000000060000                            
50000910201805082018050988100145490019       PES0000060000A150892018050818210066                                                
6024600060000181298810014549001900000000084                                                                                     
7PESE                                                                                000000000060000                            
50001010201805082018050988100136354956       PES0000060000A171842018050810240039                                                
6024600060000181358810013635495600000000063                                                                                     
7PESE                                                                                000000000060000                            
50001110201805082018050988100137662625       PES0000060000A174972018050812210059                                                
6024600060000181358810013766262500000000000                                                                                     
7PESE                                                                                000000000060000                            
82018050900000100000110000005550000000000000000000000000000000000000000000011                                                   
9201805090000010000011000000555000000000000000000000000000000000000000000000011                                                 
