120171002PAGO FACIL               090060246MARITIMO SRL                                                                         
320171002000001MARITIMO SRL                                                                                                     
50000110201709302017100279121208470670       PES0000145000A163662017093009540019                                                
6024600145000172787912120847067000265000084                                                                                     
7PESE                                                                                000000000145000                            
50000210201709302017100279121430955300       PES0000145000A163662017093009540020                                                
6024600145000172787912143095530000265000037                                                                                     
7PESE                                                                                000000000145000                            
50000310201709302017100282171004751551       PES0000048000A134992017093009010002                                                
6024600048000172778217100475155100030000084                                                                                     
7PESE                                                                                000000000048000                            
50000410201709302017100279120724640173       PES0000145000A151042017093011050014                                                
6024600145000172797912072464017300265000036                                                                                     
7PESE                                                                                000000000145000                            
82017100200000100000040000004830000000000000000000000000000000000000000000004                                                   
9201710020000010000004000000483000000000000000000000000000000000000000000000004                                                 
