120180406PAGO FACIL               090060246MARITIMO SRL                                                                         
320180406000001MARITIMO SRL                                                                                                     
50000110201804052018040612010825300197       PES0000042000A200292018040515390010                                                
6024600042000181021201082530019700000000058                                                                                     
7PESE                                                                                000000000042000                            
50000210201804052018040612011829498194       PES0000065000A200292018040515390009                                                
6024600065000181021201182949819400000000000                                                                                     
7PESE                                                                                000000000065000                            
82018040600000100000020000001070000000000000000000000000000000000000000000002                                                   
9201804060000010000002000000107000000000000000000000000000000000000000000000002                                                 
