120180507PAGO FACIL               090060246MARITIMO SRL                                                                         
320180507000001MARITIMO SRL                                                                                                     
50000110201805042018050782192132944789       PES0000064000A227232018050416370066                                                
6024600064000181298219213294478900040000099                                                                                     
7PESE                                                                                000000000064000                            
50000210201805042018050782191623617629       PES0000045000D002492018050411140057                                                
6024600045000181318219162361762900040000015                                                                                     
7PESE                                                                                000000000045000                            
50000310201805052018050782190334780513       PES0000045000A095592018050513350074                                                
6024600045000181328219033478051300040000084                                                                                     
7PESE                                                                                000000000045000                            
50000410201805052018050782190217179585       PES0000030000A052182018050517170021                                                
6024600028000181208219021717958500020007657                                                                                     
7PESE                                                                                000000000030000                            
82018050700000100000040000001840000000000000000000000000000000000000000000004                                                   
9201805070000010000004000000184000000000000000000000000000000000000000000000004                                                 
