120171201PAGO FACIL               090060246MARITIMO SRL                                                                         
320171201000001MARITIMO SRL                                                                                                     
50000110201711302017120103051131154599       PES0000030000A179062017113016190049                                                
6024600030000173370305113115459900000000042                                                                                     
7PESE                                                                                000000000030000                            
82017120100000100000010000000300000000000000000000000000000000000000000000001                                                   
9201712010000010000001000000030000000000000000000000000000000000000000000000001                                                 
