120171106PAGO FACIL               090060246MARITIMO SRL                                                                         
320171106000001MARITIMO SRL                                                                                                     
50000110201711032017110600808041037280       PES0000175000A172292017110319110026                                                
6024600175000173110080804103728000120000299                                                                                     
7PESE                                                                                000000000175000                            
82017110600000100000010000001750000000000000000000000000000000000000000000001                                                   
9201711060000010000001000000175000000000000000000000000000000000000000000000001                                                 
