120170605PAGO FACIL               090060246MARITIMO SRL                                                                         
320170605000001MARITIMO SRL                                                                                                     
50000110201706022017060588080142883152       PES0000045000A087612017060209400095                                                
6024600045000171568808014288315200060000000                                                                                     
7PESE                                                                                000000000045000                            
50000210201706022017060588080126383427       PES0000045000A039702017060211210042                                                
6024600045000171608808012638342700060000021                                                                                     
7PESE                                                                                000000000045000                            
50000310201706022017060588080138430814       PES0000045000A140792017060211210099                                                
6024600045000171598808013843081400060000099                                                                                     
7PESE                                                                                000000000045000                            
50000410201706022017060588080139283587       PES0000045000A170142017060212040060                                                
6024600045000171608808013928358700060000015                                                                                     
7PESE                                                                                000000000045000                            
50000510201706022017060588080129722056       PES0000045000A140702017060211460077                                                
6024600045000171608808012972205600060000078                                                                                     
7PESE                                                                                000000000045000                            
50000610201706022017060588070234087688       PES0000085000A150892017060211520060                                                
6024600085000171608807023408768800000000037                                                                                     
7PESE                                                                                000000000085000                            
50000710201706022017060579110225743743       PES0000096500A088252017060211090101                                                
6024600096500171597911022574374300110000015                                                                                     
7PESE                                                                                000000000096500                            
50000810201706022017060579110228092514       PES0000096500A077842017060216250110                                                
6024600096500171597911022809251400110000021                                                                                     
7PESE                                                                                000000000096500                            
50000910201706022017060588080139509527       PES0000045000A170872017060210330037                                                
6024600045000171588808013950952700060000000                                                                                     
7PESE                                                                                000000000045000                            
50001010201706022017060500929238749510       PES0000117000A100532017060212340104                                                
6024600117000171600092923874951000000000016                                                                                     
7PESE                                                                                000000000117000                            
50001110201706022017060588080136143503       PES0000045000A180322017060218290081                                                
6024600045000171598808013614350300060000015                                                                                     
7PESE                                                                                000000000045000                            
50001210201706022017060588080134399468       PES0000045000A174962017060219150126                                                
6024600045000171598808013439946800060000058                                                                                     
7PESE                                                                                000000000045000                            
50001310201706022017060579110413957008       PES0000096500A167832017060209180001                                                
6024600096500171597911041395700800110000084                                                                                     
7PESE                                                                                000000000096500                            
50001410201706022017060588080138902060       PES0000045000D007242017060217180118                                                
6024600045000171608808013890206000060000000                                                                                     
7PESE                                                                                000000000045000                            
50001510201706022017060588070133034407       PES0000058000A134192017060219530030                                                
6024600058000171608807013303440700000000036                                                                                     
7PESE                                                                                000000000058000                            
50001610201706022017060588080133184877       PES0000045000L270292017060215485076                                                
6024600045000171608808013318487700060000084                                                                                     
7PESE                                                                                000000000045000                            
50001710201706032017060588080140495071       PES0000045000A171942017060217490016                                                
6024600045000171608808014049507100060000079                                                                                     
7PESE                                                                                000000000045000                            
50001810201706032017060588080136004100       PES0000045000A168842017060312300026                                                
6024600045000171598808013600410000060000079                                                                                     
7PESE                                                                                000000000045000                            
50001910201706032017060588070131789752       PES0000058000D002602017060309540039                                                
6024600058000171608807013178975200000000036                                                                                     
7PESE                                                                                000000000058000                            
50002010201706032017060596010138808843       PES0000070000D006362017060316390035                                                
6024600070000171609601013880884300000000084                                                                                     
7PESE                                                                                000000000070000                            
82017060500000100000200000012175000000000000000000000000000000000000000000020                                                   
9201706050000010000020000001217500000000000000000000000000000000000000000000020                                                 
