120180601PAGO FACIL               090060246MARITIMO SRL                                                                         
320180601000001MARITIMO SRL                                                                                                     
50000110201805312018060182190236259770       PES0000034300A039002018053108470016                                                
6024600034300181548219023625977000000000042                                                                                     
7PESE                                                                                000000000034300                            
50000210201805312018060182190624224396       PES0000052500A260682018053111450020                                                
6024600052500181548219062422439600000000079                                                                                     
7PESE                                                                                000000000052500                            
50000310201805312018060182190817018423       PES0000052500A227212018053114440073                                                
6024600052500181548219081701842300000000079                                                                                     
7PESE                                                                                000000000052500                            
50000410201805312018060182190916265951       PES0000052500A087612018053109380073                                                
6024600052500181548219091626595100000000021                                                                                     
7PESE                                                                                000000000052500                            
50000510201805312018060182191013233513       PES0000052500A260682018053111450021                                                
6024600052500181548219101323351300000000042                                                                                     
7PESE                                                                                000000000052500                            
50000610201805312018060182191331559906       PES0000052500A210982018053113030076                                                
6024600052500181548219133155990600000000042                                                                                     
7PESE                                                                                000000000052500                            
50000710201805312018060182191334313381       PES0000052500A264692018053112130013                                                
6024600052500181548219133431338100000000063                                                                                     
7PESE                                                                                000000000052500                            
50000810201805312018060182191427737675       PES0000052500A060902018053113500052                                                
6024600052500181548219142773767500000000063                                                                                     
7PESE                                                                                000000000052500                            
50000910201805312018060182191524676447       PES0000052500M620942018053112200009                                                
6024600052500181548219152467644700000000016                                                                                     
7PESE                                                                                000000000052500                            
50001010201805312018060182192343591620       PES0000072900A179062018053117440027                                                
6024600072900181548219234359162000000000084                                                                                     
7PESE                                                                                000000000072900                            
50001110201805312018060101171140074101       PES0000150000A129532018053110170028                                                
6024600150000181580117114007410100000000000                                                                                     
7PESE                                                                                000000000150000                            
50001210201805312018060101171140110258       PES0000150000A264302018053119460044                                                
6024600150000181580117114011025800000000021                                                                                     
7PESE                                                                                000000000150000                            
82018060100000100000120000008272000000000000000000000000000000000000000000012                                                   
9201806010000010000012000000827200000000000000000000000000000000000000000000012                                                 
