120180806PAGO FACIL               090060246MARITIMO SRL                                                                         
320180806000001MARITIMO SRL                                                                                                     
50000110201808032018080676050334961224       PES0000025000A283652018080309510063                                                
6024600025000182217605033496122400000000042                                                                                     
7PESE                                                                                000000000025000                            
50000210201808042018080601191129019872       PES0000150000D002062018080412400184                                                
6024600150000182230119112901987200000000090                                                                                     
7PESP                                                                                000000000150000                            
82018080600000100000020000001750000000000000000000000000000000000000000000002                                                   
9201808060000010000002000000175000000000000000000000000000000000000000000000002                                                 
