120170601PAGO FACIL               090060246MARITIMO SRL                                                                         
320170601000001MARITIMO SRL                                                                                                     
50000110201705312017060188080113720226       PES0000045000A062292017053111510147                                                
6024600045000171518808011372022600060000057                                                                                     
7PESE                                                                                000000000045000                            
50000210201705312017060188080128986069       PES0000045000A177922017053110460093                                                
6024600045000171568808012898606900060000078                                                                                     
7PESE                                                                                000000000045000                            
50000310201705312017060188080129145471       PES0000045000A181492017053117190007                                                
6024600045000171588808012914547100060000042                                                                                     
7PESE                                                                                000000000045000                            
50000410201705312017060188070128986069       PES0000058000A177922017053110460092                                                
6024600058000171518807012898606900000000021                                                                                     
7PESE                                                                                000000000058000                            
50000510201705312017060196020127323521       PES0000085000A169012017053111360042                                                
6024600085000171519602012732352100000000000                                                                                     
7PESE                                                                                000000000085000                            
50000610201705312017060196020131076100       PES0000085000A169012017053111370043                                                
6024600085000171519602013107610000000000021                                                                                     
7PESE                                                                                000000000085000                            
50000710201705312017060196020132223439       PES0000085000A187512017053114440087                                                
6024600085000171519602013222343900000000078                                                                                     
7PESE                                                                                000000000085000                            
50000810201705312017060196010232223439       PES0000099000A187512017053114440088                                                
6024600099000171519601023222343900000000063                                                                                     
7PESE                                                                                000000000099000                            
50000910201705312017060100929232682493       PES0000117000A114992017053119100046                                                
6024600117000171580092923268249300000000063                                                                                     
7PESE                                                                                000000000117000                            
82017060100000100000090000006640000000000000000000000000000000000000000000009                                                   
9201706010000010000009000000664000000000000000000000000000000000000000000000009                                                 
