120171004PAGO FACIL               090060246MARITIMO SRL                                                                         
320171004000001MARITIMO SRL                                                                                                     
50000110201710032017100479120626590005       PES0000145000A087082017100319340087                                                
6024600145000172797912062659000500265000279                                                                                     
7PESE                                                                                000000000145000                            
50000210201710032017100479120628571497       PES0000145000A062262017100310140083                                                
6024600145000172797912062857149700265000357                                                                                     
7PESE                                                                                000000000145000                            
50000310201710032017100479120821524654       PES0000145000A145042017100319260172                                                
6024600145000172797912082152465400265000458                                                                                     
7PESE                                                                                000000000145000                            
50000410201710032017100479120823052771       PES0000145000A144002017100318320076                                                
6024600145000172797912082305277100265000479                                                                                     
7PESE                                                                                000000000145000                            
50000510201710032017100479120917974112       PES0000145000M640432017100308580021                                                
6024600145000172797912091797411200265000021                                                                                     
7PESE                                                                                000000000145000                            
50000610201710032017100479121618238024       PES0000145000D003302017100315290042                                                
6024600145000172797912161823802400265000378                                                                                     
7PESE                                                                                000000000145000                            
82017100400000100000060000008700000000000000000000000000000000000000000000006                                                   
9201710040000010000006000000870000000000000000000000000000000000000000000000006                                                 
