120171204PAGO FACIL               090060246MARITIMO SRL                                                                         
320171204000001MARITIMO SRL                                                                                                     
50000110201712022017120403050716102222       PES0000030000A161042017120211440009                                                
6024600030000173420305071610222200000000037                                                                                     
7PESE                                                                                000000000030000                            
82017120400000100000010000000300000000000000000000000000000000000000000000001                                                   
9201712040000010000001000000030000000000000000000000000000000000000000000000001                                                 
