120170609PAGO FACIL               090060246MARITIMO SRL                                                                         
320170609000001MARITIMO SRL                                                                                                     
50000110201706082017060979110321108876       PES0000096500A194102017060812230029                                                
6024600096500171637911032110887600110000078                                                                                     
7PESE                                                                                000000000096500                            
82017060900000100000010000000965000000000000000000000000000000000000000000001                                                   
9201706090000010000001000000096500000000000000000000000000000000000000000000001                                                 
