120170901PAGO FACIL               090060246MARITIMO SRL                                                                         
320170901000001MARITIMO SRL                                                                                                     
50000110201708312017090117080918224925       PES0000080000A078632017083118200010                                                
6024600080000172501708091822492500150000084                                                                                     
7PESE                                                                                000000000080000                            
50000210201708312017090100929235354114       PES0000117000A171002017083116480067                                                
6024600117000172480092923535411400000000000                                                                                     
7PESE                                                                                000000000117000                            
50000310201708312017090179120628502792       PES0000145000A700152017083111330027                                                
6024600145000172437912062850279200265000042                                                                                     
7PESE                                                                                000000000145000                            
82017090100000100000030000003420000000000000000000000000000000000000000000003                                                   
9201709010000010000003000000342000000000000000000000000000000000000000000000003                                                 
