120180102PAGO FACIL               090060246MARITIMO SRL                                                                         
320180102000001MARITIMO SRL                                                                                                     
50000110201712292018010282181521904020       PES0000040500D002522017122911000013                                                
6024600040500180028218152190402000020000084                                                                                     
7PESE                                                                                000000000040500                            
50000210201712292018010285044326050433       PES0000113700A129392017122907280041                                                
6024600113700180038504432605043300000000063                                                                                     
7PESE                                                                                000000000113700                            
50000310201712292018010282180434623976       PES0000040500A061862017122921000051                                                
6024600040500173638218043462397600020000036                                                                                     
7PESE                                                                                000000000040500                            
50000410201712292018010285046724632256       PES0000113700M620192017122911180008                                                
6024600113700180048504672463225600000000079                                                                                     
7PESE                                                                                000000000113700                            
50000510201712292018010285046521832575       PES0000113700M620192017122911200009                                                
6024600113700180048504652183257500000000063                                                                                     
7PESE                                                                                000000000113700                            
50000610201712302018010282180124149947       PES0000030000A170232017123012220043                                                
6024600030000180028218012414994700020000400                                                                                     
7PESE                                                                                000000000030000                            
50000710201712302018010282180144562128       PES0000030000A170232017123012240044                                                
6024600030000180028218014456212800020000478                                                                                     
7PESE                                                                                000000000030000                            
50000810201712312018010282181520966249       PES0000040500A145492017123118400033                                                
6024600040500180028218152096624900020000000                                                                                     
7PESE                                                                                000000000040500                            
82018010200000100000080000005226000000000000000000000000000000000000000000008                                                   
9201801020000010000008000000522600000000000000000000000000000000000000000000008                                                 
