120180307PAGO FACIL               090060246MARITIMO SRL                                                                         
320180307000001MARITIMO SRL                                                                                                     
50000110201803062018030788080144705048       PES0000051000A217522018030617560022                                                
6024600051000180728808014470504800000000021                                                                                     
7PESE                                                                                000000000051000                            
82018030700000100000010000000510000000000000000000000000000000000000000000001                                                   
9201803070000010000001000000051000000000000000000000000000000000000000000000001                                                 
