120170606PAGO FACIL               090060246MARITIMO SRL                                                                         
320170606000001MARITIMO SRL                                                                                                     
50000110201706052017060699250321774206       PES0000030000A054762017060509480061                                                
6024600030000171569925032177420600000000078                                                                                     
7PESE                                                                                000000000030000                            
50000210201706052017060699250332334745       PES0000030000A058252017060513230021                                                
6024600030000171569925033233474500000000057                                                                                     
7PESE                                                                                000000000030000                            
50000310201706052017060699250337852440       PES0000030000D002042017060520360393                                                
6024600030000171569925033785244000000000078                                                                                     
7PESE                                                                                000000000030000                            
50000410201706052017060679110418336103       PES0000096500A077842017060511240024                                                
6024600096500171607911041833610300110000084                                                                                     
7PESE                                                                                000000000096500                            
50000510201706052017060600929235592785       PES0000117000A196972017060517500096                                                
6024600117000171600092923559278500000000057                                                                                     
7PESE                                                                                000000000117000                            
50000610201706052017060600929231053686       PES0000117000A181612017060513140120                                                
6024600117000171630092923105368600000000042                                                                                     
7PESE                                                                                000000000117000                            
82017060600000100000060000004205000000000000000000000000000000000000000000006                                                   
9201706060000010000006000000420500000000000000000000000000000000000000000000006                                                 
