120170802PAGO FACIL               090060246MARITIMO SRL                                                                         
320170802000001MARITIMO SRL                                                                                                     
50000110201708012017080288080137666718       PES0000051000A740172017080111560065                                                
6024600051000172198808013766671800000000000                                                                                     
7PESE                                                                                000000000051000                            
50000210201708012017080282160330598720       PES0000051000A144122017080113200098                                                
6024600051000172208216033059872000000000015                                                                                     
7PESE                                                                                000000000051000                            
50000310201708012017080299310132334745       PES0000060000A065852017080109340013                                                
6024600060000172209931013233474500000000015                                                                                     
7PESE                                                                                000000000060000                            
82017080200000100000030000001620000000000000000000000000000000000000000000003                                                   
9201708020000010000003000000162000000000000000000000000000000000000000000000003                                                 
