120180809PAGO FACIL               090060246MARITIMO SRL                                                                         
320180809000001MARITIMO SRL                                                                                                     
50000110201808082018080901201236314369       PES0000150000D010142018080819120061                                                
6024600150000182220120123631436900000000015                                                                                     
7PESE                                                                                000000000150000                            
82018080900000100000010000001500000000000000000000000000000000000000000000001                                                   
9201808090000010000001000000150000000000000000000000000000000000000000000000001                                                 
