120170403PAGO FACIL               090060246MARITIMO SRL                                                                         
320170403000001MARITIMO SRL                                                                                                     
50000110201703312017040382143823122268       PES0000034000A143422017033109440006                                                
6024600034000170908214382312226800030007121                                                                                     
7PESE                                                                                000000000034000                            
50000210201703312017040382143823777783       PES0000034000A143422017033109460007                                                
6024600034000170908214382377778300030007142                                                                                     
7PESE                                                                                000000000034000                            
50000310201703312017040382140234310078       PES0000046000A087612017033108320042                                                
6024600046000170908214023431007800030007236                                                                                     
7PESE                                                                                000000000046000                            
50000410201703312017040382142434883570       PES0000034000A092352017033112550010                                                
6024600034000170908214243488357000030007437                                                                                     
7PESE                                                                                000000000034000                            
50000510201703312017040382140141142142       PES0000046000A131622017033111420049                                                
6024600046000170908214014114214200030007442                                                                                     
7PESE                                                                                000000000046000                            
50000610201703312017040382143534623908       PES0000034000A143422017033111100002                                                
6024600034000170908214353462390800030007163                                                                                     
7PESE                                                                                000000000034000                            
50000710201703312017040382140427019290       PES0000046000A081382017033113210072                                                
6024600046000170908214042701929000030007442                                                                                     
7PESE                                                                                000000000046000                            
50000810201703312017040379100622894168       PES0000042000A071132017033112040196                                                
6024600042000170917910062289416800070000499                                                                                     
7PESE                                                                                000000000042000                            
50000910201703312017040382140522851615       PES0000046000A139922017033117100235                                                
6024600046000170908214052285161500030007463                                                                                     
7PESE                                                                                000000000046000                            
50001010201703312017040382141622723895       PES0000046000A146392017033115440042                                                
6024600046000170908214162272389500030007490                                                                                     
7PESE                                                                                000000000046000                            
50001110201703312017040382142500000000       PES0000034000A170872017033118280114                                                
6024600034000170908214250000000000030007421                                                                                     
7PESE                                                                                000000000034000                            
50001210201703312017040382142625974800       PES0000034000A143422017033116570029                                                
6024600034000170908214262597480000030007457                                                                                     
7PESE                                                                                000000000034000                            
50001310201703312017040382141722723056       PES0000046000A166542017033110560004                                                
6024600046000170908214172272305600030007421                                                                                     
7PESE                                                                                000000000046000                            
50001410201703312017040382143632783726       PES0000034000A166542017033116340034                                                
6024600034000170908214363278372600030007463                                                                                     
7PESE                                                                                000000000034000                            
50001510201703312017040382141817797199       PES0000046000A052182017033119470101                                                
6024600046000170908214181779719900030007437                                                                                     
7PESE                                                                                000000000046000                            
50001610201703312017040379101328549586       PES0000042000A159142017033108250004                                                
6024600042000170917910132854958600070000463                                                                                     
7PESE                                                                                000000000042000                            
50001710201703312017040382140142075114       PES0000046000A157862017033120020018                                                
6024600046000170908214014207511400030007458                                                                                     
7PESE                                                                                000000000046000                            
50001810201703312017040382142436217106       PES0000034000A139292017033119480088                                                
6024600034000170908214243621710600030007463                                                                                     
7PESE                                                                                000000000034000                            
50001910201703312017040382142530873535       PES0000034000A161042017033117500016                                                
6024600034000170908214253087353500030007421                                                                                     
7PESE                                                                                000000000034000                            
50002010201703312017040382142529306466       PES0000034000A161042017033117510017                                                
6024600034000170908214252930646600030007478                                                                                     
7PESE                                                                                000000000034000                            
50002110201703312017040382143632777657       PES0000034000A161042017033117510018                                                
6024600034000170908214363277765700030007400                                                                                     
7PESE                                                                                000000000034000                            
50002210201703312017040382143014909230       PES0000034000A134992017033117200041                                                
6024600034000170908214301490923000030000090                                                                                     
7PESE                                                                                000000000034000                            
50002310201703312017040382140522723582       PES0000046000A061862017033120310074                                                
6024600046000170908214052272358200030007436                                                                                     
7PESE                                                                                000000000046000                            
50002410201703312017040382143500000000       PES0000034000A165912017033121380062                                                
6024600034000170908214350000000000030007437                                                                                     
7PESE                                                                                000000000034000                            
50002510201704012017040382140237363447       PES0000049000D002522017040117380076                                                
6024600049000170958214023736344700000000042                                                                                     
7PESE                                                                                000000000049000                            
50002610201704012017040382143200000000       PES0000037000A139922017040113230124                                                
6024600037000170958214320000000000000000036                                                                                     
7PESE                                                                                000000000037000                            
82017040300000100000260000010260000000000000000000000000000000000000000000026                                                   
9201704030000010000026000001026000000000000000000000000000000000000000000000026                                                 
