120171206PAGO FACIL               090060246MARITIMO SRL                                                                         
320171206000001MARITIMO SRL                                                                                                     
50000110201712052017120603051323479655       PES0000030000A210982017120510270051                                                
6024600030000173390305132347965500000000090                                                                                     
7PESE                                                                                000000000030000                            
50000210201712052017120603050329593629       PES0000030000D001112017120509550018                                                
6024600030000173410305032959362900000000037                                                                                     
7PESE                                                                                000000000030000                            
50000310201712052017120682180434750506       PES0000040500A139292017120511230077                                                
6024600040500173458218043475050600020000057                                                                                     
7PESE                                                                                000000000040500                            
82017120600000100000030000001005000000000000000000000000000000000000000000003                                                   
9201712060000010000003000000100500000000000000000000000000000000000000000000003                                                 
