120171009PAGO FACIL               090060246MARITIMO SRL                                                                         
320171009000001MARITIMO SRL                                                                                                     
50000110201710062017100979120726107678       PES0000145000A082002017100608260021                                                
6024600145000172797912072610767800265000657                                                                                     
7PESE                                                                                000000000145000                            
50000210201710062017100979120627855362       PES0000145000A144802017100611290143                                                
6024600145000172797912062785536200265000590                                                                                     
7PESE                                                                                000000000145000                            
50000310201710062017100979120627184708       PES0000145000A621142017100611330208                                                
6024600145000172797912062718470800265000578                                                                                     
7PESE                                                                                000000000145000                            
50000410201710062017100979121111866336       PES0000145000A187512017100613450026                                                
6024600145000172797912111186633600265000590                                                                                     
7PESE                                                                                000000000145000                            
50000510201710062017100979120628355911       PES0000145000A150052017100616200111                                                
6024600145000172797912062835591100265000700                                                                                     
7PESE                                                                                000000000145000                            
50000610201710062017100979120820388496       PES0000145000A113242017100611400027                                                
6024600145000172797912082038849600265000499                                                                                     
7PESE                                                                                000000000145000                            
50000710201710062017100900797941037280       PES0000175000A172292017100611190004                                                
6024600175000172800079794103728000120000416                                                                                     
7PESE                                                                                000000000175000                            
50000810201710062017100979120820716260       PES0000145000A082002017100617370122                                                
6024600145000172797912082071626000265000721                                                                                     
7PESE                                                                                000000000145000                            
50000910201710062017100982170814955633       PES0000048000A123592017100610410025                                                
6024600048000172818217081495563300030000442                                                                                     
7PESE                                                                                000000000048000                            
50001010201710062017100982170524785379       PES0000048000A123592017100617530111                                                
6024600048000172818217052478537900030000421                                                                                     
7PESE                                                                                000000000048000                            
50001110201710062017100979121333677651       PES0000145000A170822017100618550120                                                
6024600145000172797912133367765100265000742                                                                                     
7PESE                                                                                000000000145000                            
50001210201710062017100979121426528078       PES0000145000A182622017100619120042                                                
6024600145000172797912142652807800265000700                                                                                     
7PESE                                                                                000000000145000                            
50001310201710062017100979120820656255       PES0000145000A171372017100617190064                                                
6024600145000172797912082065625500265000384                                                                                     
7PESE                                                                                000000000145000                            
50001410201710062017100979120723134238       PES0000145000A163652017100618180010                                                
6024600145000172797912072313423800265000200                                                                                     
7PESE                                                                                000000000145000                            
50001510201710062017100979121014174319       PES0000145000A082002017100621020121                                                
6024600145000172797912101417431900265000778                                                                                     
7PESE                                                                                000000000145000                            
50001610201710062017100979120917086370       PES0000145000A159362017100614050040                                                
6024600145000172797912091708637000265000763                                                                                     
7PESE                                                                                000000000145000                            
50001710201710072017100982171328185393       PES0000048000A163102017100713190096                                                
6024600048000172818217132818539300030000599                                                                                     
7PESE                                                                                000000000048000                            
50001810201710072017100982170716895360       PES0000048000A166862017100718440065                                                
6024600048000172818217071689536000030000421                                                                                     
7PESE                                                                                000000000048000                            
50001910201710072017100982171618501195       PES0000048000A166862017100718440064                                                
6024600048000172818217161850119500030000479                                                                                     
7PESE                                                                                000000000048000                            
50002010201710072017100982171326457555       PES0000048000A049312017100721040078                                                
6024600048000172808217132645755500030000000                                                                                     
7PESE                                                                                000000000048000                            
50002110201710082017100979121016287511       PES0000171500A100122017100721060149                                                
6024600145000172797912101628751100265000521                                                                                     
7PESE                                                                                000000000171500                            
82017100900000100000210000025195000000000000000000000000000000000000000000021                                                   
9201710090000010000021000002519500000000000000000000000000000000000000000000021                                                 
