120170714PAGO FACIL               090060246MARITIMO SRL                                                                         
320170714000001MARITIMO SRL                                                                                                     
50000110201707132017071482160910858382       PES0000048000A143422017071310370027                                                
6024600048000172008216091085838200030000084                                                                                     
7PESE                                                                                000000000048000                            
50000210201707132017071482161810858562       PES0000048000A143422017071310380028                                                
6024600048000172008216181085856200030000036                                                                                     
7PESE                                                                                000000000048000                            
50000310201707132017071482161426254584       PES0000048000A039032017071313190031                                                
6024600048000172018216142625458400030000036                                                                                     
7PESE                                                                                000000000048000                            
50000410201707132017071488080132217298       PES0000051000A140902017071317060023                                                
6024600051000171958808013221729800000000000                                                                                     
7PESE                                                                                000000000051000                            
50000510201707132017071488080134820295       PES0000051000A140902017071317060022                                                
6024600051000171958808013482029500000000084                                                                                     
7PESE                                                                                000000000051000                            
50000610201707132017071488080136425399       PES0000051000A170962017071314000048                                                
6024600051000171998808013642539900000000016                                                                                     
7PESE                                                                                000000000051000                            
50000710201707132017071488080140152694       PES0000051000A170962017071314000049                                                
6024600051000171998808014015269400000000016                                                                                     
7PESE                                                                                000000000051000                            
50000810201707132017071400949438646112       PES0000117000A165282017071309280007                                                
6024600117000171980094943864611200000000078                                                                                     
7PESE                                                                                000000000117000                            
82017071400000100000080000004650000000000000000000000000000000000000000000008                                                   
9201707140000010000008000000465000000000000000000000000000000000000000000000008                                                 
