120180810PAGO FACIL               090060246MARITIMO SRL                                                                         
320180810000001MARITIMO SRL                                                                                                     
50000110201808092018081076054423393832       PES0000015000A151592018080817150069                                                
6024600015000182217605442339383200000000000                                                                                     
7PESE                                                                                000000000015000                            
50000210201808092018081076054236413589       PES0000015000A178242018080919030007                                                
6024600015000182217605423641358900000000058                                                                                     
7PESE                                                                                000000000015000                            
50000310201808092018081076051336834189       PES0000025000A144132018080917020044                                                
6024600025000182217605133683418900000000037                                                                                     
7PESE                                                                                000000000025000                            
82018081000000100000030000000550000000000000000000000000000000000000000000003                                                   
9201808100000010000003000000055000000000000000000000000000000000000000000000003                                                 
