120180510PAGO FACIL               090060246MARITIMO SRL                                                                         
320180510000001MARITIMO SRL                                                                                                     
50000110201805092018051082191913375505       PES0000045000A170872018050917560073                                                
6024600045000181298219191337550500040000037                                                                                     
7PESE                                                                                000000000045000                            
50000210201805092018051082191525857146       PES0000045000A157282018050912120041                                                
6024600045000181308219152585714600040000099                                                                                     
7PESE                                                                                000000000045000                            
50000310201805092018051082190338828981       PES0000045000A213112018050911150057                                                
6024600045000181358219033882898100040000079                                                                                     
7PESE                                                                                000000000045000                            
50000410201805092018051082190334489072       PES0000048200M620942018050913570042                                                
6024600048200181358219033448907200043000090                                                                                     
7PESE                                                                                000000000048200                            
50000510201805092018051082191622093898       PES0000048200M620942018050913550041                                                
6024600048200181368219162209389800043000000                                                                                     
7PESE                                                                                000000000048200                            
50000610201805092018051082191717797199       PES0000048200A157062018050916440064                                                
6024600048200181368219171779719900043000078                                                                                     
7PESE                                                                                000000000048200                            
50000710201805092018051088100126383427       PES0000060000A039702018050918430078                                                
6024600060000181308810012638342700000000000                                                                                     
7PESE                                                                                000000000060000                            
50000810201805092018051088100139662776       PES0000060000A227332018050910400046                                                
6024600060000181348810013966277600000000090                                                                                     
7PESE                                                                                000000000060000                            
50000910201805092018051088100137475178       PES0000060000D001272018050919380227                                                
6024600060000181368810013747517800000000079                                                                                     
7PESE                                                                                000000000060000                            
82018051000000100000090000004596000000000000000000000000000000000000000000009                                                   
9201805100000010000009000000459600000000000000000000000000000000000000000000009                                                 
