120180716PAGO FACIL               090060246MARITIMO SRL                                                                         
320180716000001MARITIMO SRL                                                                                                     
50000110201807132018071682201530197944       PES0000048200A039052018071313440075                                                
6024600048200181948220153019794400053000021                                                                                     
7PESE                                                                                000000000048200                            
50000210201807132018071676050528741842       PES0000020000A620782018071309420002                                                
6024600020000181967605052874184200050000536                                                                                     
7PESE                                                                                000000000020000                            
50000310201807132018071676050529885856       PES0000020000A620782018071317350029                                                
6024600020000181967605052988585600050000542                                                                                     
7PESE                                                                                000000000020000                            
50000410201807132018071682201529751919       PES0000048200A213112018071315130021                                                
6024600048200181968220152975191900053000215                                                                                     
7PESE                                                                                000000000048200                            
50000510201807132018071682201817510625       PES0000048200A166862018071317100019                                                
6024600048200181968220181751062500053000584                                                                                     
7PESE                                                                                000000000048200                            
50000610201807132018071682201723617629       PES0000048200D002502018071316410188                                                
6024600048200181968220172361762900053000437                                                                                     
7PESP                                                                                000000000048200                            
50000710201807132018071601171136652207       PES0000150000A171992018071319100062                                                
6024600150000182000117113665220700000000090                                                                                     
7PESE                                                                                000000000150000                            
50000810201807142018071682201334500433       PES0000048200A227222018071412140042                                                
6024600048200181968220133450043300053000237                                                                                     
7PESE                                                                                000000000048200                            
50000910201807142018071682201818336563       PES0000048200A166862018071409570009                                                
6024600048200181968220181833656300053000521                                                                                     
7PESE                                                                                000000000048200                            
50001010201807142018071682200223224867       PES0000034300A172372018071413100096                                                
6024600034300181968220022322486700032000642                                                                                     
7PESE                                                                                000000000034300                            
50001110201807142018071682200238145454       PES0000034300A210982018071416150058                                                
6024600034300181968220023814545400032000263                                                                                     
7PESE                                                                                000000000034300                            
50001210201807142018071676050527418041       PES0000020000A092352018071411490005                                                
6024600020000181967605052741804100050000057                                                                                     
7PESE                                                                                000000000020000                            
50001310201807142018071682200816895360       PES0000048200A161042018071417410014                                                
6024600048200181968220081689536000053000679                                                                                     
7PESE                                                                                000000000048200                            
50001410201807142018071682201818501195       PES0000048200A161042018071417420015                                                
6024600048200181968220181850119500053000657                                                                                     
7PESE                                                                                000000000048200                            
50001510201807142018071682201337094163       PES0000048200A151422018071419070030                                                
6024600048200181968220133709416300053000579                                                                                     
7PESE                                                                                000000000048200                            
50001610201807142018071676050626496017       PES0000020000A139922018071421180034                                                
6024600020000181967605062649601700050000679                                                                                     
7PESE                                                                                000000000020000                            
82018071600000100000160000007324000000000000000000000000000000000000000000016                                                   
9201807160000010000016000000732400000000000000000000000000000000000000000000016                                                 
