120170911PAGO FACIL               090060246MARITIMO SRL                                                                         
320170911000001MARITIMO SRL                                                                                                     
50000110201709082017091117080723699201       PES0000080000A036952017090809020062                                                
6024600080000172531708072369920100150000484                                                                                     
7PESE                                                                                000000000080000                            
50000210201709082017091117081234172907       PES0000080000A036952017090809140067                                                
6024600080000172531708123417290700150000457                                                                                     
7PESE                                                                                000000000080000                            
50000310201709082017091117080822280042       PES0000080000A135022017090810100037                                                
6024600080000172531708082228004200150000590                                                                                     
7PESE                                                                                000000000080000                            
50000410201709082017091188080129284848       PES0000051000A170962017090811370055                                                
6024600051000172548808012928484800000000084                                                                                     
7PESE                                                                                000000000051000                            
50000510201709082017091100959541439067       PES0000117000A148572017090811580064                                                
6024600117000172560095954143906700000000063                                                                                     
7PESE                                                                                000000000117000                            
50000610201709082017091179120434509281       PES0000145000A157332017090809400057                                                
6024600145000172557912043450928100265000057                                                                                     
7PESE                                                                                000000000145000                            
50000710201709082017091188080132223439       PES0000051000A187512017090814050065                                                
6024600051000172588808013222343900000000036                                                                                     
7PESE                                                                                000000000051000                            
50000810201709082017091117080822325132       PES0000080000A151902017090815120033                                                
6024600080000172531708082232513200150000563                                                                                     
7PESE                                                                                000000000080000                            
50000910201709082017091100949436143503       PES0000117000A180322017090814080012                                                
6024600117000172560094943614350300000000084                                                                                     
7PESE                                                                                000000000117000                            
50001010201709082017091117081420297905       PES0000080000A640272017090810470064                                                
6024600080000172531708142029790500150000479                                                                                     
7PESE                                                                                000000000080000                            
50001110201709082017091117081013451248       PES0000080000A640272017090810470063                                                
6024600080000172531708101345124800150000416                                                                                     
7PESE                                                                                000000000080000                            
50001210201709082017091117080821578563       PES0000080000A640272017090810470062                                                
6024600080000172531708082157856300150000221                                                                                     
7PESE                                                                                000000000080000                            
50001310201709082017091117080724912810       PES0000080000A165372017090817250072                                                
6024600080000172531708072491281000150000521                                                                                     
7PESE                                                                                000000000080000                            
50001410201709082017091117080821434341       PES0000080000A069392017090818370086                                                
6024600080000172511708082143434100150000042                                                                                     
7PESE                                                                                000000000080000                            
50001510201709082017091100949435257888       PES0000117000A067682017090817550046                                                
6024600117000172570094943525788800000000042                                                                                     
7PESE                                                                                000000000117000                            
50001610201709082017091117080917751686       PES0000080000A211122017090818380004                                                
6024600080000172531708091775168600150000579                                                                                     
7PESE                                                                                000000000080000                            
50001710201709082017091196010127894458       PES0000070000L270172017090816390747                                                
6024600070000172589601012789445800000000000                                                                                     
7PESE                                                                                000000000070000                            
50001810201709082017091196010130226738       PES0000070000L270172017090816390748                                                
6024600070000172589601013022673800000000036                                                                                     
7PESE                                                                                000000000070000                            
50001910201709082017091188080136733975       PES0000051000L270292017090816458011                                                
6024600051000172578808013673397500000000057                                                                                     
7PESE                                                                                000000000051000                            
50002010201709092017091188080131950374       PES0000051000A168982017090910320051                                                
6024600051000172598808013195037400000000090                                                                                     
7PESE                                                                                000000000051000                            
50002110201709092017091196010131950374       PES0000070000A168982017090910320052                                                
6024600070000172589601013195037400000000163                                                                                     
7PESE                                                                                000000000070000                            
50002210201709092017091117080917596842       PES0000080000A174662017090910510040                                                
6024600080000172531708091759684200150000684                                                                                     
7PESE                                                                                000000000080000                            
50002310201709092017091196010133203887       PES0000070000A170502017090912420044                                                
6024600070000172589601013320388700000000142                                                                                     
7PESE                                                                                000000000070000                            
50002410201709092017091117080129487334       PES0000080000A083092017090913360052                                                
6024600080000172531708012948733400150000616                                                                                     
7PESE                                                                                000000000080000                            
50002510201709092017091117080726035458       PES0000080000A141202017090911080020                                                
6024600080000172531708072603545800150000342                                                                                     
7PESE                                                                                000000000080000                            
50002610201709092017091117080820976544       PES0000080000A143752017090911380022                                                
6024600080000172531708082097654400150000578                                                                                     
7PESE                                                                                000000000080000                            
50002710201709092017091117080724414969       PES0000080000A143752017090910480012                                                
6024600080000172531708072441496900150000600                                                                                     
7PESE                                                                                000000000080000                            
82017091100000100000270000021800000000000000000000000000000000000000000000027                                                   
9201709110000010000027000002180000000000000000000000000000000000000000000000027                                                 
