120170412PAGO FACIL               090060246MARITIMO SRL                                                                         
320170412000001MARITIMO SRL                                                                                                     
50000110201704112017041224010524530588       PES0000030000A103092017041116510114                                                
6024600030000171082401052453058800050000057                                                                                     
7PESE                                                                                000000000030000                            
50000210201704112017041282142628297214       PES0000037000A087612017041117120012                                                
6024600037000171088214262829721400000000090                                                                                     
7PESE                                                                                000000000037000                            
50000310201704112017041200585835235928       PES0000149500A115752017041108370006                                                
6024600140000170970058583523592800095000657                                                                                     
7PESE                                                                                000000000149500                            
82017041200000100000030000002165000000000000000000000000000000000000000000003                                                   
9201704120000010000003000000216500000000000000000000000000000000000000000000003                                                 
