120170113PAGO FACIL               090060246MARITIMO SRL                                                                         
320170113000001MARITIMO SRL                                                                                                     
50000110201701122017011382130130209851       PES0000029400D001132017011215310328                                                
6024600029400170158213013020985100000000063                                                                                     
7PESE                                                                                000000000029400                            
50000210201701122017011382131231360476       PES0000037800D002502017011212170080                                                
6024600037800170128213123136047600000000042                                                                                     
7PESE                                                                                000000000037800                            
50000310201701122017011382130525215533       PES0000037800D001502017011214510070                                                
6024600037800170178213052521553300000000016                                                                                     
7PESE                                                                                000000000037800                            
50000410201701122017011382130622191166       PES0000037800A621142017011211520085                                                
6024600037800170178213062219116600000000099                                                                                     
7PESE                                                                                000000000037800                            
50000510201701122017011382131326723388       PES0000037800A621142017011211530086                                                
6024600037800170178213132672338800000000063                                                                                     
7PESE                                                                                000000000037800                            
50000610201701122017011382130330442324       PES0000037800A120912017011216530040                                                
6024600037800170188213033044232400000000042                                                                                     
7PESE                                                                                000000000037800                            
50000710201701122017011382130332422827       PES0000037800A129392017011219160079                                                
6024600037800170188213033242282700000000084                                                                                     
7PESE                                                                                000000000037800                            
50000810201701122017011382130426057921       PES0000037800D002512017011215150142                                                
6024600037800170188213042605792100000000037                                                                                     
7PESE                                                                                000000000037800                            
50000910201701122017011382130426346163       PES0000037800A162032017011214240114                                                
6024600037800170188213042634616300000000078                                                                                     
7PESE                                                                                000000000037800                            
50001010201701122017011315011636571146       PES0000050000A168402017011217530043                                                
6024600050000170191501163657114600100000084                                                                                     
7PESE                                                                                000000000050000                            
50001110201701122017011357070626262859       PES0000150000A129392017011212230004                                                
6024600150000170195707062626285900000000090                                                                                     
7PESE                                                                                000000000150000                            
82017011300000100000110000005318000000000000000000000000000000000000000000011                                                   
9201701130000010000011000000531800000000000000000000000000000000000000000000011                                                 
