120171116PAGO FACIL               090060246MARITIMO SRL                                                                         
320171116000001MARITIMO SRL                                                                                                     
50000110201711152017111610071210880593       PES0000045000A199892017111517250011                                                
6024600045000173191007121088059300000000058                                                                                     
7PESE                                                                                000000000045000                            
50000210201711152017111688080138906775       PES0000051000L270292017111510098845                                                
6024600051000173268808013890677500000000084                                                                                     
7PESE                                                                                000000000051000                            
82017111600000100000020000000960000000000000000000000000000000000000000000002                                                   
9201711160000010000002000000096000000000000000000000000000000000000000000000002                                                 
