120180719PAGO FACIL               090060246MARITIMO SRL                                                                         
320180719000001MARITIMO SRL                                                                                                     
50000110201807182018071982201432585626       PES0000053500A286412018071819010004                                                
6024600048200181968220143258562600053000336                                                                                     
7PESE                                                                                000000000053500                            
50000210201807182018071982200913605607       PES0000053500A140792018071812240059                                                
6024600053500182048220091360560700000000063                                                                                     
7PESE                                                                                000000000053500                            
50000310201807182018071982201432230072       PES0000053500A211472018071812360054                                                
6024600053500182068220143223007200000000021                                                                                     
7PESE                                                                                000000000053500                            
82018071900000100000030000001605000000000000000000000000000000000000000000003                                                   
9201807190000010000003000000160500000000000000000000000000000000000000000000003                                                 
