120170915PAGO FACIL               090060246MARITIMO SRL                                                                         
320170915000001MARITIMO SRL                                                                                                     
50000110201709142017091517080628536772       PES0000095000A180422017091410410020                                                
6024600080000172531708062853677200150000779                                                                                     
7PESE                                                                                000000000095000                            
50000210201709142017091517080628568881       PES0000095000A112282017091409220003                                                
6024600080000172531708062856888100150000584                                                                                     
7PESE                                                                                000000000095000                            
50000310201709142017091517081329526959       PES0000095000A180422017091410410021                                                
6024600080000172531708132952695900150000778                                                                                     
7PESE                                                                                000000000095000                            
50000410201709142017091517080724048280       PES0000095000A128052017091418100067                                                
6024600095000172611708072404828000000000000                                                                                     
7PESE                                                                                000000000095000                            
50000510201709142017091500959535257888       PES0000117000A129512017091419190079                                                
6024600117000172640095953525788800000000016                                                                                     
7PESE                                                                                000000000117000                            
50000610201709142017091579120822916744       PES0000145000A171242017091417340028                                                
6024600145000172587912082291674400265000084                                                                                     
7PESE                                                                                000000000145000                            
82017091500000100000060000006420000000000000000000000000000000000000000000006                                                   
9201709150000010000006000000642000000000000000000000000000000000000000000000006                                                 
