120170116PAGO FACIL               090060246MARITIMO SRL                                                                         
320170116000001MARITIMO SRL                                                                                                     
50000110201701132017011682131327237171       PES0000037800A162032017011310300086                                                
6024600037800170188213132723717100000000063                                                                                     
7PESE                                                                                000000000037800                            
50000210201701132017011682130338685137       PES0000037800A170142017011317140119                                                
6024600037800170188213033868513700000000037                                                                                     
7PESE                                                                                000000000037800                            
50000310201701132017011682131329019622       PES0000037800D002502017011318550267                                                
6024600037800170188213132901962200000000021                                                                                     
7PESE                                                                                000000000037800                            
50000410201701132017011682131518261334       PES0000037800D002512017011318330268                                                
6024600037800170158213151826133400000000063                                                                                     
7PESE                                                                                000000000037800                            
50000510201701132017011682130243303124       PES0000029400D002512017011318330269                                                
6024600029400170158213024330312400000000079                                                                                     
7PESE                                                                                000000000029400                            
50000610201701132017011682130230573040       PES0000029400A097872017011313090058                                                
6024600029400170188213023057304000000000036                                                                                     
7PESE                                                                                000000000029400                            
50000710201701142017011600555537013126       PES0000149500A145772017011314510048                                                
6024600149500170150055553701312600085000042                                                                                     
7PESE                                                                                000000000149500                            
50000810201701142017011682130241430494       PES0000029400A171082017011412080009                                                
6024600029400170188213024143049400000000042                                                                                     
7PESE                                                                                000000000029400                            
50000910201701142017011682130622341419       PES0000037800A092352017011411210024                                                
6024600037800170188213062234141900000000079                                                                                     
7PESE                                                                                000000000037800                            
50001010201701142017011682131521760094       PES0000037800D002522017011411040024                                                
6024600037800170148213152176009400000000036                                                                                     
7PESE                                                                                000000000037800                            
50001110201701142017011682130338284464       PES0000037800A170152017011416420010                                                
6024600037800170188213033828446400000000042                                                                                     
7PESE                                                                                000000000037800                            
50001210201701142017011682130524251210       PES0000037800A177442017011411260011                                                
6024600037800170168213052425121000000000042                                                                                     
7PESE                                                                                000000000037800                            
82017011600000100000120000005401000000000000000000000000000000000000000000012                                                   
9201701160000010000012000000540100000000000000000000000000000000000000000000012                                                 
