120180815PAGO FACIL               090060246MARITIMO SRL                                                                         
320180815000001MARITIMO SRL                                                                                                     
50000110201808142018081588100140645160       PES0000060000A640522018081408150009                                                
6024600060000182288810014064516000000000016                                                                                     
7PESE                                                                                000000000060000                            
82018081500000100000010000000600000000000000000000000000000000000000000000001                                                   
9201808150000010000001000000060000000000000000000000000000000000000000000000001                                                 
