120170112PAGO FACIL               090060246MARITIMO SRL                                                                         
320170112000001MARITIMO SRL                                                                                                     
50000110201701112017011282131424384111       PES0000037800A145492017011107220004                                                
6024600037800170128213142438411100000000036                                                                                     
7PESE                                                                                000000000037800                            
50000210201701112017011282131234851498       PES0000037800A167592017011114350048                                                
6024600037800170168213123485149800000000021                                                                                     
7PESE                                                                                000000000037800                            
50000310201701112017011282130910532638       PES0000037800D004582017011111470082                                                
6024600037800170178213091053263800000000016                                                                                     
7PESE                                                                                000000000037800                            
50000410201701112017011282131812516059       PES0000037800D004582017011111470081                                                
6024600037800170178213181251605900000000078                                                                                     
7PESE                                                                                000000000037800                            
50000510201701112017011282130334750506       PES0000037800A139292017011112230041                                                
6024600037800170188213033475050600000000036                                                                                     
7PESE                                                                                000000000037800                            
82017011200000100000050000001890000000000000000000000000000000000000000000005                                                   
9201701120000010000005000000189000000000000000000000000000000000000000000000005                                                 
