120180115PAGO FACIL               090060246MARITIMO SRL                                                                         
320180115000001MARITIMO SRL                                                                                                     
50000110201801122018011583052143742241       PES0000080000A135032018011213220028                                                
6024600080000180128305214374224100000000015                                                                                     
7PESE                                                                                000000000080000                            
50000210201801122018011582180817208096       PES0000042500A211072018011216050013                                                
6024600042500180128218081720809600000000042                                                                                     
7PESE                                                                                000000000042500                            
50000310201801132018011582180140874918       PES0000032000A081382018011312260075                                                
6024600032000180148218014087491800000000000                                                                                     
7PESE                                                                                000000000032000                            
50000410201801132018011582181232792284       PES0000042500A115442018011317090096                                                
6024600042500180178218123279228400000000090                                                                                     
7PESE                                                                                000000000042500                            
50000510201801132018011582180528729336       PES0000042500A049552018011319380011                                                
6024600042500180178218052872933600000000084                                                                                     
7PESE                                                                                000000000042500                            
50000610201801132018011582180721909319       PES0000042500A202592018011319010009                                                
6024600042500180178218072190931900000000042                                                                                     
7PESE                                                                                000000000042500                            
82018011500000100000060000002820000000000000000000000000000000000000000000006                                                   
9201801150000010000006000000282000000000000000000000000000000000000000000000006                                                 
