120171215PAGO FACIL               090060246MARITIMO SRL                                                                         
320171215000001MARITIMO SRL                                                                                                     
50000110201712142017121503052033662847       PES0000020000A231032017121408350002                                                
6024600020000173480305203366284700000000015                                                                                     
7PESE                                                                                000000000020000                            
50000210201712142017121503052036966138       PES0000020000A231032017121408340001                                                
6024600020000173480305203696613800000000021                                                                                     
7PESE                                                                                000000000020000                            
50000310201712142017121503051325476626       PES0000030000A115442017121420230026                                                
6024600030000173480305132547662600000000057                                                                                     
7PESE                                                                                000000000030000                            
50000410201712142017121503051517741996       PES0000030000A211042017121413010091                                                
6024600030000173480305151774199600000000099                                                                                     
7PESE                                                                                000000000030000                            
50000510201712142017121582180226450775       PES0000030000A134882017121418580053                                                
6024600030000173548218022645077500020000063                                                                                     
7PESE                                                                                000000000030000                            
50000610201712142017121582180431156738       PES0000040500A095412017121417260020                                                
6024600040500173488218043115673800020000058                                                                                     
7PESE                                                                                000000000040500                            
50000710201712142017121582180434314052       PES0000040500A211002017121415580097                                                
6024600040500173498218043431405200020000063                                                                                     
7PESE                                                                                000000000040500                            
50000810201712142017121582180432717335       PES0000040500A229162017121411060005                                                
6024600040500173528218043271733500020000037                                                                                     
7PESE                                                                                000000000040500                            
50000910201712142017121582180437010843       PES0000040500A150642017121411180014                                                
6024600040500173528218043701084300020000000                                                                                     
7PESE                                                                                000000000040500                            
50001010201712142017121582181423970782       PES0000040500A095412017121415130102                                                
6024600040500173528218142397078200020000079                                                                                     
7PESE                                                                                000000000040500                            
50001110201712142017121582180625191318       PES0000040500A134882017121418580054                                                
6024600040500173548218062519131800020000021                                                                                     
7PESE                                                                                000000000040500                            
50001210201712142017121582180817389459       PES0000040500A139602017121409290046                                                
6024600040500173548218081738945900020000042                                                                                     
7PESE                                                                                000000000040500                            
50001310201712142017121582181006819669       PES0000040500A139602017121409290047                                                
6024600040500173548218100681966900020000084                                                                                     
7PESE                                                                                000000000040500                            
82017121500000100000130000004540000000000000000000000000000000000000000000013                                                   
9201712150000010000013000000454000000000000000000000000000000000000000000000013                                                 
