120180411PAGO FACIL               090060246MARITIMO SRL                                                                         
320180411000001MARITIMO SRL                                                                                                     
50000110201804102018041112010322987050       PES0000042000A205162018041018130033                                                
6024600042000181051201032298705000000000084                                                                                     
7PESE                                                                                000000000042000                            
82018041100000100000010000000420000000000000000000000000000000000000000000001                                                   
9201804110000010000001000000042000000000000000000000000000000000000000000000001                                                 
