120180910PAGO FACIL               090060246MARITIMO SRL                                                                         
320180910000001MARITIMO SRL                                                                                                     
50000110201809082018091096060139847330       PES0000138000A217532018090809490043                                                
6024600138000182509606013984733000000000700                                                                                     
7PESE                                                                                000000000138000                            
82018091000000100000010000001380000000000000000000000000000000000000000000001                                                   
9201809100000010000001000000138000000000000000000000000000000000000000000000001                                                 
