120180515PAGO FACIL               090060246MARITIMO SRL                                                                         
320180515000001MARITIMO SRL                                                                                                     
50000110201805142018051588100139847330       PES0000060000L270372018051117472211                                                
6024600060000181378810013984733000000000090                                                                                     
7PESE                                                                                000000000060000                            
50000210201805142018051588100135591523       PES0000060000L270292018051119265423                                                
6024600060000181388810013559152300000000084                                                                                     
7PESE                                                                                000000000060000                            
50000310201805142018051582190230799562       PES0000032200A159932018051412030004                                                
6024600032200181408219023079956200021000058                                                                                     
7PESE                                                                                000000000032200                            
50000410201805142018051582191716728943       PES0000048200A228522018051410550045                                                
6024600048200181418219171672894300043000036                                                                                     
7PESE                                                                                000000000048200                            
82018051500000100000040000002004000000000000000000000000000000000000000000004                                                   
9201805150000010000004000000200400000000000000000000000000000000000000000000004                                                 
