120180913PAGO FACIL               090060246MARITIMO SRL                                                                         
320180913000001MARITIMO SRL                                                                                                     
50000110201809122018091399510140138288       PES0000060000A090632018091212030020                                                
6024600060000182629951014013828800000000099                                                                                     
7PESE                                                                                000000000060000                            
50000210201809122018091388110118268323       PES0000100000M620902018091211520003                                                
6024600100000182618811011826832300000000058                                                                                     
7PESE                                                                                000000000100000                            
50000310201809122018091388110121466123       PES0000100000M620902018091211520004                                                
6024600100000182618811012146612300000000042                                                                                     
7PESE                                                                                000000000100000                            
82018091300000100000030000002600000000000000000000000000000000000000000000003                                                   
9201809130000010000003000000260000000000000000000000000000000000000000000000003                                                 
