120180315PAGO FACIL               090060246MARITIMO SRL                                                                         
320180315000001MARITIMO SRL                                                                                                     
50000110201803142018031588080239847330       PES0000030000A217522018031417490043                                                
6024600030000180798808023984733000000000042                                                                                     
7PESE                                                                                000000000030000                            
82018031500000100000010000000300000000000000000000000000000000000000000000001                                                   
9201803150000010000001000000030000000000000000000000000000000000000000000000001                                                 
