120170811PAGO FACIL               090060246MARITIMO SRL                                                                         
320170811000001MARITIMO SRL                                                                                                     
50000110201708102017081182160222265528       PES0000032500A166862017081009570008                                                
6024600032500172258216022226552800000000000                                                                                     
7PESE                                                                                000000000032500                            
50000210201708102017081182160123223306       PES0000032500A133842017081015360023                                                
6024600032500172268216012322330600000000021                                                                                     
7PESE                                                                                000000000032500                            
50000310201708102017081182160229700582       PES0000032500A160132017081015010147                                                
6024600032500172288216022970058200000000042                                                                                     
7PESE                                                                                000000000032500                            
50000410201708102017081182160238697151       PES0000032500A620312017081010510118                                                
6024600032500172288216023869715100000000037                                                                                     
7PESE                                                                                000000000032500                            
50000510201708102017081182160428016566       PES0000051000A095412017081013310061                                                
6024600051000172258216042801656600000000063                                                                                     
7PESE                                                                                000000000051000                            
50000610201708102017081182161520546127       PES0000051000A070282017081011470087                                                
6024600051000172258216152054612700000000079                                                                                     
7PESE                                                                                000000000051000                            
50000710201708102017081182161617772956       PES0000051000A070282017081011440086                                                
6024600051000172258216161777295600000000021                                                                                     
7PESE                                                                                000000000051000                            
50000810201708102017081182160334750574       PES0000051000D004572017081010410015                                                
6024600051000172268216033475057400000000090                                                                                     
7PESE                                                                                000000000051000                            
50000910201708102017081182160716265951       PES0000051000A087612017081009450025                                                
6024600051000172268216071626595100000000016                                                                                     
7PESE                                                                                000000000051000                            
50001010201708102017081182160621645860       PES0000051000A139082017081020160021                                                
6024600051000172278216062164586000000000000                                                                                     
7PESE                                                                                000000000051000                            
50001110201708102017081182160331529692       PES0000051000A177672017081011340028                                                
6024600051000172288216033152969200000000084                                                                                     
7PESE                                                                                000000000051000                            
50001210201708102017081182160524104141       PES0000051000A160132017081015010146                                                
6024600051000172288216052410414100000000021                                                                                     
7PESE                                                                                000000000051000                            
50001310201708102017081188080135000842       PES0000051000A148942017081011070069                                                
6024600051000172288808013500084200000000090                                                                                     
7PESE                                                                                000000000051000                            
50001410201708102017081182162137010843       PES0000066000A157942017081018100008                                                
6024600066000172268216213701084300000000036                                                                                     
7PESE                                                                                000000000066000                            
82017081100000100000140000006550000000000000000000000000000000000000000000014                                                   
9201708110000010000014000000655000000000000000000000000000000000000000000000014                                                 
