120170516PAGO FACIL               090060246MARITIMO SRL                                                                         
320170516000001MARITIMO SRL                                                                                                     
50000110201705152017051624010331885948       PES0000035000A178242017051512070046                                                
6024600035000171382401033188594800000000078                                                                                     
7PESE                                                                                000000000035000                            
50000210201705152017051688080138412791       PES0000045000A134192017051518220005                                                
6024600045000171428808013841279100060000063                                                                                     
7PESE                                                                                000000000045000                            
82017051600000100000020000000800000000000000000000000000000000000000000000002                                                   
9201705160000010000002000000080000000000000000000000000000000000000000000000002                                                 
