120180817PAGO FACIL               090060246MARITIMO SRL                                                                         
320180817000001MARITIMO SRL                                                                                                     
50000110201808162018081788100132577324       PES0000060000A189052018081609480028                                                
6024600060000182328810013257732400000000090                                                                                     
7PESE                                                                                000000000060000                            
50000210201808162018081788100136425399       PES0000060000A189052018081609480030                                                
6024600060000182328810013642539900000000090                                                                                     
7PESE                                                                                000000000060000                            
50000310201808162018081788100140152694       PES0000060000A189052018081609480029                                                
6024600060000182328810014015269400000000090                                                                                     
7PESE                                                                                000000000060000                            
50000410201808162018081788100127149384       PES0000060000A189052018081609480027                                                
6024600060000182348810012714938400000000000                                                                                     
7PESE                                                                                000000000060000                            
50000510201808162018081788100135225613       PES0000060000A164082018081616580033                                                
6024600060000182348810013522561300000000079                                                                                     
7PESE                                                                                000000000060000                            
50000610201808162018081788100140000569       PES0000060000L270372018081619448300                                                
6024600060000182348810014000056900000000015                                                                                     
7PESE                                                                                000000000060000                            
82018081700000100000060000003600000000000000000000000000000000000000000000006                                                   
9201808170000010000006000000360000000000000000000000000000000000000000000000006                                                 
