120180313PAGO FACIL               090060246MARITIMO SRL                                                                         
320180313000001MARITIMO SRL                                                                                                     
50000110201803122018031310093021955660       PES0000065000A227332018031210390014                                                
6024600065000180751009302195566000000000084                                                                                     
7PESE                                                                                000000000065000                            
82018031300000100000010000000650000000000000000000000000000000000000000000001                                                   
9201803130000010000001000000065000000000000000000000000000000000000000000000001                                                 
