120180517PAGO FACIL               090060246MARITIMO SRL                                                                         
320180517000001MARITIMO SRL                                                                                                     
50000110201805162018051788100141478044       PES0000060000L270372018051013192064                                                
6024600060000181378810014147804400000000000                                                                                     
7PESE                                                                                000000000060000                            
50000210201805162018051776051432866943       PES0000020000A115442018051615080085                                                
6024600020000181437605143286694300050000015                                                                                     
7PESE                                                                                000000000020000                            
50000310201805162018051782190121503610       PES0000032200A166862018051612430042                                                
6024600032200181408219012150361000021000090                                                                                     
7PESE                                                                                000000000032200                            
50000410201805162018051782190245539382       PES0000032200A166862018051612420040                                                
6024600032200181408219024553938200021000079                                                                                     
7PESE                                                                                000000000032200                            
50000510201805162018051782190231476621       PES0000032200A187832018051617570106                                                
6024600032200181428219023147662100021000057                                                                                     
7PESE                                                                                000000000032200                            
50000610201805162018051782191621808090       PES0000048200A166862018051612420041                                                
6024600048200181408219162180809000043000036                                                                                     
7PESE                                                                                000000000048200                            
50000710201805162018051782192441853640       PES0000048200A227212018051613440039                                                
6024600048200181408219244185364000043000015                                                                                     
7PESE                                                                                000000000048200                            
82018051700000100000070000002730000000000000000000000000000000000000000000007                                                   
9201805170000010000007000000273000000000000000000000000000000000000000000000007                                                 
