120170710PAGO FACIL               090060246MARITIMO SRL                                                                         
320170710000001MARITIMO SRL                                                                                                     
50000110201707072017071000909041037280       PES0000117000A172292017070719080039                                                
6024600117000171950090904103728000000000090                                                                                     
7PESE                                                                                000000000117000                            
50000210201707072017071000767641037280       PES0000175000A172292017070719080040                                                
6024600175000171880076764103728000120000742                                                                                     
7PESE                                                                                000000000175000                            
82017071000000100000020000002920000000000000000000000000000000000000000000002                                                   
9201707100000010000002000000292000000000000000000000000000000000000000000000002                                                 
