120180111PAGO FACIL               090060246MARITIMO SRL                                                                         
320180111000001MARITIMO SRL                                                                                                     
50000110201801102018011182181236364105       PES0000042500A098032018011019550014                                                
6024600042500180128218123636410500000000042                                                                                     
7PESE                                                                                000000000042500                            
50000210201801102018011182180435888531       PES0000042500A197112018011011040134                                                
6024600042500180158218043588853100000000063                                                                                     
7PESE                                                                                000000000042500                            
50000310201801102018011182180439966367       PES0000042500A159952018011016020055                                                
6024600042500180168218043996636700000000084                                                                                     
7PESE                                                                                000000000042500                            
82018011100000100000030000001275000000000000000000000000000000000000000000003                                                   
9201801110000010000003000000127500000000000000000000000000000000000000000000003                                                 
