120180319PAGO FACIL               090060246MARITIMO SRL                                                                         
320180319000001MARITIMO SRL                                                                                                     
50000110201803172018031916014525625211       PES0000035000A125422018031712000022                                                
6024600035000180821601452562521100000000042                                                                                     
7PESE                                                                                000000000035000                            
82018031900000100000010000000350000000000000000000000000000000000000000000001                                                   
9201803190000010000001000000035000000000000000000000000000000000000000000000001                                                 
