120180112PAGO FACIL               090060246MARITIMO SRL                                                                         
320180112000001MARITIMO SRL                                                                                                     
50000110201801112018011282181328279765       PES0000042500A139292018011116430016                                                
6024600042500180118218132827976500000000021                                                                                     
7PESE                                                                                000000000042500                            
50000210201801112018011282181328728782       PES0000042500A139292018011116420015                                                
6024600042500180118218132872878200000000090                                                                                     
7PESE                                                                                000000000042500                            
50000310201801112018011282180432383754       PES0000042500A133472018011114250039                                                
6024600042500180168218043238375400000000016                                                                                     
7PESE                                                                                000000000042500                            
50000410201801112018011283051495141753       PES0000080000A052182018011118340066                                                
6024600080000180128305149514175300000000000                                                                                     
7PESE                                                                                000000000080000                            
82018011200000100000040000002075000000000000000000000000000000000000000000004                                                   
9201801120000010000004000000207500000000000000000000000000000000000000000000004                                                 
