120180813PAGO FACIL               090060246MARITIMO SRL                                                                         
320180813000001MARITIMO SRL                                                                                                     
50000110201808112018081301191140207671       PES0000150000A263602018081110350028                                                
6024600150000182290119114020767100000000057                                                                                     
7PESE                                                                                000000000150000                            
82018081300000100000010000001500000000000000000000000000000000000000000000001                                                   
9201808130000010000001000000150000000000000000000000000000000000000000000000001                                                 
