120170717PAGO FACIL               090060246MARITIMO SRL                                                                         
320170717000001MARITIMO SRL                                                                                                     
50000110201707142017071782161423805718       PES0000048000A171952017071311330022                                                
6024600048000172018216142380571800030000084                                                                                     
7PESE                                                                                000000000048000                            
50000210201707142017071782160716370448       PES0000048000A171952017071311300019                                                
6024600048000172018216071637044800030000079                                                                                     
7PESE                                                                                000000000048000                            
50000310201707142017071782161616370480       PES0000048000A171952017071311310020                                                
6024600048000172018216161637048000030000021                                                                                     
7PESE                                                                                000000000048000                            
50000410201707142017071782160718202234       PES0000048000A171952017071311320021                                                
6024600048000172018216071820223400030000042                                                                                     
7PESE                                                                                000000000048000                            
50000510201707142017071788080133368898       PES0000051000A177922017071411490080                                                
6024600051000171998808013336889800000000078                                                                                     
7PESE                                                                                000000000051000                            
50000610201707142017071700929239825543       PES0000117000A160552017071410350005                                                
6024600117000171950092923982554300000000037                                                                                     
7PESE                                                                                000000000117000                            
50000710201707142017071788080132379261       PES0000051000A044492017071417410068                                                
6024600051000172008808013237926100000000000                                                                                     
7PESE                                                                                000000000051000                            
50000810201707142017071782160717067634       PES0000048000A087612017071418480087                                                
6024600048000172018216071706763400030000078                                                                                     
7PESE                                                                                000000000048000                            
50000910201707142017071776040432716557       PES0000020000A152452017071417380036                                                
6024600020000172017604043271655700000000000                                                                                     
7PESE                                                                                000000000020000                            
50001010201707142017071782160716975433       PES0000048000A177672017071411300018                                                
6024600048000172028216071697543300030000042                                                                                     
7PESE                                                                                000000000048000                            
50001110201707142017071782160427019665       PES0000048000A177672017071417370040                                                
6024600048000172028216042701966500030000099                                                                                     
7PESE                                                                                000000000048000                            
50001210201707152017071782160525062807       PES0000048000A171942017071409140004                                                
6024600048000172018216052506280700030000015                                                                                     
7PESE                                                                                000000000048000                            
50001310201707152017071782161233367769       PES0000048000A087612017071509280036                                                
6024600048000172008216123336776900030000063                                                                                     
7PESE                                                                                000000000048000                            
50001410201707152017071788080124677101       PES0000051000D002592017071513270101                                                
6024600051000172028808012467710100000000084                                                                                     
7PESE                                                                                000000000051000                            
50001510201707152017071788080136006426       PES0000051000D002592017071513280102                                                
6024600051000172038808013600642600000000042                                                                                     
7PESE                                                                                000000000051000                            
50001610201707152017071782160228765275       PES0000029000A154252017071510430034                                                
6024600029000172028216022876527500035000063                                                                                     
7PESE                                                                                000000000029000                            
50001710201707152017071782160225012832       PES0000029000A154252017071510420033                                                
6024600029000172038216022501283200035000078                                                                                     
7PESE                                                                                000000000029000                            
82017071700000100000170000008310000000000000000000000000000000000000000000017                                                   
9201707170000010000017000000831000000000000000000000000000000000000000000000017                                                 
