120180718PAGO FACIL               090060246MARITIMO SRL                                                                         
320180718000001MARITIMO SRL                                                                                                     
50000110201807172018071882200134058996       PES0000037500A227222018071709520028                                                
6024600037500182048220013405899600000000079                                                                                     
7PESE                                                                                000000000037500                            
50000210201807172018071882200527130251       PES0000053500A286502018071712380034                                                
6024600048200181968220052713025100053000442                                                                                     
7PESE                                                                                000000000053500                            
50000310201807172018071882200624415045       PES0000053500A141672018071719310050                                                
6024600053500182048220062441504500000000000                                                                                     
7PESE                                                                                000000000053500                            
50000410201807172018071801181129019872       PES0000150000D002062018071719100170                                                
6024600150000181990118112901987200000000042                                                                                     
7PESP                                                                                000000000150000                            
50000510201807172018071801191142892093       PES0000150000D002952018071720090227                                                
6024600150000181990119114289209300000000015                                                                                     
7PESE                                                                                000000000150000                            
82018071800000100000050000004445000000000000000000000000000000000000000000005                                                   
9201807180000010000005000000444500000000000000000000000000000000000000000000005                                                 
