120170712PAGO FACIL               090060246MARITIMO SRL                                                                         
320170712000001MARITIMO SRL                                                                                                     
50000110201707112017071276040526916210       PES0000020000A070532017071111460122                                                
6024600020000171987604052691621000000000037                                                                                     
7PESE                                                                                000000000020000                            
82017071200000100000010000000200000000000000000000000000000000000000000000001                                                   
9201707120000010000001000000020000000000000000000000000000000000000000000000001                                                 
