120170719PAGO FACIL               090060246MARITIMO SRL                                                                         
320170719000001MARITIMO SRL                                                                                                     
50000110201707182017071982160525235916       PES0000048000A039032017071807450001                                                
6024600048000172018216052523591600030000000                                                                                     
7PESE                                                                                000000000048000                            
50000210201707182017071982160430958560       PES0000048000A161982017071811150040                                                
6024600048000172048216043095856000030000036                                                                                     
7PESE                                                                                000000000048000                            
50000310201707182017071982161425851957       PES0000048000A161982017071811150041                                                
6024600048000172048216142585195700030000016                                                                                     
7PESE                                                                                000000000048000                            
50000410201707182017071982161424104220       PES0000048000A166262017071811570030                                                
6024600048000172058216142410422000030000058                                                                                     
7PESE                                                                                000000000048000                            
50000510201707182017071982161616889637       PES0000048000A178242017071811230067                                                
6024600048000172058216161688963700030000015                                                                                     
7PESE                                                                                000000000048000                            
50000610201707182017071982161714914698       PES0000048000A070282017071808540012                                                
6024600048000172068216171491469800030000078                                                                                     
7PESE                                                                                000000000048000                            
50000710201707182017071900949439404291       PES0000117000A115002017071818170052                                                
6024600117000171990094943940429100000000000                                                                                     
7PESE                                                                                000000000117000                            
50000810201707182017071900939339934822       PES0000117000A171352017071812110034                                                
6024600117000172060093933993482200000000042                                                                                     
7PESE                                                                                000000000117000                            
82017071900000100000080000005220000000000000000000000000000000000000000000008                                                   
9201707190000010000008000000522000000000000000000000000000000000000000000000008                                                 
