120180619PAGO FACIL               090060246MARITIMO SRL                                                                         
320180619000001MARITIMO SRL                                                                                                     
50000110201806182018061982201238697285       PES0000041800A144542018061812480018                                                
6024600041800181738220123869728500064000379                                                                                     
7PESE                                                                                000000000041800                            
50000210201806182018061982201433584530       PES0000041800A202592018061820370024                                                
6024600041800181738220143358453000064000399                                                                                     
7PESE                                                                                000000000041800                            
50000310201806182018061982201525041334       PES0000041800A070282018061813100056                                                
6024600041800181738220152504133400064000300                                                                                     
7PESE                                                                                000000000041800                            
50000410201806182018061982201816728943       PES0000041800A228522018061814340020                                                
6024600041800181738220181672894300064000342                                                                                     
7PESE                                                                                000000000041800                            
50000510201806182018061988100137759198       PES0000060000A216102018061811190020                                                
6024600060000181718810013775919800000000058                                                                                     
7PESE                                                                                000000000060000                            
50000610201806182018061988100129261317       PES0000060000A137772018061817420080                                                
6024600060000181748810012926131700000000063                                                                                     
7PESE                                                                                000000000060000                            
50000710201806182018061988100140891505       PES0000060000A071012018061817410073                                                
6024600060000181768810014089150500000000000                                                                                     
7PESE                                                                                000000000060000                            
50000810201806182018061982202632814853       PES0000063200A092352018061814470075                                                
6024600063200181738220263281485300053000336                                                                                     
7PESE                                                                                000000000063200                            
50000910201806182018061902642532599996       PES0000090600A057532018061819100012                                                
6024600090600181750264253259999600159000058                                                                                     
7PESE                                                                                000000000090600                            
50001010201806182018061901171141803306       PES0000150000A276052018061809520017                                                
6024600150000181730117114180330600000000021                                                                                     
7PESE                                                                                000000000150000                            
82018061900000100000100000006510000000000000000000000000000000000000000000010                                                   
9201806190000010000010000000651000000000000000000000000000000000000000000000010                                                 
