120170419PAGO FACIL               090060246MARITIMO SRL                                                                         
320170419000001MARITIMO SRL                                                                                                     
50000110201704182017041924010429031957       PES0000030000M620412017041713090125                                                
6024600030000171092401042903195700050000063                                                                                     
7PESE                                                                                000000000030000                            
50000210201704182017041924010234762811       PES0000030000M620412017041713080124                                                
6024600030000171142401023476281100050000090                                                                                     
7PESE                                                                                000000000030000                            
50000310201704182017041982142340656250       PES0000037000A160102017041817350087                                                
6024600037000171118214234065625000000000037                                                                                     
7PESE                                                                                000000000037000                            
50000410201704182017041982142532482376       PES0000037000A163992017041812290075                                                
6024600037000171118214253248237600000000078                                                                                     
7PESE                                                                                000000000037000                            
50000510201704182017041982142725544116       PES0000037000A166862017041809110007                                                
6024600037000171118214272554411600000000021                                                                                     
7PESE                                                                                000000000037000                            
82017041900000100000050000001710000000000000000000000000000000000000000000005                                                   
9201704190000010000005000000171000000000000000000000000000000000000000000000005                                                 
