120171212PAGO FACIL               090060246MARITIMO SRL                                                                         
320171212000001MARITIMO SRL                                                                                                     
50000110201712112017121203052032160936       PES0000020000A157502017121114270064                                                
6024600020000173480305203216093600000000021                                                                                     
7PESE                                                                                000000000020000                            
50000210201712112017121203051325958086       PES0000030000A174682017121114440101                                                
6024600030000173460305132595808600000000079                                                                                     
7PESE                                                                                000000000030000                            
50000310201712112017121203050239282660       PES0000030000D004582017121116580106                                                
6024600030000173480305023928266000000000099                                                                                     
7PESE                                                                                000000000030000                            
50000410201712112017121203051323260968       PES0000030000A144542017121110040024                                                
6024600030000173480305132326096800000000042                                                                                     
7PESE                                                                                000000000030000                            
50000510201712112017121203051323777783       PES0000030000A087612017121112570044                                                
6024600030000173480305132377778300000000000                                                                                     
7PESE                                                                                000000000030000                            
50000610201712112017121282181423777783       PES0000040500A087612017121112570045                                                
6024600040500173508218142377778300020000021                                                                                     
7PESE                                                                                000000000040500                            
50000710201712112017121282181236320968       PES0000040500A157052017121111250010                                                
6024600040500173528218123632096800020000099                                                                                     
7PESE                                                                                000000000040500                            
82017121200000100000070000002210000000000000000000000000000000000000000000007                                                   
9201712120000010000007000000221000000000000000000000000000000000000000000000007                                                 
