120170615PAGO FACIL               090060246MARITIMO SRL                                                                         
320170615000001MARITIMO SRL                                                                                                     
50000110201706142017061579110227855362       PES0000096500A144802017061416340012                                                
6024600096500171677911022785536200110000421                                                                                     
7PESE                                                                                000000000096500                            
50000210201706142017061500939339623811       PES0000117000A129522017061417100025                                                
6024600117000171690093933962381100000000021                                                                                     
7PESE                                                                                000000000117000                            
82017061500000100000020000002135000000000000000000000000000000000000000000002                                                   
9201706150000010000002000000213500000000000000000000000000000000000000000000002                                                 
