120170512PAGO FACIL               090060246MARITIMO SRL                                                                         
320170512000001MARITIMO SRL                                                                                                     
50000110201705112017051288070231076100       PES0000085000A187852017051112000080                                                
6024600085000171358807023107610000000000157                                                                                     
7PESE                                                                                000000000085000                            
82017051200000100000010000000850000000000000000000000000000000000000000000001                                                   
9201705120000010000001000000085000000000000000000000000000000000000000000000001                                                 
