120180118PAGO FACIL               090060246MARITIMO SRL                                                                         
320180118000001MARITIMO SRL                                                                                                     
50000110201801172018011882180122337498       PES0000032000A231032018011713460039                                                
6024600032000180178218012233749800000000084                                                                                     
7PESE                                                                                000000000032000                            
50000210201801172018011882180130229131       PES0000032000A123902018011709160012                                                
6024600032000180178218013022913100000000058                                                                                     
7PESE                                                                                000000000032000                            
50000310201801172018011882180343740633       PES0000042500A058662018011719130066                                                
6024600042500180178218034374063300000000078                                                                                     
7PESE                                                                                000000000042500                            
50000410201801172018011882180431734714       PES0000042500A120912018011715070081                                                
6024600042500180178218043173471400000000021                                                                                     
7PESE                                                                                000000000042500                            
50000510201801172018011882180432944789       PES0000042500A139292018011716130093                                                
6024600042500180178218043294478900000000058                                                                                     
7PESE                                                                                000000000042500                            
50000610201801172018011882180438831008       PES0000042500A170142018011713250014                                                
6024600042500180178218043883100800000000021                                                                                     
7PESE                                                                                000000000042500                            
50000710201801172018011882180526707384       PES0000042500A103092018011717240019                                                
6024600042500180178218052670738400000000090                                                                                     
7PESE                                                                                000000000042500                            
50000810201801172018011882180526728770       PES0000042500A058662018011710190032                                                
6024600042500180178218052672877000000000042                                                                                     
7PESE                                                                                000000000042500                            
50000910201801172018011882180526825934       PES0000042500A143682018011710450033                                                
6024600042500180178218052682593400000000084                                                                                     
7PESE                                                                                000000000042500                            
50001010201801172018011882180527111246       PES0000042500A134992018011709120007                                                
6024600042500180178218052711124600000000015                                                                                     
7PESE                                                                                000000000042500                            
50001110201801172018011882180527417749       PES0000042500A228512018011716490119                                                
6024600042500180178218052741774900000000063                                                                                     
7PESE                                                                                000000000042500                            
50001210201801172018011882180527803313       PES0000042500A174682018011714190016                                                
6024600042500180178218052780331300000000084                                                                                     
7PESE                                                                                000000000042500                            
50001310201801172018011882180528065817       PES0000042500A131622018011713320052                                                
6024600042500180178218052806581700000000058                                                                                     
7PESE                                                                                000000000042500                            
50001410201801172018011882180530958560       PES0000042500A145492018011711030024                                                
6024600042500180178218053095856000000000015                                                                                     
7PESE                                                                                000000000042500                            
50001510201801172018011882180624373462       PES0000042500A052182018011711130036                                                
6024600042500180178218062437346200000000078                                                                                     
7PESE                                                                                000000000042500                            
50001610201801172018011882180624734941       PES0000042500D002512018011717070144                                                
6024600042500180178218062473494100000000037                                                                                     
7PESE                                                                                000000000042500                            
50001710201801172018011882180625107600       PES0000042500A179062018011714250001                                                
6024600042500180178218062510760000000000000                                                                                     
7PESE                                                                                000000000042500                            
50001810201801172018011882180625716996       PES0000042500A115442018011718560072                                                
6024600042500180178218062571699600000000000                                                                                     
7PESE                                                                                000000000042500                            
50001910201801172018011882180720350306       PES0000042500A227212018011712530056                                                
6024600042500180178218072035030600000000021                                                                                     
7PESE                                                                                000000000042500                            
50002010201801172018011882180720369715       PES0000042500A052182018011717560088                                                
6024600042500180178218072036971500000000037                                                                                     
7PESE                                                                                000000000042500                            
50002110201801172018011882180720567971       PES0000042500A227212018011712530055                                                
6024600042500180178218072056797100000000079                                                                                     
7PESE                                                                                000000000042500                            
50002210201801172018011882180721174022       PES0000042500A095412018011717270005                                                
6024600042500180178218072117402200000000021                                                                                     
7PESE                                                                                000000000042500                            
50002310201801172018011882180721504094       PES0000042500A254882018011717200059                                                
6024600042500180178218072150409400000000063                                                                                     
7PESE                                                                                000000000042500                            
50002410201801172018011882180817018423       PES0000042500A227212018011712530057                                                
6024600042500180178218081701842300000000063                                                                                     
7PESE                                                                                000000000042500                            
50002510201801172018011882180817214831       PES0000042500A131622018011708370009                                                
6024600042500180178218081721483100000000000                                                                                     
7PESE                                                                                000000000042500                            
50002610201801172018011882180818582859       PES0000042500A150642018011710590093                                                
6024600042500180178218081858285900000000021                                                                                     
7PESE                                                                                000000000042500                            
50002710201801172018011882181230909038       PES0000042500A120912018011710290045                                                
6024600042500180178218123090903800000000099                                                                                     
7PESE                                                                                000000000042500                            
50002810201801172018011882181231186936       PES0000042500A120912018011710290046                                                
6024600042500180178218123118693600000000063                                                                                     
7PESE                                                                                000000000042500                            
50002910201801172018011882181328016337       PES0000042500A227232018011712100007                                                
6024600042500180178218132801633700000000037                                                                                     
7PESE                                                                                000000000042500                            
50003010201801172018011882181425106376       PES0000042500D007202018011720270194                                                
6024600042500180178218142510637600000000057                                                                                     
7PESE                                                                                000000000042500                            
50003110201801172018011882181520215773       PES0000042500A154812018011719390054                                                
6024600042500180178218152021577300000000063                                                                                     
7PESE                                                                                000000000042500                            
50003210201801172018011882181524598061       PES0000042500A115442018011712440064                                                
6024600042500180178218152459806100000000015                                                                                     
7PESE                                                                                000000000042500                            
50003310201801172018011882181617801178       PES0000042500A157062018011717310081                                                
6024600042500180178218161780117800000000042                                                                                     
7PESE                                                                                000000000042500                            
50003410201801172018011810080333686984       PES0000050000A148892018011717110023                                                
6024600050000180191008033368698400000000037                                                                                     
7PESE                                                                                000000000050000                            
50003510201801172018011810082343768239       PES0000050000A162932018011713100089                                                
6024600050000180191008234376823900000000078                                                                                     
7PESE                                                                                000000000050000                            
50003610201801172018011810084545269460       PES0000060000M640092018011712340018                                                
6024600060000180191008454526946000000000042                                                                                     
7PESE                                                                                000000000060000                            
82018011800000100000360000015415000000000000000000000000000000000000000000036                                                   
9201801180000010000036000001541500000000000000000000000000000000000000000000036                                                 
