120170117PAGO FACIL               090060246MARITIMO SRL                                                                         
320170117000001MARITIMO SRL                                                                                                     
50000110201701162017011782130124393444       PES0000029400A115442017011619160056                                                
6024600029400170178213012439344400000000000                                                                                     
7PESE                                                                                000000000029400                            
50000210201701162017011782130120265204       PES0000029400A177442017011617580020                                                
6024600029400170188213012026520400000000000                                                                                     
7PESE                                                                                000000000029400                            
50000310201701162017011782130138145508       PES0000029400A157942017011611100080                                                
6024600029400170188213013814550800000000063                                                                                     
7PESE                                                                                000000000029400                            
50000410201701162017011782130138395393       PES0000029400D001502017011616110071                                                
6024600029400170188213013839539300000000042                                                                                     
7PESE                                                                                000000000029400                            
50000510201701162017011782130141646669       PES0000029400D001502017011616120072                                                
6024600029400170188213014164666900000000058                                                                                     
7PESE                                                                                000000000029400                            
50000610201701162017011782130144858335       PES0000029400A177442017011617580019                                                
6024600029400170188213014485833500000000037                                                                                     
7PESE                                                                                000000000029400                            
50000710201701162017011782130226927130       PES0000029400A164882017011611010091                                                
6024600029400170188213022692713000000000078                                                                                     
7PESE                                                                                000000000029400                            
50000810201701162017011782130227741183       PES0000029400A151882017011618570075                                                
6024600029400170188213022774118300000000079                                                                                     
7PESE                                                                                000000000029400                            
50000910201701162017011782130229019891       PES0000029400A620612017011610500030                                                
6024600029400170188213022901989100000000042                                                                                     
7PESE                                                                                000000000029400                            
50001010201701162017011782130334780534       PES0000037800A131622017011610040062                                                
6024600037800170188213033478053400000000000                                                                                     
7PESE                                                                                000000000037800                            
50001110201701162017011782130338371292       PES0000037800A137312017011619390074                                                
6024600037800170188213033837129200000000037                                                                                     
7PESE                                                                                000000000037800                            
50001210201701162017011782130425771185       PES0000037800A140792017011609430032                                                
6024600037800170188213042577118500000000063                                                                                     
7PESE                                                                                000000000037800                            
50001310201701162017011782130427145163       PES0000037800A164882017011611010092                                                
6024600037800170188213042714516300000000057                                                                                     
7PESE                                                                                000000000037800                            
50001410201701162017011782130523336790       PES0000037800A170762017011609050016                                                
6024600037800170188213052333679000000000079                                                                                     
7PESE                                                                                000000000037800                            
50001510201701162017011782130620330127       PES0000037800A162812017011615150097                                                
6024600037800170188213062033012700000000058                                                                                     
7PESE                                                                                000000000037800                            
50001610201701162017011782130814591104       PES0000037800A137312017011615360067                                                
6024600037800170188213081459110400000000063                                                                                     
7PESE                                                                                000000000037800                            
50001710201701162017011782131202993727       PES0000037800A144132017011614120067                                                
6024600037800170188213120299372700000000000                                                                                     
7PESE                                                                                000000000037800                            
50001810201701162017011782131231559906       PES0000037800A161982017011613480023                                                
6024600037800170188213123155990600000000057                                                                                     
7PESE                                                                                000000000037800                            
50001910201701162017011782131328453691       PES0000037800A144132017011614120066                                                
6024600037800170188213132845369100000000000                                                                                     
7PESE                                                                                000000000037800                            
50002010201701162017011782131520039183       PES0000037800A140792017011609420031                                                
6024600037800170188213152003918300000000000                                                                                     
7PESE                                                                                000000000037800                            
50002110201701162017011782131617797199       PES0000037800A052182017011612340115                                                
6024600037800170188213161779719900000000063                                                                                     
7PESE                                                                                000000000037800                            
82017011700000100000210000007182000000000000000000000000000000000000000000021                                                   
9201701170000010000021000000718200000000000000000000000000000000000000000000021                                                 
