120170110PAGO FACIL               090060246MARITIMO SRL                                                                         
320170110000001MARITIMO SRL                                                                                                     
50000110201701092017011082130425873755       PES0000037800A110152017010911000116                                                
6024600037800170148213042587375500000000090                                                                                     
7PESE                                                                                000000000037800                            
50000210201701092017011082131423385689       PES0000037800A162662017010914180068                                                
6024600037800170158213142338568900000000084                                                                                     
7PESE                                                                                000000000037800                            
50000310201701092017011082130620035752       PES0000037800A123902017010917120068                                                
6024600037800170168213062003575200000000084                                                                                     
7PESE                                                                                000000000037800                            
50000410201701092017011082131518485726       PES0000037800A087612017010920200101                                                
6024600037800170168213151848572600000000042                                                                                     
7PESE                                                                                000000000037800                            
82017011000000100000040000001512000000000000000000000000000000000000000000004                                                   
9201701100000010000004000000151200000000000000000000000000000000000000000000004                                                 
