120171017PAGO FACIL               090060246MARITIMO SRL                                                                         
320171017000001MARITIMO SRL                                                                                                     
50000110201710132017101782170229700582       PES0000032500A160132017101309060027                                                
6024600032500172938217022970058200000000000                                                                                     
7PESE                                                                                000000000032500                            
50000210201710132017101782170335168272       PES0000051000A211102017101312390045                                                
6024600051000172908217033516827200000000099                                                                                     
7PESE                                                                                000000000051000                            
50000310201710132017101782170524505857       PES0000051000A149522017101315060048                                                
6024600051000172938217052450585700000000063                                                                                     
7PESE                                                                                000000000051000                            
50000410201710132017101700959536143503       PES0000117000A180322017101312260003                                                
6024600117000172930095953614350300000000063                                                                                     
7PESE                                                                                000000000117000                            
50000510201710132017101700949440682518       PES0000117000A136742017101317530025                                                
6024600117000172930094944068251800000000037                                                                                     
7PESE                                                                                000000000117000                            
50000610201710132017101779120918107330       PES0000171500A143122017101312360009                                                
6024600171500172897912091810733000000000036                                                                                     
7PESE                                                                                000000000171500                            
50000710201710132017101700959534456641       PES0000117000A171892017101317400026                                                
6024600117000172930095953445664100000000000                                                                                     
7PESE                                                                                000000000117000                            
50000810201710142017101779120531514275       PES0000171500A089252017101412330067                                                
6024600171500172947912053151427500000000016                                                                                     
7PESE                                                                                000000000171500                            
50000910201710142017101779121737388226       PES0000171500A141662017101414380123                                                
6024600171500172937912173738822600000000042                                                                                     
7PESE                                                                                000000000171500                            
82017101700000100000090000010000000000000000000000000000000000000000000000009                                                   
9201710170000010000009000001000000000000000000000000000000000000000000000000009                                                 
