120180710PAGO FACIL               090060246MARITIMO SRL                                                                         
320180710000001MARITIMO SRL                                                                                                     
50000110201807062018071076050335140847       PES0000020000A202592018070610280073                                                
6024600020000181937605033514084700050000078                                                                                     
7PESE                                                                                000000000020000                            
50000210201807062018071076050241392802       PES0000020000A620582018070609350011                                                
6024600020000181937605024139280200050000042                                                                                     
7PESE                                                                                000000000020000                            
50000310201807072018071082200234473638       PES0000034300A133842018070711440093                                                
6024600034300181958220023447363800032000079                                                                                     
7PESE                                                                                000000000034300                            
50000410201807072018071082201528314107       PES0000048200A227222018070710440021                                                
6024600048200181958220152831410700053000078                                                                                     
7PESE                                                                                000000000048200                            
82018071000000100000040000001225000000000000000000000000000000000000000000004                                                   
9201807100000010000004000000122500000000000000000000000000000000000000000000004                                                 
