120171218PAGO FACIL               090060246MARITIMO SRL                                                                         
320171218000001MARITIMO SRL                                                                                                     
50000110201712152017121882180527053689       PES0000040500A103092017121518500068                                                
6024600040500173498218052705368900020000090                                                                                     
7PESE                                                                                000000000040500                            
50000210201712152017121800818141037280       PES0000187000A172292017121519060017                                                
6024600187000173490081814103728000130000616                                                                                     
7PESE                                                                                000000000187000                            
82017121800000100000020000002275000000000000000000000000000000000000000000002                                                   
9201712180000010000002000000227500000000000000000000000000000000000000000000002                                                 
