120170914PAGO FACIL               090060246MARITIMO SRL                                                                         
320170914000001MARITIMO SRL                                                                                                     
50000110201709132017091417080724975194       PES0000095000A036952017091307380039                                                
6024600095000172611708072497519400000000079                                                                                     
7PESE                                                                                000000000095000                            
50000210201709132017091417080530640763       PES0000095000M640252017091310270061                                                
6024600095000172621708053064076300000000036                                                                                     
7PESE                                                                                000000000095000                            
50000310201709132017091479121207683652       PES0000145000A168802017091317070021                                                
6024600145000172567912120768365200265000058                                                                                     
7PESE                                                                                000000000145000                            
82017091400000100000030000003350000000000000000000000000000000000000000000003                                                   
9201709140000010000003000000335000000000000000000000000000000000000000000000003                                                 
