120170417PAGO FACIL               090060246MARITIMO SRL                                                                         
320170417000001MARITIMO SRL                                                                                                     
50000110201704152017041724011432827297       PES0000030000A103092017041510400040                                                
6024600030000171082401143282729700050000000                                                                                     
7PESE                                                                                000000000030000                            
82017041700000100000010000000300000000000000000000000000000000000000000000001                                                   
9201704170000010000001000000030000000000000000000000000000000000000000000000001                                                 
