120171018PAGO FACIL               090060246MARITIMO SRL                                                                         
320171018000001MARITIMO SRL                                                                                                     
50000110201710172017101882170523296830       PES0000051000A160072017101713510053                                                
6024600051000172908217052329683000000000090                                                                                     
7PESE                                                                                000000000051000                            
50000210201710172017101882170429047552       PES0000051000A171962017101717010023                                                
6024600051000172978217042904755200000000084                                                                                     
7PESE                                                                                000000000051000                            
50000310201710172017101879120626678739       PES0000171500A194062017101720380068                                                
6024600171500172977912062667873900000000037                                                                                     
7PESE                                                                                000000000171500                            
50000410201710172017101879120726014830       PES0000171500A144802017101712420046                                                
6024600171500172977912072601483000000000000                                                                                     
7PESE                                                                                000000000171500                            
50000510201710172017101879120821502999       PES0000171500A144802017101712420047                                                
6024600171500172977912082150299900000000042                                                                                     
7PESE                                                                                000000000171500                            
82017101800000100000050000006165000000000000000000000000000000000000000000005                                                   
9201710180000010000005000000616500000000000000000000000000000000000000000000005                                                 
