120170817PAGO FACIL               090060246MARITIMO SRL                                                                         
320170817000001MARITIMO SRL                                                                                                     
50000110201708162017081782161424999686       PES0000051000M620862017081511166206                                                
6024600051000172288216142499968600000000042                                                                                     
7PESE                                                                                000000000051000                            
50000210201708162017081782160143303137       PES0000032500A132762017081618480014                                                
6024600032500172288216014330313700000000036                                                                                     
7PESE                                                                                000000000032500                            
50000310201708162017081782160217772920       PES0000032500A163812017081609280002                                                
6024600032500172288216021777292000000000000                                                                                     
7PESE                                                                                000000000032500                            
50000410201708162017081782160221707644       PES0000032500A087612017081617110010                                                
6024600032500172288216022170764400000000063                                                                                     
7PESE                                                                                000000000032500                            
50000510201708162017081782160223970991       PES0000032500A092352017081612390020                                                
6024600032500172288216022397099100000000042                                                                                     
7PESE                                                                                000000000032500                            
50000610201708162017081782160226778467       PES0000032500A039032017081613480087                                                
6024600032500172288216022677846700000000015                                                                                     
7PESE                                                                                000000000032500                            
50000710201708162017081782160228729969       PES0000032500M620942017081611010004                                                
6024600032500172288216022872996900000000084                                                                                     
7PESE                                                                                000000000032500                            
50000810201708162017081782160231583325       PES0000032500M620942017081611020005                                                
6024600032500172288216023158332500000000084                                                                                     
7PESE                                                                                000000000032500                            
50000910201708162017081782160233502005       PES0000032500A167842017081613590079                                                
6024600032500172288216023350200500000000079                                                                                     
7PESE                                                                                000000000032500                            
50001010201708162017081782160247974770       PES0000032500A133842017081610150072                                                
6024600032500172288216024797477000000000099                                                                                     
7PESE                                                                                000000000032500                            
50001110201708162017081782160334942091       PES0000051000A210982017081614100040                                                
6024600051000172288216033494209100000000099                                                                                     
7PESE                                                                                000000000051000                            
50001210201708162017081782160429023142       PES0000051000A129392017081607010014                                                
6024600051000172288216042902314200000000057                                                                                     
7PESE                                                                                000000000051000                            
50001310201708162017081782160717862992       PES0000051000A196842017081617470118                                                
6024600051000172288216071786299200000000021                                                                                     
7PESE                                                                                000000000051000                            
50001410201708162017081782161231156062       PES0000051000A196902017081613210058                                                
6024600051000172288216123115606200000000078                                                                                     
7PESE                                                                                000000000051000                            
50001510201708162017081782161232064492       PES0000051000A143682017081612160017                                                
6024600051000172288216123206449200000000084                                                                                     
7PESE                                                                                000000000051000                            
50001610201708162017081782161326494783       PES0000051000A620762017081613110008                                                
6024600051000172288216132649478300000000036                                                                                     
7PESE                                                                                000000000051000                            
50001710201708162017081782161424384086       PES0000051000A144132017081614420051                                                
6024600051000172288216142438408600000000084                                                                                     
7PESE                                                                                000000000051000                            
50001810201708162017081782161713750021       PES0000051000A144122017081616590054                                                
6024600051000172288216171375002100000000015                                                                                     
7PESE                                                                                000000000051000                            
50001910201708162017081788080138092783       PES0000051000A174972017081612220102                                                
6024600051000172338808013809278300000000079                                                                                     
7PESE                                                                                000000000051000                            
50002010201708162017081788080111124565       PES0000051000A182982017081611580042                                                
6024600051000172348808011112456500000000079                                                                                     
7PESE                                                                                000000000051000                            
50002110201708162017081788080126126980       PES0000051000A160832017081609380011                                                
6024600051000172348808012612698000000000099                                                                                     
7PESE                                                                                000000000051000                            
50002210201708162017081788080127558757       PES0000051000A085192017081617020054                                                
6024600051000172358808012755875700000000021                                                                                     
7PESE                                                                                000000000051000                            
50002310201708162017081788080135573094       PES0000051000D002052017081612410104                                                
6024600051000172358808013557309400000000016                                                                                     
7PESE                                                                                000000000051000                            
50002410201708162017081788080137334425       PES0000051000A140902017081619480124                                                
6024600051000172358808013733442500000000015                                                                                     
7PESE                                                                                000000000051000                            
50002510201708162017081782162223313187       PES0000066000A120912017081611070045                                                
6024600066000172288216222331318700000000021                                                                                     
7PESE                                                                                000000000066000                            
50002610201708162017081782162328916750       PES0000066000A123592017081617140034                                                
6024600066000172288216232891675000000000021                                                                                     
7PESE                                                                                000000000066000                            
50002710201708162017081782162334344230       PES0000066000M620092017081614200024                                                
6024600066000172288216233434423000000000037                                                                                     
7PESE                                                                                000000000066000                            
50002810201708162017081717080627870030       PES0000080000A084002017081616490093                                                
6024600080000172331708062787003000150000021                                                                                     
7PESE                                                                                000000000080000                            
50002910201708162017081700949435636278       PES0000117000A171362017081618010023                                                
6024600117000172330094943563627800000000084                                                                                     
7PESE                                                                                000000000117000                            
82017081700000100000290000014525000000000000000000000000000000000000000000029                                                   
9201708170000010000029000001452500000000000000000000000000000000000000000000029                                                 
