120180615PAGO FACIL               090060246MARITIMO SRL                                                                         
320180615000001MARITIMO SRL                                                                                                     
50000110201806142018061588100139584438       PES0000060000A177922018061409490039                                                
6024600060000181728810013958443800000000000                                                                                     
7PESE                                                                                000000000060000                            
82018061500000100000010000000600000000000000000000000000000000000000000000001                                                   
9201806150000010000001000000060000000000000000000000000000000000000000000000001                                                 
