120180614PAGO FACIL               090060246MARITIMO SRL                                                                         
320180614000001MARITIMO SRL                                                                                                     
50000110201806132018061476050818171206       PES0000020000A170882018061316580056                                                
6024600020000181657605081817120600050000000                                                                                     
7PESE                                                                                000000000020000                            
50000210201806132018061401171139074782       PES0000150000A257712018061313320079                                                
6024600150000181700117113907478200000000000                                                                                     
7PESE                                                                                000000000150000                            
82018061400000100000020000001700000000000000000000000000000000000000000000002                                                   
9201806140000010000002000000170000000000000000000000000000000000000000000000002                                                 
