120170613PAGO FACIL               090060246MARITIMO SRL                                                                         
320170613000001MARITIMO SRL                                                                                                     
50000110201706122017061379110416301198       PES0000096500A131032017061209320044                                                
6024600096500171667911041630119800110000078                                                                                     
7PESE                                                                                000000000096500                            
50000210201706122017061379110512656542       PES0000096500A620622017061208310001                                                
6024600096500171677911051265654200110000190                                                                                     
7PESE                                                                                000000000096500                            
50000310201706122017061300939338749510       PES0000117000A159762017061214260047                                                
6024600117000171690093933874951000000000099                                                                                     
7PESE                                                                                000000000117000                            
50000410201706122017061300888841827924       PES0000117000D002652017061211510146                                                
6024600117000171700088884182792400000000036                                                                                     
7PESE                                                                                000000000117000                            
50000510201706122017061300929239934822       PES0000117000A171352017061217440028                                                
6024600117000171700092923993482200000000021                                                                                     
7PESE                                                                                000000000117000                            
82017061300000100000050000005440000000000000000000000000000000000000000000005                                                   
9201706130000010000005000000544000000000000000000000000000000000000000000000005                                                 
