120180612PAGO FACIL               090060246MARITIMO SRL                                                                         
320180612000001MARITIMO SRL                                                                                                     
50000110201806112018061276050432104776       PES0000020000A211082018061111100024                                                
6024600020000181667605043210477600050000000                                                                                     
7PESE                                                                                000000000020000                            
50000210201806112018061276050602544224       PES0000020000D003232018061120000385                                                
6024600020000181687605060254422400050000057                                                                                     
7PESE                                                                                000000000020000                            
82018061200000100000020000000400000000000000000000000000000000000000000000002                                                   
9201806120000010000002000000040000000000000000000000000000000000000000000000002                                                 
