120170619PAGO FACIL               090060246MARITIMO SRL                                                                         
320170619000001MARITIMO SRL                                                                                                     
50000110201706162017061900939335257888       PES0000117000A168372017061518320019                                                
6024600117000171690093933525788800000000079                                                                                     
7PESE                                                                                000000000117000                            
50000210201706162017061979110514842958       PES0000096500A088252017061609340015                                                
6024600096500171677911051484295800110000537                                                                                     
7PESE                                                                                000000000096500                            
50000310201706162017061979110134791747       PES0000096500A620522017061611010031                                                
6024600096500171677911013479174700110000557                                                                                     
7PESE                                                                                000000000096500                            
50000410201706162017061979110128150060       PES0000096500A049942017061618560006                                                
6024600096500171677911012815006000110000515                                                                                     
7PESE                                                                                000000000096500                            
82017061900000100000040000004065000000000000000000000000000000000000000000004                                                   
9201706190000010000004000000406500000000000000000000000000000000000000000000004                                                 
