120170616PAGO FACIL               090060246MARITIMO SRL                                                                         
320170616000001MARITIMO SRL                                                                                                     
50000110201706152017061679110728648746       PES0000096500A173032017061418280069                                                
6024600096500171677911072864874600110000499                                                                                     
7PESE                                                                                000000000096500                            
82017061600000100000010000000965000000000000000000000000000000000000000000001                                                   
9201706160000010000001000000096500000000000000000000000000000000000000000000001                                                 
