120171019PAGO FACIL               090060246MARITIMO SRL                                                                         
320171019000001MARITIMO SRL                                                                                                     
50000110201710182017101982170429268065       PES0000051000A166862017101818280067                                                
6024600051000172938217042926806500000000084                                                                                     
7PESE                                                                                000000000051000                            
50000210201710182017101999310121089684       PES0000060000A064922017101818190059                                                
6024600060000172919931012108968400000000063                                                                                     
7PESE                                                                                000000000060000                            
50000310201710182017101999310118215659       PES0000060000A064922017101818200061                                                
6024600060000172939931011821565900000000036                                                                                     
7PESE                                                                                000000000060000                            
50000410201710182017101982172316866899       PES0000066000A228522017101809000001                                                
6024600066000172978217231686689900000000084                                                                                     
7PESE                                                                                000000000066000                            
50000510201710182017101979120144934926       PES0000171500A200612017101809390032                                                
6024600171500172977912014493492600000000090                                                                                     
7PESE                                                                                000000000171500                            
50000610201710182017101979121431992042       PES0000171500D003292017101818430086                                                
6024600171500172977912143199204200000000021                                                                                     
7PESE                                                                                000000000171500                            
82017101900000100000060000005800000000000000000000000000000000000000000000006                                                   
9201710190000010000006000000580000000000000000000000000000000000000000000000006                                                 
