120180511PAGO FACIL               090060246MARITIMO SRL                                                                         
320180511000001MARITIMO SRL                                                                                                     
50000110201805102018051182190142782362       PES0000030000A170142018051011430014                                                
6024600030000181308219014278236200020000000                                                                                     
7PESE                                                                                000000000030000                            
50000210201805102018051182190527130302       PES0000048200A210972018051014210046                                                
6024600048200181378219052713030200043000084                                                                                     
7PESE                                                                                000000000048200                            
50000310201805102018051188100122091320       PES0000060000A160152018051018390016                                                
6024600060000181348810012209132000000000099                                                                                     
7PESE                                                                                000000000060000                            
50000410201805102018051188100113580874       PES0000060000A640412018051012080016                                                
6024600060000181368810011358087400000000000                                                                                     
7PESE                                                                                000000000060000                            
50000510201805102018051188100139337999       PES0000060000A227232018051010590013                                                
6024600060000181368810013933799900000000037                                                                                     
7PESE                                                                                000000000060000                            
50000610201805102018051188090231789752       PES0000100000D002602018051014550217                                                
6024600100000181348809023178975200000000021                                                                                     
7PESE                                                                                000000000100000                            
82018051100000100000060000003582000000000000000000000000000000000000000000006                                                   
9201805110000010000006000000358200000000000000000000000000000000000000000000006                                                 
