120180914PAGO FACIL               090060246MARITIMO SRL                                                                         
320180914000001MARITIMO SRL                                                                                                     
50000110201809132018091488110140152694       PES0000100000A189042018091310540035                                                
6024600100000182628811014015269400000000063                                                                                     
7PESE                                                                                000000000100000                            
50000210201809132018091488110113580874       PES0000100000A640412018091311080017                                                
6024600100000182638811011358087400000000063                                                                                     
7PESE                                                                                000000000100000                            
50000310201809132018091488110136425399       PES0000100000A189042018091310540036                                                
6024600100000182638811013642539900000000000                                                                                     
7PESE                                                                                000000000100000                            
50000410201809132018091401181136926157       PES0000150000A159762018091315390016                                                
6024600150000182630118113692615700000000021                                                                                     
7PESE                                                                                000000000150000                            
82018091400000100000040000004500000000000000000000000000000000000000000000004                                                   
9201809140000010000004000000450000000000000000000000000000000000000000000000004                                                 
