120180618PAGO FACIL               090060246MARITIMO SRL                                                                         
320180618000001MARITIMO SRL                                                                                                     
50000110201806152018061888100128334210       PES0000060000A150892018061515500059                                                
6024600060000181728810012833421000000000057                                                                                     
7PESE                                                                                000000000060000                            
50000210201806152018061888100143127398       PES0000060000D002622018061510220007                                                
6024600060000181728810014312739800000000015                                                                                     
7PESE                                                                                000000000060000                            
50000310201806162018061882200334780513       PES0000047900A095592018061610150022                                                
6024600047900181718220033478051300054000090                                                                                     
7PESE                                                                                000000000047900                            
82018061800000100000030000001679000000000000000000000000000000000000000000003                                                   
9201806180000010000003000000167900000000000000000000000000000000000000000000003                                                 
