120170913PAGO FACIL               090060246MARITIMO SRL                                                                         
320170913000001MARITIMO SRL                                                                                                     
50000110201709122017091317080628249690       PES0000095000M640252017091211210083                                                
6024600080000172531708062824969000150000790                                                                                     
7PESE                                                                                000000000095000                            
50000210201709122017091317080820244448       PES0000095000A148892017091208520010                                                
6024600080000172531708082024444800150000579                                                                                     
7PESE                                                                                000000000095000                            
50000310201709122017091317080821419449       PES0000095000A126272017091207490001                                                
6024600080000172531708082141944900150000742                                                                                     
7PESE                                                                                000000000095000                            
50000410201709122017091317080629201395       PES0000095000A660372017091210290022                                                
6024600095000172611708062920139500000000078                                                                                     
7PESE                                                                                000000000095000                            
50000510201709122017091317080532082056       PES0000095000A660372017091210280021                                                
6024600095000172621708053208205600000000042                                                                                     
7PESE                                                                                000000000095000                            
50000610201709122017091317081106261825       PES0000095000A148892017091208500009                                                
6024600095000172621708110626182500000000078                                                                                     
7PESE                                                                                000000000095000                            
50000710201709122017091300959537618942       PES0000117000A180322017091218090039                                                
6024600117000172600095953761894200000000058                                                                                     
7PESE                                                                                000000000117000                            
50000810201709122017091300959539448023       PES0000117000A171352017091220170080                                                
6024600117000172620095953944802300000000078                                                                                     
7PESE                                                                                000000000117000                            
50000910201709122017091379120822475583       PES0000145000A082002017091215300031                                                
6024600145000172577912082247558300265000021                                                                                     
7PESE                                                                                000000000145000                            
50001010201709122017091379120531096862       PES0000145000A082002017091211120005                                                
6024600145000172587912053109686200265000084                                                                                     
7PESE                                                                                000000000145000                            
82017091300000100000100000010940000000000000000000000000000000000000000000010                                                   
9201709130000010000010000001094000000000000000000000000000000000000000000000010                                                 
