120171011PAGO FACIL               090060246MARITIMO SRL                                                                         
320171011000001MARITIMO SRL                                                                                                     
50000110201710102017101182170223296254       PES0000032500A165912017101019070032                                                
6024600032500172908217022329625400000000036                                                                                     
7PESE                                                                                000000000032500                            
50000210201710102017101182171326489114       PES0000051000A227232017101017220040                                                
6024600048000172818217132648911400030000778                                                                                     
7PESE                                                                                000000000051000                            
50000310201710102017101182170333746881       PES0000051000A211082017101011090030                                                
6024600051000172898217033374688100000000000                                                                                     
7PESE                                                                                000000000051000                            
50000410201710102017101182171327826876       PES0000051000A154252017101013430008                                                
6024600051000172908217132782687600000000063                                                                                     
7PESE                                                                                000000000051000                            
50000510201710102017101100939340682518       PES0000117000A138932017101011320066                                                
6024600117000172860093934068251800000000063                                                                                     
7PESE                                                                                000000000117000                            
50000610201710102017101100888826728567       PES0000117000A211032017101010230007                                                
6024600117000172900088882672856700000000058                                                                                     
7PESE                                                                                000000000117000                            
50000710201710102017101100949434456641       PES0000117000A171892017101020020040                                                
6024600117000172900094943445664100000000090                                                                                     
7PESE                                                                                000000000117000                            
82017101100000100000070000005365000000000000000000000000000000000000000000007                                                   
9201710110000010000007000000536500000000000000000000000000000000000000000000007                                                 
