120170614PAGO FACIL               090060246MARITIMO SRL                                                                         
320170614000001MARITIMO SRL                                                                                                     
50000110201706132017061476044329268065       PES0000010000A166862017061309450036                                                
6024600010000171677604432926806500000000090                                                                                     
7PESE                                                                                000000000010000                            
50000210201706132017061479110323889756       PES0000096500A178242017061311150074                                                
6024600096500171677911032388975600110000442                                                                                     
7PESE                                                                                000000000096500                            
50000310201706132017061400939338646112       PES0000117000A170002017061311520039                                                
6024600117000171670093933864611200000000057                                                                                     
7PESE                                                                                000000000117000                            
82017061400000100000030000002235000000000000000000000000000000000000000000003                                                   
9201706140000010000003000000223500000000000000000000000000000000000000000000003                                                 
