120180516PAGO FACIL               090060246MARITIMO SRL                                                                         
320180516000001MARITIMO SRL                                                                                                     
50000110201805152018051682190528729663       PES0000048200D004572018051509060002                                                
6024600048200181418219052872966300043000021                                                                                     
7PESE                                                                                000000000048200                            
50000210201805152018051682190722716171       PES0000048200A141672018051510220016                                                
6024600048200181418219072271617100043000015                                                                                     
7PESE                                                                                000000000048200                            
50000310201805152018051682191428003729       PES0000048200D004572018051509070003                                                
6024600048200181418219142800372900043000084                                                                                     
7PESE                                                                                000000000048200                            
50000410201805152018051682191430025023       PES0000048200D001112018051510500019                                                
6024600048200181418219143002502300043000015                                                                                     
7PESE                                                                                000000000048200                            
50000510201805152018051682190624386797       PES0000048200A118532018051517360078                                                
6024600048200181428219062438679700043000084                                                                                     
7PESE                                                                                000000000048200                            
82018051600000100000050000002410000000000000000000000000000000000000000000005                                                   
9201805160000010000005000000241000000000000000000000000000000000000000000000005                                                 
