120180816PAGO FACIL               090060246MARITIMO SRL                                                                         
320180816000001MARITIMO SRL                                                                                                     
50000110201808152018081688100134882137       PES0000060000A217522018081512080063                                                
6024600060000182328810013488213700000000084                                                                                     
7PESE                                                                                000000000060000                            
50000210201808152018081688100111124565       PES0000060000A171632018081510080012                                                
6024600060000182348810011112456500000000058                                                                                     
7PESE                                                                                000000000060000                            
50000310201808152018081688100137049839       PES0000060000A133782018081517250012                                                
6024600060000182348810013704983900000000090                                                                                     
7PESE                                                                                000000000060000                            
50000410201808152018081688100137144202       PES0000060000A187962018081516160004                                                
6024600060000182348810013714420200000000042                                                                                     
7PESE                                                                                000000000060000                            
50000510201808152018081601171135090859       PES0000150000D002672018081520380320                                                
6024600150000182340117113509085900000000078                                                                                     
7PESE                                                                                000000000150000                            
82018081600000100000050000003900000000000000000000000000000000000000000000005                                                   
9201808160000010000005000000390000000000000000000000000000000000000000000000005                                                 
