120171012PAGO FACIL               090060246MARITIMO SRL                                                                         
320171012000001MARITIMO SRL                                                                                                     
50000110201710112017101200949438629372       PES0000117000A211022017101116310067                                                
6024600117000172900094943862937200000000078                                                                                     
7PESE                                                                                000000000117000                            
50000210201710112017101200949435354114       PES0000117000A171002017101115400055                                                
6024600117000172910094943535411400000000000                                                                                     
7PESE                                                                                000000000117000                            
50000310201710112017101200959539080203       PES0000117000A159762017101109130010                                                
6024600117000172910095953908020300000000057                                                                                     
7PESE                                                                                000000000117000                            
50000410201710112017101279120918558714       PES0000171500A620952017101111320192                                                
6024600145000172797912091855871400265000763                                                                                     
7PESE                                                                                000000000171500                            
50000510201710112017101279120917955121       PES0000171500A061432017101110230065                                                
6024600171500172897912091795512100000000084                                                                                     
7PESE                                                                                000000000171500                            
82017101200000100000050000006940000000000000000000000000000000000000000000005                                                   
9201710120000010000005000000694000000000000000000000000000000000000000000000005                                                 
