120180918PAGO FACIL               090060246MARITIMO SRL                                                                         
320180918000001MARITIMO SRL                                                                                                     
50000110201809172018091801191136926157       PES0000150000D004532018091721210190                                                
6024600150000182670119113692615700000000057                                                                                     
7PESE                                                                                000000000150000                            
82018091800000100000010000001500000000000000000000000000000000000000000000001                                                   
9201809180000010000001000000150000000000000000000000000000000000000000000000001                                                 
