120180117PAGO FACIL               090060246MARITIMO SRL                                                                         
320180117000001MARITIMO SRL                                                                                                     
50000110201801162018011782180143454935       PES0000032000A210952018011611560084                                                
6024600032000180178218014345493500000000016                                                                                     
7PESE                                                                                000000000032000                            
50000210201801162018011782180223050242       PES0000032000D001502018011616370079                                                
6024600032000180178218022305024200000000090                                                                                     
7PESE                                                                                000000000032000                            
50000310201801162018011782180223136228       PES0000032000A222892018011609180009                                                
6024600032000180178218022313622800000000099                                                                                     
7PESE                                                                                000000000032000                            
50000410201801162018011782180226106840       PES0000032000D002512018011611490031                                                
6024600032000180178218022610684000000000057                                                                                     
7PESE                                                                                000000000032000                            
50000510201801162018011782180226429142       PES0000032000A115442018011610080023                                                
6024600032000180178218022642914200000000084                                                                                     
7PESE                                                                                000000000032000                            
50000610201801162018011782180238685205       PES0000032000A159952018011615220022                                                
6024600032000180178218023868520500000000015                                                                                     
7PESE                                                                                000000000032000                            
50000710201801162018011782180430799315       PES0000042500A090632018011614450021                                                
6024600042500180178218043079931500000000057                                                                                     
7PESE                                                                                000000000042500                            
50000810201801162018011782180433102321       PES0000042500A170882018011617100100                                                
6024600042500180178218043310232100000000042                                                                                     
7PESE                                                                                000000000042500                            
50000910201801162018011782180433273326       PES0000042500A163992018011620180086                                                
6024600042500180178218043327332600000000099                                                                                     
7PESE                                                                                000000000042500                            
50001010201801162018011782180438828981       PES0000042500A143682018011613540017                                                
6024600042500180178218043882898100000000099                                                                                     
7PESE                                                                                000000000042500                            
50001110201801162018011782180439508318       PES0000042500A210952018011614450017                                                
6024600042500180178218043950831800000000042                                                                                     
7PESE                                                                                000000000042500                            
50001210201801162018011782180818336112       PES0000042500A210952018011611560082                                                
6024600042500180178218081833611200000000063                                                                                     
7PESE                                                                                000000000042500                            
50001310201801162018011782181141307401       PES0000042500A132762018011617190004                                                
6024600042500180178218114130740100000000042                                                                                     
7PESE                                                                                000000000042500                            
50001410201801162018011782181238496733       PES0000042500A210762018011609370036                                                
6024600042500180178218123849673300000000084                                                                                     
7PESE                                                                                000000000042500                            
50001510201801162018011782181326541685       PES0000042500A157062018011617160099                                                
6024600042500180178218132654168500000000084                                                                                     
7PESE                                                                                000000000042500                            
50001610201801162018011782181520035559       PES0000042500A210952018011611560083                                                
6024600042500180178218152003555900000000015                                                                                     
7PESE                                                                                000000000042500                            
50001710201801162018011782181522313819       PES0000042500A222892018011611390040                                                
6024600042500180178218152231381900000000000                                                                                     
7PESE                                                                                000000000042500                            
50001810201801162018011700818129248146       PES0000200000A141672018011614340041                                                
6024600200000180230081812924814600000000078                                                                                     
7PESE                                                                                000000000200000                            
82018011700000100000180000008595000000000000000000000000000000000000000000018                                                   
9201801170000010000018000000859500000000000000000000000000000000000000000000018                                                 
