120170816PAGO FACIL               090060246MARITIMO SRL                                                                         
320170816000001MARITIMO SRL                                                                                                     
50000110201708152017081676040526496017       PES0000020000A139922017081516380221                                                
6024600020000172347604052649601700000000084                                                                                     
7PESE                                                                                000000000020000                            
50000210201708152017081682160126738192       PES0000032500A131622017081511270021                                                
6024600032500172288216012673819200000000078                                                                                     
7PESE                                                                                000000000032500                            
50000310201708152017081682160220038658       PES0000032500A131622017081511280023                                                
6024600032500172288216022003865800000000037                                                                                     
7PESE                                                                                000000000032500                            
50000410201708152017081682160224766478       PES0000032500A131622017081511260019                                                
6024600032500172288216022476647800000000063                                                                                     
7PESE                                                                                000000000032500                            
50000510201708152017081682160226848939       PES0000032500A131622017081511260020                                                
6024600032500172288216022684893900000000084                                                                                     
7PESE                                                                                000000000032500                            
50000610201708152017081682160229375899       PES0000032500A131622017081511270022                                                
6024600032500172288216022937589900000000058                                                                                     
7PESE                                                                                000000000032500                            
50000710201708152017081682160717769116       PES0000051000A087612017081509440140                                                
6024600051000172278216071776911600000000021                                                                                     
7PESE                                                                                000000000051000                            
50000810201708152017081682160394531571       PES0000051000A140082017081510050023                                                
6024600051000172288216039453157100000000079                                                                                     
7PESE                                                                                000000000051000                            
50000910201708152017081682160427171057       PES0000051000M620942017081515420010                                                
6024600051000172288216042717105700000000021                                                                                     
7PESE                                                                                000000000051000                            
50001010201708152017081682160429359034       PES0000051000A058662017081517340011                                                
6024600051000172288216042935903400000000078                                                                                     
7PESE                                                                                000000000051000                            
50001110201708152017081682160524518232       PES0000051000A123902017081512350065                                                
6024600051000172288216052451823200000000000                                                                                     
7PESE                                                                                000000000051000                            
50001210201708152017081682160524785379       PES0000051000A123592017081509100001                                                
6024600051000172288216052478537900000000084                                                                                     
7PESE                                                                                000000000051000                            
50001310201708152017081682161230880136       PES0000051000A171962017081516520018                                                
6024600051000172288216123088013600000000090                                                                                     
7PESE                                                                                000000000051000                            
50001410201708152017081682161424117076       PES0000051000A166862017081517060005                                                
6024600051000172288216142411707600000000078                                                                                     
7PESE                                                                                000000000051000                            
50001510201708152017081682161425686203       PES0000051000A166862017081514020094                                                
6024600051000172288216142568620300000000042                                                                                     
7PESE                                                                                000000000051000                            
50001610201708152017081682161616585510       PES0000051000A039032017081512440122                                                
6024600051000172288216161658551000000000021                                                                                     
7PESE                                                                                000000000051000                            
50001710201708152017081682161617510625       PES0000051000A161042017081510550026                                                
6024600051000172288216161751062500000000000                                                                                     
7PESE                                                                                000000000051000                            
50001810201708152017081688080127747268       PES0000051000A066952017081519260029                                                
6024600051000172338808012774726800000000021                                                                                     
7PESE                                                                                000000000051000                            
50001910201708152017081688080139566264       PES0000051000A037862017081511400007                                                
6024600051000172338808013956626400000000036                                                                                     
7PESE                                                                                000000000051000                            
50002010201708152017081688080132672746       PES0000051000A165852017081511100044                                                
6024600051000172348808013267274600000000000                                                                                     
7PESE                                                                                000000000051000                            
50002110201708152017081688080141809866       PES0000051000A142382017081518590005                                                
6024600051000172348808014180986600000000078                                                                                     
7PESE                                                                                000000000051000                            
50002210201708152017081682162218202325       PES0000066000A167302017081512130034                                                
6024600066000172288216221820232500000000099                                                                                     
7PESE                                                                                000000000066000                            
50002310201708152017081682162231821880       PES0000066000A159912017081515580103                                                
6024600066000172288216223182188000000000042                                                                                     
7PESE                                                                                000000000066000                            
50002410201708152017081600959538535894       PES0000117000A211022017081512140081                                                
6024600117000172300095953853589400000000000                                                                                     
7PESE                                                                                000000000117000                            
50002510201708152017081600959538749510       PES0000117000A136742017081511330020                                                
6024600117000172300095953874951000000000042                                                                                     
7PESE                                                                                000000000117000                            
50002610201708152017081600959541475691       PES0000117000A211022017081512140080                                                
6024600117000172300095954147569100000000042                                                                                     
7PESE                                                                                000000000117000                            
50002710201708152017081600939338533002       PES0000117000A171002017081518060063                                                
6024600117000172340093933853300200000000036                                                                                     
7PESE                                                                                000000000117000                            
82017081600000100000270000015475000000000000000000000000000000000000000000027                                                   
9201708160000010000027000001547500000000000000000000000000000000000000000000027                                                 
