120180110PAGO FACIL               090060246MARITIMO SRL                                                                         
320180110000001MARITIMO SRL                                                                                                     
50000110201801092018011082180816265951       PES0000042500A087612018010910570087                                                
6024600042500180108218081626595100000000079                                                                                     
7PESE                                                                                000000000042500                            
50000210201801092018011082180342239994       PES0000042500A139602018010918250021                                                
6024600042500180118218034223999400000000021                                                                                     
7PESE                                                                                000000000042500                            
50000310201801092018011082180439600012       PES0000042500A170882018010909510006                                                
6024600042500180118218043960001200000000021                                                                                     
7PESE                                                                                000000000042500                            
50000410201801092018011082180722435994       PES0000042500D003092018010916460129                                                
6024600042500180118218072243599400000000042                                                                                     
7PESE                                                                                000000000042500                            
50000510201801092018011082180720233622       PES0000042500A116192018010914510080                                                
6024600042500180168218072023362200000000084                                                                                     
7PESE                                                                                000000000042500                            
50000610201801092018011082181520752389       PES0000042500A116192018010914510081                                                
6024600042500180168218152075238900000000078                                                                                     
7PESE                                                                                000000000042500                            
82018011000000100000060000002550000000000000000000000000000000000000000000006                                                   
9201801100000010000006000000255000000000000000000000000000000000000000000000006                                                 
