120170919PAGO FACIL               090060246MARITIMO SRL                                                                         
320170919000001MARITIMO SRL                                                                                                     
50000110201709182017091982170334780513       PES0000048000A123592017091817110076                                                
6024600048000172688217033478051300030000084                                                                                     
7PESE                                                                                000000000048000                            
50000210201709182017091917080820398056       PES0000095000A049912017091816480005                                                
6024600095000172611708082039805600000000036                                                                                     
7PESE                                                                                000000000095000                            
50000310201709182017091917080337446395       PES0000095000D004482017091820350160                                                
6024600095000172641708033744639500000000084                                                                                     
7PESE                                                                                000000000095000                            
50000410201709182017091917081013988655       PES0000095000D004482017091820340159                                                
6024600095000172641708101398865500000000099                                                                                     
7PESE                                                                                000000000095000                            
50000510201709182017091917081108112040       PES0000095000A128032017091809240058                                                
6024600095000172641708110811204000000000099                                                                                     
7PESE                                                                                000000000095000                            
50000610201709182017091900959539441431       PES0000117000A136742017091818080059                                                
6024600117000172680095953944143100000000042                                                                                     
7PESE                                                                                000000000117000                            
50000710201709182017091979120821871448       PES0000145000A160102017091815050130                                                
6024600145000172687912082187144800265000090                                                                                     
7PESE                                                                                000000000145000                            
82017091900000100000070000006900000000000000000000000000000000000000000000007                                                   
9201709190000010000007000000690000000000000000000000000000000000000000000000007                                                 
