120170510PAGO FACIL               090060246MARITIMO SRL                                                                         
320170510000001MARITIMO SRL                                                                                                     
50000110201705092017051082150222265528       PES0000032500A161042017050912180074                                                
6024600032500171298215022226552800000000015                                                                                     
7PESE                                                                                000000000032500                            
50000210201705092017051082150121465439       PES0000032500M620942017050913300014                                                
6024600032500171308215012146543900000000090                                                                                     
7PESE                                                                                000000000032500                            
50000310201705092017051082150210481748       PES0000032500D001142017050912180023                                                
6024600032500171308215021048174800000000079                                                                                     
7PESE                                                                                000000000032500                            
50000410201705092017051082150220032801       PES0000032500M620942017050915530026                                                
6024600032500171308215022003280100000000078                                                                                     
7PESE                                                                                000000000032500                            
50000510201705092017051082150221707644       PES0000032500A143422017050918340073                                                
6024600032500171308215022170764400000000063                                                                                     
7PESE                                                                                000000000032500                            
50000610201705092017051082150222054127       PES0000032500M620942017050913290013                                                
6024600032500171308215022205412700000000042                                                                                     
7PESE                                                                                000000000032500                            
50000710201705092017051082150226557357       PES0000032500D001142017050917580254                                                
6024600032500171308215022655735700000000042                                                                                     
7PESE                                                                                000000000032500                            
50000810201705092017051082150228729969       PES0000032500M620942017050915550028                                                
6024600032500171308215022872996900000000099                                                                                     
7PESE                                                                                000000000032500                            
50000910201705092017051082150229700582       PES0000032500A123902017050915470025                                                
6024600032500171308215022970058200000000042                                                                                     
7PESE                                                                                000000000032500                            
50001010201705092017051082150231583325       PES0000032500M620942017050915530027                                                
6024600032500171308215023158332500000000099                                                                                     
7PESE                                                                                000000000032500                            
50001110201705092017051088080134051324       PES0000045000A177922017050911110006                                                
6024600045000171358808013405132400060000079                                                                                     
7PESE                                                                                000000000045000                            
50001210201705092017051088080138281691       PES0000045000A660282017050909160003                                                
6024600045000171358808013828169100060000021                                                                                     
7PESE                                                                                000000000045000                            
50001310201705092017051082150405324969       PES0000051000D001142017050912190024                                                
6024600051000171308215040532496900000000057                                                                                     
7PESE                                                                                000000000051000                            
50001410201705092017051082150428016566       PES0000051000A159952017050917010068                                                
6024600051000171308215042801656600000000000                                                                                     
7PESE                                                                                000000000051000                            
50001510201705092017051082150524505857       PES0000051000A174682017050916290024                                                
6024600051000171308215052450585700000000000                                                                                     
7PESE                                                                                000000000051000                            
50001610201705092017051082150525312354       PES0000051000A170152017050913300066                                                
6024600051000171308215052531235400000000042                                                                                     
7PESE                                                                                000000000051000                            
50001710201705092017051024013031078285       PES0000060000M620412017050916020147                                                
6024600060000171302401303107828500100000616                                                                                     
7PESE                                                                                000000000060000                            
50001810201705092017051096010227323521       PES0000060000D000962017050917220261                                                
6024600060000171319601022732352100000000021                                                                                     
7PESE                                                                                000000000060000                            
50001910201705092017051082152132383293       PES0000066000A142362017050910110023                                                
6024600066000171308215213238329300000000036                                                                                     
7PESE                                                                                000000000066000                            
50002010201705092017051082152329375078       PES0000066000A151772017050918060059                                                
6024600066000171308215232937507800000000015                                                                                     
7PESE                                                                                000000000066000                            
82017051000000100000200000008710000000000000000000000000000000000000000000020                                                   
9201705100000010000020000000871000000000000000000000000000000000000000000000020                                                 
