120171213PAGO FACIL               090060246MARITIMO SRL                                                                         
320171213000001MARITIMO SRL                                                                                                     
50000110201712122017121303050328016876       PES0000030000A163102017121217520051                                                
6024600030000173480305032801687600000000021                                                                                     
7PESE                                                                                000000000030000                            
50000210201712122017121303050425062876       PES0000030000A039082017121211130125                                                
6024600030000173480305042506287600000000000                                                                                     
7PESE                                                                                000000000030000                            
50000310201712122017121303051228185393       PES0000030000A154252017121216320017                                                
6024600030000173480305122818539300000000000                                                                                     
7PESE                                                                                000000000030000                            
50000410201712122017121382181234500433       PES0000040500A157942017121210110028                                                
6024600040500173468218123450043300020000036                                                                                     
7PESE                                                                                000000000040500                            
50000510201712122017121382180430296044       PES0000040500A162812017121216440055                                                
6024600040500173528218043029604400020000099                                                                                     
7PESE                                                                                000000000040500                            
50000610201712122017121382180720878578       PES0000040500A167842017121211280030                                                
6024600040500173538218072087857800020000058                                                                                     
7PESE                                                                                000000000040500                            
50000710201712122017121382181233067758       PES0000040500A167842017121211270029                                                
6024600040500173538218123306775800020000090                                                                                     
7PESE                                                                                000000000040500                            
82017121300000100000070000002520000000000000000000000000000000000000000000007                                                   
9201712130000010000007000000252000000000000000000000000000000000000000000000007                                                 
