120180514PAGO FACIL               090060246MARITIMO SRL                                                                         
320180514000001MARITIMO SRL                                                                                                     
50000110201805112018051488100138646112       PES0000060000A148922018051113130003                                                
6024600060000181378810013864611200000000016                                                                                     
7PESE                                                                                000000000060000                            
50000210201805112018051488100136871352       PES0000060000A217532018051112570034                                                
6024600060000181378810013687135200000000000                                                                                     
7PESE                                                                                000000000060000                            
50000310201805112018051488100132450940       PES0000060000A189042018051117030035                                                
6024600060000181388810013245094000000000036                                                                                     
7PESE                                                                                000000000060000                            
50000410201805112018051488100130457546       PES0000060000A141032018051117240073                                                
6024600060000181378810013045754600000000015                                                                                     
7PESE                                                                                000000000060000                            
50000510201805112018051488100140891440       PES0000060000D004552018051117540292                                                
6024600060000181388810014089144000000000042                                                                                     
7PESE                                                                                000000000060000                            
50000610201805112018051488100128394924       PES0000060000A066532018051117380038                                                
6024600060000181388810012839492400000000063                                                                                     
7PESE                                                                                000000000060000                            
50000710201805112018051482190530267371       PES0000048200A157282018051118310002                                                
6024600048200181368219053026737100043000078                                                                                     
7PESE                                                                                000000000048200                            
50000810201805112018051482191813810305       PES0000048200A163812018051120280031                                                
6024600048200181378219181381030500043000084                                                                                     
7PESE                                                                                000000000048200                            
50000910201805122018051488100143713203       PES0000060000A068532018051210310010                                                
6024600060000181398810014371320300000000000                                                                                     
7PESE                                                                                000000000060000                            
50001010201805122018051488100136576054       PES0000060000D007262018051213080149                                                
6024600060000181388810013657605400000000090                                                                                     
7PESE                                                                                000000000060000                            
50001110201805122018051488100140695928       PES0000060000D002582018051216200317                                                
6024600060000181398810014069592800000000090                                                                                     
7PESE                                                                                000000000060000                            
50001210201805122018051488100132257263       PES0000060000A114482018051211180011                                                
6024600060000181378810013225726300000000099                                                                                     
7PESE                                                                                000000000060000                            
82018051400000100000120000006964000000000000000000000000000000000000000000012                                                   
9201805140000010000012000000696400000000000000000000000000000000000000000000012                                                 
