120180814PAGO FACIL               090060246MARITIMO SRL                                                                         
320180814000001MARITIMO SRL                                                                                                     
50000110201808132018081488100137433680       PES0000060000L270372018081312087860                                                
6024600060000182328810013743368000000000099                                                                                     
7PESE                                                                                000000000060000                            
50000210201808132018081401191139445347       PES0000150000A252962018081313360021                                                
6024600150000182320119113944534700000000078                                                                                     
7PESE                                                                                000000000150000                            
82018081400000100000020000002100000000000000000000000000000000000000000000002                                                   
9201808140000010000002000000210000000000000000000000000000000000000000000000002                                                 
