120170313PAGO FACIL               090060246MARITIMO SRL                                                                         
320170313000001MARITIMO SRL                                                                                                     
50000110201703102017031382142627707746       PES0000034000A171932017030914370011                                                
6024600034000170758214262770774600030000042                                                                                     
7PESE                                                                                000000000034000                            
50000210201703102017031382142628935834       PES0000034000A171932017030914430012                                                
6024600034000170758214262893583400030000000                                                                                     
7PESE                                                                                000000000034000                            
50000310201703102017031382140428297532       PES0000046000A161042017031009160020                                                
6024600046000170758214042829753200030000084                                                                                     
7PESE                                                                                000000000046000                            
50000410201703102017031396050332217298       PES0000040000A140902017031010380066                                                
6024600040000170699605033221729800030000637                                                                                     
7PESE                                                                                000000000040000                            
50000510201703102017031396050734820295       PES0000040000A140902017031010400067                                                
6024600040000170699605073482029500030000621                                                                                     
7PESE                                                                                000000000040000                            
50000610201703102017031396050828394924       PES0000040000A085192017031016110078                                                
6024600040000170699605082839492400030000757                                                                                     
7PESE                                                                                000000000040000                            
50000710201703102017031382140428016566       PES0000046000A159952017031016090014                                                
6024600046000170738214042801656600030000078                                                                                     
7PESE                                                                                000000000046000                            
50000810201703102017031396050738412791       PES0000040000D001252017031022010413                                                
6024600040000170699605073841279100030000742                                                                                     
7PESE                                                                                000000000040000                            
50000910201703112017031382142012906106       PES0000046000A161982017031114200065                                                
6024600046000170708214201290610600030000000                                                                                     
7PESE                                                                                000000000046000                            
50001010201703112017031379100529143443       PES0000042000A156062017031110250012                                                
6024600042000170767910052914344300070000015                                                                                     
7PESE                                                                                000000000042000                            
82017031300000100000100000004080000000000000000000000000000000000000000000010                                                   
9201703130000010000010000000408000000000000000000000000000000000000000000000010                                                 
