120171010PAGO FACIL               090060246MARITIMO SRL                                                                         
320171010000001MARITIMO SRL                                                                                                     
50000110201710092017101082170525215533       PES0000048000A149522017100909330028                                                
6024600048000172818217052521553300030000700                                                                                     
7PESE                                                                                000000000048000                            
50000210201710092017101000959535592785       PES0000117000A196982017100918540009                                                
6024600117000172820095953559278500000000042                                                                                     
7PESE                                                                                000000000117000                            
50000310201710092017101079120822236410       PES0000171500M640432017100911460151                                                
6024600145000172797912082223641000265000363                                                                                     
7PESE                                                                                000000000171500                            
50000410201710092017101079121013941552       PES0000171500D004532017100910150050                                                
6024600171500172877912101394155200000000084                                                                                     
7PESE                                                                                000000000171500                            
82017101000000100000040000005080000000000000000000000000000000000000000000004                                                   
9201710100000010000004000000508000000000000000000000000000000000000000000000004                                                 
