120180518PAGO FACIL               090060246MARITIMO SRL                                                                         
320180518000001MARITIMO SRL                                                                                                     
50000110201805172018051882191913616111       PES0000048200A228522018051717230033                                                
6024600048200181388219191361611100043000063                                                                                     
7PESE                                                                                000000000048200                            
50000210201805172018051801171172901987       PES0000150000A107142018051716200009                                                
6024600150000181380117117290198700000000016                                                                                     
7PESP                                                                                000000000150000                            
82018051800000100000020000001982000000000000000000000000000000000000000000002                                                   
9201805180000010000002000000198200000000000000000000000000000000000000000000002                                                 
