120170912PAGO FACIL               090060246MARITIMO SRL                                                                         
320170912000001MARITIMO SRL                                                                                                     
50000110201709112017091217080820182218       PES0000080000A138202017091110070005                                                
6024600080000172531708082018221800150000721                                                                                     
7PESE                                                                                000000000080000                            
50000210201709112017091217081420966610       PES0000080000A640272017091109030021                                                
6024600080000172531708142096661000150000690                                                                                     
7PESE                                                                                000000000080000                            
50000310201709112017091217081423831408       PES0000080000A640272017091110500074                                                
6024600080000172531708142383140800150000663                                                                                     
7PESE                                                                                000000000080000                            
50000410201709112017091217080433311962       PES0000095000A143752017091112070051                                                
6024600095000172611708043331196200000000079                                                                                     
7PESE                                                                                000000000095000                            
50000510201709112017091217080723972140       PES0000095000A141562017091109200117                                                
6024600095000172611708072397214000000000057                                                                                     
7PESE                                                                                000000000095000                            
50000610201709112017091279120628682641       PES0000145000A157332017091117180084                                                
6024600145000172567912062868264100265000084                                                                                     
7PESE                                                                                000000000145000                            
50000710201709112017091279120918451259       PES0000145000A041242017091109410014                                                
6024600145000172587912091845125900265000000                                                                                     
7PESE                                                                                000000000145000                            
82017091200000100000070000007200000000000000000000000000000000000000000000007                                                   
9201709120000010000007000000720000000000000000000000000000000000000000000000007                                                 
