120170410PAGO FACIL               090060246MARITIMO SRL                                                                         
320170410000001MARITIMO SRL                                                                                                     
50000110201704072017041000737341037280       PES0000175000A172292017040710140004                                                
6024600175000170970073734103728000120000663                                                                                     
7PESE                                                                                000000000175000                            
82017041000000100000010000001750000000000000000000000000000000000000000000001                                                   
9201704100000010000001000000175000000000000000000000000000000000000000000000001                                                 
