120170814PAGO FACIL               090060246MARITIMO SRL                                                                         
320170814000001MARITIMO SRL                                                                                                     
50000110201708112017081482161232649013       PES0000051000A141662017081109230008                                                
6024600051000172288216123264901300000000021                                                                                     
7PESE                                                                                000000000051000                            
50000210201708112017081482160428804801       PES0000051000A141662017081109220007                                                
6024600051000172288216042880480100000000042                                                                                     
7PESE                                                                                000000000051000                            
50000310201708112017081482160217374151       PES0000032500A039052017081108500007                                                
6024600032500172248216021737415100000000042                                                                                     
7PESE                                                                                000000000032500                            
50000410201708112017081482161617503951       PES0000051000A211072017081110010014                                                
6024600051000172268216161750395100000000079                                                                                     
7PESE                                                                                000000000051000                            
50000510201708112017081482160121503610       PES0000032500A166862017081111520014                                                
6024600032500172248216012150361000000000042                                                                                     
7PESE                                                                                000000000032500                            
50000610201708112017081482161521808090       PES0000051000A166862017081111510012                                                
6024600051000172288216152180809000000000058                                                                                     
7PESE                                                                                000000000051000                            
50000710201708112017081482160121465439       PES0000032500A166862017081111510013                                                
6024600032500172278216012146543900000000042                                                                                     
7PESE                                                                                000000000032500                            
50000810201708112017081488080137785777       PES0000051000A177922017081112140038                                                
6024600051000172308808013778577700000000063                                                                                     
7PESE                                                                                000000000051000                            
50000910201708112017081488080140365179       PES0000051000A083092017081112010014                                                
6024600051000172298808014036517900000000021                                                                                     
7PESE                                                                                000000000051000                            
50001010201708112017081488080144063098       PES0000051000A640232017081110560111                                                
6024600051000172298808014406309800000000057                                                                                     
7PESE                                                                                000000000051000                            
50001110201708112017081482162230025023       PES0000066000D001112017081110060021                                                
6024600066000172288216223002502300000000042                                                                                     
7PESE                                                                                000000000066000                            
50001210201708112017081482160428608296       PES0000051000A081382017081118010029                                                
6024600051000172288216042860829600000000042                                                                                     
7PESE                                                                                000000000051000                            
50001310201708112017081488080128565913       PES0000051000D002602017081118140192                                                
6024600051000172308808012856591300000000090                                                                                     
7PESE                                                                                000000000051000                            
50001410201708112017081476040624999661       PES0000020000A141672017081112180022                                                
6024600020000172307604062499966100000000015                                                                                     
7PESE                                                                                000000000020000                            
50001510201708112017081417080821646039       PES0000080000A132922017081108420006                                                
6024600080000172271708082164603900150000084                                                                                     
7PESE                                                                                000000000080000                            
50001610201708122017081482162324665445       PES0000066000A162102017081212400045                                                
6024600066000172248216232466544500000000084                                                                                     
7PESE                                                                                000000000066000                            
50001710201708122017081482162314922935       PES0000066000A162102017081212400046                                                
6024600066000172248216231492293500000000090                                                                                     
7PESE                                                                                000000000066000                            
50001810201708122017081488080140119294       PES0000051000D002612017081211480062                                                
6024600051000172278808014011929400000000078                                                                                     
7PESE                                                                                000000000051000                            
50001910201708122017081482161419027727       PES0000051000A123592017081212090046                                                
6024600051000172248216141902772700000000058                                                                                     
7PESE                                                                                000000000051000                            
82017081400000100000190000009565000000000000000000000000000000000000000000019                                                   
9201708140000010000019000000956500000000000000000000000000000000000000000000019                                                 
