120170810PAGO FACIL               090060246MARITIMO SRL                                                                         
320170810000001MARITIMO SRL                                                                                                     
50000110201708092017081076042224761716       PES0000020000A070282017080907240003                                                
6024600020000172247604222476171600000000090                                                                                     
7PESE                                                                                000000000020000                            
50000210201708092017081076040238547769       PES0000020000A147332017080912420033                                                
6024600020000172287604023854776900000000042                                                                                     
7PESE                                                                                000000000020000                            
50000310201708092017081082160620492285       PES0000051000A211472017080918560054                                                
6024600051000172268216062049228500000000084                                                                                     
7PESE                                                                                000000000051000                            
50000410201708092017081088080129261317       PES0000051000A044492017080916550064                                                
6024600051000172278808012926131700000000063                                                                                     
7PESE                                                                                000000000051000                            
50000510201708092017081082161230025068       PES0000051000A139292017080911340108                                                
6024600051000172288216123002506800000000057                                                                                     
7PESE                                                                                000000000051000                            
50000610201708092017081017080821412008       PES0000080000M640062017080911580132                                                
6024600080000172261708082141200800150000021                                                                                     
7PESE                                                                                000000000080000                            
50000710201708092017081000949431053686       PES0000117000D005932017080912390230                                                
6024600117000172270094943105368600000000057                                                                                     
7PESE                                                                                000000000117000                            
82017081000000100000070000003900000000000000000000000000000000000000000000007                                                   
9201708100000010000007000000390000000000000000000000000000000000000000000000007                                                 
