120180412PAGO FACIL               090060246MARITIMO SRL                                                                         
320180412000001MARITIMO SRL                                                                                                     
50000110201804112018041212010917481126       PES0000042000A213412018041109490020                                                
6024600042000181011201091748112600000000015                                                                                     
7PESE                                                                                000000000042000                            
82018041200000100000010000000420000000000000000000000000000000000000000000001                                                   
9201804120000010000001000000042000000000000000000000000000000000000000000000001                                                 
