120171117PAGO FACIL               090060246MARITIMO SRL                                                                         
320171117000001MARITIMO SRL                                                                                                     
50000110201711162017111700959540682518       PES0000117000A181732017111617550064                                                
6024600117000173270095954068251800000000063                                                                                     
7PESE                                                                                000000000117000                            
82017111700000100000010000001170000000000000000000000000000000000000000000001                                                   
9201711170000010000001000000117000000000000000000000000000000000000000000000001                                                 
