120180611PAGO FACIL               090060246MARITIMO SRL                                                                         
320180611000001MARITIMO SRL                                                                                                     
50000110201806092018061176050527381899       PES0000020000A123582018060909120016                                                
6024600020000181647605052738189900050000000                                                                                     
7PESE                                                                                000000000020000                            
82018061100000100000010000000200000000000000000000000000000000000000000000001                                                   
9201806110000010000001000000020000000000000000000000000000000000000000000000001                                                 
