120170711PAGO FACIL               090060246MARITIMO SRL                                                                         
320170711000001MARITIMO SRL                                                                                                     
50000110201707102017071176040914323034       PES0000020000A047422017071018090033                                                
6024600020000171927604091432303400000000015                                                                                     
7PESE                                                                                000000000020000                            
50000210201707102017071100929238533002       PES0000117000A105312017071018260024                                                
6024600117000171980092923853300200000000021                                                                                     
7PESE                                                                                000000000117000                            
82017071100000100000020000001370000000000000000000000000000000000000000000002                                                   
9201707110000010000002000000137000000000000000000000000000000000000000000000002                                                 
