120170411PAGO FACIL               090060246MARITIMO SRL                                                                         
320170411000001MARITIMO SRL                                                                                                     
50000110201704102017041124010427144601       PES0000025000A145772017041012210033                                                
6024600025000171002401042714460100050000357                                                                                     
7PESE                                                                                000000000025000                            
50000210201704102017041124010427856598       PES0000025000A103092017041016450095                                                
6024600025000171002401042785659800050000758                                                                                     
7PESE                                                                                000000000025000                            
50000310201704102017041182142917067634       PES0000037000A143422017041014290022                                                
6024600037000171058214291706763400000000063                                                                                     
7PESE                                                                                000000000037000                            
50000410201704102017041182140429118346       PES0000049000M620942017041014170018                                                
6024600049000171058214042911834600000000015                                                                                     
7PESE                                                                                000000000049000                            
82017041100000100000040000001360000000000000000000000000000000000000000000004                                                   
9201704110000010000004000000136000000000000000000000000000000000000000000000004                                                 
