120171214PAGO FACIL               090060246MARITIMO SRL                                                                         
320171214000001MARITIMO SRL                                                                                                     
50000110201712132017121482180624699858       PES0000040500A170882017121217090009                                                
6024600040500173508218062469985800020000037                                                                                     
7PESE                                                                                000000000040500                            
50000210201712132017121482181618469932       PES0000040500A170882017121217490025                                                
6024600040500173528218161846993200020000042                                                                                     
7PESE                                                                                000000000040500                            
50000310201712132017121403050328728595       PES0000030000A228512017121316520030                                                
6024600030000173480305032872859500000000090                                                                                     
7PESE                                                                                000000000030000                            
50000410201712132017121403050425107600       PES0000030000A154252017121310530020                                                
6024600030000173480305042510760000000000090                                                                                     
7PESE                                                                                000000000030000                            
50000510201712132017121403050521536038       PES0000030000A170872017121312150125                                                
6024600030000173480305052153603800000000016                                                                                     
7PESE                                                                                000000000030000                            
50000610201712132017121482180232976056       PES0000030000A210972017121311390012                                                
6024600030000173528218023297605600020000042                                                                                     
7PESE                                                                                000000000030000                            
50000710201712132017121482180230799093       PES0000030000A229162017121314150018                                                
6024600030000173548218023079909300020000057                                                                                     
7PESE                                                                                000000000030000                            
50000810201712132017121485044614323034       PES0000113700A047422017121310170047                                                
6024600113700173538504461432303400000000078                                                                                     
7PESE                                                                                000000000113700                            
82017121400000100000080000003447000000000000000000000000000000000000000000008                                                   
9201712140000010000008000000344700000000000000000000000000000000000000000000008                                                 
