120180713PAGO FACIL               090060246MARITIMO SRL                                                                         
320180713000001MARITIMO SRL                                                                                                     
50000110201807122018071382201722093898       PES0000048200M620942018071114230032                                                
6024600048200181968220172209389800053000121                                                                                     
7PESE                                                                                000000000048200                            
50000210201807122018071376055531638868       PES0000025000A058662018071209530009                                                
6024600025000181967605553163886800050000400                                                                                     
7PESE                                                                                000000000025000                            
50000310201807122018071376055631663659       PES0000025000A058662018071209530008                                                
6024600025000181967605563166365900050000279                                                                                     
7PESE                                                                                000000000025000                            
50000410201807122018071382201723229134       PES0000048200A039052018071211510051                                                
6024600048200181938220172322913400053000063                                                                                     
7PESE                                                                                000000000048200                            
50000510201807122018071382200433641709       PES0000048200A228512018071210130005                                                
6024600048200181968220043364170900053000463                                                                                     
7PESE                                                                                000000000048200                            
50000610201807122018071382200626600713       PES0000048200A267282018071210190027                                                
6024600048200181968220062660071300053000442                                                                                     
7PESE                                                                                000000000048200                            
50000710201807122018071382201011692653       PES0000048200A265332018071215450032                                                
6024600048200181968220101169265300053000458                                                                                     
7PESE                                                                                000000000048200                            
50000810201807122018071382201205330085       PES0000048200A260682018071209340002                                                
6024600048200181968220120533008500053000415                                                                                     
7PESE                                                                                000000000048200                            
50000910201807122018071382201626419487       PES0000048200A167742018071210540007                                                
6024600048200181968220162641948700053000300                                                                                     
7PESE                                                                                000000000048200                            
50001010201807122018071396070137662625       PES0000099500A174972018071211290038                                                
6024600099500181959607013766262500000000042                                                                                     
7PESE                                                                                000000000099500                            
82018071300000100000100000004869000000000000000000000000000000000000000000010                                                   
9201807130000010000010000000486900000000000000000000000000000000000000000000010                                                 
