120170118PAGO FACIL               090060246MARITIMO SRL                                                                         
320170118000001MARITIMO SRL                                                                                                     
50000110201701172017011800952523072345       PES0000020000A159852017011720110076                                                
6024600020000170200095252307234500000000090                                                                                     
7PESE                                                                                000000000020000                            
50000210201701172017011882130112200962       PES0000029400A177442017011711480019                                                
6024600029400170188213011220096200000000084                                                                                     
7PESE                                                                                000000000029400                            
50000310201701172017011882130113267764       PES0000029400A090632017011717400105                                                
6024600029400170188213011326776400000000084                                                                                     
7PESE                                                                                000000000029400                            
50000410201701172017011882130117478149       PES0000029400A166542017011717390006                                                
6024600029400170188213011747814900000000084                                                                                     
7PESE                                                                                000000000029400                            
50000510201701172017011882130123527615       PES0000029400A131622017011711280009                                                
6024600029400170188213012352761500000000078                                                                                     
7PESE                                                                                000000000029400                            
50000610201701172017011882130126539252       PES0000029400A149522017011715000102                                                
6024600029400170188213012653925200000000000                                                                                     
7PESE                                                                                000000000029400                            
50000710201701172017011882130128427931       PES0000029400D004212017011714050310                                                
6024600029400170188213012842793100000000042                                                                                     
7PESE                                                                                000000000029400                            
50000810201701172017011882130129141267       PES0000029400A133842017011713430011                                                
6024600029400170188213012914126700000000063                                                                                     
7PESE                                                                                000000000029400                            
50000910201701172017011882130143740769       PES0000029400A084132017011719020012                                                
6024600029400170188213014374076900000000090                                                                                     
7PESE                                                                                000000000029400                            
50001010201701172017011882130145318770       PES0000029400A159952017011716470079                                                
6024600029400170188213014531877000000000021                                                                                     
7PESE                                                                                000000000029400                            
50001110201701172017011882130217407739       PES0000029400A166542017011717400007                                                
6024600029400170188213021740773900000000057                                                                                     
7PESE                                                                                000000000029400                            
50001210201701172017011882130225569997       PES0000029400D004572017011717490030                                                
6024600029400170188213022556999700000000063                                                                                     
7PESE                                                                                000000000029400                            
50001310201701172017011882130229894108       PES0000029400A121842017011711190008                                                
6024600029400170188213022989410800000000016                                                                                     
7PESE                                                                                000000000029400                            
50001410201701172017011882130231837258       PES0000029400A131622017011711270008                                                
6024600029400170188213023183725800000000063                                                                                     
7PESE                                                                                000000000029400                            
50001510201701172017011882130241429776       PES0000029400A170762017011710120019                                                
6024600029400170188213024142977600000000099                                                                                     
7PESE                                                                                000000000029400                            
50001610201701172017011829182129505100       PES0000033000A160602017011711030041                                                
6024600033000170202918212950510000000000079                                                                                     
7PESE                                                                                000000000033000                            
50001710201701172017011882130335314302       PES0000037800A159912017011710510085                                                
6024600037800170178213033531430200000000021                                                                                     
7PESE                                                                                000000000037800                            
50001810201701172017011882130332067147       PES0000037800A131622017011712090027                                                
6024600037800170188213033206714700000000015                                                                                     
7PESE                                                                                000000000037800                            
50001910201701172017011882130334217077       PES0000037800A115442017011715320033                                                
6024600037800170188213033421707700000000000                                                                                     
7PESE                                                                                000000000037800                            
50002010201701172017011882130334261969       PES0000037800D002512017011713140155                                                
6024600037800170188213033426196900000000063                                                                                     
7PESE                                                                                000000000037800                            
50002110201701172017011882130334750574       PES0000037800D001132017011712590088                                                
6024600037800170188213033475057400000000084                                                                                     
7PESE                                                                                000000000037800                            
50002210201701172017011882130337388896       PES0000037800A170872017011712590060                                                
6024600037800170188213033738889600000000036                                                                                     
7PESE                                                                                000000000037800                            
50002310201701172017011882130337557527       PES0000037800A090632017011716140022                                                
6024600037800170188213033755752700000000037                                                                                     
7PESE                                                                                000000000037800                            
50002410201701172017011882130427418137       PES0000037800A161982017011713240030                                                
6024600037800170188213042741813700000000084                                                                                     
7PESE                                                                                000000000037800                            
50002510201701172017011882130428454165       PES0000037800D004572017011717490031                                                
6024600037800170188213042845416500000000084                                                                                     
7PESE                                                                                000000000037800                            
50002610201701172017011882130430958560       PES0000037800A145492017011713540031                                                
6024600037800170188213043095856000000000021                                                                                     
7PESE                                                                                000000000037800                            
50002710201701172017011882130523313259       PES0000037800A090632017011715050180                                                
6024600037800170188213052331325900000000063                                                                                     
7PESE                                                                                000000000037800                            
50002810201701172017011882130813170201       PES0000037800A090632017011716210032                                                
6024600037800170188213081317020100000000042                                                                                     
7PESE                                                                                000000000037800                            
50002910201701172017011882130813554005       PES0000037800A052182017011718410070                                                
6024600037800170188213081355400500000000000                                                                                     
7PESE                                                                                000000000037800                            
50003010201701172017011882130814551902       PES0000037800A163672017011718450003                                                
6024600037800170188213081455190200000000078                                                                                     
7PESE                                                                                000000000037800                            
50003110201701172017011882130814733211       PES0000037800A144132017011710290059                                                
6024600037800170188213081473321100000000090                                                                                     
7PESE                                                                                000000000037800                            
50003210201701172017011882131423296099       PES0000037800A139082017011715400099                                                
6024600037800170188213142329609900000000015                                                                                     
7PESE                                                                                000000000037800                            
50003310201701172017011882131423313536       PES0000037800A172392017011717210072                                                
6024600037800170188213142331353600000000084                                                                                     
7PESE                                                                                000000000037800                            
50003410201701172017011882131713267586       PES0000037800A039002017011709230107                                                
6024600037800170188213171326758600000000042                                                                                     
7PESE                                                                                000000000037800                            
50003510201701172017011829181322624228       PES0000044000A043122017011711030076                                                
6024600044000170202918132262422800000000084                                                                                     
7PESE                                                                                000000000044000                            
50003610201701172017011829181508443235       PES0000044000A043122017011711010075                                                
6024600044000170202918150844323500000000058                                                                                     
7PESE                                                                                000000000044000                            
82017011800000100000360000012330000000000000000000000000000000000000000000036                                                   
9201701180000010000036000001233000000000000000000000000000000000000000000000036                                                 
