120170713PAGO FACIL               090060246MARITIMO SRL                                                                         
320170713000001MARITIMO SRL                                                                                                     
50000110201707122017071388080137283824       PES0000051000A101652017071210360081                                                
6024600051000171988808013728382400000000063                                                                                     
7PESE                                                                                000000000051000                            
50000210201707122017071388080132078167       PES0000051000A133922017071214440089                                                
6024600051000171998808013207816700000000021                                                                                     
7PESE                                                                                000000000051000                            
50000310201707122017071388080138088259       PES0000051000D003162017071212050110                                                
6024600051000171998808013808825900000000090                                                                                     
7PESE                                                                                000000000051000                            
50000410201707122017071300949435612832       PES0000117000D002682017071211440119                                                
6024600117000171990094943561283200000000015                                                                                     
7PESE                                                                                000000000117000                            
50000510201707122017071300949438749510       PES0000117000A800082017071211370057                                                
6024600117000171990094943874951000000000063                                                                                     
7PESE                                                                                000000000117000                            
82017071300000100000050000003870000000000000000000000000000000000000000000005                                                   
9201707130000010000005000000387000000000000000000000000000000000000000000000005                                                 
