120170119PAGO FACIL               090060246MARITIMO SRL                                                                         
320170119000001MARITIMO SRL                                                                                                     
50000110201701182017011982130128550368       PES0000029400A095592017011816170015                                                
6024600029400170188213012855036800000000042                                                                                     
7PESE                                                                                000000000029400                            
50000210201701182017011982130132482636       PES0000029400A161982017011816030073                                                
6024600029400170188213013248263600000000079                                                                                     
7PESE                                                                                000000000029400                            
50000310201701182017011982130134883842       PES0000029400A157062017011812410009                                                
6024600029400170188213013488384200000000063                                                                                     
7PESE                                                                                000000000029400                            
50000410201701182017011982130139600074       PES0000029400A171082017011810250002                                                
6024600029400170188213013960007400000000099                                                                                     
7PESE                                                                                000000000029400                            
50000510201701182017011982130140541654       PES0000029400A159912017011817290045                                                
6024600029400170188213014054165400000000084                                                                                     
7PESE                                                                                000000000029400                            
50000610201701182017011982130141742704       PES0000029400A158132017011818420024                                                
6024600029400170188213014174270400000000063                                                                                     
7PESE                                                                                000000000029400                            
50000710201701182017011982130220273097       PES0000029400A620312017011809170026                                                
6024600029400170188213022027309700000000000                                                                                     
7PESE                                                                                000000000029400                            
50000810201701182017011982130222388071       PES0000029400A136542017011811480062                                                
6024600029400170188213022238807100000000021                                                                                     
7PESE                                                                                000000000029400                            
50000910201701182017011982130226541685       PES0000029400A157062017011812400008                                                
6024600029400170188213022654168500000000079                                                                                     
7PESE                                                                                000000000029400                            
50001010201701182017011982130227621790       PES0000029400A095592017011816150014                                                
6024600029400170188213022762179000000000021                                                                                     
7PESE                                                                                000000000029400                            
50001110201701182017011982130229700582       PES0000029400A144122017011812550085                                                
6024600029400170188213022970058200000000084                                                                                     
7PESE                                                                                000000000029400                            
50001210201701182017011982130237557298       PES0000029400A161982017011816030074                                                
6024600029400170188213023755729800000000000                                                                                     
7PESE                                                                                000000000029400                            
50001310201701182017011982130240864515       PES0000029400A134992017011812020056                                                
6024600029400170188213024086451500000000021                                                                                     
7PESE                                                                                000000000029400                            
50001410201701182017011982130329758491       PES0000037800A163992017011819390049                                                
6024600037800170188213032975849100000000063                                                                                     
7PESE                                                                                000000000037800                            
50001510201701182017011982130330655287       PES0000037800A132762017011818410002                                                
6024600037800170188213033065528700000000021                                                                                     
7PESE                                                                                000000000037800                            
50001610201701182017011982130333422971       PES0000037800A141642017011819320064                                                
6024600037800170188213033342297100000000090                                                                                     
7PESE                                                                                000000000037800                            
50001710201701182017011982130334851048       PES0000037800A163992017011819410050                                                
6024600037800170188213033485104800000000063                                                                                     
7PESE                                                                                000000000037800                            
50001810201701182017011982130335410945       PES0000037800A170152017011810490072                                                
6024600037800170188213033541094500000000042                                                                                     
7PESE                                                                                000000000037800                            
50001910201701182017011982130335410990       PES0000037800A132762017011818430004                                                
6024600037800170188213033541099000000000090                                                                                     
7PESE                                                                                000000000037800                            
50002010201701182017011982130335621426       PES0000037800A620562017011814570109                                                
6024600037800170188213033562142600000000000                                                                                     
7PESE                                                                                000000000037800                            
50002110201701182017011982130394908315       PES0000037800A143682017011810240012                                                
6024600037800170188213039490831500000000021                                                                                     
7PESE                                                                                000000000037800                            
50002210201701182017011982130426148407       PES0000037800A150642017011819450070                                                
6024600037800170188213042614840700000000058                                                                                     
7PESE                                                                                000000000037800                            
50002310201701182017011982130426832734       PES0000037800A132762017011819350024                                                
6024600037800170188213042683273400000000036                                                                                     
7PESE                                                                                000000000037800                            
50002410201701182017011982130427417040       PES0000037800A170882017011819050076                                                
6024600037800170188213042741704000000000042                                                                                     
7PESE                                                                                000000000037800                            
50002510201701182017011982130524815159       PES0000037800A172392017011813190005                                                
6024600037800170188213052481515900000000000                                                                                     
7PESE                                                                                000000000037800                            
50002610201701182017011982130525601303       PES0000037800A142672017011811100089                                                
6024600037800170188213052560130300000000021                                                                                     
7PESE                                                                                000000000037800                            
50002710201701182017011982130716560611       PES0000037800A170882017011817240052                                                
6024600037800170188213071656061100000000084                                                                                     
7PESE                                                                                000000000037800                            
50002810201701182017011982130814318558       PES0000037800A620562017011814570108                                                
6024600037800170188213081431855800000000036                                                                                     
7PESE                                                                                000000000037800                            
50002910201701182017011982130814848058       PES0000037800A116192017011813060002                                                
6024600037800170188213081484805800000000058                                                                                     
7PESE                                                                                000000000037800                            
50003010201701182017011982131105494066       PES0000037800A049552017011819160053                                                
6024600037800170188213110549406600000000090                                                                                     
7PESE                                                                                000000000037800                            
50003110201701182017011982131231018957       PES0000037800A132762017011818420003                                                
6024600037800170188213123101895700000000042                                                                                     
7PESE                                                                                000000000037800                            
50003210201701182017011982131295437905       PES0000037800A052182017011819530039                                                
6024600037800170188213129543790500000000084                                                                                     
7PESE                                                                                000000000037800                            
50003310201701182017011982131327421368       PES0000037800A131622017011810220019                                                
6024600037800170188213132742136800000000015                                                                                     
7PESE                                                                                000000000037800                            
50003410201701182017011982131327894535       PES0000037800A162102017011816020110                                                
6024600037800170188213132789453500000000021                                                                                     
7PESE                                                                                000000000037800                            
50003510201701182017011982131422341876       PES0000037800A157942017011818290053                                                
6024600037800170188213142234187600000000037                                                                                     
7PESE                                                                                000000000037800                            
50003610201701182017011982131425127154       PES0000037800A142672017011811110090                                                
6024600037800170188213142512715400000000000                                                                                     
7PESE                                                                                000000000037800                            
50003710201701182017011982131520360148       PES0000037800A146392017011812500153                                                
6024600037800170188213152036014800000000079                                                                                     
7PESE                                                                                000000000037800                            
50003810201701182017011982131520468883       PES0000037800A159912017011817280044                                                
6024600037800170188213152046888300000000021                                                                                     
7PESE                                                                                000000000037800                            
50003910201701182017011982131521924263       PES0000037800A150642017011819460071                                                
6024600037800170188213152192426300000000000                                                                                     
7PESE                                                                                000000000037800                            
50004010201701182017011982131617981642       PES0000037800A166542017011820100014                                                
6024600037800170188213161798164200000000036                                                                                     
7PESE                                                                                000000000037800                            
50004110201701182017011982131618331325       PES0000037800A159952017011810530103                                                
6024600037800170188213161833132500000000078                                                                                     
7PESE                                                                                000000000037800                            
50004210201701182017011982132141669204       PES0000037800A160072017011812440057                                                
6024600037800170188213214166920400000000057                                                                                     
7PESE                                                                                000000000037800                            
50004310201701182017011982132243393830       PES0000037800A163672017011810530019                                                
6024600037800170188213224339383000000000000                                                                                     
7PESE                                                                                000000000037800                            
82017011900000100000430000015162000000000000000000000000000000000000000000043                                                   
9201701190000010000043000001516200000000000000000000000000000000000000000000043                                                 
