120170515PAGO FACIL               090060246MARITIMO SRL                                                                         
320170515000001MARITIMO SRL                                                                                                     
50000110201705122017051579110817707145       PES0000096500A172742017051214360026                                                
6024600096500171387911081770714500110000021                                                                                     
7PESE                                                                                000000000096500                            
82017051500000100000010000000965000000000000000000000000000000000000000000001                                                   
9201705150000010000001000000096500000000000000000000000000000000000000000000001                                                 
