120171211PAGO FACIL               090060246MARITIMO SRL                                                                         
320171211000001MARITIMO SRL                                                                                                     
50000110201712072017121103051133067758       PES0000030000A167842017120712240045                                                
6024600030000173470305113306775800000000099                                                                                     
7PESE                                                                                000000000030000                            
50000210201712072017121103050520878578       PES0000030000A167842017120712230044                                                
6024600030000173470305052087857800000000021                                                                                     
7PESE                                                                                000000000030000                            
50000310201712072017121182180816444102       PES0000040500A211102017120712130058                                                
6024600040500173478218081644410200020000057                                                                                     
7PESE                                                                                000000000040500                            
50000410201712072017121103050616444102       PES0000030000A211102017120712130059                                                
6024600030000173470305061644410200000000079                                                                                     
7PESE                                                                                000000000030000                            
50000510201712072017121103051712774819       PES0000030000A154252017120717360068                                                
6024600030000173410305171277481900000000099                                                                                     
7PESE                                                                                000000000030000                            
50000610201712072017121185043841068824       PES0000056800A116192017120717450071                                                
6024600056800173488504384106882400000000000                                                                                     
7PESE                                                                                000000000056800                            
50000710201712092017121103050229728254       PES0000030000A061862017120911540032                                                
6024600030000173480305022972825400000000090                                                                                     
7PESE                                                                                000000000030000                            
50000810201712092017121185044323724576       PES0000113700A124712017120919510029                                                
6024600113700173448504432372457600000000021                                                                                     
7PESE                                                                                000000000113700                            
82017121100000100000080000003610000000000000000000000000000000000000000000008                                                   
9201712110000010000008000000361000000000000000000000000000000000000000000000008                                                 
