120170718PAGO FACIL               090060246MARITIMO SRL                                                                         
320170718000001MARITIMO SRL                                                                                                     
50000110201707172017071876042135433140       PES0000020000A620562017071711470042                                                
6024600020000172037604213543314000000000015                                                                                     
7PESE                                                                                000000000020000                            
50000210201707172017071882160239786454       PES0000029000A095592017071718530008                                                
6024600029000172038216023978645400035000000                                                                                     
7PESE                                                                                000000000029000                            
50000310201707172017071882161617880639       PES0000048000A087612017071710400167                                                
6024600048000172018216161788063900030000015                                                                                     
7PESE                                                                                000000000048000                            
50000410201707172017071882160337257122       PES0000048000A095592017071718480006                                                
6024600048000172038216033725712200030000042                                                                                     
7PESE                                                                                000000000048000                            
50000510201707172017071882161004751551       PES0000048000A134992017071712050083                                                
6024600048000172038216100475155100030000015                                                                                     
7PESE                                                                                000000000048000                            
50000610201707172017071882160427417068       PES0000048000D002522017071718200120                                                
6024600048000172048216042741706800030000079                                                                                     
7PESE                                                                                000000000048000                            
50000710201707172017071882161618454225       PES0000048000A177672017071710030005                                                
6024600048000172048216161845422500030000000                                                                                     
7PESE                                                                                000000000048000                            
50000810201707172017071882162316370302       PES0000062000A095592017071718500007                                                
6024600062000172038216231637030200040000063                                                                                     
7PESE                                                                                000000000062000                            
50000910201707172017071800929240518376       PES0000117000D002632017071712440164                                                
6024600117000171980092924051837600000000063                                                                                     
7PESE                                                                                000000000117000                            
50001010201707172017071800939335592785       PES0000117000A196972017071720100013                                                
6024600117000171980093933559278500000000084                                                                                     
7PESE                                                                                000000000117000                            
50001110201707172017071800929234456641       PES0000117000A171892017071713340012                                                
6024600117000172040092923445664100000000021                                                                                     
7PESE                                                                                000000000117000                            
82017071800000100000110000007020000000000000000000000000000000000000000000011                                                   
9201707180000010000011000000702000000000000000000000000000000000000000000000011                                                 
