120170612PAGO FACIL               090060246MARITIMO SRL                                                                         
320170612000001MARITIMO SRL                                                                                                     
50000110201706092017061200939337618942       PES0000117000A087252017060920040060                                                
6024600117000171670093933761894200000000000                                                                                     
7PESE                                                                                000000000117000                            
50000210201706092017061200929241901091       PES0000117000A163972017060919230006                                                
6024600117000171650092924190109100000000036                                                                                     
7PESE                                                                                000000000117000                            
50000310201706092017061299250332573603       PES0000030000D007202017060921080300                                                
6024600030000171609925033257360300000000058                                                                                     
7PESE                                                                                000000000030000                            
50000410201706102017061279110328571497       PES0000096500A062262017060909500056                                                
6024600096500171667911032857149700110000084                                                                                     
7PESE                                                                                000000000096500                            
50000510201706102017061204010425628674       PES0000038500A043122017061012560070                                                
6024600038500171640401042562867400015000084                                                                                     
7PESE                                                                                000000000038500                            
82017061200000100000050000003990000000000000000000000000000000000000000000005                                                   
9201706120000010000005000000399000000000000000000000000000000000000000000000005                                                 
