120180116PAGO FACIL               090060246MARITIMO SRL                                                                         
320180116000001MARITIMO SRL                                                                                                     
50000110201801152018011683052529665389       PES0000080000A146922018011311010072                                                
6024600080000180138305252966538900000000000                                                                                     
7PESE                                                                                000000000080000                            
50000210201801152018011682180145318770       PES0000032000A133472018011512340110                                                
6024600032000180168218014531877000000000036                                                                                     
7PESE                                                                                000000000032000                            
50000310201801152018011682180116593075       PES0000032000M620092018011513250027                                                
6024600032000180178218011659307500000000084                                                                                     
7PESE                                                                                000000000032000                            
50000410201801152018011682180139913895       PES0000032000A211072018011515410043                                                
6024600032000180178218013991389500000000037                                                                                     
7PESE                                                                                000000000032000                            
50000510201801152018011682180140251215       PES0000032000A211002018011512060006                                                
6024600032000180178218014025121500000000000                                                                                     
7PESE                                                                                000000000032000                            
50000610201801152018011682180217374151       PES0000032000A210762018011514390043                                                
6024600032000180178218021737415100000000021                                                                                     
7PESE                                                                                000000000032000                            
50000710201801152018011682180230451469       PES0000032000A170152018011514050038                                                
6024600032000180178218023045146900000000084                                                                                     
7PESE                                                                                000000000032000                            
50000810201801152018011682180240663812       PES0000032000A211002018011512060005                                                
6024600032000180178218024066381200000000079                                                                                     
7PESE                                                                                000000000032000                            
50000910201801152018011682180431476958       PES0000042500A115442018011517370008                                                
6024600042500180178218043147695800000000000                                                                                     
7PESE                                                                                000000000042500                            
50001010201801152018011682180432425018       PES0000042500A200662018011511560036                                                
6024600042500180178218043242501800000000021                                                                                     
7PESE                                                                                000000000042500                            
50001110201801152018011682180440462679       PES0000042500A137312018011514210083                                                
6024600042500180178218044046267900000000042                                                                                     
7PESE                                                                                000000000042500                            
50001210201801152018011682180526778208       PES0000042500A061862018011521010072                                                
6024600042500180178218052677820800000000042                                                                                     
7PESE                                                                                000000000042500                            
50001310201801152018011682180527240319       PES0000042500A095412018011517040058                                                
6024600042500180178218052724031900000000042                                                                                     
7PESE                                                                                000000000042500                            
50001410201801152018011682180625562222       PES0000042500A090632018011518160053                                                
6024600042500180178218062556222200000000037                                                                                     
7PESE                                                                                000000000042500                            
50001510201801152018011682180722007230       PES0000042500A115442018011515210044                                                
6024600042500180178218072200723000000000042                                                                                     
7PESE                                                                                000000000042500                            
50001610201801152018011682180817339321       PES0000042500D001132018011513220034                                                
6024600042500180178218081733932100000000000                                                                                     
7PESE                                                                                000000000042500                            
50001710201801152018011682180913231247       PES0000042500A131622018011511530015                                                
6024600042500180178218091323124700000000084                                                                                     
7PESE                                                                                000000000042500                            
50001810201801152018011682181235165773       PES0000042500A115442018011515210045                                                
6024600042500180178218123516577300000000058                                                                                     
7PESE                                                                                000000000042500                            
50001910201801152018011682181423296099       PES0000042500A160072018011512330027                                                
6024600042500180178218142329609900000000078                                                                                     
7PESE                                                                                000000000042500                            
50002010201801152018011682181716593362       PES0000042500A160072018011512330028                                                
6024600042500180178218171659336200000000000                                                                                     
7PESE                                                                                000000000042500                            
82018011600000100000200000008140000000000000000000000000000000000000000000020                                                   
9201801160000010000020000000814000000000000000000000000000000000000000000000020                                                 
