120170815PAGO FACIL               090060246MARITIMO SRL                                                                         
320170815000001MARITIMO SRL                                                                                                     
50000110201708142017081582160232257856       PES0000032500A171962017081416480023                                                
6024600032500172278216023225785600000000000                                                                                     
7PESE                                                                                000000000032500                            
50000210201708142017081582160233951048       PES0000032500A140792017081414190006                                                
6024600032500172288216023395104800000000063                                                                                     
7PESE                                                                                000000000032500                            
50000310201708142017081582160523788368       PES0000051000A137312017081419260007                                                
6024600051000172268216052378836800000000016                                                                                     
7PESE                                                                                000000000051000                            
50000410201708142017081582161233297465       PES0000051000A137312017081419260008                                                
6024600051000172268216123329746500000000079                                                                                     
7PESE                                                                                000000000051000                            
50000510201708142017081582160334418801       PES0000051000A116192017081418360126                                                
6024600051000172288216033441880100000000079                                                                                     
7PESE                                                                                000000000051000                            
50000610201708142017081582160524415045       PES0000051000A141672017081417410050                                                
6024600051000172288216052441504500000000084                                                                                     
7PESE                                                                                000000000051000                            
50000710201708142017081582160620824714       PES0000051000A166862017081410190034                                                
6024600051000172288216062082471400000000021                                                                                     
7PESE                                                                                000000000051000                            
50000810201708142017081582160692022081       PES0000051000A141662017081409540012                                                
6024600051000172288216069202208100000000084                                                                                     
7PESE                                                                                000000000051000                            
50000910201708142017081582161230680352       PES0000051000A141662017081409540011                                                
6024600051000172288216123068035200000000084                                                                                     
7PESE                                                                                000000000051000                            
50001010201708142017081582161239786439       PES0000051000A171962017081418010033                                                
6024600051000172288216123978643900000000000                                                                                     
7PESE                                                                                000000000051000                            
50001110201708142017081582161520697364       PES0000051000A039002017081413520072                                                
6024600051000172288216152069736400000000063                                                                                     
7PESE                                                                                000000000051000                            
50001210201708142017081582161521447712       PES0000051000A166862017081410180033                                                
6024600051000172288216152144771200000000000                                                                                     
7PESE                                                                                000000000051000                            
50001310201708142017081588080143492058       PES0000051000A168262017081417170053                                                
6024600051000172298808014349205800000000042                                                                                     
7PESE                                                                                000000000051000                            
50001410201708142017081588080128557654       PES0000051000A133782017081409110051                                                
6024600051000172318808012855765400000000037                                                                                     
7PESE                                                                                000000000051000                            
50001510201708142017081588080125016534       PES0000051000A055532017081419420046                                                
6024600051000172328808012501653400000000063                                                                                     
7PESE                                                                                000000000051000                            
50001610201708142017081588080131982568       PES0000051000D002612017081411540082                                                
6024600051000172338808013198256800000000079                                                                                     
7PESE                                                                                000000000051000                            
50001710201708142017081517080917310134       PES0000080000A061432017081409280010                                                
6024600080000172261708091731013400150000084                                                                                     
7PESE                                                                                000000000080000                            
50001810201708142017081517080724945797       PES0000080000A168152017081418350140                                                
6024600080000172291708072494579700150000042                                                                                     
7PESE                                                                                000000000080000                            
82017081500000100000180000009390000000000000000000000000000000000000000000018                                                   
9201708150000010000018000000939000000000000000000000000000000000000000000000018                                                 
