120171013PAGO FACIL               090060246MARITIMO SRL                                                                         
320171013000001MARITIMO SRL                                                                                                     
50000110201710122017101382170911692653       PES0000051000A170822017101212400098                                                
6024600051000172908217091169265300000000000                                                                                     
7PESE                                                                                000000000051000                            
50000210201710122017101300959535354114       PES0000117000A171002017101215270073                                                
6024600117000172920095953535411400000000021                                                                                     
7PESE                                                                                000000000117000                            
50000310201710122017101379120917406879       PES0000171500A165912017101213240075                                                
6024600171500172907912091740687900000000037                                                                                     
7PESE                                                                                000000000171500                            
50000410201710122017101379120722971949       PES0000171500A047422017101210310022                                                
6024600171500172927912072297194900000000063                                                                                     
7PESE                                                                                000000000171500                            
82017101300000100000040000005110000000000000000000000000000000000000000000004                                                   
9201710130000010000004000000511000000000000000000000000000000000000000000000004                                                 
