120170418PAGO FACIL               090060246MARITIMO SRL                                                                         
320170418000001MARITIMO SRL                                                                                                     
50000110201704172017041824012530490383       PES0000030000A145772017041713410117                                                
6024600030000171092401253049038300050000000                                                                                     
7PESE                                                                                000000000030000                            
50000210201704172017041882143823334621       PES0000037000A120772017041711400070                                                
6024600037000171078214382333462100000000078                                                                                     
7PESE                                                                                000000000037000                            
50000310201704172017041882142626641735       PES0000037000A157942017041709050006                                                
6024600037000171088214262664173500000000015                                                                                     
7PESE                                                                                000000000037000                            
50000410201704172017041882142725708399       PES0000037000A039082017041711120092                                                
6024600037000171118214272570839900000000084                                                                                     
7PESE                                                                                000000000037000                            
50000510201704172017041882150524815159       PES0000048000A172392017041717260103                                                
6024600048000171138215052481515900030000163                                                                                     
7PESE                                                                                000000000048000                            
50000610201704172017041882140330777030       PES0000049000A159952017041710350009                                                
6024600049000171118214033077703000000000079                                                                                     
7PESE                                                                                000000000049000                            
50000710201704172017041882140427621873       PES0000049000A143422017041718250056                                                
6024600049000171118214042762187300000000021                                                                                     
7PESE                                                                                000000000049000                            
50000810201704172017041882140524428180       PES0000049000A143422017041717350006                                                
6024600049000171118214052442818000000000058                                                                                     
7PESE                                                                                000000000049000                            
50000910201704172017041882141623265772       PES0000049000A143422017041717350007                                                
6024600049000171118214162326577200000000021                                                                                     
7PESE                                                                                000000000049000                            
50001010201704172017041882152130379034       PES0000062000A123902017041712550064                                                
6024600062000171118215213037903400040000063                                                                                     
7PESE                                                                                000000000062000                            
82017041800000100000100000004470000000000000000000000000000000000000000000010                                                   
9201704180000010000010000000447000000000000000000000000000000000000000000000010                                                 
