120170111PAGO FACIL               090060246MARITIMO SRL                                                                         
320170111000001MARITIMO SRL                                                                                                     
50000110201701102017011182130425940382       PES0000037800A131622017011012380069                                                
6024600037800170178213042594038200000000058                                                                                     
7PESE                                                                                000000000037800                            
50000210201701102017011182130523378281       PES0000037800A133072017011018430002                                                
6024600037800170178213052337828100000000084                                                                                     
7PESE                                                                                000000000037800                            
82017011100000100000020000000756000000000000000000000000000000000000000000002                                                   
9201701110000010000002000000075600000000000000000000000000000000000000000000002                                                 
