120180717PAGO FACIL               090060246MARITIMO SRL                                                                         
320180717000001MARITIMO SRL                                                                                                     
50000110201807162018071782200230799562       PES0000034300A116192018071611060048                                                
6024600034300181968220023079956200032000578                                                                                     
7PESE                                                                                000000000034300                            
50000210201807162018071782200238829220       PES0000037500A170152018071615440035                                                
6024600037500182048220023882922000000000099                                                                                     
7PESE                                                                                000000000037500                            
50000310201807162018071782200340666223       PES0000048200A211102018071610030009                                                
6024600048200181968220034066622300053000557                                                                                     
7PESE                                                                                000000000048200                            
50000410201807162018071782200527418137       PES0000048200A231032018071614180067                                                
6024600048200181968220052741813700053000490                                                                                     
7PESE                                                                                000000000048200                            
50000510201807162018071782200817297696       PES0000048200A177672018071611120042                                                
6024600048200181968220081729769600053000590                                                                                     
7PESE                                                                                000000000048200                            
50000610201807162018071782201723122268       PES0000048200A177672018071611130043                                                
6024600048200181968220172312226800053000463                                                                                     
7PESE                                                                                000000000048200                            
50000710201807162018071782202735620705       PES0000068500A213112018071616060045                                                
6024600068500181968220273562070500043000590                                                                                     
7PESE                                                                                000000000068500                            
50000810201807162018071796070133184877       PES0000099500A216102018071616120011                                                
6024600099500181969607013318487700000000379                                                                                     
7PESE                                                                                000000000099500                            
82018071700000100000080000004326000000000000000000000000000000000000000000008                                                   
9201807170000010000008000000432600000000000000000000000000000000000000000000008                                                 
