120180712PAGO FACIL               090060246MARITIMO SRL                                                                         
320180712000001MARITIMO SRL                                                                                                     
50000110201807112018071282201529303772       PES0000048200A154172018071017220013                                                
6024600048200181968220152930377200053000221                                                                                     
7PESE                                                                                000000000048200                            
50000210201807112018071282200529163305       PES0000048200A154172018071017230014                                                
6024600048200181968220052916330500053000216                                                                                     
7PESE                                                                                000000000048200                            
50000310201807112018071282201530025024       PES0000048200A187832018071013010010                                                
6024600048200181968220153002502400053000284                                                                                     
7PESE                                                                                000000000048200                            
50000410201807112018071276051724598061       PES0000020000A211082018071012270043                                                
6024600020000181927605172459806100050000042                                                                                     
7PESE                                                                                000000000020000                            
50000510201807112018071282200722778775       PES0000048200A254692018071018570003                                                
6024600048200181968220072277877500053000221                                                                                     
7PESE                                                                                000000000048200                            
50000610201807112018071282200623479160       PES0000048200A210962018071108570006                                                
6024600048200181938220062347916000053000021                                                                                     
7PESE                                                                                000000000048200                            
50000710201807112018071201191134689712       PES0000150000A121512018071116390013                                                
6024600150000181980119113468971200000000084                                                                                     
7PESE                                                                                000000000150000                            
82018071200000100000070000004110000000000000000000000000000000000000000000007                                                   
9201807120000010000007000000411000000000000000000000000000000000000000000000007                                                 
