120180613PAGO FACIL               090060246MARITIMO SRL                                                                         
320180613000001MARITIMO SRL                                                                                                     
50000110201806122018061376051433003101       PES0000020000A131622018061212390029                                                
6024600020000181707605143300310100050000084                                                                                     
7PESE                                                                                000000000020000                            
82018061300000100000010000000200000000000000000000000000000000000000000000001                                                   
9201806130000010000001000000020000000000000000000000000000000000000000000000001                                                 
