120170818PAGO FACIL               090060246MARITIMO SRL                                                                         
320170818000001MARITIMO SRL                                                                                                     
50000110201708172017081876040335621133       PES0000020000A159912017081711230033                                                
6024600020000172317604033562113300000000042                                                                                     
7PESE                                                                                000000000020000                            
50000210201708172017081888080125959226       PES0000051000D001392017081717560094                                                
6024600051000172338808012595922600000000042                                                                                     
7PESE                                                                                000000000051000                            
50000310201708172017081888080113587027       PES0000051000D005942017081710150042                                                
6024600051000172368808011358702700000000037                                                                                     
7PESE                                                                                000000000051000                            
50000410201708172017081888080128499934       PES0000051000A103352017081711260015                                                
6024600051000172368808012849993400000000021                                                                                     
7PESE                                                                                000000000051000                            
50000510201708172017081888080130623386       PES0000051000A174972017081710490082                                                
6024600051000172368808013062338600000000090                                                                                     
7PESE                                                                                000000000051000                            
50000610201708172017081888080135869762       PES0000051000A136742017081709460014                                                
6024600051000172368808013586976200000000015                                                                                     
7PESE                                                                                000000000051000                            
50000710201708172017081888080139584438       PES0000051000A177922017081711020062                                                
6024600051000172368808013958443800000000099                                                                                     
7PESE                                                                                000000000051000                            
50000810201708172017081888080141711955       PES0000051000A181612017081717570062                                                
6024600051000172368808014171195500000000090                                                                                     
7PESE                                                                                000000000051000                            
50000910201708172017081888080143768239       PES0000051000A162932017081718150061                                                
6024600051000172368808014376823900000000015                                                                                     
7PESE                                                                                000000000051000                            
50001010201708172017081800959535493043       PES0000117000A211092017081713300013                                                
6024600117000172300095953549304300000000079                                                                                     
7PESE                                                                                000000000117000                            
82017081800000100000100000005450000000000000000000000000000000000000000000010                                                   
9201708180000010000010000000545000000000000000000000000000000000000000000000010                                                 
