120170511PAGO FACIL               090060246MARITIMO SRL                                                                         
320170511000001MARITIMO SRL                                                                                                     
50000110201705102017051124010236213929       PES0000030000M620412017051014350160                                                
6024600030000171302401023621392900050000542                                                                                     
7PESE                                                                                000000000030000                            
50000210201705102017051124010620367182       PES0000030000M620412017051015380170                                                
6024600030000171302401062036718200050000615                                                                                     
7PESE                                                                                000000000030000                            
50000310201705102017051124011336213953       PES0000030000M620412017051015130164                                                
6024600030000171302401133621395300050000000                                                                                     
7PESE                                                                                000000000030000                            
50000410201705102017051124011526842603       PES0000030000M620412017051011410063                                                
6024600030000171302401152684260300050000484                                                                                     
7PESE                                                                                000000000030000                            
50000510201705102017051182150121645860       PES0000032500A139082017051020110031                                                
6024600032500171308215012164586000000000079                                                                                     
7PESE                                                                                000000000032500                            
50000610201705102017051182150129359293       PES0000032500A170872017051014400001                                                
6024600032500171308215012935929300000000000                                                                                     
7PESE                                                                                000000000032500                            
50000710201705102017051182150234750890       PES0000032500A159912017051014520006                                                
6024600032500171308215023475089000000000084                                                                                     
7PESE                                                                                000000000032500                            
50000810201705102017051182150235410499       PES0000032500A090632017051017180041                                                
6024600032500171308215023541049900000000021                                                                                     
7PESE                                                                                000000000032500                            
50000910201705102017051182150238283546       PES0000032500A090632017051017170040                                                
6024600032500171308215023828354600000000000                                                                                     
7PESE                                                                                000000000032500                            
50001010201705102017051182150238935673       PES0000032500A061862017051013020035                                                
6024600032500171308215023893567300000000078                                                                                     
7PESE                                                                                000000000032500                            
50001110201705102017051182150523835648       PES0000051000A170822017051018090099                                                
6024600051000171308215052383564800000000000                                                                                     
7PESE                                                                                000000000051000                            
50001210201705102017051182150622723582       PES0000051000A061862017051020490002                                                
6024600051000171308215062272358200000000037                                                                                     
7PESE                                                                                000000000051000                            
50001310201705102017051182151230880136       PES0000051000A143422017051017100074                                                
6024600051000171308215123088013600000000000                                                                                     
7PESE                                                                                000000000051000                            
50001410201705102017051182151235910493       PES0000051000A131622017051011160059                                                
6024600051000171308215123591049300000000016                                                                                     
7PESE                                                                                000000000051000                            
50001510201705102017051182151328916742       PES0000051000A171932017051019520003                                                
6024600051000171308215132891674200000000084                                                                                     
7PESE                                                                                000000000051000                            
50001610201705102017051182151329148924       PES0000051000A171932017051019520002                                                
6024600051000171308215132914892400000000063                                                                                     
7PESE                                                                                000000000051000                            
50001710201705102017051182151812906106       PES0000051000A161982017051014490024                                                
6024600051000171308215181290610600000000057                                                                                     
7PESE                                                                                000000000051000                            
50001810201705102017051182152135168272       PES0000066000A167382017051011040056                                                
6024600066000171308215213516827200000000000                                                                                     
7PESE                                                                                000000000066000                            
50001910201705102017051182152225476626       PES0000066000A620992017051012390045                                                
6024600066000171308215222547662600000000000                                                                                     
7PESE                                                                                000000000066000                            
82017051100000100000190000008040000000000000000000000000000000000000000000019                                                   
9201705110000010000019000000804000000000000000000000000000000000000000000000019                                                 
