120180917PAGO FACIL               090060246MARITIMO SRL                                                                         
320180917000001MARITIMO SRL                                                                                                     
50000110201809142018091788110130457546       PES0000100000A150892018091410470028                                                
6024600100000182638811013045754600000000021                                                                                     
7PESE                                                                                000000000100000                            
50000210201809142018091788110128394924       PES0000100000A066532018091417500055                                                
6024600100000182648811012839492400000000078                                                                                     
7PESE                                                                                000000000100000                            
82018091700000100000020000002000000000000000000000000000000000000000000000002                                                   
9201809170000010000002000000200000000000000000000000000000000000000000000000002                                                 
