120180911PAGO FACIL               090060246MARITIMO SRL                                                                         
320180911000001MARITIMO SRL                                                                                                     
50000110201809102018091101201239445347       PES0000150000A252952018091016010021                                                
6024600150000182600120123944534700000000042                                                                                     
7PESE                                                                                000000000150000                            
82018091100000100000010000001500000000000000000000000000000000000000000000001                                                   
9201809110000010000001000000150000000000000000000000000000000000000000000000001                                                 
