120170918PAGO FACIL               090060246MARITIMO SRL                                                                         
320170918000001MARITIMO SRL                                                                                                     
50000110201709152017091817080820145284       PES0000095000A036952017091510180074                                                
6024600095000172641708082014528400000000099                                                                                     
7PESE                                                                                000000000095000                            
50000210201709152017091817080917724276       PES0000095000A044342017091511190013                                                
6024600095000172641708091772427600000000037                                                                                     
7PESE                                                                                000000000095000                            
50000310201709152017091800949439441431       PES0000117000A202512017091513400019                                                
6024600117000172650094943944143100000000037                                                                                     
7PESE                                                                                000000000117000                            
50000410201709152017091817080723208656       PES0000095000A128052017091516440022                                                
6024600095000172641708072320865600000000000                                                                                     
7PESE                                                                                000000000095000                            
50000510201709152017091817081014969553       PES0000095000D007322017091521270224                                                
6024600095000172631708101496955300000000084                                                                                     
7PESE                                                                                000000000095000                            
50000610201709152017091817080530741751       PES0000095000M640432017091511550076                                                
6024600095000172641708053074175100000000000                                                                                     
7PESE                                                                                000000000095000                            
50000710201709162017091817081111874101       PES0000095000A043642017091521030105                                                
6024600095000172641708111187410100000000042                                                                                     
7PESE                                                                                000000000095000                            
82017091800000100000070000006870000000000000000000000000000000000000000000007                                                   
9201709180000010000007000000687000000000000000000000000000000000000000000000007                                                 
