120180912PAGO FACIL               090060246MARITIMO SRL                                                                         
320180912000001MARITIMO SRL                                                                                                     
50000110201809112018091288110126383427       PES0000100000A039702018091117290028                                                
6024600100000182618811012638342700000000037                                                                                     
7PESE                                                                                000000000100000                            
50000210201809112018091201201239074782       PES0000150000A230372018091112480011                                                
6024600150000182600120123907478200000000037                                                                                     
7PESE                                                                                000000000150000                            
82018091200000100000020000002500000000000000000000000000000000000000000000002                                                   
9201809120000010000002000000250000000000000000000000000000000000000000000000002                                                 
