120180320PAGO FACIL               090060246MARITIMO SRL                                                                         
320180320000001MARITIMO SRL                                                                                                     
50000110201803192018032016014523904719       PES0000035000A167132018031917450021                                                
6024600035000180851601452390471900000000078                                                                                     
7PESE                                                                                000000000035000                            
82018032000000100000010000000350000000000000000000000000000000000000000000001                                                   
9201803200000010000001000000035000000000000000000000000000000000000000000000001                                                 
