120170724PAGO FACIL               090060246MARITIMO SRL                                                                         
320170724000001MARITIMO SRL                                                                                                     
50000110201707212017072400949417531878       PES0000117000A180282017072021060081                                                
6024600117000172070094941753187800000000063                                                                                     
7PESE                                                                                000000000117000                            
50000210201707212017072482160525041094       PES0000048000A151592017072113080029                                                
6024600048000172028216052504109400030000078                                                                                     
7PESE                                                                                000000000048000                            
50000310201707212017072482161327854488       PES0000048000A151592017072113070028                                                
6024600048000172068216132785448800030000021                                                                                     
7PESE                                                                                000000000048000                            
50000410201707212017072400929238480743       PES0000117000A166402017072114410131                                                
6024600117000172090092923848074300000000084                                                                                     
7PESE                                                                                000000000117000                            
50000510201707212017072482161329240484       PES0000048000A151592017072114420001                                                
6024600048000172038216132924048400030000021                                                                                     
7PESE                                                                                000000000048000                            
50000610201707222017072482160718343780       PES0000048000A179552017072209520018                                                
6024600048000172058216071834378000030000078                                                                                     
7PESE                                                                                000000000048000                            
82017072400000100000060000004260000000000000000000000000000000000000000000006                                                   
9201707240000010000006000000426000000000000000000000000000000000000000000000006                                                 
