120180628PAGO FACIL               090060246MARITIMO SRL                                                                         
320180628000001MARITIMO SRL                                                                                                     
50000110201806272018062882202622589739       PES0000068500A157942018062712440024                                                
6024600068500181848220262258973900043000090                                                                                     
7PESE                                                                                000000000068500                            
82018062800000100000010000000685000000000000000000000000000000000000000000001                                                   
9201806280000010000001000000068500000000000000000000000000000000000000000000001                                                 
