120180824PAGO FACIL               090060246MARITIMO SRL                                                                         
320180824000001MARITIMO SRL                                                                                                     
50000110201808232018082401191141803306       PES0000150000A276052018082311440013                                                
6024600150000182410119114180330600000000042                                                                                     
7PESE                                                                                000000000150000                            
82018082400000100000010000001500000000000000000000000000000000000000000000001                                                   
9201808240000010000001000000150000000000000000000000000000000000000000000000001                                                 
