120180821PAGO FACIL               090060246MARITIMO SRL                                                                         
320180821000001MARITIMO SRL                                                                                                     
50000110201808172018082188100129722056       PES0000060000A140702018081710120037                                                
6024600060000182368810012972205600000000042                                                                                     
7PESE                                                                                000000000060000                            
50000210201808172018082188100142768323       PES0000060000D002602018081716120191                                                
6024600060000182368810014276832300000000021                                                                                     
7PESE                                                                                000000000060000                            
50000310201808182018082101191141827422       PES0000150000A105312018081813280055                                                
6024600150000182360119114182742200000000090                                                                                     
7PESE                                                                                000000000150000                            
82018082100000100000030000002700000000000000000000000000000000000000000000003                                                   
9201808210000010000003000000270000000000000000000000000000000000000000000000003                                                 
