120161226PAGO FACIL               090060246MARITIMO SRL                                                                         
320161226000001MARITIMO SRL                                                                                                     
50000110201612232016122685030243463557       PES0000046500A620632016122211560019                                                
6024600046500163638503024346355700000000079                                                                                     
7PESE                                                                                000000000046500                            
50000210201612232016122685030828032357       PES0000072500A146692016122310350128                                                
6024600072500163638503082803235700000000042                                                                                     
7PESE                                                                                000000000072500                            
50000310201612232016122683040832383822       PES0000052500A139292016122312330105                                                
6024600052500163648304083238382200075000099                                                                                     
7PESE                                                                                000000000052500                            
50000410201612232016122683044336616620       PES0000052500A133472016122311050129                                                
6024600052500163658304433661662000075000084                                                                                     
7PESE                                                                                000000000052500                            
50000510201612232016122682131327284794       PES0000031500A139292016122313460003                                                
6024600031500163608213132728479400063000079                                                                                     
7PESE                                                                                000000000031500                            
50000610201612232016122629170729849370       PES0000075000A140082016122310180024                                                
6024600075000163652917072984937000000000084                                                                                     
7PESE                                                                                000000000075000                            
50000710201612232016122629170194531571       PES0000075000A140082016122310180025                                                
6024600075000163652917019453157100000000021                                                                                     
7PESE                                                                                000000000075000                            
50000810201612232016122682130523242580       PES0000031500D002582016122310550078                                                
6024600031500163648213052324258000063000037                                                                                     
7PESE                                                                                000000000031500                            
50000910201612232016122685030635621133       PES0000072500A177442016122309570002                                                
6024600072500163588503063562113300000000090                                                                                     
7PESE                                                                                000000000072500                            
50001010201612232016122685034420330127       PES0000093000A115442016122314320009                                                
6024600093000163608503442033012700000000099                                                                                     
7PESE                                                                                000000000093000                            
50001110201612232016122683044046738785       PES0000052500A163992016122320180031                                                
6024600052500163628304404673878500075000000                                                                                     
7PESE                                                                                000000000052500                            
50001210201612252016122618500523724576       PES0000080000A124712016122511540002                                                
6024600080000163621850052372457600200000058                                                                                     
7PESE                                                                                000000000080000                            
50001310201612252016122685034323724576       PES0000093000A124712016122511530001                                                
6024600093000163628503432372457600000000090                                                                                     
7PESE                                                                                000000000093000                            
82016122600000100000130000008280000000000000000000000000000000000000000000013                                                   
9201612260000010000013000000828000000000000000000000000000000000000000000000013                                                 
