120180126PAGO FACIL               090060246MARITIMO SRL                                                                         
320180126000001MARITIMO SRL                                                                                                     
50000110201801252018012600962014801990       PES0000025000A178242018012512280067                                                
6024600025000180260096201480199000000000063                                                                                     
7PESE                                                                                000000000025000                            
82018012600000100000010000000250000000000000000000000000000000000000000000001                                                   
9201801260000010000001000000025000000000000000000000000000000000000000000000001                                                 
