120180529PAGO FACIL               090060246MARITIMO SRL                                                                         
320180529000001MARITIMO SRL                                                                                                     
50000110201805282018052982190625107838       PES0000048200A159952018052816570055                                                
6024600048200181458219062510783800043000057                                                                                     
7PESE                                                                                000000000048200                            
50000210201805282018052982190433936125       PES0000048200A185132018052809430016                                                
6024600048200181478219043393612500043007679                                                                                     
7PESE                                                                                000000000048200                            
50000310201805282018052982190625957405       PES0000048200A146392018052812120096                                                
6024600048200181478219062595740500043007678                                                                                     
7PESE                                                                                000000000048200                            
50000410201805282018052982191428297301       PES0000048200A135792018052811510056                                                
6024600048200181478219142829730100043000479                                                                                     
7PESE                                                                                000000000048200                            
50000510201805282018052982190817214831       PES0000052500A131622018052811550029                                                
6024600052500181548219081721483100000000015                                                                                     
7PESE                                                                                000000000052500                            
82018052900000100000050000002453000000000000000000000000000000000000000000005                                                   
9201805290000010000005000000245300000000000000000000000000000000000000000000005                                                 
