120180725PAGO FACIL               090060246MARITIMO SRL                                                                         
320180725000001MARITIMO SRL                                                                                                     
50000110201807242018072576050433369268       PES0000025000A065832018072416280023                                                
6024600025000182127605043336926800000000084                                                                                     
7PESE                                                                                000000000025000                            
50000210201807242018072582200131476420       PES0000037500A159932018072412000018                                                
6024600037500182118220013147642000000000000                                                                                     
7PESE                                                                                000000000037500                            
50000310201807242018072582201334943162       PES0000053500A161042018072412100034                                                
6024600053500182068220133494316200000000057                                                                                     
7PESE                                                                                000000000053500                            
50000410201807242018072582201431583325       PES0000053500A161042018072412070031                                                
6024600053500182068220143158332500000000084                                                                                     
7PESE                                                                                000000000053500                            
50000510201807242018072582201431772483       PES0000053500A161042018072412100035                                                
6024600053500182068220143177248300000000042                                                                                     
7PESE                                                                                000000000053500                            
50000610201807242018072582201528729969       PES0000053500A161042018072412080032                                                
6024600053500182068220152872996900000000015                                                                                     
7PESE                                                                                000000000053500                            
50000710201807242018072582201624179129       PES0000053500A161042018072412080033                                                
6024600053500182068220162417912900000000078                                                                                     
7PESE                                                                                000000000053500                            
50000810201807242018072582201528382958       PES0000053500A171242018072416350020                                                
6024600053500182078220152838295800000000063                                                                                     
7PESE                                                                                000000000053500                            
50000910201807242018072582200820492285       PES0000053500A161042018072412060030                                                
6024600053500182088220082049228500000000000                                                                                     
7PESE                                                                                000000000053500                            
50001010201807242018072582201720755933       PES0000053500A161042018072412060029                                                
6024600053500182088220172075593300000000036                                                                                     
7PESE                                                                                000000000053500                            
50001110201807242018072582200723223071       PES0000053500A115442018072418440038                                                
6024600053500182108220072322307100000000015                                                                                     
7PESE                                                                                000000000053500                            
50001210201807242018072582200722716171       PES0000053500A178242018072409110006                                                
6024600053500182118220072271617100000000015                                                                                     
7PESE                                                                                000000000053500                            
50001310201807242018072582200820034200       PES0000053500D002492018072411380010                                                
6024600053500182118220082003420000000000037                                                                                     
7PESE                                                                                000000000053500                            
50001410201807242018072582200335900035       PES0000053500A171242018072416480026                                                
6024600053500182128220033590003500000000016                                                                                     
7PESE                                                                                000000000053500                            
50001510201807242018072582200625762213       PES0000053500A141662018072411380010                                                
6024600053500182128220062576221300000000058                                                                                     
7PESE                                                                                000000000053500                            
50001610201807242018072582201624999686       PES0000053500A141662018072411390011                                                
6024600053500182128220162499968600000000037                                                                                     
7PESE                                                                                000000000053500                            
50001710201807242018072582202737011941       PES0000072800A210952018072415460028                                                
6024600072800182128220273701194100000000057                                                                                     
7PESE                                                                                000000000072800                            
50001810201807242018072501181141846537       PES0000150000A252972018072420180070                                                
6024600150000182110118114184653700000000058                                                                                     
7PESE                                                                                000000000150000                            
82018072500000100000180000010343000000000000000000000000000000000000000000018                                                   
9201807250000010000018000001034300000000000000000000000000000000000000000000018                                                 
