120170927PAGO FACIL               090060246MARITIMO SRL                                                                         
320170927000001MARITIMO SRL                                                                                                     
50000110201709262017092779120626123202       PES0000145000A166862017092610050037                                                
6024600145000172757912062612320200265000015                                                                                     
7PESE                                                                                000000000145000                            
82017092700000100000010000001450000000000000000000000000000000000000000000001                                                   
9201709270000010000001000000145000000000000000000000000000000000000000000000001                                                 
