120170727PAGO FACIL               090060246MARITIMO SRL                                                                         
320170727000001MARITIMO SRL                                                                                                     
50000110201707262017072782160428729094       PES0000048000A179062017072611270046                                                
6024600048000172088216042872909400030000084                                                                                     
7PESE                                                                                000000000048000                            
50000210201707262017072788080128771455       PES0000051000D002612017072613220078                                                
6024600051000172138808012877145500000000063                                                                                     
7PESE                                                                                000000000051000                            
50000310201707262017072700949439619591       PES0000117000A096092017072612510020                                                
6024600117000172130094943961959100000000042                                                                                     
7PESE                                                                                000000000117000                            
50000410201707262017072700949435493043       PES0000117000A073672017072612420082                                                
6024600117000172140094943549304300000000016                                                                                     
7PESE                                                                                000000000117000                            
82017072700000100000040000003330000000000000000000000000000000000000000000004                                                   
9201707270000010000004000000333000000000000000000000000000000000000000000000004                                                 
