120170926PAGO FACIL               090060246MARITIMO SRL                                                                         
320170926000001MARITIMO SRL                                                                                                     
50000110201709252017092682170813605607       PES0000048000A140792017092518140003                                                
6024600048000172688217081360560700030000084                                                                                     
7PESE                                                                                000000000048000                            
50000210201709252017092679120532800743       PES0000145000A082002017092518130001                                                
6024600145000172737912053280074300265000015                                                                                     
7PESE                                                                                000000000145000                            
50000310201709252017092679120532800726       PES0000145000A082002017092511440107                                                
6024600145000172757912053280072600265000042                                                                                     
7PESE                                                                                000000000145000                            
82017092600000100000030000003380000000000000000000000000000000000000000000003                                                   
9201709260000010000003000000338000000000000000000000000000000000000000000000003                                                 
