120171128PAGO FACIL               090060246MARITIMO SRL                                                                         
320171128000001MARITIMO SRL                                                                                                     
50000110201711272017112803051135140798       PES0000025000A115442017112718120102                                                
6024600025000173330305113514079800000000037                                                                                     
7PESE                                                                                000000000025000                            
50000210201711272017112803050328048196       PES0000030000D002512017112711040014                                                
6024600030000173350305032804819600000000016                                                                                     
7PESE                                                                                000000000030000                            
50000310201711272017112803051132174564       PES0000030000A154252017112710090031                                                
6024600030000173350305113217456400000000084                                                                                     
7PESE                                                                                000000000030000                            
50000410201711272017112803051614801990       PES0000030000A178242017112709320026                                                
6024600030000173370305161480199000000000063                                                                                     
7PESE                                                                                000000000030000                            
82017112800000100000040000001150000000000000000000000000000000000000000000004                                                   
9201711280000010000004000000115000000000000000000000000000000000000000000000004                                                 
