120170928PAGO FACIL               090060246MARITIMO SRL                                                                         
320170928000001MARITIMO SRL                                                                                                     
50000110201709272017092800939326728567       PES0000117000A211032017092715570128                                                
6024600117000172770093932672856700000000000                                                                                     
7PESE                                                                                000000000117000                            
82017092800000100000010000001170000000000000000000000000000000000000000000001                                                   
9201709280000010000001000000117000000000000000000000000000000000000000000000001                                                 
