120170922PAGO FACIL               090060246MARITIMO SRL                                                                         
320170922000001MARITIMO SRL                                                                                                     
50000110201709212017092282170523788368       PES0000048000A170822017092119040011                                                
6024600048000172658217052378836800030000015                                                                                     
7PESE                                                                                000000000048000                            
50000210201709212017092282171233297465       PES0000048000A170822017092119040012                                                
6024600048000172658217123329746500030000078                                                                                     
7PESE                                                                                000000000048000                            
50000310201709212017092217081631418910       PES0000058000A167322017092115220068                                                
6024600058000172641708163141891000000000016                                                                                     
7PESE                                                                                000000000058000                            
50000410201709212017092217080434780817       PES0000095000A044342017092110010016                                                
6024600095000172641708043478081700000000063                                                                                     
7PESE                                                                                000000000095000                            
50000510201709212017092217080438922937       PES0000095000A116762017092117440003                                                
6024600095000172641708043892293700000000063                                                                                     
7PESE                                                                                000000000095000                            
50000610201709212017092217080724859237       PES0000095000M640432017092108210008                                                
6024600095000172641708072485923700000000016                                                                                     
7PESE                                                                                000000000095000                            
50000710201709212017092217080917974112       PES0000095000M640432017092109270012                                                
6024600095000172641708091797411200000000058                                                                                     
7PESE                                                                                000000000095000                            
50000810201709212017092217081013898625       PES0000095000A093482017092117360004                                                
6024600095000172641708101389862500000000058                                                                                     
7PESE                                                                                000000000095000                            
50000910201709212017092217081422022807       PES0000095000A093482017092117360005                                                
6024600095000172641708142202280700000000057                                                                                     
7PESE                                                                                000000000095000                            
82017092200000100000090000007240000000000000000000000000000000000000000000009                                                   
9201709220000010000009000000724000000000000000000000000000000000000000000000009                                                 
