120170424PAGO FACIL               090060246MARITIMO SRL                                                                         
320170424000001MARITIMO SRL                                                                                                     
50000110201704212017042482141430811002       PES0000049000A143422017042109360013                                                
6024600049000171118214143081100200000000079                                                                                     
7PESE                                                                                000000000049000                            
50000210201704212017042482150227027236       PES0000029000A087612017042111480011                                                
6024600029000171138215022702723600035000221                                                                                     
7PESE                                                                                000000000029000                            
50000310201704212017042482140523260214       PES0000049000A150642017042109460020                                                
6024600049000171118214052326021400000000042                                                                                     
7PESE                                                                                000000000049000                            
50000410201704212017042482150333356898       PES0000048000A144122017042112110135                                                
6024600048000171138215033335689800030000116                                                                                     
7PESE                                                                                000000000048000                            
50000510201704212017042482140812310587       PES0000049000A163992017042112520035                                                
6024600049000171118214081231058700000000042                                                                                     
7PESE                                                                                000000000049000                            
50000610201704212017042482142434750517       PES0000037000A171962017042110500025                                                
6024600037000171118214243475051700000000063                                                                                     
7PESE                                                                                000000000037000                            
50000710201704212017042482140427240083       PES0000049000A167742017042113140089                                                
6024600049000171118214042724008300000000037                                                                                     
7PESE                                                                                000000000049000                            
50000810201704212017042482142433367563       PES0000037000A143422017042110560002                                                
6024600037000171118214243336756300000000000                                                                                     
7PESE                                                                                000000000037000                            
50000910201704212017042482140428759782       PES0000049000A143422017042114110085                                                
6024600049000171118214042875978200000000084                                                                                     
7PESE                                                                                000000000049000                            
50001010201704212017042482142342782414       PES0000037000A145652017042110390053                                                
6024600037000171118214234278241400000000000                                                                                     
7PESE                                                                                000000000037000                            
50001110201704212017042482140234500955       PES0000049000A115442017042118290079                                                
6024600049000171118214023450095500000000042                                                                                     
7PESE                                                                                000000000049000                            
50001210201704212017042482143632237130       PES0000037000A158532017042117380006                                                
6024600037000171118214363223713000000000036                                                                                     
7PESE                                                                                000000000037000                            
50001310201704222017042482150716264920       PES0000048000D002522017042217300058                                                
6024600048000171138215071626492000030000500                                                                                     
7PESE                                                                                000000000048000                            
82017042400000100000130000005670000000000000000000000000000000000000000000013                                                   
9201704240000010000013000000567000000000000000000000000000000000000000000000013                                                 
