120171228PAGO FACIL               090060246MARITIMO SRL                                                                         
320171228000001MARITIMO SRL                                                                                                     
50000110201712272017122882180625569628       PES0000040500A119952017122712160058                                                
6024600040500173658218062556962800020000016                                                                                     
7PESE                                                                                000000000040500                            
50000210201712272017122885045726255384       PES0000113700A047422017122716570030                                                
6024600113700173658504572625538400000000000                                                                                     
7PESE                                                                                000000000113700                            
50000310201712272017122885046423958324       PES0000113700A177672017122719220044                                                
6024600113700180028504642395832400000000021                                                                                     
7PESE                                                                                000000000113700                            
82017122800000100000030000002679000000000000000000000000000000000000000000003                                                   
9201712280000010000003000000267900000000000000000000000000000000000000000000003                                                 
