120180921PAGO FACIL               090060246MARITIMO SRL                                                                         
320180921000001MARITIMO SRL                                                                                                     
50000110201809202018092188110128986069       PES0000100000L270372018092011390148                                                
6024600100000182708811012898606900000000042                                                                                     
7PESE                                                                                000000000100000                            
50000210201809202018092101201236926157       PES0000150000D004522018092019130100                                                
6024600150000182700120123692615700000000021                                                                                     
7PESE                                                                                000000000150000                            
82018092100000100000020000002500000000000000000000000000000000000000000000002                                                   
9201809210000010000002000000250000000000000000000000000000000000000000000000002                                                 
