120171024PAGO FACIL               090060246MARITIMO SRL                                                                         
320171024000001MARITIMO SRL                                                                                                     
50000110201710232017102482170144619302       PES0000032500A227212017102316590088                                                
6024600032500172988217014461930200000000063                                                                                     
7PESE                                                                                000000000032500                            
50000210201710232017102482170334942091       PES0000051000A210982017102313560046                                                
6024600051000172988217033494209100000000084                                                                                     
7PESE                                                                                000000000051000                            
50000310201710232017102482170620070066       PES0000051000A174682017102317440073                                                
6024600051000172988217062007006600000000099                                                                                     
7PESE                                                                                000000000051000                            
50000410201710232017102482170717769116       PES0000051000A087612017102311090025                                                
6024600051000172988217071776911600000000063                                                                                     
7PESE                                                                                000000000051000                            
50000510201710232017102482172318350306       PES0000066000A131622017102310260071                                                
6024600066000172978217231835030600000000021                                                                                     
7PESE                                                                                000000000066000                            
82017102400000100000050000002515000000000000000000000000000000000000000000005                                                   
9201710240000010000005000000251500000000000000000000000000000000000000000000005                                                 
