120180723PAGO FACIL               090060246MARITIMO SRL                                                                         
320180723000001MARITIMO SRL                                                                                                     
50000110201807202018072301191135588435       PES0000150000A168372018072011280005                                                
6024600150000182080119113558843500000000058                                                                                     
7PESE                                                                                000000000150000                            
50000210201807202018072382200335888531       PES0000053500A197112018072017340057                                                
6024600053500182078220033588853100000000090                                                                                     
7PESE                                                                                000000000053500                            
50000310201807202018072382201528041503       PES0000053500A123592018072012500040                                                
6024600053500182068220152804150300000000058                                                                                     
7PESE                                                                                000000000053500                            
50000410201807212018072301181141019632       PES0000150000A206382018072110290001                                                
6024600150000182060118114101963200000000079                                                                                     
7PESE                                                                                000000000150000                            
50000510201807212018072382200722898008       PES0000053500A115442018072116010035                                                
6024600053500182098220072289800800000000042                                                                                     
7PESE                                                                                000000000053500                            
82018072300000100000050000004605000000000000000000000000000000000000000000005                                                   
9201807230000010000005000000460500000000000000000000000000000000000000000000005                                                 
