120170523PAGO FACIL               090060246MARITIMO SRL                                                                         
320170523000001MARITIMO SRL                                                                                                     
50000110201705222017052388080131792547       PES0000045000A133922017052214510024                                                
6024600045000171438808013179254700060000021                                                                                     
7PESE                                                                                000000000045000                            
82017052300000100000010000000450000000000000000000000000000000000000000000001                                                   
9201705230000010000001000000045000000000000000000000000000000000000000000000001                                                 
