120170623PAGO FACIL               090060246MARITIMO SRL                                                                         
320170623000001MARITIMO SRL                                                                                                     
50000110201706222017062300939335493043       PES0000117000A161972017062216080070                                                
6024600117000171780093933549304300000000015                                                                                     
7PESE                                                                                000000000117000                            
82017062300000100000010000001170000000000000000000000000000000000000000000001                                                   
9201706230000010000001000000117000000000000000000000000000000000000000000000001                                                 
