120171025PAGO FACIL               090060246MARITIMO SRL                                                                         
320171025000001MARITIMO SRL                                                                                                     
50000110201710242017102582170716737879       PES0000051000A620612017102412290008                                                
6024600051000172988217071673787900000000057                                                                                     
7PESE                                                                                000000000051000                            
50000210201710242017102582170813601723       PES0000051000A039022017102411480007                                                
6024600051000172988217081360172300000000078                                                                                     
7PESE                                                                                000000000051000                            
50000310201710242017102582170912827101       PES0000051000A039032017102408370028                                                
6024600051000172988217091282710100000000099                                                                                     
7PESE                                                                                000000000051000                            
50000410201710242017102582172221444175       PES0000066000A210762017102409320024                                                
6024600066000172988217222144417500000000084                                                                                     
7PESE                                                                                000000000066000                            
82017102500000100000040000002190000000000000000000000000000000000000000000004                                                   
9201710250000010000004000000219000000000000000000000000000000000000000000000004                                                 
