120180827PAGO FACIL               090060246MARITIMO SRL                                                                         
320180827000001MARITIMO SRL                                                                                                     
50000110201808242018082701171136926157       PES0000150000D004532018082414390102                                                
6024600150000182430117113692615700000000015                                                                                     
7PESE                                                                                000000000150000                            
82018082700000100000010000001500000000000000000000000000000000000000000000001                                                   
9201808270000010000001000000150000000000000000000000000000000000000000000000001                                                 
