120180327PAGO FACIL               090060246MARITIMO SRL                                                                         
320180327000001MARITIMO SRL                                                                                                     
50000110201803262018032716012117920327       PES0000035000A213432018032619460075                                                
6024600035000180851601211792032700000000084                                                                                     
7PESE                                                                                000000000035000                            
50000210201803262018032716010743676111       PES0000035000A197232018032620040016                                                
6024600035000180861601074367611100000000000                                                                                     
7PESE                                                                                000000000035000                            
50000310201803262018032716011329841241       PES0000035000A197232018032618370119                                                
6024600035000180861601132984124100000000099                                                                                     
7PESE                                                                                000000000035000                            
50000410201803262018032716012412592731       PES0000035000A800042018032611470044                                                
6024600035000180861601241259273100000000000                                                                                     
7PESE                                                                                000000000035000                            
50000510201803262018032716013392864969       PES0000035000A800042018032608430007                                                
6024600035000180861601339286496900000000057                                                                                     
7PESE                                                                                000000000035000                            
50000610201803262018032716013739137607       PES0000035000D008092018032619140014                                                
6024600035000180861601373913760700000000000                                                                                     
7PESE                                                                                000000000035000                            
50000710201803262018032716014130626368       PES0000035000A172542018032608580045                                                
6024600035000180861601413062636800000000063                                                                                     
7PESE                                                                                000000000035000                            
50000810201803262018032716014327036569       PES0000035000A082892018032620260035                                                
6024600035000180861601432703656900000000042                                                                                     
7PESE                                                                                000000000035000                            
50000910201803262018032716014329639469       PES0000035000A141912018032615120009                                                
6024600035000180861601432963946900000000084                                                                                     
7PESE                                                                                000000000035000                            
50001010201803262018032716014428491548       PES0000035000A133742018032619160082                                                
6024600035000180861601442849154800000000099                                                                                     
7PESE                                                                                000000000035000                            
50001110201803262018032716014525837819       PES0000035000A163722018032612180006                                                
6024600035000180861601452583781900000000016                                                                                     
7PESE                                                                                000000000035000                            
50001210201803262018032716014720913403       PES0000035000A159942018032619040076                                                
6024600035000180861601472091340300000000021                                                                                     
7PESE                                                                                000000000035000                            
50001310201803262018032716014722327839       PES0000035000A139112018032620370064                                                
6024600035000180861601472232783900000000063                                                                                     
7PESE                                                                                000000000035000                            
50001410201803262018032716014822858030       PES0000035000A172542018032618180010                                                
6024600035000180861601482285803000000000084                                                                                     
7PESE                                                                                000000000035000                            
50001510201803262018032716015411600564       PES0000035000A141912018032613480038                                                
6024600035000180861601541160056400000000058                                                                                     
7PESE                                                                                000000000035000                            
50001610201803262018032716015610419868       PES0000035000A197232018032620040017                                                
6024600035000180861601561041986800000000000                                                                                     
7PESE                                                                                000000000035000                            
50001710201803262018032716015792600934       PES0000035000A163722018032612150004                                                
6024600035000180861601579260093400000000099                                                                                     
7PESE                                                                                000000000035000                            
50001810201803262018032716016413675048       PES0000035000D003382018032617110093                                                
6024600035000180861601641367504800000000058                                                                                     
7PESE                                                                                000000000035000                            
50001910201803262018032716016529232318       PES0000035000A178212018032609560006                                                
6024600035000180861601652923231800000000015                                                                                     
7PESE                                                                                000000000035000                            
50002010201803262018032716016637505503       PES0000035000A800072018032611340084                                                
6024600035000180861601663750550300000000000                                                                                     
7PESE                                                                                000000000035000                            
50002110201803262018032716016933848500       PES0000035000A164372018032620190034                                                
6024600035000180861601693384850000000000079                                                                                     
7PESE                                                                                000000000035000                            
50002210201803262018032716016934421664       PES0000035000D008092018032619150015                                                
6024600035000180861601693442166400000000000                                                                                     
7PESE                                                                                000000000035000                            
50002310201803262018032716017131342996       PES0000035000A800072018032611340085                                                
6024600035000180861601713134299600000000084                                                                                     
7PESE                                                                                000000000035000                            
50002410201803262018032716017229419533       PES0000035000A164372018032620170033                                                
6024600035000180861601722941953300000000078                                                                                     
7PESE                                                                                000000000035000                            
50002510201803262018032716017525565335       PES0000035000D007502018032620320072                                                
6024600035000180861601752556533500000000021                                                                                     
7PESE                                                                                000000000035000                            
50002610201803262018032716017622620912       PES0000035000A172542018032618180009                                                
6024600035000180861601762262091200000000021                                                                                     
7PESE                                                                                000000000035000                            
50002710201803262018032716017622728894       PES0000035000D004472018032618170093                                                
6024600035000180861601762272889400000000042                                                                                     
7PESE                                                                                000000000035000                            
50002810201803262018032716019222062071       PES0000035000A800082018032609120012                                                
6024600035000180861601922206207100000000099                                                                                     
7PESE                                                                                000000000035000                            
50002910201803262018032716019228300873       PES0000035000A107092018032618030074                                                
6024600035000180861601922830087300000000090                                                                                     
7PESE                                                                                000000000035000                            
50003010201803262018032716019442133882       PES0000035000A213432018032619520080                                                
6024600035000180861601944213388200000000084                                                                                     
7PESE                                                                                000000000035000                            
82018032700000100000300000010500000000000000000000000000000000000000000000030                                                   
9201803270000010000030000001050000000000000000000000000000000000000000000000030                                                 
