120170721PAGO FACIL               090060246MARITIMO SRL                                                                         
320170721000001MARITIMO SRL                                                                                                     
50000110201707202017072182160138607477       PES0000029000A162052017072009480005                                                
6024600029000172068216013860747700035000090                                                                                     
7PESE                                                                                000000000029000                            
50000210201707202017072182160140884927       PES0000029000A157062017072015590081                                                
6024600029000172078216014088492700035000099                                                                                     
7PESE                                                                                000000000029000                            
50000310201707202017072182160220036966       PES0000029000A157062017072012380141                                                
6024600029000172088216022003696600035000057                                                                                     
7PESE                                                                                000000000029000                            
50000410201707202017072182160230229070       PES0000029000A154252017072010290029                                                
6024600029000172088216023022907000035000058                                                                                     
7PESE                                                                                000000000029000                            
50000510201707202017072182161813616111       PES0000048000M620152017072014490015                                                
6024600048000172018216181361611100030000036                                                                                     
7PESE                                                                                000000000048000                            
50000610201707202017072182160621503635       PES0000048000A131622017072012010019                                                
6024600048000172028216062150363500030000063                                                                                     
7PESE                                                                                000000000048000                            
82017072100000100000060000002120000000000000000000000000000000000000000000006                                                   
9201707210000010000006000000212000000000000000000000000000000000000000000000006                                                 
