120171026PAGO FACIL               090060246MARITIMO SRL                                                                         
320171026000001MARITIMO SRL                                                                                                     
50000110201710252017102682170218052742       PES0000032500A170142017102519560048                                                
6024600032500172988217021805274200000000078                                                                                     
7PESE                                                                                000000000032500                            
50000210201710252017102682170234882491       PES0000032500A170142017102519560047                                                
6024600032500172988217023488249100000000078                                                                                     
7PESE                                                                                000000000032500                            
50000310201710252017102682170523312087       PES0000051000A136542017102519130050                                                
6024600051000172988217052331208700000000021                                                                                     
7PESE                                                                                000000000051000                            
50000410201710252017102682170620369715       PES0000051000A211102017102510580015                                                
6024600051000172988217062036971500000000042                                                                                     
7PESE                                                                                000000000051000                            
50000510201710252017102682171425476626       PES0000051000A115442017102519490018                                                
6024600051000172988217142547662600000000063                                                                                     
7PESE                                                                                000000000051000                            
50000610201710252017102679120724056087       PES0000171500A620952017102510520173                                                
6024600171500173007912072405608700000000063                                                                                     
7PESE                                                                                000000000171500                            
50000710201710252017102679120822995419       PES0000171500A163542017102519220023                                                
6024600171500173007912082299541900000000021                                                                                     
7PESE                                                                                000000000171500                            
82017102600000100000070000005610000000000000000000000000000000000000000000007                                                   
9201710260000010000007000000561000000000000000000000000000000000000000000000007                                                 
