120170829PAGO FACIL               090060246MARITIMO SRL                                                                         
320170829000001MARITIMO SRL                                                                                                     
50000110201708282017082917080822244172       PES0000080000A129322017082811120047                                                
6024600080000172471708082224417200150000090                                                                                     
7PESE                                                                                000000000080000                            
50000210201708282017082900939339448023       PES0000117000A171352017082818590024                                                
6024600117000172470093933944802300000000084                                                                                     
7PESE                                                                                000000000117000                            
50000310201708282017082900949439934822       PES0000117000A171352017082818160011                                                
6024600117000172470094943993482200000000000                                                                                     
7PESE                                                                                000000000117000                            
50000410201708282017082979120724266324       PES0000145000A621142017082809130016                                                
6024600145000172417912072426632400265000000                                                                                     
7PESE                                                                                000000000145000                            
82017082900000100000040000004590000000000000000000000000000000000000000000004                                                   
9201708290000010000004000000459000000000000000000000000000000000000000000000004                                                 
