120171020PAGO FACIL               090060246MARITIMO SRL                                                                         
320171020000001MARITIMO SRL                                                                                                     
50000110201710192017102082171231154599       PES0000051000A179062017101918150027                                                
6024600051000172988217123115459900000000037                                                                                     
7PESE                                                                                000000000051000                            
50000210201710192017102000959538629372       PES0000117000A211022017101916510086                                                
6024600117000172920095953862937200000000036                                                                                     
7PESE                                                                                000000000117000                            
50000310201710192017102079120917707145       PES0000171500A187832017101908520006                                                
6024600171500172957912091770714500000000084                                                                                     
7PESE                                                                                000000000171500                            
82017102000000100000030000003395000000000000000000000000000000000000000000003                                                   
9201710200000010000003000000339500000000000000000000000000000000000000000000003                                                 
