120180427PAGO FACIL               090060246MARITIMO SRL                                                                         
320180427000001MARITIMO SRL                                                                                                     
50000110201804262018042782190526049541       PES0000039000A095412018042615450004                                                
6024600039000181208219052604954100060007342                                                                                     
7PESE                                                                                000000000039000                            
50000210201804262018042782191425958086       PES0000039000A174682018042614050008                                                
6024600039000181208219142595808600060007378                                                                                     
7PESE                                                                                000000000039000                            
50000310201804262018042782191523502888       PES0000039000A179062018042610020087                                                
6024600039000181208219152350288800060007321                                                                                     
7PESE                                                                                000000000039000                            
50000410201804262018042782191617510625       PES0000039000A166862018042612430025                                                
6024600039000181208219161751062500060007399                                                                                     
7PESE                                                                                000000000039000                            
50000510201804262018042782192236382437       PES0000059000A228522018042616420084                                                
6024600059000181208219223638243700050007363                                                                                     
7PESE                                                                                000000000059000                            
50000610201804262018042782192320867428       PES0000059000A211042018042612330032                                                
6024600059000181208219232086742800050007390                                                                                     
7PESE                                                                                000000000059000                            
50000710201804262018042782192333297465       PES0000059000A137312018042619570022                                                
6024600059000181208219233329746500050007337                                                                                     
7PESP                                                                                000000000059000                            
82018042700000100000070000003330000000000000000000000000000000000000000000007                                                   
9201804270000010000007000000333000000000000000000000000000000000000000000000007                                                 
