120170420PAGO FACIL               090060246MARITIMO SRL                                                                         
320170420000001MARITIMO SRL                                                                                                     
50000110201704192017042082150224248174       PES0000029000A132762017041907430021                                                
6024600029000171138215022424817400035000300                                                                                     
7PESE                                                                                000000000029000                            
50000210201704192017042082142820581328       PES0000037000A146392017041912130048                                                
6024600037000171118214282058132800000000079                                                                                     
7PESE                                                                                000000000037000                            
50000310201704192017042082143112130865       PES0000037000A039032017041911300015                                                
6024600037000171118214311213086500000000063                                                                                     
7PESE                                                                                000000000037000                            
50000410201704192017042082143443040516       PES0000037000A141662017041911440048                                                
6024600037000171118214344304051600000000015                                                                                     
7PESE                                                                                000000000037000                            
50000510201704192017042082144114832053       PES0000037000A039032017041911300014                                                
6024600037000171118214411483205300000000016                                                                                     
7PESE                                                                                000000000037000                            
50000610201704192017042082140622024442       PES0000049000D002492017041913350056                                                
6024600049000171118214062202444200000000016                                                                                     
7PESE                                                                                000000000049000                            
50000710201704192017042082152127417684       PES0000062000A174682017041914520099                                                
6024600062000171138215212741768400040000115                                                                                     
7PESE                                                                                000000000062000                            
82017042000000100000070000002880000000000000000000000000000000000000000000007                                                   
9201704200000010000007000000288000000000000000000000000000000000000000000000007                                                 
