120170824PAGO FACIL               090060246MARITIMO SRL                                                                         
320170824000001MARITIMO SRL                                                                                                     
50000110201708232017082476040623657064       PES0000020000A159952017082315500089                                                
6024600020000172377604062365706400000000078                                                                                     
7PESE                                                                                000000000020000                            
50000210201708232017082476040624907291       PES0000020000A187832017082311150015                                                
6024600020000172377604062490729100000000090                                                                                     
7PESE                                                                                000000000020000                            
50000310201708232017082417080629833120       PES0000080000A165322017082310360021                                                
6024600080000172361708062983312000150000084                                                                                     
7PESE                                                                                000000000080000                            
50000410201708232017082417080820385971       PES0000080000A146592017082314280001                                                
6024600080000172421708082038597100150000063                                                                                     
7PESE                                                                                000000000080000                            
82017082400000100000040000002000000000000000000000000000000000000000000000004                                                   
9201708240000010000004000000200000000000000000000000000000000000000000000000004                                                 
