120180326PAGO FACIL               090060246MARITIMO SRL                                                                         
320180326000001MARITIMO SRL                                                                                                     
50000110201803232018032616015411731842       PES0000035000A164362018032309390048                                                
6024600035000180821601541173184200000000058                                                                                     
7PESE                                                                                000000000035000                            
50000210201803232018032616011725863376       PES0000035000A172542018032310540001                                                
6024600035000180861601172586337600000000042                                                                                     
7PESE                                                                                000000000035000                            
50000310201803232018032688080236723155       PES0000030000A189042018032312000061                                                
6024600030000180848808023672315500000000084                                                                                     
7PESE                                                                                000000000030000                            
50000410201803232018032616010252358787       PES0000017500A163722018032312470030                                                
6024600017500180881601025235878700000000058                                                                                     
7PESE                                                                                000000000017500                            
50000510201803232018032688080236343726       PES0000030000A189042018032313550055                                                
6024600030000180848808023634372600000000021                                                                                     
7PESE                                                                                000000000030000                            
50000610201803232018032616014231334638       PES0000035000A171122018032310500001                                                
6024600035000180861601423133463800000000036                                                                                     
7PESE                                                                                000000000035000                            
50000710201803232018032688080234221299       PES0000030000L270372018032309349047                                                
6024600030000180848808023422129900000000057                                                                                     
7PESE                                                                                000000000030000                            
50000810201803242018032616013936604808       PES0000035000A125422018032412080020                                                
6024600035000180831601393660480800000000090                                                                                     
7PESE                                                                                000000000035000                            
50000910201803242018032616010251555357       PES0000017500A125422018032412080021                                                
6024600017500180831601025155535700000000084                                                                                     
7PESE                                                                                000000000017500                            
82018032600000100000090000002650000000000000000000000000000000000000000000009                                                   
9201803260000010000009000000265000000000000000000000000000000000000000000000009                                                 
