120180720PAGO FACIL               090060246MARITIMO SRL                                                                         
320180720000001MARITIMO SRL                                                                                                     
50000110201807192018072082201529314676       PES0000053500A187832018071913100042                                                
6024600048200181968220152931467600053000715                                                                                     
7PESE                                                                                000000000053500                            
50000210201807192018072082200433936125       PES0000053500A185132018071914360065                                                
6024600053500182058220043393612500000000063                                                                                     
7PESE                                                                                000000000053500                            
50000310201807192018072082200527621733       PES0000053500A039032018071912280016                                                
6024600053500182058220052762173300000000021                                                                                     
7PESE                                                                                000000000053500                            
50000410201807192018072082200334217917       PES0000053500A211462018071918460032                                                
6024600053500182078220033421791700000000057                                                                                     
7PESE                                                                                000000000053500                            
50000510201807192018072082201625686203       PES0000053500A166862018071918480022                                                
6024600053500182078220162568620300000000021                                                                                     
7PESE                                                                                000000000053500                            
82018072000000100000050000002675000000000000000000000000000000000000000000005                                                   
9201807200000010000005000000267500000000000000000000000000000000000000000000005                                                 
