120170120PAGO FACIL               090060246MARITIMO SRL                                                                         
320170120000001MARITIMO SRL                                                                                                     
50000110201701192017012029181414281859       PES0000044000A145652017011913530031                                                
6024600044000170202918141428185900000000084                                                                                     
7PESE                                                                                000000000044000                            
50000210201701192017012029181634053897       PES0000044000A170822017011916180051                                                
6024600044000170202918163405389700000000084                                                                                     
7PESE                                                                                000000000044000                            
50000310201701192017012029181821574477       PES0000044000A179552017011917490029                                                
6024600044000170202918182157447700000000015                                                                                     
7PESE                                                                                000000000044000                            
82017012000000100000030000001320000000000000000000000000000000000000000000003                                                   
9201701200000010000003000000132000000000000000000000000000000000000000000000003                                                 
