120170825PAGO FACIL               090060246MARITIMO SRL                                                                         
320170825000001MARITIMO SRL                                                                                                     
50000110201708242017082576044329416186       PES0000010000L220242017082409291106                                                
6024600010000172377604432941618600000000057                                                                                     
7PESE                                                                                000000000010000                            
50000210201708242017082576040529003976       PES0000020000A100032017082411530063                                                
6024600020000172377604052900397600000000036                                                                                     
7PESE                                                                                000000000020000                            
50000310201708242017082599310134462758       PES0000060000A144802017082417190014                                                
6024600060000172439931013446275800000000016                                                                                     
7PESE                                                                                000000000060000                            
50000410201708242017082517080629288104       PES0000080000A152832017082419030041                                                
6024600080000172431708062928810400150000063                                                                                     
7PESE                                                                                000000000080000                            
50000510201708242017082579120917818151       PES0000145000A621142017082409300020                                                
6024600145000172417912091781815100265000078                                                                                     
7PESE                                                                                000000000145000                            
82017082500000100000050000003150000000000000000000000000000000000000000000005                                                   
9201708250000010000005000000315000000000000000000000000000000000000000000000005                                                 
