120180928PAGO FACIL               090060246MARITIMO SRL                                                                         
320180928000001MARITIMO SRL                                                                                                     
50000110201809272018092805010422577083       PES0000035000A620522018092710550056                                                
6024600035000182700501042257708300100000063                                                                                     
7PESE                                                                                000000000035000                            
50000210201809272018092805011218472451       PES0000035000A620522018092710540055                                                
6024600035000182700501121847245100100000063                                                                                     
7PESE                                                                                000000000035000                            
50000310201809272018092805011126099933       PES0000035000A620522018092711010058                                                
6024600035000182730501112609993300100007415                                                                                     
7PESE                                                                                000000000035000                            
50000410201809272018092888110134331498       PES0000100000A216092018092718400068                                                
6024600100000182748811013433149800000000084                                                                                     
7PESE                                                                                000000000100000                            
82018092800000100000040000002050000000000000000000000000000000000000000000004                                                   
9201809280000010000004000000205000000000000000000000000000000000000000000000004                                                 
