120180625PAGO FACIL               090060246MARITIMO SRL                                                                         
320180625000001MARITIMO SRL                                                                                                     
50000110201806222018062582200238395777       PES0000030000A095412018062209390016                                                
6024600030000181738220023839577700043000621                                                                                     
7PESE                                                                                000000000030000                            
50000210201806222018062582200721571162       PES0000041800A039052018062210380045                                                
6024600041800181738220072157116200064000757                                                                                     
7PESE                                                                                000000000041800                            
50000310201806222018062582200529350895       PES0000041800A039052018062210290040                                                
6024600041800181738220052935089500064000515                                                                                     
7PESE                                                                                000000000041800                            
50000410201806222018062582201528140796       PES0000041800A039052018062210290039                                                
6024600041800181738220152814079600064000500                                                                                     
7PESE                                                                                000000000041800                            
50000510201806222018062588100128772008       PES0000060000A153592018062209390011                                                
6024600060000181798810012877200800000000057                                                                                     
7PESE                                                                                000000000060000                            
50000610201806222018062582200625429573       PES0000041800A165912018062212520033                                                
6024600041800181738220062542957300064000763                                                                                     
7PESE                                                                                000000000041800                            
50000710201806222018062582200817100149       PES0000041800A092352018062211290024                                                
6024600041800181738220081710014900064000179                                                                                     
7PESE                                                                                000000000041800                            
50000810201806222018062582200235468454       PES0000030000A231032018062214520059                                                
6024600030000181738220023546845400043000258                                                                                     
7PESE                                                                                000000000030000                            
50000910201806222018062582200133453179       PES0000030000A231032018062214520060                                                
6024600030000181738220013345317900043000263                                                                                     
7PESE                                                                                000000000030000                            
50001010201806222018062582200220215017       PES0000030000A170872018062214510064                                                
6024600030000181738220022021501700043000742                                                                                     
7PESE                                                                                000000000030000                            
50001110201806222018062582201594159417       PES0000041800A171242018062216100071                                                
6024600041800181738220159415941700064000757                                                                                     
7PESE                                                                                000000000041800                            
50001210201806222018062588100127796609       PES0000060000A108532018062217080090                                                
6024600060000181798810012779660900000000099                                                                                     
7PESP                                                                                000000000060000                            
50001310201806222018062582201333788826       PES0000041800A202592018062217230094                                                
6024600041800181738220133378882600064000615                                                                                     
7PESE                                                                                000000000041800                            
50001410201806222018062582200528570417       PES0000041800A170882018062217200071                                                
6024600041800181738220052857041700064000763                                                                                     
7PESE                                                                                000000000041800                            
50001510201806222018062582201529593898       PES0000041800A167742018062216250058                                                
6024600041800181738220152959389800064000700                                                                                     
7PESE                                                                                000000000041800                            
50001610201806222018062582201207611960       PES0000041800A211462018062217020005                                                
6024600041800181738220120761196000064000716                                                                                     
7PESE                                                                                000000000041800                            
50001710201806222018062582200528729336       PES0000041800A187832018062215120080                                                
6024600041800181738220052872933600064000442                                                                                     
7PESE                                                                                000000000041800                            
50001810201806222018062588100143576523       PES0000060000A204212018062217430058                                                
6024600060000181798810014357652300000000037                                                                                     
7PESE                                                                                000000000060000                            
50001910201806222018062588100144063101       PES0000060000A204212018062217430057                                                
6024600060000181798810014406310100000000016                                                                                     
7PESE                                                                                000000000060000                            
50002010201806222018062588100131647465       PES0000060000A068532018062218400052                                                
6024600060000181808810013164746500000000084                                                                                     
7PESE                                                                                000000000060000                            
50002110201806222018062582200721760057       PES0000041800A174682018062220420024                                                
6024600041800181738220072176005700064000516                                                                                     
7PESE                                                                                000000000041800                            
50002210201806222018062588100134691530       PES0000060000M640302018062213490027                                                
6024600060000181808810013469153000000000000                                                                                     
7PESE                                                                                000000000060000                            
82018062500000100000220000009816000000000000000000000000000000000000000000022                                                   
9201806250000010000022000000981600000000000000000000000000000000000000000000022                                                 
