120180321PAGO FACIL               090060246MARITIMO SRL                                                                         
320180321000001MARITIMO SRL                                                                                                     
50000110201803202018032188080245490019       PES0000030000A150892018032017250043                                                
6024600030000180818808024549001900000000058                                                                                     
7PESE                                                                                000000000030000                            
50000210201803202018032188080234087688       PES0000030000D002622018032017210179                                                
6024600030000180828808023408768800000000036                                                                                     
7PESE                                                                                000000000030000                            
50000310201803202018032116014917112872       PES0000035000A171362018032009510019                                                
6024600035000180831601491711287200000000021                                                                                     
7PESE                                                                                000000000035000                            
50000410201803202018032116014917112872       PES0000035000A171362018032009510018                                                
6024600035000180831601491711287200000000021                                                                                     
7PESE                                                                                000000000035000                            
82018032100000100000040000001300000000000000000000000000000000000000000000004                                                   
9201803210000010000004000000130000000000000000000000000000000000000000000000004                                                 
