120170123PAGO FACIL               090060246MARITIMO SRL                                                                         
320170123000001MARITIMO SRL                                                                                                     
50000110201701202017012329181723835832       PES0000044000A110152017012012210178                                                
6024600044000170202918172383583200000000057                                                                                     
7PESE                                                                                000000000044000                            
50000210201701202017012329182243051241       PES0000033000A160602017012013020040                                                
6024600033000170202918224305124100000000042                                                                                     
7PESE                                                                                000000000033000                            
50000310201701202017012329181732724877       PES0000044000A170822017012020020133                                                
6024600044000170202918173272487700000000057                                                                                     
7PESE                                                                                000000000044000                            
82017012300000100000030000001210000000000000000000000000000000000000000000003                                                   
9201701230000010000003000000121000000000000000000000000000000000000000000000003                                                 
