120161221PAGO FACIL               090060246MARITIMO SRL                                                                         
320161221000001MARITIMO SRL                                                                                                     
50000110201612202016122182130122289569       PES0000025200A173302016122017300090                                                
6024600025200163578213012228956900042000042                                                                                     
7PESE                                                                                000000000025200                            
50000210201612202016122182130427416343       PES0000031500A133842016122019290127                                                
6024600031500163568213042741634300063000063                                                                                     
7PESE                                                                                000000000031500                            
50000310201612202016122182130337030614       PES0000031500A092352016122013160013                                                
6024600031500163578213033703061400063000016                                                                                     
7PESE                                                                                000000000031500                            
50000410201612202016122182130337240058       PES0000031500A092352016122013150012                                                
6024600031500163578213033724005800063000063                                                                                     
7PESE                                                                                000000000031500                            
50000510201612202016122182131232383016       PES0000031500A163992016122010470024                                                
6024600031500163588213123238301600063000084                                                                                     
7PESE                                                                                000000000031500                            
50000610201612202016122182130342156621       PES0000031500A157502016122009420015                                                
6024600031500163608213034215662100063000063                                                                                     
7PESE                                                                                000000000031500                            
50000710201612202016122182130428041574       PES0000031500A162052016122009110001                                                
6024600031500163628213042804157400063000063                                                                                     
7PESE                                                                                000000000031500                            
82016122100000100000070000002142000000000000000000000000000000000000000000007                                                   
9201612210000010000007000000214200000000000000000000000000000000000000000000007                                                 
