120170726PAGO FACIL               090060246MARITIMO SRL                                                                         
320170726000001MARITIMO SRL                                                                                                     
50000110201707252017072682160136858301       PES0000029000A039082017072511430051                                                
6024600029000172128216013685830100035000057                                                                                     
7PESE                                                                                000000000029000                            
50000210201707252017072682160911692653       PES0000048000A137312017072511420098                                                
6024600048000172068216091169265300030000078                                                                                     
7PESE                                                                                000000000048000                            
50000310201707252017072682160334780513       PES0000048000A039082017072511420050                                                
6024600048000172128216033478051300030000090                                                                                     
7PESE                                                                                000000000048000                            
50000410201707252017072682160427621733       PES0000048000A039022017072508190018                                                
6024600048000172128216042762173300030000015                                                                                     
7PESE                                                                                000000000048000                            
50000510201707252017072600939332682493       PES0000117000A171332017072518200029                                                
6024600117000172130093933268249300000000099                                                                                     
7PESE                                                                                000000000117000                            
82017072600000100000050000002900000000000000000000000000000000000000000000005                                                   
9201707260000010000005000000290000000000000000000000000000000000000000000000005                                                 
