120170925PAGO FACIL               090060246MARITIMO SRL                                                                         
320170925000001MARITIMO SRL                                                                                                     
50000110201709222017092500949439080203       PES0000117000A211022017092212200050                                                
6024600117000172720094943908020300000000058                                                                                     
7PESE                                                                                000000000117000                            
50000210201709222017092579120821058107       PES0000145000A168382017092215290021                                                
6024600145000172687912082105810700265000057                                                                                     
7PESE                                                                                000000000145000                            
50000310201709232017092582170224865677       PES0000029000A210762017092310280015                                                
6024600029000172718217022486567700035000078                                                                                     
7PESE                                                                                000000000029000                            
82017092500000100000030000002910000000000000000000000000000000000000000000003                                                   
9201709250000010000003000000291000000000000000000000000000000000000000000000003                                                 
