120170522PAGO FACIL               090060246MARITIMO SRL                                                                         
320170522000001MARITIMO SRL                                                                                                     
50000110201705192017052288080139692578       PES0000045000D004292017051910330092                                                
6024600045000171468808013969257800060000078                                                                                     
7PESE                                                                                000000000045000                            
50000210201705192017052288080136366383       PES0000045000D005622017051916090033                                                
6024600045000171468808013636638300060000058                                                                                     
7PESE                                                                                000000000045000                            
50000310201705212017052288080136354956       PES0000045000A171842017051920250086                                                
6024600045000171468808013635495600060000063                                                                                     
7PESE                                                                                000000000045000                            
82017052200000100000030000001350000000000000000000000000000000000000000000003                                                   
9201705220000010000003000000135000000000000000000000000000000000000000000000003                                                 
