120180125PAGO FACIL               090060246MARITIMO SRL                                                                         
320180125000001MARITIMO SRL                                                                                                     
50000110201801242018012500960623423735       PES0000025000A200612018012411080041                                                
6024600025000180260096062342373500000000084                                                                                     
7PESE                                                                                000000000025000                            
82018012500000100000010000000250000000000000000000000000000000000000000000001                                                   
9201801250000010000001000000025000000000000000000000000000000000000000000000001                                                 
