120180926PAGO FACIL               090060246MARITIMO SRL                                                                         
320180926000001MARITIMO SRL                                                                                                     
50000110201809252018092601201240110258       PES0000150000A142382018092511380046                                                
6024600150000182750120124011025800000000036                                                                                     
7PESE                                                                                000000000150000                            
82018092600000100000010000001500000000000000000000000000000000000000000000001                                                   
9201809260000010000001000000150000000000000000000000000000000000000000000000001                                                 
