120170828PAGO FACIL               090060246MARITIMO SRL                                                                         
320170828000001MARITIMO SRL                                                                                                     
50000110201708252017082879120724677831       PES0000145000A621142017082508300005                                                
6024600145000172417912072467783100265000099                                                                                     
7PESE                                                                                000000000145000                            
50000210201708252017082879120918085382       PES0000145000A621142017082510010030                                                
6024600145000172417912091808538200265000021                                                                                     
7PESE                                                                                000000000145000                            
50000310201708252017082879120916713624       PES0000145000A621142017082512110071                                                
6024600145000172417912091671362400265000099                                                                                     
7PESE                                                                                000000000145000                            
50000410201708252017082879121113328892       PES0000145000A621142017082511080061                                                
6024600145000172417912111332889200265000058                                                                                     
7PESE                                                                                000000000145000                            
50000510201708252017082876040430335949       PES0000020000A092352017082513160025                                                
6024600020000172377604043033594900000000058                                                                                     
7PESE                                                                                000000000020000                            
50000610201708252017082817080627830810       PES0000080000A130702017082508030001                                                
6024600080000172381708062783081000150000084                                                                                     
7PESE                                                                                000000000080000                            
50000710201708252017082817080822413586       PES0000080000A165372017082519250071                                                
6024600080000172441708082241358600150000079                                                                                     
7PESE                                                                                000000000080000                            
50000810201708252017082876040623570043       PES0000020000A132762017082520270074                                                
6024600020000172377604062357004300000000000                                                                                     
7PESE                                                                                000000000020000                            
50000910201708252017082879120916067748       PES0000145000M840052017082509424385                                                
6024600145000172447912091606774800265000063                                                                                     
7PESE                                                                                000000000145000                            
50001010201708262017082817080725007194       PES0000080000A167452017082611310018                                                
6024600080000172411708072500719400150000099                                                                                     
7PESE                                                                                000000000080000                            
82017082800000100000100000010050000000000000000000000000000000000000000000010                                                   
9201708280000010000010000001005000000000000000000000000000000000000000000000010                                                 
