120171221PAGO FACIL               090060246MARITIMO SRL                                                                         
320171221000001MARITIMO SRL                                                                                                     
50000110201712202017122182180434483773       PES0000040500A211002017122017320092                                                
6024600040500173558218043448377300020000042                                                                                     
7PESE                                                                                000000000040500                            
50000210201712202017122182181329950874       PES0000040500A227232017122019500106                                                
6024600040500173608218132995087400020000090                                                                                     
7PESE                                                                                000000000040500                            
50000310201712202017122183051243667474       PES0000065000A228512017122010210001                                                
6024600065000173558305124366747400150000078                                                                                     
7PESE                                                                                000000000065000                            
50000410201712202017122185044227623921       PES0000113700A047422017122018400068                                                
6024600113700173548504422762392100000000042                                                                                     
7PESE                                                                                000000000113700                            
50000510201712202017122185045530140538       PES0000113700A047422017122018420069                                                
6024600113700173618504553014053800000000037                                                                                     
7PESE                                                                                000000000113700                            
82017122100000100000050000003734000000000000000000000000000000000000000000005                                                   
9201712210000010000005000000373400000000000000000000000000000000000000000000005                                                 
