120171222PAGO FACIL               090060246MARITIMO SRL                                                                         
320171222000001MARITIMO SRL                                                                                                     
50000110201712212017122282180436363953       PES0000040500A213112017122116360044                                                
6024600040500173618218043636395300020000084                                                                                     
7PESE                                                                                000000000040500                            
50000210201712212017122282180529937514       PES0000040500A211082017122116580096                                                
6024600040500173618218052993751400020000042                                                                                     
7PESE                                                                                000000000040500                            
50000310201712212017122282180430506355       PES0000040500A133842017122114190015                                                
6024600040500173628218043050635500020000021                                                                                     
7PESE                                                                                000000000040500                            
50000410201712212017122285040633514265       PES0000093000A095922017122110430004                                                
6024600093000173628504063351426500000000079                                                                                     
7PESE                                                                                000000000093000                            
50000510201712212017122285044227744149       PES0000113700A142672017122119500078                                                
6024600113700173558504422774414900000000063                                                                                     
7PESE                                                                                000000000113700                            
82017122200000100000050000003282000000000000000000000000000000000000000000005                                                   
9201712220000010000005000000328200000000000000000000000000000000000000000000005                                                 
