120180528PAGO FACIL               090060246MARITIMO SRL                                                                         
320180528000001MARITIMO SRL                                                                                                     
50000110201805242018052801171142892093       PES0000150000D002952018052412120134                                                
6024600150000181500117114289209300000000079                                                                                     
7PESE                                                                                000000000150000                            
50000210201805242018052801131135381967       PES0000150000A205332018052411570024                                                
6024600150000181500113113538196700000000021                                                                                     
7PESE                                                                                000000000150000                            
50000310201805242018052801171136314369       PES0000150000D010132018052415440168                                                
6024600150000181510117113631436900000000000                                                                                     
7PESE                                                                                000000000150000                            
50000410201805242018052882190528729842       PES0000048200A095412018052416180007                                                
6024600048200181478219052872984200043000463                                                                                     
7PESE                                                                                000000000048200                            
50000510201805242018052801171141019632       PES0000150000A206382018052418470008                                                
6024600150000181510117114101963200000000058                                                                                     
7PESE                                                                                000000000150000                            
50000610201805252018052882192441540846       PES0000048200A154252018052518160009                                                
6024600048200181478219244154084600043007400                                                                                     
7PESE                                                                                000000000048200                            
50000710201805252018052882191618808224       PES0000048200A160072018052518280038                                                
6024600048200181478219161880822400043000316                                                                                     
7PESE                                                                                000000000048200                            
50000810201805262018052882191426767664       PES0000048200A166862018052609180008                                                
6024600048200181478219142676766400043000484                                                                                     
7PESE                                                                                000000000048200                            
50000910201805262018052882191524897805       PES0000048200A211462018052611130036                                                
6024600048200181478219152489780500043007415                                                                                     
7PESE                                                                                000000000048200                            
50001010201805262018052882190433641709       PES0000048200A228522018052610190007                                                
6024600048200181478219043364170900043000479                                                                                     
7PESE                                                                                000000000048200                            
50001110201805262018052882190816895360       PES0000048200A166862018052612130052                                                
6024600048200181478219081689536000043000384                                                                                     
7PESE                                                                                000000000048200                            
50001210201805262018052882191718501195       PES0000048200A166862018052612120051                                                
6024600048200181478219171850119500043000337                                                                                     
7PESE                                                                                000000000048200                            
50001310201805262018052882190624270114       PES0000048200A255992018052619570008                                                
6024600048200181478219062427011400043007542                                                                                     
7PESE                                                                                000000000048200                            
82018052800000100000130000010338000000000000000000000000000000000000000000013                                                   
9201805280000010000013000001033800000000000000000000000000000000000000000000013                                                 
