120180920PAGO FACIL               090060246MARITIMO SRL                                                                         
320180920000001MARITIMO SRL                                                                                                     
50000110201809192018092001171140068869       PES0000150000A163982018091919480034                                                
6024600150000182640117114006886900000000000                                                                                     
7PESE                                                                                000000000150000                            
82018092000000100000010000001500000000000000000000000000000000000000000000001                                                   
9201809200000010000001000000150000000000000000000000000000000000000000000000001                                                 
