120180822PAGO FACIL               090060246MARITIMO SRL                                                                         
320180822000001MARITIMO SRL                                                                                                     
50000110201808212018082202652702680731       PES0000091000A154772018082108410001                                                
6024600091000182320265270268073100161000063                                                                                     
7PESE                                                                                000000000091000                            
50000210201808212018082201201235588435       PES0000150000A163972018082112510076                                                
6024600150000182400120123558843500000000099                                                                                     
7PESE                                                                                000000000150000                            
50000310201808212018082201201242892093       PES0000150000D002952018082118270129                                                
6024600150000182400120124289209300000000015                                                                                     
7PESE                                                                                000000000150000                            
82018082200000100000030000003910000000000000000000000000000000000000000000003                                                   
9201808220000010000003000000391000000000000000000000000000000000000000000000003                                                 
