120170529PAGO FACIL               090060246MARITIMO SRL                                                                         
320170529000001MARITIMO SRL                                                                                                     
50000110201705262017052988080132257263       PES0000045000A105472017052611000104                                                
6024600045000171538808013225726300060000090                                                                                     
7PESE                                                                                000000000045000                            
50000210201705262017052988080142688581       PES0000045000A140792017052612550001                                                
6024600045000171478808014268858100060000063                                                                                     
7PESE                                                                                000000000045000                            
50000310201705262017052988080132883268       PES0000045000A133922017052612440001                                                
6024600045000171508808013288326800060000015                                                                                     
7PESE                                                                                000000000045000                            
50000410201705262017052988080143237435       PES0000045000D007262017052609020002                                                
6024600045000171528808014323743500060000079                                                                                     
7PESE                                                                                000000000045000                            
50000510201705262017052924010620492285       PES0000035000A158142017052619020039                                                
6024600035000171512401062049228500000000057                                                                                     
7PESE                                                                                000000000035000                            
50000610201705262017052924010600000000       PES0000035000A158142017052619030040                                                
6024600035000171512401060000000000000000099                                                                                     
7PESE                                                                                000000000035000                            
50000710201705262017052988080135462191       PES0000045000A173052017052612250006                                                
6024600045000171478808013546219100060000000                                                                                     
7PESE                                                                                000000000045000                            
50000810201705262017052988080118268323       PES0000045000M620902017052611420007                                                
6024600045000171538808011826832300060000042                                                                                     
7PESE                                                                                000000000045000                            
50000910201705262017052988080121466123       PES0000045000M620902017052611430008                                                
6024600045000171538808012146612300060000036                                                                                     
7PESE                                                                                000000000045000                            
50001010201705272017052900929235257888       PES0000117000A129512017052718150079                                                
6024600117000171540092923525788800000000042                                                                                     
7PESE                                                                                000000000117000                            
82017052900000100000100000005020000000000000000000000000000000000000000000010                                                   
9201705290000010000010000000502000000000000000000000000000000000000000000000010                                                 
