120170728PAGO FACIL               090060246MARITIMO SRL                                                                         
320170728000001MARITIMO SRL                                                                                                     
50000110201707272017072882161236537916       PES0000048000A167842017072710340024                                                
6024600048000172108216123653791600030000036                                                                                     
7PESE                                                                                000000000048000                            
50000210201707272017072882160716924522       PES0000048000A197112017072712340077                                                
6024600048000172128216071692452200030007137                                                                                     
7PESE                                                                                000000000048000                            
50000310201707272017072882160718294899       PES0000048000A180342017072710490026                                                
6024600048000172128216071829489900030007079                                                                                     
7PESE                                                                                000000000048000                            
50000410201707272017072882160813605607       PES0000048000A039002017072712140100                                                
6024600048000172128216081360560700030007100                                                                                     
7PESE                                                                                000000000048000                            
50000510201707272017072882161234138509       PES0000048000A167842017072710350025                                                
6024600048000172128216123413850900030000084                                                                                     
7PESE                                                                                000000000048000                            
50000610201707272017072882161425041334       PES0000048000A163812017072712260009                                                
6024600048000172128216142504133400030007284                                                                                     
7PESE                                                                                000000000048000                            
50000710201707272017072800939340518376       PES0000117000A076402017072709490029                                                
6024600117000172130093934051837600000000058                                                                                     
7PESE                                                                                000000000117000                            
50000810201707272017072800929239080203       PES0000117000A115002017072719110041                                                
6024600117000172150092923908020300000000042                                                                                     
7PESE                                                                                000000000117000                            
82017072800000100000080000005220000000000000000000000000000000000000000000008                                                   
9201707280000010000008000000522000000000000000000000000000000000000000000000008                                                 
