120180322PAGO FACIL               090060246MARITIMO SRL                                                                         
320180322000001MARITIMO SRL                                                                                                     
50000110201803212018032288080246094359       PES0000030000L270372018032117479077                                                
6024600030000180828808024609435900000000021                                                                                     
7PESE                                                                                000000000030000                            
50000210201803212018032288080220363777       PES0000030000L270372018032117479000                                                
6024600030000180848808022036377700000000063                                                                                     
7PESE                                                                                000000000030000                            
50000310201803212018032288080240323722       PES0000030000A174972018032111210034                                                
6024600030000180848808024032372200000000037                                                                                     
7PESE                                                                                000000000030000                            
50000410201803212018032216014822118447       PES0000035000A049742018032114200004                                                
6024600035000180841601482211844700000000063                                                                                     
7PESE                                                                                000000000035000                            
82018032200000100000040000001250000000000000000000000000000000000000000000004                                                   
9201803220000010000004000000125000000000000000000000000000000000000000000000004                                                 
