120161220PAGO FACIL               090060246MARITIMO SRL                                                                         
320161220000001MARITIMO SRL                                                                                                     
50000110201612192016122082130910515108       PES0000031500A116192016121909570053                                                
6024600031500163548213091051510800063000000                                                                                     
7PESE                                                                                000000000031500                            
50000210201612192016122082131325958086       PES0000031500A139292016121914280035                                                
6024600031500163558213132595808600063000063                                                                                     
7PESE                                                                                000000000031500                            
50000310201612192016122082130524699858       PES0000031500A144132016121919370009                                                
6024600031500163578213052469985800063000000                                                                                     
7PESE                                                                                000000000031500                            
50000410201612192016122082131418808224       PES0000031500A160072016121918430098                                                
6024600031500163578213141880822400063000099                                                                                     
7PESE                                                                                000000000031500                            
50000510201612192016122082130335774373       PES0000031500A123902016121916120063                                                
6024600031500163598213033577437300063000099                                                                                     
7PESE                                                                                000000000031500                            
50000610201612192016122082131520330327       PES0000031500A115442016121910430059                                                
6024600031500163598213152033032700063000021                                                                                     
7PESE                                                                                000000000031500                            
50000710201612192016122082130813601332       PES0000031500A087612016121909250112                                                
6024600031500163608213081360133200063000000                                                                                     
7PESE                                                                                000000000031500                            
50000810201612192016122029171125544116       PES0000055000A166862016121910530070                                                
6024600045000163502917112554411600100000542                                                                                     
7PESE                                                                                000000000055000                            
82016122000000100000080000002755000000000000000000000000000000000000000000008                                                   
9201612200000010000008000000275500000000000000000000000000000000000000000000008                                                 
