120180328PAGO FACIL               090060246MARITIMO SRL                                                                         
320180328000001MARITIMO SRL                                                                                                     
50000110201803272018032816010547669890       PES0000017500A163722018032711370001                                                
6024600017500180861601054766989000000000021                                                                                     
7PESE                                                                                000000000017500                            
50000210201803272018032816010251332004       PES0000017500A172542018032710000071                                                
6024600017500180931601025133200400000000057                                                                                     
7PESE                                                                                000000000017500                            
50000310201803272018032816010744753367       PES0000035000A167132018032720470037                                                
6024600035000180861601074475336700000000021                                                                                     
7PESE                                                                                000000000035000                            
50000410201803272018032816011529204071       PES0000035000A139112018032720470062                                                
6024600035000180861601152920407100000000015                                                                                     
7PESE                                                                                000000000035000                            
50000510201803272018032816011824259764       PES0000035000A136732018032720110109                                                
6024600035000180861601182425976400000000037                                                                                     
7PESE                                                                                000000000035000                            
50000610201803272018032816012612833324       PES0000035000A154042018032712530095                                                
6024600035000180861601261283332400000000063                                                                                     
7PESE                                                                                000000000035000                            
50000710201803272018032816013737599079       PES0000035000A172542018032709050021                                                
6024600035000180861601373759907900000000084                                                                                     
7PESE                                                                                000000000035000                            
50000810201803272018032816013912503717       PES0000035000D003382018032712220194                                                
6024600035000180861601391250371700000000079                                                                                     
7PESE                                                                                000000000035000                            
50000910201803272018032816014232763198       PES0000035000A261462018032719490086                                                
6024600035000180861601423276319800000000042                                                                                     
7PESE                                                                                000000000035000                            
50001010201803272018032816014330184224       PES0000035000A163722018032719090037                                                
6024600035000180861601433018422400000000015                                                                                     
7PESE                                                                                000000000035000                            
50001110201803272018032816014427348863       PES0000035000A172542018032717420087                                                
6024600035000180861601442734886300000000099                                                                                     
7PESE                                                                                000000000035000                            
50001210201803272018032816014429936302       PES0000035000A082892018032721010082                                                
6024600035000180861601442993630200000000037                                                                                     
7PESE                                                                                000000000035000                            
50001310201803272018032816014523708582       PES0000035000A133742018032711260035                                                
6024600035000180861601452370858200000000063                                                                                     
7PESE                                                                                000000000035000                            
50001410201803272018032816014525688736       PES0000035000A136732018032718530064                                                
6024600035000180861601452568873600000000058                                                                                     
7PESE                                                                                000000000035000                            
50001510201803272018032816014625048894       PES0000035000A213432018032714120078                                                
6024600035000180861601462504889400000000079                                                                                     
7PESE                                                                                000000000035000                            
50001610201803272018032816014693012249       PES0000035000A160402018032713210059                                                
6024600035000180861601469301224900000000021                                                                                     
7PESE                                                                                000000000035000                            
50001710201803272018032816014916839603       PES0000035000A160402018032713210060                                                
6024600035000180861601491683960300000000042                                                                                     
7PESE                                                                                000000000035000                            
50001810201803272018032816014917325584       PES0000035000D008092018032719010069                                                
6024600035000180861601491732558400000000042                                                                                     
7PESE                                                                                000000000035000                            
50001910201803272018032816015018254670       PES0000035000A261462018032719520087                                                
6024600035000180861601501825467000000000037                                                                                     
7PESE                                                                                000000000035000                            
50002010201803272018032816015114206492       PES0000035000A213432018032719220002                                                
6024600035000180861601511420649200000000016                                                                                     
7PESE                                                                                000000000035000                            
50002110201803272018032816015114874747       PES0000035000A155742018032712170047                                                
6024600035000180861601511487474700000000090                                                                                     
7PESE                                                                                000000000035000                            
50002210201803272018032816015412468519       PES0000035000A154042018032712530094                                                
6024600035000180861601541246851900000000057                                                                                     
7PESE                                                                                000000000035000                            
50002310201803272018032816015765280097       PES0000035000A172542018032710020072                                                
6024600035000180861601576528009700000000021                                                                                     
7PESE                                                                                000000000035000                            
50002410201803272018032816015804640403       PES0000035000A172542018032710020075                                                
6024600035000180861601580464040300000000090                                                                                     
7PESE                                                                                000000000035000                            
50002510201803272018032816016443423444       PES0000035000A082892018032721000080                                                
6024600035000180861601644342344400000000016                                                                                     
7PESE                                                                                000000000035000                            
50002610201803272018032816016443765716       PES0000035000A082892018032721010081                                                
6024600035000180861601644376571600000000078                                                                                     
7PESE                                                                                000000000035000                            
50002710201803272018032816016503103536       PES0000035000A172542018032710020073                                                
6024600035000180861601650310353600000000084                                                                                     
7PESE                                                                                000000000035000                            
50002810201803272018032816017031187973       PES0000035000A049742018032710550001                                                
6024600035000180861601703118797300000000090                                                                                     
7PESE                                                                                000000000035000                            
50002910201803272018032816017033233110       PES0000035000A148442018032718440057                                                
6024600035000180861601703323311000000000015                                                                                     
7PESE                                                                                000000000035000                            
50003010201803272018032816017130694837       PES0000035000A800042018032708150002                                                
6024600035000180861601713069483700000000063                                                                                     
7PESE                                                                                000000000035000                            
50003110201803272018032816017226462314       PES0000035000A136282018032709370035                                                
6024600035000180861601722646231400000000021                                                                                     
7PESE                                                                                000000000035000                            
50003210201803272018032816017424258335       PES0000035000A136282018032708560012                                                
6024600035000180861601742425833500000000099                                                                                     
7PESE                                                                                000000000035000                            
50003310201803272018032816017525199534       PES0000035000A261462018032718580074                                                
6024600035000180861601752519953400000000042                                                                                     
7PESE                                                                                000000000035000                            
50003410201803272018032816017620628188       PES0000035000A172542018032711350078                                                
6024600035000180861601762062818800000000000                                                                                     
7PESE                                                                                000000000035000                            
50003510201803272018032816017723134754       PES0000035000A172542018032710020074                                                
6024600035000180861601772313475400000000000                                                                                     
7PESE                                                                                000000000035000                            
50003610201803272018032816017917738990       PES0000035000A172542018032711350077                                                
6024600035000180861601791773899000000000079                                                                                     
7PESE                                                                                000000000035000                            
50003710201803272018032816018012460025       PES0000035000A163722018032711370003                                                
6024600035000180861601801246002500000000000                                                                                     
7PESE                                                                                000000000035000                            
50003810201803272018032816018014928809       PES0000035000A258922018032719090009                                                
6024600035000180861601801492880900000000084                                                                                     
7PESE                                                                                000000000035000                            
50003910201803272018032816018014943144       PES0000035000A163722018032711370002                                                
6024600035000180861601801494314400000000079                                                                                     
7PESE                                                                                000000000035000                            
82018032800000100000390000013300000000000000000000000000000000000000000000039                                                   
9201803280000010000039000001330000000000000000000000000000000000000000000000039                                                 
