120180727PAGO FACIL               090060246MARITIMO SRL                                                                         
320180727000001MARITIMO SRL                                                                                                     
50000110201807262018072776054837937489       PES0000015000A165912018072612250030                                                
6024600015000182137605483793748900000000021                                                                                     
7PESE                                                                                000000000015000                            
50000210201807262018072776054836617155       PES0000015000A165912018072612250029                                                
6024600015000182147605483661715500000000057                                                                                     
7PESE                                                                                000000000015000                            
50000310201807262018072782200223296001       PES0000037500A163102018072619560046                                                
6024600037500182138220022329600100000000000                                                                                     
7PESE                                                                                000000000037500                            
50000410201807262018072782202614914698       PES0000072800A070282018072613400088                                                
6024600072800182138220261491469800000000021                                                                                     
7PESE                                                                                000000000072800                            
82018072700000100000040000001403000000000000000000000000000000000000000000004                                                   
9201807270000010000004000000140300000000000000000000000000000000000000000000004                                                 
