120180521PAGO FACIL               090060246MARITIMO SRL                                                                         
320180521000001MARITIMO SRL                                                                                                     
50000110201805182018052182190527213101       PES0000048200A087612018051809170047                                                
6024600048200181448219052721310100043000037                                                                                     
7PESE                                                                                000000000048200                            
50000210201805182018052182190625235880       PES0000048200A087612018051809170048                                                
6024600048200181448219062523588000043000000                                                                                     
7PESE                                                                                000000000048200                            
50000310201805182018052182190230598847       PES0000032200A151772018051817250033                                                
6024600032200181458219023059884700021000042                                                                                     
7PESE                                                                                000000000032200                            
50000410201805192018052182190432425476       PES0000048200A197112018051910580049                                                
6024600048200181458219043242547600043000058                                                                                     
7PESE                                                                                000000000048200                            
82018052100000100000040000001768000000000000000000000000000000000000000000004                                                   
9201805210000010000004000000176800000000000000000000000000000000000000000000004                                                 
