120180629PAGO FACIL               090060246MARITIMO SRL                                                                         
320180629000001MARITIMO SRL                                                                                                     
50000110201806282018062976055417100149       PES0000025000A170872018062817330023                                                
6024600025000181857605541710014900050000000                                                                                     
7PESE                                                                                000000000025000                            
50000210201806282018062982200722289549       PES0000048200A275122018062812020030                                                
6024600048200181848220072228954900053000084                                                                                     
7PESE                                                                                000000000048200                            
50000310201806282018062982202722966840       PES0000068500A210952018062810280015                                                
6024600068500181868220272296684000043000057                                                                                     
7PESE                                                                                000000000068500                            
50000410201806282018062901181140074101       PES0000150000A129522018062818200017                                                
6024600150000181830118114007410100000000036                                                                                     
7PESE                                                                                000000000150000                            
82018062900000100000040000002917000000000000000000000000000000000000000000004                                                   
9201806290000010000004000000291700000000000000000000000000000000000000000000004                                                 
