120180829PAGO FACIL               090060246MARITIMO SRL                                                                         
320180829000001MARITIMO SRL                                                                                                     
50000110201808282018082996060122244181       PES0000138000A040232018082817550057                                                
6024600138000182479606012224418100000000000                                                                                     
7PESE                                                                                000000000138000                            
82018082900000100000010000001380000000000000000000000000000000000000000000001                                                   
9201808290000010000001000000138000000000000000000000000000000000000000000000001                                                 
