120170428PAGO FACIL               090060246MARITIMO SRL                                                                         
320170428000001MARITIMO SRL                                                                                                     
50000110201704272017042882150427854537       PES0000051000A133842017042715030066                                                
6024600051000171228215042785453700000000042                                                                                     
7PESE                                                                                000000000051000                            
82017042800000100000010000000510000000000000000000000000000000000000000000001                                                   
9201704280000010000001000000051000000000000000000000000000000000000000000000001                                                 
