120170823PAGO FACIL               090060246MARITIMO SRL                                                                         
320170823000001MARITIMO SRL                                                                                                     
50000110201708222017082376040817208037       PES0000020000A169782017082212040010                                                
6024600020000172377604081720803700000000042                                                                                     
7PESE                                                                                000000000020000                            
50000210201708222017082302616914030551       PES0000120000A177672017082211300031                                                
6024600100000172320261691403055100200000500                                                                                     
7PESE                                                                                000000000120000                            
50000310201708222017082300959539619591       PES0000117000A136742017082210380083                                                
6024600117000172400095953961959100000000084                                                                                     
7PESE                                                                                000000000117000                            
50000410201708222017082300939339825543       PES0000117000A160552017082218470115                                                
6024600117000172410093933982554300000000079                                                                                     
7PESE                                                                                000000000117000                            
82017082300000100000040000003740000000000000000000000000000000000000000000004                                                   
9201708230000010000004000000374000000000000000000000000000000000000000000000004                                                 
