120180724PAGO FACIL               090060246MARITIMO SRL                                                                         
320180724000001MARITIMO SRL                                                                                                     
50000110201807232018072476054426601656       PES0000015000D002512018072315290107                                                
6024600015000182117605442660165600000000090                                                                                     
7PESE                                                                                000000000015000                            
50000210201807232018072482201528916750       PES0000053500A123592018072312210032                                                
6024600053500182058220152891675000000000037                                                                                     
7PESE                                                                                000000000053500                            
50000310201807232018072482201913952447       PES0000053500A210762018072310050046                                                
6024600053500182068220191395244700000000000                                                                                     
7PESE                                                                                000000000053500                            
50000410201807232018072482200817214831       PES0000053500A131622018072310340045                                                
6024600053500182098220081721483100000000063                                                                                     
7PESE                                                                                000000000053500                            
50000510201807232018072482200431682085       PES0000053500A254692018072318470011                                                
6024600053500182118220043168208500000000016                                                                                     
7PESE                                                                                000000000053500                            
50000610201807232018072482201594975032       PES0000053500A261192018072318170068                                                
6024600053500182118220159497503200000000079                                                                                     
7PESE                                                                                000000000053500                            
82018072400000100000060000002825000000000000000000000000000000000000000000006                                                   
9201807240000010000006000000282500000000000000000000000000000000000000000000006                                                 
