120180621PAGO FACIL               090060246MARITIMO SRL                                                                         
320180621000001MARITIMO SRL                                                                                                     
50000110201806192018062188100132794706       PES0000060000A177922018061909570047                                                
6024600060000181778810013279470600000000015                                                                                     
7PESE                                                                                000000000060000                            
50000210201806192018062188100128499934       PES0000060000A254822018061911080006                                                
6024600060000181778810012849993400000000063                                                                                     
7PESE                                                                                000000000060000                            
50000310201806192018062182200626049541       PES0000041800A157062018061911100094                                                
6024600041800181738220062604954100064000063                                                                                     
7PESE                                                                                000000000041800                            
50000410201806192018062182200720878578       PES0000041800A167842018061912000013                                                
6024600041800181738220072087857800064000437                                                                                     
7PESE                                                                                000000000041800                            
50000510201806192018062182201433067758       PES0000041800A167842018061912000012                                                
6024600041800181738220143306775800064000421                                                                                     
7PESE                                                                                000000000041800                            
50000610201806192018062182200818343780       PES0000041800A196842018061908200008                                                
6024600041800181738220081834378000064000336                                                                                     
7PESE                                                                                000000000041800                            
50000710201806192018062182200625321286       PES0000041800A196842018061908210009                                                
6024600041800181738220062532128600064000384                                                                                     
7PESE                                                                                000000000041800                            
50000810201806192018062176050528140834       PES0000020000A139922018061916060149                                                
6024600020000181777605052814083400050000042                                                                                     
7PESE                                                                                000000000020000                            
50000910201806192018062182200123970495       PES0000030000A264692018061912390028                                                
6024600030000181738220012397049500043000342                                                                                     
7PESE                                                                                000000000030000                            
50001010201806192018062182201330799093       PES0000041800A229162018061916270053                                                
6024600041800181738220133079909300064000300                                                                                     
7PESE                                                                                000000000041800                            
50001110201806192018062176050337557527       PES0000020000A174682018061916350025                                                
6024600020000181737605033755752700050000058                                                                                     
7PESE                                                                                000000000020000                            
50001210201806192018062188100136871351       PES0000060000L270372018061918444469                                                
6024600060000181768810013687135100000000079                                                                                     
7PESE                                                                                000000000060000                            
50001310201806202018062182200336110681       PES0000041800A172782018062010240009                                                
6024600041800181738220033611068100064000521                                                                                     
7PESE                                                                                000000000041800                            
50001410201806202018062182201624148911       PES0000041800A172782018062010240008                                                
6024600041800181738220162414891100064000579                                                                                     
7PESE                                                                                000000000041800                            
82018062100000100000140000005844000000000000000000000000000000000000000000014                                                   
9201806210000010000014000000584400000000000000000000000000000000000000000000014                                                 
