120171122PAGO FACIL               090060246MARITIMO SRL                                                                         
320171122000001MARITIMO SRL                                                                                                     
50000110201711212017112299310133665819       PES0000060000A167802017112118490055                                                
6024600060000173269931013366581900000000000                                                                                     
7PESE                                                                                000000000060000                            
82017112200000100000010000000600000000000000000000000000000000000000000000001                                                   
9201711220000010000001000000060000000000000000000000000000000000000000000000001                                                 
