120180622PAGO FACIL               090060246MARITIMO SRL                                                                         
320180622000001MARITIMO SRL                                                                                                     
50000110201806212018062201171140068869       PES0000150000A150992018061920130075                                                
6024600150000181770117114006886900000000057                                                                                     
7PESE                                                                                000000000150000                            
50000210201806212018062282200623869519       PES0000041800A150642018062118020075                                                
6024600041800181738220062386951900064000663                                                                                     
7PESE                                                                                000000000041800                            
50000310201806212018062282201011591433       PES0000041800A269702018062109390005                                                
6024600041800181738220101159143300064000557                                                                                     
7PESE                                                                                000000000041800                            
50000410201806212018062282201626703792       PES0000041800A171242018062111250044                                                
6024600041800181738220162670379200064000400                                                                                     
7PESE                                                                                000000000041800                            
50000510201806212018062288100123063841       PES0000060000A170962018062110130070                                                
6024600060000181768810012306384100000000042                                                                                     
7PESP                                                                                000000000060000                            
50000610201806212018062288100146094359       PES0000060000L270292018062110231767                                                
6024600060000181778810014609435900000000099                                                                                     
7PESE                                                                                000000000060000                            
50000710201806212018062288100131359442       PES0000060000L270292018062109301752                                                
6024600060000181798810013135944200000000090                                                                                     
7PESE                                                                                000000000060000                            
50000810201806212018062288100133184877       PES0000060000A216102018062112210092                                                
6024600060000181798810013318487700000000000                                                                                     
7PESE                                                                                000000000060000                            
50000910201806212018062288100144063098       PES0000060000A640232018062110190042                                                
6024600060000181798810014406309800000000084                                                                                     
7PESE                                                                                000000000060000                            
50001010201806212018062201171141846537       PES0000150000A252962018062120090020                                                
6024600150000181770117114184653700000000063                                                                                     
7PESE                                                                                000000000150000                            
50001110201806212018062201181142892093       PES0000150000D002952018062111470116                                                
6024600150000181770118114289209300000000000                                                                                     
7PESE                                                                                000000000150000                            
50001210201806212018062201181141019632       PES0000150000A206382018062120010028                                                
6024600150000181790118114101963200000000036                                                                                     
7PESE                                                                                000000000150000                            
82018062200000100000120000010254000000000000000000000000000000000000000000012                                                   
9201806220000010000012000001025400000000000000000000000000000000000000000000012                                                 
