120170621PAGO FACIL               090060246MARITIMO SRL                                                                         
320170621000001MARITIMO SRL                                                                                                     
50000110201706192017062179110320401065       PES0000107500A077842017061910150038                                                
6024600096500171677911032040106500110000442                                                                                     
7PESE                                                                                000000000107500                            
50000210201706192017062179110700000000       PES0000107500A171962017061910410025                                                
6024600107500171727911070000000000000000057                                                                                     
7PESE                                                                                000000000107500                            
50000310201706192017062179110200000000       PES0000107500A620612017061912330027                                                
6024600107500171727911020000000000000000021                                                                                     
7PESE                                                                                000000000107500                            
50000410201706192017062104011733208959       PES0000038500A065852017061909030004                                                
6024600038500171680401173320895900015000458                                                                                     
7PESE                                                                                000000000038500                            
50000510201706192017062104010234832498       PES0000038500A043122017061917260147                                                
6024600038500171680401023483249800015000421                                                                                     
7PESE                                                                                000000000038500                            
50000610201706192017062100939339404291       PES0000117000A114992017061917080041                                                
6024600117000171770093933940429100000000078                                                                                     
7PESE                                                                                000000000117000                            
50000710201706202017062179110231578453       PES0000107500A066282017062021340031                                                
6024600096500171677911023157845300110000457                                                                                     
7PESE                                                                                000000000107500                            
50000810201706202017062179110227776043       PES0000107500A142672017062019050009                                                
6024600107500171727911022777604300000000037                                                                                     
7PESE                                                                                000000000107500                            
50000910201706202017062179110323393774       PES0000107500A141672017062011150006                                                
6024600107500171727911032339377400000000057                                                                                     
7PESE                                                                                000000000107500                            
82017062100000100000090000008390000000000000000000000000000000000000000000009                                                   
9201706210000010000009000000839000000000000000000000000000000000000000000000009                                                 
