120180522PAGO FACIL               090060246MARITIMO SRL                                                                         
320180522000001MARITIMO SRL                                                                                                     
50000110201805212018052282190121909013       PES0000032200A210982018052115220001                                                
6024600032200181438219012190901300021000000                                                                                     
7PESE                                                                                000000000032200                            
50000210201805212018052282190232257770       PES0000032200A039042018052113580046                                                
6024600032200181458219023225777000021000084                                                                                     
7PESE                                                                                000000000032200                            
50000310201805212018052282190232791630       PES0000032200A162812018052117220003                                                
6024600032200181458219023279163000021000042                                                                                     
7PESE                                                                                000000000032200                            
50000410201805212018052282192543742028       PES0000048200A154252018052110130037                                                
6024600048200181478219254374202800043000063                                                                                     
7PESE                                                                                000000000048200                            
82018052200000100000040000001448000000000000000000000000000000000000000000004                                                   
9201805220000010000004000000144800000000000000000000000000000000000000000000004                                                 
