120170822PAGO FACIL               090060246MARITIMO SRL                                                                         
320170822000001MARITIMO SRL                                                                                                     
50000110201708182017082288080137903395       PES0000051000A640562017081711230092                                                
6024600051000172358808013790339500000000057                                                                                     
7PESE                                                                                000000000051000                            
50000210201708182017082276045539139289       PES0000025000A060902017081809430019                                                
6024600025000172347604553913928900000000000                                                                                     
7PESE                                                                                000000000025000                            
50000310201708182017082288080142331764       PES0000051000A640562017081810200041                                                
6024600051000172368808014233176400000000036                                                                                     
7PESE                                                                                000000000051000                            
50000410201708182017082296010137797178       PES0000070000D002612017081817170161                                                
6024600070000172359601013779717800000000016                                                                                     
7PESE                                                                                000000000070000                            
50000510201708182017082296020137797178       PES0000085000D002612017081817170162                                                
6024600085000172359602013779717800000000021                                                                                     
7PESE                                                                                000000000085000                            
50000610201708182017082217080725196364       PES0000080000A114512017081819410053                                                
6024600080000172341708072519636400150000042                                                                                     
7PESE                                                                                000000000080000                            
50000710201708182017082288080134691530       PES0000051000D001392017081818570124                                                
6024600051000172358808013469153000000000000                                                                                     
7PESE                                                                                000000000051000                            
50000810201708182017082288080138019278       PES0000051000A180282017081817520009                                                
6024600051000172368808013801927800000000042                                                                                     
7PESE                                                                                000000000051000                            
50000910201708192017082217080726220009       PES0000080000A166092017081816310005                                                
6024600080000172361708072622000900150000000                                                                                     
7PESE                                                                                000000000080000                            
50001010201708192017082217080242032902       PES0000080000A078632017081912020001                                                
6024600080000172321708024203290200150000084                                                                                     
7PESE                                                                                000000000080000                            
50001110201708192017082202612638770120       PES0000080000A123872017081910150011                                                
6024600080000172320261263877012000100000515                                                                                     
7PESE                                                                                000000000080000                            
50001210201708192017082202610829560842       PES0000080000A123872017081910140009                                                
6024600080000172320261082956084200100000584                                                                                     
7PESE                                                                                000000000080000                            
50001310201708192017082202613025157848       PES0000080000A123872017081910140010                                                
6024600080000172320261302515784800100000558                                                                                     
7PESE                                                                                000000000080000                            
50001410201708192017082217080917612936       PES0000080000A180342017081913010076                                                
6024600080000172371708091761293600150000099                                                                                     
7PESE                                                                                000000000080000                            
50001510201708192017082202614235048173       PES0000100000A194032017081917180021                                                
6024600100000172320261423504817300200000516                                                                                     
7PESE                                                                                000000000100000                            
50001610201708202017082200949440518376       PES0000117000D002632017082011230069                                                
6024600117000172350094944051837600000000084                                                                                     
7PESE                                                                                000000000117000                            
82017082200000100000160000011610000000000000000000000000000000000000000000016                                                   
9201708220000010000016000001161000000000000000000000000000000000000000000000016                                                 
