120170921PAGO FACIL               090060246MARITIMO SRL                                                                         
320170921000001MARITIMO SRL                                                                                                     
50000110201709202017092117080339447903       PES0000095000A084002017092017290055                                                
6024600095000172641708033944790300000000099                                                                                     
7PESE                                                                                000000000095000                            
50000210201709202017092117080627423321       PES0000095000A213272017092012130013                                                
6024600095000172641708062742332100000000063                                                                                     
7PESE                                                                                000000000095000                            
50000310201709202017092117080629725787       PES0000095000A128032017092011490035                                                
6024600095000172641708062972578700000000084                                                                                     
7PESE                                                                                000000000095000                            
50000410201709202017092117080822236410       PES0000095000M640432017092009270019                                                
6024600095000172641708082223641000000000099                                                                                     
7PESE                                                                                000000000095000                            
50000510201709202017092117081110679484       PES0000095000A128032017092011490036                                                
6024600095000172641708111067948400000000079                                                                                     
7PESE                                                                                000000000095000                            
50000610201709202017092117081327890856       PES0000095000A128042017092019130118                                                
6024600095000172641708132789085600000000021                                                                                     
7PESE                                                                                000000000095000                            
50000710201709202017092117081745058078       PES0000095000A128032017092018070108                                                
6024600095000172641708174505807800000000084                                                                                     
7PESE                                                                                000000000095000                            
50000810201709202017092179120530880808       PES0000145000A197112017092019470065                                                
6024600145000172637912053088080800265000090                                                                                     
7PESE                                                                                000000000145000                            
82017092100000100000080000008100000000000000000000000000000000000000000000008                                                   
9201709210000010000008000000810000000000000000000000000000000000000000000000008                                                 
