120170524PAGO FACIL               090060246MARITIMO SRL                                                                         
320170524000001MARITIMO SRL                                                                                                     
50000110201705232017052424010500000000       PES0000035000A156202017052312070010                                                
6024600035000171502401050000000000000000021                                                                                     
7PESE                                                                                000000000035000                            
50000210201705232017052424013623632250       PES0000070000A156202017052312090011                                                
6024600070000171502401362363225000000000015                                                                                     
7PESE                                                                                000000000070000                            
50000310201705232017052479110420388415       PES0000096500A113242017052308250002                                                
6024600096500171457911042038841500110000000                                                                                     
7PESE                                                                                000000000096500                            
82017052400000100000030000002015000000000000000000000000000000000000000000003                                                   
9201705240000010000003000000201500000000000000000000000000000000000000000000003                                                 
