120170920PAGO FACIL               090060246MARITIMO SRL                                                                         
320170920000001MARITIMO SRL                                                                                                     
50000110201709192017092082170231756476       PES0000029000A146392017091917490007                                                
6024600029000172688217023175647600035000036                                                                                     
7PESE                                                                                000000000029000                            
50000210201709192017092017081630297884       PES0000058000A168102017091910360024                                                
6024600058000172641708163029788400000000063                                                                                     
7PESE                                                                                000000000058000                            
50000310201709192017092017080625975898       PES0000095000A163242017091914190033                                                
6024600095000172631708062597589800000000000                                                                                     
7PESE                                                                                000000000095000                            
50000410201709192017092017080724194221       PES0000095000A640692017091910080022                                                
6024600095000172641708072419422100000000078                                                                                     
7PESE                                                                                000000000095000                            
50000510201709192017092017080820322867       PES0000095000A153272017091910270011                                                
6024600095000172641708082032286700000000084                                                                                     
7PESE                                                                                000000000095000                            
50000610201709192017092017080821940772       PES0000095000A128042017091917020092                                                
6024600095000172641708082194077200000000042                                                                                     
7PESE                                                                                000000000095000                            
50000710201709192017092017081111800198       PES0000095000M720002017091910430067                                                
6024600095000172641708111180019800000000042                                                                                     
7PESE                                                                                000000000095000                            
50000810201709192017092000949435592785       PES0000117000A196972017091918130072                                                
6024600117000172640094943559278500000000090                                                                                     
7PESE                                                                                000000000117000                            
50000910201709192017092000939339080203       PES0000117000A211012017091909260012                                                
6024600117000172650093933908020300000000084                                                                                     
7PESE                                                                                000000000117000                            
50001010201709192017092079120725605692       PES0000145000A082002017091917270068                                                
6024600145000172697912072560569200265000042                                                                                     
7PESE                                                                                000000000145000                            
82017092000000100000100000009410000000000000000000000000000000000000000000010                                                   
9201709200000010000010000000941000000000000000000000000000000000000000000000010                                                 
