120171220PAGO FACIL               090060246MARITIMO SRL                                                                         
320171220000001MARITIMO SRL                                                                                                     
50000110201712192017122082180344145101       PES0000040500A228392017121910040002                                                
6024600040500173548218034414510100020000000                                                                                     
7PESE                                                                                000000000040500                            
50000210201712192017122082180816572690       PES0000040500A228392017121910060003                                                
6024600040500173548218081657269000020000084                                                                                     
7PESE                                                                                000000000040500                            
50000310201712192017122085044422069767       PES0000113700A168402017121916190060                                                
6024600113700173598504442206976700000000037                                                                                     
7PESE                                                                                000000000113700                            
82017122000000100000030000001947000000000000000000000000000000000000000000003                                                   
9201712200000010000003000000194700000000000000000000000000000000000000000000003                                                 
