120180627PAGO FACIL               090060246MARITIMO SRL                                                                         
320180627000001MARITIMO SRL                                                                                                     
50000110201806262018062782202624251196       PES0000068500A115442018062617030002                                                
6024600063200181738220262425119600053000757                                                                                     
7PESE                                                                                000000000068500                            
50000210201806262018062702641630026012       PES0000085600A058112018062612000009                                                
6024600069500181760264163002601200161000100                                                                                     
7PESE                                                                                000000000085600                            
50000310201806262018062701181140207671       PES0000150000A205342018062611360053                                                
6024600150000181840118114020767100000000063                                                                                     
7PESE                                                                                000000000150000                            
82018062700000100000030000003041000000000000000000000000000000000000000000003                                                   
9201806270000010000003000000304100000000000000000000000000000000000000000000003                                                 
