120171226PAGO FACIL               090060246MARITIMO SRL                                                                         
320171226000001MARITIMO SRL                                                                                                     
50000110201712222017122685044323694049       PES0000113700A063242017122217560091                                                
6024600113700173568504432369404900000000016                                                                                     
7PESE                                                                                000000000113700                            
50000210201712222017122682181326901741       PES0000040500M620182017122210070002                                                
6024600040500173618218132690174100020000057                                                                                     
7PESE                                                                                000000000040500                            
82017122600000100000020000001542000000000000000000000000000000000000000000002                                                   
9201712260000010000002000000154200000000000000000000000000000000000000000000002                                                 
