120171127PAGO FACIL               090060246MARITIMO SRL                                                                         
320171127000001MARITIMO SRL                                                                                                     
50000110201711242017112703052035043992       PES0000020000A227232017112414400002                                                
6024600020000173340305203504399200000000079                                                                                     
7PESE                                                                                000000000020000                            
50000210201711242017112703050230289302       PES0000025000A115442017112417130047                                                
6024600025000173320305023028930200000000042                                                                                     
7PESE                                                                                000000000025000                            
50000310201711242017112703051228608338       PES0000025000A115442017112417130046                                                
6024600025000173320305122860833800000000000                                                                                     
7PESE                                                                                000000000025000                            
50000410201711252017112703050233646401       PES0000030000A133472017112511080040                                                
6024600030000173360305023364640100000000042                                                                                     
7PESE                                                                                000000000030000                            
50000510201711252017112703051228561843       PES0000030000A160072017112519300119                                                
6024600030000173360305122856184300000000090                                                                                     
7PESE                                                                                000000000030000                            
82017112700000100000050000001300000000000000000000000000000000000000000000005                                                   
9201711270000010000005000000130000000000000000000000000000000000000000000000005                                                 
