120170427PAGO FACIL               090060246MARITIMO SRL                                                                         
320170427000001MARITIMO SRL                                                                                                     
50000110201704262017042782150230799562       PES0000032500A139292017042617040053                                                
6024600032500171228215023079956200000000042                                                                                     
7PESE                                                                                000000000032500                            
82017042700000100000010000000325000000000000000000000000000000000000000000001                                                   
9201704270000010000001000000032500000000000000000000000000000000000000000000001                                                 
