120170720PAGO FACIL               090060246MARITIMO SRL                                                                         
320170720000001MARITIMO SRL                                                                                                     
50000110201707192017072076041818250403       PES0000020000A620262017071909060033                                                
6024600020000172077604181825040300000000084                                                                                     
7PESE                                                                                000000000020000                            
50000210201707192017072082160141921491       PES0000029000A172542017071918130031                                                
6024600029000172058216014192149100035000037                                                                                     
7PESE                                                                                000000000029000                            
50000310201707192017072082160330519651       PES0000048000A039022017071909580149                                                
6024600048000172018216033051965100030000000                                                                                     
7PESE                                                                                000000000048000                            
50000410201707192017072082161423502888       PES0000048000A154252017071916560040                                                
6024600048000172028216142350288800030000021                                                                                     
7PESE                                                                                000000000048000                            
50000510201707192017072082161521550853       PES0000048000A163812017071910580013                                                
6024600048000172078216152155085300030000078                                                                                     
7PESE                                                                                000000000048000                            
82017072000000100000050000001930000000000000000000000000000000000000000000005                                                   
9201707200000010000005000000193000000000000000000000000000000000000000000000005                                                 
