120171027PAGO FACIL               090060246MARITIMO SRL                                                                         
320171027000001MARITIMO SRL                                                                                                     
50000110201710262017102779120821402568       PES0000171500A050932017102619550021                                                
6024600171500173007912082140256800000000078                                                                                     
7PESE                                                                                000000000171500                            
82017102700000100000010000001715000000000000000000000000000000000000000000001                                                   
9201710270000010000001000000171500000000000000000000000000000000000000000000001                                                 
