120170725PAGO FACIL               090060246MARITIMO SRL                                                                         
320170725000001MARITIMO SRL                                                                                                     
50000110201707242017072576041527771354       PES0000020000A177812017072412070049                                                
6024600020000172127604152777135400000000021                                                                                     
7PESE                                                                                000000000020000                            
50000210201707242017072582160716585567       PES0000048000A171952017072417160088                                                
6024600048000172108216071658556700030000042                                                                                     
7PESE                                                                                000000000048000                            
50000310201707242017072500949437618942       PES0000117000A087252017072412310004                                                
6024600117000172080094943761894200000000037                                                                                     
7PESE                                                                                000000000117000                            
50000410201707242017072500929241711955       PES0000117000A181622017072418050054                                                
6024600117000172120092924171195500000000084                                                                                     
7PESE                                                                                000000000117000                            
50000510201707242017072500949438535894       PES0000117000A202702017072412520038                                                
6024600117000172120094943853589400000000058                                                                                     
7PESE                                                                                000000000117000                            
50000610201707242017072500949441475691       PES0000117000A202702017072412530039                                                
6024600117000172120094944147569100000000090                                                                                     
7PESE                                                                                000000000117000                            
82017072500000100000060000005360000000000000000000000000000000000000000000006                                                   
9201707250000010000006000000536000000000000000000000000000000000000000000000006                                                 
