120170628PAGO FACIL               090060246MARITIMO SRL                                                                         
320170628000001MARITIMO SRL                                                                                                     
50000110201706272017062800888838629372       PES0000117000A114992017062717250036                                                
6024600117000171810088883862937200000000084                                                                                     
7PESE                                                                                000000000117000                            
82017062800000100000010000001170000000000000000000000000000000000000000000001                                                   
9201706280000010000001000000117000000000000000000000000000000000000000000000001                                                 
