120180726PAGO FACIL               090060246MARITIMO SRL                                                                         
320180726000001MARITIMO SRL                                                                                                     
50000110201807252018072682201720966249       PES0000053500A145492018072517220059                                                
6024600053500182078220172096624900000000021                                                                                     
7PESE                                                                                000000000053500                            
50000210201807252018072682200340350197       PES0000053500A141672018072518360002                                                
6024600053500182138220034035019700000000099                                                                                     
7PESE                                                                                000000000053500                            
50000310201807252018072682200433546699       PES0000053500A141672018072518380003                                                
6024600053500182138220043354669900000000000                                                                                     
7PESE                                                                                000000000053500                            
50000410201807252018072682200792022081       PES0000053500A141662018072512550017                                                
6024600053500182138220079202208100000000090                                                                                     
7PESE                                                                                000000000053500                            
50000510201807252018072682201334977509       PES0000053500A141672018072518390004                                                
6024600053500182138220133497750900000000036                                                                                     
7PESE                                                                                000000000053500                            
50000610201807252018072682201430680352       PES0000053500A141662018072512550016                                                
6024600053500182138220143068035200000000021                                                                                     
7PESE                                                                                000000000053500                            
50000710201807252018072682201624018674       PES0000053500A087612018072512260014                                                
6024600053500182138220162401867400000000042                                                                                     
7PESE                                                                                000000000053500                            
82018072600000100000070000003745000000000000000000000000000000000000000000007                                                   
9201807260000010000007000000374500000000000000000000000000000000000000000000007                                                 
