120170329PAGO FACIL               090060246MARITIMO SRL                                                                         
320170329000001MARITIMO SRL                                                                                                     
50000110201703282017032982143013605607       PES0000034000A143422017032811200062                                                
6024600034000170888214301360560700030000000                                                                                     
7PESE                                                                                000000000034000                            
50000210201703282017032982142438257472       PES0000034000A161042017032811370069                                                
6024600034000170908214243825747200030007221                                                                                     
7PESE                                                                                000000000034000                            
50000310201703282017032982143633297465       PES0000034000A170822017032818360101                                                
6024600034000170908214363329746500030007221                                                                                     
7PESE                                                                                000000000034000                            
50000410201703282017032982144210858562       PES0000034000A143422017032816470016                                                
6024600034000170908214421085856200030007363                                                                                     
7PESE                                                                                000000000034000                            
50000510201703282017032979101620351093       PES0000034500A178242017032812420106                                                
6024600034500170947910162035109300000000063                                                                                     
7PESE                                                                                000000000034500                            
50000610201703282017032979100528142048       PES0000042000A620382017032811380052                                                
6024600042000170897910052814204800070000042                                                                                     
7PESE                                                                                000000000042000                            
50000710201703282017032979100623889756       PES0000042000A178242017032809580031                                                
6024600042000170917910062388975600070000221                                                                                     
7PESE                                                                                000000000042000                            
50000810201703282017032979100721529831       PES0000042000A143522017032809080009                                                
6024600042000170917910072152983100070000257                                                                                     
7PESE                                                                                000000000042000                            
50000910201703282017032982140426098730       PES0000046000A151422017032811050009                                                
6024600046000170878214042609873000030000063                                                                                     
7PESE                                                                                000000000046000                            
50001010201703282017032982140523788368       PES0000046000A170822017032818350100                                                
6024600046000170908214052378836800030007263                                                                                     
7PESE                                                                                000000000046000                            
50001110201703282017032982140524699858       PES0000046000A167382017032810220017                                                
6024600046000170908214052469985800030007099                                                                                     
7PESE                                                                                000000000046000                            
82017032900000100000110000004345000000000000000000000000000000000000000000011                                                   
9201703290000010000011000000434500000000000000000000000000000000000000000000011                                                 
