120170426PAGO FACIL               090060246MARITIMO SRL                                                                         
320170426000001MARITIMO SRL                                                                                                     
50000110201704252017042682150717223393       PES0000051000M620662017042510280007                                                
6024600051000171228215071722339300000000084                                                                                     
7PESE                                                                                000000000051000                            
50000210201704252017042682151617223243       PES0000051000M620662017042510290008                                                
6024600051000171228215161722324300000000057                                                                                     
7PESE                                                                                000000000051000                            
82017042600000100000020000001020000000000000000000000000000000000000000000002                                                   
9201704260000010000002000000102000000000000000000000000000000000000000000000002                                                 
