120170622PAGO FACIL               090060246MARITIMO SRL                                                                         
320170622000001MARITIMO SRL                                                                                                     
50000110201706212017062204010522646783       PES0000040000A124712017062118450020                                                
6024600040000171720401052264678300000000036                                                                                     
7PESE                                                                                000000000040000                            
50000210201706212017062204013621520950       PES0000040000A065852017062110280030                                                
6024600040000171720401362152095000000000057                                                                                     
7PESE                                                                                000000000040000                            
50000310201706212017062279110142782472       PES0000107500A141662017062112290073                                                
6024600107500171727911014278247200000000042                                                                                     
7PESE                                                                                000000000107500                            
50000410201706212017062279110418248174       PES0000107500A082002017062120400072                                                
6024600107500171727911041824817400000000036                                                                                     
7PESE                                                                                000000000107500                            
82017062200000100000040000002950000000000000000000000000000000000000000000004                                                   
9201706220000010000004000000295000000000000000000000000000000000000000000000004                                                 
