120171229PAGO FACIL               090060246MARITIMO SRL                                                                         
320171229000001MARITIMO SRL                                                                                                     
50000110201712282017122982180435043832       PES0000040500A139082017122818070034                                                
6024600040500173628218043504383200020000084                                                                                     
7PESE                                                                                000000000040500                            
50000210201712282017122982180625397020       PES0000040500A210972017122814350007                                                
6024600040500173628218062539702000020000084                                                                                     
7PESE                                                                                000000000040500                            
50000310201712282017122982181232154043       PES0000040500A139082017122818090036                                                
6024600040500173628218123215404300020000078                                                                                     
7PESE                                                                                000000000040500                            
50000410201712282017122982181426541924       PES0000040500A139082017122818080035                                                
6024600040500173628218142654192400020000090                                                                                     
7PESE                                                                                000000000040500                            
50000510201712282017122982180528453953       PES0000040500A211002017122813270016                                                
6024600040500180028218052845395300020000290                                                                                     
7PESE                                                                                000000000040500                            
50000610201712282017122982181326654092       PES0000040500A134992017122818560018                                                
6024600040500180028218132665409200020000090                                                                                     
7PESE                                                                                000000000040500                            
50000710201712282017122985041022289549       PES0000093000A174682017122810000020                                                
6024600093000180028504102228954900000000000                                                                                     
7PESE                                                                                000000000093000                            
50000810201712282017122985044131992398       PES0000113700A125852017122814130027                                                
6024600113700180038504413199239800000000000                                                                                     
7PESE                                                                                000000000113700                            
50000910201712282017122985044227335228       PES0000113700A231912017122814400084                                                
6024600113700180038504422733522800000000079                                                                                     
7PESE                                                                                000000000113700                            
50001010201712282017122985046593754951       PES0000113700A172372017122810590053                                                
6024600113700180038504659375495100000000000                                                                                     
7PESE                                                                                000000000113700                            
50001110201712282017122985044227507740       PES0000113700A154812017122820050100                                                
6024600113700180048504422750774000000000000                                                                                     
7PESE                                                                                000000000113700                            
50001210201712282017122999330141347434       PES0000135000A790122017122811590036                                                
6024600135000173659933014134743400000000084                                                                                     
7PESE                                                                                000000000135000                            
82017122900000100000120000009258000000000000000000000000000000000000000000012                                                   
9201712290000010000012000000925800000000000000000000000000000000000000000000012                                                 
