120180129PAGO FACIL               090060246MARITIMO SRL                                                                         
320180129000001MARITIMO SRL                                                                                                     
50000110201801262018012900962736625648       PES0000025000A211472018012617550017                                                
6024600025000180260096273662564800000000057                                                                                     
7PESE                                                                                000000000025000                            
82018012900000100000010000000250000000000000000000000000000000000000000000001                                                   
9201801290000010000001000000025000000000000000000000000000000000000000000000001                                                 
