120180323PAGO FACIL               090060246MARITIMO SRL                                                                         
320180323000001MARITIMO SRL                                                                                                     
50000110201803222018032388080230258166       PES0000030000A189042018032213060015                                                
6024600030000180828808023025816600000000037                                                                                     
7PESE                                                                                000000000030000                            
50000210201803222018032388080236390932       PES0000030000A189042018032214150088                                                
6024600030000180848808023639093200000000042                                                                                     
7PESE                                                                                000000000030000                            
50000310201803222018032388080239119655       PES0000030000A075062018032216080001                                                
6024600030000180848808023911965500000000037                                                                                     
7PESE                                                                                000000000030000                            
50000410201803222018032388080240825001       PES0000030000A217532018032218060016                                                
6024600030000180848808024082500100000000015                                                                                     
7PESE                                                                                000000000030000                            
50000510201803222018032388080245209149       PES0000030000L270292018032214500187                                                
6024600030000180848808024520914900000000042                                                                                     
7PESE                                                                                000000000030000                            
50000610201803222018032388080144535664       PES0000051000A177672018032212460017                                                
6024600051000180878808014453566400000000036                                                                                     
7PESE                                                                                000000000051000                            
82018032300000100000060000002010000000000000000000000000000000000000000000006                                                   
9201803230000010000006000000201000000000000000000000000000000000000000000000006                                                 
