120180924PAGO FACIL               090060246MARITIMO SRL                                                                         
320180924000001MARITIMO SRL                                                                                                     
50000110201809212018092402660528532655       PES0000100000A200292018092109580010                                                
6024600100000182660266052853265500100000499                                                                                     
7PESE                                                                                000000000100000                            
82018092400000100000010000001000000000000000000000000000000000000000000000001                                                   
9201809240000010000001000000100000000000000000000000000000000000000000000000001                                                 
