120180524PAGO FACIL               090060246MARITIMO SRL                                                                         
320180524000001MARITIMO SRL                                                                                                     
50000110201805232018052482190528048196       PES0000048200A170882018052312020041                                                
6024600048200181438219052804819600043000016                                                                                     
7PESE                                                                                000000000048200                            
50000210201805232018052499460114517294       PES0000050000M620412018052311390016                                                
6024600050000181489946011451729400000000084                                                                                     
7PESE                                                                                000000000050000                            
50000310201805232018052482192126778208       PES0000068600A061862018052315580001                                                
6024600068600181448219212677820800043000078                                                                                     
7PESE                                                                                000000000068600                            
50000410201805232018052401171131802387       PES0000150000A263602018052311020062                                                
6024600150000181500117113180238700000000099                                                                                     
7PESE                                                                                000000000150000                            
50000510201805232018052401171140815658       PES0000150000D005942018052318470113                                                
6024600150000181500117114081565800000000021                                                                                     
7PESE                                                                                000000000150000                            
82018052400000100000050000004668000000000000000000000000000000000000000000005                                                   
9201805240000010000005000000466800000000000000000000000000000000000000000000005                                                 
