120180523PAGO FACIL               090060246MARITIMO SRL                                                                         
320180523000001MARITIMO SRL                                                                                                     
50000110201805222018052382190193768036       PES0000032200D001502018052215460180                                                
6024600032200181478219019376803600021000015                                                                                     
7PESE                                                                                000000000032200                            
50000210201805222018052382190223011760       PES0000032200A144542018052211530059                                                
6024600032200181478219022301176000021000163                                                                                     
7PESE                                                                                000000000032200                            
50000310201805222018052382190232425471       PES0000032200A196912018052212230020                                                
6024600032200181478219023242547100021000216                                                                                     
7PESE                                                                                000000000032200                            
50000410201805222018052382190434217083       PES0000048200D001502018052215460181                                                
6024600048200181478219043421708300043000015                                                                                     
7PESE                                                                                000000000048200                            
50000510201805222018052382190626346403       PES0000048200A159952018052210380048                                                
6024600048200181478219062634640300043000200                                                                                     
7PESE                                                                                000000000048200                            
50000610201805222018052382191427826580       PES0000048200A151422018052210410032                                                
6024600048200181478219142782658000043000199                                                                                     
7PESE                                                                                000000000048200                            
50000710201805222018052382191524312348       PES0000048200A151422018052210410033                                                
6024600048200181478219152431234800043000199                                                                                     
7PESE                                                                                000000000048200                            
50000810201805222018052382192223260968       PES0000068600A144542018052211530060                                                
6024600068600181478219222326096800043000158                                                                                     
7PESE                                                                                000000000068600                            
50000910201805222018052382192337011941       PES0000068600A210952018052212090045                                                
6024600068600181478219233701194100043000178                                                                                     
7PESE                                                                                000000000068600                            
82018052300000100000090000004266000000000000000000000000000000000000000000009                                                   
9201805230000010000009000000426600000000000000000000000000000000000000000000009                                                 
