120170629PAGO FACIL               090060246MARITIMO SRL                                                                         
320170629000001MARITIMO SRL                                                                                                     
50000110201706282017062996020140425183       PES0000085000A039022017062810440075                                                
6024600085000171829602014042518300000000058                                                                                     
7PESE                                                                                000000000085000                            
50000210201706282017062900939338535894       PES0000117000A164602017062815290027                                                
6024600117000171810093933853589400000000063                                                                                     
7PESE                                                                                000000000117000                            
50000310201706282017062900939341475691       PES0000117000A164602017062815290026                                                
6024600117000171810093934147569100000000000                                                                                     
7PESE                                                                                000000000117000                            
50000410201706282017062900939339619591       PES0000117000A136742017062811560076                                                
6024600117000171850093933961959100000000084                                                                                     
7PESE                                                                                000000000117000                            
82017062900000100000040000004360000000000000000000000000000000000000000000004                                                   
9201706290000010000004000000436000000000000000000000000000000000000000000000004                                                 
