120170626PAGO FACIL               090060246MARITIMO SRL                                                                         
320170626000001MARITIMO SRL                                                                                                     
50000110201706232017062600939331053686       PES0000117000D005942017062311190023                                                
6024600117000171800093933105368600000000057                                                                                     
7PESE                                                                                000000000117000                            
82017062600000100000010000001170000000000000000000000000000000000000000000001                                                   
9201706260000010000001000000117000000000000000000000000000000000000000000000001                                                 
