120171121PAGO FACIL               090060246MARITIMO SRL                                                                         
320171121000001MARITIMO SRL                                                                                                     
50000110201711172017112188080133416563       PES0000051000A174972017111718550032                                                
6024600051000173288808013341656300000000042                                                                                     
7PESE                                                                                000000000051000                            
50000210201711182017112100959517531878       PES0000117000A164932017111817200012                                                
6024600117000173240095951753187800000000099                                                                                     
7PESE                                                                                000000000117000                            
82017112100000100000020000001680000000000000000000000000000000000000000000002                                                   
9201711210000010000002000000168000000000000000000000000000000000000000000000002                                                 
