120180226PAGO FACIL               090060246MARITIMO SRL                                                                         
320180226000001MARITIMO SRL                                                                                                     
50000110201802232018022610093922962785       PES0000060000A700312018022308350015                                                
6024600060000180571009392296278500050000090                                                                                     
7PESE                                                                                000000000060000                            
82018022600000100000010000000600000000000000000000000000000000000000000000001                                                   
9201802260000010000001000000060000000000000000000000000000000000000000000000001                                                 
