120171023PAGO FACIL               090060246MARITIMO SRL                                                                         
320171023000001MARITIMO SRL                                                                                                     
50000110201710202017102382171521918836       PES0000051000A162812017102012350030                                                
6024600051000172968217152191883600000000016                                                                                     
7PESE                                                                                000000000051000                            
50000210201710202017102382170524104141       PES0000051000A196812017102015030019                                                
6024600051000172988217052410414100000000016                                                                                     
7PESE                                                                                000000000051000                            
50000310201710202017102379121737054061       PES0000171500A620222017102012140032                                                
6024600171500172947912173705406100000000078                                                                                     
7PESE                                                                                000000000171500                            
50000410201710202017102379120725216635       PES0000171500A177672017102019310064                                                
6024600171500172967912072521663500000000042                                                                                     
7PESE                                                                                000000000171500                            
50000510201710202017102399310131346933       PES0000060000A108942017102018030003                                                
6024600060000172999931013134693300000000037                                                                                     
7PESE                                                                                000000000060000                            
50000610201710212017102382172318469932       PES0000066000A170882017102118110033                                                
6024600066000172988217231846993200000000042                                                                                     
7PESE                                                                                000000000066000                            
82017102300000100000060000005710000000000000000000000000000000000000000000006                                                   
9201710230000010000006000000571000000000000000000000000000000000000000000000006                                                 
