120170421PAGO FACIL               090060246MARITIMO SRL                                                                         
320170421000001MARITIMO SRL                                                                                                     
50000110201704202017042182142724539478       PES0000037000A182512017042011000022                                                
6024600037000171108214272453947800000000063                                                                                     
7PESE                                                                                000000000037000                            
50000210201704202017042182142436400193       PES0000037000A165912017042016320009                                                
6024600037000171118214243640019300000000021                                                                                     
7PESE                                                                                000000000037000                            
50000310201704202017042182142437434484       PES0000037000A143422017042011070039                                                
6024600037000171118214243743448400000000021                                                                                     
7PESE                                                                                000000000037000                            
50000410201704202017042182142439211792       PES0000037000A134992017042018160139                                                
6024600037000171118214243921179200000000036                                                                                     
7PESE                                                                                000000000037000                            
50000510201704202017042182142625968090       PES0000037000A081382017042017540081                                                
6024600037000171118214262596809000000000079                                                                                     
7PESE                                                                                000000000037000                            
50000610201704202017042182142724761792       PES0000037000A143422017042011530049                                                
6024600037000171118214272476179200000000042                                                                                     
7PESE                                                                                000000000037000                            
50000710201704202017042182150717067634       PES0000048000A143422017042010240027                                                
6024600048000171138215071706763400030000021                                                                                     
7PESE                                                                                000000000048000                            
50000810201704202017042182140232799740       PES0000049000M620072017042016230003                                                
6024600049000171118214023279974000000000099                                                                                     
7PESE                                                                                000000000049000                            
50000910201704202017042182140523313359       PES0000049000A145492017042012050065                                                
6024600049000171118214052331335900000000063                                                                                     
7PESE                                                                                000000000049000                            
50001010201704202017042182141432907392       PES0000049000A180962017042010200025                                                
6024600049000171118214143290739200000000037                                                                                     
7PESE                                                                                000000000049000                            
82017042100000100000100000004170000000000000000000000000000000000000000000010                                                   
9201704210000010000010000000417000000000000000000000000000000000000000000000010                                                 
