120171227PAGO FACIL               090060246MARITIMO SRL                                                                         
320171227000001MARITIMO SRL                                                                                                     
50000110201712262017122782180435618169       PES0000040500A211072017122611450070                                                
6024600040500180028218043561816900020000015                                                                                     
7PESE                                                                                000000000040500                            
50000210201712262017122785040635621133       PES0000093000A159912017122614460078                                                
6024600093000173618504063562113300000000016                                                                                     
7PESE                                                                                000000000093000                            
50000310201712262017122785044229718366       PES0000113700A231912017122614390034                                                
6024600113700180028504422971836600000000099                                                                                     
7PESE                                                                                000000000113700                            
50000410201712262017122785044325397483       PES0000113700A047422017122609280020                                                
6024600113700180028504432539748300000000042                                                                                     
7PESE                                                                                000000000113700                            
82017122700000100000040000003609000000000000000000000000000000000000000000004                                                   
9201712270000010000004000000360900000000000000000000000000000000000000000000004                                                 
