120180731PAGO FACIL               090060246MARITIMO SRL                                                                         
320180731000001MARITIMO SRL                                                                                                     
50000110201807302018073182200623745826       PES0000053500A254692018072810010001                                                
6024600053500182138220062374582600000000021                                                                                     
7PESE                                                                                000000000053500                            
50000210201807302018073182200121503610       PES0000037500A166862018073018370075                                                
6024600037500182128220012150361000000000021                                                                                     
7PESE                                                                                000000000037500                            
50000310201807302018073182200228754610       PES0000037500A170152018073015090006                                                
6024600037500182138220022875461000000000090                                                                                     
7PESE                                                                                000000000037500                            
50000410201807302018073182200529268065       PES0000053500A161042018073018030034                                                
6024600053500182138220052926806500000000021                                                                                     
7PESE                                                                                000000000053500                            
50000510201807302018073182200623788368       PES0000053500A137312018073018390084                                                
6024600053500182138220062378836800000000016                                                                                     
7PESP                                                                                000000000053500                            
50000610201807302018073182200721465439       PES0000053500A166862018073018370074                                                
6024600053500182138220072146543900000000079                                                                                     
7PESE                                                                                000000000053500                            
50000710201807302018073182200721550821       PES0000053500A161042018073018110037                                                
6024600053500182138220072155082100000000058                                                                                     
7PESE                                                                                000000000053500                            
50000810201807302018073182200817051254       PES0000053500A140792018073012040109                                                
6024600053500182138220081705125400000000021                                                                                     
7PESE                                                                                000000000053500                            
50000910201807302018073182201433297465       PES0000053500A137312018073018400085                                                
6024600053500182138220143329746500000000000                                                                                     
7PESP                                                                                000000000053500                            
50001010201807302018073182201527826580       PES0000053500A161042018073018110038                                                
6024600053500182138220152782658000000000000                                                                                     
7PESE                                                                                000000000053500                            
50001110201807302018073182201722487617       PES0000053500A163102018073017530089                                                
6024600053500182138220172248761700000000063                                                                                     
7PESE                                                                                000000000053500                            
50001210201807302018073182201820042760       PES0000053500A620322018073012470013                                                
6024600053500182138220182004276000000000015                                                                                     
7PESE                                                                                000000000053500                            
50001310201807302018073182202528297598       PES0000072800A070282018073010060004                                                
6024600072800182138220252829759800000000063                                                                                     
7PESE                                                                                000000000072800                            
82018073100000100000130000006828000000000000000000000000000000000000000000013                                                   
9201807310000010000013000000682800000000000000000000000000000000000000000000013                                                 
