120170331PAGO FACIL               090060246MARITIMO SRL                                                                         
320170331000001MARITIMO SRL                                                                                                     
50000110201703302017033182142433546555       PES0000034000A145652017033018300007                                                
6024600034000170908214243354655500030007442                                                                                     
7PESE                                                                                000000000034000                            
50000210201703302017033182142530680007       PES0000034000A158142017033018430015                                                
6024600034000170908214253068000700030007221                                                                                     
7PESE                                                                                000000000034000                            
50000310201703302017033182142531433413       PES0000034000A143422017033018560027                                                
6024600034000170908214253143341300030007484                                                                                     
7PESE                                                                                000000000034000                            
50000410201703302017033182142723005902       PES0000034000A139922017033018410211                                                
6024600034000170908214272300590200030007378                                                                                     
7PESE                                                                                000000000034000                            
50000510201703302017033182142724982336       PES0000034000D002492017033011150031                                                
6024600034000170908214272498233600030007321                                                                                     
7PESE                                                                                000000000034000                            
50000610201703302017033182142822158479       PES0000034000A162022017033008090006                                                
6024600034000170908214282215847900030007184                                                                                     
7PESE                                                                                000000000034000                            
50000710201703302017033182143727044050       PES0000034000A158142017033018420014                                                
6024600034000170908214372704405000030007216                                                                                     
7PESE                                                                                000000000034000                            
50000810201703302017033182143823492406       PES0000034000A039022017033012190083                                                
6024600034000170908214382349240600030007190                                                                                     
7PESE                                                                                000000000034000                            
50000910201703302017033182143825689976       PES0000034000A166542017033017460021                                                
6024600034000170908214382568997600030007478                                                                                     
7PESE                                                                                000000000034000                            
50001010201703302017033182140332383377       PES0000046000A090632017033016070007                                                
6024600046000170908214033238337700030007421                                                                                     
7PESE                                                                                000000000046000                            
50001110201703302017033182140523779787       PES0000046000A085792017033016440041                                                
6024600046000170908214052377978700030007399                                                                                     
7PESE                                                                                000000000046000                            
50001210201703302017033182140620401376       PES0000046000A140792017033009490024                                                
6024600046000170908214062040137600030007490                                                                                     
7PESE                                                                                000000000046000                            
50001310201703302017033182140620467742       PES0000046000A039082017033012000113                                                
6024600046000170908214062046774200030007499                                                                                     
7PESE                                                                                000000000046000                            
50001410201703302017033182140717338357       PES0000046000D002512017033013040054                                                
6024600046000170908214071733835700030007363                                                                                     
7PESE                                                                                000000000046000                            
50001510201703302017033182140911692653       PES0000046000A137312017033019300003                                                
6024600046000170908214091169265300030007236                                                                                     
7PESE                                                                                000000000046000                            
50001610201703302017033182141430880136       PES0000046000A143422017033018560026                                                
6024600046000170908214143088013600030007478                                                                                     
7PESE                                                                                000000000046000                            
50001710201703302017033182141722329342       PES0000046000A052182017033009590013                                                
6024600046000170908214172232934200030007363                                                                                     
7PESE                                                                                000000000046000                            
82017033100000100000170000006740000000000000000000000000000000000000000000017                                                   
9201703310000010000017000000674000000000000000000000000000000000000000000000017                                                 
