120171031PAGO FACIL               090060246MARITIMO SRL                                                                         
320171031000001MARITIMO SRL                                                                                                     
50000110201710302017103196010236354956       PES0000099000A171842017103012430074                                                
6024600099000173049601023635495600000000063                                                                                     
7PESE                                                                                000000000099000                            
82017103100000100000010000000990000000000000000000000000000000000000000000001                                                   
9201710310000010000001000000099000000000000000000000000000000000000000000000001                                                 
