120170530PAGO FACIL               090060246MARITIMO SRL                                                                         
320170530000001MARITIMO SRL                                                                                                     
50000110201705292017053024010524269644       PES0000035000M620412017052916320088                                                
6024600035000171512401052426964400000000042                                                                                     
7PESE                                                                                000000000035000                            
50000210201705292017053024010718004785       PES0000035000D007202017052917580141                                                
6024600035000171512401071800478500000000015                                                                                     
7PESE                                                                                000000000035000                            
50000310201705292017053088080130890411       PES0000045000A115232017052917280157                                                
6024600045000171498808013089041100060000057                                                                                     
7PESE                                                                                000000000045000                            
50000410201705292017053088080138849662       PES0000045000A137772017052917270034                                                
6024600045000171558808013884966200060000042                                                                                     
7PESE                                                                                000000000045000                            
50000510201705292017053088080114476118       PES0000045000D001252017052914230062                                                
6024600045000171568808011447611800060000000                                                                                     
7PESE                                                                                000000000045000                            
50000610201705292017053024013527882580       PES0000070000M620412017052909510006                                                
6024600070000171512401352788258000000000042                                                                                     
7PESE                                                                                000000000070000                            
82017053000000100000060000002750000000000000000000000000000000000000000000006                                                   
9201705300000010000006000000275000000000000000000000000000000000000000000000006                                                 
