120170531PAGO FACIL               090060246MARITIMO SRL                                                                         
320170531000001MARITIMO SRL                                                                                                     
50000110201705302017053188080125416333       PES0000045000D007242017053017530080                                                
6024600045000171508808012541633300060000058                                                                                     
7PESE                                                                                000000000045000                            
50000210201705302017053188080125016491       PES0000045000D003092017053017290013                                                
6024600045000171558808012501649100060000000                                                                                     
7PESE                                                                                000000000045000                            
50000310201705302017053188080133070049       PES0000045000A085192017053015030018                                                
6024600045000171558808013307004900060000037                                                                                     
7PESE                                                                                000000000045000                            
50000410201705302017053188080136860962       PES0000045000D002612017053011550056                                                
6024600045000171568808013686096200060000078                                                                                     
7PESE                                                                                000000000045000                            
50000510201705302017053188080137475178       PES0000045000D005992017053014280222                                                
6024600045000171568808013747517800060000063                                                                                     
7PESE                                                                                000000000045000                            
50000610201705302017053188080137797178       PES0000045000D002612017053011550057                                                
6024600045000171568808013779717800060000021                                                                                     
7PESE                                                                                000000000045000                            
50000710201705302017053188080116770349       PES0000045000A150892017053014200069                                                
6024600045000171578808011677034900060000036                                                                                     
7PESE                                                                                000000000045000                            
50000810201705302017053188080122091320       PES0000045000A150892017053014190068                                                
6024600045000171578808012209132000060000015                                                                                     
7PESE                                                                                000000000045000                            
50000910201705302017053188080137447720       PES0000045000A165922017053017550059                                                
6024600045000171578808013744772000060000090                                                                                     
7PESE                                                                                000000000045000                            
50001010201705302017053100929237086638       PES0000117000A143052017053019060056                                                
6024600117000171570092923708663800000000016                                                                                     
7PESE                                                                                000000000117000                            
82017053100000100000100000005220000000000000000000000000000000000000000000010                                                   
9201705310000010000010000000522000000000000000000000000000000000000000000000010                                                 
