120170731PAGO FACIL               090060246MARITIMO SRL                                                                         
320170731000001MARITIMO SRL                                                                                                     
50000110201707282017073182160136858104       PES0000029000A095592017072812490033                                                
6024600029000172128216013685810400035007142                                                                                     
7PESE                                                                                000000000029000                            
50000210201707282017073182161010515108       PES0000048000A159932017072810470018                                                
6024600048000172128216101051510800030007063                                                                                     
7PESE                                                                                000000000048000                            
50000310201707282017073182160814955633       PES0000048000A087612017072818580145                                                
6024600048000172128216081495563300030007036                                                                                     
7PESE                                                                                000000000048000                            
50000410201707282017073182160716475314       PES0000048000A170882017072811210013                                                
6024600048000172128216071647531400030007337                                                                                     
7PESE                                                                                000000000048000                            
82017073100000100000040000001730000000000000000000000000000000000000000000004                                                   
9201707310000010000004000000173000000000000000000000000000000000000000000000004                                                 
