120170831PAGO FACIL               090060246MARITIMO SRL                                                                         
320170831000001MARITIMO SRL                                                                                                     
50000110201708302017083117081016061654       PES0000080000A036962017083009140014                                                
6024600080000172431708101606165400150000037                                                                                     
7PESE                                                                                000000000080000                            
50000210201708302017083117080822413792       PES0000080000A036962017083011330046                                                
6024600080000172471708082241379200150000016                                                                                     
7PESE                                                                                000000000080000                            
50000310201708302017083117081110870651       PES0000080000A087842017083017560031                                                
6024600080000172471708111087065100150000000                                                                                     
7PESE                                                                                000000000080000                            
50000410201708302017083100949438533002       PES0000117000A100532017083018220024                                                
6024600117000172460094943853300200000000021                                                                                     
7PESE                                                                                000000000117000                            
50000510201708302017083179120628846394       PES0000145000A700152017083010490020                                                
6024600145000172437912062884639400265000090                                                                                     
7PESE                                                                                000000000145000                            
82017083100000100000050000005020000000000000000000000000000000000000000000005                                                   
9201708310000010000005000000502000000000000000000000000000000000000000000000005                                                 
