120170330PAGO FACIL               090060246MARITIMO SRL                                                                         
320170330000001MARITIMO SRL                                                                                                     
50000110201703292017033082142725497187       PES0000034000A170142017032918550092                                                
6024600034000170888214272549718700030000042                                                                                     
7PESE                                                                                000000000034000                            
50000210201703292017033082143536266494       PES0000034000A170142017032918550091                                                
6024600034000170888214353626649400030000021                                                                                     
7PESE                                                                                000000000034000                            
50000310201703292017033082142530665229       PES0000034000A171962017032909430009                                                
6024600034000170908214253066522900030007357                                                                                     
7PESE                                                                                000000000034000                            
50000410201703292017033082142626346163       PES0000034000A162032017032914080037                                                
6024600034000170908214262634616300030007316                                                                                     
7PESE                                                                                000000000034000                            
50000510201703292017033082142629375361       PES0000034000A160132017032912590006                                                
6024600034000170908214262937536100030007463                                                                                     
7PESE                                                                                000000000034000                            
50000610201703292017033082142722778725       PES0000034000A143422017032915050115                                                
6024600034000170908214272277872500030007463                                                                                     
7PESE                                                                                000000000034000                            
50000710201703292017033082142725429984       PES0000034000A159952017032917530063                                                
6024600034000170908214272542998400030007416                                                                                     
7PESE                                                                                000000000034000                            
50000810201703292017033082143442827752       PES0000034000A177442017032918320032                                                
6024600034000170908214344282775200030007199                                                                                     
7PESE                                                                                000000000034000                            
50000910201703292017033082140522915523       PES0000046000A170762017032915120081                                                
6024600046000170908214052291552300030007442                                                                                     
7PESE                                                                                000000000046000                            
50001010201703292017033082140716730661       PES0000046000A115442017032918210001                                                
6024600046000170908214071673066100030007300                                                                                     
7PESE                                                                                000000000046000                            
50001110201703292017033082141105389043       PES0000046000A140792017032910440067                                                
6024600046000170908214110538904300030007284                                                                                     
7PESE                                                                                000000000046000                            
50001210201703292017033082141519027727       PES0000046000A123592017032911310030                                                
6024600046000170908214151902772700030007357                                                                                     
7PESE                                                                                000000000046000                            
50001310201703292017033082141893785366       PES0000046000M620022017032915300004                                                
6024600046000170908214189378536600030007100                                                                                     
7PESE                                                                                000000000046000                            
82017033000000100000130000005020000000000000000000000000000000000000000000013                                                   
9201703300000010000013000000502000000000000000000000000000000000000000000000013                                                 
