120180730PAGO FACIL               090060246MARITIMO SRL                                                                         
320180730000001MARITIMO SRL                                                                                                     
50000110201807272018073082201626833969       PES0000053500A141662018072709490023                                                
6024600053500182138220162683396900000000079                                                                                     
7PESE                                                                                000000000053500                            
50000210201807272018073082200432746453       PES0000053500A211462018072711590049                                                
6024600053500182138220043274645300000000099                                                                                     
7PESE                                                                                000000000053500                            
50000310201807272018073082201624104337       PES0000053500A197112018072711200049                                                
6024600053500182138220162410433700000000079                                                                                     
7PESE                                                                                000000000053500                            
50000410201807272018073082201528761282       PES0000053500A210992018072709230001                                                
6024600053500182138220152876128200000000078                                                                                     
7PESE                                                                                000000000053500                            
50000510201807272018073001181141803306       PES0000150000A276052018072710510017                                                
6024600150000182090118114180330600000000016                                                                                     
7PESE                                                                                000000000150000                            
50000610201807272018073082200236625367       PES0000037500A227232018072716180022                                                
6024600037500182138220023662536700000000000                                                                                     
7PESE                                                                                000000000037500                            
50000710201807272018073082201624676447       PES0000053500M620942018072712210003                                                
6024600053500182108220162467644700000000021                                                                                     
7PESE                                                                                000000000053500                            
50000810201807282018073082202539278222       PES0000072800A095592018072809570009                                                
6024600072800182118220253927822200000000057                                                                                     
7PESE                                                                                000000000072800                            
50000910201807282018073082201723506433       PES0000053500D002502018072812390056                                                
6024600053500182138220172350643300000000036                                                                                     
7PESE                                                                                000000000053500                            
50001010201807282018073082202736170017       PES0000072800A170152018072814520019                                                
6024600072800182118220273617001700000000099                                                                                     
7PESE                                                                                000000000072800                            
50001110201807282018073076050722916549       PES0000025000A160072018072820040080                                                
6024600025000182167605072291654900000000057                                                                                     
7PESE                                                                                000000000025000                            
82018073000000100000110000006791000000000000000000000000000000000000000000011                                                   
9201807300000010000011000000679100000000000000000000000000000000000000000000011                                                 
