120180530PAGO FACIL               090060246MARITIMO SRL                                                                         
320180530000001MARITIMO SRL                                                                                                     
50000110201805292018053082190237012327       PES0000034300A169622018052917100089                                                
6024600032200181478219023701232700021000284                                                                                     
7PESE                                                                                000000000034300                            
50000210201805292018053082190140478786       PES0000034300A115442018052913060047                                                
6024600034300181548219014047878600000000099                                                                                     
7PESE                                                                                000000000034300                            
50000310201805292018053082190337557527       PES0000052500A174682018052916210010                                                
6024600052500181548219033755752700000000000                                                                                     
7PESE                                                                                000000000052500                            
50000410201805292018053082191331583325       PES0000052500A166862018052916410006                                                
6024600052500181548219133158332500000000042                                                                                     
7PESE                                                                                000000000052500                            
50000510201805292018053082191428729969       PES0000052500A166862018052916410007                                                
6024600052500181548219142872996900000000078                                                                                     
7PESE                                                                                000000000052500                            
50000610201805292018053082191524179129       PES0000052500A166862018052916410005                                                
6024600052500181548219152417912900000000036                                                                                     
7PESE                                                                                000000000052500                            
82018053000000100000060000002786000000000000000000000000000000000000000000006                                                   
9201805300000010000006000000278600000000000000000000000000000000000000000000006                                                 
