120170830PAGO FACIL               090060246MARITIMO SRL                                                                         
320170830000001MARITIMO SRL                                                                                                     
50000110201708292017083002614332973165       PES0000120000A075282017082916330016                                                
6024600120000172420261433297316500000000079                                                                                     
7PESE                                                                                000000000120000                            
82017083000000100000010000001200000000000000000000000000000000000000000000001                                                   
9201708300000010000001000000120000000000000000000000000000000000000000000000001                                                 
