120180830PAGO FACIL               090060246MARITIMO SRL                                                                         
320180830000001MARITIMO SRL                                                                                                     
50000110201808292018083001191140110258       PES0000150000A222882018082911170028                                                
6024600150000182470119114011025800000000063                                                                                     
7PESE                                                                                000000000150000                            
82018083000000100000010000001500000000000000000000000000000000000000000000001                                                   
9201808300000010000001000000150000000000000000000000000000000000000000000000001                                                 
