120171030PAGO FACIL               090060246MARITIMO SRL                                                                         
320171030000001MARITIMO SRL                                                                                                     
50000110201710272017103079120338959714       PES0000171500A103092017102710370035                                                
6024600171500173007912033895971400000000058                                                                                     
7PESE                                                                                000000000171500                            
50000210201710272017103079120820329850       PES0000171500A620952017102708480011                                                
6024600171500173007912082032985000000000021                                                                                     
7PESE                                                                                000000000171500                            
50000310201710272017103079121111171024       PES0000171500A164132017102712300017                                                
6024600171500173007912111117102400000000084                                                                                     
7PESE                                                                                000000000171500                            
50000410201710272017103079121612295590       PES0000171500A164132017102712300018                                                
6024600171500173007912161229559000000000099                                                                                     
7PESE                                                                                000000000171500                            
50000510201710272017103079120725178438       PES0000171500A110152017102713000206                                                
6024600171500173007912072517843800000000079                                                                                     
7PESE                                                                                000000000171500                            
50000610201710272017103083054611490616       PES0000045000A170142017102719290151                                                
6024600045000173048305461149061600200007216                                                                                     
7PESE                                                                                000000000045000                            
50000710201710272017103079120723070053       PES0000171500A118532017102719020059                                                
6024600171500173007912072307005300000000016                                                                                     
7PESE                                                                                000000000171500                            
50000810201710282017103079120339381766       PES0000171500A200142017102719260010                                                
6024600171500173007912033938176600000000036                                                                                     
7PESE                                                                                000000000171500                            
50000910201710282017103003051927460007       PES0000020000A134992017102817070005                                                
6024600020000173010305192746000700000000099                                                                                     
7PESE                                                                                000000000020000                            
82017103000000100000090000012655000000000000000000000000000000000000000000009                                                   
9201710300000010000009000001265500000000000000000000000000000000000000000000009                                                 
