120170630PAGO FACIL               090060246MARITIMO SRL                                                                         
320170630000001MARITIMO SRL                                                                                                     
50000110201706292017063000939317531878       PES0000117000A180282017062920520119                                                
6024600117000171870093931753187800000000042                                                                                     
7PESE                                                                                000000000117000                            
50000210201706292017063000939336143503       PES0000117000A180322017062918500095                                                
6024600117000171870093933614350300000000042                                                                                     
7PESE                                                                                000000000117000                            
82017063000000100000020000002340000000000000000000000000000000000000000000002                                                   
9201706300000010000002000000234000000000000000000000000000000000000000000000002                                                 
