120180531PAGO FACIL               090060246MARITIMO SRL                                                                         
320180531000001MARITIMO SRL                                                                                                     
50000110201805302018053182190223393944       PES0000034300A166862018053011080012                                                
6024600034300181548219022339394400000000021                                                                                     
7PESE                                                                                000000000034300                            
50000210201805302018053182190233114909       PES0000034300A146392018053013240017                                                
6024600034300181548219023311490900000000021                                                                                     
7PESE                                                                                000000000034300                            
50000310201805302018053182190820208711       PES0000052500A157942018053013110123                                                
6024600048200181478219082020871100043007516                                                                                     
7PESE                                                                                000000000052500                            
50000410201805302018053182191525491379       PES0000052500A166862018053018370055                                                
6024600048200181478219152549137900043000499                                                                                     
7PESE                                                                                000000000052500                            
50000510201805302018053182190529268065       PES0000052500A161042018053011540003                                                
6024600052500181548219052926806500000000015                                                                                     
7PESE                                                                                000000000052500                            
50000610201805302018053182190625296551       PES0000052500A159952018053011000036                                                
6024600052500181548219062529655100000000078                                                                                     
7PESE                                                                                000000000052500                            
50000710201805302018053182191237789378       PES0000052500A171242018053016440020                                                
6024600052500181548219123778937800000000084                                                                                     
7PESE                                                                                000000000052500                            
50000810201805302018053182191622630668       PES0000052500A135792018053011590060                                                
6024600052500181548219162263066800000000084                                                                                     
7PESE                                                                                000000000052500                            
82018053100000100000080000003836000000000000000000000000000000000000000000008                                                   
9201805310000010000008000000383600000000000000000000000000000000000000000000008                                                 
