120060403PAGO FACIL               090060246MARITIMO S.R.L.                                                                      
320060403000001MARITIMO S.R.L.                                                                                                  
50000110200603312006040301035211040575       PES0000004500S022542006033116081349                                                
6024600004500061190103521104057500000000078                                                                                     
7PESE                                                                                000000000004500                            
50000210200603312006040301032031684923       PES0000004500A033492006033118510254                                                
6024600004500061190103203168492300000000036                                                                                     
7PESE                                                                                000000000004500                            
50000310200603312006040301031833401090       PES0000004500A046962006033119220300                                                
6024600004500061190103183340109000000000090                                                                                     
7PESE                                                                                000000000004500                            
50000410200603312006040301035310630036       PES0000004500A037182006033112140062                                                
6024600004500061200103531063003600000000084                                                                                     
7PESE                                                                                000000000004500                            
50000510200603312006040301043422175095       PES0000004500A037182006033112160063                                                
6024600004500061200104342217509500000000016                                                                                     
7PESE                                                                                000000000004500                            
50000610200603312006040301012329746997       PES0000004500S025062006033114080870                                                
6024600004500061180101232974699700000000084                                                                                     
7PESE                                                                                000000000004500                            
50000710200604012006040301061336883640       PES0000004500M601062006040112270050                                                
6024600004500061200106133688364000000000090                                                                                     
7PESE                                                                                000000000004500                            
50000810200604012006040301034216580401       PES0000004500A006612006040111090061                                                
6024600004500061210103421658040100000000084                                                                                     
7PESE                                                                                000000000004500                            
50000910200604012006040301045310538826       PES0000004500A051912006040111170003                                                
6024600004500061210104531053882600000000084                                                                                     
7PESE                                                                                000000000004500                            
50001010200604012006040300103568112040       PES0000004500A051912006040111170004                                                
6024600004500061210010356811204000000000078                                                                                     
7PESE                                                                                000000000004500                            
50001110200604012006040301061634608443       PES0000004500A036712006040111340055                                                
6024600004500061200106163460844300000000015                                                                                     
7PESE                                                                                000000000004500                            
50001210200604012006040301035310428619       PES0000004500A001852006040110060034                                                
6024600004500061200103531042861900000000021                                                                                     
7PESE                                                                                000000000004500                            
82006040300000100000120000000540000000000000000000000000000000000000000000012                                                   
9200604030000010000012000000054000000000000000000000000000000000000000000000012                                                 

