120110601PAGO FACIL               090060246FABIAN NORBERTO D´ERAMO                                                              
320110601000001FABIAN NORBERTO D´ERAMO                                                                                          
50000110201105312011060148011317389049       PES0000020000A058242011053120410057                                                
6024600020000111574801131738904900000000079                                                                                     
7PESE                                                                                000000000020000                            
82011060100000100000010000000200000000000000000000000000000000000000000000001                                                   
9201106010000010000001000000020000000000000000000000000000000000000000000000001                                                 
