120110506PAGO FACIL               090060246FABIAN NORBERTO D´ERAMO                                                              
320110506000001FABIAN NORBERTO D´ERAMO                                                                                          
50000110201105052011050601272120281491       PES0000011000M600852011050517270427                                                
6024600011000111320127212028149100000000042                                                                                     
7PESE                                                                                000000000011000                            
50000210201105052011050601272127226174       PES0000011000M600852011050517280428                                                
6024600011000111320127212722617400000000099                                                                                     
7PESE                                                                                000000000011000                            
50000310201105052011050601272228696576       PES0000011000M600852011050517290429                                                
6024600011000111320127222869657600000000021                                                                                     
7PESE                                                                                000000000011000                            
50000410201105052011050618292334790970       PES0000015000A057152011050517300134                                                
6024600015000111321829233479097000040000000                                                                                     
7PESE                                                                                000000000015000                            
50000510201105052011050601270227719705       PES0000020000A092012011050513550361                                                
6024600018000111200127022771970500020007658                                                                                     
7PESE                                                                                000000000020000                            
50000610201105052011050601270808298809       PES0000020000A025152011050513360222                                                
6024600018000111200127080829880900020007584                                                                                     
7PESE                                                                                000000000020000                            
50000710201105052011050601271516585510       PES0000020000A039032011050508030038                                                
6024600020000111290127151658551000000000016                                                                                     
7PESE                                                                                000000000020000                            
50000810201105052011050601270227340021       PES0000020000A092012011050513540360                                                
6024600020000111320127022734002100000000037                                                                                     
7PESE                                                                                000000000020000                            
50000910201105052011050699040123567984       PES0000023500A082952011050512240120                                                
6024600023500111279904012356798400015000490                                                                                     
7PESE                                                                                000000000023500                            
50001010201105052011050699030135337752       PES0000028000A101582011050510460099                                                
6024600028000111279903013533775200030000415                                                                                     
7PESE                                                                                000000000028000                            
50001110201105052011050699030234142652       PES0000035000A057612011050510410068                                                
6024600035000111279903023414265200035000442                                                                                     
7PESE                                                                                000000000035000                            
50001210201105052011050699030234722750       PES0000035000M601132011050515580236                                                
6024600035000111279903023472275000035000515                                                                                     
7PESE                                                                                000000000035000                            
50001310201105052011050699030235359341       PES0000035000A085892011050513030013                                                
6024600035000111279903023535934100035000415                                                                                     
7PESE                                                                                000000000035000                            
50001410201105052011050699030236943330       PES0000035000A099762011050517540047                                                
6024600035000111279903023694333000035000163                                                                                     
7PESE                                                                                000000000035000                            
50001510201105052011050699030237483073       PES0000035000A091992011050515430289                                                
6024600035000111279903023748307300035000442                                                                                     
7PESE                                                                                000000000035000                            
82011050600000100000150000003545000000000000000000000000000000000000000000015                                                   
9201105060000010000015000000354500000000000000000000000000000000000000000000015                                                 
