120110509PAGO FACIL               090060246FABIAN NORBERTO D´ERAMO                                                              
320110509000001FABIAN NORBERTO D´ERAMO                                                                                          
50000110201105062011050999030132171836       PES0000028000A099242011050609580046                                                
6024600028000111279903013217183600030000284                                                                                     
7PESE                                                                                000000000028000                            
50000210201105062011050999030135072699       PES0000028000A099242011050610000047                                                
6024600028000111279903013507269900030000215                                                                                     
7PESE                                                                                000000000028000                            
50000310201105062011050999030133458699       PES0000028000A042822011050610260075                                                
6024600028000111279903013345869900030000415                                                                                     
7PESE                                                                                000000000028000                            
50000410201105062011050999030134672420       PES0000028000A042822011050610260076                                                
6024600028000111279903013467242000030000400                                                                                     
7PESE                                                                                000000000028000                            
50000510201105062011050999030235755195       PES0000035000A024632011050611500255                                                
6024600035000111279903023575519500035000557                                                                                     
7PESE                                                                                000000000035000                            
50000610201105062011050999030126891790       PES0000028000A069092011050612180076                                                
6024600028000111279903012689179000030000616                                                                                     
7PESE                                                                                000000000028000                            
50000710201105062011050999030135185722       PES0000028000A092482011050614270049                                                
6024600028000111279903013518572200030000521                                                                                     
7PESE                                                                                000000000028000                            
50000810201105062011050901270518222772       PES0000020000A091122011050614440508                                                
6024600020000111280127051822277200000000079                                                                                     
7PESE                                                                                000000000020000                            
50000910201105062011050999030235398990       PES0000035000A090542011050613180117                                                
6024600035000111279903023539899000035000663                                                                                     
7PESE                                                                                000000000035000                            
50001010201105062011050999030231208574       PES0000035000A067772011050615590116                                                
6024600035000111279903023120857400035000500                                                                                     
7PESE                                                                                000000000035000                            
50001110201105062011050999030233016959       PES0000035000A099222011050614390230                                                
6024600035000111279903023301695900035000599                                                                                     
7PESE                                                                                000000000035000                            
50001210201105062011050918290236154136       PES0000015000A088622011050616430071                                                
6024600015000111321829023615413600040000016                                                                                     
7PESE                                                                                000000000015000                            
50001310201105062011050999030235216759       PES0000035000A033992011050609300013                                                
6024600035000111279903023521675900035000521                                                                                     
7PESE                                                                                000000000035000                            
50001410201105062011050999030235400740       PES0000035000A026032011050617140386                                                
6024600035000111279903023540074000035000579                                                                                     
7PESE                                                                                000000000035000                            
50001510201105062011050999030233896263       PES0000035000A097662011050615420155                                                
6024600035000111279903023389626300035000399                                                                                     
7PESE                                                                                000000000035000                            
50001610201105062011050999030233528113       PES0000035000A097662011050615430156                                                
6024600035000111279903023352811300035000321                                                                                     
7PESE                                                                                000000000035000                            
50001710201105062011050901270227667049       PES0000020000A068212011050617420212                                                
6024600020000111290127022766704900000000084                                                                                     
7PESE                                                                                000000000020000                            
50001810201105062011050999030134001183       PES0000028000A080102011050616570296                                                
6024600028000111279903013400118300030000600                                                                                     
7PESE                                                                                000000000028000                            
50001910201105062011050999030230590893       PES0000035000A097172011050613420169                                                
6024600035000111279903023059089300035000621                                                                                     
7PESE                                                                                000000000035000                            
50002010201105062011050999030216975364       PES0000035000A081572011050611200158                                                
6024600035000111279903021697536400035000221                                                                                     
7PESE                                                                                000000000035000                            
50002110201105062011050999030133104488       PES0000028000A081272011050616590049                                                
6024600028000111279903013310448800030000642                                                                                     
7PESE                                                                                000000000028000                            
50002210201105062011050999030234750212       PES0000035000A016682011050618280259                                                
6024600035000111279903023475021200035000616                                                                                     
7PESE                                                                                000000000035000                            
50002310201105062011050918292335312168       PES0000015000A090952011050616030095                                                
6024600015000111291829233531216800040000063                                                                                     
7PESE                                                                                000000000015000                            
50002410201105062011050999030225909375       PES0000035000A084182011050618230094                                                
6024600035000111279903022590937500035000484                                                                                     
7PESE                                                                                000000000035000                            
50002510201105062011050999040123399842       PES0000023500A084182011050618540135                                                
6024600023500111279904012339984200015000599                                                                                     
7PESE                                                                                000000000023500                            
50002610201105062011050999030237376363       PES0000035000A086842011050617410181                                                
6024600035000111279903023737636300035000690                                                                                     
7PESE                                                                                000000000035000                            
50002710201105062011050999030133633255       PES0000028000A086252011050618130097                                                
6024600028000111279903013363325500030000342                                                                                     
7PESE                                                                                000000000028000                            
50002810201105062011050999030132637551       PES0000028000A059932011050617480215                                                
6024600028000111279903013263755100030000542                                                                                     
7PESE                                                                                000000000028000                            
50002910201105062011050999030234137506       PES0000035000A105642011050619000147                                                
6024600035000111279903023413750600035000500                                                                                     
7PESE                                                                                000000000035000                            
50003010201105062011050999030234430590       PES0000035000A033552011050612240032                                                
6024600035000111279903023443059000035000621                                                                                     
7PESE                                                                                000000000035000                            
50003110201105062011050918290425803086       PES0000015000L020342011050612034225                                                
6024600015000111271829042580308600040000057                                                                                     
7PESE                                                                                000000000015000                            
50003210201105062011050918290714876196       PES0000015000M600712011050613410302                                                
6024600015000111321829071487619600040000090                                                                                     
7PESE                                                                                000000000015000                            
50003310201105062011050918290329514000       PES0000015000M600712011050613430303                                                
6024600015000111281829032951400000040000090                                                                                     
7PESE                                                                                000000000015000                            
50003410201105062011050918290137848822       PES0000015000M600712011050613430304                                                
6024600015000111281829013784882200040000099                                                                                     
7PESE                                                                                000000000015000                            
50003510201105062011050999030132997762       PES0000028000M600672011050615080179                                                
6024600028000111279903013299776200030000600                                                                                     
7PESE                                                                                000000000028000                            
50003610201105062011050901271516484611       PES0000020000M601622011050608430029                                                
6024600020000111320127151648461100000000058                                                                                     
7PESE                                                                                000000000020000                            
50003710201105062011050901271517226120       PES0000020000M601622011050608440030                                                
6024600020000111320127151722612000000000058                                                                                     
7PESE                                                                                000000000020000                            
50003810201105072011050900510129628171       PES0000008000A020722011050618100206                                                
6024600008000111270051012962817100000000084                                                                                     
7PESE                                                                                000000000008000                            
50003910201105072011050901271324239818       PES0000020000A063182011050709240004                                                
6024600020000111330127132423981800000000084                                                                                     
7PESE                                                                                000000000020000                            
50004010201105072011050999030236529254       PES0000035000A091802011050712000222                                                
6024600035000111279903023652925400035000599                                                                                     
7PESE                                                                                000000000035000                            
50004110201105072011050999030233017000       PES0000035000D000232011050711000035                                                
6024600035000111279903023301700000035000799                                                                                     
7PESE                                                                                000000000035000                            
50004210201105072011050999030104864178       PES0000028000D000282011050712210134                                                
6024600028000111279903010486417800030000721                                                                                     
7PESE                                                                                000000000028000                            
50004310201105072011050999030233897409       PES0000035000A051312011050712190274                                                
6024600035000111279903023389740900035000716                                                                                     
7PESE                                                                                000000000035000                            
50004410201105072011050999040323968701       PES0000021000A036912011050708380007                                                
6024600021000111279904032396870100000000358                                                                                     
7PESE                                                                                000000000021000                            
50004510201105072011050901271322873901       PES0000020000A085512011050711040094                                                
6024600018000111200127132287390100020007757                                                                                     
7PESE                                                                                000000000020000                            
50004610201105072011050999030232436369       PES0000035000A088372011050711460030                                                
6024600035000111279903023243636900035000637                                                                                     
7PESE                                                                                000000000035000                            
50004710201105072011050901270421300438       PES0000020000A063662011050710590145                                                
6024600020000111290127042130043800000000063                                                                                     
7PESE                                                                                000000000020000                            
50004810201105072011050999030226735116       PES0000035000D001472011050713200313                                                
6024600035000111279903022673511600035000516                                                                                     
7PESE                                                                                000000000035000                            
50004910201105072011050999030229118464       PES0000035000A042822011050710550089                                                
6024600035000111279903022911846400035000615                                                                                     
7PESE                                                                                000000000035000                            
50005010201105072011050999040132421066       PES0000023500A096182011050712140278                                                
6024600023500111279904013242106600015000642                                                                                     
7PESE                                                                                000000000023500                            
50005110201105072011050999030132248789       PES0000028000A056252011050713310242                                                
6024600028000111279903013224878900030000278                                                                                     
7PESE                                                                                000000000028000                            
50005210201105072011050999030293925151       PES0000035000A080992011050716530043                                                
6024600035000111279903029392515100035000737                                                                                     
7PESE                                                                                000000000035000                            
50005310201105072011050901270516055270       PES0000020000A024232011050711040059                                                
6024600020000111290127051605527000000000000                                                                                     
7PESE                                                                                000000000020000                            
50005410201105072011050900510118825899       PES0000008000A079692011050715070005                                                
6024600008000111270051011882589900000000079                                                                                     
7PESE                                                                                000000000008000                            
50005510201105072011050900510125513660       PES0000008000A079692011050715070006                                                
6024600008000111270051012551366000000000079                                                                                     
7PESE                                                                                000000000008000                            
50005610201105072011050999030237040715       PES0000035000A043472011050720510427                                                
6024600035000111279903023704071500035000758                                                                                     
7PESE                                                                                000000000035000                            
82011050900000100000560000015110000000000000000000000000000000000000000000056                                                   
9201105090000010000056000001511000000000000000000000000000000000000000000000056                                                 
