120110510PAGO FACIL               090060246FABIAN NORBERTO D´ERAMO                                                              
320110510000001FABIAN NORBERTO D´ERAMO                                                                                          
50000110201105092011051018290522840735       PES0000015000M620412011050910390035                                                
6024600015000111321829052284073500040000063                                                                                     
7PESE                                                                                000000000015000                            
50000210201105092011051018290522840928       PES0000015000M620412011050910380033                                                
6024600015000111321829052284092800040000015                                                                                     
7PESE                                                                                000000000015000                            
50000310201105092011051018293034517298       PES0000015000D000472011050911430247                                                
6024600015000111331829303451729800040000157                                                                                     
7PESE                                                                                000000000015000                            
50000410201105092011051001271612491063       PES0000020000A063182011050917520193                                                
6024600020000111330127161249106300000000021                                                                                     
7PESE                                                                                000000000020000                            
50000510201105092011051001270808251356       PES0000020000A091172011050916490087                                                
6024600020000111360127080825135600000000099                                                                                     
7PESE                                                                                000000000020000                            
50000610201105092011051099030127919780       PES0000031000A029342011050911070079                                                
6024600031000111359903012791978000020000078                                                                                     
7PESE                                                                                000000000031000                            
50000710201105092011051099030236360655       PES0000035000A082952011050918300249                                                
6024600035000111279903023636065500035000721                                                                                     
7PESE                                                                                000000000035000                            
50000810201105092011051099030236087988       PES0000038500A103582011050912160239                                                
6024600038500111359903023608798800025000142                                                                                     
7PESE                                                                                000000000038500                            
50000910201105092011051099030292468146       PES0000038500M600522011050911200039                                                
6024600038500111359903029246814600025000157                                                                                     
7PESE                                                                                000000000038500                            
82011051000000100000090000002280000000000000000000000000000000000000000000009                                                   
9201105100000010000009000000228000000000000000000000000000000000000000000000009                                                 
