120110616PAGO FACIL               090060246FABIAN NORBERTO D´ERAMO                                                              
320110616000001FABIAN NORBERTO D´ERAMO                                                                                          
50000110201106152011061618300427820475       PES0000015000M600332011061513330099                                                
6024600015000111691830042782047500040000421                                                                                     
7PESE                                                                                000000000015000                            
50000210201106152011061618300522840928       PES0000015000M620412011061509590004                                                
6024600015000111691830052284092800040000363                                                                                     
7PESE                                                                                000000000015000                            
50000310201106152011061617020330916868       PES0000016000A640192011061510540029                                                
6024600016000111661702033091686800040000099                                                                                     
7PESE                                                                                000000000016000                            
50000410201106152011061617020524339924       PES0000016000A640242011061511250051                                                
6024600016000111681702052433992400040000021                                                                                     
7PESE                                                                                000000000016000                            
50000510201106152011061617020427484135       PES0000016000L071222011061517348068                                                
6024600016000111711702042748413500040000000                                                                                     
7PESE                                                                                000000000016000                            
50000610201106152011061602292238933858       PES0000016500A090352011061511400004                                                
6024600016500111660229223893385800020000663                                                                                     
7PESE                                                                                000000000016500                            
50000710201106152011061602292429544867       PES0000016500A072152011061516500075                                                
6024600016500111660229242954486700020000315                                                                                     
7PESE                                                                                000000000016500                            
50000810201106152011061602292625096831       PES0000016500A089652011061519240158                                                
6024600016500111660229262509683100020000615                                                                                     
7PESE                                                                                000000000016500                            
50000910201106152011061602295214233286       PES0000016500A026372011061512260127                                                
6024600016500111660229521423328600020000716                                                                                     
7PESE                                                                                000000000016500                            
50001010201106152011061699040132421066       PES0000025000M601612011061515410193                                                
6024600025000111669904013242106600000000216                                                                                     
7PESE                                                                                000000000025000                            
82011061600000100000100000001690000000000000000000000000000000000000000000010                                                   
9201106160000010000010000000169000000000000000000000000000000000000000000000010                                                 
