120110628PAGO FACIL               090060246FABIAN NORBERTO D´ERAMO                                                              
320110628000001FABIAN NORBERTO D´ERAMO                                                                                          
50000110201106272011062817020814859579       PES0000016000A078202011062709270028                                                
6024600016000111841702081485957900040000000                                                                                     
7PESE                                                                                000000000016000                            
50000210201106272011062802290812321767       PES0000024500A014492011062719120137                                                
6024600024500111770229081232176700000000078                                                                                     
7PESE                                                                                000000000024500                            
82011062800000100000020000000405000000000000000000000000000000000000000000002                                                   
9201106280000010000002000000040500000000000000000000000000000000000000000000002                                                 
