00000000MARITIMO S.R.L.     20170301COBRANZAS RAPIPAGO                   
20170301000000000034000024600034000170658214311204125200030000016        
20170301000000000046000024600046000170658214023588918600030000021        
9999999900000002000000000000080000                                       
