00000000MARITIMO S.R.L.     20160201COBRANZAS RAPIPAGO                   
20160201000000000005000024600005000160350900022556459400000000021        
20160201000000000003000024600003000160350900011881799200000000063        
20160201000000000003000024600003000160350900012627790300000000063        
20160201000000000099000024600099000160391848071478969700000000015        
20160201000000000097000024600097000160380026263884758900070000063        
20160201000000000010000024600010000160350900032884650900000000057        
20160201000000000010000024600010000160350900033266805100000000058        
20160201000000000003000024600003000160350900014495724200000000016        
20160201000000000010000024600010000160350900032832522400000000063        
20160201000000000020000024600020000160350900052746024300000000042        
20160201000000000020000024600020000160350900051290679900000000078        
20160201000000000020000024600020000160350900052922036900000000036        
20160201000000000020000024600020000160350900053434419800000000079        
9999999900000013000000000000320000                                       
