00000000MARITIMO S.R.L.     20161001COBRANZAS RAPIPAGO                   
20161001000000000025000024600025000162821004013602486800000000021        
20161001000000000070000024600070000162761849112185186400000000036        
9999999900000002000000000000095000                                       
