00000000MARITIMO S.R.L.     20170601COBRANZAS RAPIPAGO                   
20170601000000000045000024600045000171598808011387204200060000063        
20170601000000000045000024600045000171598808013671955300060000015        
20170601000000000045000024600045000171598808013687135200060000084        
20170601000000000045000024600045000171588808013687135100060000015        
20170601000000000045000024600045000171588808013028921900060000057        
20170601000000000045000024600045000171598808013626074200060000090        
20170601000000000045000024600045000171588808012197472100060000000        
20170601000000000045000024600045000171588808013933799900060000015        
20170601000000000045000024600045000171568808013539241900060000078        
20170601000000000045000024600045000171568808013195149000060000042        
20170601000000000045000024600045000171588808013880884300060000036        
20170601000000000085000024600085000171589602013880884300000000157        
20170601000000000045000024600045000171588808013507228900060000084        
20170601000000000045000024600045000171588808014030372600060000058        
20170601000000000045000024600045000171578808014478433600060000021        
20170601000000000045000024600045000171598808013835980000060000021        
20170601000000000045000024600045000171598808010000000000060000016        
20170601000000000045000024600045000171568808013093722300060000037        
9999999900000018000000000000850000                                       
