00000000MARITIMO S.R.L.     20160901COBRANZAS RAPIPAGO                   
20160901000000000129000024600129000162510051513523592800090000037        
20160901000000000094500024600094500162510069693523592800000000099        
9999999900000002000000000000223500                                       
