00000000MARITIMO S.R.L.     20160301COBRANZAS RAPIPAGO                   
20160301000000000001500024600001500160655555011212121200005000015        
20160301000000000001000024600001000160655555021678855600005000021        
9999999900000002000000000000002500                                       
