00000000MARITIMO S.R.L.     20170101COBRANZAS RAPIPAGO                   
20161231000000000031500024600031500170018213042724031900063008821        
9999999900000001000000000000031500                                       
