00000000MARITIMO S.R.L.     20150901COBRANZAS RAPIPAGO                   
20150901000000000050000024600050000152510145283607256600000000015        
20150901000000000090000024600090000152500145023383547000000000037        
20150901000000000086000024600086000152510093409387420900060000042        
9999999900000003000000000000226000                                       
