00000000MARITIMO S.R.L.     20160801COBRANZAS RAPIPAGO                   
20160801000000000128000024600128000162210067673373354800000000090        
20160801000000000057700024600057700162158211222347965600053000099        
20160801000000000027300024600027300162208211022414891100027000142        
20160801000000000122000024600122000162200066663810566300000000099        
9999999900000004000000000000335000                                       
