00000000MARITIMO S.R.L.     20151201COBRANZAS RAPIPAGO                   
20151201000000000140000024600140000153350147162002258700000000084        
20151201000000000020000024600020000153422914172646833400000000000        
20151201000000000140000024600140000153420147162076333200000000037        
20151201000000000140000024600140000153350147171756457400000000042        
20151201000000000140000024600140000153420147152363206900000000000        
20151201000000000140000024600140000153410147142659269400000000090        
20151201000000000020000024600020000153422914173168164100000000021        
20151201000000000001200024600001200153350020202816738200001000763        
20151201000000000020000024600020000153412914151168727800000000015        
20151201000000000020000024600020000153412914113494685000000000063        
20151201000000000144700024600144700153419921033852082400000000000        
9999999900000011000000000000925900                                       
