00000000MARITIMO S.R.L.     20160601COBRANZAS RAPIPAGO                   
20160601000000000034500024600034500161548803012397825400045000036        
20160601000000000060000024600060000161609203052577867400000000090        
20160601000000000034500024600034500161558803013766262500045000078        
20160601000000000034500024600034500161588803013933799900045000099        
20160601000000000034500024600034500161588803014465037200045000079        
20160601000000000034500024600034500161598803013636638300045000000        
20160601000000000060000024600060000161609203050953095100000000021        
20160601000000000034500024600034500161598803013808825900045000036        
9999999900000008000000000000327000                                       
