00000000MARITIMO S.R.L.     20150902COBRANZAS RAPIPAGO                   
20150902000000000048000024600048000152511706123215322600120000036        
20150902000000000048000024600048000152511706052857816300120000057        
20150902000000000088000024600088000152509903033576671900070000299        
20150902000000000079500024600079500152517906072404051800150000063        
20150902000000000072000024600072000152520091223746833600070000063        
20150902000000000058000024600058000152529914013991705800000000000        
20150902000000000088000024600088000152509903033991705800070000236        
20150902000000000079500024600079500152467906062662017300150000042        
20150902000000000079500024600079500152457906091676865900150000079        
20150902000000000079500024600079500152507906072251771900150000084        
9999999900000010000000000000720000                                       
