00000000MARITIMO S.R.L.     20160602COBRANZAS RAPIPAGO                   
20160602000000000034500024600034500161608803013787156800045000099        
20160602000000000115000024600115000161590048483984958400080000157        
20160602000000000115000024600115000161580048483701312600080000058        
20160602000000000034500024600034500161618803014471009900045000084        
20160602000000000030000024600030000161589925032001256200000000000        
20160602000000000030000024600030000161619925033214700500000000078        
9999999900000006000000000000359000                                       
