00000000MARITIMO S.R.L.     20170202COBRANZAS RAPIPAGO                   
20170202000000000100000024600100000170391850213899896900000000090        
20170202000000000158000024600158000170370054544012926700000000079        
20170202000000000140000024600140000170380056564139450400095000142        
9999999900000003000000000000398000                                       
