00000000MARITIMO S.R.L.     20160102COBRANZAS RAPIPAGO                   
20160102000000000021000024600021000160038209053536088300032000663        
20160102000000000021000024600021000160038209053703222000032000663        
9999999900000002000000000000042000                                       
