00000000MARITIMO S.R.L.     20151202COBRANZAS RAPIPAGO                   
20151202000000000144700024600144700153439921013576671900000000015        
20151202000000000144700024600144700153439921023576671900000000037        
20151202000000000140000024600140000153370147133172973600000000021        
20151202000000000140000024600140000153420147142906807700000000015        
20151202000000000144700024600144700153439921034000957200000000042        
20151202000000000088000024600088000153419919033926938300070000216        
20151202000000000020000024600020000153412914132037231900000000084        
20151202000000000140000024600140000153420147162001762100000000042        
9999999900000008000000000000962100                                       
