00000000MARITIMO S.R.L.     20170502COBRANZAS RAPIPAGO                   
20170502000000000175000024600175000171270074742945877700120000163        
20170502000000000175000024600175000171270074743123480500120000242        
20170502000000000130000024600130000171290046462931678200000000084        
20170502000000000158000024600158000171280058583701312600000000099        
9999999900000004000000000000638000                                       
