00000000MARITIMO S.R.L.     20160502COBRANZAS RAPIPAGO                   
20160502000000000097000024600097000161280029293515713500070000263        
20160502000000000057700024600057700161308210263701084300053000058        
20160502000000000044100024600044100161258210092491456000042000090        
9999999900000003000000000000198800                                       
