00000000DERAMO FABIAN N.    20150702COBRANZAS RAPIPAGO                   
20150702000000000033600024600033600151848207131097785600021000015        
9999999900000001000000000000033600                                       
