00000000MARITIMO S.R.L.     20170303COBRANZAS RAPIPAGO                   
20170302000000000034000024600034000170688214382414891100030000042        
20170303000000000046000024600046000170658214042872933600030000021        
20170303000000000100000024600100000170691850242794775700000000084        
20170303000000000046000024600046000170688214042935933900030000090        
9999999900000004000000000000226000                                       
