00000000MARITIMO S.R.L.     20160103COBRANZAS RAPIPAGO                   
20160103000000000028400024600028400160038209162741740000031000521        
9999999900000001000000000000028400                                       
