00000000MARITIMO S.R.L.     20170403COBRANZAS RAPIPAGO                   
20170403000000000140000024600140000170950058583670172900095000099        
20170403000000000158000024600158000171000057573703565800000000036        
20170403000000000140000024600140000170970058583320685300095000399        
20170403000000000049000024600049000170958214042913925100000000036        
20170403000000000049000024600049000170957910052815006000000000021        
20170403000000000049000024600049000170957910033722999500000000090        
9999999900000006000000000000585000                                       
