00000000MARITIMO S.R.L.     20161003COBRANZAS RAPIPAGO                   
20161003000000000025000024600025000162841004013192777800000000000        
20161003000000000129000024600129000162810052524087075100090000016        
20161003000000000038000024600038000162795905033185106300100000521        
20161003000000000101000024600101000162817909062569135500155000137        
9999999900000004000000000000293000                                       
