00000000MARITIMO S.R.L.     20170203COBRANZAS RAPIPAGO                   
20170203000000000140000024600140000170380056563598434300095000378        
9999999900000001000000000000140000                                       
