00000000MARITIMO S.R.L.     20160303COBRANZAS RAPIPAGO                   
20160303000000000097000024600097000160670027273926938300070000200        
9999999900000001000000000000097000                                       
