00000000MARITIMO S.R.L.     20160503COBRANZAS RAPIPAGO                   
20160503000000000097000024600097000161280029293886049100070000215        
20160503000000000049000024600049000161289806041184867000040000342        
20160503000000000097000024600097000161280029293021936700070000215        
9999999900000003000000000000243000                                       
