00000000MARITIMO S.R.L.     20170204COBRANZAS RAPIPAGO                   
20170204000000000065000024600065000170409933013405813400000000078        
9999999900000001000000000000065000                                       
