00000000MARITIMO S.R.L.     20160304COBRANZAS RAPIPAGO                   
20160304000000000097000024600097000160670027272437920200070000463        
20160304000000000030000024600030000160689604074058178200030000000        
20160304000000000030000024600030000160648801013221729800000000084        
20160304000000000030000024600030000160649604033221729800030000000        
20160304000000000030000024600030000160649604073482029500030000099        
20160304000000000097000024600097000160670027273021936700070000100        
9999999900000006000000000000314000                                       
