00000000MARITIMO S.R.L.     20161004COBRANZAS RAPIPAGO                   
20161004000000000048000024600048000162821001082143821100100000036        
20161004000000000094500024600094500162840069691904431500000000042        
20161004000000000145000024600145000162840051511904431500000000057        
20161004000000000128000024600128000162850064642191847800000000000        
20161004000000000038000024600038000162795905061193132800100000463        
20161004000000000101000024600101000162817909091708278500155000384        
20161004000000000057700024600057700162828212222893004200053000216        
20161004000000000094500024600094500162840069693984958400000000079        
20161004000000000129000024600129000162810052523984958400090000363        
20161004000000000057700024600057700162788212233596026100053000079        
20161004000000000094500024600094500162850070704150272500000000057        
20161004000000000145000024600145000162850051514150272500000000042        
20161004000000000057700024600057700162828212223531448700053000316        
20161004000000000044100024600044100162828212081231057600042000379        
20161004000000000057700024600057700162828212223531419500053000215        
20161004000000000044100024600044100162828212033701123300042000236        
20161004000000000101000024600101000162797909082034311600155000021        
9999999900000017000000000001437500                                       
