00000000MARITIMO S.R.L.     20160204COBRANZAS RAPIPAGO                   
20160204000000000003000024600003000160350900013746942700000000021        
20160204000000000020000024600020000160350900051294377700000000084        
20160204000000000003000024600003000160350900012555544400000000000        
20160204000000000003000024600003000160350900012566677700000000036        
20160204000000000005000024600005000160350900023849721000000000000        
20160204000000000003000024600003000160350900011419424500000000063        
20160204000000000005000024600005000160350900021677940700000000063        
20160204000000000020000024600020000160350900051479560500000000042        
20160204000000000003000024600003000160350900012260682000000000042        
20160204000000000015000024600015000160350900042262675700000000063        
20160204000000000003000024600003000160350900011449602500000000058        
20160204000000000003000024600003000160350900011779678700000000099        
20160204000000000003000024600003000160350900012544455500000000015        
20160204000000000003000024600003000160350900012425198700000000036        
20160204000000000003000024600003000160350900011431962900000000016        
20160204000000000003000024600003000160350900011733804900000000021        
20160204000000000010000024600010000160350900032397907100000000000        
20160204000000000003000024600003000160350900012234194000000000090        
20160204000000000010000024600010000160350900031106094400000000037        
20160204000000000010000024600010000160350900034592294500000000057        
20160204000000000003000024600003000160350900011614748300000000036        
20160204000000000010000024600010000160350900032294417000000000021        
20160204000000000003000024600003000160350900014931717000000000000        
20160204000000000020000024600020000160350900051828738500000000079        
20160204000000000003000024600003000160350900012397011100000000099        
20160204000000000003000024600003000160350900014687339700000000042        
20160204000000000003000024600003000160350900012397120700000000000        
20160204000000000003000024600003000160350900013412180100000000063        
20160204000000000003000024600003000160350900013086769300000000099        
20160204000000000010000024600010000160350900032234186500000000058        
20160204000000000003000024600003000160350900012604947900000000058        
20160204000000000003000024600003000160350900012959380600000000084        
20160204000000000003000024600003000160350900013238383300000000016        
20160204000000000003000024600003000160350900013045098000000000000        
20160204000000000005000024600005000160350900021220017700000000084        
20160204000000000097000024600097000160380026263945819900070000484        
20160204000000000097000024600097000160380026263991705800070000490        
20160204000000000003000024600003000160350900013512449200000000099        
20160204000000000003000024600003000160350900012206192000000000078        
20160204000000000005000024600005000160350900021657356900000000000        
20160204000000000005000024600005000160350900022231364400000000078        
20160204000000000025000024600025000160362915222600542200000000016        
20160204000000000025000024600025000160362915222498052600000000036        
20160204000000000035000024600035000160412915122544528400000000015        
20160204000000000020000024600020000160350900052649754000000000084        
20160204000000000010000024600010000160350900032741860900000000084        
20160204000000000015000024600015000160350900042252272500000000016        
20160204000000000010000024600010000160350900032510762500000000021        
20160204000000000010000024600010000160350900032469991000000000042        
20160204000000000010000024600010000160350900032276794900000000099        
20160204000000000010000024600010000160350900032599054300000000058        
20160204000000000005000024600005000160350900021104821000000000078        
20160204000000000005000024600005000160350900021199167700000000036        
20160204000000000010000024600010000160350900031774123400000000063        
20160204000000000010000024600010000160350900032374578000000000063        
20160204000000000010000024600010000160350900031619517500000000037        
20160204000000000010000024600010000160350900032408442900000000063        
9999999900000057000000000000639000                                       
