00000000MARITIMO S.R.L.     20160404COBRANZAS RAPIPAGO                   
20160404000000000097000024600097000160980028282437920200070000484        
20160404000000000029000024600029000160977907152620914000000000058        
20160404000000000097000024600097000160980028283021936700070000436        
9999999900000003000000000000223000                                       
