00000000MARITIMO S.R.L.     20150904COBRANZAS RAPIPAGO                   
20150904000000000090000024600090000152470145071630552300000000000        
20150904000000000048000024600048000152531706123647850700120000000        
20150904000000000030000024600030000152518801013439946800000000063        
20150904000000000030000024600030000152518801014147804400000000084        
20150904000000000030000024600030000152518801013721266900000000058        
20150904000000000090000024600090000152470145042733144200000000000        
20150904000000000079500024600079500152547906152198960600150000058        
20150904000000000079500024600079500152547906082153961000150000090        
20150904000000000048000024600048000152531706091698906200120000100        
20150904000000000079500024600079500152487906091774949800150000084        
9999999900000010000000000000604500                                       
