00000000MARITIMO S.R.L.     20170405COBRANZAS RAPIPAGO                   
20170405000000000037000024600037000170958214282252212000000000090        
20170405000000000037000024600037000170958214234366681900000000063        
20170405000000000049000024600049000170957910062273274600000000021        
20170405000000000049000024600049000170958214052306594300000000058        
20170405000000000140000024600140000170970058583842500200095000578        
20170405000000000175000024600175000170970073733317413500120000463        
20170405000000000175000024600175000170970073733615336000120000563        
20170405000000000175000024600175000170970073732924869200120000421        
20170405000000000175000024600175000170970073733694848400120000500        
20170405000000000175000024600175000170970073733900054300120000457        
20170405000000000037000024600037000170958214262810260200000000057        
20170405000000000037000024600037000170958214240000000000000000063        
20170405000000000049000024600049000170958214042587375500000000078        
20170405000000000049000024600049000170957910043174437000000000079        
20170405000000000175000024600175000170970073734095666600120000400        
9999999900000015000000000001534000                                       
