00000000MARITIMO S.R.L.     20151105COBRANZAS RAPIPAGO                   
20151105000000000088000024600088000153119919033615448900070000399        
9999999900000001000000000000088000                                       
