00000000MARITIMO S.R.L.     20150905COBRANZAS RAPIPAGO                   
20150905000000000090000024600090000152500145042605043300000000058        
20150905000000000048000024600048000152531706082149126500120000084        
9999999900000002000000000000138000                                       
