00000000MARITIMO S.R.L.     20170105COBRANZAS RAPIPAGO                   
20170105000000000075000024600075000170052917072633421000000000078        
20170105000000000037800024600037800170088213052352806000000000058        
20170105000000000075000024600075000170062917041342385800000000058        
20170105000000000080000024600080000170051006052823196900000000090        
20170105000000000093000024600093000170058503642995803000000000090        
20170105000000000058000024600058000170051005172366866400000000063        
20170105000000000058000024600058000170051005033306892900000000090        
20170105000000000055000024600055000170052917123372094800000000042        
20170105000000000093000024600093000170058503642280924200000000036        
20170105000000000093000024600093000170058503642385774800000000000        
20170105000000000093000024600093000170058503672461816900000000016        
20170105000000000070000024600070000170051006153477898300000000036        
20170105000000000029400024600029400170108213012813828500000000063        
20170105000000000075000024600075000170052917050454640600000000015        
20170105000000000090000024600090000170121850371767237400100000084        
20170105000000000090000024600090000170111850333004909400100000063        
20170105000000000075000024600075000170052917032286331400000000057        
20170105000000000060000024600060000170068304291302588000000000079        
20170105000000000037800024600037800170128213091135023800000000000        
20170105000000000029400024600029400170118213012760361900000000063        
20170105000000000029400024600029400170128213011220048500000000090        
20170105000000000058000024600058000170051005014189666300000000099        
20170105000000000080000024600080000170051006052880608500000000015        
20170105000000000150000024600150000170115707062634658400000000021        
9999999900000024000000000001684800                                       
