00000000MARITIMO S.R.L.     20151205COBRANZAS RAPIPAGO                   
20151205000000000144700024600144700153419921013886049100000000042        
20151205000000000144700024600144700153469921033886049100000000021        
20151205000000000144700024600144700153419921023886049100000000078        
20151205000000000144700024600144700153469921033991705800000000037        
20151205000000000020000024600020000153462914213916022200000000084        
9999999900000005000000000000598800                                       
