00000000MARITIMO S.R.L.     20161005COBRANZAS RAPIPAGO                   
20161005000000000101000024600101000162817909133712317700155000384        
20161005000000000101000024600101000162817909072272053500155000363        
20161005000000000101000024600101000162817909133743409300155000542        
20161005000000000101000024600101000162817909133810082500155000363        
20161005000000000101000024600101000162817909062718167200155000558        
20161005000000000130000024600130000162860050502191847800000000090        
20161005000000000038000024600038000162795905060780062800100000715        
20161005000000000129000024600129000162810052523650123700090000537        
20161005000000000129000024600129000162810052522864088500090000436        
9999999900000009000000000000931000                                       
