00000000MARITIMO S.R.L.     20160105COBRANZAS RAPIPAGO                   
20160105000000000031500024600031500160128209082745762900000000042        
20160105000000000031500024600031500160128209073911718400000000037        
20160105000000000097000024600097000160070025253926938300070000558        
20160105000000000070000024600070000160068502633252105000000000021        
20160105000000000024200024600024200160118209051473193900000000042        
20160105000000000097000024600097000160070025253991705800070000515        
20160105000000000070000024600070000160068502403339963300000000000        
20160105000000000070000024600070000160068502413109476300000000000        
20160105000000000097000024600097000160070025253990873600070000421        
9999999900000009000000000000588200                                       
