00000000MARITIMO S.R.L.     20170106COBRANZAS RAPIPAGO                   
20170106000000000037800024600037800170138213062004811900000000021        
20170106000000000140000024600140000170070055553670172900095000663        
20170106000000000037800024600037800170138213214330314200000000079        
20170106000000000065000024600065000170068304301251921700000000037        
20170106000000000060000024600060000170068304043576220600000000042        
20170106000000000100000024600100000170111850023489030500200000058        
20170106000000000029400024600029400170128213012859668000000000042        
20170106000000000029400024600029400170128213012845366700000000078        
20170106000000000029400024600029400170128213013683483900000000058        
20170106000000000140000024600140000170070055553856126100095000615        
20170106000000000037800024600037800170138213081264155900000000016        
20170106000000000140000024600140000170070055553842648100095000257        
20170106000000000060000024600060000170068304124142748900000000079        
9999999900000013000000000000906600                                       
