00000000MARITIMO S.R.L.     20160506COBRANZAS RAPIPAGO                   
20160506000000000044100024600044100161278210082818546300042000063        
20160506000000000060000024600060000161349601023323920500000000057        
20160506000000000115000024600115000161280047474012926700080000699        
20160506000000000115000024600115000161280047473827732000080000690        
20160506000000000097000024600097000161280029293882931700070000657        
20160506000000000097000024600097000161280029294000957200070000579        
20160506000000000115000024600115000161280047473759747800080000536        
20160506000000000115000024600115000161280047473670172900080000436        
20160506000000000097000024600097000161280029294013244800070000442        
20160506000000000115000024600115000161280047473650123700080000579        
20160506000000000115000024600115000161280047473842648100080000599        
20160506000000000115000024600115000161280047473856126100080000642        
20160506000000000115000024600115000161280047473299672600080000542        
9999999900000013000000000001315100                                       
