00000000MARITIMO S.R.L.     20170406COBRANZAS RAPIPAGO                   
20170406000000000175000024600175000170970073732758252100120000663        
20170406000000000175000024600175000170970073734095496700120000663        
20170406000000000140000024600140000170970058583842648100095000616        
20170406000000000175000024600175000170970073733123480500120000463        
20170406000000000175000024600175000170970073732945877700120000416        
20170406000000000175000024600175000170970073733673749000120000490        
9999999900000006000000000001015000                                       
