00000000MARITIMO S.R.L.     20151106COBRANZAS RAPIPAGO                   
20151106000000000060000024600060000153140256013759704200000000058        
20151106000000000230000024600230000153158901042548519400000000057        
20151106000000000088000024600088000153119919033725030200070000400        
20151106000000000065000024600065000153109101062240205600000000079        
20151106000000000140000024600140000153170147162183632900000000000        
20151106000000000060000024600060000153140256023490617000000000084        
20151106000000000040000024600040000153140256312931930200000000000        
20151106000000000080000024600080000153178901242763555800000000015        
20151106000000000088000024600088000153119919033991705800070000437        
20151106000000000144700024600144700153149921023021936700000000000        
20151106000000000088000024600088000153119919033021936700070000384        
9999999900000011000000000001083700                                       
