00000000MARITIMO S.R.L.     20160606COBRANZAS RAPIPAGO                   
20160606000000000115000024600115000161590048483627586000080000163        
20160606000000000034500024600034500161658803013570284300045000057        
20160606000000000097000024600097000161590030304000957200070000542        
20160606000000000045000024600045000161596601161677520800050000078        
20160606000000000045000024600045000161596601071624104200050000015        
20160606000000000097000024600097000161590030303926938300070000684        
20160606000000000115000024600115000161590048483523592800080000242        
20160606000000000115000024600115000161590048483670172900080000621        
20160606000000000115000024600115000161590048483320685300080000621        
20160606000000000034500024600034500161658803013563226300045000078        
20160606000000000034500024600034500161658803013779714500045000079        
20160606000000000115000024600115000161590048484139450400080000658        
20160606000000000115000024600115000161590048483640389700080000515        
20160606000000000115000024600115000161590048483900046400080000616        
9999999900000014000000000001192500                                       
