00000000MARITIMO S.R.L.     20160706COBRANZAS RAPIPAGO                   
20160706000000000020000024600020000161927603052634654900100000015        
20160706000000000109500024600109500161950029293926839500000000042        
20160706000000000128000024600128000161950063634150272500000000000        
20160706000000000115000024600115000161890049494150272500080000615        
20160706000000000128000024600128000161940063633320685300000000057        
20160706000000000115000024600115000161890049493320685300080000563        
20160706000000000060000024600060000161909203053391244400000000084        
20160706000000000115000024600115000161890049493687290800080000484        
20160706000000000115000024600115000161890049494139450400080000636        
20160706000000000115000024600115000161890049493650123700080000600        
9999999900000010000000000001020500                                       
