00000000MARITIMO S.R.L.     20160406COBRANZAS RAPIPAGO                   
20160406000000000109500024600109500161030027273021213900000000079        
20160406000000000029000024600029000160977907153193634500000000058        
20160406000000000097000024600097000160980028283515713500070000658        
20160406000000000097000024600097000160980028283926938300070000499        
20160406000000000042000024600042000160977907062404051800000000021        
20160406000000000042000024600042000160977907052785723800000000016        
20160406000000000034500024600034500160998803013350613900045000057        
20160406000000000044000024600044000161048804013350613900000000063        
20160406000000000060000024600060000161049601023350613900000000015        
9999999900000009000000000000555000                                       
