00000000MARITIMO S.R.L.     20170306COBRANZAS RAPIPAGO                   
20170306000000000040000024600040000170699605070000000000030000315        
20170306000000000158000024600158000170720054544150272500000000016        
20170306000000000034000024600034000170688214253248251500030000057        
9999999900000003000000000000232000                                       
