00000000MARITIMO S.R.L.     20160707COBRANZAS RAPIPAGO                   
20160707000000000034500024600034500161968803012673003900045000099        
20160707000000000034500024600034500161968803013890004200045000015        
20160707000000000034500024600034500161968803013316806200045000021        
20160707000000000034500024600034500161968803013600410000045000063        
20160707000000000109500024600109500161960030303926839500000000000        
20160707000000000115000024600115000161890049493827732000080000699        
20160707000000000060000024600060000161909203013271569000000000079        
20160707000000000060000024600060000161909203021837772300000000079        
20160707000000000034500024600034500161968803011850081100045000078        
20160707000000000115000024600115000161890049493422943400080000757        
20160707000000000035000024600035000161905904033185106300050000590        
20160707000000000034500024600034500161958803013600928100045000084        
20160707000000000060000024600060000161959601023207815400000000000        
20160707000000000049000024600049000161899806041184867000040000737        
20160707000000000034500024600034500161968803013229743600045000078        
20160707000000000122000024600122000161900066663986844500000000042        
9999999900000016000000000000967000                                       
