00000000MARITIMO S.R.L.     20170207COBRANZAS RAPIPAGO                   
20170207000000000140000024600140000170380056563687290800095000200        
20170207000000000140000024600140000170380056563670172900095000684        
20170207000000000060000024600060000170401501033226938300000000021        
20170207000000000158000024600158000170440055553819946200000000015        
9999999900000004000000000000498000                                       
