00000000MARITIMO S.R.L.     20161207COBRANZAS RAPIPAGO                   
20161207000000000045000024600045000163442917112959395200100000000        
20161207000000000140000024600140000163420054543670172900095000678        
20161207000000000265000024600265000163480071713670172900000000042        
20161207000000000038000024600038000163431005182367235700100000690        
20161207000000000065000024600065000163462917022625130600100000084        
20161207000000000038000024600038000163431005153097433700100000437        
9999999900000006000000000000591000                                       
