00000000MARITIMO S.R.L.     20151207COBRANZAS RAPIPAGO                   
20151207000000000020000024600020000153412914120216487000000000084        
20151207000000000020000024600020000153412914180203615800000000078        
9999999900000002000000000000040000                                       
