00000000MARITIMO S.R.L.     20160307COBRANZAS RAPIPAGO                   
20160307000000000030000024600030000160689604101416179100030000090        
20160307000000000097000024600097000160670027274000957200070000642        
20160307000000000097000024600097000160670027274013244800070000515        
20160307000000000097000024600097000160670027273990873600070000779        
20160307000000000097000024600097000160670027273991705800070000736        
20160307000000000030000024600030000160709604083065314300030000078        
9999999900000006000000000000448000                                       
