00000000MARITIMO S.R.L.     20151007COBRANZAS RAPIPAGO                   
20151007000000000020000024600020000152809603023389733000000000042        
20151007000000000020000024600020000152809603012397825400000000063        
20151007000000000088000024600088000152809919033712037800070000757        
20151007000000000020000024600020000152809603014149148800000000015        
20151007000000000030000024600030000152878801013477061700000000021        
20151007000000000088000024600088000152809903033021213900070000763        
20151007000000000088000024600088000152809919033724876700070000600        
20151007000000000020000024600020000152809603012541633300000000057        
20151007000000000088000024600088000152809919034013244800070000590        
20151007000000000094500024600094500152867906072270422700000000000        
20151007000000000088000024600088000152809919033725984100070000599        
9999999900000011000000000000644500                                       
