00000000MARITIMO S.R.L.     20170307COBRANZAS RAPIPAGO                   
20170307000000000046000024600046000170728214142990967400030000015        
20170307000000000140000024600140000170660057573827732000095000700        
20170307000000000140000024600140000170660057573687290800095000636        
20170307000000000140000024600140000170660057572943828500095000615        
20170307000000000040000024600040000170699605023636638300030000390        
20170307000000000039000024600039000170668803012531254200000000036        
20170307000000000040000024600040000170699605092531254200030000463        
20170307000000000140000024600140000170660057573650123700095000716        
20170307000000000140000024600140000170660057573856126100095000757        
20170307000000000046000024600046000170728214042894632400030000037        
20170307000000000140000024600140000170660057573670172900095000678        
20170307000000000140000024600140000170660057573448242200095000790        
9999999900000012000000000001191000                                       
