00000000MARITIMO S.R.L.     20150707COBRANZAS RAPIPAGO                   
20150707000000000033600024600033600151918207092258766000021000015        
9999999900000001000000000000033600                                       
