00000000MARITIMO S.R.L.     20170107COBRANZAS RAPIPAGO                   
20170107000000000037800024600037800170148213042649754000000000042        
9999999900000001000000000000037800                                       
