00000000MARITIMO S.R.L.     20160907COBRANZAS RAPIPAGO                   
20160907000000000027300024600027300162578212023562135700027000079        
20160907000000000027300024600027300162578212021672980300027000090        
20160907000000000129000024600129000162510051513827732000090000716        
20160907000000000129000024600129000162510051513737688500090000799        
20160907000000000128000024600128000162580065653737688500000000021        
20160907000000000055000024600055000162562917022829737900100000037        
20160907000000000070000024600070000162528902023894778300000000079        
20160907000000000089000024600089000162571707091653597500000000090        
20160907000000000044100024600044100162578212071616883900042000078        
9999999900000009000000000000698700                                       
