00000000MARITIMO S.R.L.     20151107COBRANZAS RAPIPAGO                   
20151107000000000065000024600065000153159101062328199300000000078        
20151107000000000088000024600088000153119919033712037800070000500        
20151107000000000065000024600065000153139101153733801600000000078        
9999999900000003000000000000218000                                       
