00000000MARITIMO S.R.L.     20161007COBRANZAS RAPIPAGO                   
20161007000000000150000024600150000162868903352313687100000000021        
20161007000000000150000024600150000162868903261841726700000000016        
20161007000000000101000024600101000162817909062778217500155000536        
20161007000000000101000024600101000162817909091724506900155000679        
20161007000000000101000024600101000162817909062616737900155000784        
20161007000000000129000024600129000162810052523827732000090000799        
20161007000000000101000024600101000162817909091807028900155000615        
20161007000000000101000024600101000162817909024034509500155000657        
20161007000000000101000024600101000162817909091632859200155000690        
20161007000000000070000024600070000162821849033051372700000000000        
20161007000000000129000024600129000162810052523670172900090000663        
20161007000000000070000024600070000162881849042756358400000000036        
20161007000000000101000024600101000162817909082001786900155000563        
20161007000000000101000024600101000162817909062689253300155000636        
20161007000000000101000024600101000162817909072415333900155000658        
20161007000000000101000024600101000162817909062866906600155000799        
20161007000000000129000024600129000162810052523805600100090000737        
9999999900000017000000000001837000                                       
