00000000MARITIMO S.R.L.     20161107COBRANZAS RAPIPAGO                   
20161107000000000070000024600070000163151002172779449900000000042        
20161107000000000140000024600140000163120053533827732000095000721        
20161107000000000265000024600265000163150071713523592800000000063        
20161107000000000058000024600058000163151001172404285000000000057        
20161107000000000140000024600140000163120053533650123700095000742        
20161107000000000025000024600025000163171003053594272100000000079        
20161107000000000145000024600145000163190052522191847800000000015        
20161107000000000039000024600039000163178803013881307800000000015        
20161107000000000140000024600140000163120053533899056000095000657        
9999999900000009000000000001022000                                       
