00000000MARITIMO S.R.L.     20160308COBRANZAS RAPIPAGO                   
20160308000000000035000024600035000160694609023621358400000000063        
20160308000000000109500024600109500160710025253315733300000000000        
20160308000000000030000024600030000160709604033195656500030000137        
9999999900000003000000000000174500                                       
