00000000MARITIMO S.R.L.     20170508COBRANZAS RAPIPAGO                   
20170508000000000149500024600149500171350059594139450400085000063        
20170508000000000187000024600187000171350074744166882600130000036        
20170508000000000117000024600117000171350088883301748400000000099        
20170508000000000200000024600200000171330073733513857200000000042        
20170508000000000149500024600149500171350059593422943400085000057        
20170508000000000117000024600117000171350088884103728000000000090        
9999999900000006000000000000920000                                       
