00000000MARITIMO S.R.L.     20170308COBRANZAS RAPIPAGO                   
20170308000000000100000024600100000170741850313983140000000000021        
20170308000000000046000024600046000170678214071626595100030000021        
20170308000000000158000024600158000170740055554150272500000000079        
9999999900000003000000000000304000                                       
