00000000MARITIMO S.R.L.     20150908COBRANZAS RAPIPAGO                   
20150908000000000230000024600230000152568901032989467300000000084        
20150908000000000048000024600048000152511706091613564900120000000        
20150908000000000048000024600048000152531706043150369200120000478        
20150908000000000079500024600079500152577906081809134100150000042        
20150908000000000079500024600079500152577906072467454800150000084        
20150908000000000079500024600079500152577906072291674400150000042        
20150908000000000090000024600090000152510145071408174600000000084        
20150908000000000112000024600112000152520093071649651500040000016        
9999999900000008000000000000766500                                       
