00000000MARITIMO S.R.L.     20160408COBRANZAS RAPIPAGO                   
20160408000000000044100024600044100161058210082634654900042000042        
20160408000000000115000024600115000161060046463511102700080000084        
20160408000000000104000024600104000161060028283576671900055000084        
20160408000000000115000024600115000161050046469296908000080000058        
9999999900000004000000000000378100                                       
