00000000MARITIMO S.R.L.     20160908COBRANZAS RAPIPAGO                   
20160908000000000101000024600101000162587909072448895200155000079        
20160908000000000128000024600128000162580064644150272500000000090        
20160908000000000138000024600138000162590051513650123700070000084        
20160908000000000101000024600101000162587909052945493300155000036        
9999999900000004000000000000468000                                       
