00000000MARITIMO S.R.L.     20170209COBRANZAS RAPIPAGO                   
20170209000000000060000024600060000170401501062199352400000000015        
20170209000000000060000024600060000170401501071652548500000000036        
20170209000000000100000024600100000170441850423523826300000000000        
20170209000000000149500024600149500170460056563856126100085000158        
20170209000000000100000024600100000170461850442898604400000000015        
9999999900000005000000000000469500                                       
