00000000MARITIMO S.R.L.     20170309COBRANZAS RAPIPAGO                   
20170309000000000034000024600034000170758214372880124800030000063        
20170309000000000034000024600034000170758214252966556300030000042        
20170309000000000040000024600040000170699605023350613900030000321        
20170309000000000040000024600040000170699605042457715000030000300        
20170309000000000149500024600149500170740057573320685300085000100        
20170309000000000158000024600158000170750056564150272500000000099        
20170309000000000040000024600040000170699605073385172400030000684        
9999999900000007000000000000495500                                       
