00000000MARITIMO S.R.L.     20160309COBRANZAS RAPIPAGO                   
20160309000000000030000024600030000160709604014199065800030000699        
20160309000000000040000024600040000160709604114465037200090000157        
9999999900000002000000000000070000                                       
