00000000MARITIMO S.R.L.     20151109COBRANZAS RAPIPAGO                   
20151109000000000140000024600140000153140147171717916700000000057        
20151109000000000080000024600080000153198901213607068300000000016        
20151109000000000040000024600040000153140256252567596800000000078        
9999999900000003000000000000260000                                       
