00000000MARITIMO S.R.L.     20161209COBRANZAS RAPIPAGO                   
20161209000000000031500024600031500163508213071747050000063000036        
20161209000000000052500024600052500163508304291264456100075000042        
9999999900000002000000000000084000                                       
