00000000MARITIMO S.R.L.     20160509COBRANZAS RAPIPAGO                   
20160509000000000060000024600060000161339601023389733000000000042        
20160509000000000039000024600039000161369601012748887400000000163        
20160509000000000030000024600030000161339925042748887400000000099        
20160509000000000123000024600123000161360047473984958400070000190        
20160509000000000030000024600030000161339925043318487700000000037        
20160509000000000044100024600044100161338210082806581700042000058        
20160509000000000044100024600044100161338210082742115000042000000        
20160509000000000001000024600001000161345555011212121200005000284        
20160509000000000002200024600002200161365555021678855600008000063        
20160509000000000057700024600057700161338210262078071800053000490        
9999999900000010000000000000431100                                       
