00000000MARITIMO S.R.L.     20160109COBRANZAS RAPIPAGO                   
20160109000000000031500024600031500160168209073134821300000000015        
20160109000000000031500024600031500160158209073562026800000000063        
20160109000000000031500024600031500160138209153137547700000000099        
20160109000000000031500024600031500160128209121229107900000000015        
20160109000000000025000024600025000160162915222503960600000000079        
20160109000000000025000024600025000160162915212605034800000000000        
20160109000000000031500024600031500160118209101853590500000000021        
9999999900000007000000000000207500                                       
