00000000MARITIMO S.R.L.     20160810COBRANZAS RAPIPAGO                   
20160810000000000039000024600039000162258803012900104200000000036        
20160810000000000039000024600039000162308803013801927800000000021        
20160810000000000110000024600110000162308903359387420900200000078        
20160810000000000122000024600122000162280065653827732000030000216        
20160810000000000128000024600128000162300067673810566300000000063        
20160810000000000122000024600122000162280068683828169100030000037        
20160810000000000060000024600060000162289601022360777300000000116        
20160810000000000060000024600060000162289601023573429800000000299        
20160810000000000030000024600030000162298211014142617500000000063        
20160810000000000030000024600030000162308211024304073200000000021        
20160810000000000048300024600048300162298211052258766000000000063        
20160810000000000123000024600123000162280050503299672600070000100        
20160810000000000039000024600039000162298803013886628200000000090        
9999999900000013000000000000950300                                       
