00000000DERAMO FABIAN N.    20150610COBRANZAS RAPIPAGO                   
20150610000000000060000024600060000151681845242402178000000000042        
9999999900000001000000000000060000                                       
