00000000MARITIMO S.R.L.     20150710COBRANZAS RAPIPAGO                   
20150710000000000033600024600033600151938207153348059900021000063        
20150710000000000046000024600046000151960091262335611500000000099        
9999999900000002000000000000079600                                       
