00000000MARITIMO S.R.L.     20150910COBRANZAS RAPIPAGO                   
20150910000000000048000024600048000152531706101202841100120000479        
20150910000000000230000024600230000152588901081239750600000000000        
20150910000000000079500024600079500152577906110848125500150000057        
20150910000000000050000024600050000152530145283339963300000000036        
20150910000000000086000024600086000152600093401794451200060000042        
20150910000000000090000024600090000152590145081311466900000000036        
20150910000000000079500024600079500152597906081824178000150000057        
9999999900000007000000000000663000                                       
