00000000MARITIMO S.R.L.     20170510COBRANZAS RAPIPAGO                   
20170510000000000032500024600032500171308215021889952000000000084        
20170510000000000030000024600030000171302401042785597800050000657        
20170510000000000187000024600187000171350074743900056300130000084        
20170510000000000051000024600051000171308215071721483100000000021        
20170510000000000187000024600187000171350074742852336900130000090        
20170510000000000066000024600066000171308215232829383700000000000        
20170510000000000051000024600051000171308215071829475700000000000        
9999999900000007000000000000604500                                       
