00000000MARITIMO S.R.L.     20170310COBRANZAS RAPIPAGO                   
20170310000000000040000024600040000170699605023600429700030000600        
20170310000000000034000024600034000170768214291721483100030000084        
20170310000000000040000024600040000170699605064465037200030000616        
20170310000000000040000024600040000170699605042458655000030000400        
9999999900000004000000000000154000                                       
