00000000MARITIMO S.R.L.     20151210COBRANZAS RAPIPAGO                   
20151210000000000055000024600055000153441847142579704900000000090        
20151210000000000055000024600055000153441847081433956300000000063        
20151210000000000055000024600055000153441847042746083000000000021        
20151210000000000140000024600140000153450147052250590800000000084        
20151210000000000020000024600020000153452914212153963100000000016        
20151210000000000140000024600140000153460147162022625700000000058        
20151210000000000140000024600140000153460147152503970500000000058        
20151210000000000140000024600140000153460147033055006200000000015        
20151210000000000140000024600140000153460147162243401700000000084        
20151210000000000120000024600120000153505706053084500400000000057        
20151210000000000020000024600020000153502914113773651000000000042        
20151210000000000140000024600140000153460147142605043300000000078        
20151210000000000028400024600028400153508209073409258800031000084        
20151210000000000028400024600028400153518209162588550400031000015        
9999999900000014000000000001221800                                       
