00000000MARITIMO S.R.L.     20151110COBRANZAS RAPIPAGO                   
20151110000000000040000024600040000153140256261848301100000000063        
20151110000000000040000024600040000153140256243451391100000000057        
20151110000000000095000024600095000153199919034000957200045000137        
20151110000000000230000024600230000153218901052237420200000000084        
20151110000000000001100024600001100153150018182816738200001000658        
9999999900000005000000000000406100                                       
