00000000MARITIMO S.R.L.     20161210COBRANZAS RAPIPAGO                   
20161210000000000031500024600031500163478213152178722300063000021        
9999999900000001000000000000031500                                       
