00000000MARITIMO S.R.L.     20151111COBRANZAS RAPIPAGO                   
20151111000000000022000024600022000153165204023720698000000000042        
20151111000000000030000024600030000153208801013669395600000000021        
20151111000000000022000024600022000153185204193540566900000000084        
20151111000000000144700024600144700153219921014000957200000000037        
20151111000000000230000024600230000153228901042828602500000000063        
20151111000000000230000024600230000153218901052320935500000000000        
20151111000000000230000024600230000153218901052502178700000000015        
20151111000000000230000024600230000153158901061760784900000000021        
20151111000000000140000024600140000153150147161848629700000000078        
20151111000000000140000024600140000153150147052344712700000000021        
20151111000000000140000024600140000153210147161820106800000000015        
9999999900000011000000000001558700                                       
