00000000MARITIMO S.R.L.     20170311COBRANZAS RAPIPAGO                   
20170311000000000034000024600034000170728214320475198100030000063        
20170311000000000034000024600034000170718214353405878800030000021        
9999999900000002000000000000068000                                       
