00000000MARITIMO S.R.L.     20160811COBRANZAS RAPIPAGO                   
20160811000000000048300024600048300162308211042902314200000000015        
20160811000000000122000024600122000162280065654073299900030000021        
20160811000000000039000024600039000162268803013336889800000000063        
20160811000000000048300024600048300162298211161727259300000000021        
20160811000000000030000024600030000162249931013955252900000000079        
20160811000000000063000024600063000162308211213701084300000000021        
20160811000000000030000024600030000162277603062259827900000000016        
20160811000000000123000024600123000162280050503640389700070000158        
20160811000000000039000024600039000162298803013773399400000000037        
20160811000000000060000024600060000162289601023204038400000000300        
20160811000000000123000024600123000162280050503856126100070000342        
20160811000000000122000024600122000162280065653856126100030000300        
9999999900000012000000000000847600                                       
