00000000MARITIMO S.R.L.     20160611COBRANZAS RAPIPAGO                   
20160611000000000060000024600060000161649203032804162300000000037        
9999999900000001000000000000060000                                       
