00000000MARITIMO S.R.L.     20170411COBRANZAS RAPIPAGO                   
20170411000000000037000024600037000171048214243701087100000000063        
20170411000000000058000024600058000171058806013350613900000000036        
20170411000000000187000024600187000171050073734164026100130000121        
20170411000000000149500024600149500171050058583856126100085000300        
20170411000000000158000024600158000171030057579296908000000000079        
9999999900000005000000000000589500                                       
