00000000MARITIMO S.R.L.     20160311COBRANZAS RAPIPAGO                   
20160311000000000104000024600104000160750027273576671900055000390        
20160311000000000109500024600109500160770025251676493200000000099        
20160311000000000104000024600104000160750027279926975100055000242        
20160311000000000029000024600029000160767907152876866800000000079        
20160311000000000029000024600029000160777907153492853900000000042        
20160311000000000029000024600029000160777907162390792100000000063        
20160311000000000140000024600140000160752800232191273600000000000        
20160311000000000036500024600036500160777907062467454800055000021        
20160311000000000036500024600036500160777907081809134100055000000        
9999999900000009000000000000617500                                       
