00000000MARITIMO S.R.L.     20150911COBRANZAS RAPIPAGO                   
20150911000000000030000024600030000152618801013250812600000000037        
20150911000000000050000024600050000152610145283320467400000000042        
20150911000000000050000024600050000152560145283572297300000000099        
20150911000000000230000024600230000152608901142618447800000000063        
20150911000000000072000024600072000152590091301122138000070000058        
20150911000000000079500024600079500152607906082076562100150000015        
20150911000000000079500024600079500152607906014212337700150000021        
9999999900000007000000000000591000                                       
