00000000MARITIMO S.R.L.     20151211COBRANZAS RAPIPAGO                   
20151211000000000140000024600140000153460147171495120700000000058        
20151211000000000028400024600028400153518209073129928200031000084        
20151211000000000140000024600140000153460147152350668900000000037        
20151211000000000140000024600140000153460147142583781500000000042        
20151211000000000140000024600140000153460147142793819700000000037        
20151211000000000020000024600020000153502914141402585600000000099        
20151211000000000140000024600140000153460147123331111700000000037        
20151211000000000020000024600020000153452914123121898600000000063        
20151211000000000140000024600140000153460147152309193700000000021        
20151211000000000140000024600140000153460147142658363900000000063        
20151211000000000140000024600140000153460147152401977000000000042        
20151211000000000140000024600140000153460147152483545400000000000        
20151211000000000140000024600140000153460147152224781300000000016        
9999999900000013000000000001468400                                       
