00000000MARITIMO S.R.L.     20150711COBRANZAS RAPIPAGO                   
20150711000000000046000024600046000151960091252778700000000000036        
9999999900000001000000000000046000                                       
