00000000MARITIMO S.R.L.     20150811COBRANZAS RAPIPAGO                   
20150811000000000040000024600040000152248802012671811100000000078        
20150811000000000030000024600030000152298801011337721200000000078        
20150811000000000030000024600030000152298801014426790200000000084        
20150811000000000090000024600090000152240145032883006700000000036        
20150811000000000073000024600073000152250093061756465100000000078        
20150811000000000054500024600054500152250093323844208700000000078        
20150811000000000095000024600095000152279903033767911600045000121        
20150811000000000073000024600073000152250093062072959700000000063        
20150811000000000054500024600054500152250093351652227200000000000        
20150811000000000054500024600054500152250093271765911200000000084        
9999999900000010000000000000594500                                       
