00000000MARITIMO S.R.L.     20161212COBRANZAS RAPIPAGO                   
20161212000000000031500024600031500163518213052367153300063000063        
20161212000000000093000024600093000163528503442001249600000000037        
20161212000000000045000024600045000163502917123329746500100000015        
20161212000000000065000024600065000163502917032378836800100000078        
20161212000000000149500024600149500163500054543650123700085000415        
20161212000000000265000024600265000163480072723760737800000000021        
20161212000000000045000024600045000163502917113928031000100000484        
20161212000000000045000024600045000163502917113839229900100000442        
20161212000000000265000024600265000163540071713856126100000000042        
9999999900000009000000000001004000                                       
