00000000MARITIMO S.R.L.     20160812COBRANZAS RAPIPAGO                   
20160812000000000039000024600039000162308803013033072100000000016        
20160812000000000039000024600039000162298803012592915800000000000        
20160812000000000039000024600039000162278803014115604000000000090        
20160812000000000039000024600039000162308803013320530700000000079        
20160812000000000060000024600060000162289601021418999700000000142        
20160812000000000039000024600039000162278803012760636100000000037        
20160812000000000039000024600039000162278803012517116300000000036        
20160812000000000039000024600039000162278803012331709400000000058        
20160812000000000060000024600060000162289601022397825400000000279        
20160812000000000078000024600078000162321707111128119300110000015        
20160812000000000030000024600030000162308211022397099100000000016        
20160812000000000030000024600030000162308211012511229800000000042        
20160812000000000123000024600123000162280050503737688500070000100        
20160812000000000039000024600039000162308803012458655000000000058        
20160812000000000128000024600128000162300064643511102700000000079        
20160812000000000130000024600130000162300049493511102700000000000        
20160812000000000063000024600063000162308211231829489900000000042        
9999999900000017000000000001014000                                       
