00000000MARITIMO S.R.L.     20160712COBRANZAS RAPIPAGO                   
20160712000000000128000024600128000162010063633511102700000000042        
20160712000000000060000024600060000161969601023570373600000000021        
9999999900000002000000000000188000                                       
