00000000MARITIMO S.R.L.     20161012COBRANZAS RAPIPAGO                   
20161012000000000022000024600022000162921003014131610400030000057        
20161012000000000048000024600048000162861001133991785100100000016        
9999999900000002000000000000070000                                       
