00000000MARITIMO S.R.L.     20170412COBRANZAS RAPIPAGO                   
20170412000000000187000024600187000171050073734147205900130000300        
20170412000000000045000024600045000171049700081111111700000000063        
9999999900000002000000000000232000                                       
