00000000MARITIMO S.R.L.     20151212COBRANZAS RAPIPAGO                   
20151212000000000140000024600140000153460147133168159800000000016        
20151212000000000028400024600028400153518209082639112600031000000        
20151212000000000039000024600039000153468303124366747400060000042        
20151212000000000140000024600140000153460147133163844600000000063        
20151212000000000140000024600140000153460147152539788500000000042        
9999999900000005000000000000487400                                       
