00000000DERAMO FABIAN N.    20150612COBRANZAS RAPIPAGO                   
20150612000000000016000024600016000151640144040227650100000000084        
20150612000000000016000024600016000151640144051236099300000000084        
20150612000000000016000024600016000151640144083756012100000000078        
20150612000000000016000024600016000151640144111718910800000000099        
9999999900000004000000000000064000                                       
