00000000MARITIMO S.R.L.     20170512COBRANZAS RAPIPAGO                   
20170512000000000117000024600117000171380088883785633100000000090        
20170512000000000117000024600117000171380088884185407700000000063        
9999999900000002000000000000234000                                       
