00000000MARITIMO S.R.L.     20160112COBRANZAS RAPIPAGO                   
20160112000000000031500024600031500160168209082503984000000000084        
20160112000000000024200024600024200160188209042084517900000000063        
20160112000000000031500024600031500160168209230808176800000000084        
20160112000000000031500024600031500160178209153775198000000000079        
20160112000000000035000024600035000160182915113278987600000000084        
20160112000000000031500024600031500160188209082741768400000000079        
9999999900000006000000000000185200                                       
