00000000MARITIMO S.R.L.     20161213COBRANZAS RAPIPAGO                   
20161213000000000030000024600030000163489931013693242600000000000        
20161213000000000158000024600158000163550053531904431500000000021        
20161213000000000045000024600045000163502917122568131100100000542        
20161213000000000265000024600265000163490072723687290800000000016        
20161213000000000045000024600045000163482917113925707600100000042        
20161213000000000265000024600265000163490072723480052500000000058        
20161213000000000265000024600265000163490072723835860800000000058        
20161213000000000149500024600149500163500054543835860800085000537        
20161213000000000015000024600015000163500304202713043800000000078        
20161213000000000065000024600065000163492917082547578700100000063        
20161213000000000149500024600149500163500054543856126100085000442        
9999999900000011000000000001452000                                       
