00000000MARITIMO S.R.L.     20160913COBRANZAS RAPIPAGO                   
20160913000000000101000024600101000162637909111181685700135000021        
20160913000000000101000024600101000162647909072421234300155000058        
20160913000000000089000024600089000162641707062692447500000000036        
9999999900000003000000000000291000                                       
