00000000MARITIMO S.R.L.     20160213COBRANZAS RAPIPAGO                   
20160211000000000003000024600003000160430900013054785600000000042        
20160213000000000104000024600104000160460026263576671900055000400        
9999999900000002000000000000107000                                       
