00000000MARITIMO S.R.L.     20160513COBRANZAS RAPIPAGO                   
20160513000000000123000024600123000161360047473737688500070000500        
20160513000000000063000024600063000161418210283868466200000000078        
20160513000000000039000024600039000161369601013881307800000000537        
9999999900000003000000000000225000                                       
