00000000MARITIMO S.R.L.     20170313COBRANZAS RAPIPAGO                   
20170313000000000046000024600046000170738214191664388200030000015        
20170313000000000046000024600046000170738214023298578500030000058        
20170313000000000046000024600046000170798214042670890000030000042        
20170313000000000149500024600149500170740057574139450400085000578        
9999999900000004000000000000287500                                       
