00000000MARITIMO S.R.L.     20170513COBRANZAS RAPIPAGO                   
20170513000000000149500024600149500171350059593815237100085000421        
20170513000000000187000024600187000171350074744185407700130000479        
9999999900000002000000000000336500                                       
