00000000MARITIMO S.R.L.     20151113COBRANZAS RAPIPAGO                   
20151113000000000230000024600230000153218901062179753500000000036        
20151113000000000030000024600030000153238801014032101000000000021        
20151113000000000022000024600022000153185204081686732400000000084        
20151113000000000018000024600018000153185204251119803000000000036        
20151113000000000022000024600022000153185204172840818700000000090        
20151113000000000030000024600030000153218801019443151900000000079        
20151113000000000230000024600230000153238901023324740800000000036        
20151113000000000030000024600030000153248801013879046800000000042        
20151113000000000030000024600030000153238801013780281200000000078        
20151113000000000022000024600022000153185204023594607800000000021        
20151113000000000018000024600018000153185204253616022300000000021        
20151113000000000070000024600070000153228502422696587500000000079        
20151113000000000140000024600140000153200147142616043100000000021        
9999999900000013000000000000892000                                       
