00000000MARITIMO S.R.L.     20151214COBRANZAS RAPIPAGO                   
20151214000000000028400024600028400153508209073061240100031000058        
20151214000000000020000024600020000153502914222562560900000000037        
20151214000000000095000024600095000153499919033899612500045000279        
20151214000000000020000024600020000153552914222828752300000000099        
20151214000000000020000024600020000153522914132506100600000000063        
20151214000000000020000024600020000153522914222555774400000000037        
20151214000000000021000024600021000153538209053756152300032000016        
9999999900000007000000000000224400                                       
