00000000MARITIMO S.R.L.     20160114COBRANZAS RAPIPAGO                   
20160114000000000031500024600031500160158209073195854600000000037        
20160114000000000031500024600031500160188209182188882800000000099        
20160114000000000120000024600120000160155706043409281000000000616        
20160114000000000120000024600120000160155706053186032000000000537        
20160114000000000120000024600120000160155706052980020900000000563        
20160114000000000031500024600031500160158209153800674700000000000        
9999999900000006000000000000454500                                       
