00000000MARITIMO S.R.L.     20160714COBRANZAS RAPIPAGO                   
20160714000000000044100024600044100161978211081267582900042000063        
20160714000000000060000024600060000161979601023372049400000000500        
20160714000000000130000024600130000162010048483511102700000000078        
20160714000000000123000024600123000161970049493856126100070000600        
9999999900000004000000000000357100                                       
