00000000MARITIMO S.R.L.     20170314COBRANZAS RAPIPAGO                   
20170314000000000149500024600149500170740057571904431500085000642        
20170314000000000043000024600043000170779605014032338600020000058        
20170314000000000043000024600043000170779605064284927500020000299        
20170314000000000046000024600046000170738214042742112000030000042        
20170314000000000046000024600046000170798214159288137100030000079        
9999999900000005000000000000327500                                       
