00000000MARITIMO S.R.L.     20150914COBRANZAS RAPIPAGO                   
20150914000000000030000024600030000152648801013600549500000000084        
20150914000000000030000024600030000152628801012979252200000000084        
20150914000000000030000024600030000152648801013408768800000000016        
20150914000000000079500024600079500152587906091724202500150000042        
20150914000000000030000024600030000152608801013422129900000000063        
20150914000000000060000024600060000152641706072408944600000000000        
20150914000000000055000024600055000152581846033075157500100000084        
20150914000000000090000024600090000152620145033147721500000000057        
9999999900000008000000000000404500                                       
