00000000MARITIMO S.R.L.     20160614COBRANZAS RAPIPAGO                   
20160614000000000074500024600074500161697908081642668000105000457        
20160614000000000122000024600122000161670063634012926700000000090        
20160614000000000123000024600123000161670048484012926700070000679        
20160614000000000030000024600030000161679925033549729600000000090        
9999999900000004000000000000349500                                       
