00000000MARITIMO S.R.L.     20160914COBRANZAS RAPIPAGO                   
20160914000000000070000024600070000162611849052266819500000000090        
20160914000000000138000024600138000162590051513402336500070000421        
20160914000000000101000024600101000162647909082002457800155000021        
20160914000000000101000024600101000162657909081823555900155000084        
20160914000000000138000024600138000162590051513856126100070000636        
20160914000000000094500024600094500162650069693856126100000000099        
9999999900000006000000000000642500                                       
