00000000MARITIMO S.R.L.     20170214COBRANZAS RAPIPAGO                   
20170214000000000120000024600120000170461850121814843300000000042        
20170214000000000120000024600120000170461850112229393100000000021        
20170214000000000120000024600120000170461850033064888300000000099        
9999999900000003000000000000360000                                       
