00000000MARITIMO S.R.L.     20151014COBRANZAS RAPIPAGO                   
20151014000000000116000024600116000152940093023287930900000000000        
20151014000000000065000024600065000152881846042836293900000000084        
20151014000000000095000024600095000152889919033926839500045000616        
20151014000000000094500024600094500152877906072340738800000000016        
20151014000000000095000024600095000152889919034000957200045000684        
20151014000000000065000024600065000152881846222958302000000000079        
20151014000000000144700024600144700152949921013991705800000000042        
20151014000000000092000024600092000152940093252838730000000000078        
9999999900000008000000000000767200                                       
