00000000MARITIMO S.R.L.     20160115COBRANZAS RAPIPAGO                   
20160115000000000024200024600024200160208209052738887300000000079        
20160115000000000031500024600031500160208209111719677200000000058        
20160115000000000024200024600024200160218209049537685900000000079        
20160115000000000120000024600120000160155706081795334700000000642        
20160115000000000025000024600025000160152915224164047400000000084        
20160115000000000035000024600035000160182915123086235300000000015        
9999999900000006000000000000259900                                       
