00000000MARITIMO S.R.L.     20170315COBRANZAS RAPIPAGO                   
20170315000000000100000024600100000170791850342703213400000000021        
20170315000000000043000024600043000170779605023439946800020000242        
20170315000000000043000024600043000170779605023766262500020000263        
20170315000000000100000024600100000170791850242727888700000000015        
20170315000000000046000024600046000170808214062037773200030000037        
20170315000000000080000024600080000170749933013946687100000000784        
20170315000000000046000024600046000170818214052347921400030000078        
9999999900000007000000000000458000                                       
