00000000MARITIMO S.R.L.     20150815COBRANZAS RAPIPAGO                   
20150815000000000030000024600030000152298801012371641800000000021        
9999999900000001000000000000030000                                       
