00000000MARITIMO S.R.L.     20170515COBRANZAS RAPIPAGO                   
20170515000000000070000024600070000171422401252980794500000000057        
20170515000000000117000024600117000171350088883900056300000000084        
20170515000000000149500024600149500171350059593320685300085000784        
20170515000000000187000024600187000171350074743946406500130000700        
20170515000000000187000024600187000171350074743792603700130000763        
9999999900000005000000000000710500                                       
