00000000MARITIMO S.R.L.     20161215COBRANZAS RAPIPAGO                   
20161213000000000149500024600149500163500054543984958400085000400        
20161213000000000265000024600265000163490072723984958400000000063        
20161215000000000149500024600149500163500054543701312600085000790        
20161215000000000265000024600265000163570072723703565800000000036        
20161215000000000065000024600065000163502917022922803100100000479        
20161215000000000065000024600065000163502917032578646100100000537        
20161215000000000045000024600045000163502917112838941400100000784        
20161215000000000045000024600045000163502917112893571600100000357        
20161215000000000065000024600065000163502917082195838100100000763        
20161215000000000149500024600149500163500054541904431500085000779        
20161215000000000093000024600093000163578503432279930400000000042        
20161215000000000045000024600045000163502917121763502100100000636        
20161215000000000149500024600149500163500054543299672600085000784        
20161215000000000065000024600065000163502917031835356000100000657        
20161215000000000149500024600149500163500054542943828500085000615        
20161215000000000065000024600065000163502917072901012900100000663        
9999999900000016000000000001830500                                       
