00000000MARITIMO S.R.L.     20161015COBRANZAS RAPIPAGO                   
20161015000000000070000024600070000162901849042589587100000000057        
9999999900000001000000000000070000                                       
