00000000MARITIMO S.R.L.     20160215COBRANZAS RAPIPAGO                   
20160215000000000060000024600060000160491848232758848700000000063        
20160215000000000109500024600109500160500025251676493200000000000        
20160215000000000060000024600060000160491848292255099900000000021        
9999999900000003000000000000229500                                       
