00000000MARITIMO S.R.L.     20151015COBRANZAS RAPIPAGO                   
20151015000000000065000024600065000152881846023329712800000000079        
20151015000000000094500024600094500152947906082152983100000000063        
20151015000000000035700024600035700152948208082539764300000000084        
20151015000000000037000024600037000152880091474591216800000000090        
20151015000000000079000024600079000152880091052669381100000000042        
20151015000000000037000024600037000152880091474755555400000000090        
20151015000000000022000024600022000152928208042726157900000000063        
20151015000000000230000024600230000152948901042567747700000000016        
9999999900000008000000000000600200                                       
