00000000MARITIMO S.R.L.     20170116COBRANZAS RAPIPAGO                   
20170116000000000037800024600037800170188213033607141300000000090        
20170116000000000037800024600037800170188213033458043700000000000        
20170116000000000029400024600029400170188213021606666100000000063        
20170116000000000158000024600158000170310055551904431500000000058        
20170116000000000037800024600037800170188213071721483100000000016        
20170116000000000037800024600037800170188213161717859500000000037        
9999999900000006000000000000338600                                       
