00000000MARITIMO S.R.L.     20151216COBRANZAS RAPIPAGO                   
20151216000000000028400024600028400153518209092364197400031000090        
20151216000000000020000024600020000153522914113275511100000000063        
20151216000000000028400024600028400153558209063934229400031000015        
20151216000000000120000024600120000153505706071710008300000000063        
20151216000000000028400024600028400153528209092296684000031000079        
20151216000000000028400024600028400153508209191698792200031000090        
9999999900000006000000000000253600                                       
