00000000MARITIMO S.R.L.     20161116COBRANZAS RAPIPAGO                   
20161116000000000145000024600145000163280052521904431500000000016        
20161116000000000065000024600065000163282917082324299500100000000        
20161116000000000045000024600045000163282917110607346400100000021        
9999999900000003000000000000255000                                       
