00000000MARITIMO S.R.L.     20160216COBRANZAS RAPIPAGO                   
20160216000000000099000024600099000160491848162165766000000000058        
20160216000000000060000024600060000160491848242489285500000000000        
9999999900000002000000000000159000                                       
