00000000MARITIMO S.R.L.     20170516COBRANZAS RAPIPAGO                   
20170515000000000187000024600187000171350074743718503700130000763        
20170515000000000117000024600117000171380088883718503700000000042        
20170516000000000117000024600117000171430092923940429100000000016        
20170516000000000035000024600035000171432401052306063100000000016        
20170516000000000096500024600096500171407911072554727300110000021        
20170516000000000035000024600035000171432401162367080700000000063        
9999999900000006000000000000587500                                       
