00000000MARITIMO S.R.L.     20160916COBRANZAS RAPIPAGO                   
20160916000000000101000024600101000162657909081794124100155000079        
20160916000000000130000024600130000162668903242738456300200000037        
20160916000000000101000024600101000162677909152320865600155000021        
20160916000000000070000024600070000162611849223231250700000000000        
9999999900000004000000000000402000                                       
