00000000MARITIMO S.R.L.     20160316COBRANZAS RAPIPAGO                   
20160316000000000033000024600033000160789604014179938300030000484        
20160316000000000033000024600033000160789604014093099600030000336        
20160316000000000033000024600033000160789604092360777300030000463        
20160316000000000060000024600060000160782800061641776200000000063        
20160316000000000033000024600033000160789604042197472100030000437        
20160316000000000040000024600040000160782800022434609500000000063        
9999999900000006000000000000232000                                       
