00000000MARITIMO S.R.L.     20160516COBRANZAS RAPIPAGO                   
20160516000000000045000024600045000161370258472100499300150000016        
9999999900000001000000000000045000                                       
