00000000MARITIMO S.R.L.     20160616COBRANZAS RAPIPAGO                   
20160616000000000125000024600125000161720063633523592800030000399        
20160616000000000074500024600074500161697908072866387600105000678        
20160616000000000074500024600074500161697908022770223400105000516        
20160616000000000130000024600130000161690047474024212000000000057        
9999999900000004000000000000404000                                       
