00000000MARITIMO S.R.L.     20170316COBRANZAS RAPIPAGO                   
20170316000000000043000024600043000170779605023684990000020000499        
20170316000000000158000024600158000170900057573523592800000000057        
20170316000000000046000024600046000170808214024215662100030000090        
20170316000000000043000024600043000170779605073808825900020000437        
9999999900000004000000000000290000                                       
