00000000DERAMO FABIAN N.    20150616COBRANZAS RAPIPAGO                   
20150616000000000016000024600016000151680144023851757800000000090        
20150616000000000016000024600016000151680144092827417000000000058        
9999999900000002000000000000032000                                       
