00000000DERAMO FABIAN N.    20150316COBRANZAS RAPIPAGO                   
20150316000000000026500024600026500150827904052235551900050000079        
20150316000000000026500024600026500150807904090463614400050000079        
9999999900000002000000000000053000                                       
