00000000MARITIMO S.R.L.     20170317COBRANZAS RAPIPAGO                   
20170317000000000043000024600043000170779605073781479700020000436        
20170317000000000043000024600043000170779605073389733000020000415        
20170317000000000043000024600043000170779605042397825400020000484        
20170317000000000043000024600043000170779605033257848200020000479        
20170317000000000043000024600043000170779605032898606900020000358        
20170317000000000043000024600043000170779605023766852200020000384        
20170317000000000043000024600043000170779605084483673600020000463        
20170317000000000043000024600043000170779605060000000000020000479        
9999999900000008000000000000344000                                       
