00000000MARITIMO S.R.L.     20161117COBRANZAS RAPIPAGO                   
20161117000000000128000024600128000163290064643703565800000000079        
9999999900000001000000000000128000                                       
