00000000MARITIMO S.R.L.     20151017COBRANZAS RAPIPAGO                   
20151017000000000079000024600079000152940091272027796800000000037        
20151017000000000094500024600094500152937906082412174900000000084        
20151017000000000230000024600230000152968901081242525900000000042        
9999999900000003000000000000403500                                       
