00000000MARITIMO S.R.L.     20161017COBRANZAS RAPIPAGO                   
20161017000000000063000024600063000162938212213238337700000000036        
20161017000000000094500024600094500162980070704012926700000000090        
20161017000000000048300024600048300162938212152234106400000000084        
20161017000000000094500024600094500162940069693703565800000000037        
20161017000000000128000024600128000162940063633703565800000000000        
20161017000000000094500024600094500162910070703701312600000000084        
20161017000000000116500024600116500162987909043310071800000000021        
20161017000000000116500024600116500162987909062550534300000000000        
20161017000000000048300024600048300162938212123094709600000000057        
20161017000000000048000024600048000162935905023556073300100000058        
20161017000000000094500024600094500162930070702943828500000000021        
20161017000000000116500024600116500162977909062707327800000000000        
20161017000000000048000024600048000162945905051314667600100000279        
9999999900000013000000000001111100                                       
