00000000MARITIMO S.R.L.     20150917COBRANZAS RAPIPAGO                   
20150917000000000030000024600030000152658801013385172400000000000        
20150917000000000050000024600050000152620145283303319800000000000        
20150917000000000044100024600044100152668208032978503400031000042        
20150917000000000079500024600079500152627906052910911300150000042        
20150917000000000079500024600079500152607906081684866100150000079        
9999999900000005000000000000283100                                       
