00000000MARITIMO S.R.L.     20170417COBRANZAS RAPIPAGO                   
20170417000000000158000024600158000171200058583984958400000000042        
20170417000000000200000024600200000171200073733792603700000000036        
9999999900000002000000000000358000                                       
