00000000MARITIMO S.R.L.     20170217COBRANZAS RAPIPAGO                   
20170217000000000158000024600158000170590056561904431500000000058        
9999999900000001000000000000158000                                       
