00000000MARITIMO S.R.L.     20160217COBRANZAS RAPIPAGO                   
20160217000000000099000024600099000160491848052425436200000000000        
20160217000000000099000024600099000160491848052494639100000000078        
20160217000000000040000024600040000160482800042190248300200000078        
20160217000000000109500024600109500160600026263835392800000000084        
20160217000000000060000024600060000160491848232838730000000000000        
9999999900000005000000000000407500                                       
