00000000DERAMO FABIAN N.    20150318COBRANZAS RAPIPAGO                   
20150318000000000035000024600035000150829600033820409000000000099        
9999999900000001000000000000035000                                       
