00000000DERAMO FABIAN N.    20150418COBRANZAS RAPIPAGO                   
20150418000000000044100024600044100151148206023033597300031000021        
9999999900000001000000000000044100                                       
