00000000MARITIMO S.R.L.     20161018COBRANZAS RAPIPAGO                   
20161018000000000048300024600048300162938212052364197400000000084        
20161018000000000048300024600048300162938212052306594300000000015        
20161018000000000094500024600094500162990069693842500200000000042        
20161018000000000063000024600063000162938212233031752900000000021        
20161018000000000116500024600116500162997909082085727500000000063        
20161018000000000116500024600116500162997909120457199500000000084        
20161018000000000048000024600048000162921001134042639000100000021        
20161018000000000094500024600094500162990069693320685300000000037        
20161018000000000030000024600030000162938212013182172800000000000        
20161018000000000116500024600116500162987909062816495800000000000        
20161018000000000048300024600048300162928212033474002600000000016        
20161018000000000048300024600048300162938212123334398100000000021        
9999999900000012000000000000872700                                       
