00000000MARITIMO S.R.L.     20160718COBRANZAS RAPIPAGO                   
20160718000000000040000024600040000162025904133199555300050000015        
9999999900000001000000000000040000                                       
