00000000MARITIMO S.R.L.     20150818COBRANZAS RAPIPAGO                   
20150818000000000060000024600060000152377602091272942800000000016        
20150818000000000230000024600230000152378901033150534800000000042        
20150818000000000075000024600075000152310093382005047400110000042        
9999999900000003000000000000365000                                       
