00000000MARITIMO S.R.L.     20160318COBRANZAS RAPIPAGO                   
20160318000000000040000024600040000160782800023117875500000000037        
20160318000000000033000024600033000160789604073563226300030000490        
20160318000000000030000024600030000160848801013563226300000000057        
20160318000000000033000024600033000160789604023385081400030000415        
9999999900000004000000000000136000                                       
