00000000DERAMO FABIAN N.    20150618COBRANZAS RAPIPAGO                   
20150618000000000033600024600033600151768207092377777400021000079        
9999999900000001000000000000033600                                       
