00000000MARITIMO S.R.L.     20160818COBRANZAS RAPIPAGO                   
20160818000000000125000024600125000162330068683033072100030000321        
20160818000000000060000024600060000162379601023687124200000000042        
20160818000000000078000024600078000162381707123482479900110000079        
20160818000000000039000024600039000162378803014601345100000000058        
20160818000000000015000024600015000162317603461143836800000000058        
20160818000000000128000024600128000162370063633640389700000000021        
9999999900000006000000000000445000                                       
