00000000MARITIMO S.R.L.     20170318COBRANZAS RAPIPAGO                   
20170318000000000043000024600043000170779605023752179500020000436        
9999999900000001000000000000043000                                       
