00000000MARITIMO S.R.L.     20160418COBRANZAS RAPIPAGO                   
20160418000000000109500024600109500161210028283835392800000000058        
9999999900000001000000000000109500                                       
