00000000MARITIMO S.R.L.     20151118COBRANZAS RAPIPAGO                   
20151118000000000065000024600065000153269101163624866600000000079        
20151118000000000065000024600065000153279101062252893600000000079        
20151118000000000140000024600140000153290147162105261200000000063        
20151118000000000144700024600144700153289921023882931700000000016        
20151118000000000099500024600099500153289919033882931700000000015        
9999999900000005000000000000514200                                       
