00000000MARITIMO S.R.L.     20161118COBRANZAS RAPIPAGO                   
20161118000000000065000024600065000163302917031860734900100000037        
20161118000000000065000024600065000163302917032501604700100000057        
20161118000000000158000024600158000163350053534012926700000000079        
20161118000000000065000024600065000163282917041479643700100000099        
20161118000000000065000024600065000163282917082004290900100000000        
9999999900000005000000000000418000                                       
