00000000MARITIMO S.R.L.     20170518COBRANZAS RAPIPAGO                   
20170518000000000035000024600035000171452401052504171200000000021        
20170518000000000117000024600117000171380088882950292900000000090        
20170518000000000117000024600117000171380088883694848400000000000        
20170518000000000045000024600045000171428808013864611200060000042        
20170518000000000096500024600096500171447911072537833000110000090        
20170518000000000117000024600117000171380088884164026100000000090        
20170518000000000045000024600045000171388808013853300200060000078        
9999999900000007000000000000572500                                       
