00000000MARITIMO S.R.L.     20150918COBRANZAS RAPIPAGO                   
20150918000000000060000024600060000152651706123587479800000000090        
20150918000000000030000024600030000152628801011677034900000000015        
20150918000000000050000024600050000152620145302307289500000000099        
20150918000000000030000024600030000152678801013214700500000000015        
20150918000000000072000024600072000152670091200652809700070000021        
20150918000000000060000024600060000152681706062550534300000000016        
20150918000000000230000024600230000152678901042652263400000000036        
9999999900000007000000000000532000                                       
