00000000MARITIMO S.R.L.     20170519COBRANZAS RAPIPAGO                   
20170519000000000096500024600096500171457911032569188200110000042        
20170519000000000117000024600117000171410092923561283200000000037        
20170519000000000158000024600158000171510059593856126100000000000        
9999999900000003000000000000371500                                       
