00000000MARITIMO S.R.L.     20151119COBRANZAS RAPIPAGO                   
20151119000000000065000024600065000153299101163250519900000000063        
20151119000000000140000024600140000153240147142758597800000000099        
20151119000000000017500024600017500153286906310809343400000000063        
20151119000000000055000024600055000153291847133000698100000000037        
20151119000000000065000024600065000153249101102867819000000000090        
20151119000000000020000024600020000153247104041839856400000000021        
20151119000000000140000024600140000153290147062002638600000000042        
9999999900000007000000000000502500                                       
