00000000MARITIMO S.R.L.     20160919COBRANZAS RAPIPAGO                   
20160919000000000027300024600027300162678212022085105700027000021        
20160919000000000089000024600089000162631707043410992800000000015        
20160919000000000089000024600089000162631707062698309500000000057        
20160919000000000089000024600089000162651707072371979100000000057        
20160919000000000057700024600057700162688212223079916600053000036        
9999999900000005000000000000352000                                       
