00000000MARITIMO S.R.L.     20160119COBRANZAS RAPIPAGO                   
20160118000000000031500024600031500160218209064110634900000000078        
20160119000000000024200024600024200160218209042741690600000000084        
20160119000000000024200024600024200160218209042810208600000000036        
20160119000000000120000024600120000160255706053142739700000000063        
20160119000000000031500024600031500160218209073629450300000000037        
20160119000000000120000024600120000160255706072354691100000000090        
20160119000000000031500024600031500160218209073621845800000000036        
20160119000000000031500024600031500160218209162731505000000000063        
20160119000000000024200024600024200160218209053739891600000000015        
20160119000000000031500024600031500160218209092262650800000000057        
20160119000000000031500024600031500160218209073266140700000000099        
20160119000000000031500024600031500160218209073434412500000000037        
20160119000000000031500024600031500160218209092454858400000000063        
20160119000000000035000024600035000160202915163539384000000000084        
9999999900000014000000000000599600                                       
