00000000MARITIMO S.R.L.     20160719COBRANZAS RAPIPAGO                   
20160719000000000122000024600122000162080066663801927800000000099        
20160719000000000060000024600060000162089602019926975100000000021        
9999999900000002000000000000182000                                       
