00000000MARITIMO S.R.L.     20151019COBRANZAS RAPIPAGO                   
20151019000000000079000024600079000152940091243180566900000000079        
20151019000000000020000024600020000152985204143607556300020000042        
20151019000000000020000024600020000152995204033378193300020000037        
20151019000000000020000024600020000152995204109210377800020000016        
20151019000000000079000024600079000152940091201321815700000000042        
20151019000000000079000024600079000152940091073214941000000000015        
20151019000000000116000024600116000152960093062797853200000000021        
20151019000000000094500024600094500152957906053172405200000000016        
20151019000000000094500024600094500152967906043534542700000000000        
20151019000000000094500024600094500152967906014363304500000000021        
9999999900000010000000000000696500                                       
