00000000MARITIMO S.R.L.     20161119COBRANZAS RAPIPAGO                   
20161119000000000065000024600065000163292917041323886300100000063        
9999999900000001000000000000065000                                       
