00000000MARITIMO S.R.L.     20151219COBRANZAS RAPIPAGO                   
20151219000000000028400024600028400153568209073079982300031000042        
20151219000000000020000024600020000153572914212838941400000000000        
20151219000000000028400024600028400153608209092469985800031000063        
9999999900000003000000000000076800                                       
