00000000DERAMO FABIAN N.    20150619COBRANZAS RAPIPAGO                   
20150619000000000050000024600050000151770255243415324300000000058        
9999999900000001000000000000050000                                       
