00000000MARITIMO S.R.L.     20161220COBRANZAS RAPIPAGO                   
20161213000000000031500024600031500163548213062003233900063000090        
20161213000000000031500024600031500163548213161641592100063000016        
20161220000000000093000024600093000163618503422771105000000000078        
20161220000000000080000024600080000163621850112185186400200000037        
20161220000000000093000024600093000163628503442185186400000000084        
20161220000000000031500024600031500163628213042741660300063000090        
20161220000000000031500024600031500163608213161484477400063000042        
20161220000000000031500024600031500163558213062143888400063000036        
20161220000000000025200024600025200163558213022260603400042000042        
20161220000000000093000024600093000163628503461302248800000000084        
20161220000000000060000024600060000163601006221652227200100000090        
9999999900000011000000000000601700                                       
