00000000MARITIMO S.R.L.     20170120COBRANZAS RAPIPAGO                   
20170120000000000100000024600100000170251850042728743700200000099        
9999999900000001000000000000100000                                       
