00000000MARITIMO S.R.L.     20151120COBRANZAS RAPIPAGO                   
20151120000000000140000024600140000153240147162200740800000000084        
20151120000000000230000024600230000153278901042768867200000000042        
20151120000000000140000024600140000153310147171782174500000000079        
20151120000000000230000024600230000153278901033098836100000000015        
20151120000000000055000024600055000153291847081361509000000000079        
20151120000000000001000024600001000153270019192816738200001000463        
9999999900000006000000000000796000                                       
