00000000MARITIMO S.R.L.     20150820COBRANZAS RAPIPAGO                   
20150820000000000103000024600103000152390093081401025600090000015        
20150820000000000099500024600099500152379903033798175300000000057        
20150820000000000057000024600057000152390091382802220300150000078        
20150820000000000090000024600090000152390145023410183600000000063        
20150820000000000057000024600057000152370091433380569300150000078        
9999999900000005000000000000406500                                       
