00000000MARITIMO S.R.L.     20170320COBRANZAS RAPIPAGO                   
20170320000000000045000024600045000170819605023405132400000000057        
20170320000000000045000024600045000170819605023743368000000000099        
20170320000000000158000024600158000170790056569296908000000000090        
20170320000000000042000024600042000170867910040000000000070000015        
9999999900000004000000000000290000                                       
