00000000MARITIMO S.R.L.     20170420COBRANZAS RAPIPAGO                   
20170420000000000158000024600158000171200058581904431500000000015        
20170420000000000200000024600200000171200073733399386300000000021        
20170420000000000200000024600200000171200073733512696800000000090        
20170420000000000030000024600030000171152401052272485700050000078        
20170420000000000049000024600049000171118214143266866300000000099        
20170420000000000049000024600049000171118214032962328900000000058        
20170420000000000049000024600049000171118214042639372000000000084        
20170420000000000037000024600037000171118214282165408300000000090        
20170420000000000049000024600049000171118214081323395900000000015        
20170420000000000037000024600037000171118214362978525400000000016        
20170420000000000049000024600049000171118214062041536000000000036        
9999999900000011000000000000907000                                       
