00000000MARITIMO S.R.L.     20151020COBRANZAS RAPIPAGO                   
20151020000000000020000024600020000152962914113626150300000000063        
20151020000000000020000024600020000152962914131860734900000000079        
20151020000000000020000024600020000152962914132501604700000000099        
20151020000000000230000024600230000152938901061822592300000000016        
20151020000000000116000024600116000152990093062105908600000000084        
20151020000000000116000024600116000152990093162148408000000000015        
20151020000000000079000024600079000152940091262510215600000000042        
20151020000000000020000024600020000153005204152779564600020000078        
20151020000000000079000024600079000152940091092535170400000000058        
20151020000000000079000024600079000152940091162587186200000000000        
20151020000000000035700024600035700152958208073082710600000000000        
20151020000000000035700024600035700152948208073109471000000000099        
20151020000000000094500024600094500152967906053064884800000000084        
20151020000000000079000024600079000152940091052434156200000000037        
20151020000000000055000024600055000152949101114001885600100000578        
20151020000000000055000024600055000152949101192404119000100000500        
20151020000000000116000024600116000152990093123349931100000000099        
20151020000000000094500024600094500152967906053122556200000000063        
20151020000000000094500024600094500152967906062768967500000000000        
9999999900000019000000000001438900                                       
