00000000MARITIMO S.R.L.     20170221COBRANZAS RAPIPAGO                   
20170221000000000150000024600150000170525707202002638600000000084        
9999999900000001000000000000150000                                       
