00000000MARITIMO S.R.L.     20160921COBRANZAS RAPIPAGO                   
20160921000000000101000024600101000162687909053193634500155000036        
20160921000000000089000024600089000162721707072328999300000000099        
20160921000000000101000024600101000162657909043368484400155000078        
9999999900000003000000000000291000                                       
