00000000MARITIMO S.R.L.     20151021COBRANZAS RAPIPAGO                   
20151021000000000116000024600116000153010093033092013800000000016        
20151021000000000020000024600020000153012914132017417100000000084        
20151021000000000079000024600079000152940091272048514300000000000        
20151021000000000080000024600080000153018901242727888700000000000        
20151021000000000094500024600094500152967906072219435000000000099        
20151021000000000094500024600094500152967906082076553700000000015        
20151021000000000094500024600094500152967906081842008500000000016        
20151021000000000079000024600079000152940091423831997800000000084        
20151021000000000079000024600079000152940091252559448200000000058        
20151021000000000079000024600079000152940091233384904500000000084        
20151021000000000079000024600079000152940091153165898600000000079        
20151021000000000079000024600079000152940091433340270200000000084        
20151021000000000022000024600022000153008208053371111200000000063        
20151021000000000094500024600094500152967906082160833800000000036        
20151021000000000094500024600094500152967906152261930500000000058        
20151021000000000094500024600094500152967906072207564000000000084        
20151021000000000144700024600144700153019921013615448900000000015        
20151021000000000094500024600094500152967906082079615600000000042        
20151021000000000144700024600144700152969921013861893600000000000        
9999999900000019000000000001662900                                       
