00000000MARITIMO S.R.L.     20161021COBRANZAS RAPIPAGO                   
20161021000000000116500024600116500163027909033854987500000000000        
20161021000000000116500024600116500163007909091636032600000000036        
20161021000000000116500024600116500163017909062524348200000000063        
20161021000000000060000024600060000163025905172557720600000000090        
20161021000000000060000024600060000163025905152394364900000000016        
9999999900000005000000000000469500                                       
