00000000MARITIMO S.R.L.     20160321COBRANZAS RAPIPAGO                   
20160321000000000027300024600027300160858210052085105700027000037        
20160321000000000036500024600036500160847907141720862400055000000        
20160321000000000036000024600036000160829604083133612300000000016        
20160321000000000036000024600036000160829604064151171200000000037        
20160321000000000036000024600036000160829604023612008700000000078        
20160321000000000036500024600036500160887907052713074400055000084        
20160321000000000036000024600036000160829604033081502400000000016        
20160321000000000036000024600036000160829604033093722300000000016        
9999999900000008000000000000280300                                       
