00000000MARITIMO S.R.L.     20151121COBRANZAS RAPIPAGO                   
20151121000000000020000024600020000153322915122723531300000000078        
20151121000000000230000024600230000153298901052347287200000000000        
20151121000000000020000024600020000153252914221786141100000000021        
20151121000000000020000024600020000153252914214642160600000000000        
9999999900000004000000000000290000                                       
