00000000MARITIMO S.R.L.     20170321COBRANZAS RAPIPAGO                   
20170321000000000046000024600046000170868214071626184000030000021        
20170321000000000045000024600045000170819605073687135200000000036        
20170321000000000045000024600045000170819605023898743500000000037        
20170321000000000045000024600045000170819605033135938300000000036        
20170321000000000045000024600045000170819605064337897900000000057        
20170321000000000045000024600045000170819605020000000000000000042        
20170321000000000120000024600120000170801850092802969900000000000        
9999999900000007000000000000391000                                       
