00000000MARITIMO S.R.L.     20170421COBRANZAS RAPIPAGO                   
20170421000000000037000024600037000171118214372872868700000000057        
20170421000000000049000024600049000171118214042872942100000000063        
20170421000000000049000024600049000171118214091044294600000000036        
20170421000000000049000024600049000171118214033182138400000000015        
20170421000000000037000024600037000171118214253129912700000000021        
20170421000000000037000024600037000171118214372801604200000000090        
9999999900000006000000000000258000                                       
