00000000MARITIMO S.R.L.     20160922COBRANZAS RAPIPAGO                   
20160922000000000089000024600089000162721707072515719900000000015        
20160922000000000035000024600035000162662917123065485200100000063        
9999999900000002000000000000124000                                       
