00000000MARITIMO S.R.L.     20160122COBRANZAS RAPIPAGO                   
20160122000000000120000024600120000160255706072483545400000000037        
20160122000000000120000024600120000160255706072210960000000000021        
20160122000000000120000024600120000160255706062539788500000000057        
20160122000000000025000024600025000160262915221433512900000000016        
20160122000000000035000024600035000160282915132181007000000000000        
20160122000000000120000024600120000160255706062605043300000000000        
20160122000000000010000024600010000160270900031439346600000000000        
20160122000000000010000024600010000160280900031442538600000000042        
20160122000000000035000024600035000160282915132320014100000000000        
9999999900000009000000000000595000                                       
