00000000MARITIMO S.R.L.     20160322COBRANZAS RAPIPAGO                   
20160322000000000036000024600036000160829604041850081100000000058        
20160322000000000049000024600049000160849604114539652600000000037        
20160322000000000030000024600030000160848801013261006700000000000        
20160322000000000030000024600030000160848801012040903800000000021        
20160322000000000036000024600036000160829604082607381000000000084        
9999999900000005000000000000181000                                       
