00000000MARITIMO S.R.L.     20160422COBRANZAS RAPIPAGO                   
20160422000000000030000024600030000161199925012772751500000000079        
20160422000000000044100024600044100161138210092364197400042000042        
20160422000000000030000024600030000161199925013789651200000000099        
20160422000000000044100024600044100161198210072986695500042000084        
9999999900000004000000000000148200                                       
