00000000MARITIMO S.R.L.     20170522COBRANZAS RAPIPAGO                   
20170522000000000045000024600045000171498808013207815400060000057        
20170522000000000158000024600158000171490058582943828500000000058        
20170522000000000117000024600117000171480088883727328000000000099        
20170522000000000117000024600117000171460092923853589400000000079        
20170522000000000117000024600117000171460092924147569100000000016        
9999999900000005000000000000554000                                       
