00000000MARITIMO S.R.L.     20160222COBRANZAS RAPIPAGO                   
20160222000000000097000024600097000160600027273882931700070000058        
9999999900000001000000000000097000                                       
