00000000MARITIMO S.R.L.     20161122COBRANZAS RAPIPAGO                   
20161122000000000048000024600048000163281001121088059300100000284        
20161122000000000265000024600265000163330071713721781800000000099        
20161122000000000065000024600065000163292917041347756200100000090        
20161122000000000048000024600048000163281001033572639900100000299        
20161122000000000065000024600065000163332917072602242700100000063        
20161122000000000048000024600048000163281001153117677700100000042        
20161122000000000145000024600145000163330052523640389700000000084        
20161122000000000158000024600158000163350053533448242200000000079        
9999999900000008000000000000842000                                       
