00000000MARITIMO S.R.L.     20161022COBRANZAS RAPIPAGO                   
20161022000000000025000024600025000163031004013113848700000000090        
20161022000000000116500024600116500163027909072540665000000000063        
9999999900000002000000000000141500                                       
