00000000MARITIMO S.R.L.     20170322COBRANZAS RAPIPAGO                   
20170322000000000045000024600045000170819605014160417400000000084        
20170322000000000034000024600034000170888214253042125700030000021        
20170322000000000045000024600045000170819605083186098200000000084        
20170322000000000140000024600140000170880059593721781800095000078        
20170322000000000034000024600034000170878214282086250100030000021        
20170322000000000046000024600046000170818214052309345900030000021        
20170322000000000045000024600045000170819605033062338600000000021        
20170322000000000045000024600045000170819605121358087400000000063        
20170322000000000045000024600045000170819605092360777300000000057        
20170322000000000045000024600045000170819605023657605400000000057        
20170322000000000045000024600045000170819605033318177600000000021        
20170322000000000034000024600034000170878214234107830100030000037        
20170322000000000045000024600045000170819605064323743500000000016        
9999999900000013000000000000648000                                       
