00000000MARITIMO S.R.L.     20151222COBRANZAS RAPIPAGO                   
20151222000000000028400024600028400153628209172228638500031000084        
20151222000000000055000024600055000153631848042746083000340000042        
20151222000000000028400024600028400153638209082817449100031000058        
20151222000000000020000024600020000153632914132167353400000000063        
20151222000000000020000024600020000153582915113609467100000000037        
20151222000000000020000024600020000153592914141602517000000000057        
20151222000000000020000024600020000153592914191643775300000000042        
20151222000000000020000024600020000153582914172702421300000000058        
20151222000000000020000024600020000153602914132263950600000000099        
20151222000000000120000024600120000153565706062696587500000000037        
20151222000000000020000024600020000153622914123100003700000000015        
20151222000000000020000024600020000153572914181813580600000000057        
20151222000000000020000024600020000153572914211836347600000000057        
20151222000000000020000024600020000153622915122781539500000000084        
20151222000000000020000024600020000153592914132223143300000000042        
9999999900000015000000000000451800                                       
