00000000MARITIMO S.R.L.     20150822COBRANZAS RAPIPAGO                   
20150822000000000057000024600057000152350091143297025500150000042        
9999999900000001000000000000057000                                       
