00000000MARITIMO S.R.L.     20160622COBRANZAS RAPIPAGO                   
20160622000000000034500024600034500161818803014093099600045000084        
20160622000000000060000024600060000161819601024093099600000000058        
20160622000000000130000024600130000161810046461904431500000000036        
20160622000000000085000024600085000161767908050463614400000000090        
20160622000000000034500024600034500161808803014156603300045000037        
20160622000000000085000024600085000161767908032059303000000000000        
20160622000000000109500024600109500161800028281676493200000000042        
20160622000000000085000024600085000161767908082394362300000000036        
20160622000000000085000024600085000161767908031821403600000000078        
20160622000000000044000024600044000161809700080111111200000000042        
9999999900000010000000000000752500                                       
