00000000MARITIMO S.R.L.     20160822COBRANZAS RAPIPAGO                   
20160822000000000101000024600101000162407909120858995000155000084        
20160822000000000101000024600101000162427909111092962000135000000        
20160822000000000078000024600078000162421707062658007900110000000        
20160822000000000128000024600128000162420064643737688500000000042        
9999999900000004000000000000408000                                       
