00000000MARITIMO S.R.L.     20150723COBRANZAS RAPIPAGO                   
20150723000000000035700024600035700152068207111425608400000000042        
20150723000000000035700024600035700152068207172904750800000000037        
20150723000000000090000024600090000152100145052429837400000000000        
20150723000000000090000024600090000152080145262324867900000000078        
9999999900000004000000000000251400                                       
