00000000MARITIMO S.R.L.     20161223COBRANZAS RAPIPAGO                   
20161223000000000075000024600075000163642917032201141900000000036        
20161223000000000031500024600031500163648213052453950100063000057        
20161223000000000031500024600031500163648213132726141300063000021        
20161223000000000093000024600093000163608503471112016500000000036        
20161223000000000052500024600052500163658304143450170400075000079        
20161223000000000060000024600060000163611006182768862400100000084        
9999999900000006000000000000343500                                       
