00000000MARITIMO S.R.L.     20160523COBRANZAS RAPIPAGO                   
20160523000000000060000024600060000161490258062185186400150000079        
20160523000000000034500024600034500161498803013004839100045000042        
20160523000000000034500024600034500161518803014278184200045000079        
20160523000000000060000024600060000161519601024278184200000000057        
9999999900000004000000000000189000                                       
