00000000MARITIMO S.R.L.     20160423COBRANZAS RAPIPAGO                   
20160423000000000130000024600130000161210046463560798200000000000        
20160423000000000044100024600044100161218210230808176800042000036        
9999999900000002000000000000174100                                       
