00000000MARITIMO S.R.L.     20170523COBRANZAS RAPIPAGO                   
20170523000000000070000024600070000171502401303004071700000000063        
20170523000000000117000024600117000171500088884023960800000000058        
20170523000000000035000024600035000171492401152839546700000000021        
20170523000000000096500024600096500171487911031838751300110000000        
9999999900000004000000000000318500                                       
