00000000MARITIMO S.R.L.     20161123COBRANZAS RAPIPAGO                   
20161123000000000048000024600048000163281001152636777000100000263        
20161123000000000048000024600048000163281001211123083900100000290        
9999999900000002000000000000096000                                       
