00000000MARITIMO S.R.L.     20160823COBRANZAS RAPIPAGO                   
20160823000000000130000024600130000162438903252462432200200000042        
20160823000000000128000024600128000162370064644024212000000000090        
20160823000000000101000024600101000162417909062700852100155000021        
20160823000000000128000024600128000162410064643640389700000000058        
20160823000000000101000024600101000162437909053007484600155000037        
9999999900000005000000000000588000                                       
