00000000MARITIMO S.R.L.     20150923COBRANZAS RAPIPAGO                   
20150923000000000060000024600060000152681706091664919300000000042        
20150923000000000090000024600090000152670145013879964000000000000        
20150923000000000060000024600060000152681706091654741400000000090        
20150923000000000079500024600079500152737906053007484600150000078        
20150923000000000079500024600079500152667906142557720600150000000        
20150923000000000079500024600079500152667906072394364900150000036        
20150923000000000090000024600090000152670145071742925200000000000        
9999999900000007000000000000538500                                       
