00000000MARITIMO S.R.L.     20160923COBRANZAS RAPIPAGO                   
20160923000000000101000024600101000162737909072253275900155000090        
20160923000000000130000024600130000162698903262005047400200000484        
20160923000000000145000024600145000162740051512943828500000000084        
20160923000000000094500024600094500162740069692943828500000000079        
9999999900000004000000000000470500                                       
