00000000MARITIMO S.R.L.     20160223COBRANZAS RAPIPAGO                   
20160223000000000045000024600045000160554609123858755900100000484        
20160223000000000045000024600045000160554609272344712700100000178        
9999999900000002000000000000090000                                       
