00000000MARITIMO S.R.L.     20161224COBRANZAS RAPIPAGO                   
20161224000000000031500024600031500163598213123050680800063000063        
20161224000000000075000024600075000163652917069546154700000000058        
9999999900000002000000000000106500                                       
