00000000MARITIMO S.R.L.     20150724COBRANZAS RAPIPAGO                   
20150724000000000090000024600090000152080145143102185300000000037        
20150724000000000090000024600090000152080145033071122400000000042        
9999999900000002000000000000180000                                       
