00000000MARITIMO S.R.L.     20161024COBRANZAS RAPIPAGO                   
20161024000000000116500024600116500163027909082004663200000000021        
20161024000000000094500024600094500162980070709296908000000000042        
20161024000000000094500024600094500162980070703827732000000000000        
20161024000000000290000024600290000163058903071676716000000000037        
20161024000000000055000024600055000163042917032519076900100000099        
20161024000000000116500024600116500163027909082092818500000000000        
20161024000000000050000024600050000163019102081698906200100000036        
20161024000000000094500024600094500163050069692191847800000000016        
9999999900000008000000000000911500                                       
