00000000MARITIMO S.R.L.     20160924COBRANZAS RAPIPAGO                   
20160924000000000101000024600101000162747909014363304500155000021        
20160924000000000101000024600101000162747909081824178000155000063        
9999999900000002000000000000202000                                       
