00000000MARITIMO S.R.L.     20161124COBRANZAS RAPIPAGO                   
20161124000000000058000024600058000163301001182367235700000000099        
20161124000000000065000024600065000163342917023023252200100000021        
20161124000000000058000024600058000163301001152760618300000000016        
9999999900000003000000000000181000                                       
