00000000MARITIMO S.R.L.     20170124COBRANZAS RAPIPAGO                   
20170124000000000150000024600150000170245707082019998200000000000        
9999999900000001000000000000150000                                       
