00000000MARITIMO S.R.L.     20160524COBRANZAS RAPIPAGO                   
20160524000000000060000024600060000161480258071624206900150000036        
20160524000000000034500024600034500161458803011358087400045000099        
20160524000000000074500024600074500161457908041782174500105000000        
20160524000000000020000024600020000161517603043070269300100000058        
9999999900000004000000000000189000                                       
