00000000MARITIMO S.R.L.     20151124COBRANZAS RAPIPAGO                   
20151124000000000080000024600080000153298901332850174600000000063        
20151124000000000020000024600020000153352914141413384000000000057        
20151124000000000080000024600080000153298901423597247700000000063        
20151124000000000099500024600099500153349919031676493200000000099        
20151124000000000080000024600080000153298901242714691400000000042        
20151124000000000144700024600144700153359921023991705800000000036        
9999999900000006000000000000504200                                       
