00000000MARITIMO S.R.L.     20170224COBRANZAS RAPIPAGO                   
20170224000000000158000024600158000170590056563737688500000000058        
9999999900000001000000000000158000                                       
