00000000MARITIMO S.R.L.     20151224COBRANZAS RAPIPAGO                   
20151224000000000028400024600028400153608209162590699200031000016        
20151224000000000028400024600028400153608209082536004300031000042        
20151224000000000028400024600028400153608209064214453800031000021        
20151224000000000020000024600020000153632914122574430800000000063        
20151224000000000055000024600055000153591848042794143600340000000        
9999999900000005000000000000160200                                       
