00000000MARITIMO S.R.L.     20170524COBRANZAS RAPIPAGO                   
20170524000000000045000024600045000171488808013117352700060000015        
20170524000000000117000024600117000171460092923962381100000000042        
9999999900000002000000000000162000                                       
