00000000MARITIMO S.R.L.     20150925COBRANZAS RAPIPAGO                   
20150925000000000060000024600060000152681706062723528300000000057        
20150925000000000060000024600060000152681706052936999600000000057        
20150925000000000060000024600060000152681706081797411200000000063        
20150925000000000055000024600055000152731846052299140500100000016        
20150925000000000079500024600079500152717906052967953800150000016        
20150925000000000060000024600060000152681706164289201400000000079        
20150925000000000060000024600060000152681706072436836500000000000        
20150925000000000060000024600060000152681706072264747900000000036        
20150925000000000060000024600060000152681706024216193500000000000        
9999999900000009000000000000554500                                       
