00000000MARITIMO S.R.L.     20160125COBRANZAS RAPIPAGO                   
20160125000000000010000024600010000160270900032272344500000000084        
20160125000000000010000024600010000160260900034192823700000000015        
20160125000000000035000024600035000160262915182116124200000000099        
20160125000000000089000024600089000160261848081302248800100000021        
20160125000000000120000024600120000160255706163468210600000000099        
20160125000000000025000024600025000160322915222488342200000000090        
20160125000000000120000024600120000160255706211488796100000000042        
20160125000000000120000024600120000160255706101294923900000000037        
9999999900000008000000000000529000                                       
