00000000MARITIMO S.R.L.     20151125COBRANZAS RAPIPAGO                   
20151125000000000080000024600080000153298901242526527700000000036        
20151125000000000230000024600230000153298901042530736700000000042        
20151125000000000065000024600065000153319101071840164400000000021        
20151125000000000065000024600065000153319101102696453600000000021        
20151125000000000065000024600065000153319101102918323600000000021        
20151125000000000020000024600020000153357104032393708300000000079        
20151125000000000144700024600144700153369921024000957200000000021        
20151125000000000080000024600080000153298901419418553900000000042        
20151125000000000055000024600055000153291847171653285400000000036        
20151125000000000080000024600080000153298901252420582900000000000        
20151125000000000230000024600230000153298901042560600200000000000        
20151125000000000230000024600230000153298901071633598700000000036        
20151125000000000020000024600020000153302914182261692600000000063        
9999999900000013000000000001364700                                       
