00000000MARITIMO S.R.L.     20150825COBRANZAS RAPIPAGO                   
20150825000000000080000024600080000152378901291065975100000000037        
20150825000000000057000024600057000152420091271766513700150000100        
9999999900000002000000000000137000                                       
