00000000MARITIMO S.R.L.     20150725COBRANZAS RAPIPAGO                   
20150725000000000022000024600022000152098207043050854400000000000        
20150725000000000090000024600090000152130145052408034000000000058        
20150725000000000090000024600090000152130145152625538400000000057        
9999999900000003000000000000202000                                       
