00000000MARITIMO S.R.L.     20161025COBRANZAS RAPIPAGO                   
20161025000000000116500024600116500163027909072386383900000000063        
20161025000000000116500024600116500163027909053035825300000000000        
20161025000000000058000024600058000163045905033065092800000000021        
20161025000000000058000024600058000163045905042222962500000000078        
20161025000000000116500024600116500163027909082003601200000000000        
20161025000000000116500024600116500163027909101410102000000000099        
20161025000000000094500024600094500163060070703299672600000000000        
20161025000000000022000024600022000163021003073062049200030000015        
20161025000000000094500024600094500163060070702191847800000000084        
20161025000000000116500024600116500163027909062620914000000000021        
9999999900000010000000000000909500                                       
