00000000MARITIMO S.R.L.     20161125COBRANZAS RAPIPAGO                   
20161125000000000025000024600025000163336001182450036500000000015        
20161125000000000035000024600035000163336001032067221300000000016        
20161125000000000265000024600265000163350071713842500200000000084        
20161125000000000093000024600093000163368503442090852800000000058        
20161125000000000265000024600265000163350071713760737800000000084        
20161125000000000065000024600065000163342917072684664200100000016        
20161125000000000065000024600065000163342917032483804800100000057        
9999999900000007000000000000813000                                       
