00000000MARITIMO S.R.L.     20160126COBRANZAS RAPIPAGO                   
20160126000000000020000024600020000160290900053317728400000000058        
20160126000000000020000024600020000160300900051610261400000000079        
20160126000000000035000024600035000160322915132001670100000000057        
20160126000000000020000024600020000160270900052113249000000000078        
20160126000000000020000024600020000160270900053882915300000000021        
20160126000000000020000024600020000160270900053844122200000000015        
20160126000000000003000024600003000160320900014601273200000000078        
20160126000000000003000024600003000160330900010627540800000000036        
20160126000000000010000024600010000160320900032519463300000000078        
20160126000000000010000024600010000160320900034764611900000000042        
20160126000000000003000024600003000160330900012104028700000000000        
20160126000000000005000024600005000160290900020597648600000000042        
20160126000000000010000024600010000160330900034627744600000000000        
9999999900000013000000000000179000                                       
