00000000MARITIMO S.R.L.     20151026COBRANZAS RAPIPAGO                   
20151026000000000116000024600116000153010093081220226700000000042        
20151026000000000020000024600020000152995204192077139500020000079        
20151026000000000140000024600140000153030147152406132400000000058        
20151026000000000022000024600022000152998208052718803900000000090        
20151026000000000022000024600022000152998208052312468300000000021        
20151026000000000022000024600022000152998208051711028400000000042        
20151026000000000140000024600140000153030147181374423100000000000        
20151026000000000035700024600035700153018208082806584200000000078        
20151026000000000035700024600035700153018208131097785600000000015        
20151026000000000020000024600020000153045204042995855800020007036        
9999999900000010000000000000573400                                       
