00000000MARITIMO S.R.L.     20160426COBRANZAS RAPIPAGO                   
20160426000000000044100024600044100161188210230550279100042000058        
9999999900000001000000000000044100                                       
