00000000MARITIMO S.R.L.     20160826COBRANZAS RAPIPAGO                   
20160826000000000101000024600101000162467909072553777900155000063        
20160826000000000130000024600130000162440047472191847800000000000        
20160826000000000128000024600128000162440064643752179700000000084        
20160826000000000101000024600101000162467909072291674400155000037        
20160826000000000101000024600101000162457909082031528000155000037        
9999999900000005000000000000561000                                       
