00000000MARITIMO S.R.L.     20150826COBRANZAS RAPIPAGO                   
20150826000000000057000024600057000152420091460438638000150000163        
20150826000000000090000024600090000152430145033123743400000000099        
20150826000000000012000024600012000152400500182208804500020000099        
20150826000000000012000024600012000152400500174247035600020000063        
20150826000000000012000024600012000152400500173798938500020000099        
20150826000000000090000024600090000152400145042503986300000000063        
20150826000000000079500024600079500152447906062490790500150000000        
20150826000000000060000024600060000152397602052556960200000000058        
20150826000000000050000024600050000152440145302208666200000000021        
9999999900000009000000000000462500                                       
