00000000MARITIMO S.R.L.     20170126COBRANZAS RAPIPAGO                   
20170126000000000100000024600100000170311850033255462500200007136        
9999999900000001000000000000100000                                       
