00000000MARITIMO S.R.L.     20151126COBRANZAS RAPIPAGO                   
20151126000000000070000024600070000153348502432438381800000000015        
20151126000000000020000024600020000153357104022901704800000000000        
20151126000000000120000024600120000153345706062637222200000000084        
20151126000000000120000024600120000153345706072462432200000000058        
20151126000000000065000024600065000153319101071842008500000000057        
20151126000000000065000024600065000153319101042979421900000000000        
20151126000000000065000024600065000153319101042949040900000000099        
9999999900000007000000000000525000                                       
