00000000MARITIMO S.R.L.     20160227COBRANZAS RAPIPAGO                   
20160227000000000040000024600040000160622800024210405000000000058        
20160227000000000040000024600040000160592800053822178300200007357        
20160227000000000040000024600040000160592800053380906800200007321        
20160227000000000040000024600040000160622800021486196500000000037        
9999999900000004000000000000160000                                       
