00000000MARITIMO S.R.L.     20170327COBRANZAS RAPIPAGO                   
20170327000000000046000024600046000170908214052519022900030000084        
20170327000000000034000024600034000170868214243327368400030000058        
20170327000000000120000024600120000170861850052525641500000000036        
20170327000000000046000024600046000170898214061834974000030000021        
20170327000000000046000024600046000170908214071692006800030007000        
20170327000000000034000024600034000170908214392116412100030000042        
20170327000000000034000024600034000170908214281840949000030000063        
20170327000000000042000024600042000170897910072022637900070000042        
20170327000000000120000024600120000170861850121703455900000000084        
20170327000000000120000024600120000170881850052284073500000000000        
20170327000000000120000024600120000170901850121795179000000000057        
9999999900000011000000000000762000                                       
