00000000MARITIMO S.R.L.     20160527COBRANZAS RAPIPAGO                   
20160527000000000034500024600034500161528803013178975200045000099        
20160527000000000045000024600045000161520258233899896900150007236        
20160527000000000034500024600034500161548803013733418800045000016        
20160527000000000034500024600034500161558803013643338200045000037        
20160527000000000034500024600034500161558803013744772000045000084        
20160527000000000060000024600060000161480258032972638300150000084        
9999999900000006000000000000243000                                       
