00000000MARITIMO S.R.L.     20170127COBRANZAS RAPIPAGO                   
20170127000000000100000024600100000170311850112005047400200007116        
20170127000000000150000024600150000170275707192407526100000000084        
20170127000000000150000024600150000170275707101440184800000000084        
9999999900000003000000000000400000                                       
