00000000MARITIMO S.R.L.     20161027COBRANZAS RAPIPAGO                   
20161027000000000116500024600116500163027909081797411200000000099        
20161027000000000116500024600116500163027909062711975600000000015        
20161027000000000070000024600070000163051002072047087400100007236        
20161027000000000070000024600070000163051002063219916000100000079        
20161027000000000116500024600116500163027909120885019600000000084        
20161027000000000116500024600116500163027909072426970000000000016        
20161027000000000055000024600055000163072917082029812500100000099        
20161027000000000094500024600094500163080070703703565800000000042        
20161027000000000116500024600116500163027909053119593900000000042        
20161027000000000055000024600055000163012917041680028200100000000        
20161027000000000116500024600116500163027909043270315500000000036        
20161027000000000116500024600116500163027909053188676100000000016        
20161027000000000116500024600116500163027909083251888700000000015        
20161027000000000116500024600116500163027909082116971500000000036        
20161027000000000050000024600050000163079102081653597500100000078        
20161027000000000116500024600116500163027909072346996700000000058        
20161027000000000128000024600128000163080065652191847800000000058        
9999999900000017000000000001687500                                       
