00000000MARITIMO S.R.L.     20160127COBRANZAS RAPIPAGO                   
20160127000000000089000024600089000160311848071440393200100000090        
20160127000000000089000024600089000160311848071765911200100007084        
20160127000000000003000024600003000160320900014223128300000000015        
20160127000000000003000024600003000160320900012288511800000000078        
9999999900000004000000000000184000                                       
