00000000MARITIMO S.R.L.     20160727COBRANZAS RAPIPAGO                   
20160727000000000128000024600128000162100063633819946200000000063        
9999999900000001000000000000128000                                       
