00000000MARITIMO S.R.L.     20150827COBRANZAS RAPIPAGO                   
20150827000000000012000024600012000152390500032884058500020000016        
20150827000000000079500024600079500152457906072235551900150000084        
20150827000000000079500024600079500152457906120463614400150000063        
20150827000000000090000024600090000152400145062100000100000000042        
20150827000000000230000024600230000152428901061848456100000000078        
20150827000000000057000024600057000152420091390567148400150007300        
20150827000000000050000024600050000152400145402483562100000000021        
20150827000000000090000024600090000152460145152753584400000000090        
9999999900000008000000000000688000                                       
