00000000MARITIMO S.R.L.     20170328COBRANZAS RAPIPAGO                   
20170328000000000158000024600158000170900057573701312600000000084        
20170328000000000158000024600158000170900057573737688500000000063        
20170328000000000046000024600046000170898214042646874700030000021        
20170328000000000100000024600100000170911850271788551200000000000        
20170328000000000034000024600034000170908214272314612400030007200        
9999999900000005000000000000496000                                       
