00000000MARITIMO S.R.L.     20160328COBRANZAS RAPIPAGO                   
20160328000000000036500024600036500160897907062496989200055000000        
9999999900000001000000000000036500                                       
