00000000MARITIMO S.R.L.     20160128COBRANZAS RAPIPAGO                   
20160128000000000020000024600020000160350900052639120000000000063        
20160128000000000020000024600020000160350900052347873400000000000        
20160128000000000020000024600020000160350900054385556000000000037        
20160128000000000120000024600120000160295706091876180300000000015        
20160128000000000025000024600025000160322915212177648600000000099        
20160128000000000089000024600089000160281848013894778300100000000        
20160128000000000020000024600020000160350900052690141500000000058        
20160128000000000020000024600020000160350900052003069200000000021        
20160128000000000020000024600020000160280900051474879200000000021        
9999999900000009000000000000354000                                       
