00000000DERAMO FABIAN N.    20150328COBRANZAS RAPIPAGO                   
20150328000000000055000024600055000150890254023389638400100007215        
9999999900000001000000000000055000                                       
