00000000MARITIMO S.R.L.     20160728COBRANZAS RAPIPAGO                   
20160728000000000044100024600044100162108211132556459400042000021        
20160728000000000045000024600045000162115904033092855600000000042        
20160728000000000044100024600044100162168211033494209100042000015        
20160728000000000122000024600122000162150066663373354800000000000        
20160728000000000057700024600057700162178211231813997400053000063        
20160728000000000010000024600010000162127603502327747400050007390        
20160728000000000020000024600020000162127603062346966800100007215        
9999999900000007000000000000342900                                       
