00000000MARITIMO S.R.L.     20150928COBRANZAS RAPIPAGO                   
20150928000000000079500024600079500152757906062590227200150000179        
20150928000000000030000024600030000152780256261727167400100000079        
20150928000000000230000024600230000152758901023198271100000000084        
20150928000000000079500024600079500152757906053086173300150000321        
9999999900000004000000000000419000                                       
