00000000MARITIMO S.R.L.     20151228COBRANZAS RAPIPAGO                   
20151228000000000020000024600020000153632914222226646300000000090        
20151228000000000055000024600055000153651848081361274500340008863        
20151228000000000055000024600055000153651848042567596800340008842        
20151228000000000020000024600020000153642914163314697000000000000        
20151228000000000020000024600020000153642914113376687100000000000        
20151228000000000020000024600020000153642914172780629100000000021        
20151228000000000028400024600028400160038209082741660300031000142        
20151228000000000020000024600020000153642914223898050800000000078        
20151228000000000020000024600020000153642914214342764700000000058        
20151228000000000020000024600020000153632914212469532800000000084        
20151228000000000020000024600020000153642914123018411300000000021        
20151228000000000020000024600020000153642914132467440000000000099        
20151228000000000028400024600028400153648209082519389100031000063        
20151228000000000055000024600055000153631848042692736400340000037        
20151228000000000020000024600020000153642914214256847800000000042        
20151228000000000020000024600020000153642914222232375800000000090        
20151228000000000020000024600020000153642914211833650300000000042        
9999999900000017000000000000461800                                       
