00000000MARITIMO S.R.L.     20160228COBRANZAS RAPIPAGO                   
20160228000000000040000024600040000160592800042492955400200007721        
9999999900000001000000000000040000                                       
