00000000MARITIMO S.R.L.     20170428COBRANZAS RAPIPAGO                   
20170428000000000200000024600200000171200073733946687100000000016        
9999999900000001000000000000200000                                       
