00000000MARITIMO S.R.L.     20151028COBRANZAS RAPIPAGO                   
20151028000000000116000024600116000153010093033185550300000000000        
20151028000000000079000024600079000153010091262432564500000000042        
20151028000000000116000024600116000153010093052422795100000000063        
20151028000000000079000024600079000153010091262422795100000000057        
20151028000000000092000024600092000153010093281311755000000000021        
20151028000000000022000024600022000153028208041488414700000000078        
20151028000000000020000024600020000153062915172729536300000000090        
20151028000000000092000024600092000153010093272117387400000000016        
20151028000000000079000024600079000153010091442229547900000000057        
20151028000000000116000024600116000153010093081319520100000000063        
20151028000000000116000024600116000153010093091125904300000000078        
20151028000000000116000024600116000153010093152461816900000000000        
20151028000000000020000024600020000153072914141710947600000000021        
20151028000000000020000024600020000153072914201327525400000000037        
20151028000000000079000024600079000153010091451422590300000000021        
20151028000000000092000024600092000153010093271422590300000000099        
20151028000000000116000024600116000153010093142748083800000000021        
20151028000000000022000024600022000153028208053298840300000000000        
20151028000000000140000024600140000153010147042741740000000000021        
20151028000000000047200024600047200153028208012519389100000000021        
20151028000000000230000024600230000153078901023489030500000000037        
20151028000000000116000024600116000153010093033163966500000000057        
20151028000000000230000024600230000153068901033163966500000000042        
20151028000000000039500024600039500153010091291184867000000000037        
9999999900000024000000000002194700                                       
