00000000MARITIMO S.R.L.     20160628COBRANZAS RAPIPAGO                   
20160628000000000060000024600060000161839601024149148800000000015        
20160628000000000034500024600034500161858803014203111900045000042        
20160628000000000060000024600060000161839601024203111900000000036        
20160628000000000034500024600034500161868803014149148800045000078        
20160628000000000122000024600122000161820066663828169100000000037        
20160628000000000034500024600034500161878803014032103800045000021        
20160628000000000060000024600060000161849203051122138000000000063        
9999999900000007000000000000405500                                       
