00000000MARITIMO S.R.L.     20150728COBRANZAS RAPIPAGO                   
20150728000000000035700024600035700152118207073106679100000000078        
20150728000000000090000024600090000152150145062581182500000000016        
20150728000000000035700024600035700152098207092496951400000000057        
20150728000000000047200024600047200152098207024185438500000000084        
9999999900000004000000000000208600                                       
