00000000MARITIMO S.R.L.     20161028COBRANZAS RAPIPAGO                   
20161028000000000116500024600116500163027909024042025200000000090        
20161028000000000116500024600116500163027909043728529800000000036        
20161028000000000116500024600116500163027909062849979600000000063        
20161028000000000116500024600116500163027909152487638400000000036        
20161028000000000116500024600116500163027909062777889000000000078        
20161028000000000116500024600116500163027909082204917600000000058        
20161028000000000116500024600116500163027909062788494000000000042        
20161028000000000116500024600116500163027909014410448800000000084        
20161028000000000020000024600020000163096001211011732100050000057        
20161028000000000048000024600048000163051001162948023800100007363        
20161028000000000094500024600094500163090070703523592800000000021        
20161028000000000116500024600116500163027909072415927100000000084        
20161028000000000116500024600116500163027909120497088500000000042        
20161028000000000116500024600116500163027909072452319700000000099        
20161028000000000150000024600150000163038903252259827900000000084        
9999999900000015000000000001594000                                       
