00000000MARITIMO S.R.L.     20160629COBRANZAS RAPIPAGO                   
20160629000000000122000024600122000161820066663033072100000000078        
20160629000000000044000024600044000161819700081111111500000000090        
9999999900000002000000000000166000                                       
