00000000MARITIMO S.R.L.     20150729COBRANZAS RAPIPAGO                   
20150729000000000022000024600022000152118207052193155900000000042        
20150729000000000022000024600022000152118207043082710600000000057        
20150729000000000022000024600022000152118207043109471000000000084        
20150729000000000022000024600022000152118207052820455300000000037        
20150729000000000047200024600047200152118207033495548700000000036        
20150729000000000047200024600047200152118207033638267400000000000        
20150729000000000047200024600047200152118207023638766100000000063        
20150729000000000035700024600035700152118207082515230400000000057        
20150729000000000047200024600047200152118207023693639200000000021        
20150729000000000035700024600035700152118207102046364000000000042        
20150729000000000099500024600099500152109903033965644300000000063        
20150729000000000003000024600003000152130021213679159100000000015        
20150729000000000022000024600022000152118207042272350100000000000        
9999999900000013000000000000472700                                       
