00000000MARITIMO S.R.L.     20161129COBRANZAS RAPIPAGO                   
20161129000000000265000024600265000163400072723721781800000000063        
20161129000000000025000024600025000163390304122893004200000000021        
20161129000000000265000024600265000163350071713209388700000000063        
20161129000000000265000024600265000163350071713640389700000000090        
9999999900000004000000000000820000                                       
