00000000MARITIMO S.R.L.     20161029COBRANZAS RAPIPAGO                   
20161029000000000055000024600055000163032917082419799800100000084        
20161029000000000058000024600058000163045905042531472800000000042        
9999999900000002000000000000113000                                       
