00000000MARITIMO S.R.L.     20160129COBRANZAS RAPIPAGO                   
20160129000000000003000024600003000160350900014385483300000000036        
20160129000000000003000024600003000160350900014990012600000000090        
20160129000000000010000024600010000160350900032710582800000000000        
20160129000000000010000024600010000160350900032949531500000000057        
20160129000000000020000024600020000160350900052416007000000000042        
20160129000000000120000024600120000160295706072356831900000000021        
20160129000000000010000024600010000160350900032893004200000000099        
20160129000000000035000024600035000160352915122547664400000000084        
20160129000000000035000024600035000160362915131850474800000000078        
20160129000000000003000024600003000160350900013533294400000000079        
20160129000000000003000024600003000160350900013533294500000000000        
20160129000000000020000024600020000160350900052040030500000000016        
9999999900000012000000000000272000                                       
