00000000MARITIMO S.R.L.     20160330COBRANZAS RAPIPAGO                   
20160330000000000036500024600036500160927907033526664100055000336        
20160330000000000029000024600029000160977907162210698500000000021        
9999999900000002000000000000065500                                       
