00000000MARITIMO S.R.L.     20160630COBRANZAS RAPIPAGO                   
20160630000000000130000024600130000161820047471904431500000000042        
20160630000000000060000024600060000161839601024156603300000000042        
20160630000000000128000024600128000161820063633830544200000000015        
20160630000000000128000024600128000161820063633841279100000000036        
9999999900000004000000000000446000                                       
