00000000MARITIMO S.R.L.     20170130COBRANZAS RAPIPAGO                   
20170130000000000100000024600100000170311850032966599500200007121        
20170130000000000090000024600090000170311850452555422900100007278        
20170130000000000140000024600140000170360056564087075100095000057        
9999999900000003000000000000330000                                       
