00000000DERAMO FABIAN N.    20150330COBRANZAS RAPIPAGO                   
20150330000000000021000024600021000150928206052571604000010000063        
9999999900000001000000000000021000                                       
