00000000MARITIMO S.R.L.     20151030COBRANZAS RAPIPAGO                   
20151030000000000230000024600230000153078901052354691100000000058        
20151030000000000080000024600080000153098901213648885600000000063        
20151030000000000065000024600065000153099101052778217500000000042        
20151030000000000080000024600080000153068901232884609900000000000        
20151030000000000050000024600050000153040256371790182600100007490        
20151030000000000140000024600140000153090147181790182600000000063        
20151030000000000018000024600018000153105204262719184600000000084        
20151030000000000018000024600018000153105204261810608300000000063        
20151030000000000020000024600020000153092914151053865200000000084        
20151030000000000065000024600065000153069101052718167200000000036        
9999999900000010000000000000766000                                       
