00000000MARITIMO S.R.L.     20150730COBRANZAS RAPIPAGO                   
20150730000000000035700024600035700152118207072990449400000000057        
20150730000000000035700024600035700152118207162634638400000000021        
20150730000000000090000024600090000152160145052459561500000000084        
20150730000000000050000024600050000152150145343657163400000000058        
20150730000000000035700024600035700152118207082804954800000000042        
20150730000000000035700024600035700152118207101768476500000000037        
20150730000000000035700024600035700152118207101787007000000000079        
20150730000000000035700024600035700152118207072872942100000000021        
9999999900000008000000000000354200                                       
