00000000MARITIMO S.R.L.     20170530COBRANZAS RAPIPAGO                   
20170530000000000045000024600045000171568808013684990000060000090        
20170530000000000117000024600117000171560092923614350300000000021        
20170530000000000117000024600117000171560092923761894200000000058        
20170530000000000117000024600117000171560088883946687100000000016        
20170530000000000200000024600200000171510074743946687100000000037        
20170530000000000045000024600045000171568808011418999700060000042        
20170530000000000045000024600045000171578808014456297400060000057        
20170530000000000117000024600117000171560092922672856700000000099        
20170530000000000175000024600175000171560075754103728000120000037        
20170530000000000117000024600117000171560089894103728000000000084        
20170530000000000070000024600070000171512401272147888600000000021        
20170530000000000035000024600035000171512401023540856100000000000        
20170530000000000035000024600035000171512401023367810000000000021        
9999999900000013000000000001235000                                       
