00000000MARITIMO S.R.L.     20160130COBRANZAS RAPIPAGO                   
20160130000000000003000024600003000160350900011442516900000000057        
20160130000000000089000024600089000160311848062180103300100007536        
20160130000000000005000024600005000160350900021171406000000000042        
9999999900000003000000000000097000                                       
