00000000MARITIMO S.R.L.     20161130COBRANZAS RAPIPAGO                   
20161130000000000025000024600025000163366001113398355000000000079        
20161130000000000158000024600158000163350053533819946200000000042        
20161130000000000045000024600045000163358304310538785800075007679        
20161130000000000065000024600065000163422917073068281700100000021        
20161130000000000065000024600065000163422917082400920000100000099        
20161130000000000265000024600265000163420072723209388700000000037        
20161130000000000265000024600265000163350071713835860800000000078        
20161130000000000093000024600093000163418503652121323500000000016        
9999999900000008000000000000981000                                       
