00000000MARITIMO S.R.L.     20160830COBRANZAS RAPIPAGO                   
20160830000000000078000024600078000162441707072369697000110007421        
20160830000000000128000024600128000162490063633824286100000000079        
20160830000000000130000024600130000162490049493824286100000000078        
20160830000000000078000024600078000162441707142221421900110007415        
20160830000000000101000024600101000162497909082309188600155000084        
20160830000000000101000024600101000162497909072467454800155000000        
9999999900000006000000000000616000                                       
