00000000MARITIMO S.R.L.     20170131COBRANZAS RAPIPAGO                   
20170131000000000100000024600100000170311850052394218100200007084        
20170131000000000150000024600150000170315707202018592200000000084        
20170131000000000050000024600050000170311501062167325800100007600        
20170131000000000140000024600140000170330056563209388700095000042        
9999999900000004000000000000440000                                       
