00000000MARITIMO S.R.L.     20170531COBRANZAS RAPIPAGO                   
20170531000000000045000024600045000171568808014442554800060000078        
20170531000000000045000024600045000171518808013766262500060000015        
20170531000000000035000024600035000171512401143232236700000000016        
20170531000000000035000024600035000171512401143186014200000000036        
20170531000000000035000024600035000171512401023340121800000000036        
20170531000000000117000024600117000171580088883197386000000000000        
20170531000000000045000024600045000171588808013743368000060000021        
20170531000000000045000024600045000171578808014032338600060000078        
20170531000000000045000024600045000171578808014034554600060000021        
20170531000000000035000024600035000171512401052334393500000000090        
20170531000000000035000024600035000171512401062171612900000000042        
20170531000000000035000024600035000171512401040000000000000000042        
20170531000000000035000024600035000171512401140000000000000000058        
20170531000000000030000024600030000171510705043390449600050007636        
20170531000000000035000024600035000171512401033152639500000000090        
20170531000000000035000024600035000171512401030000000000000000016        
9999999900000016000000000000687000                                       
