00000000MARITIMO S.R.L.     20170331COBRANZAS RAPIPAGO                   
20170331000000000158000024600158000170900057573819946200000000042        
20170331000000000120000024600120000170911850112183227200000000000        
20170331000000000120000024600120000170911850150862535100000000084        
20170331000000000042000024600042000170917910123064188300070000415        
20170331000000000034000024600034000170908214243693634500030007415        
20170331000000000046000024600046000170908214081446357100030007479        
20170331000000000100000024600100000170911850442922776400000000036        
20170331000000000042000024600042000170917910062541265700070000484        
20170331000000000034000024600034000170908214291680610300030007479        
20170331000000000034000024600034000170908214243591050200030007463        
20170331000000000100000024600100000170911850333075165700000000079        
20170331000000000046000024600046000170908214023420231100030007063        
20170331000000000046000024600046000170908214052320648400030007463        
20170331000000000042000024600042000170917910072150261100070000378        
20170331000000000042000024600042000170917910062311893700070000463        
20170331000000000046000024600046000170908214133327384500030007200        
20170331000000000046000024600046000170908214042769335700030007484        
20170331000000000034000024600034000170908214372777375400030007442        
9999999900000018000000000001132000                                       
