00000000MARITIMO S.R.L.     20160831COBRANZAS RAPIPAGO                   
20160830000000000078000024600078000162441707082220546800110007442        
20160831000000000260000024600260000162498903023451391100300000042        
20160831000000000128000024600128000162510065653819946200000000099        
20160831000000000078000024600078000162441707123600818100110007558        
20160831000000000078000024600078000162441707091698906200110007436        
9999999900000005000000000000622000                                       
