00000000MARITIMO S.R.L.     20161231COBRANZAS RAPIPAGO                   
20161231000000000031500024600031500170018213052326021400063008857        
9999999900000001000000000000031500                                       
