00000000MARITIMO S.R.L.     20151231COBRANZAS RAPIPAGO                   
20151231000000000055000024600055000153651848032989467300340008890        
20151231000000000055000024600055000153651848042577173400340008884        
20151231000000000055000024600055000153651848042812902200340008800        
20151231000000000055000024600055000153651848042581647200340008890        
20151231000000000055000024600055000153651848061782174500340008816        
20151231000000000028400024600028400160038209111717864800031000115        
20151231000000000028400024600028400160038209111685416800031000221        
20151231000000000028400024600028400160038209073798368200031000236        
9999999900000008000000000000360200                                       
