00000000MARITIMO S.R.L.     20160531COBRANZAS RAPIPAGO                   
20160531000000000045000024600045000161520258233888732700150007442        
20160531000000000020000024600020000161527603062284073500100000058        
20160531000000000020000024600020000161597603062284092800100000021        
20160531000000000060000024600060000161520258042802888300150007600        
20160531000000000060000024600060000161520258081433956300150007599        
20160531000000000045000024600045000161520258332801686800150007679        
20160531000000000034500024600034500161598803013143259100045000037        
20160531000000000034500024600034500161598803013318487700045000036        
20160531000000000034500024600034500161598803012360777300045000036        
20160531000000000074500024600074500161557908072554727300105000042        
20160531000000000109500024600109500161520029293514350500000000000        
20160531000000000045000024600045000161522916101217794000250007678        
20160531000000000060000024600060000161529601023385081400000000016        
20160531000000000034500024600034500161598803013752179700045000000        
9999999900000014000000000000677000                                       
