00000000MARITIMO S.R.L.     20150731COBRANZAS RAPIPAGO                   
20150731000000000090000024600090000152190145042777908600000000000        
20150731000000000048000024600048000152151706052948700500120000021        
9999999900000002000000000000138000                                       
