120110801PAGO FACIL               090060246FABIAN NORBERTO D´ERAMO                                                              
320110801000001FABIAN NORBERTO D´ERAMO                                                                                          
50000110201107292011080102301723129377       PES0000016500A028072011072915090158                                                
6024600016500112170230172312937700070000000                                                                                     
7PESE                                                                                000000000016500                            
50000210201107292011080102310618595542       PES0000021500A601232011072910470013                                                
6024600021500112100231061859554200030000000                                                                                     
7PESE                                                                                000000000021500                            
50000310201107292011080102310716807661       PES0000021500A105252011072913110175                                                
6024600021500112110231071680766100030007300                                                                                     
7PESE                                                                                000000000021500                            
50000410201107292011080102313011297702       PES0000016500A081002011072916290011                                                
6024600016500112110231301129770200020007463                                                                                     
7PESE                                                                                000000000016500                            
50000510201107292011080102311614990939       PES0000021500A092272011072917210001                                                
6024600021500112110231161499093900030007421                                                                                     
7PESE                                                                                000000000021500                            
50000610201107292011080100520839277083       PES0000026500A059742011072917300110                                                
6024600026500112110052083927708300005007321                                                                                     
7PESE                                                                                000000000026500                            
50000710201107292011080100520735066882       PES0000026500A059742011072917300111                                                
6024600026500112110052073506688200005007363                                                                                     
7PESE                                                                                000000000026500                            
50000810201107292011080100520631662323       PES0000026500A059742011072917300112                                                
6024600026500112110052063166232300005007457                                                                                     
7PESE                                                                                000000000026500                            
50000910201107292011080100520438636016       PES0000026500A059742011072917300113                                                
6024600026500112110052043863601600005007400                                                                                     
7PESE                                                                                000000000026500                            
50001010201107292011080100533727108444       PES0000018000A046092011072915080020                                                
6024600018000112110053372710844400110007436                                                                                     
7PESE                                                                                000000000018000                            
50001110201107292011080100530327108444       PES0000027000A046092011072915090021                                                
6024600027000112110053032710844400115007457                                                                                     
7PESE                                                                                000000000027000                            
50001210201107292011080102312528383771       PES0000016500A087742011072918060175                                                
6024600016500112110231252838377100020007458                                                                                     
7PESE                                                                                000000000016500                            
50001310201107292011080102310332554625       PES0000021500A054272011072916410029                                                
6024600021500112110231033255462500030007584                                                                                     
7PESE                                                                                000000000021500                            
50001410201107292011080102312239245546       PES0000016500A088622011072917480113                                                
6024600016500112110231223924554600020007542                                                                                     
7PESE                                                                                000000000016500                            
50001510201107292011080100531134850569       PES0000027000L120162011072913460125                                                
6024600027000112100053113485056900115000000                                                                                     
7PESE                                                                                000000000027000                            
50001610201107292011080102302421763866       PES0000016500M601212011072915330104                                                
6024600016500112130230242176386600070000037                                                                                     
7PESE                                                                                000000000016500                            
50001710201107302011080102315335919011       PES0000016500A085382011073011040022                                                
6024600016500112110231533591901100020000199                                                                                     
7PESE                                                                                000000000016500                            
50001810201107302011080117020813752853       PES0000016000A043642011073011090062                                                
6024600016000112111702081375285300040000090                                                                                     
7PESE                                                                                000000000016000                            
82011080100000100000180000003790000000000000000000000000000000000000000000018                                                   
9201108010000010000018000000379000000000000000000000000000000000000000000000018                                                 
