120121101PAGO FACIL               090060246FABIAN NORBERTO D´ERAMO                                                              
320121101000001FABIAN NORBERTO D´ERAMO                                                                                          
50000110201210312012110198010132669840       PES0000015000A113952012103018240081                                                
6024600015000123049801013266984000000000000                                                                                     
7PESE                                                                                000000000015000                            
50000210201210312012110152010524752841       PES0000010000A105442012103017170023                                                
6024600010000123055201052475284100010007516                                                                                     
7PESE                                                                                000000000010000                            
50000310201210312012110101330522268205       PES0000052000A107622012103010000017                                                
6024600052000123100133052226820500080000016                                                                                     
7PESE                                                                                000000000052000                            
50000410201210312012110101331714665469       PES0000052000A107622012103010180024                                                
6024600052000123100133171466546900060000021                                                                                     
7PESE                                                                                000000000052000                            
50000510201210312012110165000217785803       PES0000013000M600182012103014040043                                                
6024600013000123056500021778580300000000016                                                                                     
7PESE                                                                                000000000013000                            
50000610201210312012110165000226942635       PES0000013000M600182012103014040044                                                
6024600013000123056500022694263500000000037                                                                                     
7PESE                                                                                000000000013000                            
50000710201210312012110152010426909751       PES0000010000A113072012103112130026                                                
6024600010000123055201042690975100010007637                                                                                     
7PESE                                                                                000000000010000                            
50000810201210312012110152012113120672       PES0000010000A114352012103116520049                                                
6024600010000123055201211312067200010007515                                                                                     
7PESE                                                                                000000000010000                            
50000910201210312012110165000730475352       PES0000011700A091472012103116200349                                                
6024600011700123066500073047535200000000015                                                                                     
7PESE                                                                                000000000011700                            
50001010201210312012110165000730603341       PES0000011700A091472012103116240363                                                
6024600011700123066500073060334100000000058                                                                                     
7PESE                                                                                000000000011700                            
50001110201210312012110165000731061391       PES0000011700A091472012103116230358                                                
6024600011700123066500073106139100000000063                                                                                     
7PESE                                                                                000000000011700                            
50001210201210312012110165000731529493       PES0000011700A091472012103116200347                                                
6024600011700123066500073152949300000000016                                                                                     
7PESE                                                                                000000000011700                            
50001310201210312012110165000732216100       PES0000011700A091472012103116230357                                                
6024600011700123066500073221610000000000042                                                                                     
7PESE                                                                                000000000011700                            
50001410201210312012110165000733035180       PES0000011700A091472012103116240361                                                
6024600011700123066500073303518000000000099                                                                                     
7PESE                                                                                000000000011700                            
50001510201210312012110165000738466971       PES0000011700A091472012103116220356                                                
6024600011700123066500073846697100000000058                                                                                     
7PESE                                                                                000000000011700                            
50001610201210312012110165000816785823       PES0000011700A091472012103116230359                                                
6024600011700123066500081678582300000000015                                                                                     
7PESE                                                                                000000000011700                            
50001710201210312012110165000817878061       PES0000011700A091472012103116250366                                                
6024600011700123066500081787806100000000000                                                                                     
7PESE                                                                                000000000011700                            
50001810201210312012110165000824623921       PES0000011700A091472012103116250367                                                
6024600011700123066500082462392100000000016                                                                                     
7PESE                                                                                000000000011700                            
50001910201210312012110165000825044248       PES0000011700A091472012103116200350                                                
6024600011700123066500082504424800000000042                                                                                     
7PESE                                                                                000000000011700                            
50002010201210312012110165000826943111       PES0000011700A091472012103116230360                                                
6024600011700123066500082694311100000000021                                                                                     
7PESE                                                                                000000000011700                            
50002110201210312012110165000828370961       PES0000011700A091472012103116220354                                                
6024600011700123066500082837096100000000036                                                                                     
7PESE                                                                                000000000011700                            
50002210201210312012110165000829135304       PES0000011700A091472012103116240365                                                
6024600011700123066500082913530400000000037                                                                                     
7PESE                                                                                000000000011700                            
50002310201210312012110165000912062685       PES0000011700A091472012103116200348                                                
6024600011700123066500091206268500000000042                                                                                     
7PESE                                                                                000000000011700                            
50002410201210312012110165000913209080       PES0000011700A091472012103116210352                                                
6024600011700123066500091320908000000000021                                                                                     
7PESE                                                                                000000000011700                            
50002510201210312012110165000993800535       PES0000011700A091472012103116210351                                                
6024600011700123066500099380053500000000057                                                                                     
7PESE                                                                                000000000011700                            
50002610201210312012110165001034458051       PES0000011700A091472012103116240362                                                
6024600011700123066500103445805100000000021                                                                                     
7PESE                                                                                000000000011700                            
50002710201210312012110165001118168918       PES0000011700A091472012103116220355                                                
6024600011700123066500111816891800000000063                                                                                     
7PESE                                                                                000000000011700                            
50002810201210312012110165001123734416       PES0000011700A091472012103116210353                                                
6024600011700123066500112373441600000000078                                                                                     
7PESE                                                                                000000000011700                            
50002910201210312012110165001128515440       PES0000011700A091472012103116240364                                                
6024600011700123066500112851544000000000042                                                                                     
7PESE                                                                                000000000011700                            
50003010201210312012110165000220648631       PES0000013000D000792012103114550334                                                
6024600013000123056500022064863100000000036                                                                                     
7PESE                                                                                000000000013000                            
50003110201210312012110165000523464577       PES0000013000A032732012103116010001                                                
6024600013000123066500052346457700000000036                                                                                     
7PESE                                                                                000000000013000                            
50003210201210312012110165000135538292       PES0000013000A109832012103116540234                                                
6024600013000123076500013553829200000000057                                                                                     
7PESE                                                                                000000000013000                            
50003310201210312012110165000216774398       PES0000013000A092162012103110250067                                                
6024600013000123076500021677439800000000037                                                                                     
7PESE                                                                                000000000013000                            
50003410201210312012110165000226046169       PES0000013000A070822012103110150017                                                
6024600013000123076500022604616900000000057                                                                                     
7PESE                                                                                000000000013000                            
50003510201210312012110165000227273062       PES0000013000A070822012103110160018                                                
6024600013000123076500022727306200000000079                                                                                     
7PESE                                                                                000000000013000                            
50003610201210312012110169011528871737       PES0000015000M620082012103111380016                                                
6024600015000123056901152887173700025000090                                                                                     
7PESE                                                                                000000000015000                            
50003710201210312012110169012813898539       PES0000015000L070082012103118246848                                                
6024600015000123056901281389853900025000084                                                                                     
7PESE                                                                                000000000015000                            
50003810201210312012110169011914541908       PES0000015000L071192012103118464117                                                
6024600015000123066901191454190800025000079                                                                                     
7PESE                                                                                000000000015000                            
50003910201210312012110169012139416728       PES0000015000M620082012103116410032                                                
6024600015000123066901213941672800025000621                                                                                     
7PESE                                                                                000000000015000                            
50004010201210312012110169012140473556       PES0000015000A058122012103118100106                                                
6024600015000123066901214047355600025000600                                                                                     
7PESE                                                                                000000000015000                            
50004110201210312012110169013008529149       PES0000015000A014732012103115160185                                                
6024600015000123066901300852914900025000084                                                                                     
7PESE                                                                                000000000015000                            
50004210201210312012110169014040548518       PES0000015000A110272012103119460123                                                
6024600015000123066901404054851800025000615                                                                                     
7PESE                                                                                000000000015000                            
50004310201210312012110169014330332525       PES0000015000L070082012103120376873                                                
6024600015000123066901433033252500025000157                                                                                     
7PESE                                                                                000000000015000                            
50004410201210312012110169014425726727       PES0000015000A620602012103117280045                                                
6024600015000123066901442572672700025000658                                                                                     
7PESE                                                                                000000000015000                            
50004510201210312012110157010327623921       PES0000015000A047422012103111470080                                                
6024600015000123115701032762392100000000099                                                                                     
7PESE                                                                                000000000015000                            
50004610201210312012110118410620249201       PES0000020000A067782012103109520012                                                
6024600020000123071841062024920100050000384                                                                                     
7PESE                                                                                000000000020000                            
50004710201210312012110118412624851288       PES0000020000A109842012103115000061                                                
6024600020000123071841262485128800050000321                                                                                     
7PESE                                                                                000000000020000                            
50004810201210312012110100751624755647       PES0000022500A025052012103120420045                                                
6024600022500123050075162475564700020007684                                                                                     
7PESE                                                                                000000000022500                            
50004910201210312012110100752428659154       PES0000022500A076192012103110540012                                                
6024600022500123050075242865915400020007536                                                                                     
7PESE                                                                                000000000022500                            
50005010201210312012110100752429147062       PES0000022500A088622012103117240153                                                
6024600022500123050075242914706200020007358                                                                                     
7PESE                                                                                000000000022500                            
50005110201210312012110199030134318531       PES0000049000A074192012103119250112                                                
6024600049000123059903013431853100000000015                                                                                     
7PESE                                                                                000000000049000                            
50005210201210312012110101331714848058       PES0000052000A095412012103117310022                                                
6024600052000123050133171484805800080000021                                                                                     
7PESE                                                                                000000000052000                            
50005310201210312012110101331326842535       PES0000052000M620412012103110160004                                                
6024600052000123120133132684253500080000063                                                                                     
7PESE                                                                                000000000052000                            
50005410201210312012110101331423469086       PES0000052000A092152012103115550392                                                
6024600052000123120133142346908600080000063                                                                                     
7PESE                                                                                000000000052000                            
50005510201210312012110101331620029486       PES0000052000D000502012103117200052                                                
6024600052000123120133162002948600080000090                                                                                     
7PESE                                                                                000000000052000                            
82012110100000100000550000010132000000000000000000000000000000000000000000055                                                   
9201211010000010000055000001013200000000000000000000000000000000000000000000055                                                 
