120120301PAGO FACIL               090060246FABIAN NORBERTO D´ERAMO                                                              
320120301000001FABIAN NORBERTO D´ERAMO                                                                                          
50000110201202292012030100693008529149       PES0000008000A093312012022909000047                                                
6024600008000120610069300852914900008000000                                                                                     
7PESE                                                                                000000000008000                            
50000210201202292012030100691625104564       PES0000020000D000392012022914580116                                                
6024600020000120600069162510456400020000099                                                                                     
7PESE                                                                                000000000020000                            
50000310201202292012030100693108093434       PES0000020000A105092012022916450024                                                
6024600020000120600069310809343400020000042                                                                                     
7PESE                                                                                000000000020000                            
50000410201202292012030100693822650059       PES0000020000A067392012022916480079                                                
6024600020000120600069382265005900020000084                                                                                     
7PESE                                                                                000000000020000                            
50000510201202292012030146080828060869       PES0000026000A037752012022914060130                                                
6024600026000120624608082806086900040000421                                                                                     
7PESE                                                                                000000000026000                            
50000610201202292012030199030235398990       PES0000037000A040552012022917030110                                                
6024600037000120669903023539899000035000036                                                                                     
7PESE                                                                                000000000037000                            
50000710201202292012030199030228361121       PES0000037000A043162012022916340030                                                
6024600037000120679903022836112100035000016                                                                                     
7PESE                                                                                000000000037000                            
50000810201202292012030199030235398990       PES0000043000A040552012022917030111                                                
6024600043000120619903023539899000000000015                                                                                     
7PESE                                                                                000000000043000                            
82012030100000100000080000002110000000000000000000000000000000000000000000008                                                   
9201203010000010000008000000211000000000000000000000000000000000000000000000008                                                 
