120110701PAGO FACIL               090060246FABIAN NORBERTO D´ERAMO                                                              
320110701000001FABIAN NORBERTO D´ERAMO                                                                                          
50000110201106302011070102294639171117       PES0000018500A104612011063010490070                                                
6024600018500111820229463917111700000000078                                                                                     
7PESE                                                                                000000000018500                            
50000210201106302011070102295335919011       PES0000018500A085382011063010170020                                                
6024600018500111820229533591901100000000084                                                                                     
7PESE                                                                                000000000018500                            
50000310201106302011070102290621002934       PES0000024500A086352011063011270007                                                
6024600024500111820229062100293400000000036                                                                                     
7PESE                                                                                000000000024500                            
50000410201106302011070102291230735964       PES0000024500A007572011063010000025                                                
6024600024500111820229123073596400000000063                                                                                     
7PESE                                                                                000000000024500                            
82011070100000100000040000000860000000000000000000000000000000000000000000004                                                   
9201107010000010000004000000086000000000000000000000000000000000000000000000004                                                 
