120111102PAGO FACIL               090060246FABIAN NORBERTO D´ERAMO                                                              
320111102000001FABIAN NORBERTO D´ERAMO                                                                                          
50000110201111012011110252000329900484       PES0000009000A046802011110113080109                                                
6024600008000113045200032990048400010007637                                                                                     
7PESE                                                                                000000000009000                            
50000210201111012011110252000331639388       PES0000009000A046802011110113060108                                                
6024600008000113045200033163938800010007615                                                                                     
7PESE                                                                                000000000009000                            
50000310201111012011110200572328741842       PES0000022000A042592011110112140028                                                
6024600020000113030057232874184200020007342                                                                                     
7PESE                                                                                000000000022000                            
50000410201111012011110200574610258129       PES0000022000A097442011110116000348                                                
6024600022000113110057461025812900000000084                                                                                     
7PESE                                                                                000000000022000                            
50000510201111012011110201290621831336       PES0000037000A104982011110116430122                                                
6024600037000113050129062183133600000000042                                                                                     
7PESE                                                                                000000000037000                            
50000610201111012011110201291526318083       PES0000037000A101582011110110440116                                                
6024600037000113060129152631808300000000099                                                                                     
7PESE                                                                                000000000037000                            
50000710201111012011110246060414877274       PES0000040000A110092011110111390147                                                
6024600040000113084606041487727400080000442                                                                                     
7PESE                                                                                000000000040000                            
82011110200000100000070000001760000000000000000000000000000000000000000000007                                                   
9201111020000010000007000000176000000000000000000000000000000000000000000000007                                                 
