120120202PAGO FACIL               090060246FABIAN NORBERTO D´ERAMO                                                              
320120202000001FABIAN NORBERTO D´ERAMO                                                                                          
50000110201202012012020223061616739480       PES0000136600A061852012013013180257                                                
6024600136600120312306161673948000000000090                                                                                     
7PESE                                                                                000000000136600                            
50000210201202012012020229070222868533       PES0000010000A054522012020118240092                                                
6024600010000120332907022286853300000000063                                                                                     
7PESE                                                                                000000000010000                            
50000310201202012012020229070223186965       PES0000010000M620152012020112500032                                                
6024600010000120332907022318696500000000063                                                                                     
7PESE                                                                                000000000010000                            
50000410201202012012020229070226370447       PES0000010000A620532012020113070002                                                
6024600010000120332907022637044700000000084                                                                                     
7PESE                                                                                000000000010000                            
50000510201202012012020229070318128139       PES0000010000A044382012020113130021                                                
6024600010000120332907031812813900000000099                                                                                     
7PESE                                                                                000000000010000                            
50000610201202012012020229070320755976       PES0000010000A620532012020113070003                                                
6024600010000120332907032075597600000000078                                                                                     
7PESE                                                                                000000000010000                            
50000710201202012012020229070413486456       PES0000010000M601622012020116530360                                                
6024600010000120332907041348645600000000000                                                                                     
7PESE                                                                                000000000010000                            
50000810201202012012020229070414318768       PES0000010000A051302012020115060370                                                
6024600010000120332907041431876800000000036                                                                                     
7PESE                                                                                000000000010000                            
50000910201202012012020229070821104776       PES0000010000A063832012020118060221                                                
6024600010000120332907082110477600000000000                                                                                     
7PESE                                                                                000000000010000                            
50001010201202012012020218370426927364       PES0000020000A048732012020112270057                                                
6024600020000120381837042692736400000000084                                                                                     
7PESE                                                                                000000000020000                            
50001110201202012012020218372817110395       PES0000020000A091032012020111420116                                                
6024600020000120381837281711039500000000000                                                                                     
7PESE                                                                                000000000020000                            
50001210201202012012020299030237278168       PES0000037000A078942012020117180019                                                
6024600037000120339903023727816800035000015                                                                                     
7PESE                                                                                000000000037000                            
50001310201202012012020299030234722750       PES0000037000A094932012020110520091                                                
6024600037000120389903023472275000035000136                                                                                     
7PESE                                                                                000000000037000                            
50001410201202012012020201310327420185       PES0000097000M750002012020111150034                                                
6024600097000120390131032742018500000000099                                                                                     
7PESE                                                                                000000000097000                            
50001510201202012012020201310518433098       PES0000097000A031192012020113170311                                                
6024600097000120390131051843309800000000021                                                                                     
7PESE                                                                                000000000097000                            
50001610201202012012020201311229718366       PES0000097000M620062012020111560043                                                
6024600097000120390131122971836600000000058                                                                                     
7PESE                                                                                000000000097000                            
50001710201202012012020201311230289152       PES0000097000A600752012020113200043                                                
6024600097000120390131123028915200000000016                                                                                     
7PESE                                                                                000000000097000                            
50001810201202012012020201311232378711       PES0000097000A007552012020110040047                                                
6024600097000120390131123237871100000000042                                                                                     
7PESE                                                                                000000000097000                            
50001910201202012012020201311326050433       PES0000097000M620062012020118410077                                                
6024600097000120390131132605043300000000084                                                                                     
7PESE                                                                                000000000097000                            
50002010201202012012020201311328361448       PES0000097000A078992012020110040032                                                
6024600097000120390131132836144800000000021                                                                                     
7PESE                                                                                000000000097000                            
50002110201202012012020201311422502506       PES0000097000M600372012020110530047                                                
6024600097000120390131142250250600000000021                                                                                     
7PESE                                                                                000000000097000                            
50002210201202012012020201311423242915       PES0000097000A055192012020113510193                                                
6024600097000120390131142324291500000000090                                                                                     
7PESE                                                                                000000000097000                            
50002310201202012012020201311423515659       PES0000097000A092052012020113520239                                                
6024600097000120390131142351565900000000090                                                                                     
7PESE                                                                                000000000097000                            
50002410201202012012020201311424068579       PES0000097000A092032012020114040295                                                
6024600097000120390131142406857900000000084                                                                                     
7PESE                                                                                000000000097000                            
50002510201202012012020201311424218336       PES0000097000A059392012020117440028                                                
6024600097000120390131142421833600000000063                                                                                     
7PESE                                                                                000000000097000                            
50002610201202012012020201311424258847       PES0000097000L070092012020111241141                                                
6024600097000120390131142425884700000000021                                                                                     
7PESE                                                                                000000000097000                            
50002710201202012012020201311424589419       PES0000097000A106722012020115560048                                                
6024600097000120390131142458941900000000000                                                                                     
7PESE                                                                                000000000097000                            
50002810201202012012020201311424595615       PES0000097000A007352012020114050216                                                
6024600097000120390131142459561500000000084                                                                                     
7PESE                                                                                000000000097000                            
50002910201202012012020201311424770336       PES0000097000A097952012020108570013                                                
6024600097000120390131142477033600000000000                                                                                     
7PESE                                                                                000000000097000                            
50003010201202012012020201311425264786       PES0000097000A070632012020108260007                                                
6024600097000120390131142526478600000000042                                                                                     
7PESE                                                                                000000000097000                            
50003110201202012012020201311518220126       PES0000097000A104232012020118450080                                                
6024600097000120390131151822012600000000078                                                                                     
7PESE                                                                                000000000097000                            
50003210201202012012020201311518595542       PES0000097000A092012012020116290299                                                
6024600097000120390131151859554200000000079                                                                                     
7PESE                                                                                000000000097000                            
50003310201202012012020201311616475803       PES0000097000A076552012020117040146                                                
6024600097000120390131161647580300000000042                                                                                     
7PESE                                                                                000000000097000                            
50003410201202012012020201311617673169       PES0000097000M620002012020114420150                                                
6024600097000120390131161767316900000000079                                                                                     
7PESE                                                                                000000000097000                            
50003510201202012012020201311618002702       PES0000097000M620002012020111170075                                                
6024600097000120390131161800270200000000021                                                                                     
7PESE                                                                                000000000097000                            
50003610201202012012020201311618154550       PES0000097000D000572012020115540147                                                
6024600097000120390131161815455000000000078                                                                                     
7PESE                                                                                000000000097000                            
50003710201202012012020201311712538277       PES0000097000A097272012020112020016                                                
6024600097000120390131171253827700000000042                                                                                     
7PESE                                                                                000000000097000                            
50003810201202012012020201311712862198       PES0000097000M620002012020111210078                                                
6024600097000120390131171286219800000000063                                                                                     
7PESE                                                                                000000000097000                            
50003910201202012012020201311810315482       PES0000097000M640022012020111130063                                                
6024600097000120390131181031548200000000079                                                                                     
7PESE                                                                                000000000097000                            
82012020200000100000390000028526000000000000000000000000000000000000000000039                                                   
9201202020000010000039000002852600000000000000000000000000000000000000000000039                                                 
