120120302PAGO FACIL               090060246FABIAN NORBERTO D´ERAMO                                                              
320120302000001FABIAN NORBERTO D´ERAMO                                                                                          
50000110201203012012030200692911040357       PES0000006000A091652012030116350433                                                
6024600006000120670069291104035700006000058                                                                                     
7PESE                                                                                000000000006000                            
50000210201203012012030200691021582953       PES0000020000A106072012030111520090                                                
6024600020000120620069102158295300020000084                                                                                     
7PESE                                                                                000000000020000                            
50000310201203012012030200691526542181       PES0000020000A075392012030111240088                                                
6024600020000120680069152654218100020000037                                                                                     
7PESE                                                                                000000000020000                            
50000410201203012012030200682233443047       PES0000023000M600012012030111020030                                                
6024600021000120590068223344304700020007800                                                                                     
7PESE                                                                                000000000023000                            
50000510201203012012030200682328741842       PES0000023000A042592012030112430006                                                
6024600023000120670068232874184200000000063                                                                                     
7PESE                                                                                000000000023000                            
50000610201203012012030200682618532531       PES0000023000A103032012030112220059                                                
6024600023000120680068261853253100000000057                                                                                     
7PESE                                                                                000000000023000                            
50000710201203012012030299030235428838       PES0000031820D000262012030111410092                                                
6024600031820120679903023542883800030300179                                                                                     
7PESE                                                                                000000000031820                            
50000810201203012012030299030235428838       PES0000036980D000262012030111410093                                                
6024600036980120619903023542883800000800015                                                                                     
7PESE                                                                                000000000036980                            
82012030200000100000080000001838000000000000000000000000000000000000000000008                                                   
9201203020000010000008000000183800000000000000000000000000000000000000000000008                                                 
