120130102PAGO FACIL               090060246FABIAN NORBERTO D´ERAMO                                                              
320130102000001FABIAN NORBERTO D´ERAMO                                                                                          
50000110201212312013010229081816961355       PES0000025000A019072012123111490036                                                
6024600025000130052908181696135500000000042                                                                                     
7PESE                                                                                000000000025000                            
50000210201212312013010273000227920886       PES0000017000A105312012123111380019                                                
6024600017000130047300022792088600000000099                                                                                     
7PESE                                                                                000000000017000                            
82013010200000100000020000000420000000000000000000000000000000000000000000002                                                   
9201301020000010000002000000042000000000000000000000000000000000000000000000002                                                 
