120121003PAGO FACIL               090060246FABIAN NORBERTO D´ERAMO                                                              
320121003000001FABIAN NORBERTO D´ERAMO                                                                                          
50000110201210022012100344020814327719       PES0000008500A033412012100216130049                                                
6024600007500122744402081432771900010007484                                                                                     
7PESE                                                                                000000000008500                            
50000210201210022012100365000312664746       PES0000013000A029772012100217030173                                                
6024600013000122786500031266474600015000063                                                                                     
7PESE                                                                                000000000013000                            
50000310201210022012100365000314327719       PES0000013000A033412012100216130050                                                
6024600013000122786500031432771900015000042                                                                                     
7PESE                                                                                000000000013000                            
50000410201210022012100365000221155458       PES0000013000A063662012100219100171                                                
6024600013000122826500022115545800015000058                                                                                     
7PESE                                                                                000000000013000                            
50000510201210022012100365000229405591       PES0000013000A042092012100212310300                                                
6024600013000122826500022940559100015000063                                                                                     
7PESE                                                                                000000000013000                            
50000610201210022012100318402432393316       PES0000015000A098932012100217280130                                                
6024600015000122771840243239331600100000058                                                                                     
7PESE                                                                                000000000015000                            
50000710201210022012100318400237844632       PES0000015000A116832012100217190011                                                
6024600015000122801840023784463200100000078                                                                                     
7PESE                                                                                000000000015000                            
50000810201210022012100368000812535753       PES0000016000A111402012100211150043                                                
6024600016000122836800081253575300000000099                                                                                     
7PESE                                                                                000000000016000                            
50000910201210022012100300711237932198       PES0000032500A114742012100217420062                                                
6024600029000122740071123793219800035007290                                                                                     
7PESE                                                                                000000000032500                            
50001010201210022012100300711432945480       PES0000032500A031402012100218540303                                                
6024600029000122740071143294548000035007278                                                                                     
7PESE                                                                                000000000032500                            
50001110201210022012100300712012107998       PES0000032500A081582012100217240122                                                
6024600029000122740071201210799800035007642                                                                                     
7PESE                                                                                000000000032500                            
50001210201210022012100300712332481229       PES0000032500A091182012100219580236                                                
6024600029000122740071233248122900035007636                                                                                     
7PESE                                                                                000000000032500                            
50001310201210022012100300713333425609       PES0000032500A073702012100209390023                                                
6024600029000122740071333342560900035007299                                                                                     
7PESE                                                                                000000000032500                            
50001410201210022012100300713733692708       PES0000032500A047802012100211110036                                                
6024600029000122740071373369270800035007516                                                                                     
7PESE                                                                                000000000032500                            
50001510201210022012100300714234671249       PES0000032500A031402012100209330107                                                
6024600029000122740071423467124900035007184                                                                                     
7PESE                                                                                000000000032500                            
50001610201210022012100300714234928473       PES0000032500A047802012100218230180                                                
6024600029000122740071423492847300035007137                                                                                     
7PESE                                                                                000000000032500                            
50001710201210022012100300713440638254       PES0000032500A036692012100214450291                                                
6024600032500122820071344063825400000000099                                                                                     
7PESE                                                                                000000000032500                            
50001810201210022012100300713821716548       PES0000032500M601252012100212240106                                                
6024600032500122820071382171654800000000084                                                                                     
7PESE                                                                                000000000032500                            
50001910201210022012100300714235225419       PES0000032500A022842012100213110018                                                
6024600032500122820071423522541900000000015                                                                                     
7PESE                                                                                000000000032500                            
50002010201210022012100300713731697792       PES0000032500A098582012100218140024                                                
6024600032500122830071373169779200000000078                                                                                     
7PESE                                                                                000000000032500                            
50002110201210022012100300722621483553       PES0000035000A085342012100216190005                                                
6024600035000122770072262148355300025000057                                                                                     
7PESE                                                                                000000000035000                            
50002210201210022012100300722813140445       PES0000035000A085922012100218430124                                                
6024600035000122770072281314044500025000090                                                                                     
7PESE                                                                                000000000035000                            
50002310201210022012100399030121558279       PES0000043000A034312012100214330316                                                
6024600043000122819903012155827900035000184                                                                                     
7PESE                                                                                000000000043000                            
50002410201210022012100300720520426311       PES0000046500M601652012100213140168                                                
6024600046500122760072052042631100010000016                                                                                     
7PESE                                                                                000000000046500                            
50002510201210022012100300721523250677       PES0000046500M601652012100213140169                                                
6024600046500122760072152325067700010000079                                                                                     
7PESE                                                                                000000000046500                            
50002610201210022012100300720522434017       PES0000046500A081292012100215440034                                                
6024600046500122770072052243401700010000021                                                                                     
7PESE                                                                                000000000046500                            
50002710201210022012100300720620226257       PES0000046500A092072012100216540243                                                
6024600046500122780072062022625700010000063                                                                                     
7PESE                                                                                000000000046500                            
50002810201210022012100300720426522104       PES0000046500A087742012100214230079                                                
6024600046500122790072042652210400010000342                                                                                     
7PESE                                                                                000000000046500                            
50002910201210022012100300720616733358       PES0000046500D000092012100212080099                                                
6024600046500122790072061673335800010000316                                                                                     
7PESE                                                                                000000000046500                            
50003010201210022012100300540136832667       PES0000076000A091472012100217350497                                                
6024600076000122830054013683266700000000057                                                                                     
7PESE                                                                                000000000076000                            
50003110201210022012100300540137247863       PES0000076000A091472012100217350496                                                
6024600076000122830054013724786300000000090                                                                                     
7PESE                                                                                000000000076000                            
82012100300000100000310000010405000000000000000000000000000000000000000000031                                                   
9201210030000010000031000001040500000000000000000000000000000000000000000000031                                                 
