120111003PAGO FACIL               090060246FABIAN NORBERTO D´ERAMO                                                              
320111003000001FABIAN NORBERTO D´ERAMO                                                                                          
50000110201109302011100329060320281828       PES0000010000A078112011093010220009                                                
6024600010000112762906032028182800030000000                                                                                     
7PESE                                                                                000000000010000                            
50000210201109302011100300504329592536       PES0000024500A094382011093011250070                                                
6024600024500112730050432959253600030007384                                                                                     
7PESE                                                                                000000000024500                            
50000310201109302011100300572425895131       PES0000017500A081572011093009530030                                                
6024600017500112730057242589513100025007584                                                                                     
7PESE                                                                                000000000017500                            
50000410201109302011100300572428344161       PES0000017500A081572011093009530031                                                
6024600017500112730057242834416100025007521                                                                                     
7PESE                                                                                000000000017500                            
50000510201109302011100300504514435273       PES0000024500A048412011093011360183                                                
6024600024500112730050451443527300030007700                                                                                     
7PESE                                                                                000000000024500                            
50000610201109302011100300502812651541       PES0000024500A039032011093013310371                                                
6024600024500112730050281265154100030007600                                                                                     
7PESE                                                                                000000000024500                            
50000710201109302011100300502810811328       PES0000024500A039032011093013320372                                                
6024600024500112730050281081132800030007600                                                                                     
7PESE                                                                                000000000024500                            
50000810201109302011100300503824393176       PES0000024500A620812011093012130149                                                
6024600024500112730050382439317600030007184                                                                                     
7PESE                                                                                000000000024500                            
50000910201109302011100300503231752755       PES0000024500A097662011093012020043                                                
6024600024500112730050323175275500030007784                                                                                     
7PESE                                                                                000000000024500                            
50001010201109302011100300574236397281       PES0000017500D000602011093011220107                                                
6024600017500112730057423639728100025007721                                                                                     
7PESE                                                                                000000000017500                            
50001110201109302011100300582525144420       PES0000018500A018912011093013370211                                                
6024600018500112730058252514442000040000057                                                                                     
7PESE                                                                                000000000018500                            
50001210201109302011100300504235728742       PES0000024500A007352011093011410116                                                
6024600024500112730050423572874200030007699                                                                                     
7PESE                                                                                000000000024500                            
50001310201109302011100300500335537169       PES0000024500A093952011093012220008                                                
6024600024500112730050033553716900030007657                                                                                     
7PESE                                                                                000000000024500                            
50001410201109302011100300503731448141       PES0000024500A109832011093011030107                                                
6024600024500112730050373144814100030007636                                                                                     
7PESE                                                                                000000000024500                            
50001510201109302011100300501300280601       PES0000024500A089832011093014370072                                                
6024600024500112730050130028060100030007600                                                                                     
7PESE                                                                                000000000024500                            
50001610201109302011100300502523292498       PES0000024500A090512011093011080104                                                
6024600024500112730050252329249800030007721                                                                                     
7PESE                                                                                000000000024500                            
50001710201109302011100300503538891511       PES0000024500D000252011093012130060                                                
6024600024500112730050353889151100030007400                                                                                     
7PESE                                                                                000000000024500                            
50001810201109302011100337021814926910       PES0000009000D000252011093016120164                                                
6024600009000112733702181492691000000000099                                                                                     
7PESE                                                                                000000000009000                            
50001910201109302011100337021431328484       PES0000009000D000252011093016120165                                                
6024600009000112733702143132848400000000084                                                                                     
7PESE                                                                                000000000009000                            
50002010201109302011100300533728078988       PES0000029000A092112011093013250212                                                
6024600029000112760053372807898800020000036                                                                                     
7PESE                                                                                000000000029000                            
50002110201109302011100320040214550173       PES0000006000D001512011093017390393                                                
6024600006000112782004021455017300000000021                                                                                     
7PESE                                                                                000000000006000                            
50002210201109302011100329060225838156       PES0000010000A099812011093017510026                                                
6024600010000112802906022583815600030000058                                                                                     
7PESE                                                                                000000000010000                            
50002310201109302011100300504517013697       PES0000024500A070282011093014250151                                                
6024600024500112730050451701369700030007778                                                                                     
7PESE                                                                                000000000024500                            
50002410201109302011100300573635253362       PES0000017500A054542011093016560222                                                
6024600017500112730057363525336200025007616                                                                                     
7PESE                                                                                000000000017500                            
50002510201109302011100300504234727136       PES0000024500A106562011093015410066                                                
6024600024500112730050423472713600030007621                                                                                     
7PESE                                                                                000000000024500                            
50002610201109302011100300504235611706       PES0000024500A106562011093016430078                                                
6024600024500112730050423561170600030007784                                                                                     
7PESE                                                                                000000000024500                            
50002710201109302011100300503824446732       PES0000024500A033992011093012320153                                                
6024600024500112730050382444673200030007663                                                                                     
7PESE                                                                                000000000024500                            
50002810201109302011100300502427081240       PES0000024500A077712011093017420031                                                
6024600024500112730050242708124000030007721                                                                                     
7PESE                                                                                000000000024500                            
50002910201109302011100300503731144550       PES0000024500A089662011093016580008                                                
6024600024500112730050373114455000030007616                                                                                     
7PESE                                                                                000000000024500                            
50003010201109302011100300500731927841       PES0000024500A093412011093016540014                                                
6024600024500112730050073192784100030007699                                                                                     
7PESE                                                                                000000000024500                            
50003110201109302011100300502621422229       PES0000024500A075212011093017020110                                                
6024600024500112730050262142222900030000021                                                                                     
7PESE                                                                                000000000024500                            
50003210201109302011100300501431532237       PES0000024500A102752011093017080079                                                
6024600024500112730050143153223700030007721                                                                                     
7PESE                                                                                000000000024500                            
50003310201109302011100300500828504832       PES0000024500A080382011093019560156                                                
6024600024500112730050082850483200030007421                                                                                     
7PESE                                                                                000000000024500                            
50003410201109302011100300502427776660       PES0000024500A090432011093017380085                                                
6024600024500112730050242777666000030007799                                                                                     
7PESE                                                                                000000000024500                            
50003510201109302011100300504327452116       PES0000024500A074412011093017560220                                                
6024600024500112730050432745211600030007679                                                                                     
7PESE                                                                                000000000024500                            
50003610201109302011100300502330224909       PES0000024500A037752011093018020205                                                
6024600024500112730050233022490900030007342                                                                                     
7PESE                                                                                000000000024500                            
50003710201109302011100300504422248376       PES0000024500A070602011093018460177                                                
6024600024500112730050442224837600030007615                                                                                     
7PESE                                                                                000000000024500                            
50003810201109302011100300504235537832       PES0000024500A048412011093019510296                                                
6024600024500112730050423553783200030007716                                                                                     
7PESE                                                                                000000000024500                            
50003910201109302011100300500429970261       PES0000024500A088172011093018060114                                                
6024600024500112730050042997026100030007684                                                                                     
7PESE                                                                                000000000024500                            
50004010201109302011100300504327508926       PES0000024500A097302011093016570029                                                
6024600024500112730050432750892600030007784                                                                                     
7PESE                                                                                000000000024500                            
50004110201110012011100300504137508272       PES0000027500D000482011100111530077                                                
6024600024500112730050413750827200030007736                                                                                     
7PESE                                                                                000000000027500                            
50004210201110012011100300504139143555       PES0000027500D000482011100111530078                                                
6024600024500112730050413914355500030007763                                                                                     
7PESE                                                                                000000000027500                            
82011100300000100000420000009270000000000000000000000000000000000000000000042                                                   
9201110030000010000042000000927000000000000000000000000000000000000000000000042                                                 
