120110503PAGO FACIL               090060246FABIAN NORBERTO D´ERAMO                                                              
320110503000001FABIAN NORBERTO D´ERAMO                                                                                          
50000110201105022011050301272113498987       PES0000010000A061432011050211040194                                                
6024600010000111200127211349898700010007779                                                                                     
7PESE                                                                                000000000010000                            
50000210201105022011050318290523995076       PES0000015000A091672011050217090148                                                
6024600015000111281829052399507600040000021                                                                                     
7PESE                                                                                000000000015000                            
50000310201105022011050399030134141344       PES0000021840A082952011050212180001                                                
6024600021840111279903013414134400023800284                                                                                     
7PESE                                                                                000000000021840                            
50000410201105022011050399030127537307       PES0000028000A103712011050212010020                                                
6024600028000111279903012753730700030000290                                                                                     
7PESE                                                                                000000000028000                            
50000510201105022011050399030228361121       PES0000035000A043162011050209490002                                                
6024600035000111279903022836112100035000263                                                                                     
7PESE                                                                                000000000035000                            
50000610201105022011050399030236399286       PES0000035000A028382011050212250015                                                
6024600035000111279903023639928600035000058                                                                                     
7PESE                                                                                000000000035000                            
82011050300000100000060000001448400000000000000000000000000000000000000000006                                                   
9201105030000010000006000000144840000000000000000000000000000000000000000000006                                                 
