120120403PAGO FACIL               090060246FABIAN NORBERTO D´ERAMO                                                              
320120403000001FABIAN NORBERTO D´ERAMO                                                                                          
50000110201203302012040356000523476579       PES0000025000A058112012033011480239                                                
6024600025000120915600052347657900050007500                                                                                     
7PESE                                                                                000000000025000                            
50000210201203302012040356000524836134       PES0000025000A038672012033018500052                                                
6024600025000120915600052483613400050007542                                                                                     
7PESE                                                                                000000000025000                            
50000310201203302012040318390331729736       PES0000020000A044652012033018140146                                                
6024600020000120961839033172973600000000000                                                                                     
7PESE                                                                                000000000020000                            
50000410201203302012040356000618581134       PES0000025000A078112012033017410093                                                
6024600025000120915600061858113400050007516                                                                                     
7PESE                                                                                000000000025000                            
50000510201203312012040356000622173433       PES0000025000A113532012033110270006                                                
6024600025000120915600062217343300050007579                                                                                     
7PESE                                                                                000000000025000                            
82012040300000100000050000001200000000000000000000000000000000000000000000005                                                   
9201204030000010000005000000120000000000000000000000000000000000000000000000005                                                 
