120120903PAGO FACIL               090060246FABIAN NORBERTO D´ERAMO                                                              
320120903000001FABIAN NORBERTO D´ERAMO                                                                                          
50000110201208312012090300713822608582       PES0000023500A028072012083019350151                                                
6024600023500122440071382260858200055007300                                                                                     
7PESE                                                                                000000000023500                            
50000210201208312012090317030818096078       PES0000025000A105852012083019570001                                                
6024600025000122441703081809607800050007516                                                                                     
7PESE                                                                                000000000025000                            
50000310201208312012090300714611728996       PES0000023500A040462012083011110119                                                
6024600023500122440071461172899600055007484                                                                                     
7PESE                                                                                000000000023500                            
50000410201208312012090300714040492861       PES0000023500A040462012083018270238                                                
6024600023500122440071404049286100055007400                                                                                     
7PESE                                                                                000000000023500                            
50000510201208312012090317030816840590       PES0000025000A102282012083108060007                                                
6024600025000122441703081684059000050007563                                                                                     
7PESE                                                                                000000000025000                            
50000610201208312012090300714741172947       PES0000008000A044962012083110400026                                                
6024600008000122440071474117294700010007536                                                                                     
7PESE                                                                                000000000008000                            
50000710201208312012090300712006528097       PES0000023500A046692012083111240055                                                
6024600023500122440071200652809700055007658                                                                                     
7PESE                                                                                000000000023500                            
50000810201208312012090300711431378478       PES0000023500A620262012083109120003                                                
6024600023500122440071143137847800055007558                                                                                     
7PESE                                                                                000000000023500                            
50000910201208312012090300712524369103       PES0000023500A620262012083109120004                                                
6024600023500122440071252436910300055007542                                                                                     
7PESE                                                                                000000000023500                            
50001010201208312012090317031717768627       PES0000025000A062092012083109520013                                                
6024600025000122441703171776862700050007363                                                                                     
7PESE                                                                                000000000025000                            
50001110201208312012090300710732364116       PES0000023500A076762012083109290003                                                
6024600023500122440071073236411600055007521                                                                                     
7PESE                                                                                000000000023500                            
50001210201208312012090300710828146082       PES0000023500A113462012083111090048                                                
6024600023500122440071082814608200055007490                                                                                     
7PESE                                                                                000000000023500                            
50001310201208312012090300714332700766       PES0000023500A098582012083108390069                                                
6024600023500122440071433270076600055007463                                                                                     
7PESE                                                                                000000000023500                            
50001410201208312012090300714518550382       PES0000023500A098582012083108410070                                                
6024600023500122440071451855038200055007599                                                                                     
7PESE                                                                                000000000023500                            
50001510201208312012090300714332800793       PES0000023500A098582012083110290218                                                
6024600023500122440071433280079300055007584                                                                                     
7PESE                                                                                000000000023500                            
50001610201208312012090300714326866875       PES0000023500A102862012083110280033                                                
6024600023500122440071432686687500055007557                                                                                     
7PESE                                                                                000000000023500                            
50001710201208312012090300711625079775       PES0000023500A106072012083112060125                                                
6024600023500122440071162507977500055007463                                                                                     
7PESE                                                                                000000000023500                            
50001810201208312012090300713538422672       PES0000023500A025052012083112410002                                                
6024600023500122440071353842267200055007542                                                                                     
7PESE                                                                                000000000023500                            
50001910201208312012090317030721411058       PES0000025000A054752012083110040035                                                
6024600025000122441703072141105800050007563                                                                                     
7PESE                                                                                000000000025000                            
50002010201208312012090317030527534968       PES0000025000A066952012083107500004                                                
6024600025000122441703052753496800050007442                                                                                     
7PESE                                                                                000000000025000                            
50002110201208312012090300711337073566       PES0000023500A097922012083112010091                                                
6024600023500122440071133707356600055007690                                                                                     
7PESE                                                                                000000000023500                            
50002210201208312012090300710633490552       PES0000023500A097922012083112010092                                                
6024600023500122440071063349055200055007663                                                                                     
7PESE                                                                                000000000023500                            
50002310201208312012090300710126160486       PES0000023500A085662012083112450077                                                
6024600023500122440071012616048600055007316                                                                                     
7PESE                                                                                000000000023500                            
50002410201208312012090300712524772521       PES0000023500A103492012083111110173                                                
6024600023500122440071252477252100055007679                                                                                     
7PESE                                                                                000000000023500                            
50002510201208312012090300714422799667       PES0000023500A048422012083111020028                                                
6024600023500122440071442279966700055007642                                                                                     
7PESE                                                                                000000000023500                            
50002610201208312012090300713008274233       PES0000023500A085592012083111050084                                                
6024600023500122440071300827423300055007563                                                                                     
7PESE                                                                                000000000023500                            
50002710201208312012090300714612277145       PES0000023500A080102012083110210052                                                
6024600023500122440071461227714500055007484                                                                                     
7PESE                                                                                000000000023500                            
50002810201208312012090300712236155274       PES0000023500A090602012083110070029                                                
6024600023500122440071223615527400055007578                                                                                     
7PESE                                                                                000000000023500                            
50002910201208312012090300711117490998       PES0000023500A090602012083110070030                                                
6024600023500122440071111749099800055007521                                                                                     
7PESE                                                                                000000000023500                            
50003010201208312012090300711432153620       PES0000023500A035802012083113570138                                                
6024600023500122440071143215362000055007563                                                                                     
7PESE                                                                                000000000023500                            
50003110201208312012090300711333901655       PES0000023500A043472012083111120091                                                
6024600023500122440071133390165500055007579                                                                                     
7PESE                                                                                000000000023500                            
50003210201208312012090300714042238167       PES0000023500A094482012083113120013                                                
6024600023500122440071404223816700055007321                                                                                     
7PESE                                                                                000000000023500                            
50003310201208312012090300714744222186       PES0000008000A094482012083113120014                                                
6024600008000122440071474422218600010007363                                                                                     
7PESE                                                                                000000000008000                            
50003410201208312012090300713913080922       PES0000023500A064852012083116380087                                                
6024600023500122440071391308092200055007663                                                                                     
7PESE                                                                                000000000023500                            
50003510201208312012090300720521080930       PES0000042000A026032012083110240039                                                
6024600042000122490072052108093000045000179                                                                                     
7PESE                                                                                000000000042000                            
50003610201208312012090300713107777476       PES0000023500A092002012083115280192                                                
6024600023500122440071310777747600055007557                                                                                     
7PESE                                                                                000000000023500                            
50003710201208312012090300714611040357       PES0000023500A091652012083114340332                                                
6024600023500122440071461104035700055007616                                                                                     
7PESE                                                                                000000000023500                            
50003810201208312012090300713914518779       PES0000023500A092202012083117070342                                                
6024600023500122440071391451877900055007484                                                                                     
7PESE                                                                                000000000023500                            
50003910201208312012090300713992323810       PES0000023500A092202012083117070343                                                
6024600023500122440071399232381000055007421                                                                                     
7PESE                                                                                000000000023500                            
50004010201208312012090300713820879536       PES0000023500A092202012083117080344                                                
6024600023500122440071382087953600055007416                                                                                     
7PESE                                                                                000000000023500                            
50004110201208312012090300714331239737       PES0000023500A092162012083112530206                                                
6024600023500122440071433123973700055007415                                                                                     
7PESE                                                                                000000000023500                            
50004210201208312012090300713917203677       PES0000023500A047802012083117440069                                                
6024600023500122440071391720367700055007642                                                                                     
7PESE                                                                                000000000023500                            
50004310201208312012090300714420572378       PES0000023500A025612012083113280155                                                
6024600023500122440071442057237800055007636                                                                                     
7PESE                                                                                000000000023500                            
50004410201208312012090300710232433349       PES0000023500A116962012083113520037                                                
6024600023500122440071023243334900055007178                                                                                     
7PESE                                                                                000000000023500                            
50004510201208312012090317030623884768       PES0000025000A112392012083116530060                                                
6024600025000122441703062388476800050007637                                                                                     
7PESE                                                                                000000000025000                            
50004610201208312012090300714745820200       PES0000008000A065362012083114460191                                                
6024600008000122440071474582020000010007263                                                                                     
7PESE                                                                                000000000008000                            
50004710201208312012090300713540073013       PES0000023500A065362012083114460192                                                
6024600023500122440071354007301300055007284                                                                                     
7PESE                                                                                000000000023500                            
50004810201208312012090300712718833480       PES0000023500A065362012083115050195                                                
6024600023500122440071271883348000055007500                                                                                     
7PESE                                                                                000000000023500                            
50004910201208312012090300714139269748       PES0000023500A065362012083117240281                                                
6024600023500122440071413926974800055007600                                                                                     
7PESE                                                                                000000000023500                            
50005010201208312012090300713540131134       PES0000023500A094372012083116160180                                                
6024600023500122440071354013113400055007663                                                                                     
7PESE                                                                                000000000023500                            
50005110201208312012090300713914741261       PES0000023500A099242012083115490132                                                
6024600023500122440071391474126100055007678                                                                                     
7PESE                                                                                000000000023500                            
50005210201208312012090300713229682359       PES0000023500A112852012083118250171                                                
6024600023500122440071322968235900055007600                                                                                     
7PESE                                                                                000000000023500                            
50005310201208312012090300713821989065       PES0000023500A102862012083118320157                                                
6024600023500122440071382198906500055007663                                                                                     
7PESE                                                                                000000000023500                            
50005410201208312012090300714236259920       PES0000023500A078942012083110240003                                                
6024600023500122440071423625992000055007590                                                                                     
7PESE                                                                                000000000023500                            
50005510201208312012090300712330565933       PES0000023500A099222012083117310201                                                
6024600023500122440071233056593300055007542                                                                                     
7PESE                                                                                000000000023500                            
50005610201208312012090300713825359723       PES0000023500A109712012083118030135                                                
6024600023500122440071382535972300055007684                                                                                     
7PESE                                                                                000000000023500                            
50005710201208312012090300713730861938       PES0000023500A109712012083118030136                                                
6024600023500122440071373086193800055007621                                                                                     
7PESE                                                                                000000000023500                            
50005810201208312012090300714328190946       PES0000023500A105242012083116560004                                                
6024600023500122440071432819094600055007499                                                                                     
7PESE                                                                                000000000023500                            
50005910201208312012090317031335070700       PES0000025000A066532012083112250056                                                
6024600025000122441703133507070000050007321                                                                                     
7PESE                                                                                000000000025000                            
50006010201208312012090317031614510381       PES0000025000A066532012083112250057                                                
6024600025000122441703161451038100050007378                                                                                     
7PESE                                                                                000000000025000                            
50006110201208312012090301320522887074       PES0000045000A047422012083111290078                                                
6024600045000122510132052288707400050000057                                                                                     
7PESE                                                                                000000000045000                            
50006210201208312012090301322227744149       PES0000045000A047422012083111300079                                                
6024600045000122510132222774414900050000037                                                                                     
7PESE                                                                                000000000045000                            
50006310201208312012090301320424372965       PES0000045000A613622012083118460063                                                
6024600045000122510132042437296500050000058                                                                                     
7PESE                                                                                000000000045000                            
50006410201208312012090300714139916309       PES0000023500A028962012083117150212                                                
6024600023500122440071413991630900055007490                                                                                     
7PESE                                                                                000000000023500                            
50006510201208312012090300711237891063       PES0000023500A028962012083117580251                                                
6024600023500122440071123789106300055007537                                                                                     
7PESE                                                                                000000000023500                            
50006610201208312012090300712524037065       PES0000023500A040462012083116310056                                                
6024600023500122440071252403706500055007078                                                                                     
7PESE                                                                                000000000023500                            
50006710201208312012090300713442237928       PES0000023500A109552012083115310002                                                
6024600023500122440071344223792800055007563                                                                                     
7PESE                                                                                000000000023500                            
50006810201208312012090300713442237929       PES0000023500A109552012083115310003                                                
6024600023500122440071344223792900055007599                                                                                     
7PESE                                                                                000000000023500                            
50006910201208312012090317030721786204       PES0000025000A110782012083118530022                                                
6024600025000122441703072178620400050007615                                                                                     
7PESE                                                                                000000000025000                            
50007010201208312012090300711430629516       PES0000023500A087742012083118210247                                                
6024600023500122440071143062951600055007600                                                                                     
7PESE                                                                                000000000023500                            
50007110201208312012090300711625296933       PES0000023500A063842012083115040167                                                
6024600023500122440071162529693300055007699                                                                                     
7PESE                                                                                000000000023500                            
50007210201208312012090317030623610462       PES0000025000A072322012083119440096                                                
6024600025000122441703062361046200050007600                                                                                     
7PESE                                                                                000000000025000                            
50007310201208312012090300713728985056       PES0000023500A065362012083119340015                                                
6024600023500122440071372898505600055007621                                                                                     
7PESE                                                                                000000000023500                            
50007410201208312012090300714333362482       PES0000023500A065362012083119340016                                                
6024600023500122440071433336248200055007636                                                                                     
7PESE                                                                                000000000023500                            
50007510201208312012090300711624963565       PES0000023500A081582012083112540007                                                
6024600023500122440071162496356500055007684                                                                                     
7PESE                                                                                000000000023500                            
50007610201208312012090300711625940274       PES0000023500A081582012083115420045                                                
6024600023500122440071162594027400055007636                                                                                     
7PESE                                                                                000000000023500                            
50007710201208312012090300713727714900       PES0000023500A075212012083116200055                                                
6024600023500122440071372771490000055007316                                                                                     
7PESE                                                                                000000000023500                            
50007810201208312012090300710827334654       PES0000023500A113802012083116290014                                                
6024600023500122440071082733465400055007299                                                                                     
7PESE                                                                                000000000023500                            
50007910201208312012090300712523585004       PES0000023500A060922012083112130033                                                
6024600023500122440071252358500400055007484                                                                                     
7PESE                                                                                000000000023500                            
50008010201208312012090300713730763528       PES0000023500A040232012083110490016                                                
6024600023500122440071373076352800055007542                                                                                     
7PESE                                                                                000000000023500                            
50008110201208312012090317030527518685       PES0000025000A107592012083119360168                                                
6024600025000122441703052751868500050000037                                                                                     
7PESE                                                                                000000000025000                            
50008210201208312012090300710732832811       PES0000023500A110442012083116230024                                                
6024600023500122440071073283281100055007542                                                                                     
7PESE                                                                                000000000023500                            
50008310201208312012090300714332267457       PES0000023500A034672012083119260087                                                
6024600023500122440071433226745700055007621                                                                                     
7PESE                                                                                000000000023500                            
50008410201208312012090300711431565598       PES0000023500A055202012083119060173                                                
6024600023500122440071143156559800055007536                                                                                     
7PESE                                                                                000000000023500                            
50008510201208312012090300712429311306       PES0000023500A076762012083116510011                                                
6024600023500122440071242931130600055007500                                                                                     
7PESE                                                                                000000000023500                            
50008610201208312012090300711820008690       PES0000023500A078632012083119040172                                                
6024600023500122440071182000869000055007615                                                                                     
7PESE                                                                                000000000023500                            
50008710201208312012090300712523175430       PES0000023500A095862012083115540042                                                
6024600023500122440071252317543000055007421                                                                                     
7PESE                                                                                000000000023500                            
50008810201208312012090300712621535732       PES0000023500A095862012083115550043                                                
6024600023500122440071262153573200055007400                                                                                     
7PESE                                                                                000000000023500                            
50008910201208312012090300710336501003       PES0000023500A114352012083115350067                                                
6024600023500122440071033650100300055007542                                                                                     
7PESE                                                                                000000000023500                            
50009010201208312012090300714333988708       PES0000023500A107892012083118540280                                                
6024600023500122440071433398870800055007479                                                                                     
7PESE                                                                                000000000023500                            
50009110201208312012090300711431113059       PES0000023500A069392012083112130037                                                
6024600023500122440071143111305900055007516                                                                                     
7PESE                                                                                000000000023500                            
50009210201208312012090300712524963426       PES0000023500D000502012083119210080                                                
6024600023500122440071252496342600055007690                                                                                     
7PESE                                                                                000000000023500                            
50009310201208312012090300711336786136       PES0000023500D001472012083118170130                                                
6024600023500122440071133678613600055007663                                                                                     
7PESE                                                                                000000000023500                            
50009410201208312012090300712330832000       PES0000023500A046512012083117220070                                                
6024600023500122440071233083200000055007616                                                                                     
7PESE                                                                                000000000023500                            
50009510201208312012090300713104568736       PES0000023500L070062012083119478963                                                
6024600023500122440071310456873600055007600                                                                                     
7PESE                                                                                000000000023500                            
50009610201208312012090317030337329520       PES0000025000L071252012083120155232                                                
6024600025000122441703033732952000050007679                                                                                     
7PESE                                                                                000000000025000                            
50009710201208312012090300710732800590       PES0000023500A082002012083112450003                                                
6024600023500122440071073280059000055007116                                                                                     
7PESE                                                                                000000000023500                            
50009810201208312012090300713822201180       PES0000023500A082002012083117270030                                                
6024600023500122440071382220118000055007679                                                                                     
7PESE                                                                                000000000023500                            
50009910201208312012090300714420522832       PES0000023500A082002012083119020057                                                
6024600023500122440071442052283200055007621                                                                                     
7PESE                                                                                000000000023500                            
50010010201208312012090300714420807080       PES0000023500A082002012083120300074                                                
6024600023500122440071442080708000055007484                                                                                     
7PESE                                                                                000000000023500                            
50010110201208312012090300713732064968       PES0000023500A082002012083120330075                                                
6024600023500122440071373206496800055007642                                                                                     
7PESE                                                                                000000000023500                            
50010210201208312012090300714327490822       PES0000023500A082002012083120340077                                                
6024600023500122440071432749082200055007416                                                                                     
7PESE                                                                                000000000023500                            
50010310201208312012090300713730531644       PES0000023500A082002012083121010080                                                
6024600023500122440071373053164400055007542                                                                                     
7PESE                                                                                000000000023500                            
50010410201208312012090300714746357339       PES0000008000M600752012083115210049                                                
6024600008000122440071474635733900010007300                                                                                     
7PESE                                                                                000000000008000                            
50010510201208312012090300713236877083       PES0000023500M600332012083115250049                                                
6024600023500122440071323687708300055007515                                                                                     
7PESE                                                                                000000000023500                            
50010610201208312012090300714236364926       PES0000023500M620102012083116510041                                                
6024600023500122440071423636492600055007515                                                                                     
7PESE                                                                                000000000023500                            
50010710201208312012090300712237177942       PES0000023500M620182012083116550102                                                
6024600023500122440071223717794200055007384                                                                                     
7PESE                                                                                000000000023500                            
50010810201208312012090300713728165726       PES0000023500M600222012083112560031                                                
6024600023500122440071372816572600055007599                                                                                     
7PESE                                                                                000000000023500                            
50010910201208312012090300711625440319       PES0000023500M600092012083112430058                                                
6024600023500122440071162544031900055007637                                                                                     
7PESE                                                                                000000000023500                            
50011010201208312012090300711625590000       PES0000023500M600092012083112430060                                                
6024600023500122440071162559000000055007600                                                                                     
7PESE                                                                                000000000023500                            
50011110201208312012090300711117818943       PES0000023500M640332012083109540001                                                
6024600023500122440071111781894300055007690                                                                                     
7PESE                                                                                000000000023500                            
50011210201208312012090317031428055570       PES0000025000M640052012083112030065                                                
6024600025000122441703142805557000050007699                                                                                     
7PESE                                                                                000000000025000                            
50011310201208312012090317030126379722       PES0000025000M640052012083112040066                                                
6024600025000122441703012637972200050007579                                                                                     
7PESE                                                                                000000000025000                            
50011410201209012012090301320617937280       PES0000045000A105082012083116320053                                                
6024600045000122490132061793728000050000084                                                                                     
7PESE                                                                                000000000045000                            
50011510201209012012090300713906360239       PES0000023500A036752012083110300007                                                
6024600023500122440071390636023900055007500                                                                                     
7PESE                                                                                000000000023500                            
50011610201209012012090300713731640344       PES0000029000A092222012090112160250                                                
6024600023500122440071373164034400055007690                                                                                     
7PESE                                                                                000000000029000                            
50011710201209012012090301320424422803       PES0000045000A104232012090110550027                                                
6024600045000122520132042442280300050000000                                                                                     
7PESE                                                                                000000000045000                            
50011810201209012012090399020220442739       PES0000022000A077352012090114360167                                                
6024600022000122519902022044273900000000163                                                                                     
7PESE                                                                                000000000022000                            
50011910201209022012090300712525442378       PES0000029000L070562012090210127987                                                
6024600029000122520071252544237800035000063                                                                                     
7PESE                                                                                000000000029000                            
82012090300000100001190000028910000000000000000000000000000000000000000000119                                                   
9201209030000010000119000002891000000000000000000000000000000000000000000000119                                                 
