120120203PAGO FACIL               090060246FABIAN NORBERTO D´ERAMO                                                              
320120203000001FABIAN NORBERTO D´ERAMO                                                                                          
50000110201202022012020301311520467658       PES0000097000A068722012020111420060                                                
6024600097000120390131152046765800000000042                                                                                     
7PESE                                                                                000000000097000                            
50000210201202022012020329070223643753       PES0000010000A107842012020212360221                                                
6024600010000120332907022364375300000000079                                                                                     
7PESE                                                                                000000000010000                            
50000310201202022012020329070224505742       PES0000010000A044492012020210360171                                                
6024600010000120332907022450574200000000037                                                                                     
7PESE                                                                                000000000010000                            
50000410201202022012020329070225041442       PES0000010000A070282012020211390161                                                
6024600010000120332907022504144200000000036                                                                                     
7PESE                                                                                000000000010000                            
50000510201202022012020329070228750422       PES0000010000A097432012020210050083                                                
6024600010000120332907022875042200000000036                                                                                     
7PESE                                                                                000000000010000                            
50000610201202022012020329070322304362       PES0000010000A037752012020215260018                                                
6024600010000120332907032230436200000000058                                                                                     
7PESE                                                                                000000000010000                            
50000710201202022012020329070414610704       PES0000010000A055272012020218150300                                                
6024600010000120332907041461070400000000000                                                                                     
7PESE                                                                                000000000010000                            
50000810201202022012020329070630592120       PES0000010000A097432012020210050084                                                
6024600010000120332907063059212000000000063                                                                                     
7PESE                                                                                000000000010000                            
50000910201202022012020329070726255384       PES0000010000A047422012020209210026                                                
6024600010000120332907072625538400000000063                                                                                     
7PESE                                                                                000000000010000                            
50001010201202022012020329070728936935       PES0000010000A097432012020210050082                                                
6024600010000120332907072893693500000000063                                                                                     
7PESE                                                                                000000000010000                            
50001110201202022012020329070817083459       PES0000010000L120142012020218580056                                                
6024600010000120332907081708345900000000090                                                                                     
7PESE                                                                                000000000010000                            
50001210201202022012020318370427688672       PES0000020000A601492012020211480015                                                
6024600020000120361837042768867200000000079                                                                                     
7PESE                                                                                000000000020000                            
50001310201202022012020300600518581134       PES0000029000A078112012020217110168                                                
6024600029000120400060051858113400000000063                                                                                     
7PESE                                                                                000000000029000                            
50001410201202022012020300600616317125       PES0000029000M600852012020213590257                                                
6024600029000120400060061631712500000000015                                                                                     
7PESE                                                                                000000000029000                            
50001510201202022012020399030227340271       PES0000037000A023702012020215250009                                                
6024600037000120389903022734027100035000216                                                                                     
7PESE                                                                                000000000037000                            
50001610201202022012020399030227925597       PES0000037000A100142012020209450030                                                
6024600037000120389903022792559700035000115                                                                                     
7PESE                                                                                000000000037000                            
50001710201202022012020399030233897409       PES0000037000A100452012020213160096                                                
6024600037000120389903023389740900035000163                                                                                     
7PESE                                                                                000000000037000                            
50001810201202022012020399030233912987       PES0000037000M600822012020213160058                                                
6024600037000120389903023391298700035000237                                                                                     
7PESE                                                                                000000000037000                            
50001910201202022012020301311326194526       PES0000097000A071542012020210150018                                                
6024600097000120390131132619452600000000042                                                                                     
7PESE                                                                                000000000097000                            
50002010201202022012020301311422599074       PES0000097000A068722012020212090071                                                
6024600097000120390131142259907400000000021                                                                                     
7PESE                                                                                000000000097000                            
50002110201202022012020301311423626239       PES0000097000A022832012020210210124                                                
6024600097000120390131142362623900000000063                                                                                     
7PESE                                                                                000000000097000                            
50002210201202022012020301311517935203       PES0000097000A068722012020212090072                                                
6024600097000120390131151793520300000000078                                                                                     
7PESE                                                                                000000000097000                            
50002310201202022012020301311521486409       PES0000097000A071652012020217430287                                                
6024600097000120390131152148640900000000063                                                                                     
7PESE                                                                                000000000097000                            
50002410201202022012020301311521745257       PES0000097000A086092012020217310013                                                
6024600097000120390131152174525700000000000                                                                                     
7PESE                                                                                000000000097000                            
50002510201202022012020301311522007408       PES0000097000D001502012020211300035                                                
6024600097000120390131152200740800000000058                                                                                     
7PESE                                                                                000000000097000                            
50002610201202022012020301311522257650       PES0000097000A064042012020210080117                                                
6024600097000120390131152225765000000000079                                                                                     
7PESE                                                                                000000000097000                            
50002710201202022012020301311810984196       PES0000097000A036052012020210160032                                                
6024600097000120390131181098419600000000084                                                                                     
7PESE                                                                                000000000097000                            
50002810201202022012020301311133772540       PES0000097000L070602012020218126054                                                
6024600097000120400131113377254000000000079                                                                                     
7PESE                                                                                000000000097000                            
50002910201202022012020301311228713015       PES0000097000A049692012020216530166                                                
6024600097000120400131122871301500000000036                                                                                     
7PESE                                                                                000000000097000                            
50003010201202022012020301311229341803       PES0000097000A076782012020212500099                                                
6024600097000120400131122934180300000000016                                                                                     
7PESE                                                                                000000000097000                            
50003110201202022012020301311423185264       PES0000097000M640372012020212270115                                                
6024600097000120400131142318526400000000057                                                                                     
7PESE                                                                                000000000097000                            
50003210201202022012020301311423918695       PES0000097000A060602012020218300255                                                
6024600097000120400131142391869500000000057                                                                                     
7PESE                                                                                000000000097000                            
50003310201202022012020301311521431554       PES0000097000A068912012020219430333                                                
6024600097000120400131152143155400000000084                                                                                     
7PESE                                                                                000000000097000                            
50003410201202022012020301311617023973       PES0000097000A054832012020209100038                                                
6024600097000120400131161702397300000000016                                                                                     
7PESE                                                                                000000000097000                            
50003510201202022012020301311617123456       PES0000097000A110392012020213460236                                                
6024600097000120400131161712345600000000057                                                                                     
7PESE                                                                                000000000097000                            
50003610201202022012020301311712145605       PES0000097000L070602012020218126055                                                
6024600097000120400131171214560500000000063                                                                                     
7PESE                                                                                000000000097000                            
50003710201202022012020323060734739929       PES0000121600A094472012020218240096                                                
6024600121600120392306073473992900000000042                                                                                     
7PESE                                                                                000000000121600                            
50003810201202022012020323061023229864       PES0000121600A091992012020216060258                                                
6024600121600120402306102322986400000000021                                                                                     
7PESE                                                                                000000000121600                            
50003910201202022012020323061323574556       PES0000136600A065832012020209150064                                                
6024600136600120402306132357455600000000058                                                                                     
7PESE                                                                                000000000136600                            
82012020300000100000390000025488000000000000000000000000000000000000000000039                                                   
9201202030000010000039000002548800000000000000000000000000000000000000000000039                                                 
