120130204PAGO FACIL               090060246FABIAN NORBERTO D´ERAMO                                                              
320130204000001FABIAN NORBERTO D´ERAMO                                                                                          
50000110201302012013020473010727538754       PES0000012000A660392013020110230048                                                
6024600010000130287301072753875400020007463                                                                                     
7PESE                                                                                000000000012000                            
50000210201302012013020473010228653394       PES0000012000A660392013020110230049                                                
6024600010000130287301022865339400020007321                                                                                     
7PESE                                                                                000000000012000                            
50000310201302012013020473011429392541       PES0000010000A052412013020108550034                                                
6024600010000130357301142939254100020000284                                                                                     
7PESE                                                                                000000000010000                            
50000410201302012013020473010326311256       PES0000012000A118842013020107590002                                                
6024600012000130357301032631125600020000300                                                                                     
7PESE                                                                                000000000012000                            
50000510201302012013020401341133788936       PES0000135000A085792013020110200036                                                
6024600135000130390134113378893600150000015                                                                                     
7PESE                                                                                000000000135000                            
50000610201302012013020429090223670411       PES0000015000A081382013020112340210                                                
6024600015000130322909022367041100000000084                                                                                     
7PESE                                                                                000000000015000                            
50000710201302012013020429090317589500       PES0000015000A113032013020112200158                                                
6024600015000130382909031758950000000000058                                                                                     
7PESE                                                                                000000000015000                            
50000810201302012013020401341231859989       PES0000135000A108892013020114180297                                                
6024600135000130390134123185998900150000078                                                                                     
7PESE                                                                                000000000135000                            
50000910201302012013020429090724313512       PES0000015000A091682013020114180208                                                
6024600015000130372909072431351200000000063                                                                                     
7PESE                                                                                000000000015000                            
50001010201302012013020402430811607668       PES0000040000A086882013020115060144                                                
6024600040000130340243081160766800075000000                                                                                     
7PESE                                                                                000000000040000                            
50001110201302012013020429090228749649       PES0000015000A091842013020114410217                                                
6024600015000130382909022874964900000000078                                                                                     
7PESE                                                                                000000000015000                            
50001210201302012013020402430618070149       PES0000040000A109842013020112330069                                                
6024600040000130350243061807014900075000021                                                                                     
7PESE                                                                                000000000040000                            
50001310201302012013020402430326708339       PES0000040000A109842013020116040207                                                
6024600040000130350243032670833900075000084                                                                                     
7PESE                                                                                000000000040000                            
50001410201302012013020401341521040260       PES0000135000D001712013020115550136                                                
6024600135000130390134152104026000150000084                                                                                     
7PESE                                                                                000000000135000                            
50001510201302012013020401341521707587       PES0000135000A109822013020114000026                                                
6024600135000130340134152170758700150000042                                                                                     
7PESE                                                                                000000000135000                            
50001610201302012013020499030133104324       PES0000047500A063352013020117260026                                                
6024600047500130389903013310432400035000199                                                                                     
7PESE                                                                                000000000047500                            
50001710201302012013020429091228601825       PES0000025000A062272013020118240036                                                
6024600025000130372909122860182500000000042                                                                                     
7PESE                                                                                000000000025000                            
50001810201302012013020473011433391322       PES0000010000A063742013020118170039                                                
6024600008000130287301143339132200020007521                                                                                     
7PESE                                                                                000000000010000                            
50001910201302012013020402432625330828       PES0000030000A117342013020118220297                                                
6024600030000130360243262533082800050000357                                                                                     
7PESE                                                                                000000000030000                            
50002010201302012013020401341423242915       PES0000135000D001392013020119520201                                                
6024600135000130370134142324291500150000021                                                                                     
7PESE                                                                                000000000135000                            
50002110201302012013020429090227086407       PES0000015000A078632013020118000151                                                
6024600015000130322909022708640700000000042                                                                                     
7PESE                                                                                000000000015000                            
50002210201302012013020429090729086342       PES0000015000A078632013020118000152                                                
6024600015000130322909072908634200000000057                                                                                     
7PESE                                                                                000000000015000                            
50002310201302012013020473010630309680       PES0000012000A052412013020118240087                                                
6024600012000130357301063030968000020000378                                                                                     
7PESE                                                                                000000000012000                            
50002410201302012013020402432623227644       PES0000030000A097872013020121080099                                                
6024600030000130360243262322764400050000000                                                                                     
7PESE                                                                                000000000030000                            
50002510201302012013020429090411615545       PES0000015000M600642013020113590130                                                
6024600015000130352909041161554500000000063                                                                                     
7PESE                                                                                000000000015000                            
50002610201302012013020402430423587351       PES0000040000M620142013020109330015                                                
6024600040000130360243042358735100075000116                                                                                     
7PESE                                                                                000000000040000                            
50002710201302012013020402430328070689       PES0000040000M620052013020110380013                                                
6024600040000130340243032807068900075000021                                                                                     
7PESE                                                                                000000000040000                            
50002810201302012013020401341328070689       PES0000135000M620052013020110380014                                                
6024600135000130340134132807068900150000036                                                                                     
7PESE                                                                                000000000135000                            
50002910201302012013020429091227803187       PES0000025000M620062013020116550042                                                
6024600025000130372909122780318700000000021                                                                                     
7PESE                                                                                000000000025000                            
50003010201302012013020429090726631188       PES0000015000M620062013020116560043                                                
6024600015000130372909072663118800000000057                                                                                     
7PESE                                                                                000000000015000                            
50003110201302012013020401340424518244       PES0000135000M620022013020109250009                                                
6024600135000130380134042451824400150000084                                                                                     
7PESE                                                                                000000000135000                            
50003210201302012013020473011116083826       PES0000012000A105032013020118390045                                                
6024600012000130357301111608382600020000499                                                                                     
7PESE                                                                                000000000012000                            
50003310201302012013020473010630710857       PES0000012000M660142013020112406092                                                
6024600012000130357301063071085700020000490                                                                                     
7PESE                                                                                000000000012000                            
50003410201302012013020429090224609916       PES0000015000L070362013020118416868                                                
6024600015000130382909022460991600000000099                                                                                     
7PESE                                                                                000000000015000                            
50003510201302022013020401341327388561       PES0000135000A057862013020211290106                                                
6024600135000130400134132738856100150000016                                                                                     
7PESE                                                                                000000000135000                            
50003610201302022013020401341329261317       PES0000135000A088292013020208230006                                                
6024600135000130390134132926131700150000057                                                                                     
7PESE                                                                                000000000135000                            
50003710201302022013020402430617981233       PES0000040000A099952013020210250020                                                
6024600040000130360243061798123300075000137                                                                                     
7PESE                                                                                000000000040000                            
50003810201302022013020499030134556684       PES0000047500D001722013020211520110                                                
6024600047500130389903013455668400035000257                                                                                     
7PESE                                                                                000000000047500                            
50003910201302022013020402432717538269       PES0000030000A091192013020210260099                                                
6024600030000130360243271753826900050000358                                                                                     
7PESE                                                                                000000000030000                            
50004010201302022013020401341328489435       PES0000135000A102012013020219470332                                                
6024600135000130370134132848943500150000000                                                                                     
7PESE                                                                                000000000135000                            
50004110201302022013020473010631683714       PES0000012000A101142013020210490011                                                
6024600012000130357301063168371400020000421                                                                                     
7PESE                                                                                000000000012000                            
50004210201302022013020402430134223826       PES0000040000A103902013020220370162                                                
6024600040000130360243013422382600075000221                                                                                     
7PESE                                                                                000000000040000                            
50004310201302022013020473010631399874       PES0000012000M760002013020210410017                                                
6024600012000130357301063139987400020000142                                                                                     
7PESE                                                                                000000000012000                            
50004410201302022013020401341811526718       PES0000135000L070532013020212240569                                                
6024600135000130390134181152671800150000000                                                                                     
7PESE                                                                                000000000135000                            
50004510201302022013020473010726355325       PES0000012000L120032013020218096713                                                
6024600012000130357301072635532500020000457                                                                                     
7PESE                                                                                000000000012000                            
50004610201302032013020473010824106002       PES0000012000A079712013020320560275                                                
6024600012000130357301082410600200020000121                                                                                     
7PESE                                                                                000000000012000                            
82013020400000100000460000022750000000000000000000000000000000000000000000046                                                   
9201302040000010000046000002275000000000000000000000000000000000000000000000046                                                 
