120121204PAGO FACIL               090060246FABIAN NORBERTO D´ERAMO                                                              
320121204000001FABIAN NORBERTO D´ERAMO                                                                                          
50000110201212032012120488880000000086       PES0000001500A075812012120316540250                                                
6024600001500123388888000000008600000000000                                                                                     
7PESE                                                                                000000000001500                            
50000210201212032012120459010324765078       PES0000011000A100022012120317590311                                                
6024600011000123425901032476507800000000000                                                                                     
7PESE                                                                                000000000011000                            
50000310201212032012120459010324785282       PES0000011000A090422012120319330058                                                
6024600011000123445901032478528200000000000                                                                                     
7PESE                                                                                000000000011000                            
50000410201212032012120459010325016773       PES0000011000A082002012120310480085                                                
6024600011000123445901032501677300000000037                                                                                     
7PESE                                                                                000000000011000                            
50000510201212032012120429080411097434       PES0000018000M600112012120313570228                                                
6024600015000123352908041109743400030007763                                                                                     
7PESE                                                                                000000000018000                            
50000610201212032012120429080820712126       PES0000018000A055332012120313450052                                                
6024600018000123452908082071212600000000063                                                                                     
7PESE                                                                                000000000018000                            
50000710201212032012120402422241138293       PES0000022000A601492012120312330018                                                
6024600022000123400242224113829300060000221                                                                                     
7PESE                                                                                000000000022000                            
50000810201212032012120402422811623336       PES0000022000A010432012120314150134                                                
6024600022000123400242281162333600060000584                                                                                     
7PESE                                                                                000000000022000                            
50000910201212032012120402423423403378       PES0000022000A601492012120312330019                                                
6024600022000123400242342340337800060000242                                                                                     
7PESE                                                                                000000000022000                            
50001010201212032012120400770731096624       PES0000028500A082002012120309490042                                                
6024600025500123350077073109662400030007700                                                                                     
7PESE                                                                                000000000028500                            
50001110201212032012120400774236091977       PES0000028500A092032012120315340264                                                
6024600025500123350077423609197700030007779                                                                                     
7PESE                                                                                000000000028500                            
50001210201212032012120400770829037060       PES0000028500A113852012120310370125                                                
6024600028500123430077082903706000000000016                                                                                     
7PESE                                                                                000000000028500                            
50001310201212032012120400772525299528       PES0000028500M601652012120313540245                                                
6024600028500123450077252529952800000000090                                                                                     
7PESE                                                                                000000000028500                            
50001410201212032012120400774425726727       PES0000028500A620602012120317350037                                                
6024600028500123450077442572672700000000063                                                                                     
7PESE                                                                                000000000028500                            
50001510201212032012120499040130668939       PES0000029000A600372012120311080016                                                
6024600029000123429904013066893900015000363                                                                                     
7PESE                                                                                000000000029000                            
50001610201212032012120499040137905221       PES0000029000A116272012120314400048                                                
6024600029000123429904013790522100015000342                                                                                     
7PESE                                                                                000000000029000                            
50001710201212032012120402420692494515       PES0000032000A119482012120313130082                                                
6024600032000123390242069249451500080000021                                                                                     
7PESE                                                                                000000000032000                            
50001810201212032012120402420233586673       PES0000032000A600722012120315330130                                                
6024600032000123400242023358667300080000500                                                                                     
7PESE                                                                                000000000032000                            
50001910201212032012120402420326708339       PES0000032000A056902012120312030092                                                
6024600032000123400242032670833900080000284                                                                                     
7PESE                                                                                000000000032000                            
50002010201212032012120402420521851864       PES0000032000A601492012120312330017                                                
6024600032000123400242052185186400080000242                                                                                     
7PESE                                                                                000000000032000                            
50002110201212032012120402420522349776       PES0000032000A062782012120310180050                                                
6024600032000123400242052234977600080000590                                                                                     
7PESE                                                                                000000000032000                            
50002210201212032012120402420522549533       PES0000032000A071232012120314190278                                                
6024600032000123400242052254953300080000463                                                                                     
7PESE                                                                                000000000032000                            
50002310201212032012120402420523102924       PES0000032000D001642012120311280157                                                
6024600032000123400242052310292400080000221                                                                                     
7PESE                                                                                000000000032000                            
50002410201212032012120499030132431889       PES0000043000A104162012120317170233                                                
6024600043000123429903013243188900035000342                                                                                     
7PESE                                                                                000000000043000                            
50002510201212032012120499030134617181       PES0000043000A023032012120318420098                                                
6024600043000123429903013461718100035000000                                                                                     
7PESE                                                                                000000000043000                            
50002610201212032012120499030134600312       PES0000049000A104232012120318300180                                                
6024600049000123369903013460031200000000000                                                                                     
7PESE                                                                                000000000049000                            
50002710201212032012120499100134929847       PES0000150000A090722012120312390355                                                
6024600150000123459910013492984700000000058                                                                                     
7PESE                                                                                000000000150000                            
50002810201212032012120499100136044247       PES0000150000A010562012120317570270                                                
6024600150000123459910013604424700000000016                                                                                     
7PESE                                                                                000000000150000                            
50002910201212032012120499100137110422       PES0000150000A010432012120314040128                                                
6024600150000123459910013711042200000000090                                                                                     
7PESE                                                                                000000000150000                            
50003010201212032012120499100137206177       PES0000150000A109282012120315140038                                                
6024600150000123459910013720617700000000063                                                                                     
7PESE                                                                                000000000150000                            
82012120400000100000300000012960000000000000000000000000000000000000000000030                                                   
9201212040000010000030000001296000000000000000000000000000000000000000000000030                                                 
