120110804PAGO FACIL               090060246FABIAN NORBERTO D´ERAMO                                                              
320110804000001FABIAN NORBERTO D´ERAMO                                                                                          
50000110201108032011080400504740910926       PES0000007000A092012011080309510032                                                
6024600007000112220050474091092600015000021                                                                                     
7PESE                                                                                000000000007000                            
50000210201108032011080400504744594800       PES0000007000A092012011080309510033                                                
6024600007000112220050474459480000015000058                                                                                     
7PESE                                                                                000000000007000                            
50000310201108032011080417021224317794       PES0000016000A640132011080311460010                                                
6024600016000112201702122431779400040000084                                                                                     
7PESE                                                                                000000000016000                            
50000410201108032011080417021316271698       PES0000016000A640132011080311460009                                                
6024600016000112201702131627169800040000042                                                                                     
7PESE                                                                                000000000016000                            
50000510201108032011080417021006309164       PES0000016000A640842011080311500067                                                
6024600016000112211702100630916400040000036                                                                                     
7PESE                                                                                000000000016000                            
50000610201108032011080417021133839343       PES0000016000A640132011080311450008                                                
6024600016000112211702113383934300040000015                                                                                     
7PESE                                                                                000000000016000                            
50000710201108032011080417020426816615       PES0000016000A640842011080311490066                                                
6024600016000112221702042681661500040000000                                                                                     
7PESE                                                                                000000000016000                            
50000810201108032011080400540335398990       PES0000017500D000232011080312310028                                                
6024600017500112220054033539899000015000084                                                                                     
7PESE                                                                                000000000017500                            
50000910201108032011080400502524755409       PES0000019500A036052011080314320161                                                
6024600019500112200050252475540900050000057                                                                                     
7PESE                                                                                000000000019500                            
50001010201108032011080400502717100275       PES0000019500A077372011080313440249                                                
6024600019500112200050271710027500050000021                                                                                     
7PESE                                                                                000000000019500                            
50001110201108032011080400503108093434       PES0000019500A066592011080312250144                                                
6024600019500112200050310809343400050000021                                                                                     
7PESE                                                                                000000000019500                            
50001210201108032011080400502523377238       PES0000019500M600092011080312250104                                                
6024600019500112210050252337723800050000042                                                                                     
7PESE                                                                                000000000019500                            
50001310201108032011080400502136877083       PES0000019500A046112011080311490135                                                
6024600019500112220050213687708300050000099                                                                                     
7PESE                                                                                000000000019500                            
50001410201108032011080400502718028143       PES0000019500A092012011080309510030                                                
6024600019500112220050271802814300050000037                                                                                     
7PESE                                                                                000000000019500                            
50001510201108032011080400503440910926       PES0000019500A092012011080309510031                                                
6024600019500112220050344091092600050000058                                                                                     
7PESE                                                                                000000000019500                            
50001610201108032011080499030232638684       PES0000028000A089362011080309420014                                                
6024600028000112199903023263868400028000336                                                                                     
7PESE                                                                                000000000028000                            
50001710201108032011080499030234722750       PES0000035000A103582011080312440147                                                
6024600035000112199903023472275000035000284                                                                                     
7PESE                                                                                000000000035000                            
50001810201108032011080499030235398990       PES0000035000D000232011080312310029                                                
6024600035000112199903023539899000035000342                                                                                     
7PESE                                                                                000000000035000                            
82011080400000100000180000003460000000000000000000000000000000000000000000018                                                   
9201108040000010000018000000346000000000000000000000000000000000000000000000018                                                 
