120121004PAGO FACIL               090060246FABIAN NORBERTO D´ERAMO                                                              
320121004000001FABIAN NORBERTO D´ERAMO                                                                                          
50000110201210032012100444020526169147       PES0000008500A032962012100312220038                                                
6024600008500122834402052616914700000000099                                                                                     
7PESE                                                                                000000000008500                            
50000210201210032012100400714743820008       PES0000011500A033472012100317430077                                                
6024600009000122740071474382000800025007378                                                                                     
7PESE                                                                                000000000011500                            
50000310201210032012100471001016639732       PES0000013000A090572012100313410357                                                
6024600013000122807100101663973200000000058                                                                                     
7PESE                                                                                000000000013000                            
50000410201210032012100471000217226697       PES0000013000A090572012100313410358                                                
6024600013000122817100021722669700000000063                                                                                     
7PESE                                                                                000000000013000                            
50000510201210032012100465000130131807       PES0000013000A088992012100316280054                                                
6024600013000122836500013013180700015000058                                                                                     
7PESE                                                                                000000000013000                            
50000610201210032012100465000220250931       PES0000013000A014642012100314450111                                                
6024600013000122836500022025093100015000016                                                                                     
7PESE                                                                                000000000013000                            
50000710201210032012100465000616231658       PES0000013000A085422012100312000215                                                
6024600013000122836500061623165800015000000                                                                                     
7PESE                                                                                000000000013000                            
50000810201210032012100465000131176791       PES0000013000A088992012100316280053                                                
6024600013000122846500013117679100015000063                                                                                     
7PESE                                                                                000000000013000                            
50000910201210032012100465000224171180       PES0000013000D000772012100316440408                                                
6024600013000122846500022417118000015000000                                                                                     
7PESE                                                                                000000000013000                            
50001010201210032012100418400429343288       PES0000015000L120212012100310570973                                                
6024600015000122771840042934328800100000099                                                                                     
7PESE                                                                                000000000015000                            
50001110201210032012100498010133677179       PES0000015000A049452012100314180005                                                
6024600015000122829801013367717900000000021                                                                                     
7PESE                                                                                000000000015000                            
50001210201210032012100469013010428619       PES0000015000D000332012100312200151                                                
6024600015000122836901301042861900025000000                                                                                     
7PESE                                                                                000000000015000                            
50001310201210032012100468000592537800       PES0000016000A111402012100316190082                                                
6024600016000122846800059253780000000000000                                                                                     
7PESE                                                                                000000000016000                            
50001410201210032012100400753010428619       PES0000022500D000332012100312200150                                                
6024600022500122830075301042861900020000016                                                                                     
7PESE                                                                                000000000022500                            
50001510201210032012100499040128324126       PES0000029000A035802012100312530188                                                
6024600029000122819904012832412600015000321                                                                                     
7PESE                                                                                000000000029000                            
50001610201210032012100400711624567150       PES0000032500A102662012100308120001                                                
6024600032500122820071162456715000000000000                                                                                     
7PESE                                                                                000000000032500                            
50001710201210032012100400711736090417       PES0000032500L070782012100311446389                                                
6024600032500122820071173609041700000000058                                                                                     
7PESE                                                                                000000000032500                            
50001810201210032012100400711623967493       PES0000032500A112632012100311120035                                                
6024600032500122830071162396749300000000036                                                                                     
7PESE                                                                                000000000032500                            
50001910201210032012100400713913824407       PES0000032500A620262012100310520021                                                
6024600032500122830071391382440700000000042                                                                                     
7PESE                                                                                000000000032500                            
50002010201210032012100400714425933041       PES0000032500A077352012100310530149                                                
6024600032500122830071442593304100000000090                                                                                     
7PESE                                                                                000000000032500                            
50002110201210032012100400722531533830       PES0000035000A077352012100310100122                                                
6024600035000122770072253153383000025000084                                                                                     
7PESE                                                                                000000000035000                            
50002210201210032012100499030134556684       PES0000043000A016922012100309200039                                                
6024600043000122819903013455668400035000158                                                                                     
7PESE                                                                                000000000043000                            
50002310201210032012100499030136808106       PES0000043000A092022012100309410040                                                
6024600043000122819903013680810600035000315                                                                                     
7PESE                                                                                000000000043000                            
50002410201210032012100499030138071739       PES0000043000A081272012100311540104                                                
6024600043000122819903013807173900035000263                                                                                     
7PESE                                                                                000000000043000                            
50002510201210032012100400720329278871       PES0000046500A038202012100318460204                                                
6024600046500122790072032927887100010000121                                                                                     
7PESE                                                                                000000000046500                            
50002610201210032012100400720329684489       PES0000046500M601842012100311570090                                                
6024600046500122790072032968448900010000400                                                                                     
7PESE                                                                                000000000046500                            
50002710201210032012100400720426251012       PES0000046500M601842012100311570089                                                
6024600046500122790072042625101200010000363                                                                                     
7PESE                                                                                000000000046500                            
50002810201210032012100400720522293901       PES0000046500D000132012100314400108                                                
6024600046500122790072052229390100010000342                                                                                     
7PESE                                                                                000000000046500                            
50002910201210032012100400720618151137       PES0000046500A031182012100312420091                                                
6024600046500122790072061815113700010000042                                                                                     
7PESE                                                                                000000000046500                            
50003010201210032012100400720714614712       PES0000046500A601492012100312020099                                                
6024600046500122790072071461471200010000399                                                                                     
7PESE                                                                                000000000046500                            
82012100400000100000300000008290000000000000000000000000000000000000000000030                                                   
9201210040000010000030000000829000000000000000000000000000000000000000000000030                                                 
