120110705PAGO FACIL               090060246FABIAN NORBERTO D´ERAMO                                                              
320110705000001FABIAN NORBERTO D´ERAMO                                                                                          
50000110201107042011070599030228361121       PES0000035000A043162011070410190015                                                
6024600035000111889903022836112100035000499                                                                                     
7PESE                                                                                000000000035000                            
50000210201107042011070599030234722750       PES0000035000M601132011070416120274                                                
6024600035000111889903023472275000035000121                                                                                     
7PESE                                                                                000000000035000                            
50000310201107042011070599030236399286       PES0000035000A028382011070412450183                                                
6024600035000111889903023639928600035000316                                                                                     
7PESE                                                                                000000000035000                            
82011070500000100000030000001050000000000000000000000000000000000000000000003                                                   
9201107050000010000003000000105000000000000000000000000000000000000000000000003                                                 
