120110805PAGO FACIL               090060246FABIAN NORBERTO D´ERAMO                                                              
320110805000001FABIAN NORBERTO D´ERAMO                                                                                          
50000110201108042011080500501914664563       PES0000017550M660142011080411195068                                                
6024600017550112200050191466456300045500078                                                                                     
7PESE                                                                                000000000017550                            
50000210201108042011080500502522356863       PES0000017550M660142011080411175065                                                
6024600017550112200050252235686300045500063                                                                                     
7PESE                                                                                000000000017550                            
50000310201108042011080500502620630417       PES0000017550M660142011080411185067                                                
6024600017550112200050262063041700045500036                                                                                     
7PESE                                                                                000000000017550                            
50000410201108042011080500502622386531       PES0000017550M660142011080411185066                                                
6024600017550112200050262238653100045500037                                                                                     
7PESE                                                                                000000000017550                            
50000510201108042011080500502812507511       PES0000017550M660142011080411205069                                                
6024600017550112200050281250751100045500084                                                                                     
7PESE                                                                                000000000017550                            
50000610201108042011080502315516379521       PES0000018500A022842011080417180052                                                
6024600018500112180231551637952100000000037                                                                                     
7PESE                                                                                000000000018500                            
50000710201108042011080502315522501146       PES0000018500A022842011080417180051                                                
6024600018500112180231552250114600000000042                                                                                     
7PESE                                                                                000000000018500                            
50000810201108042011080598030431344778       PES0000019500A095702011080417320163                                                
6024600019500112199803043134477800020000257                                                                                     
7PESE                                                                                000000000019500                            
50000910201108042011080500501240131134       PES0000019500A090002011080418590186                                                
6024600019500112200050124013113400050000058                                                                                     
7PESE                                                                                000000000019500                            
50001010201108042011080500501918641474       PES0000019500A091772011080414580288                                                
6024600019500112200050191864147400050000084                                                                                     
7PESE                                                                                000000000019500                            
50001110201108042011080500502328741842       PES0000019500A042592011080413120002                                                
6024600019500112200050232874184200050000084                                                                                     
7PESE                                                                                000000000019500                            
50001210201108042011080500504041325380       PES0000019500A082852011080419430176                                                
6024600019500112200050404132538000050000000                                                                                     
7PESE                                                                                000000000019500                            
50001310201108042011080500502425803247       PES0000019500M601652011080412320142                                                
6024600019500112220050242580324700050000000                                                                                     
7PESE                                                                                000000000019500                            
50001410201108042011080500502525537779       PES0000019500A042332011080413560157                                                
6024600019500112230050252553777900050000063                                                                                     
7PESE                                                                                000000000019500                            
50001510201108042011080500502622400736       PES0000019500A104982011080412010050                                                
6024600019500112230050262240073600050000084                                                                                     
7PESE                                                                                000000000019500                            
50001610201108042011080502310428686874       PES0000024500A073132011080410420007                                                
6024600024500112180231042868687400000000063                                                                                     
7PESE                                                                                000000000024500                            
50001710201108042011080500520437687109       PES0000027000D000522011080417360141                                                
6024600027000112180052043768710900000000021                                                                                     
7PESE                                                                                000000000027000                            
50001810201108042011080500520629118793       PES0000027000A095502011080413450273                                                
6024600027000112180052062911879300000000063                                                                                     
7PESE                                                                                000000000027000                            
50001910201108042011080500520631375809       PES0000027000L120202011080413071581                                                
6024600027000112180052063137580900000000079                                                                                     
7PESE                                                                                000000000027000                            
50002010201108042011080500520836930622       PES0000027000A059932011080417360097                                                
6024600027000112180052083693062200000000036                                                                                     
7PESE                                                                                000000000027000                            
50002110201108042011080599030233857579       PES0000035000A105642011080413130092                                                
6024600035000112199903023385757900035000300                                                                                     
7PESE                                                                                000000000035000                            
50002210201108042011080599030234137506       PES0000035000A105642011080413140093                                                
6024600035000112199903023413750600035000284                                                                                     
7PESE                                                                                000000000035000                            
50002310201108042011080599030235755195       PES0000035000A051312011080415440064                                                
6024600035000112199903023575519500035000490                                                                                     
7PESE                                                                                000000000035000                            
50002410201108042011080599030237376363       PES0000035000M601132011080412280059                                                
6024600035000112199903023737636300035000400                                                                                     
7PESE                                                                                000000000035000                            
82011080500000100000240000005532500000000000000000000000000000000000000000024                                                   
9201108050000010000024000000553250000000000000000000000000000000000000000000024                                                 
