120110905PAGO FACIL               090060246FABIAN NORBERTO D´ERAMO                                                              
320110905000001FABIAN NORBERTO D´ERAMO                                                                                          
50000110201109022011090501280520727422       PES0000036500A620812011090211030127                                                
6024600036500112520128052072742200000000079                                                                                     
7PESE                                                                                000000000036500                            
50000210201109022011090500540435398990       PES0000017500A090572011090212160165                                                
6024600017500112500054043539899000015000021                                                                                     
7PESE                                                                                000000000017500                            
50000310201109022011090599030235398990       PES0000035000A090572011090212160166                                                
6024600035000112509903023539899000035000078                                                                                     
7PESE                                                                                000000000035000                            
50000410201109022011090500504513237436       PES0000024500A091122011090213010116                                                
6024600019500112430050451323743600050007600                                                                                     
7PESE                                                                                000000000024500                            
50000510201109022011090501280230247308       PES0000036500A105632011090210470030                                                
6024600036500112510128023024730800000000042                                                                                     
7PESE                                                                                000000000036500                            
50000610201109022011090500504421924707       PES0000024500A600902011090210030002                                                
6024600024500112510050442192470700030000037                                                                                     
7PESE                                                                                000000000024500                            
50000710201109022011090599030232638684       PES0000028000A101842011090218410037                                                
6024600028000112509903023263868400028000236                                                                                     
7PESE                                                                                000000000028000                            
50000810201109022011090501282137597042       PES0000036500A002372011090216490160                                                
6024600036500112450128213759704200000000057                                                                                     
7PESE                                                                                000000000036500                            
50000910201109022011090500520621901661       PES0000027000A106782011090218270038                                                
6024600027000112460052062190166100000000036                                                                                     
7PESE                                                                                000000000027000                            
50001010201109022011090501280712781049       PES0000036500A090932011090217150015                                                
6024600036500112520128071278104900000000042                                                                                     
7PESE                                                                                000000000036500                            
50001110201109022011090501280230191506       PES0000036500A106992011090212030058                                                
6024600036500112510128023019150600000000084                                                                                     
7PESE                                                                                000000000036500                            
50001210201109022011090599030234722750       PES0000035000M601132011090215380202                                                
6024600035000112509903023472275000035000221                                                                                     
7PESE                                                                                000000000035000                            
50001310201109022011090501280424347366       PES0000036500M620142011090212180037                                                
6024600036500112510128042434736600000000099                                                                                     
7PESE                                                                                000000000036500                            
50001410201109032011090501282220467658       PES0000036500A068722011090312040026                                                
6024600036500112530128222046765800000000016                                                                                     
7PESE                                                                                000000000036500                            
50001510201109032011090500500923344525       PES0000024500A084152011090311470030                                                
6024600024500112510050092334452500030000042                                                                                     
7PESE                                                                                000000000024500                            
50001610201109032011090501280518295174       PES0000036500A074942011090312230094                                                
6024600036500112490128051829517400000000000                                                                                     
7PESE                                                                                000000000036500                            
50001710201109032011090599030234229591       PES0000035000A059812011090311460033                                                
6024600035000112509903023422959100035000284                                                                                     
7PESE                                                                                000000000035000                            
50001810201109032011090501280425044083       PES0000036500A025172011090317330076                                                
6024600036500112470128042504408300000000042                                                                                     
7PESE                                                                                000000000036500                            
50001910201109032011090501280520273520       PES0000036500M601652011090310020002                                                
6024600036500112470128052027352000000000078                                                                                     
7PESE                                                                                000000000036500                            
50002010201109032011090501280522276978       PES0000036500M601652011090310030003                                                
6024600036500112500128052227697800000000042                                                                                     
7PESE                                                                                000000000036500                            
50002110201109032011090500504425529027       PES0000024500M601312011090310550018                                                
6024600024500112510050442552902700030000042                                                                                     
7PESE                                                                                000000000024500                            
50002210201109042011090500502716791857       PES0000024500D000512011090419470229                                                
6024600024500112530050271679185700030000021                                                                                     
7PESE                                                                                000000000024500                            
82011090500000100000220000007015000000000000000000000000000000000000000000022                                                   
9201109050000010000022000000701500000000000000000000000000000000000000000000022                                                 
