120111005PAGO FACIL               090060246FABIAN NORBERTO D´ERAMO                                                              
320111005000001FABIAN NORBERTO D´ERAMO                                                                                          
50000110201110042011100500531326939107       PES0000023100A093412011100411000075                                                
6024600023100112800053132693910700006000042                                                                                     
7PESE                                                                                000000000023100                            
50000210201110042011100500502136944924       PES0000027500A042062011100416090097                                                
6024600024500112730050213694492400030007321                                                                                     
7PESE                                                                                000000000027500                            
50000310201110042011100500503729523477       PES0000027500A046092011100415420067                                                
6024600024500112730050372952347700030007715                                                                                     
7PESE                                                                                000000000027500                            
50000410201110042011100500501528191193       PES0000027500D000482011100414450192                                                
6024600027500112830050152819119300000000000                                                                                     
7PESE                                                                                000000000027500                            
50000510201110042011100500501913214021       PES0000027500A079552011100408570063                                                
6024600027500112830050191321402100000000063                                                                                     
7PESE                                                                                000000000027500                            
50000610201110042011100599030232638684       PES0000028000D000592011100413470058                                                
6024600028000112809903023263868400028000400                                                                                     
7PESE                                                                                000000000028000                            
50000710201110042011100500532811162713       PES0000029000A036052011100414530136                                                
6024600029000112780053281116271300020000042                                                                                     
7PESE                                                                                000000000029000                            
50000810201110042011100599030235398990       PES0000035000A090562011100416300271                                                
6024600035000112809903023539899000035000416                                                                                     
7PESE                                                                                000000000035000                            
50000910201110042011100599030235755195       PES0000035000A051312011100416120218                                                
6024600035000112809903023575519500035000437                                                                                     
7PESE                                                                                000000000035000                            
50001010201110042011100599030236943330       PES0000035000A088552011100416290077                                                
6024600035000112809903023694333000035000499                                                                                     
7PESE                                                                                000000000035000                            
82011100500000100000100000002951000000000000000000000000000000000000000000010                                                   
9201110050000010000010000000295100000000000000000000000000000000000000000000010                                                 
