120120705PAGO FACIL               090060246FABIAN NORBERTO D´ERAMO                                                              
320120705000001FABIAN NORBERTO D´ERAMO                                                                                          
50000110201207042012070559001318598577       PES0000016000L070502012070419441588                                                
6024600016000121925900131859857700000000021                                                                                     
7PESE                                                                                000000000016000                            
50000210201207042012070559000613919372       PES0000016000A113792012070419170110                                                
6024600016000121935900061391937200000000084                                                                                     
7PESE                                                                                000000000016000                            
50000310201207042012070599040110849285       PES0000029000A076782012070418170149                                                
6024600029000121899904011084928500015000415                                                                                     
7PESE                                                                                000000000029000                            
50000410201207042012070599040137905221       PES0000029000A090512012070414190295                                                
6024600029000121899904013790522100015000484                                                                                     
7PESE                                                                                000000000029000                            
50000510201207042012070599030126562585       PES0000043000A085342012070413490133                                                
6024600043000121899903012656258500035000416                                                                                     
7PESE                                                                                000000000043000                            
50000610201207042012070599030136808106       PES0000043000A034162012070418590240                                                
6024600043000121899903013680810600035000215                                                                                     
7PESE                                                                                000000000043000                            
82012070500000100000060000001760000000000000000000000000000000000000000000006                                                   
9201207050000010000006000000176000000000000000000000000000000000000000000000006                                                 
