120120206PAGO FACIL               090060246FABIAN NORBERTO D´ERAMO                                                              
320120206000001FABIAN NORBERTO D´ERAMO                                                                                          
50000110201202032012020601311713908389       PES0000097000A037752012020310070119                                                
6024600097000120410131171390838900000000063                                                                                     
7PESE                                                                                000000000097000                            
50000210201202032012020600682525144420       PES0000013300A018912012020313010288                                                
6024600013300120390068252514442000014000099                                                                                     
7PESE                                                                                000000000013300                            
50000310201202032012020601311233261186       PES0000097000A098212012020316150276                                                
6024600097000120390131123326118600000000063                                                                                     
7PESE                                                                                000000000097000                            
50000410201202032012020699030233896263       PES0000037000A091052012020315590229                                                
6024600037000120389903023389626300035000357                                                                                     
7PESE                                                                                000000000037000                            
50000510201202032012020699030235755195       PES0000037000A109282012020314580174                                                
6024600037000120389903023575519500035000200                                                                                     
7PESE                                                                                000000000037000                            
50000610201202032012020618370523214014       PES0000020000A091772012020311420177                                                
6024600020000120401837052321401400000000000                                                                                     
7PESE                                                                                000000000020000                            
50000710201202032012020601311425095179       PES0000097000A041372012020317060411                                                
6024600097000120410131142509517900000000099                                                                                     
7PESE                                                                                000000000097000                            
50000810201202032012020699030232638684       PES0000037000A096252012020317410099                                                
6024600037000120389903023263868400035000336                                                                                     
7PESE                                                                                000000000037000                            
50000910201202032012020601311422548447       PES0000097000A109902012020316280223                                                
6024600097000120410131142254844700000000057                                                                                     
7PESE                                                                                000000000097000                            
50001010201202032012020623061929064900       PES0000136600A046692012020317140343                                                
6024600136600120402306192906490000000000036                                                                                     
7PESE                                                                                000000000136600                            
50001110201202032012020601310520403768       PES0000097000A072352012020317250050                                                
6024600097000120400131052040376800000000021                                                                                     
7PESE                                                                                000000000097000                            
50001210201202032012020601311521957159       PES0000097000A009562012020317340057                                                
6024600097000120400131152195715900000000063                                                                                     
7PESE                                                                                000000000097000                            
50001310201202032012020618372430460535       PES0000020000A107402012020309290007                                                
6024600020000120371837243046053500000000084                                                                                     
7PESE                                                                                000000000020000                            
50001410201202032012020601311326311658       PES0000097000A061472012020318200136                                                
6024600097000120410131132631165800000000084                                                                                     
7PESE                                                                                000000000097000                            
50001510201202032012020698010129764622       PES0000010000A017262012020317480133                                                
6024600010000120419801012976462200000000063                                                                                     
7PESE                                                                                000000000010000                            
50001610201202032012020601311422944434       PES0000097000A085792012020319040163                                                
6024600097000120410131142294443400000000084                                                                                     
7PESE                                                                                000000000097000                            
50001710201202032012020601311327311770       PES0000097000M601652012020312180113                                                
6024600097000120390131132731177000000000036                                                                                     
7PESE                                                                                000000000097000                            
50001810201202032012020699030236399286       PES0000037000M810002012020308490014                                                
6024600037000120389903023639928600035000284                                                                                     
7PESE                                                                                000000000037000                            
50001910201202032012020600602213612745       PES0000037000L071192012020319348556                                                
6024600037000120400060221361274500000000021                                                                                     
7PESE                                                                                000000000037000                            
50002010201202042012020601311326280146       PES0000097000A048412012020413140341                                                
6024600097000120390131132628014600000000042                                                                                     
7PESE                                                                                000000000097000                            
50002110201202042012020699030225909375       PES0000037000A084182012020411300150                                                
6024600037000120389903022590937500035000442                                                                                     
7PESE                                                                                000000000037000                            
50002210201202042012020600683441334941       PES0000019000M601042012020410200017                                                
6024600019000120390068344133494100020000063                                                                                     
7PESE                                                                                000000000019000                            
50002310201202042012020600681723782606       PES0000019000M601042012020410200018                                                
6024600019000120390068172378260600020000079                                                                                     
7PESE                                                                                000000000019000                            
82012020600000100000230000014299000000000000000000000000000000000000000000023                                                   
9201202060000010000023000001429900000000000000000000000000000000000000000000023                                                 
