120120306PAGO FACIL               090060246FABIAN NORBERTO D´ERAMO                                                              
320120306000001FABIAN NORBERTO D´ERAMO                                                                                          
50000110201203052012030653010618045335       PES0000006000A072762012030510190137                                                
6024600006000120665301061804533500015000084                                                                                     
7PESE                                                                                000000000006000                            
50000210201203052012030602332825762377       PES0000015000A073612012030511580036                                                
6024600015000120650233282576237700050000099                                                                                     
7PESE                                                                                000000000015000                            
50000310201203052012030602332539484908       PES0000015000A056902012030514430085                                                
6024600015000120660233253948490800050000042                                                                                     
7PESE                                                                                000000000015000                            
50000410201203052012030602332539245496       PES0000015000A046332012030518360325                                                
6024600015000120670233253924549600050000499                                                                                     
7PESE                                                                                000000000015000                            
50000510201203052012030602332921851864       PES0000015000A084182012030512360221                                                
6024600015000120670233292185186400050000599                                                                                     
7PESE                                                                                000000000015000                            
50000610201203052012030600692814825474       PES0000020000A091102012030511120147                                                
6024600020000120670069281482547400020000057                                                                                     
7PESE                                                                                000000000020000                            
50000710201203052012030618380621448109       PES0000020000A013222012030512060047                                                
6024600020000120681838062144810900000000015                                                                                     
7PESE                                                                                000000000020000                            
50000810201203052012030600682814287612       PES0000023000A106072012030519350122                                                
6024600023000120680068281428761200000000016                                                                                     
7PESE                                                                                000000000023000                            
50000910201203052012030600684937948525       PES0000023000L120162012030515166154                                                
6024600023000120680068493794852500000000063                                                                                     
7PESE                                                                                000000000023000                            
50001010201203052012030699040135078397       PES0000023500A091552012030516000398                                                
6024600023500120679904013507839700025000516                                                                                     
7PESE                                                                                000000000023500                            
50001110201203052012030602330427724822       PES0000025000A072902012030514320390                                                
6024600025000120670233042772482200030000299                                                                                     
7PESE                                                                                000000000025000                            
50001210201203052012030602330428305775       PES0000025000A093342012030517510014                                                
6024600025000120670233042830577500030000136                                                                                     
7PESE                                                                                000000000025000                            
50001310201203052012030602331693754951       PES0000025000A095412012030513280227                                                
6024600025000120670233169375495100030000563                                                                                     
7PESE                                                                                000000000025000                            
50001410201203052012030602331718070149       PES0000025000M601812012030513170147                                                
6024600025000120670233171807014900030000099                                                                                     
7PESE                                                                                000000000025000                            
50001510201203052012030699030230289341       PES0000037000A085922012030517370047                                                
6024600037000120679903023028934100035000463                                                                                     
7PESE                                                                                000000000037000                            
50001610201203052012030699030232638684       PES0000037000A089982012030511120187                                                
6024600037000120679903023263868400035000258                                                                                     
7PESE                                                                                000000000037000                            
50001710201203052012030699030235078397       PES0000037000A091552012030516000399                                                
6024600037000120679903023507839700035000563                                                                                     
7PESE                                                                                000000000037000                            
50001810201203052012030699030235359341       PES0000037000A110472012030514330317                                                
6024600037000120679903023535934100035000390                                                                                     
7PESE                                                                                000000000037000                            
50001910201203052012030699030236090671       PES0000037000A102852012030518290056                                                
6024600037000120679903023609067100035000536                                                                                     
7PESE                                                                                000000000037000                            
82012030600000100000190000004605000000000000000000000000000000000000000000019                                                   
9201203060000010000019000000460500000000000000000000000000000000000000000000019                                                 
