120110906PAGO FACIL               090060246FABIAN NORBERTO D´ERAMO                                                              
320110906000001FABIAN NORBERTO D´ERAMO                                                                                          
50000110201109052011090600540435359341       PES0000017500A085892011090519090395                                                
6024600017500112480054043535934100015000063                                                                                     
7PESE                                                                                000000000017500                            
50000210201109052011090600540436399286       PES0000017500A033992011090514430221                                                
6024600017500112500054043639928600015000021                                                                                     
7PESE                                                                                000000000017500                            
50000310201109052011090600501717903341       PES0000024500A100652011090517390066                                                
6024600019500112430050171790334100050007458                                                                                     
7PESE                                                                                000000000024500                            
50000410201109052011090617020618111553       PES0000020000A064022011090511400168                                                
6024600020000112521702061811155300000000063                                                                                     
7PESE                                                                                000000000020000                            
50000510201109052011090617020428499797       PES0000020000A077082011090518390011                                                
6024600020000112551702042849979700000000058                                                                                     
7PESE                                                                                000000000020000                            
50000610201109052011090617020523344839       PES0000020000A084152011090513080191                                                
6024600020000112551702052334483900000000042                                                                                     
7PESE                                                                                000000000020000                            
50000710201109052011090699040132421066       PES0000023500A020992011090514020195                                                
6024600023500112509904013242106600015000521                                                                                     
7PESE                                                                                000000000023500                            
50000810201109052011090699040136846689       PES0000023500M600472011090511000003                                                
6024600023500112509904013684668900015000390                                                                                     
7PESE                                                                                000000000023500                            
50000910201109052011090600501722173685       PES0000024500D000902011090516200314                                                
6024600024500112510050172217368500030000000                                                                                     
7PESE                                                                                000000000024500                            
50001010201109052011090600502329318931       PES0000024500A083562011090518120156                                                
6024600024500112510050232931893100030000057                                                                                     
7PESE                                                                                000000000024500                            
50001110201109052011090600502426732791       PES0000024500A083562011090518120157                                                
6024600024500112510050242673279100030000042                                                                                     
7PESE                                                                                000000000024500                            
50001210201109052011090600504516054490       PES0000024500A077352011090511440083                                                
6024600024500112520050451605449000030000063                                                                                     
7PESE                                                                                000000000024500                            
50001310201109052011090600502523642038       PES0000024500A085892011090509120015                                                
6024600024500112530050252364203800030000000                                                                                     
7PESE                                                                                000000000024500                            
50001410201109052011090600501335228701       PES0000024500A083562011090518110155                                                
6024600024500112550050133522870100030000042                                                                                     
7PESE                                                                                000000000024500                            
50001510201109052011090699030235359341       PES0000035000A085892011090519100396                                                
6024600035000112489903023535934100035000015                                                                                     
7PESE                                                                                000000000035000                            
50001610201109052011090699030236399286       PES0000035000A033992011090514360214                                                
6024600035000112509903023639928600035000078                                                                                     
7PESE                                                                                000000000035000                            
50001710201109052011090601280422890997       PES0000036500M620142011090508420013                                                
6024600036500112490128042289099700000000021                                                                                     
7PESE                                                                                000000000036500                            
50001810201109052011090601280712729428       PES0000036500A090832011090518040016                                                
6024600036500112490128071272942800000000084                                                                                     
7PESE                                                                                000000000036500                            
50001910201109052011090601282216265813       PES0000036500A039022011090513380026                                                
6024600036500112540128221626581300000000000                                                                                     
7PESE                                                                                000000000036500                            
82011090600000100000190000004930000000000000000000000000000000000000000000019                                                   
9201109060000010000019000000493000000000000000000000000000000000000000000000019                                                 
