120120606PAGO FACIL               090060246FABIAN NORBERTO D´ERAMO                                                              
320120606000001FABIAN NORBERTO D´ERAMO                                                                                          
50000110201206052012060602373726329662       PES0000017000A091042012060511470352                                                
6024600017000121620237372632966200030000016                                                                                     
7PESE                                                                                000000000017000                            
50000210201206052012060699020232381986       PES0000022000A090762012060517020143                                                
6024600022000121599902023238198600000000500                                                                                     
7PESE                                                                                000000000022000                            
50000310201206052012060602372727500011       PES0000025000A017262012060512130166                                                
6024600025000121620237272750001100050000178                                                                                     
7PESE                                                                                000000000025000                            
50000410201206052012060699040118893421       PES0000029000A092212012060517250472                                                
6024600029000121599904011889342100015000516                                                                                     
7PESE                                                                                000000000029000                            
50000510201206052012060699040137905221       PES0000029000M600102012060515010316                                                
6024600029000121599904013790522100015000479                                                                                     
7PESE                                                                                000000000029000                            
50000610201206052012060699030237121756       PES0000032250A042822012060512360285                                                
6024600032250121599903023712175600026750463                                                                                     
7PESE                                                                                000000000032250                            
50000710201206052012060699030135367974       PES0000037000L020242012060512561903                                                
6024600037000121599903013536797400035000436                                                                                     
7PESE                                                                                000000000037000                            
50000810201206052012060699030137483073       PES0000037000A092052012060511530214                                                
6024600037000121599903013748307300035000416                                                                                     
7PESE                                                                                000000000037000                            
50000910201206052012060699030228984843       PES0000043000A091162012060517520663                                                
6024600043000121599903022898484300035000121                                                                                     
7PESE                                                                                000000000043000                            
50001010201206052012060699030230743301       PES0000043000A073822012060511300133                                                
6024600043000121599903023074330100035000542                                                                                     
7PESE                                                                                000000000043000                            
50001110201206052012060699030231925405       PES0000043000M600742012060510340058                                                
6024600043000121599903023192540500035000584                                                                                     
7PESE                                                                                000000000043000                            
50001210201206052012060699030232631425       PES0000043000A079552012060516280025                                                
6024600043000121599903023263142500035000590                                                                                     
7PESE                                                                                000000000043000                            
50001310201206052012060699030232944859       PES0000043000A095132012060513190125                                                
6024600043000121599903023294485900035000590                                                                                     
7PESE                                                                                000000000043000                            
50001410201206052012060699030234556684       PES0000043000A099242012060517420175                                                
6024600043000121599903023455668400035000557                                                                                     
7PESE                                                                                000000000043000                            
50001510201206052012060699030234949488       PES0000043000A100712012060515090253                                                
6024600043000121599903023494948800035000500                                                                                     
7PESE                                                                                000000000043000                            
50001610201206052012060699030236070637       PES0000043000A028072012060514520152                                                
6024600043000121599903023607063700035000500                                                                                     
7PESE                                                                                000000000043000                            
50001710201206052012060699030237110422       PES0000043000A010432012060512010296                                                
6024600043000121599903023711042200035000457                                                                                     
7PESE                                                                                000000000043000                            
50001810201206052012060699030237357940       PES0000043000A063672012060514390137                                                
6024600043000121599903023735794000035000390                                                                                     
7PESE                                                                                000000000043000                            
50001910201206052012060699030240497077       PES0000043000A085972012060513270082                                                
6024600043000121599903024049707700035000484                                                                                     
7PESE                                                                                000000000043000                            
82012060600000100000190000007012500000000000000000000000000000000000000000019                                                   
9201206060000010000019000000701250000000000000000000000000000000000000000000019                                                 
