120111007PAGO FACIL               090060246FABIAN NORBERTO D´ERAMO                                                              
320111007000001FABIAN NORBERTO D´ERAMO                                                                                          
50000110201110062011100720040329200100       PES0000006000A096942011100616370306                                                
6024600006000112842004032920010000000000016                                                                                     
7PESE                                                                                000000000006000                            
50000210201110062011100729060411386857       PES0000010000A035802011100619210413                                                
6024600010000112852906041138685700030000037                                                                                     
7PESE                                                                                000000000010000                            
50000310201110062011100729060911500836       PES0000010000A035802011100619200412                                                
6024600010000112852906091150083600030000021                                                                                     
7PESE                                                                                000000000010000                            
50000410201110062011100746071527712174       PES0000012000A092082011100613170211                                                
6024600012000112834607152771217400020000042                                                                                     
7PESE                                                                                000000000012000                            
50000510201110062011100700585230920919       PES0000018500A091122011100613390324                                                
6024600018500112810058523092091900040000042                                                                                     
7PESE                                                                                000000000018500                            
50000610201110062011100700582524788076       PES0000018500A091152011100611170157                                                
6024600018500112850058252478807600040000000                                                                                     
7PESE                                                                                000000000018500                            
50000710201110062011100700581913991770       PES0000018500A046092011100618300233                                                
6024600018500112860058191399177000040000036                                                                                     
7PESE                                                                                000000000018500                            
50000810201110062011100797000413645220       PES0000020000A086982011100612030118                                                
6024600020000112789700041364522000000000737                                                                                     
7PESE                                                                                000000000020000                            
50000910201110062011100799040124361506       PES0000023500A009932011100617130042                                                
6024600023500112809904012436150600015000642                                                                                     
7PESE                                                                                000000000023500                            
50001010201110062011100700502524211048       PES0000027500A077012011100618080333                                                
6024600024500112730050252421104800030007642                                                                                     
7PESE                                                                                000000000027500                            
50001110201110062011100700502717172419       PES0000027500A049022011100613060242                                                
6024600024500112730050271717241900030007621                                                                                     
7PESE                                                                                000000000027500                            
50001210201110062011100700504236158809       PES0000027500A034312011100619040280                                                
6024600024500112730050423615880900030007716                                                                                     
7PESE                                                                                000000000027500                            
50001310201110062011100700501018333694       PES0000027500M620162011100608460004                                                
6024600027500112850050101833369400000000036                                                                                     
7PESE                                                                                000000000027500                            
50001410201110062011100700503818339702       PES0000027500A095502011100611460161                                                
6024600027500112850050381833970200000000036                                                                                     
7PESE                                                                                000000000027500                            
50001510201110062011100700504512815135       PES0000027500A028392011100614230202                                                
6024600027500112850050451281513500000000037                                                                                     
7PESE                                                                                000000000027500                            
50001610201110062011100700504512924598       PES0000027500A095502011100611460162                                                
6024600027500112850050451292459800000000084                                                                                     
7PESE                                                                                000000000027500                            
50001710201110062011100700532526124201       PES0000029000A085572011100612190184                                                
6024600029000112830053252612420100020000284                                                                                     
7PESE                                                                                000000000029000                            
50001810201110062011100700533637245882       PES0000029000A085572011100612190185                                                
6024600029000112830053363724588200020000221                                                                                     
7PESE                                                                                000000000029000                            
50001910201110062011100799030234430590       PES0000035000A102852011100616100297                                                
6024600035000112809903023443059000035000642                                                                                     
7PESE                                                                                000000000035000                            
50002010201110062011100799030234722750       PES0000035000M601132011100616180197                                                
6024600035000112809903023472275000035000663                                                                                     
7PESE                                                                                000000000035000                            
50002110201110062011100799030235359341       PES0000035000A110472011100614440063                                                
6024600035000112809903023535934100035000600                                                                                     
7PESE                                                                                000000000035000                            
50002210201110062011100799030236087988       PES0000035000A103582011100612220196                                                
6024600035000112809903023608798800035000615                                                                                     
7PESE                                                                                000000000035000                            
50002310201110062011100799030236399286       PES0000035000A072612011100613020128                                                
6024600035000112809903023639928600035000557                                                                                     
7PESE                                                                                000000000035000                            
50002410201110062011100700530520491327       PES0000038500A073842011100610360057                                                
6024600038500112790053052049132700010000036                                                                                     
7PESE                                                                                000000000038500                            
50002510201110062011100700530423621445       PES0000038500A108702011100617280239                                                
6024600038500112820053042362144500010000042                                                                                     
7PESE                                                                                000000000038500                            
50002610201110062011100700530232554625       PES0000038500A054272011100615120156                                                
6024600038500112830053023255462500010000057                                                                                     
7PESE                                                                                000000000038500                            
82011100700000100000260000006780000000000000000000000000000000000000000000026                                                   
9201110070000010000026000000678000000000000000000000000000000000000000000000026                                                 
