120111107PAGO FACIL               090060246FABIAN NORBERTO D´ERAMO                                                              
320111107000001FABIAN NORBERTO D´ERAMO                                                                                          
50000110201111042011110746060227556040       PES0000040000A087922011110409310015                                                
6024600040000113084606022755604000080000700                                                                                     
7PESE                                                                                000000000040000                            
50000210201111042011110746060330369111       PES0000040000A039562011110410020056                                                
6024600040000113084606033036911100080000642                                                                                     
7PESE                                                                                000000000040000                            
50000310201111042011110729060818566311       PES0000010000A053772011110411560033                                                
6024600010000113082906081856631100030000079                                                                                     
7PESE                                                                                000000000010000                            
50000410201111042011110701290524515512       PES0000037000A025832011110411410114                                                
6024600037000113140129052451551200000000057                                                                                     
7PESE                                                                                000000000037000                            
50000510201111042011110752001628686480       PES0000009000A063662011110410280131                                                
6024600009000113135200162868648000000000078                                                                                     
7PESE                                                                                000000000009000                            
50000610201111042011110799030235398990       PES0000035000A090542011110413150160                                                
6024600035000113119903023539899000035000442                                                                                     
7PESE                                                                                000000000035000                            
50000710201111042011110746060232636434       PES0000040000A105622011110417340252                                                
6024600040000113084606023263643400080000742                                                                                     
7PESE                                                                                000000000040000                            
50000810201111042011110799030237483073       PES0000035000A092052011110411330134                                                
6024600035000113119903023748307300035000357                                                                                     
7PESE                                                                                000000000035000                            
50000910201111042011110799030236399286       PES0000035000A042332011110415550020                                                
6024600035000113119903023639928600035000278                                                                                     
7PESE                                                                                000000000035000                            
50001010201111042011110746060929064764       PES0000040000A046692011110415310208                                                
6024600040000113084606092906476400080000521                                                                                     
7PESE                                                                                000000000040000                            
50001110201111042011110746060829064764       PES0000040000A046692011110417410327                                                
6024600040000113084606082906476400080000778                                                                                     
7PESE                                                                                000000000040000                            
50001210201111042011110746060229064764       PES0000040000A046692011110417420328                                                
6024600040000113084606022906476400080000721                                                                                     
7PESE                                                                                000000000040000                            
50001310201111042011110799030235359341       PES0000035000A110472011110418460198                                                
6024600035000113119903023535934100035000458                                                                                     
7PESE                                                                                000000000035000                            
50001410201111042011110746060320796109       PES0000040000A034222011110416340052                                                
6024600040000113084606032079610900080000758                                                                                     
7PESE                                                                                000000000040000                            
50001510201111042011110799030237376363       PES0000035000A081272011110418570367                                                
6024600035000113119903023737636300035000337                                                                                     
7PESE                                                                                000000000035000                            
50001610201111042011110799030228324126       PES0000035000A035802011110418050107                                                
6024600035000113119903022832412600035000415                                                                                     
7PESE                                                                                000000000035000                            
50001710201111042011110746060225235857       PES0000040000M601282011110416580352                                                
6024600040000113084606022523585700080000737                                                                                     
7PESE                                                                                000000000040000                            
50001810201111042011110746061023358166       PES0000040000M640252011110412490049                                                
6024600040000113084606102335816600080000621                                                                                     
7PESE                                                                                000000000040000                            
50001910201111042011110746060325902971       PES0000040000M640252011110412500050                                                
6024600040000113084606032590297100080000679                                                                                     
7PESE                                                                                000000000040000                            
50002010201111052011110746060628322433       PES0000040000A028162011110411180176                                                
6024600040000113084606062832243300080000742                                                                                     
7PESE                                                                                000000000040000                            
50002110201111052011110746071333108530       PES0000012000A034222011110512090264                                                
6024600012000113104607133310853000020000000                                                                                     
7PESE                                                                                000000000012000                            
50002210201111052011110701290329661179       PES0000037000A033952011110511150184                                                
6024600037000113160129032966117900000000000                                                                                     
7PESE                                                                                000000000037000                            
50002310201111052011110799030229118464       PES0000035000A042822011110513010183                                                
6024600035000113119903022911846400035000521                                                                                     
7PESE                                                                                000000000035000                            
50002410201111052011110799030234515650       PES0000035000A084942011110510180030                                                
6024600035000113119903023451565000035000258                                                                                     
7PESE                                                                                000000000035000                            
50002510201111052011110799030232638684       PES0000035000A101842011110516480105                                                
6024600035000113119903023263868400035000457                                                                                     
7PESE                                                                                000000000035000                            
50002610201111062011110700585818773409       PES0000022500A065482011110613400425                                                
6024600022500113150058581877340900025000099                                                                                     
7PESE                                                                                000000000022500                            
50002710201111062011110799040124361506       PES0000023500A017482011110620060211                                                
6024600023500113119904012436150600015000536                                                                                     
7PESE                                                                                000000000023500                            
82011110700000100000270000009060000000000000000000000000000000000000000000027                                                   
9201111070000010000027000000906000000000000000000000000000000000000000000000027                                                 
