120120907PAGO FACIL               090060246FABIAN NORBERTO D´ERAMO                                                              
320120907000001FABIAN NORBERTO D´ERAMO                                                                                          
50000110201209062012090702414111587409       PES0000020000A058512012090611530095                                                
6024600020000122540241411158740900050000215                                                                                     
7PESE                                                                                000000000020000                            
50000210201209062012090799020236692910       PES0000022000A060602012090616210100                                                
6024600022000122519902023669291000000000500                                                                                     
7PESE                                                                                000000000022000                            
50000310201209062012090700710924796009       PES0000029000A111362012090615140240                                                
6024600023500122440071092479600900055007684                                                                                     
7PESE                                                                                000000000029000                            
50000410201209062012090700712523900042       PES0000029000A078592012090617180014                                                
6024600023500122440071252390004200055007515                                                                                     
7PESE                                                                                000000000029000                            
50000510201209062012090700712621584675       PES0000029000D000682012090615270231                                                
6024600023500122440071262158467500055007657                                                                                     
7PESE                                                                                000000000029000                            
50000610201209062012090700713732952658       PES0000029000A112752012090609320037                                                
6024600023500122440071373295265800055007636                                                                                     
7PESE                                                                                000000000029000                            
50000710201209062012090700714040796866       PES0000029000A093412012090616280211                                                
6024600023500122440071404079686600055007542                                                                                     
7PESE                                                                                000000000029000                            
50000810201209062012090700714423465533       PES0000029000A076762012090618210101                                                
6024600023500122440071442346553300055007500                                                                                     
7PESE                                                                                000000000029000                            
50000910201209062012090700714604572962       PES0000029000D000422012090614290020                                                
6024600023500122440071460457296200055007563                                                                                     
7PESE                                                                                000000000029000                            
50001010201209062012090700540336806018       PES0000026000A091042012090613010129                                                
6024600026000122550054033680601800010000084                                                                                     
7PESE                                                                                000000000026000                            
50001110201209062012090700540332431889       PES0000026000A104162012090616370266                                                
6024600026000122570054033243188900010000021                                                                                     
7PESE                                                                                000000000026000                            
50001210201209062012090700540332631425       PES0000026000A063632012090619360006                                                
6024600026000122570054033263142500010000084                                                                                     
7PESE                                                                                000000000026000                            
50001310201209062012090700540433597989       PES0000026000A085512012090617580132                                                
6024600026000122570054043359798900010000015                                                                                     
7PESE                                                                                000000000026000                            
50001410201209062012090767000117660844       PES0000027000A014642012090609040016                                                
6024600027000122556700011766084400000000057                                                                                     
7PESE                                                                                000000000027000                            
50001510201209062012090799040132166545       PES0000029000A025642012090613160166                                                
6024600029000122519904013216654500015000442                                                                                     
7PESE                                                                                000000000029000                            
50001610201209062012090799040137846112       PES0000029000D001482012090619290248                                                
6024600029000122519904013784611200015000399                                                                                     
7PESE                                                                                000000000029000                            
50001710201209062012090700710523146458       PES0000029000A073822012090615270073                                                
6024600029000122540071052314645800035000042                                                                                     
7PESE                                                                                000000000029000                            
50001810201209062012090700714330819062       PES0000029000A070822012090619070201                                                
6024600029000122540071433081906200035000079                                                                                     
7PESE                                                                                000000000029000                            
50001910201209062012090700710829912581       PES0000029000A043122012090613120320                                                
6024600029000122560071082991258100035000000                                                                                     
7PESE                                                                                000000000029000                            
50002010201209062012090700710925023107       PES0000029000A043122012090613120321                                                
6024600029000122560071092502310700035000021                                                                                     
7PESE                                                                                000000000029000                            
50002110201209062012090700713539242999       PES0000029000A109792012090612240055                                                
6024600029000122560071353924299900035000078                                                                                     
7PESE                                                                                000000000029000                            
50002210201209062012090700721616785288       PES0000046500M600532012090614530311                                                
6024600042000122490072161678528800045000584                                                                                     
7PESE                                                                                000000000046500                            
50002310201209062012090799030103729571       PES0000043000A046792012090619060118                                                
6024600043000122519903010372957100035000600                                                                                     
7PESE                                                                                000000000043000                            
50002410201209062012090799030132431889       PES0000043000A104162012090616370267                                                
6024600043000122519903013243188900035000615                                                                                     
7PESE                                                                                000000000043000                            
50002510201209062012090799030132631425       PES0000043000A063632012090619360005                                                
6024600043000122519903013263142500035000678                                                                                     
7PESE                                                                                000000000043000                            
50002610201209062012090799030133104324       PES0000043000A064852012090614070170                                                
6024600043000122519903013310432400035000436                                                                                     
7PESE                                                                                000000000043000                            
50002710201209062012090799030136806018       PES0000043000A091042012090613010128                                                
6024600043000122519903013680601800035000499                                                                                     
7PESE                                                                                000000000043000                            
50002810201209062012090799030136931489       PES0000043000A089362012090617220034                                                
6024600043000122519903013693148900035000557                                                                                     
7PESE                                                                                000000000043000                            
50002910201209062012090701320521923226       PES0000045000A091662012090609490037                                                
6024600045000122500132052192322600050000057                                                                                     
7PESE                                                                                000000000045000                            
50003010201209062012090701320133828381       PES0000045000L070092012090612132985                                                
6024600045000122540132013382838100050000021                                                                                     
7PESE                                                                                000000000045000                            
50003110201209062012090701320907757111       PES0000045000A027742012090611230079                                                
6024600045000122550132090775711100050000079                                                                                     
7PESE                                                                                000000000045000                            
50003210201209062012090701322224809338       PES0000045000A027742012090611230078                                                
6024600045000122550132222480933800050000021                                                                                     
7PESE                                                                                000000000045000                            
50003310201209062012090701320522887253       PES0000045000A047422012090612380156                                                
6024600045000122560132052288725300050000015                                                                                     
7PESE                                                                                000000000045000                            
50003410201209062012090700720425452478       PES0000046500A089882012090614180045                                                
6024600046500122570072042545247800010000037                                                                                     
7PESE                                                                                000000000046500                            
50003510201209062012090700721326861683       PES0000046500A049612012090616320169                                                
6024600046500122570072132686168300010000000                                                                                     
7PESE                                                                                000000000046500                            
50003610201209062012090700540136931489       PES0000076000A089362012090617230035                                                
6024600076000122560054013693148900000000057                                                                                     
7PESE                                                                                000000000076000                            
82012090700000100000360000012775000000000000000000000000000000000000000000036                                                   
9201209070000010000036000001277500000000000000000000000000000000000000000000036                                                 
