120110607PAGO FACIL               090060246FABIAN NORBERTO D´ERAMO                                                              
320110607000001FABIAN NORBERTO D´ERAMO                                                                                          
50000110201106062011060799030232638684       PES0000035000A098912011060410320140                                                
6024600035000111589903023263868400035000157                                                                                     
7PESE                                                                                000000000035000                            
50000210201106062011060799040223968701       PES0000015000A036912011060610010101                                                
6024600015000111589904022396870100025000521                                                                                     
7PESE                                                                                000000000015000                            
50000310201106062011060748011025565906       PES0000020000A083702011060619590153                                                
6024600020000111574801102556590600000000058                                                                                     
7PESE                                                                                000000000020000                            
50000410201106062011060748011027338963       PES0000020000M640112011060614240306                                                
6024600020000111574801102733896300000000063                                                                                     
7PESE                                                                                000000000020000                            
50000510201106062011060748011218544215       PES0000020000A660282011060609310024                                                
6024600020000111574801121854421500000000090                                                                                     
7PESE                                                                                000000000020000                            
50000610201106062011060748011412866151       PES0000020000A081942011060610510051                                                
6024600020000111574801141286615100000000058                                                                                     
7PESE                                                                                000000000020000                            
50000710201106062011060702290716427083       PES0000021500A073842011060610560088                                                
6024600021500111630229071642708300030000099                                                                                     
7PESE                                                                                000000000021500                            
50000810201106062011060799030127340271       PES0000028000A071202011060611580317                                                
6024600028000111589903012734027100030000642                                                                                     
7PESE                                                                                000000000028000                            
50000910201106062011060799030127537307       PES0000028000A080992011060616100089                                                
6024600028000111589903012753730700030000242                                                                                     
7PESE                                                                                000000000028000                            
50001010201106062011060799030127919780       PES0000028000A029342011060617520220                                                
6024600028000111589903012791978000030000699                                                                                     
7PESE                                                                                000000000028000                            
50001110201106062011060799030131796687       PES0000028000A077332011060619140122                                                
6024600028000111589903013179668700030000516                                                                                     
7PESE                                                                                000000000028000                            
50001210201106062011060799030133633255       PES0000028000A049092011060611070038                                                
6024600028000111589903013363325500030000121                                                                                     
7PESE                                                                                000000000028000                            
50001310201106062011060799030134249902       PES0000028000A028662011060614510080                                                
6024600028000111589903013424990200030000684                                                                                     
7PESE                                                                                000000000028000                            
50001410201106062011060799030135755195       PES0000028000L020252011060611033302                                                
6024600028000111589903013575519500030000163                                                                                     
7PESE                                                                                000000000028000                            
50001510201106062011060799030216975364       PES0000035000A081572011060610170096                                                
6024600035000111589903021697536400035000579                                                                                     
7PESE                                                                                000000000035000                            
50001610201106062011060799030231075840       PES0000035000A072152011060614180014                                                
6024600035000111589903023107584000035000616                                                                                     
7PESE                                                                                000000000035000                            
50001710201106062011060799030233259978       PES0000035000A089882011060613090060                                                
6024600035000111589903023325997800035000315                                                                                     
7PESE                                                                                000000000035000                            
50001810201106062011060799030234142652       PES0000035000A040722011060611290170                                                
6024600035000111589903023414265200035000184                                                                                     
7PESE                                                                                000000000035000                            
50001910201106062011060799030234750212       PES0000035000A016682011060619090012                                                
6024600035000111589903023475021200035000663                                                                                     
7PESE                                                                                000000000035000                            
50002010201106062011060799030235216759       PES0000035000A033992011060612080220                                                
6024600035000111589903023521675900035000300                                                                                     
7PESE                                                                                000000000035000                            
50002110201106062011060799030236360655       PES0000035000A082952011060619100184                                                
6024600035000111589903023636065500035000637                                                                                     
7PESE                                                                                000000000035000                            
50002210201106062011060799030237376363       PES0000035000A086842011060618470045                                                
6024600035000111589903023737636300035000342                                                                                     
7PESE                                                                                000000000035000                            
50002310201106062011060799030237483073       PES0000035000A092052011060615580208                                                
6024600035000111589903023748307300035000521                                                                                     
7PESE                                                                                000000000035000                            
82011060700000100000230000006625000000000000000000000000000000000000000000023                                                   
9201106070000010000023000000662500000000000000000000000000000000000000000000023                                                 
