120110708PAGO FACIL               090060246FABIAN NORBERTO D´ERAMO                                                              
320110708000001FABIAN NORBERTO D´ERAMO                                                                                          
50000110201107072011070899040124361506       PES0000023500A009932011070618280180                                                
6024600023500111889904012436150600015000679                                                                                     
7PESE                                                                                000000000023500                            
50000210201107072011070898020223091771       PES0000015000A057612011070718150173                                                
6024600015000111889802022309177100015000758                                                                                     
7PESE                                                                                000000000015000                            
50000310201107072011070899040225831394       PES0000015000A081712011070718100140                                                
6024600015000111889904022583139400025000642                                                                                     
7PESE                                                                                000000000015000                            
50000410201107072011070817020717768627       PES0000016000A080712011070716190106                                                
6024600016000111931702071776862700040000090                                                                                     
7PESE                                                                                000000000016000                            
50000510201107072011070899040134998991       PES0000023500A017122011070708590031                                                
6024600023500111889904013499899100015000615                                                                                     
7PESE                                                                                000000000023500                            
50000610201107072011070899040136275465       PES0000023500A040542011070711470205                                                
6024600023500111889904013627546500015000700                                                                                     
7PESE                                                                                000000000023500                            
50000710201107072011070899040136846689       PES0000023500A600472011070712440020                                                
6024600023500111889904013684668900015000779                                                                                     
7PESE                                                                                000000000023500                            
50000810201107072011070899030226735116       PES0000035000A092792011070717230218                                                
6024600035000111889903022673511600035000742                                                                                     
7PESE                                                                                000000000035000                            
50000910201107072011070899030228324126       PES0000035000A037762011070719460378                                                
6024600035000111889903022832412600035000699                                                                                     
7PESE                                                                                000000000035000                            
50001010201107072011070899030230219518       PES0000035000A097712011070718530324                                                
6024600035000111889903023021951800035000584                                                                                     
7PESE                                                                                000000000035000                            
50001110201107072011070899030230531074       PES0000035000A079262011070719210118                                                
6024600035000111889903023053107400035000736                                                                                     
7PESE                                                                                000000000035000                            
50001210201107072011070899030231075840       PES0000035000A071022011070714270042                                                
6024600035000111889903023107584000035000758                                                                                     
7PESE                                                                                000000000035000                            
50001310201107072011070899030231208574       PES0000035000A087932011070717190185                                                
6024600035000111889903023120857400035000721                                                                                     
7PESE                                                                                000000000035000                            
50001410201107072011070899030233016959       PES0000035000A102072011070719190211                                                
6024600035000111889903023301695900035000716                                                                                     
7PESE                                                                                000000000035000                            
50001510201107072011070899030234142652       PES0000035000A073822011070713450126                                                
6024600035000111889903023414265200035000536                                                                                     
7PESE                                                                                000000000035000                            
50001610201107072011070899030234515650       PES0000035000A084942011070717470007                                                
6024600035000111889903023451565000035000742                                                                                     
7PESE                                                                                000000000035000                            
50001710201107072011070899030234750212       PES0000035000A043472011070720090347                                                
6024600035000111889903023475021200035000700                                                                                     
7PESE                                                                                000000000035000                            
50001810201107072011070899030235359341       PES0000035000M601562011070717180299                                                
6024600035000111889903023535934100035000500                                                                                     
7PESE                                                                                000000000035000                            
50001910201107072011070899030235400740       PES0000035000A090572011070717270314                                                
6024600035000111889903023540074000035000700                                                                                     
7PESE                                                                                000000000035000                            
50002010201107072011070899030236360655       PES0000035000A082952011070719100243                                                
6024600035000111889903023636065500035000779                                                                                     
7PESE                                                                                000000000035000                            
50002110201107072011070899030237483073       PES0000035000A092042011070713300331                                                
6024600035000111889903023748307300035000663                                                                                     
7PESE                                                                                000000000035000                            
50002210201107072011070899030293925151       PES0000035000A089462011070713040280                                                
6024600035000111889903029392515100035000799                                                                                     
7PESE                                                                                000000000035000                            
82011070800000100000220000006650000000000000000000000000000000000000000000022                                                   
9201107080000010000022000000665000000000000000000000000000000000000000000000022                                                 
