120120508PAGO FACIL               090060246FABIAN NORBERTO D´ERAMO                                                              
320120508000001FABIAN NORBERTO D´ERAMO                                                                                          
50000110201205072012050802363338426891       PES0000017000A097372012050709400008                                                
6024600017000121310236333842689100030000400                                                                                     
7PESE                                                                                000000000017000                            
50000210201205072012050899030135775683       PES0000018500A055702012050716030050                                                
6024600018500121289903013577568300017500757                                                                                     
7PESE                                                                                000000000018500                            
50000310201205072012050899020130855055       PES0000019000A082112012050710450100                                                
6024600019000121289902013085505500000000758                                                                                     
7PESE                                                                                000000000019000                            
50000410201205072012050899020135178748       PES0000019000A060592012050721000189                                                
6024600019000121289902013517874800000000678                                                                                     
7PESE                                                                                000000000019000                            
50000510201205072012050899020135592295       PES0000019000A060592012050721000190                                                
6024600019000121289902013559229500000000642                                                                                     
7PESE                                                                                000000000019000                            
50000610201205072012050899040125061734       PES0000029000A034312012050718240280                                                
6024600029000121289904012506173400015000521                                                                                     
7PESE                                                                                000000000029000                            
50000710201205072012050899040131660367       PES0000029000A100112012050717130148                                                
6024600029000121289904013166036700015000742                                                                                     
7PESE                                                                                000000000029000                            
50000810201205072012050899040133259978       PES0000029000A102852012050715440072                                                
6024600029000121289904013325997800015000779                                                                                     
7PESE                                                                                000000000029000                            
50000910201205072012050899040134430590       PES0000029000A102852012050715440073                                                
6024600029000121289904013443059000015000737                                                                                     
7PESE                                                                                000000000029000                            
50001010201205072012050899040135989576       PES0000029000M601132012050715250173                                                
6024600029000121289904013598957600015000684                                                                                     
7PESE                                                                                000000000029000                            
50001110201205072012050899040137846112       PES0000029000A601232012050716130190                                                
6024600029000121289904013784611200015000379                                                                                     
7PESE                                                                                000000000029000                            
50001210201205072012050899030237121756       PES0000032250A042822012050711530253                                                
6024600032250121289903023712175600026750721                                                                                     
7PESE                                                                                000000000032250                            
50001310201205072012050899030116975364       PES0000037000A081572012050711130140                                                
6024600037000121289903011697536400035000684                                                                                     
7PESE                                                                                000000000037000                            
50001410201205072012050899030129118464       PES0000037000A042822012050710150083                                                
6024600037000121289903012911846400035000778                                                                                     
7PESE                                                                                000000000037000                            
50001510201205072012050899030131075840       PES0000037000A053092012050714270053                                                
6024600037000121289903013107584000035000421                                                                                     
7PESE                                                                                000000000037000                            
50001610201205072012050899030131208574       PES0000037000A087932012050718290013                                                
6024600037000121289903013120857400035000499                                                                                     
7PESE                                                                                000000000037000                            
50001710201205072012050899030132638684       PES0000037000A063832012050716420099                                                
6024600037000121289903013263868400035000263                                                                                     
7PESE                                                                                000000000037000                            
50001810201205072012050899030133914097       PES0000037000A076192012050716380255                                                
6024600037000121289903013391409700035000758                                                                                     
7PESE                                                                                000000000037000                            
50001910201205072012050899030134515650       PES0000037000A084942012050718490257                                                
6024600037000121289903013451565000035000715                                                                                     
7PESE                                                                                000000000037000                            
50002010201205072012050899030134630666       PES0000037000A092152012050717430132                                                
6024600037000121289903013463066600035000763                                                                                     
7PESE                                                                                000000000037000                            
50002110201205072012050899030134722750       PES0000037000A094932012050715550355                                                
6024600037000121289903013472275000035000537                                                                                     
7PESE                                                                                000000000037000                            
50002210201205072012050899030135359341       PES0000037000A099242012050712320296                                                
6024600037000121289903013535934100035000742                                                                                     
7PESE                                                                                000000000037000                            
50002310201205072012050899030136044247       PES0000037000A010562012050718360085                                                
6024600037000121289903013604424700035000742                                                                                     
7PESE                                                                                000000000037000                            
50002410201205072012050899030136943330       PES0000037000A099762012050710520182                                                
6024600037000121289903013694333000035000490                                                                                     
7PESE                                                                                000000000037000                            
50002510201205072012050899030137040715       PES0000037000A042822012050717040146                                                
6024600037000121289903013704071500035000784                                                                                     
7PESE                                                                                000000000037000                            
50002610201205072012050899030193925151       PES0000037000A112842012050716250101                                                
6024600037000121289903019392515100035000763                                                                                     
7PESE                                                                                000000000037000                            
50002710201205072012050899030221903716       PES0000043000A032962012050716410051                                                
6024600043000121289903022190371600035000721                                                                                     
7PESE                                                                                000000000043000                            
50002810201205072012050899030226562585       PES0000043000D000482012050710230019                                                
6024600043000121289903022656258500035000521                                                                                     
7PESE                                                                                000000000043000                            
50002910201205072012050899030229247865       PES0000043000A093092012050717230226                                                
6024600043000121289903022924786500035000715                                                                                     
7PESE                                                                                000000000043000                            
50003010201205072012050899030230515091       PES0000043000A098552012050709120034                                                
6024600043000121289903023051509100035000421                                                                                     
7PESE                                                                                000000000043000                            
50003110201205072012050899030231344778       PES0000043000A049722012050719320146                                                
6024600043000121289903023134477800035000742                                                                                     
7PESE                                                                                000000000043000                            
50003210201205072012050899030231773438       PES0000043000A601202012050711220042                                                
6024600043000121289903023177343800035000442                                                                                     
7PESE                                                                                000000000043000                            
50003310201205072012050899030232431889       PES0000043000D000752012050714330251                                                
6024600043000121289903023243188900035000758                                                                                     
7PESE                                                                                000000000043000                            
50003410201205072012050899030232573681       PES0000043000D000392012050715120164                                                
6024600043000121289903023257368100035000757                                                                                     
7PESE                                                                                000000000043000                            
50003510201205072012050899030232573807       PES0000043000A090072012050719070260                                                
6024600043000121289903023257380700035000778                                                                                     
7PESE                                                                                000000000043000                            
50003610201205072012050899030232631425       PES0000043000A063622012050719400169                                                
6024600043000121289903023263142500035000716                                                                                     
7PESE                                                                                000000000043000                            
50003710201205072012050899030233380040       PES0000043000A036692012050712080190                                                
6024600043000121289903023338004000035000690                                                                                     
7PESE                                                                                000000000043000                            
50003810201205072012050899030233708869       PES0000043000A098912012050718460069                                                
6024600043000121289903023370886900035000784                                                                                     
7PESE                                                                                000000000043000                            
50003910201205072012050899030234318531       PES0000043000A048282012050716580062                                                
6024600043000121289903023431853100035000100                                                                                     
7PESE                                                                                000000000043000                            
50004010201205072012050899030234378677       PES0000043000A074672012050713150211                                                
6024600043000121289903023437867700035000684                                                                                     
7PESE                                                                                000000000043000                            
50004110201205072012050899030234556684       PES0000043000A099242012050715200178                                                
6024600043000121289903023455668400035000778                                                                                     
7PESE                                                                                000000000043000                            
50004210201205072012050899030234617181       PES0000043000A084182012050712090286                                                
6024600043000121289903023461718100035000384                                                                                     
7PESE                                                                                000000000043000                            
50004310201205072012050899030234750295       PES0000043000D001472012050713240338                                                
6024600043000121289903023475029500035000757                                                                                     
7PESE                                                                                000000000043000                            
50004410201205072012050899030235755092       PES0000043000A093212012050712320258                                                
6024600043000121289903023575509200035000363                                                                                     
7PESE                                                                                000000000043000                            
50004510201205072012050899030236157259       PES0000043000A105602012050710390124                                                
6024600043000121289903023615725900035000390                                                                                     
7PESE                                                                                000000000043000                            
50004610201205072012050899030236806018       PES0000043000M600652012050716330204                                                
6024600043000121289903023680601800035000700                                                                                     
7PESE                                                                                000000000043000                            
50004710201205072012050899030237276542       PES0000043000A043162012050716520016                                                
6024600043000121289903023727654200035000758                                                                                     
7PESE                                                                                000000000043000                            
50004810201205072012050899030237357940       PES0000043000A012652012050711400146                                                
6024600043000121289903023735794000035000657                                                                                     
7PESE                                                                                000000000043000                            
50004910201205072012050899030237542373       PES0000043000A107892012050719450094                                                
6024600043000121289903023754237300035000763                                                                                     
7PESE                                                                                000000000043000                            
50005010201205072012050899030238066579       PES0000043000D000502012050720570477                                                
6024600043000121289903023806657900035000763                                                                                     
7PESE                                                                                000000000043000                            
50005110201205072012050899030238071739       PES0000043000D001472012050713240337                                                
6024600043000121289903023807173900035000278                                                                                     
7PESE                                                                                000000000043000                            
82012050800000100000510000018917500000000000000000000000000000000000000000051                                                   
9201205080000010000051000001891750000000000000000000000000000000000000000000051                                                 
