120120509PAGO FACIL               090060246FABIAN NORBERTO D´ERAMO                                                              
320120509000001FABIAN NORBERTO D´ERAMO                                                                                          
50000110201205082012050902363822129599       PES0000017000A058512012050717360114                                                
6024600017000121310236382212959900030000015                                                                                     
7PESE                                                                                000000000017000                            
50000210201205082012050999030127925597       PES0000037000A074212012050713350145                                                
6024600037000121289903012792559700035000784                                                                                     
7PESE                                                                                000000000037000                            
50000310201205082012050999040130668939       PES0000029000M600372012050710060003                                                
6024600029000121289904013066893900015000584                                                                                     
7PESE                                                                                000000000029000                            
50000410201205082012050999040137905221       PES0000029000M600102012050714500335                                                
6024600029000121289904013790522100015000736                                                                                     
7PESE                                                                                000000000029000                            
50000510201205082012050902362122545377       PES0000017000A047802012050813440239                                                
6024600017000121310236212254537700030000463                                                                                     
7PESE                                                                                000000000017000                            
50000610201205082012050902363821442955       PES0000017000A058512012050809450041                                                
6024600017000121310236382144295500030000479                                                                                     
7PESE                                                                                000000000017000                            
50000710201205082012050999020136801243       PES0000019000A038142012050812060351                                                
6024600019000121289902013680124300000000784                                                                                     
7PESE                                                                                000000000019000                            
50000810201205082012050902360329199956       PES0000025000A088152012050817340159                                                
6024600025000121310236032919995600050000415                                                                                     
7PESE                                                                                000000000025000                            
50000910201205082012050902360622401387       PES0000025000A047802012050813440240                                                
6024600025000121310236062240138700050000415                                                                                     
7PESE                                                                                000000000025000                            
50001010201205082012050999030234600312       PES0000046500A104232012050817030212                                                
6024600043000121289903023460031200035000621                                                                                     
7PESE                                                                                000000000046500                            
50001110201205082012050999030228984843       PES0000046500A091122012050809440057                                                
6024600046500121369903022898484300025000078                                                                                     
7PESE                                                                                000000000046500                            
50001210201205082012050999030236352229       PES0000046500A063842012050816390203                                                
6024600046500121369903023635222900025000036                                                                                     
7PESE                                                                                000000000046500                            
82012050900000100000120000003545000000000000000000000000000000000000000000012                                                   
9201205090000010000012000000354500000000000000000000000000000000000000000000012                                                 
