120110909PAGO FACIL               090060246FABIAN NORBERTO D´ERAMO                                                              
320110909000001FABIAN NORBERTO D´ERAMO                                                                                          
50000110201109082011090917020427446719       PES0000020000A084152011090813400270                                                
6024600020000112511702042744671900000000036                                                                                     
7PESE                                                                                000000000020000                            
50000210201109082011090917020911278382       PES0000020000A072322011090811420213                                                
6024600020000112561702091127838200000000042                                                                                     
7PESE                                                                                000000000020000                            
50000310201109082011090917020716517078       PES0000020000A036242011090810400085                                                
6024600020000112571702071651707800000000021                                                                                     
7PESE                                                                                000000000020000                            
50000410201109082011090917021224211979       PES0000020000A105302011090812010150                                                
6024600020000112571702122421197900000000036                                                                                     
7PESE                                                                                000000000020000                            
50000510201109082011090917020427830460       PES0000020000W001212011090815481249                                                
6024600020000112581702042783046000000000084                                                                                     
7PESE                                                                                000000000020000                            
50000610201109082011090900502428146082       PES0000024500A076412011090819110222                                                
6024600024500112520050242814608200030000042                                                                                     
7PESE                                                                                000000000024500                            
50000710201109082011090900503727008710       PES0000024500A072782011090815180340                                                
6024600024500112550050372700871000030000042                                                                                     
7PESE                                                                                000000000024500                            
50000810201109082011090900501334552758       PES0000024500M602162011090813410133                                                
6024600024500112560050133455275800030000000                                                                                     
7PESE                                                                                000000000024500                            
50000910201109082011090900504611877168       PES0000024500A086972011090813390112                                                
6024600024500112560050461187716800030000037                                                                                     
7PESE                                                                                000000000024500                            
50001010201109082011090900504326365238       PES0000024500A036172011090811170026                                                
6024600024500112570050432636523800030000090                                                                                     
7PESE                                                                                000000000024500                            
50001110201109082011090900504610727941       PES0000024500A068682011090816060109                                                
6024600024500112570050461072794100030000057                                                                                     
7PESE                                                                                000000000024500                            
50001210201109082011090900502138684675       PES0000024500A098082011090810320004                                                
6024600024500112580050213868467500030000015                                                                                     
7PESE                                                                                000000000024500                            
50001310201109082011090900502812894534       PES0000024500A032962011090815570011                                                
6024600024500112580050281289453400030000078                                                                                     
7PESE                                                                                000000000024500                            
50001410201109082011090900502813501385       PES0000024500A070602011090814540172                                                
6024600024500112580050281350138500030000057                                                                                     
7PESE                                                                                000000000024500                            
50001510201109082011090900504328470127       PES0000024500A032962011090810580013                                                
6024600024500112580050432847012700030000015                                                                                     
7PESE                                                                                000000000024500                            
50001610201109082011090900532529492142       PES0000029000M602162011090813420134                                                
6024600029000112560053252949214200020000078                                                                                     
7PESE                                                                                000000000029000                            
50001710201109082011090900532531271700       PES0000029000M602162011090813420135                                                
6024600029000112560053253127170000020000099                                                                                     
7PESE                                                                                000000000029000                            
50001810201109082011090901280326005240       PES0000036500A104422011090818060170                                                
6024600036500112510128032600524000000000016                                                                                     
7PESE                                                                                000000000036500                            
50001910201109082011090901280522475837       PES0000036500A082002011090820070169                                                
6024600036500112520128052247583700000000090                                                                                     
7PESE                                                                                000000000036500                            
50002010201109082011090901280229145254       PES0000036500A106992011090810060012                                                
6024600036500112550128022914525400000000037                                                                                     
7PESE                                                                                000000000036500                            
50002110201109082011090901280328070689       PES0000036500A103902011090816020227                                                
6024600036500112550128032807068900000000057                                                                                     
7PESE                                                                                000000000036500                            
50002210201109082011090901280425138456       PES0000036500M600022011090812420154                                                
6024600036500112550128042513845600000000021                                                                                     
7PESE                                                                                000000000036500                            
50002310201109082011090901280425069174       PES0000036500A049332011090812470101                                                
6024600036500112560128042506917400000000015                                                                                     
7PESE                                                                                000000000036500                            
50002410201109082011090901280518324344       PES0000036500A004542011090814240232                                                
6024600036500112570128051832434400000000090                                                                                     
7PESE                                                                                000000000036500                            
50002510201109082011090901280618042374       PES0000036500L071292011090821396775                                                
6024600036500112570128061804237400000000000                                                                                     
7PESE                                                                                000000000036500                            
50002610201109082011090901280229647297       PES0000036500A106722011090811260114                                                
6024600036500112580128022964729700000000057                                                                                     
7PESE                                                                                000000000036500                            
50002710201109082011090901280425554778       PES0000036500E070422011090803225326                                                
6024600036500112580128042555477800000000042                                                                                     
7PESE                                                                                000000000036500                            
50002810201109082011090901280518382262       PES0000036500L071292011090821396774                                                
6024600036500112580128051838226200000000058                                                                                     
7PESE                                                                                000000000036500                            
50002910201109082011090900530520315306       PES0000038500M602002011090812020044                                                
6024600038500112570053052031530600010000042                                                                                     
7PESE                                                                                000000000038500                            
50003010201109082011090900530328470127       PES0000038500A032962011090810580014                                                
6024600038500112580053032847012700010000057                                                                                     
7PESE                                                                                000000000038500                            
50003110201109082011090999030233017000       PES0000038500A094782011090812300194                                                
6024600038500112589903023301700000025000000                                                                                     
7PESE                                                                                000000000038500                            
82011090900000100000310000009200000000000000000000000000000000000000000000031                                                   
9201109090000010000031000000920000000000000000000000000000000000000000000000031                                                 
