120110809PAGO FACIL               090060246FABIAN NORBERTO D´ERAMO                                                              
320110809000001FABIAN NORBERTO D´ERAMO                                                                                          
50000110201108082011080944010427203047       PES0000006000A086582011080819130029                                                
6024600006000112204401042720304700010000079                                                                                     
7PESE                                                                                000000000006000                            
50000210201108082011080944010135989589       PES0000006000A093082011080817480223                                                
6024600006000112224401013598958900010000084                                                                                     
7PESE                                                                                000000000006000                            
50000310201108082011080900504742907148       PES0000007000A096182011080817570181                                                
6024600007000112220050474290714800015000057                                                                                     
7PESE                                                                                000000000007000                            
50000410201108082011080917020136659372       PES0000016000M640392011080813250153                                                
6024600016000112211702013665937200040000078                                                                                     
7PESE                                                                                000000000016000                            
50000510201108082011080998020227919780       PES0000016500A029342011080810480107                                                
6024600016500112279802022791978000010000015                                                                                     
7PESE                                                                                000000000016500                            
50000610201108082011080900501624343449       PES0000019500A620782011080812040023                                                
6024600019500112200050162434344900050000063                                                                                     
7PESE                                                                                000000000019500                            
50000710201108082011080900501625443859       PES0000019500A049072011080813420051                                                
6024600019500112200050162544385900050000021                                                                                     
7PESE                                                                                000000000019500                            
50000810201108082011080900501913991212       PES0000019500A063662011080817300193                                                
6024600019500112200050191399121200050000090                                                                                     
7PESE                                                                                000000000019500                            
50000910201108082011080900501914319177       PES0000019500A043482011080818060227                                                
6024600019500112200050191431917700050000000                                                                                     
7PESE                                                                                000000000019500                            
50001010201108082011080900502427203047       PES0000019500A086582011080819130030                                                
6024600019500112200050242720304700050000021                                                                                     
7PESE                                                                                000000000019500                            
50001110201108082011080900502429064764       PES0000019500A028922011080818160132                                                
6024600019500112200050242906476400050000037                                                                                     
7PESE                                                                                000000000019500                            
50001210201108082011080900502525433673       PES0000019500A095212011080816510022                                                
6024600019500112200050252543367300050000079                                                                                     
7PESE                                                                                000000000019500                            
50001310201108082011080900502621443841       PES0000019500L070082011080820562799                                                
6024600019500112200050262144384100050000042                                                                                     
7PESE                                                                                000000000019500                            
50001410201108082011080900502622025735       PES0000019500A082002011080806530011                                                
6024600019500112200050262202573500050000084                                                                                     
7PESE                                                                                000000000019500                            
50001510201108082011080900502812706997       PES0000019500A085222011080811200082                                                
6024600019500112200050281270699700050000021                                                                                     
7PESE                                                                                000000000019500                            
50001610201108082011080900503004978757       PES0000019500D000232011080811390029                                                
6024600019500112200050300497875700050000016                                                                                     
7PESE                                                                                000000000019500                            
50001710201108082011080900504328095628       PES0000019500M600402011080814560544                                                
6024600019500112200050432809562800050000000                                                                                     
7PESE                                                                                000000000019500                            
50001810201108082011080900502522628024       PES0000019500A045162011080816260343                                                
6024600019500112210050252262802400050000042                                                                                     
7PESE                                                                                000000000019500                            
50001910201108082011080900502618532531       PES0000019500A085592011080815200113                                                
6024600019500112210050261853253100050000078                                                                                     
7PESE                                                                                000000000019500                            
50002010201108082011080900502716493032       PES0000019500A071202011080814330168                                                
6024600019500112210050271649303200050000079                                                                                     
7PESE                                                                                000000000019500                            
50002110201108082011080900502427000633       PES0000019500A071202011080814330167                                                
6024600019500112220050242700063300050000036                                                                                     
7PESE                                                                                000000000019500                            
50002210201108082011080900502621132123       PES0000019500M620082011080809540020                                                
6024600019500112220050262113212300050000036                                                                                     
7PESE                                                                                000000000019500                            
50002310201108082011080900504423091343       PES0000019500A096182011080817560179                                                
6024600019500112220050442309134300050000021                                                                                     
7PESE                                                                                000000000019500                            
50002410201108082011080900504423965599       PES0000019500A096182011080817560180                                                
6024600019500112220050442396559900050000037                                                                                     
7PESE                                                                                000000000019500                            
50002510201108082011080900504043669605       PES0000019500A090762011080814080570                                                
6024600019500112240050404366960500050000000                                                                                     
7PESE                                                                                000000000019500                            
50002610201108082011080900502522765272       PES0000019500L071192011080813183046                                                
6024600019500112260050252276527200050000090                                                                                     
7PESE                                                                                000000000019500                            
50002710201108082011080900502718833480       PES0000019500A034672011080810170051                                                
6024600019500112260050271883348000050000000                                                                                     
7PESE                                                                                000000000019500                            
50002810201108082011080900502138852723       PES0000019500M620082011080817190132                                                
6024600019500112270050213885272300050000000                                                                                     
7PESE                                                                                000000000019500                            
50002910201108082011080900502427191640       PES0000019500A093012011080814070337                                                
6024600019500112270050242719164000050000078                                                                                     
7PESE                                                                                000000000019500                            
50003010201108082011080900504327667907       PES0000019500A093012011080814070338                                                
6024600019500112270050432766790700050000037                                                                                     
7PESE                                                                                000000000019500                            
50003110201108082011080997000428167382       PES0000020000A016682011080817530234                                                
6024600020000112179700042816738200000000336                                                                                     
7PESE                                                                                000000000020000                            
50003210201108082011080900540236087988       PES0000027000A103582011080812240218                                                
6024600027000112270054023608798800015000078                                                                                     
7PESE                                                                                000000000027000                            
50003310201108082011080902300425983384       PES0000031500A039232011080814160136                                                
6024600031500112200230042598338400030000063                                                                                     
7PESE                                                                                000000000031500                            
50003410201108082011080902300620671027       PES0000031500A108702011080815520173                                                
6024600031500112260230062067102700030000078                                                                                     
7PESE                                                                                000000000031500                            
50003510201108082011080902300428807743       PES0000031500L120152011080818143530                                                
6024600031500112270230042880774300030000037                                                                                     
7PESE                                                                                000000000031500                            
50003610201108082011080999030236360655       PES0000033110A082952011080819060341                                                
6024600033110112279903023636065500021600058                                                                                     
7PESE                                                                                000000000033110                            
50003710201108082011080901280693190407       PES0000034500A078122011080811190115                                                
6024600034500112240128069319040700000000015                                                                                     
7PESE                                                                                000000000034500                            
50003810201108082011080901280325264786       PES0000034500A092542011080815120494                                                
6024600034500112270128032526478600000000021                                                                                     
7PESE                                                                                000000000034500                            
50003910201108082011080999030234142652       PES0000035000A073822011080812230043                                                
6024600035000112199903023414265200035000558                                                                                     
7PESE                                                                                000000000035000                            
50004010201108082011080999030235216759       PES0000035000A099242011080818360108                                                
6024600035000112199903023521675900035000500                                                                                     
7PESE                                                                                000000000035000                            
50004110201108082011080999030236943330       PES0000035000A051082011080817340339                                                
6024600035000112199903023694333000035000584                                                                                     
7PESE                                                                                000000000035000                            
50004210201108082011080999030234750212       PES0000038500A016682011080817590238                                                
6024600038500112279903023475021200025000016                                                                                     
7PESE                                                                                000000000038500                            
50004310201108082011080999030236087988       PES0000038500A103582011080812240219                                                
6024600038500112279903023608798800025000099                                                                                     
7PESE                                                                                000000000038500                            
82011080900000100000430000009646100000000000000000000000000000000000000000043                                                   
9201108090000010000043000000964610000000000000000000000000000000000000000000043                                                 
