120120309PAGO FACIL               090060246FABIAN NORBERTO D´ERAMO                                                              
320120309000001FABIAN NORBERTO D´ERAMO                                                                                          
50000110201203082012030902330425966397       PES0000025000A094512012030710190026                                                
6024600025000120670233042596639700030000642                                                                                     
7PESE                                                                                000000000025000                            
50000210201203082012030953010227308452       PES0000006000A078562012030818010106                                                
6024600006000120685301022730845200015000763                                                                                     
7PESE                                                                                000000000006000                            
50000310201203082012030953010316834249       PES0000006000A097372012030817230166                                                
6024600006000120685301031683424900015000657                                                                                     
7PESE                                                                                000000000006000                            
50000410201203082012030953010618505536       PES0000006000A089892012030816530311                                                
6024600006000120685301061850553600015000679                                                                                     
7PESE                                                                                000000000006000                            
50000510201203082012030953010622548100       PES0000006000A078562012030818020107                                                
6024600006000120685301062254810000015000700                                                                                     
7PESE                                                                                000000000006000                            
50000610201203082012030953010714216125       PES0000006000A001242012030810540251                                                
6024600006000120685301071421612500015000757                                                                                     
7PESE                                                                                000000000006000                            
50000710201203082012030953011225686860       PES0000006000A072762012030815070003                                                
6024600006000120685301122568686000015000678                                                                                     
7PESE                                                                                000000000006000                            
50000810201203082012030953011826622098       PES0000006000A016362012030814340575                                                
6024600006000120685301182662209800015000663                                                                                     
7PESE                                                                                000000000006000                            
50000910201203082012030953011838615760       PES0000006000A016362012030814340574                                                
6024600006000120685301183861576000015000637                                                                                     
7PESE                                                                                000000000006000                            
50001010201203082012030900681116921228       PES0000008510D000012012030812280052                                                
6024600008510120680068111692122800000100042                                                                                     
7PESE                                                                                000000000008510                            
50001110201203082012030900682426196454       PES0000016100A044382012030818410168                                                
6024600016100120680068242619645400000000057                                                                                     
7PESE                                                                                000000000016100                            
50001210201203082012030900694516224490       PES0000020000A075812012030813310170                                                
6024600020000120680069451622449000020000042                                                                                     
7PESE                                                                                000000000020000                            
50001310201203082012030918380331237434       PES0000020000A042592012030811310054                                                
6024600020000120681838033123743400000000037                                                                                     
7PESE                                                                                000000000020000                            
50001410201203082012030918380717684750       PES0000020000A110612012030810390025                                                
6024600020000120681838071768475000000000084                                                                                     
7PESE                                                                                000000000020000                            
50001510201203082012030918382338691808       PES0000020000A037752012030820530508                                                
6024600020000120681838233869180800000000016                                                                                     
7PESE                                                                                000000000020000                            
50001610201203082012030900692525216796       PES0000020000M601252012030814380230                                                
6024600020000120700069252521679600020000316                                                                                     
7PESE                                                                                000000000020000                            
50001710201203082012030900692911848670       PES0000020000A028472012030810150075                                                
6024600020000120700069291184867000020000442                                                                                     
7PESE                                                                                000000000020000                            
50001810201203082012030902333425404423       PES0000020000A110092012030814390293                                                
6024600020000120750233342540442300000000078                                                                                     
7PESE                                                                                000000000020000                            
50001910201203082012030900681529118793       PES0000023000A095502012030812510121                                                
6024600023000120680068152911879300000000021                                                                                     
7PESE                                                                                000000000023000                            
50002010201203082012030900681816247042       PES0000023000A021472012030812260173                                                
6024600023000120680068181624704200000000063                                                                                     
7PESE                                                                                000000000023000                            
50002110201203082012030900682523248125       PES0000023000A059812012030811220075                                                
6024600023000120680068252324812500000000036                                                                                     
7PESE                                                                                000000000023000                            
50002210201203082012030900682524988319       PES0000023000A042592012030808510007                                                
6024600023000120680068252498831900000000058                                                                                     
7PESE                                                                                000000000023000                            
50002310201203082012030900682620226948       PES0000023000A092732012030809190044                                                
6024600023000120680068262022694800000000063                                                                                     
7PESE                                                                                000000000023000                            
50002410201203082012030900682620568145       PES0000023000A034312012030811480150                                                
6024600023000120680068262056814500000000042                                                                                     
7PESE                                                                                000000000023000                            
50002510201203082012030900682813235703       PES0000023000A047812012030816530035                                                
6024600023000120680068281323570300000000036                                                                                     
7PESE                                                                                000000000023000                            
50002610201203082012030900682912841516       PES0000023000A080082012030816060058                                                
6024600023000120680068291284151600000000084                                                                                     
7PESE                                                                                000000000023000                            
50002710201203082012030902330524424705       PES0000028000A104982012030809280035                                                
6024600025000120670233052442470500030000715                                                                                     
7PESE                                                                                000000000028000                            
50002810201203082012030902330524428178       PES0000028000D000142012030816530457                                                
6024600025000120670233052442817800030000621                                                                                     
7PESE                                                                                000000000028000                            
82012030900000100000280000004776100000000000000000000000000000000000000000028                                                   
9201203090000010000028000000477610000000000000000000000000000000000000000000028                                                 
