120110609PAGO FACIL               090060246FABIAN NORBERTO D´ERAMO                                                              
320110609000001FABIAN NORBERTO D´ERAMO                                                                                          
50000110201106082011060917020911281193       PES0000016000L071152011060808274864                                                
6024600016000111651702091128119300040000078                                                                                     
7PESE                                                                                000000000016000                            
50000210201106082011060999030135377431       PES0000031000A024182011060817250143                                                
6024600028000111589903013537743100030000779                                                                                     
7PESE                                                                                000000000031000                            
50000310201106082011060999030236943330       PES0000038500A099762011060815420312                                                
6024600035000111589903023694333000035000558                                                                                     
7PESE                                                                                000000000038500                            
50000410201106082011060999030236087988       PES0000038500A103582011060812470185                                                
6024600038500111669903023608798800025000063                                                                                     
7PESE                                                                                000000000038500                            
82011060900000100000040000001240000000000000000000000000000000000000000000004                                                   
9201106090000010000004000000124000000000000000000000000000000000000000000000004                                                 
