120130109PAGO FACIL               090060246FABIAN NORBERTO D´ERAMO                                                              
320130109000001FABIAN NORBERTO D´ERAMO                                                                                          
50000110201301082013010969020426003922       PES0000010000A069302013010811000056                                                
6024600010000130136902042600392200000000078                                                                                     
7PESE                                                                                000000000010000                            
50000210201301082013010969020520522283       PES0000010000M620142013010817160052                                                
6024600010000130136902052052228300000000016                                                                                     
7PESE                                                                                000000000010000                            
50000310201301082013010969021328877266       PES0000010000M620142013010817150051                                                
6024600010000130136902132887726600000000036                                                                                     
7PESE                                                                                000000000010000                            
50000410201301082013010969020423749117       PES0000010000A044492013010818180140                                                
6024600010000130146902042374911700000000042                                                                                     
7PESE                                                                                000000000010000                            
50000510201301082013010929080892620945       PES0000018000A036052013010817470063                                                
6024600018000130102908089262094500000000015                                                                                     
7PESE                                                                                000000000018000                            
50000610201301082013010929080223243774       PES0000018000A064992013010816430116                                                
6024600018000130112908022324377400000000036                                                                                     
7PESE                                                                                000000000018000                            
50000710201301082013010929080223473951       PES0000018000A601232013010812420117                                                
6024600018000130112908022347395100000000021                                                                                     
7PESE                                                                                000000000018000                            
50000810201301082013010929080223834820       PES0000018000A090612013010817050154                                                
6024600018000130112908022383482000000000000                                                                                     
7PESE                                                                                000000000018000                            
50000910201301082013010929080318398966       PES0000018000A112712013010816310129                                                
6024600018000130112908031839896600000000084                                                                                     
7PESE                                                                                000000000018000                            
50001010201301082013010929080321865984       PES0000018000D001502013010810370108                                                
6024600018000130112908032186598400000000084                                                                                     
7PESE                                                                                000000000018000                            
50001110201301082013010929080322475255       PES0000018000A104762013010811440031                                                
6024600018000130112908032247525500000000058                                                                                     
7PESE                                                                                000000000018000                            
50001210201301082013010929080412523270       PES0000018000A115442013010819520257                                                
6024600018000130112908041252327000000000078                                                                                     
7PESE                                                                                000000000018000                            
50001310201301082013010929080630332791       PES0000018000A118592013010810240018                                                
6024600018000130112908063033279100000000042                                                                                     
7PESE                                                                                000000000018000                            
50001410201301082013010929080632326514       PES0000018000A077392013010818530185                                                
6024600018000130112908063232651400000000015                                                                                     
7PESE                                                                                000000000018000                            
50001510201301082013010929080820569873       PES0000018000A047992013010815020083                                                
6024600018000130112908082056987300000000078                                                                                     
7PESE                                                                                000000000018000                            
50001610201301082013010929081320803356       PES0000025000A640822013010810130151                                                
6024600025000130102908132080335600000000021                                                                                     
7PESE                                                                                000000000025000                            
50001710201301082013010929081133936382       PES0000025000A077392013010818530184                                                
6024600025000130112908113393638200000000021                                                                                     
7PESE                                                                                000000000025000                            
50001810201301082013010929081227723033       PES0000025000A081492013010818470470                                                
6024600025000130112908122772303300000000057                                                                                     
7PESE                                                                                000000000025000                            
50001910201301082013010999030121558279       PES0000051000M600122013010814110186                                                
6024600047500130079903012155827900035000700                                                                                     
7PESE                                                                                000000000051000                            
50002010201301082013010999030128984843       PES0000047500A022842013010815060253                                                
6024600047500130149903012898484300035000042                                                                                     
7PESE                                                                                000000000047500                            
50002110201301082013010999030133708869       PES0000051000A098912013010817130027                                                
6024600051000130159903013370886900025000058                                                                                     
7PESE                                                                                000000000051000                            
82013010900000100000210000004625000000000000000000000000000000000000000000021                                                   
9201301090000010000021000000462500000000000000000000000000000000000000000000021                                                 
