120110810PAGO FACIL               090060246FABIAN NORBERTO D´ERAMO                                                              
320110810000001FABIAN NORBERTO D´ERAMO                                                                                          
50000110201108092011081044011912636274       PES0000006000A058512011080916220081                                                
6024600006000112224401191263627400010000042                                                                                     
7PESE                                                                                000000000006000                            
50000210201108092011081000504740910653       PES0000007000A095462011080915410235                                                
6024600007000112280050474091065300015000021                                                                                     
7PESE                                                                                000000000007000                            
50000310201108092011081017020621434341       PES0000016000A069392011080910170028                                                
6024600016000112211702062143434100040000015                                                                                     
7PESE                                                                                000000000016000                            
50000410201108092011081017020428840489       PES0000016000A102282011080909160037                                                
6024600016000112221702042884048900040000078                                                                                     
7PESE                                                                                000000000016000                            
50000510201108092011081000500925299528       PES0000019500M601652011080913150239                                                
6024600019500112210050092529952800050000021                                                                                     
7PESE                                                                                000000000019500                            
50000610201108092011081000502329909044       PES0000019500A049452011080909570026                                                
6024600019500112210050232990904400050000078                                                                                     
7PESE                                                                                000000000019500                            
50000710201108092011081000502426730259       PES0000019500M640052011080911580110                                                
6024600019500112210050242673025900050000021                                                                                     
7PESE                                                                                000000000019500                            
50000810201108092011081000502621582953       PES0000019500A106072011080916570079                                                
6024600019500112210050262158295300050000079                                                                                     
7PESE                                                                                000000000019500                            
50000910201108092011081000502622000218       PES0000019500A103612011080909530038                                                
6024600019500112210050262200021800050000021                                                                                     
7PESE                                                                                000000000019500                            
50001010201108092011081000504420679154       PES0000019500A079082011080915260216                                                
6024600019500112210050442067915400050000015                                                                                     
7PESE                                                                                000000000019500                            
50001110201108092011081000504422475561       PES0000019500A040462011080915550033                                                
6024600019500112210050442247556100050000057                                                                                     
7PESE                                                                                000000000019500                            
50001210201108092011081000504424618900       PES0000019500A077352011080918160108                                                
6024600019500112220050442461890000050000037                                                                                     
7PESE                                                                                000000000019500                            
50001310201108092011081000502426124201       PES0000019500A028382011080910530108                                                
6024600019500112230050242612420100050000063                                                                                     
7PESE                                                                                000000000019500                            
50001410201108092011081000503818093655       PES0000019500A065362011080909150048                                                
6024600019500112240050381809365500050000058                                                                                     
7PESE                                                                                000000000019500                            
50001510201108092011081000503820206963       PES0000019500A033412011080909270020                                                
6024600019500112240050382020696300050000042                                                                                     
7PESE                                                                                000000000019500                            
50001610201108092011081000503824335448       PES0000019500A033412011080909270021                                                
6024600019500112240050382433544800050000042                                                                                     
7PESE                                                                                000000000019500                            
50001710201108092011081000504420703042       PES0000019500A033412011080909270019                                                
6024600019500112240050442070304200050000063                                                                                     
7PESE                                                                                000000000019500                            
50001810201108092011081000501432071615       PES0000019500D000832011080912060105                                                
6024600019500112260050143207161500050000037                                                                                     
7PESE                                                                                000000000019500                            
50001910201108092011081000502814462302       PES0000019500A068892011080911050106                                                
6024600019500112260050281446230200050000016                                                                                     
7PESE                                                                                000000000019500                            
50002010201108092011081000504233469292       PES0000019500A082002011080916290049                                                
6024600019500112270050423346929200050000000                                                                                     
7PESE                                                                                000000000019500                            
50002110201108092011081000501241007704       PES0000019500L070082011080919482982                                                
6024600019500112280050124100770400050000000                                                                                     
7PESE                                                                                000000000019500                            
50002210201108092011081000502524753812       PES0000019500A002542011080917590047                                                
6024600019500112280050252475381200050000063                                                                                     
7PESE                                                                                000000000019500                            
50002310201108092011081000503633787477       PES0000019500A072782011080914050246                                                
6024600019500112280050363378747700050000042                                                                                     
7PESE                                                                                000000000019500                            
50002410201108092011081000504233556124       PES0000019500A077612011080918410134                                                
6024600019500112280050423355612400050000036                                                                                     
7PESE                                                                                000000000019500                            
50002510201108092011081001280327768415       PES0000034500A104122011080913470033                                                
6024600034500112270128032776841500000000063                                                                                     
7PESE                                                                                000000000034500                            
50002610201108092011081001280423060812       PES0000034500A068212011080914580356                                                
6024600034500112270128042306081200000000036                                                                                     
7PESE                                                                                000000000034500                            
50002710201108092011081099030231075840       PES0000038500A072152011080914260005                                                
6024600038500112279903023107584000025000100                                                                                     
7PESE                                                                                000000000038500                            
82011081000000100000270000005425000000000000000000000000000000000000000000027                                                   
9201108100000010000027000000542500000000000000000000000000000000000000000000027                                                 
