120121010PAGO FACIL               090060246FABIAN NORBERTO D´ERAMO                                                              
320121010000001FABIAN NORBERTO D´ERAMO                                                                                          
50000110201210092012101020050824674913       PES0000004000A015292012100913250102                                                
6024600004000122852005082467491300000000058                                                                                     
7PESE                                                                                000000000004000                            
50000210201210092012101020050522108141       PES0000008000D000222012100911170081                                                
6024600008000122852005052210814100000000090                                                                                     
7PESE                                                                                000000000008000                            
50000310201210092012101020050542374978       PES0000008000D000222012100911170082                                                
6024600008000122852005054237497800000000015                                                                                     
7PESE                                                                                000000000008000                            
50000410201210092012101020050621918162       PES0000008000D000222012100911170080                                                
6024600008000122852005062191816200000000079                                                                                     
7PESE                                                                                000000000008000                            
50000510201210092012101044021620569550       PES0000008500D000252012100917030201                                                
6024600008500122894402162056955000000000015                                                                                     
7PESE                                                                                000000000008500                            
50000610201210092012101065000137351722       PES0000013000A090762012100921420550                                                
6024600013000122836500013735172200015000015                                                                                     
7PESE                                                                                000000000013000                            
50000710201210092012101098010134741505       PES0000015000M601622012100911590202                                                
6024600015000122849801013474150500000000063                                                                                     
7PESE                                                                                000000000015000                            
50000810201210092012101018403035156521       PES0000015000A113532012100912410327                                                
6024600015000122851840303515652100100000000                                                                                     
7PESE                                                                                000000000015000                            
50000910201210092012101018400618417267       PES0000015000A034222012100915550106                                                
6024600015000122871840061841726700100000321                                                                                     
7PESE                                                                                000000000015000                            
50001010201210092012101098010131071186       PES0000015000A114472012100920380086                                                
6024600015000122899801013107118600000000121                                                                                     
7PESE                                                                                000000000015000                            
50001110201210092012101029081223920741       PES0000023000A104702012100908040012                                                
6024600023000122852908122392074100020000090                                                                                     
7PESE                                                                                000000000023000                            
50001210201210092012101056011520018667       PES0000023000A116372012100909200072                                                
6024600023000122875601152001866700000000084                                                                                     
7PESE                                                                                000000000023000                            
50001310201210092012101000540433380040       PES0000026000A036692012100916170008                                                
6024600026000122900054043338004000010000042                                                                                     
7PESE                                                                                000000000026000                            
50001410201210092012101099040133259978       PES0000030500A089832012100912280004                                                
6024600030500122899904013325997800015000157                                                                                     
7PESE                                                                                000000000030500                            
50001510201210092012101099040133989486       PES0000030500A088072012100912150162                                                
6024600030500122899904013398948600015000178                                                                                     
7PESE                                                                                000000000030500                            
50001610201210092012101000712622285960       PES0000032500A069092012100912180220                                                
6024600032500122830071262228596000000000084                                                                                     
7PESE                                                                                000000000032500                            
50001710201210092012101000712720019018       PES0000032500A105252012100918500232                                                
6024600032500122830071272001901800000000078                                                                                     
7PESE                                                                                000000000032500                            
50001810201210092012101000713537701466       PES0000032500A055682012100919190159                                                
6024600032500122830071353770146600000000099                                                                                     
7PESE                                                                                000000000032500                            
50001910201210092012101000714422475743       PES0000032500A082002012100917460116                                                
6024600032500122830071442247574300000000021                                                                                     
7PESE                                                                                000000000032500                            
50002010201210092012101000714612789951       PES0000032500A092132012100911320110                                                
6024600032500122830071461278995100000000000                                                                                     
7PESE                                                                                000000000032500                            
50002110201210092012101000712137576505       PES0000032500M640382012100910080034                                                
6024600032500122840071213757650500000000078                                                                                     
7PESE                                                                                000000000032500                            
50002210201210092012101000713634733482       PES0000032500A090602012100915490434                                                
6024600032500122840071363473348200000000000                                                                                     
7PESE                                                                                000000000032500                            
50002310201210092012101000714235267035       PES0000032500D001482012100910360030                                                
6024600032500122840071423526703500000000021                                                                                     
7PESE                                                                                000000000032500                            
50002410201210092012101000714137607091       PES0000032500A076812012100909360028                                                
6024600032500122850071413760709100000000036                                                                                     
7PESE                                                                                000000000032500                            
50002510201210092012101000714421440545       PES0000032500A028072012100913530174                                                
6024600032500122850071442144054500000000079                                                                                     
7PESE                                                                                000000000032500                            
50002610201210092012101000711594161243       PES0000032500A043162012100914170127                                                
6024600032500122860071159416124300000000037                                                                                     
7PESE                                                                                000000000032500                            
50002710201210092012101000712332074555       PES0000032500A110072012100912390125                                                
6024600032500122860071233207455500000000016                                                                                     
7PESE                                                                                000000000032500                            
50002810201210092012101000712716492893       PES0000032500A068642012100917580093                                                
6024600032500122860071271649289300000000015                                                                                     
7PESE                                                                                000000000032500                            
50002910201210092012101000714043406377       PES0000032500A112902012100911220127                                                
6024600032500122870071404340637700000000042                                                                                     
7PESE                                                                                000000000032500                            
50003010201210092012101000712427938571       PES0000032500M601642012100912420184                                                
6024600032500122900071242793857100000000000                                                                                     
7PESE                                                                                000000000032500                            
50003110201210092012101000714421478782       PES0000032500M600842012100910450038                                                
6024600032500122900071442147878200000000016                                                                                     
7PESE                                                                                000000000032500                            
50003210201210092012101000722818692832       PES0000037500A090372012100917260412                                                
6024600037500122900072281869283200000000079                                                                                     
7PESE                                                                                000000000037500                            
50003310201210092012101099030136832667       PES0000039525D000252012100918190279                                                
6024600039525122899903013683266700021500100                                                                                     
7PESE                                                                                000000000039525                            
50003410201210092012101099030137247863       PES0000039525D000252012100918190278                                                
6024600039525122899903013724786300021500142                                                                                     
7PESE                                                                                000000000039525                            
50003510201210092012101099030136996669       PES0000043000A066812012100910170261                                                
6024600043000122819903013699666900035000542                                                                                     
7PESE                                                                                000000000043000                            
50003610201210092012101000720811986354       PES0000047500A092082012100913580280                                                
6024600046500122790072081198635400010000437                                                                                     
7PESE                                                                                000000000047500                            
50003710201210092012101000721134517298       PES0000047500A113532012100915360187                                                
6024600046500122790072113451729800010000536                                                                                     
7PESE                                                                                000000000047500                            
50003810201210092012101099030128879956       PES0000046500A109582012100911180206                                                
6024600046500122899903012887995600025000184                                                                                     
7PESE                                                                                000000000046500                            
50003910201210092012101000720426080563       PES0000047500A109842012100914160005                                                
6024600047500122870072042608056300000000058                                                                                     
7PESE                                                                                000000000047500                            
50004010201210092012101000721521986784       PES0000047500L071192012100916140234                                                
6024600047500122870072152198678400000000063                                                                                     
7PESE                                                                                000000000047500                            
50004110201210092012101000720135860897       PES0000047500A028112012100910570125                                                
6024600047500122890072013586089700000000015                                                                                     
7PESE                                                                                000000000047500                            
50004210201210092012101000720327180990       PES0000047500A097192012100916070236                                                
6024600047500122890072032718099000000000036                                                                                     
7PESE                                                                                000000000047500                            
50004310201210092012101000720426124201       PES0000047500A028382012100914430108                                                
6024600047500122900072042612420100000000000                                                                                     
7PESE                                                                                000000000047500                            
82012101000000100000430000013010500000000000000000000000000000000000000000043                                                   
9201210100000010000043000001301050000000000000000000000000000000000000000000043                                                 
