120130110PAGO FACIL               090060246FABIAN NORBERTO D´ERAMO                                                              
320130110000001FABIAN NORBERTO D´ERAMO                                                                                          
50000110201301092013011069020713781275       PES0000010000A094242013010910470032                                                
6024600010000130136902071378127500000000042                                                                                     
7PESE                                                                                000000000010000                            
50000210201301092013011069020712363803       PES0000010000A621082013010917270004                                                
6024600010000130156902071236380300000000063                                                                                     
7PESE                                                                                000000000010000                            
50000310201301092013011029080229591077       PES0000018000A114742013010911500100                                                
6024600018000130092908022959107700000000084                                                                                     
7PESE                                                                                000000000018000                            
50000410201301092013011029080134653382       PES0000018000A116382013010917300024                                                
6024600018000130102908013465338200000000015                                                                                     
7PESE                                                                                000000000018000                            
50000510201301092013011029080134502969       PES0000018000M620022013010910220027                                                
6024600018000130112908013450296900000000090                                                                                     
7PESE                                                                                000000000018000                            
50000610201301092013011029080225368266       PES0000018000A072282013010916260458                                                
6024600018000130112908022536826600000000078                                                                                     
7PESE                                                                                000000000018000                            
50000710201301092013011029080321603224       PES0000018000M600192013010913530035                                                
6024600018000130112908032160322400000000021                                                                                     
7PESE                                                                                000000000018000                            
50000810201301092013011029080413264866       PES0000018000M600852013010914010332                                                
6024600018000130112908041326486600000000015                                                                                     
7PESE                                                                                000000000018000                            
50000910201301092013011029080413449690       PES0000018000A055682013010918230086                                                
6024600018000130112908041344969000000000078                                                                                     
7PESE                                                                                000000000018000                            
50001010201301092013011029080414989064       PES0000018000A601872013010911030186                                                
6024600018000130112908041498906400000000079                                                                                     
7PESE                                                                                000000000018000                            
50001110201301092013011029080631653087       PES0000018000A116332013010915360186                                                
6024600018000130112908063165308700000000037                                                                                     
7PESE                                                                                000000000018000                            
50001210201301092013011029080725583671       PES0000018000A601872013010911030187                                                
6024600018000130112908072558367100000000078                                                                                     
7PESE                                                                                000000000018000                            
50001310201301092013011029080726884189       PES0000018000M640342013010910470019                                                
6024600018000130112908072688418900000000084                                                                                     
7PESE                                                                                000000000018000                            
50001410201301092013011029080817795507       PES0000018000A112632013010912020169                                                
6024600018000130112908081779550700000000079                                                                                     
7PESE                                                                                000000000018000                            
50001510201301092013011029080821078637       PES0000018000A116332013010915360185                                                
6024600018000130112908082107863700000000084                                                                                     
7PESE                                                                                000000000018000                            
50001610201301092013011029080822798538       PES0000018000M600192013010913520034                                                
6024600018000130112908082279853800000000063                                                                                     
7PESE                                                                                000000000018000                            
50001710201301092013011029081322007139       PES0000025000A041372013010909370049                                                
6024600025000130092908132200713900000000058                                                                                     
7PESE                                                                                000000000025000                            
50001810201301092013011029081131164464       PES0000025000A075812013010914300024                                                
6024600025000130112908113116446400000000084                                                                                     
7PESE                                                                                000000000025000                            
50001910201301092013011029081316418118       PES0000025000M620642013010913125252                                                
6024600025000130112908131641811800000000042                                                                                     
7PESE                                                                                000000000025000                            
50002010201301092013011029081317020922       PES0000025000M620642013010913115251                                                
6024600025000130112908131702092200000000090                                                                                     
7PESE                                                                                000000000025000                            
50002110201301092013011029081321559111       PES0000025000A062712013010911310237                                                
6024600025000130112908132155911100000000021                                                                                     
7PESE                                                                                000000000025000                            
50002210201301092013011099030132431889       PES0000051000D000782013010917330493                                                
6024600051000130159903013243188900025000163                                                                                     
7PESE                                                                                000000000051000                            
50002310201301092013011099030136996669       PES0000051000A066812013010910080166                                                
6024600051000130159903013699666900025000084                                                                                     
7PESE                                                                                000000000051000                            
82013011000000100000230000004990000000000000000000000000000000000000000000023                                                   
9201301100000010000023000000499000000000000000000000000000000000000000000000023                                                 
