120120710PAGO FACIL               090060246FABIAN NORBERTO D´ERAMO                                                              
320120710000001FABIAN NORBERTO D´ERAMO                                                                                          
50000110201207062012071099030130515091       PES0000043000A095462012070611150123                                                
6024600043000121899903013051509100035000621                                                                                     
7PESE                                                                                000000000043000                            
50000210201207062012071059000710574592       PES0000016000A620332012070609520006                                                
6024600016000121945900071057459200000000057                                                                                     
7PESE                                                                                000000000016000                            
50000310201207062012071099030134949488       PES0000043000A100712012070612110060                                                
6024600043000121899903013494948800035000584                                                                                     
7PESE                                                                                000000000043000                            
50000410201207062012071099030136070637       PES0000043000A028072012070613580259                                                
6024600043000121899903013607063700035000621                                                                                     
7PESE                                                                                000000000043000                            
50000510201207062012071099030133036717       PES0000043000A073822012070611530210                                                
6024600043000121899903013303671700035000615                                                                                     
7PESE                                                                                000000000043000                            
50000610201207062012071099030130743301       PES0000043000A103242012070609380002                                                
6024600043000121899903013074330100035000484                                                                                     
7PESE                                                                                000000000043000                            
50000710201207062012071099030136872631       PES0000043000A092732012070614440299                                                
6024600043000121899903013687263100035000499                                                                                     
7PESE                                                                                000000000043000                            
50000810201207062012071099030134617181       PES0000043000A063832012070615180237                                                
6024600043000121899903013461718100035000616                                                                                     
7PESE                                                                                000000000043000                            
50000910201207062012071099030136157259       PES0000043000A105602012070614020079                                                
6024600043000121899903013615725900035000463                                                                                     
7PESE                                                                                000000000043000                            
50001010201207062012071099030121558279       PES0000043000A085342012070615320049                                                
6024600043000121899903012155827900035000690                                                                                     
7PESE                                                                                000000000043000                            
50001110201207062012071099030129708493       PES0000025800A071232012070614100165                                                
6024600025800121899903012970849300021000600                                                                                     
7PESE                                                                                000000000025800                            
50001210201207062012071099030133434151       PES0000043000A081272012070610070015                                                
6024600043000121899903013343415100035000500                                                                                     
7PESE                                                                                000000000043000                            
50001310201207062012071099030132431889       PES0000043000D000782012070617350200                                                
6024600043000121899903013243188900035000657                                                                                     
7PESE                                                                                000000000043000                            
50001410201207062012071099030135271379       PES0000043000A091582012070614460278                                                
6024600043000121899903013527137900035000584                                                                                     
7PESE                                                                                000000000043000                            
50001510201207062012071099040131660367       PES0000029000A100112012070616160093                                                
6024600029000121899904013166036700015000663                                                                                     
7PESE                                                                                000000000029000                            
50001610201207062012071099040118893421       PES0000029000A092202012070617240472                                                
6024600029000121899904011889342100015000357                                                                                     
7PESE                                                                                000000000029000                            
50001710201207062012071099030134378677       PES0000043000A074672012070615080015                                                
6024600043000121899903013437867700035000616                                                                                     
7PESE                                                                                000000000043000                            
50001810201207062012071099030137247863       PES0000036550D001432012070618020301                                                
6024600036550121899903013724786300030250699                                                                                     
7PESE                                                                                000000000036550                            
50001910201207062012071099030134332391       PES0000036550D001432012070618030302                                                
6024600036550121899903013433239100030250642                                                                                     
7PESE                                                                                000000000036550                            
50002010201207062012071099030136832667       PES0000036550D001432012070618030303                                                
6024600036550121899903013683266700030250642                                                                                     
7PESE                                                                                000000000036550                            
50002110201207062012071099030131925405       PES0000043000A056252012070615260132                                                
6024600043000121899903013192540500035000399                                                                                     
7PESE                                                                                000000000043000                            
50002210201207062012071099030136991781       PES0000036550A088992012070616000098                                                
6024600036550121899903013699178100030250436                                                                                     
7PESE                                                                                000000000036550                            
50002310201207062012071099030103729571       PES0000043000A073422012070618400151                                                
6024600043000121899903010372957100035000642                                                                                     
7PESE                                                                                000000000043000                            
50002410201207062012071098020216975364       PES0000018500A081572012070616550056                                                
6024600018500121899802021697536400010000584                                                                                     
7PESE                                                                                000000000018500                            
50002510201207062012071099030132631425       PES0000043000A063632012070619110053                                                
6024600043000121899903013263142500035000615                                                                                     
7PESE                                                                                000000000043000                            
50002610201207062012071057000320412140       PES0000013000A110152012070608360007                                                
6024600013000121915700032041214000010000057                                                                                     
7PESE                                                                                000000000013000                            
50002710201207062012071099020232381986       PES0000022000A090742012070617060207                                                
6024600022000121899902023238198600000000642                                                                                     
7PESE                                                                                000000000022000                            
50002810201207062012071099030131344778       PES0000043000A095702012070618550184                                                
6024600043000121899903013134477800035000637                                                                                     
7PESE                                                                                000000000043000                            
50002910201207062012071099030135398990       PES0000043000L070142012070618415273                                                
6024600043000121899903013539899000035000600                                                                                     
7PESE                                                                                000000000043000                            
50003010201207072012071099030137110422       PES0000043000A010432012070612160095                                                
6024600043000121899903013711042200035000436                                                                                     
7PESE                                                                                000000000043000                            
50003110201207072012071099030137357940       PES0000043000A103002012070712040263                                                
6024600043000121899903013735794000035000684                                                                                     
7PESE                                                                                000000000043000                            
50003210201207072012071099030135755092       PES0000043000A093212012070713070283                                                
6024600043000121899903013575509200035000390                                                                                     
7PESE                                                                                000000000043000                            
50003310201207072012071099030129399057       PES0000043000A048412012070714370038                                                
6024600043000121899903012939905700035000721                                                                                     
7PESE                                                                                000000000043000                            
50003410201207072012071099030137542373       PES0000043000A107892012070716470304                                                
6024600043000121899903013754237300035000790                                                                                     
7PESE                                                                                000000000043000                            
50003510201207072012071099030134750295       PES0000043000D000502012070720000378                                                
6024600043000121899903013475029500035000642                                                                                     
7PESE                                                                                000000000043000                            
50003610201207072012071099040135989576       PES0000029000D001472012070716340045                                                
6024600029000121899904013598957600015000778                                                                                     
7PESE                                                                                000000000029000                            
50003710201207072012071099030140497077       PES0000043000A070622012070716480525                                                
6024600043000121899903014049707700035000299                                                                                     
7PESE                                                                                000000000043000                            
82012071000000100000370000014035000000000000000000000000000000000000000000037                                                   
9201207100000010000037000001403500000000000000000000000000000000000000000000037                                                 
