120120910PAGO FACIL               090060246FABIAN NORBERTO D´ERAMO                                                              
320120910000001FABIAN NORBERTO D´ERAMO                                                                                          
50000110201209072012091099030135271379       PES0000043000A049092012090612540096                                                
6024600043000122519903013527137900035000542                                                                                     
7PESE                                                                                000000000043000                            
50000210201209072012091000714743573286       PES0000009000A015292012090710540097                                                
6024600008000122440071474357328600010007537                                                                                     
7PESE                                                                                000000000009000                            
50000310201209072012091099030138066579       PES0000043000A092562012090712210066                                                
6024600043000122589903013806657900035000021                                                                                     
7PESE                                                                                000000000043000                            
50000410201209072012091000714330991489       PES0000029000A104352012090710370149                                                
6024600029000122580071433099148900035000079                                                                                     
7PESE                                                                                000000000029000                            
50000510201209072012091099020224599090       PES0000022000A074762012090710250087                                                
6024600022000122519902022459909000000000799                                                                                     
7PESE                                                                                000000000022000                            
50000610201209072012091000540329247865       PES0000026000A028582012090711020104                                                
6024600026000122570054032924786500010000079                                                                                     
7PESE                                                                                000000000026000                            
50000710201209072012091099030129247865       PES0000043000A028582012090711020105                                                
6024600043000122519903012924786500035000663                                                                                     
7PESE                                                                                000000000043000                            
50000810201209072012091099030129708493       PES0000025800A046092012090711140100                                                
6024600025800122519903012970849300021000663                                                                                     
7PESE                                                                                000000000025800                            
50000910201209072012091000540429708493       PES0000026000A046092012090711150101                                                
6024600026000122570054042970849300010000021                                                                                     
7PESE                                                                                000000000026000                            
50001010201209072012091099020236801243       PES0000022000A082902012090713560506                                                
6024600022000122519902023680124300000000615                                                                                     
7PESE                                                                                000000000022000                            
50001110201209072012091000540337110422       PES0000026000A010432012090712130100                                                
6024600026000122530054033711042200010000099                                                                                     
7PESE                                                                                000000000026000                            
50001210201209072012091099030137110422       PES0000043000A010432012090712140101                                                
6024600043000122519903013711042200035000221                                                                                     
7PESE                                                                                000000000043000                            
50001310201209072012091099030137357940       PES0000043000A089982012090711160132                                                
6024600043000122519903013735794000035000642                                                                                     
7PESE                                                                                000000000043000                            
50001410201209072012091000540421903716       PES0000026000A046092012090715010043                                                
6024600026000122560054042190371600010000063                                                                                     
7PESE                                                                                000000000026000                            
50001510201209072012091099030121903716       PES0000043000A046092012090715010044                                                
6024600043000122519903012190371600035000542                                                                                     
7PESE                                                                                000000000043000                            
50001610201209072012091065000523782933       PES0000013000A085512012090716320263                                                
6024600013000122576500052378293300015000078                                                                                     
7PESE                                                                                000000000013000                            
50001710201209072012091099030138071739       PES0000043000A090072012090711500037                                                
6024600043000122519903013807173900035000436                                                                                     
7PESE                                                                                000000000043000                            
50001810201209072012091099030134750295       PES0000043000A090072012090711510038                                                
6024600043000122519903013475029500035000742                                                                                     
7PESE                                                                                000000000043000                            
50001910201209072012091000540334750295       PES0000026000A090072012090711510039                                                
6024600026000122580054033475029500010000063                                                                                     
7PESE                                                                                000000000026000                            
50002010201209072012091001322314311873       PES0000045000A018912012090717410096                                                
6024600045000122510132231431187300050000063                                                                                     
7PESE                                                                                000000000045000                            
50002110201209072012091099030134332391       PES0000036550A091492012090717400530                                                
6024600036550122519903013433239100030250737                                                                                     
7PESE                                                                                000000000036550                            
50002210201209072012091099030137247863       PES0000036550A091492012090717400531                                                
6024600036550122519903013724786300030250784                                                                                     
7PESE                                                                                000000000036550                            
50002310201209072012091099030136832667       PES0000036550A091492012090717400532                                                
6024600036550122519903013683266700030250742                                                                                     
7PESE                                                                                000000000036550                            
50002410201209072012091000713729362015       PES0000029000A116102012090717380135                                                
6024600023500122440071372936201500055007642                                                                                     
7PESE                                                                                000000000029000                            
50002510201209072012091099040130334113       PES0000029000A099152012090717180069                                                
6024600029000122519904013033411300015000637                                                                                     
7PESE                                                                                000000000029000                            
50002610201209072012091000720520491327       PES0000046500A074252012090717450244                                                
6024600042000122490072052049132700045000757                                                                                     
7PESE                                                                                000000000046500                            
50002710201209072012091099040135989576       PES0000029000A072902012090710110080                                                
6024600029000122519904013598957600015000736                                                                                     
7PESE                                                                                000000000029000                            
50002810201209072012091099030131344778       PES0000043000A117722012090719010002                                                
6024600043000122519903013134477800035000690                                                                                     
7PESE                                                                                000000000043000                            
50002910201209072012091000540431344778       PES0000026000A117722012090719010003                                                
6024600026000122570054043134477800010000036                                                                                     
7PESE                                                                                000000000026000                            
50003010201209072012091001320616762501       PES0000045000A068902012090717280180                                                
6024600045000122580132061676250100050000042                                                                                     
7PESE                                                                                000000000045000                            
50003110201209072012091099040130663025       PES0000029000A001632012090719520103                                                
6024600029000122519904013066302500015000779                                                                                     
7PESE                                                                                000000000029000                            
50003210201209072012091099030136359657       PES0000043000A081582012090718220158                                                
6024600043000122519903013635965700035000758                                                                                     
7PESE                                                                                000000000043000                            
50003310201209072012091017030817414376       PES0000030000A113832012090716470005                                                
6024600030000122541703081741437600000000016                                                                                     
7PESE                                                                                000000000030000                            
50003410201209072012091001320231935143       PES0000045000A049942012090718580015                                                
6024600045000122550132023193514300050000042                                                                                     
7PESE                                                                                000000000045000                            
50003510201209072012091000540432769266       PES0000026000M601632012090711210087                                                
6024600026000122550054043276926600010000084                                                                                     
7PESE                                                                                000000000026000                            
50003610201209072012091099030132769266       PES0000043000M601632012090711220088                                                
6024600043000122519903013276926600035000463                                                                                     
7PESE                                                                                000000000043000                            
50003710201209072012091099020236421860       PES0000022000L070082012090718401554                                                
6024600022000122519902023642186000000000763                                                                                     
7PESE                                                                                000000000022000                            
50003810201209072012091017031335668754       PES0000030000M660232012090716450387                                                
6024600030000122561703133566875400000000078                                                                                     
7PESE                                                                                000000000030000                            
50003910201209082012091000540436070637       PES0000026000A028072012090717550064                                                
6024600026000122580054043607063700010000063                                                                                     
7PESE                                                                                000000000026000                            
50004010201209082012091099030136070637       PES0000043000A028072012090717550065                                                
6024600043000122519903013607063700035000684                                                                                     
7PESE                                                                                000000000043000                            
50004110201209082012091099030133434151       PES0000043000A081272012090711130083                                                
6024600043000122519903013343415100035000600                                                                                     
7PESE                                                                                000000000043000                            
50004210201209082012091099030133380040       PES0000046500A036692012090814040250                                                
6024600043000122519903013338004000035000721                                                                                     
7PESE                                                                                000000000046500                            
50004310201209082012091099040133989486       PES0000030500A088072012090811530143                                                
6024600030500122599904013398948600015000036                                                                                     
7PESE                                                                                000000000030500                            
50004410201209082012091001320522920749       PES0000045000A111992012090818490206                                                
6024600045000122550132052292074900050000042                                                                                     
7PESE                                                                                000000000045000                            
50004510201209082012091000713440796626       PES0000029000L120102012090807176124                                                
6024600029000122520071344079662600035000021                                                                                     
7PESE                                                                                000000000029000                            
50004610201209092012091000712523958324       PES0000029000A099342012090919540021                                                
6024600029000122560071252395832400035000099                                                                                     
7PESE                                                                                000000000029000                            
50004710201209092012091099030132944859       PES0000046500D000502012090917050077                                                
6024600043000122519903013294485900035000363                                                                                     
7PESE                                                                                000000000046500                            
82012091000000100000470000016034500000000000000000000000000000000000000000047                                                   
9201209100000010000047000001603450000000000000000000000000000000000000000000047                                                 
