120111110PAGO FACIL               090060246FABIAN NORBERTO D´ERAMO                                                              
320111110000001FABIAN NORBERTO D´ERAMO                                                                                          
50000110201111092011111029060223843801       PES0000013000A095462011110916340045                                                
6024600010000113122906022384380100030000300                                                                                     
7PESE                                                                                000000000013000                            
50000210201111092011111029060728168588       PES0000013000A095462011110916340044                                                
6024600010000113122906072816858800030000337                                                                                     
7PESE                                                                                000000000013000                            
50000310201111092011111046070225235857       PES0000020000A111292011110916510088                                                
6024600020000113154607022523585700060000016                                                                                     
7PESE                                                                                000000000020000                            
50000410201111092011111018350139427679       PES0000020000L120192011110916575303                                                
6024600020000113191835013942767900000000021                                                                                     
7PESE                                                                                000000000020000                            
50000510201111092011111000574517632022       PES0000022000A010922011110911040072                                                
6024600022000113190057451763202200000000016                                                                                     
7PESE                                                                                000000000022000                            
50000610201111092011111001290425797057       PES0000037000A075022011110914390014                                                
6024600037000113130129042579705700000000084                                                                                     
7PESE                                                                                000000000037000                            
50000710201111092011111001290425983384       PES0000037000A039232011110915210214                                                
6024600037000113130129042598338400000000058                                                                                     
7PESE                                                                                000000000037000                            
50000810201111092011111001290525476300       PES0000037000A098932011110910140068                                                
6024600037000113130129052547630000000000063                                                                                     
7PESE                                                                                000000000037000                            
50000910201111092011111001290621448109       PES0000037000D000062011110916230083                                                
6024600037000113130129062144810900000000042                                                                                     
7PESE                                                                                000000000037000                            
50001010201111092011111001290524040963       PES0000037000M620412011110912310033                                                
6024600037000113150129052404096300000000000                                                                                     
7PESE                                                                                000000000037000                            
50001110201111092011111001290525300256       PES0000037000M620412011110912290032                                                
6024600037000113150129052530025600000000037                                                                                     
7PESE                                                                                000000000037000                            
50001210201111092011111001290716960713       PES0000037000A083562011110912230147                                                
6024600037000113150129071696071300000000021                                                                                     
7PESE                                                                                000000000037000                            
50001310201111092011111001290716602152       PES0000037000A011572011110915320156                                                
6024600037000113160129071660215200000000015                                                                                     
7PESE                                                                                000000000037000                            
50001410201111092011111001290427180990       PES0000037000A097192011110915010067                                                
6024600037000113180129042718099000000000036                                                                                     
7PESE                                                                                000000000037000                            
50001510201111092011111001290428386422       PES0000037000A029342011110911290168                                                
6024600037000113180129042838642200000000037                                                                                     
7PESE                                                                                000000000037000                            
50001610201111092011111099030236087988       PES0000038500A103582011110909440025                                                
6024600038500113199903023608798800025000100                                                                                     
7PESE                                                                                000000000038500                            
82011111000000100000160000004965000000000000000000000000000000000000000000016                                                   
9201111100000010000016000000496500000000000000000000000000000000000000000000016                                                 
