120120110PAGO FACIL               090060246FABIAN NORBERTO D´ERAMO                                                              
320120110000001FABIAN NORBERTO D´ERAMO                                                                                          
50000110201201092012011000622910659757       PES0000012000A017262012010911450225                                                
6024600012000120100062291065975700020000015                                                                                     
7PESE                                                                                000000000012000                            
50000210201201092012011002322538050143       PES0000015000A063842012010913340315                                                
6024600015000120100232253805014300050000442                                                                                     
7PESE                                                                                000000000015000                            
50000310201201092012011002322539097297       PES0000015000M620162012010912080049                                                
6024600015000120100232253909729700050000321                                                                                     
7PESE                                                                                000000000015000                            
50000410201201092012011002322728305775       PES0000015000A051202012010918000132                                                
6024600015000120100232272830577500050000699                                                                                     
7PESE                                                                                000000000015000                            
50000510201201092012011002322823362363       PES0000015000A601492012010911240076                                                
6024600015000120100232282336236300050000699                                                                                     
7PESE                                                                                000000000015000                            
50000610201201092012011002322823816400       PES0000015000A049072012010918120217                                                
6024600015000120100232282381640000050000184                                                                                     
7PESE                                                                                000000000015000                            
50000710201201092012011002323423153621       PES0000015000A601492012010911250077                                                
6024600015000120100232342315362100050000615                                                                                     
7PESE                                                                                000000000015000                            
50000810201201092012011002323614555550       PES0000015000A051202012010915430044                                                
6024600015000120100232361455555000050000679                                                                                     
7PESE                                                                                000000000015000                            
50000910201201092012011000600329040609       PES0000019000A048462012010915190270                                                
6024600019000120100060032904060900060000600                                                                                     
7PESE                                                                                000000000019000                            
50001010201201092012011002320329592311       PES0000025000A008222012010912260245                                                
6024600025000120100232032959231100030000678                                                                                     
7PESE                                                                                000000000025000                            
50001110201201092012011002320329647297       PES0000025000A008222012010912260246                                                
6024600025000120100232032964729700030000663                                                                                     
7PESE                                                                                000000000025000                            
50001210201201092012011002320428042228       PES0000025000A107842012010917590085                                                
6024600025000120100232042804222800030000563                                                                                     
7PESE                                                                                000000000025000                            
50001310201201092012011002320524548216       PES0000025000A000162012010913580193                                                
6024600025000120100232052454821600030000184                                                                                     
7PESE                                                                                000000000025000                            
50001410201201092012011002320524589419       PES0000025000A106722012010909230011                                                
6024600025000120100232052458941900030000057                                                                                     
7PESE                                                                                000000000025000                            
50001510201201092012011002320525476300       PES0000025000A106562012010910280067                                                
6024600025000120100232052547630000030000100                                                                                     
7PESE                                                                                000000000025000                            
50001610201201092012011002320525615310       PES0000025000A104162012010914520045                                                
6024600025000120100232052561531000030000336                                                                                     
7PESE                                                                                000000000025000                            
50001710201201092012011002320620365060       PES0000025000A099952012010910260046                                                
6024600025000120100232062036506000030000042                                                                                     
7PESE                                                                                000000000025000                            
50001810201201092012011002320620618350       PES0000025000A051312012010916330186                                                
6024600025000120100232062061835000030000390                                                                                     
7PESE                                                                                000000000025000                            
50001910201201092012011002320717639442       PES0000025000A063842012010913340316                                                
6024600025000120100232071763944200030000400                                                                                     
7PESE                                                                                000000000025000                            
50002010201201092012011002321007620834       PES0000025000A108812012010909570021                                                
6024600025000120100232100762083400030000179                                                                                     
7PESE                                                                                000000000025000                            
50002110201201092012011099030234142652       PES0000037000A092732012010912320257                                                
6024600037000120079903023414265200035000284                                                                                     
7PESE                                                                                000000000037000                            
50002210201201092012011099030236943330       PES0000037000A088552012010909470073                                                
6024600037000120079903023694333000035000657                                                                                     
7PESE                                                                                000000000037000                            
50002310201201092012011099030234137506       PES0000040500A018312012010917150011                                                
6024600040500120159903023413750600025000199                                                                                     
7PESE                                                                                000000000040500                            
50002410201201092012011099030234750212       PES0000040500A043472012010912150159                                                
6024600040500120159903023475021200025000163                                                                                     
7PESE                                                                                000000000040500                            
50002510201201092012011023060726506212       PES0000108800A087012012010920140116                                                
6024600108800120122306072650621200128000021                                                                                     
7PESE                                                                                000000000108800                            
50002610201201092012011023060516248175       PES0000108800A108932012010916360052                                                
6024600108800120142306051624817500128000078                                                                                     
7PESE                                                                                000000000108800                            
50002710201201092012011023060702390818       PES0000108800D000242012010916020214                                                
6024600108800120152306070239081800128000142                                                                                     
7PESE                                                                                000000000108800                            
50002810201201092012011023061028877105       PES0000108800A062272012010917250010                                                
6024600108800120152306102887710500128000199                                                                                     
7PESE                                                                                000000000108800                            
50002910201201092012011023061522502470       PES0000121600M620902012010911420002                                                
6024600121600120092306152250247000150000090                                                                                     
7PESE                                                                                000000000121600                            
50003010201201092012011023061136328793       PES0000121600A100022012010913140031                                                
6024600121600120102306113632879300150000015                                                                                     
7PESE                                                                                000000000121600                            
50003110201201092012011023061729406180       PES0000121600A012342012010916490012                                                
6024600121600120132306172940618000150000036                                                                                     
7PESE                                                                                000000000121600                            
50003210201201092012011023061842700242       PES0000121600M640472012010910390071                                                
6024600121600120132306184270024200150000084                                                                                     
7PESE                                                                                000000000121600                            
82012011000000100000320000014876000000000000000000000000000000000000000000032                                                   
9201201100000010000032000001487600000000000000000000000000000000000000000000032                                                 
