120130111PAGO FACIL               090060246FABIAN NORBERTO D´ERAMO                                                              
320130111000001FABIAN NORBERTO D´ERAMO                                                                                          
50000110201301102013011129081317917956       PES0000025000M602122013010911561218                                                
6024600025000130092908131791795600000000021                                                                                     
7PESE                                                                                000000000025000                            
50000210201301102013011169021637980224       PES0000007000A114522013011019110190                                                
6024600007000130176902163798022400000000042                                                                                     
7PESE                                                                                000000000007000                            
50000310201301102013011169020617242020       PES0000010000A044492013011017280036                                                
6024600010000130176902061724202000000000057                                                                                     
7PESE                                                                                000000000010000                            
50000410201301102013011169020617891789       PES0000010000A118112013011017410004                                                
6024600010000130176902061789178900000000063                                                                                     
7PESE                                                                                000000000010000                            
50000510201301102013011129080224160297       PES0000018000M620282013011017130094                                                
6024600018000130112908022416029700000000084                                                                                     
7PESE                                                                                000000000018000                            
50000610201301102013011129080224428695       PES0000018000B030192013011014494259                                                
6024600018000130112908022442869500000000042                                                                                     
7PESE                                                                                000000000018000                            
50000710201301102013011129080228034454       PES0000018000A112772013011015080085                                                
6024600018000130112908022803445400000000078                                                                                     
7PESE                                                                                000000000018000                            
50000810201301102013011129080316685570       PES0000018000A064522013011019520124                                                
6024600018000130112908031668557000000000090                                                                                     
7PESE                                                                                000000000018000                            
50000910201301102013011129080316764081       PES0000018000A119992013011017370072                                                
6024600018000130112908031676408100000000042                                                                                     
7PESE                                                                                000000000018000                            
50001010201301102013011129080320267179       PES0000018000A083532013011009110012                                                
6024600018000130112908032026717900000000063                                                                                     
7PESE                                                                                000000000018000                            
50001110201301102013011129080321921020       PES0000018000A076112013011010100001                                                
6024600018000130112908032192102000000000063                                                                                     
7PESE                                                                                000000000018000                            
50001210201301102013011129080322863314       PES0000018000A107732013011016510020                                                
6024600018000130112908032286331400000000084                                                                                     
7PESE                                                                                000000000018000                            
50001310201301102013011129080392015526       PES0000018000A056252013011013530225                                                
6024600018000130112908039201552600000000000                                                                                     
7PESE                                                                                000000000018000                            
50001410201301102013011129080413951314       PES0000018000A112712013011010340022                                                
6024600018000130112908041395131400000000037                                                                                     
7PESE                                                                                000000000018000                            
50001510201301102013011129080413958880       PES0000018000M620732013011010500077                                                
6024600018000130112908041395888000000000015                                                                                     
7PESE                                                                                000000000018000                            
50001610201301102013011129080724587514       PES0000018000A087212013011017200015                                                
6024600018000130112908072458751400000000000                                                                                     
7PESE                                                                                000000000018000                            
50001710201301102013011129080817113027       PES0000018000A083092013011011580183                                                
6024600018000130112908081711302700000000021                                                                                     
7PESE                                                                                000000000018000                            
50001810201301102013011129080821421161       PES0000018000A071272013011012100175                                                
6024600018000130112908082142116100000000042                                                                                     
7PESE                                                                                000000000018000                            
50001910201301102013011129080821956399       PES0000018000A112712013011010310020                                                
6024600018000130112908082195639900000000000                                                                                     
7PESE                                                                                000000000018000                            
50002010201301102013011129081228524856       PES0000025000M620942013011010130073                                                
6024600025000130112908122852485600000000063                                                                                     
7PESE                                                                                000000000025000                            
50002110201301102013011129081316624018       PES0000025000M620732013011012130166                                                
6024600025000130112908131662401800000000015                                                                                     
7PESE                                                                                000000000025000                            
50002210201301102013011129081318300356       PES0000025000A081592013011020040048                                                
6024600025000130112908131830035600000000015                                                                                     
7PESE                                                                                000000000025000                            
50002310201301102013011129081318358971       PES0000025000A099752013011012230079                                                
6024600025000130112908131835897100000000099                                                                                     
7PESE                                                                                000000000025000                            
50002410201301102013011129081321477591       PES0000025000A091592013011009450030                                                
6024600025000130112908132147759100000000099                                                                                     
7PESE                                                                                000000000025000                            
50002510201301102013011129081413516022       PES0000025000A105172013011012140158                                                
6024600025000130112908141351602200000000090                                                                                     
7PESE                                                                                000000000025000                            
50002610201301102013011129081508599241       PES0000025000A097922013011013300200                                                
6024600025000130112908150859924100000000015                                                                                     
7PESE                                                                                000000000025000                            
50002710201301102013011101341232554625       PES0000135000A100672013011011360067                                                
6024600135000130170134123255462500150000015                                                                                     
7PESE                                                                                000000000135000                            
82013011100000100000270000006320000000000000000000000000000000000000000000027                                                   
9201301110000010000027000000632000000000000000000000000000000000000000000000027                                                 
