120110811PAGO FACIL               090060246FABIAN NORBERTO D´ERAMO                                                              
320110811000001FABIAN NORBERTO D´ERAMO                                                                                          
50000110201108102011081117020524684550       PES0000016000M640012011080916120042                                                
6024600016000112271702052468455000040000021                                                                                     
7PESE                                                                                000000000016000                            
50000210201108102011081117020622045676       PES0000016000M700172011081007570001                                                
6024600016000112281702062204567600040000079                                                                                     
7PESE                                                                                000000000016000                            
50000310201108102011081199030235775683       PES0000019250A100022011081011040166                                                
6024600017500112199903023577568300017500616                                                                                     
7PESE                                                                                000000000019250                            
50000410201108102011081100540335775683       PES0000017500A100022011081011050167                                                
6024600017500112250054033577568300015000057                                                                                     
7PESE                                                                                000000000017500                            
50000510201108102011081100502429071894       PES0000019500A089832011081013070025                                                
6024600019500112220050242907189400050000037                                                                                     
7PESE                                                                                000000000019500                            
50000610201108102011081100503728822699       PES0000019500A106162011081019580056                                                
6024600019500112220050372882269900050000042                                                                                     
7PESE                                                                                000000000019500                            
50000710201108102011081100504328299905       PES0000019500A106162011081019580057                                                
6024600019500112220050432829990500050000099                                                                                     
7PESE                                                                                000000000019500                            
50000810201108102011081100504328682605       PES0000019500M620102011081012500041                                                
6024600019500112220050432868260500050000042                                                                                     
7PESE                                                                                000000000019500                            
50000910201108102011081100501816913637       PES0000019500M602162011081013220090                                                
6024600019500112230050181691363700050000042                                                                                     
7PESE                                                                                000000000019500                            
50001010201108102011081100502136575070       PES0000019500M620082011081016560056                                                
6024600019500112230050213657507000050000036                                                                                     
7PESE                                                                                000000000019500                            
50001110201108102011081100500828392070       PES0000019500A029782011081011510105                                                
6024600019500112240050082839207000050000099                                                                                     
7PESE                                                                                000000000019500                            
50001210201108102011081100501240008811       PES0000019500A063662011081017370119                                                
6024600019500112240050124000881100050000000                                                                                     
7PESE                                                                                000000000019500                            
50001310201108102011081100503730883208       PES0000019500A040462011081019390282                                                
6024600019500112240050373088320800050000058                                                                                     
7PESE                                                                                000000000019500                            
50001410201108102011081100504611974136       PES0000019500A077372011081012200306                                                
6024600019500112260050461197413600050000084                                                                                     
7PESE                                                                                000000000019500                            
50001510201108102011081100502010851755       PES0000019500A015942011081010380041                                                
6024600019500112270050201085175500050000015                                                                                     
7PESE                                                                                000000000019500                            
50001610201108102011081100502426194234       PES0000019500A026682011081010080028                                                
6024600019500112280050242619423400050000084                                                                                     
7PESE                                                                                000000000019500                            
50001710201108102011081100502524113973       PES0000019500A028202011081008060007                                                
6024600019500112280050252411397300050000036                                                                                     
7PESE                                                                                000000000019500                            
50001810201108102011081100502813527653       PES0000019500A095492011081009270019                                                
6024600019500112280050281352765300050000084                                                                                     
7PESE                                                                                000000000019500                            
50001910201108102011081100503726096350       PES0000019500A083162011081012530063                                                
6024600019500112280050372609635000050000000                                                                                     
7PESE                                                                                000000000019500                            
50002010201108102011081100503913740422       PES0000019500A034672011081018000173                                                
6024600019500112280050391374042200050000000                                                                                     
7PESE                                                                                000000000019500                            
50002110201108102011081100504421883348       PES0000019500A094782011081012080098                                                
6024600019500112280050442188334800050000099                                                                                     
7PESE                                                                                000000000019500                            
50002210201108102011081100504425189203       PES0000019500A054672011081010480057                                                
6024600019500112290050442518920300050000099                                                                                     
7PESE                                                                                000000000019500                            
50002310201108102011081101280423457282       PES0000034500M620062011081017020061                                                
6024600034500112240128042345728200000000015                                                                                     
7PESE                                                                                000000000034500                            
50002410201108102011081101280520669628       PES0000034500A080522011081013080018                                                
6024600034500112260128052066962800000000058                                                                                     
7PESE                                                                                000000000034500                            
50002510201108102011081101280713431927       PES0000034500A092202011081010170049                                                
6024600034500112270128071343192700000000079                                                                                     
7PESE                                                                                000000000034500                            
50002610201108102011081101281616785288       PES0000034500M600532011081011030058                                                
6024600034500112270128161678528800000000015                                                                                     
7PESE                                                                                000000000034500                            
50002710201108102011081101282222182201       PES0000034500A097742011081010450161                                                
6024600034500112270128222218220100000000099                                                                                     
7PESE                                                                                000000000034500                            
50002810201108102011081101280425029685       PES0000036500M601842011081011430073                                                
6024600036500112290128042502968500000000000                                                                                     
7PESE                                                                                000000000036500                            
50002910201108102011081101280616475803       PES0000036500A076552011081011430047                                                
6024600036500112290128061647580300000000036                                                                                     
7PESE                                                                                000000000036500                            
50003010201108102011081199030235400740       PES0000038500A090542011081017310187                                                
6024600038500112279903023540074000025000284                                                                                     
7PESE                                                                                000000000038500                            
82011081100000100000300000007037500000000000000000000000000000000000000000030                                                   
9201108110000010000030000000703750000000000000000000000000000000000000000000030                                                 
