120121211PAGO FACIL               090060246FABIAN NORBERTO D´ERAMO                                                              
320121211000001FABIAN NORBERTO D´ERAMO                                                                                          
50000110201212102012121159010229037943       PES0000011000A068722012121020090218                                                
6024600011000123445901022903794300000000021                                                                                     
7PESE                                                                                000000000011000                            
50000210201212102012121159010324785328       PES0000011000A090422012121012190117                                                
6024600011000123445901032478532800000000000                                                                                     
7PESE                                                                                000000000011000                            
50000310201212102012121173000131739723       PES0000015000M670002012121012080141                                                
6024600015000123527300013173972300040000084                                                                                     
7PESE                                                                                000000000015000                            
50000410201212102012121129080229655606       PES0000018000A601122012121011290091                                                
6024600018000123492908022965560600000000084                                                                                     
7PESE                                                                                000000000018000                            
50000510201212102012121129081321773940       PES0000025000A073842012121013410042                                                
6024600025000123472908132177394000000000015                                                                                     
7PESE                                                                                000000000025000                            
50000610201212102012121129081322430896       PES0000025000A081062012121018180154                                                
6024600025000123472908132243089600000000084                                                                                     
7PESE                                                                                000000000025000                            
50000710201212102012121100773726718719       PES0000028500A080382012121019560147                                                
6024600028500123450077372671871900000000042                                                                                     
7PESE                                                                                000000000028500                            
50000810201212102012121100774513213826       PES0000028500A115052012121012120103                                                
6024600028500123450077451321382600000000079                                                                                     
7PESE                                                                                000000000028500                            
50000910201212102012121100774612789305       PES0000028500A085512012121009150036                                                
6024600028500123450077461278930500000000037                                                                                     
7PESE                                                                                000000000028500                            
50001010201212102012121100772622025735       PES0000028500A082002012121019240039                                                
6024600028500123460077262202573500000000016                                                                                     
7PESE                                                                                000000000028500                            
50001110201212102012121100774140252575       PES0000028500L120082012121020143102                                                
6024600028500123460077414025257500000000078                                                                                     
7PESE                                                                                000000000028500                            
50001210201212102012121100774516492813       PES0000028500A053122012121017210093                                                
6024600028500123470077451649281300000000000                                                                                     
7PESE                                                                                000000000028500                            
50001310201212102012121100770227536898       PES0000028500A090602012121017160080                                                
6024600028500123480077022753689800000000042                                                                                     
7PESE                                                                                000000000028500                            
50001410201212102012121100770829550684       PES0000028500A040462012121011260251                                                
6024600028500123480077082955068400000000021                                                                                     
7PESE                                                                                000000000028500                            
50001510201212102012121100771336375655       PES0000028500A115302012121017100025                                                
6024600028500123480077133637565500000000084                                                                                     
7PESE                                                                                000000000028500                            
50001610201212102012121100771431205633       PES0000028500A008222012121016570070                                                
6024600028500123480077143120563300000000016                                                                                     
7PESE                                                                                000000000028500                            
50001710201212102012121100771431685489       PES0000028500A092082012121009530029                                                
6024600028500123480077143168548900000000015                                                                                     
7PESE                                                                                000000000028500                            
50001810201212102012121100772332608583       PES0000028500A092082012121009530028                                                
6024600028500123480077233260858300000000042                                                                                     
7PESE                                                                                000000000028500                            
50001910201212102012121100772716940996       PES0000028500A008222012121016570069                                                
6024600028500123480077271694099600000000099                                                                                     
7PESE                                                                                000000000028500                            
50002010201212102012121100773539467477       PES0000028500D000062012121011040073                                                
6024600028500123480077353946747700000000057                                                                                     
7PESE                                                                                000000000028500                            
50002110201212102012121100774421475630       PES0000028500D001632012121018000211                                                
6024600028500123480077442147563000000000058                                                                                     
7PESE                                                                                000000000028500                            
50002210201212102012121100774424909738       PES0000028500A009562012121016480005                                                
6024600028500123480077442490973800000000079                                                                                     
7PESE                                                                                000000000028500                            
50002310201212102012121100774517698423       PES0000028500A114052012121013200084                                                
6024600028500123480077451769842300000000078                                                                                     
7PESE                                                                                000000000028500                            
50002410201212102012121102420424040963       PES0000040000M620412012121010260008                                                
6024600032000123400242042404096300080000500                                                                                     
7PESE                                                                                000000000040000                            
50002510201212102012121102420520384882       PES0000040000A092062012121015490466                                                
6024600040000123520242052038488200075000037                                                                                     
7PESE                                                                                000000000040000                            
50002610201212102012121102420521836329       PES0000040000A109282012121016580144                                                
6024600040000123520242052183632900075000063                                                                                     
7PESE                                                                                000000000040000                            
82012121100000100000260000007095000000000000000000000000000000000000000000026                                                   
9201212110000010000026000000709500000000000000000000000000000000000000000000026                                                 
