120111111PAGO FACIL               090060246FABIAN NORBERTO D´ERAMO                                                              
320111111000001FABIAN NORBERTO D´ERAMO                                                                                          
50000110201111102011111146070125186749       PES0000020000A042062011111012320127                                                
6024600020000113144607012518674900060000084                                                                                     
7PESE                                                                                000000000020000                            
50000210201111102011111118351623304890       PES0000020000A013222011111016210149                                                
6024600020000113191835162330489000000000084                                                                                     
7PESE                                                                                000000000020000                            
50000310201111102011111100574136685842       PES0000022000L120242011111009505296                                                
6024600022000113200057413668584200000000099                                                                                     
7PESE                                                                                000000000022000                            
50000410201111102011111100572622156982       PES0000022000A095132011111013130166                                                
6024600022000113210057262215698200000000000                                                                                     
7PESE                                                                                000000000022000                            
50000510201111102011111199040123567984       PES0000025000A082952011111012460127                                                
6024600025000113199904012356798400000000079                                                                                     
7PESE                                                                                000000000025000                            
50000610201111102011111198010234958746       PES0000029500D000512011111018410113                                                
6024600029500113199801023495874600000000184                                                                                     
7PESE                                                                                000000000029500                            
50000710201111102011111101290332554625       PES0000037000D000472011111013080221                                                
6024600037000113140129033255462500000000042                                                                                     
7PESE                                                                                000000000037000                            
50000810201111102011111101291334517298       PES0000037000D000472011111013090222                                                
6024600037000113140129133451729800000000058                                                                                     
7PESE                                                                                000000000037000                            
50000910201111102011111101290523434811       PES0000037000A620812011111012540206                                                
6024600037000113150129052343481100000000063                                                                                     
7PESE                                                                                000000000037000                            
50001010201111102011111101291007620834       PES0000037000A091912011111010570157                                                
6024600037000113150129100762083400000000036                                                                                     
7PESE                                                                                000000000037000                            
50001110201111102011111101290333261186       PES0000037000A098212011111012050180                                                
6024600037000113180129033326118600000000037                                                                                     
7PESE                                                                                000000000037000                            
50001210201111102011111101290426769483       PES0000037000A028382011111012420169                                                
6024600037000113180129042676948300000000079                                                                                     
7PESE                                                                                000000000037000                            
50001310201111102011111101290428215549       PES0000037000A620812011111012300194                                                
6024600037000113180129042821554900000000063                                                                                     
7PESE                                                                                000000000037000                            
50001410201111102011111101290525069174       PES0000037000A092142011111017060488                                                
6024600037000113180129052506917400000000021                                                                                     
7PESE                                                                                000000000037000                            
50001510201111102011111101290621951202       PES0000037000A037602011111012060174                                                
6024600037000113180129062195120200000000099                                                                                     
7PESE                                                                                000000000037000                            
50001610201111102011111199030233897409       PES0000038500A051312011111013520074                                                
6024600038500113199903023389740900025000236                                                                                     
7PESE                                                                                000000000038500                            
50001710201111102011111101301429718366       PES0000040000M620062011111017160079                                                
6024600040000113210130142971836600000000037                                                                                     
7PESE                                                                                000000000040000                            
50001810201111102011111101301431532456       PES0000040000A109282011111014250264                                                
6024600040000113210130143153245600000000057                                                                                     
7PESE                                                                                000000000040000                            
50001910201111102011111101301526050433       PES0000040000A093742011111014050102                                                
6024600040000113210130152605043300000000063                                                                                     
7PESE                                                                                000000000040000                            
50002010201111102011111101301624068579       PES0000040000A092052011111014270273                                                
6024600040000113210130162406857900000000063                                                                                     
7PESE                                                                                000000000040000                            
50002110201111102011111101301624366262       PES0000040000A080102011111012130188                                                
6024600040000113210130162436626200000000015                                                                                     
7PESE                                                                                000000000040000                            
50002210201111102011111101301625174370       PES0000040000A100372011111016160115                                                
6024600040000113210130162517437000000000099                                                                                     
7PESE                                                                                000000000040000                            
50002310201111102011111101301817712765       PES0000040000A108262011111013490097                                                
6024600040000113210130181771276500000000058                                                                                     
7PESE                                                                                000000000040000                            
82011111100000100000230000007900000000000000000000000000000000000000000000023                                                   
9201111110000010000023000000790000000000000000000000000000000000000000000000023                                                 
