120120112PAGO FACIL               090060246FABIAN NORBERTO D´ERAMO                                                              
320120112000001FABIAN NORBERTO D´ERAMO                                                                                          
50000110201201112012011229070225771734       PES0000010000A063642012011109270017                                                
6024600010000120172907022577173400000000099                                                                                     
7PESE                                                                                000000000010000                            
50000210201201112012011229070320022113       PES0000010000A082952012011113000042                                                
6024600010000120182907032002211300000000016                                                                                     
7PESE                                                                                000000000010000                            
50000310201201112012011229070722644104       PES0000010000A047522012011113260043                                                
6024600010000120182907072264410400000000021                                                                                     
7PESE                                                                                000000000010000                            
50000410201201112012011229070817345572       PES0000010000A047522012011113260042                                                
6024600010000120182907081734557200000000063                                                                                     
7PESE                                                                                000000000010000                            
50000510201201112012011200622813565807       PES0000012000A046792012011111420128                                                
6024600012000120110062281356580700020000000                                                                                     
7PESE                                                                                000000000012000                            
50000610201201112012011200630732565712       PES0000017000M600572012011111390136                                                
6024600017000120120063073256571200000000084                                                                                     
7PESE                                                                                000000000017000                            
50000710201201112012011202320524066854       PES0000028000A107842012011118590117                                                
6024600025000120100232052406685400030000784                                                                                     
7PESE                                                                                000000000028000                            
50000810201201112012011202320525647594       PES0000028000A063842012011117530023                                                
6024600028000120180232052564759400000000000                                                                                     
7PESE                                                                                000000000028000                            
50000910201201112012011223060838729805       PES0000108800A081942012011109270047                                                
6024600108800120112306083872980500128000042                                                                                     
7PESE                                                                                000000000108800                            
50001010201201112012011223061329784930       PES0000121600M620752012011114110115                                                
6024600121600120152306132978493000150000384                                                                                     
7PESE                                                                                000000000121600                            
82012011200000100000100000003554000000000000000000000000000000000000000000010                                                   
9201201120000010000010000000355400000000000000000000000000000000000000000000010                                                 
