120120312PAGO FACIL               090060246FABIAN NORBERTO D´ERAMO                                                              
320120312000001FABIAN NORBERTO D´ERAMO                                                                                          
50000110201203092012031202331524851288       PES0000028000A068892012030910320062                                                
6024600025000120670233152485128800030000699                                                                                     
7PESE                                                                                000000000028000                            
50000210201203092012031200690234935925       PES0000020000A106972012030912360032                                                
6024600020000120690069023493592500020000042                                                                                     
7PESE                                                                                000000000020000                            
50000310201203092012031297000428167382       PES0000020000A083222012030911230104                                                
6024600020000120659700042816738200000000416                                                                                     
7PESE                                                                                000000000020000                            
50000410201203092012031246082526318083       PES0000016000A101582012030916190085                                                
6024600016000120744608252631808300000000058                                                                                     
7PESE                                                                                000000000016000                            
50000510201203092012031299030237376363       PES0000040500A112442012030915080080                                                
6024600040500120759903023737636300025000158                                                                                     
7PESE                                                                                000000000040500                            
50000610201203092012031202330331539755       PES0000028000M600822012030913010161                                                
6024600025000120670233033153975500030000757                                                                                     
7PESE                                                                                000000000028000                            
50000710201203102012031200691720070428       PES0000020000L120102012031011551988                                                
6024600020000120700069172007042800020000657                                                                                     
7PESE                                                                                000000000020000                            
50000810201203102012031200691430037829       PES0000020000L120102012031011561989                                                
6024600020000120700069143003782900020000663                                                                                     
7PESE                                                                                000000000020000                            
50000910201203102012031200691816809188       PES0000020000L120102012031011561990                                                
6024600020000120700069181680918800020000621                                                                                     
7PESE                                                                                000000000020000                            
50001010201203102012031200692427070769       PES0000020000L120102012031011561991                                                
6024600020000120700069242707076900020000621                                                                                     
7PESE                                                                                000000000020000                            
50001110201203102012031200693006100814       PES0000020000L120102012031011561992                                                
6024600020000120700069300610081400020000615                                                                                     
7PESE                                                                                000000000020000                            
50001210201203102012031200692618330979       PES0000020000L120102012031011561993                                                
6024600020000120700069261833097900020000637                                                                                     
7PESE                                                                                000000000020000                            
50001310201203102012031200691237929415       PES0000020000L120102012031011561994                                                
6024600020000120700069123792941500020000615                                                                                     
7PESE                                                                                000000000020000                            
50001410201203102012031200692203302753       PES0000020000L120102012031011561995                                                
6024600020000120700069220330275300020000600                                                                                     
7PESE                                                                                000000000020000                            
50001510201203102012031200692428121596       PES0000020000L120102012031011561996                                                
6024600020000120700069242812159600020000679                                                                                     
7PESE                                                                                000000000020000                            
50001610201203102012031200692522247813       PES0000020000L120102012031011571997                                                
6024600020000120700069252224781300020000642                                                                                     
7PESE                                                                                000000000020000                            
50001710201203102012031200691526599269       PES0000020000L120102012031011571998                                                
6024600020000120700069152659926900020000600                                                                                     
7PESE                                                                                000000000020000                            
50001810201203102012031200691335989414       PES0000020000L120102012031011571999                                                
6024600020000120700069133598941400020000678                                                                                     
7PESE                                                                                000000000020000                            
50001910201203102012031200692235538195       PES0000020000L120102012031011572000                                                
6024600020000120700069223553819500020000657                                                                                     
7PESE                                                                                000000000020000                            
50002010201203102012031200691624111289       PES0000020000L120102012031011572001                                                
6024600020000120700069162411128900020000636                                                                                     
7PESE                                                                                000000000020000                            
50002110201203102012031200691430037908       PES0000020000L120102012031012012007                                                
6024600020000120700069143003790800020000657                                                                                     
7PESE                                                                                000000000020000                            
50002210201203102012031200692139557429       PES0000020000L120102012031012012008                                                
6024600020000120700069213955742900020000657                                                                                     
7PESE                                                                                000000000020000                            
50002310201203102012031200691527465025       PES0000020000L120102012031012012009                                                
6024600020000120700069152746502500020000678                                                                                     
7PESE                                                                                000000000020000                            
50002410201203102012031200692523355173       PES0000020000L120102012031012012010                                                
6024600020000120700069252335517300020000637                                                                                     
7PESE                                                                                000000000020000                            
50002510201203102012031200692323401548       PES0000020000L120102012031012012011                                                
6024600020000120700069232340154800020000690                                                                                     
7PESE                                                                                000000000020000                            
50002610201203102012031200692525125549       PES0000020000L120102012031012022012                                                
6024600020000120700069252512554900020000600                                                                                     
7PESE                                                                                000000000020000                            
50002710201203102012031200691721672533       PES0000020000L120102012031012022013                                                
6024600020000120700069172167253300020000699                                                                                     
7PESE                                                                                000000000020000                            
50002810201203102012031200692524191574       PES0000020000L120102012031012022014                                                
6024600020000120700069252419157400020000616                                                                                     
7PESE                                                                                000000000020000                            
50002910201203102012031200691238693322       PES0000020000L120102012031012022015                                                
6024600020000120700069123869332200020000700                                                                                     
7PESE                                                                                000000000020000                            
50003010201203102012031200691431752203       PES0000020000L120102012031012022016                                                
6024600020000120700069143175220300020000637                                                                                     
7PESE                                                                                000000000020000                            
50003110201203102012031200692716485014       PES0000020000L120102012031014152175                                                
6024600020000120700069271648501400020000663                                                                                     
7PESE                                                                                000000000020000                            
82012031200000100000310000006525000000000000000000000000000000000000000000031                                                   
9201203120000010000031000000652500000000000000000000000000000000000000000000031                                                 
