120111212PAGO FACIL               090060246FABIAN NORBERTO D´ERAMO                                                              
320111212000001FABIAN NORBERTO D´ERAMO                                                                                          
50000110201112072011121200600618003015       PES0000019000A620832011120709560082                                                
6024600019000113460060061800301500060000079                                                                                     
7PESE                                                                                000000000019000                            
50000210201112072011121218352720967116       PES0000020000A063952011120711040088                                                
6024600020000113411835272096711600000000099                                                                                     
7PESE                                                                                000000000020000                            
50000310201112072011121218352431164215       PES0000020000A071202011120709570095                                                
6024600020000113411835243116421500000000099                                                                                     
7PESE                                                                                000000000020000                            
50000410201112072011121246070718093655       PES0000026000A065362011120708370014                                                
6024600026000113474607071809365500000000063                                                                                     
7PESE                                                                                000000000026000                            
50000510201112072011121246071718065580       PES0000014000A065362011120708370015                                                
6024600014000113474607171806558000000000021                                                                                     
7PESE                                                                                000000000014000                            
50000610201112072011121200584743096579       PES0000008500A044382011120711500234                                                
6024600008500113480058474309657900000000042                                                                                     
7PESE                                                                                000000000008500                            
50000710201112072011121223061138646482       PES0000085400A048322011120711280120                                                
6024600085400113462306113864648200234000021                                                                                     
7PESE                                                                                000000000085400                            
50000810201112072011121200582622252161       PES0000025000A109172011120711030079                                                
6024600025000113470058262225216100000000084                                                                                     
7PESE                                                                                000000000025000                            
50000910201112072011121200581528168143       PES0000025000A109172011120711030080                                                
6024600025000113470058152816814300000000058                                                                                     
7PESE                                                                                000000000025000                            
50001010201112072011121229060821520890       PES0000013000A017262011120713330374                                                
6024600010000113342906082152089000030007757                                                                                     
7PESE                                                                                000000000013000                            
50001110201112072011121229060320343532       PES0000013000A017262011120713340375                                                
6024600010000113342906032034353200030007736                                                                                     
7PESE                                                                                000000000013000                            
50001210201112072011121218352528129022       PES0000020000A109842011120709390033                                                
6024600020000113411835252812902200000000021                                                                                     
7PESE                                                                                000000000020000                            
50001310201112072011121200600425264786       PES0000019000A070632011120712370340                                                
6024600019000113460060042526478600060000084                                                                                     
7PESE                                                                                000000000019000                            
50001410201112072011121246071526942806       PES0000014000A091472011120716060423                                                
6024600014000113474607152694280600000000063                                                                                     
7PESE                                                                                000000000014000                            
50001510201112072011121246071333459198       PES0000014000A091472011120716060424                                                
6024600014000113474607133345919800000000084                                                                                     
7PESE                                                                                000000000014000                            
50001610201112072011121223061328462367       PES0000085400A028202011120713350026                                                
6024600085400113412306132846236700234000042                                                                                     
7PESE                                                                                000000000085400                            
50001710201112072011121218350911683548       PES0000020000A092542011120712370351                                                
6024600020000113411835091168354800000000063                                                                                     
7PESE                                                                                000000000020000                            
50001810201112072011121218350622447663       PES0000020000A022842011120717180136                                                
6024600020000113411835062244766300000000021                                                                                     
7PESE                                                                                000000000020000                            
50001910201112072011121200584742886471       PES0000008500A105222011120710270033                                                
6024600008500113430058474288647100000000021                                                                                     
7PESE                                                                                000000000008500                            
50002010201112072011121229060226420116       PES0000013000A092012011120710320106                                                
6024600013000113472906022642011600000000037                                                                                     
7PESE                                                                                000000000013000                            
50002110201112072011121218352720987379       PES0000020000A036992011120717320111                                                
6024600020000113411835272098737900000000090                                                                                     
7PESE                                                                                000000000020000                            
50002210201112072011121218351623125879       PES0000020000A085512011120716520022                                                
6024600020000113411835162312587900000000079                                                                                     
7PESE                                                                                000000000020000                            
50002310201112072011121299030236943330       PES0000035000A088552011120718340006                                                
6024600035000113419903023694333000035000699                                                                                     
7PESE                                                                                000000000035000                            
50002410201112072011121218352527058944       PES0000020000A002542011120711030177                                                
6024600020000113411835252705894400000000084                                                                                     
7PESE                                                                                000000000020000                            
50002510201112072011121218350621957336       PES0000020000A014522011120715460059                                                
6024600020000113411835062195733600000000079                                                                                     
7PESE                                                                                000000000020000                            
50002610201112072011121223061614941115       PES0000085400A014522011120715540068                                                
6024600085400113442306161494111500234000016                                                                                     
7PESE                                                                                000000000085400                            
50002710201112072011121223061839917091       PES0000085400A014522011120715540069                                                
6024600085400113442306183991709100234000078                                                                                     
7PESE                                                                                000000000085400                            
50002810201112072011121223061236276185       PES0000085400A014522011120715540070                                                
6024600085400113442306123627618500234000021                                                                                     
7PESE                                                                                000000000085400                            
50002910201112072011121218350330136765       PES0000020000A056262011120717230216                                                
6024600020000113411835033013676500000000084                                                                                     
7PESE                                                                                000000000020000                            
50003010201112072011121218350330120709       PES0000020000A056262011120717230217                                                
6024600020000113411835033012070900000000063                                                                                     
7PESE                                                                                000000000020000                            
50003110201112072011121223061327770284       PES0000085400A017122011120718500128                                                
6024600085400113412306132777028400234000015                                                                                     
7PESE                                                                                000000000085400                            
50003210201112072011121299040126939107       PES0000023500A093412011120718230175                                                
6024600023500113419904012693910700025000763                                                                                     
7PESE                                                                                000000000023500                            
50003310201112072011121200582427116566       PES0000025000A073132011120709370012                                                
6024600025000113430058242711656600000000015                                                                                     
7PESE                                                                                000000000025000                            
50003410201112072011121218350139211058       PES0000020000A028382011120719420018                                                
6024600020000113411835013921105800000000079                                                                                     
7PESE                                                                                000000000020000                            
50003510201112072011121299040124361506       PES0000023500A009932011120718070159                                                
6024600023500113419904012436150600025000690                                                                                     
7PESE                                                                                000000000023500                            
50003610201112072011121218350331433307       PES0000020000A099802011120719340216                                                
6024600020000113411835033143330700000000057                                                                                     
7PESE                                                                                000000000020000                            
50003710201112072011121200584742835806       PES0000008500A104232011120715150017                                                
6024600008500113420058474283580600000000021                                                                                     
7PESE                                                                                000000000008500                            
50003810201112072011121218350813824861       PES0000020000A085792011120713250202                                                
6024600020000113411835081382486100000000036                                                                                     
7PESE                                                                                000000000020000                            
50003910201112072011121218350525104102       PES0000020000A044382011120719220259                                                
6024600020000113411835052510410200000000042                                                                                     
7PESE                                                                                000000000020000                            
50004010201112072011121218350330815359       PES0000020000A044382011120719220260                                                
6024600020000113411835033081535900000000015                                                                                     
7PESE                                                                                000000000020000                            
50004110201112072011121223061126479013       PES0000085400A081342011120716220193                                                
6024600085400113412306112647901300234000063                                                                                     
7PESE                                                                                000000000085400                            
50004210201112072011121223061422886573       PES0000085400A075052011120718210200                                                
6024600085400113412306142288657300234000058                                                                                     
7PESE                                                                                000000000085400                            
50004310201112072011121299030231075840       PES0000035000L120232011120712346806                                                
6024600035000113419903023107584000035000757                                                                                     
7PESE                                                                                000000000035000                            
50004410201112072011121218353035373461       PES0000020000L120162011120717106165                                                
6024600020000113411835303537346100000000078                                                                                     
7PESE                                                                                000000000020000                            
50004510201112072011121223061331772303       PES0000085400L070352011120710295146                                                
6024600085400113412306133177230300234000042                                                                                     
7PESE                                                                                000000000085400                            
50004610201112072011121218352718403308       PES0000020000M600252011120715550152                                                
6024600020000113411835271840330800000000079                                                                                     
7PESE                                                                                000000000020000                            
50004710201112072011121218351431539755       PES0000020000M600822011120712240169                                                
6024600020000113411835143153975500000000021                                                                                     
7PESE                                                                                000000000020000                            
50004810201112072011121218350621052612       PES0000020000M600412011120710100006                                                
6024600020000113411835062105261200000000078                                                                                     
7PESE                                                                                000000000020000                            
50004910201112082011121229060134661322       PES0000013000A029692011120720010145                                                
6024600013000113482906013466132200000000078                                                                                     
7PESE                                                                                000000000013000                            
50005010201112102011121218350329679371       PES0000020000M620412011120709520009                                                
6024600020000113411835032967937100000000078                                                                                     
7PESE                                                                                000000000020000                            
50005110201112092011121200600617659112       PES0000019000A094932011120911040112                                                
6024600019000113460060061765911200060000021                                                                                     
7PESE                                                                                000000000019000                            
50005210201112092011121223061138796032       PES0000085400L070222011120913223986                                                
6024600085400113452306113879603200234000063                                                                                     
7PESE                                                                                000000000085400                            
50005310201112112011121200583636397651       PES0000025000A011012011121113390052                                                
6024600025000113470058363639765100000000016                                                                                     
7PESE                                                                                000000000025000                            
82011121200000100000530000016935000000000000000000000000000000000000000000053                                                   
9201112120000010000053000001693500000000000000000000000000000000000000000000053                                                 
