120121213PAGO FACIL               090060246FABIAN NORBERTO D´ERAMO                                                              
320121213000001FABIAN NORBERTO D´ERAMO                                                                                          
50000110201212122012121300773913218157       PES0000028500A107912012121113090021                                                
6024600028500123480077391321815700000000021                                                                                     
7PESE                                                                                000000000028500                            
50000210201212122012121388880000000090       PES0000003000A099222012121216330215                                                
6024600003000123508888000000009000000000090                                                                                     
7PESE                                                                                000000000003000                            
50000310201212122012121300774743035504       PES0000008000A115052012121213540178                                                
6024600008000123480077474303550400000000090                                                                                     
7PESE                                                                                000000000008000                            
50000410201212122012121300774743281777       PES0000008000A600702012121214100210                                                
6024600008000123480077474328177700000000084                                                                                     
7PESE                                                                                000000000008000                            
50000510201212122012121300774743856227       PES0000008000A601492012121211470087                                                
6024600008000123480077474385622700000000078                                                                                     
7PESE                                                                                000000000008000                            
50000610201212122012121300774745497377       PES0000008000A112752012121211340165                                                
6024600008000123480077474549737700000000058                                                                                     
7PESE                                                                                000000000008000                            
50000710201212122012121300774748357986       PES0000008000A115052012121213250169                                                
6024600008000123480077474835798600000000037                                                                                     
7PESE                                                                                000000000008000                            
50000810201212122012121373000125979673       PES0000015000A640822012121208310025                                                
6024600015000123537300012597967300040000037                                                                                     
7PESE                                                                                000000000015000                            
50000910201212122012121329080227940408       PES0000018000A116902012121213520182                                                
6024600018000123472908022794040800000000000                                                                                     
7PESE                                                                                000000000018000                            
50001010201212122012121329080317996665       PES0000018000M600822012121216370560                                                
6024600018000123532908031799666500000000099                                                                                     
7PESE                                                                                000000000018000                            
50001110201212122012121329081410687902       PES0000025000A053092012121215470031                                                
6024600025000123532908141068790200000000057                                                                                     
7PESE                                                                                000000000025000                            
50001210201212122012121302423516574841       PES0000028000M600042012121216020258                                                
6024600028000123530242351657484100070000090                                                                                     
7PESE                                                                                000000000028000                            
50001310201212122012121300773226075891       PES0000028500A016922012121211420043                                                
6024600028500123470077322607589100000000016                                                                                     
7PESE                                                                                000000000028500                            
50001410201212122012121300770732800590       PES0000028500A082002012121211180071                                                
6024600028500123480077073280059000000000000                                                                                     
7PESE                                                                                000000000028500                            
50001510201212122012121300771238422672       PES0000028500A025052012121218410003                                                
6024600028500123480077123842267200000000099                                                                                     
7PESE                                                                                000000000028500                            
50001610201212122012121300771337007828       PES0000028500A029032012121207310055                                                
6024600028500123480077133700782800000000000                                                                                     
7PESE                                                                                000000000028500                            
50001710201212122012121300771430883208       PES0000028500A106162012121220460110                                                
6024600028500123480077143088320800000000099                                                                                     
7PESE                                                                                000000000028500                            
50001810201212122012121300771722100690       PES0000028500A115052012121213250167                                                
6024600028500123480077172210069000000000021                                                                                     
7PESE                                                                                000000000028500                            
50001910201212122012121300771818385083       PES0000028500A115052012121213250168                                                
6024600028500123480077181838508300000000084                                                                                     
7PESE                                                                                000000000028500                            
50002010201212122012121300772013243402       PES0000028500A113072012121212370053                                                
6024600028500123480077201324340200000000021                                                                                     
7PESE                                                                                000000000028500                            
50002110201212122012121300772330511877       PES0000028500M620032012121214370224                                                
6024600028500123480077233051187700000000042                                                                                     
7PESE                                                                                000000000028500                            
50002210201212122012121300772429068077       PES0000028500M620032012121214360223                                                
6024600028500123480077242906807700000000078                                                                                     
7PESE                                                                                000000000028500                            
50002310201212122012121300772524037133       PES0000028500A082002012121210270040                                                
6024600028500123480077252403713300000000042                                                                                     
7PESE                                                                                000000000028500                            
50002410201212122012121300772621483553       PES0000028500A085342012121216520020                                                
6024600028500123480077262148355300000000099                                                                                     
7PESE                                                                                000000000028500                            
50002510201212122012121300772621797642       PES0000028500A115302012121211590048                                                
6024600028500123480077262179764200000000000                                                                                     
7PESE                                                                                000000000028500                            
50002610201212122012121300772717702110       PES0000028500A025052012121216440095                                                
6024600028500123480077271770211000000000042                                                                                     
7PESE                                                                                000000000028500                            
50002710201212122012121300772812707399       PES0000028500A057152012121210560091                                                
6024600028500123480077281270739900000000058                                                                                     
7PESE                                                                                000000000028500                            
50002810201212122012121300772813754992       PES0000028500A064852012121209380154                                                
6024600028500123480077281375499200000000016                                                                                     
7PESE                                                                                000000000028500                            
50002910201212122012121300773728924449       PES0000028500A036052012121214110149                                                
6024600028500123480077372892444900000000090                                                                                     
7PESE                                                                                000000000028500                            
50003010201212122012121300773729832683       PES0000028500M620032012121214370225                                                
6024600028500123480077372983268300000000084                                                                                     
7PESE                                                                                000000000028500                            
50003110201212122012121300774042374812       PES0000028500A099972012121213060242                                                
6024600028500123480077404237481200000000036                                                                                     
7PESE                                                                                000000000028500                            
50003210201212122012121300774422475561       PES0000028500A047702012121216070007                                                
6024600028500123480077442247556100000000021                                                                                     
7PESE                                                                                000000000028500                            
50003310201212122012121300774514783803       PES0000028500A090582012121217030108                                                
6024600028500123480077451478380300000000000                                                                                     
7PESE                                                                                000000000028500                            
50003410201212122012121302420425896017       PES0000040000A033992012121217040195                                                
6024600032000123400242042589601700080000799                                                                                     
7PESE                                                                                000000000040000                            
50003510201212122012121302420522970963       PES0000040000M601652012121213280277                                                
6024600032000123400242052297096300080000716                                                                                     
7PESE                                                                                000000000040000                            
50003610201212122012121302421426318083       PES0000040000A091562012121212210214                                                
6024600040000123500242142631808300075000037                                                                                     
7PESE                                                                                000000000040000                            
50003710201212122012121302420520020148       PES0000040000A100652012121216320014                                                
6024600040000123510242052002014800075000036                                                                                     
7PESE                                                                                000000000040000                            
50003810201212122012121302421522401738       PES0000040000A100652012121216330015                                                
6024600040000123510242152240173800075000037                                                                                     
7PESE                                                                                000000000040000                            
50003910201212122012121302420522842282       PES0000040000A108702012121219250181                                                
6024600040000123530242052284228200075000000                                                                                     
7PESE                                                                                000000000040000                            
50004010201212122012121302423822824969       PES0000040000A094382012121218320119                                                
6024600040000123540242382282496900075000057                                                                                     
7PESE                                                                                000000000040000                            
82012121300000100000400000010540000000000000000000000000000000000000000000040                                                   
9201212130000010000040000001054000000000000000000000000000000000000000000000040                                                 
