120120413PAGO FACIL               090060246FABIAN NORBERTO D´ERAMO                                                              
320120413000001FABIAN NORBERTO D´ERAMO                                                                                          
50000110201204122012041302353626420271       PES0000017000A048742012041217230026                                                
6024600017000121060235362642027100030000084                                                                                     
7PESE                                                                                000000000017000                            
50000210201204122012041302351523362363       PES0000017000A601492012041212120088                                                
6024600017000121070235152336236300030000078                                                                                     
7PESE                                                                                000000000017000                            
50000310201204122012041302353432991948       PES0000017000A109482012041217320051                                                
6024600017000121070235343299194800030000063                                                                                     
7PESE                                                                                000000000017000                            
50000410201204122012041302353723153621       PES0000017000A601492012041212120089                                                
6024600017000121070235372315362100030000058                                                                                     
7PESE                                                                                000000000017000                            
50000510201204122012041300701720636093       PES0000022000M600762012041210470016                                                
6024600020000120990070172063609300020000484                                                                                     
7PESE                                                                                000000000022000                            
50000610201204122012041300702911554504       PES0000022000A084922012041212100200                                                
6024600020000120990070291155450400020000442                                                                                     
7PESE                                                                                000000000022000                            
50000710201204122012041300701622812545       PES0000022000A107892012041216580190                                                
6024600022000121030070162281254500000000036                                                                                     
7PESE                                                                                000000000022000                            
50000810201204122012041300701816171175       PES0000022000A081582012041215460069                                                
6024600022000121030070181617117500000000000                                                                                     
7PESE                                                                                000000000022000                            
50000910201204122012041300702425769250       PES0000022000A028962012041217510084                                                
6024600022000121030070242576925000000000042                                                                                     
7PESE                                                                                000000000022000                            
50001010201204122012041300703825338119       PES0000022000A025642012041218460228                                                
6024600022000121030070382533811900000000000                                                                                     
7PESE                                                                                000000000022000                            
50001110201204122012041300704425430045       PES0000022000A099462012041214300029                                                
6024600022000121030070442543004500000000058                                                                                     
7PESE                                                                                000000000022000                            
50001210201204122012041300705713565807       PES0000022000A071862012041215450004                                                
6024600022000121030070571356580700000000037                                                                                     
7PESE                                                                                000000000022000                            
50001310201204122012041302350621801033       PES0000029000A065702012041217390057                                                
6024600029000121090235062180103300040000042                                                                                     
7PESE                                                                                000000000029000                            
50001410201204122012041356000232330840       PES0000030000A620302012041211000071                                                
6024600030000121035600023233084000000000099                                                                                     
7PESE                                                                                000000000030000                            
50001510201204122012041356000233828381       PES0000030000L070092012041215139207                                                
6024600030000121045600023382838100000000078                                                                                     
7PESE                                                                                000000000030000                            
50001610201204122012041356000622293901       PES0000030000L120252012041208341281                                                
6024600030000121045600062229390100000000057                                                                                     
7PESE                                                                                000000000030000                            
50001710201204122012041356000716892016       PES0000030000M600092012041217520463                                                
6024600030000121045600071689201600000000015                                                                                     
7PESE                                                                                000000000030000                            
50001810201204122012041356001422545377       PES0000030000A112772012041213250079                                                
6024600030000121045600142254537700000000099                                                                                     
7PESE                                                                                000000000030000                            
50001910201204122012041399030125909375       PES0000040500A108262012041212000047                                                
6024600040500121069903012590937500025000116                                                                                     
7PESE                                                                                000000000040500                            
50002010201204122012041399030133897409       PES0000040500A100492012041211070147                                                
6024600040500121069903013389740900025000279                                                                                     
7PESE                                                                                000000000040500                            
50002110201204122012041399030134137506       PES0000040500A018312012041218310109                                                
6024600040500121069903013413750600025000400                                                                                     
7PESE                                                                                000000000040500                            
82012041300000100000210000005445000000000000000000000000000000000000000000021                                                   
9201204130000010000021000000544500000000000000000000000000000000000000000000021                                                 
