120111213PAGO FACIL               090060246FABIAN NORBERTO D´ERAMO                                                              
320111213000001FABIAN NORBERTO D´ERAMO                                                                                          
50000110201112122011121329060816801790       PES0000013000A075232011121218020217                                                
6024600013000113462906081680179000000000099                                                                                     
7PESE                                                                                000000000013000                            
50000210201112122011121346071525978284       PES0000014000A022882011121217460089                                                
6024600014000113474607152597828400000000000                                                                                     
7PESE                                                                                000000000014000                            
50000310201112122011121300600520988552       PES0000019000A079302011121216300011                                                
6024600019000113480060052098855200060000037                                                                                     
7PESE                                                                                000000000019000                            
50000410201112122011121300600811786531       PES0000019000A079302011121216300010                                                
6024600019000113480060081178653100060000063                                                                                     
7PESE                                                                                000000000019000                            
50000510201112122011121300585713974445       PES0000025000M620162011121209160007                                                
6024600025000113460058571397444500000000057                                                                                     
7PESE                                                                                000000000025000                            
50000610201112122011121300582329863116       PES0000025000A097172011121214290202                                                
6024600025000113470058232986311600000000021                                                                                     
7PESE                                                                                000000000025000                            
50000710201112122011121300583008330330       PES0000025000A007572011121210060053                                                
6024600025000113490058300833033000000000058                                                                                     
7PESE                                                                                000000000025000                            
50000810201112122011121300581430735964       PES0000025000A108712011121209130009                                                
6024600025000113520058143073596400000000042                                                                                     
7PESE                                                                                000000000025000                            
50000910201112122011121300583913243402       PES0000025000A108712011121209130008                                                
6024600025000113520058391324340200000000079                                                                                     
7PESE                                                                                000000000025000                            
50001010201112122011121346070231529078       PES0000026000A090992011121216360180                                                
6024600026000113474607023152907800000000042                                                                                     
7PESE                                                                                000000000026000                            
50001110201112122011121346070626886511       PES0000026000A027022011121217210136                                                
6024600026000113474607062688651100000000084                                                                                     
7PESE                                                                                000000000026000                            
50001210201112122011121399030228324126       PES0000038500D000492011121218520519                                                
6024600038500113499903022832412600025000463                                                                                     
7PESE                                                                                000000000038500                            
50001310201112122011121399030232638684       PES0000038500D000602011121219160201                                                
6024600038500113499903023263868400025000400                                                                                     
7PESE                                                                                000000000038500                            
50001410201112122011121399030233016959       PES0000038500A086672011121214440035                                                
6024600038500113499903023301695900025000457                                                                                     
7PESE                                                                                000000000038500                            
50001510201112122011121399030235755195       PES0000038500A051312011121214310283                                                
6024600038500113499903023575519500025000415                                                                                     
7PESE                                                                                000000000038500                            
50001610201112122011121323060421556666       PES0000076800A069312011121221210329                                                
6024600076800113492306042155666600192000242                                                                                     
7PESE                                                                                000000000076800                            
50001710201112122011121323061031734938       PES0000076800A090632011121218520351                                                
6024600076800113492306103173493800192000115                                                                                     
7PESE                                                                                000000000076800                            
50001810201112122011121323061125575689       PES0000085400A093442011121219190075                                                
6024600085400113492306112557568900234000421                                                                                     
7PESE                                                                                000000000085400                            
50001910201112122011121323061127147498       PES0000085400A009132011121215500192                                                
6024600085400113492306112714749800234000442                                                                                     
7PESE                                                                                000000000085400                            
50002010201112122011121323061237664447       PES0000085400L071072011121218082698                                                
6024600085400113492306123766444700234000421                                                                                     
7PESE                                                                                000000000085400                            
50002110201112122011121323061238792802       PES0000085400L070652011121216429377                                                
6024600085400113492306123879280200234000484                                                                                     
7PESE                                                                                000000000085400                            
50002210201112122011121323061522200049       PES0000085400M620032011121217360440                                                
6024600085400113492306152220004900234000299                                                                                     
7PESE                                                                                000000000085400                            
82011121300000100000220000009766000000000000000000000000000000000000000000022                                                   
9201112130000010000022000000976600000000000000000000000000000000000000000000022                                                 
