120110914PAGO FACIL               090060246FABIAN NORBERTO D´ERAMO                                                              
320110914000001FABIAN NORBERTO D´ERAMO                                                                                          
50000110201109132011091418320622147709       PES0000015000A033772011091310080050                                                
6024600015000112591832062214770900000000015                                                                                     
7PESE                                                                                000000000015000                            
50000210201109132011091417020717366119       PES0000020000A077082011091317410049                                                
6024600020000112621702071736611900000000016                                                                                     
7PESE                                                                                000000000020000                            
50000310201109132011091400504326592771       PES0000024500D000902011091314480126                                                
6024600024500112570050432659277100030000000                                                                                     
7PESE                                                                                000000000024500                            
50000410201109132011091400504331750178       PES0000024500A044652011091312130078                                                
6024600024500112590050433175017800030000078                                                                                     
7PESE                                                                                000000000024500                            
50000510201109132011091400500618887398       PES0000024500A051732011091311090178                                                
6024600024500112600050061888739800030000016                                                                                     
7PESE                                                                                000000000024500                            
50000610201109132011091400501817761636       PES0000024500A095282011091318410162                                                
6024600024500112620050181776163600030000042                                                                                     
7PESE                                                                                000000000024500                            
50000710201109132011091400504608077130       PES0000024500A103032011091317120194                                                
6024600024500112620050460807713000030000000                                                                                     
7PESE                                                                                000000000024500                            
50000810201109132011091400502426739739       PES0000024500D001392011091312350019                                                
6024600024500112630050242673973900030000021                                                                                     
7PESE                                                                                000000000024500                            
50000910201109132011091400532622293622       PES0000029000A092092011091312350051                                                
6024600029000112630053262229362200020000084                                                                                     
7PESE                                                                                000000000029000                            
50001010201109132011091401280326842535       PES0000036500M620412011091311530036                                                
6024600036500112560128032684253500000000000                                                                                     
7PESE                                                                                000000000036500                            
50001110201109132011091401280616767160       PES0000036500A105232011091311510025                                                
6024600036500112560128061676716000000000099                                                                                     
7PESE                                                                                000000000036500                            
50001210201109132011091401282313302270       PES0000036500M601122011091315030046                                                
6024600036500112560128231330227000000000084                                                                                     
7PESE                                                                                000000000036500                            
50001310201109132011091401280422438859       PES0000036500A105322011091308180010                                                
6024600036500112570128042243885900000000084                                                                                     
7PESE                                                                                000000000036500                            
50001410201109132011091401280518418417       PES0000036500A061852011091309380048                                                
6024600036500112570128051841841700000000000                                                                                     
7PESE                                                                                000000000036500                            
50001510201109132011091401280325856384       PES0000036500A037752011091319430276                                                
6024600036500112600128032585638400000000042                                                                                     
7PESE                                                                                000000000036500                            
50001610201109132011091401280325944229       PES0000036500A079422011091314220349                                                
6024600036500112600128032594422900000000058                                                                                     
7PESE                                                                                000000000036500                            
50001710201109132011091401280422684149       PES0000036500M640052011091312540106                                                
6024600036500112600128042268414900000000084                                                                                     
7PESE                                                                                000000000036500                            
50001810201109132011091401280423356433       PES0000036500A061432011091317030371                                                
6024600036500112600128042335643300000000057                                                                                     
7PESE                                                                                000000000036500                            
50001910201109132011091401280520331143       PES0000036500L071332011091312304492                                                
6024600036500112600128052033114300000000090                                                                                     
7PESE                                                                                000000000036500                            
50002010201109132011091401280617985493       PES0000036500A740182011091310130019                                                
6024600036500112600128061798549300000000063                                                                                     
7PESE                                                                                000000000036500                            
50002110201109132011091401280811999158       PES0000036500A078942011091319570003                                                
6024600036500112600128081199915800000000042                                                                                     
7PESE                                                                                000000000036500                            
50002210201109132011091401282225696098       PES0000036500A025612011091316140297                                                
6024600036500112600128222569609800000000000                                                                                     
7PESE                                                                                000000000036500                            
50002310201109132011091401282313813754       PES0000036500A038942011091316220215                                                
6024600036500112600128231381375400000000084                                                                                     
7PESE                                                                                000000000036500                            
50002410201109132011091400530617564574       PES0000038500A049072011091313070385                                                
6024600038500112560053061756457400010000063                                                                                     
7PESE                                                                                000000000038500                            
50002510201109132011091400530810777768       PES0000038500A007492011091309480033                                                
6024600038500112560053081077776800010000037                                                                                     
7PESE                                                                                000000000038500                            
50002610201109132011091400530713430776       PES0000038500A091522011091312450066                                                
6024600038500112580053071343077600010000015                                                                                     
7PESE                                                                                000000000038500                            
50002710201109132011091400530617448319       PES0000038500A091522011091312470067                                                
6024600038500112600053061744831900010000057                                                                                     
7PESE                                                                                000000000038500                            
82011091400000100000270000008760000000000000000000000000000000000000000000027                                                   
9201109140000010000027000000876000000000000000000000000000000000000000000000027                                                 
