120120514PAGO FACIL               090060246FABIAN NORBERTO D´ERAMO                                                              
320120514000001FABIAN NORBERTO D´ERAMO                                                                                          
50000110201205112012051499030235375809       PES0000046500D001482012051112030184                                                
6024600046500121369903023537580900025000257                                                                                     
7PESE                                                                                000000000046500                            
50000210201205112012051499030236872631       PES0000046500D000502012051114170251                                                
6024600046500121369903023687263100025000221                                                                                     
7PESE                                                                                000000000046500                            
50000310201205112012051402360234517298       PES0000030000A113532012051116350080                                                
6024600025000121310236023451729800050000516                                                                                     
7PESE                                                                                000000000030000                            
50000410201205122012051499030237247863       PES0000039525A091492012051212390224                                                
6024600039525121369903023724786300021500278                                                                                     
7PESE                                                                                000000000039525                            
50000510201205122012051499030236832667       PES0000039525A091492012051212390225                                                
6024600039525121369903023683266700021500221                                                                                     
7PESE                                                                                000000000039525                            
50000610201205122012051499030238066579       PES0000043000A076262012051210040053                                                
6024600043000121409903023806657900035000036                                                                                     
7PESE                                                                                000000000043000                            
50000710201205122012051499030203729571       PES0000046500A046792012051211060068                                                
6024600046500121369903020372957100025000337                                                                                     
7PESE                                                                                000000000046500                            
82012051400000100000070000002915500000000000000000000000000000000000000000007                                                   
9201205140000010000007000000291550000000000000000000000000000000000000000000007                                                 
