120120314PAGO FACIL               090060246FABIAN NORBERTO D´ERAMO                                                              
320120314000001FABIAN NORBERTO D´ERAMO                                                                                          
50000110201203132012031446081912720561       PES0000016000A098932012031217510247                                                
6024600016000120744608191272056100000000079                                                                                     
7PESE                                                                                000000000016000                            
50000210201203132012031453010493989851       PES0000007500A092012012031314210344                                                
6024600007500120785301049398985100000000063                                                                                     
7PESE                                                                                000000000007500                            
50000310201203132012031453010922907699       PES0000007500A049072012031313570090                                                
6024600007500120785301092290769900000000000                                                                                     
7PESE                                                                                000000000007500                            
50000410201203132012031453011621442215       PES0000007500A061872012031311070021                                                
6024600007500120785301162144221500000000042                                                                                     
7PESE                                                                                000000000007500                            
50000510201203132012031453011625016730       PES0000007500A061872012031311060020                                                
6024600007500120785301162501673000000000063                                                                                     
7PESE                                                                                000000000007500                            
50000610201203132012031498010135203934       PES0000010000M601622012031317040299                                                
6024600010000120759801013520393400000000179                                                                                     
7PESE                                                                                000000000010000                            
50000710201203132012031446081233547224       PES0000016000A068892012031310180072                                                
6024600016000120744608123354722400000000063                                                                                     
7PESE                                                                                000000000016000                            
50000810201203132012031446081330139938       PES0000016000L120212012031313516559                                                
6024600016000120744608133013993800000000063                                                                                     
7PESE                                                                                000000000016000                            
50000910201203132012031400692427170576       PES0000022000A601432012031314330138                                                
6024600020000120700069242717057600020000699                                                                                     
7PESE                                                                                000000000022000                            
50001010201203132012031402332825879133       PES0000020000A080082012031310190128                                                
6024600020000120760233282587913300000000099                                                                                     
7PESE                                                                                000000000020000                            
50001110201203132012031402333238407880       PES0000020000A017262012031311540135                                                
6024600020000120760233323840788000000000037                                                                                     
7PESE                                                                                000000000020000                            
50001210201203132012031400692813974445       PES0000022000M620162012031310260010                                                
6024600022000120800069281397444500000000084                                                                                     
7PESE                                                                                000000000022000                            
50001310201203132012031402331331752925       PES0000028000A091692012031317400636                                                
6024600025000120670233133175292500030000615                                                                                     
7PESE                                                                                000000000028000                            
50001410201203132012031402330524027743       PES0000028000A095412012031313320271                                                
6024600028000120750233052402774300000000021                                                                                     
7PESE                                                                                000000000028000                            
50001510201203132012031402330523706537       PES0000028000A080942012031317410131                                                
6024600028000120760233052370653700000000042                                                                                     
7PESE                                                                                000000000028000                            
50001610201203132012031402330524363632       PES0000028000A017262012031309460025                                                
6024600028000120760233052436363200000000099                                                                                     
7PESE                                                                                000000000028000                            
50001710201203132012031402330629827280       PES0000028000A092102012031312360245                                                
6024600028000120760233062982728000000000000                                                                                     
7PESE                                                                                000000000028000                            
50001810201203132012031402330814846025       PES0000028000A017262012031309460024                                                
6024600028000120760233081484602500000000057                                                                                     
7PESE                                                                                000000000028000                            
50001910201203132012031402331330653068       PES0000028000A099522012031311380225                                                
6024600028000120760233133065306800000000058                                                                                     
7PESE                                                                                000000000028000                            
50002010201203132012031446080526886511       PES0000030000A045312012031314100338                                                
6024600030000120734608052688651100000000036                                                                                     
7PESE                                                                                000000000030000                            
82012031400000100000200000003980000000000000000000000000000000000000000000020                                                   
9201203140000010000020000000398000000000000000000000000000000000000000000000020                                                 
