120111014PAGO FACIL               090060246FABIAN NORBERTO D´ERAMO                                                              
320111014000001FABIAN NORBERTO D´ERAMO                                                                                          
50000110201110132011101420040338891449       PES0000006000A096182011101311090134                                                
6024600006000112902004033889144900000000036                                                                                     
7PESE                                                                                000000000006000                            
50000210201110132011101420040421142243       PES0000006000A096182011101311090133                                                
6024600006000112902004042114224300000000078                                                                                     
7PESE                                                                                000000000006000                            
50000310201110132011101420040423992415       PES0000006000A096182011101311090135                                                
6024600006000112902004042399241500000000000                                                                                     
7PESE                                                                                000000000006000                            
50000410201110132011101420040218475904       PES0000006000A096182011101315540133                                                
6024600006000112922004021847590400000000090                                                                                     
7PESE                                                                                000000000006000                            
50000510201110132011101420040214452384       PES0000006000A029692011101318330089                                                
6024600006000112932004021445238400000000058                                                                                     
7PESE                                                                                000000000006000                            
50000610201110132011101420040417403075       PES0000006000A029692011101318330088                                                
6024600006000112932004041740307500000000021                                                                                     
7PESE                                                                                000000000006000                            
50000710201110132011101429060817658226       PES0000010000A033762011101312550173                                                
6024600010000112922906081765822600030000000                                                                                     
7PESE                                                                                000000000010000                            
50000810201110132011101429060726746047       PES0000010000A097692011101312330190                                                
6024600010000112932906072674604700030000000                                                                                     
7PESE                                                                                000000000010000                            
50000910201110132011101429060910927688       PES0000010000A097692011101312330191                                                
6024600010000112932906091092768800030000016                                                                                     
7PESE                                                                                000000000010000                            
50001010201110132011101400581912902460       PES0000018500D000502011101311370095                                                
6024600018500112870058191290246000040000099                                                                                     
7PESE                                                                                000000000018500                            
50001110201110132011101400520626416171       PES0000026000D000302011101311500171                                                
6024600026000112880052062641617100000000058                                                                                     
7PESE                                                                                000000000026000                            
50001210201110132011101400502523898524       PES0000027500A040462011101311150227                                                
6024600027500112860050252389852400000000079                                                                                     
7PESE                                                                                000000000027500                            
50001310201110132011101400502621730006       PES0000027500A102862011101310340091                                                
6024600027500112870050262173000600000000000                                                                                     
7PESE                                                                                000000000027500                            
50001410201110132011101400500828635523       PES0000027500A093422011101311560219                                                
6024600027500112920050082863552300000000099                                                                                     
7PESE                                                                                000000000027500                            
50001510201110132011101400504618364353       PES0000027500A090912011101309300016                                                
6024600027500112920050461836435300000000016                                                                                     
7PESE                                                                                000000000027500                            
50001610201110132011101400504514611702       PES0000027500M600702011101310280007                                                
6024600027500112930050451461170200000000057                                                                                     
7PESE                                                                                000000000027500                            
50001710201110132011101400533635246287       PES0000031000M601212011101311450095                                                
6024600031000112930053363524628700000000015                                                                                     
7PESE                                                                                000000000031000                            
50001810201110132011101400530810511751       PES0000039500A103832011101318360051                                                
6024600038500112830053081051175100010000336                                                                                     
7PESE                                                                                000000000039500                            
50001910201110132011101499030234750212       PES0000038500A043472011101320000258                                                
6024600038500112889903023475021200025000379                                                                                     
7PESE                                                                                000000000038500                            
50002010201110132011101400530135359250       PES0000039500A012612011101318070235                                                
6024600039500112920053013535925000000000058                                                                                     
7PESE                                                                                000000000039500                            
50002110201110132011101400530138067926       PES0000039500A012612011101318060234                                                
6024600039500112920053013806792600000000021                                                                                     
7PESE                                                                                000000000039500                            
50002210201110132011101400530135275095       PES0000039500D000782011101310490107                                                
6024600039500112930053013527509500000000099                                                                                     
7PESE                                                                                000000000039500                            
82011101400000100000220000004755000000000000000000000000000000000000000000022                                                   
9201110140000010000022000000475500000000000000000000000000000000000000000000022                                                 
