120130214PAGO FACIL               090060246FABIAN NORBERTO D´ERAMO                                                              
320130214000001FABIAN NORBERTO D´ERAMO                                                                                          
50000110201302132013021488880000000101       PES0000001500A096182013021315560107                                                
6024600001500130448888000000010100000000000                                                                                     
7PESE                                                                                000000000001500                            
50000210201302132013021473021816084869       PES0000009000A101442013021310330182                                                
6024600009000130487302181608486900030000016                                                                                     
7PESE                                                                                000000000009000                            
50000310201302132013021402433420184805       PES0000035000A112942013021316520008                                                
6024600035000130440243342018480500000000063                                                                                     
7PESE                                                                                000000000035000                            
50000410201302132013021402432338464274       PES0000035000A096342013021317080118                                                
6024600035000130450243233846427400000000063                                                                                     
7PESE                                                                                000000000035000                            
50000510201302132013021402432714951459       PES0000035000A063622013021313210049                                                
6024600035000130450243271495145900000000042                                                                                     
7PESE                                                                                000000000035000                            
50000610201302132013021402432339372784       PES0000035000A096342013021317060117                                                
6024600035000130460243233937278400000000037                                                                                     
7PESE                                                                                000000000035000                            
50000710201302132013021402432624298374       PES0000035000M640472013021317080086                                                
6024600035000130460243262429837400000000000                                                                                     
7PESE                                                                                000000000035000                            
50000810201302132013021402433138407880       PES0000035000A116222013021313220211                                                
6024600035000130460243313840788000000000016                                                                                     
7PESE                                                                                000000000035000                            
50000910201302132013021402430327778371       PES0000047500D001662013021309490059                                                
6024600047500130460243032777837100000000084                                                                                     
7PESE                                                                                000000000047500                            
50001010201302132013021402430423438619       PES0000047500A103902013021311500178                                                
6024600047500130460243042343861900000000021                                                                                     
7PESE                                                                                000000000047500                            
50001110201302132013021402430423438743       PES0000047500A103902013021311500179                                                
6024600047500130460243042343874300000000063                                                                                     
7PESE                                                                                000000000047500                            
50001210201302132013021401341423327634       PES0000150000A035852013021316320101                                                
6024600135000130410134142332763400150000437                                                                                     
7PESE                                                                                000000000150000                            
50001310201302132013021401341618604180       PES0000150000A620562013021309480025                                                
6024600150000130500134161860418000000000078                                                                                     
7PESE                                                                                000000000150000                            
82013021400000100000130000006630000000000000000000000000000000000000000000013                                                   
9201302140000010000013000000663000000000000000000000000000000000000000000000013                                                 
