120130114PAGO FACIL               090060246FABIAN NORBERTO D´ERAMO                                                              
320130114000001FABIAN NORBERTO D´ERAMO                                                                                          
50000110201301112013011473011018255003       PES0000010000A029312013011112470071                                                
6024600010000130187301101825500300020000057                                                                                     
7PESE                                                                                000000000010000                            
50000210201301112013011429080223507967       PES0000018000A063662013011110500092                                                
6024600018000130112908022350796700000000063                                                                                     
7PESE                                                                                000000000018000                            
50000310201301112013011499030136070637       PES0000051000A028072013011113030165                                                
6024600051000130159903013607063700025000300                                                                                     
7PESE                                                                                000000000051000                            
50000410201301112013011499030134617181       PES0000051000A110622013011111070038                                                
6024600051000130159903013461718100025000263                                                                                     
7PESE                                                                                000000000051000                            
50000510201301112013011429080411981232       PES0000018000A065362013011115150069                                                
6024600018000130112908041198123200000000058                                                                                     
7PESE                                                                                000000000018000                            
50000610201301112013011429080131600765       PES0000018000A087212013011113300059                                                
6024600018000130112908013160076500000000016                                                                                     
7PESE                                                                                000000000018000                            
50000710201301112013011429080129994956       PES0000018000A121112013011112120070                                                
6024600018000130112908012999495600000000057                                                                                     
7PESE                                                                                000000000018000                            
50000810201301112013011429080134841668       PES0000018000A121112013011112120071                                                
6024600018000130112908013484166800000000042                                                                                     
7PESE                                                                                000000000018000                            
50000910201301112013011429080130552081       PES0000018000A063402013011113260325                                                
6024600018000130112908013055208100000000063                                                                                     
7PESE                                                                                000000000018000                            
50001010201301112013011429080227313742       PES0000018000A092092013011117460456                                                
6024600018000130112908022731374200000000058                                                                                     
7PESE                                                                                000000000018000                            
50001110201301112013011429081632236446       PES0000025000D001662013011116460371                                                
6024600025000130112908163223644600000000084                                                                                     
7PESE                                                                                000000000025000                            
50001210201301112013011401341328751302       PES0000135000A044142013011116300040                                                
6024600135000130170134132875130200150000058                                                                                     
7PESE                                                                                000000000135000                            
50001310201301112013011429080321465087       PES0000018000A117702013011117400172                                                
6024600018000130112908032146508700000000099                                                                                     
7PESE                                                                                000000000018000                            
50001410201301112013011429080639372677       PES0000018000A112712013011117100098                                                
6024600018000130112908063937267700000000021                                                                                     
7PESE                                                                                000000000018000                            
50001510201301112013011429080322768121       PES0000018000A069092013011116580208                                                
6024600018000130112908032276812100000000099                                                                                     
7PESE                                                                                000000000018000                            
50001610201301112013011469020326351366       PES0000010000A621082013011111480034                                                
6024600010000130166902032635136600000000078                                                                                     
7PESE                                                                                000000000010000                            
50001710201301112013011469020229977342       PES0000010000A083822013011119520092                                                
6024600010000130186902022997734200000000099                                                                                     
7PESE                                                                                000000000010000                            
50001810201301112013011499030131344778       PES0000051000A095702013011119000276                                                
6024600051000130159903013134477800025000316                                                                                     
7PESE                                                                                000000000051000                            
50001910201301112013011429080318401644       PES0000018000A043292013011117170219                                                
6024600018000130112908031840164400000000016                                                                                     
7PESE                                                                                000000000018000                            
50002010201301112013011401341526928248       PES0000135000D001472013011120020297                                                
6024600135000130180134152692824800150000021                                                                                     
7PESE                                                                                000000000135000                            
50002110201301112013011429080726339450       PES0000018000A016352013011116340090                                                
6024600018000130112908072633945000000000021                                                                                     
7PESE                                                                                000000000018000                            
50002210201301112013011429080228370148       PES0000018000A016352013011116350091                                                
6024600018000130112908022837014800000000021                                                                                     
7PESE                                                                                000000000018000                            
50002310201301112013011429081822138031       PES0000025000M601652013011110180020                                                
6024600025000130112908182213803100000000037                                                                                     
7PESE                                                                                000000000025000                            
50002410201301112013011429080726293974       PES0000018000M600822013011110570082                                                
6024600018000130112908072629397400000000000                                                                                     
7PESE                                                                                000000000018000                            
50002510201301112013011429080817909702       PES0000018000M620732013011112240134                                                
6024600018000130112908081790970200000000084                                                                                     
7PESE                                                                                000000000018000                            
50002610201301112013011429080322462466       PES0000018000A099752013011113530150                                                
6024600018000130112908032246246600000000058                                                                                     
7PESE                                                                                000000000018000                            
50002710201301122013011429080228648801       PES0000018000A093702013011111190126                                                
6024600018000130112908022864880100000000058                                                                                     
7PESE                                                                                000000000018000                            
50002810201301122013011473010633323997       PES0000010000A067112013011210400070                                                
6024600010000130187301063332399700020000042                                                                                     
7PESE                                                                                000000000010000                            
50002910201301122013011469021492377553       PES0000010000A088172013011220460472                                                
6024600010000130186902149237755300000000021                                                                                     
7PESE                                                                                000000000010000                            
50003010201301122013011469021235532988       PES0000010000A088172013011220460473                                                
6024600010000130186902123553298800000000000                                                                                     
7PESE                                                                                000000000010000                            
50003110201301122013011473010634336659       PES0000010000M620022013011211220023                                                
6024600010000130177301063433665900020000021                                                                                     
7PESE                                                                                000000000010000                            
50003210201301122013011473010232102718       PES0000010000M620022013011211230024                                                
6024600010000130177301023210271800020000057                                                                                     
7PESE                                                                                000000000010000                            
50003310201301122013011402430714569641       PES0000035000M600042013011210490009                                                
6024600035000130180243071456964100050000099                                                                                     
7PESE                                                                                000000000035000                            
50003410201301122013011401341714569641       PES0000135000M600042013011210490010                                                
6024600135000130170134171456964100150000084                                                                                     
7PESE                                                                                000000000135000                            
82013011400000100000340000010290000000000000000000000000000000000000000000034                                                   
9201301140000010000034000001029000000000000000000000000000000000000000000000034                                                 
