120121214PAGO FACIL               090060246FABIAN NORBERTO D´ERAMO                                                              
320121214000001FABIAN NORBERTO D´ERAMO                                                                                          
50000110201212132012121473000125959226       PES0000015000A640822012121216100003                                                
6024600015000123547300012595922600040000057                                                                                     
7PESE                                                                                000000000015000                            
50000210201212132012121400774041740263       PES0000028500A117802012121212020035                                                
6024600028500123480077404174026300000000063                                                                                     
7PESE                                                                                000000000028500                            
50000310201212132012121400774330376837       PES0000028500M620342012121217320025                                                
6024600028500123480077433037683700000000000                                                                                     
7PESE                                                                                000000000028500                            
50000410201212132012121400774739916801       PES0000008000D000502012121321430351                                                
6024600008000123480077473991680100000000015                                                                                     
7PESE                                                                                000000000008000                            
50000510201212132012121400774741587232       PES0000008000A098912012121319500293                                                
6024600008000123480077474158723200000000037                                                                                     
7PESE                                                                                000000000008000                            
50000610201212132012121400774743625732       PES0000008000A056992012121311050101                                                
6024600008000123480077474362573200000000042                                                                                     
7PESE                                                                                000000000008000                            
50000710201212132012121400774744451677       PES0000008000A601492012121314350233                                                
6024600008000123480077474445167700000000037                                                                                     
7PESE                                                                                000000000008000                            
50000810201212132012121400774744796579       PES0000008000A074242012121309410073                                                
6024600008000123480077474479657900000000063                                                                                     
7PESE                                                                                000000000008000                            
50000910201212132012121400774745075301       PES0000008000A602172012121310390007                                                
6024600008000123480077474507530100000000021                                                                                     
7PESE                                                                                000000000008000                            
50001010201212132012121400774746273825       PES0000008000A074242012121309410072                                                
6024600008000123480077474627382500000000084                                                                                     
7PESE                                                                                000000000008000                            
50001110201212132012121473000446588219       PES0000009500A103802012121319540072                                                
6024600009500123507300044658821900000000021                                                                                     
7PESE                                                                                000000000009500                            
50001210201212132012121473000226490400       PES0000015000A103802012121319540071                                                
6024600015000123507300022649040000040000063                                                                                     
7PESE                                                                                000000000015000                            
50001310201212132012121429080317424964       PES0000018000M640052012121313170110                                                
6024600018000123542908031742496400000000021                                                                                     
7PESE                                                                                000000000018000                            
50001410201212132012121429080822210519       PES0000018000M601622012121314250120                                                
6024600018000123542908082221051900000000037                                                                                     
7PESE                                                                                000000000018000                            
50001510201212132012121429081725686203       PES0000025000A098212012121307470004                                                
6024600025000123542908172568620300000000000                                                                                     
7PESE                                                                                000000000025000                            
50001610201212132012121402422529523178       PES0000028000A072902012121317310175                                                
6024600028000123480242252952317800070000084                                                                                     
7PESE                                                                                000000000028000                            
50001710201212132012121402422434975817       PES0000028000A601202012121313420058                                                
6024600028000123490242243497581700070000078                                                                                     
7PESE                                                                                000000000028000                            
50001810201212132012121400770525000277       PES0000028500A085342012121316490074                                                
6024600028500123480077052500027700000000042                                                                                     
7PESE                                                                                000000000028500                            
50001910201212132012121400771336401220       PES0000028500A096062012121312000171                                                
6024600028500123480077133640122000000000037                                                                                     
7PESE                                                                                000000000028500                            
50002010201212132012121400771625060277       PES0000028500A085342012121316490075                                                
6024600028500123480077162506027700000000037                                                                                     
7PESE                                                                                000000000028500                            
50002110201212132012121400772429068077       PES0000028500A092092012121315200299                                                
6024600028500123480077242906807700000000078                                                                                     
7PESE                                                                                000000000028500                            
50002210201212132012121400772429522296       PES0000028500A107722012121317300182                                                
6024600028500123480077242952229600000000036                                                                                     
7PESE                                                                                000000000028500                            
50002310201212132012121400772525430870       PES0000028500M601262012121315470145                                                
6024600028500123480077252543087000000000000                                                                                     
7PESE                                                                                000000000028500                            
50002410201212132012121400772526044379       PES0000028500A085342012121316490076                                                
6024600028500123480077252604437900000000058                                                                                     
7PESE                                                                                000000000028500                            
50002510201212132012121400772620568145       PES0000028500A034312012121310500057                                                
6024600028500123480077262056814500000000042                                                                                     
7PESE                                                                                000000000028500                            
50002610201212132012121400772622226077       PES0000028500A091772012121310460130                                                
6024600028500123480077262222607700000000063                                                                                     
7PESE                                                                                000000000028500                            
50002710201212132012121400772717617179       PES0000028500M600572012121312300119                                                
6024600028500123480077271761717900000000042                                                                                     
7PESE                                                                                000000000028500                            
50002810201212132012121400772717801813       PES0000028500A096062012121312000172                                                
6024600028500123480077271780181300000000016                                                                                     
7PESE                                                                                000000000028500                            
50002910201212132012121400772814026825       PES0000028500A091772012121309430064                                                
6024600028500123480077281402682500000000079                                                                                     
7PESE                                                                                000000000028500                            
50003010201212132012121400772814619549       PES0000028500A071842012121314070048                                                
6024600028500123480077281461954900000000042                                                                                     
7PESE                                                                                000000000028500                            
50003110201212132012121400772816037760       PES0000028500A075132012121309330081                                                
6024600028500123480077281603776000000000016                                                                                     
7PESE                                                                                000000000028500                            
50003210201212132012121400772913565807       PES0000028500A109792012121316390008                                                
6024600028500123480077291356580700000000016                                                                                     
7PESE                                                                                000000000028500                            
50003310201212132012121400773538958242       PES0000028500A090762012121319280501                                                
6024600028500123480077353895824200000000036                                                                                     
7PESE                                                                                000000000028500                            
50003410201212132012121400773821617427       PES0000028500A079692012121310030100                                                
6024600028500123480077382161742700000000063                                                                                     
7PESE                                                                                000000000028500                            
50003510201212132012121400773822363283       PES0000028500A032972012121316360031                                                
6024600028500123480077382236328300000000042                                                                                     
7PESE                                                                                000000000028500                            
50003610201212132012121400774137906200       PES0000028500A016702012121314520175                                                
6024600028500123480077413790620000000000090                                                                                     
7PESE                                                                                000000000028500                            
50003710201212132012121400774138693995       PES0000028500A038942012121311060003                                                
6024600028500123480077413869399500000000099                                                                                     
7PESE                                                                                000000000028500                            
50003810201212132012121400774424183216       PES0000028500A100392012121312190104                                                
6024600028500123480077442418321600000000042                                                                                     
7PESE                                                                                000000000028500                            
50003910201212132012121400774514014652       PES0000028500A100392012121312180103                                                
6024600028500123480077451401465200000000016                                                                                     
7PESE                                                                                000000000028500                            
50004010201212132012121400774608104267       PES0000028500A092062012121311040122                                                
6024600028500123480077460810426700000000037                                                                                     
7PESE                                                                                000000000028500                            
50004110201212132012121400774610780448       PES0000028500A063662012121315450069                                                
6024600028500123480077461078044800000000042                                                                                     
7PESE                                                                                000000000028500                            
50004210201212132012121498010231224418       PES0000029500A033562012121316380152                                                
6024600029500123509801023122441800000000584                                                                                     
7PESE                                                                                000000000029500                            
50004310201212132012121402420231899794       PES0000040000A074252012121316100035                                                
6024600040000123480242023189979400075000078                                                                                     
7PESE                                                                                000000000040000                            
50004410201212132012121402420617364487       PES0000040000D000662012121309330005                                                
6024600040000123480242061736448700075000078                                                                                     
7PESE                                                                                000000000040000                            
50004510201212132012121402420712321767       PES0000040000A014502012121320320317                                                
6024600040000123480242071232176700075000078                                                                                     
7PESE                                                                                000000000040000                            
50004610201212132012121402420714151815       PES0000040000A084922012121309150108                                                
6024600040000123480242071415181500075000021                                                                                     
7PESE                                                                                000000000040000                            
50004710201212132012121402420812976275       PES0000040000M600542012121310440025                                                
6024600040000123490242081297627500075000078                                                                                     
7PESE                                                                                000000000040000                            
50004810201212132012121402421327660934       PES0000040000A039232012121310240274                                                
6024600040000123500242132766093400075000000                                                                                     
7PESE                                                                                000000000040000                            
50004910201212132012121402420810984196       PES0000040000A097432012121317400085                                                
6024600040000123520242081098419600075000063                                                                                     
7PESE                                                                                000000000040000                            
50005010201212132012121402421523126223       PES0000040000A097432012121317400086                                                
6024600040000123520242152312622300075000042                                                                                     
7PESE                                                                                000000000040000                            
50005110201212132012121402420329033010       PES0000040000A097222012121317510020                                                
6024600040000123530242032903301000075000016                                                                                     
7PESE                                                                                000000000040000                            
50005210201212132012121402420326626270       PES0000040000A092672012121310470125                                                
6024600040000123550242032662627000075000021                                                                                     
7PESE                                                                                000000000040000                            
82012121400000100000520000013830000000000000000000000000000000000000000000052                                                   
9201212140000010000052000001383000000000000000000000000000000000000000000000052                                                 
