120121114PAGO FACIL               090060246FABIAN NORBERTO D´ERAMO                                                              
320121114000001FABIAN NORBERTO D´ERAMO                                                                                          
50000110201211132012111401331328042228       PES0000052000A107842012111217120042                                                
6024600052000123240133132804222800080000084                                                                                     
7PESE                                                                                000000000052000                            
50000210201211132012111401331522717321       PES0000052000A111002012111219420113                                                
6024600052000123170133152271732100080000037                                                                                     
7PESE                                                                                000000000052000                            
50000310201211132012111400752332947079       PES0000024500A111002012111219490119                                                
6024600024500123200075233294707900000000063                                                                                     
7PESE                                                                                000000000024500                            
50000410201211132012111469012523724845       PES0000017500A043122012111216460249                                                
6024600017500123196901252372484500025000042                                                                                     
7PESE                                                                                000000000017500                            
50000510201211132012111400752812706997       PES0000024500A099402012111216480102                                                
6024600024500123170075281270699700000000021                                                                                     
7PESE                                                                                000000000024500                            
50000610201211132012111469013732975197       PES0000017500A085422012111216520378                                                
6024600017500123246901373297519700025000000                                                                                     
7PESE                                                                                000000000017500                            
50000710201211132012111469014333145116       PES0000017500A085422012111216540380                                                
6024600017500123186901433314511600025000078                                                                                     
7PESE                                                                                000000000017500                            
50000810201211132012111471000833330849       PES0000010000A601232012111212050078                                                
6024600010000123207100083333084900000000036                                                                                     
7PESE                                                                                000000000010000                            
50000910201211132012111471001312552773       PES0000008000A601232012111212060079                                                
6024600008000123207100131255277300000000036                                                                                     
7PESE                                                                                000000000008000                            
50001010201211132012111401331232537882       PES0000052000A068912012111212590236                                                
6024600052000123240133123253788200080000058                                                                                     
7PESE                                                                                000000000052000                            
50001110201211132012111400774743628652       PES0000005500A051082012111315280217                                                
6024600005500123200077474362865200010000415                                                                                     
7PESE                                                                                000000000005500                            
50001210201211132012111400774744222186       PES0000005500A094482012111311270084                                                
6024600005500123200077474422218600010000400                                                                                     
7PESE                                                                                000000000005500                            
50001310201211132012111471000322550898       PES0000010000A049072012111313100118                                                
6024600010000123207100032255089800000000058                                                                                     
7PESE                                                                                000000000010000                            
50001410201211132012111471001111390193       PES0000010000A112852012111313390089                                                
6024600010000123207100111139019300000000078                                                                                     
7PESE                                                                                000000000010000                            
50001510201211132012111498010129237081       PES0000015000M740012012111311590077                                                
6024600015000123209801012923708100000000578                                                                                     
7PESE                                                                                000000000015000                            
50001610201211132012111498010133386650       PES0000015000A074252012111311400201                                                
6024600015000123209801013338665000000000100                                                                                     
7PESE                                                                                000000000015000                            
50001710201211132012111498010137213001       PES0000015000L070492012111316269605                                                
6024600015000123209801013721300100000000478                                                                                     
7PESE                                                                                000000000015000                            
50001810201211132012111400773917726049       PES0000021000A051082012111315280216                                                
6024600021000123200077391772604900045000421                                                                                     
7PESE                                                                                000000000021000                            
50001910201211132012111400774043728794       PES0000021000A025052012111306380025                                                
6024600021000123200077404372879400045000478                                                                                     
7PESE                                                                                000000000021000                            
50002010201211132012111400750829153649       PES0000024500D001462012111312200242                                                
6024600024500123200075082915364900000000036                                                                                     
7PESE                                                                                000000000024500                            
50002110201211132012111400752012717770       PES0000024500A099402012111316130052                                                
6024600024500123200075201271777000000000000                                                                                     
7PESE                                                                                000000000024500                            
50002210201211132012111400753105387858       PES0000024500A101062012111312490168                                                
6024600024500123200075310538785800000000079                                                                                     
7PESE                                                                                000000000024500                            
50002310201211132012111400753440638254       PES0000024500A036692012111318380236                                                
6024600024500123200075344063825400000000057                                                                                     
7PESE                                                                                000000000024500                            
50002410201211132012111400754042238167       PES0000024500A094482012111311260083                                                
6024600024500123200075404223816700000000042                                                                                     
7PESE                                                                                000000000024500                            
50002510201211132012111499030134332391       PES0000036550A091492012111310160067                                                
6024600036550123239903013433239100030250000                                                                                     
7PESE                                                                                000000000036550                            
50002610201211132012111499030134332391       PES0000039525A091492012111310160066                                                
6024600039525123209903013433239100021500379                                                                                     
7PESE                                                                                000000000039525                            
50002710201211132012111499030134750295       PES0000046500D000502012111311280127                                                
6024600043000123129903013475029500035000778                                                                                     
7PESE                                                                                000000000046500                            
50002810201211132012111499030126562585       PES0000046500A051222012111313130086                                                
6024600046500123209903012656258500025000578                                                                                     
7PESE                                                                                000000000046500                            
50002910201211132012111499030132639591       PES0000046500A028662012111314490176                                                
6024600046500123209903013263959100025000521                                                                                     
7PESE                                                                                000000000046500                            
50003010201211132012111401331327707810       PES0000052000A620812012111314040005                                                
6024600052000123180133132770781000080000016                                                                                     
7PESE                                                                                000000000052000                            
50003110201211132012111401331329741620       PES0000052000M620132012111316330091                                                
6024600052000123180133132974162000080000021                                                                                     
7PESE                                                                                000000000052000                            
50003210201211132012111401331425578594       PES0000052000L070092012111319359849                                                
6024600052000123180133142557859400080000016                                                                                     
7PESE                                                                                000000000052000                            
50003310201211132012111401331520988552       PES0000052000A079302012111312040142                                                
6024600052000123190133152098855200080000037                                                                                     
7PESE                                                                                000000000052000                            
50003410201211132012111401331521981369       PES0000052000A064332012111309100024                                                
6024600052000123190133152198136900080000037                                                                                     
7PESE                                                                                000000000052000                            
50003510201211132012111401331811786531       PES0000052000A079302012111312040143                                                
6024600052000123190133181178653100080000063                                                                                     
7PESE                                                                                000000000052000                            
50003610201211132012111401331618324344       PES0000052000A081572012111311300126                                                
6024600052000123200133161832434400080000084                                                                                     
7PESE                                                                                000000000052000                            
50003710201211132012111401331232036311       PES0000052000L120242012111315493683                                                
6024600052000123210133123203631100080000058                                                                                     
7PESE                                                                                000000000052000                            
50003810201211132012111401331637273791       PES0000052000A073412012111315270023                                                
6024600052000123220133163727379100080000057                                                                                     
7PESE                                                                                000000000052000                            
50003910201211132012111401331714789572       PES0000052000A049072012111318480020                                                
6024600052000123230133171478957200080000036                                                                                     
7PESE                                                                                000000000052000                            
50004010201211132012111401331328759938       PES0000052000A087612012111318320099                                                
6024600052000123240133132875993800080000084                                                                                     
7PESE                                                                                000000000052000                            
50004110201211132012111401331522860183       PES0000052000A110642012111311210094                                                
6024600052000123240133152286018300080000084                                                                                     
7PESE                                                                                000000000052000                            
50004210201211132012111401331424082722       PES0000052000A093072012111311530006                                                
6024600052000123250133142408272200080000042                                                                                     
7PESE                                                                                000000000052000                            
50004310201211132012111401331521040260       PES0000052000A091652012111315280362                                                
6024600052000123250133152104026000080000057                                                                                     
7PESE                                                                                000000000052000                            
50004410201211132012111401331522257650       PES0000052000A064042012111315380357                                                
6024600052000123250133152225765000080000063                                                                                     
7PESE                                                                                000000000052000                            
50004510201211132012111401331618048202       PES0000052000A085512012111317140093                                                
6024600052000123250133161804820200080000090                                                                                     
7PESE                                                                                000000000052000                            
82012111400000100000450000015635750000000000000000000000000000000000000000045                                                   
9201211140000010000045000001563575000000000000000000000000000000000000000000045                                                 
