120120914PAGO FACIL               090060246FABIAN NORBERTO D´ERAMO                                                              
320120914000001FABIAN NORBERTO D´ERAMO                                                                                          
50000110201209132012091401320423745885       PES0000045000A087612012091217150009                                                
6024600045000122560132042374588500050000015                                                                                     
7PESE                                                                                000000000045000                            
50000210201209132012091444020620007902       PES0000007500A113312012091308410012                                                
6024600007500122604402062000790200010000063                                                                                     
7PESE                                                                                000000000007500                            
50000310201209132012091444021717321272       PES0000007500A113312012091308410011                                                
6024600007500122604402171732127200010000058                                                                                     
7PESE                                                                                000000000007500                            
50000410201209132012091429081223375606       PES0000020000A024432012091317310157                                                
6024600020000122582908122337560600030000042                                                                                     
7PESE                                                                                000000000020000                            
50000510201209132012091402413339097297       PES0000025000A017262012091312170011                                                
6024600025000122580241333909729700000000036                                                                                     
7PESE                                                                                000000000025000                            
50000610201209132012091402413918125517       PES0000025000A620812012091313040069                                                
6024600025000122580241391812551700000000057                                                                                     
7PESE                                                                                000000000025000                            
50000710201209132012091402414207620834       PES0000025000A116582012091311070155                                                
6024600025000122580241420762083400000000000                                                                                     
7PESE                                                                                000000000025000                            
50000810201209132012091402410427311770       PES0000033000A105972012091314490219                                                
6024600028000122540241042731177000050000463                                                                                     
7PESE                                                                                000000000033000                            
50000910201209132012091400714421080930       PES0000029000A026032012091310220053                                                
6024600029000122580071442108093000035000042                                                                                     
7PESE                                                                                000000000029000                            
50001010201209132012091400712913236517       PES0000029000A051342012091316390046                                                
6024600029000122610071291323651700035000099                                                                                     
7PESE                                                                                000000000029000                            
50001110201209132012091400713539347845       PES0000029000A050522012091321010410                                                
6024600029000122620071353934784500035000090                                                                                     
7PESE                                                                                000000000029000                            
50001210201209132012091400714328492052       PES0000029000A031402012091317110140                                                
6024600029000122620071432849205200035000021                                                                                     
7PESE                                                                                000000000029000                            
50001310201209132012091400714234498554       PES0000029000A031402012091317110139                                                
6024600029000122630071423449855400035000084                                                                                     
7PESE                                                                                000000000029000                            
50001410201209132012091400714610428334       PES0000029000A042812012091314310094                                                
6024600029000122630071461042833400035000042                                                                                     
7PESE                                                                                000000000029000                            
50001510201209132012091400711722394441       PES0000029000A083092012091320470203                                                
6024600029000122640071172239444100035000090                                                                                     
7PESE                                                                                000000000029000                            
50001610201209132012091400712525463242       PES0000029000A087612012091317340036                                                
6024600029000122640071252546324200035000037                                                                                     
7PESE                                                                                000000000029000                            
50001710201209132012091417030123281993       PES0000030000A085192012091312520154                                                
6024600030000122631703012328199300000000057                                                                                     
7PESE                                                                                000000000030000                            
50001810201209132012091402410524363632       PES0000033000A047502012091313460026                                                
6024600033000122580241052436363200000000016                                                                                     
7PESE                                                                                000000000033000                            
50001910201209132012091400722620928703       PES0000035000A081842012091312190115                                                
6024600035000122640072262092870300025000057                                                                                     
7PESE                                                                                000000000035000                            
50002010201209132012091401320521480733       PES0000045000A091812012091311190126                                                
6024600045000122580132052148073300050000042                                                                                     
7PESE                                                                                000000000045000                            
50002110201209132012091401320329033473       PES0000045000A095862012091319560003                                                
6024600045000122600132032903347300050000384                                                                                     
7PESE                                                                                000000000045000                            
50002210201209132012091401320424835454       PES0000045000A068892012091310540047                                                
6024600045000122600132042483545400050000363                                                                                     
7PESE                                                                                000000000045000                            
50002310201209132012091401320521416917       PES0000045000A061432012091317030084                                                
6024600045000122600132052141691700050000458                                                                                     
7PESE                                                                                000000000045000                            
50002410201209132012091401320617208037       PES0000045000A103902012091312100119                                                
6024600045000122600132061720803700050000321                                                                                     
7PESE                                                                                000000000045000                            
50002510201209132012091401321330526676       PES0000045000A095862012091319560004                                                
6024600045000122600132133052667600050000342                                                                                     
7PESE                                                                                000000000045000                            
50002610201209132012091401321522920329       PES0000045000A081782012091312290173                                                
6024600045000122600132152292032900050000400                                                                                     
7PESE                                                                                000000000045000                            
50002710201209132012091401322216415519       PES0000045000M620042012091310280047                                                
6024600045000122600132221641551900050000136                                                                                     
7PESE                                                                                000000000045000                            
50002810201209132012091401322227803247       PES0000045000M620062012091310050013                                                
6024600045000122600132222780324700050000137                                                                                     
7PESE                                                                                000000000045000                            
50002910201209132012091400720616387168       PES0000046500D000132012091311230124                                                
6024600046500122640072061638716800010000084                                                                                     
7PESE                                                                                000000000046500                            
82012091400000100000290000009695000000000000000000000000000000000000000000029                                                   
9201209140000010000029000000969500000000000000000000000000000000000000000000029                                                 
