120111115PAGO FACIL               090060246FABIAN NORBERTO D´ERAMO                                                              
320111115000001FABIAN NORBERTO D´ERAMO                                                                                          
50000110201111142011111552000428808674       PES0000009000D000782011111416550115                                                
6024600009000113195200042880867400000000057                                                                                     
7PESE                                                                                000000000009000                            
50000210201111142011111552001627498389       PES0000009000A058512011111410300093                                                
6024600009000113225200162749838900000000063                                                                                     
7PESE                                                                                000000000009000                            
50000310201111142011111552001627498389       PES0000009000A058512011111410300092                                                
6024600009000113225200162749838900000000063                                                                                     
7PESE                                                                                000000000009000                            
50000410201111142011111552001917838475       PES0000009000A069702011111416340020                                                
6024600009000113225200191783847500000000042                                                                                     
7PESE                                                                                000000000009000                            
50000510201111142011111529060316607839       PES0000010000A051312011111411350272                                                
6024600010000113222906031660783900030000016                                                                                     
7PESE                                                                                000000000010000                            
50000610201111142011111529060318549893       PES0000010000A051312011111411350273                                                
6024600010000113222906031854989300030000000                                                                                     
7PESE                                                                                000000000010000                            
50000710201111142011111546070122762187       PES0000020000A034672011111413260247                                                
6024600020000113234607012276218700060000079                                                                                     
7PESE                                                                                000000000020000                            
50000810201111142011111500573441073135       PES0000022000D000502011111415250331                                                
6024600022000113180057344107313500000000042                                                                                     
7PESE                                                                                000000000022000                            
50000910201111142011111500575230565933       PES0000022000A099222011111417480227                                                
6024600022000113180057523056593300000000079                                                                                     
7PESE                                                                                000000000022000                            
50001010201111142011111500571913214021       PES0000022000A079552011111409110057                                                
6024600022000113190057191321402100000000021                                                                                     
7PESE                                                                                000000000022000                            
50001110201111142011111500571817378453       PES0000022000A091692011111411320126                                                
6024600022000113230057181737845300000000021                                                                                     
7PESE                                                                                000000000022000                            
50001210201111142011111500572716387168       PES0000022000A091692011111411320125                                                
6024600022000113230057271638716800000000063                                                                                     
7PESE                                                                                000000000022000                            
50001310201111142011111500585422836625       PES0000022500M601242011111412000008                                                
6024600022500113220058542283662500025000090                                                                                     
7PESE                                                                                000000000022500                            
50001410201111142011111500585236825561       PES0000022500A025832011111414330004                                                
6024600022500113250058523682556100025000057                                                                                     
7PESE                                                                                000000000022500                            
50001510201111142011111501290331158894       PES0000037000A092062011111416580704                                                
6024600037000113180129033115889400000000036                                                                                     
7PESE                                                                                000000000037000                            
50001610201111142011111501290331500174       PES0000037000A601492011111412440134                                                
6024600037000113180129033150017400000000042                                                                                     
7PESE                                                                                000000000037000                            
50001710201111142011111501290332362416       PES0000037000A109842011111416510154                                                
6024600037000113180129033236241600000000078                                                                                     
7PESE                                                                                000000000037000                            
50001810201111142011111501290426842535       PES0000037000M620412011111416360034                                                
6024600037000113180129042684253500000000016                                                                                     
7PESE                                                                                000000000037000                            
50001910201111142011111501290428369628       PES0000037000A075362011111416130186                                                
6024600037000113180129042836962800000000036                                                                                     
7PESE                                                                                000000000037000                            
50002010201111142011111501290428532819       PES0000037000A104702011111418370139                                                
6024600037000113180129042853281900000000042                                                                                     
7PESE                                                                                000000000037000                            
50002110201111142011111501290428696635       PES0000037000A040722011111415520374                                                
6024600037000113180129042869663500000000084                                                                                     
7PESE                                                                                000000000037000                            
50002210201111142011111501290429033473       PES0000037000A095862011111418140042                                                
6024600037000113180129042903347300000000000                                                                                     
7PESE                                                                                000000000037000                            
50002310201111142011111501290429083596       PES0000037000A068912011111416340029                                                
6024600037000113180129042908359600000000084                                                                                     
7PESE                                                                                000000000037000                            
50002410201111142011111501290523569010       PES0000037000A085662011111416040254                                                
6024600037000113180129052356901000000000079                                                                                     
7PESE                                                                                000000000037000                            
50002510201111142011111501290523903579       PES0000037000A092162011111413550234                                                
6024600037000113180129052390357900000000016                                                                                     
7PESE                                                                                000000000037000                            
50002610201111142011111501290524312341       PES0000037000A024182011111414170042                                                
6024600037000113180129052431234100000000021                                                                                     
7PESE                                                                                000000000037000                            
50002710201111142011111501290618131371       PES0000037000A077392011111418400252                                                
6024600037000113180129061813137100000000021                                                                                     
7PESE                                                                                000000000037000                            
50002810201111142011111501290620636671       PES0000037000A091692011111412390186                                                
6024600037000113180129062063667100000000084                                                                                     
7PESE                                                                                000000000037000                            
50002910201111142011111501290629827280       PES0000037000A086652011111412130052                                                
6024600037000113180129062982728000000000042                                                                                     
7PESE                                                                                000000000037000                            
50003010201111142011111501290716639100       PES0000037000M600742011111411320114                                                
6024600037000113180129071663910000000000090                                                                                     
7PESE                                                                                000000000037000                            
50003110201111142011111501290717255827       PES0000037000A091692011111416200052                                                
6024600037000113180129071725582700000000015                                                                                     
7PESE                                                                                000000000037000                            
50003210201111142011111501290814371454       PES0000037000A037752011111411180149                                                
6024600037000113180129081437145400000000016                                                                                     
7PESE                                                                                000000000037000                            
50003310201111142011111501290814446969       PES0000037000A092142011111412300227                                                
6024600037000113180129081444696900000000090                                                                                     
7PESE                                                                                000000000037000                            
50003410201111142011111501290911224248       PES0000037000A069092011111411520175                                                
6024600037000113180129091122424800000000063                                                                                     
7PESE                                                                                000000000037000                            
50003510201111142011111501291006149625       PES0000037000A048412011111416310250                                                
6024600037000113180129100614962500000000036                                                                                     
7PESE                                                                                000000000037000                            
50003610201111142011111501291624546392       PES0000037000A104702011111418580144                                                
6024600037000113180129162454639200000000015                                                                                     
7PESE                                                                                000000000037000                            
50003710201111142011111501291721710377       PES0000037000A028382011111410550103                                                
6024600037000113180129172171037700000000042                                                                                     
7PESE                                                                                000000000037000                            
50003810201111142011111501291721845007       PES0000037000A104702011111418580145                                                
6024600037000113180129172184500700000000063                                                                                     
7PESE                                                                                000000000037000                            
50003910201111142011111599030233017000       PES0000038500A090542011111412450119                                                
6024600038500113199903023301700000025000515                                                                                     
7PESE                                                                                000000000038500                            
50004010201111142011111501301429405808       PES0000040000A069132011111413270271                                                
6024600040000113210130142940580800000000042                                                                                     
7PESE                                                                                000000000040000                            
50004110201111142011111501301720256945       PES0000040000A044742011111411200021                                                
6024600040000113210130172025694500000000079                                                                                     
7PESE                                                                                000000000040000                            
50004210201111142011111501301722294539       PES0000040000A096182011111416090132                                                
6024600040000113210130172229453900000000000                                                                                     
7PESE                                                                                000000000040000                            
50004310201111142011111501301816976109       PES0000040000A033762011111414020274                                                
6024600040000113210130181697610900000000078                                                                                     
7PESE                                                                                000000000040000                            
50004410201111142011111501301917901826       PES0000040000A062492011111415160005                                                
6024600040000113210130191790182600000000063                                                                                     
7PESE                                                                                000000000040000                            
50004510201111142011111501300426312302       PES0000040000A100002011111411400125                                                
6024600040000113220130042631230200000000078                                                                                     
7PESE                                                                                000000000040000                            
50004610201111142011111501301526194526       PES0000040000A079502011111414100162                                                
6024600040000113220130152619452600000000078                                                                                     
7PESE                                                                                000000000040000                            
50004710201111142011111501301623127211       PES0000040000M601622011111416300238                                                
6024600040000113220130162312721100000000016                                                                                     
7PESE                                                                                000000000040000                            
50004810201111142011111501301623134771       PES0000040000A079712011111418360129                                                
6024600040000113220130162313477100000000057                                                                                     
7PESE                                                                                000000000040000                            
50004910201111142011111501301722401387       PES0000040000M601282011111410240016                                                
6024600040000113220130172240138700000000084                                                                                     
7PESE                                                                                000000000040000                            
50005010201111142011111501301817684750       PES0000040000A601902011111412230009                                                
6024600040000113220130181768475000000000099                                                                                     
7PESE                                                                                000000000040000                            
50005110201111142011111501301720747155       PES0000040000A094512011111417410121                                                
6024600040000113230130172074715500000000000                                                                                     
7PESE                                                                                000000000040000                            
50005210201111142011111501302011224248       PES0000040000A069092011111411520176                                                
6024600040000113230130201122424800000000036                                                                                     
7PESE                                                                                000000000040000                            
50005310201111142011111501301431280781       PES0000040000M601152011111411340016                                                
6024600040000113240130143128078100000000057                                                                                     
7PESE                                                                                000000000040000                            
50005410201111142011111501301816680116       PES0000040000A106722011111413030090                                                
6024600040000113240130181668011600000000016                                                                                     
7PESE                                                                                000000000040000                            
50005510201111142011111501301336089355       PES0000040000A104662011111413080176                                                
6024600040000113250130133608935500000000058                                                                                     
7PESE                                                                                000000000040000                            
50005610201111142011111501301336405575       PES0000040000M601282011111410360023                                                
6024600040000113250130133640557500000000090                                                                                     
7PESE                                                                                000000000040000                            
50005710201111142011111501301431171238       PES0000040000A104662011111413090177                                                
6024600040000113250130143117123800000000063                                                                                     
7PESE                                                                                000000000040000                            
50005810201111142011111501301624770336       PES0000040000A104342011111411270092                                                
6024600040000113250130162477033600000000063                                                                                     
7PESE                                                                                000000000040000                            
50005910201111142011111501301721080930       PES0000040000M601622011111416300239                                                
6024600040000113250130172108093000000000090                                                                                     
7PESE                                                                                000000000040000                            
50006010201111142011111501301816768842       PES0000040000A109842011111418000202                                                
6024600040000113250130181676884200000000063                                                                                     
7PESE                                                                                000000000040000                            
82011111500000100000600000019975000000000000000000000000000000000000000000060                                                   
9201111150000010000060000001997500000000000000000000000000000000000000000000060                                                 
