120120615PAGO FACIL               090060246FABIAN NORBERTO D´ERAMO                                                              
320120615000001FABIAN NORBERTO D´ERAMO                                                                                          
50000110201206142012061557000321132529       PES0000012000A103902012061419290254                                                
6024600012000121675700032113252900010000600                                                                                     
7PESE                                                                                000000000012000                            
50000210201206142012061502371525678179       PES0000020000A078732012061417560066                                                
6024600020000121670237152567817900000000063                                                                                     
7PESE                                                                                000000000020000                            
50000310201206142012061502373437229430       PES0000020000A076112012061417490030                                                
6024600020000121670237343722943000000000099                                                                                     
7PESE                                                                                000000000020000                            
50000410201206142012061502374113140445       PES0000020000A085922012061418290185                                                
6024600020000121670237411314044500000000042                                                                                     
7PESE                                                                                000000000020000                            
50000510201206142012061502370717684750       PES0000030000A110612012061416470005                                                
6024600030000121670237071768475000000000084                                                                                     
7PESE                                                                                000000000030000                            
50000610201206142012061599030237276542       PES0000046500A043162012061411210095                                                
6024600043000121599903023727654200035000700                                                                                     
7PESE                                                                                000000000046500                            
50000710201206142012061599030133380040       PES0000046500A036692012061417100092                                                
6024600046500121679903013338004000025000657                                                                                     
7PESE                                                                                000000000046500                            
50000810201206142012061599030134929847       PES0000046500A076812012061413440193                                                
6024600046500121679903013492984700025000416                                                                                     
7PESE                                                                                000000000046500                            
82012061500000100000080000002415000000000000000000000000000000000000000000008                                                   
9201206150000010000008000000241500000000000000000000000000000000000000000000008                                                 
