120110615PAGO FACIL               090060246FABIAN NORBERTO D´ERAMO                                                              
320110615000001FABIAN NORBERTO D´ERAMO                                                                                          
50000110201106142011061518300331477215       PES0000015000D000752011061413150056                                                
6024600015000111691830033147721500040000363                                                                                     
7PESE                                                                                000000000015000                            
50000210201106142011061518300428751302       PES0000015000A091992011061410510050                                                
6024600015000111691830042875130200040000278                                                                                     
7PESE                                                                                000000000015000                            
50000310201106142011061518300620586087       PES0000015000A012652011061414580280                                                
6024600015000111691830062058608700040000299                                                                                     
7PESE                                                                                000000000015000                            
50000410201106142011061517020813274177       PES0000016000A066952011061407420005                                                
6024600016000111701702081327417700040000090                                                                                     
7PESE                                                                                000000000016000                            
50000510201106142011061517020912328564       PES0000016000L071152011061409525346                                                
6024600016000111711702091232856400040000042                                                                                     
7PESE                                                                                000000000016000                            
50000610201106142011061502291325615310       PES0000021500A048412011061416280202                                                
6024600021500111660229132561531000030000636                                                                                     
7PESE                                                                                000000000021500                            
50000710201106142011061599030135185722       PES0000031000A095862011061418440070                                                
6024600031000111669903013518572200020000516                                                                                     
7PESE                                                                                000000000031000                            
50000810201106142011061599030233528113       PES0000038500A097662011061412590071                                                
6024600038500111669903023352811300025000578                                                                                     
7PESE                                                                                000000000038500                            
50000910201106142011061599030233896263       PES0000038500A097662011061413000072                                                
6024600038500111669903023389626300025000063                                                                                     
7PESE                                                                                000000000038500                            
82011061500000100000090000002065000000000000000000000000000000000000000000009                                                   
9201106150000010000009000000206500000000000000000000000000000000000000000000009                                                 
