120111216PAGO FACIL               090060246FABIAN NORBERTO D´ERAMO                                                              
320111216000001FABIAN NORBERTO D´ERAMO                                                                                          
50000110201112152011121600612813763936       PES0000012000A020992011121418240282                                                
6024600012000113540061281376393600020000021                                                                                     
7PESE                                                                                000000000012000                            
50000210201112152011121600612522962788       PES0000012000A091032011121514400002                                                
6024600012000113540061252296278800020000063                                                                                     
7PESE                                                                                000000000012000                            
50000310201112152011121600612426196454       PES0000012000A044382011121515250174                                                
6024600012000113550061242619645400020000084                                                                                     
7PESE                                                                                000000000012000                            
50000410201112152011121600610524861732       PES0000012000A051222011121510360080                                                
6024600012000113560061052486173200020000042                                                                                     
7PESE                                                                                000000000012000                            
50000510201112152011121600581624343449       PES0000012500A620782011121510060005                                                
6024600012500113520058162434344900000000000                                                                                     
7PESE                                                                                000000000012500                            
50000610201112152011121629060316214121       PES0000013000M620732011121512320145                                                
6024600013000113492906031621412100000000099                                                                                     
7PESE                                                                                000000000013000                            
50000710201112152011121629060728984846       PES0000013000A093422011121517120072                                                
6024600013000113522906072898484600000000084                                                                                     
7PESE                                                                                000000000013000                            
50000810201112152011121629060412300246       PES0000013000A093422011121517120073                                                
6024600013000113542906041230024600000000090                                                                                     
7PESE                                                                                000000000013000                            
50000910201112152011121629060322342163       PES0000013000A030942011121511190103                                                
6024600013000113552906032234216300000000036                                                                                     
7PESE                                                                                000000000013000                            
50001010201112152011121629060727833526       PES0000013000A030942011121511190104                                                
6024600013000113562906072783352600000000084                                                                                     
7PESE                                                                                000000000013000                            
50001110201112152011121600600714431708       PES0000019000A023702011121511180173                                                
6024600019000113560060071443170800060000090                                                                                     
7PESE                                                                                000000000019000                            
50001210201112152011121600582620019018       PES0000025000A105252011121518560001                                                
6024600025000113490058262001901800000000058                                                                                     
7PESE                                                                                000000000025000                            
50001310201112152011121600581816247042       PES0000025000A042102011121518210093                                                
6024600025000113520058181624704200000000079                                                                                     
7PESE                                                                                000000000025000                            
50001410201112152011121600582426196454       PES0000025000A044382011121515250173                                                
6024600025000113520058242619645400000000042                                                                                     
7PESE                                                                                000000000025000                            
50001510201112152011121600582618108182       PES0000025000A077792011121510320017                                                
6024600025000113520058261810818200000000058                                                                                     
7PESE                                                                                000000000025000                            
50001610201112152011121600582812639378       PES0000025000A107722011121516410055                                                
6024600025000113520058281263937800000000042                                                                                     
7PESE                                                                                000000000025000                            
50001710201112152011121600582911849493       PES0000025000A100712011121515340069                                                
6024600025000113520058291184949300000000036                                                                                     
7PESE                                                                                000000000025000                            
50001810201112152011121600584424546903       PES0000025000A108442011121517040012                                                
6024600025000113520058442454690300000000042                                                                                     
7PESE                                                                                000000000025000                            
50001910201112152011121699030227340271       PES0000038500A085232011121514230045                                                
6024600038500113499903022734027100025000721                                                                                     
7PESE                                                                                000000000038500                            
50002010201112152011121699030230219518       PES0000038500A097712011121519000217                                                
6024600038500113499903023021951800025000484                                                                                     
7PESE                                                                                000000000038500                            
50002110201112152011121699030233896263       PES0000038500A024182011121517460194                                                
6024600038500113499903023389626300025000721                                                                                     
7PESE                                                                                000000000038500                            
50002210201112152011121699030234142652       PES0000038500A057612011121517230188                                                
6024600038500113499903023414265200025000600                                                                                     
7PESE                                                                                000000000038500                            
50002310201112152011121699030234750212       PES0000038500A043472011121520110269                                                
6024600038500113499903023475021200025000742                                                                                     
7PESE                                                                                000000000038500                            
50002410201112152011121699030235359341       PES0000038500A601562011121515240077                                                
6024600038500113499903023535934100025000542                                                                                     
7PESE                                                                                000000000038500                            
50002510201112152011121623060324956263       PES0000076800A074762011121511000044                                                
6024600076800113492306032495626300192000436                                                                                     
7PESE                                                                                000000000076800                            
50002610201112152011121623060422507422       PES0000076800A082002011121512190050                                                
6024600076800113492306042250742200192000699                                                                                     
7PESE                                                                                000000000076800                            
50002710201112152011121623060730050632       PES0000076800A059362011121511030085                                                
6024600076800113492306073005063200192000457                                                                                     
7PESE                                                                                000000000076800                            
50002810201112152011121623060324525724       PES0000076800A042062011121515520088                                                
6024600076800113562306032452572400192000015                                                                                     
7PESE                                                                                000000000076800                            
50002910201112152011121623060420956862       PES0000076800A090052011121511040095                                                
6024600076800113562306042095686200192000084                                                                                     
7PESE                                                                                000000000076800                            
50003010201112152011121623061118541500       PES0000085400D000562011121514420038                                                
6024600085400113492306111854150000234000557                                                                                     
7PESE                                                                                000000000085400                            
50003110201112152011121623061235421408       PES0000085400A084122011121518250124                                                
6024600085400113492306123542140800234000463                                                                                     
7PESE                                                                                000000000085400                            
50003210201112152011121623061325094258       PES0000085400A107862011121511430018                                                
6024600085400113492306132509425800234000590                                                                                     
7PESE                                                                                000000000085400                            
50003310201112152011121623061614062772       PES0000085400A104062011121509420001                                                
6024600085400113492306161406277200234000684                                                                                     
7PESE                                                                                000000000085400                            
50003410201112152011121623061617318837       PES0000085400A085372011121512240134                                                
6024600085400113492306161731883700234000790                                                                                     
7PESE                                                                                000000000085400                            
50003510201112152011121623061927089979       PES0000085400A033472011121517100030                                                
6024600085400113492306192708997900234000421                                                                                     
7PESE                                                                                000000000085400                            
50003610201112152011121623061931164884       PES0000085400A085372011121512240135                                                
6024600085400113492306193116488400234000721                                                                                     
7PESE                                                                                000000000085400                            
50003710201112152011121623061331151560       PES0000085400A077902011121511400177                                                
6024600085400113562306133115156000234000037                                                                                     
7PESE                                                                                000000000085400                            
50003810201112152011121623061518559482       PES0000085400A055202011121514400279                                                
6024600085400113562306151855948200234000000                                                                                     
7PESE                                                                                000000000085400                            
50003910201112152011121623061834248292       PES0000085400A095852011121516160110                                                
6024600085400113562306183424829200234000099                                                                                     
7PESE                                                                                000000000085400                            
82011121600000100000390000017885000000000000000000000000000000000000000000039                                                   
9201112160000010000039000001788500000000000000000000000000000000000000000000039                                                 
