120130116PAGO FACIL               090060246FABIAN NORBERTO D´ERAMO                                                              
320130116000001FABIAN NORBERTO D´ERAMO                                                                                          
50000110201301152013011673010823677823       PES0000010000A078662013011418410108                                                
6024600010000130207301082367782300020000099                                                                                     
7PESE                                                                                000000000010000                            
50000210201301152013011601341425114997       PES0000135000A081392013011420280111                                                
6024600135000130210134142511499700150000058                                                                                     
7PESE                                                                                000000000135000                            
50000310201301152013011673011330144917       PES0000008000A115462013011520060269                                                
6024600008000130177301133014491700020000063                                                                                     
7PESE                                                                                000000000008000                            
50000410201301152013011673010727172187       PES0000010000A115462013011520060268                                                
6024600010000130177301072717218700020000057                                                                                     
7PESE                                                                                000000000010000                            
50000510201301152013011669020231238926       PES0000010000A054522013011519590117                                                
6024600010000130186902023123892600000000037                                                                                     
7PESE                                                                                000000000010000                            
50000610201301152013011669021329374774       PES0000010000A065852013011518440102                                                
6024600010000130186902132937477400000000015                                                                                     
7PESE                                                                                000000000010000                            
50000710201301152013011629090131160405       PES0000015000D001632013011514440432                                                
6024600015000130222909013116040500000000058                                                                                     
7PESE                                                                                000000000015000                            
50000810201301152013011629090225487693       PES0000015000A064852013011513120280                                                
6024600015000130222909022548769300000000042                                                                                     
7PESE                                                                                000000000015000                            
50000910201301152013011629090226524137       PES0000015000A059362013011509260097                                                
6024600015000130222909022652413700000000036                                                                                     
7PESE                                                                                000000000015000                            
50001010201301152013011629090322622544       PES0000015000M601622013011513240234                                                
6024600015000130222909032262254400000000042                                                                                     
7PESE                                                                                000000000015000                            
50001110201301152013011629090416434433       PES0000015000A064852013011513120279                                                
6024600015000130222909041643443300000000099                                                                                     
7PESE                                                                                000000000015000                            
50001210201301152013011629090914059144       PES0000015000A092102013011516190269                                                
6024600015000130222909091405914400000000090                                                                                     
7PESE                                                                                000000000015000                            
50001310201301152013011602432813140445       PES0000024000D001722013011518010305                                                
6024600024000130200243281314044500060000000                                                                                     
7PESE                                                                                000000000024000                            
50001410201301152013011602433422129599       PES0000024000A601492013011511390386                                                
6024600024000130200243342212959900060000263                                                                                     
7PESE                                                                                000000000024000                            
50001510201301152013011629091224151008       PES0000025000A090422013011515280003                                                
6024600025000130222909122415100800000000037                                                                                     
7PESE                                                                                000000000025000                            
50001610201301152013011629091229631683       PES0000025000A090422013011515270002                                                
6024600025000130222909122963168300000000057                                                                                     
7PESE                                                                                000000000025000                            
50001710201301152013011602430425171358       PES0000035000A097932013011513410103                                                
6024600035000130200243042517135800050000284                                                                                     
7PESE                                                                                000000000035000                            
50001810201301152013011602430521442955       PES0000035000A601492013011511400387                                                
6024600035000130200243052144295500050000221                                                                                     
7PESE                                                                                000000000035000                            
50001910201301152013011699030128879956       PES0000051000A090962013011515250215                                                
6024600051000130159903012887995600025000637                                                                                     
7PESE                                                                                000000000051000                            
50002010201301152013011699030135804671       PES0000051000A119992013011518110223                                                
6024600051000130159903013580467100025000042                                                                                     
7PESE                                                                                000000000051000                            
50002110201301152013011601341423289675       PES0000135000A100022013011513480060                                                
6024600135000130170134142328967500150000057                                                                                     
7PESE                                                                                000000000135000                            
50002210201301152013011601341426380078       PES0000135000A085662013011509060008                                                
6024600135000130180134142638007800150000037                                                                                     
7PESE                                                                                000000000135000                            
50002310201301152013011601341231601334       PES0000135000A011012013011510400081                                                
6024600135000130210134123160133400150000078                                                                                     
7PESE                                                                                000000000135000                            
50002410201301152013011601341426194526       PES0000135000A034162013011520000028                                                
6024600135000130220134142619452600150000037                                                                                     
7PESE                                                                                000000000135000                            
82013011600000100000240000010830000000000000000000000000000000000000000000024                                                   
9201301160000010000024000001083000000000000000000000000000000000000000000000024                                                 
