120120816PAGO FACIL               090060246FABIAN NORBERTO D´ERAMO                                                              
320120816000001FABIAN NORBERTO D´ERAMO                                                                                          
50000110201208152012081601320812290660       PES0000045000A088612012081411480133                                                
6024600045000122300132081229066000050000021                                                                                     
7PESE                                                                                000000000045000                            
50000210201208152012081602393437844632       PES0000023000A116832012081414360001                                                
6024600020000122230239343784463200030000679                                                                                     
7PESE                                                                                000000000023000                            
50000310201208152012081600710829550684       PES0000023500A098582012081416190116                                                
6024600023500122300071082955068400055000000                                                                                     
7PESE                                                                                000000000023500                            
50000410201208152012081659001223809486       PES0000016000A620432012081511000005                                                
6024600016000122285900122380948600000000058                                                                                     
7PESE                                                                                000000000016000                            
50000510201208152012081659001321533344       PES0000016000A620432012081510590004                                                
6024600016000122285900132153334400000000058                                                                                     
7PESE                                                                                000000000016000                            
50000610201208152012081659000324740264       PES0000016000A097042012081518140066                                                
6024600016000122295900032474026400000000058                                                                                     
7PESE                                                                                000000000016000                            
50000710201208152012081659001029451541       PES0000016000A620432012081510590003                                                
6024600016000122295900102945154100000000063                                                                                     
7PESE                                                                                000000000016000                            
50000810201208152012081659001127056265       PES0000016000A097042012081518140065                                                
6024600016000122295900112705626500000000015                                                                                     
7PESE                                                                                000000000016000                            
50000910201208152012081659000322953266       PES0000016000A093442012081519540241                                                
6024600016000122345900032295326600000000084                                                                                     
7PESE                                                                                000000000016000                            
50001010201208152012081659000323186189       PES0000016000L070222012081519068375                                                
6024600016000122345900032318618900000000057                                                                                     
7PESE                                                                                000000000016000                            
50001110201208152012081659000421450286       PES0000016000A620432012081511000006                                                
6024600016000122345900042145028600000000016                                                                                     
7PESE                                                                                000000000016000                            
50001210201208152012081659000422556030       PES0000016000A100022012081516390169                                                
6024600016000122345900042255603000000000078                                                                                     
7PESE                                                                                000000000016000                            
50001310201208152012081659000517935203       PES0000016000A620442012081511510033                                                
6024600016000122345900051793520300000000084                                                                                     
7PESE                                                                                000000000016000                            
50001410201208152012081659000518002228       PES0000016000A097042012081510170033                                                
6024600016000122345900051800222800000000063                                                                                     
7PESE                                                                                000000000016000                            
50001510201208152012081659001126457698       PES0000016000A093442012081519540242                                                
6024600016000122345900112645769800000000078                                                                                     
7PESE                                                                                000000000016000                            
50001610201208152012081600713442681097       PES0000023500A091782012081515190433                                                
6024600023500122280071344268109700055000079                                                                                     
7PESE                                                                                000000000023500                            
50001710201208152012081600713728168900       PES0000023500A078732012081511060059                                                
6024600023500122280071372816890000055000063                                                                                     
7PESE                                                                                000000000023500                            
50001810201208152012081600713729871797       PES0000023500A078732012081511060058                                                
6024600023500122280071372987179700055000016                                                                                     
7PESE                                                                                000000000023500                            
50001910201208152012081600712331096624       PES0000023500A082002012081509440008                                                
6024600023500122300071233109662400055000036                                                                                     
7PESE                                                                                000000000023500                            
50002010201208152012081600714329144535       PES0000023500A103302012081517360075                                                
6024600023500122300071432914453500055000000                                                                                     
7PESE                                                                                000000000023500                            
50002110201208152012081600710827733501       PES0000023500A111862012081513050008                                                
6024600023500122330071082773350100055000090                                                                                     
7PESE                                                                                000000000023500                            
50002210201208152012081600712428504852       PES0000023500A080682012081512070065                                                
6024600023500122340071242850485200055000084                                                                                     
7PESE                                                                                000000000023500                            
50002310201208152012081600712526255939       PES0000023500A103302012081511190036                                                
6024600023500122340071252625593900055000021                                                                                     
7PESE                                                                                000000000023500                            
50002410201208152012081600712622549011       PES0000023500A085182012081519110165                                                
6024600023500122340071262254901100055000099                                                                                     
7PESE                                                                                000000000023500                            
50002510201208152012081600712621582953       PES0000023500A106072012081517240058                                                
6024600023500122350071262158295300055000063                                                                                     
7PESE                                                                                000000000023500                            
50002610201208152012081600712717307904       PES0000023500A044492012081511460212                                                
6024600023500122350071271730790400055000016                                                                                     
7PESE                                                                                000000000023500                            
50002710201208152012081600713538943199       PES0000023500L020012012081511160051                                                
6024600023500122350071353894319900055000042                                                                                     
7PESE                                                                                000000000023500                            
50002810201208152012081600540336352229       PES0000026000A116102012081516310035                                                
6024600026000122290054033635222900010000090                                                                                     
7PESE                                                                                000000000026000                            
50002910201208152012081600540332769266       PES0000026000A064992012081517130317                                                
6024600026000122330054033276926600010000136                                                                                     
7PESE                                                                                000000000026000                            
50003010201208152012081600540333597989       PES0000026000A085512012081517140240                                                
6024600026000122330054033359798900010000178                                                                                     
7PESE                                                                                000000000026000                            
50003110201208152012081699040131660367       PES0000030500A112842012081514190139                                                
6024600030500122289904013166036700015000036                                                                                     
7PESE                                                                                000000000030500                            
50003210201208152012081699040132166545       PES0000030500A094382012081509040005                                                
6024600030500122289904013216654500015000321                                                                                     
7PESE                                                                                000000000030500                            
50003310201208152012081699040136087988       PES0000030500M601132012081511330064                                                
6024600030500122289904013608798800015000690                                                                                     
7PESE                                                                                000000000030500                            
50003410201208152012081659002223159164       PES0000032000A047422012081518290153                                                
6024600032000122345900222315916400000000021                                                                                     
7PESE                                                                                000000000032000                            
50003510201208152012081600720425264786       PES0000042000A070632012081508460007                                                
6024600042000122300072042526478600045000015                                                                                     
7PESE                                                                                000000000042000                            
50003610201208152012081600720714597771       PES0000042000A116342012081511140142                                                
6024600042000122340072071459777100045000078                                                                                     
7PESE                                                                                000000000042000                            
50003710201208152012081601320713988059       PES0000045000L070562012081515315775                                                
6024600045000122290132071398805900050000015                                                                                     
7PESE                                                                                000000000045000                            
50003810201208152012081601320425264786       PES0000045000A070632012081508460008                                                
6024600045000122300132042526478600050000084                                                                                     
7PESE                                                                                000000000045000                            
50003910201208152012081601320618531499       PES0000045000L070532012081517336719                                                
6024600045000122300132061853149900050000057                                                                                     
7PESE                                                                                000000000045000                            
50004010201208152012081601322521433702       PES0000045000M620032012081517160232                                                
6024600045000122300132252143370200050000058                                                                                     
7PESE                                                                                000000000045000                            
50004110201208152012081601321522292797       PES0000045000M620062012081517200054                                                
6024600045000122310132152229279700050000079                                                                                     
7PESE                                                                                000000000045000                            
50004210201208152012081601322223771341       PES0000045000A090542012081514480005                                                
6024600045000122320132222377134100050000099                                                                                     
7PESE                                                                                000000000045000                            
50004310201208152012081601320328663196       PES0000045000L070682012081519353145                                                
6024600045000122330132032866319600050000090                                                                                     
7PESE                                                                                000000000045000                            
50004410201208152012081601320328698515       PES0000045000A043992012081514300109                                                
6024600045000122330132032869851500050000084                                                                                     
7PESE                                                                                000000000045000                            
50004510201208152012081601320425029685       PES0000045000A601832012081510540014                                                
6024600045000122330132042502968500050000099                                                                                     
7PESE                                                                                000000000045000                            
50004610201208152012081601320425601620       PES0000045000A092082012081514090069                                                
6024600045000122330132042560162000050000037                                                                                     
7PESE                                                                                000000000045000                            
50004710201208152012081601320327729078       PES0000045000A024432012081512300023                                                
6024600045000122340132032772907800050000090                                                                                     
7PESE                                                                                000000000045000                            
50004810201208152012081601320522840735       PES0000045000A104702012081519310181                                                
6024600045000122340132052284073500050000057                                                                                     
7PESE                                                                                000000000045000                            
50004910201208152012081601320616415342       PES0000045000L070562012081516195781                                                
6024600045000122340132061641534200050000021                                                                                     
7PESE                                                                                000000000045000                            
50005010201208152012081601322220771950       PES0000045000A084192012081510480060                                                
6024600045000122340132222077195000050000000                                                                                     
7PESE                                                                                000000000045000                            
50005110201208152012081699030129317503       PES0000046500A081582012081517010158                                                
6024600046500122289903012931750300025000621                                                                                     
7PESE                                                                                000000000046500                            
50005210201208152012081699030132769266       PES0000046500A064992012081517130316                                                
6024600046500122289903013276926600025000299                                                                                     
7PESE                                                                                000000000046500                            
50005310201208152012081699030133204730       PES0000046500A073822012081512080031                                                
6024600046500122289903013320473000025000437                                                                                     
7PESE                                                                                000000000046500                            
50005410201208152012081699030133597989       PES0000046500A085512012081517140239                                                
6024600046500122289903013359798900025000678                                                                                     
7PESE                                                                                000000000046500                            
82012081600000100000540000016670000000000000000000000000000000000000000000054                                                   
9201208160000010000054000001667000000000000000000000000000000000000000000000054                                                 
