120110816PAGO FACIL               090060246FABIAN NORBERTO D´ERAMO                                                              
320110816000001FABIAN NORBERTO D´ERAMO                                                                                          
50000110201108152011081617020717523966       PES0000016000A046102011081216550039                                                
6024600016000112241702071752396600040000084                                                                                     
7PESE                                                                                000000000016000                            
50000210201108152011081601280616876845       PES0000034500M601122011081213570051                                                
6024600034500112270128061687684500000000058                                                                                     
7PESE                                                                                000000000034500                            
50000310201108152011081644012131328484       PES0000005000A097232011081518380068                                                
6024600005000112334401213132848400000000000                                                                                     
7PESE                                                                                000000000005000                            
50000410201108152011081644012131328484       PES0000005000A097232011081518380067                                                
6024600005000112334401213132848400000000000                                                                                     
7PESE                                                                                000000000005000                            
50000510201108152011081644012140863598       PES0000005000A097232011081518380066                                                
6024600005000112334401214086359800000000057                                                                                     
7PESE                                                                                000000000005000                            
50000610201108152011081600504740783647       PES0000007000A037062011081514140119                                                
6024600007000112280050474078364700015000063                                                                                     
7PESE                                                                                000000000007000                            
50000710201108152011081618311430526676       PES0000015000A085512011081518090068                                                
6024600015000112341831143052667600000000042                                                                                     
7PESE                                                                                000000000015000                            
50000810201108152011081617020814485510       PES0000016000A640242011081510120030                                                
6024600016000112281702081448551000040000058                                                                                     
7PESE                                                                                000000000016000                            
50000910201108152011081602301238842061       PES0000016500A059512011081519280234                                                
6024600016500112270230123884206100070000721                                                                                     
7PESE                                                                                000000000016500                            
50001010201108152011081602301818440757       PES0000016500A086882011081512510126                                                
6024600016500112270230181844075700070000699                                                                                     
7PESE                                                                                000000000016500                            
50001110201108152011081602302326284934       PES0000016500A045342011081519030182                                                
6024600016500112270230232628493400070000758                                                                                     
7PESE                                                                                000000000016500                            
50001210201108152011081602302416849795       PES0000016500A075232011081517540154                                                
6024600016500112270230241684979500070000737                                                                                     
7PESE                                                                                000000000016500                            
50001310201108152011081602302420947653       PES0000016500A059512011081519280235                                                
6024600016500112270230242094765300070000799                                                                                     
7PESE                                                                                000000000016500                            
50001410201108152011081602302512835164       PES0000016500A020792011081512340001                                                
6024600016500112270230251283516400070000642                                                                                     
7PESE                                                                                000000000016500                            
50001510201108152011081600540334142652       PES0000017500A057612011081517170068                                                
6024600017500112290054033414265200015000042                                                                                     
7PESE                                                                                000000000017500                            
50001610201108152011081600501418854877       PES0000019500D001462011081515040372                                                
6024600019500112270050141885487700050000084                                                                                     
7PESE                                                                                000000000019500                            
50001710201108152011081600501429342882       PES0000019500A024432011081515280051                                                
6024600019500112270050142934288200050000084                                                                                     
7PESE                                                                                000000000019500                            
50001810201108152011081600502137784599       PES0000019500A026372011081516590067                                                
6024600019500112280050213778459900050000000                                                                                     
7PESE                                                                                000000000019500                            
50001910201108152011081600502620757630       PES0000019500A096972011081515170288                                                
6024600019500112280050262075763000050000037                                                                                     
7PESE                                                                                000000000019500                            
50002010201108152011081600503732670317       PES0000019500D001462011081511470191                                                
6024600019500112280050373267031700050000000                                                                                     
7PESE                                                                                000000000019500                            
50002110201108152011081600504420024378       PES0000019500A037062011081514140118                                                
6024600019500112280050442002437800050000058                                                                                     
7PESE                                                                                000000000019500                            
50002210201108152011081600502426196454       PES0000019500L120102011081512011336                                                
6024600019500112290050242619645400050000016                                                                                     
7PESE                                                                                000000000019500                            
50002310201108152011081600502814575317       PES0000019500A063662011081512530271                                                
6024600019500112300050281457531700050000063                                                                                     
7PESE                                                                                000000000019500                            
50002410201108152011081600502911554504       PES0000019500A084922011081512280256                                                
6024600019500112310050291155450400050000016                                                                                     
7PESE                                                                                000000000019500                            
50002510201108152011081600503633074988       PES0000019500A097172011081520220118                                                
6024600019500112310050363307498800050000099                                                                                     
7PESE                                                                                000000000019500                            
50002610201108152011081600502332252880       PES0000019500A104282011081509380033                                                
6024600019500112320050233225288000050000063                                                                                     
7PESE                                                                                000000000019500                            
50002710201108152011081600534026477942       PES0000026000A026372011081517380093                                                
6024600026000112290053402647794200030000042                                                                                     
7PESE                                                                                000000000026000                            
50002810201108152011081600532818692832       PES0000026000A029812011081515530030                                                
6024600026000112340053281869283200030000021                                                                                     
7PESE                                                                                000000000026000                            
50002910201108152011081602300716738317       PES0000031500A620572011081510130013                                                
6024600031500112260230071673831700030000015                                                                                     
7PESE                                                                                000000000031500                            
50003010201108152011081602300137597042       PES0000031500A002372011081509340017                                                
6024600031500112270230013759704200030000600                                                                                     
7PESE                                                                                000000000031500                            
50003110201108152011081602300427180990       PES0000031500D000402011081515520022                                                
6024600031500112270230042718099000030000779                                                                                     
7PESE                                                                                000000000031500                            
50003210201108152011081602300523586565       PES0000031500D000162011081517250395                                                
6024600031500112270230052358656500030000799                                                                                     
7PESE                                                                                000000000031500                            
50003310201108152011081602300523767096       PES0000031500D000162011081517250396                                                
6024600031500112270230052376709600030000757                                                                                     
7PESE                                                                                000000000031500                            
50003410201108152011081602300524289312       PES0000031500A620572011081511220031                                                
6024600031500112270230052428931200030000316                                                                                     
7PESE                                                                                000000000031500                            
50003510201108152011081602300618223360       PES0000031500A059512011081519280233                                                
6024600031500112270230061822336000030000184                                                                                     
7PESE                                                                                000000000031500                            
50003610201108152011081602300814120801       PES0000031500A070822011081519300230                                                
6024600031500112270230081412080100030000700                                                                                     
7PESE                                                                                000000000031500                            
50003710201108152011081602300911297702       PES0000031500A081002011081512460267                                                
6024600031500112270230091129770200030000363                                                                                     
7PESE                                                                                000000000031500                            
50003810201108152011081601280422523795       PES0000034500A097042011081509060001                                                
6024600034500112270128042252379500000000016                                                                                     
7PESE                                                                                000000000034500                            
50003910201108152011081601281231637665       PES0000034500A102362011081519390202                                                
6024600034500112280128123163766500000000000                                                                                     
7PESE                                                                                000000000034500                            
50004010201108152011081600530327691267       PES0000035000M600242011081511180023                                                
6024600035000112300053032769126700035000015                                                                                     
7PESE                                                                                000000000035000                            
50004110201108152011081600530518287000       PES0000035000A048292011081517410037                                                
6024600035000112300053051828700000035000042                                                                                     
7PESE                                                                                000000000035000                            
50004210201108152011081601280810916069       PES0000036500A099192011081511560023                                                
6024600036500112280128081091606900000000000                                                                                     
7PESE                                                                                000000000036500                            
50004310201108152011081601280520332638       PES0000036500A620972011081511040008                                                
6024600036500112290128052033263800000000036                                                                                     
7PESE                                                                                000000000036500                            
50004410201108152011081601280521923226       PES0000036500D000132011081511270090                                                
6024600036500112300128052192322600000000063                                                                                     
7PESE                                                                                000000000036500                            
50004510201108152011081601280328391234       PES0000036500L070092011081509114162                                                
6024600036500112330128032839123400000000042                                                                                     
7PESE                                                                                000000000036500                            
50004610201108152011081601280423198520       PES0000036500A092132011081512010158                                                
6024600036500112330128042319852000000000079                                                                                     
7PESE                                                                                000000000036500                            
50004710201108152011081601280616525485       PES0000036500A086982011081514510048                                                
6024600036500112330128061652548500000000079                                                                                     
7PESE                                                                                000000000036500                            
50004810201108152011081601280228969920       PES0000036500A055102011081511280043                                                
6024600036500112340128022896992000000000058                                                                                     
7PESE                                                                                000000000036500                            
50004910201108152011081601280329033473       PES0000036500A085512011081518090069                                                
6024600036500112340128032903347300000000036                                                                                     
7PESE                                                                                000000000036500                            
50005010201108152011081601280425012473       PES0000036500A099192011081519030009                                                
6024600036500112340128042501247300000000099                                                                                     
7PESE                                                                                000000000036500                            
50005110201108152011081601280518294991       PES0000036500L120192011081514561474                                                
6024600036500112340128051829499100000000021                                                                                     
7PESE                                                                                000000000036500                            
50005210201108152011081601281326725582       PES0000036500A024432011081518160124                                                
6024600036500112340128132672558200000000090                                                                                     
7PESE                                                                                000000000036500                            
50005310201108152011081601281617036104       PES0000036500A024432011081518160123                                                
6024600036500112340128161703610400000000084                                                                                     
7PESE                                                                                000000000036500                            
50005410201108152011081699030233896263       PES0000038500A085562011081517140350                                                
6024600038500112279903023389626300025000437                                                                                     
7PESE                                                                                000000000038500                            
82011081600000100000540000013855000000000000000000000000000000000000000000054                                                   
9201108160000010000054000001385500000000000000000000000000000000000000000000054                                                 
