120120116PAGO FACIL               090060246FABIAN NORBERTO D´ERAMO                                                              
320120116000001FABIAN NORBERTO D´ERAMO                                                                                          
50000110201201132012011623061327634571       PES0000121600A099462012011310140043                                                
6024600121600120152306132763457100150000536                                                                                     
7PESE                                                                                000000000121600                            
50000210201201132012011699030236087988       PES0000040500A103582012011311100176                                                
6024600040500120159903023608798800025000442                                                                                     
7PESE                                                                                000000000040500                            
50000310201201132012011602320717684750       PES0000028000A601882012011312340084                                                
6024600028000120200232071768475000000000000                                                                                     
7PESE                                                                                000000000028000                            
50000410201201132012011623061028454237       PES0000108800A090632012011311490045                                                
6024600108800120152306102845423700128000421                                                                                     
7PESE                                                                                000000000108800                            
50000510201201132012011623060934454747       PES0000108800D000742012011310300018                                                
6024600108800120152306093445474700128000563                                                                                     
7PESE                                                                                000000000108800                            
50000610201201132012011623061028913097       PES0000108800A071012012011308530022                                                
6024600108800120152306102891309700128000590                                                                                     
7PESE                                                                                000000000108800                            
50000710201201132012011629070129856364       PES0000010000A064332012011313350175                                                
6024600010000120172907012985636400000000057                                                                                     
7PESE                                                                                000000000010000                            
50000810201201132012011699030233896263       PES0000040500A091052012011317360097                                                
6024600037000120079903023389626300035000600                                                                                     
7PESE                                                                                000000000040500                            
50000910201201132012011623060721485928       PES0000108800A105982012011317410158                                                
6024600108800120152306072148592800128000363                                                                                     
7PESE                                                                                000000000108800                            
50001010201201132012011629070320702498       PES0000010000A068912012011313080167                                                
6024600010000120192907032070249800000000090                                                                                     
7PESE                                                                                000000000010000                            
50001110201201132012011602323422990347       PES0000020000A086812012011320200340                                                
6024600020000120180232342299034700000000063                                                                                     
7PESE                                                                                000000000020000                            
50001210201201132012011623060323314250       PES0000108800A014492012011320360267                                                
6024600108800120132306032331425000128000063                                                                                     
7PESE                                                                                000000000108800                            
50001310201201132012011623061839454947       PES0000121600M640112012011316190223                                                
6024600121600120152306183945494700150000584                                                                                     
7PESE                                                                                000000000121600                            
50001410201201142012011623061837865645       PES0000121600A640782012011411140018                                                
6024600121600120152306183786564500150000490                                                                                     
7PESE                                                                                000000000121600                            
50001510201201142012011623061028325542       PES0000108800A091602012011409480047                                                
6024600108800120152306102832554200128000521                                                                                     
7PESE                                                                                000000000108800                            
50001610201201142012011629070320852492       PES0000010000A091532012011409320044                                                
6024600010000120192907032085249200000000084                                                                                     
7PESE                                                                                000000000010000                            
50001710201201142012011623060725316242       PES0000108800A080372012011410400038                                                
6024600108800120152306072531624200128000521                                                                                     
7PESE                                                                                000000000108800                            
50001810201201142012011623060721155102       PES0000108800A080372012011410400039                                                
6024600108800120152306072115510200128000579                                                                                     
7PESE                                                                                000000000108800                            
50001910201201142012011699030233016959       PES0000040500A093442012011414150053                                                
6024600040500120159903023301695900025000516                                                                                     
7PESE                                                                                000000000040500                            
50002010201201142012011623061616249471       PES0000121600A108922012011416590037                                                
6024600121600120152306161624947100150000357                                                                                     
7PESE                                                                                000000000121600                            
50002110201201142012011629070412785247       PES0000010000A110622012011411280090                                                
6024600010000120182907041278524700000000042                                                                                     
7PESE                                                                                000000000010000                            
50002210201201142012011623061023502932       PES0000108800M620662012011411040001                                                
6024600108800120152306102350293200128000378                                                                                     
7PESE                                                                                000000000108800                            
50002310201201142012011623061926902715       PES0000121600A057532012011419230031                                                
6024600121600120152306192690271500150000678                                                                                     
7PESE                                                                                000000000121600                            
50002410201201152012011623061027600375       PES0000108800A014522012011520360142                                                
6024600108800120152306102760037500128000700                                                                                     
7PESE                                                                                000000000108800                            
50002510201201152012011623061329877555       PES0000121600A102352012011520210063                                                
6024600121600120152306132987755500150000499                                                                                     
7PESE                                                                                000000000121600                            
82012011600000100000250000020271000000000000000000000000000000000000000000025                                                   
9201201160000010000025000002027100000000000000000000000000000000000000000000025                                                 
