120120416PAGO FACIL               090060246FABIAN NORBERTO D´ERAMO                                                              
320120416000001FABIAN NORBERTO D´ERAMO                                                                                          
50000110201204132012041602350814739906       PES0000029000A058122012041312120081                                                
6024600029000121080235081473990600040000021                                                                                     
7PESE                                                                                000000000029000                            
50000210201204132012041656001931293289       PES0000042000A092402012041314210026                                                
6024600042000121045600193129328900000000063                                                                                     
7PESE                                                                                000000000042000                            
50000310201204132012041656001728506286       PES0000042000A015942012041311340040                                                
6024600042000121045600172850628600000000042                                                                                     
7PESE                                                                                000000000042000                            
50000410201204132012041602353434770928       PES0000017000A076762012041313050027                                                
6024600017000121100235343477092800030000163                                                                                     
7PESE                                                                                000000000017000                            
50000510201204132012041602350523471630       PES0000029000A039102012041308560037                                                
6024600029000121090235052347163000040000016                                                                                     
7PESE                                                                                000000000029000                            
50000610201204132012041602350237229430       PES0000029000A105252012041313460273                                                
6024600029000121090235023722943000040000099                                                                                     
7PESE                                                                                000000000029000                            
50000710201204132012041656000621000001       PES0000030000A103242012041313030082                                                
6024600030000121045600062100000100000000042                                                                                     
7PESE                                                                                000000000030000                            
50000810201204132012041602353821442955       PES0000017000A601492012041312460165                                                
6024600017000121100235382144295500030000115                                                                                     
7PESE                                                                                000000000017000                            
50000910201204132012041699030234378677       PES0000046500A074672012041316360110                                                
6024600046500121069903023437867700025000442                                                                                     
7PESE                                                                                000000000046500                            
50001010201204132012041602353918003015       PES0000017000A620832012041312120095                                                
6024600017000121060235391800301500030000021                                                                                     
7PESE                                                                                000000000017000                            
50001110201204132012041602350621831336       PES0000029000A104982012041314360016                                                
6024600029000121060235062183133600040000099                                                                                     
7PESE                                                                                000000000029000                            
50001210201204132012041699030220863609       PES0000046500A092162012041312210273                                                
6024600043000121029903022086360900035000484                                                                                     
7PESE                                                                                000000000046500                            
50001310201204132012041656000620226257       PES0000030000A092162012041312530318                                                
6024600030000121045600062022625700000000000                                                                                     
7PESE                                                                                000000000030000                            
50001410201204132012041699050137140204       PES0000008000D000292012041315190308                                                
6024600008000121079905013714020400000000057                                                                                     
7PESE                                                                                000000000008000                            
50001510201204132012041699050134229030       PES0000008000A067092012041316400052                                                
6024600008000121079905013422903000000000057                                                                                     
7PESE                                                                                000000000008000                            
50001610201204132012041602350523102924       PES0000029000A076782012041318560024                                                
6024600029000121070235052310292400040000063                                                                                     
7PESE                                                                                000000000029000                            
50001710201204132012041602351714392587       PES0000017000A107582012041317300018                                                
6024600017000121100235171439258700030000184                                                                                     
7PESE                                                                                000000000017000                            
50001810201204132012041656000523803530       PES0000030000A089012012041317270057                                                
6024600030000121045600052380353000000000079                                                                                     
7PESE                                                                                000000000030000                            
50001910201204132012041656000524312341       PES0000030000A024182012041313040027                                                
6024600030000121045600052431234100000000084                                                                                     
7PESE                                                                                000000000030000                            
50002010201204132012041699030231344778       PES0000046500A095702012041318510071                                                
6024600046500121069903023134477800025000590                                                                                     
7PESE                                                                                000000000046500                            
50002110201204132012041656000718262756       PES0000030000A088622012041321520415                                                
6024600030000121045600071826275600000000015                                                                                     
7PESE                                                                                000000000030000                            
50002210201204132012041699040130663025       PES0000030500A001602012041314270044                                                
6024600030500121069904013066302500015000537                                                                                     
7PESE                                                                                000000000030500                            
50002310201204132012041602352825034323       PES0000029000L071192012041319493926                                                
6024600029000121100235282503432300040000142                                                                                     
7PESE                                                                                000000000029000                            
50002410201204132012041602350622175468       PES0000029000M640372012041310530035                                                
6024600029000121080235062217546800040000000                                                                                     
7PESE                                                                                000000000029000                            
50002510201204142012041699030236872631       PES0000046500D001472012041412510245                                                
6024600046500121069903023687263100025000484                                                                                     
7PESE                                                                                000000000046500                            
50002610201204142012041699050123626191       PES0000008000D000502012041414160349                                                
6024600008000121079905012362619100000000084                                                                                     
7PESE                                                                                000000000008000                            
50002710201204142012041602353822592421       PES0000017000L071192012041410193983                                                
6024600017000121100235382259242100030000263                                                                                     
7PESE                                                                                000000000017000                            
82012041600000100000270000007625000000000000000000000000000000000000000000027                                                   
9201204160000010000027000000762500000000000000000000000000000000000000000000027                                                 
