120120717PAGO FACIL               090060246FABIAN NORBERTO D´ERAMO                                                              
320120717000001FABIAN NORBERTO D´ERAMO                                                                                          
50000110201207162012071759000418530747       PES0000016000A090422012071608520003                                                
6024600016000122015900041853074700000000015                                                                                     
7PESE                                                                                000000000016000                            
50000210201207162012071759001031138501       PES0000016000A090422012071608520005                                                
6024600016000122015900103113850100000000000                                                                                     
7PESE                                                                                000000000016000                            
50000310201207162012071759001126370988       PES0000016000A090422012071608520006                                                
6024600016000122015900112637098800000000042                                                                                     
7PESE                                                                                000000000016000                            
50000410201207162012071759001224666646       PES0000016000A090422012071608520004                                                
6024600016000122015900122466664600000000063                                                                                     
7PESE                                                                                000000000016000                            
50000510201207162012071759001322505110       PES0000016000A057862012071609210014                                                
6024600016000122045900132250511000000000015                                                                                     
7PESE                                                                                000000000016000                            
82012071700000100000050000000800000000000000000000000000000000000000000000005                                                   
9201207170000010000005000000080000000000000000000000000000000000000000000000005                                                 
