120120417PAGO FACIL               090060246FABIAN NORBERTO D´ERAMO                                                              
320120417000001FABIAN NORBERTO D´ERAMO                                                                                          
50000110201204162012041799050125096162       PES0000008000A102852012041612360244                                                
6024600008000121079905012509616200000000042                                                                                     
7PESE                                                                                000000000008000                            
50000210201204162012041702353529832683       PES0000017000M620032012041618250251                                                
6024600017000121080235352983268300030000084                                                                                     
7PESE                                                                                000000000017000                            
50000310201204162012041702351523899725       PES0000017000M640402012041613580023                                                
6024600017000121100235152389972500030000199                                                                                     
7PESE                                                                                000000000017000                            
50000410201204162012041702351813612745       PES0000017000L071192012041609024177                                                
6024600017000121100235181361274500030000358                                                                                     
7PESE                                                                                000000000017000                            
50000510201204162012041702350524421663       PES0000029000L071192012041613594345                                                
6024600029000121080235052442166300040000015                                                                                     
7PESE                                                                                000000000029000                            
50000610201204162012041702350232973165       PES0000029000A075282012041619260078                                                
6024600029000121100235023297316500040000499                                                                                     
7PESE                                                                                000000000029000                            
50000710201204162012041702350716785288       PES0000029000M600532012041614550497                                                
6024600029000121100235071678528800040000000                                                                                     
7PESE                                                                                000000000029000                            
50000810201204162012041799030133914097       PES0000040500A100492012041615190297                                                
6024600040500121069903013391409700025000590                                                                                     
7PESE                                                                                000000000040500                            
82012041700000100000080000001865000000000000000000000000000000000000000000008                                                   
9201204170000010000008000000186500000000000000000000000000000000000000000000008                                                 
