120110517PAGO FACIL               090060246FABIAN NORBERTO D´ERAMO                                                              
320110517000001FABIAN NORBERTO D´ERAMO                                                                                          
50000110201105162011051701272110127642       PES0000011000A080892011051619400159                                                
6024600011000111370127211012764200000000016                                                                                     
7PESE                                                                                000000000011000                            
50000210201105162011051748010223343312       PES0000018000A083902011051616250270                                                
6024600018000111364801022334331200020000700                                                                                     
7PESE                                                                                000000000018000                            
50000310201105162011051748010320913307       PES0000018000A083902011051616250272                                                
6024600018000111364801032091330700020000716                                                                                     
7PESE                                                                                000000000018000                            
50000410201105162011051748010539691315       PES0000018000A069192011051619240159                                                
6024600018000111364801053969131500020000758                                                                                     
7PESE                                                                                000000000018000                            
50000510201105162011051748010932338397       PES0000018000M660232011051617310346                                                
6024600018000111364801093233839700020000763                                                                                     
7PESE                                                                                000000000018000                            
50000610201105162011051748010932802458       PES0000018000M660232011051616500323                                                
6024600018000111364801093280245800020000763                                                                                     
7PESE                                                                                000000000018000                            
50000710201105162011051748011123618198       PES0000018000A083902011051616250271                                                
6024600018000111364801112361819800020000716                                                                                     
7PESE                                                                                000000000018000                            
50000810201105162011051748011221833450       PES0000018000A083902011051616250269                                                
6024600018000111364801122183345000020000736                                                                                     
7PESE                                                                                000000000018000                            
50000910201105162011051748011317647911       PES0000018000A093302011051614110230                                                
6024600018000111364801131764791100020000716                                                                                     
7PESE                                                                                000000000018000                            
50001010201105162011051748011317695751       PES0000018000A044342011051618020060                                                
6024600018000111364801131769575100020000742                                                                                     
7PESE                                                                                000000000018000                            
50001110201105162011051718292816161034       PES0000019000D000282011051615090275                                                
6024600019000111411829281616103400000000021                                                                                     
7PESE                                                                                000000000019000                            
50001210201105162011051701270422238982       PES0000020000A071042011051618540050                                                
6024600020000111370127042223898200000000042                                                                                     
7PESE                                                                                000000000020000                            
50001310201105162011051701270421574633       PES0000020000A075552011051611590038                                                
6024600020000111410127042157463300000000084                                                                                     
7PESE                                                                                000000000020000                            
50001410201105162011051701271421759560       PES0000020000A088132011051617260160                                                
6024600020000111410127142175956000000000084                                                                                     
7PESE                                                                                000000000020000                            
82011051700000100000140000002520000000000000000000000000000000000000000000014                                                   
9201105170000010000014000000252000000000000000000000000000000000000000000000014                                                 
