120120117PAGO FACIL               090060246FABIAN NORBERTO D´ERAMO                                                              
320120117000001FABIAN NORBERTO D´ERAMO                                                                                          
50000110201201162012011702320332378711       PES0000028000A007552012011409070019                                                
6024600028000120180232033237871100000000015                                                                                     
7PESE                                                                                000000000028000                            
50000210201201162012011754000126432262       PES0000094000A046342012011417130176                                                
6024600094000120155400012643226200310000621                                                                                     
7PESE                                                                                000000000094000                            
50000310201201162012011729070727779935       PES0000010000A042332012011611380099                                                
6024600010000120172907072777993500000000000                                                                                     
7PESE                                                                                000000000010000                            
50000410201201162012011729070316990422       PES0000010000L120342012011610146307                                                
6024600010000120182907031699042200000000016                                                                                     
7PESE                                                                                000000000010000                            
50000510201201162012011729070227235621       PES0000010000A086882012011610110027                                                
6024600010000120202907022723562100000000036                                                                                     
7PESE                                                                                000000000010000                            
50000610201201162012011729070317935203       PES0000010000A068722012011612370168                                                
6024600010000120202907031793520300000000063                                                                                     
7PESE                                                                                000000000010000                            
50000710201201162012011729070724618048       PES0000010000M620132012011612390077                                                
6024600010000120202907072461804800000000078                                                                                     
7PESE                                                                                000000000010000                            
50000810201201162012011729070318234602       PES0000010000A068632012011611090119                                                
6024600010000120232907031823460200000000063                                                                                     
7PESE                                                                                000000000010000                            
50000910201201162012011729070318267367       PES0000010000A068632012011611090120                                                
6024600010000120232907031826736700000000021                                                                                     
7PESE                                                                                000000000010000                            
50001010201201162012011702320525838674       PES0000028000A091662012011614390247                                                
6024600025000120100232052583867400030000642                                                                                     
7PESE                                                                                000000000028000                            
50001110201201162012011702320426101482       PES0000028000M601642012011612390057                                                
6024600028000120200232042610148200000000000                                                                                     
7PESE                                                                                000000000028000                            
50001210201201162012011702320525705248       PES0000028000A091782012011611220163                                                
6024600028000120200232052570524800000000015                                                                                     
7PESE                                                                                000000000028000                            
50001310201201162012011723060514929582       PES0000108800A108932012011613330030                                                
6024600108800120152306051492958200128000784                                                                                     
7PESE                                                                                000000000108800                            
50001410201201162012011723060839763553       PES0000108800A620302012011610330066                                                
6024600108800120152306083976355300128000799                                                                                     
7PESE                                                                                000000000108800                            
50001510201201162012011723061028695141       PES0000108800M600442012011610560020                                                
6024600108800120152306102869514100128000378                                                                                     
7PESE                                                                                000000000108800                            
50001610201201162012011723061423492182       PES0000121600A093442012011618160340                                                
6024600121600120152306142349218200150000457                                                                                     
7PESE                                                                                000000000121600                            
50001710201201162012011723060417992288       PES0000121600A046512012011620100182                                                
6024600121600120232306041799228800000000016                                                                                     
7PESE                                                                                000000000121600                            
82012011700000100000170000008456000000000000000000000000000000000000000000017                                                   
9201201170000010000017000000845600000000000000000000000000000000000000000000017                                                 
