120130117PAGO FACIL               090060246FABIAN NORBERTO D´ERAMO                                                              
320130117000001FABIAN NORBERTO D´ERAMO                                                                                          
50000110201301162013011769020138132100       PES0000010000A098192013011615230029                                                
6024600010000130186902013813210000000000063                                                                                     
7PESE                                                                                000000000010000                            
50000210201301162013011769020139855586       PES0000010000A098192013011615230030                                                
6024600010000130186902013985558600000000016                                                                                     
7PESE                                                                                000000000010000                            
50000310201301162013011769020329694519       PES0000010000M601642013011613340133                                                
6024600010000130186902032969451900000000037                                                                                     
7PESE                                                                                000000000010000                            
50000410201301162013011769021232294572       PES0000010000M601642013011613330132                                                
6024600010000130186902123229457200000000000                                                                                     
7PESE                                                                                000000000010000                            
50000510201301162013011769021513464299       PES0000010000M600202013011613410054                                                
6024600010000130186902151346429900000000079                                                                                     
7PESE                                                                                000000000010000                            
50000610201301162013011773010412804075       PES0000010000A055682013011609260012                                                
6024600010000130217301041280407500020000078                                                                                     
7PESE                                                                                000000000010000                            
50000710201301162013011773011211753241       PES0000010000A055682013011609260013                                                
6024600010000130217301121175324100020000015                                                                                     
7PESE                                                                                000000000010000                            
50000810201301162013011773011017371166       PES0000010000A092662013011619590183                                                
6024600010000130227301101737116600020000000                                                                                     
7PESE                                                                                000000000010000                            
50000910201301162013011729090224214583       PES0000015000A054752013011609520080                                                
6024600015000130222909022421458300000000021                                                                                     
7PESE                                                                                000000000015000                            
50001010201301162013011729090227346300       PES0000015000A112852013011614540049                                                
6024600015000130222909022734630000000000037                                                                                     
7PESE                                                                                000000000015000                            
50001110201301162013011729090227815395       PES0000015000A601872013011610560046                                                
6024600015000130222909022781539500000000063                                                                                     
7PESE                                                                                000000000015000                            
50001210201301162013011729090316869602       PES0000015000A112852013011614540050                                                
6024600015000130222909031686960200000000090                                                                                     
7PESE                                                                                000000000015000                            
50001310201301162013011729090137660889       PES0000015000A029312013011616450076                                                
6024600015000130232909013766088900000000042                                                                                     
7PESE                                                                                000000000015000                            
50001410201301162013011729090321577451       PES0000015000A064202013011611130137                                                
6024600015000130232909032157745100000000021                                                                                     
7PESE                                                                                000000000015000                            
50001510201301162013011798020135732304       PES0000016500A081572013011617160031                                                
6024600016500130239802013573230400000000084                                                                                     
7PESE                                                                                000000000016500                            
50001610201301162013011702432529392419       PES0000024000A038942013011610230055                                                
6024600024000130200243252939241900060000321                                                                                     
7PESE                                                                                000000000024000                            
50001710201301162013011702433327071224       PES0000024000M601962013011613000027                                                
6024600024000130200243332707122400060000363                                                                                     
7PESE                                                                                000000000024000                            
50001810201301162013011702430329040609       PES0000035000A063972013011617010051                                                
6024600035000130200243032904060900050000290                                                                                     
7PESE                                                                                000000000035000                            
50001910201301162013011702430713994786       PES0000035000M601962013011613000026                                                
6024600035000130200243071399478600050000284                                                                                     
7PESE                                                                                000000000035000                            
50002010201301162013011702431425404423       PES0000035000A063972013011617010050                                                
6024600035000130200243142540442300050000242                                                                                     
7PESE                                                                                000000000035000                            
50002110201301162013011701341520105007       PES0000135000A101062013011609350029                                                
6024600135000130170134152010500700150000063                                                                                     
7PESE                                                                                000000000135000                            
50002210201301162013011701341521950088       PES0000135000A092142013011613280265                                                
6024600135000130180134152195008800150000063                                                                                     
7PESE                                                                                000000000135000                            
50002310201301162013011701341522007408       PES0000135000A108932013011613110138                                                
6024600135000130180134152200740800150000058                                                                                     
7PESE                                                                                000000000135000                            
50002410201301162013011701341618064487       PES0000135000A071012013011616140156                                                
6024600135000130190134161806448700150000000                                                                                     
7PESE                                                                                000000000135000                            
50002510201301162013011701341329040609       PES0000135000A063972013011617010052                                                
6024600135000130220134132904060900150000058                                                                                     
7PESE                                                                                000000000135000                            
50002610201301162013011701341618540726       PES0000135000M600142013011615100115                                                
6024600135000130230134161854072600150000078                                                                                     
7PESE                                                                                000000000135000                            
50002710201301162013011701341713583437       PES0000135000A061152013011609480005                                                
6024600135000130230134171358343700150000084                                                                                     
7PESE                                                                                000000000135000                            
82013011700000100000270000012845000000000000000000000000000000000000000000027                                                   
9201301170000010000027000001284500000000000000000000000000000000000000000000027                                                 
