120120817PAGO FACIL               090060246FABIAN NORBERTO D´ERAMO                                                              
320120817000001FABIAN NORBERTO D´ERAMO                                                                                          
50000110201208162012081700712718259083       PES0000023500A043472012080218310130                                                
6024600023500122210071271825908300055000016                                                                                     
7PESE                                                                                000000000023500                            
50000210201208162012081759000517506357       PES0000016000A114832012081510590008                                                
6024600016000122325900051750635700000000015                                                                                     
7PESE                                                                                000000000016000                            
50000310201208162012081759001321878085       PES0000016000A114832012081511000009                                                
6024600016000122325900132187808500000000099                                                                                     
7PESE                                                                                000000000016000                            
50000410201208162012081700714331522703       PES0000023500A073192012081516560078                                                
6024600023500122340071433152270300055000099                                                                                     
7PESE                                                                                000000000023500                            
50000510201208162012081759000324499548       PES0000016000A115752012081609410022                                                
6024600016000122325900032449954800000000079                                                                                     
7PESE                                                                                000000000016000                            
50000610201208162012081759000517086469       PES0000016000A115752012081620130192                                                
6024600016000122345900051708646900000000037                                                                                     
7PESE                                                                                000000000016000                            
50000710201208162012081759001129283641       PES0000016000L070222012081617248439                                                
6024600016000122345900112928364100000000063                                                                                     
7PESE                                                                                000000000016000                            
50000810201208162012081759001418053607       PES0000016000A115752012081620130191                                                
6024600016000122345900141805360700000000042                                                                                     
7PESE                                                                                000000000016000                            
50000910201208162012081700710829298883       PES0000023500A116342012081614420124                                                
6024600023500122290071082929888300055000079                                                                                     
7PESE                                                                                000000000023500                            
50001010201208162012081700712429313732       PES0000023500D000752012081612090098                                                
6024600023500122310071242931373200055000079                                                                                     
7PESE                                                                                000000000023500                            
50001110201208162012081700712330641882       PES0000023500D001492012081614110204                                                
6024600023500122330071233064188200055000042                                                                                     
7PESE                                                                                000000000023500                            
50001210201208162012081700714426255905       PES0000023500A103302012081609320018                                                
6024600023500122340071442625590500055000084                                                                                     
7PESE                                                                                000000000023500                            
50001310201208162012081700710924927982       PES0000023500A021692012081610230091                                                
6024600023500122350071092492798200055000042                                                                                     
7PESE                                                                                000000000023500                            
50001410201208162012081700712236335249       PES0000023500D000422012081612520144                                                
6024600023500122350071223633524900055000099                                                                                     
7PESE                                                                                000000000023500                            
50001510201208162012081700714234254910       PES0000023500A640732012081608450001                                                
6024600023500122350071423425491000055000079                                                                                     
7PESE                                                                                000000000023500                            
50001610201208162012081700712333366141       PES0000023500A031212012081619080225                                                
6024600023500122360071233336614100055000099                                                                                     
7PESE                                                                                000000000023500                            
50001710201208162012081700714514499159       PES0000023500A082002012081612230011                                                
6024600023500122360071451449915900055000058                                                                                     
7PESE                                                                                000000000023500                            
50001810201208162012081700540336157259       PES0000026000A105602012081617200016                                                
6024600026000122330054033615725900010000358                                                                                     
7PESE                                                                                000000000026000                            
50001910201208162012081798010237153572       PES0000029500A085662012081613290115                                                
6024600029500122289801023715357200000000763                                                                                     
7PESE                                                                                000000000029500                            
50002010201208162012081700722623592249       PES0000031000A092252012081613560245                                                
6024600031000122310072262359224900040000036                                                                                     
7PESE                                                                                000000000031000                            
50002110201208162012081700723811386857       PES0000031000A037762012081611160070                                                
6024600031000122330072381138685700040000084                                                                                     
7PESE                                                                                000000000031000                            
50002210201208162012081701320231532456       PES0000045000A116272012081611530035                                                
6024600045000122300132023153245600050000000                                                                                     
7PESE                                                                                000000000045000                            
50002310201208162012081701320522824844       PES0000045000A024432012081610440094                                                
6024600045000122300132052282484400050000090                                                                                     
7PESE                                                                                000000000045000                            
50002410201208162012081701320423959163       PES0000045000A097352012081611580036                                                
6024600045000122330132042395916300050000000                                                                                     
7PESE                                                                                000000000045000                            
50002510201208162012081701321229983797       PES0000045000A097352012081611570035                                                
6024600045000122330132122998379700050000021                                                                                     
7PESE                                                                                000000000045000                            
50002610201208162012081701321329244802       PES0000045000A097352012081612000037                                                
6024600045000122330132132924480200050000063                                                                                     
7PESE                                                                                000000000045000                            
50002710201208162012081701320522840928       PES0000045000M620412012081611540014                                                
6024600045000122340132052284092800050000000                                                                                     
7PESE                                                                                000000000045000                            
50002810201208162012081701320714369435       PES0000045000D001472012081615150296                                                
6024600045000122340132071436943500050000015                                                                                     
7PESE                                                                                000000000045000                            
50002910201208162012081701320230880808       PES0000045000M620022012081609020010                                                
6024600045000122350132023088080800050000042                                                                                     
7PESE                                                                                000000000045000                            
50003010201208162012081701321521080844       PES0000045000A046092012081611410025                                                
6024600045000122350132152108084400050000084                                                                                     
7PESE                                                                                000000000045000                            
50003110201208162012081701322220546272       PES0000045000A042592012081610030014                                                
6024600045000122350132222054627200050000084                                                                                     
7PESE                                                                                000000000045000                            
50003210201208162012081701320327125544       PES0000045000A032472012081614130044                                                
6024600045000122360132032712554400050000037                                                                                     
7PESE                                                                                000000000045000                            
50003310201208162012081701320328807743       PES0000045000A047992012081616160193                                                
6024600045000122360132032880774300050000078                                                                                     
7PESE                                                                                000000000045000                            
50003410201208162012081701320425095179       PES0000045000A032472012081614130045                                                
6024600045000122360132042509517900050000021                                                                                     
7PESE                                                                                000000000045000                            
82012081700000100000340000010570000000000000000000000000000000000000000000034                                                   
9201208170000010000034000001057000000000000000000000000000000000000000000000034                                                 
