120120518PAGO FACIL               090060246FABIAN NORBERTO D´ERAMO                                                              
320120518000001FABIAN NORBERTO D´ERAMO                                                                                          
50000110201205172012051802363437229430       PES0000020000A105252012051714150154                                                
6024600020000121390236343722943000000000036                                                                                     
7PESE                                                                                000000000020000                            
50000210201205172012051802360911683548       PES0000030000D000472012051716240415                                                
6024600030000121390236091168354800000000063                                                                                     
7PESE                                                                                000000000030000                            
50000310201205172012051802362824851288       PES0000030000A068912012051712590181                                                
6024600030000121390236282485128800000000057                                                                                     
7PESE                                                                                000000000030000                            
50000410201205172012051802362920987379       PES0000030000A091432012051715260034                                                
6024600030000121390236292098737900000000057                                                                                     
7PESE                                                                                000000000030000                            
50000510201205172012051802363113980924       PES0000030000A091702012051711480015                                                
6024600030000121390236311398092400000000099                                                                                     
7PESE                                                                                000000000030000                            
82012051800000100000050000001400000000000000000000000000000000000000000000005                                                   
9201205180000010000005000000140000000000000000000000000000000000000000000000005                                                 
