120110818PAGO FACIL               090060246FABIAN NORBERTO D´ERAMO                                                              
320110818000001FABIAN NORBERTO D´ERAMO                                                                                          
50000110201108172011081800503193502977       PES0000019500A038992011081610460061                                                
6024600019500112340050319350297700050000000                                                                                     
7PESE                                                                                000000000019500                            
50000210201108172011081844011007598974       PES0000007000A049072011081712070189                                                
6024600007000112334401100759897400005000142                                                                                     
7PESE                                                                                000000000007000                            
50000310201108172011081817020813873745       PES0000016000A036962011081709210006                                                
6024600016000112331702081387374500040000042                                                                                     
7PESE                                                                                000000000016000                            
50000410201108172011081817021314818234       PES0000016000A036962011081709210007                                                
6024600016000112331702131481823400040000042                                                                                     
7PESE                                                                                000000000016000                            
50000510201108172011081817020717205880       PES0000016000A107902011081708400030                                                
6024600016000112341702071720588000040000036                                                                                     
7PESE                                                                                000000000016000                            
50000610201108172011081817021521804060       PES0000016000A044232011081711390061                                                
6024600016000112361702152180406000040000016                                                                                     
7PESE                                                                                000000000016000                            
50000710201108172011081800540334515650       PES0000017500A036192011081719130194                                                
6024600017500112320054033451565000015000315                                                                                     
7PESE                                                                                000000000017500                            
50000810201108172011081800501429345257       PES0000019500A061482011081709570008                                                
6024600019500112290050142934525700050000099                                                                                     
7PESE                                                                                000000000019500                            
50000910201108172011081800501526196120       PES0000019500L120102011081714231898                                                
6024600019500112290050152619612000050000042                                                                                     
7PESE                                                                                000000000019500                            
50001010201108172011081800501528876144       PES0000019500L120102011081714231897                                                
6024600019500112290050152887614400050000021                                                                                     
7PESE                                                                                000000000019500                            
50001110201108172011081800502523175430       PES0000019500A022832011081712450156                                                
6024600019500112290050252317543000050000099                                                                                     
7PESE                                                                                000000000019500                            
50001210201108172011081800502621535732       PES0000019500A022832011081712450155                                                
6024600019500112290050262153573200050000078                                                                                     
7PESE                                                                                000000000019500                            
50001310201108172011081800502716876507       PES0000019500A107682011081710560108                                                
6024600019500112300050271687650700050000084                                                                                     
7PESE                                                                                000000000019500                            
50001410201108172011081800503633338827       PES0000019500A064992011081718030306                                                
6024600019500112300050363333882700050000078                                                                                     
7PESE                                                                                000000000019500                            
50001510201108172011081800503634534204       PES0000019500A064992011081718030305                                                
6024600019500112300050363453420400050000036                                                                                     
7PESE                                                                                000000000019500                            
50001610201108172011081800504423075646       PES0000019500A090072011081718360265                                                
6024600019500112300050442307564600050000063                                                                                     
7PESE                                                                                000000000019500                            
50001710201108172011081800502718287555       PES0000019500A066092011081718280069                                                
6024600019500112320050271828755500050000063                                                                                     
7PESE                                                                                000000000019500                            
50001810201108172011081800503729362015       PES0000019500A072782011081710120026                                                
6024600019500112320050372936201500050000063                                                                                     
7PESE                                                                                000000000019500                            
50001910201108172011081800503916627171       PES0000019500A072782011081717300104                                                
6024600019500112340050391662717100050000084                                                                                     
7PESE                                                                                000000000019500                            
50002010201108172011081800501333458699       PES0000019500A042822011081712220172                                                
6024600019500112350050133345869900050000021                                                                                     
7PESE                                                                                000000000019500                            
50002110201108172011081800504610428334       PES0000019500A042812011081716410082                                                
6024600019500112350050461042833400050000015                                                                                     
7PESE                                                                                000000000019500                            
50002210201108172011081800534024448461       PES0000026000A105092011081717260050                                                
6024600026000112290053402444846100030000090                                                                                     
7PESE                                                                                000000000026000                            
50002310201108172011081800530712321767       PES0000035000A071042011081712030040                                                
6024600035000112290053071232176700035000021                                                                                     
7PESE                                                                                000000000035000                            
50002410201108172011081800530711986354       PES0000035000A059812011081712580118                                                
6024600035000112310053071198635400035000000                                                                                     
7PESE                                                                                000000000035000                            
50002510201108172011081801280521903406       PES0000036500A032962011081717330040                                                
6024600036500112290128052190340600000000042                                                                                     
7PESE                                                                                000000000036500                            
50002610201108172011081801280424595615       PES0000036500A046342011081712360058                                                
6024600036500112300128042459561500000000090                                                                                     
7PESE                                                                                000000000036500                            
50002710201108172011081801282222300877       PES0000036500A601122011081713290165                                                
6024600036500112300128222230087700000000084                                                                                     
7PESE                                                                                000000000036500                            
50002810201108172011081801280328477487       PES0000036500A087922011081712040054                                                
6024600036500112310128032847748700000000063                                                                                     
7PESE                                                                                000000000036500                            
50002910201108172011081801280614669192       PES0000036500A029802011081713110130                                                
6024600036500112330128061466919200000000042                                                                                     
7PESE                                                                                000000000036500                            
50003010201108172011081801280810647929       PES0000036500A076712011081718090014                                                
6024600036500112340128081064792900000000078                                                                                     
7PESE                                                                                000000000036500                            
50003110201108172011081801282600435623       PES0000036500M600122011081711030016                                                
6024600036500112340128260043562300000000000                                                                                     
7PESE                                                                                000000000036500                            
50003210201108172011081899030225909375       PES0000041000A084182011081717520200                                                
6024600041000112369903022590937500000000063                                                                                     
7PESE                                                                                000000000041000                            
82011081800000100000320000007735000000000000000000000000000000000000000000032                                                   
9201108180000010000032000000773500000000000000000000000000000000000000000000032                                                 
