120110718PAGO FACIL               090060246FABIAN NORBERTO D´ERAMO                                                              
320110718000001FABIAN NORBERTO D´ERAMO                                                                                          
50000110201107152011071800503824755647       PES0000015500A025052011071422090023                                                
6024600015500111990050382475564700090000258                                                                                     
7PESE                                                                                000000000015500                            
50000210201107152011071800502523698591       PES0000015500A042592011071508060001                                                
6024600015500111990050252369859100090000299                                                                                     
7PESE                                                                                000000000015500                            
50000310201107152011071800501525509096       PES0000015500A042592011071508070002                                                
6024600015500111990050152550909600090000263                                                                                     
7PESE                                                                                000000000015500                            
50000410201107152011071817021129556354       PES0000016000A037782011071512020079                                                
6024600016000112011702112955635400040000016                                                                                     
7PESE                                                                                000000000016000                            
50000510201107152011071817020525353751       PES0000016000A037782011071512030080                                                
6024600016000112011702052535375100040000099                                                                                     
7PESE                                                                                000000000016000                            
50000610201107152011071800502427119566       PES0000015500A042592011071514370004                                                
6024600015500111990050242711956600090000284                                                                                     
7PESE                                                                                000000000015500                            
50000710201107152011071800501622533802       PES0000015500A076822011071513550071                                                
6024600015500111990050162253380200090000379                                                                                     
7PESE                                                                                000000000015500                            
50000810201107152011071800502621483553       PES0000015500A073592011071515230329                                                
6024600015500111990050262148355300090000284                                                                                     
7PESE                                                                                000000000015500                            
50000910201107152011071817021008078511       PES0000016000A700072011071508280003                                                
6024600016000112021702100807851100040000021                                                                                     
7PESE                                                                                000000000016000                            
50001010201107152011071800501816247042       PES0000015500A085542011071513240046                                                
6024600015500111990050181624704200090000399                                                                                     
7PESE                                                                                000000000015500                            
50001110201107152011071800502428871803       PES0000015500A090562011071517530358                                                
6024600015500111990050242887180300090000315                                                                                     
7PESE                                                                                000000000015500                            
50001210201107152011071800504235837950       PES0000015500A071862011071518000367                                                
6024600015500111990050423583795000090000215                                                                                     
7PESE                                                                                000000000015500                            
50001310201107152011071800501022061085       PES0000015500A085182011071511520071                                                
6024600015500111990050102206108500090000258                                                                                     
7PESE                                                                                000000000015500                            
50001410201107152011071800502427889869       PES0000015500A106242011071518350010                                                
6024600015500111990050242788986900090000279                                                                                     
7PESE                                                                                000000000015500                            
50001510201107152011071800501118123929       PES0000015500M601162011071511260047                                                
6024600015500111990050111812392900090000357                                                                                     
7PESE                                                                                000000000015500                            
50001610201107152011071800504137679136       PES0000015500M601162011071511260048                                                
6024600015500111990050413767913600090000315                                                                                     
7PESE                                                                                000000000015500                            
50001710201107152011071800502911353883       PES0000015500M600652011071515230152                                                
6024600015500111990050291135388300090000216                                                                                     
7PESE                                                                                000000000015500                            
50001810201107152011071800502522962788       PES0000015500M600542011071514130157                                                
6024600015500111990050252296278800090000399                                                                                     
7PESE                                                                                000000000015500                            
50001910201107152011071800502911114868       PES0000015500M600212011071510060006                                                
6024600015500111990050291111486800090000216                                                                                     
7PESE                                                                                000000000015500                            
50002010201107152011071800500925188468       PES0000015500M600432011071514360172                                                
6024600015500111990050092518846800090000237                                                                                     
7PESE                                                                                000000000015500                            
50002110201107152011071800502911644828       PES0000015500M600132011071514550298                                                
6024600015500111990050291164482800090000200                                                                                     
7PESE                                                                                000000000015500                            
50002210201107152011071800502237676067       PES0000015500M601252011071514010200                                                
6024600015500111990050223767606700090000299                                                                                     
7PESE                                                                                000000000015500                            
50002310201107162011071800500131624726       PES0000015500A105802011071611390080                                                
6024600015500111990050013162472600090000500                                                                                     
7PESE                                                                                000000000015500                            
50002410201107172011071800502426551367       PES0000015500A088612011071720410166                                                
6024600015500111990050242655136700090000258                                                                                     
7PESE                                                                                000000000015500                            
82011071800000100000240000003735000000000000000000000000000000000000000000024                                                   
9201107180000010000024000000373500000000000000000000000000000000000000000000024                                                 
