120120718PAGO FACIL               090060246FABIAN NORBERTO D´ERAMO                                                              
320120718000001FABIAN NORBERTO D´ERAMO                                                                                          
50000110201207172012071899080123864913       PES0000008000A102852012071711520064                                                
6024600008000122059908012386491300000000000                                                                                     
7PESE                                                                                000000000008000                            
50000210201207172012071899080223864913       PES0000008000A102852012071711520065                                                
6024600008000122059908022386491300000000036                                                                                     
7PESE                                                                                000000000008000                            
50000310201207172012071899080126733189       PES0000008000A105982012071713110162                                                
6024600008000122069908012673318900000000058                                                                                     
7PESE                                                                                000000000008000                            
50000410201207172012071899080133205466       PES0000008000A105982012071713120164                                                
6024600008000122069908013320546600000000000                                                                                     
7PESE                                                                                000000000008000                            
50000510201207172012071899080226733189       PES0000008000A105982012071713110161                                                
6024600008000122069908022673318900000000084                                                                                     
7PESE                                                                                000000000008000                            
50000610201207172012071899080233205466       PES0000008000A105982012071713120163                                                
6024600008000122069908023320546600000000036                                                                                     
7PESE                                                                                000000000008000                            
50000710201207172012071859000516848149       PES0000016000L071482012071711111387                                                
6024600016000122045900051684814900000000015                                                                                     
7PESE                                                                                000000000016000                            
50000810201207172012071859000136592409       PES0000016000A100022012071715370096                                                
6024600016000122055900013659240900000000078                                                                                     
7PESE                                                                                000000000016000                            
50000910201207172012071800540235804671       PES0000026000A036102012071713090063                                                
6024600026000122020054023580467100010000458                                                                                     
7PESE                                                                                000000000026000                            
50001010201207172012071800540240497077       PES0000026000A056992012071713320147                                                
6024600026000122020054024049707700010000242                                                                                     
7PESE                                                                                000000000026000                            
50001110201207172012071899040130668939       PES0000032000M600372012071713520045                                                
6024600032000122059904013066893900000000057                                                                                     
7PESE                                                                                000000000032000                            
50001210201207172012071899030135755065       PES0000049000A024632012071708470010                                                
6024600049000122059903013575506500000000000                                                                                     
7PESE                                                                                000000000049000                            
50001310201207172012071899030135804671       PES0000049000A036102012071713090062                                                
6024600049000122069903013580467100000000099                                                                                     
7PESE                                                                                000000000049000                            
82012071800000100000130000002620000000000000000000000000000000000000000000013                                                   
9201207180000010000013000000262000000000000000000000000000000000000000000000013                                                 
