120111118PAGO FACIL               090060246FABIAN NORBERTO D´ERAMO                                                              
320111118000001FABIAN NORBERTO D´ERAMO                                                                                          
50000110201111172011111801301816967832       PES0000040000A077412011111620550010                                                
6024600040000113210130181696783200000000063                                                                                     
7PESE                                                                                000000000040000                            
50000210201111172011111852000138880721       PES0000009000A085512011111718170080                                                
6024600009000113225200013888072100000000042                                                                                     
7PESE                                                                                000000000009000                            
50000310201111172011111852001628418520       PES0000009000A033412011111712150015                                                
6024600009000113225200162841852000000000084                                                                                     
7PESE                                                                                000000000009000                            
50000410201111172011111829060322064531       PES0000010000A080062011111711020121                                                
6024600010000113212906032206453100030000042                                                                                     
7PESE                                                                                000000000010000                            
50000510201111172011111829060137506975       PES0000010000A080062011111711020120                                                
6024600010000113282906013750697500030000000                                                                                     
7PESE                                                                                000000000010000                            
50000610201111172011111829060318413007       PES0000010000A053052011111711270021                                                
6024600010000113282906031841300700030000079                                                                                     
7PESE                                                                                000000000010000                            
50000710201111172011111800573728741799       PES0000022000A042592011111710140010                                                
6024600022000113220057372874179900000000057                                                                                     
7PESE                                                                                000000000022000                            
50000810201111172011111800572523892211       PES0000022000A101012011111716250136                                                
6024600022000113230057252389221100000000037                                                                                     
7PESE                                                                                000000000022000                            
50000910201111172011111800572718148089       PES0000022000A090612011111715490076                                                
6024600022000113230057271814808900000000078                                                                                     
7PESE                                                                                000000000022000                            
50001010201111172011111800573537932198       PES0000022000A025662011111717130173                                                
6024600022000113230057353793219800000000084                                                                                     
7PESE                                                                                000000000022000                            
50001110201111172011111800573726729176       PES0000022000A042592011111709100007                                                
6024600022000113230057372672917600000000063                                                                                     
7PESE                                                                                000000000022000                            
50001210201111172011111800582523375194       PES0000022500A044382011111717270019                                                
6024600022500113270058252337519400025000099                                                                                     
7PESE                                                                                000000000022500                            
50001310201111172011111801300812950326       PES0000040000A070822011111718240115                                                
6024600040000113210130081295032600000000063                                                                                     
7PESE                                                                                000000000040000                            
50001410201111172011111801301430198339       PES0000040000A085352011111720000365                                                
6024600040000113210130143019833900000000000                                                                                     
7PESE                                                                                000000000040000                            
50001510201111172011111801301622768056       PES0000040000A094892011111720540328                                                
6024600040000113210130162276805600000000042                                                                                     
7PESE                                                                                000000000040000                            
50001610201111172011111801301625044083       PES0000040000A025172011111716240013                                                
6024600040000113210130162504408300000000058                                                                                     
7PESE                                                                                000000000040000                            
50001710201111172011111801301625397885       PES0000040000A093592011111711210011                                                
6024600040000113210130162539788500000000042                                                                                     
7PESE                                                                                000000000040000                            
50001810201111172011111801301814976437       PES0000040000M600172011111715030115                                                
6024600040000113210130181497643700000000015                                                                                     
7PESE                                                                                000000000040000                            
50001910201111172011111801301816179315       PES0000040000A092102011111710540056                                                
6024600040000113210130181617931500000000063                                                                                     
7PESE                                                                                000000000040000                            
50002010201111172011111801301912321767       PES0000040000A047512011111721030209                                                
6024600040000113210130191232176700000000037                                                                                     
7PESE                                                                                000000000040000                            
50002110201111172011111801302010777768       PES0000040000A047812011111712110104                                                
6024600040000113210130201077776800000000058                                                                                     
7PESE                                                                                000000000040000                            
50002210201111172011111801301526753583       PES0000040000D001512011111710280038                                                
6024600040000113220130152675358300000000042                                                                                     
7PESE                                                                                000000000040000                            
50002310201111172011111801301526725703       PES0000040000A083222011111709340003                                                
6024600040000113260130152672570300000000084                                                                                     
7PESE                                                                                000000000040000                            
50002410201111172011111801301722303353       PES0000040000A088622011111712010071                                                
6024600040000113270130172230335300000000016                                                                                     
7PESE                                                                                000000000040000                            
50002510201111172011111801301722598249       PES0000040000A002542011111712450138                                                
6024600040000113270130172259824900000000037                                                                                     
7PESE                                                                                000000000040000                            
50002610201111172011111801300912277254       PES0000040000M601252011111711420055                                                
6024600040000113280130091227725400000000042                                                                                     
7PESE                                                                                000000000040000                            
50002710201111172011111801302012472095       PES0000040000M601252011111711420054                                                
6024600040000113280130201247209500000000090                                                                                     
7PESE                                                                                000000000040000                            
82011111800000100000270000008205000000000000000000000000000000000000000000027                                                   
9201111180000010000027000000820500000000000000000000000000000000000000000000027                                                 
