120120618PAGO FACIL               090060246FABIAN NORBERTO D´ERAMO                                                              
320120618000001FABIAN NORBERTO D´ERAMO                                                                                          
50000110201206152012061802373339867057       PES0000020000A052842012061510340117                                                
6024600020000121670237333986705700000000000                                                                                     
7PESE                                                                                000000000020000                            
50000210201206152012061802372920987379       PES0000030000A051222012061513040159                                                
6024600030000121670237292098737900000000015                                                                                     
7PESE                                                                                000000000030000                            
50000310201206152012061802370234818160       PES0000030000A076112012061510590004                                                
6024600030000121670237023481816000000000037                                                                                     
7PESE                                                                                000000000030000                            
50000410201206152012061899030137206177       PES0000046500A057612012061517380206                                                
6024600046500121679903013720617700025000721                                                                                     
7PESE                                                                                000000000046500                            
50000510201206152012061899030134600312       PES0000046500A104232012061518120263                                                
6024600046500121679903013460031200025000716                                                                                     
7PESE                                                                                000000000046500                            
50000610201206152012061802373338706044       PES0000020000A054272012061519250300                                                
6024600020000121670237333870604400000000063                                                                                     
7PESE                                                                                000000000020000                            
50000710201206152012061802371426372898       PES0000020000L070232012061512378258                                                
6024600020000121670237142637289800000000042                                                                                     
7PESE                                                                                000000000020000                            
50000810201206152012061857001321132474       PES0000012000A103902012061515310127                                                
6024600012000121675700132113247400010000763                                                                                     
7PESE                                                                                000000000012000                            
50000910201206152012061857001226997442       PES0000012000A103902012061515310128                                                
6024600012000121675700122699744200010000715                                                                                     
7PESE                                                                                000000000012000                            
50001010201206152012061857002120331148       PES0000009000A103902012061518150185                                                
6024600009000121675700212033114800010000036                                                                                     
7PESE                                                                                000000000009000                            
50001110201206152012061857002116168548       PES0000009000A103902012061518150186                                                
6024600009000121675700211616854800010000037                                                                                     
7PESE                                                                                000000000009000                            
82012061800000100000110000002550000000000000000000000000000000000000000000011                                                   
9201206180000010000011000000255000000000000000000000000000000000000000000000011                                                 
