120121218PAGO FACIL               090060246FABIAN NORBERTO D´ERAMO                                                              
320121218000001FABIAN NORBERTO D´ERAMO                                                                                          
50000110201212172012121873000348814806       PES0000009500A052412012121717130014                                                
6024600009500123567300034881480600000000063                                                                                     
7PESE                                                                                000000000009500                            
50000210201212172012121873000350239504       PES0000009500A052412012121717130015                                                
6024600009500123567300035023950400000000099                                                                                     
7PESE                                                                                000000000009500                            
50000310201212172012121829080228165804       PES0000018000D001622012121712510112                                                
6024600018000123512908022816580400000000000                                                                                     
7PESE                                                                                000000000018000                            
50000410201212172012121829080728864527       PES0000018000A117132012121715050352                                                
6024600018000123522908072886452700000000015                                                                                     
7PESE                                                                                000000000018000                            
50000510201212172012121829080226316995       PES0000018000A116962012121712410109                                                
6024600018000123552908022631699500000000037                                                                                     
7PESE                                                                                000000000018000                            
50000610201212172012121829080229053622       PES0000018000A075692012121714190098                                                
6024600018000123552908022905362200000000000                                                                                     
7PESE                                                                                000000000018000                            
50000710201212172012121829080320410447       PES0000018000A116962012121712420110                                                
6024600018000123552908032041044700000000042                                                                                     
7PESE                                                                                000000000018000                            
50000810201212172012121829080728936935       PES0000018000A097432012121708270001                                                
6024600018000123552908072893693500000000000                                                                                     
7PESE                                                                                000000000018000                            
50000910201212172012121829080729800861       PES0000018000A116962012121712420111                                                
6024600018000123552908072980086100000000042                                                                                     
7PESE                                                                                000000000018000                            
50001010201212172012121829081413214544       PES0000025000A090052012121719400001                                                
6024600025000123592908141321454400000000042                                                                                     
7PESE                                                                                000000000025000                            
50001110201212172012121802422622470496       PES0000028000A057612012121712030160                                                
6024600028000123520242262247049600070000084                                                                                     
7PESE                                                                                000000000028000                            
50001210201212172012121802422620956662       PES0000028000A075362012121709370054                                                
6024600028000123550242262095666200070000000                                                                                     
7PESE                                                                                000000000028000                            
50001310201212172012121802423518093655       PES0000028000A065362012121715150001                                                
6024600028000123550242351809365500070000215                                                                                     
7PESE                                                                                000000000028000                            
50001410201212172012121802420522436248       PES0000040000A112382012121716000018                                                
6024600040000123520242052243624800075000000                                                                                     
7PESE                                                                                000000000040000                            
50001510201212172012121802420618588343       PES0000040000A039102012121712360289                                                
6024600040000123520242061858834300075000090                                                                                     
7PESE                                                                                000000000040000                            
50001610201212172012121802421521730459       PES0000040000M600852012121709500024                                                
6024600040000123520242152173045900075000042                                                                                     
7PESE                                                                                000000000040000                            
50001710201212172012121802421522182052       PES0000040000A039102012121712360288                                                
6024600040000123520242152218205200075000037                                                                                     
7PESE                                                                                000000000040000                            
50001810201212172012121802420231303579       PES0000040000A088622012121718590419                                                
6024600040000123550242023130357900075000400                                                                                     
7PESE                                                                                000000000040000                            
50001910201212172012121802420231529236       PES0000040000A109902012121714040111                                                
6024600040000123550242023152923600075000421                                                                                     
7PESE                                                                                000000000040000                            
50002010201212172012121802420327311770       PES0000040000M601972012121716210028                                                
6024600040000123550242032731177000075000484                                                                                     
7PESE                                                                                000000000040000                            
50002110201212172012121802420425744995       PES0000040000D001712012121717220102                                                
6024600040000123550242042574499500075000400                                                                                     
7PESE                                                                                000000000040000                            
50002210201212172012121802420521850429       PES0000040000A056252012121713010165                                                
6024600040000123550242052185042900075000421                                                                                     
7PESE                                                                                000000000040000                            
50002310201212172012121802420522635583       PES0000040000A600652012121712410016                                                
6024600040000123550242052263558300075000442                                                                                     
7PESE                                                                                000000000040000                            
50002410201212172012121802420618154550       PES0000040000A091142012121709570042                                                
6024600040000123550242061815455000075000121                                                                                     
7PESE                                                                                000000000040000                            
82012121800000100000240000006940000000000000000000000000000000000000000000024                                                   
9201212180000010000024000000694000000000000000000000000000000000000000000000024                                                 
