120120919PAGO FACIL               090060246FABIAN NORBERTO D´ERAMO                                                              
320120919000001FABIAN NORBERTO D´ERAMO                                                                                          
50000110201209182012091900712234507498       PES0000029000A058512012091717220114                                                
6024600029000122660071223450749800035000063                                                                                     
7PESE                                                                                000000000029000                            
50000210201209182012091901320423362363       PES0000045000A601492012091710060001                                                
6024600045000122600132042336236300050000536                                                                                     
7PESE                                                                                000000000045000                            
50000310201209182012091900714740643436       PES0000009000A071862012091815250085                                                
6024600009000122620071474064343600025000036                                                                                     
7PESE                                                                                000000000009000                            
50000410201209182012091900714743175232       PES0000009000A028962012091812550152                                                
6024600009000122630071474317523200025000099                                                                                     
7PESE                                                                                000000000009000                            
50000510201209182012091965000218532445       PES0000013000A108512012091818090037                                                
6024600013000122676500021853244500015000000                                                                                     
7PESE                                                                                000000000013000                            
50000610201209182012091965000524431824       PES0000013000A108512012091818090036                                                
6024600013000122676500052443182400015000015                                                                                     
7PESE                                                                                000000000013000                            
50000710201209182012091970000911606791       PES0000013000A052932012091816150029                                                
6024600013000122697000091160679100010000063                                                                                     
7PESE                                                                                000000000013000                            
50000810201209182012091929081323006035       PES0000020000M600092012091814010161                                                
6024600020000122692908132300603500030000016                                                                                     
7PESE                                                                                000000000020000                            
50000910201209182012091900713916792801       PES0000029000A076812012091811170098                                                
6024600029000122620071391679280100035000042                                                                                     
7PESE                                                                                000000000029000                            
50001010201209182012091900714139628994       PES0000029000A076812012091811170097                                                
6024600029000122620071413962899400035000037                                                                                     
7PESE                                                                                000000000029000                            
50001110201209182012091900710925744381       PES0000029000A602242012091811580074                                                
6024600029000122640071092574438100035000016                                                                                     
7PESE                                                                                000000000029000                            
50001210201209182012091900711238155116       PES0000029000A014502012091820280209                                                
6024600029000122640071123815511600035000021                                                                                     
7PESE                                                                                000000000029000                            
50001310201209182012091900712426725742       PES0000029000D000722012091810490032                                                
6024600029000122640071242672574200035000090                                                                                     
7PESE                                                                                000000000029000                            
50001410201209182012091900712816137505       PES0000029000A031212012091811210138                                                
6024600029000122650071281613750500035000037                                                                                     
7PESE                                                                                000000000029000                            
50001510201209182012091900714235866296       PES0000029000A043122012091811050108                                                
6024600029000122680071423586629600035000042                                                                                     
7PESE                                                                                000000000029000                            
50001610201209182012091917030128129947       PES0000030000A085662012091810410043                                                
6024600030000122631703012812994700000000016                                                                                     
7PESE                                                                                000000000030000                            
50001710201209182012091900723138407880       PES0000035000A116222012091811140033                                                
6024600035000122670072313840788000025000000                                                                                     
7PESE                                                                                000000000035000                            
50001810201209182012091901320521997024       PES0000050000D000982012091819500115                                                
6024600045000122600132052199702400050000678                                                                                     
7PESE                                                                                000000000050000                            
50001910201209182012091901320618212585       PES0000050000M601812012091810290028                                                
6024600045000122600132061821258500050000336                                                                                     
7PESE                                                                                000000000050000                            
50002010201209182012091901320618283939       PES0000050000A601902012091811520045                                                
6024600045000122600132061828393900050000342                                                                                     
7PESE                                                                                000000000050000                            
50002110201209182012091901320328984483       PES0000050000A082642012091816200079                                                
6024600050000122660132032898448300000000090                                                                                     
7PESE                                                                                000000000050000                            
50002210201209182012091901320520988912       PES0000050000A100002012091817300224                                                
6024600050000122660132052098891200000000021                                                                                     
7PESE                                                                                000000000050000                            
50002310201209182012091901322224022430       PES0000050000A108312012091812230144                                                
6024600050000122660132222402243000000000016                                                                                     
7PESE                                                                                000000000050000                            
82012091900000100000230000007190000000000000000000000000000000000000000000023                                                   
9201209190000010000023000000719000000000000000000000000000000000000000000000023                                                 
