120121019PAGO FACIL               090060246FABIAN NORBERTO D´ERAMO                                                              
320121019000001FABIAN NORBERTO D´ERAMO                                                                                          
50000110201210182012101952010717148105       PES0000010000A016922012101814330032                                                
6024600010000122965201071714810500010000078                                                                                     
7PESE                                                                                000000000010000                            
50000210201210182012101970000911689853       PES0000013000A660502012101811550050                                                
6024600013000122897000091168985300000000521                                                                                     
7PESE                                                                                000000000013000                            
50000310201210182012101965000132006135       PES0000013000A015142012101809400022                                                
6024600013000122946500013200613500000000390                                                                                     
7PESE                                                                                000000000013000                            
50000410201210182012101965000217148105       PES0000013000A016922012101814330033                                                
6024600013000122946500021714810500015000284                                                                                     
7PESE                                                                                000000000013000                            
50000510201210182012101965000430846730       PES0000013000A095852012101813160131                                                
6024600013000122946500043084673000000000484                                                                                     
7PESE                                                                                000000000013000                            
50000610201210182012101918400428686874       PES0000025000A085792012101810320031                                                
6024600025000122961840042868687400000000090                                                                                     
7PESE                                                                                000000000025000                            
50000710201210182012101918402721486416       PES0000025000A065362012101819240042                                                
6024600025000122981840272148641600000000021                                                                                     
7PESE                                                                                000000000025000                            
50000810201210182012101999040137905221       PES0000032000A011402012101818090168                                                
6024600032000122999904013790522100000000021                                                                                     
7PESE                                                                                000000000032000                            
50000910201210182012101900713443242539       PES0000032500A601542012101814090035                                                
6024600032500122920071344324253900000000042                                                                                     
7PESE                                                                                000000000032500                            
50001010201210182012101900714330264480       PES0000032500A069512012101812020054                                                
6024600032500122930071433026448000000000037                                                                                     
7PESE                                                                                000000000032500                            
50001110201210182012101900712139245161       PES0000032500A090072012101818380098                                                
6024600032500122970071213924516100000000084                                                                                     
7PESE                                                                                000000000032500                            
50001210201210182012101900713823087586       PES0000032500A091472012101815570270                                                
6024600032500122970071382308758600000000042                                                                                     
7PESE                                                                                000000000032500                            
50001310201210182012101900712330736873       PES0000032500A044382012101809280021                                                
6024600032500122980071233073687300000000042                                                                                     
7PESE                                                                                000000000032500                            
50001410201210182012101900712911849493       PES0000032500A100712012101814510171                                                
6024600032500122980071291184949300000000063                                                                                     
7PESE                                                                                000000000032500                            
50001510201210182012101900714138925915       PES0000032500A054392012101816580078                                                
6024600032500122980071413892591500000000058                                                                                     
7PESE                                                                                000000000032500                            
50001610201210182012101900712429840917       PES0000032500A093992012101818010049                                                
6024600032500122990071242984091700000000063                                                                                     
7PESE                                                                                000000000032500                            
50001710201210182012101900714138926097       PES0000032500A054392012101816580079                                                
6024600032500122990071413892609700000000000                                                                                     
7PESE                                                                                000000000032500                            
50001810201210182012101900714611903418       PES0000032500A070462012101818120156                                                
6024600032500122990071461190341800000000078                                                                                     
7PESE                                                                                000000000032500                            
50001910201210182012101900720424754431       PES0000047500A087742012101819360187                                                
6024600047500122920072042475443100000000000                                                                                     
7PESE                                                                                000000000047500                            
50002010201210182012101900720618283939       PES0000047500A076112012101815440069                                                
6024600047500122920072061828393900000000099                                                                                     
7PESE                                                                                000000000047500                            
50002110201210182012101900720137245882       PES0000047500A078112012101814420035                                                
6024600047500122970072013724588200000000042                                                                                     
7PESE                                                                                000000000047500                            
50002210201210182012101900720327131105       PES0000047500M620132012101816320064                                                
6024600047500122970072032713110500000000016                                                                                     
7PESE                                                                                000000000047500                            
50002310201210182012101900720327819491       PES0000047500A025872012101817200196                                                
6024600047500122970072032781949100000000021                                                                                     
7PESE                                                                                000000000047500                            
50002410201210182012101999030133380040       PES0000049000A036692012101819170119                                                
6024600049000122989903013338004000000000057                                                                                     
7PESE                                                                                000000000049000                            
50002510201210182012101901330425404423       PES0000052000A028382012101809370016                                                
6024600052000122970133042540442300080000000                                                                                     
7PESE                                                                                000000000052000                            
50002610201210182012101901331230557113       PES0000052000A043132012101812280017                                                
6024600052000122970133123055711300080000079                                                                                     
7PESE                                                                                000000000052000                            
50002710201210182012101901331522915095       PES0000052000A115442012101812140011                                                
6024600052000122980133152291509500080000063                                                                                     
7PESE                                                                                000000000052000                            
50002810201210182012101960000622778855       PES0000085000A093442012101812000078                                                
6024600085000122976000062277885500000000021                                                                                     
7PESE                                                                                000000000085000                            
82012101900000100000280000009965000000000000000000000000000000000000000000028                                                   
9201210190000010000028000000996500000000000000000000000000000000000000000000028                                                 
