120110719PAGO FACIL               090060246FABIAN NORBERTO D´ERAMO                                                              
320110719000001FABIAN NORBERTO D´ERAMO                                                                                          
50000110201107182011071900501429517788       PES0000015500A063662011071519250232                                                
6024600015500111990050142951778800090000221                                                                                     
7PESE                                                                                000000000015500                            
50000210201107182011071900502524243469       PES0000015500A063662011071519250233                                                
6024600015500111990050252424346900090000284                                                                                     
7PESE                                                                                000000000015500                            
50000310201107182011071900501914958625       PES0000015500A027992011071612530093                                                
6024600015500111990050191495862500090000278                                                                                     
7PESE                                                                                000000000015500                            
50000410201107182011071900502522963407       PES0000015500A063842011071611150072                                                
6024600015500111990050252296340700090000342                                                                                     
7PESE                                                                                000000000015500                            
50000510201107182011071900500825998004       PES0000015500A027192011071809480085                                                
6024600015500111990050082599800400090000284                                                                                     
7PESE                                                                                000000000015500                            
50000610201107182011071900501018291538       PES0000015500A098602011071812460025                                                
6024600015500111990050101829153800090000221                                                                                     
7PESE                                                                                000000000015500                            
50000710201107182011071900501110428619       PES0000015500A048732011071812580232                                                
6024600015500111990050111042861900090000363                                                                                     
7PESE                                                                                000000000015500                            
50000810201107182011071900501430468006       PES0000015500A007492011071817250023                                                
6024600015500111990050143046800600090000784                                                                                     
7PESE                                                                                000000000015500                            
50000910201107182011071900501913604405       PES0000015500A103702011071814100012                                                
6024600015500111990050191360440500090000463                                                                                     
7PESE                                                                                000000000015500                            
50001010201107182011071900502427619898       PES0000015500A105252011071808580012                                                
6024600015500111990050242761989800090000299                                                                                     
7PESE                                                                                000000000015500                            
50001110201107182011071900502522826277       PES0000015500A028162011071812350054                                                
6024600015500111990050252282627700090000799                                                                                     
7PESE                                                                                000000000015500                            
50001210201107182011071900502523414061       PES0000015500D000302011071810160038                                                
6024600015500111990050252341406100090000257                                                                                     
7PESE                                                                                000000000015500                            
50001310201107182011071900502523687452       PES0000015500A048332011071810460052                                                
6024600015500111990050252368745200090000721                                                                                     
7PESE                                                                                000000000015500                            
50001410201107182011071900502620203179       PES0000015500A075362011071814080029                                                
6024600015500111990050262020317900090000342                                                                                     
7PESE                                                                                000000000015500                            
50001510201107182011071900502717569612       PES0000015500A105252011071808580013                                                
6024600015500111990050271756961200090000284                                                                                     
7PESE                                                                                000000000015500                            
50001610201107182011071900502717708138       PES0000015500A105962011071810580023                                                
6024600015500111990050271770813800090000284                                                                                     
7PESE                                                                                000000000015500                            
50001710201107182011071900502813899666       PES0000015500A025052011071818170069                                                
6024600015500111990050281389966600090000221                                                                                     
7PESE                                                                                000000000015500                            
50001810201107182011071900502814447208       PES0000015500L120202011071815097562                                                
6024600015500111990050281444720800090000763                                                                                     
7PESE                                                                                000000000015500                            
50001910201107182011071900503634777498       PES0000015500A025052011071818170068                                                
6024600015500111990050363477749800090000742                                                                                     
7PESE                                                                                000000000015500                            
50002010201107182011071900503729150728       PES0000015500A092142011071812580204                                                
6024600015500111990050372915072800090000236                                                                                     
7PESE                                                                                000000000015500                            
50002110201107182011071900503820737477       PES0000015500A068642011071818120003                                                
6024600015500111990050382073747700090000257                                                                                     
7PESE                                                                                000000000015500                            
50002210201107182011071900504421478782       PES0000015500A028642011071811070043                                                
6024600015500111990050442147878200090000221                                                                                     
7PESE                                                                                000000000015500                            
50002310201107182011071900504516626308       PES0000015500A077352011071814260039                                                
6024600015500111990050451662630800090000363                                                                                     
7PESE                                                                                000000000015500                            
50002410201107182011071917020620194164       PES0000016000A640192011071817080018                                                
6024600016000112001702062019416400040000078                                                                                     
7PESE                                                                                000000000016000                            
50002510201107182011071917020717310134       PES0000016000A061432011071818350136                                                
6024600016000112001702071731013400040000021                                                                                     
7PESE                                                                                000000000016000                            
50002610201107182011071900540234142652       PES0000025500A057612011071810530038                                                
6024600025500111990054023414265200015000563                                                                                     
7PESE                                                                                000000000025500                            
50002710201107182011071900540135755195       PES0000059000L020252011071813517049                                                
6024600059000112010054013575519500000000090                                                                                     
7PESE                                                                                000000000059000                            
82011071900000100000270000004730000000000000000000000000000000000000000000027                                                   
9201107190000010000027000000473000000000000000000000000000000000000000000000027                                                 
