120120720PAGO FACIL               090060246FABIAN NORBERTO D´ERAMO                                                              
320120720000001FABIAN NORBERTO D´ERAMO                                                                                          
50000110201207192012072059000517200550       PES0000016000A620442012071911220009                                                
6024600016000122075900051720055000000000099                                                                                     
7PESE                                                                                000000000016000                            
50000210201207192012072017031424071616       PES0000025000A640192012071911570044                                                
6024600025000122071703142407161600050000037                                                                                     
7PESE                                                                                000000000025000                            
50000310201207192012072017031426907171       PES0000025000A640192012071908370004                                                
6024600025000122071703142690717100050000037                                                                                     
7PESE                                                                                000000000025000                            
50000410201207192012072000540229247865       PES0000026000A091592012071915540283                                                
6024600026000122020054022924786500010000663                                                                                     
7PESE                                                                                000000000026000                            
50000510201207192012072000540237357940       PES0000026000A089982012071914080235                                                
6024600026000122020054023735794000010000463                                                                                     
7PESE                                                                                000000000026000                            
50000610201207192012072000540131773438       PES0000076000L020332012071910450468                                                
6024600076000122020054013177343800000000316                                                                                     
7PESE                                                                                000000000076000                            
82012072000000100000060000001940000000000000000000000000000000000000000000006                                                   
9201207200000010000006000000194000000000000000000000000000000000000000000000006                                                 
