120110920PAGO FACIL               090060246FABIAN NORBERTO D´ERAMO                                                              
320110920000001FABIAN NORBERTO D´ERAMO                                                                                          
50000110201109192011092018321238407880       PES0000015000A017262011091612340087                                                
6024600015000112601832123840788000000000042                                                                                     
7PESE                                                                                000000000015000                            
50000210201109192011092017020622422133       PES0000020000A046102011091711070154                                                
6024600020000112641702062242213300000000042                                                                                     
7PESE                                                                                000000000020000                            
50000310201109192011092000540434142652       PES0000017500A090542011091913230061                                                
6024600017500112630054043414265200015000516                                                                                     
7PESE                                                                                000000000017500                            
50000410201109192011092000540436943330       PES0000017500A088552011091917540060                                                
6024600017500112630054043694333000015000542                                                                                     
7PESE                                                                                000000000017500                            
50000510201109192011092017020428415425       PES0000020000A097922011091917260248                                                
6024600020000112621702042841542500000000021                                                                                     
7PESE                                                                                000000000020000                            
50000610201109192011092017020137154637       PES0000020000L071252011091909143512                                                
6024600020000112641702013715463700000000000                                                                                     
7PESE                                                                                000000000020000                            
50000710201109192011092017020236581230       PES0000020000A094492011091911480048                                                
6024600020000112641702023658123000000000236                                                                                     
7PESE                                                                                000000000020000                            
50000810201109192011092017020332653590       PES0000020000A060922011091911340023                                                
6024600020000112641702033265359000000000042                                                                                     
7PESE                                                                                000000000020000                            
50000910201109192011092017020522534111       PES0000020000A640192011091909590027                                                
6024600020000112641702052253411100000000057                                                                                     
7PESE                                                                                000000000020000                            
50001010201109192011092017020525388638       PES0000020000A064022011091909020013                                                
6024600020000112641702052538863800000000057                                                                                     
7PESE                                                                                000000000020000                            
50001110201109192011092017020716445025       PES0000020000A103192011091908410001                                                
6024600020000112641702071644502500000000063                                                                                     
7PESE                                                                                000000000020000                            
50001210201109192011092017021135070700       PES0000020000A085192011091918480197                                                
6024600020000112641702113507070000000000057                                                                                     
7PESE                                                                                000000000020000                            
50001310201109192011092017021314510381       PES0000020000A085192011091918490198                                                
6024600020000112641702131451038100000000079                                                                                     
7PESE                                                                                000000000020000                            
50001410201109192011092017021321531845       PES0000020000A082742011091910200075                                                
6024600020000112641702132153184500000000021                                                                                     
7PESE                                                                                000000000020000                            
50001510201109192011092000501817203262       PES0000024500M600282011091915440331                                                
6024600024500112620050181720326200030000058                                                                                     
7PESE                                                                                000000000024500                            
50001610201109192011092000502426894641       PES0000024500A080402011091916410005                                                
6024600024500112620050242689464100030000037                                                                                     
7PESE                                                                                000000000024500                            
50001710201109192011092000504303258318       PES0000024500A082002011091917060042                                                
6024600024500112620050430325831800030000084                                                                                     
7PESE                                                                                000000000024500                            
50001810201109192011092000502524561523       PES0000024500A093812011091918120317                                                
6024600024500112650050252456152300030000058                                                                                     
7PESE                                                                                000000000024500                            
50001910201109192011092000502621480120       PES0000024500A033762011091911150074                                                
6024600024500112650050262148012000030000099                                                                                     
7PESE                                                                                000000000024500                            
50002010201109192011092000502233410547       PES0000024500A068912011091912190149                                                
6024600024500112660050223341054700030000078                                                                                     
7PESE                                                                                000000000024500                            
50002110201109192011092000504421763642       PES0000024500A025172011091910310039                                                
6024600024500112670050442176364200030000063                                                                                     
7PESE                                                                                000000000024500                            
50002210201109192011092000502329906525       PES0000024500D000182011091911490117                                                
6024600024500112680050232990652500030000000                                                                                     
7PESE                                                                                000000000024500                            
50002310201109192011092000502524308655       PES0000024500A092162011091914500183                                                
6024600024500112680050252430865500030000090                                                                                     
7PESE                                                                                000000000024500                            
50002410201109192011092000503634653499       PES0000024500A011012011091910190075                                                
6024600024500112680050363465349900030000037                                                                                     
7PESE                                                                                000000000024500                            
50002510201109192011092000504136872499       PES0000024500A085342011091912200169                                                
6024600024500112680050413687249900030000063                                                                                     
7PESE                                                                                000000000024500                            
50002610201109192011092000504423463409       PES0000024500A076782011091918000118                                                
6024600024500112690050442346340900030000021                                                                                     
7PESE                                                                                000000000024500                            
50002710201109192011092001280230698728       PES0000036500A042592011091912180010                                                
6024600036500112600128023069872800000000063                                                                                     
7PESE                                                                                000000000036500                            
50002810201109192011092001280385192810       PES0000036500D000562011091917500249                                                
6024600036500112600128038519281000000000036                                                                                     
7PESE                                                                                000000000036500                            
50002910201109192011092001280617035989       PES0000036500A032962011091918060153                                                
6024600036500112600128061703598900000000063                                                                                     
7PESE                                                                                000000000036500                            
50003010201109192011092000530326316294       PES0000038500A104232011091917290128                                                
6024600038500112640053032631629400010000037                                                                                     
7PESE                                                                                000000000038500                            
50003110201109192011092000530328231969       PES0000038500A104232011091917290127                                                
6024600038500112660053032823196900010000078                                                                                     
7PESE                                                                                000000000038500                            
82011092000000100000310000007505000000000000000000000000000000000000000000031                                                   
9201109200000010000031000000750500000000000000000000000000000000000000000000031                                                 
