120111220PAGO FACIL               090060246FABIAN NORBERTO D´ERAMO                                                              
320111220000001FABIAN NORBERTO D´ERAMO                                                                                          
50000110201112192011122053000514524460       PES0000009000A101172011121913410127                                                
6024600009000113575300051452446000020000357                                                                                     
7PESE                                                                                000000000009000                            
50000210201112192011122000612620948007       PES0000012000A045312011121917260087                                                
6024600012000113530061262094800700020000058                                                                                     
7PESE                                                                                000000000012000                            
50000310201112192011122000613108093434       PES0000012000A109902011121909190006                                                
6024600012000113530061310809343400020000000                                                                                     
7PESE                                                                                000000000012000                            
50000410201112192011122000612012102159       PES0000012000A103662011121910160041                                                
6024600012000113540061201210215900020000042                                                                                     
7PESE                                                                                000000000012000                            
50000510201112192011122000612522724084       PES0000012000A075132011121917270182                                                
6024600012000113540061252272408400020000099                                                                                     
7PESE                                                                                000000000012000                            
50000610201112192011122000612716940996       PES0000012000A028382011121912370181                                                
6024600012000113540061271694099600020000090                                                                                     
7PESE                                                                                000000000012000                            
50000710201112192011122000612523687452       PES0000012000A109052011121912230137                                                
6024600012000113550061252368745200020000000                                                                                     
7PESE                                                                                000000000012000                            
50000810201112192011122000612813527653       PES0000012000A072902011121909330026                                                
6024600012000113550061281352765300020000090                                                                                     
7PESE                                                                                000000000012000                            
50000910201112192011122000612525176555       PES0000012000A071012011121917130027                                                
6024600012000113560061252517655500020000021                                                                                     
7PESE                                                                                000000000012000                            
50001010201112192011122000612717100275       PES0000012000A088612011121919220200                                                
6024600012000113560061271710027500020000042                                                                                     
7PESE                                                                                000000000012000                            
50001110201112192011122000610229055340       PES0000012000A017122011121910400139                                                
6024600012000113590061022905534000020000000                                                                                     
7PESE                                                                                000000000012000                            
50001210201112192011122029060223105070       PES0000013000A068912011121910030058                                                
6024600013000113542906022310507000000000079                                                                                     
7PESE                                                                                000000000013000                            
50001310201112192011122029060223006035       PES0000013000A075692011121914500055                                                
6024600013000113552906022300603500000000000                                                                                     
7PESE                                                                                000000000013000                            
50001410201112192011122029060411345086       PES0000013000A063842011121913540373                                                
6024600013000113602906041134508600000000057                                                                                     
7PESE                                                                                000000000013000                            
50001510201112192011122000600135229160       PES0000019000A032962011121915380032                                                
6024600019000113580060013522916000060000090                                                                                     
7PESE                                                                                000000000019000                            
50001610201112192011122018360522840735       PES0000020000A104702011121920290152                                                
6024600020000113571836052284073500000000016                                                                                     
7PESE                                                                                000000000020000                            
50001710201112192011122018360522840928       PES0000020000M620412011121910200008                                                
6024600020000113571836052284092800000000063                                                                                     
7PESE                                                                                000000000020000                            
50001810201112192011122023060727198291       PES0000076800A046612011121917470104                                                
6024600076800113562306072719829100192000415                                                                                     
7PESE                                                                                000000000076800                            
50001910201112192011122023060935491921       PES0000076800A043122011121910290066                                                
6024600076800113562306093549192100192000416                                                                                     
7PESE                                                                                000000000076800                            
50002010201112192011122023061020484875       PES0000076800A082902011121919080007                                                
6024600076800113562306102048487500192000321                                                                                     
7PESE                                                                                000000000076800                            
50002110201112192011122023061520427349       PES0000108800A105152011121913330150                                                
6024600085400113492306152042734900234000563                                                                                     
7PESE                                                                                000000000108800                            
50002210201112192011122023061238793029       PES0000085400L070662011121911148279                                                
6024600085400113562306123879302900234000336                                                                                     
7PESE                                                                                000000000085400                            
50002310201112192011122023061327185192       PES0000085400A051302011121911020241                                                
6024600085400113562306132718519200234000137                                                                                     
7PESE                                                                                000000000085400                            
50002410201112192011122023061592677379       PES0000085400L070662011121911148280                                                
6024600085400113562306159267737900234000336                                                                                     
7PESE                                                                                000000000085400                            
82011122000000100000240000008224000000000000000000000000000000000000000000024                                                   
9201112200000010000024000000822400000000000000000000000000000000000000000000024                                                 
