120121120PAGO FACIL               090060246FABIAN NORBERTO D´ERAMO                                                              
320121120000001FABIAN NORBERTO D´ERAMO                                                                                          
50000110201211192012112072000530034297       PES0000009000A102362012111918310159                                                
6024600009000123297200053003429700000000078                                                                                     
7PESE                                                                                000000000009000                            
50000210201211192012112059010131992398       PES0000011000M620002012111914330106                                                
6024600011000123265901013199239800000000036                                                                                     
7PESE                                                                                000000000011000                            
50000310201211192012112072000326442056       PES0000012000L070682012111910243706                                                
6024600012000123297200032644205600000000016                                                                                     
7PESE                                                                                000000000012000                            
50000410201211192012112072000327404249       PES0000012000L071292012111919112793                                                
6024600012000123297200032740424900000000084                                                                                     
7PESE                                                                                000000000012000                            
50000510201211192012112072000331985731       PES0000012000A100012012111918460144                                                
6024600012000123297200033198573100000000063                                                                                     
7PESE                                                                                000000000012000                            
50000610201211192012112073000225583099       PES0000012000A065702012111912200223                                                
6024600012000123307300022558309900030000063                                                                                     
7PESE                                                                                000000000012000                            
50000710201211192012112029080412677067       PES0000015000D000562012111914060187                                                
6024600015000123262908041267706700030000084                                                                                     
7PESE                                                                                000000000015000                            
50000810201211192012112057010133571171       PES0000015000A085792012111909470013                                                
6024600015000123285701013357117100000000000                                                                                     
7PESE                                                                                000000000015000                            
50000910201211192012112072000216757113       PES0000016000L071292012111919122795                                                
6024600016000123267200021675711300000000058                                                                                     
7PESE                                                                                000000000016000                            
50001010201211192012112072000216533507       PES0000016000L071292012111912212711                                                
6024600016000123297200021653350700000000037                                                                                     
7PESE                                                                                000000000016000                            
50001110201211192012112072000229110347       PES0000016000L071292012111912222712                                                
6024600016000123297200022911034700000000063                                                                                     
7PESE                                                                                000000000016000                            
50001210201211192012112069012718333694       PES0000017500M620162012111916310016                                                
6024600017500123296901271833369400025000000                                                                                     
7PESE                                                                                000000000017500                            
50001310201211192012112018410817901826       PES0000025000A117592012111911510101                                                
6024600025000123281841081790182600000000079                                                                                     
7PESE                                                                                000000000025000                            
50001410201211192012112000771431697792       PES0000025500A040462012111911100247                                                
6024600025500123310077143169779200030000078                                                                                     
7PESE                                                                                000000000025500                            
50001510201211192012112099030234929847       PES0000043000A090722012111912130171                                                
6024600043000123319903023492984700000000042                                                                                     
7PESE                                                                                000000000043000                            
50001610201211192012112099030121903716       PES0000049000A024432012111919160200                                                
6024600046500123209903012190371600025000500                                                                                     
7PESE                                                                                000000000049000                            
50001710201211192012112099030135755065       PES0000049000A024632012111909370128                                                
6024600049000123319903013575506500000000058                                                                                     
7PESE                                                                                000000000049000                            
50001810201211192012112001331423903579       PES0000052000A092152012111911220115                                                
6024600052000123240133142390357900080000084                                                                                     
7PESE                                                                                000000000052000                            
50001910201211192012112001331520636671       PES0000052000A091652012111912310137                                                
6024600052000123240133152063667100080000058                                                                                     
7PESE                                                                                000000000052000                            
50002010201211192012112001331618262756       PES0000052000A088632012111921510196                                                
6024600052000123240133161826275600080000021                                                                                     
7PESE                                                                                000000000052000                            
50002110201211192012112001331713888468       PES0000052000M601252012111912460089                                                
6024600052000123260133171388846800080000099                                                                                     
7PESE                                                                                000000000052000                            
50002210201211192012112001331522808796       PES0000052000A036052012111913570141                                                
6024600052000123280133152280879600080000057                                                                                     
7PESE                                                                                000000000052000                            
82012112000000100000220000006150000000000000000000000000000000000000000000022                                                   
9201211200000010000022000000615000000000000000000000000000000000000000000000022                                                 
