120120320PAGO FACIL               090060246FABIAN NORBERTO D´ERAMO                                                              
320120320000001FABIAN NORBERTO D´ERAMO                                                                                          
50000110201203192012032000704743573286       PES0000005500D000392012031914170018                                                
6024600005500120800070474357328600015000100                                                                                     
7PESE                                                                                000000000005500                            
50000210201203192012032099050127202983       PES0000008000A102852012031912270087                                                
6024600008000120859905012720298300000000079                                                                                     
7PESE                                                                                000000000008000                            
50000310201203192012032000701624204125       PES0000017500D000392012031914160017                                                
6024600017500120800070162420412500025000115                                                                                     
7PESE                                                                                000000000017500                            
50000410201203192012032000702328741842       PES0000017500A042592012031912140004                                                
6024600017500120800070232874184200025000642                                                                                     
7PESE                                                                                000000000017500                            
50000510201203192012032000703821617427       PES0000017500A047512012031914460341                                                
6024600017500120800070382161742700025000578                                                                                     
7PESE                                                                                000000000017500                            
50000610201203192012032000703822350739       PES0000017500A014502012031920340198                                                
6024600017500120800070382235073900025000221                                                                                     
7PESE                                                                                000000000017500                            
50000710201203192012032000704138693995       PES0000017500A082982012031910050040                                                
6024600017500120800070413869399500025000336                                                                                     
7PESE                                                                                000000000017500                            
50000810201203192012032000704418056670       PES0000017500A043132012031912140069                                                
6024600017500120800070441805667000025000663                                                                                     
7PESE                                                                                000000000017500                            
50000910201203192012032000692524308655       PES0000022000A092152012031914140233                                                
6024600022000120820069252430865500000000063                                                                                     
7PESE                                                                                000000000022000                            
82012032000000100000090000001405000000000000000000000000000000000000000000009                                                   
9201203200000010000009000000140500000000000000000000000000000000000000000000009                                                 
