120130121PAGO FACIL               090060246FABIAN NORBERTO D´ERAMO                                                              
320130121000001FABIAN NORBERTO D´ERAMO                                                                                          
50000110201301182013012101341616960713       PES0000135000A069122013011718210018                                                
6024600135000130170134161696071300150000042                                                                                     
7PESE                                                                                000000000135000                            
50000210201301182013012101341425597729       PES0000135000A092332013011812330265                                                
6024600135000130180134142559772900150000058                                                                                     
7PESE                                                                                000000000135000                            
50000310201301182013012101341637273791       PES0000135000A076812013011812320137                                                
6024600135000130180134163727379100150000000                                                                                     
7PESE                                                                                000000000135000                            
50000410201301182013012101341617250265       PES0000135000A060602013011808540460                                                
6024600135000130230134161725026500150000016                                                                                     
7PESE                                                                                000000000135000                            
50000510201301182013012102432337576843       PES0000024000A055192013011809180008                                                
6024600024000130200243233757684300060000442                                                                                     
7PESE                                                                                000000000024000                            
50000610201301182013012102430811631535       PES0000035000D001312013011813000222                                                
6024600035000130200243081163153500050000536                                                                                     
7PESE                                                                                000000000035000                            
50000710201301182013012102433514329730       PES0000024000D001312013011813000223                                                
6024600024000130200243351432973000060000558                                                                                     
7PESE                                                                                000000000024000                            
50000810201301182013012102434031342267       PES0000035000D001312013011813000224                                                
6024600035000130200243403134226700050000537                                                                                     
7PESE                                                                                000000000035000                            
50000910201301182013012129090229658317       PES0000015000D001312013011813250232                                                
6024600015000130222909022965831700000000058                                                                                     
7PESE                                                                                000000000015000                            
50001010201301182013012129090630757457       PES0000015000D001312013011813250233                                                
6024600015000130222909063075745700000000078                                                                                     
7PESE                                                                                000000000015000                            
50001110201301182013012129090821921813       PES0000015000A068892013011810320037                                                
6024600015000130232909082192181300000000042                                                                                     
7PESE                                                                                000000000015000                            
50001210201301182013012129090317992923       PES0000015000A068892013011810320038                                                
6024600015000130232909031799292300000000021                                                                                     
7PESE                                                                                000000000015000                            
50001310201301182013012129091229479323       PES0000025000A056262013011810560114                                                
6024600025000130242909122947932300000000063                                                                                     
7PESE                                                                                000000000025000                            
50001410201301182013012102432435959157       PES0000024000A121562013011814420106                                                
6024600024000130200243243595915700060000490                                                                                     
7PESE                                                                                000000000024000                            
50001510201301182013012101341713888468       PES0000135000A017122013011816220056                                                
6024600135000130230134171388846800150000078                                                                                     
7PESE                                                                                000000000135000                            
50001610201301182013012129090133018601       PES0000015000A099222013011815220144                                                
6024600015000130222909013301860100000000079                                                                                     
7PESE                                                                                000000000015000                            
50001710201301182013012102430692421709       PES0000035000A115332013011815500041                                                
6024600035000130200243069242170900050000463                                                                                     
7PESE                                                                                000000000035000                            
50001810201301182013012101341811224248       PES0000135000A069092013011811490123                                                
6024600135000130180134181122424800150000090                                                                                     
7PESE                                                                                000000000135000                            
50001910201301182013012102430713786205       PES0000035000A045152013011817450305                                                
6024600035000130200243071378620500050000363                                                                                     
7PESE                                                                                000000000035000                            
50002010201301182013012102433516574841       PES0000024000A090592013011811000096                                                
6024600024000130200243351657484100060000515                                                                                     
7PESE                                                                                000000000024000                            
50002110201301182013012101341521763189       PES0000135000A092252013011813580296                                                
6024600135000130220134152176318900150000000                                                                                     
7PESE                                                                                000000000135000                            
50002210201301182013012101341424636609       PES0000135000A092252013011813580297                                                
6024600135000130220134142463660900150000036                                                                                     
7PESE                                                                                000000000135000                            
50002310201301182013012101341425340146       PES0000135000A092252013011813580298                                                
6024600135000130230134142534014600150000057                                                                                     
7PESE                                                                                000000000135000                            
50002410201301182013012129090227851214       PES0000015000A092152013011810170058                                                
6024600015000130222909022785121400000000036                                                                                     
7PESE                                                                                000000000015000                            
50002510201301182013012102432625875374       PES0000025000D000882013011809290021                                                
6024600025000130200243262587537400050000337                                                                                     
7PESE                                                                                000000000025000                            
50002610201301182013012102433328166221       PES0000024000D000882013011809290022                                                
6024600024000130200243332816622100060000300                                                                                     
7PESE                                                                                000000000024000                            
50002710201301182013012129090320824714       PES0000015000D001502013011812020034                                                
6024600015000130222909032082471400000000090                                                                                     
7PESE                                                                                000000000015000                            
50002810201301182013012199030134929847       PES0000053500A084182013011817190133                                                
6024600053500130249903013492984700000000063                                                                                     
7PESE                                                                                000000000053500                            
50002910201301182013012101341713676024       PES0000135000A113052013011818220220                                                
6024600135000130230134171367602400150000000                                                                                     
7PESE                                                                                000000000135000                            
50003010201301182013012101341520199982       PES0000135000A110772013011818460210                                                
6024600135000130180134152019998200150000078                                                                                     
7PESE                                                                                000000000135000                            
50003110201301182013012102433138700928       PES0000024000A111392013011813210102                                                
6024600024000130200243313870092800060000442                                                                                     
7PESE                                                                                000000000024000                            
50003210201301182013012102430521587958       PES0000035000A078072013011818360151                                                
6024600035000130180243052158795800050000042                                                                                     
7PESE                                                                                000000000035000                            
50003310201301182013012101340134517298       PES0000135000A013222013011816300066                                                
6024600135000130250134013451729800150000015                                                                                     
7PESE                                                                                000000000135000                            
50003410201301182013012102431134517298       PES0000035000A013222013011816300067                                                
6024600035000130200243113451729800050000557                                                                                     
7PESE                                                                                000000000035000                            
50003510201301182013012129090322545954       PES0000015000A095822013011817290030                                                
6024600015000130222909032254595400000000079                                                                                     
7PESE                                                                                000000000015000                            
50003610201301182013012129090725871800       PES0000015000A095822013011817290031                                                
6024600015000130222909072587180000000000078                                                                                     
7PESE                                                                                000000000015000                            
50003710201301182013012129090727536691       PES0000015000A095822013011817290032                                                
6024600015000130222909072753669100000000063                                                                                     
7PESE                                                                                000000000015000                            
50003810201301182013012129090223899365       PES0000015000A095822013011817290033                                                
6024600015000130222909022389936500000000079                                                                                     
7PESE                                                                                000000000015000                            
50003910201301182013012129090507661499       PES0000015000A118612013011817370199                                                
6024600015000130242909050766149900000000058                                                                                     
7PESE                                                                                000000000015000                            
50004010201301182013012102430231507265       PES0000035000A025662013011811330039                                                
6024600035000130200243023150726500050000442                                                                                     
7PESE                                                                                000000000035000                            
50004110201301182013012129091411486982       PES0000025000A099032013011817040004                                                
6024600025000130232909141148698200000000036                                                                                     
7PESE                                                                                000000000025000                            
50004210201301182013012102430714976094       PES0000035000A017482013011818210095                                                
6024600035000130200243071497609400050000500                                                                                     
7PESE                                                                                000000000035000                            
50004310201301182013012101340524954445       PES0000135000A117012013011819110099                                                
6024600135000130250134052495444500150000078                                                                                     
7PESE                                                                                000000000135000                            
50004410201301182013012101340520822317       PES0000135000A117012013011819120100                                                
6024600135000130250134052082231700150000099                                                                                     
7PESE                                                                                000000000135000                            
50004510201301182013012101340328831118       PES0000135000A047512013011818050148                                                
6024600135000130180134032883111800150000021                                                                                     
7PESE                                                                                000000000135000                            
50004610201301182013012129090727876417       PES0000015000M600392013011810450041                                                
6024600015000130222909072787641700000000042                                                                                     
7PESE                                                                                000000000015000                            
50004710201301182013012129090224290666       PES0000015000M600392013011810460042                                                
6024600015000130222909022429066600000000079                                                                                     
7PESE                                                                                000000000015000                            
50004810201301182013012102430620167362       PES0000035000M620032013011809200017                                                
6024600035000130200243062016736200050000421                                                                                     
7PESE                                                                                000000000035000                            
50004910201301192013012101341425240649       PES0000135000A067602013011910350019                                                
6024600135000130190134142524064900150000078                                                                                     
7PESE                                                                                000000000135000                            
50005010201301192013012101341231638446       PES0000135000D001132013011910420020                                                
6024600135000130240134123163844600150000037                                                                                     
7PESE                                                                                000000000135000                            
50005110201301192013012173010636015588       PES0000010000A038042013011909180034                                                
6024600010000130197301063601558800020000057                                                                                     
7PESE                                                                                000000000010000                            
50005210201301192013012102433421483818       PES0000024000A078732013011909230011                                                
6024600024000130200243342148381800060000336                                                                                     
7PESE                                                                                000000000024000                            
50005310201301192013012102430712588854       PES0000035000A051222013011915240219                                                
6024600035000130200243071258885400050000100                                                                                     
7PESE                                                                                000000000035000                            
50005410201301192013012101341424422803       PES0000135000A044382013011911510076                                                
6024600135000130250134142442280300150000015                                                                                     
7PESE                                                                                000000000135000                            
50005510201301192013012102430230424636       PES0000035000A033772013011909130007                                                
6024600035000130200243023042463600050000663                                                                                     
7PESE                                                                                000000000035000                            
50005610201301192013012102430521459111       PES0000035000A113812013011912370046                                                
6024600035000130200243052145911100050000315                                                                                     
7PESE                                                                                000000000035000                            
50005710201301192013012102430520215772       PES0000035000A050712013011919100233                                                
6024600035000130200243052021577200050000684                                                                                     
7PESE                                                                                000000000035000                            
50005810201301192013012102430230940481       PES0000035000A088152013011918180187                                                
6024600035000130200243023094048100050000600                                                                                     
7PESE                                                                                000000000035000                            
50005910201301192013012102430230877686       PES0000035000A088152013011918180188                                                
6024600035000130200243023087768600050000621                                                                                     
7PESE                                                                                000000000035000                            
50006010201301202013012129091414245461       PES0000025000A098832013011918310112                                                
6024600025000130232909141424546100000000021                                                                                     
7PESE                                                                                000000000025000                            
50006110201301202013012102430329624553       PES0000035000D001732013012011320049                                                
6024600035000130200243032962455300050000736                                                                                     
7PESE                                                                                000000000035000                            
82013012100000100000610000035315000000000000000000000000000000000000000000061                                                   
9201301210000010000061000003531500000000000000000000000000000000000000000000061                                                 
