120120521PAGO FACIL               090060246FABIAN NORBERTO D´ERAMO                                                              
320120521000001FABIAN NORBERTO D´ERAMO                                                                                          
50000110201205182012052102363723515526       PES0000020000A074672012051817320101                                                
6024600020000121390236372351552600000000057                                                                                     
7PESE                                                                                000000000020000                            
50000210201205182012052102363724872827       PES0000020000D000832012051814500217                                                
6024600020000121390236372487282700000000042                                                                                     
7PESE                                                                                000000000020000                            
50000310201205182012052102360428686874       PES0000030000A085792012051817030206                                                
6024600030000121390236042868687400000000079                                                                                     
7PESE                                                                                000000000030000                            
50000410201205182012052102363338933858       PES0000020000A085792012051817220218                                                
6024600020000121390236333893385800000000084                                                                                     
7PESE                                                                                000000000020000                            
50000510201205182012052102363436154136       PES0000020000A100912012051817470079                                                
6024600020000121390236343615413600000000084                                                                                     
7PESE                                                                                000000000020000                            
50000610201205182012052102360429083596       PES0000030000A068912012051812250136                                                
6024600030000121390236042908359600000000078                                                                                     
7PESE                                                                                000000000030000                            
50000710201205182012052102362116598623       PES0000020000A063832012051817210062                                                
6024600020000121390236211659862300000000063                                                                                     
7PESE                                                                                000000000020000                            
50000810201205182012052102360812321767       PES0000030000A047512012051818350108                                                
6024600030000121390236081232176700000000016                                                                                     
7PESE                                                                                000000000030000                            
50000910201205192012052199030228879956       PES0000049000A109582012051909160003                                                
6024600049000121449903022887995600000000021                                                                                     
7PESE                                                                                000000000049000                            
82012052100000100000090000002390000000000000000000000000000000000000000000009                                                   
9201205210000010000009000000239000000000000000000000000000000000000000000000009                                                 
