120120621PAGO FACIL               090060246FABIAN NORBERTO D´ERAMO                                                              
320120621000001FABIAN NORBERTO D´ERAMO                                                                                          
50000110201206192012062159000227170539       PES0000016000A620972012061909040001                                                
6024600016000121775900022717053900000000021                                                                                     
7PESE                                                                                000000000016000                            
50000210201206192012062199040128988282       PES0000032000A039232012061916520150                                                
6024600032000121789904012898828200000000015                                                                                     
7PESE                                                                                000000000032000                            
82012062100000100000020000000480000000000000000000000000000000000000000000002                                                   
9201206210000010000002000000048000000000000000000000000000000000000000000000002                                                 
