120111221PAGO FACIL               090060246FABIAN NORBERTO D´ERAMO                                                              
320111221000001FABIAN NORBERTO D´ERAMO                                                                                          
50000110201112202011122100611912902460       PES0000012000D000502011122012250096                                                
6024600012000113540061191290246000020000000                                                                                     
7PESE                                                                                000000000012000                            
50000210201112202011122100612523626239       PES0000012000A034312011122019230401                                                
6024600012000113540061252362623900020000036                                                                                     
7PESE                                                                                000000000012000                            
50000310201112202011122100612911151627       PES0000012000A058112011122010130052                                                
6024600012000113540061291115162700020000042                                                                                     
7PESE                                                                                000000000012000                            
50000410201112202011122100611333155011       PES0000012000A033992011122017560275                                                
6024600012000113550061133315501100020000099                                                                                     
7PESE                                                                                000000000012000                            
50000510201112202011122100611334977464       PES0000012000A031192011122017060093                                                
6024600012000113550061133497746400020000000                                                                                     
7PESE                                                                                000000000012000                            
50000610201112202011122100611721983482       PES0000012000A091652011122011000122                                                
6024600012000113550061172198348200020000000                                                                                     
7PESE                                                                                000000000012000                            
50000710201112202011122100611914958625       PES0000012000D000502011122012240093                                                
6024600012000113550061191495862500020000021                                                                                     
7PESE                                                                                000000000012000                            
50000810201112202011122100612620988552       PES0000012000A079302011122016270069                                                
6024600012000113560061262098855200020000063                                                                                     
7PESE                                                                                000000000012000                            
50000910201112202011122100612717032145       PES0000012000M600412011122014060121                                                
6024600012000113560061271703214500020000084                                                                                     
7PESE                                                                                000000000012000                            
50001010201112202011122100612911786531       PES0000012000A079302011122016270070                                                
6024600012000113560061291178653100020000090                                                                                     
7PESE                                                                                000000000012000                            
50001110201112202011122100612426456223       PES0000012000M600702011122013450093                                                
6024600012000113580061242645622300020000000                                                                                     
7PESE                                                                                000000000012000                            
50001210201112202011122100610829064764       PES0000012000A094342011122013260171                                                
6024600012000113590061082906476400020000058                                                                                     
7PESE                                                                                000000000012000                            
50001310201112202011122100610729684489       PES0000012000A045342011122012310092                                                
6024600012000113600061072968448900020000021                                                                                     
7PESE                                                                                000000000012000                            
50001410201112202011122100610826194234       PES0000012000A014492011122017120046                                                
6024600012000113600061082619423400020000078                                                                                     
7PESE                                                                                000000000012000                            
50001510201112202011122100610828421518       PES0000012000A086832011122009380017                                                
6024600012000113600061082842151800020000036                                                                                     
7PESE                                                                                000000000012000                            
50001610201112202011122100611334258626       PES0000012000A081002011122009460029                                                
6024600012000113600061133425862600020000115                                                                                     
7PESE                                                                                000000000012000                            
50001710201112202011122100612523463409       PES0000012000A097712011122015520006                                                
6024600012000113600061252346340900020000090                                                                                     
7PESE                                                                                000000000012000                            
50001810201112202011122100612525227181       PES0000012000A057002011122011460147                                                
6024600012000113600061252522718100020000116                                                                                     
7PESE                                                                                000000000012000                            
50001910201112202011122100612813314450       PES0000012000A058512011122012390217                                                
6024600012000113600061281331445000020000084                                                                                     
7PESE                                                                                000000000012000                            
50002010201112202011122129060224964244       PES0000013000A025832011122017420112                                                
6024600013000113542906022496424400000000000                                                                                     
7PESE                                                                                000000000013000                            
50002110201112202011122129060816805723       PES0000013000A055202011122019170160                                                
6024600013000113572906081680572300000000084                                                                                     
7PESE                                                                                000000000013000                            
50002210201112202011122129060129684489       PES0000013000A045342011122012310091                                                
6024600013000113602906012968448900000000037                                                                                     
7PESE                                                                                000000000013000                            
50002310201112202011122129060816643297       PES0000013000A621032011122012080060                                                
6024600013000113602906081664329700000000084                                                                                     
7PESE                                                                                000000000013000                            
50002410201112202011122129060821431692       PES0000013000A058722011122011070043                                                
6024600013000113602906082143169200000000021                                                                                     
7PESE                                                                                000000000013000                            
50002510201112202011122129060821665840       PES0000013000A032472011122012540046                                                
6024600013000113602906082166584000000000036                                                                                     
7PESE                                                                                000000000013000                            
50002610201112202011122129060320036298       PES0000013000A621032011122012010056                                                
6024600013000113612906032003629800000000084                                                                                     
7PESE                                                                                000000000013000                            
50002710201112202011122129060322349713       PES0000013000A058722011122011070042                                                
6024600013000113612906032234971300000000021                                                                                     
7PESE                                                                                000000000013000                            
50002810201112202011122100630611786531       PES0000014000A079302011122016270071                                                
6024600014000113550063061178653100020000021                                                                                     
7PESE                                                                                000000000014000                            
50002910201112202011122100630125146385       PES0000014000A069512011122016570208                                                
6024600014000113600063012514638500020000021                                                                                     
7PESE                                                                                000000000014000                            
50003010201112202011122100600520004210       PES0000019000A082982011122011240103                                                
6024600019000113570060052000421000060000000                                                                                     
7PESE                                                                                000000000019000                            
50003110201112202011122123060420289853       PES0000076800A101062011122018110325                                                
6024600076800113562306042028985300192000542                                                                                     
7PESE                                                                                000000000076800                            
50003210201112202011122123060422323896       PES0000076800A098212011122007110001                                                
6024600076800113562306042232389600192000521                                                                                     
7PESE                                                                                000000000076800                            
50003310201112202011122123060514186724       PES0000076800A085572011122017000158                                                
6024600076800113562306051418672400192000521                                                                                     
7PESE                                                                                000000000076800                            
50003410201112202011122123060632348644       PES0000076800A050122011122012230058                                                
6024600076800113562306063234864400192000516                                                                                     
7PESE                                                                                000000000076800                            
50003510201112202011122123060632610006       PES0000076800A048332011122014040017                                                
6024600076800113562306063261000600192000521                                                                                     
7PESE                                                                                000000000076800                            
50003610201112202011122123061132389955       PES0000085400A093492011122019010106                                                
6024600085400113562306113238995500234000584                                                                                     
7PESE                                                                                000000000085400                            
50003710201112202011122123061235342942       PES0000085400A097592011122019490087                                                
6024600085400113562306123534294200234000500                                                                                     
7PESE                                                                                000000000085400                            
50003810201112202011122123061235973248       PES0000085400A080082011122016160043                                                
6024600085400113562306123597324800234000400                                                                                     
7PESE                                                                                000000000085400                            
50003910201112202011122123061328386496       PES0000085400A097432011122016320087                                                
6024600085400113562306132838649600234000521                                                                                     
7PESE                                                                                000000000085400                            
50004010201112202011122123061611885641       PES0000085400A048332011122014040016                                                
6024600085400113562306161188564100234000579                                                                                     
7PESE                                                                                000000000085400                            
50004110201112202011122123061616462780       PES0000085400A100262011122015530033                                                
6024600085400113562306161646278000234000563                                                                                     
7PESE                                                                                000000000085400                            
50004210201112202011122123061834796790       PES0000085400A049072011122014430049                                                
6024600085400113562306183479679000234000578                                                                                     
7PESE                                                                                000000000085400                            
50004310201112202011122123061838493171       PES0000085400A056592011122010470114                                                
6024600085400113562306183849317100234000499                                                                                     
7PESE                                                                                000000000085400                            
82011122100000100000430000014462000000000000000000000000000000000000000000043                                                   
9201112210000010000043000001446200000000000000000000000000000000000000000000043                                                 
