120111222PAGO FACIL               090060246FABIAN NORBERTO D´ERAMO                                                              
320111222000001FABIAN NORBERTO D´ERAMO                                                                                          
50000110201112212011122223061833079262       PES0000085400M620862011122013016616                                                
6024600085400113562306183307926200234000558                                                                                     
7PESE                                                                                000000000085400                            
50000210201112212011122253000710881714       PES0000009000A016702011122114350094                                                
6024600009000113575300071088171400020000100                                                                                     
7PESE                                                                                000000000009000                            
50000310201112212011122200611429479624       PES0000012000A090562011122110330077                                                
6024600012000113550061142947962400020000042                                                                                     
7PESE                                                                                000000000012000                            
50000410201112212011122200611528381281       PES0000012000A087052011122114530075                                                
6024600012000113550061152838128100020000099                                                                                     
7PESE                                                                                000000000012000                            
50000510201112212011122200611722314370       PES0000012000A063842011122118460077                                                
6024600012000113550061172231437000020000000                                                                                     
7PESE                                                                                000000000012000                            
50000610201112212011122200612236200982       PES0000012000A049332011122112330047                                                
6024600012000113550061223620098200020000063                                                                                     
7PESE                                                                                000000000012000                            
50000710201112212011122200612329147062       PES0000012000A025612011122118170148                                                
6024600012000113550061232914706200020000084                                                                                     
7PESE                                                                                000000000012000                            
50000810201112212011122200612522963407       PES0000012000A063842011122110140032                                                
6024600012000113560061252296340700020000015                                                                                     
7PESE                                                                                000000000012000                            
50000910201112212011122200610925419050       PES0000012000A038492011122113530049                                                
6024600012000113570061092541905000020000099                                                                                     
7PESE                                                                                000000000012000                            
50001010201112212011122200612717665137       PES0000012000A035912011122111210045                                                
6024600012000113570061271766513700020000036                                                                                     
7PESE                                                                                000000000012000                            
50001110201112212011122200610525006928       PES0000012000A044142011122112440114                                                
6024600012000113600061052500692800020000084                                                                                     
7PESE                                                                                000000000012000                            
50001210201112212011122200611526542181       PES0000012000A033992011122117510196                                                
6024600012000113600061152654218100020000163                                                                                     
7PESE                                                                                000000000012000                            
50001310201112212011122200612427308019       PES0000012000A047792011122113400133                                                
6024600012000113600061242730801900020000263                                                                                     
7PESE                                                                                000000000012000                            
50001410201112212011122200612622226077       PES0000012000A091782011122115530352                                                
6024600012000113600061262222607700020000021                                                                                     
7PESE                                                                                000000000012000                            
50001510201112212011122200612812841516       PES0000012000A104522011122111120047                                                
6024600012000113600061281284151600020000157                                                                                     
7PESE                                                                                000000000012000                            
50001610201112212011122229060224892262       PES0000013000A047502011122117070146                                                
6024600013000113552906022489226200000000016                                                                                     
7PESE                                                                                000000000013000                            
50001710201112212011122229060224379056       PES0000013000A090522011122109250028                                                
6024600013000113572906022437905600000000021                                                                                     
7PESE                                                                                000000000013000                            
50001810201112212011122229060723549646       PES0000013000A091772011122115520305                                                
6024600013000113592906072354964600000000000                                                                                     
7PESE                                                                                000000000013000                            
50001910201112212011122229060229010280       PES0000013000A091132011122110580100                                                
6024600013000113602906022901028000000000042                                                                                     
7PESE                                                                                000000000013000                            
50002010201112212011122229060320410025       PES0000013000A047792011122111530065                                                
6024600013000113602906032041002500000000063                                                                                     
7PESE                                                                                000000000013000                            
50002110201112212011122229060412829447       PES0000013000A095502011122112120133                                                
6024600013000113602906041282944700000000000                                                                                     
7PESE                                                                                000000000013000                            
50002210201112212011122229060821509254       PES0000013000A047792011122111530066                                                
6024600013000113602906082150925400000000057                                                                                     
7PESE                                                                                000000000013000                            
50002310201112212011122229060223275871       PES0000013000A031192011122118190136                                                
6024600013000113622906022327587100000000090                                                                                     
7PESE                                                                                000000000013000                            
50002410201112212011122229060321003666       PES0000013000A047792011122111550068                                                
6024600013000113622906032100366600000000079                                                                                     
7PESE                                                                                000000000013000                            
50002510201112212011122229060322132810       PES0000013000A072162011122116250131                                                
6024600013000113622906032213281000000000042                                                                                     
7PESE                                                                                000000000013000                            
50002610201112212011122229060729072046       PES0000013000A031192011122118190137                                                
6024600013000113622906072907204600000000079                                                                                     
7PESE                                                                                000000000013000                            
50002710201112212011122229060816961355       PES0000013000A019072011122115580035                                                
6024600013000113622906081696135500000000036                                                                                     
7PESE                                                                                000000000013000                            
50002810201112212011122218360329681341       PES0000020000A095282011122113010067                                                
6024600020000113601836032968134100000000042                                                                                     
7PESE                                                                                000000000020000                            
50002910201112212011122218361625404423       PES0000020000A110092011122113330061                                                
6024600020000113621836162540442300000000084                                                                                     
7PESE                                                                                000000000020000                            
50003010201112212011122223060227320834       PES0000076800A039082011122111080023                                                
6024600076800113562306022732083400192000557                                                                                     
7PESE                                                                                000000000076800                            
50003110201112212011122223060323224385       PES0000076800A081382011122113200200                                                
6024600076800113562306032322438500192000590                                                                                     
7PESE                                                                                000000000076800                            
50003210201112212011122223060422548390       PES0000076800A098212011122119530105                                                
6024600076800113562306042254839000192000637                                                                                     
7PESE                                                                                000000000076800                            
50003310201112212011122223060728321055       PES0000076800A087612011122118030022                                                
6024600076800113562306072832105500192000684                                                                                     
7PESE                                                                                000000000076800                            
50003410201112212011122223061025235886       PES0000076800A095592011122114210015                                                
6024600076800113562306102523588600192000678                                                                                     
7PESE                                                                                000000000076800                            
50003510201112212011122223061026762043       PES0000076800A077352011122112170040                                                
6024600076800113562306102676204300192000663                                                                                     
7PESE                                                                                000000000076800                            
50003610201112212011122223061027458227       PES0000076800A056732011122118350236                                                
6024600076800113562306102745822700192000442                                                                                     
7PESE                                                                                000000000076800                            
50003710201112212011122223061122475490       PES0000108800A040462011122117170032                                                
6024600085400113492306112247549000234000642                                                                                     
7PESE                                                                                000000000108800                            
50003810201112212011122223061130268826       PES0000085400M680132011122109120018                                                
6024600085400113562306113026882600234000499                                                                                     
7PESE                                                                                000000000085400                            
50003910201112212011122223061136064673       PES0000085400A095872011122110290043                                                
6024600085400113562306113606467300234000678                                                                                     
7PESE                                                                                000000000085400                            
50004010201112212011122223061236082346       PES0000085400A028392011122113540099                                                
6024600085400113562306123608234600234000537                                                                                     
7PESE                                                                                000000000085400                            
50004110201112212011122223061236363797       PES0000085400A041372011122118010318                                                
6024600085400113562306123636379700234000542                                                                                     
7PESE                                                                                000000000085400                            
50004210201112212011122223061238158204       PES0000085400A102602011122118410061                                                
6024600085400113562306123815820400234000216                                                                                     
7PESE                                                                                000000000085400                            
50004310201112212011122223061321703210       PES0000085400L071002011122113525003                                                
6024600085400113562306132170321000234000637                                                                                     
7PESE                                                                                000000000085400                            
50004410201112212011122223061331118819       PES0000085400A102222011122121170195                                                
6024600085400113562306133111881900234000679                                                                                     
7PESE                                                                                000000000085400                            
50004510201112212011122223061424204901       PES0000085400A107842011122116140027                                                
6024600085400113562306142420490100234000415                                                                                     
7PESE                                                                                000000000085400                            
50004610201112212011122223061520621986       PES0000085400A087542011122120240015                                                
6024600085400113562306152062198600234000679                                                                                     
7PESE                                                                                000000000085400                            
50004710201112212011122223061520913688       PES0000085400M620732011122109530019                                                
6024600085400113562306152091368800234000684                                                                                     
7PESE                                                                                000000000085400                            
50004810201112212011122223061800646246       PES0000085400A087542011122120240014                                                
6024600085400113562306180064624600234000636                                                                                     
7PESE                                                                                000000000085400                            
50004910201112212011122223061833325706       PES0000085400A660492011122117330013                                                
6024600085400113562306183332570600234000300                                                                                     
7PESE                                                                                000000000085400                            
50005010201112212011122223061834142407       PES0000085400A048002011122114030057                                                
6024600085400113562306183414240700234000658                                                                                     
7PESE                                                                                000000000085400                            
50005110201112212011122223061836326627       PES0000085400A077712011122110280052                                                
6024600085400113562306183632662700234000684                                                                                     
7PESE                                                                                000000000085400                            
50005210201112212011122223061836726956       PES0000085400A018802011122109450010                                                
6024600085400113562306183672695600234000563                                                                                     
7PESE                                                                                000000000085400                            
50005310201112212011122223061923371981       PES0000085400A087542011122120240013                                                
6024600085400113562306192337198100234000663                                                                                     
7PESE                                                                                000000000085400                            
50005410201112212011122223061926068006       PES0000085400A092542011122112310238                                                
6024600085400113562306192606800600234000679                                                                                     
7PESE                                                                                000000000085400                            
50005510201112212011122223061930296500       PES0000085400D001502011122114180085                                                
6024600085400113562306193029650000234000484                                                                                     
7PESE                                                                                000000000085400                            
50005610201112212011122223061930464718       PES0000085400A075232011122115580034                                                
6024600085400113562306193046471800234000642                                                                                     
7PESE                                                                                000000000085400                            
82011122200000100000560000027154000000000000000000000000000000000000000000056                                                   
9201112220000010000056000002715400000000000000000000000000000000000000000000056                                                 
