120130122PAGO FACIL               090060246FABIAN NORBERTO D´ERAMO                                                              
320130122000001FABIAN NORBERTO D´ERAMO                                                                                          
50000110201301212013012202430423657064       PES0000035000A108932013011911450027                                                
6024600035000130200243042365706400050000515                                                                                     
7PESE                                                                                000000000035000                            
50000210201301212013012273011017532945       PES0000010000A101442013012118340423                                                
6024600010000130217301101753294500020000036                                                                                     
7PESE                                                                                000000000010000                            
50000310201301212013012273010636139558       PES0000010000A101442013012118340422                                                
6024600010000130227301063613955800020000036                                                                                     
7PESE                                                                                000000000010000                            
50000410201301212013012273010726336391       PES0000010000A102582013012119030133                                                
6024600010000130267301072633639100020000021                                                                                     
7PESE                                                                                000000000010000                            
50000510201301212013012273010229426948       PES0000010000A113632013012117230189                                                
6024600010000130277301022942694800020000037                                                                                     
7PESE                                                                                000000000010000                            
50000610201301212013012273010727957231       PES0000010000A083642013012112430253                                                
6024600010000130277301072795723100020000057                                                                                     
7PESE                                                                                000000000010000                            
50000710201301212013012229090224448422       PES0000015000A070822013012118000087                                                
6024600015000130222909022444842200000000015                                                                                     
7PESE                                                                                000000000015000                            
50000810201301212013012229090224882690       PES0000015000A040552013012113170115                                                
6024600015000130222909022488269000000000000                                                                                     
7PESE                                                                                000000000015000                            
50000910201301212013012229090226046668       PES0000015000M601282013012114130097                                                
6024600015000130222909022604666800000000078                                                                                     
7PESE                                                                                000000000015000                            
50001010201301212013012229090226122935       PES0000015000A117592013012112020007                                                
6024600015000130222909022612293500000000015                                                                                     
7PESE                                                                                000000000015000                            
50001110201301212013012229090318439009       PES0000015000M600182013012112070029                                                
6024600015000130222909031843900900000000058                                                                                     
7PESE                                                                                000000000015000                            
50001210201301212013012229090320853633       PES0000015000M640332013012115030083                                                
6024600015000130222909032085363300000000090                                                                                     
7PESE                                                                                000000000015000                            
50001310201301212013012229090725415004       PES0000015000A040552013012113170114                                                
6024600015000130222909072541500400000000042                                                                                     
7PESE                                                                                000000000015000                            
50001410201301212013012229090821615645       PES0000015000M600182013012112070028                                                
6024600015000130222909082161564500000000078                                                                                     
7PESE                                                                                000000000015000                            
50001510201301212013012229090320008035       PES0000015000A003462013012110040040                                                
6024600015000130232909032000803500000000057                                                                                     
7PESE                                                                                000000000015000                            
50001610201301212013012229090321809438       PES0000015000A112712013012111050044                                                
6024600015000130232909032180943800000000000                                                                                     
7PESE                                                                                000000000015000                            
50001710201301212013012229090914861294       PES0000015000A045342013012112360215                                                
6024600015000130262909091486129400000000063                                                                                     
7PESE                                                                                000000000015000                            
50001810201301212013012229090322304362       PES0000015000A076112013012110550014                                                
6024600015000130272909032230436200000000036                                                                                     
7PESE                                                                                000000000015000                            
50001910201301212013012229090226100699       PES0000015000M601242013012111150001                                                
6024600015000130282909022610069900000000016                                                                                     
7PESE                                                                                000000000015000                            
50002010201301212013012229090227658044       PES0000015000A007492013012118180047                                                
6024600015000130282909022765804400000000078                                                                                     
7PESE                                                                                000000000015000                            
50002110201301212013012229090413909157       PES0000015000A117762013012112480138                                                
6024600015000130282909041390915700000000090                                                                                     
7PESE                                                                                000000000015000                            
50002210201301212013012229091225788869       PES0000025000A098132013012112210217                                                
6024600025000130222909122578886900000000063                                                                                     
7PESE                                                                                000000000025000                            
50002310201301212013012229091414594528       PES0000025000A058232013012119490067                                                
6024600025000130282909141459452800000000042                                                                                     
7PESE                                                                                000000000025000                            
50002410201301212013012229091728545161       PES0000025000A043552013012111170095                                                
6024600025000130282909172854516100000000042                                                                                     
7PESE                                                                                000000000025000                            
50002510201301212013012202430329033473       PES0000035000A095862013012118290048                                                
6024600035000130200243032903347300050000379                                                                                     
7PESE                                                                                000000000035000                            
50002610201301212013012202430425593089       PES0000035000A092032013012111430074                                                
6024600035000130200243042559308900050000778                                                                                     
7PESE                                                                                000000000035000                            
50002710201301212013012202430907620834       PES0000035000A600332013012112230058                                                
6024600035000130200243090762083400050000237                                                                                     
7PESE                                                                                000000000035000                            
50002810201301212013012202430328984483       PES0000040000A082642013012118050052                                                
6024600040000130280243032898448300075000036                                                                                     
7PESE                                                                                000000000040000                            
50002910201301212013012299030135755065       PES0000053500A024632013012116100061                                                
6024600053500130289903013575506500000000016                                                                                     
7PESE                                                                                000000000053500                            
50003010201301212013012201341522965560       PES0000135000A092152013012115410392                                                
6024600135000130210134152296556000150000021                                                                                     
7PESE                                                                                000000000135000                            
50003110201301212013012201341617673761       PES0000135000A060572013012110240053                                                
6024600135000130210134161767376100150000063                                                                                     
7PESE                                                                                000000000135000                            
50003210201301212013012201341716624018       PES0000135000A071862013012116100030                                                
6024600135000130210134171662401800150000042                                                                                     
7PESE                                                                                000000000135000                            
50003310201301212013012201340230591812       PES0000135000M601252013012112120066                                                
6024600135000130230134023059181200150000058                                                                                     
7PESE                                                                                000000000135000                            
50003410201301212013012201341522128164       PES0000135000A088612013012114420164                                                
6024600135000130230134152212816400150000021                                                                                     
7PESE                                                                                000000000135000                            
50003510201301212013012201341618002702       PES0000135000M620002013012110050040                                                
6024600135000130230134161800270200150000037                                                                                     
7PESE                                                                                000000000135000                            
50003610201301212013012201341426101482       PES0000135000A088612013012114420163                                                
6024600135000130240134142610148200150000042                                                                                     
7PESE                                                                                000000000135000                            
50003710201301212013012201341233667197       PES0000135000A085572013012117330134                                                
6024600135000130250134123366719700150000079                                                                                     
7PESE                                                                                000000000135000                            
50003810201301212013012201341716040322       PES0000135000A116382013012113320136                                                
6024600135000130270134171604032200150000036                                                                                     
7PESE                                                                                000000000135000                            
82013012200000100000380000017985000000000000000000000000000000000000000000038                                                   
9201301220000010000038000001798500000000000000000000000000000000000000000000038                                                 
