120121022PAGO FACIL               090060246FABIAN NORBERTO D´ERAMO                                                              
320121022000001FABIAN NORBERTO D´ERAMO                                                                                          
50000110201210192012102201331232554625       PES0000052000A100672012101820440025                                                
6024600052000122980133123255462500080000090                                                                                     
7PESE                                                                                000000000052000                            
50000210201210192012102200714516893905       PES0000032500A049092012101909430083                                                
6024600032500122930071451689390500000000042                                                                                     
7PESE                                                                                000000000032500                            
50000310201210192012102200713443323321       PES0000032500A080822012101909160002                                                
6024600032500122990071344332332100000000058                                                                                     
7PESE                                                                                000000000032500                            
50000410201210192012102200714422653636       PES0000032500A080822012101909170003                                                
6024600032500122990071442265363600000000057                                                                                     
7PESE                                                                                000000000032500                            
50000510201210192012102200712330695527       PES0000032500A073612012101910520074                                                
6024600032500122990071233069552700000000079                                                                                     
7PESE                                                                                000000000032500                            
50000610201210192012102200712332091447       PES0000026000A087932012101911260028                                                
6024600026000122990071233209144700000000099                                                                                     
7PESE                                                                                000000000026000                            
50000710201210192012102200712526196454       PES0000032500A044382012101911410129                                                
6024600032500122980071252619645400000000000                                                                                     
7PESE                                                                                000000000032500                            
50000810201210192012102200713822277609       PES0000032500A078732012101910150025                                                
6024600032500122930071382227760900000000021                                                                                     
7PESE                                                                                000000000032500                            
50000910201210192012102200720521587216       PES0000047500A602242012101910260039                                                
6024600047500122990072052158721600000000063                                                                                     
7PESE                                                                                000000000047500                            
50001010201210192012102201331521917675       PES0000052000A052182012101912350038                                                
6024600052000122980133152191767500080000036                                                                                     
7PESE                                                                                000000000052000                            
50001110201210192012102200714613801008       PES0000032500A089832012101911050074                                                
6024600032500122950071461380100800000000000                                                                                     
7PESE                                                                                000000000032500                            
50001210201210192012102265000130505954       PES0000013000A019762012101912180086                                                
6024600013000122946500013050595400000000584                                                                                     
7PESE                                                                                000000000013000                            
50001310201210192012102265000216437160       PES0000013000A019762012101912190087                                                
6024600013000122946500021643716000000000599                                                                                     
7PESE                                                                                000000000013000                            
50001410201210192012102299020231344045       PES0000022000A085342012101911080095                                                
6024600022000122999902023134404500000000063                                                                                     
7PESE                                                                                000000000022000                            
50001510201210192012102200720423665207       PES0000047500A101722012101912540058                                                
6024600047500122990072042366520700000000037                                                                                     
7PESE                                                                                000000000047500                            
50001610201210192012102218400813824861       PES0000025000A085792012101909260004                                                
6024600025000122991840081382486100000000099                                                                                     
7PESE                                                                                000000000025000                            
50001710201210192012102265000518102011       PES0000013000A046092012101913060060                                                
6024600013000122946500051810201100000000563                                                                                     
7PESE                                                                                000000000013000                            
50001810201210192012102265000517224967       PES0000013000A046092012101913060061                                                
6024600013000122946500051722496700000000584                                                                                     
7PESE                                                                                000000000013000                            
50001910201210192012102265000226221074       PES0000013000A063662012101910310056                                                
6024600013000122946500022622107400000000490                                                                                     
7PESE                                                                                000000000013000                            
50002010201210192012102265000225970369       PES0000013000A088612012101914430250                                                
6024600013000122946500022597036900000000521                                                                                     
7PESE                                                                                000000000013000                            
50002110201210192012102200713822812545       PES0000032500D001482012101913160211                                                
6024600032500122990071382281254500000000079                                                                                     
7PESE                                                                                000000000032500                            
50002210201210192012102200720618408917       PES0000047500A032962012101913140046                                                
6024600047500122930072061840891700000000063                                                                                     
7PESE                                                                                000000000047500                            
50002310201210192012102200720517256724       PES0000047500A032962012101913150047                                                
6024600047500122930072051725672400000000063                                                                                     
7PESE                                                                                000000000047500                            
50002410201210192012102265000228370965       PES0000013000A100492012101910490077                                                
6024600013000122946500022837096500000000542                                                                                     
7PESE                                                                                000000000013000                            
50002510201210192012102200723817538269       PES0000037500A110512012101915000079                                                
6024600037500122990072381753826900000000042                                                                                     
7PESE                                                                                000000000037500                            
50002610201210192012102201330232441645       PES0000052000A600932012101914540113                                                
6024600052000123000133023244164500080000016                                                                                     
7PESE                                                                                000000000052000                            
50002710201210192012102200710334858870       PES0000032500A601492012101911010028                                                
6024600032500122990071033485887000000000090                                                                                     
7PESE                                                                                000000000032500                            
50002810201210192012102265000136024335       PES0000013000A601492012101911560044                                                
6024600013000122946500013602433500000000657                                                                                     
7PESE                                                                                000000000013000                            
50002910201210192012102265000312319013       PES0000013000A601492012101911560045                                                
6024600013000122946500031231901300000000636                                                                                     
7PESE                                                                                000000000013000                            
50003010201210192012102265000229718637       PES0000013000A601492012101911560046                                                
6024600013000122946500022971863700000000684                                                                                     
7PESE                                                                                000000000013000                            
50003110201210192012102265000225681471       PES0000013000A601492012101911560047                                                
6024600013000122946500022568147100000000637                                                                                     
7PESE                                                                                000000000013000                            
50003210201210192012102201331230650187       PES0000052000A091102012101910260018                                                
6024600052000122990133123065018700080000042                                                                                     
7PESE                                                                                000000000052000                            
50003310201210192012102299020231727624       PES0000022000A082642012101912230096                                                
6024600022000123009902023172762400000000000                                                                                     
7PESE                                                                                000000000022000                            
50003410201210192012102200720620011365       PES0000047500A116402012101914460099                                                
6024600047500122960072062001136500000000042                                                                                     
7PESE                                                                                000000000047500                            
50003510201210192012102201331522349776       PES0000052000A090572012101916090278                                                
6024600052000122990133152234977600080000042                                                                                     
7PESE                                                                                000000000052000                            
50003610201210192012102200720230449649       PES0000047500A092032012101914530232                                                
6024600047500122980072023044964900000000099                                                                                     
7PESE                                                                                000000000047500                            
50003710201210192012102200720424775879       PES0000047500A092032012101914530233                                                
6024600047500122980072042477587900000000000                                                                                     
7PESE                                                                                000000000047500                            
50003810201210192012102200722433680194       PES0000037500A091692012101911290051                                                
6024600037500122990072243368019400000000058                                                                                     
7PESE                                                                                000000000037500                            
50003910201210192012102201331520022587       PES0000052000A118142012101918020277                                                
6024600052000122990133152002258700080000063                                                                                     
7PESE                                                                                000000000052000                            
50004010201210192012102200711120007040       PES0000032500A092332012101917410168                                                
6024600032500122970071112000704000000000078                                                                                     
7PESE                                                                                000000000032500                            
50004110201210192012102200710923592249       PES0000032500A092332012101917410169                                                
6024600032500122970071092359224900000000036                                                                                     
7PESE                                                                                000000000032500                            
50004210201210192012102200720714618498       PES0000047500A105602012101918250236                                                
6024600047500122950072071461849800000000078                                                                                     
7PESE                                                                                000000000047500                            
50004310201210192012102200712427344988       PES0000032500A104372012101917000012                                                
6024600032500122990071242734498800000000078                                                                                     
7PESE                                                                                000000000032500                            
50004410201210192012102269000326351366       PES0000006000A621082012101918200022                                                
6024600006000122986900032635136600000000021                                                                                     
7PESE                                                                                000000000006000                            
50004510201210192012102200722527757289       PES0000037500A095372012101917100082                                                
6024600037500122930072252775728900000000090                                                                                     
7PESE                                                                                000000000037500                            
50004610201210192012102265000133862633       PES0000013000A058062012101918130099                                                
6024600013000122946500013386263300000000516                                                                                     
7PESE                                                                                000000000013000                            
50004710201210192012102265000735365980       PES0000011700A058062012101918130100                                                
6024600011700122946500073536598000000000537                                                                                     
7PESE                                                                                000000000011700                            
50004810201210192012102200713733478194       PES0000032500A093412012101918390065                                                
6024600032500122970071373347819400000000015                                                                                     
7PESE                                                                                000000000032500                            
50004910201210192012102200710829802241       PES0000032500A093412012101918390066                                                
6024600032500122970071082980224100000000090                                                                                     
7PESE                                                                                000000000032500                            
50005010201210192012102200712429733317       PES0000032500A093412012101918390067                                                
6024600032500122970071242973331700000000078                                                                                     
7PESE                                                                                000000000032500                            
50005110201210192012102200720618215283       PES0000023750A071012012101918260088                                                
6024600023750122940072061821528300000500016                                                                                     
7PESE                                                                                000000000023750                            
50005210201210192012102265000313159305       PES0000013000A016702012101920090152                                                
6024600013000122946500031315930500015000000                                                                                     
7PESE                                                                                000000000013000                            
50005310201210192012102200722624365292       PES0000037500A051152012101918180116                                                
6024600037500122960072262436529200000000058                                                                                     
7PESE                                                                                000000000037500                            
50005410201210192012102200720521531844       PES0000047500A093992012101917490016                                                
6024600047500122950072052153184400000000016                                                                                     
7PESE                                                                                000000000047500                            
50005510201210192012102269012139764607       PES0000015000M620042012101918150045                                                
6024600015000122946901213976460700025000015                                                                                     
7PESE                                                                                000000000015000                            
50005610201210192012102244020332531883       PES0000008500M600432012101912580108                                                
6024600008500122974402033253188300000000099                                                                                     
7PESE                                                                                000000000008500                            
50005710201210192012102244020333023672       PES0000008500M600432012101912590109                                                
6024600008500122974402033302367200000000079                                                                                     
7PESE                                                                                000000000008500                            
50005810201210192012102200712427214176       PES0000032500M640342012101913370027                                                
6024600032500122940071242721417600000000036                                                                                     
7PESE                                                                                000000000032500                            
50005910201210192012102200722714739906       PES0000037500L071192012101910262612                                                
6024600037500122990072271473990600000000084                                                                                     
7PESE                                                                                000000000037500                            
50006010201210202012102218400137331394       PES0000025000A068742012102010190025                                                
6024600025000122961840013733139400000000078                                                                                     
7PESE                                                                                000000000025000                            
50006110201210202012102265000221452476       PES0000013000A091092012102009080004                                                
6024600013000122946500022145247600000000579                                                                                     
7PESE                                                                                000000000013000                            
50006210201210202012102265000517272693       PES0000013000D000762012102011210079                                                
6024600013000122946500051727269300000000721                                                                                     
7PESE                                                                                000000000013000                            
50006310201210202012102200712912841516       PES0000032500A104612012102012000169                                                
6024600032500122960071291284151600000000037                                                                                     
7PESE                                                                                000000000032500                            
50006410201210202012102200714423511777       PES0000032500A064992012102012120097                                                
6024600032500122990071442351177700000000042                                                                                     
7PESE                                                                                000000000032500                            
50006510201210202012102200714517287657       PES0000032500A100002012102010300019                                                
6024600032500122980071451728765700000000036                                                                                     
7PESE                                                                                000000000032500                            
50006610201210202012102200720520608242       PES0000047500A047802012102012020051                                                
6024600047500122960072052060824200000000084                                                                                     
7PESE                                                                                000000000047500                            
50006710201210202012102201331521836329       PES0000052000A109282012102011160022                                                
6024600052000122990133152183632900080000063                                                                                     
7PESE                                                                                000000000052000                            
50006810201210202012102265000220775238       PES0000013000A113312012102010310018                                                
6024600013000122946500022077523800000000700                                                                                     
7PESE                                                                                000000000013000                            
50006910201210202012102265000218257127       PES0000013000A063662012102011560109                                                
6024600013000122946500021825712700000000784                                                                                     
7PESE                                                                                000000000013000                            
50007010201210202012102200720425838674       PES0000047500A070822012102017420183                                                
6024600047500122990072042583867400000000090                                                                                     
7PESE                                                                                000000000047500                            
50007110201210202012102200712812894534       PES0000032500A104162012102009500029                                                
6024600032500122940071281289453400000000036                                                                                     
7PESE                                                                                000000000032500                            
50007210201210202012102200722808069875       PES0000037500A116402012102014570022                                                
6024600037500122990072280806987500000000063                                                                                     
7PESE                                                                                000000000037500                            
50007310201210202012102265000313022563       PES0000013000A113032012102010120021                                                
6024600013000122946500031302256300015000278                                                                                     
7PESE                                                                                000000000013000                            
50007410201210202012102270001336076759       PES0000005000A039982012102012010054                                                
6024600005000122977000133607675900000000099                                                                                     
7PESE                                                                                000000000005000                            
50007510201210202012102299030128984843       PES0000049000D000482012102020210012                                                
6024600049000123019903012898484300000000000                                                                                     
7PESE                                                                                000000000049000                            
50007610201210202012102299030128984843       PES0000043000D000482012102020210013                                                
6024600043000123019903012898484300035000084                                                                                     
7PESE                                                                                000000000043000                            
50007710201210202012102299030128984843       PES0000043000D000482012102020210014                                                
6024600043000123019903012898484300035000084                                                                                     
7PESE                                                                                000000000043000                            
50007810201210202012102270000139396475       PES0000013000A100132012102009420001                                                
6024600013000122897000013939647500000000790                                                                                     
7PESE                                                                                000000000013000                            
50007910201210202012102201331425397885       PES0000052000M620062012102010030004                                                
6024600052000123000133142539788500080000057                                                                                     
7PESE                                                                                000000000052000                            
50008010201210202012102265000308640009       PES0000013000L071192012102011082787                                                
6024600013000122946500030864000900015000136                                                                                     
7PESE                                                                                000000000013000                            
50008110201210212012102200720232188185       PES0000047500D000492012102111560089                                                
6024600047500122990072023218818500000000084                                                                                     
7PESE                                                                                000000000047500                            
82012102200000100000810000024544500000000000000000000000000000000000000000081                                                   
9201210220000010000081000002454450000000000000000000000000000000000000000000081                                                 
