120110622PAGO FACIL               090060246FABIAN NORBERTO D´ERAMO                                                              
320110622000001FABIAN NORBERTO D´ERAMO                                                                                          
50000110201106212011062217020620145630       PES0000016000A042632011062107440004                                                
6024600016000111761702062014563000040000057                                                                                     
7PESE                                                                                000000000016000                            
50000210201106212011062217021540366137       PES0000016000A044342011062117510051                                                
6024600016000111761702154036613700040000079                                                                                     
7PESE                                                                                000000000016000                            
50000310201106212011062217020717695751       PES0000016000A078202011062111590096                                                
6024600016000111781702071769575100040000042                                                                                     
7PESE                                                                                000000000016000                            
50000410201106212011062217021132841379       PES0000016000A078202011062109010032                                                
6024600016000111781702113284137900040000078                                                                                     
7PESE                                                                                000000000016000                            
82011062200000100000040000000640000000000000000000000000000000000000000000004                                                   
9201106220000010000004000000064000000000000000000000000000000000000000000000004                                                 
