120111223PAGO FACIL               090060246FABIAN NORBERTO D´ERAMO                                                              
320111223000001FABIAN NORBERTO D´ERAMO                                                                                          
50000110201112222011122323061392473425       PES0000085400M620862011122110166682                                                
6024600085400113562306139247342500234000242                                                                                     
7PESE                                                                                000000000085400                            
50000210201112222011122300612330143231       PES0000012000A096532011122215500152                                                
6024600012000113560061233014323100020000042                                                                                     
7PESE                                                                                000000000012000                            
50000310201112222011122300612524097992       PES0000012000A064332011122216280069                                                
6024600012000113570061252409799200020000063                                                                                     
7PESE                                                                                000000000012000                            
50000410201112222011122300611237538073       PES0000012000A056252011122217540099                                                
6024600012000113600061123753807300020000316                                                                                     
7PESE                                                                                000000000012000                            
50000510201112222011122300611526060895       PES0000012000A033992011122210430048                                                
6024600012000113600061152606089500020000237                                                                                     
7PESE                                                                                000000000012000                            
50000610201112222011122300611526420569       PES0000012000A070822011122211580092                                                
6024600012000113600061152642056900020000357                                                                                     
7PESE                                                                                000000000012000                            
50000710201112222011122300611814367974       PES0000012000A099812011122216270211                                                
6024600012000113600061181436797400020000300                                                                                     
7PESE                                                                                000000000012000                            
50000810201112222011122300612523414972       PES0000012000M600762011122216220091                                                
6024600012000113600061252341497200020000063                                                                                     
7PESE                                                                                000000000012000                            
50000910201112222011122300612814446969       PES0000012000D000552011122215540130                                                
6024600012000113600061281444696900020000358                                                                                     
7PESE                                                                                000000000012000                            
50001010201112222011122300612814619549       PES0000012000A091822011122209090016                                                
6024600012000113600061281461954900020000300                                                                                     
7PESE                                                                                000000000012000                            
50001110201112222011122329060413935535       PES0000013000M600842011122213140058                                                
6024600013000113572906041393553500000000015                                                                                     
7PESE                                                                                000000000013000                            
50001210201112222011122329060817485811       PES0000013000M600842011122213140059                                                
6024600013000113572906081748581100000000042                                                                                     
7PESE                                                                                000000000013000                            
50001310201112222011122329060226789770       PES0000013000A621032011122210130004                                                
6024600013000113592906022678977000000000084                                                                                     
7PESE                                                                                000000000013000                            
50001410201112222011122329060317062930       PES0000013000A075362011122213590298                                                
6024600013000113602906031706293000000000079                                                                                     
7PESE                                                                                000000000013000                            
50001510201112222011122329060222822873       PES0000013000D000102011122214050151                                                
6024600013000113612906022282287300000000016                                                                                     
7PESE                                                                                000000000013000                            
50001610201112222011122329060224407122       PES0000013000A032472011122209100010                                                
6024600013000113612906022440712200000000058                                                                                     
7PESE                                                                                000000000013000                            
50001710201112222011122329060410538652       PES0000013000D001142011122210110026                                                
6024600013000113622906041053865200000000036                                                                                     
7PESE                                                                                000000000013000                            
50001810201112222011122329060412179043       PES0000013000M640102011122210310032                                                
6024600013000113622906041217904300000000037                                                                                     
7PESE                                                                                000000000013000                            
50001910201112222011122329060413357353       PES0000013000A043642011122219240198                                                
6024600013000113632906041335735300000000084                                                                                     
7PESE                                                                                000000000013000                            
50002010201112222011122318361431951186       PES0000020000D001472011122217520105                                                
6024600020000113571836143195118600000000000                                                                                     
7PESE                                                                                000000000020000                            
50002110201112222011122318360427820475       PES0000020000A047382011122217040375                                                
6024600020000113601836042782047500000000015                                                                                     
7PESE                                                                                000000000020000                            
50002210201112222011122318360525554778       PES0000020000A026682011122212580074                                                
6024600020000113621836052555477800000000016                                                                                     
7PESE                                                                                000000000020000                            
50002310201112222011122318363222545377       PES0000020000A100652011122216220059                                                
6024600020000113621836322254537700000000058                                                                                     
7PESE                                                                                000000000020000                            
50002410201112222011122399040134998991       PES0000027000A046332011122210260078                                                
6024600027000113639904013499899100000000063                                                                                     
7PESE                                                                                000000000027000                            
50002510201112222011122323060324761861       PES0000076800A039002011122210130068                                                
6024600076800113562306032476186100192000779                                                                                     
7PESE                                                                                000000000076800                            
50002610201112222011122323060325785964       PES0000076800M601842011122212310093                                                
6024600076800113562306032578596400192000736                                                                                     
7PESE                                                                                000000000076800                            
50002710201112222011122323060516772143       PES0000076800A040462011122212300194                                                
6024600076800113562306051677214300192000615                                                                                     
7PESE                                                                                000000000076800                            
50002810201112222011122323060727461117       PES0000076800A099492011122215490022                                                
6024600076800113562306072746111700192000721                                                                                     
7PESE                                                                                000000000076800                            
50002910201112222011122323060933182478       PES0000076800A095762011122218020106                                                
6024600076800113562306093318247800192000721                                                                                     
7PESE                                                                                000000000076800                            
50003010201112222011122323061028378948       PES0000076800A079862011122208530004                                                
6024600076800113562306102837894800192000663                                                                                     
7PESE                                                                                000000000076800                            
50003110201112222011122323061030024153       PES0000076800A079862011122208530003                                                
6024600076800113562306103002415300192000658                                                                                     
7PESE                                                                                000000000076800                            
50003210201112222011122323061126886130       PES0000085400A111412011122217290031                                                
6024600085400113562306112688613000234000584                                                                                     
7PESE                                                                                000000000085400                            
50003310201112222011122323061132203971       PES0000085400A096332011122211530120                                                
6024600085400113562306113220397100234000621                                                                                     
7PESE                                                                                000000000085400                            
50003410201112222011122323061132216831       PES0000085400A111412011122217290032                                                
6024600085400113562306113221683100234000784                                                                                     
7PESE                                                                                000000000085400                            
50003510201112222011122323061133017662       PES0000085400A060952011122220570193                                                
6024600085400113562306113301766200234000715                                                                                     
7PESE                                                                                000000000085400                            
50003610201112222011122323061134368664       PES0000085400A060952011122220570192                                                
6024600085400113562306113436866400234000715                                                                                     
7PESE                                                                                000000000085400                            
50003710201112222011122323061135025315       PES0000085400A095852011122212420097                                                
6024600085400113562306113502531500234000416                                                                                     
7PESE                                                                                000000000085400                            
50003810201112222011122323061136716104       PES0000085400A080402011122217310025                                                
6024600085400113562306113671610400234000757                                                                                     
7PESE                                                                                000000000085400                            
50003910201112222011122323061136734034       PES0000085400L071002011122216355267                                                
6024600085400113562306113673403400234000736                                                                                     
7PESE                                                                                000000000085400                            
50004010201112222011122323061138291981       PES0000085400M620102011122212310008                                                
6024600085400113562306113829198100234000790                                                                                     
7PESE                                                                                000000000085400                            
50004110201112222011122323061139098728       PES0000085400A087212011122210370046                                                
6024600085400113562306113909872800234000616                                                                                     
7PESE                                                                                000000000085400                            
50004210201112222011122323061237611789       PES0000085400A046332011122214260219                                                
6024600085400113562306123761178900234000742                                                                                     
7PESE                                                                                000000000085400                            
50004310201112222011122323061238087899       PES0000085400L071002011122216355268                                                
6024600085400113562306123808789900234000742                                                                                     
7PESE                                                                                000000000085400                            
50004410201112222011122323061239344358       PES0000085400A088172011122215090253                                                
6024600085400113562306123934435800234000721                                                                                     
7PESE                                                                                000000000085400                            
50004510201112222011122323061327121002       PES0000085400A058112011122218550119                                                
6024600085400113562306132712100200234000779                                                                                     
7PESE                                                                                000000000085400                            
50004610201112222011122323061327339590       PES0000085400A027742011122211090011                                                
6024600085400113562306132733959000234000684                                                                                     
7PESE                                                                                000000000085400                            
50004710201112222011122323061328057354       PES0000085400A015292011122212500013                                                
6024600085400113562306132805735400234000616                                                                                     
7PESE                                                                                000000000085400                            
50004810201112222011122323061422746668       PES0000085400A081382011122209540041                                                
6024600085400113562306142274666800234000663                                                                                     
7PESE                                                                                000000000085400                            
50004910201112222011122323061424017530       PES0000085400A068902011122212440083                                                
6024600085400113562306142401753000234000621                                                                                     
7PESE                                                                                000000000085400                            
50005010201112222011122323061518412824       PES0000085400A079752011122214280007                                                
6024600085400113562306151841282400234000736                                                                                     
7PESE                                                                                000000000085400                            
50005110201112222011122323061521561277       PES0000085400A076442011122219360053                                                
6024600085400113562306152156127700234000737                                                                                     
7PESE                                                                                000000000085400                            
50005210201112222011122323061521653766       PES0000085400A071272011122216240304                                                
6024600085400113562306152165376600234000784                                                                                     
7PESE                                                                                000000000085400                            
50005310201112222011122323061613832570       PES0000085400A095412011122215210179                                                
6024600085400113562306161383257000234000784                                                                                     
7PESE                                                                                000000000085400                            
50005410201112222011122323061617487334       PES0000085400A087642011122214090073                                                
6024600085400113562306161748733400234000584                                                                                     
7PESE                                                                                000000000085400                            
50005510201112222011122323061617557932       PES0000085400A028072011122218060053                                                
6024600085400113562306161755793200234000679                                                                                     
7PESE                                                                                000000000085400                            
50005610201112222011122323061833768221       PES0000085400M600302011122213200089                                                
6024600085400113562306183376822100234000784                                                                                     
7PESE                                                                                000000000085400                            
50005710201112222011122323061833944116       PES0000085400M601662011122210150017                                                
6024600085400113562306183394411600234000658                                                                                     
7PESE                                                                                000000000085400                            
50005810201112222011122323061837913041       PES0000085400A029932011122218150058                                                
6024600085400113562306183791304100234000737                                                                                     
7PESE                                                                                000000000085400                            
50005910201112222011122323061838914237       PES0000085400A080402011122217320026                                                
6024600085400113562306183891423700234000742                                                                                     
7PESE                                                                                000000000085400                            
50006010201112222011122323061840000003       PES0000085400L071002011122216355269                                                
6024600085400113562306184000000300234000784                                                                                     
7PESE                                                                                000000000085400                            
50006110201112222011122323061920415430       PES0000085400A105252011122210460093                                                
6024600085400113562306192041543000234000615                                                                                     
7PESE                                                                                000000000085400                            
50006210201112222011122323061923452446       PES0000085400A105252011122210460094                                                
6024600085400113562306192345244600234000600                                                                                     
7PESE                                                                                000000000085400                            
50006310201112222011122323061924499061       PES0000085400A105252011122210460095                                                
6024600085400113562306192449906100234000621                                                                                     
7PESE                                                                                000000000085400                            
50006410201112222011122323061926057840       PES0000085400A076442011122217430031                                                
6024600085400113562306192605784000234000721                                                                                     
7PESE                                                                                000000000085400                            
50006510201112222011122323061928029043       PES0000085400A061472011122216410166                                                
6024600085400113562306192802904300234000721                                                                                     
7PESE                                                                                000000000085400                            
50006610201112222011122323061928060671       PES0000085400A054762011122216390147                                                
6024600085400113562306192806067100234000778                                                                                     
7PESE                                                                                000000000085400                            
50006710201112222011122323061930196009       PES0000085400A108062011122217020002                                                
6024600085400113562306193019600900234000637                                                                                     
7PESE                                                                                000000000085400                            
50006810201112222011122323061930451218       PES0000085400D001502011122212320079                                                
6024600085400113562306193045121800234000684                                                                                     
7PESE                                                                                000000000085400                            
82011122300000100000680000041148000000000000000000000000000000000000000000068                                                   
9201112230000010000068000004114800000000000000000000000000000000000000000000068                                                 
