120111024PAGO FACIL               090060246FABIAN NORBERTO D´ERAMO                                                              
320111024000001FABIAN NORBERTO D´ERAMO                                                                                          
50000110201110212011102400530327311770       PES0000039500A077372011102108390033                                                
6024600039500113000053032731177000000000058                                                                                     
7PESE                                                                                000000000039500                            
50000210201110212011102400530617874348       PES0000039500A088882011102110570021                                                
6024600039500112960053061787434800000000063                                                                                     
7PESE                                                                                000000000039500                            
50000310201110212011102400530326122260       PES0000039500A094372011102113090142                                                
6024600039500113000053032612226000000000000                                                                                     
7PESE                                                                                000000000039500                            
50000410201110212011102400530617684750       PES0000039500A109842011102111580069                                                
6024600039500113000053061768475000000000099                                                                                     
7PESE                                                                                000000000039500                            
50000510201110212011102418340716602152       PES0000020000A049022011102109040009                                                
6024600020000112971834071660215200000000063                                                                                     
7PESE                                                                                000000000020000                            
50000610201110212011102400530521981369       PES0000039500A064332011102110050038                                                
6024600039500112970053052198136900000000037                                                                                     
7PESE                                                                                000000000039500                            
50000710201110212011102400530713786205       PES0000039500D000462011102117510141                                                
6024600039500112940053071378620500000000016                                                                                     
7PESE                                                                                000000000039500                            
50000810201110212011102400532433043749       PES0000031000A064332011102114400002                                                
6024600031000112980053243304374900000000063                                                                                     
7PESE                                                                                000000000031000                            
50000910201110212011102400530424754431       PES0000039500A108262011102118060269                                                
6024600039500112990053042475443100000000037                                                                                     
7PESE                                                                                000000000039500                            
50001010201110212011102420040135855290       PES0000006000A011572011102116570088                                                
6024600006000112942004013585529000000000021                                                                                     
7PESE                                                                                000000000006000                            
50001110201110212011102400532530120709       PES0000031000D000592011102115540032                                                
6024600031000112990053253012070900000000090                                                                                     
7PESE                                                                                000000000031000                            
50001210201110212011102400530231454020       PES0000039500D000592011102115540033                                                
6024600039500113000053023145402000000000021                                                                                     
7PESE                                                                                000000000039500                            
50001310201110212011102420040224476817       PES0000006000A054542011102112410045                                                
6024600006000113002004022447681700000000057                                                                                     
7PESE                                                                                000000000006000                            
50001410201110212011102429060504640340       PES0000010000A051082011102113540024                                                
6024600010000112942906050464034000030000078                                                                                     
7PESE                                                                                000000000010000                            
50001510201110212011102446071622847432       PES0000012000A069522011102119260043                                                
6024600012000113004607162284743200020000042                                                                                     
7PESE                                                                                000000000012000                            
50001610201110212011102418340429033473       PES0000020000A095862011102119520061                                                
6024600020000113011834042903347300000000000                                                                                     
7PESE                                                                                000000000020000                            
50001710201110212011102400530328196801       PES0000039500M601652011102114180187                                                
6024600039500113000053032819680100000000015                                                                                     
7PESE                                                                                000000000039500                            
50001810201110212011102401290523127211       PES0000037000M601622011102115450166                                                
6024600037000113000129052312721100000000063                                                                                     
7PESE                                                                                000000000037000                            
50001910201110212011102400504039851218       PES0000027500M620882011102108510006                                                
6024600027500112970050403985121800000000078                                                                                     
7PESE                                                                                000000000027500                            
50002010201110212011102400533326933292       PES0000031000M600602011102110310026                                                
6024600031000113000053332693329200000000084                                                                                     
7PESE                                                                                000000000031000                            
50002110201110212011102400530526928248       PES0000039500M600602011102110320027                                                
6024600039500113000053052692824800000000057                                                                                     
7PESE                                                                                000000000039500                            
50002210201110222011102400530328532819       PES0000039500A104702011102118350061                                                
6024600039500113010053032853281900000000042                                                                                     
7PESE                                                                                000000000039500                            
50002310201110222011102401290331271700       PES0000037000A066582011102116340022                                                
6024600037000112960129033127170000000000037                                                                                     
7PESE                                                                                000000000037000                            
50002410201110232011102400502234339035       PES0000027500A028172011102115430038                                                
6024600027500113010050223433903500000000021                                                                                     
7PESE                                                                                000000000027500                            
50002510201110222011102429060410687902       PES0000010000A053092011102210130037                                                
6024600010000112982906041068790200030000084                                                                                     
7PESE                                                                                000000000010000                            
50002610201110222011102400504423522759       PES0000027500A051202011102211020021                                                
6024600027500113010050442352275900000000036                                                                                     
7PESE                                                                                000000000027500                            
50002710201110222011102400530518300986       PES0000039500A045372011102216090139                                                
6024600039500113010053051830098600000000058                                                                                     
7PESE                                                                                000000000039500                            
50002810201110222011102400502523433407       PES0000027500L070562011102211582926                                                
6024600027500113010050252343340700000000015                                                                                     
7PESE                                                                                000000000027500                            
50002910201110232011102429060821716563       PES0000010000A103902011102319330038                                                
6024600010000113032906082171656300030000099                                                                                     
7PESE                                                                                000000000010000                            
82011102400000100000290000008450000000000000000000000000000000000000000000029                                                   
9201110240000010000029000000845000000000000000000000000000000000000000000000029                                                 
