120120224PAGO FACIL               090060246FABIAN NORBERTO D´ERAMO                                                              
320120224000001FABIAN NORBERTO D´ERAMO                                                                                          
50000110201202232012022453010525172905       PES0000006000A620812012022312040171                                                
6024600006000120555301052517290500015000099                                                                                     
7PESE                                                                                000000000006000                            
50000210201202232012022400691333155011       PES0000020000A033992012022316590179                                                
6024600019000120510069133315501100010000615                                                                                     
7PESE                                                                                000000000020000                            
50000310201202232012022400692717668262       PES0000020000M640052012022310420045                                                
6024600019000120510069271766826200010000463                                                                                     
7PESE                                                                                000000000020000                            
50000410201202232012022400683108093434       PES0000021000A070462012022311160149                                                
6024600021000120540068310809343400020000099                                                                                     
7PESE                                                                                000000000021000                            
50000510201202232012022400685712706997       PES0000021000A099402012022318270113                                                
6024600021000120560068571270699700020000000                                                                                     
7PESE                                                                                000000000021000                            
50000610201202232012022400683917202364       PES0000021000A056252012022317070142                                                
6024600021000120590068391720236400020000079                                                                                     
7PESE                                                                                000000000021000                            
50000710201202232012022401311229583777       PES0000097000A620562012022313290141                                                
6024600097000120550131122958377700000000037                                                                                     
7PESE                                                                                000000000097000                            
50000810201202232012022401311518331656       PES0000097000M620152012022316510039                                                
6024600097000120550131151833165600000000000                                                                                     
7PESE                                                                                000000000097000                            
50000910201202232012022401311518385194       PES0000097000A613592012022311060102                                                
6024600097000120580131151838519400000000099                                                                                     
7PESE                                                                                000000000097000                            
82012022400000100000090000004000000000000000000000000000000000000000000000009                                                   
9201202240000010000009000000400000000000000000000000000000000000000000000000009                                                 
