120120824PAGO FACIL               090060246FABIAN NORBERTO D´ERAMO                                                              
320120824000001FABIAN NORBERTO D´ERAMO                                                                                          
50000110201208232012082400712427084687       PES0000023500A103032012082318040141                                                
6024600023500122360071242708468700055000036                                                                                     
7PESE                                                                                000000000023500                            
50000210201208232012082400712717662105       PES0000023500A105242012082316480034                                                
6024600023500122360071271766210500055000042                                                                                     
7PESE                                                                                000000000023500                            
50000310201208232012082400711626096350       PES0000023500A043482012082310040002                                                
6024600023500122410071162609635000055000078                                                                                     
7PESE                                                                                000000000023500                            
50000410201208232012082400712524977610       PES0000023500A101722012082310590108                                                
6024600023500122420071252497761000055000015                                                                                     
7PESE                                                                                000000000023500                            
50000510201208232012082400713229572268       PES0000023500A082002012082309360001                                                
6024600023500122420071322957226800055000037                                                                                     
7PESE                                                                                000000000023500                            
50000610201208232012082400711721983482       PES0000023500A087062012082311320001                                                
6024600023500122430071172198348200055000000                                                                                     
7PESE                                                                                000000000023500                            
50000710201208232012082400712812581137       PES0000023500A092062012082316030251                                                
6024600023500122430071281258113700055000042                                                                                     
7PESE                                                                                000000000023500                            
50000810201208232012082400714139063813       PES0000023500A068642012082314550042                                                
6024600023500122430071413906381300055000015                                                                                     
7PESE                                                                                000000000023500                            
50000910201208232012082417030623848218       PES0000025000A064792012082308310009                                                
6024600025000122421703062384821800050000000                                                                                     
7PESE                                                                                000000000025000                            
50001010201208232012082400540334600312       PES0000027000A015942012082317000092                                                
6024600027000122430054033460031200000000036                                                                                     
7PESE                                                                                000000000027000                            
50001110201208232012082402391004752239       PES0000036000A062272012082308550001                                                
6024600033000122330239100475223900030000479                                                                                     
7PESE                                                                                000000000036000                            
50001210201208232012082402390330575153       PES0000036000A047502012082317210057                                                
6024600036000122370239033057515300000000021                                                                                     
7PESE                                                                                000000000036000                            
50001310201208232012082402390621431554       PES0000036000A076112012082312420047                                                
6024600036000122370239062143155400000000058                                                                                     
7PESE                                                                                000000000036000                            
50001410201208232012082402390622185215       PES0000036000A601852012082310500041                                                
6024600036000122370239062218521500000000057                                                                                     
7PESE                                                                                000000000036000                            
50001510201208232012082402390716525485       PES0000036000A063662012082316380208                                                
6024600036000122370239071652548500000000021                                                                                     
7PESE                                                                                000000000036000                            
50001610201208232012082402390717684750       PES0000036000A110612012082316540015                                                
6024600036000122370239071768475000000000063                                                                                     
7PESE                                                                                000000000036000                            
50001710201208232012082402392232393111       PES0000036000A034222012082316180003                                                
6024600036000122370239223239311100000000058                                                                                     
7PESE                                                                                000000000036000                            
50001810201208232012082401320423375606       PES0000045000A028072012082315570054                                                
6024600045000122360132042337560600050000078                                                                                     
7PESE                                                                                000000000045000                            
50001910201208232012082401322228299762       PES0000045000A082002012082320490086                                                
6024600045000122370132222829976200050000036                                                                                     
7PESE                                                                                000000000045000                            
50002010201208232012082401320426077081       PES0000045000A028582012082313260127                                                
6024600045000122400132042607708100050000021                                                                                     
7PESE                                                                                000000000045000                            
50002110201208232012082401320522412716       PES0000045000A613622012082311000077                                                
6024600045000122420132052241271600050000021                                                                                     
7PESE                                                                                000000000045000                            
50002210201208232012082401320423252134       PES0000045000A099662012082319070044                                                
6024600045000122430132042325213400050000078                                                                                     
7PESE                                                                                000000000045000                            
50002310201208232012082401320521431554       PES0000045000A076112012082312420048                                                
6024600045000122430132052143155400050000063                                                                                     
7PESE                                                                                000000000045000                            
50002410201208232012082401320521796967       PES0000045000A085512012082310130038                                                
6024600045000122430132052179696700050000000                                                                                     
7PESE                                                                                000000000045000                            
50002510201208232012082499030134600312       PES0000049000A015942012082317000091                                                
6024600049000122439903013460031200000000084                                                                                     
7PESE                                                                                000000000049000                            
82012082400000100000250000008560000000000000000000000000000000000000000000025                                                   
9201208240000010000025000000856000000000000000000000000000000000000000000000025                                                 
