120120424PAGO FACIL               090060246FABIAN NORBERTO D´ERAMO                                                              
320120424000001FABIAN NORBERTO D´ERAMO                                                                                          
50000110201204232012042402353725553317       PES0000020000M600692012042315580052                                                
6024600017000121100235372555331700030000637                                                                                     
7PESE                                                                                000000000020000                            
50000210201204232012042402354014805560       PES0000020000L071032012042317413815                                                
6024600017000121100235401480556000030000715                                                                                     
7PESE                                                                                000000000020000                            
50000310201204232012042402351523789831       PES0000020000M620032012042318260243                                                
6024600020000121180235152378983100000000084                                                                                     
7PESE                                                                                000000000020000                            
50000410201204232012042402350427420185       PES0000033000L071032012042317413814                                                
6024600033000121170235042742018500000000090                                                                                     
7PESE                                                                                000000000033000                            
50000510201204232012042402350428532819       PES0000033000M620412012042310350013                                                
6024600033000121180235042853281900000000000                                                                                     
7PESE                                                                                000000000033000                            
82012042400000100000050000001260000000000000000000000000000000000000000000005                                                   
9201204240000010000005000000126000000000000000000000000000000000000000000000005                                                 
