120130125PAGO FACIL               090060246FABIAN NORBERTO D´ERAMO                                                              
320130125000001FABIAN NORBERTO D´ERAMO                                                                                          
50000110201301242013012502430522090793       PES0000040000A081982013012319580278                                                
6024600035000130200243052209079300050000621                                                                                     
7PESE                                                                                000000000040000                            
50000210201301242013012500790233531132       PES0000007500A002372013012418010109                                                
6024600007500130240079023353113200000000037                                                                                     
7PESE                                                                                000000000007500                            
50000310201301242013012500790911815057       PES0000007500A023232013012409030008                                                
6024600007500130240079091181505700000000090                                                                                     
7PESE                                                                                000000000007500                            
50000410201301242013012500790912975532       PES0000007500A023232013012409020007                                                
6024600007500130240079091297553200000000079                                                                                     
7PESE                                                                                000000000007500                            
50000510201301242013012500791010601358       PES0000007500A110952013012417400006                                                
6024600007500130240079101060135800000000000                                                                                     
7PESE                                                                                000000000007500                            
50000610201301242013012500792428950859       PES0000007500A002372013012418010110                                                
6024600007500130240079242895085900000000000                                                                                     
7PESE                                                                                000000000007500                            
50000710201301242013012573010635529836       PES0000010000A060492013012421290153                                                
6024600010000130287301063552983600020000357                                                                                     
7PESE                                                                                000000000010000                            
50000810201301242013012573010825756160       PES0000010000D001272013012412150153                                                
6024600010000130287301082575616000020000179                                                                                     
7PESE                                                                                000000000010000                            
50000910201301242013012573010921418933       PES0000010000L071222013012418246225                                                
6024600010000130287301092141893300020000300                                                                                     
7PESE                                                                                000000000010000                            
50001010201301242013012529090821928749       PES0000015000A091602013012417010341                                                
6024600015000130242909082192874900000000084                                                                                     
7PESE                                                                                000000000015000                            
50001110201301242013012529090228323096       PES0000015000A068722013012411350093                                                
6024600015000130302909022832309600000000021                                                                                     
7PESE                                                                                000000000015000                            
50001210201301242013012529090508505321       PES0000015000A085582013012417490086                                                
6024600015000130312909050850532100000000021                                                                                     
7PESE                                                                                000000000015000                            
50001310201301242013012529090818039333       PES0000015000A097432013012416240193                                                
6024600015000130312909081803933300000000042                                                                                     
7PESE                                                                                000000000015000                            
50001410201301242013012529091322526252       PES0000025000A104702013012409470055                                                
6024600025000130292909132252625200000000063                                                                                     
7PESE                                                                                000000000025000                            
50001510201301242013012529091135332763       PES0000025000A080942013012412220127                                                
6024600025000130302909113533276300000000036                                                                                     
7PESE                                                                                000000000025000                            
50001610201301242013012529091820215770       PES0000025000A620812013012411510005                                                
6024600025000130302909182021577000000000021                                                                                     
7PESE                                                                                000000000025000                            
50001710201301242013012529091320054966       PES0000025000A085582013012417500087                                                
6024600025000130312909132005496600000000000                                                                                     
7PESE                                                                                000000000025000                            
50001810201301242013012502432620702809       PES0000030000M640102013012409390004                                                
6024600030000130310243262070280900050000042                                                                                     
7PESE                                                                                000000000030000                            
50001910201301242013012502430424508573       PES0000040000A100262013012411160106                                                
6024600040000130310243042450857300075000000                                                                                     
7PESE                                                                                000000000040000                            
50002010201301242013012502430523330696       PES0000040000A100262013012411170107                                                
6024600040000130310243052333069600075000000                                                                                     
7PESE                                                                                000000000040000                            
50002110201301242013012501341617023973       PES0000135000A115752013012409390037                                                
6024600135000130300134161702397300150000090                                                                                     
7PESE                                                                                000000000135000                            
50002210201301242013012501341230557113       PES0000135000A097442013012411530113                                                
6024600135000130310134123055711300150000037                                                                                     
7PESE                                                                                000000000135000                            
50002310201301242013012501341326592694       PES0000135000M600302013012412100077                                                
6024600135000130310134132659269400150000099                                                                                     
7PESE                                                                                000000000135000                            
50002410201301242013012501341329858651       PES0000135000A102372013012413580107                                                
6024600135000130310134132985865100150000042                                                                                     
7PESE                                                                                000000000135000                            
82013012500000100000240000009175000000000000000000000000000000000000000000024                                                   
9201301250000010000024000000917500000000000000000000000000000000000000000000024                                                 
