120120125PAGO FACIL               090060246FABIAN NORBERTO D´ERAMO                                                              
320120125000001FABIAN NORBERTO D´ERAMO                                                                                          
50000110201201242012012500641913615519       PES0000006000A081352012012411400144                                                
6024600006000120280064191361551900000000078                                                                                     
7PESE                                                                                000000000006000                            
50000210201201242012012553010617076908       PES0000006000A039152012012411130029                                                
6024600006000120295301061707690800015000042                                                                                     
7PESE                                                                                000000000006000                            
50000310201201242012012529070636076609       PES0000010000A078732012012416520029                                                
6024600010000120252907063607660900000000021                                                                                     
7PESE                                                                                000000000010000                            
50000410201201242012012529070410538652       PES0000010000A071272012012410290071                                                
6024600010000120302907041053865200000000084                                                                                     
7PESE                                                                                000000000010000                            
50000510201201242012012599030233857579       PES0000043000M600252012012411540024                                                
6024600043000120309903023385757900000000021                                                                                     
7PESE                                                                                000000000043000                            
50000610201201242012012523060940596581       PES0000121600A613832012012410170043                                                
6024600121600120242306094059658100000000016                                                                                     
7PESE                                                                                000000000121600                            
50000710201201242012012523061927230314       PES0000136600M620752012012412260045                                                
6024600136600120272306192723031400000000042                                                                                     
7PESE                                                                                000000000136600                            
50000810201201242012012523061423224165       PES0000136600D001502012012410290042                                                
6024600136600120302306142322416500000000084                                                                                     
7PESE                                                                                000000000136600                            
82012012500000100000080000004698000000000000000000000000000000000000000000008                                                   
9201201250000010000008000000469800000000000000000000000000000000000000000000008                                                 
