120120425PAGO FACIL               090060246FABIAN NORBERTO D´ERAMO                                                              
320120425000001FABIAN NORBERTO D´ERAMO                                                                                          
50000110201204242012042502353239484908       PES0000020000A109842012042411230111                                                
6024600017000121100235323948490800030000563                                                                                     
7PESE                                                                                000000000020000                            
50000210201204242012042502353821957336       PES0000020000M601632012042413450102                                                
6024600020000121180235382195733600000000084                                                                                     
7PESE                                                                                000000000020000                            
50000310201204242012042599030232639591       PES0000049000A037802012042413090039                                                
6024600049000121189903023263959100000000084                                                                                     
7PESE                                                                                000000000049000                            
82012042500000100000030000000890000000000000000000000000000000000000000000003                                                   
9201204250000010000003000000089000000000000000000000000000000000000000000000003                                                 
