120121026PAGO FACIL               090060246FABIAN NORBERTO D´ERAMO                                                              
320121026000001FABIAN NORBERTO D´ERAMO                                                                                          
50000110201210252012102618410523414972       PES0000020000A011402012102410270050                                                
6024600020000123041841052341497200050000084                                                                                     
7PESE                                                                                000000000020000                            
50000210201210252012102644020622964810       PES0000008500A038942012102416200013                                                
6024600008500123014402062296481000000000036                                                                                     
7PESE                                                                                000000000008500                            
50000310201210252012102644021426455443       PES0000008500A038942012102416200014                                                
6024600008500123014402142645544300000000057                                                                                     
7PESE                                                                                000000000008500                            
50000410201210252012102600713728971538       PES0000032500A107662012102418290083                                                
6024600032500122990071372897153800000000015                                                                                     
7PESE                                                                                000000000032500                            
50000510201210252012102600721232441645       PES0000047500M600932012102416470047                                                
6024600047500122990072123244164500000000063                                                                                     
7PESE                                                                                000000000047500                            
50000610201210252012102600720328362939       PES0000047500M600932012102415160034                                                
6024600047500122990072032836293900000000090                                                                                     
7PESE                                                                                000000000047500                            
50000710201210252012102601331326592694       PES0000052000M600302012102411470057                                                
6024600052000122990133132659269400080000021                                                                                     
7PESE                                                                                000000000052000                            
50000810201210252012102618400429165491       PES0000025000M600372012102411300015                                                
6024600025000123001840042916549100000000090                                                                                     
7PESE                                                                                000000000025000                            
50000910201210252012102601331425300256       PES0000052000M620412012102410290008                                                
6024600052000123050133142530025600080000016                                                                                     
7PESE                                                                                000000000052000                            
50001010201210252012102601330424546392       PES0000052000M620412012102411400014                                                
6024600052000122980133042454639200080000021                                                                                     
7PESE                                                                                000000000052000                            
50001110201210252012102601330521845007       PES0000052000M620412012102411410013                                                
6024600052000122980133052184500700080000084                                                                                     
7PESE                                                                                000000000052000                            
50001210201210252012102601331618070149       PES0000052000M601812012102411140023                                                
6024600052000123020133161807014900080000079                                                                                     
7PESE                                                                                000000000052000                            
50001310201210252012102600751431380552       PES0000022500M600532012102412400084                                                
6024600022500123040075143138055200020000084                                                                                     
7PESE                                                                                000000000022500                            
50001410201210252012102601331522632470       PES0000052000M790002012102412090145                                                
6024600052000123040133152263247000080000021                                                                                     
7PESE                                                                                000000000052000                            
50001510201210252012102660001339647384       PES0000085000M740042012102410530057                                                
6024600085000122986000133964738400000000021                                                                                     
7PESE                                                                                000000000085000                            
50001610201210252012102670000523226785       PES0000013000M660032012102408390013                                                
6024600013000123017000052322678500000000099                                                                                     
7PESE                                                                                000000000013000                            
50001710201210252012102669000235092957       PES0000006000A621142012102511570044                                                
6024600006000123006900023509295700000000000                                                                                     
7PESE                                                                                000000000006000                            
50001810201210252012102669000327845614       PES0000006000A621142012102511560043                                                
6024600006000123006900032784561400000000016                                                                                     
7PESE                                                                                000000000006000                            
50001910201210252012102669000425076112       PES0000006000A620822012102510590002                                                
6024600006000123006900042507611200000000063                                                                                     
7PESE                                                                                000000000006000                            
50002010201210252012102669001323262452       PES0000006000A620822012102510590001                                                
6024600006000123006900132326245200000000021                                                                                     
7PESE                                                                                000000000006000                            
50002110201210252012102644020523054602       PES0000008500A044382012102510250039                                                
6024600008500123014402052305460200000000037                                                                                     
7PESE                                                                                000000000008500                            
50002210201210252012102644020813805077       PES0000008500A063662012102518520186                                                
6024600008500123014402081380507700000000063                                                                                     
7PESE                                                                                000000000008500                            
50002310201210252012102644020814819956       PES0000008500A063662012102511120114                                                
6024600008500123014402081481995600000000021                                                                                     
7PESE                                                                                000000000008500                            
50002410201210252012102665000216493213       PES0000013000A075132012102518220099                                                
6024600013000122946500021649321300000000716                                                                                     
7PESE                                                                                000000000013000                            
50002510201210252012102665000218505724       PES0000013000D000772012102515090286                                                
6024600013000122946500021850572400000000563                                                                                     
7PESE                                                                                000000000013000                            
50002610201210252012102665000223522885       PES0000013000A091192012102513200144                                                
6024600013000122946500022352288500000000742                                                                                     
7PESE                                                                                000000000013000                            
50002710201210252012102665000223553071       PES0000013000A078732012102516150035                                                
6024600013000123026500022355307100000000058                                                                                     
7PESE                                                                                000000000013000                            
50002810201210252012102665000134308530       PES0000013000D000772012102515100288                                                
6024600013000123046500013430853000000000063                                                                                     
7PESE                                                                                000000000013000                            
50002910201210252012102665000136160711       PES0000013000D000772012102515100289                                                
6024600013000123046500013616071100000000079                                                                                     
7PESE                                                                                000000000013000                            
50003010201210252012102665000135721888       PES0000013000D000772012102515090287                                                
6024600013000123066500013572188800000000078                                                                                     
7PESE                                                                                000000000013000                            
50003110201210252012102600720230575153       PES0000014250A047502012102516150086                                                
6024600014250122990072023057515300000500099                                                                                     
7PESE                                                                                000000000014250                            
50003210201210252012102629080317801956       PES0000015000D000842012102513160138                                                
6024600015000122992908031780195600030000042                                                                                     
7PESE                                                                                000000000015000                            
50003310201210252012102698010134521653       PES0000015000A110472012102518270068                                                
6024600015000123049801013452165300000000000                                                                                     
7PESE                                                                                000000000015000                            
50003410201210252012102618411431539755       PES0000020000A018912012102518180341                                                
6024600020000123001841143153975500050000036                                                                                     
7PESE                                                                                000000000020000                            
50003510201210252012102600752234800997       PES0000022500A007972012102516580093                                                
6024600022500123040075223480099700020000021                                                                                     
7PESE                                                                                000000000022500                            
50003610201210252012102600751336897303       PES0000022500A007972012102516590094                                                
6024600022500123050075133689730300020007015                                                                                     
7PESE                                                                                000000000022500                            
50003710201210252012102618400429544867       PES0000025000A071022012102516260003                                                
6024600025000123001840042954486700000000058                                                                                     
7PESE                                                                                000000000025000                            
50003810201210252012102618400429755732       PES0000025000A094562012102511570097                                                
6024600025000123001840042975573200000000036                                                                                     
7PESE                                                                                000000000025000                            
50003910201210252012102618400717684750       PES0000025000A601902012102513210032                                                
6024600025000123001840071768475000000000084                                                                                     
7PESE                                                                                000000000025000                            
50004010201210252012102618402720987379       PES0000025000A036992012102513580060                                                
6024600025000123001840272098737900000000063                                                                                     
7PESE                                                                                000000000025000                            
50004110201210252012102699040134430590       PES0000032000A102852012102516550170                                                
6024600032000123049904013443059000000000015                                                                                     
7PESE                                                                                000000000032000                            
50004210201210252012102600710133485006       PES0000032500A106072012102516050001                                                
6024600032500122990071013348500600000000090                                                                                     
7PESE                                                                                000000000032500                            
50004310201210252012102600711335229351       PES0000032500A081582012102518320107                                                
6024600032500122990071133522935100000000090                                                                                     
7PESE                                                                                000000000032500                            
50004410201210252012102600711527798063       PES0000032500A085512012102516380239                                                
6024600032500122990071152779806300000000042                                                                                     
7PESE                                                                                000000000032500                            
50004510201210252012102600712005470123       PES0000032500A063662012102515400032                                                
6024600032500122990071200547012300000000084                                                                                     
7PESE                                                                                000000000032500                            
50004610201210252012102600712138259661       PES0000032500A039232012102517250113                                                
6024600032500122990071213825966100000000021                                                                                     
7PESE                                                                                000000000032500                            
50004710201210252012102600712237431326       PES0000032500A089012012102515360007                                                
6024600032500122990071223743132600000000036                                                                                     
7PESE                                                                                000000000032500                            
50004810201210252012102600712333302876       PES0000032500D001472012102518570184                                                
6024600032500122990071233330287600000000021                                                                                     
7PESE                                                                                000000000032500                            
50004910201210252012102600712426898418       PES0000032500A008222012102517510167                                                
6024600032500122990071242689841800000000037                                                                                     
7PESE                                                                                000000000032500                            
50005010201210252012102600712428350783       PES0000032500A110622012102518240127                                                
6024600032500122990071242835078300000000084                                                                                     
7PESE                                                                                000000000032500                            
50005110201210252012102600712430014901       PES0000032500D001632012102513020043                                                
6024600032500122990071243001490100000000079                                                                                     
7PESE                                                                                000000000032500                            
50005210201210252012102600712493139435       PES0000032500A109902012102512310084                                                
6024600032500122990071249313943500000000084                                                                                     
7PESE                                                                                000000000032500                            
50005310201210252012102600712523134365       PES0000032500L070552012102510497161                                                
6024600032500122990071252313436500000000084                                                                                     
7PESE                                                                                000000000032500                            
50005410201210252012102600712523278294       PES0000032500A071242012102510110016                                                
6024600032500122990071252327829400000000016                                                                                     
7PESE                                                                                000000000032500                            
50005510201210252012102600712523401944       PES0000032500L070552012102510497162                                                
6024600032500122990071252340194400000000063                                                                                     
7PESE                                                                                000000000032500                            
50005610201210252012102600712525739155       PES0000032500A016652012102518340076                                                
6024600032500122990071252573915500000000037                                                                                     
7PESE                                                                                000000000032500                            
50005710201210252012102600712620469641       PES0000032500A088622012102521350403                                                
6024600032500122990071262046964100000000079                                                                                     
7PESE                                                                                000000000032500                            
50005810201210252012102600712623045372       PES0000032500A091592012102510250025                                                
6024600032500122990071262304537200000000090                                                                                     
7PESE                                                                                000000000032500                            
50005910201210252012102600712811994806       PES0000032500A601492012102516320137                                                
6024600032500122990071281199480600000000063                                                                                     
7PESE                                                                                000000000032500                            
50006010201210252012102600712812400347       PES0000032500A079422012102517530217                                                
6024600032500122990071281240034700000000036                                                                                     
7PESE                                                                                000000000032500                            
50006110201210252012102600713011961653       PES0000032500A063662012102515400029                                                
6024600032500122990071301196165300000000015                                                                                     
7PESE                                                                                000000000032500                            
50006210201210252012102600713442397066       PES0000032500A602232012102515020037                                                
6024600032500122990071344239706600000000079                                                                                     
7PESE                                                                                000000000032500                            
50006310201210252012102600713634849781       PES0000032500A109552012102518240146                                                
6024600032500122990071363484978100000000021                                                                                     
7PESE                                                                                000000000032500                            
50006410201210252012102600713730883467       PES0000032500A106162012102512040022                                                
6024600032500122990071373088346700000000042                                                                                     
7PESE                                                                                000000000032500                            
50006510201210252012102600713732452230       PES0000032500A079422012102513220058                                                
6024600032500122990071373245223000000000057                                                                                     
7PESE                                                                                000000000032500                            
50006610201210252012102600713732814502       PES0000032500A106162012102512040021                                                
6024600032500122990071373281450200000000021                                                                                     
7PESE                                                                                000000000032500                            
50006710201210252012102600713822100690       PES0000032500A071242012102511220042                                                
6024600032500122990071382210069000000000078                                                                                     
7PESE                                                                                000000000032500                            
50006810201210252012102600713822580094       PES0000032500A049072012102516170118                                                
6024600032500122990071382258009400000000063                                                                                     
7PESE                                                                                000000000032500                            
50006910201210252012102600713823753505       PES0000032500A063662012102515400031                                                
6024600032500122990071382375350500000000084                                                                                     
7PESE                                                                                000000000032500                            
50007010201210252012102600713825683688       PES0000032500A109792012102515560080                                                
6024600032500122990071382568368800000000078                                                                                     
7PESE                                                                                000000000032500                            
50007110201210252012102600713826532509       PES0000032500A104662012102519500203                                                
6024600032500122990071382653250900000000000                                                                                     
7PESE                                                                                000000000032500                            
50007210201210252012102600713916237013       PES0000032500A024232012102516220035                                                
6024600032500122990071391623701300000000063                                                                                     
7PESE                                                                                000000000032500                            
50007310201210252012102600713917958705       PES0000032500A064332012102515440023                                                
6024600032500122990071391795870500000000042                                                                                     
7PESE                                                                                000000000032500                            
50007410201210252012102600714139372734       PES0000032500A002092012102511490041                                                
6024600032500122990071413937273400000000099                                                                                     
7PESE                                                                                000000000032500                            
50007510201210252012102600714140511771       PES0000032500A028072012102519310167                                                
6024600032500122990071414051177100000000057                                                                                     
7PESE                                                                                000000000032500                            
50007610201210252012102600714237207243       PES0000032500A047992012102515360145                                                
6024600032500122990071423720724300000000079                                                                                     
7PESE                                                                                000000000032500                            
50007710201210252012102600714329544409       PES0000032500A093412012102518500042                                                
6024600032500122990071432954440900000000079                                                                                     
7PESE                                                                                000000000032500                            
50007810201210252012102600714330513578       PES0000032500A091772012102513240152                                                
6024600032500122990071433051357800000000021                                                                                     
7PESE                                                                                000000000032500                            
50007910201210252012102600714330736656       PES0000032500A093412012102518500041                                                
6024600032500122990071433073665600000000078                                                                                     
7PESE                                                                                000000000032500                            
50008010201210252012102600714331289574       PES0000032500A039562012102519490116                                                
6024600032500122990071433128957400000000000                                                                                     
7PESE                                                                                000000000032500                            
50008110201210252012102600714331477329       PES0000032500A075362012102517430246                                                
6024600032500122990071433147732900000000000                                                                                     
7PESE                                                                                000000000032500                            
50008210201210252012102600714333174273       PES0000032500A118512012102513280160                                                
6024600032500122990071433317427300000000021                                                                                     
7PESE                                                                                000000000032500                            
50008310201210252012102600714421093283       PES0000032500A089832012102512220016                                                
6024600032500122990071442109328300000000037                                                                                     
7PESE                                                                                000000000032500                            
50008410201210252012102600714421666101       PES0000032500A056902012102509440031                                                
6024600032500122990071442166610100000000042                                                                                     
7PESE                                                                                000000000032500                            
50008510201210252012102600714517586303       PES0000032500A119042012102518070004                                                
6024600032500122990071451758630300000000079                                                                                     
7PESE                                                                                000000000032500                            
50008610201210252012102600714608077928       PES0000032500A070822012102514300205                                                
6024600032500122990071460807792800000000078                                                                                     
7PESE                                                                                000000000032500                            
50008710201210252012102600722527601801       PES0000037500A091792012102517340104                                                
6024600037500122990072252760180100000000063                                                                                     
7PESE                                                                                000000000037500                            
50008810201210252012102600723731010911       PES0000037500A024432012102513250068                                                
6024600037500122990072373101091100000000058                                                                                     
7PESE                                                                                000000000037500                            
50008910201210252012102600723811961653       PES0000037500A063662012102515400028                                                
6024600037500122990072381196165300000000084                                                                                     
7PESE                                                                                000000000037500                            
50009010201210252012102600723825182025       PES0000037500A048292012102510280012                                                
6024600037500122990072382518202500000000090                                                                                     
7PESE                                                                                000000000037500                            
50009110201210252012102600723825848301       PES0000037500A028962012102517000260                                                
6024600037500122990072382584830100000000016                                                                                     
7PESE                                                                                000000000037500                            
50009210201210252012102600724020621183       PES0000037500A063662012102515400027                                                
6024600037500122990072402062118300000000063                                                                                     
7PESE                                                                                000000000037500                            
50009310201210252012102600724021635400       PES0000037500A055272012102518250217                                                
6024600037500122990072402163540000000000015                                                                                     
7PESE                                                                                000000000037500                            
50009410201210252012102600724022910841       PES0000037500A028202012102518320033                                                
6024600037500122990072402291084100000000042                                                                                     
7PESE                                                                                000000000037500                            
50009510201210252012102600724025597746       PES0000037500A046522012102518430101                                                
6024600037500122990072402559774600000000042                                                                                     
7PESE                                                                                000000000037500                            
50009610201210252012102600720137934621       PES0000047500A110612012102509490006                                                
6024600047500122990072013793462100000000078                                                                                     
7PESE                                                                                000000000047500                            
50009710201210252012102600720230994879       PES0000047500A091532012102512510202                                                
6024600047500122990072023099487900000000090                                                                                     
7PESE                                                                                000000000047500                            
50009810201210252012102600720231729736       PES0000047500A110382012102518400126                                                
6024600047500122990072023172973600000000036                                                                                     
7PESE                                                                                000000000047500                            
50009910201210252012102600720231899794       PES0000047500A037752012102520150216                                                
6024600047500122990072023189979400000000063                                                                                     
7PESE                                                                                000000000047500                            
50010010201210252012102600720232224291       PES0000047500A601122012102511190063                                                
6024600047500122990072023222429100000000063                                                                                     
7PESE                                                                                000000000047500                            
50010110201210252012102600720232962923       PES0000047500D001392012102519500027                                                
6024600047500122990072023296292300000000063                                                                                     
7PESE                                                                                000000000047500                            
50010210201210252012102600720327729078       PES0000047500A046092012102515460030                                                
6024600047500122990072032772907800000000084                                                                                     
7PESE                                                                                000000000047500                            
50010310201210252012102600720327847362       PES0000047500A601492012102511200031                                                
6024600047500122990072032784736200000000057                                                                                     
7PESE                                                                                000000000047500                            
50010410201210252012102600720328383771       PES0000047500A085562012102510540018                                                
6024600047500122990072032838377100000000057                                                                                     
7PESE                                                                                000000000047500                            
50010510201210252012102600720425171331       PES0000047500A040232012102518560313                                                
6024600047500122990072042517133100000000079                                                                                     
7PESE                                                                                000000000047500                            
50010610201210252012102600720425578594       PES0000047500L070092012102511457808                                                
6024600047500122990072042557859400000000037                                                                                     
7PESE                                                                                000000000047500                            
50010710201210252012102600720425866829       PES0000047500A007492012102510340050                                                
6024600047500122990072042586682900000000042                                                                                     
7PESE                                                                                000000000047500                            
50010810201210252012102600720426053543       PES0000047500D000302012102513190258                                                
6024600047500122990072042605354300000000084                                                                                     
7PESE                                                                                000000000047500                            
50010910201210252012102600720521441541       PES0000047500A064982012102518380102                                                
6024600047500122990072052144154100000000090                                                                                     
7PESE                                                                                000000000047500                            
50011010201210252012102600720521710074       PES0000047500A078112012102517270098                                                
6024600047500122990072052171007400000000021                                                                                     
7PESE                                                                                000000000047500                            
50011110201210252012102600720522598505       PES0000047500A110152012102511170052                                                
6024600047500122990072052259850500000000063                                                                                     
7PESE                                                                                000000000047500                            
50011210201210252012102600720616876845       PES0000047500A601122012102514150151                                                
6024600047500122990072061687684500000000058                                                                                     
7PESE                                                                                000000000047500                            
50011310201210252012102600720618065580       PES0000047500D000162012102513500136                                                
6024600047500122990072061806558000000000063                                                                                     
7PESE                                                                                000000000047500                            
50011410201210252012102600720620017621       PES0000047500A044492012102518350118                                                
6024600047500122990072062001762100000000063                                                                                     
7PESE                                                                                000000000047500                            
50011510201210252012102600720620023809       PES0000047500A048462012102516260125                                                
6024600047500122990072062002380900000000015                                                                                     
7PESE                                                                                000000000047500                            
50011610201210252012102600720714327439       PES0000047500A085512012102517230259                                                
6024600047500122990072071432743900000000036                                                                                     
7PESE                                                                                000000000047500                            
50011710201210252012102600720811893460       PES0000047500A092202012102512030230                                                
6024600047500122990072081189346000000000057                                                                                     
7PESE                                                                                000000000047500                            
50011810201210252012102600721326995945       PES0000047500A109842012102518280018                                                
6024600047500122990072132699594500000000000                                                                                     
7PESE                                                                                000000000047500                            
50011910201210252012102600721423753505       PES0000047500A063662012102515400030                                                
6024600047500122990072142375350500000000058                                                                                     
7PESE                                                                                000000000047500                            
50012010201210252012102600721520403768       PES0000047500D001512012102517010313                                                
6024600047500122990072152040376800000000036                                                                                     
7PESE                                                                                000000000047500                            
50012110201210252012102600721521820533       PES0000047500A048462012102516260126                                                
6024600047500122990072152182053300000000021                                                                                     
7PESE                                                                                000000000047500                            
50012210201210252012102601330231539755       PES0000052000A018912012102518170340                                                
6024600052000122990133023153975500080000090                                                                                     
7PESE                                                                                000000000052000                            
50012310201210252012102601330424393176       PES0000052000A620812012102509470069                                                
6024600052000122990133042439317600080000042                                                                                     
7PESE                                                                                000000000052000                            
50012410201210252012102601331423343347       PES0000052000A620812012102509470068                                                
6024600052000122990133142334334700080000058                                                                                     
7PESE                                                                                000000000052000                            
50012510201210252012102601331522399467       PES0000052000A063972012102512410132                                                
6024600052000122990133152239946700080000042                                                                                     
7PESE                                                                                000000000052000                            
50012610201210252012102601331522824103       PES0000052000A064332012102515110007                                                
6024600052000122990133152282410300080000042                                                                                     
7PESE                                                                                000000000052000                            
50012710201210252012102601331424366262       PES0000052000A080102012102511430077                                                
6024600052000123000133142436626200080000021                                                                                     
7PESE                                                                                000000000052000                            
50012810201210252012102601331426243637       PES0000052000A085382012102512590091                                                
6024600052000123000133142624363700080000000                                                                                     
7PESE                                                                                000000000052000                            
50012910201210252012102601331231571374       PES0000052000A102982012102512420050                                                
6024600052000123030133123157137400080000090                                                                                     
7PESE                                                                                000000000052000                            
50013010201210252012102601331617684750       PES0000052000A601902012102513210033                                                
6024600052000123030133161768475000080000099                                                                                     
7PESE                                                                                000000000052000                            
50013110201210252012102601331328686874       PES0000052000A085792012102510250025                                                
6024600052000123040133132868687400080000084                                                                                     
7PESE                                                                                000000000052000                            
50013210201210252012102601331522007408       PES0000052000A108932012102512020022                                                
6024600052000123040133152200740800080000021                                                                                     
7PESE                                                                                000000000052000                            
50013310201210252012102601331522173433       PES0000052000A117392012102510470026                                                
6024600052000123040133152217343300080000090                                                                                     
7PESE                                                                                000000000052000                            
50013410201210252012102601331426053543       PES0000052000D000302012102513190259                                                
6024600052000123060133142605354300080000037                                                                                     
7PESE                                                                                000000000052000                            
82012102600000100001340000047147500000000000000000000000000000000000000000134                                                   
9201210260000010000134000004714750000000000000000000000000000000000000000000134                                                 
