120110726PAGO FACIL               090060246FABIAN NORBERTO D´ERAMO                                                              
320110726000001FABIAN NORBERTO D´ERAMO                                                                                          
50000110201107252011072602310235266242       PES0000021500A042812011072512000008                                                
6024600021500112070231023526624200030000000                                                                                     
7PESE                                                                                000000000021500                            
50000210201107252011072600530714585030       PES0000027000A076262011072515520119                                                
6024600027000112100053071458503000115000084                                                                                     
7PESE                                                                                000000000027000                            
50000310201107252011072600530328751302       PES0000027000A091672011072510060001                                                
6024600027000112110053032875130200115007100                                                                                     
7PESE                                                                                000000000027000                            
50000410201107252011072600530712588854       PES0000027000A080832011072516560025                                                
6024600027000112110053071258885400115000036                                                                                     
7PESE                                                                                000000000027000                            
50000510201107252011072600531521477171       PES0000027000A055332011072513410183                                                
6024600027000112110053152147717100115007163                                                                                     
7PESE                                                                                000000000027000                            
82011072600000100000050000001295000000000000000000000000000000000000000000005                                                   
9201107260000010000005000000129500000000000000000000000000000000000000000000005                                                 
