120120926PAGO FACIL               090060246FABIAN NORBERTO D´ERAMO                                                              
320120926000001FABIAN NORBERTO D´ERAMO                                                                                          
50000110201209252012092699030137461688       PES0000049000A092332012092210200004                                                
6024600049000122729903013746168800000000021                                                                                     
7PESE                                                                                000000000049000                            
50000210201209252012092620050130160292       PES0000008000A073512012092512170036                                                
6024600008000122732005013016029200000000036                                                                                     
7PESE                                                                                000000000008000                            
50000310201209252012092620050220146762       PES0000008000A073512012092512160035                                                
6024600008000122732005022014676200000000063                                                                                     
7PESE                                                                                000000000008000                            
50000410201209252012092620050214452384       PES0000008000A029692012092517380067                                                
6024600008000122752005021445238400000000021                                                                                     
7PESE                                                                                000000000008000                            
50000510201209252012092620050417403075       PES0000008000A029692012092517380068                                                
6024600008000122752005041740307500000000090                                                                                     
7PESE                                                                                000000000008000                            
50000610201209252012092600714742960579       PES0000009000M601012012092511490061                                                
6024600009000122730071474296057900025000078                                                                                     
7PESE                                                                                000000000009000                            
50000710201209252012092665000528866917       PES0000013000A028202012092508070007                                                
6024600013000122686500052886691700015000057                                                                                     
7PESE                                                                                000000000013000                            
50000810201209252012092665000614868575       PES0000013000A092102012092509210010                                                
6024600013000122716500061486857500015000015                                                                                     
7PESE                                                                                000000000013000                            
50000910201209252012092665000133080121       PES0000013000A085512012092511260132                                                
6024600013000122736500013308012100015000090                                                                                     
7PESE                                                                                000000000013000                            
50001010201209252012092665000226403907       PES0000013000A085512012092511260131                                                
6024600013000122736500022640390700015000063                                                                                     
7PESE                                                                                000000000013000                            
50001110201209252012092618400427313554       PES0000015000A034222012092518500096                                                
6024600015000122711840042731355400100000042                                                                                     
7PESE                                                                                000000000015000                            
50001210201209252012092698010120628007       PES0000015000A098212012092511120196                                                
6024600015000122719801012062800700000000084                                                                                     
7PESE                                                                                000000000015000                            
50001310201209252012092600753008529149       PES0000019500A018312012092514090166                                                
6024600019500122690075300852914900030000016                                                                                     
7PESE                                                                                000000000019500                            
50001410201209252012092600752911848670       PES0000019500A028472012092511340107                                                
6024600019500122740075291184867000030007200                                                                                     
7PESE                                                                                000000000019500                            
50001510201209252012092629081226708440       PES0000020000A037752012092517400215                                                
6024600020000122692908122670844000030000078                                                                                     
7PESE                                                                                000000000020000                            
50001610201209252012092600540337121756       PES0000027000A042822012092511260038                                                
6024600027000122740054033712175600000000063                                                                                     
7PESE                                                                                000000000027000                            
50001710201209252012092600540437121756       PES0000027000A042822012092511260037                                                
6024600027000122740054043712175600000000099                                                                                     
7PESE                                                                                000000000027000                            
50001810201209252012092600712813978810       PES0000029000M600132012092511390059                                                
6024600029000122690071281397881000035000063                                                                                     
7PESE                                                                                000000000029000                            
50001910201209252012092600712911848670       PES0000029000A028472012092511340108                                                
6024600029000122690071291184867000035000000                                                                                     
7PESE                                                                                000000000029000                            
50002010201209252012092600713442199843       PES0000029000A074242012092519020068                                                
6024600029000122690071344219984300035000021                                                                                     
7PESE                                                                                000000000029000                            
50002110201209252012092600712332185751       PES0000029000A055202012092515080091                                                
6024600029000122700071233218575100035000036                                                                                     
7PESE                                                                                000000000029000                            
50002210201209252012092600712331475325       PES0000029000A092212012092517340662                                                
6024600029000122710071233147532500035000021                                                                                     
7PESE                                                                                000000000029000                            
50002310201209252012092600712718333694       PES0000029000M620162012092518100016                                                
6024600029000122710071271833369400035000000                                                                                     
7PESE                                                                                000000000029000                            
50002410201209252012092600712816427083       PES0000029000A074252012092511230166                                                
6024600029000122720071281642708300035000000                                                                                     
7PESE                                                                                000000000029000                            
50002510201209252012092600714043512127       PES0000029000M620162012092518090015                                                
6024600029000122720071404351212700035000078                                                                                     
7PESE                                                                                000000000029000                            
50002610201209252012092600710925265522       PES0000029000M620182012092514380123                                                
6024600029000122730071092526552200035000042                                                                                     
7PESE                                                                                000000000029000                            
50002710201209252012092600712525682519       PES0000029000A039232012092509580154                                                
6024600029000122740071252568251900035007199                                                                                     
7PESE                                                                                000000000029000                            
50002810201209252012092600712622025735       PES0000029000A082002012092516550078                                                
6024600029000122740071262202573500035007200                                                                                     
7PESE                                                                                000000000029000                            
50002910201209252012092600712720004185       PES0000029000A091792012092517010361                                                
6024600029000122740071272000418500035007258                                                                                     
7PESE                                                                                000000000029000                            
50003010201209252012092600714235367677       PES0000029000A091592012092516490299                                                
6024600029000122740071423536767700035000037                                                                                     
7PESE                                                                                000000000029000                            
50003110201209252012092600714330593471       PES0000029000A069132012092517120101                                                
6024600029000122740071433059347100035007178                                                                                     
7PESE                                                                                000000000029000                            
50003210201209252012092617030529363200       PES0000030000A052232012092511080127                                                
6024600030000122691703052936320000000000000                                                                                     
7PESE                                                                                000000000030000                            
50003310201209252012092617030240052204       PES0000030000A110882012092509350008                                                
6024600030000122701703024005220400000000016                                                                                     
7PESE                                                                                000000000030000                            
50003410201209252012092617030433537982       PES0000030000A118042012092520320051                                                
6024600030000122701703043353798200000000057                                                                                     
7PESE                                                                                000000000030000                            
50003510201209252012092617030526924475       PES0000030000M660232012092507480002                                                
6024600030000122701703052692447500000000042                                                                                     
7PESE                                                                                000000000030000                            
50003610201209252012092617030625751856       PES0000030000L071242012092516051460                                                
6024600030000122701703062575185600000000037                                                                                     
7PESE                                                                                000000000030000                            
50003710201209252012092617030916092508       PES0000030000A060922012092511100012                                                
6024600030000122701703091609250800000000099                                                                                     
7PESE                                                                                000000000030000                            
50003810201209252012092617031011831515       PES0000030000A039692012092510330025                                                
6024600030000122701703101183151500000000036                                                                                     
7PESE                                                                                000000000030000                            
50003910201209252012092617031108112040       PES0000030000A113802012092510510117                                                
6024600030000122701703110811204000000000015                                                                                     
7PESE                                                                                000000000030000                            
50004010201209252012092600722716427083       PES0000035000A074252012092511230165                                                
6024600035000122720072271642708300025000057                                                                                     
7PESE                                                                                000000000035000                            
50004110201209252012092600720811786531       PES0000046500A049022012092510230068                                                
6024600046500122680072081178653100010000078                                                                                     
7PESE                                                                                000000000046500                            
50004210201209252012092600720820988552       PES0000046500A049022012092510230069                                                
6024600046500122680072082098855200010000016                                                                                     
7PESE                                                                                000000000046500                            
50004310201209252012092600720232533326       PES0000046500A076112012092517400037                                                
6024600046500122700072023253332600010000078                                                                                     
7PESE                                                                                000000000046500                            
50004410201209252012092601320327847362       PES0000050000A601492012092515200184                                                
6024600050000122660132032784736200000000042                                                                                     
7PESE                                                                                000000000050000                            
50004510201209252012092601320423839996       PES0000050000M600642012092514260096                                                
6024600050000122660132042383999600000000042                                                                                     
7PESE                                                                                000000000050000                            
82012092600000100000450000012055000000000000000000000000000000000000000000045                                                   
9201209260000010000045000001205500000000000000000000000000000000000000000000045                                                 
