120110526PAGO FACIL               090060246FABIAN NORBERTO D´ERAMO                                                              
320110526000001FABIAN NORBERTO D´ERAMO                                                                                          
50000110201105242011052699040132507294       PES0000025000A059742011052417130130                                                
6024600025000111509904013250729400000000000                                                                                     
7PESE                                                                                000000000025000                            
82011052600000100000010000000250000000000000000000000000000000000000000000001                                                   
9201105260000010000001000000025000000000000000000000000000000000000000000000001                                                 
