120111027PAGO FACIL               090060246FABIAN NORBERTO D´ERAMO                                                              
320111027000001FABIAN NORBERTO D´ERAMO                                                                                          
50000110201110262011102720040718477059       PES0000003000A095352011102618580071                                                
6024600003000113002004071847705900000000078                                                                                     
7PESE                                                                                000000000003000                            
50000210201110262011102720040818485003       PES0000003000A095352011102618580070                                                
6024600003000113002004081848500300000000021                                                                                     
7PESE                                                                                000000000003000                            
50000310201110262011102720040841646959       PES0000003000A079302011102618170007                                                
6024600003000113002004084164695900000000015                                                                                     
7PESE                                                                                000000000003000                            
50000410201110262011102720040843034222       PES0000003000A079302011102618170006                                                
6024600003000113002004084303422200000000084                                                                                     
7PESE                                                                                000000000003000                            
50000510201110262011102720040129599699       PES0000006000A049022011102619000108                                                
6024600006000113002004012959969900000000000                                                                                     
7PESE                                                                                000000000006000                            
50000610201110262011102720040132757045       PES0000006000A099592011102613100013                                                
6024600006000113002004013275704500000000037                                                                                     
7PESE                                                                                000000000006000                            
50000710201110262011102720040211049985       PES0000006000A092102011102611500128                                                
6024600006000113002004021104998500000000057                                                                                     
7PESE                                                                                000000000006000                            
50000810201110262011102720040327767097       PES0000006000A017082011102617480034                                                
6024600006000113002004032776709700000000021                                                                                     
7PESE                                                                                000000000006000                            
50000910201110262011102720040334653552       PES0000006000A049022011102619000107                                                
6024600006000113002004033465355200000000084                                                                                     
7PESE                                                                                000000000006000                            
50001010201110262011102720040422052002       PES0000006000M600112011102613240107                                                
6024600006000113002004042205200200000000063                                                                                     
7PESE                                                                                000000000006000                            
50001110201110262011102720040522108141       PES0000006000A091882011102612170134                                                
6024600006000113002004052210814100000000063                                                                                     
7PESE                                                                                000000000006000                            
50001210201110262011102720040621918162       PES0000006000A091882011102612170135                                                
6024600006000113002004062191816200000000042                                                                                     
7PESE                                                                                000000000006000                            
50001310201110262011102700574741318446       PES0000007000A085232011102620440110                                                
6024600007000112990057474131844600015000037                                                                                     
7PESE                                                                                000000000007000                            
50001410201110262011102752000716233055       PES0000008000A058062011102618180062                                                
6024600008000113005200071623305500010000079                                                                                     
7PESE                                                                                000000000008000                            
50001510201110262011102700504741451317       PES0000010000A088422011102615310089                                                
6024600010000112990050474145131700000000042                                                                                     
7PESE                                                                                000000000010000                            
50001610201110262011102729060322231433       PES0000010000A056902011102610240007                                                
6024600010000113052906032223143300030000015                                                                                     
7PESE                                                                                000000000010000                            
50001710201110262011102729060412970517       PES0000010000A074942011102612210098                                                
6024600010000113062906041297051700030000036                                                                                     
7PESE                                                                                000000000010000                            
50001810201110262011102700532623045372       PES0000012400A043162011102611310058                                                
6024600012400113010053262304537200000000063                                                                                     
7PESE                                                                                000000000012400                            
50001910201110262011102700582137987982       PES0000018500M601312011102613260041                                                
6024600018500113030058213798798200040000184                                                                                     
7PESE                                                                                000000000018500                            
50002010201110262011102700582237987981       PES0000018500M601312011102613270043                                                
6024600018500113030058223798798100040000184                                                                                     
7PESE                                                                                000000000018500                            
50002110201110262011102700584038947277       PES0000018500M601312011102613260042                                                
6024600018500113030058403894727700040000121                                                                                     
7PESE                                                                                000000000018500                            
50002210201110262011102700584234435086       PES0000018500A082622011102617240133                                                
6024600018500113030058423443508600040007100                                                                                     
7PESE                                                                                000000000018500                            
50002310201110262011102718340331454020       PES0000020000A076782011102614020113                                                
6024600020000112991834033145402000000000021                                                                                     
7PESE                                                                                000000000020000                            
50002410201110262011102718340622431842       PES0000020000A032972011102616320080                                                
6024600020000113011834062243184200000000042                                                                                     
7PESE                                                                                000000000020000                            
50002510201110262011102718341238407880       PES0000020000M601842011102612310041                                                
6024600020000113011834123840788000000000000                                                                                     
7PESE                                                                                000000000020000                            
50002610201110262011102700502425968426       PES0000027500A074432011102610330029                                                
6024600027500113010050242596842600000000000                                                                                     
7PESE                                                                                000000000027500                            
50002710201110262011102700502426927116       PES0000027500A074432011102610330030                                                
6024600027500113010050242692711600000000063                                                                                     
7PESE                                                                                000000000027500                            
50002810201110262011102700532528081365       PES0000031000A091032011102613120050                                                
6024600031000112990053252808136500000000000                                                                                     
7PESE                                                                                000000000031000                            
50002910201110262011102701290428231795       PES0000037000A091042011102613550007                                                
6024600037000113010129042823179500000000084                                                                                     
7PESE                                                                                000000000037000                            
50003010201110262011102701290330083943       PES0000037000A092152011102614030298                                                
6024600037000113060129033008394300000000099                                                                                     
7PESE                                                                                000000000037000                            
50003110201110262011102700530326588755       PES0000039500A036192011102608570021                                                
6024600039500112990053032658875500000000057                                                                                     
7PESE                                                                                000000000039500                            
50003210201110262011102700530518429504       PES0000039500A011992011102613340061                                                
6024600039500112990053051842950400000000037                                                                                     
7PESE                                                                                000000000039500                            
50003310201110262011102700530522090793       PES0000039500A001552011102610130020                                                
6024600039500113000053052209079300000000000                                                                                     
7PESE                                                                                000000000039500                            
50003410201110262011102700530230086192       PES0000039500A049022011102612300102                                                
6024600039500113010053023008619200000000015                                                                                     
7PESE                                                                                000000000039500                            
50003510201110262011102700530423029757       PES0000039500A640652011102617510026                                                
6024600039500113010053042302975700000000057                                                                                     
7PESE                                                                                000000000039500                            
50003610201110262011102700530522434017       PES0000039500A026742011102613060068                                                
6024600039500113010053052243401700000000063                                                                                     
7PESE                                                                                000000000039500                            
50003710201110262011102700530714371454       PES0000039500A037752011102610350040                                                
6024600039500113010053071437145400000000016                                                                                     
7PESE                                                                                000000000039500                            
50003810201110262011102700531326452721       PES0000039500A640652011102617510025                                                
6024600039500113010053132645272100000000078                                                                                     
7PESE                                                                                000000000039500                            
50003910201110262011102799030230531074       PES0000041000A095372011102618470061                                                
6024600041000113039903023053107400000000037                                                                                     
7PESE                                                                                000000000041000                            
82011102700000100000390000007684000000000000000000000000000000000000000000039                                                   
9201110270000010000039000000768400000000000000000000000000000000000000000000039                                                 
