120121127PAGO FACIL               090060246FABIAN NORBERTO D´ERAMO                                                              
320121127000001FABIAN NORBERTO D´ERAMO                                                                                          
50000110201211232012112757010614932545       PES0000015000A051932012112210520009                                                
6024600015000123315701061493254500000000057                                                                                     
7PESE                                                                                000000000015000                            
50000210201211232012112701331230267203       PES0000052000A092672012112310240021                                                
6024600052000123310133123026720300080000036                                                                                     
7PESE                                                                                000000000052000                            
50000310201211232012112701331327228614       PES0000052000A092672012112310240022                                                
6024600052000123310133132722861400080000099                                                                                     
7PESE                                                                                000000000052000                            
50000410201211232012112772000326633213       PES0000012000A810072012112309450004                                                
6024600012000123297200032663321300000000015                                                                                     
7PESE                                                                                000000000012000                            
50000510201211232012112772000221403779       PES0000016000A810072012112309460005                                                
6024600016000123297200022140377900000000000                                                                                     
7PESE                                                                                000000000016000                            
50000610201211232012112772000324302799       PES0000012000A810072012112309460006                                                
6024600012000123297200032430279900000000063                                                                                     
7PESE                                                                                000000000012000                            
50000710201211232012112769011239918325       PES0000017500A602062012112310500026                                                
6024600017500123306901123991832500025000284                                                                                     
7PESE                                                                                000000000017500                            
50000810201211232012112772000328403288       PES0000012000A046592012112310160013                                                
6024600012000123297200032840328800000000021                                                                                     
7PESE                                                                                000000000012000                            
50000910201211232012112772000323905519       PES0000012000A046592012112310160014                                                
6024600012000123297200032390551900000000000                                                                                     
7PESE                                                                                000000000012000                            
50001010201211232012112772000340800538       PES0000012000A046592012112310160015                                                
6024600012000123297200034080053800000000057                                                                                     
7PESE                                                                                000000000012000                            
50001110201211232012112772000313421849       PES0000012000A046592012112312310036                                                
6024600012000123297200031342184900000000084                                                                                     
7PESE                                                                                000000000012000                            
50001210201211232012112772000229239537       PES0000016000A046592012112312310037                                                
6024600016000123297200022923953700000000016                                                                                     
7PESE                                                                                000000000016000                            
50001310201211232012112769012622890997       PES0000017500A062272012112312500078                                                
6024600017500123306901262289099700025000315                                                                                     
7PESE                                                                                000000000017500                            
50001410201211232012112700770924500199       PES0000025500A088172012112312260131                                                
6024600025500123310077092450019900030000000                                                                                     
7PESE                                                                                000000000025500                            
50001510201211232012112769011625443859       PES0000017500A046802012112314280021                                                
6024600017500123306901162544385900025000121                                                                                     
7PESE                                                                                000000000017500                            
50001610201211232012112700772622962788       PES0000025500D001642012112313010144                                                
6024600025500123330077262296278800030000063                                                                                     
7PESE                                                                                000000000025500                            
50001710201211232012112700772333366141       PES0000025500A031212012112317200117                                                
6024600025500123350077233336614100030000000                                                                                     
7PESE                                                                                000000000025500                            
50001810201211232012112700774425846785       PES0000025500A031212012112317200118                                                
6024600025500123350077442584678500030000078                                                                                     
7PESE                                                                                000000000025500                            
50001910201211232012112773000123196536       PES0000012000A105032012112312080036                                                
6024600012000123337300012319653600030000015                                                                                     
7PESE                                                                                000000000012000                            
50002010201211232012112773000121451437       PES0000012000A105032012112312080037                                                
6024600012000123337300012145143700030000078                                                                                     
7PESE                                                                                000000000012000                            
50002110201211232012112769011914840746       PES0000017500D000782012112312410186                                                
6024600017500123306901191484074600025000279                                                                                     
7PESE                                                                                000000000017500                            
50002210201211232012112788880000000083       PES0000001000A091652012112312090110                                                
6024600001000123358888000000008300000000021                                                                                     
7PESE                                                                                000000000001000                            
50002310201211232012112700772236982255       PES0000025500A092102012112313060124                                                
6024600025500123290077223698225500030000021                                                                                     
7PESE                                                                                000000000025500                            
50002410201211232012112772000224682803       PES0000016000A046592012112313330001                                                
6024600016000123297200022468280300000000021                                                                                     
7PESE                                                                                000000000016000                            
50002510201211232012112772000333450755       PES0000012000A046592012112316330039                                                
6024600012000123297200033345075500000000063                                                                                     
7PESE                                                                                000000000012000                            
50002610201211232012112772000338798429       PES0000012000A046592012112316510047                                                
6024600012000123297200033879842900000000036                                                                                     
7PESE                                                                                000000000012000                            
50002710201211232012112772000317235004       PES0000012000A046592012112317570061                                                
6024600012000123297200031723500400000000057                                                                                     
7PESE                                                                                000000000012000                            
50002810201211232012112788880000000081       PES0000001000A085542012112313010021                                                
6024600001000123348888000000008100000000021                                                                                     
7PESE                                                                                000000000001000                            
50002910201211232012112700772006513166       PES0000006375A091772012112311520111                                                
6024600006375123350077200651316600008250084                                                                                     
7PESE                                                                                000000000006375                            
50003010201211232012112769011528381281       PES0000017500A118592012112317020091                                                
6024600017500123306901152838128100025000563                                                                                     
7PESE                                                                                000000000017500                            
50003110201211232012112700774234214823       PES0000025500A032972012112314170226                                                
6024600025500123320077423421482300030000042                                                                                     
7PESE                                                                                000000000025500                            
50003210201211232012112729080920272598       PES0000015000A049092012112318570148                                                
6024600015000123322908092027259800030000063                                                                                     
7PESE                                                                                000000000015000                            
50003310201211232012112773000227393089       PES0000012000A101442012112315220206                                                
6024600012000123327300022739308900030000021                                                                                     
7PESE                                                                                000000000012000                            
50003410201211232012112773000127957231       PES0000012000A101442012112315220207                                                
6024600012000123327300012795723100030000042                                                                                     
7PESE                                                                                000000000012000                            
50003510201211232012112729080821577744       PES0000015000A112242012112312050049                                                
6024600015000123342908082157774400030000015                                                                                     
7PESE                                                                                000000000015000                            
50003610201211232012112729080822246539       PES0000015000A112242012112312050050                                                
6024600015000123342908082224653900030000021                                                                                     
7PESE                                                                                000000000015000                            
50003710201211232012112729080822246539       PES0000015000A112242012112312060051                                                
6024600015000123342908082224653900030000021                                                                                     
7PESE                                                                                000000000015000                            
50003810201211232012112771012010872238       PES0000009000A085182012112312390100                                                
6024600009000123357101201087223800000000063                                                                                     
7PESE                                                                                000000000009000                            
50003910201211232012112700771239267655       PES0000025500A109552012112318080151                                                
6024600025500123280077123926765500030000090                                                                                     
7PESE                                                                                000000000025500                            
50004010201211232012112772000231985368       PES0000016000A062782012112319200366                                                
6024600016000123287200023198536800000000016                                                                                     
7PESE                                                                                000000000016000                            
50004110201211232012112701331712982655       PES0000052000A031192012112319520312                                                
6024600052000123300133171298265500080000016                                                                                     
7PESE                                                                                000000000052000                            
50004210201211232012112769012622318536       PES0000017500A077842012112317040103                                                
6024600017500123306901262231853600025000599                                                                                     
7PESE                                                                                000000000017500                            
50004310201211232012112769012622956268       PES0000017500A077842012112320040129                                                
6024600017500123296901262295626800025000063                                                                                     
7PESE                                                                                000000000017500                            
50004410201211232012112769011722580094       PES0000017500A049072012112317080069                                                
6024600017500123306901172258009400025000378                                                                                     
7PESE                                                                                000000000017500                            
50004510201211232012112701331520426311       PES0000052000A014522012112318030154                                                
6024600052000123310133152042631100080000079                                                                                     
7PESE                                                                                000000000052000                            
50004610201211232012112701330523250677       PES0000052000A014522012112318030155                                                
6024600052000123310133052325067700080000000                                                                                     
7PESE                                                                                000000000052000                            
50004710201211232012112729080821504451       PES0000015000A076442012112317510044                                                
6024600015000123282908082150445100030000084                                                                                     
7PESE                                                                                000000000015000                            
50004810201211232012112772000512041385       PES0000009000L070642012112311428551                                                
6024600009000123297200051204138500000000099                                                                                     
7PESE                                                                                000000000009000                            
50004910201211232012112772000226128443       PES0000016000L070622012112313598805                                                
6024600016000123297200022612844300000000079                                                                                     
7PESE                                                                                000000000016000                            
50005010201211232012112772000339442614       PES0000012000L070682012112316584259                                                
6024600012000123297200033944261400000000042                                                                                     
7PESE                                                                                000000000012000                            
50005110201211232012112772000323905271       PES0000012000L070682012112316594260                                                
6024600012000123297200032390527100000000058                                                                                     
7PESE                                                                                000000000012000                            
50005210201211232012112772000520843259       PES0000009000L071292012112317473220                                                
6024600009000123297200052084325900000000037                                                                                     
7PESE                                                                                000000000009000                            
50005310201211232012112772000521871700       PES0000009000L071292012112317473221                                                
6024600009000123297200052187170000000000015                                                                                     
7PESE                                                                                000000000009000                            
50005410201211232012112772000337766928       PES0000012000L071292012112318183227                                                
6024600012000123297200033776692800000000042                                                                                     
7PESE                                                                                000000000012000                            
50005510201211232012112772000312116024       PES0000012000L071292012112318183228                                                
6024600012000123297200031211602400000000021                                                                                     
7PESE                                                                                000000000012000                            
50005610201211232012112772000223905301       PES0000016000L071292012112319173251                                                
6024600016000123297200022390530100000000057                                                                                     
7PESE                                                                                000000000016000                            
50005710201211232012112772000320048393       PES0000012000L070652012112319188961                                                
6024600012000123297200032004839300000000016                                                                                     
7PESE                                                                                000000000012000                            
50005810201211232012112772000524128444       PES0000009000L070602012112319383109                                                
6024600009000123297200052412844400000000084                                                                                     
7PESE                                                                                000000000009000                            
50005910201211232012112772000323811765       PES0000012000L070612012112319442796                                                
6024600012000123297200032381176500000000037                                                                                     
7PESE                                                                                000000000012000                            
50006010201211232012112772000223811765       PES0000016000L070622012112319468889                                                
6024600016000123297200022381176500000000099                                                                                     
7PESE                                                                                000000000016000                            
50006110201211232012112772000225335451       PES0000016000L071292012112320173264                                                
6024600016000123297200022533545100000000042                                                                                     
7PESE                                                                                000000000016000                            
50006210201211232012112772000227815038       PES0000016000L071292012112320173265                                                
6024600016000123297200022781503800000000021                                                                                     
7PESE                                                                                000000000016000                            
50006310201211232012112772000216263341       PES0000016000L070622012112320598913                                                
6024600016000123297200021626334100000000084                                                                                     
7PESE                                                                                000000000016000                            
50006410201211232012112769012138401499       PES0000017500M620142012112316550030                                                
6024600017500123306901213840149900025000400                                                                                     
7PESE                                                                                000000000017500                            
50006510201211232012112772000323849764       PES0000012000M810012012112314400042                                                
6024600012000123297200032384976400000000063                                                                                     
7PESE                                                                                000000000012000                            
50006610201211232012112772000530008183       PES0000009000M810012012112308240003                                                
6024600009000123297200053000818300000000079                                                                                     
7PESE                                                                                000000000009000                            
50006710201211242012112759010132336137       PES0000011000A081392012112319430027                                                
6024600011000123315901013233613700000000084                                                                                     
7PESE                                                                                000000000011000                            
50006810201211242012112701331329478193       PES0000052000A090532012112411360110                                                
6024600052000123320133132947819300080000057                                                                                     
7PESE                                                                                000000000052000                            
50006910201211242012112769014330953595       PES0000017500A082602012112410340032                                                
6024600017500123306901433095359500025000136                                                                                     
7PESE                                                                                000000000017500                            
50007010201211242012112769012429733317       PES0000017500A093412012112412240037                                                
6024600017500123306901242973331700025000590                                                                                     
7PESE                                                                                000000000017500                            
50007110201211242012112769013440948833       PES0000017500A093412012112412240038                                                
6024600017500123306901344094883300025000563                                                                                     
7PESE                                                                                000000000017500                            
50007210201211242012112769013442711732       PES0000017500A093412012112412250039                                                
6024600017500123306901344271173200025000536                                                                                     
7PESE                                                                                000000000017500                            
50007310201211242012112769014043728794       PES0000017500A044222012112408020021                                                
6024600017500123306901404372879400025000500                                                                                     
7PESE                                                                                000000000017500                            
50007410201211242012112773000124783029       PES0000012000A053302012112411220094                                                
6024600012000123317300012478302900030000063                                                                                     
7PESE                                                                                000000000012000                            
50007510201211242012112769012525144420       PES0000017500A023122012112410050035                                                
6024600017500123306901252514442000025000463                                                                                     
7PESE                                                                                000000000017500                            
50007610201211242012112769013442237928       PES0000017500A109552012112418410118                                                
6024600017500123306901344223792800025000542                                                                                     
7PESE                                                                                000000000017500                            
50007710201211242012112769013442237929       PES0000017500A109552012112418420119                                                
6024600017500123306901344223792900025000563                                                                                     
7PESE                                                                                000000000017500                            
50007810201211242012112700774744891530       PES0000006500A063832012112410060019                                                
6024600006500123340077474489153000015000084                                                                                     
7PESE                                                                                000000000006500                            
50007910201211242012112700773636996548       PES0000025500A025052012112416060034                                                
6024600025500123350077363699654800030000057                                                                                     
7PESE                                                                                000000000025500                            
50008010201211242012112700773911498304       PES0000025500M600402012112411510029                                                
6024600025500123340077391149830400030000036                                                                                     
7PESE                                                                                000000000025500                            
50008110201211252012112773000125756160       PES0000012000A070482012112520280149                                                
6024600012000123377300012575616000030000084                                                                                     
7PESE                                                                                000000000012000                            
50008210201211262012112773000125459518       PES0000012000D001262012112609550024                                                
6024600012000123317300012545951800030000084                                                                                     
7PESE                                                                                000000000012000                            
50008310201211262012112773000229513069       PES0000012000D001262012112609550025                                                
6024600012000123317300022951306900030000063                                                                                     
7PESE                                                                                000000000012000                            
82012112700000100000830000014568750000000000000000000000000000000000000000083                                                   
9201211270000010000083000001456875000000000000000000000000000000000000000000083                                                 
