120120327PAGO FACIL               090060246FABIAN NORBERTO D´ERAMO                                                              
320120327000001FABIAN NORBERTO D´ERAMO                                                                                          
50000110201203262012032799050136393323       PES0000008000M600572012032615100171                                                
6024600008000120869905013639332300000000021                                                                                     
7PESE                                                                                000000000008000                            
82012032700000100000010000000080000000000000000000000000000000000000000000001                                                   
9201203270000010000001000000008000000000000000000000000000000000000000000000001                                                 
