120120928PAGO FACIL               090060246FABIAN NORBERTO D´ERAMO                                                              
320120928000001FABIAN NORBERTO D´ERAMO                                                                                          
50000110201209272012092865000221790716       PES0000013000L120192012092417430880                                                
6024600013000122686500022179071600015000090                                                                                     
7PESE                                                                                000000000013000                            
50000210201209272012092820050126756104       PES0000008000L071132012092720108381                                                
6024600008000122732005012675610400000000015                                                                                     
7PESE                                                                                000000000008000                            
50000310201209272012092820050224213751       PES0000008000L071132012092720098380                                                
6024600008000122732005022421375100000000037                                                                                     
7PESE                                                                                000000000008000                            
50000410201209272012092820050222205617       PES0000008000A600982012092713050045                                                
6024600008000122742005022220561700000000084                                                                                     
7PESE                                                                                000000000008000                            
50000510201209272012092829080224948042       PES0000012000A068912012092709550016                                                
6024600012000122742908022494804200030007315                                                                                     
7PESE                                                                                000000000012000                            
50000610201209272012092829080317143098       PES0000012000A100022012092711410201                                                
6024600012000122742908031714309800030007236                                                                                     
7PESE                                                                                000000000012000                            
50000710201209272012092829080414013921       PES0000012000A088622012092710100035                                                
6024600012000122742908041401392100030007258                                                                                     
7PESE                                                                                000000000012000                            
50000810201209272012092800752330409317       PES0000019500M601252012092713520096                                                
6024600019500122710075233040931700030000021                                                                                     
7PESE                                                                                000000000019500                            
50000910201209272012092800540429399057       PES0000027000A058032012092712090100                                                
6024600027000122740054042939905700000000042                                                                                     
7PESE                                                                                000000000027000                            
50001010201209272012092800540432944859       PES0000027000A095132012092711200040                                                
6024600027000122740054043294485900000000063                                                                                     
7PESE                                                                                000000000027000                            
50001110201209272012092867000117589500       PES0000027000A063662012092711270093                                                
6024600027000122756700011758950000000000079                                                                                     
7PESE                                                                                000000000027000                            
50001210201209272012092800711722234247       PES0000029000A112172012092711420021                                                
6024600029000122710071172223424700035000099                                                                                     
7PESE                                                                                000000000029000                            
50001310201209272012092800712429055340       PES0000029000A017122012092717510051                                                
6024600029000122710071242905534000035000078                                                                                     
7PESE                                                                                000000000029000                            
50001410201209272012092800714042368297       PES0000029000A109002012092710110036                                                
6024600029000122710071404236829700035000037                                                                                     
7PESE                                                                                000000000029000                            
50001510201209272012092800711527442201       PES0000029000A113802012092716550022                                                
6024600029000122720071152744220100035000084                                                                                     
7PESE                                                                                000000000029000                            
50001610201209272012092800712429825582       PES0000029000A044652012092710530058                                                
6024600029000122730071242982558200035000000                                                                                     
7PESE                                                                                000000000029000                            
50001710201209272012092800712621836691       PES0000029000D000662012092713530041                                                
6024600029000122730071262183669100035000099                                                                                     
7PESE                                                                                000000000029000                            
50001810201209272012092800711431144550       PES0000029000M600392012092716480110                                                
6024600029000122740071143114455000035007137                                                                                     
7PESE                                                                                000000000029000                            
50001910201209272012092800712012177406       PES0000029000A090562012092713490075                                                
6024600029000122740071201217740600035007137                                                                                     
7PESE                                                                                000000000029000                            
50002010201209272012092800712331757783       PES0000029000A083092012092711020051                                                
6024600029000122740071233175778300035007321                                                                                     
7PESE                                                                                000000000029000                            
50002110201209272012092800712525189203       PES0000029000A090802012092715020198                                                
6024600029000122740071252518920300035007463                                                                                     
7PESE                                                                                000000000029000                            
50002210201209272012092800712525273094       PES0000029000A037752012092714280193                                                
6024600029000122740071252527309400035000000                                                                                     
7PESE                                                                                000000000029000                            
50002310201209272012092800713635063314       PES0000029000A017262012092716500068                                                
6024600029000122740071363506331400035007457                                                                                     
7PESE                                                                                000000000029000                            
50002410201209272012092800713917715647       PES0000029000A091052012092715100224                                                
6024600029000122740071391771564700035007284                                                                                     
7PESE                                                                                000000000029000                            
50002510201209272012092800714137468336       PES0000029000D000482012092716200028                                                
6024600029000122740071413746833600035007315                                                                                     
7PESE                                                                                000000000029000                            
50002610201209272012092800714138028442       PES0000029000A049072012092711290121                                                
6024600029000122740071413802844200035007358                                                                                     
7PESE                                                                                000000000029000                            
50002710201209272012092800714333084152       PES0000029000M601972012092712330011                                                
6024600029000122740071433308415200035007100                                                                                     
7PESE                                                                                000000000029000                            
50002810201209272012092800714333498202       PES0000029000A091482012092713180145                                                
6024600029000122740071433349820200035007400                                                                                     
7PESE                                                                                000000000029000                            
50002910201209272012092817030337127148       PES0000030000A118042012092720330049                                                
6024600030000122721703033712714800000000042                                                                                     
7PESE                                                                                000000000030000                            
50003010201209272012092817030526645105       PES0000030000A099852012092711040183                                                
6024600030000122721703052664510500000000036                                                                                     
7PESE                                                                                000000000030000                            
50003110201209272012092817030529301107       PES0000030000A099852012092711050184                                                
6024600030000122721703052930110700000000036                                                                                     
7PESE                                                                                000000000030000                            
50003210201209272012092817030625388638       PES0000030000A064022012092708540010                                                
6024600030000122721703062538863800000000016                                                                                     
7PESE                                                                                000000000030000                            
50003310201209272012092817030916017735       PES0000030000A060922012092717570232                                                
6024600030000122721703091601773500000000016                                                                                     
7PESE                                                                                000000000030000                            
50003410201209272012092817030916092764       PES0000030000A060922012092718280252                                                
6024600030000122721703091609276400000000063                                                                                     
7PESE                                                                                000000000030000                            
50003510201209272012092800722532359391       PES0000035000M601652012092712560097                                                
6024600035000122780072253235939100025000099                                                                                     
7PESE                                                                                000000000035000                            
50003610201209272012092800720328933333       PES0000046500D000592012092711120054                                                
6024600046500122760072032893333300010000000                                                                                     
7PESE                                                                                000000000046500                            
50003710201209272012092800720425121058       PES0000046500A042812012092717450066                                                
6024600046500122760072042512105800010000090                                                                                     
7PESE                                                                                000000000046500                            
82012092800000100000370000009745000000000000000000000000000000000000000000037                                                   
9201209280000010000037000000974500000000000000000000000000000000000000000000037                                                 
