120110728PAGO FACIL               090060246FABIAN NORBERTO D´ERAMO                                                              
320110728000001FABIAN NORBERTO D´ERAMO                                                                                          
50000110201107272011072817020524090408       PES0000016000A037782011072711120010                                                
6024600016000112141702052409040800040000036                                                                                     
7PESE                                                                                000000000016000                            
50000210201107272011072817020717869093       PES0000016000A060922011072716470051                                                
6024600016000112141702071786909300040000078                                                                                     
7PESE                                                                                000000000016000                            
50000310201107272011072800532625187654       PES0000018000A086862011072711220033                                                
6024600018000112110053262518765400110007337                                                                                     
7PESE                                                                                000000000018000                            
50000410201107272011072800533730193610       PES0000018000L120262011072712179181                                                
6024600018000112110053373019361000110000163                                                                                     
7PESE                                                                                000000000018000                            
50000510201107272011072802310622147709       PES0000021500A046332011072711290005                                                
6024600021500112110231062214770900030007257                                                                                     
7PESE                                                                                000000000021500                            
50000610201107272011072800530392939683       PES0000027000M601042011072713280137                                                
6024600027000112110053039293968300115007121                                                                                     
7PESE                                                                                000000000027000                            
50000710201107272011072800530425264786       PES0000027000A103752011072711040011                                                
6024600027000112110053042526478600115007157                                                                                     
7PESE                                                                                000000000027000                            
50000810201107272011072800530518291538       PES0000027000A098602011072712270023                                                
6024600027000112110053051829153800115000021                                                                                     
7PESE                                                                                000000000027000                            
82011072800000100000080000001705000000000000000000000000000000000000000000008                                                   
9201107280000010000008000000170500000000000000000000000000000000000000000000008                                                 
