120130129PAGO FACIL               090060246FABIAN NORBERTO D´ERAMO                                                              
320130129000001FABIAN NORBERTO D´ERAMO                                                                                          
50000110201301282013012900784746817096       PES0000005500A109552013012817280088                                                
6024600005500130310078474681709600010007142                                                                                     
7PESE                                                                                000000000005500                            
50000210201301282013012973011322603418       PES0000008000D001382013012821550182                                                
6024600008000130287301132260341800020007621                                                                                     
7PESE                                                                                000000000008000                            
50000310201301282013012973011326402795       PES0000008000A106342013012818380096                                                
6024600008000130287301132640279500020007616                                                                                     
7PESE                                                                                000000000008000                            
50000410201301282013012973011331053550       PES0000008000A114252013012818000100                                                
6024600008000130287301133105355000020007657                                                                                     
7PESE                                                                                000000000008000                            
50000510201301282013012973011335636754       PES0000008000A087542013012817560007                                                
6024600008000130287301133563675400020007490                                                                                     
7PESE                                                                                000000000008000                            
50000610201301282013012973011337166274       PES0000008000A052412013012817580055                                                
6024600008000130287301133716627400020007663                                                                                     
7PESE                                                                                000000000008000                            
50000710201301282013012973011341918539       PES0000008000A097162013012820590123                                                
6024600008000130287301134191853900020007699                                                                                     
7PESE                                                                                000000000008000                            
50000810201301282013012973011423457549       PES0000008000A106342013012818380097                                                
6024600008000130287301142345754900020007642                                                                                     
7PESE                                                                                000000000008000                            
50000910201301282013012973011442476175       PES0000008000D001382013012821550181                                                
6024600008000130287301144247617500020007642                                                                                     
7PESE                                                                                000000000008000                            
50001010201301282013012973010230327028       PES0000010000D001252013012820360131                                                
6024600010000130287301023032702800020007684                                                                                     
7PESE                                                                                000000000010000                            
50001110201301282013012973010231996734       PES0000010000A096832013012816090092                                                
6024600010000130287301023199673400020007684                                                                                     
7PESE                                                                                000000000010000                            
50001210201301282013012973010322496641       PES0000010000A106342013012817290044                                                
6024600010000130287301032249664100020007337                                                                                     
7PESE                                                                                000000000010000                            
50001310201301282013012973010323278874       PES0000010000A096712013012819590153                                                
6024600010000130287301032327887400020007416                                                                                     
7PESE                                                                                000000000010000                            
50001410201301282013012973010326305860       PES0000010000A087542013012817380001                                                
6024600010000130287301032630586000020007337                                                                                     
7PESE                                                                                000000000010000                            
50001510201301282013012973010417457240       PES0000010000A087542013012817570008                                                
6024600010000130287301041745724000020007416                                                                                     
7PESE                                                                                000000000010000                            
50001610201301282013012973010418058949       PES0000010000A097962013012819340093                                                
6024600010000130287301041805894900020007515                                                                                     
7PESE                                                                                000000000010000                            
50001710201301282013012973010540249080       PES0000010000D001002013012811530051                                                
6024600010000130287301054024908000020007684                                                                                     
7PESE                                                                                000000000010000                            
50001810201301282013012973010630309732       PES0000010000A076352013012820340181                                                
6024600010000130287301063030973200020007684                                                                                     
7PESE                                                                                000000000010000                            
50001910201301282013012973010630710809       PES0000010000M660142013012810105878                                                
6024600010000130287301063071080900020007321                                                                                     
7PESE                                                                                000000000010000                            
50002010201301282013012973010630971695       PES0000010000A096832013012816090090                                                
6024600010000130287301063097169500020007684                                                                                     
7PESE                                                                                000000000010000                            
50002110201301282013012973010631044581       PES0000010000M660142013012817175918                                                
6024600010000130287301063104458100020007363                                                                                     
7PESE                                                                                000000000010000                            
50002210201301282013012973010631056800       PES0000010000A107452013012812260029                                                
6024600010000130287301063105680000020000100                                                                                     
7PESE                                                                                000000000010000                            
50002310201301282013012973010631313707       PES0000010000M660142013012811445903                                                
6024600010000130287301063131370700020007316                                                                                     
7PESE                                                                                000000000010000                            
50002410201301282013012973010631479562       PES0000010000A120232013012818280091                                                
6024600010000130287301063147956200020007400                                                                                     
7PESE                                                                                000000000010000                            
50002510201301282013012973010631667551       PES0000010000A096832013012816090091                                                
6024600010000130287301063166755100020007663                                                                                     
7PESE                                                                                000000000010000                            
50002610201301282013012973010632389305       PES0000010000A052412013012819050116                                                
6024600010000130287301063238930500020000200                                                                                     
7PESE                                                                                000000000010000                            
50002710201301282013012973010632555201       PES0000010000A061432013012808290033                                                
6024600010000130287301063255520100020007384                                                                                     
7PESE                                                                                000000000010000                            
50002810201301282013012973010632572210       PES0000010000M660152013012811580046                                                
6024600010000130287301063257221000020007321                                                                                     
7PESE                                                                                000000000010000                            
50002910201301282013012973010632683287       PES0000010000A113122013012815500017                                                
6024600010000130287301063268328700020000300                                                                                     
7PESE                                                                                000000000010000                            
50003010201301282013012973010633117953       PES0000010000A083612013012809450082                                                
6024600010000130287301063311795300020007684                                                                                     
7PESE                                                                                000000000010000                            
50003110201301282013012973010634011673       PES0000010000D001222013012817350189                                                
6024600010000130287301063401167300020000284                                                                                     
7PESE                                                                                000000000010000                            
50003210201301282013012973010634115197       PES0000010000A101432013012817500244                                                
6024600010000130287301063411519700020007663                                                                                     
7PESE                                                                                000000000010000                            
50003310201301282013012973010634289339       PES0000010000A099262013012809280013                                                
6024600010000130287301063428933900020007500                                                                                     
7PESE                                                                                000000000010000                            
50003410201301282013012973010636119962       PES0000010000A052412013012820480203                                                
6024600010000130287301063611996200020007379                                                                                     
7PESE                                                                                000000000010000                            
50003510201301282013012973010636429025       PES0000010000A083592013012817480339                                                
6024600010000130287301063642902500020007663                                                                                     
7PESE                                                                                000000000010000                            
50003610201301282013012973010636447277       PES0000010000A120232013012818260090                                                
6024600010000130287301063644727700020007484                                                                                     
7PESE                                                                                000000000010000                            
50003710201301282013012973010637476071       PES0000010000A106342013012818360094                                                
6024600010000130287301063747607100020000284                                                                                     
7PESE                                                                                000000000010000                            
50003810201301282013012973010726563611       PES0000010000A114252013012818000101                                                
6024600010000130287301072656361100020007615                                                                                     
7PESE                                                                                000000000010000                            
50003910201301282013012973010727098804       PES0000010000A101432013012814080172                                                
6024600010000130287301072709880400020007379                                                                                     
7PESE                                                                                000000000010000                            
50004010201301282013012973010727212608       PES0000010000A096092013012817440036                                                
6024600010000130287301072721260800020007300                                                                                     
7PESE                                                                                000000000010000                            
50004110201301282013012973010727248629       PES0000010000D001252013012820370132                                                
6024600010000130287301072724862900020007484                                                                                     
7PESE                                                                                000000000010000                            
50004210201301282013012973010727423968       PES0000010000A112612013012813410021                                                
6024600010000130287301072742396800020000179                                                                                     
7PESE                                                                                000000000010000                            
50004310201301282013012973010728111363       PES0000010000M700002013012817500170                                                
6024600010000130287301072811136300020007500                                                                                     
7PESE                                                                                000000000010000                            
50004410201301282013012973010729494676       PES0000010000D001252013012820360130                                                
6024600010000130287301072949467600020007658                                                                                     
7PESE                                                                                000000000010000                            
50004510201301282013012973010823334708       PES0000010000M660112013012809190011                                                
6024600010000130287301082333470800020007500                                                                                     
7PESE                                                                                000000000010000                            
50004610201301282013012973010825237640       PES0000010000A046252013012811100049                                                
6024600010000130287301082523764000020007636                                                                                     
7PESE                                                                                000000000010000                            
50004710201301282013012973010825581787       PES0000010000A029422013012817160096                                                
6024600010000130287301082558178700020007678                                                                                     
7PESE                                                                                000000000010000                            
50004810201301282013012973010825745306       PES0000010000A053092013012817160125                                                
6024600010000130287301082574530600020007616                                                                                     
7PESE                                                                                000000000010000                            
50004910201301282013012973010920785701       PES0000010000D001382013012821550183                                                
6024600010000130287301092078570100020007678                                                                                     
7PESE                                                                                000000000010000                            
50005010201301282013012973010921998774       PES0000010000A106342013012818370095                                                
6024600010000130287301092199877400020007658                                                                                     
7PESE                                                                                000000000010000                            
50005110201301282013012973010922035987       PES0000010000D001002013012811530050                                                
6024600010000130287301092203598700020007699                                                                                     
7PESE                                                                                000000000010000                            
50005210201301282013012973010922165854       PES0000010000A096712013012819590152                                                
6024600010000130287301092216585400020007442                                                                                     
7PESE                                                                                000000000010000                            
50005310201301282013012973010922270723       PES0000010000A039692013012810240035                                                
6024600010000130287301092227072300020007536                                                                                     
7PESE                                                                                000000000010000                            
50005410201301282013012973011112676899       PES0000010000D001272013012811070081                                                
6024600010000130287301111267689900020007584                                                                                     
7PESE                                                                                000000000010000                            
50005510201301282013012973011114533305       PES0000010000A097962013012819330092                                                
6024600010000130287301111453330500020007599                                                                                     
7PESE                                                                                000000000010000                            
50005610201301282013012973011114863838       PES0000010000A097872013012820380059                                                
6024600010000130287301111486383800020007421                                                                                     
7PESE                                                                                000000000010000                            
50005710201301282013012973011114938514       PES0000010000A040232013012817120135                                                
6024600010000130287301111493851400020007642                                                                                     
7PESE                                                                                000000000010000                            
50005810201301282013012973011193904277       PES0000010000A091702013012809460023                                                
6024600010000130287301119390427700020007384                                                                                     
7PESE                                                                                000000000010000                            
50005910201301282013012973011534850870       PES0000010000A096832013012813510055                                                
6024600010000130287301153485087000020007384                                                                                     
7PESE                                                                                000000000010000                            
50006010201301282013012929090321930198       PES0000015000A092102013012816140275                                                
6024600015000130322909032193019800000000021                                                                                     
7PESE                                                                                000000000015000                            
50006110201301282013012929090228846677       PES0000015000A104982013012815450005                                                
6024600015000130332909022884667700000000057                                                                                     
7PESE                                                                                000000000015000                            
50006210201301282013012929090225130513       PES0000015000A066812013012812010239                                                
6024600015000130342909022513051300000000084                                                                                     
7PESE                                                                                000000000015000                            
50006310201301282013012929090411521500       PES0000015000M620022013012810310016                                                
6024600015000130342909041152150000000000000                                                                                     
7PESE                                                                                000000000015000                            
50006410201301282013012929090727308603       PES0000015000A066812013012812010240                                                
6024600015000130342909072730860300000000063                                                                                     
7PESE                                                                                000000000015000                            
50006510201301282013012900781624662835       PES0000019500A121452013012817290079                                                
6024600019500130310078162466283500030007315                                                                                     
7PESE                                                                                000000000019500                            
50006610201301282013012929091317013253       PES0000025000A062272013012810280027                                                
6024600025000130312909131701325300000000042                                                                                     
7PESE                                                                                000000000025000                            
50006710201301282013012902430135266242       PES0000040000A059512013012813070139                                                
6024600040000130300243013526624200075000090                                                                                     
7PESE                                                                                000000000040000                            
50006810201301282013012902430135177244       PES0000040000A110642013012816500033                                                
6024600040000130330243013517724400075000021                                                                                     
7PESE                                                                                000000000040000                            
50006910201301282013012902433821715644       PES0000040000L070012013012818052902                                                
6024600040000130350243382171564400075000078                                                                                     
7PESE                                                                                000000000040000                            
50007010201301282013012901341521431554       PES0000135000A037752013012815330031                                                
6024600135000130280134152143155400150000099                                                                                     
7PESE                                                                                000000000135000                            
50007110201301282013012901341714201584       PES0000135000A060492013012820530211                                                
6024600135000130280134171420158400150000084                                                                                     
7PESE                                                                                000000000135000                            
50007210201301282013012901341522400891       PES0000135000A085192013012810360031                                                
6024600135000130290134152240089100150000099                                                                                     
7PESE                                                                                000000000135000                            
50007310201301282013012901341424347366       PES0000135000A062272013012812000057                                                
6024600135000130330134142434736600150000000                                                                                     
7PESE                                                                                000000000135000                            
50007410201301282013012901341520034556       PES0000135000A062272013012812090059                                                
6024600135000130350134152003455600150000042                                                                                     
7PESE                                                                                000000000135000                            
50007510201301282013012901341522326084       PES0000135000M600642013012815160067                                                
6024600135000130350134152232608400150000099                                                                                     
7PESE                                                                                000000000135000                            
82013012900000100000750000016190000000000000000000000000000000000000000000075                                                   
9201301290000010000075000001619000000000000000000000000000000000000000000000075                                                 
