120111129PAGO FACIL               090060246FABIAN NORBERTO D´ERAMO                                                              
320111129000001FABIAN NORBERTO D´ERAMO                                                                                          
50000110201111252011112929060507661499       PES0000010000A102072011112418350170                                                
6024600010000113332906050766149900030000000                                                                                     
7PESE                                                                                000000000010000                            
50000210201111252011112901301526148580       PES0000040000A037602011112410000021                                                
6024600040000113340130152614858000000000057                                                                                     
7PESE                                                                                000000000040000                            
50000310201111252011112929060224171686       PES0000010000A100912011112511490085                                                
6024600010000113332906022417168600030000016                                                                                     
7PESE                                                                                000000000010000                            
50000410201111252011112929060912035715       PES0000010000A100912011112511490086                                                
6024600010000113332906091203571500030000000                                                                                     
7PESE                                                                                000000000010000                            
50000510201111252011112901301528101531       PES0000040000A102472011112512460083                                                
6024600040000113360130152810153100000000037                                                                                     
7PESE                                                                                000000000040000                            
50000610201111252011112901301623134946       PES0000040000A107212011112513390053                                                
6024600040000113290130162313494600000000037                                                                                     
7PESE                                                                                000000000040000                            
50000710201111252011112901301721797768       PES0000040000A101062011112511410138                                                
6024600040000113360130172179776800000000000                                                                                     
7PESE                                                                                000000000040000                            
50000810201111252011112901301625095179       PES0000040000A101062011112513260162                                                
6024600040000113350130162509517900000000015                                                                                     
7PESE                                                                                000000000040000                            
50000910201111252011112901301527125544       PES0000040000A101062011112513260163                                                
6024600040000113350130152712554400000000021                                                                                     
7PESE                                                                                000000000040000                            
50001010201111252011112900581314011599       PES0000022500A600462011112513170069                                                
6024600022500113340058131401159900025000000                                                                                     
7PESE                                                                                000000000022500                            
50001110201111252011112900584611802118       PES0000022500A600462011112513180070                                                
6024600022500113340058461180211800025000090                                                                                     
7PESE                                                                                000000000022500                            
50001210201111252011112900581914011599       PES0000022500A600462011112513180071                                                
6024600022500113340058191401159900025000058                                                                                     
7PESE                                                                                000000000022500                            
50001310201111252011112901301622777823       PES0000040000A055202011112512220035                                                
6024600040000113290130162277782300000000037                                                                                     
7PESE                                                                                000000000040000                            
50001410201111252011112900583008274233       PES0000022500A085592011112516350272                                                
6024600022500113340058300827423300025007121                                                                                     
7PESE                                                                                000000000022500                            
50001510201111252011112901301914371454       PES0000040000A026442011112511360033                                                
6024600040000113320130191437145400000000000                                                                                     
7PESE                                                                                000000000040000                            
50001610201111252011112901301717935203       PES0000040000A068722011112515370001                                                
6024600040000113350130171793520300000000063                                                                                     
7PESE                                                                                000000000040000                            
50001710201111252011112901301622503368       PES0000040000A034742011112511240082                                                
6024600040000113290130162250336800000000057                                                                                     
7PESE                                                                                000000000040000                            
50001810201111252011112901301726928248       PES0000040000A091562011112515120239                                                
6024600040000113290130172692824800000000063                                                                                     
7PESE                                                                                000000000040000                            
50001910201111252011112901301529097644       PES0000040000A092012011112511050086                                                
6024600040000113300130152909764400000000063                                                                                     
7PESE                                                                                000000000040000                            
50002010201111252011112929060821442809       PES0000010000A055272011112513340028                                                
6024600010000113302906082144280900030000042                                                                                     
7PESE                                                                                000000000010000                            
50002110201111252011112901300426318083       PES0000040000A101582011112518220017                                                
6024600040000113290130042631808300000000000                                                                                     
7PESE                                                                                000000000040000                            
50002210201111252011112901300331252420       PES0000040000A107662011112517090041                                                
6024600040000113350130033125242000000000037                                                                                     
7PESE                                                                                000000000040000                            
50002310201111252011112901301526122260       PES0000040000A094372011112516340186                                                
6024600040000113340130152612226000000000021                                                                                     
7PESE                                                                                000000000040000                            
50002410201111252011112929060412906665       PES0000010000A082112011112519560091                                                
6024600010000113302906041290666500030000078                                                                                     
7PESE                                                                                000000000010000                            
50002510201111252011112901301332537882       PES0000040000A107712011112519200001                                                
6024600040000113360130133253788200000000036                                                                                     
7PESE                                                                                000000000040000                            
50002610201111252011112901301718223360       PES0000040000A075362011112518310051                                                
6024600040000113290130171822336000000000016                                                                                     
7PESE                                                                                000000000040000                            
50002710201111252011112901301720712227       PES0000040000A075742011112508370010                                                
6024600040000113290130172071222700000000079                                                                                     
7PESE                                                                                000000000040000                            
50002810201111252011112901301623569010       PES0000040000A085662011112514010047                                                
6024600040000113330130162356901000000000015                                                                                     
7PESE                                                                                000000000040000                            
50002910201111252011112901301914848058       PES0000040000A104462011112520020027                                                
6024600040000113290130191484805800000000057                                                                                     
7PESE                                                                                000000000040000                            
50003010201111252011112901301335266242       PES0000040000A059512011112520040188                                                
6024600040000113350130133526624200000000084                                                                                     
7PESE                                                                                000000000040000                            
50003110201111252011112900583634653499       PES0000022500A047512011112517220048                                                
6024600022500113340058363465349900025000090                                                                                     
7PESE                                                                                000000000022500                            
50003210201111252011112901301816960713       PES0000040000A099802011112518160098                                                
6024600040000113330130181696071300000000090                                                                                     
7PESE                                                                                000000000040000                            
50003310201111252011112900583633283399       PES0000022500L120102011112509491826                                                
6024600022500113330058363328339900025000079                                                                                     
7PESE                                                                                000000000022500                            
50003410201111252011112901301430699962       PES0000040000M620882011112510550030                                                
6024600040000113350130143069996200000000078                                                                                     
7PESE                                                                                000000000040000                            
50003510201111252011112900583729150728       PES0000022500M600002011112513420073                                                
6024600022500113340058372915072800025007284                                                                                     
7PESE                                                                                000000000022500                            
50003610201111252011112901301721946859       PES0000040000M640002011112517230058                                                
6024600040000113360130172194685900000000036                                                                                     
7PESE                                                                                000000000040000                            
50003710201111262011112901301625355558       PES0000040000A064852011112610270027                                                
6024600040000113340130162535555800000000037                                                                                     
7PESE                                                                                000000000040000                            
50003810201111262011112901301721723759       PES0000040000A091522011112611180144                                                
6024600040000113310130172172375900000000079                                                                                     
7PESE                                                                                000000000040000                            
50003910201111262011112901301431529236       PES0000040000A026032011112612220074                                                
6024600040000113360130143152923600000000015                                                                                     
7PESE                                                                                000000000040000                            
50004010201111262011112901301624043028       PES0000040000A026032011112612220075                                                
6024600040000113340130162404302800000000084                                                                                     
7PESE                                                                                000000000040000                            
50004110201111262011112901301625732324       PES0000040000A007972011112610430028                                                
6024600040000113340130162573232400000000000                                                                                     
7PESE                                                                                000000000040000                            
50004210201111262011112901301623352672       PES0000040000A108822011112610080002                                                
6024600040000113340130162335267200000000063                                                                                     
7PESE                                                                                000000000040000                            
50004310201111262011112900583729455817       PES0000022500A101832011112609180003                                                
6024600022500113340058372945581700025007178                                                                                     
7PESE                                                                                000000000022500                            
50004410201111262011112901301623029757       PES0000040000A070692011112610130020                                                
6024600040000113370130162302975700000000063                                                                                     
7PESE                                                                                000000000040000                            
50004510201111262011112901300426452721       PES0000040000A070692011112610130021                                                
6024600040000113370130042645272100000000036                                                                                     
7PESE                                                                                000000000040000                            
50004610201111262011112901301792733401       PES0000040000A088822011112612440015                                                
6024600040000113310130179273340100000000084                                                                                     
7PESE                                                                                000000000040000                            
50004710201111262011112901301792421709       PES0000040000A071232011112611230029                                                
6024600040000113320130179242170900000000021                                                                                     
7PESE                                                                                000000000040000                            
50004810201111282011112901300621494406       PES0000040000A097192011112819030018                                                
6024600040000113330130062149440600000000000                                                                                     
7PESE                                                                                000000000040000                            
50004910201111282011112901300621820533       PES0000040000D000402011112811500005                                                
6024600040000113330130062182053300000000063                                                                                     
7PESE                                                                                000000000040000                            
50005010201111282011112901301624827861       PES0000040000A049022011112816170001                                                
6024600040000113360130162482786100000000021                                                                                     
7PESE                                                                                000000000040000                            
82011112900000100000500000017100000000000000000000000000000000000000000000050                                                   
9201111290000010000050000001710000000000000000000000000000000000000000000000050                                                 
