120110729PAGO FACIL               090060246FABIAN NORBERTO D´ERAMO                                                              
320110729000001FABIAN NORBERTO D´ERAMO                                                                                          
50000110201107282011072917020523164968       PES0000016000A078462011072809010001                                                
6024600016000112091702052316496800040000078                                                                                     
7PESE                                                                                000000000016000                            
50000210201107282011072902312720004937       PES0000016500A102392011072818020087                                                
6024600016500112110231272000493700020007416                                                                                     
7PESE                                                                                000000000016500                            
50000310201107282011072900532527688672       PES0000018000A601492011072812030095                                                
6024600018000112100053252768867200110000063                                                                                     
7PESE                                                                                000000000018000                            
50000410201107282011072902310429097644       PES0000021500A091992011072817190185                                                
6024600021500112090231042909764400030000090                                                                                     
7PESE                                                                                000000000021500                            
50000510201107282011072900530522173433       PES0000027000D001532011072815530254                                                
6024600027000112110053052217343300115007437                                                                                     
7PESE                                                                                000000000027000                            
82011072900000100000050000000990000000000000000000000000000000000000000000005                                                   
9201107290000010000005000000099000000000000000000000000000000000000000000000005                                                 
