120120629PAGO FACIL               090060246FABIAN NORBERTO D´ERAMO                                                              
320120629000001FABIAN NORBERTO D´ERAMO                                                                                          
50000110201206282012062999030135804671       PES0000049000A036102012062817490023                                                
6024600049000121819903013580467100000000021                                                                                     
7PESE                                                                                000000000049000                            
82012062900000100000010000000490000000000000000000000000000000000000000000001                                                   
9201206290000010000001000000049000000000000000000000000000000000000000000000001                                                 
