120121129PAGO FACIL               090060246FABIAN NORBERTO D´ERAMO                                                              
320121129000001FABIAN NORBERTO D´ERAMO                                                                                          
50000110201211282012112973000216684982       PES0000012000A115002012112715120034                                                
6024600012000123337300021668498200030000078                                                                                     
7PESE                                                                                000000000012000                            
50000210201211282012112973000223458827       PES0000012000A115002012112715120035                                                
6024600012000123337300022345882700030000090                                                                                     
7PESE                                                                                000000000012000                            
50000310201211282012112900772911848670       PES0000006120A028472012112809380020                                                
6024600006120123350077291184867000007407463                                                                                     
7PESE                                                                                000000000006120                            
50000410201211282012112900774744485508       PES0000006500A032972012112815510361                                                
6024600006500123330077474448550800015000057                                                                                     
7PESE                                                                                000000000006500                            
50000510201211282012112900774742781667       PES0000006500A078732012112811410048                                                
6024600006500123350077474278166700015007342                                                                                     
7PESE                                                                                000000000006500                            
50000610201211282012112900774744254591       PES0000006500A105972012112815520166                                                
6024600006500123350077474425459100015007178                                                                                     
7PESE                                                                                000000000006500                            
50000710201211282012112959010516502626       PES0000011000L070592012112811294747                                                
6024600011000123395901051650262600000000057                                                                                     
7PESE                                                                                000000000011000                            
50000810201211282012112973000225723004       PES0000012000A105032012112811430032                                                
6024600012000123347300022572300400030000063                                                                                     
7PESE                                                                                000000000012000                            
50000910201211282012112973000118330084       PES0000012000A052412012112809090040                                                
6024600012000123387300011833008400030000090                                                                                     
7PESE                                                                                000000000012000                            
50001010201211282012112973000140416606       PES0000012000A052412012112809090039                                                
6024600012000123387300014041660600030000016                                                                                     
7PESE                                                                                000000000012000                            
50001110201211282012112973000118402422       PES0000012000A105032012112811440033                                                
6024600012000123407300011840242200030000021                                                                                     
7PESE                                                                                000000000012000                            
50001210201211282012112973000123422444       PES0000012000A069092012112816380046                                                
6024600012000123407300012342244400030000063                                                                                     
7PESE                                                                                000000000012000                            
50001310201211282012112957010231670627       PES0000015000A090422012112811560019                                                
6024600015000123335701023167062700000000021                                                                                     
7PESE                                                                                000000000015000                            
50001410201211282012112957010232232781       PES0000015000M620062012112818250041                                                
6024600015000123335701023223278100000000063                                                                                     
7PESE                                                                                000000000015000                            
50001510201211282012112957010326497728       PES0000015000A103902012112821230232                                                
6024600015000123335701032649772800000000079                                                                                     
7PESE                                                                                000000000015000                            
50001610201211282012112957010326775614       PES0000015000A085792012112816360003                                                
6024600015000123335701032677561400000000042                                                                                     
7PESE                                                                                000000000015000                            
50001710201211282012112957010327029208       PES0000015000M620062012112812070028                                                
6024600015000123335701032702920800000000000                                                                                     
7PESE                                                                                000000000015000                            
50001810201211282012112957010327623898       PES0000015000A047422012112816340083                                                
6024600015000123335701032762389800000000084                                                                                     
7PESE                                                                                000000000015000                            
50001910201211282012112957010328070783       PES0000015000A103902012112818340162                                                
6024600015000123335701032807078300000000079                                                                                     
7PESE                                                                                000000000015000                            
50002010201211282012112957010423265636       PES0000015000A085792012112817270017                                                
6024600015000123335701042326563600000000015                                                                                     
7PESE                                                                                000000000015000                            
50002110201211282012112957010423457793       PES0000015000M620062012112809330009                                                
6024600015000123335701042345779300000000042                                                                                     
7PESE                                                                                000000000015000                            
50002210201211282012112957010424080340       PES0000015000A047422012112818190117                                                
6024600015000123335701042408034000000000036                                                                                     
7PESE                                                                                000000000015000                            
50002310201211282012112957010424289312       PES0000015000A620572012112809400009                                                
6024600015000123335701042428931200000000084                                                                                     
7PESE                                                                                000000000015000                            
50002410201211282012112957010424610221       PES0000015000A620572012112809400010                                                
6024600015000123335701042461022100000000090                                                                                     
7PESE                                                                                000000000015000                            
50002510201211282012112957010425039402       PES0000015000M620062012112812060027                                                
6024600015000123335701042503940200000000000                                                                                     
7PESE                                                                                000000000015000                            
50002610201211282012112957010520827120       PES0000015000M620062012112811210019                                                
6024600015000123335701052082712000000000078                                                                                     
7PESE                                                                                000000000015000                            
50002710201211282012112957010520985894       PES0000015000A085792012112818040026                                                
6024600015000123335701052098589400000000084                                                                                     
7PESE                                                                                000000000015000                            
50002810201211282012112957010521132476       PES0000015000A103902012112812140063                                                
6024600015000123335701052113247600000000021                                                                                     
7PESE                                                                                000000000015000                            
50002910201211282012112957010521459607       PES0000015000M620062012112818310043                                                
6024600015000123335701052145960700000000078                                                                                     
7PESE                                                                                000000000015000                            
50003010201211282012112957010522678522       PES0000015000M620062012112811220020                                                
6024600015000123335701052267852200000000021                                                                                     
7PESE                                                                                000000000015000                            
50003110201211282012112957010616475724       PES0000015000M620062012112818320044                                                
6024600015000123335701061647572400000000090                                                                                     
7PESE                                                                                000000000015000                            
50003210201211282012112957010616604524       PES0000015000A090422012112811550018                                                
6024600015000123335701061660452400000000021                                                                                     
7PESE                                                                                000000000015000                            
50003310201211282012112957010617862965       PES0000015000M620022012112819020040                                                
6024600015000123335701061786296500000000042                                                                                     
7PESE                                                                                000000000015000                            
50003410201211282012112957010618021276       PES0000015000M620052012112816490011                                                
6024600015000123335701061802127600000000063                                                                                     
7PESE                                                                                000000000015000                            
50003510201211282012112957010618499949       PES0000015000A085792012112813190113                                                
6024600015000123335701061849994900000000021                                                                                     
7PESE                                                                                000000000015000                            
50003610201211282012112957010618589761       PES0000015000A066972012112810510051                                                
6024600015000123335701061858976100000000057                                                                                     
7PESE                                                                                000000000015000                            
50003710201211282012112957010714274163       PES0000015000A103902012112821230233                                                
6024600015000123335701071427416300000000036                                                                                     
7PESE                                                                                000000000015000                            
50003810201211282012112957010810759764       PES0000015000A090422012112812340022                                                
6024600015000123335701081075976400000000078                                                                                     
7PESE                                                                                000000000015000                            
50003910201211282012112957011114742356       PES0000015000M620052012112817380016                                                
6024600015000123335701111474235600000000079                                                                                     
7PESE                                                                                000000000015000                            
50004010201211282012112957011117713861       PES0000015000A110152012112818320106                                                
6024600015000123335701111771386100000000084                                                                                     
7PESE                                                                                000000000015000                            
50004110201211282012112929080318525717       PES0000015000A602192012112811080036                                                
6024600015000123342908031852571700030000000                                                                                     
7PESE                                                                                000000000015000                            
50004210201211282012112998010135253629       PES0000015000A088072012112820130097                                                
6024600015000123359801013525362900000000000                                                                                     
7PESE                                                                                000000000015000                            
50004310201211282012112969014042238167       PES0000020000A094482012112813500066                                                
6024600017500123306901404223816700025000563                                                                                     
7PESE                                                                                000000000020000                            
50004410201211282012112969014140133248       PES0000020000A044222012112811230178                                                
6024600017500123306901414013324800025000557                                                                                     
7PESE                                                                                000000000020000                            
50004510201211282012112969012524550148       PES0000020000L071192012112810119440                                                
6024600020000123356901252455014800000000063                                                                                     
7PESE                                                                                000000000020000                            
50004610201211282012112969013538852040       PES0000020000A090432012112816550060                                                
6024600020000123356901353885204000000000063                                                                                     
7PESE                                                                                000000000020000                            
50004710201211282012112902423421483818       PES0000022000A078732012112811410050                                                
6024600022000123390242342148381800060000099                                                                                     
7PESE                                                                                000000000022000                            
50004810201211282012112902422717659112       PES0000022000A094932012112810080041                                                
6024600022000123400242271765911200060000016                                                                                     
7PESE                                                                                000000000022000                            
50004910201211282012112900770526436270       PES0000025500A105972012112815520165                                                
6024600025500123350077052643627000030007142                                                                                     
7PESE                                                                                000000000025500                            
50005010201211282012112900770924835592       PES0000025500A076112012112810520004                                                
6024600025500123350077092483559200030007536                                                                                     
7PESE                                                                                000000000025500                            
50005110201211282012112900772237987981       PES0000025500A093412012112810030013                                                
6024600025500123350077223798798100030007163                                                                                     
7PESE                                                                                000000000025500                            
50005210201211282012112900772429906525       PES0000025500A090522012112810330061                                                
6024600025500123350077242990652500030007478                                                                                     
7PESE                                                                                000000000025500                            
50005310201211282012112900772718108182       PES0000025500A093442012112809300016                                                
6024600025500123350077271810818200030007457                                                                                     
7PESE                                                                                000000000025500                            
50005410201211282012112900772912841516       PES0000025500A080082012112811380035                                                
6024600025500123350077291284151600030007463                                                                                     
7PESE                                                                                000000000025500                            
50005510201211282012112900773821483818       PES0000025500A078732012112811410049                                                
6024600025500123350077382148381800030007300                                                                                     
7PESE                                                                                000000000025500                            
50005610201211282012112900774043171221       PES0000025500A025662012112817180337                                                
6024600025500123350077404317122100030007442                                                                                     
7PESE                                                                                000000000025500                            
50005710201211282012112900774235253998       PES0000025500A079132012112812530141                                                
6024600025500123350077423525399800030007516                                                                                     
7PESE                                                                                000000000025500                            
50005810201211282012112900774423329288       PES0000025500M600552012112811440072                                                
6024600025500123350077442332928800030000015                                                                                     
7PESE                                                                                000000000025500                            
50005910201211282012112900774426470258       PES0000025500D000302012112815540483                                                
6024600025500123350077442647025800030007579                                                                                     
7PESE                                                                                000000000025500                            
50006010201211282012112902420617513056       PES0000032000A051862012112807510001                                                
6024600032000123390242061751305600080000000                                                                                     
7PESE                                                                                000000000032000                            
50006110201211282012112902420712969622       PES0000032000A008222012112811140113                                                
6024600032000123390242071296962200080000021                                                                                     
7PESE                                                                                000000000032000                            
50006210201211282012112902423823119589       PES0000032000A051342012112813320219                                                
6024600032000123400242382311958900080000084                                                                                     
7PESE                                                                                000000000032000                            
50006310201211282012112999030133036717       PES0000049000A092732012112810140033                                                
6024600049000123369903013303671700000000063                                                                                     
7PESE                                                                                000000000049000                            
50006410201211282012112999030136359657       PES0000049000A081582012112818270122                                                
6024600049000123369903013635965700000000015                                                                                     
7PESE                                                                                000000000049000                            
50006510201211282012112901331522970963       PES0000052000A043992012112810240043                                                
6024600052000123330133152297096300080000042                                                                                     
7PESE                                                                                000000000052000                            
50006610201211282012112901331521155816       PES0000052000M600072012112816320131                                                
6024600052000123340133152115581600080000000                                                                                     
7PESE                                                                                000000000052000                            
50006710201211282012112999100132639591       PES0000150000A028662012112817410140                                                
6024600150000123369910013263959100000000042                                                                                     
7PESE                                                                                000000000150000                            
50006810201211282012112999100133036717       PES0000150000A092732012112810140034                                                
6024600150000123369910013303671700000000016                                                                                     
7PESE                                                                                000000000150000                            
50006910201211282012112999100136359657       PES0000150000A081582012112818270123                                                
6024600150000123369910013635965700000000063                                                                                     
7PESE                                                                                000000000150000                            
82012112900000100000690000017231200000000000000000000000000000000000000000069                                                   
9201211290000010000069000001723120000000000000000000000000000000000000000000069                                                 
