120111130PAGO FACIL               090060246FABIAN NORBERTO D´ERAMO                                                              
320111130000001FABIAN NORBERTO D´ERAMO                                                                                          
50000110201111292011113001301720023809       PES0000040000A600962011112515250067                                                
6024600040000113330130172002380900000000084                                                                                     
7PESE                                                                                000000000040000                            
50000210201111292011113001301718514130       PES0000040000A097162011112823090091                                                
6024600040000113390130171851413000000000078                                                                                     
7PESE                                                                                000000000040000                            
50000310201111292011113000584737863373       PES0000007000A093412011112919010033                                                
6024600007000113340058473786337300015007163                                                                                     
7PESE                                                                                000000000007000                            
50000410201111292011113000584740796866       PES0000007000A093412011112919010037                                                
6024600007000113340058474079686600015007615                                                                                     
7PESE                                                                                000000000007000                            
50000510201111292011113000584742237928       PES0000007000A093412011112919010036                                                
6024600007000113340058474223792800015007642                                                                                     
7PESE                                                                                000000000007000                            
50000610201111292011113000584742237929       PES0000007000A093412011112919010035                                                
6024600007000113340058474223792900015007678                                                                                     
7PESE                                                                                000000000007000                            
50000710201111292011113000584742238167       PES0000007000A093412011112919010034                                                
6024600007000113340058474223816700015007658                                                                                     
7PESE                                                                                000000000007000                            
50000810201111292011113000584742588288       PES0000007000A044382011112918540329                                                
6024600007000113340058474258828800015007458                                                                                     
7PESE                                                                                000000000007000                            
50000910201111292011113029060223881297       PES0000010000A006712011112917450014                                                
6024600010000113332906022388129700030000063                                                                                     
7PESE                                                                                000000000010000                            
50001010201111292011113029060132605083       PES0000010000A022832011112916240009                                                
6024600010000113342906013260508300030007663                                                                                     
7PESE                                                                                000000000010000                            
50001110201111292011113029060223252632       PES0000010000A601832011112909240004                                                
6024600010000113342906022325263200030007599                                                                                     
7PESE                                                                                000000000010000                            
50001210201111292011113029060410460729       PES0000010000A035742011112909340030                                                
6024600010000113342906041046072900030007421                                                                                     
7PESE                                                                                000000000010000                            
50001310201111292011113029060817444123       PES0000010000M640052011112913050083                                                
6024600010000113342906081744412300030007415                                                                                     
7PESE                                                                                000000000010000                            
50001410201111292011113000585422962788       PES0000011250A088612011112911000076                                                
6024600011250113330058542296278800013000042                                                                                     
7PESE                                                                                000000000011250                            
50001510201111292011113000582814287612       PES0000011250A106072011112916390009                                                
6024600011250113340058281428761200013007390                                                                                     
7PESE                                                                                000000000011250                            
50001610201111292011113046071525263406       PES0000012000A045172011112912190073                                                
6024600012000113334607152526340600020007215                                                                                     
7PESE                                                                                000000000012000                            
50001710201111292011113046071527058944       PES0000012000A002542011112912090057                                                
6024600012000113334607152705894400020007736                                                                                     
7PESE                                                                                000000000012000                            
50001810201111292011113018350330198339       PES0000020000A085352011112913010215                                                
6024600020000113331835033019833900000000037                                                                                     
7PESE                                                                                000000000020000                            
50001910201111292011113018350622410231       PES0000020000A063972011112917230159                                                
6024600020000113331835062241023100000000084                                                                                     
7PESE                                                                                000000000020000                            
50002010201111292011113018353129041456       PES0000020000A072782011112913500226                                                
6024600020000113331835312904145600000000016                                                                                     
7PESE                                                                                000000000020000                            
50002110201111292011113046070218123929       PES0000020000A096182011112917400098                                                
6024600020000113334607021812392900060007584                                                                                     
7PESE                                                                                000000000020000                            
50002210201111292011113046070230732265       PES0000020000A055792011112919440197                                                
6024600020000113334607023073226500060007799                                                                                     
7PESE                                                                                000000000020000                            
50002310201111292011113046070928322433       PES0000020000A028162011112912220115                                                
6024600020000113334607092832243300060007700                                                                                     
7PESE                                                                                000000000020000                            
50002410201111292011113018350428505764       PES0000020000A602252011112910550041                                                
6024600020000113351835042850576400000000000                                                                                     
7PESE                                                                                000000000020000                            
50002510201111292011113018353222580094       PES0000020000A049072011112912160313                                                
6024600020000113351835322258009400000000084                                                                                     
7PESE                                                                                000000000020000                            
50002610201111292011113018353126477942       PES0000020000A049072011112912160314                                                
6024600020000113361835312647794200000000078                                                                                     
7PESE                                                                                000000000020000                            
50002710201111292011113018352430193610       PES0000020000L120262011112910312354                                                
6024600020000113391835243019361000000000063                                                                                     
7PESE                                                                                000000000020000                            
50002810201111292011113018352430247308       PES0000020000A105632011112912580104                                                
6024600020000113391835243024730800000000042                                                                                     
7PESE                                                                                000000000020000                            
50002910201111292011113018350524258847       PES0000020000L070092011112909424727                                                
6024600020000113401835052425884700000000037                                                                                     
7PESE                                                                                000000000020000                            
50003010201111292011113000582620203179       PES0000022500A087062011112915080016                                                
6024600022500113330058262020317900025000078                                                                                     
7PESE                                                                                000000000022500                            
50003110201111292011113000581238422672       PES0000022500A093412011112919010030                                                
6024600022500113340058123842267200025007100                                                                                     
7PESE                                                                                000000000022500                            
50003210201111292011113000581429583234       PES0000022500A085922011112917080056                                                
6024600022500113340058142958323400025000063                                                                                     
7PESE                                                                                000000000022500                            
50003310201111292011113000581433478194       PES0000022500A093412011112919010032                                                
6024600022500113340058143347819400025007116                                                                                     
7PESE                                                                                000000000022500                            
50003410201111292011113000582006528097       PES0000022500A046692011112911170095                                                
6024600022500113340058200652809700025007184                                                                                     
7PESE                                                                                000000000022500                            
50003510201111292011113000582234136421       PES0000022500A093412011112919010029                                                
6024600022500113340058223413642100025007163                                                                                     
7PESE                                                                                000000000022500                            
50003610201111292011113000582332481229       PES0000022500A093412011112919010031                                                
6024600022500113340058233248122900025007100                                                                                     
7PESE                                                                                000000000022500                            
50003710201111292011113000582813277664       PES0000022500A085922011112917080055                                                
6024600022500113340058281327766400025000063                                                                                     
7PESE                                                                                000000000022500                            
50003810201111292011113000582911293360       PES0000022500A091662011112915270093                                                
6024600022500113340058291129336000025007499                                                                                     
7PESE                                                                                000000000022500                            
50003910201111292011113000584326470258       PES0000022500A034672011112917440192                                                
6024600022500113340058432647025800025007616                                                                                     
7PESE                                                                                000000000022500                            
50004010201111292011113001301722090793       PES0000040000A001552011112909270020                                                
6024600040000113320130172209079300000000042                                                                                     
7PESE                                                                                000000000040000                            
50004110201111292011113001301430083943       PES0000040000D000582011112916580116                                                
6024600040000113330130143008394300000000057                                                                                     
7PESE                                                                                000000000040000                            
50004210201111292011113001301529068077       PES0000040000A054672011112910120019                                                
6024600040000113330130152906807700000000015                                                                                     
7PESE                                                                                000000000040000                            
50004310201111292011113001301623124661       PES0000040000A037602011112917380095                                                
6024600040000113330130162312466100000000042                                                                                     
7PESE                                                                                000000000040000                            
50004410201111292011113001301718363681       PES0000040000M601622011112917340136                                                
6024600040000113330130171836368100000000084                                                                                     
7PESE                                                                                000000000040000                            
50004510201111292011113001301722399467       PES0000040000A063972011112915020069                                                
6024600040000113330130172239946700000000063                                                                                     
7PESE                                                                                000000000040000                            
50004610201111292011113001301814846025       PES0000040000A068892011112916280121                                                
6024600040000113330130181484602500000000000                                                                                     
7PESE                                                                                000000000040000                            
50004710201111292011113001300427603900       PES0000040000D000782011112916010003                                                
6024600040000113340130042760390000000000016                                                                                     
7PESE                                                                                000000000040000                            
50004810201111292011113001300522505908       PES0000040000A071782011112910200040                                                
6024600040000113340130052250590800000000078                                                                                     
7PESE                                                                                000000000040000                            
50004910201111292011113001301622599074       PES0000040000A068722011112919050040                                                
6024600040000113340130162259907400000000079                                                                                     
7PESE                                                                                000000000040000                            
50005010201111292011113001301623224929       PES0000040000D001132011112918590197                                                
6024600040000113340130162322492900000000084                                                                                     
7PESE                                                                                000000000040000                            
50005110201111292011113001301721587958       PES0000040000A055332011112915320042                                                
6024600040000113340130172158795800000000037                                                                                     
7PESE                                                                                000000000040000                            
50005210201111292011113001301817123456       PES0000040000A093312011112918280013                                                
6024600040000113340130181712345600000000078                                                                                     
7PESE                                                                                000000000040000                            
50005310201111292011113001301429432982       PES0000040000A027742011112918140083                                                
6024600040000113350130142943298200000000042                                                                                     
7PESE                                                                                000000000040000                            
50005410201111292011113001301431068769       PES0000040000A085662011112909360019                                                
6024600040000113350130143106876900000000000                                                                                     
7PESE                                                                                000000000040000                            
50005510201111292011113001301623977759       PES0000040000A089892011112918040153                                                
6024600040000113350130162397775900000000016                                                                                     
7PESE                                                                                000000000040000                            
50005610201111292011113001301720491327       PES0000040000A073842011112914290083                                                
6024600040000113350130172049132700000000090                                                                                     
7PESE                                                                                000000000040000                            
50005710201111292011113001301816639100       PES0000040000M600742011112913090246                                                
6024600040000113350130181663910000000000021                                                                                     
7PESE                                                                                000000000040000                            
50005810201111292011113001301816876845       PES0000040000A108272011112910550045                                                
6024600040000113350130181687684500000000042                                                                                     
7PESE                                                                                000000000040000                            
50005910201111292011113001300329592311       PES0000040000A106722011112911060043                                                
6024600040000113360130032959231100000000016                                                                                     
7PESE                                                                                000000000040000                            
50006010201111292011113001301913431927       PES0000040000A022082011112909510076                                                
6024600040000113360130191343192700000000015                                                                                     
7PESE                                                                                000000000040000                            
50006110201111292011113001301528323697       PES0000040000A086812011112909530052                                                
6024600040000113380130152832369700000000063                                                                                     
7PESE                                                                                000000000040000                            
50006210201111292011113001301429647297       PES0000040000A106722011112911060044                                                
6024600040000113390130142964729700000000084                                                                                     
7PESE                                                                                000000000040000                            
50006310201111292011113001302011154803       PES0000040000A055332011112915330043                                                
6024600040000113390130201115480300000000084                                                                                     
7PESE                                                                                000000000040000                            
50006410201111292011113001300428284530       PES0000040000A000162011112915170140                                                
6024600040000113400130042828453000000000058                                                                                     
7PESE                                                                                000000000040000                            
50006510201111292011113001301432743409       PES0000040000A601482011112916200171                                                
6024600040000113400130143274340900000000015                                                                                     
7PESE                                                                                000000000040000                            
50006610201111292011113001301527180990       PES0000040000D000402011112917410080                                                
6024600040000113400130152718099000000000063                                                                                     
7PESE                                                                                000000000040000                            
50006710201111292011113001301625248455       PES0000040000A068902011112913520233                                                
6024600040000113400130162524845500000000037                                                                                     
7PESE                                                                                000000000040000                            
50006810201111292011113023060830228109       PES0000076800A077902011112920050051                                                
6024600076800113402306083022810900192000078                                                                                     
7PESE                                                                                000000000076800                            
50006910201111292011113023061025185767       PES0000076800M620732011112912520105                                                
6024600076800113402306102518576700192000016                                                                                     
7PESE                                                                                000000000076800                            
50007010201111292011113023061121178829       PES0000085400A029772011112910580065                                                
6024600085400113392306112117882900234000015                                                                                     
7PESE                                                                                000000000085400                            
50007110201111292011113023061617751346       PES0000085400M600702011112915200098                                                
6024600085400113402306161775134600234000021                                                                                     
7PESE                                                                                000000000085400                            
50007210201111292011113023061926494092       PES0000085400A104612011112915550279                                                
6024600085400113402306192649409200234000099                                                                                     
7PESE                                                                                000000000085400                            
82011113000000100000720000022133000000000000000000000000000000000000000000072                                                   
9201111300000010000072000002213300000000000000000000000000000000000000000000072                                                 
