120130130PAGO FACIL               090060246FABIAN NORBERTO D´ERAMO                                                              
320130130000001FABIAN NORBERTO D´ERAMO                                                                                          
50000110201301292013013073011329189067       PES0000010000A096012013012917360021                                                
6024600008000130287301132918906700020007642                                                                                     
7PESE                                                                                000000000010000                            
50000210201301292013013073010826393563       PES0000012000A071582013012920150164                                                
6024600010000130287301082639356300020007663                                                                                     
7PESE                                                                                000000000012000                            
50000310201301292013013073010631814296       PES0000012000A101442013012909090030                                                
6024600012000130357301063181429600020000158                                                                                     
7PESE                                                                                000000000012000                            
50000410201301292013013073010726903698       PES0000012000A044632013012918540067                                                
6024600012000130357301072690369800020000158                                                                                     
7PESE                                                                                000000000012000                            
50000510201301292013013029090636076609       PES0000015000A601422013012915010070                                                
6024600015000130292909063607660900000000036                                                                                     
7PESE                                                                                000000000015000                            
50000610201301292013013029090225838140       PES0000015000M601972013012910050007                                                
6024600015000130302909022583814000000000084                                                                                     
7PESE                                                                                000000000015000                            
50000710201301292013013029090317423895       PES0000015000A093012013012910080011                                                
6024600015000130322909031742389500000000000                                                                                     
7PESE                                                                                000000000015000                            
50000810201301292013013029090136509868       PES0000015000A083982013012918120040                                                
6024600015000130332909013650986800000000036                                                                                     
7PESE                                                                                000000000015000                            
50000910201301292013013029090223209274       PES0000015000A083982013012918120039                                                
6024600015000130332909022320927400000000084                                                                                     
7PESE                                                                                000000000015000                            
50001010201301292013013029090728026343       PES0000015000A083982013012918120038                                                
6024600015000130332909072802634300000000021                                                                                     
7PESE                                                                                000000000015000                            
50001110201301292013013029090822904494       PES0000015000A083982013012918110037                                                
6024600015000130332909082290449400000000042                                                                                     
7PESE                                                                                000000000015000                            
50001210201301292013013029090228054277       PES0000015000D000132013012911150068                                                
6024600015000130352909022805427700000000090                                                                                     
7PESE                                                                                000000000015000                            
50001310201301292013013029090726255384       PES0000015000A047422013012911500080                                                
6024600015000130352909072625538400000000084                                                                                     
7PESE                                                                                000000000015000                            
50001410201301292013013029090412596903       PES0000015000A107512013012909160008                                                
6024600015000130362909041259690300000000042                                                                                     
7PESE                                                                                000000000015000                            
50001510201301292013013029090412821392       PES0000015000A109572013012917000004                                                
6024600015000130362909041282139200000000079                                                                                     
7PESE                                                                                000000000015000                            
50001610201301292013013000783442711732       PES0000019500A093412013012910260026                                                
6024600019500130310078344271173200030007300                                                                                     
7PESE                                                                                000000000019500                            
50001710201301292013013029091322626834       PES0000025000A116982013012917500059                                                
6024600025000130292909132262683400000000063                                                                                     
7PESE                                                                                000000000025000                            
50001810201301292013013029091913545348       PES0000025000A091702013012913150176                                                
6024600025000130312909191354534800000000099                                                                                     
7PESE                                                                                000000000025000                            
50001910201301292013013029091223578669       PES0000025000M700002013012917260144                                                
6024600025000130352909122357866900000000000                                                                                     
7PESE                                                                                000000000025000                            
50002010201301292013013002432433514265       PES0000030000A601862013012910110031                                                
6024600030000130300243243351426500050000000                                                                                     
7PESE                                                                                000000000030000                            
50002110201301292013013002430713612745       PES0000040000L071192013012910290991                                                
6024600040000130290243071361274500075000057                                                                                     
7PESE                                                                                000000000040000                            
50002210201301292013013002430134512687       PES0000040000A113702013012919000064                                                
6024600040000130360243013451268700075000063                                                                                     
7PESE                                                                                000000000040000                            
50002310201301292013013001341618225923       PES0000135000D000512013012912050037                                                
6024600135000130290134161822592300150000037                                                                                     
7PESE                                                                                000000000135000                            
50002410201301292013013001341618065580       PES0000135000A091162013012913100210                                                
6024600135000130300134161806558000150000078                                                                                     
7PESE                                                                                000000000135000                            
50002510201301292013013001341424037008       PES0000135000A082002013012911130053                                                
6024600135000130310134142403700800150000078                                                                                     
7PESE                                                                                000000000135000                            
50002610201301292013013001341231115822       PES0000135000A055202013012911240045                                                
6024600135000130320134123111582200150000000                                                                                     
7PESE                                                                                000000000135000                            
50002710201301292013013001341522654585       PES0000135000A099462013012912200143                                                
6024600135000130330134152265458500150000000                                                                                     
7PESE                                                                                000000000135000                            
50002810201301292013013001341714031103       PES0000135000A095862013012918460031                                                
6024600135000130340134171403110300150000058                                                                                     
7PESE                                                                                000000000135000                            
50002910201301292013013001341716185815       PES0000135000A081592013012917260249                                                
6024600135000130350134171618581500150000057                                                                                     
7PESE                                                                                000000000135000                            
50003010201301292013013001340424548216       PES0000135000A112952013012912070145                                                
6024600135000130360134042454821600150000078                                                                                     
7PESE                                                                                000000000135000                            
50003110201301292013013001341424913443       PES0000135000A063642013012915360007                                                
6024600135000130360134142491344300150000058                                                                                     
7PESE                                                                                000000000135000                            
82013013000000100000310000016305000000000000000000000000000000000000000000031                                                   
9201301300000010000031000001630500000000000000000000000000000000000000000000031                                                 
