120110930PAGO FACIL               090060246FABIAN NORBERTO D´ERAMO                                                              
320110930000001FABIAN NORBERTO D´ERAMO                                                                                          
50000110201109292011093000502236043707       PES0000024500A071652011092815040201                                                
6024600024500112730050223604370700030007478                                                                                     
7PESE                                                                                000000000024500                            
50000210201109292011093000504740133248       PES0000008500A093412011092917440082                                                
6024600008500112730050474013324800015007642                                                                                     
7PESE                                                                                000000000008500                            
50000310201109292011093000504740948833       PES0000008500A074242011092911440071                                                
6024600008500112730050474094883300015007563                                                                                     
7PESE                                                                                000000000008500                            
50000410201109292011093000504742238167       PES0000008500A074242011092911440067                                                
6024600008500112730050474223816700015007557                                                                                     
7PESE                                                                                000000000008500                            
50000510201109292011093037020428053172       PES0000009000A092102011092914160039                                                
6024600009000112733702042805317200000000000                                                                                     
7PESE                                                                                000000000009000                            
50000610201109292011093000572138258854       PES0000017500A092122011092915480342                                                
6024600017500112730057213825885400025007642                                                                                     
7PESE                                                                                000000000017500                            
50000710201109292011093000572330826559       PES0000017500A088122011092911330010                                                
6024600017500112730057233082655900025007537                                                                                     
7PESE                                                                                000000000017500                            
50000810201109292011093000572717030430       PES0000017500A092122011092915480341                                                
6024600017500112730057271703043000025007615                                                                                     
7PESE                                                                                000000000017500                            
50000910201109292011093000501117166576       PES0000024500A613622011092910150025                                                
6024600024500112730050111716657600030007637                                                                                     
7PESE                                                                                000000000024500                            
50001010201109292011093000502137277527       PES0000024500A085832011092911440090                                                
6024600024500112730050213727752700030007515                                                                                     
7PESE                                                                                000000000024500                            
50001110201109292011093000502137433024       PES0000024500A096952011092915570214                                                
6024600024500112730050213743302400030007637                                                                                     
7PESE                                                                                000000000024500                            
50001210201109292011093000502233739749       PES0000024500A109572011092910180040                                                
6024600024500112730050223373974900030007578                                                                                     
7PESE                                                                                000000000024500                            
50001310201109292011093000502523150283       PES0000024500D000482011092919470116                                                
6024600024500112730050252315028300030007542                                                                                     
7PESE                                                                                000000000024500                            
50001410201109292011093000503728176274       PES0000024500A090502011092911290086                                                
6024600024500112730050372817627400030007500                                                                                     
7PESE                                                                                000000000024500                            
50001510201109292011093000503732452230       PES0000024500A074242011092911440069                                                
6024600024500112730050373245223000030007563                                                                                     
7PESE                                                                                000000000024500                            
50001610201109292011093000504329076758       PES0000024500A091542011092915550198                                                
6024600024500112730050432907675800030007400                                                                                     
7PESE                                                                                000000000024500                            
50001710201109292011093000504329485001       PES0000024500A063842011092913350199                                                
6024600024500112730050432948500100030007521                                                                                     
7PESE                                                                                000000000024500                            
50001810201109292011093000504331071135       PES0000024500A074242011092911440070                                                
6024600024500112730050433107113500030007563                                                                                     
7PESE                                                                                000000000024500                            
50001910201109292011093000504332481229       PES0000024500A074242011092911440068                                                
6024600024500112730050433248122900030007521                                                                                     
7PESE                                                                                000000000024500                            
50002010201109292011093000504420665853       PES0000024500A042332011092916010030                                                
6024600024500112730050442066585300030007515                                                                                     
7PESE                                                                                000000000024500                            
50002110201109292011093000504422234021       PES0000024500A092152011092912190164                                                
6024600024500112730050442223402100030007579                                                                                     
7PESE                                                                                000000000024500                            
50002210201109292011093000504513394001       PES0000024500A091652011092915460319                                                
6024600024500112730050451339400100030007684                                                                                     
7PESE                                                                                000000000024500                            
50002310201109292011093000504517662105       PES0000024500M600262011092916350038                                                
6024600024500112730050451766210500030000021                                                                                     
7PESE                                                                                000000000024500                            
50002410201109292011093000504611534301       PES0000024500A103832011092912110085                                                
6024600024500112730050461153430100030007463                                                                                     
7PESE                                                                                000000000024500                            
50002510201109292011093000504611903418       PES0000024500A101172011092915030069                                                
6024600024500112730050461190341800030007584                                                                                     
7PESE                                                                                000000000024500                            
50002610201109292011093000504612481655       PES0000024500A055332011092915560196                                                
6024600024500112730050461248165500030007421                                                                                     
7PESE                                                                                000000000024500                            
50002710201109292011093000532239484908       PES0000029000A056902011092913120015                                                
6024600029000112760053223948490800020000090                                                                                     
7PESE                                                                                000000000029000                            
50002810201109292011093000532339097297       PES0000029000A038202011092917280047                                                
6024600029000112760053233909729700020000084                                                                                     
7PESE                                                                                000000000029000                            
50002910201109292011093000530425485194       PES0000038500A085182011092912260078                                                
6024600038500112770053042548519400010000090                                                                                     
7PESE                                                                                000000000038500                            
50003010201109292011093000530617801813       PES0000038500A035262011092912130049                                                
6024600038500112780053061780181300010000037                                                                                     
7PESE                                                                                000000000038500                            
50003110201109292011093000530232520937       PES0000038500A061472011092914370125                                                
6024600038500112790053023252093700010000078                                                                                     
7PESE                                                                                000000000038500                            
82011093000000100000310000007260000000000000000000000000000000000000000000031                                                   
9201109300000010000031000000726000000000000000000000000000000000000000000000031                                                 
