120110831PAGO FACIL               090060246FABIAN NORBERTO D´ERAMO                                                              
320110831000001FABIAN NORBERTO D´ERAMO                                                                                          
50000110201108302011083117020137772845       PES0000016000M640352011083013010021                                                
6024600016000112431702013777284500040007500                                                                                     
7PESE                                                                                000000000016000                            
50000210201108302011083117020330508294       PES0000016000A037782011083009190013                                                
6024600016000112431702033050829400040007216                                                                                     
7PESE                                                                                000000000016000                            
50000310201108302011083117020331200179       PES0000016000L071222011083010225922                                                
6024600016000112431702033120017900040007157                                                                                     
7PESE                                                                                000000000016000                            
50000410201108302011083117020331503692       PES0000016000A072322011083019580102                                                
6024600016000112431702033150369200040007521                                                                                     
7PESE                                                                                000000000016000                            
50000510201108302011083117020425752470       PES0000016000M660232011083007550001                                                
6024600016000112431702042575247000040007400                                                                                     
7PESE                                                                                000000000016000                            
50000610201108302011083117020425828748       PES0000016000A037772011083011270040                                                
6024600016000112431702042582874800040007442                                                                                     
7PESE                                                                                000000000016000                            
50000710201108302011083117020426697301       PES0000016000A089782011083017460078                                                
6024600016000112431702042669730100040007521                                                                                     
7PESE                                                                                000000000016000                            
50000810201108302011083117020426912006       PES0000016000A087842011083016230004                                                
6024600016000112431702042691200600040007584                                                                                     
7PESE                                                                                000000000016000                            
50000910201108302011083117020427534968       PES0000016000A066952011083007520010                                                
6024600016000112431702042753496800040007058                                                                                     
7PESE                                                                                000000000016000                            
50001010201108302011083117020428444343       PES0000016000A080752011083017190028                                                
6024600016000112431702042844434300040007121                                                                                     
7PESE                                                                                000000000016000                            
50001110201108302011083117020428764198       PES0000016000A089782011083017470079                                                
6024600016000112431702042876419800040007563                                                                                     
7PESE                                                                                000000000016000                            
50001210201108302011083117020522715587       PES0000016000A087842011083010500012                                                
6024600016000112431702052271558700040007578                                                                                     
7PESE                                                                                000000000016000                            
50001310201108302011083117020523242915       PES0000016000A104422011083009360026                                                
6024600016000112431702052324291500040007400                                                                                     
7PESE                                                                                000000000016000                            
50001410201108302011083117020523281993       PES0000016000A066532011083009240008                                                
6024600016000112431702052328199300040007300                                                                                     
7PESE                                                                                000000000016000                            
50001510201108302011083117020523290344       PES0000016000L071222011083018275953                                                
6024600016000112431702052329034400040007542                                                                                     
7PESE                                                                                000000000016000                            
50001610201108302011083117020523429577       PES0000016000A042632011083018300007                                                
6024600016000112431702052342957700040007484                                                                                     
7PESE                                                                                000000000016000                            
50001710201108302011083117020523696970       PES0000016000A072862011083011480052                                                
6024600016000112431702052369697000040007221                                                                                     
7PESE                                                                                000000000016000                            
50001810201108302011083117020620145197       PES0000016000A087842011083016230005                                                
6024600016000112431702062014519700040007521                                                                                     
7PESE                                                                                000000000016000                            
50001910201108302011083117020620648293       PES0000016000A052322011083009450072                                                
6024600016000112431702062064829300040007416                                                                                     
7PESE                                                                                000000000016000                            
50002010201108302011083117020622164007       PES0000016000A105852011083011150058                                                
6024600016000112431702062216400700040007242                                                                                     
7PESE                                                                                000000000016000                            
50002110201108302011083117020716092764       PES0000016000A060922011083010410072                                                
6024600016000112431702071609276400040007400                                                                                     
7PESE                                                                                000000000016000                            
50002210201108302011083117020717539215       PES0000016000A103322011083011260159                                                
6024600016000112431702071753921500040007442                                                                                     
7PESE                                                                                000000000016000                            
50002310201108302011083117020717850640       PES0000016000L071232011083017514453                                                
6024600016000112431702071785064000040007563                                                                                     
7PESE                                                                                000000000016000                            
50002410201108302011083117020812368329       PES0000016000A072322011083009440049                                                
6024600016000112431702081236832900040000000                                                                                     
7PESE                                                                                000000000016000                            
50002510201108302011083117020814633337       PES0000016000L071222011083016075946                                                
6024600016000112431702081463333700040007463                                                                                     
7PESE                                                                                000000000016000                            
50002610201108302011083117020910789043       PES0000016000L071222011083016075945                                                
6024600016000112431702091078904300040007579                                                                                     
7PESE                                                                                000000000016000                            
50002710201108302011083117021007883696       PES0000016000A108012011083011260022                                                
6024600016000112431702100788369600040007437                                                                                     
7PESE                                                                                000000000016000                            
50002810201108302011083117021224048241       PES0000016000A104422011083009360027                                                
6024600016000112431702122404824100040007490                                                                                     
7PESE                                                                                000000000016000                            
50002910201108302011083117021225233018       PES0000016000A037772011083011280041                                                
6024600016000112431702122523301800040007379                                                                                     
7PESE                                                                                000000000016000                            
50003010201108302011083117021320192251       PES0000016000L071242011083011528977                                                
6024600016000112431702132019225100040007521                                                                                     
7PESE                                                                                000000000016000                            
50003110201108302011083117021320192251       PES0000016000L071242011083011528976                                                
6024600016000112431702132019225100040007521                                                                                     
7PESE                                                                                000000000016000                            
50003210201108302011083100502718070149       PES0000019500M601622011083017340255                                                
6024600019500112420050271807014900050000000                                                                                     
7PESE                                                                                000000000019500                            
50003310201108302011083100503820029870       PES0000019500A072612011083017580045                                                
6024600019500112420050382002987000050000042                                                                                     
7PESE                                                                                000000000019500                            
50003410201108302011083100501236685031       PES0000019500A091902011083009210066                                                
6024600019500112430050123668503100050007121                                                                                     
7PESE                                                                                000000000019500                            
50003510201108302011083100501333706619       PES0000019500A073702011083009220020                                                
6024600019500112430050133370661900050007415                                                                                     
7PESE                                                                                000000000019500                            
50003610201108302011083100501333901655       PES0000019500A043472011083015190053                                                
6024600019500112430050133390165500050007563                                                                                     
7PESE                                                                                000000000019500                            
50003710201108302011083100501526690836       PES0000019500A100652011083017460054                                                
6024600019500112430050152669083600050007400                                                                                     
7PESE                                                                                000000000019500                            
50003810201108302011083100501537095824       PES0000019500D000842011083013480062                                                
6024600019500112430050153709582400050007542                                                                                     
7PESE                                                                                000000000019500                            
50003910201108302011083100501624187777       PES0000019500A106102011083010410005                                                
6024600019500112430050162418777700050007421                                                                                     
7PESE                                                                                000000000019500                            
50004010201108302011083100501624567150       PES0000019500A102662011083009440013                                                
6024600019500112430050162456715000050007463                                                                                     
7PESE                                                                                000000000019500                            
50004110201108302011083100501720008690       PES0000019500A047422011083009590036                                                
6024600019500112430050172000869000050007537                                                                                     
7PESE                                                                                000000000019500                            
50004210201108302011083100501814367974       PES0000019500A099812011083014300027                                                
6024600019500112430050181436797400050007263                                                                                     
7PESE                                                                                000000000019500                            
50004310201108302011083100501817537774       PES0000019500A085562011083014310084                                                
6024600019500112430050181753777400050007437                                                                                     
7PESE                                                                                000000000019500                            
50004410201108302011083100502006528097       PES0000019500A046692011083011570005                                                
6024600019500112430050200652809700050007478                                                                                     
7PESE                                                                                000000000019500                            
50004510201108302011083100502234374751       PES0000019500A105012011083014230064                                                
6024600019500112430050223437475100050007490                                                                                     
7PESE                                                                                000000000019500                            
50004610201108302011083100502428520234       PES0000019500A073702011083009220019                                                
6024600019500112430050242852023400050007479                                                                                     
7PESE                                                                                000000000019500                            
50004710201108302011083100502522962494       PES0000019500A047422011083009590037                                                
6024600019500112430050252296249400050007579                                                                                     
7PESE                                                                                000000000019500                            
50004810201108302011083100502523322562       PES0000019500A042592011083012340002                                                
6024600019500112430050252332256200050007442                                                                                     
7PESE                                                                                000000000019500                            
50004910201108302011083100502524498092       PES0000019500A065702011083017550218                                                
6024600019500112430050252449809200050000090                                                                                     
7PESE                                                                                000000000019500                            
50005010201108302011083100502621690936       PES0000019500A029782011083012040006                                                
6024600019500112430050262169093600050007163                                                                                     
7PESE                                                                                000000000019500                            
50005110201108302011083100502813751268       PES0000019500A016352011083018140244                                                
6024600019500112430050281375126800050007537                                                                                     
7PESE                                                                                000000000019500                            
50005210201108302011083100502912501991       PES0000019500M601132011083013010112                                                
6024600019500112430050291250199100050007100                                                                                     
7PESE                                                                                000000000019500                            
50005310201108302011083100503104568736       PES0000019500A047422011083009590038                                                
6024600019500112430050310456873600050007558                                                                                     
7PESE                                                                                000000000019500                            
50005410201108302011083100503235359340       PES0000019500A601582011083016060045                                                
6024600019500112430050323535934000050007590                                                                                     
7PESE                                                                                000000000019500                            
50005510201108302011083100503536832435       PES0000019500A099522011083017000050                                                
6024600019500112430050353683243500050007557                                                                                     
7PESE                                                                                000000000019500                            
50005610201108302011083100503725683688       PES0000019500D000592011083018310070                                                
6024600019500112430050372568368800050007458                                                                                     
7PESE                                                                                000000000019500                            
50005710201108302011083100503822608582       PES0000019500A028072011083012460134                                                
6024600019500112430050382260858200050007563                                                                                     
7PESE                                                                                000000000019500                            
50005810201108302011083100504233620999       PES0000019500A098552011083017290048                                                
6024600019500112430050423362099900050007542                                                                                     
7PESE                                                                                000000000019500                            
50005910201108302011083100504234600312       PES0000019500A104232011083017090065                                                
6024600019500112430050423460031200050007000                                                                                     
7PESE                                                                                000000000019500                            
50006010201108302011083100504235459798       PES0000019500A033862011083011050086                                                
6024600019500112430050423545979800050007442                                                                                     
7PESE                                                                                000000000019500                            
50006110201108302011083100504422910814       PES0000019500A032962011083019040092                                                
6024600019500112430050442291081400050007415                                                                                     
7PESE                                                                                000000000019500                            
50006210201108302011083100504425458663       PES0000019500A620812011083011110087                                                
6024600019500112430050442545866300050007542                                                                                     
7PESE                                                                                000000000019500                            
50006310201108302011083100504611445554       PES0000019500A071012011083013370057                                                
6024600019500112430050461144555400050007516                                                                                     
7PESE                                                                                000000000019500                            
50006410201108302011083100532716223785       PES0000026000A049072011083017510057                                                
6024600026000112420053271622378500030007515                                                                                     
7PESE                                                                                000000000026000                            
50006510201108302011083100533818070149       PES0000026000M601622011083017350256                                                
6024600026000112420053381807014900030000057                                                                                     
7PESE                                                                                000000000026000                            
50006610201108302011083100520626416171       PES0000026500D000302011083017520304                                                
6024600026500112440052062641617100005000258                                                                                     
7PESE                                                                                000000000026500                            
50006710201108302011083100520935657972       PES0000026500A093412011083018580083                                                
6024600026500112440052093565797200005000278                                                                                     
7PESE                                                                                000000000026500                            
50006810201108302011083100530425248455       PES0000035000A092012011083012450150                                                
6024600035000112420053042524845500035007200                                                                                     
7PESE                                                                                000000000035000                            
50006910201108302011083100530522399467       PES0000035000A063972011083012060029                                                
6024600035000112420053052239946700035000084                                                                                     
7PESE                                                                                000000000035000                            
50007010201108302011083100530616976109       PES0000035000A033762011083011490119                                                
6024600035000112420053061697610900035007563                                                                                     
7PESE                                                                                000000000035000                            
50007110201108302011083100530717901826       PES0000035000M600092011083013290089                                                
6024600035000112420053071790182600035007558                                                                                     
7PESE                                                                                000000000035000                            
50007210201108302011083101280520908640       PES0000036500A074942011083016040136                                                
6024600036500112420128052090864000000000021                                                                                     
7PESE                                                                                000000000036500                            
50007310201108302011083101280617589500       PES0000036500M600642011083010360008                                                
6024600036500112430128061758950000000000042                                                                                     
7PESE                                                                                000000000036500                            
50007410201108302011083101280522047749       PES0000036500A040462011083016420048                                                
6024600036500112470128052204774900000000042                                                                                     
7PESE                                                                                000000000036500                            
50007510201108302011083101280810084533       PES0000036500A002422011083010220033                                                
6024600036500112480128081008453300000000079                                                                                     
7PESE                                                                                000000000036500                            
50007610201108302011083101281425097818       PES0000036500A055272011083015520010                                                
6024600036500112480128142509781800000000015                                                                                     
7PESE                                                                                000000000036500                            
50007710201108302011083101280326122288       PES0000036500A020992011083015270074                                                
6024600036500112490128032612228800000000063                                                                                     
7PESE                                                                                000000000036500                            
50007810201108302011083101280518339180       PES0000036500A103152011083016380028                                                
6024600036500112490128051833918000000000021                                                                                     
7PESE                                                                                000000000036500                            
50007910201108302011083101280518514130       PES0000036500A097162011083019110186                                                
6024600036500112490128051851413000000000057                                                                                     
7PESE                                                                                000000000036500                            
50008010201108302011083101280520716819       PES0000036500A040462011083009540093                                                
6024600036500112490128052071681900000000037                                                                                     
7PESE                                                                                000000000036500                            
50008110201108302011083101280713323302       PES0000036500A091022011083019230206                                                
6024600036500112490128071332330200000000036                                                                                     
7PESE                                                                                000000000036500                            
82011083100000100000810000017300000000000000000000000000000000000000000000081                                                   
9201108310000010000081000001730000000000000000000000000000000000000000000000081                                                 
