120120531PAGO FACIL               090060246FABIAN NORBERTO D´ERAMO                                                              
320120531000001FABIAN NORBERTO D´ERAMO                                                                                          
50000110201205302012053199020232638684       PES0000022000A063672012053018350074                                                
6024600022000121519902023263868400000000057                                                                                     
7PESE                                                                                000000000022000                            
50000210201205302012053198030430896192       PES0000024000A080692012053015010207                                                
6024600024000121589803043089619200015000084                                                                                     
7PESE                                                                                000000000024000                            
82012053100000100000020000000460000000000000000000000000000000000000000000002                                                   
9201205310000010000002000000046000000000000000000000000000000000000000000000002                                                 
