120120731PAGO FACIL               090060246FABIAN NORBERTO D´ERAMO                                                              
320120731000001FABIAN NORBERTO D´ERAMO                                                                                          
50000110201207302012073157000222498743       PES0000014000M620062012073011510028                                                
6024600014000122185700022249874300000000057                                                                                     
7PESE                                                                                000000000014000                            
50000210201207302012073157000818477510       PES0000014000A103902012073014460135                                                
6024600014000122195700081847751000000000084                                                                                     
7PESE                                                                                000000000014000                            
50000310201207302012073159000323980338       PES0000016000A090422012073013420030                                                
6024600016000122165900032398033800000000078                                                                                     
7PESE                                                                                000000000016000                            
50000410201207302012073159001222485399       PES0000016000A621052012073011100013                                                
6024600016000122185900122248539900000000021                                                                                     
7PESE                                                                                000000000016000                            
50000510201207302012073159001514696193       PES0000016000A090422012073016510047                                                
6024600016000122195900151469619300000000042                                                                                     
7PESE                                                                                000000000016000                            
50000610201207302012073100711530136366       PES0000018500A099222012073017120276                                                
6024600018500122120071153013636600105000063                                                                                     
7PESE                                                                                000000000018500                            
50000710201207302012073100712526147825       PES0000018500M600172012073016140097                                                
6024600018500122120071252614782500105000015                                                                                     
7PESE                                                                                000000000018500                            
50000810201207302012073100713634534204       PES0000018500A022082012073020480286                                                
6024600018500122120071363453420400105000000                                                                                     
7PESE                                                                                000000000018500                            
50000910201207302012073100712814447208       PES0000018500A021472012073010450047                                                
6024600018500122160071281444720800105000063                                                                                     
7PESE                                                                                000000000018500                            
50001010201207302012073102381240231255       PES0000020000A108562012073018550029                                                
6024600020000122120238124023125500050000037                                                                                     
7PESE                                                                                000000000020000                            
50001110201207302012073102381523701105       PES0000020000A063662012073018420260                                                
6024600020000122120238152370110500050007337                                                                                     
7PESE                                                                                000000000020000                            
50001210201207302012073102382120988870       PES0000020000A090992012073011290129                                                
6024600020000122120238212098887000050007558                                                                                     
7PESE                                                                                000000000020000                            
50001310201207302012073102383628753988       PES0000020000A086812012073015170005                                                
6024600020000122120238362875398800050007363                                                                                     
7PESE                                                                                000000000020000                            
50001410201207302012073102383916402501       PES0000020000A091072012073016010248                                                
6024600020000122120238391640250100050007500                                                                                     
7PESE                                                                                000000000020000                            
50001510201207302012073102384113140445       PES0000020000A601122012073013520215                                                
6024600020000122120238411314044500050007316                                                                                     
7PESE                                                                                000000000020000                            
50001610201207302012073102380332362416       PES0000028000A026442012073014240090                                                
6024600028000122120238033236241600050007621                                                                                     
7PESE                                                                                000000000028000                            
50001710201207302012073102380332973165       PES0000028000M620112012073018260046                                                
6024600028000122120238033297316500050007421                                                                                     
7PESE                                                                                000000000028000                            
50001810201207302012073102380718070149       PES0000028000A047502012073013400047                                                
6024600028000122120238071807014900050007621                                                                                     
7PESE                                                                                000000000028000                            
50001910201207302012073199030133458467       PES0000049000A090562012073015280213                                                
6024600049000122129903013345846700000000000                                                                                     
7PESE                                                                                000000000049000                            
50002010201207302012073199030134318531       PES0000049000A074192012073018550100                                                
6024600049000122129903013431853100000000084                                                                                     
7PESE                                                                                000000000049000                            
50002110201207302012073199030137206177       PES0000049000A057612012073016100090                                                
6024600049000122129903013720617700000000042                                                                                     
7PESE                                                                                000000000049000                            
50002210201207302012073100540137461688       PES0000076000A081062012073017580258                                                
6024600076000122130054013746168800000000084                                                                                     
7PESE                                                                                000000000076000                            
82012073100000100000220000005770000000000000000000000000000000000000000000022                                                   
9201207310000010000022000000577000000000000000000000000000000000000000000000022                                                 
