120121031PAGO FACIL               090060246FABIAN NORBERTO D´ERAMO                                                              
320121031000001FABIAN NORBERTO D´ERAMO                                                                                          
50000110201210302012103101331520913638       PES0000052000A024782012102917270213                                                
6024600052000123050133152091363800080000037                                                                                     
7PESE                                                                                000000000052000                            
50000210201210302012103101331521052612       PES0000052000A090372012102917170409                                                
6024600052000123040133152105261200080000084                                                                                     
7PESE                                                                                000000000052000                            
50000310201210302012103152010233944057       PES0000010000A069432012103019500191                                                
6024600010000123055201023394405700010007479                                                                                     
7PESE                                                                                000000000010000                            
50000410201210302012103165000223865393       PES0000013000A119762012103015290146                                                
6024600013000123046500022386539300000000000                                                                                     
7PESE                                                                                000000000013000                            
50000510201210302012103165000217547737       PES0000013000A091492012103011190102                                                
6024600013000123056500021754773700000000058                                                                                     
7PESE                                                                                000000000013000                            
50000610201210302012103165000134977264       PES0000013000A095852012103011070071                                                
6024600013000123066500013497726400000000099                                                                                     
7PESE                                                                                000000000013000                            
50000710201210302012103165000217147735       PES0000013000A112392012103017120223                                                
6024600013000123066500021714773500000000099                                                                                     
7PESE                                                                                000000000013000                            
50000810201210302012103165000431660399       PES0000013000A096062012103013070124                                                
6024600013000123066500043166039900000000036                                                                                     
7PESE                                                                                000000000013000                            
50000910201210302012103165000517765693       PES0000013000A047522012103014000111                                                
6024600013000123066500051776569300000000036                                                                                     
7PESE                                                                                000000000013000                            
50001010201210302012103165000526167692       PES0000013000A055592012103008170001                                                
6024600013000123066500052616769200000000079                                                                                     
7PESE                                                                                000000000013000                            
50001110201210302012103165000217550568       PES0000013000A024432012103017040095                                                
6024600013000123076500021755056800000000000                                                                                     
7PESE                                                                                000000000013000                            
50001210201210302012103165000218629207       PES0000013000A113032012103010330017                                                
6024600013000123076500021862920700000000058                                                                                     
7PESE                                                                                000000000013000                            
50001310201210302012103165000224861985       PES0000013000A049072012103017440149                                                
6024600013000123076500022486198500000000042                                                                                     
7PESE                                                                                000000000013000                            
50001410201210302012103165000433023559       PES0000013000A113032012103019130210                                                
6024600013000123076500043302355900000000015                                                                                     
7PESE                                                                                000000000013000                            
50001510201210302012103165000526332445       PES0000013000A601122012103010090004                                                
6024600013000123076500052633244500000000015                                                                                     
7PESE                                                                                000000000013000                            
50001610201210302012103165000528474353       PES0000013000L120102012103014158833                                                
6024600013000123076500052847435300000000000                                                                                     
7PESE                                                                                000000000013000                            
50001710201210302012103165000611666255       PES0000013000L120092012103015405836                                                
6024600013000123076500061166625500000000063                                                                                     
7PESE                                                                                000000000013000                            
50001810201210302012103198010135400179       PES0000015000A093392012103019080038                                                
6024600015000123049801013540017900000000000                                                                                     
7PESE                                                                                000000000015000                            
50001910201210302012103198010135591766       PES0000015000L070492012103013214810                                                
6024600015000123049801013559176600000000058                                                                                     
7PESE                                                                                000000000015000                            
50002010201210302012103169010635892776       PES0000015000A098032012103017490031                                                
6024600015000123056901063589277600025000021                                                                                     
7PESE                                                                                000000000015000                            
50002110201210302012103169010636575070       PES0000015000M620082012103017570046                                                
6024600015000123056901063657507000025000016                                                                                     
7PESE                                                                                000000000015000                            
50002210201210302012103169011238676687       PES0000015000A098032012103017490032                                                
6024600015000123056901123867668700025000036                                                                                     
7PESE                                                                                000000000015000                            
50002310201210302012103169012524515788       PES0000015000A116572012103018000120                                                
6024600015000123066901252451578800025000463                                                                                     
7PESE                                                                                000000000015000                            
50002410201210302012103198010124694261       PES0000015000L070492012103014324817                                                
6024600015000123069801012469426100000000037                                                                                     
7PESE                                                                                000000000015000                            
50002510201210302012103198010432078167       PES0000019500A055192012103009420027                                                
6024600019500123059801043207816700000000078                                                                                     
7PESE                                                                                000000000019500                            
50002610201210302012103198010432125852       PES0000019500A640322012103012120042                                                
6024600019500123059801043212585200000000036                                                                                     
7PESE                                                                                000000000019500                            
50002710201210302012103118410718431766       PES0000020000A095352012103016580033                                                
6024600020000123051841071843176600050000000                                                                                     
7PESE                                                                                000000000020000                            
50002810201210302012103118410523091883       PES0000020000M600762012103012530036                                                
6024600020000123071841052309188300050000357                                                                                     
7PESE                                                                                000000000020000                            
50002910201210302012103100752236982255       PES0000022500D001522012103015290204                                                
6024600022500123050075223698225500020007578                                                                                     
7PESE                                                                                000000000022500                            
50003010201210302012103100752718066187       PES0000022500A092092012103013270134                                                
6024600022500123050075271806618700020007184                                                                                     
7PESE                                                                                000000000022500                            
50003110201210302012103129081322526252       PES0000023000A104702012103018030171                                                
6024600023000123042908132252625200020000042                                                                                     
7PESE                                                                                000000000023000                            
50003210201210302012103129081222626834       PES0000023000A104702012103018030172                                                
6024600023000123062908122262683400020000015                                                                                     
7PESE                                                                                000000000023000                            
50003310201210302012103129081817444123       PES0000023000M640372012103010280027                                                
6024600023000123102908181744412300020000015                                                                                     
7PESE                                                                                000000000023000                            
50003410201210302012103199030137461688       PES0000049000A080692012103015080297                                                
6024600049000123059903013746168800000000037                                                                                     
7PESE                                                                                000000000049000                            
50003510201210302012103101331231068769       PES0000052000A075212012103010040037                                                
6024600052000123040133123106876900080000079                                                                                     
7PESE                                                                                000000000052000                            
50003610201210302012103101331522410231       PES0000052000A063972012103013250168                                                
6024600052000123040133152241023100080000042                                                                                     
7PESE                                                                                000000000052000                            
50003710201210302012103101331616602152       PES0000052000A096932012103013220072                                                
6024600052000123040133161660215200080000000                                                                                     
7PESE                                                                                000000000052000                            
50003810201210302012103101330617657049       PES0000052000A096162012103012130128                                                
6024600052000123050133061765704900080000099                                                                                     
7PESE                                                                                000000000052000                            
50003910201210302012103101331713405650       PES0000052000A096162012103012130129                                                
6024600052000123050133171340565000080000084                                                                                     
7PESE                                                                                000000000052000                            
50004010201210302012103101331908625351       PES0000052000A070642012103020470344                                                
6024600052000123050133190862535100080000090                                                                                     
7PESE                                                                                000000000052000                            
50004110201210302012103101330327420185       PES0000052000B030732012103012150554                                                
6024600052000123060133032742018500080000057                                                                                     
7PESE                                                                                000000000052000                            
50004210201210302012103101331135359250       PES0000052000A091482012103017580112                                                
6024600052000123060133113535925000080000015                                                                                     
7PESE                                                                                000000000052000                            
50004310201210302012103101331425186749       PES0000052000A026442012103016520076                                                
6024600052000123080133142518674900080000016                                                                                     
7PESE                                                                                000000000052000                            
50004410201210302012103101331425659774       PES0000052000A096182012103013450219                                                
6024600052000123090133142565977400080000084                                                                                     
7PESE                                                                                000000000052000                            
50004510201210302012103101331133799317       PES0000052000A079392012103018260146                                                
6024600052000123100133113379931700080000000                                                                                     
7PESE                                                                                000000000052000                            
50004610201210302012103101331812949239       PES0000052000D000552012103010340035                                                
6024600052000123100133181294923900080000000                                                                                     
7PESE                                                                                000000000052000                            
50004710201210302012103101331328505764       PES0000052000A602252012103015490159                                                
6024600052000123110133132850576400080000079                                                                                     
7PESE                                                                                000000000052000                            
50004810201210302012103101331424919730       PES0000052000L070562012103010170725                                                
6024600052000123110133142491973000080000000                                                                                     
7PESE                                                                                000000000052000                            
82012103100000100000480000013710000000000000000000000000000000000000000000048                                                   
9201210310000010000048000001371000000000000000000000000000000000000000000000048                                                 
