00000000MARITIMO S.R.L.     20161114COBRANZAS RAPIPAGO                   
20161114000000000025000024600025000163191003102781809400000000090        
20161114000000000055000024600055000163202917013324458800100000636        
20161114000000000265000024600265000163200071713402336500000000016        
20161114000000000030000024600030000163209102102912255900000000021        
20161114000000000035000024600035000163202917122659000300100000358        
20161114000000000149500024600149500163200053533299672600085000190        
20161114000000000030000024600030000163269931012633335300000000084        
9999999900000007000000000000589500                                       
