120161117PAGO FACIL               090060246MARITIMO SRL                                                                         
320161117000001MARITIMO SRL                                                                                                     
50000110201611162016111710030730170428       PES0000025000A175182016111617530067                                                
6024600025000163221003073017042800000000037                                                                                     
7PESE                                                                                000000000025000                            
50000210201611162016111710031223783065       PES0000025000D004372016111620140238                                                
6024600025000163221003122378306500000000057                                                                                     
7PESE                                                                                000000000025000                            
50000310201611162016111799310131071560       PES0000030000A057152016111617140089                                                
6024600030000163279931013107156000000000057                                                                                     
7PESE                                                                                000000000030000                            
50000410201611162016111760010411853987       PES0000035000A148612016111613110018                                                
6024600035000163266001041185398700000000084                                                                                     
7PESE                                                                                000000000035000                            
50000510201611162016111760010912900285       PES0000035000A148612016111613110017                                                
6024600035000163266001091290028500000000079                                                                                     
7PESE                                                                                000000000035000                            
50000610201611162016111760010634261430       PES0000035000A011012016111617060096                                                
6024600035000163286001063426143000000000021                                                                                     
7PESE                                                                                000000000035000                            
82016111700000100000060000001850000000000000000000000000000000000000000000006                                                   
9201611170000010000006000000185000000000000000000000000000000000000000000000006                                                 
