120161116PAGO FACIL               090060246MARITIMO SRL                                                                         
320161116000001MARITIMO SRL                                                                                                     
50000110201611152016111629170231729988       PES0000055000A158132016111518290037                                                
6024600055000163202917023172998800100000642                                                                                     
7PESE                                                                                000000000055000                            
50000210201611152016111629170318240372       PES0000055000A141672016111510270013                                                
6024600055000163202917031824037200100000036                                                                                     
7PESE                                                                                000000000055000                            
50000310201611152016111629170728575956       PES0000055000A085192016111513580127                                                
6024600055000163202917072857595600100000615                                                                                     
7PESE                                                                                000000000055000                            
50000410201611152016111629170731432881       PES0000055000M640302016111511590054                                                
6024600055000163202917073143288100100000684                                                                                     
7PESE                                                                                000000000055000                            
82016111600000100000040000002200000000000000000000000000000000000000000000004                                                   
9201611160000010000004000000220000000000000000000000000000000000000000000000004                                                 
