00000000MARITIMO S.R.L.     20151001COBRANZAS RAPIPAGO                   
20151001000000000079500024600079500152757906111009639400150000500        
20151001000000000079500024600079500152757906091724506900150000657        
20151001000000000079500024600079500152757906081775849200150000542        
20151001000000000036000024600036000152746600272041654300000000084        
20151001000000000036000024600036000152746600272610746100000000057        
20151001000000000046000024600046000152746600042560568100000000063        
20151001000000000079500024600079500152747906043349045000150000084        
20151001000000000079500024600079500152747906133334652100150000063        
20151001000000000079500024600079500152757906043446956400150000684        
9999999900000009000000000000595000                                       
