00000000MARITIMO S.R.L.     20160401COBRANZAS RAPIPAGO                   
20160401000000000036500024600036500160927907052686580200055000578        
20160401000000000097000024600097000160980028283882931700070000121        
20160401000000000029000024600029000160957907169252965800000000099        
9999999900000003000000000000162500                                       
