00000000MARITIMO S.R.L.     20161101COBRANZAS RAPIPAGO                   
20161101000000000039000024600039000163078803013766270600000000057        
20161101000000000290000024600290000163068903162184500700000000016        
20161101000000000140000024600140000163120053533842500200095000000        
20161101000000000070000024600070000163131002154022691300000000037        
20161101000000000290000024600290000163068903052403700800000000063        
20161101000000000290000024600290000163068903042582111500000000057        
9999999900000006000000000001119000                                       
