00000000MARITIMO S.R.L.     20160701COBRANZAS RAPIPAGO                   
20160701000000000044100024600044100161888211033118651000042000084        
20160701000000000122000024600122000161900064649296908000030000084        
20160701000000000115000024600115000161890049499296908000080000163        
20160701000000000027300024600027300161888211023348080500027000057        
20160701000000000044100024600044100161888211042571699600042000021        
9999999900000005000000000000352500                                       
