00000000MARITIMO S.R.L.     20161201COBRANZAS RAPIPAGO                   
20161201000000000025000024600025000163366001212849135000000000078        
20161201000000000045000024600045000163382917123371545800100000063        
20161201000000000045000024600045000163382917113503999900100000021        
20161201000000000045000024600045000163382917113381241800100000099        
20161201000000000045000024600045000163382917113532428600100000063        
20161201000000000265000024600265000163420072723842500200000000058        
20161201000000000140000024600140000163420054543402336500095000063        
20161201000000000265000024600265000163420072723402336500000000042        
20161201000000000128000024600128000163430065653703565800000000042        
20161201000000000025000024600025000163366001132067239500000000042        
20161201000000000035000024600035000163366001022593286100000000099        
9999999900000011000000000001063000                                       
