00000000MARITIMO S.R.L.     20170102COBRANZAS RAPIPAGO                   
20161229000000000052500024600052500170018304172272042000075008890        
20170102000000000075000024600075000170052917023090544400000000090        
20170102000000000075000024600075000170052917023279153000000000078        
20170102000000000048000024600048000170021005053057515300100000399        
20170102000000000048000024600048000170031005082467427700100000315        
20170102000000000048000024600048000170021005072547630000100000399        
20170102000000000075000024600075000170032917091698793200000000015        
20170102000000000075000024600075000170032917082063338400000000090        
20170102000000000140000024600140000170070055554092275700095000200        
20170102000000000075000024600075000170062917032527378600000000000        
20170102000000000048000024600048000170021005134222572100100000384        
20170102000000000060000024600060000170068304182172942200000000000        
20170102000000000055000024600055000170052917123806702400000000079        
20170102000000000055000024600055000170052917112849782200000000063        
20170102000000000055000024600055000170032917114283753400000000015        
20170102000000000090000024600090000170081850362143995000100000015        
20170102000000000048000024600048000170021005072056771100100000315        
20170102000000000072500024600072500170058503203468210600000000079        
20170102000000000048000024600048000170031005121088059300100000342        
20170102000000000060000024600060000170021006173107017700100000337        
20170102000000000048000024600048000170021005072355803400100000342        
20170102000000000048000024600048000170021005211149876700100000321        
20170102000000000075000024600075000170062917041354277500000000090        
20170102000000000070000024600070000170021006072479167500100000321        
20170102000000000075000024600075000170052917041444021100000000090        
20170102000000000072500024600072500170058503193840788000000000090        
9999999900000026000000000001691500                                       
