00000000MARITIMO S.R.L.     20170302COBRANZAS RAPIPAGO                   
20170302000000000050000024600050000170689700013303440700000000084        
9999999900000001000000000000050000                                       
