00000000MARITIMO S.R.L.     20160302COBRANZAS RAPIPAGO                   
20160302000000000030000024600030000160679604073385172400030000084        
9999999900000001000000000000030000                                       
