00000000MARITIMO S.R.L.     20151002COBRANZAS RAPIPAGO                   
20151002000000000020000024600020000152809603022979252200000000015        
20151002000000000020000024600020000152809603013250812600000000084        
20151002000000000079500024600079500152757906062616737900150000758        
20151002000000000079500024600079500152757906072429844700150000763        
20151002000000000020000024600020000152809603013219936900000000000        
20151002000000000079000024600079000152810091124049299100000000078        
20151002000000000112000024600112000152750093062166610100040000063        
20151002000000000020000024600020000152805204191839856400020000016        
20151002000000000079500024600079500152757906091472137600150000542        
20151002000000000079500024600079500152757906072244620600150000600        
20151002000000000079500024600079500152757906070242245500150000684        
20151002000000000079500024600079500152757906072377784900150000600        
20151002000000000079500024600079500152757906091659337200150000242        
20151002000000000079500024600079500152757906053038874500150000615        
9999999900000014000000000000907000                                       
