00000000MARITIMO S.R.L.     20160202COBRANZAS RAPIPAGO                   
20160202000000000010000024600010000160350900032683843000000000084        
20160202000000000020000024600020000160350900052718315100000000079        
20160202000000000010000024600010000160350900032774136100000000016        
20160202000000000010000024600010000160350900031848122000000000057        
20160202000000000020000024600020000160350900052407627800000000058        
20160202000000000099000024600099000160401848052454636800000000037        
20160202000000000020000024600020000160350900050826932200000000090        
20160202000000000010000024600010000160350900031198986300000000090        
20160202000000000010000024600010000160350900031664016400000000078        
20160202000000000015000024600015000160350900042469945300000000000        
20160202000000000020000024600020000160350900052519389100000000084        
20160202000000000010000024600010000160350900034627755200000000057        
20160202000000000010000024600010000160350900032588550400000000058        
20160202000000000010000024600010000160350900032397165700000000015        
20160202000000000097000024600097000160380026263515713500070000263        
20160202000000000010000024600010000160350900031178913000000000036        
20160202000000000035000024600035000160352915123013168800000000037        
20160202000000000097000024600097000160380026263596225200070000237        
9999999900000018000000000000513000                                       
