00000000MARITIMO S.R.L.     20160802COBRANZAS RAPIPAGO                   
20160802000000000128000024600128000162210064643819946200000000016        
20160802000000000128000024600128000162220067673801927800000000036        
20160802000000000049000024600049000162209806041184867000040000137        
20160802000000000115000024600115000162200050503900046400080000142        
9999999900000004000000000000420000                                       
