00000000MARITIMO S.R.L.     20160902COBRANZAS RAPIPAGO                   
20160902000000000129000024600129000162510051513842500200090000263        
9999999900000001000000000000129000                                       
