00000000MARITIMO S.R.L.     20151102COBRANZAS RAPIPAGO                   
20151102000000000140000024600140000153120147152527306600000000099        
20151102000000000088000024600088000153099919033725984100070000063        
20151102000000000144700024600144700153139921013725984100000000099        
20151102000000000080000024600080000153138901242545950800000000021        
9999999900000004000000000000452700                                       
