00000000MARITIMO S.R.L.     20161102COBRANZAS RAPIPAGO                   
20161102000000000030000024600030000163136001072890433100050000078        
20161102000000000058000024600058000163131001162753584400000000015        
20161102000000000055000024600055000163142917041408212900100000078        
9999999900000003000000000000143000                                       
