00000000DERAMO FABIAN N.    20150602COBRANZAS RAPIPAGO                   
20150602000000000010000024600010000151600144012004227400000000037        
9999999900000001000000000000010000                                       
