00000000MARITIMO S.R.L.     20161202COBRANZAS RAPIPAGO                   
20161202000000000031500024600031500163438213090475198100063000063        
20161202000000000265000024600265000163440071713703565800000000099        
20161202000000000015000024600015000163440304203366284700000000063        
9999999900000003000000000000311500                                       
