00000000MARITIMO S.R.L.     20151003COBRANZAS RAPIPAGO                   
20151003000000000059250024600059250152830091291397444500000500084        
20151003000000000065000024600065000152821846052286018300000000037        
20151003000000000088000024600088000152809919033882931700070000058        
9999999900000003000000000000212250                                       
