00000000MARITIMO S.R.L.     20161103COBRANZAS RAPIPAGO                   
20161103000000000140000024600140000163120053533523592800095000357        
20161103000000000055000024600055000163152917072646833400100000016        
20161103000000000030000024600030000163146001013699585400050000000        
20161103000000000039000024600039000163148803013642539900000000015        
20161103000000000039000024600039000163148803014015269400000000015        
9999999900000005000000000000303000                                       
