00000000MARITIMO S.R.L.     20151203COBRANZAS RAPIPAGO                   
20151203000000000140000024600140000153400147161806558000000000057        
20151203000000000055000024600055000153441847033160199900000000042        
20151203000000000055000024600055000153431847241839925800000000058        
20151203000000000020000024600020000153397104132241177900000000042        
20151203000000000020000024600020000153397104083078021600000000099        
20151203000000000020000024600020000153397104131393964400000000042        
20151203000000000020000024600020000153397104132853194200000000042        
20151203000000000020000024600020000153397104131330415100000000016        
20151203000000000020000024600020000153422914141499113000000000021        
20151203000000000140000024600140000153430147133027790100000000036        
20151203000000000088000024600088000153419919034000957200070000216        
20151203000000000144700024600144700153449921033926938300000000099        
20151203000000000020000024600020000153397104131729597200000000058        
20151203000000000140000024600140000153440147171746937900000000036        
20151203000000000020000024600020000153422915141696638000000000021        
20151203000000000088000024600088000153419919033991705800070000300        
20151203000000000140000024600140000153410147123415127900000000015        
20151203000000000055000024600055000153411847081369786900000000090        
20151203000000000020000024600020000153442914181808818600000000000        
9999999900000019000000000001225700                                       
