00000000MARITIMO S.R.L.     20150803COBRANZAS RAPIPAGO                   
20150803000000000090000024600090000152150145032994015300000000058        
20150803000000000056000024600056000152229918034013244800000000084        
20150803000000000088000024600088000152199903034013244800070000384        
20150803000000000210000024600210000152168901081297307800200000063        
9999999900000004000000000000444000                                       
