00000000MARITIMO S.R.L.     20170103COBRANZAS RAPIPAGO                   
20170103000000000055000024600055000170052917112299416200000000000        
20170103000000000055000024600055000170052917122965989100000000015        
20170103000000000029400024600029400170108213012103844100000000063        
20170103000000000093000024600093000170058503422684569400000000090        
20170103000000000029400024600029400170098213023281452500000000084        
20170103000000000070000024600070000170051006154022691300000000015        
20170103000000000075000024600075000170052917073073915400000000084        
20170103000000000055000024600055000170052917123535143900000000078        
20170103000000000072500024600072500170058503082836144800000000000        
20170103000000000055000024600055000170052917121098467600000000021        
20170103000000000140000024600140000170070055553402336500095000236        
20170103000000000093000024600093000170058503643444868900000000079        
20170103000000000060000024600060000170068304243242035500000000016        
9999999900000013000000000000882300                                       
