00000000MARITIMO S.R.L.     20160603COBRANZAS RAPIPAGO                   
20160603000000000115000024600115000161590048484073299900080000257        
20160603000000000122000024600122000161610063634073299900000000000        
20160603000000000074500024600074500161617908041682506600105000021        
20160603000000000074500024600074500161587908023059457600105000099        
20160603000000000030000024600030000161599925031738675200000000063        
20160603000000000030000024600030000161599925033225593000000000099        
20160603000000000034500024600034500161618803012625053400045000037        
20160603000000000034500024600034500161628803014066332900045000099        
20160603000000000034500024600034500161628803013784528900045000063        
20160603000000000034500024600034500161588803013600414500045000090        
20160603000000000060000024600060000161600258214391354000000000084        
20160603000000000060000024600060000161600258214272420500000000000        
20160603000000000049000024600049000161599806041184867000040000258        
20160603000000000034500024600034500161608803013898743500045000021        
9999999900000014000000000000787500                                       
