00000000MARITIMO S.R.L.     20150903COBRANZAS RAPIPAGO                   
20150903000000000055000024600055000152501846033063233300100000090        
20150903000000000079500024600079500152507906062778217500150000037        
20150903000000000058000024600058000152509914014013244800000000063        
20150903000000000088000024600088000152500001014013244800070000316        
20150903000000000048000024600048000152511706142221421900120000058        
9999999900000005000000000000328500                                       
