00000000MARITIMO S.R.L.     20151103COBRANZAS RAPIPAGO                   
20151103000000000088000024600088000153119919034013244800070000216        
20151103000000000088000024600088000153119919033515713500070000342        
20151103000000000088000024600088000153119919033596225200070000315        
20151103000000000080000024600080000153098901342658766500000000000        
20151103000000000030000024600030000153076906233339717200050000637        
20151103000000000030000024600030000153076906153166249900050000757        
9999999900000006000000000000404000                                       
