00000000MARITIMO S.R.L.     20160803COBRANZAS RAPIPAGO                   
20160803000000000122000024600122000162210068683847860100030000037        
20160803000000000044100024600044100162178211052364197400042000090        
20160803000000000122000024600122000162220068683373354800030000016        
20160803000000000115000024600115000162200050502864088500080000221        
9999999900000004000000000000403100                                       
