00000000DERAMO FABIAN N.    20150603COBRANZAS RAPIPAGO                   
20150603000000000052500024600052500151597905032235551900110000042        
20150603000000000016000024600016000151550144102041653000000000084        
9999999900000002000000000000068500                                       
