00000000MARITIMO S.R.L.     20160203COBRANZAS RAPIPAGO                   
20160203000000000003000024600003000160350900012557084200000000000        
20160203000000000003000024600003000160350900013310281500000000016        
20160203000000000003000024600003000160350900013263677900000000000        
20160203000000000010000024600010000160350900032519466100000000000        
20160203000000000010000024600010000160350900033455225100000000084        
20160203000000000010000024600010000160350900032959375100000000037        
20160203000000000015000024600015000160350900042690209700000000042        
20160203000000000010000024600010000160350900032605703000000000090        
20160203000000000010000024600010000160350900033771960600000000021        
20160203000000000010000024600010000160350900034385552500000000016        
20160203000000000060000024600060000160401848233213587300000000042        
20160203000000000003000024600003000160350900012039163300000000058        
20160203000000000020000024600020000160350900054259743600000000079        
20160203000000000010000024600010000160350900031602342400000000015        
20160203000000000010000024600010000160350900031807887200000000000        
20160203000000000020000024600020000160350900051442539100000000021        
20160203000000000003000024600003000160350900011376441600000000000        
20160203000000000020000024600020000160350900051255781400000000078        
20160203000000000003000024600003000160350900011786820100000000000        
20160203000000000097000024600097000160380026263615448900070000184        
20160203000000000020000024600020000160350900053166369400000000021        
20160203000000000003000024600003000160350900010837298100000000099        
20160203000000000003000024600003000160350900011417279400000000016        
20160203000000000003000024600003000160350900010668983700000000042        
20160203000000000010000024600010000160340900033115453000000000090        
20160203000000000003000024600003000160350900014378440500000000016        
20160203000000000003000024600003000160350900011779710800000000063        
20160203000000000003000024600003000160350900013290689100000000057        
20160203000000000003000024600003000160350900013290752700000000090        
20160203000000000010000024600010000160350900031367788800000000000        
20160203000000000020000024600020000160350900052368114700000000037        
9999999900000031000000000000411000                                       
