00000000MARITIMO S.R.L.     20170104COBRANZAS RAPIPAGO                   
20170104000000000093000024600093000170058503393867680700000000099        
20170104000000000037800024600037800170118213052517763500000000042        
20170104000000000100000024600100000170111850052547664400200000015        
20170104000000000055000024600055000170062917122547926200000000000        
20170104000000000075000024600075000170052917051254857800000000021        
20170104000000000075000024600075000170052917022734453100000000000        
20170104000000000072500024600072500170068503092471519200000000063        
20170104000000000140000024600140000170070055553827732000095000499        
20170104000000000072500024600072500170058503092406922200000000016        
20170104000000000055000024600055000170052917123690220500000000084        
20170104000000000060000024600060000170068304124249202800000000021        
20170104000000000075000024600075000170062917041491689400000000016        
20170104000000000075000024600075000170052917041417172800000000079        
20170104000000000075000024600075000170052917013398216400000000090        
20170104000000000075000024600075000170052917082266328000000000000        
20170104000000000072500024600072500170058503131063163500000000078        
20170104000000000055000024600055000170052917122224653900000000084        
20170104000000000075000024600075000170052917031840182000000000042        
20170104000000000075000024600075000170052917051093180500000000084        
20170104000000000075000024600075000170052917063814683400000000037        
20170104000000000140000024600140000170070055553422943400095000384        
20170104000000000072500024600072500170068503222633966500000000099        
20170104000000000128000024600128000170110065653899056000000000016        
20170104000000000055000024600055000170052917111817158800000000021        
9999999900000024000000000001883800                                       
