00000000MARITIMO S.R.L.     20151104COBRANZAS RAPIPAGO                   
20151104000000000088000024600088000153119919033576671900070000490        
20151104000000000144700024600144700153139921013724876700000000063        
20151104000000000144700024600144700153139921023724876700000000099        
20151104000000000088000024600088000153119919033724876700070000284        
20151104000000000020000024600020000153152915163326150700000000000        
20151104000000000020000024600020000153152914163326150700000000058        
20151104000000000230000024600230000153138901132927663400000000042        
20151104000000000080000024600080000153148901281452741000000000036        
20151104000000000001000024600001000153110016169999993000001000457        
20151104000000000001000024600001000153080018189999992500001000784        
9999999900000010000000000000817400                                       
