00000000MARITIMO S.R.L.     20160104COBRANZAS RAPIPAGO                   
20160104000000000024200024600024200160118209044449020600000000058        
20160104000000000031500024600031500160118209072978175500000000063        
20160104000000000120000024600120000160115706082073480100000000042        
20160104000000000070000024600070000160068502403409281000000000042        
20160104000000000120000024600120000160115706062750001100000000021        
20160104000000000097000024600097000160070025253834716800070000342        
20160104000000000097000024600097000160070025253615448900070000463        
20160104000000000070000024600070000160068502432357430000000000099        
20160104000000000031500024600031500160118209102041203900000000063        
20160104000000000070000024600070000160068502562632311200000000000        
20160104000000000070000024600070000160068502393784882200000000058        
9999999900000011000000000000801200                                       
