00000000MARITIMO S.R.L.     20151204COBRANZAS RAPIPAGO                   
20151204000000000020000024600020000153442914113691581300000000090        
20151204000000000020000024600020000153412914113561121600000000037        
20151204000000000140000024600140000153390147133142739700000000036        
20151204000000000140000024600140000153450147163092855600000000036        
20151204000000000088000024600088000153419919033725030200070000415        
20151204000000000020000024600020000153397104134331369900000000090        
20151204000000000020000024600020000153397104139232070200000000084        
20151204000000000020000024600020000153397104051352325200000000063        
20151204000000000144700024600144700153419921023990873600000000036        
20151204000000000088000024600088000153419919033990873600070000484        
20151204000000000144700024600144700153459921033990873600000000037        
20151204000000000020000024600020000153452914213072217200000000021        
20151204000000000020000024600020000153452914222957007400000000057        
20151204000000000020000024600020000153399700043597868500000000537        
20151204000000000144700024600144700153459921033724876700000000015        
20151204000000000088000024600088000153419919033724876700070000463        
20151204000000000144700024600144700153459921023021213900000000021        
20151204000000000144700024600144700153459921033021213900000000042        
20151204000000000144700024600144700153459921013021213900000000090        
20151204000000000088000024600088000153419919033021213900070000490        
20151204000000000055000024600055000153421847061858113400000000084        
20151204000000000144700024600144700153429921023725984100000000079        
20151204000000000088000024600088000153419919033725984100070000184        
20151204000000000144700024600144700153429921033725984100000000000        
20151204000000000088000024600088000153409919033615448900070000042        
20151204000000000144700024600144700153409921023615448900000000036        
20151204000000000140000024600140000153450147142579597900000000090        
9999999900000027000000000002465300                                       
