00000000MARITIMO S.R.L.     20150804COBRANZAS RAPIPAGO                   
20150804000000000030000024600030000152238801012541633300000000058        
20150804000000000088000024600088000152199903033596225200070000479        
20150804000000000088000024600088000152199903033615448900070000321        
9999999900000003000000000000206000                                       
