00000000MARITIMO S.R.L.     20161104COBRANZAS RAPIPAGO                   
20161104000000000140000024600140000163120053533687290800095000357        
20161104000000000050000024600050000163099102072045750500100000021        
20161104000000000039000024600039000163128803014077870500000000000        
20161104000000000039000024600039000163138803013766671800000000015        
20161104000000000050000024600050000163139102052718168100100000037        
20161104000000000140000024600140000163120053533900046400095000384        
20161104000000000039000024600039000163158803013687124200000000000        
9999999900000007000000000000497000                                       
