00000000MARITIMO S.R.L.     20170304COBRANZAS RAPIPAGO                   
20170304000000000046000024600046000170698214062179705200030000042        
20170304000000000034000024600034000170638214243554035100030000057        
9999999900000002000000000000080000                                       
