00000000MARITIMO S.R.L.     20160604COBRANZAS RAPIPAGO                   
20160604000000000034500024600034500161578803014442554800045000090        
20160604000000000034500024600034500161628803014062253500045000063        
20160604000000000034500024600034500161628803014023166800045000058        
20160604000000000010000024600010000161637603493074460900050000021        
20160604000000000020000024600020000161607603043147721500100000042        
20160604000000000034500024600034500161598803014058178200045000036        
20160604000000000034500024600034500161608803011371348800045000036        
9999999900000007000000000000202500                                       
