00000000DERAMO FABIAN N.    20150604COBRANZAS RAPIPAGO                   
20150604000000000016000024600016000151620144032812971700000000021        
9999999900000001000000000000016000                                       
