00000000MARITIMO S.R.L.     20160804COBRANZAS RAPIPAGO                   
20160804000000000027300024600027300162208211023771960600027000279        
9999999900000001000000000000027300                                       
