00000000MARITIMO S.R.L.     20160504COBRANZAS RAPIPAGO                   
20160504000000000034500024600034500161328803013385172400045000079        
20160504000000000044100024600044100161308210211217794000042000090        
20160504000000000097000024600097000161280029293926938300070000300        
20160504000000000097000024600097000161280029293596225200070000400        
9999999900000004000000000000272600                                       
