00000000MARITIMO S.R.L.     20160704COBRANZAS RAPIPAGO                   
20160704000000000020000024600020000161937603052921234300100000021        
20160704000000000035000024600035000161875904060780062800050000016        
20160704000000000115000024600115000161890049493523592800080000357        
20160704000000000122000024600122000161920064643523592800030000099        
20160704000000000034500024600034500161898803013740894400045000021        
20160704000000000034500024600034500161938803014160417400045000036        
9999999900000006000000000000361000                                       
