00000000MARITIMO S.R.L.     20151005COBRANZAS RAPIPAGO                   
20151005000000000112000024600112000152780093081408174600040000099        
20151005000000000088000024600088000152809919033576671900070000500        
20151005000000000079000024600079000152820091291205709500000000000        
20151005000000000020000024600020000152835204091312792900020000016        
20151005000000000018000024600018000152785204261461496700000000037        
20151005000000000065000024600065000152821846052258916400000000057        
20151005000000000094500024600094500152847906072305277100000000063        
20151005000000000112000024600112000152780093052399507600040000037        
20151005000000000088000024600088000152809919033991705800070000542        
20151005000000000230000024600230000152858901023447340500000000042        
20151005000000000050000024600050000152800256081369786900100000084        
20151005000000000112000024600112000152800093052380393300040000078        
9999999900000012000000000001068500                                       
