00000000MARITIMO S.R.L.     20160205COBRANZAS RAPIPAGO                   
20160205000000000097000024600097000160380026263553683300070000515        
20160205000000000097000024600097000160380026263886049100070000516        
20160205000000000097000024600097000160380026264000957200070000579        
20160205000000000097000024600097000160380026263021936700070000179        
20160205000000000097000024600097000160380026269926975100070000578        
20160205000000000097000024600097000160380026263725984100070000579        
20160205000000000035000024600035000160412915182265544100000000037        
20160205000000000060000024600060000160411848242285412000000000037        
9999999900000008000000000000677000                                       
