00000000MARITIMO S.R.L.     20160305COBRANZAS RAPIPAGO                   
20160305000000000097000024600097000160670027273596225200070000578        
9999999900000001000000000000097000                                       
