00000000DERAMO FABIAN N.    20150605COBRANZAS RAPIPAGO                   
20150605000000000030000024600030000151638801013253320800000000063        
20150605000000000016000024600016000151620144102357012700000000058        
9999999900000002000000000000046000                                       
