00000000MARITIMO S.R.L.     20160805COBRANZAS RAPIPAGO                   
20160805000000000044100024600044100162208211161647342200042000321        
20160805000000000039000024600039000162218803013011615900000000036        
20160805000000000115000024600115000162200050504073299900080000563        
20160805000000000115000024600115000162200050503727981700080000463        
20160805000000000122000024600122000162240065653727981700030000079        
20160805000000000039000024600039000162258803013743368000000000063        
20160805000000000027300024600027300162208211022880124800027000221        
20160805000000000060000024600060000162249601022898606900000000058        
20160805000000000044100024600044100162208211110550279100042000178        
20160805000000000044100024600044100162208211142291694900042000084        
20160805000000000044100024600044100162208211062004004200042000084        
20160805000000000044100024600044100162208211033279990500042000578        
20160805000000000115000024600115000162200050504139450400080000521        
20160805000000000044100024600044100162188211052380539500042000090        
20160805000000000057700024600057700162208211223079916600053000421        
9999999900000015000000000000954600                                       
