00000000MARITIMO S.R.L.     20161105COBRANZAS RAPIPAGO                   
20161105000000000039000024600039000163178803013515616400000000000        
20161105000000000140000024600140000163120053532864088500095000336        
9999999900000002000000000000179000                                       
