00000000MARITIMO S.R.L.     20160705COBRANZAS RAPIPAGO                   
20160705000000000034500024600034500161938803013446935100045000015        
20160705000000000109500024600109500161930029299926975100000000016        
20160705000000000128000024600128000161940063633856126100000000099        
20160705000000000115000024600115000161890049493640389700080000457        
9999999900000004000000000000387000                                       
