00000000MARITIMO S.R.L.     20160405COBRANZAS RAPIPAGO                   
20160405000000000044100024600044100160968210092542957300042000021        
20160405000000000001000024600001000160989806062816738200735000521        
9999999900000002000000000000045100                                       
