00000000MARITIMO S.R.L.     20150805COBRANZAS RAPIPAGO                   
20150805000000000210000024600210000152178901042610148200200000000        
20150805000000000088000024600088000152199903033725984100070000379        
9999999900000002000000000000298000                                       
