00000000MARITIMO S.R.L.     20161205COBRANZAS RAPIPAGO                   
20161205000000000025200024600025200163458213013409258800042000000        
20161205000000000031500024600031500163448213061859154000063000058        
20161205000000000072500024600072500163468503082634654900000000058        
20161205000000000140000024600140000163420054543900046400095000536        
20161205000000000158000024600158000163470053533737688500000000084        
20161205000000000140000024600140000163420054543842648100095000258        
20161205000000000025200024600025200163448213029264073400042000015        
20161205000000000065000024600065000163402917082256971600100000021        
20161205000000000045000024600045000163402917124198017900100000037        
20161205000000000031500024600031500163448213132827976500063000063        
20161205000000000045000024600045000163472917114267533300100000058        
20161205000000000065000024600065000163472917032279861500100000016        
20161205000000000140000024600140000163420054542864088500095000300        
20161205000000000031500024600031500163438213042674828200063000036        
20161205000000000031500024600031500163478213042605780800063000090        
9999999900000015000000000001046900                                       
