00000000MARITIMO S.R.L.     20160905COBRANZAS RAPIPAGO                   
20160905000000000129000024600129000162510051514073299900090000521        
20160905000000000101000024600101000162537909072420539900155000084        
20160905000000000129000024600129000162510051513687290800090000200        
20160905000000000129000024600129000162510051513759747800090000215        
20160905000000000129000024600129000162510051513900046400090000415        
9999999900000005000000000000617000                                       
