00000000MARITIMO S.R.L.     20160505COBRANZAS RAPIPAGO                   
20160505000000000115000024600115000161280047473627586000080000316        
20160505000000000115000024600115000161280047473842500200080000584        
20160505000000000115000024600115000161280047473523592800080000499        
20160505000000000115000024600115000161280047473320685300080000578        
20160505000000000097000024600097000161280029293991705800070000490        
20160505000000000115000024600115000161280047474139450400080000500        
20160505000000000057700024600057700161268210263533356800053000021        
9999999900000007000000000000729700                                       
