00000000DERAMO FABIAN N.    20150306COBRANZAS RAPIPAGO                   
20150306000000000095000024600095000150720253132965276200000000000        
9999999900000001000000000000095000                                       
