00000000MARITIMO S.R.L.     20161006COBRANZAS RAPIPAGO                   
20161006000000000070000024600070000162861849033172815900000000084        
20161006000000000101000024600101000162817909111253363400135000536        
20161006000000000101000024600101000162817909043720748300155000516        
20161006000000000101000024600101000162817909082240205600155000690        
20161006000000000129000024600129000162810052524012926700090000657        
20161006000000000094500024600094500162870069694012926700000000090        
20161006000000000128000024600128000162870063633899056000000000021        
20161006000000000129000024600129000162810052523900046400090000484        
20161006000000000050000024600050000162816601132548575600000000078        
20161006000000000101000024600101000162817909062731870200155000590        
20161006000000000101000024600101000162817909101433744300155000558        
20161006000000000129000024600129000162810052523687290800090000584        
20161006000000000150000024600150000162848903261858113400000000042        
20161006000000000129000024600129000162810052523523592800090000584        
20161006000000000101000024600101000162817909072364602200155000500        
20161006000000000129000024600129000162810052524139450400090000690        
20161006000000000101000024600101000162817909081803829200155000578        
20161006000000000101000024600101000162817909052979502300155000699        
9999999900000018000000000001945500                                       
