00000000MARITIMO S.R.L.     20160806COBRANZAS RAPIPAGO                   
20160806000000000115000024600115000162200050503687290800080000557        
20160806000000000115000024600115000162200050504012926700080000584        
20160806000000000122000024600122000162250065654012926700030000000        
20160806000000000115000024600115000162200050503827732000080000621        
9999999900000004000000000000467000                                       
