00000000MARITIMO S.R.L.     20170206COBRANZAS RAPIPAGO                   
20170206000000000140000024600140000170380056563827732000095000684        
20170206000000000120000024600120000170421850141149876700000000042        
20170206000000000060000024600060000170401501062003267500000000099        
9999999900000003000000000000320000                                       
