00000000MARITIMO S.R.L.     20161206COBRANZAS RAPIPAGO                   
20161206000000000048000024600048000163431006183161764900120000490        
20161206000000000025200024600025200163478213022085105700042000099        
20161206000000000031500024600031500163458213152231381900063000015        
20161206000000000065000024600065000163452917081808818600100000063        
20161206000000000140000024600140000163420054543827732000095000663        
20161206000000000265000024600265000163430071713827732000000000015        
20161206000000000140000024600140000163420054543687290800095000636        
20161206000000000265000024600265000163470071713687290800000000058        
20161206000000000140000024600140000163420054543523592800095000590        
20161206000000000265000024600265000163470072723523592800000000021        
20161206000000000031500024600031500163478213071647531400063000063        
20161206000000000031500024600031500163458213132645077500063000090        
20161206000000000031500024600031500163458213052519131800063000084        
20161206000000000049000024600049000163429806041184867000040000690        
20161206000000000031500024600031500163448213132893544300063000015        
20161206000000000140000024600140000163420054543448242200095000521        
20161206000000000265000024600265000163470071713448242200000000084        
20161206000000000093000024600093000163488503572541850500000000042        
20161206000000000093000024600093000163478503442208666200000000079        
20161206000000000093000024600093000163488503432483545400000000099        
20161206000000000031500024600031500163458213033129928200063000099        
20161206000000000031500024600031500163448213032986562800063000084        
20161206000000000025200024600025200163448213023384970900042000078        
20161206000000000031500024600031500163438213123632096800063000079        
9999999900000024000000000002363400                                       
