00000000MARITIMO S.R.L.     20160906COBRANZAS RAPIPAGO                   
20160906000000000129000024600129000162510051513670172900090000242        
20160906000000000070000024600070000162561849042577173400000000042        
20160906000000000129000024600129000162510051513842648100090000278        
20160906000000000101000024600101000162547909072554727300155000063        
20160906000000000101000024600101000162567909053105974300155000058        
20160906000000000070000024600070000162561849121782174500000000090        
20160906000000000129000024600129000162510051514139450400090000621        
20160906000000000129000024600129000162510051512864088500090000599        
9999999900000008000000000000858000                                       
