00000000MARITIMO S.R.L.     20160106COBRANZAS RAPIPAGO                   
20160106000000000055000024600055000160068502073179998000000000079        
20160106000000000031500024600031500160128209162749073600000000042        
20160106000000000070000024600070000160132800122592362000200000000        
20160106000000000055000024600055000160068502053744963000000000016        
20160106000000000045000024600045000160088303323494246000000000084        
20160106000000000070000024600070000160068502442033012700000000021        
20160106000000000097000024600097000160070025253725030200070000616        
20160106000000000070000024600070000160068502432266168300000000063        
20160106000000000070000024600070000160068502432465661600000000078        
20160106000000000070000024600070000160068502451484074400000000021        
20160106000000000070000024600070000160068502682050646400000000042        
20160106000000000070000024600070000160068502422558297400000000084        
20160106000000000097000024600097000160070025253926839500070000621        
20160106000000000070000024600070000160068502432471519200000000042        
20160106000000000070000024600070000160068502432206520500000000063        
20160106000000000070000024600070000160068502403331111700000000063        
20160106000000000070000024600070000160068502422658363900000000090        
20160106000000000097000024600097000160070025252437920200070000542        
20160106000000000070000024600070000160068502642830076200000000042        
20160106000000000031500024600031500160138209102175073700000000042        
20160106000000000031500024600031500160128209153041353800000000000        
20160106000000000045000024600045000160088303201088059300000000057        
20160106000000000055000024600055000160068502072836144800000000058        
9999999900000023000000000001480500                                       
