00000000MARITIMO S.R.L.     20150806COBRANZAS RAPIPAGO                   
20150806000000000088000024600088000152199903033576671900070000690        
20150806000000000030000024600030000152258801013706667900000000084        
9999999900000002000000000000118000                                       
