00000000MARITIMO S.R.L.     20151006COBRANZAS RAPIPAGO                   
20151006000000000088000024600088000152809919033926938300070000621        
20151006000000000033600024600033600152818208102150012000021000063        
20151006000000000020000024600020000152865204162892354500020000084        
20151006000000000020000024600020000152815204052561521000020000079        
20151006000000000094500024600094500152857906052891142100000000078        
20151006000000000088000024600088000152809919033725030200070000215        
20151006000000000094500024600094500152867906082045758800000000079        
20151006000000000020000024600020000152809603011677034900000000015        
20151006000000000020000024600020000152809603012209132000000000099        
20151006000000000020000024600020000152809603013216647000000000063        
20151006000000000020000024600020000152809603012755875700000000037        
20151006000000000020000024600020000152809603022923271100000000037        
20151006000000000020000024600020000152809603023745471800000000000        
20151006000000000020000024600020000152809603023014126000000000063        
20151006000000000020000024600020000152809603012028229600000000057        
20151006000000000020000024600020000152809603022360777300000000063        
20151006000000000112000024600112000152790093061828393900040000016        
20151006000000000020000024600020000152809603011418999700000000063        
20151006000000000020000024600020000152809603012946050000000000016        
20151006000000000230000024600230000152798901052347486700000000037        
20151006000000000020000024600020000152809603013757058700000000090        
20151006000000000001000024600001000152810016169999991500001000021        
20151006000000000001000024600001000152800015159999992500001000163        
20151006000000000033600024600033600152798208102086742800021000016        
20151006000000000033600024600033600152808208082634654900021000042        
9999999900000025000000000001089800                                       
