00000000MARITIMO S.R.L.     20160507COBRANZAS RAPIPAGO                   
20160507000000000044100024600044100161288210073407503000042000090        
20160507000000000115000024600115000161280047473727981700080000578        
20160507000000000057700024600057700161328210272893004200053000084        
20160507000000000097000024600097000161280029293945819900070000799        
9999999900000004000000000000313800                                       
