00000000MARITIMO S.R.L.     20160407COBRANZAS RAPIPAGO                   
20160407000000000097000024600097000160980028284000957200070000663        
20160407000000000097000024600097000160980028283315733300070000600        
20160407000000000097000024600097000160980028283768691400070000536        
20160407000000000097000024600097000160980028284013244800070000700        
20160407000000000097000024600097000160980028283990873600070000790        
20160407000000000097000024600097000160980028283596225200070000621        
9999999900000006000000000000582000                                       
