00000000MARITIMO S.R.L.     20160107COBRANZAS RAPIPAGO                   
20160106000000000070000024600070000160068502451746937900000000057        
20160107000000000024200024600024200160148209054331269800000000099        
20160107000000000024200024600024200160148209054057991600000000042        
20160107000000000045000024600045000160088303124074302900000000000        
20160107000000000097000024600097000160070025253748125800070000778        
20160107000000000097000024600097000160070025253767911600070000700        
20160107000000000097000024600097000160070025253886049100070000763        
20160107000000000045000024600045000160088303372986691600000000079        
20160107000000000097000024600097000160070025254013244800070000563        
20160107000000000045000024600045000160088303451059145800000000042        
20160107000000000045000024600045000160088303404414675900000000057        
20160107000000000034000024600034000160129700060111111200000000079        
20160107000000000097000024600097000160070025253945819900070000500        
20160107000000000120000024600120000160145706072271784200000000084        
20160107000000000031500024600031500160148209073533356800000000037        
20160107000000000031500024600031500160148209111647735600000000079        
20160107000000000097000024600097000160070025253021936700070000590        
9999999900000017000000000001097400                                       
