00000000MARITIMO S.R.L.     20160607COBRANZAS RAPIPAGO                   
20160607000000000130000024600130000161660047473824286100000000042        
20160607000000000115000024600115000161590048483687290800080000684        
20160607000000000115000024600115000161590048483827732000080000616        
20160607000000000115000024600115000161590048483842648100080000784        
20160607000000000097000024600097000161590030303515713500070000715        
20160607000000000115000024600115000161590048483759747800080000684        
20160607000000000097000024600097000161590030304013244800070000384        
20160607000000000115000024600115000161590048483737688500080000699        
20160607000000000097000024600097000161590030303526736700070000737        
20160607000000000097000024600097000161590030303974480800070000790        
20160607000000000097000024600097000161590030303991705800070000778        
20160607000000000097000024600097000161590030303945819900070000763        
20160607000000000115000024600115000161590048483856126100080000700        
20160607000000000115000024600115000161590048483299672600080000736        
20160607000000000115000024600115000161590048483819946200080000679        
20160607000000000109500024600109500161660029293725030200000000079        
9999999900000016000000000001741500                                       
