00000000MARITIMO S.R.L.     20150807COBRANZAS RAPIPAGO                   
20150807000000000033000024600033000152259601012347939400000000021        
20150807000000000070000024600070000152198901352313687100100000679        
20150807000000000090000024600090000152260145152742018500000000084        
20150807000000000088000024600088000152199903033451990500070000679        
20150807000000000060000024600060000152207602282459540400000000078        
20150807000000000056000024600056000152259918033724876700000000099        
20150807000000000088000024600088000152199903033724876700070000658        
20150807000000000030000024600030000152248801012946050000000000063        
20150807000000000048000024600048000152251706062546962700120000079        
9999999900000009000000000000563000                                       
