00000000MARITIMO S.R.L.     20150907COBRANZAS RAPIPAGO                   
20150907000000000079500024600079500152537906062508543000150000036        
20150907000000000079500024600079500152527906052853263000150000036        
20150907000000000079500024600079500152577906082076594600150000084        
20150907000000000048000024600048000152531706013474602800120000137        
20150907000000000079500024600079500152577906101181685700150000021        
20150907000000000048000024600048000152531706062729249200120000415        
20150907000000000048000024600048000152511706082081306600120000016        
20150907000000000048000024600048000152531706052853677200120000478        
20150907000000000001100024600001100152510013139999991500001000163        
20150907000000000001100024600001100152510013132816738200001000163        
9999999900000010000000000000512200                                       
