00000000DERAMO FABIAN N.    20150407COBRANZAS RAPIPAGO                   
20150407000000000088000024600088000150979903033921211500000000021        
9999999900000001000000000000088000                                       
