00000000DERAMO FABIAN N.    20150507COBRANZAS RAPIPAGO                   
20150507000000000088000024600088000151279903033798175300070000621        
9999999900000001000000000000088000                                       
