00000000MARITIMO S.R.L.     20160108COBRANZAS RAPIPAGO                   
20160108000000000031500024600031500160128209102142289800000000000        
20160108000000000031500024600031500160128209109413303300000000021        
20160108000000000100000024600100000160122800223184282500200000021        
20160108000000000045000024600045000160088303391623165800000000099        
20160108000000000045000024600045000160088303233236182600000000000        
20160108000000000045000024600045000160088303214054388000000000084        
20160108000000000045000024600045000160088303461363404400000000079        
20160108000000000045000024600045000160088303310531097200000000058        
20160108000000000045000024600045000160088303243040871900000000063        
20160108000000000031500024600031500160158209111468240300000000000        
9999999900000010000000000000464500                                       
