00000000MARITIMO S.R.L.     20160808COBRANZAS RAPIPAGO                   
20160808000000000039000024600039000162218803014284927500000000016        
20160808000000000039000024600039000162288803014077812100000000042        
20160808000000000122000024600122000162270065653670172900030000000        
20160808000000000039000024600039000162218803012541633300000000079        
20160808000000000122000024600122000162280066664118505600000000063        
20160808000000000130000024600130000162280048484024212000000000063        
9999999900000006000000000000491000                                       
