00000000MARITIMO S.R.L.     20160608COBRANZAS RAPIPAGO                   
20160608000000000074500024600074500161607908082155240200105000000        
20160608000000000130000024600130000161660046469546533200000000084        
20160608000000000075000024600075000161600258362584844200000000042        
20160608000000000075000024600075000161600258062090869300000000084        
9999999900000004000000000000354500                                       
