00000000DERAMO FABIAN N.    20150408COBRANZAS RAPIPAGO                   
20150408000000000031500024600031500150997904091195103200000000015        
9999999900000001000000000000031500                                       
