00000000MARITIMO S.R.L.     20161108COBRANZAS RAPIPAGO                   
20161108000000000030000024600030000163199931012408348200000020237        
20161108000000000145000024600145000163190052523737688500000000021        
20161108000000000145000024600145000163200052523320685300000000099        
20161108000000000058000024600058000163151001162662570800000000042        
20161108000000000058000024600058000163151001043627565800000000000        
20161108000000000149500024600149500163200053534139450400085000021        
20161108000000000039000024600039000163208803013880884300000000078        
20161108000000000145000024600145000163200052523842381500000000084        
20161108000000000058000024600058000163151001172035073300000000078        
20161108000000000058000024600058000163151001072330378800000000078        
9999999900000010000000000000885500                                       
