00000000MARITIMO S.R.L.     20151008COBRANZAS RAPIPAGO                   
20151008000000000112000024600112000152830093162040376300040000315        
20151008000000000086000024600086000152830093253370959000060000499        
20151008000000000095000024600095000152889919033596225200045000042        
20151008000000000094500024600094500152847906062496989200000000084        
9999999900000004000000000000387500                                       
