00000000MARITIMO S.R.L.     20170208COBRANZAS RAPIPAGO                   
20170208000000000060000024600060000170401501184139167900000000036        
20170208000000000060000024600060000170391501062090869300000000015        
9999999900000002000000000000120000                                       
