00000000MARITIMO S.R.L.     20161008COBRANZAS RAPIPAGO                   
20161008000000000035000024600035000162882917121448482800100000084        
20161008000000000035000024600035000162882917112038041200100000016        
9999999900000002000000000000070000                                       
