00000000MARITIMO S.R.L.     20150808COBRANZAS RAPIPAGO                   
20150808000000000030000024600030000152278801012673003900000000084        
20150808000000000030000024600030000152278801013733442500000000000        
20150808000000000030000024600030000152268801012197472100000000084        
9999999900000003000000000000090000                                       
