00000000MARITIMO S.R.L.     20160708COBRANZAS RAPIPAGO                   
20160708000000000122000024600122000161960064644012926700030000000        
20160708000000000123000024600123000161970049494012926700070000042        
20160708000000000060000024600060000161909203031614575200000000058        
9999999900000003000000000000305000                                       
