00000000DERAMO FABIAN N.    20150409COBRANZAS RAPIPAGO                   
20150409000000000021000024600021000151058206051755864400010000079        
9999999900000001000000000000021000                                       
