00000000MARITIMO S.R.L.     20151209COBRANZAS RAPIPAGO                   
20151209000000000070000024600070000153468502461361274500000000099        
20151209000000000140000024600140000153430147133152923600000000021        
20151209000000000055000024600055000153441847061775392000000000090        
20151209000000000140000024600140000153460147142658815400000000021        
20151209000000000144700024600144700153449921013469186400000000099        
20151209000000000095000024600095000153499919033712037800045000090        
20151209000000000020000024600020000153502914172526583900000000021        
20151209000000000020000024600020000153502914132291618200000000084        
20151209000000000140000024600140000153460147162056771100000000057        
20151209000000000140000024600140000153430147142922710400000000016        
20151209000000000144700024600144700153459921033615448900000000084        
20151209000000000095000024600095000153499919033514350500045000100        
9999999900000012000000000001204400                                       
