00000000MARITIMO S.R.L.     20160209COBRANZAS RAPIPAGO                   
20160209000000000104000024600104000160460026263882931700055000121        
9999999900000001000000000000104000                                       
