00000000MARITIMO S.R.L.     20161109COBRANZAS RAPIPAGO                   
20161109000000000030000024600030000163176001032148415200050000290        
20161109000000000025000024600025000163161003122264735700000000042        
20161109000000000025000024600025000163161003222372483100000000015        
20161109000000000025000024600025000163161003014045584000000000042        
20161109000000000039000024600039000163208803013559149400000000099        
20161109000000000039000024600039000163218803011659016600000000042        
20161109000000000080000024600080000163151002091676491800000000042        
20161109000000000070000024600070000163151002172589587100000000058        
20161109000000000058000024600058000163151001033659423400000000036        
20161109000000000080000024600080000163151002033598100900000000090        
20161109000000000058000024600058000163151001201699552500000000058        
20161109000000000050000024600050000163209102062371979100100000178        
9999999900000012000000000000579000                                       
