00000000MARITIMO S.R.L.     20160709COBRANZAS RAPIPAGO                   
20160709000000000034500024600034500161988803013250812600045000063        
20160709000000000034500024600034500161988803014483673600045000021        
20160709000000000034500024600034500161988803013863679700045000058        
9999999900000003000000000000103500                                       
