00000000MARITIMO S.R.L.     20150909COBRANZAS RAPIPAGO                   
20150909000000000079500024600079500152597906101380710300150000021        
20150909000000000072000024600072000152580091272066979800070000090        
20150909000000000090000024600090000152550145061827746000000000084        
20150909000000000090000024600090000152550145162250590800000000090        
20150909000000000079500024600079500152597906052946038200150000078        
9999999900000005000000000000411000                                       
