00000000MARITIMO S.R.L.     20160809COBRANZAS RAPIPAGO                   
20160809000000000030000024600030000162288211023562135700000000057        
20160809000000000039000024600039000162298803013928702700000000084        
20160809000000000060000024600060000162239601024058178200000000058        
20160809000000000030000024600030000162288211024006395800000000037        
20160809000000000122000024600122000162280065653650123700030000190        
20160809000000000123000024600123000162280050503650123700070000142        
20160809000000000039000024600039000162248803013111591900000000079        
9999999900000007000000000000443000                                       
