00000000MARITIMO S.R.L.     20151009COBRANZAS RAPIPAGO                   
20151008000000000044100024600044100152848208022340684900031000458        
20151009000000000086000024600086000152830093382715651600060000521        
20151009000000000079000024600079000152880091272143800400000000090        
20151009000000000086000024600086000152830093351811036200060000363        
20151009000000000079000024600079000152830091181795384800000000084        
20151009000000000079000024600079000152850091191684317300000000021        
20151009000000000086000024600086000152830093373409876400060000436        
20151009000000000094500024600094500152897906053188676100000000000        
20151009000000000020000024600020000152829603023789432500000000016        
20151009000000000030000024600030000152898801013482029500000000090        
20151009000000000020000024600020000152829603023482029500000000021        
20151009000000000044100024600044100152848208033158470000031000137        
9999999900000012000000000000747700                                       
