00000000MARITIMO S.R.L.     20160909COBRANZAS RAPIPAGO                   
20160909000000000138000024600138000162590051514012926700070000100        
20160909000000000101000024600101000162537909043526664100155000036        
20160909000000000101000024600101000162607909081789660000155000036        
20160909000000000070000024600070000162571849102483608700000000084        
20160909000000000138000024600138000162590051513640389700070000000        
9999999900000005000000000000548000                                       
