00000000MARITIMO S.R.L.     20170210COBRANZAS RAPIPAGO                   
20170210000000000149500024600149500170460056563422943400085000263        
9999999900000001000000000000149500                                       
