00000000MARITIMO S.R.L.     20160910COBRANZAS RAPIPAGO                   
20160910000000000038000024600038000162571001101324340200100000000        
20160910000000000101000024600101000162617909091636036200155000000        
9999999900000002000000000000139000                                       
