00000000MARITIMO S.R.L.     20160610COBRANZAS RAPIPAGO                   
20160610000000000130000024600130000161690047473511102700000000042        
20160610000000000030000024600030000161689925033659301900000000021        
20160610000000000104000024600104000161670030303725030200055000215        
20160610000000000034500024600034500161698803013679101000045000084        
9999999900000004000000000000298500                                       
