00000000MARITIMO S.R.L.     20160210COBRANZAS RAPIPAGO                   
20160210000000000025000024600025000160412915222302720200000000099        
20160210000000000003000024600003000160430900011111459700000000036        
20160210000000000010000024600010000160430900032937528000000000063        
20160210000000000010000024600010000160430900031477953200000000016        
20160210000000000099000024600099000160481848071642708300000000042        
20160210000000000020000024600020000160430900053737348700000000099        
20160210000000000020000024600020000160430900053006720200000000015        
20160210000000000005000024600005000160430900022148896000000000000        
20160210000000000050000024600050000160430900072027358600000000000        
9999999900000009000000000000242000                                       
