00000000MARITIMO S.R.L.     20160510COBRANZAS RAPIPAGO                   
20160510000000000044100024600044100161338210092306594300042000521        
20160510000000000039000024600039000161369601013678407700000000179        
20160510000000000030000024600030000161339925043678407700000000000        
20160510000000000130000024600130000161310046464024212000000000016        
20160510000000000123000024600123000161360047473328245000070000237        
20160510000000000057700024600057700161338210273531424800053000378        
20160510000000000057700024600057700161338210263451851200053000315        
20160510000000000027300024600027300161338210043450018700027000242        
9999999900000008000000000000508800                                       
