00000000MARITIMO S.R.L.     20161110COBRANZAS RAPIPAGO                   
20161110000000000058000024600058000163201006052715142200120000184        
20161110000000000080000024600080000163151002072210960000000000036        
20161110000000000058000024600058000163151001181823488400000000042        
20161110000000000058000024600058000163151001191651414600000000042        
20161110000000000058000024600058000163151001182028164100000000015        
20161110000000000080000024600080000163151002072367180800000000037        
20161110000000000080000024600080000163151002071858113400000000063        
20161110000000000058000024600058000163151001111284151600000000016        
20161110000000000055000024600055000163192917031813384100100000021        
20161110000000000058000024600058000163151001201720326200000000057        
20161110000000000080000024600080000163151002091456375300000000036        
20161110000000000055000024600055000163202917023087948100100000163        
20161110000000000058000024600058000163151001152880608500000000057        
20161110000000000080000024600080000163151002033414287300000000084        
9999999900000014000000000000916000                                       
