00000000MARITIMO S.R.L.     20151010COBRANZAS RAPIPAGO                   
20151010000000000094500024600094500152897906082135381900000000058        
20151010000000000033600024600033600152848208092364197400021000257        
20151010000000000044100024600044100152848208013455232800031000563        
20151010000000000094500024600094500152877906062694468700000000000        
9999999900000004000000000000266700                                       
