00000000MARITIMO S.R.L.     20170110COBRANZAS RAPIPAGO                   
20170110000000000158000024600158000170160054543737688500000000042        
20170110000000000029400024600029400170118213012812971700000000084        
20170110000000000149500024600149500170150055552943828500085000136        
20170110000000000037800024600037800170168213062157429700000000036        
20170110000000000037800024600037800170168213042872933600000000000        
20170110000000000037800024600037800170178213042787317500000000084        
20170110000000000037800024600037800170118213062084517900000000042        
9999999900000007000000000000488100                                       
