00000000MARITIMO S.R.L.     20160310COBRANZAS RAPIPAGO                   
20160310000000000040000024600040000160772800023285904400000000078        
20160310000000000036500024600036500160777907072235551900055000079        
9999999900000002000000000000076500                                       
