00000000MARITIMO S.R.L.     20150810COBRANZAS RAPIPAGO                   
20150810000000000030000024600030000152298801013995030800000000084        
20150810000000000030000024600030000152278801012607381000000000084        
20150810000000000030000024600030000152288801013207815400000000000        
20150810000000000030000024600030000152298801012360777300000000016        
20150810000000000230000024600230000152298901033068199300000000057        
9999999900000005000000000000350000                                       
