00000000MARITIMO S.R.L.     20161111COBRANZAS RAPIPAGO                   
20161111000000000055000024600055000163202917072626257500100000236        
20161111000000000039000024600039000163238803013279470600000000079        
20161111000000000265000024600265000163180071713984958400000000042        
20161111000000000030000024600030000163176001073035450900050000584        
20161111000000000050000024600050000163209102062353689800100000379        
20161111000000000050000024600050000163209102122464506900100000363        
20161111000000000039000024600039000163228803014032337600000000036        
20161111000000000039000024600039000163218803013106354200000000090        
20161111000000000039000024600039000163218803013135938300000000021        
20161111000000000055000024600055000163202917081783153600100000342        
20161111000000000055000024600055000163202917022662107200100000236        
9999999900000011000000000000716000                                       
