00000000MARITIMO S.R.L.     20160111COBRANZAS RAPIPAGO                   
20160111000000000120000024600120000160155706062646621400000000378        
20160111000000000031500024600031500160128209073495600000000000036        
20160111000000000031500024600031500160128209191865657300000000063        
20160111000000000104000024600104000160150025259926975100055000158        
20160111000000000031500024600031500160128209073313521300000000063        
20160111000000000024200024600024200160188209052501499100000000079        
20160111000000000024200024600024200160188209042632122400000000016        
9999999900000007000000000000366900                                       
