00000000DERAMO FABIAN N.    20150611COBRANZAS RAPIPAGO                   
20150611000000000016000024600016000151640144051253004800000000084        
9999999900000001000000000000016000                                       
