00000000MARITIMO S.R.L.     20160211COBRANZAS RAPIPAGO                   
20160211000000000005000024600005000160430900022291673100000000063        
20160211000000000104000024600104000160460026263725030200055000242        
20160211000000000003000024600003000160430900011787145800000000078        
20160211000000000005000024600005000160430900021701796800000000063        
20160211000000000104000024600104000160460026263990873600055000357        
9999999900000005000000000000221000                                       
