00000000MARITIMO S.R.L.     20161011COBRANZAS RAPIPAGO                   
20161011000000000048300024600048300162918212042634654900000000036        
20161011000000000060000024600060000162899601023768848200000000342        
20161011000000000130000024600130000162920050503498762900000000000        
20161011000000000116500024600116500162917909052637972200000000021        
20161011000000000063000024600063000162908212212416022800000000078        
20161011000000000030000024600030000162925905132330875900000000090        
20161011000000000116500024600116500162917909072290775700000000000        
9999999900000007000000000000564300                                       
