00000000MARITIMO S.R.L.     20160511COBRANZAS RAPIPAGO                   
20160511000000000044100024600044100161338210082754499800042000563        
20160511000000000057700024600057700161338210283033597300053000121        
20160511000000000060000024600060000161380258100780062800150000057        
20160511000000000027300024600027300161328210043182172800027000021        
20160511000000000104000024600104000161360029293990873600055000357        
9999999900000005000000000000293100                                       
