00000000MARITIMO S.R.L.     20160412COBRANZAS RAPIPAGO                   
20160412000000000115000024600115000161060046464012926700080000358        
20160412000000000104000024600104000161060028283526736700055000099        
20160412000000000115000024600115000161050046463516924600080000042        
20160412000000000104000024600104000161060028283974480800055000057        
20160412000000000115000024600115000161060046463687290800080000021        
20160412000000000115000024600115000161060046463991094500080000037        
20160412000000000115000024600115000161050046464139450400080000057        
20160412000000000115000024600115000161060046463856126100080000442        
20160412000000000030000024600030000161069925013493352800000000457        
9999999900000009000000000000928000                                       
