00000000MARITIMO S.R.L.     20160912COBRANZAS RAPIPAGO                   
20160912000000000130000024600130000162630048482191847800000000000        
9999999900000001000000000000130000                                       
