00000000MARITIMO S.R.L.     20160312COBRANZAS RAPIPAGO                   
20160312000000000120000024600120000160792800222636887500200000063        
9999999900000001000000000000120000                                       
