00000000MARITIMO S.R.L.     20161112COBRANZAS RAPIPAGO                   
20161112000000000055000024600055000163172917023101045800100000000        
20161112000000000265000024600265000163230071714087075100000000015        
9999999900000002000000000000320000                                       
