00000000MARITIMO S.R.L.     20150812COBRANZAS RAPIPAGO                   
20150812000000000090000024600090000152270145052330102600000000099        
20150812000000000074000024600074000152319917033477061700000000090        
20150812000000000090000024600090000152300145231802526000000000021        
20150812000000000054500024600054500152250093243683020000315000590        
20150812000000000048000024600048000152261706013386868000120000084        
9999999900000005000000000000356500                                       
