00000000DERAMO FABIAN N.    20150512COBRANZAS RAPIPAGO                   
20150512000000000035700024600035700151338206082605745500000000099        
20150512000000000035700024600035700151338206073425378300000000036        
9999999900000002000000000000071400                                       
