00000000MARITIMO S.R.L.     20160512COBRANZAS RAPIPAGO                   
20160512000000000044100024600044100161338210111759322200042000763        
20160512000000000044100024600044100161338210073327347200042000142        
20160512000000000030000024600030000161399925033107156000000000021        
20160512000000000060000024600060000161369601023107156000000000342        
20160512000000000044100024600044100161338210162762517900042000563        
20160512000000000123000024600123000161360047473819946200070000284        
20160512000000000057700024600057700161338210262845241400053000779        
20160512000000000044100024600044100161338210092476641100042000621        
20160512000000000044100024600044100161338210153050631900042000663        
9999999900000009000000000000491200                                       
