00000000MARITIMO S.R.L.     20151112COBRANZAS RAPIPAGO                   
20151112000000000140000024600140000153230147162004508000000000016        
20151112000000000022000024600022000153185204221166625500000000090        
20151112000000000022000024600022000153185204172694212400000000000        
20151112000000000030000024600030000153218801014199065800000000037        
20151112000000000018000024600018000153185204253086235300000000016        
20151112000000000018000024600018000153185204264164047400000000078        
20151112000000000230000024600230000153228901052485128800000000000        
9999999900000007000000000000480000                                       
