00000000MARITIMO S.R.L.     20160212COBRANZAS RAPIPAGO                   
20160212000000000099000024600099000160491848013607256600000000063        
20160212000000000060000024600060000160481848232802888300000000021        
20160212000000000003000024600003000160430900011769619900000000016        
20160212000000000003000024600003000160430900011680629500000000021        
20160212000000000005000024600005000160430900022143232200000000084        
20160212000000000020000024600020000160430900052526578800000000058        
20160212000000000020000024600020000160430900052491459400000000084        
20160212000000000003000024600003000160430900012473387600000000084        
20160212000000000003000024600003000160430900012329608400000000021        
20160212000000000015000024600015000160430900040453415900000000057        
20160212000000000020000024600020000160430900053421772200000000057        
20160212000000000020000024600020000160430900051344442900000000079        
20160212000000000020000024600020000160430900051439389100000000084        
9999999900000013000000000000291000                                       
