00000000MARITIMO S.R.L.     20160413COBRANZAS RAPIPAGO                   
20160413000000000115000024600115000161060046464073299900080000163        
20160413000000000115000024600115000161060046463899056000080000321        
9999999900000002000000000000230000                                       
