00000000MARITIMO S.R.L.     20161013COBRANZAS RAPIPAGO                   
20161013000000000116500024600116500162927909082091432900000000036        
20161013000000000048300024600048300162938212123800674700000000000        
20161013000000000116500024600116500162937909082182823900000000042        
20161013000000000114500024600114500162937909111240933400000000042        
20161013000000000094500024600094500162940070703856126100000000078        
20161013000000000138000024600138000162890052523856126100070000578        
9999999900000006000000000000628300                                       
