00000000MARITIMO S.R.L.     20151013COBRANZAS RAPIPAGO                   
20151013000000000020000024600020000152935204143693920800020000099        
20151013000000000079000024600079000152930091133735333800000000037        
9999999900000002000000000000099000                                       
