00000000MARITIMO S.R.L.     20160713COBRANZAS RAPIPAGO                   
20160713000000000123000024600123000161970049493819946200070000584        
20160713000000000057700024600057700161958211222312226800053000016        
20160713000000000122000024600122000161970067673033072100030000557        
20160713000000000130000024600130000162020048483824286100000000042        
20160713000000000122000024600122000161970064644139450400030000563        
20160713000000000020000024600020000162017603072090869300100000084        
9999999900000006000000000000574700                                       
