00000000MARITIMO S.R.L.     20160613COBRANZAS RAPIPAGO                   
20160613000000000122000024600122000161670063633670172900000000000        
20160613000000000122000024600122000161670063634139450400000000042        
20160613000000000122000024600122000161670063633650123700000000016        
20160613000000000104000024600104000161670030303990873600055000284        
9999999900000004000000000000470000                                       
