00000000MARITIMO S.R.L.     20150813COBRANZAS RAPIPAGO                   
20150813000000000030000024600030000152298801013890004200000000099        
20150813000000000090000024600090000152310145042639045700000000000        
20150813000000000030000024600030000152298801013284376400000000000        
20150813000000000030000024600030000152278801011358087400000000000        
20150813000000000103000024600103000152310093052185186400090000063        
20150813000000000056000024600056000152259918034000957200000000016        
20150813000000000057000024600057000152310091442185186400150000058        
20150813000000000030000024600030000152288801013382379700000000079        
20150813000000000090000024600090000152250145152498475900000000099        
9999999900000009000000000000516000                                       
