00000000MARITIMO S.R.L.     20160813COBRANZAS RAPIPAGO                   
20160813000000000039000024600039000162338803013469153000000000063        
9999999900000001000000000000039000                                       
