00000000MARITIMO S.R.L.     20170213COBRANZAS RAPIPAGO                   
20170213000000000149500024600149500170460056563650123700085000563        
20170213000000000120000024600120000170461850131418671100000000078        
20170213000000000100000024600100000170451850252444868900000000036        
20170213000000000120000024600120000170461850052404285000000000063        
20170213000000000100000024600100000170461850252489285500000000090        
20170213000000000120000024600120000170461850023342703200000000021        
20170213000000000080000024600080000170469933014095666600000000500        
9999999900000007000000000000789500                                       
