00000000MARITIMO S.R.L.     20170113COBRANZAS RAPIPAGO                   
20170113000000000029400024600029400170188213023424567000000000079        
20170113000000000037800024600037800170188213033153497500000000016        
20170113000000000037800024600037800170138213132911967300000000015        
20170113000000000020000024600020000170200095073931468600000000000        
20170113000000000037800024600037800170148213152096624900000000063        
20170113000000000029400024600029400170188213013987345700000000021        
9999999900000006000000000000192200                                       
