00000000MARITIMO S.R.L.     20160113COBRANZAS RAPIPAGO                   
20160113000000000031500024600031500160168209172449940500000000021        
20160113000000000104000024600104000160150025254000957200055000463        
20160113000000000031500024600031500160138209121336862900000000084        
20160113000000000031500024600031500160138209073483473900000000021        
20160113000000000089000024600089000160131848171483784100100000057        
20160113000000000031500024600031500160158209073359363800000000078        
20160113000000000031500024600031500160168209179254328700000000042        
20160113000000000035000024600035000160162915189254328700000000015        
9999999900000008000000000000385500                                       
