00000000DERAMO FABIAN N.    20150313COBRANZAS RAPIPAGO                   
20150313000000000070000024600070000150720253242883115000000000015        
20150313000000000070000024600070000150720253233846935400000000000        
9999999900000002000000000000140000                                       
