00000000MARITIMO S.R.L.     20150814COBRANZAS RAPIPAGO                   
20150814000000000030000024600030000152338801012397825400000000000        
20150814000000000030000024600030000152318801014149148800000000063        
20150814000000000030000024600030000152318801014203111900000000084        
20150814000000000030000024600030000152328801013000298700000000079        
20150814000000000030000024600030000152328801012670030900000000000        
20150814000000000075000024600075000152330093403319120800110000079        
9999999900000006000000000000225000                                       
