00000000MARITIMO S.R.L.     20151114COBRANZAS RAPIPAGO                   
20151114000000000020000024600020000153202914113200819900000000063        
20151114000000000022000024600022000153185204172535010100000000021        
9999999900000002000000000000042000                                       
