00000000MARITIMO S.R.L.     20161014COBRANZAS RAPIPAGO                   
20161014000000000030000024600030000162938212013429135100000000015        
20161014000000000116500024600116500162947909082197666100000000084        
20161014000000000094500024600094500162950070703670172900000000078        
20161014000000000116500024600116500162957909072279989800000000084        
20161014000000000138000024600138000162890052523299672600070000637        
20161014000000000070000024600070000162901849052489285500000000090        
9999999900000006000000000000565500                                       
