00000000MARITIMO S.R.L.     20160414COBRANZAS RAPIPAGO                   
20160414000000000034500024600034500161128803013842500200045000042        
20160414000000000115000024600115000161060046463827732000080000221        
20160414000000000115000024600115000161060046463701312600080000521        
20160414000000000115000024600115000161050046463670172900080000016        
20160414000000000115000024600115000161060046463320685300080000679        
20160414000000000115000024600115000161060046463830544200080000663        
20160414000000000115000024600115000161060046463737688500080000642        
9999999900000007000000000000724500                                       
