00000000MARITIMO S.R.L.     20161214COBRANZAS RAPIPAGO                   
20161213000000000149500024600149500163500054544139450400085000578        
20161214000000000265000024600265000163560071713819946200000000042        
20161214000000000031500024600031500163548213042731795400063000000        
20161214000000000265000024600265000163490072723827732000000000057        
20161214000000000065000024600065000163492917041489556200100000057        
20161214000000000031500024600031500163508213062063383500063000063        
20161214000000000065000024600065000163502917091668563300100000679        
20161214000000000065000024600065000163502917032276533000100000500        
20161214000000000065000024600065000163502917082382982600100000584        
20161214000000000065000024600065000163502917032267236000100000384        
20161214000000000065000024600065000163492917072560633300100000079        
20161214000000000045000024600045000163492917112160059800100000084        
20161214000000000265000024600265000163490072723640389700000000084        
20161214000000000265000024600265000163490072723856126100000000000        
20161214000000000065000024600065000163502917082296689500100000536        
9999999900000015000000000001772500                                       
