00000000MARITIMO S.R.L.     20151215COBRANZAS RAPIPAGO                   
20151215000000000020000024600020000153502914182022680700000000063        
20151215000000000020000024600020000153502914132289091100000000099        
20151215000000000028400024600028400153568209072914142400031000063        
20151215000000000020000024600020000153552914141757164000000000058        
20151215000000000070000024600070000153558502384113829300000000016        
20151215000000000070000024600070000153558502442185186400000000021        
20151215000000000020000024600020000153562914122574402200000000000        
20151215000000000028400024600028400153558209082594468800031000078        
20151215000000000020000024600020000153552914182328156100000000000        
20151215000000000021000024600021000153558209041774107900032000099        
9999999900000010000000000000317800                                       
