00000000MARITIMO S.R.L.     20160615COBRANZAS RAPIPAGO                   
20160615000000000122000024600122000161670063633737688500030000521        
20160615000000000122000024600122000161670063639296908000000000042        
20160615000000000044000024600044000161679700081111111700000000658        
20160615000000000122000024600122000161670063633827732000030000557        
20160615000000000060000024600060000161719203032036377500000000015        
20160615000000000074500024600074500161697908013193634500105000015        
20160615000000000123000024600123000161670048484071313400070000058        
20160615000000000060000024600060000161679203053596225200000000084        
20160615000000000060000024600060000161679601023563226300000000642        
20160615000000000060000024600060000161679601023318177600000000684        
20160615000000000074500024600074500161697908041630119800105000537        
20160615000000000074500024600074500161697908042278298300105000337        
9999999900000012000000000000996500                                       
