00000000MARITIMO S.R.L.     20160415COBRANZAS RAPIPAGO                   
20160415000000000115000024600115000161060046463703565800080000737        
20160415000000000115000024600115000161060046463727981700080000715        
20160415000000000115000024600115000161060046463842500200080000721        
20160415000000000115000024600115000161060046463640389700080000736        
20160415000000000115000024600115000161060046463299672600080000642        
9999999900000005000000000000575000                                       
