00000000MARITIMO S.R.L.     20170215COBRANZAS RAPIPAGO                   
20170215000000000149500024600149500170460056563815237100085000779        
20170215000000000120000024600120000170461850092779136300000000063        
20170215000000000150000024600150000170465707053191651100000000079        
20170215000000000149500024600149500170460056563299672600085000221        
20170215000000000149500024600149500170460056562943828500085000763        
20170215000000000149500024600149500170460056563523592800085000642        
9999999900000006000000000000868000                                       
