00000000MARITIMO S.R.L.     20160715COBRANZAS RAPIPAGO                   
20160714000000000122000024600122000161970067673986844500030000315        
20160715000000000122000024600122000161970064643827732000030000521        
20160715000000000044100024600044100161998211132634638400042000016        
20160715000000000122000024600122000161970064643650123700030000542        
20160715000000000128000024600128000162030063633727981700000000016        
20160715000000000130000024600130000162030048483727981700000000042        
20160715000000000128000024600128000162040063633752179700000000079        
9999999900000007000000000000796100                                       
