00000000MARITIMO S.R.L.     20160915COBRANZAS RAPIPAGO                   
20160915000000000027300024600027300162668212022880124800027000015        
20160915000000000055000024600055000162602917072731505000100000037        
20160915000000000128000024600128000162640067673841205700000000036        
20160915000000000057700024600057700162598212232774171200053000037        
9999999900000004000000000000268000                                       
