00000000DERAMO FABIAN N.    20150415COBRANZAS RAPIPAGO                   
20150415000000000065000024600065000151050254062242001900150000521        
9999999900000001000000000000065000                                       
