00000000MARITIMO S.R.L.     20161115COBRANZAS RAPIPAGO                   
20161115000000000025000024600025000163221003151766213800000000042        
20161115000000000025000024600025000163221003122549550700000000079        
20161115000000000025000024600025000163221003131806819200000000000        
20161115000000000055000024600055000163202917090473840000100000736        
20161115000000000055000024600055000163202917023075190100100000737        
20161115000000000035000024600035000163202917122899200400100000742        
20161115000000000149500024600149500163200053533815237100085000342        
20161115000000000265000024600265000163260072724087075100000000016        
20161115000000000055000024600055000163202917022732873100100000642        
20161115000000000055000024600055000163202917072728369700100000621        
20161115000000000050000024600050000163209102042949040900100000637        
20161115000000000145000024600145000163270052522943828500000000042        
20161115000000000149500024600149500163200053533856126100085000779        
9999999900000013000000000001089000                                       
