00000000MARITIMO S.R.L.     20150915COBRANZAS RAPIPAGO                   
20150915000000000030000024600030000152638801012896826000000000021        
20150915000000000033600024600033600152648208073378879200021000042        
20150915000000000055000024600055000152641846071433956300100000058        
20150915000000000030000024600030000152658801013721299900000000057        
20150915000000000090000024600090000152620145143136431500000000099        
20150915000000000112000024600112000152590093062022625700040000042        
20150915000000000079500024600079500152657906101349894200150000079        
20150915000000000033600024600033600152658208082542957300021000016        
20150915000000000050000024600050000152600145362006285300000000084        
20150915000000000050000024600050000152590145292821554900000000084        
9999999900000010000000000000563700                                       
