00000000MARITIMO S.R.L.     20161216COBRANZAS RAPIPAGO                   
20161216000000000072500024600072500163578503121361274500000000057        
20161216000000000080000024600080000163581850052548519400200000021        
20161216000000000031500024600031500163558213062052965400063000079        
20161216000000000093000024600093000163578503572483608700000000078        
20161216000000000093000024600093000163548503422605043300000000015        
20161216000000000093000024600093000163578503562769156200000000090        
20161216000000000031500024600031500163588213152052026100063000042        
20161216000000000025200024600025200163588213012005582300042000084        
20161216000000000031500024600031500163588213033621845800063000042        
9999999900000009000000000000551200                                       
