00000000MARITIMO S.R.L.     20151116COBRANZAS RAPIPAGO                   
20151116000000000099500024600099500153279919033926938300000000021        
20151116000000000020000024600020000153252914172852538900000000078        
20151116000000000020000024600020000153227104032755910300000000078        
20151116000000000140000024600140000153200147152397845100000000063        
9999999900000004000000000000279500                                       
