00000000MARITIMO S.R.L.     20160716COBRANZAS RAPIPAGO                   
20160716000000000040000024600040000162045904051825712700050000158        
9999999900000001000000000000040000                                       
