00000000MARITIMO S.R.L.     20160816COBRANZAS RAPIPAGO                   
20160816000000000063000024600063000162308211233379913900000000036        
20160816000000000060000024600060000162369601023570422800000000084        
20160816000000000063000024600063000162308211222557570100000000063        
20160816000000000078000024600078000162361707062548061600110000099        
20160816000000000030000024600030000162308211022600872500000000021        
20160816000000000048300024600048300162308211071776911600000000036        
20160816000000000048300024600048300162308211032959367900000000084        
20160816000000000125000024600125000162330065654139450400030000337        
20160816000000000048300024600048300162308211132845398200000000015        
20160816000000000030000024600030000162308211023543434200000000084        
9999999900000010000000000000593900                                       
