00000000MARITIMO S.R.L.     20151016COBRANZAS RAPIPAGO                   
20151016000000000079000024600079000152940091442418321600000000000        
20151016000000000047200024600047200152928208033485168000000000063        
20151016000000000035700024600035700152948208073155472200000000036        
20151016000000000079000024600079000152940091252485684000000000090        
20151016000000000116000024600116000152930093071494572400000000084        
20151016000000000022000024600022000152928208054478490600000000057        
20151016000000000022000024600022000152928208044346355700000000078        
9999999900000007000000000000400900                                       
