00000000MARITIMO S.R.L.     20150916COBRANZAS RAPIPAGO                   
20150916000000000090000024600090000152620145042836293900000000084        
20150916000000000090000024600090000152600145032898448300000000084        
20150916000000000079500024600079500152617906081868107300150000036        
20150916000000000030000024600030000152668801013745471800000000063        
20150916000000000090000024600090000152620145071676716000000000036        
20150916000000000072000024600072000152640091353980433600070000042        
20150916000000000112000024600112000152620093023436544700040000036        
20150916000000000079500024600079500152657906062523616800150000000        
20150916000000000090000024600090000152620145241142835600000000079        
9999999900000009000000000000733000                                       
