00000000MARITIMO S.R.L.     20160116COBRANZAS RAPIPAGO                   
20160116000000000031500024600031500160218209092223406900000000037        
20160116000000000035000024600035000160182915141411852900000000042        
20160116000000000031500024600031500160188209101848172400000000021        
20160116000000000031500024600031500160168209181826133400000000084        
20160116000000000024200024600024200160168209054330312400000000063        
9999999900000005000000000000153700                                       
