00000000MARITIMO S.R.L.     20151217COBRANZAS RAPIPAGO                   
20151217000000000028400024600028400153558209162708316500031000021        
20151217000000000028400024600028400153568209092469940800031000042        
20151217000000000028400024600028400153588209064130681100031000037        
20151217000000000028400024600028400153588209073814568000031000063        
20151217000000000020000024600020000153562914137904827000000000037        
9999999900000005000000000000133600                                       
