00000000DERAMO FABIAN N.    20150617COBRANZAS RAPIPAGO                   
20150617000000000060000024600060000151740255061766050300000000015        
9999999900000001000000000000060000                                       
