00000000MARITIMO S.R.L.     20151117COBRANZAS RAPIPAGO                   
20151117000000000140000024600140000153210147132973300700000000021        
20151117000000000230000024600230000153288901061828700000000000036        
20151117000000000140000024600140000153270147181239750600000000090        
20151117000000000020000024600020000153282914131782609200000000015        
20151117000000000140000024600140000153280147162051888600000000058        
20151117000000000080000024600080000153288901242579597900000000000        
20151117000000000230000024600230000153278901061785740600000000084        
20151117000000000065000024600065000153229101062370886400000000021        
9999999900000008000000000001045000                                       
