00000000MARITIMO S.R.L.     20161217COBRANZAS RAPIPAGO                   
20161217000000000031500024600031500163538213081263874300063000000        
9999999900000001000000000000031500                                       
