00000000MARITIMO S.R.L.     20160817COBRANZAS RAPIPAGO                   
20160817000000000060000024600060000162369601021337721200000000084        
20160817000000000060000024600060000162379601022562957600000000063        
20160817000000000030000024600030000162308211013014756500000000016        
20160817000000000048300024600048300162308211033516827200000000021        
20160817000000000063000024600063000162308211223543321000000000084        
9999999900000005000000000000261300                                       
