00000000MARITIMO S.R.L.     20160917COBRANZAS RAPIPAGO                   
20160917000000000070000024600070000162611849023468201900000000021        
9999999900000001000000000000070000                                       
