00000000MARITIMO S.R.L.     20160517COBRANZAS RAPIPAGO                   
20160517000000000045000024600045000161430258332633966500150000042        
9999999900000001000000000000045000                                       
