00000000MARITIMO S.R.L.     20160317COBRANZAS RAPIPAGO                   
20160317000000000033000024600033000160789604042397825400030000463        
20160317000000000033000024600033000160789604014156603300030000463        
20160317000000000033000024600033000160789604073570284300030000479        
20160317000000000030000024600030000160838801013570284300000000084        
20160317000000000030000024600030000160778801014089163200000000016        
20160317000000000040200024600040200160782800053326583300000000084        
20160317000000000060000024600060000160782800033234781000000000058        
9999999900000007000000000000259200                                       
