00000000MARITIMO S.R.L.     20160118COBRANZAS RAPIPAGO                   
20160118000000000031500024600031500160188209082511231600000000079        
20160118000000000031500024600031500160218209191647374300000000021        
20160118000000000031500024600031500160188209082605714000000000084        
20160118000000000024200024600024200160218209043127185600000000021        
20160118000000000031500024600031500160218209092470429400000000037        
20160118000000000024200024600024200160218209053562976900000000084        
20160118000000000031500024600031500160218209073279075500000000000        
9999999900000007000000000000205900                                       
