00000000MARITIMO S.R.L.     20160218COBRANZAS RAPIPAGO                   
20160218000000000060000024600060000160491848291811036200000000015        
20160218000000000099000024600099000160491848061854072600000000078        
20160218000000000099000024600099000160491848061791864700000000000        
20160218000000000099000024600099000160491848033092855600000000057        
20160218000000000099000024600099000160491848142525131000000000000        
9999999900000005000000000000456000                                       
