00000000MARITIMO S.R.L.     20160518COBRANZAS RAPIPAGO                   
20160518000000000109500024600109500161460028283021213900000000021        
20160518000000000130000024600130000161420046463824286100000000021        
9999999900000002000000000000239500                                       
