00000000MARITIMO S.R.L.     20151218COBRANZAS RAPIPAGO                   
20151218000000000028400024600028400153558209172347917200031000058        
20151218000000000028400024600028400153528209092252257000031000084        
20151218000000000055000024600055000153591848042768827600340000079        
20151218000000000020000024600020000153582914223721707100000000042        
20151218000000000028400024600028400153548209102186606100031000099        
20151218000000000021000024600021000153598209043374688100032000015        
20151218000000000028400024600028400153568209072986695500031000099        
20151218000000000001000024600001000153520031319999993000002000384        
20151218000000000020000024600020000153592915123118551700000000021        
20151218000000000028400024600028400153528209073451839000031000084        
20151218000000000028400024600028400153528209073000649500031000000        
20151218000000000020000024600020000153592914123153245600000000090        
20151218000000000028400024600028400153598209073153245600031000042        
9999999900000013000000000000335800                                       
