00000000MARITIMO S.R.L.     20170118COBRANZAS RAPIPAGO                   
20170118000000000029400024600029400170188213012806665700000000090        
20170118000000000037800024600037800170188213081288045900000000099        
20170118000000000037800024600037800170188213161649786700000000099        
20170118000000000037800024600037800170188213033238337700000000000        
20170118000000000037800024600037800170188213033895420500000000021        
20170118000000000037800024600037800170188213033967169900000000084        
20170118000000000044000024600044000170202918113340121800000000015        
20170118000000000037800024600037800170188213040289857400000000015        
20170118000000000037800024600037800170188213123166369400000000036        
20170118000000000150000024600150000170235707043331111700000000042        
20170118000000000037800024600037800170188213171242814000000000079        
20170118000000000158000024600158000170310055554139450400000000021        
20170118000000000029400024600029400170188213013485147000000000037        
20170118000000000020000024600020000170200095273259305500000000079        
20170118000000000037800024600037800170188213052547651400000000078        
20170118000000000037800024600037800170188213042886784600000000084        
20170118000000000037800024600037800170188213033391262300000000084        
9999999900000017000000000000846600                                       
