00000000DERAMO FABIAN N.    20150519COBRANZAS RAPIPAGO                   
20150519000000000016000024600016000151460144083405044500000000021        
9999999900000001000000000000016000                                       
