00000000MARITIMO S.R.L.     20160519COBRANZAS RAPIPAGO                   
20160519000000000045000024600045000161420258521484074600150000000        
20160519000000000060000024600060000161470258069499716800150000079        
20160519000000000109500024600109500161440027271676493200000000016        
20160519000000000109500024600109500161520029293835392800000000079        
9999999900000004000000000000324000                                       
