00000000MARITIMO S.R.L.     20160819COBRANZAS RAPIPAGO                   
20160819000000000130000024600130000162440050503701312600000000000        
20160819000000000101000024600101000162367909072508406700155000090        
9999999900000002000000000000231000                                       
