00000000MARITIMO S.R.L.     20161219COBRANZAS RAPIPAGO                   
20161219000000000031500024600031500163618213042557574600063000078        
20161219000000000060000024600060000163601006211765911200100000016        
20161219000000000025200024600025200163568213022605755500042000016        
9999999900000003000000000000116700                                       
