00000000MARITIMO S.R.L.     20160219COBRANZAS RAPIPAGO                   
20160219000000000001000024600001000160555555011212121200005000278        
9999999900000001000000000000001000                                       
