00000000MARITIMO S.R.L.     20150919COBRANZAS RAPIPAGO                   
20150919000000000050000024600050000152620145284086462400000000058        
20150919000000000030000024600030000152698801013516145000000000000        
20150919000000000030000024600030000152698801013852077100000000058        
20150919000000000030000024600030000152698801013295264100000000000        
9999999900000004000000000000140000                                       
