00000000DERAMO FABIAN N.    20150319COBRANZAS RAPIPAGO                   
20150319000000000029000024600029000150829600013429619100000000078        
20150319000000000029000024600029000150829600013540017900000000084        
9999999900000002000000000000058000                                       
