00000000MARITIMO S.R.L.     20150819COBRANZAS RAPIPAGO                   
20150819000000000090000024600090000152380145091122003300000000084        
20150819000000000060000024600060000152377602052696587500000000000        
20150819000000000090000024600090000152370145042696587500000000021        
20150819000000000001000024600001000152320042423679159100000000016        
9999999900000004000000000000241000                                       
