00000000MARITIMO S.R.L.     20161019COBRANZAS RAPIPAGO                   
20161019000000000063000024600063000162938212231836799100000000021        
20161019000000000116500024600116500163007909152540800000000000063        
20161019000000000116500024600116500163007909082154155300000000099        
20161019000000000116500024600116500162977909062617280700000000084        
20161019000000000094500024600094500162980070703842500200000000021        
20161019000000000116500024600116500162987909072248355000000000042        
20161019000000000048300024600048300162938212123591049300000000063        
20161019000000000048300024600048300162938212042742115400000000063        
20161019000000000030000024600030000162938212021657252100000000036        
20161019000000000094500024600094500162980070704139450400000000042        
9999999900000010000000000000844600                                       
