00000000MARITIMO S.R.L.     20160720COBRANZAS RAPIPAGO                   
20160720000000000044100024600044100162088211052306594300042000037        
20160720000000000130000024600130000162130049493737688500000000015        
20160720000000000130000024600130000162130049493299672600000000016        
9999999900000003000000000000304100                                       
