00000000MARITIMO S.R.L.     20161020COBRANZAS RAPIPAGO                   
20161020000000000025000024600025000163001004012434496600000000042        
20161020000000000116500024600116500162947909081834870400000000090        
20161020000000000035000024600035000163018304433117677700100000090        
9999999900000003000000000000176500                                       
