00000000MARITIMO S.R.L.     20150720COBRANZAS RAPIPAGO                   
20150720000000000090000024600090000152080145023350521300000000090        
9999999900000001000000000000090000                                       
