00000000MARITIMO S.R.L.     20160520COBRANZAS RAPIPAGO                   
20160520000000000034500024600034500161488803013107156000045000099        
9999999900000001000000000000034500                                       
