00000000MARITIMO S.R.L.     20160120COBRANZAS RAPIPAGO                   
20160120000000000010000024600010000160270900030407283900000000057        
20160120000000000031500024600031500160218209082792689500000000099        
20160120000000000031500024600031500160218209131176572100000000063        
20160120000000000031500024600031500160218209131053263800000000057        
20160120000000000010000024600010000160250900031171473100000000042        
20160120000000000031500024600031500160218209201251605900000000058        
20160120000000000031500024600031500160218209102033012700000000042        
20160120000000000031500024600031500160218209064098122100000000090        
20160120000000000031500024600031500160208209111621988500000000063        
20160120000000000031500024600031500160218209092272353200000000058        
20160120000000000031500024600031500160218209111484807700000000021        
20160120000000000031500024600031500160218209073446976900000000000        
20160120000000000031500024600031500160218209073129912700000000037        
20160120000000000031500024600031500160218209111639628800000000021        
20160120000000000031500024600031500160218209121217705900000000016        
20160120000000000031500024600031500160218209162729018400000000063        
20160120000000000024200024600024200160218209053138007100000000090        
20160120000000000031500024600031500160218209082690048000000000063        
20160120000000000031500024600031500160218209092228915100000000063        
20160120000000000031500024600031500160218209072933553000000000000        
20160120000000000031500024600031500160218209082547651400000000078        
20160120000000000010000024600010000160260900032231540800000000037        
20160120000000000031500024600031500160218209111728871100000000042        
20160120000000000031500024600031500160218209111492884300000000000        
20160120000000000031500024600031500160218209182047972200000000021        
9999999900000025000000000000715700                                       
