00000000DERAMO FABIAN N.    20150420COBRANZAS RAPIPAGO                   
20150420000000000080000024600080000151140254123468210600000000099        
9999999900000001000000000000080000                                       
