00000000MARITIMO S.R.L.     20160920COBRANZAS RAPIPAGO                   
20160920000000000128000024600128000162710063632191847800000000021        
20160920000000000260000024600260000162698903142631808300300000163        
20160920000000000101000024600101000162707909143095530000155000084        
20160920000000000101000024600101000162707909120847067000155000021        
20160920000000000089000024600089000162681707082194077200000000000        
9999999900000005000000000000679000                                       
