00000000MARITIMO S.R.L.     20160420COBRANZAS RAPIPAGO                   
20160420000000000057700024600057700161168210281755864400053000021        
9999999900000001000000000000057700                                       
