00000000MARITIMO S.R.L.     20160421COBRANZAS RAPIPAGO                   
20160421000000000030000024600030000161199925013277996100000000037        
20160421000000000044100024600044100161168210073516827200042000015        
20160421000000000123000024600123000161130046463650123700070000563        
20160421000000000030000024600030000161199925022731295800000000058        
9999999900000004000000000000227100                                       
