00000000MARITIMO S.R.L.     20150721COBRANZAS RAPIPAGO                   
20150721000000000090000024600090000152090145081260261500000000016        
20150721000000000090000024600090000152080145059227646500000000016        
20150721000000000050000024600050000152080145362247179400000000015        
9999999900000003000000000000230000                                       
