00000000MARITIMO S.R.L.     20161121COBRANZAS RAPIPAGO                   
20161121000000000060000024600060000163269102042949043900000000063        
20161121000000000048000024600048000163281001172254913200100000200        
20161121000000000030000024600030000163269102102618822100000000042        
20161121000000000030000024600030000163269102101824153100000000016        
20161121000000000070000024600070000163281002072021450600100000236        
9999999900000005000000000000238000                                       
