00000000MARITIMO S.R.L.     20151221COBRANZAS RAPIPAGO                   
20151221000000000028400024600028400153558209250497283900031000058        
20151221000000000020000024600020000153562914141616760200000000078        
20151221000000000020000024600020000153562914163278913900000000016        
20151221000000000020000024600020000153562914132148346900000000084        
20151221000000000028400024600028400153618209082558036700031000037        
20151221000000000021000024600021000153608209044045018600032000021        
20151221000000000028400024600028400153628209159387100000031000036        
20151221000000000028400024600028400153558209082860810000031000058        
20151221000000000028400024600028400153558209172308735600031000015        
20151221000000000020000024600020000153622914132003819700000000042        
20151221000000000020000024600020000153622914181802513500000000021        
9999999900000011000000000000263000                                       
