00000000MARITIMO S.R.L.     20160121COBRANZAS RAPIPAGO                   
20160121000000000031500024600031500160218209162641942300000000084        
20160121000000000031500024600031500160218209102180246500000000000        
20160121000000000024200024600024200160218209052576618900000000021        
20160121000000000120000024600120000160255706053087551200000000079        
20160121000000000089000024600089000160251848061843083500100000090        
20160121000000000120000024600120000160255706062531259100000000058        
20160121000000000031500024600031500160218209162762517900000000036        
20160121000000000024200024600024200160218209053996421700000000084        
20160121000000000024200024600024200160218209044433618900000000084        
20160121000000000024200024600024200160218209052845369100000000021        
20160121000000000024200024600024200160218209042367153300000000090        
20160121000000000031500024600031500160218209182192426300000000000        
20160121000000000031500024600031500160218209111484805800000000021        
20160121000000000024200024600024200160218209042615523500000000063        
20160121000000000031500024600031500160218209092322391600000000079        
20160121000000000003000024600003000160260900011857964000000000099        
20160121000000000024200024600024200160218209043429599800000000000        
9999999900000017000000000000690400                                       
