00000000MARITIMO S.R.L.     20150921COBRANZAS RAPIPAGO                   
20150921000000000055000024600055000152661846033071122400100000090        
20150921000000000055000024600055000152661846133102185300100000063        
20150921000000000079500024600079500152717906120764607000150000057        
20150921000000000079500024600079500152717906062562806600150000078        
20150921000000000086000024600086000152710093262494639100060000021        
20150921000000000086000024600086000152700093224377898600060000090        
20150921000000000079500024600079500152667906072253275900150000021        
20150921000000000079500024600079500152687906101232084200150000057        
20150921000000000055000024600055000152701846113629193000100000057        
20150921000000000079500024600079500152667906072367193400150000084        
9999999900000010000000000000734500                                       
