00000000MARITIMO S.R.L.     20150821COBRANZAS RAPIPAGO                   
20150821000000000090000024600090000152380145042724523900000000036        
20150821000000000230000024600230000152388901071737157500000000058        
20150821000000000057000024600057000152370091262421104800150000000        
20150821000000000090000024600090000152360145033145402000000000078        
20150821000000000090000024600090000152337602502557720600000000016        
20150821000000000090000024600090000152370145071676553100000000042        
9999999900000006000000000000647000                                       
