00000000MARITIMO S.R.L.     20170222COBRANZAS RAPIPAGO                   
20170222000000000034000024600034000170608214291647531400030000063        
9999999900000001000000000000034000                                       
