00000000MARITIMO S.R.L.     20161222COBRANZAS RAPIPAGO                   
20161222000000000048000024600048000163631005172290766600100000099        
20161222000000000080000024600080000163611850042746083000200000000        
20161222000000000070000024600070000163571006072019998200100000063        
20161222000000000046500024600046500163598503014552411300000000084        
20161222000000000093000024600093000163598503572255089700000000042        
20161222000000000093000024600093000163598503652206140100000000021        
9999999900000006000000000000430500                                       
