00000000MARITIMO S.R.L.     20150722COBRANZAS RAPIPAGO                   
20150722000000000060000024600060000152097602402033243000000000016        
20150722000000000060000024600060000152097602272539791400000000000        
20150722000000000060000024600060000152107602062284092800000000063        
20150722000000000035700024600035700152098207131079895300000000021        
20150722000000000090000024600090000152080145062153683600000000058        
20150722000000000210000024600210000152098901052489973500200000042        
20150722000000000046000024600046000152030091291311755000000000021        
9999999900000007000000000000561700                                       
