00000000DERAMO FABIAN N.    20150522COBRANZAS RAPIPAGO                   
20150522000000000052500024600052500151477905023003904800110000084        
9999999900000001000000000000052500                                       
