00000000MARITIMO S.R.L.     20150922COBRANZAS RAPIPAGO                   
20150922000000000090000024600090000152670145071610500500000000037        
20150922000000000072000024600072000152660091233163759600070000037        
20150922000000000033600024600033600152678208082647352200021000063        
9999999900000003000000000000195600                                       
