00000000MARITIMO S.R.L.     20151022COBRANZAS RAPIPAGO                   
20151022000000000092000024600092000153000093262567596800000000000        
20151022000000000094500024600094500152957906101343411300000000016        
20151022000000000094500024600094500152967906053060018000000000057        
20151022000000000094500024600094500152967906043491045700000000042        
20151022000000000022000024600022000152958208052215169000000000000        
20151022000000000230000024600230000153018901042624363700000000099        
9999999900000006000000000000627500                                       
