00000000MARITIMO S.R.L.     20151023COBRANZAS RAPIPAGO                   
20151023000000000094500024600094500152967906062535136300000000016        
20151023000000000020000024600020000152995204030368535800020000042        
20151023000000000020000024600020000152995204143663687600020000037        
20151023000000000094500024600094500152967906072349051700000000042        
20151023000000000035700024600035700153028208111431920600000000078        
20151023000000000047200024600047200153028208013868466200000000078        
20151023000000000035700024600035700153018208162615388800000000079        
20151023000000000094500024600094500152967906072243582000000000000        
20151023000000000020000024600020000153022914141707929900000000078        
20151023000000000094500024600094500152967906052637972200000000063        
20151023000000000094500024600094500152967906079393028600000000063        
20151023000000000140000024600140000153010147142750001100000000042        
20151023000000000079000024600079000153010091214064364200000000063        
20151023000000000094500024600094500152967906014223247800000000084        
20151023000000000020000024600020000153022915113315740200000000000        
20151023000000000094500024600094500152967906072421030300000000058        
9999999900000016000000000001079100                                       
