00000000MARITIMO S.R.L.     20170123COBRANZAS RAPIPAGO                   
20170123000000000150000024600150000170275707082143965600000000000        
20170123000000000100000024600100000170241850033060348700200000037        
20170123000000000150000024600150000170275707072399507600000000015        
9999999900000003000000000000400000                                       
