00000000MARITIMO S.R.L.     20151123COBRANZAS RAPIPAGO                   
20151123000000000230000024600230000153288901062002380900000000078        
20151123000000000140000024600140000153300147142763555800000000021        
20151123000000000140000024600140000153340147171478969700000000078        
20151123000000000065000024600065000153289101043054965600000000090        
20151123000000000140000024600140000153320147181461471200000000042        
20151123000000000140000024600140000153340147123497564000000000036        
20151123000000000230000024600230000153298901071634835900000000090        
20151123000000000230000024600230000153298901052242554300000000084        
20151123000000000080000024600080000153298901281867039900000000063        
20151123000000000020000024600020000153302914141662663200000000016        
20151123000000000020000024600020000153302914123042198600000000078        
20151123000000000230000024600230000153298901162146386700000000079        
20151123000000000065000024600065000153319101024212337700000000099        
9999999900000013000000000001730000                                       
