00000000MARITIMO S.R.L.     20151223COBRANZAS RAPIPAGO                   
20151223000000000028400024600028400153638209162605685000031000036        
20151223000000000020000024600020000153642914122533047900000000058        
20151223000000000039000024600039000153638303143260577200060000016        
20151223000000000055000024600055000153631848042768867200340000021        
20151223000000000020000024600020000153642914173178195100000000057        
20151223000000000028400024600028400153628209073520692300031000063        
20151223000000000028400024600028400153628209073638273600031000084        
20151223000000000020000024600020000153572914172782148900000000078        
20151223000000000028400024600028400153588209182595808600031000063        
20151223000000000028400024600028400153578209082845453900031000057        
20151223000000000020000024600020000153592914132075576600000000079        
9999999900000011000000000000316000                                       
