00000000MARITIMO S.R.L.     20160623COBRANZAS RAPIPAGO                   
20160623000000000085000024600085000161767908041093180500000000079        
9999999900000001000000000000085000                                       
