00000000MARITIMO S.R.L.     20170223COBRANZAS RAPIPAGO                   
20170223000000000034000024600034000170608214392085105700030000016        
20170223000000000158000024600158000170590056563320685300000000099        
20170223000000000034000024600034000170608214262780331300030000063        
9999999900000003000000000000226000                                       
