00000000MARITIMO S.R.L.     20160123COBRANZAS RAPIPAGO                   
20160123000000000020000024600020000160290900051178997000000000084        
9999999900000001000000000000020000                                       
