00000000MARITIMO S.R.L.     20150824COBRANZAS RAPIPAGO                   
20150824000000000060000024600060000152397602262918225500000000000        
20150824000000000090000024600090000152430145033065018700000000021        
20150824000000000060000024600060000152397602062427026000000000063        
9999999900000003000000000000210000                                       
