00000000MARITIMO S.R.L.     20160824COBRANZAS RAPIPAGO                   
20160824000000000101000024600101000162377909111054907000135000084        
20160824000000000130000024600130000162440048481904431500000000099        
20160824000000000078000024600078000162401707101361230000110000021        
20160824000000000101000024600101000162447909091668173200155000036        
9999999900000004000000000000410000                                       
