00000000MARITIMO S.R.L.     20160624COBRANZAS RAPIPAGO                   
20160624000000000060000024600060000161819203033570405100000000000        
20160624000000000027300024600027300161828211022085105700027000090        
20160624000000000085000024600085000161767908022708765200000000084        
9999999900000003000000000000172300                                       
