00000000MARITIMO S.R.L.     20150924COBRANZAS RAPIPAGO                   
20150924000000000112000024600112000152710093071780181300040000036        
20150924000000000060000024600060000152681706142325208300000000099        
20150924000000000079500024600079500152697906062707327800150000000        
20150924000000000230000024600230000152738901013869079100000000016        
20150924000000000060000024600060000152681706091684084600000000078        
20150924000000000060000024600060000152681706072399359300000000036        
20150924000000000060000024600060000152681706043545703600000000000        
20150924000000000055000024600055000152721846062072959700100000015        
9999999900000008000000000000716500                                       
