00000000MARITIMO S.R.L.     20170125COBRANZAS RAPIPAGO                   
20170125000000000140000024600140000170310056563721781800095000078        
20170125000000000100000024600100000170251850023436854000200000021        
9999999900000002000000000000240000                                       
