00000000MARITIMO S.R.L.     20160725COBRANZAS RAPIPAGO                   
20160725000000000130000024600130000162140048482943828500000000058        
20160725000000000128000024600128000162140063632943828500000000036        
20160725000000000044100024600044100162128211052473424300042000021        
9999999900000003000000000000302100                                       
