00000000MARITIMO S.R.L.     20160825COBRANZAS RAPIPAGO                   
20160825000000000130000024600130000162438903242634654900200000079        
9999999900000001000000000000130000                                       
