00000000MARITIMO S.R.L.     20161026COBRANZAS RAPIPAGO                   
20161026000000000025000024600025000163031004013148548000000000084        
20161026000000000094500024600094500163070070704073299900000000042        
20161026000000000145000024600145000163050052524073299900000000015        
20161026000000000114500024600114500163027909111202841100000000000        
20161026000000000094500024600094500163060070701904431500000000090        
20161026000000000094500024600094500163070070703320685300000000079        
20161026000000000094500024600094500163070070703727814100000000021        
20161026000000000116500024600116500163027909014338496400000000063        
20161026000000000070000024600070000163041002033970761300100000099        
9999999900000009000000000000849000                                       
