00000000MARITIMO S.R.L.     20160926COBRANZAS RAPIPAGO                   
20160926000000000089000024600089000162711707012637972200000000000        
20160926000000000128000024600128000162770067674118505600000000036        
20160926000000000089000024600089000162731707072320865600000000084        
20160926000000000101000024600101000162737909062582629900155000000        
20160926000000000089000024600089000162731707053074175100000000084        
20160926000000000030000024600030000162769931012001256200000000015        
9999999900000006000000000000526000                                       
