00000000MARITIMO S.R.L.     20150926COBRANZAS RAPIPAGO                   
20150926000000000079500024600079500152707906082060895300150000016        
9999999900000001000000000000079500                                       
