00000000MARITIMO S.R.L.     20160526COBRANZAS RAPIPAGO                   
20160526000000000020000024600020000161527603143088379600100000084        
20160526000000000020000024600020000161527603072220323000100000042        
20160526000000000034500024600034500161548803013075366300045000042        
20160526000000000034500024600034500161548803012018460000045000063        
20160526000000000045000024600045000161520258581413384000150007178        
20160526000000000034500024600034500161488803013229554500045000057        
9999999900000006000000000000188500                                       
