00000000MARITIMO S.R.L.     20161226COBRANZAS RAPIPAGO                   
20161226000000000031500024600031500163648213071774148200063000079        
20161226000000000080000024600080000170011850042577173400200008884        
20161226000000000031500024600031500163618213052421926900063000079        
20161226000000000150000024600150000170035707043618906800000000084        
20161226000000000075000024600075000163642917013413738800000000016        
20161226000000000075000024600075000163652917063446971600000000000        
20161226000000000093000024600093000163618503633892545300000000058        
20161226000000000025200024600025200170018213023843709900042008800        
20161226000000000052500024600052500163658304373348097400075000084        
9999999900000009000000000000613700                                       
