00000000MARITIMO S.R.L.     20160226COBRANZAS RAPIPAGO                   
20160226000000000030000024600030000160649604051418999700030000090        
9999999900000001000000000000030000                                       
