00000000DERAMO FABIAN N.    20150326COBRANZAS RAPIPAGO                   
20150326000000000020000024600020000150908800013565044900000000000        
9999999900000001000000000000020000                                       
