00000000DERAMO FABIAN N.    20150526COBRANZAS RAPIPAGO                   
20150526000000000052500024600052500151477905041215185200110000063        
20150526000000000052500024600052500151477905063639509200110000036        
9999999900000002000000000000105000                                       
