00000000MARITIMO S.R.L.     20160726COBRANZAS RAPIPAGO                   
20160726000000000044100024600044100162088211071658566400042000036        
20160726000000000128000024600128000162120064643856126100000000016        
9999999900000002000000000000172100                                       
