00000000DERAMO FABIAN N.    20150527COBRANZAS RAPIPAGO                   
20150527000000000052500024600052500151497905050463614400110000057        
9999999900000001000000000000052500                                       
