00000000MARITIMO S.R.L.     20150727COBRANZAS RAPIPAGO                   
20150727000000000035700024600035700152118207073456135000000000042        
20150727000000000090000024600090000152110145062100499300000000016        
20150727000000000022000024600022000152118207043000649500000000099        
20150727000000000050000024600050000152150145371484074600000000016        
20150727000000000090000024600090000152080145042760240800000000000        
20150727000000000035700024600035700152118207101270939800000000042        
20150727000000000022000024600022000152108207053636370500000000036        
20150727000000000035700024600035700152118207073464820900000000058        
9999999900000008000000000000381100                                       
