00000000MARITIMO S.R.L.     20151027COBRANZAS RAPIPAGO                   
20151027000000000033000024600033000153009601013479848700000000000        
20151027000000000047200024600047200153028208033495548700000000015        
20151027000000000020000024600020000153035204192166725300020000079        
20151027000000000079000024600079000153010091461278982200000000084        
20151027000000000020000024600020000153035204072188509800020000016        
20151027000000000092000024600092000153010093262229701200000000042        
20151027000000000140000024600140000153070147032940725800000000016        
20151027000000000140000024600140000153070147152378712200000000016        
20151027000000000140000024600140000153030147142777908600000000084        
20151027000000000140000024600140000153060147171642708300000000090        
20151027000000000020000024600020000153005204191875542000020000015        
20151027000000000020000024600020000153005204072051051200020000090        
20151027000000000140000024600140000153030147162143341600000000084        
20151027000000000079000024600079000153010091252669076100000000036        
20151027000000000020000024600020000153072914181813599700000000084        
20151027000000000140000024600140000153010147152518674900000000084        
20151027000000000092000024600092000153010093279529964200000000036        
20151027000000000075400024600075400153010093013722943000000000021        
20151027000000000030000024600030000153040256271361509000100007279        
9999999900000019000000000001467600                                       
