00000000MARITIMO S.R.L.     20160927COBRANZAS RAPIPAGO                   
20160927000000000101000024600101000162747909101380710300155000042        
20160927000000000089000024600089000162731707123587479800000000079        
20160927000000000089000024600089000162731707033325917000000000036        
20160927000000000101000024600101000162757909062708765200155000099        
20160927000000000094500024600094500162740069699296908000000000079        
20160927000000000089000024600089000162731707053057761100000000036        
20160927000000000089000024600089000162731707091761293600000000058        
20160927000000000022000024600022000162771003053311520700030000016        
20160927000000000044100024600044100162728212042571699600042000084        
20160927000000000027300024600027300162778212023348080500027000042        
20160927000000000044100024600044100162788212052542957300042000084        
20160927000000000094500024600094500162740069693511102700000000063        
20160927000000000129000024600129000162780052523511102700090000058        
9999999900000013000000000001013500                                       
