00000000MARITIMO S.R.L.     20161127COBRANZAS RAPIPAGO                   
20161127000000000025000024600025000163336001172610460300000000057        
9999999900000001000000000000025000                                       
