00000000MARITIMO S.R.L.     20160427COBRANZAS RAPIPAGO                   
20160427000000000130000024600130000161210046463220061100000000000        
9999999900000001000000000000130000                                       
