00000000MARITIMO S.R.L.     20160627COBRANZAS RAPIPAGO                   
20160627000000000130000024600130000161860046462191847800000000042        
20160627000000000130000024600130000161860047472943828500000000090        
9999999900000002000000000000260000                                       
