00000000MARITIMO S.R.L.     20161227COBRANZAS RAPIPAGO                   
20161227000000000093000024600093000170048503413092855600000000000        
20161227000000000052500024600052500170018304461149061600075008899        
20161227000000000140000024600140000163630055553523592800095000000        
20161227000000000031500024600031500170018213033830541200063008842        
20161227000000000031500024600031500170018213132880124800063008863        
20161227000000000075000024600075000170032917091677741300000000021        
20161227000000000093000024600093000170038503403331111700000000090        
20161227000000000093000024600093000170038503412956381200000000078        
20161227000000000093000024600093000163628503591653285400000000042        
20161227000000000031500024600031500170018213091199026500063008800        
20161227000000000031500024600031500163638213132801604200063000084        
20161227000000000031500024600031500163658213052453947800063000036        
20161227000000000075000024600075000163642917022931929400000000057        
20161227000000000093000024600093000163658503621008410500000000000        
20161227000000000093000024600093000163658503480614962500000000000        
20161227000000000031500024600031500170018213052433910500063008816        
9999999900000016000000000001089500                                       
