00000000MARITIMO S.R.L.     20161228COBRANZAS RAPIPAGO                   
20161228000000000075000024600075000170042917032188317500000000037        
20161228000000000075000024600075000163642917023450357800000000063        
20161228000000000080000024600080000170011850042611395400200008884        
20161228000000000031500024600031500163638213081378620500063000016        
20161228000000000052500024600052500170018304243005040500075008842        
20161228000000000052500024600052500163638304124366747400075000078        
20161228000000000048000024600048000170031005211078044800100000157        
20161228000000000072500024600072500170048503063348328800000000021        
20161228000000000080000024600080000170011850052399507600200008837        
20161228000000000080000024600080000170011850102483608700200008884        
20161228000000000093000024600093000170048503442098372400000000016        
20161228000000000080000024600080000170011850033106032300200008836        
20161228000000000031500024600031500170018213033533296400063008821        
9999999900000013000000000000851500                                       
