00000000MARITIMO S.R.L.     20151128COBRANZAS RAPIPAGO                   
20151128000000000140000024600140000153320147113843710800000000000        
9999999900000001000000000000140000                                       
