00000000MARITIMO S.R.L.     20160928COBRANZAS RAPIPAGO                   
20160928000000000022000024600022000162781003053439967500030000015        
20160928000000000101000024600101000162797909062561629000155000099        
20160928000000000089000024600089000162731707062663437400000000036        
20160928000000000025000024600025000162761004012850868800000000036        
20160928000000000089000024600089000162731707072388476800000000042        
20160928000000000089000024600089000162731707082001786900000000015        
9999999900000006000000000000415000                                       
