00000000MARITIMO S.R.L.     20170128COBRANZAS RAPIPAGO                   
20170128000000000158000024600158000170310055553991147300000000063        
9999999900000001000000000000158000                                       
