00000000MARITIMO S.R.L.     20150828COBRANZAS RAPIPAGO                   
20150828000000000075000024600075000152420093253320467400110007321        
20150828000000000090000024600090000152470145071662401800000000042        
20150828000000000230000024600230000152428901091031478300000000063        
20150828000000000090000024600090000152460145023483609000000000000        
20150828000000000090000024600090000152460145013854776900000000063        
20150828000000000057000024600057000152420091262376960500150007490        
20150828000000000057000024600057000152420091262332763400150007484        
9999999900000007000000000000689000                                       
