00000000DERAMO FABIAN N.    20150528COBRANZAS RAPIPAGO                   
20150528000000000016000024600016000151550144042253147900000000099        
9999999900000001000000000000016000                                       
