00000000MARITIMO S.R.L.     20160428COBRANZAS RAPIPAGO                   
20160428000000000109500024600109500161210028283514350500000000084        
9999999900000001000000000000109500                                       
