00000000MARITIMO S.R.L.     20161229COBRANZAS RAPIPAGO                   
20161226000000000031500024600031500170018213032935933900063008879        
20161229000000000031500024600031500170018213033079982300063008821        
20161229000000000075000024600075000163642917082245880800000000000        
20161229000000000075000024600075000163652917014012433300000000084        
20161229000000000093000024600093000170038503461433956300000000000        
20161229000000000140000024600140000170050055553687290800095000021        
20161229000000000075000024600075000170052917023218625200000000079        
20161229000000000048000024600048000170031005134127981800100000358        
20161229000000000093000024600093000170068503374278265600000000015        
20161229000000000075000024600075000170062917022977868300000000084        
20161229000000000025200024600025200170018213012741690600042008815        
20161229000000000140000024600140000170020055552864088500095000078        
9999999900000012000000000000902200                                       
