00000000MARITIMO S.R.L.     20160829COBRANZAS RAPIPAGO                   
20160829000000000128000024600128000162430065653701312600000000084        
20160829000000000130000024600130000162480049491904431500000000042        
20160829000000000128000024600128000162430068683810566300000000000        
20160829000000000128000024600128000162430065653640389700000000016        
20160829000000000128000024600128000162430065653511102700000000016        
9999999900000005000000000000642000                                       
