00000000DERAMO FABIAN N.    20150529COBRANZAS RAPIPAGO                   
20150529000000000016000024600016000151510144111626205300000000000        
20150529000000000016000024600016000151510144042213209700000000084        
20150529000000000026000024600026000151518801013820409000040007084        
9999999900000003000000000000058000                                       
