00000000MARITIMO S.R.L.     20160229COBRANZAS RAPIPAGO                   
20160229000000000030000024600030000160639604023687124200030000021        
20160229000000000030000024600030000160638801013687124200000000021        
9999999900000002000000000000060000                                       
