00000000MARITIMO S.R.L.     20151229COBRANZAS RAPIPAGO                   
20151229000000000020000024600020000153642914122662107200000000000        
20151229000000000039000024600039000153658303373246476600060008863        
20151229000000000020000024600020000160022915212244804200000000016        
20151229000000000020000024600020000160022915212364441800000000037        
20151229000000000055000024600055000153631848132940245500340000016        
20151229000000000020000024600020000153642914212899603400000000063        
20151229000000000050000024600050000153652800162765247100200008836        
20151229000000000020000024600020000153642914182471469900000000036        
20151229000000000020000024600020000153642914132356934100000000021        
20151229000000000020000024600020000153642914141726042400000000021        
20151229000000000120000024600120000160055706043497564000000000016        
20151229000000000055000024600055000153651848162267872900340008857        
20151229000000000028400024600028400160038209172250653000031000099        
20151229000000000028400024600028400153658209073266849500031000079        
20151229000000000020000024600020000153642914212115078200000000063        
20151229000000000020000024600020000153642914222240237900000000000        
20151229000000000039000024600039000153658303043212096300060008878        
20151229000000000020000024600020000160042915113385076900000000090        
9999999900000018000000000000614800                                       
