00000000MARITIMO S.R.L.     20151029COBRANZAS RAPIPAGO                   
20151029000000000230000024600230000153088901032871301500000000021        
20151029000000000140000024600140000153080147162108093000000000078        
20151029000000000022000024600022000153028208053103168900000000016        
20151029000000000035700024600035700153028208092345748600000000000        
20151029000000000035700024600035700153028208153391294000000000063        
20151029000000000035700024600035700153028208073456135000000000021        
20151029000000000140000024600140000153060147142740235100000000016        
20151029000000000035700024600035700153028208191868830300000000000        
20151029000000000140000024600140000153030147162072959700000000058        
9999999900000009000000000000814800                                       
