00000000MARITIMO S.R.L.     20160729COBRANZAS RAPIPAGO                   
20160729000000000045000024600045000162115904032839092000000000063        
20160729000000000128000024600128000162120064643701312600000000063        
20160729000000000045000024600045000162115904093136431500000000037        
20160729000000000034500024600034500162138803013570422800045007257        
20160729000000000115000024600115000162180050503523592800080000000        
20160729000000000122000024600122000162180065653523592800030000079        
20160729000000000020000024600020000162127603043233213200100007463        
20160729000000000045000024600045000162115904092557720600000000000        
20160729000000000050000024600050000162115904172394364900000000057        
20160729000000000045000024600045000162115904042090869300000000016        
9999999900000010000000000000649500                                       
