00000000MARITIMO S.R.L.     20150829COBRANZAS RAPIPAGO                   
20150829000000000012000024600012000152420500171724307300020000090        
20150829000000000057000024600057000152420091382802794600150007563        
20150829000000000057000024600057000152420091363640110500150007516        
20150829000000000057000024600057000152420091191464258900150007263        
20150829000000000057000024600057000152420091291352220100150007215        
20150829000000000057000024600057000152420091291290436700150007400        
9999999900000006000000000000297000                                       
