00000000MARITIMO S.R.L.     20150929COBRANZAS RAPIPAGO                   
20150929000000000033600024600033600152758208072902314200021000084        
20150929000000000079500024600079500152727906082056687300150000058        
20150929000000000080000024600080000152798901252270798500000000042        
20150929000000000079500024600079500152757906161293117000150000478        
20150929000000000079500024600079500152757906024086876800150000390        
20150929000000000020000024600020000152799603024483673600000000037        
20150929000000000072000024600072000152730091153103353600070007637        
20150929000000000021000024600021000152788208043533356800010000058        
20150929000000000021000024600021000152788208041647735600010000036        
20150929000000000055000024600055000152731846081369786900100007584        
20150929000000000079500024600079500152757906062794786800150000457        
20150929000000000079500024600079500152757906052948564400150000457        
20150929000000000033600024600033600152778208082558073700021000021        
9999999900000013000000000000733700                                       
