00000000MARITIMO S.R.L.     20150930COBRANZAS RAPIPAGO                   
20150930000000000020000024600020000152795204211210746600020000042        
20150930000000000055000024600055000152731846062032963400100007499        
20150930000000000112000024600112000152790093033060348700040000015        
20150930000000000079500024600079500152757906142716762500150000421        
20150930000000000079500024600079500152757906043305578600150000415        
20150930000000000079500024600079500152747906062569623300150000084        
20150930000000000033600024600033600152788208073516827200021000058        
20150930000000000079500024600079500152757906082001786900150000400        
9999999900000008000000000000538600                                       
