00000000MARITIMO S.R.L.     20160530COBRANZAS RAPIPAGO                   
20160530000000000060000024600060000161529601023261466700000000042        
20160530000000000034500024600034500161538803013261466700045000015        
20160530000000000034500024600034500161538803014539652600045000079        
20160530000000000034500024600034500161588803013669395600045000079        
20160530000000000034500024600034500161538803013146740000045000015        
20160530000000000044000024600044000161528804013146740000000000090        
20160530000000000034500024600034500161588803013570373600045000000        
20160530000000000034500024600034500161588803013125018100045000042        
20160530000000000060000024600060000161520258023306892900150007199        
20160530000000000034500024600034500161558803013221729800045000037        
20160530000000000034500024600034500161558803013482029500045000021        
20160530000000000045000024600045000161520258511409369800150007421        
20160530000000000045000024600045000161520258611662051400150007478        
20160530000000000060000024600060000161520258081434356500150007421        
20160530000000000034500024600034500161578803014071434200045000063        
9999999900000015000000000000624500                                       
