00000000MARITIMO S.R.L.     20151230COBRANZAS RAPIPAGO                   
20151229000000000020000024600020000153642914132195025500000000021        
20151229000000000020000024600020000153642914122530030000000000000        
20151230000000000055000024600055000153651848061841726700340008842        
20151230000000000020000024600020000153642914212079741900000000084        
20151230000000000020000024600020000153642914222159889100000000063        
20151230000000000055000024600055000153651848081299148500340008858        
20151230000000000055000024600055000153651848152313687100340008842        
20151230000000000070000024600070000160058502422634654900000000090        
20151230000000000055000024600055000153651848132969054100340008800        
20151230000000000020000024600020000153642914141720533100000000042        
20151230000000000039000024600039000153658303023949090200060008842        
20151230000000000120000024600120000160045706062794383600000000000        
20151230000000000020000024600020000153642914122514652900000000036        
20151230000000000020000024600020000153642914172976883700000000042        
20151230000000000020000024600020000153642914172976284500000000000        
20151230000000000020000024600020000153642914122575020300000000021        
20151230000000000020000024600020000153642914182324299500000000057        
20151230000000000039000024600039000153658303102378741800060008800        
20151230000000000028400024600028400160038209082674536500031000363        
20151230000000000021000024600021000160038209052153866600032000290        
20151230000000000020000024600020000153642914222712208900000000015        
20151230000000000020000024600020000153642914212635078800000000063        
20151230000000000070000024600070000160068502422803235700000000090        
20151230000000000020000024600020000153642914223042199300000000015        
20151230000000000020000024600020000153642914222649745400000000078        
20151230000000000020000024600020000153642914222880305500000000000        
20151230000000000055000024600055000153651848033163966500340008800        
20151230000000000028400024600028400160038209172414891100031000378        
20151230000000000020000024600020000153642914222691826400000000000        
20151230000000000020000024600020000153642914123014057900000000000        
20151230000000000020000024600020000153642914113929264900000000090        
20151230000000000020000024600020000153642914222995787000000000099        
20151230000000000020000024600020000153642914132156713000000000036        
20151230000000000020000024600020000153642914222947054200000000099        
9999999900000034000000000001110800                                       
