00000000MARITIMO S.R.L.     20151130COBRANZAS RAPIPAGO                   
20151130000000000020000024600020000153352914191708660100000000000        
20151130000000000055000024600055000153341847042794143600000000021        
20151130000000000088000024600088000153419919033515713500070000042        
20151130000000000144700024600144700153419921014013244800000000015        
20151130000000000144700024600144700153419921034013244800000000063        
20151130000000000144700024600144700153419921024013244800000000037        
20151130000000000020000024600020000153412914212568600100000000037        
20151130000000000140000024600140000153400147161856334300000000084        
20151130000000000099500024600099500153349919033991705800000000084        
20151130000000000020000024600020000153347104042000073500000000058        
20151130000000000140000024600140000153410147152271784200000000015        
20151130000000000140000024600140000153340147142891680600000000099        
9999999900000012000000000001156600                                       
