00000000MARITIMO S.R.L.     20160730COBRANZAS RAPIPAGO                   
20160730000000000044100024600044100162168211152013578900042000021        
20160730000000000060000024600060000162139601023004629900000000057        
20160730000000000060000024600060000162139601022459167500000000078        
20160730000000000060000024600060000162139601022501758800000000090        
20160730000000000060000024600060000162139601022449127700000000021        
20160730000000000044100024600044100162198211052377975600042000084        
9999999900000006000000000000328200                                       
