00000000MARITIMO S.R.L.     20161230COBRANZAS RAPIPAGO                   
20161230000000000031500024600031500170018213033391272500063008857        
20161230000000000031500024600031500170018213061786393900063008884        
20161230000000000031500024600031500170018213224073311000063008800        
20161230000000000072500024600072500170068503073135186800000000036        
20161230000000000093000024600093000170068503562899265900000000042        
20161230000000000093000024600093000170068503543540808000000000058        
20161230000000000070000024600070000170031006052779103400100000390        
20161230000000000080000024600080000170011850102245852500200008837        
20161230000000000025200024600025200170018213022990610200042008816        
20161230000000000025200024600025200170018213029247797700042008878        
20161230000000000031500024600031500170018213071725494400063008821        
20161230000000000025200024600025200170018213014224880900042008800        
20161230000000000025200024600025200170018213024064294100042008899        
20161230000000000031500024600031500170018213042887859700063008879        
20161230000000000031500024600031500170018213033129912700063008884        
20161230000000000158000024600158000170010054543819946200000000063        
20161230000000000080000024600080000170011850102459111500200008800        
20161230000000000080000024600080000170011850052311958900200008878        
20161230000000000031500024600031500170018213122954490400063008890        
20161230000000000031500024600031500170018213062153603800063008800        
20161230000000000031500024600031500170018213042860810000063008884        
20161230000000000031500024600031500170018213042845453900063008884        
20161230000000000031500024600031500170018213091059126600063008863        
20161230000000000031500024600031500170018213052469922600063008815        
9999999900000024000000000001205300                                       
