00000000MARITIMO S.R.L.     20160930COBRANZAS RAPIPAGO                   
20160930000000000094500024600094500162740069693827732000000000036        
20160930000000000048000024600048000162741002172746020800120007716        
20160930000000000048000024600048000162741002183008682500120007784        
20160930000000000130000024600130000162800050504150272500000000084        
20160930000000000094500024600094500162740069694150272500000000057        
20160930000000000094500024600094500162740069694139450400000000078        
20160930000000000094500024600094500162740069693299672600000000015        
20160930000000000057700024600057700162798212222556908700053000000        
9999999900000008000000000000661700                                       
