00000000MARITIMO S.R.L.     20161031COBRANZAS RAPIPAGO                   
20161031000000000035000024600035000163058304172469931400100000016        
20161031000000000055000024600055000163122917082332152800100000084        
20161031000000000055000024600055000163122917041608931000100000063        
20161031000000000290000024600290000163068903071717369000000000099        
20161031000000000058000024600058000163051006052876761400120007684        
20161031000000000290000024600290000163068903042631165800000000058        
20161031000000000048000024600048000163051001071818355800100007284        
9999999900000007000000000000831000                                       
