00000000MARITIMO S.R.L.     20150831COBRANZAS RAPIPAGO                   
20150831000000000090000024600090000152460145052246716700000000079        
20150831000000000230000024600230000152478901071618581500000000084        
20150831000000000088000024600088000152509903033725984100070000000        
20150831000000000058000024600058000152509914013725984100000000058        
20150831000000000088000024600088000152449903033615448900070000090        
20150831000000000090000024600090000152440145032916549100000000063        
20150831000000000079500024600079500152507906072370886400150000063        
20150831000000000057000024600057000152430091233339717200150007621        
9999999900000008000000000000780500                                       
